{
  "contractName": "KajuswapFactory",
  "abi": [
    {
      "inputs": [],
      "name": "IdenticalAddresses",
      "type": "error"
    },
    {
      "inputs": [],
      "name": "PairExists",
      "type": "error"
    },
    {
      "inputs": [],
      "name": "ZeroAddress",
      "type": "error"
    },
    {
      "anonymous": false,
      "inputs": [
        {
          "indexed": true,
          "internalType": "address",
          "name": "token0",
          "type": "address"
        },
        {
          "indexed": true,
          "internalType": "address",
          "name": "token1",
          "type": "address"
        },
        {
          "indexed": false,
          "internalType": "address",
          "name": "pair",
          "type": "address"
        },
        {
          "indexed": false,
          "internalType": "uint256",
          "name": "",
          "type": "uint256"
        }
      ],
      "name": "PairCreated",
      "type": "event"
    },
    {
      "inputs": [
        {
          "internalType": "uint256",
          "name": "",
          "type": "uint256"
        }
      ],
      "name": "allPairs",
      "outputs": [
        {
          "internalType": "address",
          "name": "",
          "type": "address"
        }
      ],
      "stateMutability": "view",
      "type": "function",
      "constant": true
    },
    {
      "inputs": [
        {
          "internalType": "address",
          "name": "",
          "type": "address"
        },
        {
          "internalType": "address",
          "name": "",
          "type": "address"
        }
      ],
      "name": "pairs",
      "outputs": [
        {
          "internalType": "address",
          "name": "",
          "type": "address"
        }
      ],
      "stateMutability": "view",
      "type": "function",
      "constant": true
    },
    {
      "inputs": [
        {
          "internalType": "address",
          "name": "tokenA",
          "type": "address"
        },
        {
          "internalType": "address",
          "name": "tokenB",
          "type": "address"
        }
      ],
      "name": "createPair",
      "outputs": [
        {
          "internalType": "address",
          "name": "pair",
          "type": "address"
        }
      ],
      "stateMutability": "nonpayable",
      "type": "function"
    }
  ],
  "bytecode": "0x608060405234801561001057600080fd5b50614157806100206000396000f3fe60806040523480156200001157600080fd5b5060043610620000465760003560e01c80631e3dd18b146200004b57806369454b861462000081578063c9c6539614620000b7575b600080fd5b620000696004803603810190620000639190620006f9565b620000ed565b60405162000078919062000770565b60405180910390f35b6200009f6004803603810190620000999190620007be565b6200012d565b604051620000ae919062000770565b60405180910390f35b620000d56004803603810190620000cf9190620007be565b6200016f565b604051620000e4919062000770565b60405180910390f35b60018181548110620000fe57600080fd5b906000526020600020016000915054906101000a900473ffffffffffffffffffffffffffffffffffffffff1681565b60006020528160005260406000206020528060005260406000206000915091509054906101000a900473ffffffffffffffffffffffffffffffffffffffff1681565b60008173ffffffffffffffffffffffffffffffffffffffff168373ffffffffffffffffffffffffffffffffffffffff1603620001d7576040517fbd969eb000000000000000000000000000000000000000000000000000000000815260040160405180910390fd5b6000808373ffffffffffffffffffffffffffffffffffffffff168573ffffffffffffffffffffffffffffffffffffffff16106200021657838562000219565b84845b91509150600073ffffffffffffffffffffffffffffffffffffffff168273ffffffffffffffffffffffffffffffffffffffff160362000284576040517fd92e233d00000000000000000000000000000000000000000000000000000000815260040160405180910390fd5b600073ffffffffffffffffffffffffffffffffffffffff166000808473ffffffffffffffffffffffffffffffffffffffff1673ffffffffffffffffffffffffffffffffffffffff16815260200190815260200160002060008373ffffffffffffffffffffffffffffffffffffffff1673ffffffffffffffffffffffffffffffffffffffff16815260200190815260200160002060009054906101000a900473ffffffffffffffffffffffffffffffffffffffff1673ffffffffffffffffffffffffffffffffffffffff161462000386576040517f3d77e89100000000000000000000000000000000000000000000000000000000815260040160405180910390fd5b6000604051806020016200039a90620006ab565b6020820181038252601f19601f82011660405250905060008383604051602001620003c792919062000855565b604051602081830303815290604052805190602001209050808251602084016000f594508473ffffffffffffffffffffffffffffffffffffffff1663485cc95585856040518363ffffffff1660e01b81526004016200042892919062000885565b600060405180830381600087803b1580156200044357600080fd5b505af115801562000458573d6000803e3d6000fd5b50505050846000808673ffffffffffffffffffffffffffffffffffffffff1673ffffffffffffffffffffffffffffffffffffffff16815260200190815260200160002060008573ffffffffffffffffffffffffffffffffffffffff1673ffffffffffffffffffffffffffffffffffffffff16815260200190815260200160002060006101000a81548173ffffffffffffffffffffffffffffffffffffffff021916908373ffffffffffffffffffffffffffffffffffffffff160217905550846000808573ffffffffffffffffffffffffffffffffffffffff1673ffffffffffffffffffffffffffffffffffffffff16815260200190815260200160002060008673ffffffffffffffffffffffffffffffffffffffff1673ffffffffffffffffffffffffffffffffffffffff16815260200190815260200160002060006101000a81548173ffffffffffffffffffffffffffffffffffffffff021916908373ffffffffffffffffffffffffffffffffffffffff1602179055506001859080600181540180825580915050600190039060005260206000200160009091909190916101000a81548173ffffffffffffffffffffffffffffffffffffffff021916908373ffffffffffffffffffffffffffffffffffffffff1602179055508273ffffffffffffffffffffffffffffffffffffffff168473ffffffffffffffffffffffffffffffffffffffff167f0d3648bd0f6ba80134a33ba9275ac585d9d315f0ad8355cddefde31afa28d0e98760018054905060405162000699929190620008c3565b60405180910390a35050505092915050565b61383180620008f183390190565b600080fd5b6000819050919050565b620006d381620006be565b8114620006df57600080fd5b50565b600081359050620006f381620006c8565b92915050565b600060208284031215620007125762000711620006b9565b5b60006200072284828501620006e2565b91505092915050565b600073ffffffffffffffffffffffffffffffffffffffff82169050919050565b600062000758826200072b565b9050919050565b6200076a816200074b565b82525050565b60006020820190506200078760008301846200075f565b92915050565b62000798816200074b565b8114620007a457600080fd5b50565b600081359050620007b8816200078d565b92915050565b60008060408385031215620007d857620007d7620006b9565b5b6000620007e885828601620007a7565b9250506020620007fb85828601620007a7565b9150509250929050565b60008160601b9050919050565b60006200081f8262000805565b9050919050565b6000620008338262000812565b9050919050565b6200084f62000849826200074b565b62000826565b82525050565b60006200086382856200083a565b6014820191506200087582846200083a565b6014820191508190509392505050565b60006040820190506200089c60008301856200075f565b620008ab60208301846200075f565b9392505050565b620008bd81620006be565b82525050565b6000604082019050620008da60008301856200075f565b620008e96020830184620008b2565b939250505056fe60e06040523480156200001157600080fd5b506040518060400160405280600d81526020017f4b616a75737761702050616972000000000000000000000000000000000000008152506040518060400160405280600481526020017f4b414a5500000000000000000000000000000000000000000000000000000000815250601282600090805190602001906200009892919062000178565b508160019080519060200190620000b192919062000178565b508060ff1660808160ff16815250504660a08181525050620000d8620000e860201b60201c565b60c0818152505050505062000428565b60007f8b73c3c69bb8fe3d512ecc4cf759cc79239f7b179b0ffacaa9a75d522b39400f60006040516200011c919062000337565b60405180910390207fc89efdaa54c0f20c7adf612882df0950f5a951637e0307cdcb4c672f298b8bc646306040516020016200015d959493929190620003cb565b60405160208183030381529060405280519060200120905090565b828054620001869062000257565b90600052602060002090601f016020900481019282620001aa5760008555620001f6565b82601f10620001c557805160ff1916838001178555620001f6565b82800160010185558215620001f6579182015b82811115620001f5578251825591602001919060010190620001d8565b5b50905062000205919062000209565b5090565b5b80821115620002245760008160009055506001016200020a565b5090565b7f4e487b7100000000000000000000000000000000000000000000000000000000600052602260045260246000fd5b600060028204905060018216806200027057607f821691505b60208210810362000286576200028562000228565b5b50919050565b600081905092915050565b60008190508160005260206000209050919050565b60008154620002bb8162000257565b620002c781866200028c565b94506001821660008114620002e55760018114620002f7576200032e565b60ff198316865281860193506200032e565b620003028562000297565b60005b83811015620003265781548189015260018201915060208101905062000305565b838801955050505b50505092915050565b6000620003458284620002ac565b915081905092915050565b6000819050919050565b620003658162000350565b82525050565b6000819050919050565b62000380816200036b565b82525050565b600073ffffffffffffffffffffffffffffffffffffffff82169050919050565b6000620003b38262000386565b9050919050565b620003c581620003a6565b82525050565b600060a082019050620003e260008301886200035a565b620003f160208301876200035a565b6200040060408301866200035a565b6200040f606083018562000375565b6200041e6080830184620003ba565b9695505050505050565b60805160a05160c0516133d9620004586000396000610903015260006108cf015260006108a901526133d96000f3fe608060405234801561001057600080fd5b50600436106101425760003560e01c80636a627842116100b857806395d89b411161007c57806395d89b4114610392578063a9059cbb146103b0578063d21220a7146103e0578063d505accf146103fe578063dd62ed3e1461041a578063fff6cae91461044a57610142565b80636a627842146102b55780636d9a640a146102e557806370a08231146103015780637ecebe001461033157806389afcb441461036157610142565b806323b872dd1161010a57806323b872dd146101f1578063313ce567146102215780633644e5151461023f578063485cc9551461025d5780635909c0d5146102795780635a3d54931461029757610142565b806306fdde03146101475780630902f1ac14610165578063095ea7b3146101855780630dfe1681146101b557806318160ddd146101d3575b600080fd5b61014f610454565b60405161015c9190612702565b60405180910390f35b61016d6104e2565b60405161017c9392919061276c565b60405180910390f35b61019f600480360381019061019a919061283c565b61053f565b6040516101ac9190612897565b60405180910390f35b6101bd610631565b6040516101ca91906128c1565b60405180910390f35b6101db610657565b6040516101e891906128eb565b60405180910390f35b61020b60048036038101906102069190612906565b61065d565b6040516102189190612897565b60405180910390f35b6102296108a7565b6040516102369190612975565b60405180910390f35b6102476108cb565b60405161025491906129a9565b60405180910390f35b610277600480360381019061027291906129c4565b610928565b005b610281610a92565b60405161028e91906128eb565b60405180910390f35b61029f610a98565b6040516102ac91906128eb565b60405180910390f35b6102cf60048036038101906102ca9190612a04565b610a9e565b6040516102dc91906128eb565b60405180910390f35b6102ff60048036038101906102fa9190612a31565b610e01565b005b61031b60048036038101906103169190612a04565b6113a5565b60405161032891906128eb565b60405180910390f35b61034b60048036038101906103469190612a04565b6113bd565b60405161035891906128eb565b60405180910390f35b61037b60048036038101906103769190612a04565b6113d5565b604051610389929190612a84565b60405180910390f35b61039a61187e565b6040516103a79190612702565b60405180910390f35b6103ca60048036038101906103c5919061283c565b61190c565b6040516103d79190612897565b60405180910390f35b6103e8611a20565b6040516103f591906128c1565b60405180910390f35b61041860048036038101906104139190612b05565b611a46565b005b610434600480360381019061042f91906129c4565b611d3f565b60405161044191906128eb565b60405180910390f35b610452611d64565b005b6000805461046190612bd6565b80601f016020809104026020016040519081016040528092919081815260200182805461048d90612bd6565b80156104da5780601f106104af576101008083540402835291602001916104da565b820191906000526020600020905b8154815290600101906020018083116104bd57829003601f168201915b505050505081565b6000806000600860009054906101000a90046dffffffffffffffffffffffffffff166008600e9054906101000a90046dffffffffffffffffffffffffffff166008601c9054906101000a900463ffffffff16925092509250909192565b600081600460003373ffffffffffffffffffffffffffffffffffffffff1673ffffffffffffffffffffffffffffffffffffffff16815260200190815260200160002060008573ffffffffffffffffffffffffffffffffffffffff1673ffffffffffffffffffffffffffffffffffffffff168152602001908152602001600020819055508273ffffffffffffffffffffffffffffffffffffffff163373ffffffffffffffffffffffffffffffffffffffff167f8c5be1e5ebec7d5bd14f71427d1e84f3dd0314c0f7b2291e5b200ac8c7c3b9258460405161061f91906128eb565b60405180910390a36001905092915050565b600660009054906101000a900473ffffffffffffffffffffffffffffffffffffffff1681565b60025481565b600080600460008673ffffffffffffffffffffffffffffffffffffffff1673ffffffffffffffffffffffffffffffffffffffff16815260200190815260200160002060003373ffffffffffffffffffffffffffffffffffffffff1673ffffffffffffffffffffffffffffffffffffffff1681526020019081526020016000205490507fffffffffffffffffffffffffffffffffffffffffffffffffffffffffffffffff81146107935782816107129190612c36565b600460008773ffffffffffffffffffffffffffffffffffffffff1673ffffffffffffffffffffffffffffffffffffffff16815260200190815260200160002060003373ffffffffffffffffffffffffffffffffffffffff1673ffffffffffffffffffffffffffffffffffffffff168152602001908152602001600020819055505b82600360008773ffffffffffffffffffffffffffffffffffffffff1673ffffffffffffffffffffffffffffffffffffffff16815260200190815260200160002060008282546107e29190612c36565b9250508190555082600360008673ffffffffffffffffffffffffffffffffffffffff1673ffffffffffffffffffffffffffffffffffffffff168152602001908152602001600020600082825401925050819055508373ffffffffffffffffffffffffffffffffffffffff168573ffffffffffffffffffffffffffffffffffffffff167fddf252ad1be2c89b69c2b068fc378daa952ba7f163c4a11628f55a4df523b3ef8560405161089391906128eb565b60405180910390a360019150509392505050565b7f000000000000000000000000000000000000000000000000000000000000000081565b60007f00000000000000000000000000000000000000000000000000000000000000004614610901576108fc611f44565b610923565b7f00000000000000000000000000000000000000000000000000000000000000005b905090565b600073ffffffffffffffffffffffffffffffffffffffff16600660009054906101000a900473ffffffffffffffffffffffffffffffffffffffff1673ffffffffffffffffffffffffffffffffffffffff161415806109d55750600073ffffffffffffffffffffffffffffffffffffffff16600760009054906101000a900473ffffffffffffffffffffffffffffffffffffffff1673ffffffffffffffffffffffffffffffffffffffff1614155b15610a0c576040517f0dc149f000000000000000000000000000000000000000000000000000000000815260040160405180910390fd5b81600660006101000a81548173ffffffffffffffffffffffffffffffffffffffff021916908373ffffffffffffffffffffffffffffffffffffffff16021790555080600760006101000a81548173ffffffffffffffffffffffffffffffffffffffff021916908373ffffffffffffffffffffffffffffffffffffffff1602179055505050565b60095481565b600a5481565b6000600b60009054906101000a900460ff1615610af0576040517f08c379a0000000000000000000000000000000000000000000000000000000008152600401610ae790612cdc565b60405180910390fd5b6001600b60006101000a81548160ff021916908315150217905550600080610b166104e2565b50915091506000600660009054906101000a900473ffffffffffffffffffffffffffffffffffffffff1673ffffffffffffffffffffffffffffffffffffffff166370a08231306040518263ffffffff1660e01b8152600401610b7891906128c1565b6020604051808303816000875af1158015610b97573d6000803e3d6000fd5b505050506040513d601f19601f82011682018060405250810190610bbb9190612d11565b90506000600760009054906101000a900473ffffffffffffffffffffffffffffffffffffffff1673ffffffffffffffffffffffffffffffffffffffff166370a08231306040518263ffffffff1660e01b8152600401610c1a91906128c1565b6020604051808303816000875af1158015610c39573d6000803e3d6000fd5b505050506040513d601f19601f82011682018060405250810190610c5d9190612d11565b90506000846dffffffffffffffffffffffffffff1683610c7d9190612c36565b90506000846dffffffffffffffffffffffffffff1683610c9d9190612c36565b9050600060025403610cde576103e8610cc08284610cbb9190612d3e565b611fd0565b610cca9190612c36565b9650610cd960006103e861204a565b610d3b565b610d38866dffffffffffffffffffffffffffff1660025484610d009190612d3e565b610d0a9190612dc7565b866dffffffffffffffffffffffffffff1660025484610d299190612d3e565b610d339190612dc7565b61211a565b96505b60008711610d75576040517fd226f9d400000000000000000000000000000000000000000000000000000000815260040160405180910390fd5b610d7f888861204a565b610d8b84848888612133565b8773ffffffffffffffffffffffffffffffffffffffff167f4c209b5fc8ad50758f13e2e1088ba56a560dff690a1c6fef26394f4c03821c4f8383604051610dd3929190612a84565b60405180910390a25050505050506000600b60006101000a81548160ff021916908315150217905550919050565b600b60009054906101000a900460ff1615610e51576040517f08c379a0000000000000000000000000000000000000000000000000000000008152600401610e4890612cdc565b60405180910390fd5b6001600b60006101000a81548160ff021916908315150217905550600083148015610e7c5750600082145b15610eb3576040517f42301c2300000000000000000000000000000000000000000000000000000000815260040160405180910390fd5b600080610ebe6104e2565b5091509150816dffffffffffffffffffffffffffff16851180610ef05750806dffffffffffffffffffffffffffff1684115b15610f27576040517fbb55fd2700000000000000000000000000000000000000000000000000000000815260040160405180910390fd5b6000851115610f5e57610f5d600660009054906101000a900473ffffffffffffffffffffffffffffffffffffffff1684876123d7565b5b6000841115610f9557610f94600760009054906101000a900473ffffffffffffffffffffffffffffffffffffffff1684866123d7565b5b6000600660009054906101000a900473ffffffffffffffffffffffffffffffffffffffff1673ffffffffffffffffffffffffffffffffffffffff166370a08231306040518263ffffffff1660e01b8152600401610ff291906128c1565b6020604051808303816000875af1158015611011573d6000803e3d6000fd5b505050506040513d601f19601f820116820180604052508101906110359190612d11565b90506000600760009054906101000a900473ffffffffffffffffffffffffffffffffffffffff1673ffffffffffffffffffffffffffffffffffffffff166370a08231306040518263ffffffff1660e01b815260040161109491906128c1565b6020604051808303816000875af11580156110b3573d6000803e3d6000fd5b505050506040513d601f19601f820116820180604052508101906110d79190612d11565b9050600087600860009054906101000a90046dffffffffffffffffffffffffffff166dffffffffffffffffffffffffffff166111139190612c36565b8311611120576000611164565b87600860009054906101000a90046dffffffffffffffffffffffffffff166dffffffffffffffffffffffffffff166111589190612c36565b836111639190612c36565b5b90506000876008600e9054906101000a90046dffffffffffffffffffffffffffff166dffffffffffffffffffffffffffff166111a09190612c36565b83116111ad5760006111f1565b876008600e9054906101000a90046dffffffffffffffffffffffffffff166dffffffffffffffffffffffffffff166111e59190612c36565b836111f09190612c36565b5b90506000821480156112035750600081145b1561123a576040517f098fb56100000000000000000000000000000000000000000000000000000000815260040160405180910390fd5b60006003836112499190612d3e565b6103e8866112579190612d3e565b6112619190612c36565b905060006003836112729190612d3e565b6103e8866112809190612d3e565b61128a9190612c36565b9050620f4240876dffffffffffffffffffffffffffff16896dffffffffffffffffffffffffffff166112bc9190612d3e565b6112c69190612d3e565b81836112d29190612d3e565b101561130a576040517fbd8bc36400000000000000000000000000000000000000000000000000000000815260040160405180910390fd5b61131686868a8a612133565b8873ffffffffffffffffffffffffffffffffffffffff163373ffffffffffffffffffffffffffffffffffffffff167f2a9237ff5aa599ef4c5ee4b1142b53429d5755e2685fe6288b2e3320202115f58d8d604051611375929190612a84565b60405180910390a350505050505050506000600b60006101000a81548160ff021916908315150217905550505050565b60036020528060005260406000206000915090505481565b60056020528060005260406000206000915090505481565b600080600b60009054906101000a900460ff1615611428576040517f08c379a000000000000000000000000000000000000000000000000000000000815260040161141f90612cdc565b60405180910390fd5b6001600b60006101000a81548160ff0219169083151502179055506000600660009054906101000a900473ffffffffffffffffffffffffffffffffffffffff1673ffffffffffffffffffffffffffffffffffffffff166370a08231306040518263ffffffff1660e01b81526004016114a091906128c1565b6020604051808303816000875af11580156114bf573d6000803e3d6000fd5b505050506040513d601f19601f820116820180604052508101906114e39190612d11565b90506000600760009054906101000a900473ffffffffffffffffffffffffffffffffffffffff1673ffffffffffffffffffffffffffffffffffffffff166370a08231306040518263ffffffff1660e01b815260040161154291906128c1565b6020604051808303816000875af1158015611561573d6000803e3d6000fd5b505050506040513d601f19601f820116820180604052508101906115859190612d11565b90506000600360003073ffffffffffffffffffffffffffffffffffffffff1673ffffffffffffffffffffffffffffffffffffffff16815260200190815260200160002054905060025483826115da9190612d3e565b6115e49190612dc7565b945060025482826115f59190612d3e565b6115ff9190612dc7565b935060008514806116105750600084145b15611647576040517f749383ad00000000000000000000000000000000000000000000000000000000815260040160405180910390fd5b611651308261253f565b61167e600660009054906101000a900473ffffffffffffffffffffffffffffffffffffffff1687876123d7565b6116ab600760009054906101000a900473ffffffffffffffffffffffffffffffffffffffff1687866123d7565b600660009054906101000a900473ffffffffffffffffffffffffffffffffffffffff1673ffffffffffffffffffffffffffffffffffffffff166370a08231306040518263ffffffff1660e01b815260040161170691906128c1565b6020604051808303816000875af1158015611725573d6000803e3d6000fd5b505050506040513d601f19601f820116820180604052508101906117499190612d11565b9250600760009054906101000a900473ffffffffffffffffffffffffffffffffffffffff1673ffffffffffffffffffffffffffffffffffffffff166370a08231306040518263ffffffff1660e01b81526004016117a691906128c1565b6020604051808303816000875af11580156117c5573d6000803e3d6000fd5b505050506040513d601f19601f820116820180604052508101906117e99190612d11565b91506000806117f66104e2565b509150915061180785858484612133565b3373ffffffffffffffffffffffffffffffffffffffff167fdccd412f0b1252819cb1fd330b93224ca42612892bb3f4f789976e6d8193649688888b60405161185193929190612df8565b60405180910390a250505050506000600b60006101000a81548160ff021916908315150217905550915091565b6001805461188b90612bd6565b80601f01602080910402602001604051908101604052809291908181526020018280546118b790612bd6565b80156119045780601f106118d957610100808354040283529160200191611904565b820191906000526020600020905b8154815290600101906020018083116118e757829003601f168201915b505050505081565b600081600360003373ffffffffffffffffffffffffffffffffffffffff1673ffffffffffffffffffffffffffffffffffffffff168152602001908152602001600020600082825461195d9190612c36565b9250508190555081600360008573ffffffffffffffffffffffffffffffffffffffff1673ffffffffffffffffffffffffffffffffffffffff168152602001908152602001600020600082825401925050819055508273ffffffffffffffffffffffffffffffffffffffff163373ffffffffffffffffffffffffffffffffffffffff167fddf252ad1be2c89b69c2b068fc378daa952ba7f163c4a11628f55a4df523b3ef84604051611a0e91906128eb565b60405180910390a36001905092915050565b600760009054906101000a900473ffffffffffffffffffffffffffffffffffffffff1681565b42841015611a89576040517f08c379a0000000000000000000000000000000000000000000000000000000008152600401611a8090612e7b565b60405180910390fd5b60006001611a956108cb565b7f6e71edae12b1b97f4d1f60370fef10105fa2faae0126114a169c64845d6126c98a8a8a600560008f73ffffffffffffffffffffffffffffffffffffffff1673ffffffffffffffffffffffffffffffffffffffff1681526020019081526020016000206000815480929190600101919050558b604051602001611b1d96959493929190612e9b565b60405160208183030381529060405280519060200120604051602001611b44929190612f74565b6040516020818303038152906040528051906020012085858560405160008152602001604052604051611b7a9493929190612fab565b6020604051602081039080840390855afa158015611b9c573d6000803e3d6000fd5b505050602060405103519050600073ffffffffffffffffffffffffffffffffffffffff168173ffffffffffffffffffffffffffffffffffffffff1614158015611c1057508773ffffffffffffffffffffffffffffffffffffffff168173ffffffffffffffffffffffffffffffffffffffff16145b611c4f576040517f08c379a0000000000000000000000000000000000000000000000000000000008152600401611c469061303c565b60405180910390fd5b85600460008373ffffffffffffffffffffffffffffffffffffffff1673ffffffffffffffffffffffffffffffffffffffff16815260200190815260200160002060008973ffffffffffffffffffffffffffffffffffffffff1673ffffffffffffffffffffffffffffffffffffffff16815260200190815260200160002081905550508573ffffffffffffffffffffffffffffffffffffffff168773ffffffffffffffffffffffffffffffffffffffff167f8c5be1e5ebec7d5bd14f71427d1e84f3dd0314c0f7b2291e5b200ac8c7c3b92587604051611d2e91906128eb565b60405180910390a350505050505050565b6004602052816000526040600020602052806000526040600020600091509150505481565b600b60009054906101000a900460ff1615611db4576040517f08c379a0000000000000000000000000000000000000000000000000000000008152600401611dab90612cdc565b60405180910390fd5b6001600b60006101000a81548160ff021916908315150217905550600080611dda6104e2565b5091509150611f25600660009054906101000a900473ffffffffffffffffffffffffffffffffffffffff1673ffffffffffffffffffffffffffffffffffffffff166370a08231306040518263ffffffff1660e01b8152600401611e3d91906128c1565b6020604051808303816000875af1158015611e5c573d6000803e3d6000fd5b505050506040513d601f19601f82011682018060405250810190611e809190612d11565b600760009054906101000a900473ffffffffffffffffffffffffffffffffffffffff1673ffffffffffffffffffffffffffffffffffffffff166370a08231306040518263ffffffff1660e01b8152600401611edb91906128c1565b6020604051808303816000875af1158015611efa573d6000803e3d6000fd5b505050506040513d601f19601f82011682018060405250810190611f1e9190612d11565b8484612133565b50506000600b60006101000a81548160ff021916908315150217905550565b60007f8b73c3c69bb8fe3d512ecc4cf759cc79239f7b179b0ffacaa9a75d522b39400f6000604051611f7691906130fb565b60405180910390207fc89efdaa54c0f20c7adf612882df0950f5a951637e0307cdcb4c672f298b8bc64630604051602001611fb5959493929190613112565b60405160208183030381529060405280519060200120905090565b600060038211156120375781905060006001600284611fef9190612dc7565b611ff99190613165565b90505b818110156120315780915060028182856120169190612dc7565b6120209190613165565b61202a9190612dc7565b9050611ffc565b50612045565b6000821461204457600190505b5b919050565b806002600082825461205c9190613165565b9250508190555080600360008473ffffffffffffffffffffffffffffffffffffffff1673ffffffffffffffffffffffffffffffffffffffff168152602001908152602001600020600082825401925050819055508173ffffffffffffffffffffffffffffffffffffffff16600073ffffffffffffffffffffffffffffffffffffffff167fddf252ad1be2c89b69c2b068fc378daa952ba7f163c4a11628f55a4df523b3ef8360405161210e91906128eb565b60405180910390a35050565b6000818310612129578161212b565b825b905092915050565b6dffffffffffffffffffffffffffff801684118061216057506dffffffffffffffffffffffffffff801683115b15612197576040517f89560ca100000000000000000000000000000000000000000000000000000000815260040160405180910390fd5b60006008601c9054906101000a900463ffffffff164203905060008163ffffffff161180156121d657506000836dffffffffffffffffffffffffffff16115b80156121f257506000826dffffffffffffffffffffffffffff16115b156122d4578063ffffffff166122378461220b8561260f565b7bffffffffffffffffffffffffffffffffffffffffffffffffffffffff1661264390919063ffffffff16565b7bffffffffffffffffffffffffffffffffffffffffffffffffffffffff16026009600082825401925050819055508063ffffffff166122a5836122798661260f565b7bffffffffffffffffffffffffffffffffffffffffffffffffffffffff1661264390919063ffffffff16565b7bffffffffffffffffffffffffffffffffffffffffffffffffffffffff1602600a600082825401925050819055505b5083600860006101000a8154816dffffffffffffffffffffffffffff02191690836dffffffffffffffffffffffffffff160217905550826008600e6101000a8154816dffffffffffffffffffffffffffff02191690836dffffffffffffffffffffffffffff160217905550426008601c6101000a81548163ffffffff021916908363ffffffff1602179055507fcf2aa50876cdfbb541206f89af0ee78d44a2abf8d328e37fa4917f982149848a600860009054906101000a90046dffffffffffffffffffffffffffff166008600e9054906101000a90046dffffffffffffffffffffffffffff166040516123c99291906131f6565b60405180910390a150505050565b6000808473ffffffffffffffffffffffffffffffffffffffff16848460405160240161240492919061321f565b6040516020818303038152906040527fa9059cbb000000000000000000000000000000000000000000000000000000007bffffffffffffffffffffffffffffffffffffffffffffffffffffffff19166020820180517bffffffffffffffffffffffffffffffffffffffffffffffffffffffff838183161783525050505060405161248e9190613284565b6000604051808303816000865af19150503d80600081146124cb576040519150601f19603f3d011682016040523d82523d6000602084013e6124d0565b606091505b5091509150811580612501575060008151141580156125005750808060200190518101906124fe91906132c7565b155b5b15612538576040517f90b8ec1800000000000000000000000000000000000000000000000000000000815260040160405180910390fd5b5050505050565b80600360008473ffffffffffffffffffffffffffffffffffffffff1673ffffffffffffffffffffffffffffffffffffffff168152602001908152602001600020600082825461258e9190612c36565b9250508190555080600260008282540392505081905550600073ffffffffffffffffffffffffffffffffffffffff168273ffffffffffffffffffffffffffffffffffffffff167fddf252ad1be2c89b69c2b068fc378daa952ba7f163c4a11628f55a4df523b3ef8360405161260391906128eb565b60405180910390a35050565b60006e010000000000000000000000000000826dffffffffffffffffffffffffffff1661263c919061331c565b9050919050565b6000816dffffffffffffffffffffffffffff16836126619190613372565b905092915050565b600081519050919050565b600082825260208201905092915050565b60005b838110156126a3578082015181840152602081019050612688565b838111156126b2576000848401525b50505050565b6000601f19601f8301169050919050565b60006126d482612669565b6126de8185612674565b93506126ee818560208601612685565b6126f7816126b8565b840191505092915050565b6000602082019050818103600083015261271c81846126c9565b905092915050565b60006dffffffffffffffffffffffffffff82169050919050565b61274781612724565b82525050565b600063ffffffff82169050919050565b6127668161274d565b82525050565b6000606082019050612781600083018661273e565b61278e602083018561273e565b61279b604083018461275d565b949350505050565b600080fd5b600073ffffffffffffffffffffffffffffffffffffffff82169050919050565b60006127d3826127a8565b9050919050565b6127e3816127c8565b81146127ee57600080fd5b50565b600081359050612800816127da565b92915050565b6000819050919050565b61281981612806565b811461282457600080fd5b50565b60008135905061283681612810565b92915050565b60008060408385031215612853576128526127a3565b5b6000612861858286016127f1565b925050602061287285828601612827565b9150509250929050565b60008115159050919050565b6128918161287c565b82525050565b60006020820190506128ac6000830184612888565b92915050565b6128bb816127c8565b82525050565b60006020820190506128d660008301846128b2565b92915050565b6128e581612806565b82525050565b600060208201905061290060008301846128dc565b92915050565b60008060006060848603121561291f5761291e6127a3565b5b600061292d868287016127f1565b935050602061293e868287016127f1565b925050604061294f86828701612827565b9150509250925092565b600060ff82169050919050565b61296f81612959565b82525050565b600060208201905061298a6000830184612966565b92915050565b6000819050919050565b6129a381612990565b82525050565b60006020820190506129be600083018461299a565b92915050565b600080604083850312156129db576129da6127a3565b5b60006129e9858286016127f1565b92505060206129fa858286016127f1565b9150509250929050565b600060208284031215612a1a57612a196127a3565b5b6000612a28848285016127f1565b91505092915050565b600080600060608486031215612a4a57612a496127a3565b5b6000612a5886828701612827565b9350506020612a6986828701612827565b9250506040612a7a868287016127f1565b9150509250925092565b6000604082019050612a9960008301856128dc565b612aa660208301846128dc565b9392505050565b612ab681612959565b8114612ac157600080fd5b50565b600081359050612ad381612aad565b92915050565b612ae281612990565b8114612aed57600080fd5b50565b600081359050612aff81612ad9565b92915050565b600080600080600080600060e0888a031215612b2457612b236127a3565b5b6000612b328a828b016127f1565b9750506020612b438a828b016127f1565b9650506040612b548a828b01612827565b9550506060612b658a828b01612827565b9450506080612b768a828b01612ac4565b93505060a0612b878a828b01612af0565b92505060c0612b988a828b01612af0565b91505092959891949750929550565b7f4e487b7100000000000000000000000000000000000000000000000000000000600052602260045260246000fd5b60006002820490506001821680612bee57607f821691505b602082108103612c0157612c00612ba7565b5b50919050565b7f4e487b7100000000000000000000000000000000000000000000000000000000600052601160045260246000fd5b6000612c4182612806565b9150612c4c83612806565b925082821015612c5f57612c5e612c07565b5b828203905092915050565b7f4b616a75737761703a20596f752063616e6e6f7420456e74657220696e20746860008201527f6520636f6e747261637400000000000000000000000000000000000000000000602082015250565b6000612cc6602a83612674565b9150612cd182612c6a565b604082019050919050565b60006020820190508181036000830152612cf581612cb9565b9050919050565b600081519050612d0b81612810565b92915050565b600060208284031215612d2757612d266127a3565b5b6000612d3584828501612cfc565b91505092915050565b6000612d4982612806565b9150612d5483612806565b9250817fffffffffffffffffffffffffffffffffffffffffffffffffffffffffffffffff0483118215151615612d8d57612d8c612c07565b5b828202905092915050565b7f4e487b7100000000000000000000000000000000000000000000000000000000600052601260045260246000fd5b6000612dd282612806565b9150612ddd83612806565b925082612ded57612dec612d98565b5b828204905092915050565b6000606082019050612e0d60008301866128dc565b612e1a60208301856128dc565b612e2760408301846128b2565b949350505050565b7f5045524d49545f444541444c494e455f45585049524544000000000000000000600082015250565b6000612e65601783612674565b9150612e7082612e2f565b602082019050919050565b60006020820190508181036000830152612e9481612e58565b9050919050565b600060c082019050612eb0600083018961299a565b612ebd60208301886128b2565b612eca60408301876128b2565b612ed760608301866128dc565b612ee460808301856128dc565b612ef160a08301846128dc565b979650505050505050565b600081905092915050565b7f1901000000000000000000000000000000000000000000000000000000000000600082015250565b6000612f3d600283612efc565b9150612f4882612f07565b600282019050919050565b6000819050919050565b612f6e612f6982612990565b612f53565b82525050565b6000612f7f82612f30565b9150612f8b8285612f5d565b602082019150612f9b8284612f5d565b6020820191508190509392505050565b6000608082019050612fc0600083018761299a565b612fcd6020830186612966565b612fda604083018561299a565b612fe7606083018461299a565b95945050505050565b7f494e56414c49445f5349474e4552000000000000000000000000000000000000600082015250565b6000613026600e83612674565b915061303182612ff0565b602082019050919050565b6000602082019050818103600083015261305581613019565b9050919050565b600081905092915050565b60008190508160005260206000209050919050565b6000815461308981612bd6565b613093818661305c565b945060018216600081146130ae57600181146130bf576130f2565b60ff198316865281860193506130f2565b6130c885613067565b60005b838110156130ea578154818901526001820191506020810190506130cb565b838801955050505b50505092915050565b6000613107828461307c565b915081905092915050565b600060a082019050613127600083018861299a565b613134602083018761299a565b613141604083018661299a565b61314e60608301856128dc565b61315b60808301846128b2565b9695505050505050565b600061317082612806565b915061317b83612806565b9250827fffffffffffffffffffffffffffffffffffffffffffffffffffffffffffffffff038211156131b0576131af612c07565b5b828201905092915050565b6000819050919050565b60006131e06131db6131d684612724565b6131bb565b612806565b9050919050565b6131f0816131c5565b82525050565b600060408201905061320b60008301856131e7565b61321860208301846131e7565b9392505050565b600060408201905061323460008301856128b2565b61324160208301846128dc565b9392505050565b600081519050919050565b600061325e82613248565b613268818561305c565b9350613278818560208601612685565b80840191505092915050565b60006132908284613253565b915081905092915050565b6132a48161287c565b81146132af57600080fd5b50565b6000815190506132c18161329b565b92915050565b6000602082840312156132dd576132dc6127a3565b5b60006132eb848285016132b2565b91505092915050565b60007bffffffffffffffffffffffffffffffffffffffffffffffffffffffff82169050919050565b6000613327826132f4565b9150613332836132f4565b9250817bffffffffffffffffffffffffffffffffffffffffffffffffffffffff048311821515161561336757613366612c07565b5b828202905092915050565b600061337d826132f4565b9150613388836132f4565b92508261339857613397612d98565b5b82820490509291505056fea2646970667358221220f7897aa5b2d9c311b43da04b0d0557c132e764de5a78be7d25db5b4bf52ce52864736f6c634300080e0033a264697066735822122041df556fc4020d1d1c670719b1624a2c6e5b6a3dea723bbee84401d72ae03d4a64736f6c634300080e0033",
  "immutableReferences": {},
  "source": "//SPDX-License-Identifier: MIT\r\npragma solidity >=0.8.10;\r\n\r\nimport \"./KajuswapPair.sol\";\r\nimport \"../interfaces/IKajuswapPair.sol\";\r\n\r\ncontract KajuswapFactory {\r\n    error IdenticalAddresses();\r\n    error ZeroAddress();\r\n    error PairExists();\r\n\r\n    mapping(address => mapping(address => address)) public pairs;\r\n    address[] public allPairs;\r\n\r\n    event PairCreated(\r\n        address indexed token0,\r\n        address indexed token1,\r\n        address pair,\r\n        uint256\r\n    );\r\n\r\n    function createPair(address tokenA, address tokenB)\r\n        public\r\n        returns (address pair)\r\n    {\r\n        if (tokenA == tokenB) revert IdenticalAddresses();\r\n        (address token0, address token1) = tokenA < tokenB\r\n            ? (tokenA, tokenB)\r\n            : (tokenB, tokenA);\r\n        if (token0 == address(0)) revert ZeroAddress();\r\n        if (pairs[token0][token1] != address(0)) revert PairExists();\r\n\r\n        bytes memory bytecode = type(KajuswapPair).creationCode;\r\n        bytes32 salt = keccak256(abi.encodePacked(token0, token1)); //sorted token addresses used as salt for consistency.\r\n        assembly {\r\n            pair := create2(0, add(bytecode, 32), mload(bytecode), salt) //Written in Yul. Used CREATE2 opcode as it doesn't uses external state(nonce) for generating addresses\r\n        }\r\n\r\n        IKajuswapPair(pair).initialize(token0, token1);\r\n\r\n        pairs[token0][token1] = pair;\r\n        pairs[token1][token0] = pair;\r\n        allPairs.push(pair);\r\n\r\n        emit PairCreated(token0, token1, pair, allPairs.length);\r\n    }\r\n}\r\n",
  "sourcePath": "D:\\GIT\\kaju-swap\\ethereum\\contracts\\KajuswapFactory.sol",
  "compiler": {
    "name": "solc",
    "version": "0.8.14+commit.80d49f37.Emscripten.clang"
  },
  "schemaVersion": "3.4.7",
  "updatedAt": "2022-06-17T05:01:34.957Z",
  "networkType": "ethereum",
  "devdoc": {
    "kind": "dev",
    "methods": {},
    "version": 1
  },
  "userdoc": {
    "kind": "user",
    "methods": {},
    "version": 1
  }
}