{
	"contracts/KajuSwapPair.sol": {
		"KajuswapPair": {
			"abi": [
				{
					"inputs": [],
					"stateMutability": "nonpayable",
					"type": "constructor"
				},
				{
					"inputs": [],
					"name": "AlreadyInitialized",
					"type": "error"
				},
				{
					"anonymous": false,
					"inputs": [
						{
							"indexed": true,
							"internalType": "address",
							"name": "owner",
							"type": "address"
						},
						{
							"indexed": true,
							"internalType": "address",
							"name": "spender",
							"type": "address"
						},
						{
							"indexed": false,
							"internalType": "uint256",
							"name": "amount",
							"type": "uint256"
						}
					],
					"name": "Approval",
					"type": "event"
				},
				{
					"anonymous": false,
					"inputs": [
						{
							"indexed": true,
							"internalType": "address",
							"name": "sender",
							"type": "address"
						},
						{
							"indexed": false,
							"internalType": "uint256",
							"name": "amount0",
							"type": "uint256"
						},
						{
							"indexed": false,
							"internalType": "uint256",
							"name": "amount1",
							"type": "uint256"
						},
						{
							"indexed": false,
							"internalType": "address",
							"name": "to",
							"type": "address"
						}
					],
					"name": "Burn",
					"type": "event"
				},
				{
					"anonymous": false,
					"inputs": [
						{
							"indexed": true,
							"internalType": "address",
							"name": "sender",
							"type": "address"
						},
						{
							"indexed": false,
							"internalType": "uint256",
							"name": "amount0",
							"type": "uint256"
						},
						{
							"indexed": false,
							"internalType": "uint256",
							"name": "amount1",
							"type": "uint256"
						}
					],
					"name": "Mint",
					"type": "event"
				},
				{
					"anonymous": false,
					"inputs": [
						{
							"indexed": true,
							"internalType": "address",
							"name": "sender",
							"type": "address"
						},
						{
							"indexed": false,
							"internalType": "uint256",
							"name": "amount0Out",
							"type": "uint256"
						},
						{
							"indexed": false,
							"internalType": "uint256",
							"name": "amount1Out",
							"type": "uint256"
						},
						{
							"indexed": true,
							"internalType": "address",
							"name": "to",
							"type": "address"
						}
					],
					"name": "Swap",
					"type": "event"
				},
				{
					"anonymous": false,
					"inputs": [
						{
							"indexed": false,
							"internalType": "uint256",
							"name": "reserve0",
							"type": "uint256"
						},
						{
							"indexed": false,
							"internalType": "uint256",
							"name": "reserve1",
							"type": "uint256"
						}
					],
					"name": "Sync",
					"type": "event"
				},
				{
					"anonymous": false,
					"inputs": [
						{
							"indexed": true,
							"internalType": "address",
							"name": "from",
							"type": "address"
						},
						{
							"indexed": true,
							"internalType": "address",
							"name": "to",
							"type": "address"
						},
						{
							"indexed": false,
							"internalType": "uint256",
							"name": "amount",
							"type": "uint256"
						}
					],
					"name": "Transfer",
					"type": "event"
				},
				{
					"inputs": [],
					"name": "DOMAIN_SEPARATOR",
					"outputs": [
						{
							"internalType": "bytes32",
							"name": "",
							"type": "bytes32"
						}
					],
					"stateMutability": "view",
					"type": "function"
				},
				{
					"inputs": [
						{
							"internalType": "address",
							"name": "",
							"type": "address"
						},
						{
							"internalType": "address",
							"name": "",
							"type": "address"
						}
					],
					"name": "allowance",
					"outputs": [
						{
							"internalType": "uint256",
							"name": "",
							"type": "uint256"
						}
					],
					"stateMutability": "view",
					"type": "function"
				},
				{
					"inputs": [
						{
							"internalType": "address",
							"name": "spender",
							"type": "address"
						},
						{
							"internalType": "uint256",
							"name": "amount",
							"type": "uint256"
						}
					],
					"name": "approve",
					"outputs": [
						{
							"internalType": "bool",
							"name": "",
							"type": "bool"
						}
					],
					"stateMutability": "nonpayable",
					"type": "function"
				},
				{
					"inputs": [
						{
							"internalType": "address",
							"name": "",
							"type": "address"
						}
					],
					"name": "balanceOf",
					"outputs": [
						{
							"internalType": "uint256",
							"name": "",
							"type": "uint256"
						}
					],
					"stateMutability": "view",
					"type": "function"
				},
				{
					"inputs": [
						{
							"internalType": "address",
							"name": "to",
							"type": "address"
						}
					],
					"name": "burn",
					"outputs": [
						{
							"internalType": "uint256",
							"name": "amount0",
							"type": "uint256"
						},
						{
							"internalType": "uint256",
							"name": "amount1",
							"type": "uint256"
						}
					],
					"stateMutability": "nonpayable",
					"type": "function"
				},
				{
					"inputs": [],
					"name": "decimals",
					"outputs": [
						{
							"internalType": "uint8",
							"name": "",
							"type": "uint8"
						}
					],
					"stateMutability": "view",
					"type": "function"
				},
				{
					"inputs": [],
					"name": "factory",
					"outputs": [
						{
							"internalType": "address",
							"name": "",
							"type": "address"
						}
					],
					"stateMutability": "view",
					"type": "function"
				},
				{
					"inputs": [],
					"name": "getReserves",
					"outputs": [
						{
							"internalType": "uint112",
							"name": "",
							"type": "uint112"
						},
						{
							"internalType": "uint112",
							"name": "",
							"type": "uint112"
						},
						{
							"internalType": "uint32",
							"name": "",
							"type": "uint32"
						}
					],
					"stateMutability": "view",
					"type": "function"
				},
				{
					"inputs": [
						{
							"internalType": "address",
							"name": "token0_",
							"type": "address"
						},
						{
							"internalType": "address",
							"name": "token1_",
							"type": "address"
						}
					],
					"name": "initialize",
					"outputs": [],
					"stateMutability": "nonpayable",
					"type": "function"
				},
				{
					"inputs": [
						{
							"internalType": "address",
							"name": "to",
							"type": "address"
						}
					],
					"name": "mint",
					"outputs": [
						{
							"internalType": "uint256",
							"name": "liquidity",
							"type": "uint256"
						}
					],
					"stateMutability": "nonpayable",
					"type": "function"
				},
				{
					"inputs": [],
					"name": "name",
					"outputs": [
						{
							"internalType": "string",
							"name": "",
							"type": "string"
						}
					],
					"stateMutability": "view",
					"type": "function"
				},
				{
					"inputs": [
						{
							"internalType": "address",
							"name": "",
							"type": "address"
						}
					],
					"name": "nonces",
					"outputs": [
						{
							"internalType": "uint256",
							"name": "",
							"type": "uint256"
						}
					],
					"stateMutability": "view",
					"type": "function"
				},
				{
					"inputs": [
						{
							"internalType": "address",
							"name": "owner",
							"type": "address"
						},
						{
							"internalType": "address",
							"name": "spender",
							"type": "address"
						},
						{
							"internalType": "uint256",
							"name": "value",
							"type": "uint256"
						},
						{
							"internalType": "uint256",
							"name": "deadline",
							"type": "uint256"
						},
						{
							"internalType": "uint8",
							"name": "v",
							"type": "uint8"
						},
						{
							"internalType": "bytes32",
							"name": "r",
							"type": "bytes32"
						},
						{
							"internalType": "bytes32",
							"name": "s",
							"type": "bytes32"
						}
					],
					"name": "permit",
					"outputs": [],
					"stateMutability": "nonpayable",
					"type": "function"
				},
				{
					"inputs": [],
					"name": "price0CumulativeLast",
					"outputs": [
						{
							"internalType": "uint256",
							"name": "",
							"type": "uint256"
						}
					],
					"stateMutability": "view",
					"type": "function"
				},
				{
					"inputs": [],
					"name": "price1CumulativeLast",
					"outputs": [
						{
							"internalType": "uint256",
							"name": "",
							"type": "uint256"
						}
					],
					"stateMutability": "view",
					"type": "function"
				},
				{
					"inputs": [
						{
							"internalType": "uint256",
							"name": "amount0Out",
							"type": "uint256"
						},
						{
							"internalType": "uint256",
							"name": "amount1Out",
							"type": "uint256"
						},
						{
							"internalType": "address",
							"name": "to",
							"type": "address"
						}
					],
					"name": "swap",
					"outputs": [],
					"stateMutability": "nonpayable",
					"type": "function"
				},
				{
					"inputs": [],
					"name": "symbol",
					"outputs": [
						{
							"internalType": "string",
							"name": "",
							"type": "string"
						}
					],
					"stateMutability": "view",
					"type": "function"
				},
				{
					"inputs": [],
					"name": "sync",
					"outputs": [],
					"stateMutability": "nonpayable",
					"type": "function"
				},
				{
					"inputs": [],
					"name": "token0",
					"outputs": [
						{
							"internalType": "address",
							"name": "",
							"type": "address"
						}
					],
					"stateMutability": "view",
					"type": "function"
				},
				{
					"inputs": [],
					"name": "token1",
					"outputs": [
						{
							"internalType": "address",
							"name": "",
							"type": "address"
						}
					],
					"stateMutability": "view",
					"type": "function"
				},
				{
					"inputs": [],
					"name": "totalSupply",
					"outputs": [
						{
							"internalType": "uint256",
							"name": "",
							"type": "uint256"
						}
					],
					"stateMutability": "view",
					"type": "function"
				},
				{
					"inputs": [
						{
							"internalType": "address",
							"name": "to",
							"type": "address"
						},
						{
							"internalType": "uint256",
							"name": "amount",
							"type": "uint256"
						}
					],
					"name": "transfer",
					"outputs": [
						{
							"internalType": "bool",
							"name": "",
							"type": "bool"
						}
					],
					"stateMutability": "nonpayable",
					"type": "function"
				},
				{
					"inputs": [
						{
							"internalType": "address",
							"name": "from",
							"type": "address"
						},
						{
							"internalType": "address",
							"name": "to",
							"type": "address"
						},
						{
							"internalType": "uint256",
							"name": "amount",
							"type": "uint256"
						}
					],
					"name": "transferFrom",
					"outputs": [
						{
							"internalType": "bool",
							"name": "",
							"type": "bool"
						}
					],
					"stateMutability": "nonpayable",
					"type": "function"
				}
			],
			"devdoc": {
				"kind": "dev",
				"methods": {},
				"version": 1
			},
			"evm": {
				"assembly": "    /* \"contracts/KajuSwapPair.sol\":510:9216  contract KajuswapPair is ERC20, Math {... */\n  mstore(0x40, 0xe0)\n    /* \"contracts/KajuSwapPair.sol\":1845:1934  constructor() ERC20(\"Kajuswap Pair\", \"KAJU-LP\", 18) {... */\n  callvalue\n  dup1\n  iszero\n  tag_1\n  jumpi\n  0x00\n  dup1\n  revert\ntag_1:\n  pop\n    /* \"@rari-capital/solmate/src/tokens/ERC20.sol\":1978:2270  constructor(... */\n  mload(0x40)\n  dup1\n  0x40\n  add\n  0x40\n  mstore\n  dup1\n  0x0d\n  dup2\n  mstore\n  0x20\n  add\n  0x4b616a7573776170205061697200000000000000000000000000000000000000\n  dup2\n  mstore\n  pop\n  mload(0x40)\n  dup1\n  0x40\n  add\n  0x40\n  mstore\n  dup1\n  0x07\n  dup2\n  mstore\n  0x20\n  add\n  0x4b414a552d4c5000000000000000000000000000000000000000000000000000\n  dup2\n  mstore\n  pop\n    /* \"contracts/KajuSwapPair.sol\":1893:1895  18 */\n  0x12\n    /* \"@rari-capital/solmate/src/tokens/ERC20.sol\":2098:2103  _name */\n  dup3\n    /* \"@rari-capital/solmate/src/tokens/ERC20.sol\":2091:2095  name */\n  0x00\n    /* \"@rari-capital/solmate/src/tokens/ERC20.sol\":2091:2103  name = _name */\n  swap1\n  dup2\n  tag_5\n  swap2\n  swap1\n  tag_6\n  jump\t// in\ntag_5:\n  pop\n    /* \"@rari-capital/solmate/src/tokens/ERC20.sol\":2122:2129  _symbol */\n  dup2\n    /* \"@rari-capital/solmate/src/tokens/ERC20.sol\":2113:2119  symbol */\n  0x01\n    /* \"@rari-capital/solmate/src/tokens/ERC20.sol\":2113:2129  symbol = _symbol */\n  swap1\n  dup2\n  tag_7\n  swap2\n  swap1\n  tag_6\n  jump\t// in\ntag_7:\n  pop\n    /* \"@rari-capital/solmate/src/tokens/ERC20.sol\":2150:2159  _decimals */\n  dup1\n    /* \"@rari-capital/solmate/src/tokens/ERC20.sol\":2139:2159  decimals = _decimals */\n  0xff\n  and\n  0x80\n  dup2\n  0xff\n  and\n  dup2\n  mstore\n  pop\n  pop\n    /* \"@rari-capital/solmate/src/tokens/ERC20.sol\":2189:2202  block.chainid */\n  chainid\n    /* \"@rari-capital/solmate/src/tokens/ERC20.sol\":2170:2202  INITIAL_CHAIN_ID = block.chainid */\n  0xa0\n  dup2\n  dup2\n  mstore\n  pop\n  pop\n    /* \"@rari-capital/solmate/src/tokens/ERC20.sol\":2239:2263  computeDomainSeparator() */\n  tag_8\n    /* \"@rari-capital/solmate/src/tokens/ERC20.sol\":2239:2261  computeDomainSeparator */\n  shl(0x20, tag_9)\n    /* \"@rari-capital/solmate/src/tokens/ERC20.sol\":2239:2263  computeDomainSeparator() */\n  0x20\n  shr\n  jump\t// in\ntag_8:\n    /* \"@rari-capital/solmate/src/tokens/ERC20.sol\":2212:2263  INITIAL_DOMAIN_SEPARATOR = computeDomainSeparator() */\n  0xc0\n  dup2\n  dup2\n  mstore\n  pop\n  pop\n    /* \"@rari-capital/solmate/src/tokens/ERC20.sol\":1978:2270  constructor(... */\n  pop\n  pop\n  pop\n    /* \"contracts/KajuSwapPair.sol\":1917:1927  msg.sender */\n  caller\n    /* \"contracts/KajuSwapPair.sol\":1907:1914  factory */\n  0x06\n  0x00\n    /* \"contracts/KajuSwapPair.sol\":1907:1927  factory = msg.sender */\n  0x0100\n  exp\n  dup2\n  sload\n  dup2\n  0xffffffffffffffffffffffffffffffffffffffff\n  mul\n  not\n  and\n  swap1\n  dup4\n  0xffffffffffffffffffffffffffffffffffffffff\n  and\n  mul\n  or\n  swap1\n  sstore\n  pop\n    /* \"contracts/KajuSwapPair.sol\":510:9216  contract KajuswapPair is ERC20, Math {... */\n  jump(tag_11)\n    /* \"@rari-capital/solmate/src/tokens/ERC20.sol\":5507:5953  function computeDomainSeparator() internal view virtual returns (bytes32) {... */\ntag_9:\n    /* \"@rari-capital/solmate/src/tokens/ERC20.sol\":5572:5579  bytes32 */\n  0x00\n    /* \"@rari-capital/solmate/src/tokens/ERC20.sol\":5669:5764  keccak256(\"EIP712Domain(string name,string version,uint256 chainId,address verifyingContract)\") */\n  0x8b73c3c69bb8fe3d512ecc4cf759cc79239f7b179b0ffacaa9a75d522b39400f\n    /* \"@rari-capital/solmate/src/tokens/ERC20.sol\":5802:5806  name */\n  0x00\n    /* \"@rari-capital/solmate/src/tokens/ERC20.sol\":5786:5808  keccak256(bytes(name)) */\n  mload(0x40)\n  tag_13\n  swap2\n  swap1\n  tag_14\n  jump\t// in\ntag_13:\n  mload(0x40)\n  dup1\n  swap2\n  sub\n  swap1\n  keccak256\n    /* \"@rari-capital/solmate/src/tokens/ERC20.sol\":5830:5844  keccak256(\"1\") */\n  0xc89efdaa54c0f20c7adf612882df0950f5a951637e0307cdcb4c672f298b8bc6\n    /* \"@rari-capital/solmate/src/tokens/ERC20.sol\":5866:5879  block.chainid */\n  chainid\n    /* \"@rari-capital/solmate/src/tokens/ERC20.sol\":5909:5913  this */\n  address\n    /* \"@rari-capital/solmate/src/tokens/ERC20.sol\":5637:5932  abi.encode(... */\n  add(0x20, mload(0x40))\n  tag_15\n  swap6\n  swap5\n  swap4\n  swap3\n  swap2\n  swap1\n  tag_16\n  jump\t// in\ntag_15:\n  mload(0x40)\n  0x20\n  dup2\n  dup4\n  sub\n  sub\n  dup2\n  mstore\n  swap1\n  0x40\n  mstore\n    /* \"@rari-capital/solmate/src/tokens/ERC20.sol\":5610:5946  keccak256(... */\n  dup1\n  mload\n  swap1\n  0x20\n  add\n  keccak256\n    /* \"@rari-capital/solmate/src/tokens/ERC20.sol\":5591:5946  return... */\n  swap1\n  pop\n    /* \"@rari-capital/solmate/src/tokens/ERC20.sol\":5507:5953  function computeDomainSeparator() internal view virtual returns (bytes32) {... */\n  swap1\n  jump\t// out\n    /* \"#utility.yul\":7:106   */\ntag_17:\n    /* \"#utility.yul\":59:65   */\n  0x00\n    /* \"#utility.yul\":93:98   */\n  dup2\n    /* \"#utility.yul\":87:99   */\n  mload\n    /* \"#utility.yul\":77:99   */\n  swap1\n  pop\n    /* \"#utility.yul\":7:106   */\n  swap2\n  swap1\n  pop\n  jump\t// out\n    /* \"#utility.yul\":112:292   */\ntag_18:\n    /* \"#utility.yul\":160:237   */\n  0x4e487b7100000000000000000000000000000000000000000000000000000000\n    /* \"#utility.yul\":157:158   */\n  0x00\n    /* \"#utility.yul\":150:238   */\n  mstore\n    /* \"#utility.yul\":257:261   */\n  0x41\n    /* \"#utility.yul\":254:255   */\n  0x04\n    /* \"#utility.yul\":247:262   */\n  mstore\n    /* \"#utility.yul\":281:285   */\n  0x24\n    /* \"#utility.yul\":278:279   */\n  0x00\n    /* \"#utility.yul\":271:286   */\n  revert\n    /* \"#utility.yul\":298:478   */\ntag_19:\n    /* \"#utility.yul\":346:423   */\n  0x4e487b7100000000000000000000000000000000000000000000000000000000\n    /* \"#utility.yul\":343:344   */\n  0x00\n    /* \"#utility.yul\":336:424   */\n  mstore\n    /* \"#utility.yul\":443:447   */\n  0x22\n    /* \"#utility.yul\":440:441   */\n  0x04\n    /* \"#utility.yul\":433:448   */\n  mstore\n    /* \"#utility.yul\":467:471   */\n  0x24\n    /* \"#utility.yul\":464:465   */\n  0x00\n    /* \"#utility.yul\":457:472   */\n  revert\n    /* \"#utility.yul\":484:804   */\ntag_20:\n    /* \"#utility.yul\":528:534   */\n  0x00\n    /* \"#utility.yul\":565:566   */\n  0x02\n    /* \"#utility.yul\":559:563   */\n  dup3\n    /* \"#utility.yul\":555:567   */\n  div\n    /* \"#utility.yul\":545:567   */\n  swap1\n  pop\n    /* \"#utility.yul\":612:613   */\n  0x01\n    /* \"#utility.yul\":606:610   */\n  dup3\n    /* \"#utility.yul\":602:614   */\n  and\n    /* \"#utility.yul\":633:651   */\n  dup1\n    /* \"#utility.yul\":623:704   */\n  tag_51\n  jumpi\n    /* \"#utility.yul\":689:693   */\n  0x7f\n    /* \"#utility.yul\":681:687   */\n  dup3\n    /* \"#utility.yul\":677:694   */\n  and\n    /* \"#utility.yul\":667:694   */\n  swap2\n  pop\n    /* \"#utility.yul\":623:704   */\ntag_51:\n    /* \"#utility.yul\":751:753   */\n  0x20\n    /* \"#utility.yul\":743:749   */\n  dup3\n    /* \"#utility.yul\":740:754   */\n  lt\n    /* \"#utility.yul\":720:738   */\n  dup2\n    /* \"#utility.yul\":717:755   */\n  sub\n    /* \"#utility.yul\":714:798   */\n  tag_52\n  jumpi\n    /* \"#utility.yul\":770:788   */\n  tag_53\n  tag_19\n  jump\t// in\ntag_53:\n    /* \"#utility.yul\":714:798   */\ntag_52:\n    /* \"#utility.yul\":535:804   */\n  pop\n    /* \"#utility.yul\":484:804   */\n  swap2\n  swap1\n  pop\n  jump\t// out\n    /* \"#utility.yul\":810:951   */\ntag_21:\n    /* \"#utility.yul\":859:863   */\n  0x00\n    /* \"#utility.yul\":882:885   */\n  dup2\n    /* \"#utility.yul\":874:885   */\n  swap1\n  pop\n    /* \"#utility.yul\":905:908   */\n  dup2\n    /* \"#utility.yul\":902:903   */\n  0x00\n    /* \"#utility.yul\":895:909   */\n  mstore\n    /* \"#utility.yul\":939:943   */\n  0x20\n    /* \"#utility.yul\":936:937   */\n  0x00\n    /* \"#utility.yul\":926:944   */\n  keccak256\n    /* \"#utility.yul\":918:944   */\n  swap1\n  pop\n    /* \"#utility.yul\":810:951   */\n  swap2\n  swap1\n  pop\n  jump\t// out\n    /* \"#utility.yul\":957:1050   */\ntag_22:\n    /* \"#utility.yul\":994:1000   */\n  0x00\n    /* \"#utility.yul\":1041:1043   */\n  0x20\n    /* \"#utility.yul\":1036:1038   */\n  0x1f\n    /* \"#utility.yul\":1029:1034   */\n  dup4\n    /* \"#utility.yul\":1025:1039   */\n  add\n    /* \"#utility.yul\":1021:1044   */\n  div\n    /* \"#utility.yul\":1011:1044   */\n  swap1\n  pop\n    /* \"#utility.yul\":957:1050   */\n  swap2\n  swap1\n  pop\n  jump\t// out\n    /* \"#utility.yul\":1056:1163   */\ntag_23:\n    /* \"#utility.yul\":1100:1108   */\n  0x00\n    /* \"#utility.yul\":1150:1155   */\n  dup3\n    /* \"#utility.yul\":1144:1148   */\n  dup3\n    /* \"#utility.yul\":1140:1156   */\n  shl\n    /* \"#utility.yul\":1119:1156   */\n  swap1\n  pop\n    /* \"#utility.yul\":1056:1163   */\n  swap3\n  swap2\n  pop\n  pop\n  jump\t// out\n    /* \"#utility.yul\":1169:1562   */\ntag_24:\n    /* \"#utility.yul\":1238:1244   */\n  0x00\n    /* \"#utility.yul\":1288:1289   */\n  0x08\n    /* \"#utility.yul\":1276:1286   */\n  dup4\n    /* \"#utility.yul\":1272:1290   */\n  mul\n    /* \"#utility.yul\":1311:1408   */\n  tag_58\n    /* \"#utility.yul\":1341:1407   */\n  0xffffffffffffffffffffffffffffffffffffffffffffffffffffffffffffffff\n    /* \"#utility.yul\":1330:1339   */\n  dup3\n    /* \"#utility.yul\":1311:1408   */\n  tag_23\n  jump\t// in\ntag_58:\n    /* \"#utility.yul\":1429:1468   */\n  tag_59\n    /* \"#utility.yul\":1459:1467   */\n  dup7\n    /* \"#utility.yul\":1448:1457   */\n  dup4\n    /* \"#utility.yul\":1429:1468   */\n  tag_23\n  jump\t// in\ntag_59:\n    /* \"#utility.yul\":1417:1468   */\n  swap6\n  pop\n    /* \"#utility.yul\":1501:1505   */\n  dup1\n    /* \"#utility.yul\":1497:1506   */\n  not\n    /* \"#utility.yul\":1490:1495   */\n  dup5\n    /* \"#utility.yul\":1486:1507   */\n  and\n    /* \"#utility.yul\":1477:1507   */\n  swap4\n  pop\n    /* \"#utility.yul\":1550:1554   */\n  dup1\n    /* \"#utility.yul\":1540:1548   */\n  dup7\n    /* \"#utility.yul\":1536:1555   */\n  and\n    /* \"#utility.yul\":1529:1534   */\n  dup5\n    /* \"#utility.yul\":1526:1556   */\n  or\n    /* \"#utility.yul\":1516:1556   */\n  swap3\n  pop\n    /* \"#utility.yul\":1245:1562   */\n  pop\n  pop\n    /* \"#utility.yul\":1169:1562   */\n  swap4\n  swap3\n  pop\n  pop\n  pop\n  jump\t// out\n    /* \"#utility.yul\":1568:1645   */\ntag_25:\n    /* \"#utility.yul\":1605:1612   */\n  0x00\n    /* \"#utility.yul\":1634:1639   */\n  dup2\n    /* \"#utility.yul\":1623:1639   */\n  swap1\n  pop\n    /* \"#utility.yul\":1568:1645   */\n  swap2\n  swap1\n  pop\n  jump\t// out\n    /* \"#utility.yul\":1651:1711   */\ntag_26:\n    /* \"#utility.yul\":1679:1682   */\n  0x00\n    /* \"#utility.yul\":1700:1705   */\n  dup2\n    /* \"#utility.yul\":1693:1705   */\n  swap1\n  pop\n    /* \"#utility.yul\":1651:1711   */\n  swap2\n  swap1\n  pop\n  jump\t// out\n    /* \"#utility.yul\":1717:1859   */\ntag_27:\n    /* \"#utility.yul\":1767:1776   */\n  0x00\n    /* \"#utility.yul\":1800:1853   */\n  tag_63\n    /* \"#utility.yul\":1818:1852   */\n  tag_64\n    /* \"#utility.yul\":1827:1851   */\n  tag_65\n    /* \"#utility.yul\":1845:1850   */\n  dup5\n    /* \"#utility.yul\":1827:1851   */\n  tag_25\n  jump\t// in\ntag_65:\n    /* \"#utility.yul\":1818:1852   */\n  tag_26\n  jump\t// in\ntag_64:\n    /* \"#utility.yul\":1800:1853   */\n  tag_25\n  jump\t// in\ntag_63:\n    /* \"#utility.yul\":1787:1853   */\n  swap1\n  pop\n    /* \"#utility.yul\":1717:1859   */\n  swap2\n  swap1\n  pop\n  jump\t// out\n    /* \"#utility.yul\":1865:1940   */\ntag_28:\n    /* \"#utility.yul\":1908:1911   */\n  0x00\n    /* \"#utility.yul\":1929:1934   */\n  dup2\n    /* \"#utility.yul\":1922:1934   */\n  swap1\n  pop\n    /* \"#utility.yul\":1865:1940   */\n  swap2\n  swap1\n  pop\n  jump\t// out\n    /* \"#utility.yul\":1946:2215   */\ntag_29:\n    /* \"#utility.yul\":2056:2095   */\n  tag_68\n    /* \"#utility.yul\":2087:2094   */\n  dup4\n    /* \"#utility.yul\":2056:2095   */\n  tag_27\n  jump\t// in\ntag_68:\n    /* \"#utility.yul\":2117:2208   */\n  tag_69\n    /* \"#utility.yul\":2166:2207   */\n  tag_70\n    /* \"#utility.yul\":2190:2206   */\n  dup3\n    /* \"#utility.yul\":2166:2207   */\n  tag_28\n  jump\t// in\ntag_70:\n    /* \"#utility.yul\":2158:2164   */\n  dup5\n    /* \"#utility.yul\":2151:2155   */\n  dup5\n    /* \"#utility.yul\":2145:2156   */\n  sload\n    /* \"#utility.yul\":2117:2208   */\n  tag_24\n  jump\t// in\ntag_69:\n    /* \"#utility.yul\":2111:2115   */\n  dup3\n    /* \"#utility.yul\":2104:2209   */\n  sstore\n    /* \"#utility.yul\":2022:2215   */\n  pop\n    /* \"#utility.yul\":1946:2215   */\n  pop\n  pop\n  pop\n  jump\t// out\n    /* \"#utility.yul\":2221:2294   */\ntag_30:\n    /* \"#utility.yul\":2266:2269   */\n  0x00\n    /* \"#utility.yul\":2221:2294   */\n  swap1\n  jump\t// out\n    /* \"#utility.yul\":2300:2489   */\ntag_31:\n    /* \"#utility.yul\":2377:2409   */\n  tag_73\n  tag_30\n  jump\t// in\ntag_73:\n    /* \"#utility.yul\":2418:2483   */\n  tag_74\n    /* \"#utility.yul\":2476:2482   */\n  dup2\n    /* \"#utility.yul\":2468:2474   */\n  dup5\n    /* \"#utility.yul\":2462:2466   */\n  dup5\n    /* \"#utility.yul\":2418:2483   */\n  tag_29\n  jump\t// in\ntag_74:\n    /* \"#utility.yul\":2353:2489   */\n  pop\n    /* \"#utility.yul\":2300:2489   */\n  pop\n  pop\n  jump\t// out\n    /* \"#utility.yul\":2495:2681   */\ntag_32:\n    /* \"#utility.yul\":2555:2675   */\ntag_76:\n    /* \"#utility.yul\":2572:2575   */\n  dup2\n    /* \"#utility.yul\":2565:2570   */\n  dup2\n    /* \"#utility.yul\":2562:2576   */\n  lt\n    /* \"#utility.yul\":2555:2675   */\n  iszero\n  tag_78\n  jumpi\n    /* \"#utility.yul\":2626:2665   */\n  tag_79\n    /* \"#utility.yul\":2663:2664   */\n  0x00\n    /* \"#utility.yul\":2656:2661   */\n  dup3\n    /* \"#utility.yul\":2626:2665   */\n  tag_31\n  jump\t// in\ntag_79:\n    /* \"#utility.yul\":2599:2600   */\n  0x01\n    /* \"#utility.yul\":2592:2597   */\n  dup2\n    /* \"#utility.yul\":2588:2601   */\n  add\n    /* \"#utility.yul\":2579:2601   */\n  swap1\n  pop\n    /* \"#utility.yul\":2555:2675   */\n  jump(tag_76)\ntag_78:\n    /* \"#utility.yul\":2495:2681   */\n  pop\n  pop\n  jump\t// out\n    /* \"#utility.yul\":2687:3230   */\ntag_33:\n    /* \"#utility.yul\":2788:2790   */\n  0x1f\n    /* \"#utility.yul\":2783:2786   */\n  dup3\n    /* \"#utility.yul\":2780:2791   */\n  gt\n    /* \"#utility.yul\":2777:3223   */\n  iszero\n  tag_81\n  jumpi\n    /* \"#utility.yul\":2822:2860   */\n  tag_82\n    /* \"#utility.yul\":2854:2859   */\n  dup2\n    /* \"#utility.yul\":2822:2860   */\n  tag_21\n  jump\t// in\ntag_82:\n    /* \"#utility.yul\":2906:2935   */\n  tag_83\n    /* \"#utility.yul\":2924:2934   */\n  dup5\n    /* \"#utility.yul\":2906:2935   */\n  tag_22\n  jump\t// in\ntag_83:\n    /* \"#utility.yul\":2896:2904   */\n  dup2\n    /* \"#utility.yul\":2892:2936   */\n  add\n    /* \"#utility.yul\":3089:3091   */\n  0x20\n    /* \"#utility.yul\":3077:3087   */\n  dup6\n    /* \"#utility.yul\":3074:3092   */\n  lt\n    /* \"#utility.yul\":3071:3120   */\n  iszero\n  tag_84\n  jumpi\n    /* \"#utility.yul\":3110:3118   */\n  dup2\n    /* \"#utility.yul\":3095:3118   */\n  swap1\n  pop\n    /* \"#utility.yul\":3071:3120   */\ntag_84:\n    /* \"#utility.yul\":3133:3213   */\n  tag_85\n    /* \"#utility.yul\":3189:3211   */\n  tag_86\n    /* \"#utility.yul\":3207:3210   */\n  dup6\n    /* \"#utility.yul\":3189:3211   */\n  tag_22\n  jump\t// in\ntag_86:\n    /* \"#utility.yul\":3179:3187   */\n  dup4\n    /* \"#utility.yul\":3175:3212   */\n  add\n    /* \"#utility.yul\":3162:3173   */\n  dup3\n    /* \"#utility.yul\":3133:3213   */\n  tag_32\n  jump\t// in\ntag_85:\n    /* \"#utility.yul\":2792:3223   */\n  pop\n  pop\n    /* \"#utility.yul\":2777:3223   */\ntag_81:\n    /* \"#utility.yul\":2687:3230   */\n  pop\n  pop\n  pop\n  jump\t// out\n    /* \"#utility.yul\":3236:3353   */\ntag_34:\n    /* \"#utility.yul\":3290:3298   */\n  0x00\n    /* \"#utility.yul\":3340:3345   */\n  dup3\n    /* \"#utility.yul\":3334:3338   */\n  dup3\n    /* \"#utility.yul\":3330:3346   */\n  shr\n    /* \"#utility.yul\":3309:3346   */\n  swap1\n  pop\n    /* \"#utility.yul\":3236:3353   */\n  swap3\n  swap2\n  pop\n  pop\n  jump\t// out\n    /* \"#utility.yul\":3359:3528   */\ntag_35:\n    /* \"#utility.yul\":3403:3409   */\n  0x00\n    /* \"#utility.yul\":3436:3487   */\n  tag_89\n    /* \"#utility.yul\":3484:3485   */\n  0x00\n    /* \"#utility.yul\":3480:3486   */\n  not\n    /* \"#utility.yul\":3472:3477   */\n  dup5\n    /* \"#utility.yul\":3469:3470   */\n  0x08\n    /* \"#utility.yul\":3465:3478   */\n  mul\n    /* \"#utility.yul\":3436:3487   */\n  tag_34\n  jump\t// in\ntag_89:\n    /* \"#utility.yul\":3432:3488   */\n  not\n    /* \"#utility.yul\":3517:3521   */\n  dup1\n    /* \"#utility.yul\":3511:3515   */\n  dup4\n    /* \"#utility.yul\":3507:3522   */\n  and\n    /* \"#utility.yul\":3497:3522   */\n  swap2\n  pop\n    /* \"#utility.yul\":3410:3528   */\n  pop\n    /* \"#utility.yul\":3359:3528   */\n  swap3\n  swap2\n  pop\n  pop\n  jump\t// out\n    /* \"#utility.yul\":3533:3828   */\ntag_36:\n    /* \"#utility.yul\":3609:3613   */\n  0x00\n    /* \"#utility.yul\":3755:3784   */\n  tag_91\n    /* \"#utility.yul\":3780:3783   */\n  dup4\n    /* \"#utility.yul\":3774:3778   */\n  dup4\n    /* \"#utility.yul\":3755:3784   */\n  tag_35\n  jump\t// in\ntag_91:\n    /* \"#utility.yul\":3747:3784   */\n  swap2\n  pop\n    /* \"#utility.yul\":3817:3820   */\n  dup3\n    /* \"#utility.yul\":3814:3815   */\n  0x02\n    /* \"#utility.yul\":3810:3821   */\n  mul\n    /* \"#utility.yul\":3804:3808   */\n  dup3\n    /* \"#utility.yul\":3801:3822   */\n  or\n    /* \"#utility.yul\":3793:3822   */\n  swap1\n  pop\n    /* \"#utility.yul\":3533:3828   */\n  swap3\n  swap2\n  pop\n  pop\n  jump\t// out\n    /* \"#utility.yul\":3833:5228   */\ntag_6:\n    /* \"#utility.yul\":3950:3987   */\n  tag_93\n    /* \"#utility.yul\":3983:3986   */\n  dup3\n    /* \"#utility.yul\":3950:3987   */\n  tag_17\n  jump\t// in\ntag_93:\n    /* \"#utility.yul\":4052:4070   */\n  0xffffffffffffffff\n    /* \"#utility.yul\":4044:4050   */\n  dup2\n    /* \"#utility.yul\":4041:4071   */\n  gt\n    /* \"#utility.yul\":4038:4094   */\n  iszero\n  tag_94\n  jumpi\n    /* \"#utility.yul\":4074:4092   */\n  tag_95\n  tag_18\n  jump\t// in\ntag_95:\n    /* \"#utility.yul\":4038:4094   */\ntag_94:\n    /* \"#utility.yul\":4118:4156   */\n  tag_96\n    /* \"#utility.yul\":4150:4154   */\n  dup3\n    /* \"#utility.yul\":4144:4155   */\n  sload\n    /* \"#utility.yul\":4118:4156   */\n  tag_20\n  jump\t// in\ntag_96:\n    /* \"#utility.yul\":4203:4270   */\n  tag_97\n    /* \"#utility.yul\":4263:4269   */\n  dup3\n    /* \"#utility.yul\":4255:4261   */\n  dup3\n    /* \"#utility.yul\":4249:4253   */\n  dup6\n    /* \"#utility.yul\":4203:4270   */\n  tag_33\n  jump\t// in\ntag_97:\n    /* \"#utility.yul\":4297:4298   */\n  0x00\n    /* \"#utility.yul\":4321:4325   */\n  0x20\n    /* \"#utility.yul\":4308:4325   */\n  swap1\n  pop\n    /* \"#utility.yul\":4353:4355   */\n  0x1f\n    /* \"#utility.yul\":4345:4351   */\n  dup4\n    /* \"#utility.yul\":4342:4356   */\n  gt\n    /* \"#utility.yul\":4370:4371   */\n  0x01\n    /* \"#utility.yul\":4365:4983   */\n  dup2\n  eq\n  tag_99\n  jumpi\n    /* \"#utility.yul\":5027:5028   */\n  0x00\n    /* \"#utility.yul\":5044:5050   */\n  dup5\n    /* \"#utility.yul\":5041:5118   */\n  iszero\n  tag_100\n  jumpi\n    /* \"#utility.yul\":5093:5102   */\n  dup3\n    /* \"#utility.yul\":5088:5091   */\n  dup8\n    /* \"#utility.yul\":5084:5103   */\n  add\n    /* \"#utility.yul\":5078:5104   */\n  mload\n    /* \"#utility.yul\":5069:5104   */\n  swap1\n  pop\n    /* \"#utility.yul\":5041:5118   */\ntag_100:\n    /* \"#utility.yul\":5144:5211   */\n  tag_101\n    /* \"#utility.yul\":5204:5210   */\n  dup6\n    /* \"#utility.yul\":5197:5202   */\n  dup3\n    /* \"#utility.yul\":5144:5211   */\n  tag_36\n  jump\t// in\ntag_101:\n    /* \"#utility.yul\":5138:5142   */\n  dup7\n    /* \"#utility.yul\":5131:5212   */\n  sstore\n    /* \"#utility.yul\":5000:5222   */\n  pop\n    /* \"#utility.yul\":4335:5222   */\n  jump(tag_98)\n    /* \"#utility.yul\":4365:4983   */\ntag_99:\n    /* \"#utility.yul\":4417:4421   */\n  0x1f\n    /* \"#utility.yul\":4413:4422   */\n  not\n    /* \"#utility.yul\":4405:4411   */\n  dup5\n    /* \"#utility.yul\":4401:4423   */\n  and\n    /* \"#utility.yul\":4451:4488   */\n  tag_102\n    /* \"#utility.yul\":4483:4487   */\n  dup7\n    /* \"#utility.yul\":4451:4488   */\n  tag_21\n  jump\t// in\ntag_102:\n    /* \"#utility.yul\":4510:4511   */\n  0x00\n    /* \"#utility.yul\":4524:4732   */\ntag_103:\n    /* \"#utility.yul\":4538:4545   */\n  dup3\n    /* \"#utility.yul\":4535:4536   */\n  dup2\n    /* \"#utility.yul\":4532:4546   */\n  lt\n    /* \"#utility.yul\":4524:4732   */\n  iszero\n  tag_105\n  jumpi\n    /* \"#utility.yul\":4617:4626   */\n  dup5\n    /* \"#utility.yul\":4612:4615   */\n  dup10\n    /* \"#utility.yul\":4608:4627   */\n  add\n    /* \"#utility.yul\":4602:4628   */\n  mload\n    /* \"#utility.yul\":4594:4600   */\n  dup3\n    /* \"#utility.yul\":4587:4629   */\n  sstore\n    /* \"#utility.yul\":4668:4669   */\n  0x01\n    /* \"#utility.yul\":4660:4666   */\n  dup3\n    /* \"#utility.yul\":4656:4670   */\n  add\n    /* \"#utility.yul\":4646:4670   */\n  swap2\n  pop\n    /* \"#utility.yul\":4715:4717   */\n  0x20\n    /* \"#utility.yul\":4704:4713   */\n  dup6\n    /* \"#utility.yul\":4700:4718   */\n  add\n    /* \"#utility.yul\":4687:4718   */\n  swap5\n  pop\n    /* \"#utility.yul\":4561:4565   */\n  0x20\n    /* \"#utility.yul\":4558:4559   */\n  dup2\n    /* \"#utility.yul\":4554:4566   */\n  add\n    /* \"#utility.yul\":4549:4566   */\n  swap1\n  pop\n    /* \"#utility.yul\":4524:4732   */\n  jump(tag_103)\ntag_105:\n    /* \"#utility.yul\":4760:4766   */\n  dup7\n    /* \"#utility.yul\":4751:4758   */\n  dup4\n    /* \"#utility.yul\":4748:4767   */\n  lt\n    /* \"#utility.yul\":4745:4924   */\n  iszero\n  tag_106\n  jumpi\n    /* \"#utility.yul\":4818:4827   */\n  dup5\n    /* \"#utility.yul\":4813:4816   */\n  dup10\n    /* \"#utility.yul\":4809:4828   */\n  add\n    /* \"#utility.yul\":4803:4829   */\n  mload\n    /* \"#utility.yul\":4861:4909   */\n  tag_107\n    /* \"#utility.yul\":4903:4907   */\n  0x1f\n    /* \"#utility.yul\":4895:4901   */\n  dup10\n    /* \"#utility.yul\":4891:4908   */\n  and\n    /* \"#utility.yul\":4880:4889   */\n  dup3\n    /* \"#utility.yul\":4861:4909   */\n  tag_35\n  jump\t// in\ntag_107:\n    /* \"#utility.yul\":4853:4859   */\n  dup4\n    /* \"#utility.yul\":4846:4910   */\n  sstore\n    /* \"#utility.yul\":4768:4924   */\n  pop\n    /* \"#utility.yul\":4745:4924   */\ntag_106:\n    /* \"#utility.yul\":4970:4971   */\n  0x01\n    /* \"#utility.yul\":4966:4967   */\n  0x02\n    /* \"#utility.yul\":4958:4964   */\n  dup9\n    /* \"#utility.yul\":4954:4968   */\n  mul\n    /* \"#utility.yul\":4950:4972   */\n  add\n    /* \"#utility.yul\":4944:4948   */\n  dup9\n    /* \"#utility.yul\":4937:4973   */\n  sstore\n    /* \"#utility.yul\":4372:4983   */\n  pop\n  pop\n  pop\n    /* \"#utility.yul\":4335:5222   */\ntag_98:\n  pop\n    /* \"#utility.yul\":3925:5228   */\n  pop\n  pop\n  pop\n    /* \"#utility.yul\":3833:5228   */\n  pop\n  pop\n  jump\t// out\n    /* \"#utility.yul\":5234:5381   */\ntag_37:\n    /* \"#utility.yul\":5335:5346   */\n  0x00\n    /* \"#utility.yul\":5372:5375   */\n  dup2\n    /* \"#utility.yul\":5357:5375   */\n  swap1\n  pop\n    /* \"#utility.yul\":5234:5381   */\n  swap3\n  swap2\n  pop\n  pop\n  jump\t// out\n    /* \"#utility.yul\":5387:5531   */\ntag_38:\n    /* \"#utility.yul\":5439:5443   */\n  0x00\n    /* \"#utility.yul\":5462:5465   */\n  dup2\n    /* \"#utility.yul\":5454:5465   */\n  swap1\n  pop\n    /* \"#utility.yul\":5485:5488   */\n  dup2\n    /* \"#utility.yul\":5482:5483   */\n  0x00\n    /* \"#utility.yul\":5475:5489   */\n  mstore\n    /* \"#utility.yul\":5519:5523   */\n  0x20\n    /* \"#utility.yul\":5516:5517   */\n  0x00\n    /* \"#utility.yul\":5506:5524   */\n  keccak256\n    /* \"#utility.yul\":5498:5524   */\n  swap1\n  pop\n    /* \"#utility.yul\":5387:5531   */\n  swap2\n  swap1\n  pop\n  jump\t// out\n    /* \"#utility.yul\":5559:6437   */\ntag_39:\n    /* \"#utility.yul\":5664:5667   */\n  0x00\n    /* \"#utility.yul\":5701:5706   */\n  dup2\n    /* \"#utility.yul\":5695:5707   */\n  sload\n    /* \"#utility.yul\":5730:5766   */\n  tag_111\n    /* \"#utility.yul\":5756:5765   */\n  dup2\n    /* \"#utility.yul\":5730:5766   */\n  tag_20\n  jump\t// in\ntag_111:\n    /* \"#utility.yul\":5782:5870   */\n  tag_112\n    /* \"#utility.yul\":5863:5869   */\n  dup2\n    /* \"#utility.yul\":5858:5861   */\n  dup7\n    /* \"#utility.yul\":5782:5870   */\n  tag_37\n  jump\t// in\ntag_112:\n    /* \"#utility.yul\":5775:5870   */\n  swap5\n  pop\n    /* \"#utility.yul\":5901:5902   */\n  0x01\n    /* \"#utility.yul\":5890:5899   */\n  dup3\n    /* \"#utility.yul\":5886:5903   */\n  and\n    /* \"#utility.yul\":5917:5918   */\n  0x00\n    /* \"#utility.yul\":5912:6078   */\n  dup2\n  eq\n  tag_114\n  jumpi\n    /* \"#utility.yul\":6092:6093   */\n  0x01\n    /* \"#utility.yul\":6087:6431   */\n  dup2\n  eq\n  tag_115\n  jumpi\n    /* \"#utility.yul\":5879:6431   */\n  jump(tag_113)\n    /* \"#utility.yul\":5912:6078   */\ntag_114:\n    /* \"#utility.yul\":5996:6000   */\n  0xff\n    /* \"#utility.yul\":5992:6001   */\n  not\n    /* \"#utility.yul\":5981:5990   */\n  dup4\n    /* \"#utility.yul\":5977:6002   */\n  and\n    /* \"#utility.yul\":5972:5975   */\n  dup7\n    /* \"#utility.yul\":5965:6003   */\n  mstore\n    /* \"#utility.yul\":6058:6064   */\n  dup2\n    /* \"#utility.yul\":6051:6065   */\n  iszero\n    /* \"#utility.yul\":6044:6066   */\n  iszero\n    /* \"#utility.yul\":6036:6042   */\n  dup3\n    /* \"#utility.yul\":6032:6067   */\n  mul\n    /* \"#utility.yul\":6027:6030   */\n  dup7\n    /* \"#utility.yul\":6023:6068   */\n  add\n    /* \"#utility.yul\":6016:6068   */\n  swap4\n  pop\n    /* \"#utility.yul\":5912:6078   */\n  jump(tag_113)\n    /* \"#utility.yul\":6087:6431   */\ntag_115:\n    /* \"#utility.yul\":6154:6195   */\n  tag_116\n    /* \"#utility.yul\":6189:6194   */\n  dup6\n    /* \"#utility.yul\":6154:6195   */\n  tag_38\n  jump\t// in\ntag_116:\n    /* \"#utility.yul\":6217:6218   */\n  0x00\n    /* \"#utility.yul\":6231:6385   */\ntag_117:\n    /* \"#utility.yul\":6245:6251   */\n  dup4\n    /* \"#utility.yul\":6242:6243   */\n  dup2\n    /* \"#utility.yul\":6239:6252   */\n  lt\n    /* \"#utility.yul\":6231:6385   */\n  iszero\n  tag_119\n  jumpi\n    /* \"#utility.yul\":6319:6326   */\n  dup2\n    /* \"#utility.yul\":6313:6327   */\n  sload\n    /* \"#utility.yul\":6309:6310   */\n  dup2\n    /* \"#utility.yul\":6304:6307   */\n  dup10\n    /* \"#utility.yul\":6300:6311   */\n  add\n    /* \"#utility.yul\":6293:6328   */\n  mstore\n    /* \"#utility.yul\":6369:6370   */\n  0x01\n    /* \"#utility.yul\":6360:6367   */\n  dup3\n    /* \"#utility.yul\":6356:6371   */\n  add\n    /* \"#utility.yul\":6345:6371   */\n  swap2\n  pop\n    /* \"#utility.yul\":6267:6271   */\n  0x20\n    /* \"#utility.yul\":6264:6265   */\n  dup2\n    /* \"#utility.yul\":6260:6272   */\n  add\n    /* \"#utility.yul\":6255:6272   */\n  swap1\n  pop\n    /* \"#utility.yul\":6231:6385   */\n  jump(tag_117)\ntag_119:\n    /* \"#utility.yul\":6414:6420   */\n  dup4\n    /* \"#utility.yul\":6409:6412   */\n  dup9\n    /* \"#utility.yul\":6405:6421   */\n  add\n    /* \"#utility.yul\":6398:6421   */\n  swap6\n  pop\n    /* \"#utility.yul\":6094:6431   */\n  pop\n  pop\n    /* \"#utility.yul\":5879:6431   */\ntag_113:\n  pop\n    /* \"#utility.yul\":5668:6437   */\n  pop\n  pop\n    /* \"#utility.yul\":5559:6437   */\n  swap3\n  swap2\n  pop\n  pop\n  jump\t// out\n    /* \"#utility.yul\":6443:6716   */\ntag_14:\n    /* \"#utility.yul\":6574:6577   */\n  0x00\n    /* \"#utility.yul\":6596:6690   */\n  tag_121\n    /* \"#utility.yul\":6686:6689   */\n  dup3\n    /* \"#utility.yul\":6677:6683   */\n  dup5\n    /* \"#utility.yul\":6596:6690   */\n  tag_39\n  jump\t// in\ntag_121:\n    /* \"#utility.yul\":6589:6690   */\n  swap2\n  pop\n    /* \"#utility.yul\":6707:6710   */\n  dup2\n    /* \"#utility.yul\":6700:6710   */\n  swap1\n  pop\n    /* \"#utility.yul\":6443:6716   */\n  swap3\n  swap2\n  pop\n  pop\n  jump\t// out\n    /* \"#utility.yul\":6722:6799   */\ntag_40:\n    /* \"#utility.yul\":6759:6766   */\n  0x00\n    /* \"#utility.yul\":6788:6793   */\n  dup2\n    /* \"#utility.yul\":6777:6793   */\n  swap1\n  pop\n    /* \"#utility.yul\":6722:6799   */\n  swap2\n  swap1\n  pop\n  jump\t// out\n    /* \"#utility.yul\":6805:6923   */\ntag_41:\n    /* \"#utility.yul\":6892:6916   */\n  tag_124\n    /* \"#utility.yul\":6910:6915   */\n  dup2\n    /* \"#utility.yul\":6892:6916   */\n  tag_40\n  jump\t// in\ntag_124:\n    /* \"#utility.yul\":6887:6890   */\n  dup3\n    /* \"#utility.yul\":6880:6917   */\n  mstore\n    /* \"#utility.yul\":6805:6923   */\n  pop\n  pop\n  jump\t// out\n    /* \"#utility.yul\":6929:7047   */\ntag_42:\n    /* \"#utility.yul\":7016:7040   */\n  tag_126\n    /* \"#utility.yul\":7034:7039   */\n  dup2\n    /* \"#utility.yul\":7016:7040   */\n  tag_25\n  jump\t// in\ntag_126:\n    /* \"#utility.yul\":7011:7014   */\n  dup3\n    /* \"#utility.yul\":7004:7041   */\n  mstore\n    /* \"#utility.yul\":6929:7047   */\n  pop\n  pop\n  jump\t// out\n    /* \"#utility.yul\":7053:7179   */\ntag_43:\n    /* \"#utility.yul\":7090:7097   */\n  0x00\n    /* \"#utility.yul\":7130:7172   */\n  0xffffffffffffffffffffffffffffffffffffffff\n    /* \"#utility.yul\":7123:7128   */\n  dup3\n    /* \"#utility.yul\":7119:7173   */\n  and\n    /* \"#utility.yul\":7108:7173   */\n  swap1\n  pop\n    /* \"#utility.yul\":7053:7179   */\n  swap2\n  swap1\n  pop\n  jump\t// out\n    /* \"#utility.yul\":7185:7281   */\ntag_44:\n    /* \"#utility.yul\":7222:7229   */\n  0x00\n    /* \"#utility.yul\":7251:7275   */\n  tag_129\n    /* \"#utility.yul\":7269:7274   */\n  dup3\n    /* \"#utility.yul\":7251:7275   */\n  tag_43\n  jump\t// in\ntag_129:\n    /* \"#utility.yul\":7240:7275   */\n  swap1\n  pop\n    /* \"#utility.yul\":7185:7281   */\n  swap2\n  swap1\n  pop\n  jump\t// out\n    /* \"#utility.yul\":7287:7405   */\ntag_45:\n    /* \"#utility.yul\":7374:7398   */\n  tag_131\n    /* \"#utility.yul\":7392:7397   */\n  dup2\n    /* \"#utility.yul\":7374:7398   */\n  tag_44\n  jump\t// in\ntag_131:\n    /* \"#utility.yul\":7369:7372   */\n  dup3\n    /* \"#utility.yul\":7362:7399   */\n  mstore\n    /* \"#utility.yul\":7287:7405   */\n  pop\n  pop\n  jump\t// out\n    /* \"#utility.yul\":7411:8075   */\ntag_16:\n    /* \"#utility.yul\":7616:7620   */\n  0x00\n    /* \"#utility.yul\":7654:7657   */\n  0xa0\n    /* \"#utility.yul\":7643:7652   */\n  dup3\n    /* \"#utility.yul\":7639:7658   */\n  add\n    /* \"#utility.yul\":7631:7658   */\n  swap1\n  pop\n    /* \"#utility.yul\":7668:7739   */\n  tag_133\n    /* \"#utility.yul\":7736:7737   */\n  0x00\n    /* \"#utility.yul\":7725:7734   */\n  dup4\n    /* \"#utility.yul\":7721:7738   */\n  add\n    /* \"#utility.yul\":7712:7718   */\n  dup9\n    /* \"#utility.yul\":7668:7739   */\n  tag_41\n  jump\t// in\ntag_133:\n    /* \"#utility.yul\":7749:7821   */\n  tag_134\n    /* \"#utility.yul\":7817:7819   */\n  0x20\n    /* \"#utility.yul\":7806:7815   */\n  dup4\n    /* \"#utility.yul\":7802:7820   */\n  add\n    /* \"#utility.yul\":7793:7799   */\n  dup8\n    /* \"#utility.yul\":7749:7821   */\n  tag_41\n  jump\t// in\ntag_134:\n    /* \"#utility.yul\":7831:7903   */\n  tag_135\n    /* \"#utility.yul\":7899:7901   */\n  0x40\n    /* \"#utility.yul\":7888:7897   */\n  dup4\n    /* \"#utility.yul\":7884:7902   */\n  add\n    /* \"#utility.yul\":7875:7881   */\n  dup7\n    /* \"#utility.yul\":7831:7903   */\n  tag_41\n  jump\t// in\ntag_135:\n    /* \"#utility.yul\":7913:7985   */\n  tag_136\n    /* \"#utility.yul\":7981:7983   */\n  0x60\n    /* \"#utility.yul\":7970:7979   */\n  dup4\n    /* \"#utility.yul\":7966:7984   */\n  add\n    /* \"#utility.yul\":7957:7963   */\n  dup6\n    /* \"#utility.yul\":7913:7985   */\n  tag_42\n  jump\t// in\ntag_136:\n    /* \"#utility.yul\":7995:8068   */\n  tag_137\n    /* \"#utility.yul\":8063:8066   */\n  0x80\n    /* \"#utility.yul\":8052:8061   */\n  dup4\n    /* \"#utility.yul\":8048:8067   */\n  add\n    /* \"#utility.yul\":8039:8045   */\n  dup5\n    /* \"#utility.yul\":7995:8068   */\n  tag_45\n  jump\t// in\ntag_137:\n    /* \"#utility.yul\":7411:8075   */\n  swap7\n  swap6\n  pop\n  pop\n  pop\n  pop\n  pop\n  pop\n  jump\t// out\n    /* \"contracts/KajuSwapPair.sol\":510:9216  contract KajuswapPair is ERC20, Math {... */\ntag_11:\n  mload(0x80)\n  mload(0xa0)\n  mload(0xc0)\n  codecopy(0x00, dataOffset(sub_0), dataSize(sub_0))\n  0x00\n  assignImmutable(\"0x880de8116b3dfac28e9ff528a9fef1d1e0a51449c1addce011ffec1f302992b6\")\n  0x00\n  assignImmutable(\"0xd67d834462ca31eaef1f30157e31659f60355143b7441e6fc7d9eae1fa79f3f8\")\n  0x00\n  assignImmutable(\"0x6585423cb6456b1d4957f6454d2f004f0c4f58d53a00082412d5c2ef4b1b31fd\")\n  return(0x00, dataSize(sub_0))\nstop\n\nsub_0: assembly {\n        /* \"contracts/KajuSwapPair.sol\":510:9216  contract KajuswapPair is ERC20, Math {... */\n      mstore(0x40, 0x80)\n      callvalue\n      dup1\n      iszero\n      tag_1\n      jumpi\n      0x00\n      dup1\n      revert\n    tag_1:\n      pop\n      jumpi(tag_2, lt(calldatasize, 0x04))\n      shr(0xe0, calldataload(0x00))\n      dup1\n      0x6a627842\n      gt\n      tag_26\n      jumpi\n      dup1\n      0xa9059cbb\n      gt\n      tag_27\n      jumpi\n      dup1\n      0xa9059cbb\n      eq\n      tag_20\n      jumpi\n      dup1\n      0xc45a0155\n      eq\n      tag_21\n      jumpi\n      dup1\n      0xd21220a7\n      eq\n      tag_22\n      jumpi\n      dup1\n      0xd505accf\n      eq\n      tag_23\n      jumpi\n      dup1\n      0xdd62ed3e\n      eq\n      tag_24\n      jumpi\n      dup1\n      0xfff6cae9\n      eq\n      tag_25\n      jumpi\n      jump(tag_2)\n    tag_27:\n      dup1\n      0x6a627842\n      eq\n      tag_14\n      jumpi\n      dup1\n      0x6d9a640a\n      eq\n      tag_15\n      jumpi\n      dup1\n      0x70a08231\n      eq\n      tag_16\n      jumpi\n      dup1\n      0x7ecebe00\n      eq\n      tag_17\n      jumpi\n      dup1\n      0x89afcb44\n      eq\n      tag_18\n      jumpi\n      dup1\n      0x95d89b41\n      eq\n      tag_19\n      jumpi\n      jump(tag_2)\n    tag_26:\n      dup1\n      0x23b872dd\n      gt\n      tag_28\n      jumpi\n      dup1\n      0x23b872dd\n      eq\n      tag_8\n      jumpi\n      dup1\n      0x313ce567\n      eq\n      tag_9\n      jumpi\n      dup1\n      0x3644e515\n      eq\n      tag_10\n      jumpi\n      dup1\n      0x485cc955\n      eq\n      tag_11\n      jumpi\n      dup1\n      0x5909c0d5\n      eq\n      tag_12\n      jumpi\n      dup1\n      0x5a3d5493\n      eq\n      tag_13\n      jumpi\n      jump(tag_2)\n    tag_28:\n      dup1\n      0x06fdde03\n      eq\n      tag_3\n      jumpi\n      dup1\n      0x0902f1ac\n      eq\n      tag_4\n      jumpi\n      dup1\n      0x095ea7b3\n      eq\n      tag_5\n      jumpi\n      dup1\n      0x0dfe1681\n      eq\n      tag_6\n      jumpi\n      dup1\n      0x18160ddd\n      eq\n      tag_7\n      jumpi\n    tag_2:\n      0x00\n      dup1\n      revert\n        /* \"@rari-capital/solmate/src/tokens/ERC20.sol\":1028:1046  string public name */\n    tag_3:\n      tag_29\n      tag_30\n      jump\t// in\n    tag_29:\n      mload(0x40)\n      tag_31\n      swap2\n      swap1\n      tag_32\n      jump\t// in\n    tag_31:\n      mload(0x40)\n      dup1\n      swap2\n      sub\n      swap1\n      return\n        /* \"contracts/KajuSwapPair.sol\":1631:1839  function getReserves()... */\n    tag_4:\n      tag_33\n      tag_34\n      jump\t// in\n    tag_33:\n      mload(0x40)\n      tag_35\n      swap4\n      swap3\n      swap2\n      swap1\n      tag_36\n      jump\t// in\n    tag_35:\n      mload(0x40)\n      dup1\n      swap2\n      sub\n      swap1\n      return\n        /* \"@rari-capital/solmate/src/tokens/ERC20.sol\":2458:2669  function approve(address spender, uint256 amount) public virtual returns (bool) {... */\n    tag_5:\n      tag_37\n      0x04\n      dup1\n      calldatasize\n      sub\n      dup2\n      add\n      swap1\n      tag_38\n      swap2\n      swap1\n      tag_39\n      jump\t// in\n    tag_38:\n      tag_40\n      jump\t// in\n    tag_37:\n      mload(0x40)\n      tag_41\n      swap2\n      swap1\n      tag_42\n      jump\t// in\n    tag_41:\n      mload(0x40)\n      dup1\n      swap2\n      sub\n      swap1\n      return\n        /* \"contracts/KajuSwapPair.sol\":750:771  address public token0 */\n    tag_6:\n      tag_43\n      tag_44\n      jump\t// in\n    tag_43:\n      mload(0x40)\n      tag_45\n      swap2\n      swap1\n      tag_46\n      jump\t// in\n    tag_45:\n      mload(0x40)\n      dup1\n      swap2\n      sub\n      swap1\n      return\n        /* \"@rari-capital/solmate/src/tokens/ERC20.sol\":1301:1327  uint256 public totalSupply */\n    tag_7:\n      tag_47\n      tag_48\n      jump\t// in\n    tag_47:\n      mload(0x40)\n      tag_49\n      swap2\n      swap1\n      tag_50\n      jump\t// in\n    tag_49:\n      mload(0x40)\n      dup1\n      swap2\n      sub\n      swap1\n      return\n        /* \"@rari-capital/solmate/src/tokens/ERC20.sol\":3054:3646  function transferFrom(... */\n    tag_8:\n      tag_51\n      0x04\n      dup1\n      calldatasize\n      sub\n      dup2\n      add\n      swap1\n      tag_52\n      swap2\n      swap1\n      tag_53\n      jump\t// in\n    tag_52:\n      tag_54\n      jump\t// in\n    tag_51:\n      mload(0x40)\n      tag_55\n      swap2\n      swap1\n      tag_42\n      jump\t// in\n    tag_55:\n      mload(0x40)\n      dup1\n      swap2\n      sub\n      swap1\n      return\n        /* \"@rari-capital/solmate/src/tokens/ERC20.sol\":1080:1111  uint8 public immutable decimals */\n    tag_9:\n      tag_56\n      tag_57\n      jump\t// in\n    tag_56:\n      mload(0x40)\n      tag_58\n      swap2\n      swap1\n      tag_59\n      jump\t// in\n    tag_58:\n      mload(0x40)\n      dup1\n      swap2\n      sub\n      swap1\n      return\n        /* \"@rari-capital/solmate/src/tokens/ERC20.sol\":5324:5501  function DOMAIN_SEPARATOR() public view virtual returns (bytes32) {... */\n    tag_10:\n      tag_60\n      tag_61\n      jump\t// in\n    tag_60:\n      mload(0x40)\n      tag_62\n      swap2\n      swap1\n      tag_63\n      jump\t// in\n    tag_62:\n      mload(0x40)\n      dup1\n      swap2\n      sub\n      swap1\n      return\n        /* \"contracts/KajuSwapPair.sol\":2046:2515  function initialize(address token0_, address token1_) public {... */\n    tag_11:\n      tag_64\n      0x04\n      dup1\n      calldatasize\n      sub\n      dup2\n      add\n      swap1\n      tag_65\n      swap2\n      swap1\n      tag_66\n      jump\t// in\n    tag_65:\n      tag_67\n      jump\t// in\n    tag_64:\n      stop\n        /* \"contracts/KajuSwapPair.sol\":905:940  uint256 public price0CumulativeLast */\n    tag_12:\n      tag_68\n      tag_69\n      jump\t// in\n    tag_68:\n      mload(0x40)\n      tag_70\n      swap2\n      swap1\n      tag_50\n      jump\t// in\n    tag_70:\n      mload(0x40)\n      dup1\n      swap2\n      sub\n      swap1\n      return\n        /* \"contracts/KajuSwapPair.sol\":946:981  uint256 public price1CumulativeLast */\n    tag_13:\n      tag_71\n      tag_72\n      jump\t// in\n    tag_71:\n      mload(0x40)\n      tag_73\n      swap2\n      swap1\n      tag_50\n      jump\t// in\n    tag_73:\n      mload(0x40)\n      dup1\n      swap2\n      sub\n      swap1\n      return\n        /* \"contracts/KajuSwapPair.sol\":2521:3520  function mint(address to) public lock returns (uint256 liquidity) {... */\n    tag_14:\n      tag_74\n      0x04\n      dup1\n      calldatasize\n      sub\n      dup2\n      add\n      swap1\n      tag_75\n      swap2\n      swap1\n      tag_76\n      jump\t// in\n    tag_75:\n      tag_77\n      jump\t// in\n    tag_74:\n      mload(0x40)\n      tag_78\n      swap2\n      swap1\n      tag_50\n      jump\t// in\n    tag_78:\n      mload(0x40)\n      dup1\n      swap2\n      sub\n      swap1\n      return\n        /* \"contracts/KajuSwapPair.sol\":4586:6737  function swap(... */\n    tag_15:\n      tag_79\n      0x04\n      dup1\n      calldatasize\n      sub\n      dup2\n      add\n      swap1\n      tag_80\n      swap2\n      swap1\n      tag_81\n      jump\t// in\n    tag_80:\n      tag_82\n      jump\t// in\n    tag_79:\n      stop\n        /* \"@rari-capital/solmate/src/tokens/ERC20.sol\":1334:1378  mapping(address => uint256) public balanceOf */\n    tag_16:\n      tag_83\n      0x04\n      dup1\n      calldatasize\n      sub\n      dup2\n      add\n      swap1\n      tag_84\n      swap2\n      swap1\n      tag_76\n      jump\t// in\n    tag_84:\n      tag_85\n      jump\t// in\n    tag_83:\n      mload(0x40)\n      tag_86\n      swap2\n      swap1\n      tag_50\n      jump\t// in\n    tag_86:\n      mload(0x40)\n      dup1\n      swap2\n      sub\n      swap1\n      return\n        /* \"@rari-capital/solmate/src/tokens/ERC20.sol\":1748:1789  mapping(address => uint256) public nonces */\n    tag_17:\n      tag_87\n      0x04\n      dup1\n      calldatasize\n      sub\n      dup2\n      add\n      swap1\n      tag_88\n      swap2\n      swap1\n      tag_76\n      jump\t// in\n    tag_88:\n      tag_89\n      jump\t// in\n    tag_87:\n      mload(0x40)\n      tag_90\n      swap2\n      swap1\n      tag_50\n      jump\t// in\n    tag_90:\n      mload(0x40)\n      dup1\n      swap2\n      sub\n      swap1\n      return\n        /* \"contracts/KajuSwapPair.sol\":3526:4580  function burn(address to)... */\n    tag_18:\n      tag_91\n      0x04\n      dup1\n      calldatasize\n      sub\n      dup2\n      add\n      swap1\n      tag_92\n      swap2\n      swap1\n      tag_76\n      jump\t// in\n    tag_92:\n      tag_93\n      jump\t// in\n    tag_91:\n      mload(0x40)\n      tag_94\n      swap3\n      swap2\n      swap1\n      tag_95\n      jump\t// in\n    tag_94:\n      mload(0x40)\n      dup1\n      swap2\n      sub\n      swap1\n      return\n        /* \"@rari-capital/solmate/src/tokens/ERC20.sol\":1053:1073  string public symbol */\n    tag_19:\n      tag_96\n      tag_97\n      jump\t// in\n    tag_96:\n      mload(0x40)\n      tag_98\n      swap2\n      swap1\n      tag_32\n      jump\t// in\n    tag_98:\n      mload(0x40)\n      dup1\n      swap2\n      sub\n      swap1\n      return\n        /* \"@rari-capital/solmate/src/tokens/ERC20.sol\":2675:3048  function transfer(address to, uint256 amount) public virtual returns (bool) {... */\n    tag_20:\n      tag_99\n      0x04\n      dup1\n      calldatasize\n      sub\n      dup2\n      add\n      swap1\n      tag_100\n      swap2\n      swap1\n      tag_39\n      jump\t// in\n    tag_100:\n      tag_101\n      jump\t// in\n    tag_99:\n      mload(0x40)\n      tag_102\n      swap2\n      swap1\n      tag_42\n      jump\t// in\n    tag_102:\n      mload(0x40)\n      dup1\n      swap2\n      sub\n      swap1\n      return\n        /* \"contracts/KajuSwapPair.sol\":722:744  address public factory */\n    tag_21:\n      tag_103\n      tag_104\n      jump\t// in\n    tag_103:\n      mload(0x40)\n      tag_105\n      swap2\n      swap1\n      tag_46\n      jump\t// in\n    tag_105:\n      mload(0x40)\n      dup1\n      swap2\n      sub\n      swap1\n      return\n        /* \"contracts/KajuSwapPair.sol\":777:798  address public token1 */\n    tag_22:\n      tag_106\n      tag_107\n      jump\t// in\n    tag_106:\n      mload(0x40)\n      tag_108\n      swap2\n      swap1\n      tag_46\n      jump\t// in\n    tag_108:\n      mload(0x40)\n      dup1\n      swap2\n      sub\n      swap1\n      return\n        /* \"@rari-capital/solmate/src/tokens/ERC20.sol\":3835:5318  function permit(... */\n    tag_23:\n      tag_109\n      0x04\n      dup1\n      calldatasize\n      sub\n      dup2\n      add\n      swap1\n      tag_110\n      swap2\n      swap1\n      tag_111\n      jump\t// in\n    tag_110:\n      tag_112\n      jump\t// in\n    tag_109:\n      stop\n        /* \"@rari-capital/solmate/src/tokens/ERC20.sol\":1385:1449  mapping(address => mapping(address => uint256)) public allowance */\n    tag_24:\n      tag_113\n      0x04\n      dup1\n      calldatasize\n      sub\n      dup2\n      add\n      swap1\n      tag_114\n      swap2\n      swap1\n      tag_66\n      jump\t// in\n    tag_114:\n      tag_115\n      jump\t// in\n    tag_113:\n      mload(0x40)\n      tag_116\n      swap2\n      swap1\n      tag_50\n      jump\t// in\n    tag_116:\n      mload(0x40)\n      dup1\n      swap2\n      sub\n      swap1\n      return\n        /* \"contracts/KajuSwapPair.sol\":6743:7023  function sync() public lock {... */\n    tag_25:\n      tag_117\n      tag_118\n      jump\t// in\n    tag_117:\n      stop\n        /* \"@rari-capital/solmate/src/tokens/ERC20.sol\":1028:1046  string public name */\n    tag_30:\n      0x00\n      dup1\n      sload\n      tag_119\n      swap1\n      tag_120\n      jump\t// in\n    tag_119:\n      dup1\n      0x1f\n      add\n      0x20\n      dup1\n      swap2\n      div\n      mul\n      0x20\n      add\n      mload(0x40)\n      swap1\n      dup2\n      add\n      0x40\n      mstore\n      dup1\n      swap3\n      swap2\n      swap1\n      dup2\n      dup2\n      mstore\n      0x20\n      add\n      dup3\n      dup1\n      sload\n      tag_121\n      swap1\n      tag_120\n      jump\t// in\n    tag_121:\n      dup1\n      iszero\n      tag_122\n      jumpi\n      dup1\n      0x1f\n      lt\n      tag_123\n      jumpi\n      0x0100\n      dup1\n      dup4\n      sload\n      div\n      mul\n      dup4\n      mstore\n      swap2\n      0x20\n      add\n      swap2\n      jump(tag_122)\n    tag_123:\n      dup3\n      add\n      swap2\n      swap1\n      0x00\n      mstore\n      keccak256(0x00, 0x20)\n      swap1\n    tag_124:\n      dup2\n      sload\n      dup2\n      mstore\n      swap1\n      0x01\n      add\n      swap1\n      0x20\n      add\n      dup1\n      dup4\n      gt\n      tag_124\n      jumpi\n      dup3\n      swap1\n      sub\n      0x1f\n      and\n      dup3\n      add\n      swap2\n    tag_122:\n      pop\n      pop\n      pop\n      pop\n      pop\n      dup2\n      jump\t// out\n        /* \"contracts/KajuSwapPair.sol\":1631:1839  function getReserves()... */\n    tag_34:\n        /* \"contracts/KajuSwapPair.sol\":1712:1719  uint112 */\n      0x00\n        /* \"contracts/KajuSwapPair.sol\":1733:1740  uint112 */\n      dup1\n        /* \"contracts/KajuSwapPair.sol\":1754:1760  uint32 */\n      0x00\n        /* \"contracts/KajuSwapPair.sol\":1793:1801  reserve0 */\n      0x09\n      0x00\n      swap1\n      sload\n      swap1\n      0x0100\n      exp\n      swap1\n      div\n      0xffffffffffffffffffffffffffff\n      and\n        /* \"contracts/KajuSwapPair.sol\":1803:1811  reserve1 */\n      0x09\n      0x0e\n      swap1\n      sload\n      swap1\n      0x0100\n      exp\n      swap1\n      div\n      0xffffffffffffffffffffffffffff\n      and\n        /* \"contracts/KajuSwapPair.sol\":1813:1831  blockTimestampLast */\n      0x09\n      0x1c\n      swap1\n      sload\n      swap1\n      0x0100\n      exp\n      swap1\n      div\n      0xffffffff\n      and\n        /* \"contracts/KajuSwapPair.sol\":1785:1832  return (reserve0, reserve1, blockTimestampLast) */\n      swap3\n      pop\n      swap3\n      pop\n      swap3\n      pop\n        /* \"contracts/KajuSwapPair.sol\":1631:1839  function getReserves()... */\n      swap1\n      swap2\n      swap3\n      jump\t// out\n        /* \"@rari-capital/solmate/src/tokens/ERC20.sol\":2458:2669  function approve(address spender, uint256 amount) public virtual returns (bool) {... */\n    tag_40:\n        /* \"@rari-capital/solmate/src/tokens/ERC20.sol\":2532:2536  bool */\n      0x00\n        /* \"@rari-capital/solmate/src/tokens/ERC20.sol\":2581:2587  amount */\n      dup2\n        /* \"@rari-capital/solmate/src/tokens/ERC20.sol\":2548:2557  allowance */\n      0x04\n        /* \"@rari-capital/solmate/src/tokens/ERC20.sol\":2548:2569  allowance[msg.sender] */\n      0x00\n        /* \"@rari-capital/solmate/src/tokens/ERC20.sol\":2558:2568  msg.sender */\n      caller\n        /* \"@rari-capital/solmate/src/tokens/ERC20.sol\":2548:2569  allowance[msg.sender] */\n      0xffffffffffffffffffffffffffffffffffffffff\n      and\n      0xffffffffffffffffffffffffffffffffffffffff\n      and\n      dup2\n      mstore\n      0x20\n      add\n      swap1\n      dup2\n      mstore\n      0x20\n      add\n      0x00\n      keccak256\n        /* \"@rari-capital/solmate/src/tokens/ERC20.sol\":2548:2578  allowance[msg.sender][spender] */\n      0x00\n        /* \"@rari-capital/solmate/src/tokens/ERC20.sol\":2570:2577  spender */\n      dup6\n        /* \"@rari-capital/solmate/src/tokens/ERC20.sol\":2548:2578  allowance[msg.sender][spender] */\n      0xffffffffffffffffffffffffffffffffffffffff\n      and\n      0xffffffffffffffffffffffffffffffffffffffff\n      and\n      dup2\n      mstore\n      0x20\n      add\n      swap1\n      dup2\n      mstore\n      0x20\n      add\n      0x00\n      keccak256\n        /* \"@rari-capital/solmate/src/tokens/ERC20.sol\":2548:2587  allowance[msg.sender][spender] = amount */\n      dup2\n      swap1\n      sstore\n      pop\n        /* \"@rari-capital/solmate/src/tokens/ERC20.sol\":2624:2631  spender */\n      dup3\n        /* \"@rari-capital/solmate/src/tokens/ERC20.sol\":2603:2640  Approval(msg.sender, spender, amount) */\n      0xffffffffffffffffffffffffffffffffffffffff\n      and\n        /* \"@rari-capital/solmate/src/tokens/ERC20.sol\":2612:2622  msg.sender */\n      caller\n        /* \"@rari-capital/solmate/src/tokens/ERC20.sol\":2603:2640  Approval(msg.sender, spender, amount) */\n      0xffffffffffffffffffffffffffffffffffffffff\n      and\n      0x8c5be1e5ebec7d5bd14f71427d1e84f3dd0314c0f7b2291e5b200ac8c7c3b925\n        /* \"@rari-capital/solmate/src/tokens/ERC20.sol\":2633:2639  amount */\n      dup5\n        /* \"@rari-capital/solmate/src/tokens/ERC20.sol\":2603:2640  Approval(msg.sender, spender, amount) */\n      mload(0x40)\n      tag_127\n      swap2\n      swap1\n      tag_50\n      jump\t// in\n    tag_127:\n      mload(0x40)\n      dup1\n      swap2\n      sub\n      swap1\n      log3\n        /* \"@rari-capital/solmate/src/tokens/ERC20.sol\":2658:2662  true */\n      0x01\n        /* \"@rari-capital/solmate/src/tokens/ERC20.sol\":2651:2662  return true */\n      swap1\n      pop\n        /* \"@rari-capital/solmate/src/tokens/ERC20.sol\":2458:2669  function approve(address spender, uint256 amount) public virtual returns (bool) {... */\n      swap3\n      swap2\n      pop\n      pop\n      jump\t// out\n        /* \"contracts/KajuSwapPair.sol\":750:771  address public token0 */\n    tag_44:\n      0x07\n      0x00\n      swap1\n      sload\n      swap1\n      0x0100\n      exp\n      swap1\n      div\n      0xffffffffffffffffffffffffffffffffffffffff\n      and\n      dup2\n      jump\t// out\n        /* \"@rari-capital/solmate/src/tokens/ERC20.sol\":1301:1327  uint256 public totalSupply */\n    tag_48:\n      sload(0x02)\n      dup2\n      jump\t// out\n        /* \"@rari-capital/solmate/src/tokens/ERC20.sol\":3054:3646  function transferFrom(... */\n    tag_54:\n        /* \"@rari-capital/solmate/src/tokens/ERC20.sol\":3172:3176  bool */\n      0x00\n        /* \"@rari-capital/solmate/src/tokens/ERC20.sol\":3188:3203  uint256 allowed */\n      dup1\n        /* \"@rari-capital/solmate/src/tokens/ERC20.sol\":3206:3215  allowance */\n      0x04\n        /* \"@rari-capital/solmate/src/tokens/ERC20.sol\":3206:3221  allowance[from] */\n      0x00\n        /* \"@rari-capital/solmate/src/tokens/ERC20.sol\":3216:3220  from */\n      dup7\n        /* \"@rari-capital/solmate/src/tokens/ERC20.sol\":3206:3221  allowance[from] */\n      0xffffffffffffffffffffffffffffffffffffffff\n      and\n      0xffffffffffffffffffffffffffffffffffffffff\n      and\n      dup2\n      mstore\n      0x20\n      add\n      swap1\n      dup2\n      mstore\n      0x20\n      add\n      0x00\n      keccak256\n        /* \"@rari-capital/solmate/src/tokens/ERC20.sol\":3206:3233  allowance[from][msg.sender] */\n      0x00\n        /* \"@rari-capital/solmate/src/tokens/ERC20.sol\":3222:3232  msg.sender */\n      caller\n        /* \"@rari-capital/solmate/src/tokens/ERC20.sol\":3206:3233  allowance[from][msg.sender] */\n      0xffffffffffffffffffffffffffffffffffffffff\n      and\n      0xffffffffffffffffffffffffffffffffffffffff\n      and\n      dup2\n      mstore\n      0x20\n      add\n      swap1\n      dup2\n      mstore\n      0x20\n      add\n      0x00\n      keccak256\n      sload\n        /* \"@rari-capital/solmate/src/tokens/ERC20.sol\":3188:3233  uint256 allowed = allowance[from][msg.sender] */\n      swap1\n      pop\n        /* \"@rari-capital/solmate/src/tokens/ERC20.sol\":3295:3312  type(uint256).max */\n      0xffffffffffffffffffffffffffffffffffffffffffffffffffffffffffffffff\n        /* \"@rari-capital/solmate/src/tokens/ERC20.sol\":3284:3291  allowed */\n      dup2\n        /* \"@rari-capital/solmate/src/tokens/ERC20.sol\":3284:3312  allowed != type(uint256).max */\n      eq\n        /* \"@rari-capital/solmate/src/tokens/ERC20.sol\":3280:3360  if (allowed != type(uint256).max) allowance[from][msg.sender] = allowed - amount */\n      tag_129\n      jumpi\n        /* \"@rari-capital/solmate/src/tokens/ERC20.sol\":3354:3360  amount */\n      dup3\n        /* \"@rari-capital/solmate/src/tokens/ERC20.sol\":3344:3351  allowed */\n      dup2\n        /* \"@rari-capital/solmate/src/tokens/ERC20.sol\":3344:3360  allowed - amount */\n      tag_130\n      swap2\n      swap1\n      tag_131\n      jump\t// in\n    tag_130:\n        /* \"@rari-capital/solmate/src/tokens/ERC20.sol\":3314:3323  allowance */\n      0x04\n        /* \"@rari-capital/solmate/src/tokens/ERC20.sol\":3314:3329  allowance[from] */\n      0x00\n        /* \"@rari-capital/solmate/src/tokens/ERC20.sol\":3324:3328  from */\n      dup8\n        /* \"@rari-capital/solmate/src/tokens/ERC20.sol\":3314:3329  allowance[from] */\n      0xffffffffffffffffffffffffffffffffffffffff\n      and\n      0xffffffffffffffffffffffffffffffffffffffff\n      and\n      dup2\n      mstore\n      0x20\n      add\n      swap1\n      dup2\n      mstore\n      0x20\n      add\n      0x00\n      keccak256\n        /* \"@rari-capital/solmate/src/tokens/ERC20.sol\":3314:3341  allowance[from][msg.sender] */\n      0x00\n        /* \"@rari-capital/solmate/src/tokens/ERC20.sol\":3330:3340  msg.sender */\n      caller\n        /* \"@rari-capital/solmate/src/tokens/ERC20.sol\":3314:3341  allowance[from][msg.sender] */\n      0xffffffffffffffffffffffffffffffffffffffff\n      and\n      0xffffffffffffffffffffffffffffffffffffffff\n      and\n      dup2\n      mstore\n      0x20\n      add\n      swap1\n      dup2\n      mstore\n      0x20\n      add\n      0x00\n      keccak256\n        /* \"@rari-capital/solmate/src/tokens/ERC20.sol\":3314:3360  allowance[from][msg.sender] = allowed - amount */\n      dup2\n      swap1\n      sstore\n      pop\n        /* \"@rari-capital/solmate/src/tokens/ERC20.sol\":3280:3360  if (allowed != type(uint256).max) allowance[from][msg.sender] = allowed - amount */\n    tag_129:\n        /* \"@rari-capital/solmate/src/tokens/ERC20.sol\":3390:3396  amount */\n      dup3\n        /* \"@rari-capital/solmate/src/tokens/ERC20.sol\":3371:3380  balanceOf */\n      0x03\n        /* \"@rari-capital/solmate/src/tokens/ERC20.sol\":3371:3386  balanceOf[from] */\n      0x00\n        /* \"@rari-capital/solmate/src/tokens/ERC20.sol\":3381:3385  from */\n      dup8\n        /* \"@rari-capital/solmate/src/tokens/ERC20.sol\":3371:3386  balanceOf[from] */\n      0xffffffffffffffffffffffffffffffffffffffff\n      and\n      0xffffffffffffffffffffffffffffffffffffffff\n      and\n      dup2\n      mstore\n      0x20\n      add\n      swap1\n      dup2\n      mstore\n      0x20\n      add\n      0x00\n      keccak256\n      0x00\n        /* \"@rari-capital/solmate/src/tokens/ERC20.sol\":3371:3396  balanceOf[from] -= amount */\n      dup3\n      dup3\n      sload\n      tag_132\n      swap2\n      swap1\n      tag_131\n      jump\t// in\n    tag_132:\n      swap3\n      pop\n      pop\n      dup2\n      swap1\n      sstore\n      pop\n        /* \"@rari-capital/solmate/src/tokens/ERC20.sol\":3559:3565  amount */\n      dup3\n        /* \"@rari-capital/solmate/src/tokens/ERC20.sol\":3542:3551  balanceOf */\n      0x03\n        /* \"@rari-capital/solmate/src/tokens/ERC20.sol\":3542:3555  balanceOf[to] */\n      0x00\n        /* \"@rari-capital/solmate/src/tokens/ERC20.sol\":3552:3554  to */\n      dup7\n        /* \"@rari-capital/solmate/src/tokens/ERC20.sol\":3542:3555  balanceOf[to] */\n      0xffffffffffffffffffffffffffffffffffffffff\n      and\n      0xffffffffffffffffffffffffffffffffffffffff\n      and\n      dup2\n      mstore\n      0x20\n      add\n      swap1\n      dup2\n      mstore\n      0x20\n      add\n      0x00\n      keccak256\n      0x00\n        /* \"@rari-capital/solmate/src/tokens/ERC20.sol\":3542:3565  balanceOf[to] += amount */\n      dup3\n      dup3\n      sload\n      add\n      swap3\n      pop\n      pop\n      dup2\n      swap1\n      sstore\n      pop\n        /* \"@rari-capital/solmate/src/tokens/ERC20.sol\":3606:3608  to */\n      dup4\n        /* \"@rari-capital/solmate/src/tokens/ERC20.sol\":3591:3617  Transfer(from, to, amount) */\n      0xffffffffffffffffffffffffffffffffffffffff\n      and\n        /* \"@rari-capital/solmate/src/tokens/ERC20.sol\":3600:3604  from */\n      dup6\n        /* \"@rari-capital/solmate/src/tokens/ERC20.sol\":3591:3617  Transfer(from, to, amount) */\n      0xffffffffffffffffffffffffffffffffffffffff\n      and\n      0xddf252ad1be2c89b69c2b068fc378daa952ba7f163c4a11628f55a4df523b3ef\n        /* \"@rari-capital/solmate/src/tokens/ERC20.sol\":3610:3616  amount */\n      dup6\n        /* \"@rari-capital/solmate/src/tokens/ERC20.sol\":3591:3617  Transfer(from, to, amount) */\n      mload(0x40)\n      tag_133\n      swap2\n      swap1\n      tag_50\n      jump\t// in\n    tag_133:\n      mload(0x40)\n      dup1\n      swap2\n      sub\n      swap1\n      log3\n        /* \"@rari-capital/solmate/src/tokens/ERC20.sol\":3635:3639  true */\n      0x01\n        /* \"@rari-capital/solmate/src/tokens/ERC20.sol\":3628:3639  return true */\n      swap2\n      pop\n      pop\n        /* \"@rari-capital/solmate/src/tokens/ERC20.sol\":3054:3646  function transferFrom(... */\n      swap4\n      swap3\n      pop\n      pop\n      pop\n      jump\t// out\n        /* \"@rari-capital/solmate/src/tokens/ERC20.sol\":1080:1111  uint8 public immutable decimals */\n    tag_57:\n      immutable(\"0x6585423cb6456b1d4957f6454d2f004f0c4f58d53a00082412d5c2ef4b1b31fd\")\n      dup2\n      jump\t// out\n        /* \"@rari-capital/solmate/src/tokens/ERC20.sol\":5324:5501  function DOMAIN_SEPARATOR() public view virtual returns (bytes32) {... */\n    tag_61:\n        /* \"@rari-capital/solmate/src/tokens/ERC20.sol\":5381:5388  bytes32 */\n      0x00\n        /* \"@rari-capital/solmate/src/tokens/ERC20.sol\":5424:5440  INITIAL_CHAIN_ID */\n      immutable(\"0xd67d834462ca31eaef1f30157e31659f60355143b7441e6fc7d9eae1fa79f3f8\")\n        /* \"@rari-capital/solmate/src/tokens/ERC20.sol\":5407:5420  block.chainid */\n      chainid\n        /* \"@rari-capital/solmate/src/tokens/ERC20.sol\":5407:5440  block.chainid == INITIAL_CHAIN_ID */\n      eq\n        /* \"@rari-capital/solmate/src/tokens/ERC20.sol\":5407:5494  block.chainid == INITIAL_CHAIN_ID ? INITIAL_DOMAIN_SEPARATOR : computeDomainSeparator() */\n      tag_135\n      jumpi\n        /* \"@rari-capital/solmate/src/tokens/ERC20.sol\":5470:5494  computeDomainSeparator() */\n      tag_136\n        /* \"@rari-capital/solmate/src/tokens/ERC20.sol\":5470:5492  computeDomainSeparator */\n      tag_137\n        /* \"@rari-capital/solmate/src/tokens/ERC20.sol\":5470:5494  computeDomainSeparator() */\n      jump\t// in\n    tag_136:\n        /* \"@rari-capital/solmate/src/tokens/ERC20.sol\":5407:5494  block.chainid == INITIAL_CHAIN_ID ? INITIAL_DOMAIN_SEPARATOR : computeDomainSeparator() */\n      jump(tag_138)\n    tag_135:\n        /* \"@rari-capital/solmate/src/tokens/ERC20.sol\":5443:5467  INITIAL_DOMAIN_SEPARATOR */\n      immutable(\"0x880de8116b3dfac28e9ff528a9fef1d1e0a51449c1addce011ffec1f302992b6\")\n        /* \"@rari-capital/solmate/src/tokens/ERC20.sol\":5407:5494  block.chainid == INITIAL_CHAIN_ID ? INITIAL_DOMAIN_SEPARATOR : computeDomainSeparator() */\n    tag_138:\n        /* \"@rari-capital/solmate/src/tokens/ERC20.sol\":5400:5494  return block.chainid == INITIAL_CHAIN_ID ? INITIAL_DOMAIN_SEPARATOR : computeDomainSeparator() */\n      swap1\n      pop\n        /* \"@rari-capital/solmate/src/tokens/ERC20.sol\":5324:5501  function DOMAIN_SEPARATOR() public view virtual returns (bytes32) {... */\n      swap1\n      jump\t// out\n        /* \"contracts/KajuSwapPair.sol\":2046:2515  function initialize(address token0_, address token1_) public {... */\n    tag_67:\n        /* \"contracts/KajuSwapPair.sol\":2199:2206  factory */\n      0x06\n      0x00\n      swap1\n      sload\n      swap1\n      0x0100\n      exp\n      swap1\n      div\n      0xffffffffffffffffffffffffffffffffffffffff\n      and\n        /* \"contracts/KajuSwapPair.sol\":2185:2206  msg.sender == factory */\n      0xffffffffffffffffffffffffffffffffffffffff\n      and\n        /* \"contracts/KajuSwapPair.sol\":2185:2195  msg.sender */\n      caller\n        /* \"contracts/KajuSwapPair.sol\":2185:2206  msg.sender == factory */\n      0xffffffffffffffffffffffffffffffffffffffff\n      and\n      eq\n        /* \"contracts/KajuSwapPair.sol\":2177:2230  require(msg.sender == factory, \"Kajuswap: FORBIDDEN\") */\n      tag_140\n      jumpi\n      mload(0x40)\n      0x08c379a000000000000000000000000000000000000000000000000000000000\n      dup2\n      mstore\n      0x04\n      add\n      tag_141\n      swap1\n      tag_142\n      jump\t// in\n    tag_141:\n      mload(0x40)\n      dup1\n      swap2\n      sub\n      swap1\n      revert\n    tag_140:\n        /* \"contracts/KajuSwapPair.sol\":2282:2283  0 */\n      0x00\n        /* \"contracts/KajuSwapPair.sol\":2264:2284  token0 != address(0) */\n      0xffffffffffffffffffffffffffffffffffffffff\n      and\n        /* \"contracts/KajuSwapPair.sol\":2264:2270  token0 */\n      0x07\n      0x00\n      swap1\n      sload\n      swap1\n      0x0100\n      exp\n      swap1\n      div\n      0xffffffffffffffffffffffffffffffffffffffff\n      and\n        /* \"contracts/KajuSwapPair.sol\":2264:2284  token0 != address(0) */\n      0xffffffffffffffffffffffffffffffffffffffff\n      and\n      eq\n      iszero\n        /* \"contracts/KajuSwapPair.sol\":2264:2308  token0 != address(0) || token1 != address(0) */\n      dup1\n      tag_143\n      jumpi\n      pop\n        /* \"contracts/KajuSwapPair.sol\":2306:2307  0 */\n      0x00\n        /* \"contracts/KajuSwapPair.sol\":2288:2308  token1 != address(0) */\n      0xffffffffffffffffffffffffffffffffffffffff\n      and\n        /* \"contracts/KajuSwapPair.sol\":2288:2294  token1 */\n      0x08\n      0x00\n      swap1\n      sload\n      swap1\n      0x0100\n      exp\n      swap1\n      div\n      0xffffffffffffffffffffffffffffffffffffffff\n      and\n        /* \"contracts/KajuSwapPair.sol\":2288:2308  token1 != address(0) */\n      0xffffffffffffffffffffffffffffffffffffffff\n      and\n      eq\n      iszero\n        /* \"contracts/KajuSwapPair.sol\":2264:2308  token0 != address(0) || token1 != address(0) */\n    tag_143:\n        /* \"contracts/KajuSwapPair.sol\":2260:2349  if (token0 != address(0) || token1 != address(0))... */\n      iszero\n      tag_144\n      jumpi\n        /* \"contracts/KajuSwapPair.sol\":2329:2349  AlreadyInitialized() */\n      mload(0x40)\n      0x0dc149f000000000000000000000000000000000000000000000000000000000\n      dup2\n      mstore\n      0x04\n      add\n      mload(0x40)\n      dup1\n      swap2\n      sub\n      swap1\n      revert\n        /* \"contracts/KajuSwapPair.sol\":2260:2349  if (token0 != address(0) || token1 != address(0))... */\n    tag_144:\n        /* \"contracts/KajuSwapPair.sol\":2475:2482  token0_ */\n      dup2\n        /* \"contracts/KajuSwapPair.sol\":2466:2472  token0 */\n      0x07\n      0x00\n        /* \"contracts/KajuSwapPair.sol\":2466:2482  token0 = token0_ */\n      0x0100\n      exp\n      dup2\n      sload\n      dup2\n      0xffffffffffffffffffffffffffffffffffffffff\n      mul\n      not\n      and\n      swap1\n      dup4\n      0xffffffffffffffffffffffffffffffffffffffff\n      and\n      mul\n      or\n      swap1\n      sstore\n      pop\n        /* \"contracts/KajuSwapPair.sol\":2501:2508  token1_ */\n      dup1\n        /* \"contracts/KajuSwapPair.sol\":2492:2498  token1 */\n      0x08\n      0x00\n        /* \"contracts/KajuSwapPair.sol\":2492:2508  token1 = token1_ */\n      0x0100\n      exp\n      dup2\n      sload\n      dup2\n      0xffffffffffffffffffffffffffffffffffffffff\n      mul\n      not\n      and\n      swap1\n      dup4\n      0xffffffffffffffffffffffffffffffffffffffff\n      and\n      mul\n      or\n      swap1\n      sstore\n      pop\n        /* \"contracts/KajuSwapPair.sol\":2046:2515  function initialize(address token0_, address token1_) public {... */\n      pop\n      pop\n      jump\t// out\n        /* \"contracts/KajuSwapPair.sol\":905:940  uint256 public price0CumulativeLast */\n    tag_69:\n      sload(0x0a)\n      dup2\n      jump\t// out\n        /* \"contracts/KajuSwapPair.sol\":946:981  uint256 public price1CumulativeLast */\n    tag_72:\n      sload(0x0b)\n      dup2\n      jump\t// out\n        /* \"contracts/KajuSwapPair.sol\":2521:3520  function mint(address to) public lock returns (uint256 liquidity) {... */\n    tag_77:\n        /* \"contracts/KajuSwapPair.sol\":2568:2585  uint256 liquidity */\n      0x00\n        /* \"contracts/KajuSwapPair.sol\":1498:1507  isEntered */\n      0x0c\n      0x00\n      swap1\n      sload\n      swap1\n      0x0100\n      exp\n      swap1\n      div\n      0xff\n      and\n        /* \"contracts/KajuSwapPair.sol\":1497:1507  !isEntered */\n      iszero\n        /* \"contracts/KajuSwapPair.sol\":1489:1554  require(!isEntered, \"Kajuswap: You cannot Enter in the contract\") */\n      tag_146\n      jumpi\n      mload(0x40)\n      0x08c379a000000000000000000000000000000000000000000000000000000000\n      dup2\n      mstore\n      0x04\n      add\n      tag_147\n      swap1\n      tag_148\n      jump\t// in\n    tag_147:\n      mload(0x40)\n      dup1\n      swap2\n      sub\n      swap1\n      revert\n    tag_146:\n        /* \"contracts/KajuSwapPair.sol\":1576:1580  true */\n      0x01\n        /* \"contracts/KajuSwapPair.sol\":1564:1573  isEntered */\n      0x0c\n      0x00\n        /* \"contracts/KajuSwapPair.sol\":1564:1580  isEntered = true */\n      0x0100\n      exp\n      dup2\n      sload\n      dup2\n      0xff\n      mul\n      not\n      and\n      swap1\n      dup4\n      iszero\n      iszero\n      mul\n      or\n      swap1\n      sstore\n      pop\n        /* \"contracts/KajuSwapPair.sol\":2598:2615  uint112 reserve0_ */\n      0x00\n        /* \"contracts/KajuSwapPair.sol\":2617:2634  uint112 reserve1_ */\n      dup1\n        /* \"contracts/KajuSwapPair.sol\":2640:2653  getReserves() */\n      tag_150\n        /* \"contracts/KajuSwapPair.sol\":2640:2651  getReserves */\n      tag_34\n        /* \"contracts/KajuSwapPair.sol\":2640:2653  getReserves() */\n      jump\t// in\n    tag_150:\n        /* \"contracts/KajuSwapPair.sol\":2597:2653  (uint112 reserve0_, uint112 reserve1_, ) = getReserves() */\n      pop\n      swap2\n      pop\n      swap2\n      pop\n        /* \"contracts/KajuSwapPair.sol\":2677:2693  uint256 balance0 */\n      0x00\n        /* \"contracts/KajuSwapPair.sol\":2703:2709  token0 */\n      0x07\n      0x00\n      swap1\n      sload\n      swap1\n      0x0100\n      exp\n      swap1\n      div\n      0xffffffffffffffffffffffffffffffffffffffff\n      and\n        /* \"contracts/KajuSwapPair.sol\":2696:2720  IERC20(token0).balanceOf */\n      0xffffffffffffffffffffffffffffffffffffffff\n      and\n      0x70a08231\n        /* \"contracts/KajuSwapPair.sol\":2729:2733  this */\n      address\n        /* \"contracts/KajuSwapPair.sol\":2696:2735  IERC20(token0).balanceOf(address(this)) */\n      mload(0x40)\n      dup3\n      0xffffffff\n      and\n      0xe0\n      shl\n      dup2\n      mstore\n      0x04\n      add\n      tag_151\n      swap2\n      swap1\n      tag_46\n      jump\t// in\n    tag_151:\n      0x20\n      mload(0x40)\n      dup1\n      dup4\n      sub\n      dup2\n      dup7\n      gas\n      staticcall\n      iszero\n      dup1\n      iszero\n      tag_153\n      jumpi\n      returndatasize\n      0x00\n      dup1\n      returndatacopy\n      revert(0x00, returndatasize)\n    tag_153:\n      pop\n      pop\n      pop\n      pop\n      mload(0x40)\n      returndatasize\n      not(0x1f)\n      0x1f\n      dup3\n      add\n      and\n      dup3\n      add\n      dup1\n      0x40\n      mstore\n      pop\n      dup2\n      add\n      swap1\n      tag_154\n      swap2\n      swap1\n      tag_155\n      jump\t// in\n    tag_154:\n        /* \"contracts/KajuSwapPair.sol\":2677:2735  uint256 balance0 = IERC20(token0).balanceOf(address(this)) */\n      swap1\n      pop\n        /* \"contracts/KajuSwapPair.sol\":2745:2761  uint256 balance1 */\n      0x00\n        /* \"contracts/KajuSwapPair.sol\":2771:2777  token1 */\n      0x08\n      0x00\n      swap1\n      sload\n      swap1\n      0x0100\n      exp\n      swap1\n      div\n      0xffffffffffffffffffffffffffffffffffffffff\n      and\n        /* \"contracts/KajuSwapPair.sol\":2764:2788  IERC20(token1).balanceOf */\n      0xffffffffffffffffffffffffffffffffffffffff\n      and\n      0x70a08231\n        /* \"contracts/KajuSwapPair.sol\":2797:2801  this */\n      address\n        /* \"contracts/KajuSwapPair.sol\":2764:2803  IERC20(token1).balanceOf(address(this)) */\n      mload(0x40)\n      dup3\n      0xffffffff\n      and\n      0xe0\n      shl\n      dup2\n      mstore\n      0x04\n      add\n      tag_156\n      swap2\n      swap1\n      tag_46\n      jump\t// in\n    tag_156:\n      0x20\n      mload(0x40)\n      dup1\n      dup4\n      sub\n      dup2\n      dup7\n      gas\n      staticcall\n      iszero\n      dup1\n      iszero\n      tag_158\n      jumpi\n      returndatasize\n      0x00\n      dup1\n      returndatacopy\n      revert(0x00, returndatasize)\n    tag_158:\n      pop\n      pop\n      pop\n      pop\n      mload(0x40)\n      returndatasize\n      not(0x1f)\n      0x1f\n      dup3\n      add\n      and\n      dup3\n      add\n      dup1\n      0x40\n      mstore\n      pop\n      dup2\n      add\n      swap1\n      tag_159\n      swap2\n      swap1\n      tag_155\n      jump\t// in\n    tag_159:\n        /* \"contracts/KajuSwapPair.sol\":2745:2803  uint256 balance1 = IERC20(token1).balanceOf(address(this)) */\n      swap1\n      pop\n        /* \"contracts/KajuSwapPair.sol\":2813:2828  uint256 amount0 */\n      0x00\n        /* \"contracts/KajuSwapPair.sol\":2842:2851  reserve0_ */\n      dup5\n        /* \"contracts/KajuSwapPair.sol\":2831:2851  balance0 - reserve0_ */\n      0xffffffffffffffffffffffffffff\n      and\n        /* \"contracts/KajuSwapPair.sol\":2831:2839  balance0 */\n      dup4\n        /* \"contracts/KajuSwapPair.sol\":2831:2851  balance0 - reserve0_ */\n      tag_160\n      swap2\n      swap1\n      tag_131\n      jump\t// in\n    tag_160:\n        /* \"contracts/KajuSwapPair.sol\":2813:2851  uint256 amount0 = balance0 - reserve0_ */\n      swap1\n      pop\n        /* \"contracts/KajuSwapPair.sol\":2861:2876  uint256 amount1 */\n      0x00\n        /* \"contracts/KajuSwapPair.sol\":2890:2899  reserve1_ */\n      dup5\n        /* \"contracts/KajuSwapPair.sol\":2879:2899  balance1 - reserve1_ */\n      0xffffffffffffffffffffffffffff\n      and\n        /* \"contracts/KajuSwapPair.sol\":2879:2887  balance1 */\n      dup4\n        /* \"contracts/KajuSwapPair.sol\":2879:2899  balance1 - reserve1_ */\n      tag_161\n      swap2\n      swap1\n      tag_131\n      jump\t// in\n    tag_161:\n        /* \"contracts/KajuSwapPair.sol\":2861:2899  uint256 amount1 = balance1 - reserve1_ */\n      swap1\n      pop\n        /* \"contracts/KajuSwapPair.sol\":2929:2930  0 */\n      0x00\n        /* \"contracts/KajuSwapPair.sol\":2914:2925  totalSupply */\n      sload(0x02)\n        /* \"contracts/KajuSwapPair.sol\":2914:2930  totalSupply == 0 */\n      sub\n        /* \"contracts/KajuSwapPair.sol\":2910:3238  if (totalSupply == 0) {... */\n      tag_162\n      jumpi\n        /* \"contracts/KajuSwapPair.sol\":624:628  1000 */\n      0x03e8\n        /* \"contracts/KajuSwapPair.sol\":2958:2986  Math.sqrt(amount0 * amount1) */\n      tag_163\n        /* \"contracts/KajuSwapPair.sol\":2978:2985  amount1 */\n      dup3\n        /* \"contracts/KajuSwapPair.sol\":2968:2975  amount0 */\n      dup5\n        /* \"contracts/KajuSwapPair.sol\":2968:2985  amount0 * amount1 */\n      tag_164\n      swap2\n      swap1\n      tag_165\n      jump\t// in\n    tag_164:\n        /* \"contracts/KajuSwapPair.sol\":2958:2967  Math.sqrt */\n      tag_166\n        /* \"contracts/KajuSwapPair.sol\":2958:2986  Math.sqrt(amount0 * amount1) */\n      jump\t// in\n    tag_163:\n        /* \"contracts/KajuSwapPair.sol\":2958:3006  Math.sqrt(amount0 * amount1) - MINIMUM_LIQUIDITY */\n      tag_167\n      swap2\n      swap1\n      tag_131\n      jump\t// in\n    tag_167:\n        /* \"contracts/KajuSwapPair.sol\":2946:3006  liquidity = Math.sqrt(amount0 * amount1) - MINIMUM_LIQUIDITY */\n      swap7\n      pop\n        /* \"contracts/KajuSwapPair.sol\":3020:3056  _mint(address(0), MINIMUM_LIQUIDITY) */\n      tag_168\n        /* \"contracts/KajuSwapPair.sol\":3034:3035  0 */\n      0x00\n        /* \"contracts/KajuSwapPair.sol\":624:628  1000 */\n      0x03e8\n        /* \"contracts/KajuSwapPair.sol\":3020:3025  _mint */\n      tag_169\n        /* \"contracts/KajuSwapPair.sol\":3020:3056  _mint(address(0), MINIMUM_LIQUIDITY) */\n      jump\t// in\n    tag_168:\n        /* \"contracts/KajuSwapPair.sol\":2910:3238  if (totalSupply == 0) {... */\n      jump(tag_170)\n    tag_162:\n        /* \"contracts/KajuSwapPair.sol\":3099:3227  Math.min(... */\n      tag_171\n        /* \"contracts/KajuSwapPair.sol\":3151:3160  reserve0_ */\n      dup7\n        /* \"contracts/KajuSwapPair.sol\":3125:3160  (amount0 * totalSupply) / reserve0_ */\n      0xffffffffffffffffffffffffffff\n      and\n        /* \"contracts/KajuSwapPair.sol\":3136:3147  totalSupply */\n      sload(0x02)\n        /* \"contracts/KajuSwapPair.sol\":3126:3133  amount0 */\n      dup5\n        /* \"contracts/KajuSwapPair.sol\":3126:3147  amount0 * totalSupply */\n      tag_172\n      swap2\n      swap1\n      tag_165\n      jump\t// in\n    tag_172:\n        /* \"contracts/KajuSwapPair.sol\":3125:3160  (amount0 * totalSupply) / reserve0_ */\n      tag_173\n      swap2\n      swap1\n      tag_174\n      jump\t// in\n    tag_173:\n        /* \"contracts/KajuSwapPair.sol\":3204:3213  reserve1_ */\n      dup7\n        /* \"contracts/KajuSwapPair.sol\":3178:3213  (amount1 * totalSupply) / reserve1_ */\n      0xffffffffffffffffffffffffffff\n      and\n        /* \"contracts/KajuSwapPair.sol\":3189:3200  totalSupply */\n      sload(0x02)\n        /* \"contracts/KajuSwapPair.sol\":3179:3186  amount1 */\n      dup5\n        /* \"contracts/KajuSwapPair.sol\":3179:3200  amount1 * totalSupply */\n      tag_175\n      swap2\n      swap1\n      tag_165\n      jump\t// in\n    tag_175:\n        /* \"contracts/KajuSwapPair.sol\":3178:3213  (amount1 * totalSupply) / reserve1_ */\n      tag_176\n      swap2\n      swap1\n      tag_174\n      jump\t// in\n    tag_176:\n        /* \"contracts/KajuSwapPair.sol\":3099:3107  Math.min */\n      tag_177\n        /* \"contracts/KajuSwapPair.sol\":3099:3227  Math.min(... */\n      jump\t// in\n    tag_171:\n        /* \"contracts/KajuSwapPair.sol\":3087:3227  liquidity = Math.min(... */\n      swap7\n      pop\n        /* \"contracts/KajuSwapPair.sol\":2910:3238  if (totalSupply == 0) {... */\n    tag_170:\n        /* \"contracts/KajuSwapPair.sol\":3337:3338  0 */\n      0x00\n        /* \"contracts/KajuSwapPair.sol\":3325:3334  liquidity */\n      dup8\n        /* \"contracts/KajuSwapPair.sol\":3325:3338  liquidity > 0 */\n      gt\n        /* \"contracts/KajuSwapPair.sol\":3317:3382  require(liquidity > 0, \"Kajuswap: INSUFFICIENT_LIQUIDITY_MINTED\") */\n      tag_178\n      jumpi\n      mload(0x40)\n      0x08c379a000000000000000000000000000000000000000000000000000000000\n      dup2\n      mstore\n      0x04\n      add\n      tag_179\n      swap1\n      tag_180\n      jump\t// in\n    tag_179:\n      mload(0x40)\n      dup1\n      swap2\n      sub\n      swap1\n      revert\n    tag_178:\n        /* \"contracts/KajuSwapPair.sol\":3393:3413  _mint(to, liquidity) */\n      tag_181\n        /* \"contracts/KajuSwapPair.sol\":3399:3401  to */\n      dup9\n        /* \"contracts/KajuSwapPair.sol\":3403:3412  liquidity */\n      dup9\n        /* \"contracts/KajuSwapPair.sol\":3393:3398  _mint */\n      tag_169\n        /* \"contracts/KajuSwapPair.sol\":3393:3413  _mint(to, liquidity) */\n      jump\t// in\n    tag_181:\n        /* \"contracts/KajuSwapPair.sol\":3423:3472  _update(balance0, balance1, reserve0_, reserve1_) */\n      tag_182\n        /* \"contracts/KajuSwapPair.sol\":3431:3439  balance0 */\n      dup5\n        /* \"contracts/KajuSwapPair.sol\":3441:3449  balance1 */\n      dup5\n        /* \"contracts/KajuSwapPair.sol\":3451:3460  reserve0_ */\n      dup9\n        /* \"contracts/KajuSwapPair.sol\":3462:3471  reserve1_ */\n      dup9\n        /* \"contracts/KajuSwapPair.sol\":3423:3430  _update */\n      tag_183\n        /* \"contracts/KajuSwapPair.sol\":3423:3472  _update(balance0, balance1, reserve0_, reserve1_) */\n      jump\t// in\n    tag_182:\n        /* \"contracts/KajuSwapPair.sol\":3492:3494  to */\n      dup8\n        /* \"contracts/KajuSwapPair.sol\":3487:3513  Mint(to, amount0, amount1) */\n      0xffffffffffffffffffffffffffffffffffffffff\n      and\n      0x4c209b5fc8ad50758f13e2e1088ba56a560dff690a1c6fef26394f4c03821c4f\n        /* \"contracts/KajuSwapPair.sol\":3496:3503  amount0 */\n      dup4\n        /* \"contracts/KajuSwapPair.sol\":3505:3512  amount1 */\n      dup4\n        /* \"contracts/KajuSwapPair.sol\":3487:3513  Mint(to, amount0, amount1) */\n      mload(0x40)\n      tag_184\n      swap3\n      swap2\n      swap1\n      tag_95\n      jump\t// in\n    tag_184:\n      mload(0x40)\n      dup1\n      swap2\n      sub\n      swap1\n      log2\n        /* \"contracts/KajuSwapPair.sol\":2587:3520  {... */\n      pop\n      pop\n      pop\n      pop\n      pop\n      pop\n        /* \"contracts/KajuSwapPair.sol\":1613:1618  false */\n      0x00\n        /* \"contracts/KajuSwapPair.sol\":1601:1610  isEntered */\n      0x0c\n      0x00\n        /* \"contracts/KajuSwapPair.sol\":1601:1618  isEntered = false */\n      0x0100\n      exp\n      dup2\n      sload\n      dup2\n      0xff\n      mul\n      not\n      and\n      swap1\n      dup4\n      iszero\n      iszero\n      mul\n      or\n      swap1\n      sstore\n      pop\n        /* \"contracts/KajuSwapPair.sol\":2521:3520  function mint(address to) public lock returns (uint256 liquidity) {... */\n      swap2\n      swap1\n      pop\n      jump\t// out\n        /* \"contracts/KajuSwapPair.sol\":4586:6737  function swap(... */\n    tag_82:\n        /* \"contracts/KajuSwapPair.sol\":1498:1507  isEntered */\n      0x0c\n      0x00\n      swap1\n      sload\n      swap1\n      0x0100\n      exp\n      swap1\n      div\n      0xff\n      and\n        /* \"contracts/KajuSwapPair.sol\":1497:1507  !isEntered */\n      iszero\n        /* \"contracts/KajuSwapPair.sol\":1489:1554  require(!isEntered, \"Kajuswap: You cannot Enter in the contract\") */\n      tag_186\n      jumpi\n      mload(0x40)\n      0x08c379a000000000000000000000000000000000000000000000000000000000\n      dup2\n      mstore\n      0x04\n      add\n      tag_187\n      swap1\n      tag_148\n      jump\t// in\n    tag_187:\n      mload(0x40)\n      dup1\n      swap2\n      sub\n      swap1\n      revert\n    tag_186:\n        /* \"contracts/KajuSwapPair.sol\":1576:1580  true */\n      0x01\n        /* \"contracts/KajuSwapPair.sol\":1564:1573  isEntered */\n      0x0c\n      0x00\n        /* \"contracts/KajuSwapPair.sol\":1564:1580  isEntered = true */\n      0x0100\n      exp\n      dup2\n      sload\n      dup2\n      0xff\n      mul\n      not\n      and\n      swap1\n      dup4\n      iszero\n      iszero\n      mul\n      or\n      swap1\n      sstore\n      pop\n        /* \"contracts/KajuSwapPair.sol\":4839:4840  0 */\n      0x00\n        /* \"contracts/KajuSwapPair.sol\":4826:4836  amount0Out */\n      dup4\n        /* \"contracts/KajuSwapPair.sol\":4826:4840  amount0Out > 0 */\n      gt\n        /* \"contracts/KajuSwapPair.sol\":4826:4858  amount0Out > 0 || amount1Out > 0 */\n      dup1\n      tag_189\n      jumpi\n      pop\n        /* \"contracts/KajuSwapPair.sol\":4857:4858  0 */\n      0x00\n        /* \"contracts/KajuSwapPair.sol\":4844:4854  amount1Out */\n      dup3\n        /* \"contracts/KajuSwapPair.sol\":4844:4858  amount1Out > 0 */\n      gt\n        /* \"contracts/KajuSwapPair.sol\":4826:4858  amount0Out > 0 || amount1Out > 0 */\n    tag_189:\n        /* \"contracts/KajuSwapPair.sol\":4805:4920  require(... */\n      tag_190\n      jumpi\n      mload(0x40)\n      0x08c379a000000000000000000000000000000000000000000000000000000000\n      dup2\n      mstore\n      0x04\n      add\n      tag_191\n      swap1\n      tag_192\n      jump\t// in\n    tag_191:\n      mload(0x40)\n      dup1\n      swap2\n      sub\n      swap1\n      revert\n    tag_190:\n        /* \"contracts/KajuSwapPair.sol\":4932:4949  uint112 reserve0_ */\n      0x00\n        /* \"contracts/KajuSwapPair.sol\":4951:4968  uint112 reserve1_ */\n      dup1\n        /* \"contracts/KajuSwapPair.sol\":4974:4987  getReserves() */\n      tag_193\n        /* \"contracts/KajuSwapPair.sol\":4974:4985  getReserves */\n      tag_34\n        /* \"contracts/KajuSwapPair.sol\":4974:4987  getReserves() */\n      jump\t// in\n    tag_193:\n        /* \"contracts/KajuSwapPair.sol\":4931:4987  (uint112 reserve0_, uint112 reserve1_, ) = getReserves() */\n      pop\n      swap2\n      pop\n      swap2\n      pop\n        /* \"contracts/KajuSwapPair.sol\":5144:5153  reserve0_ */\n      dup2\n        /* \"contracts/KajuSwapPair.sol\":5131:5153  amount0Out < reserve0_ */\n      0xffffffffffffffffffffffffffff\n      and\n        /* \"contracts/KajuSwapPair.sol\":5131:5141  amount0Out */\n      dup6\n        /* \"contracts/KajuSwapPair.sol\":5131:5153  amount0Out < reserve0_ */\n      lt\n        /* \"contracts/KajuSwapPair.sol\":5131:5179  amount0Out < reserve0_ && amount1Out < reserve1_ */\n      dup1\n      iszero\n      tag_194\n      jumpi\n      pop\n        /* \"contracts/KajuSwapPair.sol\":5170:5179  reserve1_ */\n      dup1\n        /* \"contracts/KajuSwapPair.sol\":5157:5179  amount1Out < reserve1_ */\n      0xffffffffffffffffffffffffffff\n      and\n        /* \"contracts/KajuSwapPair.sol\":5157:5167  amount1Out */\n      dup5\n        /* \"contracts/KajuSwapPair.sol\":5157:5179  amount1Out < reserve1_ */\n      lt\n        /* \"contracts/KajuSwapPair.sol\":5131:5179  amount0Out < reserve0_ && amount1Out < reserve1_ */\n    tag_194:\n        /* \"contracts/KajuSwapPair.sol\":5110:5237  require(... */\n      tag_195\n      jumpi\n      mload(0x40)\n      0x08c379a000000000000000000000000000000000000000000000000000000000\n      dup2\n      mstore\n      0x04\n      add\n      tag_196\n      swap1\n      tag_197\n      jump\t// in\n    tag_196:\n      mload(0x40)\n      dup1\n      swap2\n      sub\n      swap1\n      revert\n    tag_195:\n        /* \"contracts/KajuSwapPair.sol\":5265:5266  0 */\n      0x00\n        /* \"contracts/KajuSwapPair.sol\":5252:5262  amount0Out */\n      dup6\n        /* \"contracts/KajuSwapPair.sol\":5252:5266  amount0Out > 0 */\n      gt\n        /* \"contracts/KajuSwapPair.sol\":5248:5305  if (amount0Out > 0) _safeTransfer(token0, to, amount0Out) */\n      iszero\n      tag_198\n      jumpi\n        /* \"contracts/KajuSwapPair.sol\":5268:5305  _safeTransfer(token0, to, amount0Out) */\n      tag_199\n        /* \"contracts/KajuSwapPair.sol\":5282:5288  token0 */\n      0x07\n      0x00\n      swap1\n      sload\n      swap1\n      0x0100\n      exp\n      swap1\n      div\n      0xffffffffffffffffffffffffffffffffffffffff\n      and\n        /* \"contracts/KajuSwapPair.sol\":5290:5292  to */\n      dup5\n        /* \"contracts/KajuSwapPair.sol\":5294:5304  amount0Out */\n      dup8\n        /* \"contracts/KajuSwapPair.sol\":5268:5281  _safeTransfer */\n      tag_200\n        /* \"contracts/KajuSwapPair.sol\":5268:5305  _safeTransfer(token0, to, amount0Out) */\n      jump\t// in\n    tag_199:\n        /* \"contracts/KajuSwapPair.sol\":5248:5305  if (amount0Out > 0) _safeTransfer(token0, to, amount0Out) */\n    tag_198:\n        /* \"contracts/KajuSwapPair.sol\":5332:5333  0 */\n      0x00\n        /* \"contracts/KajuSwapPair.sol\":5319:5329  amount1Out */\n      dup5\n        /* \"contracts/KajuSwapPair.sol\":5319:5333  amount1Out > 0 */\n      gt\n        /* \"contracts/KajuSwapPair.sol\":5315:5372  if (amount1Out > 0) _safeTransfer(token1, to, amount1Out) */\n      iszero\n      tag_201\n      jumpi\n        /* \"contracts/KajuSwapPair.sol\":5335:5372  _safeTransfer(token1, to, amount1Out) */\n      tag_202\n        /* \"contracts/KajuSwapPair.sol\":5349:5355  token1 */\n      0x08\n      0x00\n      swap1\n      sload\n      swap1\n      0x0100\n      exp\n      swap1\n      div\n      0xffffffffffffffffffffffffffffffffffffffff\n      and\n        /* \"contracts/KajuSwapPair.sol\":5357:5359  to */\n      dup5\n        /* \"contracts/KajuSwapPair.sol\":5361:5371  amount1Out */\n      dup7\n        /* \"contracts/KajuSwapPair.sol\":5335:5348  _safeTransfer */\n      tag_200\n        /* \"contracts/KajuSwapPair.sol\":5335:5372  _safeTransfer(token1, to, amount1Out) */\n      jump\t// in\n    tag_202:\n        /* \"contracts/KajuSwapPair.sol\":5315:5372  if (amount1Out > 0) _safeTransfer(token1, to, amount1Out) */\n    tag_201:\n        /* \"contracts/KajuSwapPair.sol\":5383:5399  uint256 balance0 */\n      0x00\n        /* \"contracts/KajuSwapPair.sol\":5409:5415  token0 */\n      0x07\n      0x00\n      swap1\n      sload\n      swap1\n      0x0100\n      exp\n      swap1\n      div\n      0xffffffffffffffffffffffffffffffffffffffff\n      and\n        /* \"contracts/KajuSwapPair.sol\":5402:5426  IERC20(token0).balanceOf */\n      0xffffffffffffffffffffffffffffffffffffffff\n      and\n      0x70a08231\n        /* \"contracts/KajuSwapPair.sol\":5435:5439  this */\n      address\n        /* \"contracts/KajuSwapPair.sol\":5402:5441  IERC20(token0).balanceOf(address(this)) */\n      mload(0x40)\n      dup3\n      0xffffffff\n      and\n      0xe0\n      shl\n      dup2\n      mstore\n      0x04\n      add\n      tag_203\n      swap2\n      swap1\n      tag_46\n      jump\t// in\n    tag_203:\n      0x20\n      mload(0x40)\n      dup1\n      dup4\n      sub\n      dup2\n      dup7\n      gas\n      staticcall\n      iszero\n      dup1\n      iszero\n      tag_205\n      jumpi\n      returndatasize\n      0x00\n      dup1\n      returndatacopy\n      revert(0x00, returndatasize)\n    tag_205:\n      pop\n      pop\n      pop\n      pop\n      mload(0x40)\n      returndatasize\n      not(0x1f)\n      0x1f\n      dup3\n      add\n      and\n      dup3\n      add\n      dup1\n      0x40\n      mstore\n      pop\n      dup2\n      add\n      swap1\n      tag_206\n      swap2\n      swap1\n      tag_155\n      jump\t// in\n    tag_206:\n        /* \"contracts/KajuSwapPair.sol\":5383:5441  uint256 balance0 = IERC20(token0).balanceOf(address(this)) */\n      swap1\n      pop\n        /* \"contracts/KajuSwapPair.sol\":5485:5501  uint256 balance1 */\n      0x00\n        /* \"contracts/KajuSwapPair.sol\":5511:5517  token1 */\n      0x08\n      0x00\n      swap1\n      sload\n      swap1\n      0x0100\n      exp\n      swap1\n      div\n      0xffffffffffffffffffffffffffffffffffffffff\n      and\n        /* \"contracts/KajuSwapPair.sol\":5504:5528  IERC20(token1).balanceOf */\n      0xffffffffffffffffffffffffffffffffffffffff\n      and\n      0x70a08231\n        /* \"contracts/KajuSwapPair.sol\":5537:5541  this */\n      address\n        /* \"contracts/KajuSwapPair.sol\":5504:5543  IERC20(token1).balanceOf(address(this)) */\n      mload(0x40)\n      dup3\n      0xffffffff\n      and\n      0xe0\n      shl\n      dup2\n      mstore\n      0x04\n      add\n      tag_207\n      swap2\n      swap1\n      tag_46\n      jump\t// in\n    tag_207:\n      0x20\n      mload(0x40)\n      dup1\n      dup4\n      sub\n      dup2\n      dup7\n      gas\n      staticcall\n      iszero\n      dup1\n      iszero\n      tag_209\n      jumpi\n      returndatasize\n      0x00\n      dup1\n      returndatacopy\n      revert(0x00, returndatasize)\n    tag_209:\n      pop\n      pop\n      pop\n      pop\n      mload(0x40)\n      returndatasize\n      not(0x1f)\n      0x1f\n      dup3\n      add\n      and\n      dup3\n      add\n      dup1\n      0x40\n      mstore\n      pop\n      dup2\n      add\n      swap1\n      tag_210\n      swap2\n      swap1\n      tag_155\n      jump\t// in\n    tag_210:\n        /* \"contracts/KajuSwapPair.sol\":5485:5543  uint256 balance1 = IERC20(token1).balanceOf(address(this)) */\n      swap1\n      pop\n        /* \"contracts/KajuSwapPair.sol\":5587:5604  uint256 amount0In */\n      0x00\n        /* \"contracts/KajuSwapPair.sol\":5629:5639  amount0Out */\n      dup8\n        /* \"contracts/KajuSwapPair.sol\":5618:5626  reserve0 */\n      0x09\n      0x00\n      swap1\n      sload\n      swap1\n      0x0100\n      exp\n      swap1\n      div\n      0xffffffffffffffffffffffffffff\n      and\n        /* \"contracts/KajuSwapPair.sol\":5618:5639  reserve0 - amount0Out */\n      0xffffffffffffffffffffffffffff\n      and\n      tag_211\n      swap2\n      swap1\n      tag_131\n      jump\t// in\n    tag_211:\n        /* \"contracts/KajuSwapPair.sol\":5607:5615  balance0 */\n      dup4\n        /* \"contracts/KajuSwapPair.sol\":5607:5639  balance0 > reserve0 - amount0Out */\n      gt\n        /* \"contracts/KajuSwapPair.sol\":5607:5704  balance0 > reserve0 - amount0Out... */\n      tag_212\n      jumpi\n        /* \"contracts/KajuSwapPair.sol\":5703:5704  0 */\n      0x00\n        /* \"contracts/KajuSwapPair.sol\":5607:5704  balance0 > reserve0 - amount0Out... */\n      jump(tag_213)\n    tag_212:\n        /* \"contracts/KajuSwapPair.sol\":5677:5687  amount0Out */\n      dup8\n        /* \"contracts/KajuSwapPair.sol\":5666:5674  reserve0 */\n      0x09\n      0x00\n      swap1\n      sload\n      swap1\n      0x0100\n      exp\n      swap1\n      div\n      0xffffffffffffffffffffffffffff\n      and\n        /* \"contracts/KajuSwapPair.sol\":5666:5687  reserve0 - amount0Out */\n      0xffffffffffffffffffffffffffff\n      and\n      tag_214\n      swap2\n      swap1\n      tag_131\n      jump\t// in\n    tag_214:\n        /* \"contracts/KajuSwapPair.sol\":5654:5662  balance0 */\n      dup4\n        /* \"contracts/KajuSwapPair.sol\":5654:5688  balance0 - (reserve0 - amount0Out) */\n      tag_215\n      swap2\n      swap1\n      tag_131\n      jump\t// in\n    tag_215:\n        /* \"contracts/KajuSwapPair.sol\":5607:5704  balance0 > reserve0 - amount0Out... */\n    tag_213:\n        /* \"contracts/KajuSwapPair.sol\":5587:5704  uint256 amount0In = balance0 > reserve0 - amount0Out... */\n      swap1\n      pop\n        /* \"contracts/KajuSwapPair.sol\":5714:5731  uint256 amount1In */\n      0x00\n        /* \"contracts/KajuSwapPair.sol\":5756:5766  amount1Out */\n      dup8\n        /* \"contracts/KajuSwapPair.sol\":5745:5753  reserve1 */\n      0x09\n      0x0e\n      swap1\n      sload\n      swap1\n      0x0100\n      exp\n      swap1\n      div\n      0xffffffffffffffffffffffffffff\n      and\n        /* \"contracts/KajuSwapPair.sol\":5745:5766  reserve1 - amount1Out */\n      0xffffffffffffffffffffffffffff\n      and\n      tag_216\n      swap2\n      swap1\n      tag_131\n      jump\t// in\n    tag_216:\n        /* \"contracts/KajuSwapPair.sol\":5734:5742  balance1 */\n      dup4\n        /* \"contracts/KajuSwapPair.sol\":5734:5766  balance1 > reserve1 - amount1Out */\n      gt\n        /* \"contracts/KajuSwapPair.sol\":5734:5831  balance1 > reserve1 - amount1Out... */\n      tag_217\n      jumpi\n        /* \"contracts/KajuSwapPair.sol\":5830:5831  0 */\n      0x00\n        /* \"contracts/KajuSwapPair.sol\":5734:5831  balance1 > reserve1 - amount1Out... */\n      jump(tag_218)\n    tag_217:\n        /* \"contracts/KajuSwapPair.sol\":5804:5814  amount1Out */\n      dup8\n        /* \"contracts/KajuSwapPair.sol\":5793:5801  reserve1 */\n      0x09\n      0x0e\n      swap1\n      sload\n      swap1\n      0x0100\n      exp\n      swap1\n      div\n      0xffffffffffffffffffffffffffff\n      and\n        /* \"contracts/KajuSwapPair.sol\":5793:5814  reserve1 - amount1Out */\n      0xffffffffffffffffffffffffffff\n      and\n      tag_219\n      swap2\n      swap1\n      tag_131\n      jump\t// in\n    tag_219:\n        /* \"contracts/KajuSwapPair.sol\":5781:5789  balance1 */\n      dup4\n        /* \"contracts/KajuSwapPair.sol\":5781:5815  balance1 - (reserve1 - amount1Out) */\n      tag_220\n      swap2\n      swap1\n      tag_131\n      jump\t// in\n    tag_220:\n        /* \"contracts/KajuSwapPair.sol\":5734:5831  balance1 > reserve1 - amount1Out... */\n    tag_218:\n        /* \"contracts/KajuSwapPair.sol\":5714:5831  uint256 amount1In = balance1 > reserve1 - amount1Out... */\n      swap1\n      pop\n        /* \"contracts/KajuSwapPair.sol\":5957:5958  0 */\n      0x00\n        /* \"contracts/KajuSwapPair.sol\":5945:5954  amount0In */\n      dup3\n        /* \"contracts/KajuSwapPair.sol\":5945:5958  amount0In > 0 */\n      gt\n        /* \"contracts/KajuSwapPair.sol\":5945:5975  amount0In > 0 || amount1In > 0 */\n      dup1\n      tag_221\n      jumpi\n      pop\n        /* \"contracts/KajuSwapPair.sol\":5974:5975  0 */\n      0x00\n        /* \"contracts/KajuSwapPair.sol\":5962:5971  amount1In */\n      dup2\n        /* \"contracts/KajuSwapPair.sol\":5962:5975  amount1In > 0 */\n      gt\n        /* \"contracts/KajuSwapPair.sol\":5945:5975  amount0In > 0 || amount1In > 0 */\n    tag_221:\n        /* \"contracts/KajuSwapPair.sol\":5924:6036  require(... */\n      tag_222\n      jumpi\n      mload(0x40)\n      0x08c379a000000000000000000000000000000000000000000000000000000000\n      dup2\n      mstore\n      0x04\n      add\n      tag_223\n      swap1\n      tag_224\n      jump\t// in\n    tag_223:\n      mload(0x40)\n      dup1\n      swap2\n      sub\n      swap1\n      revert\n    tag_222:\n        /* \"contracts/KajuSwapPair.sol\":6127:6151  uint256 balance0Adjusted */\n      0x00\n        /* \"contracts/KajuSwapPair.sol\":6187:6188  3 */\n      0x03\n        /* \"contracts/KajuSwapPair.sol\":6175:6184  amount0In */\n      dup4\n        /* \"contracts/KajuSwapPair.sol\":6175:6188  amount0In * 3 */\n      tag_225\n      swap2\n      swap1\n      tag_165\n      jump\t// in\n    tag_225:\n        /* \"contracts/KajuSwapPair.sol\":6166:6170  1000 */\n      0x03e8\n        /* \"contracts/KajuSwapPair.sol\":6155:6163  balance0 */\n      dup7\n        /* \"contracts/KajuSwapPair.sol\":6155:6170  balance0 * 1000 */\n      tag_226\n      swap2\n      swap1\n      tag_165\n      jump\t// in\n    tag_226:\n        /* \"contracts/KajuSwapPair.sol\":6154:6189  (balance0 * 1000) - (amount0In * 3) */\n      tag_227\n      swap2\n      swap1\n      tag_131\n      jump\t// in\n    tag_227:\n        /* \"contracts/KajuSwapPair.sol\":6127:6189  uint256 balance0Adjusted = (balance0 * 1000) - (amount0In * 3) */\n      swap1\n      pop\n        /* \"contracts/KajuSwapPair.sol\":6199:6223  uint256 balance1Adjusted */\n      0x00\n        /* \"contracts/KajuSwapPair.sol\":6259:6260  3 */\n      0x03\n        /* \"contracts/KajuSwapPair.sol\":6247:6256  amount1In */\n      dup4\n        /* \"contracts/KajuSwapPair.sol\":6247:6260  amount1In * 3 */\n      tag_228\n      swap2\n      swap1\n      tag_165\n      jump\t// in\n    tag_228:\n        /* \"contracts/KajuSwapPair.sol\":6238:6242  1000 */\n      0x03e8\n        /* \"contracts/KajuSwapPair.sol\":6227:6235  balance1 */\n      dup7\n        /* \"contracts/KajuSwapPair.sol\":6227:6242  balance1 * 1000 */\n      tag_229\n      swap2\n      swap1\n      tag_165\n      jump\t// in\n    tag_229:\n        /* \"contracts/KajuSwapPair.sol\":6226:6261  (balance1 * 1000) - (amount1In * 3) */\n      tag_230\n      swap2\n      swap1\n      tag_131\n      jump\t// in\n    tag_230:\n        /* \"contracts/KajuSwapPair.sol\":6199:6261  uint256 balance1Adjusted = (balance1 * 1000) - (amount1In * 3) */\n      swap1\n      pop\n        /* \"contracts/KajuSwapPair.sol\":6559:6566  1000**2 */\n      0x0f4240\n        /* \"contracts/KajuSwapPair.sol\":6545:6554  reserve1_ */\n      dup8\n        /* \"contracts/KajuSwapPair.sol\":6537:6555  uint256(reserve1_) */\n      0xffffffffffffffffffffffffffff\n      and\n        /* \"contracts/KajuSwapPair.sol\":6524:6533  reserve0_ */\n      dup10\n        /* \"contracts/KajuSwapPair.sol\":6516:6534  uint256(reserve0_) */\n      0xffffffffffffffffffffffffffff\n      and\n        /* \"contracts/KajuSwapPair.sol\":6516:6555  uint256(reserve0_) * uint256(reserve1_) */\n      tag_231\n      swap2\n      swap1\n      tag_165\n      jump\t// in\n    tag_231:\n        /* \"contracts/KajuSwapPair.sol\":6516:6567  uint256(reserve0_) * uint256(reserve1_) * (1000**2) */\n      tag_232\n      swap2\n      swap1\n      tag_165\n      jump\t// in\n    tag_232:\n        /* \"contracts/KajuSwapPair.sol\":6480:6496  balance1Adjusted */\n      dup2\n        /* \"contracts/KajuSwapPair.sol\":6461:6477  balance0Adjusted */\n      dup4\n        /* \"contracts/KajuSwapPair.sol\":6461:6496  balance0Adjusted * balance1Adjusted */\n      tag_233\n      swap2\n      swap1\n      tag_165\n      jump\t// in\n    tag_233:\n        /* \"contracts/KajuSwapPair.sol\":6461:6567  balance0Adjusted * balance1Adjusted >=... */\n      lt\n      iszero\n        /* \"contracts/KajuSwapPair.sol\":6440:6612  require(... */\n      tag_234\n      jumpi\n      mload(0x40)\n      0x08c379a000000000000000000000000000000000000000000000000000000000\n      dup2\n      mstore\n      0x04\n      add\n      tag_235\n      swap1\n      tag_236\n      jump\t// in\n    tag_235:\n      mload(0x40)\n      dup1\n      swap2\n      sub\n      swap1\n      revert\n    tag_234:\n        /* \"contracts/KajuSwapPair.sol\":6622:6671  _update(balance0, balance1, reserve0_, reserve1_) */\n      tag_237\n        /* \"contracts/KajuSwapPair.sol\":6630:6638  balance0 */\n      dup7\n        /* \"contracts/KajuSwapPair.sol\":6640:6648  balance1 */\n      dup7\n        /* \"contracts/KajuSwapPair.sol\":6650:6659  reserve0_ */\n      dup11\n        /* \"contracts/KajuSwapPair.sol\":6661:6670  reserve1_ */\n      dup11\n        /* \"contracts/KajuSwapPair.sol\":6622:6629  _update */\n      tag_183\n        /* \"contracts/KajuSwapPair.sol\":6622:6671  _update(balance0, balance1, reserve0_, reserve1_) */\n      jump\t// in\n    tag_237:\n        /* \"contracts/KajuSwapPair.sol\":6727:6729  to */\n      dup9\n        /* \"contracts/KajuSwapPair.sol\":6686:6730  Swap(msg.sender, amount0Out, amount1Out, to) */\n      0xffffffffffffffffffffffffffffffffffffffff\n      and\n        /* \"contracts/KajuSwapPair.sol\":6691:6701  msg.sender */\n      caller\n        /* \"contracts/KajuSwapPair.sol\":6686:6730  Swap(msg.sender, amount0Out, amount1Out, to) */\n      0xffffffffffffffffffffffffffffffffffffffff\n      and\n      0x2a9237ff5aa599ef4c5ee4b1142b53429d5755e2685fe6288b2e3320202115f5\n        /* \"contracts/KajuSwapPair.sol\":6703:6713  amount0Out */\n      dup14\n        /* \"contracts/KajuSwapPair.sol\":6715:6725  amount1Out */\n      dup14\n        /* \"contracts/KajuSwapPair.sol\":6686:6730  Swap(msg.sender, amount0Out, amount1Out, to) */\n      mload(0x40)\n      tag_238\n      swap3\n      swap2\n      swap1\n      tag_95\n      jump\t// in\n    tag_238:\n      mload(0x40)\n      dup1\n      swap2\n      sub\n      swap1\n      log3\n        /* \"contracts/KajuSwapPair.sol\":4694:6737  {... */\n      pop\n      pop\n      pop\n      pop\n      pop\n      pop\n      pop\n      pop\n        /* \"contracts/KajuSwapPair.sol\":1613:1618  false */\n      0x00\n        /* \"contracts/KajuSwapPair.sol\":1601:1610  isEntered */\n      0x0c\n      0x00\n        /* \"contracts/KajuSwapPair.sol\":1601:1618  isEntered = false */\n      0x0100\n      exp\n      dup2\n      sload\n      dup2\n      0xff\n      mul\n      not\n      and\n      swap1\n      dup4\n      iszero\n      iszero\n      mul\n      or\n      swap1\n      sstore\n      pop\n        /* \"contracts/KajuSwapPair.sol\":4586:6737  function swap(... */\n      pop\n      pop\n      pop\n      jump\t// out\n        /* \"@rari-capital/solmate/src/tokens/ERC20.sol\":1334:1378  mapping(address => uint256) public balanceOf */\n    tag_85:\n      mstore(0x20, 0x03)\n      dup1\n      0x00\n      mstore\n      keccak256(0x00, 0x40)\n      0x00\n      swap2\n      pop\n      swap1\n      pop\n      sload\n      dup2\n      jump\t// out\n        /* \"@rari-capital/solmate/src/tokens/ERC20.sol\":1748:1789  mapping(address => uint256) public nonces */\n    tag_89:\n      mstore(0x20, 0x05)\n      dup1\n      0x00\n      mstore\n      keccak256(0x00, 0x40)\n      0x00\n      swap2\n      pop\n      swap1\n      pop\n      sload\n      dup2\n      jump\t// out\n        /* \"contracts/KajuSwapPair.sol\":3526:4580  function burn(address to)... */\n    tag_93:\n        /* \"contracts/KajuSwapPair.sol\":3597:3612  uint256 amount0 */\n      0x00\n        /* \"contracts/KajuSwapPair.sol\":3614:3629  uint256 amount1 */\n      dup1\n        /* \"contracts/KajuSwapPair.sol\":1498:1507  isEntered */\n      0x0c\n      0x00\n      swap1\n      sload\n      swap1\n      0x0100\n      exp\n      swap1\n      div\n      0xff\n      and\n        /* \"contracts/KajuSwapPair.sol\":1497:1507  !isEntered */\n      iszero\n        /* \"contracts/KajuSwapPair.sol\":1489:1554  require(!isEntered, \"Kajuswap: You cannot Enter in the contract\") */\n      tag_240\n      jumpi\n      mload(0x40)\n      0x08c379a000000000000000000000000000000000000000000000000000000000\n      dup2\n      mstore\n      0x04\n      add\n      tag_241\n      swap1\n      tag_148\n      jump\t// in\n    tag_241:\n      mload(0x40)\n      dup1\n      swap2\n      sub\n      swap1\n      revert\n    tag_240:\n        /* \"contracts/KajuSwapPair.sol\":1576:1580  true */\n      0x01\n        /* \"contracts/KajuSwapPair.sol\":1564:1573  isEntered */\n      0x0c\n      0x00\n        /* \"contracts/KajuSwapPair.sol\":1564:1580  isEntered = true */\n      0x0100\n      exp\n      dup2\n      sload\n      dup2\n      0xff\n      mul\n      not\n      and\n      swap1\n      dup4\n      iszero\n      iszero\n      mul\n      or\n      swap1\n      sstore\n      pop\n        /* \"contracts/KajuSwapPair.sol\":3645:3661  uint256 balance0 */\n      0x00\n        /* \"contracts/KajuSwapPair.sol\":3671:3677  token0 */\n      0x07\n      0x00\n      swap1\n      sload\n      swap1\n      0x0100\n      exp\n      swap1\n      div\n      0xffffffffffffffffffffffffffffffffffffffff\n      and\n        /* \"contracts/KajuSwapPair.sol\":3664:3688  IERC20(token0).balanceOf */\n      0xffffffffffffffffffffffffffffffffffffffff\n      and\n      0x70a08231\n        /* \"contracts/KajuSwapPair.sol\":3697:3701  this */\n      address\n        /* \"contracts/KajuSwapPair.sol\":3664:3703  IERC20(token0).balanceOf(address(this)) */\n      mload(0x40)\n      dup3\n      0xffffffff\n      and\n      0xe0\n      shl\n      dup2\n      mstore\n      0x04\n      add\n      tag_243\n      swap2\n      swap1\n      tag_46\n      jump\t// in\n    tag_243:\n      0x20\n      mload(0x40)\n      dup1\n      dup4\n      sub\n      dup2\n      dup7\n      gas\n      staticcall\n      iszero\n      dup1\n      iszero\n      tag_245\n      jumpi\n      returndatasize\n      0x00\n      dup1\n      returndatacopy\n      revert(0x00, returndatasize)\n    tag_245:\n      pop\n      pop\n      pop\n      pop\n      mload(0x40)\n      returndatasize\n      not(0x1f)\n      0x1f\n      dup3\n      add\n      and\n      dup3\n      add\n      dup1\n      0x40\n      mstore\n      pop\n      dup2\n      add\n      swap1\n      tag_246\n      swap2\n      swap1\n      tag_155\n      jump\t// in\n    tag_246:\n        /* \"contracts/KajuSwapPair.sol\":3645:3703  uint256 balance0 = IERC20(token0).balanceOf(address(this)) */\n      swap1\n      pop\n        /* \"contracts/KajuSwapPair.sol\":3713:3729  uint256 balance1 */\n      0x00\n        /* \"contracts/KajuSwapPair.sol\":3739:3745  token1 */\n      0x08\n      0x00\n      swap1\n      sload\n      swap1\n      0x0100\n      exp\n      swap1\n      div\n      0xffffffffffffffffffffffffffffffffffffffff\n      and\n        /* \"contracts/KajuSwapPair.sol\":3732:3756  IERC20(token1).balanceOf */\n      0xffffffffffffffffffffffffffffffffffffffff\n      and\n      0x70a08231\n        /* \"contracts/KajuSwapPair.sol\":3765:3769  this */\n      address\n        /* \"contracts/KajuSwapPair.sol\":3732:3771  IERC20(token1).balanceOf(address(this)) */\n      mload(0x40)\n      dup3\n      0xffffffff\n      and\n      0xe0\n      shl\n      dup2\n      mstore\n      0x04\n      add\n      tag_247\n      swap2\n      swap1\n      tag_46\n      jump\t// in\n    tag_247:\n      0x20\n      mload(0x40)\n      dup1\n      dup4\n      sub\n      dup2\n      dup7\n      gas\n      staticcall\n      iszero\n      dup1\n      iszero\n      tag_249\n      jumpi\n      returndatasize\n      0x00\n      dup1\n      returndatacopy\n      revert(0x00, returndatasize)\n    tag_249:\n      pop\n      pop\n      pop\n      pop\n      mload(0x40)\n      returndatasize\n      not(0x1f)\n      0x1f\n      dup3\n      add\n      and\n      dup3\n      add\n      dup1\n      0x40\n      mstore\n      pop\n      dup2\n      add\n      swap1\n      tag_250\n      swap2\n      swap1\n      tag_155\n      jump\t// in\n    tag_250:\n        /* \"contracts/KajuSwapPair.sol\":3713:3771  uint256 balance1 = IERC20(token1).balanceOf(address(this)) */\n      swap1\n      pop\n        /* \"contracts/KajuSwapPair.sol\":3781:3798  uint256 liquidity */\n      0x00\n        /* \"contracts/KajuSwapPair.sol\":3801:3810  balanceOf */\n      0x03\n        /* \"contracts/KajuSwapPair.sol\":3801:3825  balanceOf[address(this)] */\n      0x00\n        /* \"contracts/KajuSwapPair.sol\":3819:3823  this */\n      address\n        /* \"contracts/KajuSwapPair.sol\":3801:3825  balanceOf[address(this)] */\n      0xffffffffffffffffffffffffffffffffffffffff\n      and\n      0xffffffffffffffffffffffffffffffffffffffff\n      and\n      dup2\n      mstore\n      0x20\n      add\n      swap1\n      dup2\n      mstore\n      0x20\n      add\n      0x00\n      keccak256\n      sload\n        /* \"contracts/KajuSwapPair.sol\":3781:3825  uint256 liquidity = balanceOf[address(this)] */\n      swap1\n      pop\n        /* \"contracts/KajuSwapPair.sol\":3871:3882  totalSupply */\n      sload(0x02)\n        /* \"contracts/KajuSwapPair.sol\":3859:3867  balance0 */\n      dup4\n        /* \"contracts/KajuSwapPair.sol\":3847:3856  liquidity */\n      dup3\n        /* \"contracts/KajuSwapPair.sol\":3847:3867  liquidity * balance0 */\n      tag_251\n      swap2\n      swap1\n      tag_165\n      jump\t// in\n    tag_251:\n        /* \"contracts/KajuSwapPair.sol\":3846:3882  (liquidity * balance0) / totalSupply */\n      tag_252\n      swap2\n      swap1\n      tag_174\n      jump\t// in\n    tag_252:\n        /* \"contracts/KajuSwapPair.sol\":3836:3882  amount0 = (liquidity * balance0) / totalSupply */\n      swap5\n      pop\n        /* \"contracts/KajuSwapPair.sol\":3927:3938  totalSupply */\n      sload(0x02)\n        /* \"contracts/KajuSwapPair.sol\":3915:3923  balance1 */\n      dup3\n        /* \"contracts/KajuSwapPair.sol\":3903:3912  liquidity */\n      dup3\n        /* \"contracts/KajuSwapPair.sol\":3903:3923  liquidity * balance1 */\n      tag_253\n      swap2\n      swap1\n      tag_165\n      jump\t// in\n    tag_253:\n        /* \"contracts/KajuSwapPair.sol\":3902:3938  (liquidity * balance1) / totalSupply */\n      tag_254\n      swap2\n      swap1\n      tag_174\n      jump\t// in\n    tag_254:\n        /* \"contracts/KajuSwapPair.sol\":3892:3938  amount1 = (liquidity * balance1) / totalSupply */\n      swap4\n      pop\n        /* \"contracts/KajuSwapPair.sol\":4063:4064  0 */\n      0x00\n        /* \"contracts/KajuSwapPair.sol\":4053:4060  amount0 */\n      dup6\n        /* \"contracts/KajuSwapPair.sol\":4053:4064  amount0 > 0 */\n      gt\n        /* \"contracts/KajuSwapPair.sol\":4053:4079  amount0 > 0 && amount1 > 0 */\n      dup1\n      iszero\n      tag_255\n      jumpi\n      pop\n        /* \"contracts/KajuSwapPair.sol\":4078:4079  0 */\n      0x00\n        /* \"contracts/KajuSwapPair.sol\":4068:4075  amount1 */\n      dup5\n        /* \"contracts/KajuSwapPair.sol\":4068:4079  amount1 > 0 */\n      gt\n        /* \"contracts/KajuSwapPair.sol\":4053:4079  amount0 > 0 && amount1 > 0 */\n    tag_255:\n        /* \"contracts/KajuSwapPair.sol\":4032:4144  require(... */\n      tag_256\n      jumpi\n      mload(0x40)\n      0x08c379a000000000000000000000000000000000000000000000000000000000\n      dup2\n      mstore\n      0x04\n      add\n      tag_257\n      swap1\n      tag_258\n      jump\t// in\n    tag_257:\n      mload(0x40)\n      dup1\n      swap2\n      sub\n      swap1\n      revert\n    tag_256:\n        /* \"contracts/KajuSwapPair.sol\":4155:4186  _burn(address(this), liquidity) */\n      tag_259\n        /* \"contracts/KajuSwapPair.sol\":4169:4173  this */\n      address\n        /* \"contracts/KajuSwapPair.sol\":4176:4185  liquidity */\n      dup3\n        /* \"contracts/KajuSwapPair.sol\":4155:4160  _burn */\n      tag_260\n        /* \"contracts/KajuSwapPair.sol\":4155:4186  _burn(address(this), liquidity) */\n      jump\t// in\n    tag_259:\n        /* \"contracts/KajuSwapPair.sol\":4196:4230  _safeTransfer(token0, to, amount0) */\n      tag_261\n        /* \"contracts/KajuSwapPair.sol\":4210:4216  token0 */\n      0x07\n      0x00\n      swap1\n      sload\n      swap1\n      0x0100\n      exp\n      swap1\n      div\n      0xffffffffffffffffffffffffffffffffffffffff\n      and\n        /* \"contracts/KajuSwapPair.sol\":4218:4220  to */\n      dup8\n        /* \"contracts/KajuSwapPair.sol\":4222:4229  amount0 */\n      dup8\n        /* \"contracts/KajuSwapPair.sol\":4196:4209  _safeTransfer */\n      tag_200\n        /* \"contracts/KajuSwapPair.sol\":4196:4230  _safeTransfer(token0, to, amount0) */\n      jump\t// in\n    tag_261:\n        /* \"contracts/KajuSwapPair.sol\":4240:4274  _safeTransfer(token1, to, amount1) */\n      tag_262\n        /* \"contracts/KajuSwapPair.sol\":4254:4260  token1 */\n      0x08\n      0x00\n      swap1\n      sload\n      swap1\n      0x0100\n      exp\n      swap1\n      div\n      0xffffffffffffffffffffffffffffffffffffffff\n      and\n        /* \"contracts/KajuSwapPair.sol\":4262:4264  to */\n      dup8\n        /* \"contracts/KajuSwapPair.sol\":4266:4273  amount1 */\n      dup7\n        /* \"contracts/KajuSwapPair.sol\":4240:4253  _safeTransfer */\n      tag_200\n        /* \"contracts/KajuSwapPair.sol\":4240:4274  _safeTransfer(token1, to, amount1) */\n      jump\t// in\n    tag_262:\n        /* \"contracts/KajuSwapPair.sol\":4302:4308  token0 */\n      0x07\n      0x00\n      swap1\n      sload\n      swap1\n      0x0100\n      exp\n      swap1\n      div\n      0xffffffffffffffffffffffffffffffffffffffff\n      and\n        /* \"contracts/KajuSwapPair.sol\":4295:4319  IERC20(token0).balanceOf */\n      0xffffffffffffffffffffffffffffffffffffffff\n      and\n      0x70a08231\n        /* \"contracts/KajuSwapPair.sol\":4328:4332  this */\n      address\n        /* \"contracts/KajuSwapPair.sol\":4295:4334  IERC20(token0).balanceOf(address(this)) */\n      mload(0x40)\n      dup3\n      0xffffffff\n      and\n      0xe0\n      shl\n      dup2\n      mstore\n      0x04\n      add\n      tag_263\n      swap2\n      swap1\n      tag_46\n      jump\t// in\n    tag_263:\n      0x20\n      mload(0x40)\n      dup1\n      dup4\n      sub\n      dup2\n      dup7\n      gas\n      staticcall\n      iszero\n      dup1\n      iszero\n      tag_265\n      jumpi\n      returndatasize\n      0x00\n      dup1\n      returndatacopy\n      revert(0x00, returndatasize)\n    tag_265:\n      pop\n      pop\n      pop\n      pop\n      mload(0x40)\n      returndatasize\n      not(0x1f)\n      0x1f\n      dup3\n      add\n      and\n      dup3\n      add\n      dup1\n      0x40\n      mstore\n      pop\n      dup2\n      add\n      swap1\n      tag_266\n      swap2\n      swap1\n      tag_155\n      jump\t// in\n    tag_266:\n        /* \"contracts/KajuSwapPair.sol\":4284:4334  balance0 = IERC20(token0).balanceOf(address(this)) */\n      swap3\n      pop\n        /* \"contracts/KajuSwapPair.sol\":4362:4368  token1 */\n      0x08\n      0x00\n      swap1\n      sload\n      swap1\n      0x0100\n      exp\n      swap1\n      div\n      0xffffffffffffffffffffffffffffffffffffffff\n      and\n        /* \"contracts/KajuSwapPair.sol\":4355:4379  IERC20(token1).balanceOf */\n      0xffffffffffffffffffffffffffffffffffffffff\n      and\n      0x70a08231\n        /* \"contracts/KajuSwapPair.sol\":4388:4392  this */\n      address\n        /* \"contracts/KajuSwapPair.sol\":4355:4394  IERC20(token1).balanceOf(address(this)) */\n      mload(0x40)\n      dup3\n      0xffffffff\n      and\n      0xe0\n      shl\n      dup2\n      mstore\n      0x04\n      add\n      tag_267\n      swap2\n      swap1\n      tag_46\n      jump\t// in\n    tag_267:\n      0x20\n      mload(0x40)\n      dup1\n      dup4\n      sub\n      dup2\n      dup7\n      gas\n      staticcall\n      iszero\n      dup1\n      iszero\n      tag_269\n      jumpi\n      returndatasize\n      0x00\n      dup1\n      returndatacopy\n      revert(0x00, returndatasize)\n    tag_269:\n      pop\n      pop\n      pop\n      pop\n      mload(0x40)\n      returndatasize\n      not(0x1f)\n      0x1f\n      dup3\n      add\n      and\n      dup3\n      add\n      dup1\n      0x40\n      mstore\n      pop\n      dup2\n      add\n      swap1\n      tag_270\n      swap2\n      swap1\n      tag_155\n      jump\t// in\n    tag_270:\n        /* \"contracts/KajuSwapPair.sol\":4344:4394  balance1 = IERC20(token1).balanceOf(address(this)) */\n      swap2\n      pop\n        /* \"contracts/KajuSwapPair.sol\":4405:4422  uint112 reserve0_ */\n      0x00\n        /* \"contracts/KajuSwapPair.sol\":4424:4441  uint112 reserve1_ */\n      dup1\n        /* \"contracts/KajuSwapPair.sol\":4447:4460  getReserves() */\n      tag_271\n        /* \"contracts/KajuSwapPair.sol\":4447:4458  getReserves */\n      tag_34\n        /* \"contracts/KajuSwapPair.sol\":4447:4460  getReserves() */\n      jump\t// in\n    tag_271:\n        /* \"contracts/KajuSwapPair.sol\":4404:4460  (uint112 reserve0_, uint112 reserve1_, ) = getReserves() */\n      pop\n      swap2\n      pop\n      swap2\n      pop\n        /* \"contracts/KajuSwapPair.sol\":4470:4519  _update(balance0, balance1, reserve0_, reserve1_) */\n      tag_272\n        /* \"contracts/KajuSwapPair.sol\":4478:4486  balance0 */\n      dup6\n        /* \"contracts/KajuSwapPair.sol\":4488:4496  balance1 */\n      dup6\n        /* \"contracts/KajuSwapPair.sol\":4498:4507  reserve0_ */\n      dup5\n        /* \"contracts/KajuSwapPair.sol\":4509:4518  reserve1_ */\n      dup5\n        /* \"contracts/KajuSwapPair.sol\":4470:4477  _update */\n      tag_183\n        /* \"contracts/KajuSwapPair.sol\":4470:4519  _update(balance0, balance1, reserve0_, reserve1_) */\n      jump\t// in\n    tag_272:\n        /* \"contracts/KajuSwapPair.sol\":4540:4550  msg.sender */\n      caller\n        /* \"contracts/KajuSwapPair.sol\":4535:4573  Burn(msg.sender, amount0, amount1, to) */\n      0xffffffffffffffffffffffffffffffffffffffff\n      and\n      0xdccd412f0b1252819cb1fd330b93224ca42612892bb3f4f789976e6d81936496\n        /* \"contracts/KajuSwapPair.sol\":4552:4559  amount0 */\n      dup9\n        /* \"contracts/KajuSwapPair.sol\":4561:4568  amount1 */\n      dup9\n        /* \"contracts/KajuSwapPair.sol\":4570:4572  to */\n      dup12\n        /* \"contracts/KajuSwapPair.sol\":4535:4573  Burn(msg.sender, amount0, amount1, to) */\n      mload(0x40)\n      tag_273\n      swap4\n      swap3\n      swap2\n      swap1\n      tag_274\n      jump\t// in\n    tag_273:\n      mload(0x40)\n      dup1\n      swap2\n      sub\n      swap1\n      log2\n        /* \"contracts/KajuSwapPair.sol\":3635:4580  {... */\n      pop\n      pop\n      pop\n      pop\n      pop\n        /* \"contracts/KajuSwapPair.sol\":1613:1618  false */\n      0x00\n        /* \"contracts/KajuSwapPair.sol\":1601:1610  isEntered */\n      0x0c\n      0x00\n        /* \"contracts/KajuSwapPair.sol\":1601:1618  isEntered = false */\n      0x0100\n      exp\n      dup2\n      sload\n      dup2\n      0xff\n      mul\n      not\n      and\n      swap1\n      dup4\n      iszero\n      iszero\n      mul\n      or\n      swap1\n      sstore\n      pop\n        /* \"contracts/KajuSwapPair.sol\":3526:4580  function burn(address to)... */\n      swap2\n      pop\n      swap2\n      jump\t// out\n        /* \"@rari-capital/solmate/src/tokens/ERC20.sol\":1053:1073  string public symbol */\n    tag_97:\n      0x01\n      dup1\n      sload\n      tag_275\n      swap1\n      tag_120\n      jump\t// in\n    tag_275:\n      dup1\n      0x1f\n      add\n      0x20\n      dup1\n      swap2\n      div\n      mul\n      0x20\n      add\n      mload(0x40)\n      swap1\n      dup2\n      add\n      0x40\n      mstore\n      dup1\n      swap3\n      swap2\n      swap1\n      dup2\n      dup2\n      mstore\n      0x20\n      add\n      dup3\n      dup1\n      sload\n      tag_276\n      swap1\n      tag_120\n      jump\t// in\n    tag_276:\n      dup1\n      iszero\n      tag_277\n      jumpi\n      dup1\n      0x1f\n      lt\n      tag_278\n      jumpi\n      0x0100\n      dup1\n      dup4\n      sload\n      div\n      mul\n      dup4\n      mstore\n      swap2\n      0x20\n      add\n      swap2\n      jump(tag_277)\n    tag_278:\n      dup3\n      add\n      swap2\n      swap1\n      0x00\n      mstore\n      keccak256(0x00, 0x20)\n      swap1\n    tag_279:\n      dup2\n      sload\n      dup2\n      mstore\n      swap1\n      0x01\n      add\n      swap1\n      0x20\n      add\n      dup1\n      dup4\n      gt\n      tag_279\n      jumpi\n      dup3\n      swap1\n      sub\n      0x1f\n      and\n      dup3\n      add\n      swap2\n    tag_277:\n      pop\n      pop\n      pop\n      pop\n      pop\n      dup2\n      jump\t// out\n        /* \"@rari-capital/solmate/src/tokens/ERC20.sol\":2675:3048  function transfer(address to, uint256 amount) public virtual returns (bool) {... */\n    tag_101:\n        /* \"@rari-capital/solmate/src/tokens/ERC20.sol\":2745:2749  bool */\n      0x00\n        /* \"@rari-capital/solmate/src/tokens/ERC20.sol\":2786:2792  amount */\n      dup2\n        /* \"@rari-capital/solmate/src/tokens/ERC20.sol\":2761:2770  balanceOf */\n      0x03\n        /* \"@rari-capital/solmate/src/tokens/ERC20.sol\":2761:2782  balanceOf[msg.sender] */\n      0x00\n        /* \"@rari-capital/solmate/src/tokens/ERC20.sol\":2771:2781  msg.sender */\n      caller\n        /* \"@rari-capital/solmate/src/tokens/ERC20.sol\":2761:2782  balanceOf[msg.sender] */\n      0xffffffffffffffffffffffffffffffffffffffff\n      and\n      0xffffffffffffffffffffffffffffffffffffffff\n      and\n      dup2\n      mstore\n      0x20\n      add\n      swap1\n      dup2\n      mstore\n      0x20\n      add\n      0x00\n      keccak256\n      0x00\n        /* \"@rari-capital/solmate/src/tokens/ERC20.sol\":2761:2792  balanceOf[msg.sender] -= amount */\n      dup3\n      dup3\n      sload\n      tag_281\n      swap2\n      swap1\n      tag_131\n      jump\t// in\n    tag_281:\n      swap3\n      pop\n      pop\n      dup2\n      swap1\n      sstore\n      pop\n        /* \"@rari-capital/solmate/src/tokens/ERC20.sol\":2955:2961  amount */\n      dup2\n        /* \"@rari-capital/solmate/src/tokens/ERC20.sol\":2938:2947  balanceOf */\n      0x03\n        /* \"@rari-capital/solmate/src/tokens/ERC20.sol\":2938:2951  balanceOf[to] */\n      0x00\n        /* \"@rari-capital/solmate/src/tokens/ERC20.sol\":2948:2950  to */\n      dup6\n        /* \"@rari-capital/solmate/src/tokens/ERC20.sol\":2938:2951  balanceOf[to] */\n      0xffffffffffffffffffffffffffffffffffffffff\n      and\n      0xffffffffffffffffffffffffffffffffffffffff\n      and\n      dup2\n      mstore\n      0x20\n      add\n      swap1\n      dup2\n      mstore\n      0x20\n      add\n      0x00\n      keccak256\n      0x00\n        /* \"@rari-capital/solmate/src/tokens/ERC20.sol\":2938:2961  balanceOf[to] += amount */\n      dup3\n      dup3\n      sload\n      add\n      swap3\n      pop\n      pop\n      dup2\n      swap1\n      sstore\n      pop\n        /* \"@rari-capital/solmate/src/tokens/ERC20.sol\":3008:3010  to */\n      dup3\n        /* \"@rari-capital/solmate/src/tokens/ERC20.sol\":2987:3019  Transfer(msg.sender, to, amount) */\n      0xffffffffffffffffffffffffffffffffffffffff\n      and\n        /* \"@rari-capital/solmate/src/tokens/ERC20.sol\":2996:3006  msg.sender */\n      caller\n        /* \"@rari-capital/solmate/src/tokens/ERC20.sol\":2987:3019  Transfer(msg.sender, to, amount) */\n      0xffffffffffffffffffffffffffffffffffffffff\n      and\n      0xddf252ad1be2c89b69c2b068fc378daa952ba7f163c4a11628f55a4df523b3ef\n        /* \"@rari-capital/solmate/src/tokens/ERC20.sol\":3012:3018  amount */\n      dup5\n        /* \"@rari-capital/solmate/src/tokens/ERC20.sol\":2987:3019  Transfer(msg.sender, to, amount) */\n      mload(0x40)\n      tag_282\n      swap2\n      swap1\n      tag_50\n      jump\t// in\n    tag_282:\n      mload(0x40)\n      dup1\n      swap2\n      sub\n      swap1\n      log3\n        /* \"@rari-capital/solmate/src/tokens/ERC20.sol\":3037:3041  true */\n      0x01\n        /* \"@rari-capital/solmate/src/tokens/ERC20.sol\":3030:3041  return true */\n      swap1\n      pop\n        /* \"@rari-capital/solmate/src/tokens/ERC20.sol\":2675:3048  function transfer(address to, uint256 amount) public virtual returns (bool) {... */\n      swap3\n      swap2\n      pop\n      pop\n      jump\t// out\n        /* \"contracts/KajuSwapPair.sol\":722:744  address public factory */\n    tag_104:\n      0x06\n      0x00\n      swap1\n      sload\n      swap1\n      0x0100\n      exp\n      swap1\n      div\n      0xffffffffffffffffffffffffffffffffffffffff\n      and\n      dup2\n      jump\t// out\n        /* \"contracts/KajuSwapPair.sol\":777:798  address public token1 */\n    tag_107:\n      0x08\n      0x00\n      swap1\n      sload\n      swap1\n      0x0100\n      exp\n      swap1\n      div\n      0xffffffffffffffffffffffffffffffffffffffff\n      and\n      dup2\n      jump\t// out\n        /* \"@rari-capital/solmate/src/tokens/ERC20.sol\":3835:5318  function permit(... */\n    tag_112:\n        /* \"@rari-capital/solmate/src/tokens/ERC20.sol\":4054:4069  block.timestamp */\n      timestamp\n        /* \"@rari-capital/solmate/src/tokens/ERC20.sol\":4042:4050  deadline */\n      dup5\n        /* \"@rari-capital/solmate/src/tokens/ERC20.sol\":4042:4069  deadline >= block.timestamp */\n      lt\n      iszero\n        /* \"@rari-capital/solmate/src/tokens/ERC20.sol\":4034:4097  require(deadline >= block.timestamp, \"PERMIT_DEADLINE_EXPIRED\") */\n      tag_284\n      jumpi\n      mload(0x40)\n      0x08c379a000000000000000000000000000000000000000000000000000000000\n      dup2\n      mstore\n      0x04\n      add\n      tag_285\n      swap1\n      tag_286\n      jump\t// in\n    tag_285:\n      mload(0x40)\n      dup1\n      swap2\n      sub\n      swap1\n      revert\n    tag_284:\n        /* \"@rari-capital/solmate/src/tokens/ERC20.sol\":4262:4286  address recoveredAddress */\n      0x00\n        /* \"@rari-capital/solmate/src/tokens/ERC20.sol\":4289:5094  ecrecover(... */\n      0x01\n        /* \"@rari-capital/solmate/src/tokens/ERC20.sol\":4425:4443  DOMAIN_SEPARATOR() */\n      tag_287\n        /* \"@rari-capital/solmate/src/tokens/ERC20.sol\":4425:4441  DOMAIN_SEPARATOR */\n      tag_61\n        /* \"@rari-capital/solmate/src/tokens/ERC20.sol\":4425:4443  DOMAIN_SEPARATOR() */\n      jump\t// in\n    tag_287:\n        /* \"@rari-capital/solmate/src/tokens/ERC20.sol\":4552:4717  keccak256(... */\n      0x6e71edae12b1b97f4d1f60370fef10105fa2faae0126114a169c64845d6126c9\n        /* \"@rari-capital/solmate/src/tokens/ERC20.sol\":4751:4756  owner */\n      dup11\n        /* \"@rari-capital/solmate/src/tokens/ERC20.sol\":4790:4797  spender */\n      dup11\n        /* \"@rari-capital/solmate/src/tokens/ERC20.sol\":4831:4836  value */\n      dup11\n        /* \"@rari-capital/solmate/src/tokens/ERC20.sol\":4870:4876  nonces */\n      0x05\n        /* \"@rari-capital/solmate/src/tokens/ERC20.sol\":4870:4883  nonces[owner] */\n      0x00\n        /* \"@rari-capital/solmate/src/tokens/ERC20.sol\":4877:4882  owner */\n      dup16\n        /* \"@rari-capital/solmate/src/tokens/ERC20.sol\":4870:4883  nonces[owner] */\n      0xffffffffffffffffffffffffffffffffffffffff\n      and\n      0xffffffffffffffffffffffffffffffffffffffff\n      and\n      dup2\n      mstore\n      0x20\n      add\n      swap1\n      dup2\n      mstore\n      0x20\n      add\n      0x00\n      keccak256\n      0x00\n        /* \"@rari-capital/solmate/src/tokens/ERC20.sol\":4870:4885  nonces[owner]++ */\n      dup2\n      sload\n      dup1\n      swap3\n      swap2\n      swap1\n      0x01\n      add\n      swap2\n      swap1\n      pop\n      sstore\n        /* \"@rari-capital/solmate/src/tokens/ERC20.sol\":4919:4927  deadline */\n      dup12\n        /* \"@rari-capital/solmate/src/tokens/ERC20.sol\":4508:4957  abi.encode(... */\n      add(0x20, mload(0x40))\n      tag_288\n      swap7\n      swap6\n      swap5\n      swap4\n      swap3\n      swap2\n      swap1\n      tag_289\n      jump\t// in\n    tag_288:\n      mload(0x40)\n      0x20\n      dup2\n      dup4\n      sub\n      sub\n      dup2\n      mstore\n      swap1\n      0x40\n      mstore\n        /* \"@rari-capital/solmate/src/tokens/ERC20.sol\":4469:4983  keccak256(... */\n      dup1\n      mload\n      swap1\n      0x20\n      add\n      keccak256\n        /* \"@rari-capital/solmate/src/tokens/ERC20.sol\":4347:5005  abi.encodePacked(... */\n      add(0x20, mload(0x40))\n      tag_290\n      swap3\n      swap2\n      swap1\n      tag_291\n      jump\t// in\n    tag_290:\n      mload(0x40)\n      0x20\n      dup2\n      dup4\n      sub\n      sub\n      dup2\n      mstore\n      swap1\n      0x40\n      mstore\n        /* \"@rari-capital/solmate/src/tokens/ERC20.sol\":4316:5023  keccak256(... */\n      dup1\n      mload\n      swap1\n      0x20\n      add\n      keccak256\n        /* \"@rari-capital/solmate/src/tokens/ERC20.sol\":5041:5042  v */\n      dup6\n        /* \"@rari-capital/solmate/src/tokens/ERC20.sol\":5060:5061  r */\n      dup6\n        /* \"@rari-capital/solmate/src/tokens/ERC20.sol\":5079:5080  s */\n      dup6\n        /* \"@rari-capital/solmate/src/tokens/ERC20.sol\":4289:5094  ecrecover(... */\n      mload(0x40)\n      0x00\n      dup2\n      mstore\n      0x20\n      add\n      0x40\n      mstore\n      mload(0x40)\n      tag_292\n      swap5\n      swap4\n      swap3\n      swap2\n      swap1\n      tag_293\n      jump\t// in\n    tag_292:\n      0x20\n      mload(0x40)\n      0x20\n      dup2\n      sub\n      swap1\n      dup1\n      dup5\n      sub\n      swap1\n      dup6\n      gas\n      staticcall\n      iszero\n      dup1\n      iszero\n      tag_295\n      jumpi\n      returndatasize\n      0x00\n      dup1\n      returndatacopy\n      revert(0x00, returndatasize)\n    tag_295:\n      pop\n      pop\n      pop\n      mload(sub(mload(0x40), 0x20))\n        /* \"@rari-capital/solmate/src/tokens/ERC20.sol\":4262:5094  address recoveredAddress = ecrecover(... */\n      swap1\n      pop\n        /* \"@rari-capital/solmate/src/tokens/ERC20.sol\":5145:5146  0 */\n      0x00\n        /* \"@rari-capital/solmate/src/tokens/ERC20.sol\":5117:5147  recoveredAddress != address(0) */\n      0xffffffffffffffffffffffffffffffffffffffff\n      and\n        /* \"@rari-capital/solmate/src/tokens/ERC20.sol\":5117:5133  recoveredAddress */\n      dup2\n        /* \"@rari-capital/solmate/src/tokens/ERC20.sol\":5117:5147  recoveredAddress != address(0) */\n      0xffffffffffffffffffffffffffffffffffffffff\n      and\n      eq\n      iszero\n        /* \"@rari-capital/solmate/src/tokens/ERC20.sol\":5117:5176  recoveredAddress != address(0) && recoveredAddress == owner */\n      dup1\n      iszero\n      tag_296\n      jumpi\n      pop\n        /* \"@rari-capital/solmate/src/tokens/ERC20.sol\":5171:5176  owner */\n      dup8\n        /* \"@rari-capital/solmate/src/tokens/ERC20.sol\":5151:5176  recoveredAddress == owner */\n      0xffffffffffffffffffffffffffffffffffffffff\n      and\n        /* \"@rari-capital/solmate/src/tokens/ERC20.sol\":5151:5167  recoveredAddress */\n      dup2\n        /* \"@rari-capital/solmate/src/tokens/ERC20.sol\":5151:5176  recoveredAddress == owner */\n      0xffffffffffffffffffffffffffffffffffffffff\n      and\n      eq\n        /* \"@rari-capital/solmate/src/tokens/ERC20.sol\":5117:5176  recoveredAddress != address(0) && recoveredAddress == owner */\n    tag_296:\n        /* \"@rari-capital/solmate/src/tokens/ERC20.sol\":5109:5195  require(recoveredAddress != address(0) && recoveredAddress == owner, \"INVALID_SIGNER\") */\n      tag_297\n      jumpi\n      mload(0x40)\n      0x08c379a000000000000000000000000000000000000000000000000000000000\n      dup2\n      mstore\n      0x04\n      add\n      tag_298\n      swap1\n      tag_299\n      jump\t// in\n    tag_298:\n      mload(0x40)\n      dup1\n      swap2\n      sub\n      swap1\n      revert\n    tag_297:\n        /* \"@rari-capital/solmate/src/tokens/ERC20.sol\":5249:5254  value */\n      dup6\n        /* \"@rari-capital/solmate/src/tokens/ERC20.sol\":5210:5219  allowance */\n      0x04\n        /* \"@rari-capital/solmate/src/tokens/ERC20.sol\":5210:5237  allowance[recoveredAddress] */\n      0x00\n        /* \"@rari-capital/solmate/src/tokens/ERC20.sol\":5220:5236  recoveredAddress */\n      dup4\n        /* \"@rari-capital/solmate/src/tokens/ERC20.sol\":5210:5237  allowance[recoveredAddress] */\n      0xffffffffffffffffffffffffffffffffffffffff\n      and\n      0xffffffffffffffffffffffffffffffffffffffff\n      and\n      dup2\n      mstore\n      0x20\n      add\n      swap1\n      dup2\n      mstore\n      0x20\n      add\n      0x00\n      keccak256\n        /* \"@rari-capital/solmate/src/tokens/ERC20.sol\":5210:5246  allowance[recoveredAddress][spender] */\n      0x00\n        /* \"@rari-capital/solmate/src/tokens/ERC20.sol\":5238:5245  spender */\n      dup10\n        /* \"@rari-capital/solmate/src/tokens/ERC20.sol\":5210:5246  allowance[recoveredAddress][spender] */\n      0xffffffffffffffffffffffffffffffffffffffff\n      and\n      0xffffffffffffffffffffffffffffffffffffffff\n      and\n      dup2\n      mstore\n      0x20\n      add\n      swap1\n      dup2\n      mstore\n      0x20\n      add\n      0x00\n      keccak256\n        /* \"@rari-capital/solmate/src/tokens/ERC20.sol\":5210:5254  allowance[recoveredAddress][spender] = value */\n      dup2\n      swap1\n      sstore\n      pop\n        /* \"@rari-capital/solmate/src/tokens/ERC20.sol\":4238:5265  unchecked {... */\n      pop\n        /* \"@rari-capital/solmate/src/tokens/ERC20.sol\":5296:5303  spender */\n      dup6\n        /* \"@rari-capital/solmate/src/tokens/ERC20.sol\":5280:5311  Approval(owner, spender, value) */\n      0xffffffffffffffffffffffffffffffffffffffff\n      and\n        /* \"@rari-capital/solmate/src/tokens/ERC20.sol\":5289:5294  owner */\n      dup8\n        /* \"@rari-capital/solmate/src/tokens/ERC20.sol\":5280:5311  Approval(owner, spender, value) */\n      0xffffffffffffffffffffffffffffffffffffffff\n      and\n      0x8c5be1e5ebec7d5bd14f71427d1e84f3dd0314c0f7b2291e5b200ac8c7c3b925\n        /* \"@rari-capital/solmate/src/tokens/ERC20.sol\":5305:5310  value */\n      dup8\n        /* \"@rari-capital/solmate/src/tokens/ERC20.sol\":5280:5311  Approval(owner, spender, value) */\n      mload(0x40)\n      tag_300\n      swap2\n      swap1\n      tag_50\n      jump\t// in\n    tag_300:\n      mload(0x40)\n      dup1\n      swap2\n      sub\n      swap1\n      log3\n        /* \"@rari-capital/solmate/src/tokens/ERC20.sol\":3835:5318  function permit(... */\n      pop\n      pop\n      pop\n      pop\n      pop\n      pop\n      pop\n      jump\t// out\n        /* \"@rari-capital/solmate/src/tokens/ERC20.sol\":1385:1449  mapping(address => mapping(address => uint256)) public allowance */\n    tag_115:\n      mstore(0x20, 0x04)\n      dup2\n      0x00\n      mstore\n      mstore(0x20, keccak256(0x00, 0x40))\n      dup1\n      0x00\n      mstore\n      keccak256(0x00, 0x40)\n      0x00\n      swap2\n      pop\n      swap2\n      pop\n      pop\n      sload\n      dup2\n      jump\t// out\n        /* \"contracts/KajuSwapPair.sol\":6743:7023  function sync() public lock {... */\n    tag_118:\n        /* \"contracts/KajuSwapPair.sol\":1498:1507  isEntered */\n      0x0c\n      0x00\n      swap1\n      sload\n      swap1\n      0x0100\n      exp\n      swap1\n      div\n      0xff\n      and\n        /* \"contracts/KajuSwapPair.sol\":1497:1507  !isEntered */\n      iszero\n        /* \"contracts/KajuSwapPair.sol\":1489:1554  require(!isEntered, \"Kajuswap: You cannot Enter in the contract\") */\n      tag_302\n      jumpi\n      mload(0x40)\n      0x08c379a000000000000000000000000000000000000000000000000000000000\n      dup2\n      mstore\n      0x04\n      add\n      tag_303\n      swap1\n      tag_148\n      jump\t// in\n    tag_303:\n      mload(0x40)\n      dup1\n      swap2\n      sub\n      swap1\n      revert\n    tag_302:\n        /* \"contracts/KajuSwapPair.sol\":1576:1580  true */\n      0x01\n        /* \"contracts/KajuSwapPair.sol\":1564:1573  isEntered */\n      0x0c\n      0x00\n        /* \"contracts/KajuSwapPair.sol\":1564:1580  isEntered = true */\n      0x0100\n      exp\n      dup2\n      sload\n      dup2\n      0xff\n      mul\n      not\n      and\n      swap1\n      dup4\n      iszero\n      iszero\n      mul\n      or\n      swap1\n      sstore\n      pop\n        /* \"contracts/KajuSwapPair.sol\":6782:6799  uint112 reserve0_ */\n      0x00\n        /* \"contracts/KajuSwapPair.sol\":6801:6818  uint112 reserve1_ */\n      dup1\n        /* \"contracts/KajuSwapPair.sol\":6824:6837  getReserves() */\n      tag_305\n        /* \"contracts/KajuSwapPair.sol\":6824:6835  getReserves */\n      tag_34\n        /* \"contracts/KajuSwapPair.sol\":6824:6837  getReserves() */\n      jump\t// in\n    tag_305:\n        /* \"contracts/KajuSwapPair.sol\":6781:6837  (uint112 reserve0_, uint112 reserve1_, ) = getReserves() */\n      pop\n      swap2\n      pop\n      swap2\n      pop\n        /* \"contracts/KajuSwapPair.sol\":6847:7016  _update(... */\n      tag_306\n        /* \"contracts/KajuSwapPair.sol\":6875:6881  token0 */\n      0x07\n      0x00\n      swap1\n      sload\n      swap1\n      0x0100\n      exp\n      swap1\n      div\n      0xffffffffffffffffffffffffffffffffffffffff\n      and\n        /* \"contracts/KajuSwapPair.sol\":6868:6892  IERC20(token0).balanceOf */\n      0xffffffffffffffffffffffffffffffffffffffff\n      and\n      0x70a08231\n        /* \"contracts/KajuSwapPair.sol\":6901:6905  this */\n      address\n        /* \"contracts/KajuSwapPair.sol\":6868:6907  IERC20(token0).balanceOf(address(this)) */\n      mload(0x40)\n      dup3\n      0xffffffff\n      and\n      0xe0\n      shl\n      dup2\n      mstore\n      0x04\n      add\n      tag_307\n      swap2\n      swap1\n      tag_46\n      jump\t// in\n    tag_307:\n      0x20\n      mload(0x40)\n      dup1\n      dup4\n      sub\n      dup2\n      dup7\n      gas\n      staticcall\n      iszero\n      dup1\n      iszero\n      tag_309\n      jumpi\n      returndatasize\n      0x00\n      dup1\n      returndatacopy\n      revert(0x00, returndatasize)\n    tag_309:\n      pop\n      pop\n      pop\n      pop\n      mload(0x40)\n      returndatasize\n      not(0x1f)\n      0x1f\n      dup3\n      add\n      and\n      dup3\n      add\n      dup1\n      0x40\n      mstore\n      pop\n      dup2\n      add\n      swap1\n      tag_310\n      swap2\n      swap1\n      tag_155\n      jump\t// in\n    tag_310:\n        /* \"contracts/KajuSwapPair.sol\":6928:6934  token1 */\n      0x08\n      0x00\n      swap1\n      sload\n      swap1\n      0x0100\n      exp\n      swap1\n      div\n      0xffffffffffffffffffffffffffffffffffffffff\n      and\n        /* \"contracts/KajuSwapPair.sol\":6921:6945  IERC20(token1).balanceOf */\n      0xffffffffffffffffffffffffffffffffffffffff\n      and\n      0x70a08231\n        /* \"contracts/KajuSwapPair.sol\":6954:6958  this */\n      address\n        /* \"contracts/KajuSwapPair.sol\":6921:6960  IERC20(token1).balanceOf(address(this)) */\n      mload(0x40)\n      dup3\n      0xffffffff\n      and\n      0xe0\n      shl\n      dup2\n      mstore\n      0x04\n      add\n      tag_311\n      swap2\n      swap1\n      tag_46\n      jump\t// in\n    tag_311:\n      0x20\n      mload(0x40)\n      dup1\n      dup4\n      sub\n      dup2\n      dup7\n      gas\n      staticcall\n      iszero\n      dup1\n      iszero\n      tag_313\n      jumpi\n      returndatasize\n      0x00\n      dup1\n      returndatacopy\n      revert(0x00, returndatasize)\n    tag_313:\n      pop\n      pop\n      pop\n      pop\n      mload(0x40)\n      returndatasize\n      not(0x1f)\n      0x1f\n      dup3\n      add\n      and\n      dup3\n      add\n      dup1\n      0x40\n      mstore\n      pop\n      dup2\n      add\n      swap1\n      tag_314\n      swap2\n      swap1\n      tag_155\n      jump\t// in\n    tag_314:\n        /* \"contracts/KajuSwapPair.sol\":6974:6983  reserve0_ */\n      dup5\n        /* \"contracts/KajuSwapPair.sol\":6997:7006  reserve1_ */\n      dup5\n        /* \"contracts/KajuSwapPair.sol\":6847:6854  _update */\n      tag_183\n        /* \"contracts/KajuSwapPair.sol\":6847:7016  _update(... */\n      jump\t// in\n    tag_306:\n        /* \"contracts/KajuSwapPair.sol\":6771:7023  {... */\n      pop\n      pop\n        /* \"contracts/KajuSwapPair.sol\":1613:1618  false */\n      0x00\n        /* \"contracts/KajuSwapPair.sol\":1601:1610  isEntered */\n      0x0c\n      0x00\n        /* \"contracts/KajuSwapPair.sol\":1601:1618  isEntered = false */\n      0x0100\n      exp\n      dup2\n      sload\n      dup2\n      0xff\n      mul\n      not\n      and\n      swap1\n      dup4\n      iszero\n      iszero\n      mul\n      or\n      swap1\n      sstore\n      pop\n        /* \"contracts/KajuSwapPair.sol\":6743:7023  function sync() public lock {... */\n      jump\t// out\n        /* \"@rari-capital/solmate/src/tokens/ERC20.sol\":5507:5953  function computeDomainSeparator() internal view virtual returns (bytes32) {... */\n    tag_137:\n        /* \"@rari-capital/solmate/src/tokens/ERC20.sol\":5572:5579  bytes32 */\n      0x00\n        /* \"@rari-capital/solmate/src/tokens/ERC20.sol\":5669:5764  keccak256(\"EIP712Domain(string name,string version,uint256 chainId,address verifyingContract)\") */\n      0x8b73c3c69bb8fe3d512ecc4cf759cc79239f7b179b0ffacaa9a75d522b39400f\n        /* \"@rari-capital/solmate/src/tokens/ERC20.sol\":5802:5806  name */\n      0x00\n        /* \"@rari-capital/solmate/src/tokens/ERC20.sol\":5786:5808  keccak256(bytes(name)) */\n      mload(0x40)\n      tag_316\n      swap2\n      swap1\n      tag_317\n      jump\t// in\n    tag_316:\n      mload(0x40)\n      dup1\n      swap2\n      sub\n      swap1\n      keccak256\n        /* \"@rari-capital/solmate/src/tokens/ERC20.sol\":5830:5844  keccak256(\"1\") */\n      0xc89efdaa54c0f20c7adf612882df0950f5a951637e0307cdcb4c672f298b8bc6\n        /* \"@rari-capital/solmate/src/tokens/ERC20.sol\":5866:5879  block.chainid */\n      chainid\n        /* \"@rari-capital/solmate/src/tokens/ERC20.sol\":5909:5913  this */\n      address\n        /* \"@rari-capital/solmate/src/tokens/ERC20.sol\":5637:5932  abi.encode(... */\n      add(0x20, mload(0x40))\n      tag_318\n      swap6\n      swap5\n      swap4\n      swap3\n      swap2\n      swap1\n      tag_319\n      jump\t// in\n    tag_318:\n      mload(0x40)\n      0x20\n      dup2\n      dup4\n      sub\n      sub\n      dup2\n      mstore\n      swap1\n      0x40\n      mstore\n        /* \"@rari-capital/solmate/src/tokens/ERC20.sol\":5610:5946  keccak256(... */\n      dup1\n      mload\n      swap1\n      0x20\n      add\n      keccak256\n        /* \"@rari-capital/solmate/src/tokens/ERC20.sol\":5591:5946  return... */\n      swap1\n      pop\n        /* \"@rari-capital/solmate/src/tokens/ERC20.sol\":5507:5953  function computeDomainSeparator() internal view virtual returns (bytes32) {... */\n      swap1\n      jump\t// out\n        /* \"libraries/Math.sol\":188:489  function sqrt(uint256 y) internal pure returns (uint256 z) {... */\n    tag_166:\n        /* \"libraries/Math.sol\":236:245  uint256 z */\n      0x00\n        /* \"libraries/Math.sol\":265:266  3 */\n      0x03\n        /* \"libraries/Math.sol\":261:262  y */\n      dup3\n        /* \"libraries/Math.sol\":261:266  y > 3 */\n      gt\n        /* \"libraries/Math.sol\":257:483  if (y > 3) {... */\n      iszero\n      tag_321\n      jumpi\n        /* \"libraries/Math.sol\":286:287  y */\n      dup2\n        /* \"libraries/Math.sol\":282:287  z = y */\n      swap1\n      pop\n        /* \"libraries/Math.sol\":301:310  uint256 x */\n      0x00\n        /* \"libraries/Math.sol\":321:322  1 */\n      0x01\n        /* \"libraries/Math.sol\":317:318  2 */\n      0x02\n        /* \"libraries/Math.sol\":313:314  y */\n      dup5\n        /* \"libraries/Math.sol\":313:318  y / 2 */\n      tag_322\n      swap2\n      swap1\n      tag_174\n      jump\t// in\n    tag_322:\n        /* \"libraries/Math.sol\":313:322  y / 2 + 1 */\n      tag_323\n      swap2\n      swap1\n      tag_324\n      jump\t// in\n    tag_323:\n        /* \"libraries/Math.sol\":301:322  uint256 x = y / 2 + 1 */\n      swap1\n      pop\n        /* \"libraries/Math.sol\":336:425  while (x < z) {... */\n    tag_325:\n        /* \"libraries/Math.sol\":347:348  z */\n      dup2\n        /* \"libraries/Math.sol\":343:344  x */\n      dup2\n        /* \"libraries/Math.sol\":343:348  x < z */\n      lt\n        /* \"libraries/Math.sol\":336:425  while (x < z) {... */\n      iszero\n      tag_326\n      jumpi\n        /* \"libraries/Math.sol\":372:373  x */\n      dup1\n        /* \"libraries/Math.sol\":368:373  z = x */\n      swap2\n      pop\n        /* \"libraries/Math.sol\":409:410  2 */\n      0x02\n        /* \"libraries/Math.sol\":404:405  x */\n      dup2\n        /* \"libraries/Math.sol\":400:401  x */\n      dup3\n        /* \"libraries/Math.sol\":396:397  y */\n      dup6\n        /* \"libraries/Math.sol\":396:401  y / x */\n      tag_327\n      swap2\n      swap1\n      tag_174\n      jump\t// in\n    tag_327:\n        /* \"libraries/Math.sol\":396:405  y / x + x */\n      tag_328\n      swap2\n      swap1\n      tag_324\n      jump\t// in\n    tag_328:\n        /* \"libraries/Math.sol\":395:410  (y / x + x) / 2 */\n      tag_329\n      swap2\n      swap1\n      tag_174\n      jump\t// in\n    tag_329:\n        /* \"libraries/Math.sol\":391:410  x = (y / x + x) / 2 */\n      swap1\n      pop\n        /* \"libraries/Math.sol\":336:425  while (x < z) {... */\n      jump(tag_325)\n    tag_326:\n        /* \"libraries/Math.sol\":268:435  {... */\n      pop\n        /* \"libraries/Math.sol\":257:483  if (y > 3) {... */\n      jump(tag_330)\n    tag_321:\n        /* \"libraries/Math.sol\":450:451  0 */\n      0x00\n        /* \"libraries/Math.sol\":445:446  y */\n      dup3\n        /* \"libraries/Math.sol\":445:451  y != 0 */\n      eq\n        /* \"libraries/Math.sol\":441:483  if (y != 0) {... */\n      tag_331\n      jumpi\n        /* \"libraries/Math.sol\":471:472  1 */\n      0x01\n        /* \"libraries/Math.sol\":467:472  z = 1 */\n      swap1\n      pop\n        /* \"libraries/Math.sol\":441:483  if (y != 0) {... */\n    tag_331:\n        /* \"libraries/Math.sol\":257:483  if (y > 3) {... */\n    tag_330:\n        /* \"libraries/Math.sol\":188:489  function sqrt(uint256 y) internal pure returns (uint256 z) {... */\n      swap2\n      swap1\n      pop\n      jump\t// out\n        /* \"@rari-capital/solmate/src/tokens/ERC20.sol\":6147:6472  function _mint(address to, uint256 amount) internal virtual {... */\n    tag_169:\n        /* \"@rari-capital/solmate/src/tokens/ERC20.sol\":6232:6238  amount */\n      dup1\n        /* \"@rari-capital/solmate/src/tokens/ERC20.sol\":6217:6228  totalSupply */\n      0x02\n      0x00\n        /* \"@rari-capital/solmate/src/tokens/ERC20.sol\":6217:6238  totalSupply += amount */\n      dup3\n      dup3\n      sload\n      tag_333\n      swap2\n      swap1\n      tag_324\n      jump\t// in\n    tag_333:\n      swap3\n      pop\n      pop\n      dup2\n      swap1\n      sstore\n      pop\n        /* \"@rari-capital/solmate/src/tokens/ERC20.sol\":6401:6407  amount */\n      dup1\n        /* \"@rari-capital/solmate/src/tokens/ERC20.sol\":6384:6393  balanceOf */\n      0x03\n        /* \"@rari-capital/solmate/src/tokens/ERC20.sol\":6384:6397  balanceOf[to] */\n      0x00\n        /* \"@rari-capital/solmate/src/tokens/ERC20.sol\":6394:6396  to */\n      dup5\n        /* \"@rari-capital/solmate/src/tokens/ERC20.sol\":6384:6397  balanceOf[to] */\n      0xffffffffffffffffffffffffffffffffffffffff\n      and\n      0xffffffffffffffffffffffffffffffffffffffff\n      and\n      dup2\n      mstore\n      0x20\n      add\n      swap1\n      dup2\n      mstore\n      0x20\n      add\n      0x00\n      keccak256\n      0x00\n        /* \"@rari-capital/solmate/src/tokens/ERC20.sol\":6384:6407  balanceOf[to] += amount */\n      dup3\n      dup3\n      sload\n      add\n      swap3\n      pop\n      pop\n      dup2\n      swap1\n      sstore\n      pop\n        /* \"@rari-capital/solmate/src/tokens/ERC20.sol\":6454:6456  to */\n      dup2\n        /* \"@rari-capital/solmate/src/tokens/ERC20.sol\":6433:6465  Transfer(address(0), to, amount) */\n      0xffffffffffffffffffffffffffffffffffffffff\n      and\n        /* \"@rari-capital/solmate/src/tokens/ERC20.sol\":6450:6451  0 */\n      0x00\n        /* \"@rari-capital/solmate/src/tokens/ERC20.sol\":6433:6465  Transfer(address(0), to, amount) */\n      0xffffffffffffffffffffffffffffffffffffffff\n      and\n      0xddf252ad1be2c89b69c2b068fc378daa952ba7f163c4a11628f55a4df523b3ef\n        /* \"@rari-capital/solmate/src/tokens/ERC20.sol\":6458:6464  amount */\n      dup4\n        /* \"@rari-capital/solmate/src/tokens/ERC20.sol\":6433:6465  Transfer(address(0), to, amount) */\n      mload(0x40)\n      tag_334\n      swap2\n      swap1\n      tag_50\n      jump\t// in\n    tag_334:\n      mload(0x40)\n      dup1\n      swap2\n      sub\n      swap1\n      log3\n        /* \"@rari-capital/solmate/src/tokens/ERC20.sol\":6147:6472  function _mint(address to, uint256 amount) internal virtual {... */\n      pop\n      pop\n      jump\t// out\n        /* \"libraries/Math.sol\":78:182  function min(uint256 a, uint256 b) internal pure returns (uint256) {... */\n    tag_177:\n        /* \"libraries/Math.sol\":136:143  uint256 */\n      0x00\n        /* \"libraries/Math.sol\":166:167  b */\n      dup2\n        /* \"libraries/Math.sol\":162:163  a */\n      dup4\n        /* \"libraries/Math.sol\":162:167  a < b */\n      lt\n        /* \"libraries/Math.sol\":162:175  a < b ? a : b */\n      tag_336\n      jumpi\n        /* \"libraries/Math.sol\":174:175  b */\n      dup2\n        /* \"libraries/Math.sol\":162:175  a < b ? a : b */\n      jump(tag_337)\n    tag_336:\n        /* \"libraries/Math.sol\":170:171  a */\n      dup3\n        /* \"libraries/Math.sol\":162:175  a < b ? a : b */\n    tag_337:\n        /* \"libraries/Math.sol\":155:175  return a < b ? a : b */\n      swap1\n      pop\n        /* \"libraries/Math.sol\":78:182  function min(uint256 a, uint256 b) internal pure returns (uint256) {... */\n      swap3\n      swap2\n      pop\n      pop\n      jump\t// out\n        /* \"contracts/KajuSwapPair.sol\":7060:8236  function _update(... */\n    tag_183:\n        /* \"contracts/KajuSwapPair.sol\":7358:7375  type(uint112).max */\n      0xffffffffffffffffffffffffffff\n        /* \"contracts/KajuSwapPair.sol\":7346:7375  balance0 <= type(uint112).max */\n      dup1\n      and\n        /* \"contracts/KajuSwapPair.sol\":7346:7354  balance0 */\n      dup5\n        /* \"contracts/KajuSwapPair.sol\":7346:7375  balance0 <= type(uint112).max */\n      gt\n      iszero\n        /* \"contracts/KajuSwapPair.sol\":7346:7408  balance0 <= type(uint112).max && balance1 <= type(uint112).max */\n      dup1\n      iszero\n      tag_339\n      jumpi\n      pop\n        /* \"contracts/KajuSwapPair.sol\":7391:7408  type(uint112).max */\n      0xffffffffffffffffffffffffffff\n        /* \"contracts/KajuSwapPair.sol\":7379:7408  balance1 <= type(uint112).max */\n      dup1\n      and\n        /* \"contracts/KajuSwapPair.sol\":7379:7387  balance1 */\n      dup4\n        /* \"contracts/KajuSwapPair.sol\":7379:7408  balance1 <= type(uint112).max */\n      gt\n      iszero\n        /* \"contracts/KajuSwapPair.sol\":7346:7408  balance0 <= type(uint112).max && balance1 <= type(uint112).max */\n    tag_339:\n        /* \"contracts/KajuSwapPair.sol\":7325:7452  require(... */\n      tag_340\n      jumpi\n      mload(0x40)\n      0x08c379a000000000000000000000000000000000000000000000000000000000\n      dup2\n      mstore\n      0x04\n      add\n      tag_341\n      swap1\n      tag_342\n      jump\t// in\n    tag_341:\n      mload(0x40)\n      dup1\n      swap2\n      sub\n      swap1\n      revert\n    tag_340:\n        /* \"contracts/KajuSwapPair.sol\":7601:7619  uint32 timeElapsed */\n      0x00\n        /* \"contracts/KajuSwapPair.sol\":7648:7666  blockTimestampLast */\n      0x09\n      0x1c\n      swap1\n      sload\n      swap1\n      0x0100\n      exp\n      swap1\n      div\n      0xffffffff\n      and\n        /* \"contracts/KajuSwapPair.sol\":7629:7644  block.timestamp */\n      timestamp\n        /* \"contracts/KajuSwapPair.sol\":7622:7666  uint32(block.timestamp) - blockTimestampLast */\n      sub\n        /* \"contracts/KajuSwapPair.sol\":7601:7666  uint32 timeElapsed = uint32(block.timestamp) - blockTimestampLast */\n      swap1\n      pop\n        /* \"contracts/KajuSwapPair.sol\":7699:7700  0 */\n      0x00\n        /* \"contracts/KajuSwapPair.sol\":7685:7696  timeElapsed */\n      dup2\n        /* \"contracts/KajuSwapPair.sol\":7685:7700  timeElapsed > 0 */\n      0xffffffff\n      and\n      gt\n        /* \"contracts/KajuSwapPair.sol\":7685:7717  timeElapsed > 0 && reserve0_ > 0 */\n      dup1\n      iszero\n      tag_343\n      jumpi\n      pop\n        /* \"contracts/KajuSwapPair.sol\":7716:7717  0 */\n      0x00\n        /* \"contracts/KajuSwapPair.sol\":7704:7713  reserve0_ */\n      dup4\n        /* \"contracts/KajuSwapPair.sol\":7704:7717  reserve0_ > 0 */\n      0xffffffffffffffffffffffffffff\n      and\n      gt\n        /* \"contracts/KajuSwapPair.sol\":7685:7717  timeElapsed > 0 && reserve0_ > 0 */\n    tag_343:\n        /* \"contracts/KajuSwapPair.sol\":7685:7734  timeElapsed > 0 && reserve0_ > 0 && reserve1_ > 0 */\n      dup1\n      iszero\n      tag_344\n      jumpi\n      pop\n        /* \"contracts/KajuSwapPair.sol\":7733:7734  0 */\n      0x00\n        /* \"contracts/KajuSwapPair.sol\":7721:7730  reserve1_ */\n      dup3\n        /* \"contracts/KajuSwapPair.sol\":7721:7734  reserve1_ > 0 */\n      0xffffffffffffffffffffffffffff\n      and\n      gt\n        /* \"contracts/KajuSwapPair.sol\":7685:7734  timeElapsed > 0 && reserve0_ > 0 && reserve1_ > 0 */\n    tag_344:\n        /* \"contracts/KajuSwapPair.sol\":7681:8049  if (timeElapsed > 0 && reserve0_ > 0 && reserve1_ > 0) {... */\n      iszero\n      tag_345\n      jumpi\n        /* \"contracts/KajuSwapPair.sol\":7874:7885  timeElapsed */\n      dup1\n        /* \"contracts/KajuSwapPair.sol\":7798:7885  uint256(UQ112x112.encode(reserve1_).uqdiv(reserve0_)) *... */\n      0xffffffff\n      and\n        /* \"contracts/KajuSwapPair.sol\":7806:7850  UQ112x112.encode(reserve1_).uqdiv(reserve0_) */\n      tag_346\n        /* \"contracts/KajuSwapPair.sol\":7840:7849  reserve0_ */\n      dup5\n        /* \"contracts/KajuSwapPair.sol\":7806:7833  UQ112x112.encode(reserve1_) */\n      tag_347\n        /* \"contracts/KajuSwapPair.sol\":7823:7832  reserve1_ */\n      dup6\n        /* \"contracts/KajuSwapPair.sol\":7806:7822  UQ112x112.encode */\n      tag_348\n        /* \"contracts/KajuSwapPair.sol\":7806:7833  UQ112x112.encode(reserve1_) */\n      jump\t// in\n    tag_347:\n        /* \"contracts/KajuSwapPair.sol\":7806:7839  UQ112x112.encode(reserve1_).uqdiv */\n      0xffffffffffffffffffffffffffffffffffffffffffffffffffffffff\n      and\n      tag_349\n      swap1\n        /* \"contracts/KajuSwapPair.sol\":7806:7850  UQ112x112.encode(reserve1_).uqdiv(reserve0_) */\n      swap2\n      swap1\n      0xffffffff\n      and\n      jump\t// in\n    tag_346:\n        /* \"contracts/KajuSwapPair.sol\":7798:7851  uint256(UQ112x112.encode(reserve1_).uqdiv(reserve0_)) */\n      0xffffffffffffffffffffffffffffffffffffffffffffffffffffffff\n      and\n        /* \"contracts/KajuSwapPair.sol\":7798:7885  uint256(UQ112x112.encode(reserve1_).uqdiv(reserve0_)) *... */\n      mul\n        /* \"contracts/KajuSwapPair.sol\":7754:7774  price0CumulativeLast */\n      0x0a\n      0x00\n        /* \"contracts/KajuSwapPair.sol\":7754:7885  price0CumulativeLast +=... */\n      dup3\n      dup3\n      sload\n      add\n      swap3\n      pop\n      pop\n      dup2\n      swap1\n      sstore\n      pop\n        /* \"contracts/KajuSwapPair.sol\":8023:8034  timeElapsed */\n      dup1\n        /* \"contracts/KajuSwapPair.sol\":7947:8034  uint256(UQ112x112.encode(reserve0_).uqdiv(reserve1_)) *... */\n      0xffffffff\n      and\n        /* \"contracts/KajuSwapPair.sol\":7955:7999  UQ112x112.encode(reserve0_).uqdiv(reserve1_) */\n      tag_350\n        /* \"contracts/KajuSwapPair.sol\":7989:7998  reserve1_ */\n      dup4\n        /* \"contracts/KajuSwapPair.sol\":7955:7982  UQ112x112.encode(reserve0_) */\n      tag_351\n        /* \"contracts/KajuSwapPair.sol\":7972:7981  reserve0_ */\n      dup7\n        /* \"contracts/KajuSwapPair.sol\":7955:7971  UQ112x112.encode */\n      tag_348\n        /* \"contracts/KajuSwapPair.sol\":7955:7982  UQ112x112.encode(reserve0_) */\n      jump\t// in\n    tag_351:\n        /* \"contracts/KajuSwapPair.sol\":7955:7988  UQ112x112.encode(reserve0_).uqdiv */\n      0xffffffffffffffffffffffffffffffffffffffffffffffffffffffff\n      and\n      tag_349\n      swap1\n        /* \"contracts/KajuSwapPair.sol\":7955:7999  UQ112x112.encode(reserve0_).uqdiv(reserve1_) */\n      swap2\n      swap1\n      0xffffffff\n      and\n      jump\t// in\n    tag_350:\n        /* \"contracts/KajuSwapPair.sol\":7947:8000  uint256(UQ112x112.encode(reserve0_).uqdiv(reserve1_)) */\n      0xffffffffffffffffffffffffffffffffffffffffffffffffffffffff\n      and\n        /* \"contracts/KajuSwapPair.sol\":7947:8034  uint256(UQ112x112.encode(reserve0_).uqdiv(reserve1_)) *... */\n      mul\n        /* \"contracts/KajuSwapPair.sol\":7903:7923  price1CumulativeLast */\n      0x0b\n      0x00\n        /* \"contracts/KajuSwapPair.sol\":7903:8034  price1CumulativeLast +=... */\n      dup3\n      dup3\n      sload\n      add\n      swap3\n      pop\n      pop\n      dup2\n      swap1\n      sstore\n      pop\n        /* \"contracts/KajuSwapPair.sol\":7681:8049  if (timeElapsed > 0 && reserve0_ > 0 && reserve1_ > 0) {... */\n    tag_345:\n        /* \"contracts/KajuSwapPair.sol\":7463:8059  unchecked {... */\n      pop\n        /* \"contracts/KajuSwapPair.sol\":8088:8096  balance0 */\n      dup4\n        /* \"contracts/KajuSwapPair.sol\":8069:8077  reserve0 */\n      0x09\n      0x00\n        /* \"contracts/KajuSwapPair.sol\":8069:8097  reserve0 = uint112(balance0) */\n      0x0100\n      exp\n      dup2\n      sload\n      dup2\n      0xffffffffffffffffffffffffffff\n      mul\n      not\n      and\n      swap1\n      dup4\n      0xffffffffffffffffffffffffffff\n      and\n      mul\n      or\n      swap1\n      sstore\n      pop\n        /* \"contracts/KajuSwapPair.sol\":8126:8134  balance1 */\n      dup3\n        /* \"contracts/KajuSwapPair.sol\":8107:8115  reserve1 */\n      0x09\n      0x0e\n        /* \"contracts/KajuSwapPair.sol\":8107:8135  reserve1 = uint112(balance1) */\n      0x0100\n      exp\n      dup2\n      sload\n      dup2\n      0xffffffffffffffffffffffffffff\n      mul\n      not\n      and\n      swap1\n      dup4\n      0xffffffffffffffffffffffffffff\n      and\n      mul\n      or\n      swap1\n      sstore\n      pop\n        /* \"contracts/KajuSwapPair.sol\":8173:8188  block.timestamp */\n      timestamp\n        /* \"contracts/KajuSwapPair.sol\":8145:8163  blockTimestampLast */\n      0x09\n      0x1c\n        /* \"contracts/KajuSwapPair.sol\":8145:8189  blockTimestampLast = uint32(block.timestamp) */\n      0x0100\n      exp\n      dup2\n      sload\n      dup2\n      0xffffffff\n      mul\n      not\n      and\n      swap1\n      dup4\n      0xffffffff\n      and\n      mul\n      or\n      swap1\n      sstore\n      pop\n        /* \"contracts/KajuSwapPair.sol\":8205:8229  Sync(reserve0, reserve1) */\n      0xcf2aa50876cdfbb541206f89af0ee78d44a2abf8d328e37fa4917f982149848a\n        /* \"contracts/KajuSwapPair.sol\":8210:8218  reserve0 */\n      0x09\n      0x00\n      swap1\n      sload\n      swap1\n      0x0100\n      exp\n      swap1\n      div\n      0xffffffffffffffffffffffffffff\n      and\n        /* \"contracts/KajuSwapPair.sol\":8220:8228  reserve1 */\n      0x09\n      0x0e\n      swap1\n      sload\n      swap1\n      0x0100\n      exp\n      swap1\n      div\n      0xffffffffffffffffffffffffffff\n      and\n        /* \"contracts/KajuSwapPair.sol\":8205:8229  Sync(reserve0, reserve1) */\n      mload(0x40)\n      tag_352\n      swap3\n      swap2\n      swap1\n      tag_353\n      jump\t// in\n    tag_352:\n      mload(0x40)\n      dup1\n      swap2\n      sub\n      swap1\n      log1\n        /* \"contracts/KajuSwapPair.sol\":7060:8236  function _update(... */\n      pop\n      pop\n      pop\n      pop\n      jump\t// out\n        /* \"contracts/KajuSwapPair.sol\":8466:9214  function _safeTransfer(... */\n    tag_200:\n        /* \"contracts/KajuSwapPair.sol\":8849:8861  bool success */\n      0x00\n        /* \"contracts/KajuSwapPair.sol\":8863:8880  bytes memory data */\n      dup1\n        /* \"contracts/KajuSwapPair.sol\":8884:8889  token */\n      dup5\n        /* \"contracts/KajuSwapPair.sol\":8884:8894  token.call */\n      0xffffffffffffffffffffffffffffffffffffffff\n      and\n        /* \"contracts/KajuSwapPair.sol\":8965:8999  bytes(\"transfer(address,uint256)\") */\n      mload(0x40)\n      dup1\n      0x40\n      add\n      0x40\n      mstore\n      dup1\n      0x19\n      dup2\n      mstore\n      0x20\n      add\n      0x7472616e7366657228616464726573732c75696e743235362900000000000000\n      dup2\n      mstore\n      pop\n        /* \"contracts/KajuSwapPair.sol\":8955:9000  keccak256(bytes(\"transfer(address,uint256)\")) */\n      dup1\n      mload\n      swap1\n      0x20\n      add\n      keccak256\n        /* \"contracts/KajuSwapPair.sol\":9019:9021  to */\n      dup6\n        /* \"contracts/KajuSwapPair.sol\":9039:9044  value */\n      dup6\n        /* \"contracts/KajuSwapPair.sol\":8908:9058  abi.encodeWithSelector(... */\n      add(0x24, mload(0x40))\n      tag_355\n      swap3\n      swap2\n      swap1\n      tag_356\n      jump\t// in\n    tag_355:\n      mload(0x40)\n      0x20\n      dup2\n      dup4\n      sub\n      sub\n      dup2\n      mstore\n      swap1\n      0x40\n      mstore\n      swap1\n      not(0xffffffffffffffffffffffffffffffffffffffffffffffffffffffff)\n      and\n      0x20\n      dup3\n      add\n      dup1\n      mload\n      0xffffffffffffffffffffffffffffffffffffffffffffffffffffffff\n      dup4\n      dup2\n      dup4\n      and\n      or\n      dup4\n      mstore\n      pop\n      pop\n      pop\n      pop\n        /* \"contracts/KajuSwapPair.sol\":8884:9068  token.call(... */\n      mload(0x40)\n      tag_357\n      swap2\n      swap1\n      tag_358\n      jump\t// in\n    tag_357:\n      0x00\n      mload(0x40)\n      dup1\n      dup4\n      sub\n      dup2\n      0x00\n      dup7\n      gas\n      call\n      swap2\n      pop\n      pop\n      returndatasize\n      dup1\n      0x00\n      dup2\n      eq\n      tag_361\n      jumpi\n      mload(0x40)\n      swap2\n      pop\n      and(add(returndatasize, 0x3f), not(0x1f))\n      dup3\n      add\n      0x40\n      mstore\n      returndatasize\n      dup3\n      mstore\n      returndatasize\n      0x00\n      0x20\n      dup5\n      add\n      returndatacopy\n      jump(tag_360)\n    tag_361:\n      0x60\n      swap2\n      pop\n    tag_360:\n      pop\n        /* \"contracts/KajuSwapPair.sol\":8848:9068  (bool success, bytes memory data) = token.call(... */\n      swap2\n      pop\n      swap2\n      pop\n        /* \"contracts/KajuSwapPair.sol\":9099:9106  success */\n      dup2\n        /* \"contracts/KajuSwapPair.sol\":9099:9156  success && (data.length == 0 || abi.decode(data, (bool))) */\n      dup1\n      iszero\n      tag_362\n      jumpi\n      pop\n        /* \"contracts/KajuSwapPair.sol\":9126:9127  0 */\n      0x00\n        /* \"contracts/KajuSwapPair.sol\":9111:9115  data */\n      dup2\n        /* \"contracts/KajuSwapPair.sol\":9111:9122  data.length */\n      mload\n        /* \"contracts/KajuSwapPair.sol\":9111:9127  data.length == 0 */\n      eq\n        /* \"contracts/KajuSwapPair.sol\":9111:9155  data.length == 0 || abi.decode(data, (bool)) */\n      dup1\n      tag_363\n      jumpi\n      pop\n        /* \"contracts/KajuSwapPair.sol\":9142:9146  data */\n      dup1\n        /* \"contracts/KajuSwapPair.sol\":9131:9155  abi.decode(data, (bool)) */\n      dup1\n      0x20\n      add\n      swap1\n      mload\n      dup2\n      add\n      swap1\n      tag_364\n      swap2\n      swap1\n      tag_365\n      jump\t// in\n    tag_364:\n        /* \"contracts/KajuSwapPair.sol\":9111:9155  data.length == 0 || abi.decode(data, (bool)) */\n    tag_363:\n        /* \"contracts/KajuSwapPair.sol\":9099:9156  success && (data.length == 0 || abi.decode(data, (bool))) */\n    tag_362:\n        /* \"contracts/KajuSwapPair.sol\":9078:9207  require(... */\n      tag_366\n      jumpi\n      mload(0x40)\n      0x08c379a000000000000000000000000000000000000000000000000000000000\n      dup2\n      mstore\n      0x04\n      add\n      tag_367\n      swap1\n      tag_368\n      jump\t// in\n    tag_367:\n      mload(0x40)\n      dup1\n      swap2\n      sub\n      swap1\n      revert\n    tag_366:\n        /* \"contracts/KajuSwapPair.sol\":8569:9214  {... */\n      pop\n      pop\n        /* \"contracts/KajuSwapPair.sol\":8466:9214  function _safeTransfer(... */\n      pop\n      pop\n      pop\n      jump\t// out\n        /* \"@rari-capital/solmate/src/tokens/ERC20.sol\":6478:6806  function _burn(address from, uint256 amount) internal virtual {... */\n    tag_260:\n        /* \"@rari-capital/solmate/src/tokens/ERC20.sol\":6569:6575  amount */\n      dup1\n        /* \"@rari-capital/solmate/src/tokens/ERC20.sol\":6550:6559  balanceOf */\n      0x03\n        /* \"@rari-capital/solmate/src/tokens/ERC20.sol\":6550:6565  balanceOf[from] */\n      0x00\n        /* \"@rari-capital/solmate/src/tokens/ERC20.sol\":6560:6564  from */\n      dup5\n        /* \"@rari-capital/solmate/src/tokens/ERC20.sol\":6550:6565  balanceOf[from] */\n      0xffffffffffffffffffffffffffffffffffffffff\n      and\n      0xffffffffffffffffffffffffffffffffffffffff\n      and\n      dup2\n      mstore\n      0x20\n      add\n      swap1\n      dup2\n      mstore\n      0x20\n      add\n      0x00\n      keccak256\n      0x00\n        /* \"@rari-capital/solmate/src/tokens/ERC20.sol\":6550:6575  balanceOf[from] -= amount */\n      dup3\n      dup3\n      sload\n      tag_370\n      swap2\n      swap1\n      tag_131\n      jump\t// in\n    tag_370:\n      swap3\n      pop\n      pop\n      dup2\n      swap1\n      sstore\n      pop\n        /* \"@rari-capital/solmate/src/tokens/ERC20.sol\":6733:6739  amount */\n      dup1\n        /* \"@rari-capital/solmate/src/tokens/ERC20.sol\":6718:6729  totalSupply */\n      0x02\n      0x00\n        /* \"@rari-capital/solmate/src/tokens/ERC20.sol\":6718:6739  totalSupply -= amount */\n      dup3\n      dup3\n      sload\n      sub\n      swap3\n      pop\n      pop\n      dup2\n      swap1\n      sstore\n      pop\n        /* \"@rari-capital/solmate/src/tokens/ERC20.sol\":6788:6789  0 */\n      0x00\n        /* \"@rari-capital/solmate/src/tokens/ERC20.sol\":6765:6799  Transfer(from, address(0), amount) */\n      0xffffffffffffffffffffffffffffffffffffffff\n      and\n        /* \"@rari-capital/solmate/src/tokens/ERC20.sol\":6774:6778  from */\n      dup3\n        /* \"@rari-capital/solmate/src/tokens/ERC20.sol\":6765:6799  Transfer(from, address(0), amount) */\n      0xffffffffffffffffffffffffffffffffffffffff\n      and\n      0xddf252ad1be2c89b69c2b068fc378daa952ba7f163c4a11628f55a4df523b3ef\n        /* \"@rari-capital/solmate/src/tokens/ERC20.sol\":6792:6798  amount */\n      dup4\n        /* \"@rari-capital/solmate/src/tokens/ERC20.sol\":6765:6799  Transfer(from, address(0), amount) */\n      mload(0x40)\n      tag_371\n      swap2\n      swap1\n      tag_50\n      jump\t// in\n    tag_371:\n      mload(0x40)\n      dup1\n      swap2\n      sub\n      swap1\n      log3\n        /* \"@rari-capital/solmate/src/tokens/ERC20.sol\":6478:6806  function _burn(address from, uint256 amount) internal virtual {... */\n      pop\n      pop\n      jump\t// out\n        /* \"libraries/UQ112x112.sol\":125:224  function encode(uint112 y) internal pure returns (uint224 z) {... */\n    tag_348:\n        /* \"libraries/UQ112x112.sol\":175:184  uint224 z */\n      0x00\n        /* \"libraries/UQ112x112.sol\":112:118  2**112 */\n      0x010000000000000000000000000000\n        /* \"libraries/UQ112x112.sol\":208:209  y */\n      dup3\n        /* \"libraries/UQ112x112.sol\":200:210  uint224(y) */\n      0xffffffffffffffffffffffffffff\n      and\n        /* \"libraries/UQ112x112.sol\":200:217  uint224(y) * Q112 */\n      tag_373\n      swap2\n      swap1\n      tag_374\n      jump\t// in\n    tag_373:\n        /* \"libraries/UQ112x112.sol\":196:217  z = uint224(y) * Q112 */\n      swap1\n      pop\n        /* \"libraries/UQ112x112.sol\":125:224  function encode(uint112 y) internal pure returns (uint224 z) {... */\n      swap2\n      swap1\n      pop\n      jump\t// out\n        /* \"libraries/UQ112x112.sol\":230:336  function uqdiv(uint224 x, uint112 y) internal pure returns (uint224 z) {... */\n    tag_349:\n        /* \"libraries/UQ112x112.sol\":290:299  uint224 z */\n      0x00\n        /* \"libraries/UQ112x112.sol\":327:328  y */\n      dup2\n        /* \"libraries/UQ112x112.sol\":319:329  uint224(y) */\n      0xffffffffffffffffffffffffffff\n      and\n        /* \"libraries/UQ112x112.sol\":315:316  x */\n      dup4\n        /* \"libraries/UQ112x112.sol\":315:329  x / uint224(y) */\n      tag_376\n      swap2\n      swap1\n      tag_377\n      jump\t// in\n    tag_376:\n        /* \"libraries/UQ112x112.sol\":311:329  z = x / uint224(y) */\n      swap1\n      pop\n        /* \"libraries/UQ112x112.sol\":230:336  function uqdiv(uint224 x, uint112 y) internal pure returns (uint224 z) {... */\n      swap3\n      swap2\n      pop\n      pop\n      jump\t// out\n        /* \"#utility.yul\":7:106   */\n    tag_378:\n        /* \"#utility.yul\":59:65   */\n      0x00\n        /* \"#utility.yul\":93:98   */\n      dup2\n        /* \"#utility.yul\":87:99   */\n      mload\n        /* \"#utility.yul\":77:99   */\n      swap1\n      pop\n        /* \"#utility.yul\":7:106   */\n      swap2\n      swap1\n      pop\n      jump\t// out\n        /* \"#utility.yul\":112:281   */\n    tag_379:\n        /* \"#utility.yul\":196:207   */\n      0x00\n        /* \"#utility.yul\":230:236   */\n      dup3\n        /* \"#utility.yul\":225:228   */\n      dup3\n        /* \"#utility.yul\":218:237   */\n      mstore\n        /* \"#utility.yul\":270:274   */\n      0x20\n        /* \"#utility.yul\":265:268   */\n      dup3\n        /* \"#utility.yul\":261:275   */\n      add\n        /* \"#utility.yul\":246:275   */\n      swap1\n      pop\n        /* \"#utility.yul\":112:281   */\n      swap3\n      swap2\n      pop\n      pop\n      jump\t// out\n        /* \"#utility.yul\":287:533   */\n    tag_380:\n        /* \"#utility.yul\":368:369   */\n      0x00\n        /* \"#utility.yul\":378:491   */\n    tag_457:\n        /* \"#utility.yul\":392:398   */\n      dup4\n        /* \"#utility.yul\":389:390   */\n      dup2\n        /* \"#utility.yul\":386:399   */\n      lt\n        /* \"#utility.yul\":378:491   */\n      iszero\n      tag_459\n      jumpi\n        /* \"#utility.yul\":477:478   */\n      dup1\n        /* \"#utility.yul\":472:475   */\n      dup3\n        /* \"#utility.yul\":468:479   */\n      add\n        /* \"#utility.yul\":462:480   */\n      mload\n        /* \"#utility.yul\":458:459   */\n      dup2\n        /* \"#utility.yul\":453:456   */\n      dup5\n        /* \"#utility.yul\":449:460   */\n      add\n        /* \"#utility.yul\":442:481   */\n      mstore\n        /* \"#utility.yul\":414:416   */\n      0x20\n        /* \"#utility.yul\":411:412   */\n      dup2\n        /* \"#utility.yul\":407:417   */\n      add\n        /* \"#utility.yul\":402:417   */\n      swap1\n      pop\n        /* \"#utility.yul\":378:491   */\n      jump(tag_457)\n    tag_459:\n        /* \"#utility.yul\":525:526   */\n      0x00\n        /* \"#utility.yul\":516:522   */\n      dup5\n        /* \"#utility.yul\":511:514   */\n      dup5\n        /* \"#utility.yul\":507:523   */\n      add\n        /* \"#utility.yul\":500:527   */\n      mstore\n        /* \"#utility.yul\":349:533   */\n      pop\n        /* \"#utility.yul\":287:533   */\n      pop\n      pop\n      pop\n      jump\t// out\n        /* \"#utility.yul\":539:641   */\n    tag_381:\n        /* \"#utility.yul\":580:586   */\n      0x00\n        /* \"#utility.yul\":631:633   */\n      0x1f\n        /* \"#utility.yul\":627:634   */\n      not\n        /* \"#utility.yul\":622:624   */\n      0x1f\n        /* \"#utility.yul\":615:620   */\n      dup4\n        /* \"#utility.yul\":611:625   */\n      add\n        /* \"#utility.yul\":607:635   */\n      and\n        /* \"#utility.yul\":597:635   */\n      swap1\n      pop\n        /* \"#utility.yul\":539:641   */\n      swap2\n      swap1\n      pop\n      jump\t// out\n        /* \"#utility.yul\":647:1024   */\n    tag_382:\n        /* \"#utility.yul\":735:738   */\n      0x00\n        /* \"#utility.yul\":763:802   */\n      tag_462\n        /* \"#utility.yul\":796:801   */\n      dup3\n        /* \"#utility.yul\":763:802   */\n      tag_378\n      jump\t// in\n    tag_462:\n        /* \"#utility.yul\":818:889   */\n      tag_463\n        /* \"#utility.yul\":882:888   */\n      dup2\n        /* \"#utility.yul\":877:880   */\n      dup6\n        /* \"#utility.yul\":818:889   */\n      tag_379\n      jump\t// in\n    tag_463:\n        /* \"#utility.yul\":811:889   */\n      swap4\n      pop\n        /* \"#utility.yul\":898:963   */\n      tag_464\n        /* \"#utility.yul\":956:962   */\n      dup2\n        /* \"#utility.yul\":951:954   */\n      dup6\n        /* \"#utility.yul\":944:948   */\n      0x20\n        /* \"#utility.yul\":937:942   */\n      dup7\n        /* \"#utility.yul\":933:949   */\n      add\n        /* \"#utility.yul\":898:963   */\n      tag_380\n      jump\t// in\n    tag_464:\n        /* \"#utility.yul\":988:1017   */\n      tag_465\n        /* \"#utility.yul\":1010:1016   */\n      dup2\n        /* \"#utility.yul\":988:1017   */\n      tag_381\n      jump\t// in\n    tag_465:\n        /* \"#utility.yul\":983:986   */\n      dup5\n        /* \"#utility.yul\":979:1018   */\n      add\n        /* \"#utility.yul\":972:1018   */\n      swap2\n      pop\n        /* \"#utility.yul\":739:1024   */\n      pop\n        /* \"#utility.yul\":647:1024   */\n      swap3\n      swap2\n      pop\n      pop\n      jump\t// out\n        /* \"#utility.yul\":1030:1343   */\n    tag_32:\n        /* \"#utility.yul\":1143:1147   */\n      0x00\n        /* \"#utility.yul\":1181:1183   */\n      0x20\n        /* \"#utility.yul\":1170:1179   */\n      dup3\n        /* \"#utility.yul\":1166:1184   */\n      add\n        /* \"#utility.yul\":1158:1184   */\n      swap1\n      pop\n        /* \"#utility.yul\":1230:1239   */\n      dup2\n        /* \"#utility.yul\":1224:1228   */\n      dup2\n        /* \"#utility.yul\":1220:1240   */\n      sub\n        /* \"#utility.yul\":1216:1217   */\n      0x00\n        /* \"#utility.yul\":1205:1214   */\n      dup4\n        /* \"#utility.yul\":1201:1218   */\n      add\n        /* \"#utility.yul\":1194:1241   */\n      mstore\n        /* \"#utility.yul\":1258:1336   */\n      tag_467\n        /* \"#utility.yul\":1331:1335   */\n      dup2\n        /* \"#utility.yul\":1322:1328   */\n      dup5\n        /* \"#utility.yul\":1258:1336   */\n      tag_382\n      jump\t// in\n    tag_467:\n        /* \"#utility.yul\":1250:1336   */\n      swap1\n      pop\n        /* \"#utility.yul\":1030:1343   */\n      swap3\n      swap2\n      pop\n      pop\n      jump\t// out\n        /* \"#utility.yul\":1349:1463   */\n    tag_383:\n        /* \"#utility.yul\":1386:1393   */\n      0x00\n        /* \"#utility.yul\":1426:1456   */\n      0xffffffffffffffffffffffffffff\n        /* \"#utility.yul\":1419:1424   */\n      dup3\n        /* \"#utility.yul\":1415:1457   */\n      and\n        /* \"#utility.yul\":1404:1457   */\n      swap1\n      pop\n        /* \"#utility.yul\":1349:1463   */\n      swap2\n      swap1\n      pop\n      jump\t// out\n        /* \"#utility.yul\":1469:1587   */\n    tag_384:\n        /* \"#utility.yul\":1556:1580   */\n      tag_470\n        /* \"#utility.yul\":1574:1579   */\n      dup2\n        /* \"#utility.yul\":1556:1580   */\n      tag_383\n      jump\t// in\n    tag_470:\n        /* \"#utility.yul\":1551:1554   */\n      dup3\n        /* \"#utility.yul\":1544:1581   */\n      mstore\n        /* \"#utility.yul\":1469:1587   */\n      pop\n      pop\n      jump\t// out\n        /* \"#utility.yul\":1593:1686   */\n    tag_385:\n        /* \"#utility.yul\":1629:1636   */\n      0x00\n        /* \"#utility.yul\":1669:1679   */\n      0xffffffff\n        /* \"#utility.yul\":1662:1667   */\n      dup3\n        /* \"#utility.yul\":1658:1680   */\n      and\n        /* \"#utility.yul\":1647:1680   */\n      swap1\n      pop\n        /* \"#utility.yul\":1593:1686   */\n      swap2\n      swap1\n      pop\n      jump\t// out\n        /* \"#utility.yul\":1692:1807   */\n    tag_386:\n        /* \"#utility.yul\":1777:1800   */\n      tag_473\n        /* \"#utility.yul\":1794:1799   */\n      dup2\n        /* \"#utility.yul\":1777:1800   */\n      tag_385\n      jump\t// in\n    tag_473:\n        /* \"#utility.yul\":1772:1775   */\n      dup3\n        /* \"#utility.yul\":1765:1801   */\n      mstore\n        /* \"#utility.yul\":1692:1807   */\n      pop\n      pop\n      jump\t// out\n        /* \"#utility.yul\":1813:2251   */\n    tag_36:\n        /* \"#utility.yul\":1960:1964   */\n      0x00\n        /* \"#utility.yul\":1998:2000   */\n      0x60\n        /* \"#utility.yul\":1987:1996   */\n      dup3\n        /* \"#utility.yul\":1983:2001   */\n      add\n        /* \"#utility.yul\":1975:2001   */\n      swap1\n      pop\n        /* \"#utility.yul\":2011:2082   */\n      tag_475\n        /* \"#utility.yul\":2079:2080   */\n      0x00\n        /* \"#utility.yul\":2068:2077   */\n      dup4\n        /* \"#utility.yul\":2064:2081   */\n      add\n        /* \"#utility.yul\":2055:2061   */\n      dup7\n        /* \"#utility.yul\":2011:2082   */\n      tag_384\n      jump\t// in\n    tag_475:\n        /* \"#utility.yul\":2092:2164   */\n      tag_476\n        /* \"#utility.yul\":2160:2162   */\n      0x20\n        /* \"#utility.yul\":2149:2158   */\n      dup4\n        /* \"#utility.yul\":2145:2163   */\n      add\n        /* \"#utility.yul\":2136:2142   */\n      dup6\n        /* \"#utility.yul\":2092:2164   */\n      tag_384\n      jump\t// in\n    tag_476:\n        /* \"#utility.yul\":2174:2244   */\n      tag_477\n        /* \"#utility.yul\":2240:2242   */\n      0x40\n        /* \"#utility.yul\":2229:2238   */\n      dup4\n        /* \"#utility.yul\":2225:2243   */\n      add\n        /* \"#utility.yul\":2216:2222   */\n      dup5\n        /* \"#utility.yul\":2174:2244   */\n      tag_386\n      jump\t// in\n    tag_477:\n        /* \"#utility.yul\":1813:2251   */\n      swap5\n      swap4\n      pop\n      pop\n      pop\n      pop\n      jump\t// out\n        /* \"#utility.yul\":2338:2455   */\n    tag_388:\n        /* \"#utility.yul\":2447:2448   */\n      0x00\n        /* \"#utility.yul\":2444:2445   */\n      dup1\n        /* \"#utility.yul\":2437:2449   */\n      revert\n        /* \"#utility.yul\":2584:2710   */\n    tag_390:\n        /* \"#utility.yul\":2621:2628   */\n      0x00\n        /* \"#utility.yul\":2661:2703   */\n      0xffffffffffffffffffffffffffffffffffffffff\n        /* \"#utility.yul\":2654:2659   */\n      dup3\n        /* \"#utility.yul\":2650:2704   */\n      and\n        /* \"#utility.yul\":2639:2704   */\n      swap1\n      pop\n        /* \"#utility.yul\":2584:2710   */\n      swap2\n      swap1\n      pop\n      jump\t// out\n        /* \"#utility.yul\":2716:2812   */\n    tag_391:\n        /* \"#utility.yul\":2753:2760   */\n      0x00\n        /* \"#utility.yul\":2782:2806   */\n      tag_483\n        /* \"#utility.yul\":2800:2805   */\n      dup3\n        /* \"#utility.yul\":2782:2806   */\n      tag_390\n      jump\t// in\n    tag_483:\n        /* \"#utility.yul\":2771:2806   */\n      swap1\n      pop\n        /* \"#utility.yul\":2716:2812   */\n      swap2\n      swap1\n      pop\n      jump\t// out\n        /* \"#utility.yul\":2818:2940   */\n    tag_392:\n        /* \"#utility.yul\":2891:2915   */\n      tag_485\n        /* \"#utility.yul\":2909:2914   */\n      dup2\n        /* \"#utility.yul\":2891:2915   */\n      tag_391\n      jump\t// in\n    tag_485:\n        /* \"#utility.yul\":2884:2889   */\n      dup2\n        /* \"#utility.yul\":2881:2916   */\n      eq\n        /* \"#utility.yul\":2871:2934   */\n      tag_486\n      jumpi\n        /* \"#utility.yul\":2930:2931   */\n      0x00\n        /* \"#utility.yul\":2927:2928   */\n      dup1\n        /* \"#utility.yul\":2920:2932   */\n      revert\n        /* \"#utility.yul\":2871:2934   */\n    tag_486:\n        /* \"#utility.yul\":2818:2940   */\n      pop\n      jump\t// out\n        /* \"#utility.yul\":2946:3085   */\n    tag_393:\n        /* \"#utility.yul\":2992:2997   */\n      0x00\n        /* \"#utility.yul\":3030:3036   */\n      dup2\n        /* \"#utility.yul\":3017:3037   */\n      calldataload\n        /* \"#utility.yul\":3008:3037   */\n      swap1\n      pop\n        /* \"#utility.yul\":3046:3079   */\n      tag_488\n        /* \"#utility.yul\":3073:3078   */\n      dup2\n        /* \"#utility.yul\":3046:3079   */\n      tag_392\n      jump\t// in\n    tag_488:\n        /* \"#utility.yul\":2946:3085   */\n      swap3\n      swap2\n      pop\n      pop\n      jump\t// out\n        /* \"#utility.yul\":3091:3168   */\n    tag_394:\n        /* \"#utility.yul\":3128:3135   */\n      0x00\n        /* \"#utility.yul\":3157:3162   */\n      dup2\n        /* \"#utility.yul\":3146:3162   */\n      swap1\n      pop\n        /* \"#utility.yul\":3091:3168   */\n      swap2\n      swap1\n      pop\n      jump\t// out\n        /* \"#utility.yul\":3174:3296   */\n    tag_395:\n        /* \"#utility.yul\":3247:3271   */\n      tag_491\n        /* \"#utility.yul\":3265:3270   */\n      dup2\n        /* \"#utility.yul\":3247:3271   */\n      tag_394\n      jump\t// in\n    tag_491:\n        /* \"#utility.yul\":3240:3245   */\n      dup2\n        /* \"#utility.yul\":3237:3272   */\n      eq\n        /* \"#utility.yul\":3227:3290   */\n      tag_492\n      jumpi\n        /* \"#utility.yul\":3286:3287   */\n      0x00\n        /* \"#utility.yul\":3283:3284   */\n      dup1\n        /* \"#utility.yul\":3276:3288   */\n      revert\n        /* \"#utility.yul\":3227:3290   */\n    tag_492:\n        /* \"#utility.yul\":3174:3296   */\n      pop\n      jump\t// out\n        /* \"#utility.yul\":3302:3441   */\n    tag_396:\n        /* \"#utility.yul\":3348:3353   */\n      0x00\n        /* \"#utility.yul\":3386:3392   */\n      dup2\n        /* \"#utility.yul\":3373:3393   */\n      calldataload\n        /* \"#utility.yul\":3364:3393   */\n      swap1\n      pop\n        /* \"#utility.yul\":3402:3435   */\n      tag_494\n        /* \"#utility.yul\":3429:3434   */\n      dup2\n        /* \"#utility.yul\":3402:3435   */\n      tag_395\n      jump\t// in\n    tag_494:\n        /* \"#utility.yul\":3302:3441   */\n      swap3\n      swap2\n      pop\n      pop\n      jump\t// out\n        /* \"#utility.yul\":3447:3921   */\n    tag_39:\n        /* \"#utility.yul\":3515:3521   */\n      0x00\n        /* \"#utility.yul\":3523:3529   */\n      dup1\n        /* \"#utility.yul\":3572:3574   */\n      0x40\n        /* \"#utility.yul\":3560:3569   */\n      dup4\n        /* \"#utility.yul\":3551:3558   */\n      dup6\n        /* \"#utility.yul\":3547:3570   */\n      sub\n        /* \"#utility.yul\":3543:3575   */\n      slt\n        /* \"#utility.yul\":3540:3659   */\n      iszero\n      tag_496\n      jumpi\n        /* \"#utility.yul\":3578:3657   */\n      tag_497\n      tag_388\n      jump\t// in\n    tag_497:\n        /* \"#utility.yul\":3540:3659   */\n    tag_496:\n        /* \"#utility.yul\":3698:3699   */\n      0x00\n        /* \"#utility.yul\":3723:3776   */\n      tag_498\n        /* \"#utility.yul\":3768:3775   */\n      dup6\n        /* \"#utility.yul\":3759:3765   */\n      dup3\n        /* \"#utility.yul\":3748:3757   */\n      dup7\n        /* \"#utility.yul\":3744:3766   */\n      add\n        /* \"#utility.yul\":3723:3776   */\n      tag_393\n      jump\t// in\n    tag_498:\n        /* \"#utility.yul\":3713:3776   */\n      swap3\n      pop\n        /* \"#utility.yul\":3669:3786   */\n      pop\n        /* \"#utility.yul\":3825:3827   */\n      0x20\n        /* \"#utility.yul\":3851:3904   */\n      tag_499\n        /* \"#utility.yul\":3896:3903   */\n      dup6\n        /* \"#utility.yul\":3887:3893   */\n      dup3\n        /* \"#utility.yul\":3876:3885   */\n      dup7\n        /* \"#utility.yul\":3872:3894   */\n      add\n        /* \"#utility.yul\":3851:3904   */\n      tag_396\n      jump\t// in\n    tag_499:\n        /* \"#utility.yul\":3841:3904   */\n      swap2\n      pop\n        /* \"#utility.yul\":3796:3914   */\n      pop\n        /* \"#utility.yul\":3447:3921   */\n      swap3\n      pop\n      swap3\n      swap1\n      pop\n      jump\t// out\n        /* \"#utility.yul\":3927:4017   */\n    tag_397:\n        /* \"#utility.yul\":3961:3968   */\n      0x00\n        /* \"#utility.yul\":4004:4009   */\n      dup2\n        /* \"#utility.yul\":3997:4010   */\n      iszero\n        /* \"#utility.yul\":3990:4011   */\n      iszero\n        /* \"#utility.yul\":3979:4011   */\n      swap1\n      pop\n        /* \"#utility.yul\":3927:4017   */\n      swap2\n      swap1\n      pop\n      jump\t// out\n        /* \"#utility.yul\":4023:4132   */\n    tag_398:\n        /* \"#utility.yul\":4104:4125   */\n      tag_502\n        /* \"#utility.yul\":4119:4124   */\n      dup2\n        /* \"#utility.yul\":4104:4125   */\n      tag_397\n      jump\t// in\n    tag_502:\n        /* \"#utility.yul\":4099:4102   */\n      dup3\n        /* \"#utility.yul\":4092:4126   */\n      mstore\n        /* \"#utility.yul\":4023:4132   */\n      pop\n      pop\n      jump\t// out\n        /* \"#utility.yul\":4138:4348   */\n    tag_42:\n        /* \"#utility.yul\":4225:4229   */\n      0x00\n        /* \"#utility.yul\":4263:4265   */\n      0x20\n        /* \"#utility.yul\":4252:4261   */\n      dup3\n        /* \"#utility.yul\":4248:4266   */\n      add\n        /* \"#utility.yul\":4240:4266   */\n      swap1\n      pop\n        /* \"#utility.yul\":4276:4341   */\n      tag_504\n        /* \"#utility.yul\":4338:4339   */\n      0x00\n        /* \"#utility.yul\":4327:4336   */\n      dup4\n        /* \"#utility.yul\":4323:4340   */\n      add\n        /* \"#utility.yul\":4314:4320   */\n      dup5\n        /* \"#utility.yul\":4276:4341   */\n      tag_398\n      jump\t// in\n    tag_504:\n        /* \"#utility.yul\":4138:4348   */\n      swap3\n      swap2\n      pop\n      pop\n      jump\t// out\n        /* \"#utility.yul\":4354:4472   */\n    tag_399:\n        /* \"#utility.yul\":4441:4465   */\n      tag_506\n        /* \"#utility.yul\":4459:4464   */\n      dup2\n        /* \"#utility.yul\":4441:4465   */\n      tag_391\n      jump\t// in\n    tag_506:\n        /* \"#utility.yul\":4436:4439   */\n      dup3\n        /* \"#utility.yul\":4429:4466   */\n      mstore\n        /* \"#utility.yul\":4354:4472   */\n      pop\n      pop\n      jump\t// out\n        /* \"#utility.yul\":4478:4700   */\n    tag_46:\n        /* \"#utility.yul\":4571:4575   */\n      0x00\n        /* \"#utility.yul\":4609:4611   */\n      0x20\n        /* \"#utility.yul\":4598:4607   */\n      dup3\n        /* \"#utility.yul\":4594:4612   */\n      add\n        /* \"#utility.yul\":4586:4612   */\n      swap1\n      pop\n        /* \"#utility.yul\":4622:4693   */\n      tag_508\n        /* \"#utility.yul\":4690:4691   */\n      0x00\n        /* \"#utility.yul\":4679:4688   */\n      dup4\n        /* \"#utility.yul\":4675:4692   */\n      add\n        /* \"#utility.yul\":4666:4672   */\n      dup5\n        /* \"#utility.yul\":4622:4693   */\n      tag_399\n      jump\t// in\n    tag_508:\n        /* \"#utility.yul\":4478:4700   */\n      swap3\n      swap2\n      pop\n      pop\n      jump\t// out\n        /* \"#utility.yul\":4706:4824   */\n    tag_400:\n        /* \"#utility.yul\":4793:4817   */\n      tag_510\n        /* \"#utility.yul\":4811:4816   */\n      dup2\n        /* \"#utility.yul\":4793:4817   */\n      tag_394\n      jump\t// in\n    tag_510:\n        /* \"#utility.yul\":4788:4791   */\n      dup3\n        /* \"#utility.yul\":4781:4818   */\n      mstore\n        /* \"#utility.yul\":4706:4824   */\n      pop\n      pop\n      jump\t// out\n        /* \"#utility.yul\":4830:5052   */\n    tag_50:\n        /* \"#utility.yul\":4923:4927   */\n      0x00\n        /* \"#utility.yul\":4961:4963   */\n      0x20\n        /* \"#utility.yul\":4950:4959   */\n      dup3\n        /* \"#utility.yul\":4946:4964   */\n      add\n        /* \"#utility.yul\":4938:4964   */\n      swap1\n      pop\n        /* \"#utility.yul\":4974:5045   */\n      tag_512\n        /* \"#utility.yul\":5042:5043   */\n      0x00\n        /* \"#utility.yul\":5031:5040   */\n      dup4\n        /* \"#utility.yul\":5027:5044   */\n      add\n        /* \"#utility.yul\":5018:5024   */\n      dup5\n        /* \"#utility.yul\":4974:5045   */\n      tag_400\n      jump\t// in\n    tag_512:\n        /* \"#utility.yul\":4830:5052   */\n      swap3\n      swap2\n      pop\n      pop\n      jump\t// out\n        /* \"#utility.yul\":5058:5677   */\n    tag_53:\n        /* \"#utility.yul\":5135:5141   */\n      0x00\n        /* \"#utility.yul\":5143:5149   */\n      dup1\n        /* \"#utility.yul\":5151:5157   */\n      0x00\n        /* \"#utility.yul\":5200:5202   */\n      0x60\n        /* \"#utility.yul\":5188:5197   */\n      dup5\n        /* \"#utility.yul\":5179:5186   */\n      dup7\n        /* \"#utility.yul\":5175:5198   */\n      sub\n        /* \"#utility.yul\":5171:5203   */\n      slt\n        /* \"#utility.yul\":5168:5287   */\n      iszero\n      tag_514\n      jumpi\n        /* \"#utility.yul\":5206:5285   */\n      tag_515\n      tag_388\n      jump\t// in\n    tag_515:\n        /* \"#utility.yul\":5168:5287   */\n    tag_514:\n        /* \"#utility.yul\":5326:5327   */\n      0x00\n        /* \"#utility.yul\":5351:5404   */\n      tag_516\n        /* \"#utility.yul\":5396:5403   */\n      dup7\n        /* \"#utility.yul\":5387:5393   */\n      dup3\n        /* \"#utility.yul\":5376:5385   */\n      dup8\n        /* \"#utility.yul\":5372:5394   */\n      add\n        /* \"#utility.yul\":5351:5404   */\n      tag_393\n      jump\t// in\n    tag_516:\n        /* \"#utility.yul\":5341:5404   */\n      swap4\n      pop\n        /* \"#utility.yul\":5297:5414   */\n      pop\n        /* \"#utility.yul\":5453:5455   */\n      0x20\n        /* \"#utility.yul\":5479:5532   */\n      tag_517\n        /* \"#utility.yul\":5524:5531   */\n      dup7\n        /* \"#utility.yul\":5515:5521   */\n      dup3\n        /* \"#utility.yul\":5504:5513   */\n      dup8\n        /* \"#utility.yul\":5500:5522   */\n      add\n        /* \"#utility.yul\":5479:5532   */\n      tag_393\n      jump\t// in\n    tag_517:\n        /* \"#utility.yul\":5469:5532   */\n      swap3\n      pop\n        /* \"#utility.yul\":5424:5542   */\n      pop\n        /* \"#utility.yul\":5581:5583   */\n      0x40\n        /* \"#utility.yul\":5607:5660   */\n      tag_518\n        /* \"#utility.yul\":5652:5659   */\n      dup7\n        /* \"#utility.yul\":5643:5649   */\n      dup3\n        /* \"#utility.yul\":5632:5641   */\n      dup8\n        /* \"#utility.yul\":5628:5650   */\n      add\n        /* \"#utility.yul\":5607:5660   */\n      tag_396\n      jump\t// in\n    tag_518:\n        /* \"#utility.yul\":5597:5660   */\n      swap2\n      pop\n        /* \"#utility.yul\":5552:5670   */\n      pop\n        /* \"#utility.yul\":5058:5677   */\n      swap3\n      pop\n      swap3\n      pop\n      swap3\n      jump\t// out\n        /* \"#utility.yul\":5683:5769   */\n    tag_401:\n        /* \"#utility.yul\":5718:5725   */\n      0x00\n        /* \"#utility.yul\":5758:5762   */\n      0xff\n        /* \"#utility.yul\":5751:5756   */\n      dup3\n        /* \"#utility.yul\":5747:5763   */\n      and\n        /* \"#utility.yul\":5736:5763   */\n      swap1\n      pop\n        /* \"#utility.yul\":5683:5769   */\n      swap2\n      swap1\n      pop\n      jump\t// out\n        /* \"#utility.yul\":5775:5887   */\n    tag_402:\n        /* \"#utility.yul\":5858:5880   */\n      tag_521\n        /* \"#utility.yul\":5874:5879   */\n      dup2\n        /* \"#utility.yul\":5858:5880   */\n      tag_401\n      jump\t// in\n    tag_521:\n        /* \"#utility.yul\":5853:5856   */\n      dup3\n        /* \"#utility.yul\":5846:5881   */\n      mstore\n        /* \"#utility.yul\":5775:5887   */\n      pop\n      pop\n      jump\t// out\n        /* \"#utility.yul\":5893:6107   */\n    tag_59:\n        /* \"#utility.yul\":5982:5986   */\n      0x00\n        /* \"#utility.yul\":6020:6022   */\n      0x20\n        /* \"#utility.yul\":6009:6018   */\n      dup3\n        /* \"#utility.yul\":6005:6023   */\n      add\n        /* \"#utility.yul\":5997:6023   */\n      swap1\n      pop\n        /* \"#utility.yul\":6033:6100   */\n      tag_523\n        /* \"#utility.yul\":6097:6098   */\n      0x00\n        /* \"#utility.yul\":6086:6095   */\n      dup4\n        /* \"#utility.yul\":6082:6099   */\n      add\n        /* \"#utility.yul\":6073:6079   */\n      dup5\n        /* \"#utility.yul\":6033:6100   */\n      tag_402\n      jump\t// in\n    tag_523:\n        /* \"#utility.yul\":5893:6107   */\n      swap3\n      swap2\n      pop\n      pop\n      jump\t// out\n        /* \"#utility.yul\":6113:6190   */\n    tag_403:\n        /* \"#utility.yul\":6150:6157   */\n      0x00\n        /* \"#utility.yul\":6179:6184   */\n      dup2\n        /* \"#utility.yul\":6168:6184   */\n      swap1\n      pop\n        /* \"#utility.yul\":6113:6190   */\n      swap2\n      swap1\n      pop\n      jump\t// out\n        /* \"#utility.yul\":6196:6314   */\n    tag_404:\n        /* \"#utility.yul\":6283:6307   */\n      tag_526\n        /* \"#utility.yul\":6301:6306   */\n      dup2\n        /* \"#utility.yul\":6283:6307   */\n      tag_403\n      jump\t// in\n    tag_526:\n        /* \"#utility.yul\":6278:6281   */\n      dup3\n        /* \"#utility.yul\":6271:6308   */\n      mstore\n        /* \"#utility.yul\":6196:6314   */\n      pop\n      pop\n      jump\t// out\n        /* \"#utility.yul\":6320:6542   */\n    tag_63:\n        /* \"#utility.yul\":6413:6417   */\n      0x00\n        /* \"#utility.yul\":6451:6453   */\n      0x20\n        /* \"#utility.yul\":6440:6449   */\n      dup3\n        /* \"#utility.yul\":6436:6454   */\n      add\n        /* \"#utility.yul\":6428:6454   */\n      swap1\n      pop\n        /* \"#utility.yul\":6464:6535   */\n      tag_528\n        /* \"#utility.yul\":6532:6533   */\n      0x00\n        /* \"#utility.yul\":6521:6530   */\n      dup4\n        /* \"#utility.yul\":6517:6534   */\n      add\n        /* \"#utility.yul\":6508:6514   */\n      dup5\n        /* \"#utility.yul\":6464:6535   */\n      tag_404\n      jump\t// in\n    tag_528:\n        /* \"#utility.yul\":6320:6542   */\n      swap3\n      swap2\n      pop\n      pop\n      jump\t// out\n        /* \"#utility.yul\":6548:7022   */\n    tag_66:\n        /* \"#utility.yul\":6616:6622   */\n      0x00\n        /* \"#utility.yul\":6624:6630   */\n      dup1\n        /* \"#utility.yul\":6673:6675   */\n      0x40\n        /* \"#utility.yul\":6661:6670   */\n      dup4\n        /* \"#utility.yul\":6652:6659   */\n      dup6\n        /* \"#utility.yul\":6648:6671   */\n      sub\n        /* \"#utility.yul\":6644:6676   */\n      slt\n        /* \"#utility.yul\":6641:6760   */\n      iszero\n      tag_530\n      jumpi\n        /* \"#utility.yul\":6679:6758   */\n      tag_531\n      tag_388\n      jump\t// in\n    tag_531:\n        /* \"#utility.yul\":6641:6760   */\n    tag_530:\n        /* \"#utility.yul\":6799:6800   */\n      0x00\n        /* \"#utility.yul\":6824:6877   */\n      tag_532\n        /* \"#utility.yul\":6869:6876   */\n      dup6\n        /* \"#utility.yul\":6860:6866   */\n      dup3\n        /* \"#utility.yul\":6849:6858   */\n      dup7\n        /* \"#utility.yul\":6845:6867   */\n      add\n        /* \"#utility.yul\":6824:6877   */\n      tag_393\n      jump\t// in\n    tag_532:\n        /* \"#utility.yul\":6814:6877   */\n      swap3\n      pop\n        /* \"#utility.yul\":6770:6887   */\n      pop\n        /* \"#utility.yul\":6926:6928   */\n      0x20\n        /* \"#utility.yul\":6952:7005   */\n      tag_533\n        /* \"#utility.yul\":6997:7004   */\n      dup6\n        /* \"#utility.yul\":6988:6994   */\n      dup3\n        /* \"#utility.yul\":6977:6986   */\n      dup7\n        /* \"#utility.yul\":6973:6995   */\n      add\n        /* \"#utility.yul\":6952:7005   */\n      tag_393\n      jump\t// in\n    tag_533:\n        /* \"#utility.yul\":6942:7005   */\n      swap2\n      pop\n        /* \"#utility.yul\":6897:7015   */\n      pop\n        /* \"#utility.yul\":6548:7022   */\n      swap3\n      pop\n      swap3\n      swap1\n      pop\n      jump\t// out\n        /* \"#utility.yul\":7028:7357   */\n    tag_76:\n        /* \"#utility.yul\":7087:7093   */\n      0x00\n        /* \"#utility.yul\":7136:7138   */\n      0x20\n        /* \"#utility.yul\":7124:7133   */\n      dup3\n        /* \"#utility.yul\":7115:7122   */\n      dup5\n        /* \"#utility.yul\":7111:7134   */\n      sub\n        /* \"#utility.yul\":7107:7139   */\n      slt\n        /* \"#utility.yul\":7104:7223   */\n      iszero\n      tag_535\n      jumpi\n        /* \"#utility.yul\":7142:7221   */\n      tag_536\n      tag_388\n      jump\t// in\n    tag_536:\n        /* \"#utility.yul\":7104:7223   */\n    tag_535:\n        /* \"#utility.yul\":7262:7263   */\n      0x00\n        /* \"#utility.yul\":7287:7340   */\n      tag_537\n        /* \"#utility.yul\":7332:7339   */\n      dup5\n        /* \"#utility.yul\":7323:7329   */\n      dup3\n        /* \"#utility.yul\":7312:7321   */\n      dup6\n        /* \"#utility.yul\":7308:7330   */\n      add\n        /* \"#utility.yul\":7287:7340   */\n      tag_393\n      jump\t// in\n    tag_537:\n        /* \"#utility.yul\":7277:7340   */\n      swap2\n      pop\n        /* \"#utility.yul\":7233:7350   */\n      pop\n        /* \"#utility.yul\":7028:7357   */\n      swap3\n      swap2\n      pop\n      pop\n      jump\t// out\n        /* \"#utility.yul\":7363:7982   */\n    tag_81:\n        /* \"#utility.yul\":7440:7446   */\n      0x00\n        /* \"#utility.yul\":7448:7454   */\n      dup1\n        /* \"#utility.yul\":7456:7462   */\n      0x00\n        /* \"#utility.yul\":7505:7507   */\n      0x60\n        /* \"#utility.yul\":7493:7502   */\n      dup5\n        /* \"#utility.yul\":7484:7491   */\n      dup7\n        /* \"#utility.yul\":7480:7503   */\n      sub\n        /* \"#utility.yul\":7476:7508   */\n      slt\n        /* \"#utility.yul\":7473:7592   */\n      iszero\n      tag_539\n      jumpi\n        /* \"#utility.yul\":7511:7590   */\n      tag_540\n      tag_388\n      jump\t// in\n    tag_540:\n        /* \"#utility.yul\":7473:7592   */\n    tag_539:\n        /* \"#utility.yul\":7631:7632   */\n      0x00\n        /* \"#utility.yul\":7656:7709   */\n      tag_541\n        /* \"#utility.yul\":7701:7708   */\n      dup7\n        /* \"#utility.yul\":7692:7698   */\n      dup3\n        /* \"#utility.yul\":7681:7690   */\n      dup8\n        /* \"#utility.yul\":7677:7699   */\n      add\n        /* \"#utility.yul\":7656:7709   */\n      tag_396\n      jump\t// in\n    tag_541:\n        /* \"#utility.yul\":7646:7709   */\n      swap4\n      pop\n        /* \"#utility.yul\":7602:7719   */\n      pop\n        /* \"#utility.yul\":7758:7760   */\n      0x20\n        /* \"#utility.yul\":7784:7837   */\n      tag_542\n        /* \"#utility.yul\":7829:7836   */\n      dup7\n        /* \"#utility.yul\":7820:7826   */\n      dup3\n        /* \"#utility.yul\":7809:7818   */\n      dup8\n        /* \"#utility.yul\":7805:7827   */\n      add\n        /* \"#utility.yul\":7784:7837   */\n      tag_396\n      jump\t// in\n    tag_542:\n        /* \"#utility.yul\":7774:7837   */\n      swap3\n      pop\n        /* \"#utility.yul\":7729:7847   */\n      pop\n        /* \"#utility.yul\":7886:7888   */\n      0x40\n        /* \"#utility.yul\":7912:7965   */\n      tag_543\n        /* \"#utility.yul\":7957:7964   */\n      dup7\n        /* \"#utility.yul\":7948:7954   */\n      dup3\n        /* \"#utility.yul\":7937:7946   */\n      dup8\n        /* \"#utility.yul\":7933:7955   */\n      add\n        /* \"#utility.yul\":7912:7965   */\n      tag_393\n      jump\t// in\n    tag_543:\n        /* \"#utility.yul\":7902:7965   */\n      swap2\n      pop\n        /* \"#utility.yul\":7857:7975   */\n      pop\n        /* \"#utility.yul\":7363:7982   */\n      swap3\n      pop\n      swap3\n      pop\n      swap3\n      jump\t// out\n        /* \"#utility.yul\":7988:8320   */\n    tag_95:\n        /* \"#utility.yul\":8109:8113   */\n      0x00\n        /* \"#utility.yul\":8147:8149   */\n      0x40\n        /* \"#utility.yul\":8136:8145   */\n      dup3\n        /* \"#utility.yul\":8132:8150   */\n      add\n        /* \"#utility.yul\":8124:8150   */\n      swap1\n      pop\n        /* \"#utility.yul\":8160:8231   */\n      tag_545\n        /* \"#utility.yul\":8228:8229   */\n      0x00\n        /* \"#utility.yul\":8217:8226   */\n      dup4\n        /* \"#utility.yul\":8213:8230   */\n      add\n        /* \"#utility.yul\":8204:8210   */\n      dup6\n        /* \"#utility.yul\":8160:8231   */\n      tag_400\n      jump\t// in\n    tag_545:\n        /* \"#utility.yul\":8241:8313   */\n      tag_546\n        /* \"#utility.yul\":8309:8311   */\n      0x20\n        /* \"#utility.yul\":8298:8307   */\n      dup4\n        /* \"#utility.yul\":8294:8312   */\n      add\n        /* \"#utility.yul\":8285:8291   */\n      dup5\n        /* \"#utility.yul\":8241:8313   */\n      tag_400\n      jump\t// in\n    tag_546:\n        /* \"#utility.yul\":7988:8320   */\n      swap4\n      swap3\n      pop\n      pop\n      pop\n      jump\t// out\n        /* \"#utility.yul\":8326:8444   */\n    tag_405:\n        /* \"#utility.yul\":8397:8419   */\n      tag_548\n        /* \"#utility.yul\":8413:8418   */\n      dup2\n        /* \"#utility.yul\":8397:8419   */\n      tag_401\n      jump\t// in\n    tag_548:\n        /* \"#utility.yul\":8390:8395   */\n      dup2\n        /* \"#utility.yul\":8387:8420   */\n      eq\n        /* \"#utility.yul\":8377:8438   */\n      tag_549\n      jumpi\n        /* \"#utility.yul\":8434:8435   */\n      0x00\n        /* \"#utility.yul\":8431:8432   */\n      dup1\n        /* \"#utility.yul\":8424:8436   */\n      revert\n        /* \"#utility.yul\":8377:8438   */\n    tag_549:\n        /* \"#utility.yul\":8326:8444   */\n      pop\n      jump\t// out\n        /* \"#utility.yul\":8450:8585   */\n    tag_406:\n        /* \"#utility.yul\":8494:8499   */\n      0x00\n        /* \"#utility.yul\":8532:8538   */\n      dup2\n        /* \"#utility.yul\":8519:8539   */\n      calldataload\n        /* \"#utility.yul\":8510:8539   */\n      swap1\n      pop\n        /* \"#utility.yul\":8548:8579   */\n      tag_551\n        /* \"#utility.yul\":8573:8578   */\n      dup2\n        /* \"#utility.yul\":8548:8579   */\n      tag_405\n      jump\t// in\n    tag_551:\n        /* \"#utility.yul\":8450:8585   */\n      swap3\n      swap2\n      pop\n      pop\n      jump\t// out\n        /* \"#utility.yul\":8591:8713   */\n    tag_407:\n        /* \"#utility.yul\":8664:8688   */\n      tag_553\n        /* \"#utility.yul\":8682:8687   */\n      dup2\n        /* \"#utility.yul\":8664:8688   */\n      tag_403\n      jump\t// in\n    tag_553:\n        /* \"#utility.yul\":8657:8662   */\n      dup2\n        /* \"#utility.yul\":8654:8689   */\n      eq\n        /* \"#utility.yul\":8644:8707   */\n      tag_554\n      jumpi\n        /* \"#utility.yul\":8703:8704   */\n      0x00\n        /* \"#utility.yul\":8700:8701   */\n      dup1\n        /* \"#utility.yul\":8693:8705   */\n      revert\n        /* \"#utility.yul\":8644:8707   */\n    tag_554:\n        /* \"#utility.yul\":8591:8713   */\n      pop\n      jump\t// out\n        /* \"#utility.yul\":8719:8858   */\n    tag_408:\n        /* \"#utility.yul\":8765:8770   */\n      0x00\n        /* \"#utility.yul\":8803:8809   */\n      dup2\n        /* \"#utility.yul\":8790:8810   */\n      calldataload\n        /* \"#utility.yul\":8781:8810   */\n      swap1\n      pop\n        /* \"#utility.yul\":8819:8852   */\n      tag_556\n        /* \"#utility.yul\":8846:8851   */\n      dup2\n        /* \"#utility.yul\":8819:8852   */\n      tag_407\n      jump\t// in\n    tag_556:\n        /* \"#utility.yul\":8719:8858   */\n      swap3\n      swap2\n      pop\n      pop\n      jump\t// out\n        /* \"#utility.yul\":8864:10063   */\n    tag_111:\n        /* \"#utility.yul\":8975:8981   */\n      0x00\n        /* \"#utility.yul\":8983:8989   */\n      dup1\n        /* \"#utility.yul\":8991:8997   */\n      0x00\n        /* \"#utility.yul\":8999:9005   */\n      dup1\n        /* \"#utility.yul\":9007:9013   */\n      0x00\n        /* \"#utility.yul\":9015:9021   */\n      dup1\n        /* \"#utility.yul\":9023:9029   */\n      0x00\n        /* \"#utility.yul\":9072:9075   */\n      0xe0\n        /* \"#utility.yul\":9060:9069   */\n      dup9\n        /* \"#utility.yul\":9051:9058   */\n      dup11\n        /* \"#utility.yul\":9047:9070   */\n      sub\n        /* \"#utility.yul\":9043:9076   */\n      slt\n        /* \"#utility.yul\":9040:9160   */\n      iszero\n      tag_558\n      jumpi\n        /* \"#utility.yul\":9079:9158   */\n      tag_559\n      tag_388\n      jump\t// in\n    tag_559:\n        /* \"#utility.yul\":9040:9160   */\n    tag_558:\n        /* \"#utility.yul\":9199:9200   */\n      0x00\n        /* \"#utility.yul\":9224:9277   */\n      tag_560\n        /* \"#utility.yul\":9269:9276   */\n      dup11\n        /* \"#utility.yul\":9260:9266   */\n      dup3\n        /* \"#utility.yul\":9249:9258   */\n      dup12\n        /* \"#utility.yul\":9245:9267   */\n      add\n        /* \"#utility.yul\":9224:9277   */\n      tag_393\n      jump\t// in\n    tag_560:\n        /* \"#utility.yul\":9214:9277   */\n      swap8\n      pop\n        /* \"#utility.yul\":9170:9287   */\n      pop\n        /* \"#utility.yul\":9326:9328   */\n      0x20\n        /* \"#utility.yul\":9352:9405   */\n      tag_561\n        /* \"#utility.yul\":9397:9404   */\n      dup11\n        /* \"#utility.yul\":9388:9394   */\n      dup3\n        /* \"#utility.yul\":9377:9386   */\n      dup12\n        /* \"#utility.yul\":9373:9395   */\n      add\n        /* \"#utility.yul\":9352:9405   */\n      tag_393\n      jump\t// in\n    tag_561:\n        /* \"#utility.yul\":9342:9405   */\n      swap7\n      pop\n        /* \"#utility.yul\":9297:9415   */\n      pop\n        /* \"#utility.yul\":9454:9456   */\n      0x40\n        /* \"#utility.yul\":9480:9533   */\n      tag_562\n        /* \"#utility.yul\":9525:9532   */\n      dup11\n        /* \"#utility.yul\":9516:9522   */\n      dup3\n        /* \"#utility.yul\":9505:9514   */\n      dup12\n        /* \"#utility.yul\":9501:9523   */\n      add\n        /* \"#utility.yul\":9480:9533   */\n      tag_396\n      jump\t// in\n    tag_562:\n        /* \"#utility.yul\":9470:9533   */\n      swap6\n      pop\n        /* \"#utility.yul\":9425:9543   */\n      pop\n        /* \"#utility.yul\":9582:9584   */\n      0x60\n        /* \"#utility.yul\":9608:9661   */\n      tag_563\n        /* \"#utility.yul\":9653:9660   */\n      dup11\n        /* \"#utility.yul\":9644:9650   */\n      dup3\n        /* \"#utility.yul\":9633:9642   */\n      dup12\n        /* \"#utility.yul\":9629:9651   */\n      add\n        /* \"#utility.yul\":9608:9661   */\n      tag_396\n      jump\t// in\n    tag_563:\n        /* \"#utility.yul\":9598:9661   */\n      swap5\n      pop\n        /* \"#utility.yul\":9553:9671   */\n      pop\n        /* \"#utility.yul\":9710:9713   */\n      0x80\n        /* \"#utility.yul\":9737:9788   */\n      tag_564\n        /* \"#utility.yul\":9780:9787   */\n      dup11\n        /* \"#utility.yul\":9771:9777   */\n      dup3\n        /* \"#utility.yul\":9760:9769   */\n      dup12\n        /* \"#utility.yul\":9756:9778   */\n      add\n        /* \"#utility.yul\":9737:9788   */\n      tag_406\n      jump\t// in\n    tag_564:\n        /* \"#utility.yul\":9727:9788   */\n      swap4\n      pop\n        /* \"#utility.yul\":9681:9798   */\n      pop\n        /* \"#utility.yul\":9837:9840   */\n      0xa0\n        /* \"#utility.yul\":9864:9917   */\n      tag_565\n        /* \"#utility.yul\":9909:9916   */\n      dup11\n        /* \"#utility.yul\":9900:9906   */\n      dup3\n        /* \"#utility.yul\":9889:9898   */\n      dup12\n        /* \"#utility.yul\":9885:9907   */\n      add\n        /* \"#utility.yul\":9864:9917   */\n      tag_408\n      jump\t// in\n    tag_565:\n        /* \"#utility.yul\":9854:9917   */\n      swap3\n      pop\n        /* \"#utility.yul\":9808:9927   */\n      pop\n        /* \"#utility.yul\":9966:9969   */\n      0xc0\n        /* \"#utility.yul\":9993:10046   */\n      tag_566\n        /* \"#utility.yul\":10038:10045   */\n      dup11\n        /* \"#utility.yul\":10029:10035   */\n      dup3\n        /* \"#utility.yul\":10018:10027   */\n      dup12\n        /* \"#utility.yul\":10014:10036   */\n      add\n        /* \"#utility.yul\":9993:10046   */\n      tag_408\n      jump\t// in\n    tag_566:\n        /* \"#utility.yul\":9983:10046   */\n      swap2\n      pop\n        /* \"#utility.yul\":9937:10056   */\n      pop\n        /* \"#utility.yul\":8864:10063   */\n      swap3\n      swap6\n      swap9\n      swap2\n      swap5\n      swap8\n      pop\n      swap3\n      swap6\n      pop\n      jump\t// out\n        /* \"#utility.yul\":10069:10249   */\n    tag_409:\n        /* \"#utility.yul\":10117:10194   */\n      0x4e487b7100000000000000000000000000000000000000000000000000000000\n        /* \"#utility.yul\":10114:10115   */\n      0x00\n        /* \"#utility.yul\":10107:10195   */\n      mstore\n        /* \"#utility.yul\":10214:10218   */\n      0x22\n        /* \"#utility.yul\":10211:10212   */\n      0x04\n        /* \"#utility.yul\":10204:10219   */\n      mstore\n        /* \"#utility.yul\":10238:10242   */\n      0x24\n        /* \"#utility.yul\":10235:10236   */\n      0x00\n        /* \"#utility.yul\":10228:10243   */\n      revert\n        /* \"#utility.yul\":10255:10575   */\n    tag_120:\n        /* \"#utility.yul\":10299:10305   */\n      0x00\n        /* \"#utility.yul\":10336:10337   */\n      0x02\n        /* \"#utility.yul\":10330:10334   */\n      dup3\n        /* \"#utility.yul\":10326:10338   */\n      div\n        /* \"#utility.yul\":10316:10338   */\n      swap1\n      pop\n        /* \"#utility.yul\":10383:10384   */\n      0x01\n        /* \"#utility.yul\":10377:10381   */\n      dup3\n        /* \"#utility.yul\":10373:10385   */\n      and\n        /* \"#utility.yul\":10404:10422   */\n      dup1\n        /* \"#utility.yul\":10394:10475   */\n      tag_569\n      jumpi\n        /* \"#utility.yul\":10460:10464   */\n      0x7f\n        /* \"#utility.yul\":10452:10458   */\n      dup3\n        /* \"#utility.yul\":10448:10465   */\n      and\n        /* \"#utility.yul\":10438:10465   */\n      swap2\n      pop\n        /* \"#utility.yul\":10394:10475   */\n    tag_569:\n        /* \"#utility.yul\":10522:10524   */\n      0x20\n        /* \"#utility.yul\":10514:10520   */\n      dup3\n        /* \"#utility.yul\":10511:10525   */\n      lt\n        /* \"#utility.yul\":10491:10509   */\n      dup2\n        /* \"#utility.yul\":10488:10526   */\n      sub\n        /* \"#utility.yul\":10485:10569   */\n      tag_570\n      jumpi\n        /* \"#utility.yul\":10541:10559   */\n      tag_571\n      tag_409\n      jump\t// in\n    tag_571:\n        /* \"#utility.yul\":10485:10569   */\n    tag_570:\n        /* \"#utility.yul\":10306:10575   */\n      pop\n        /* \"#utility.yul\":10255:10575   */\n      swap2\n      swap1\n      pop\n      jump\t// out\n        /* \"#utility.yul\":10581:10761   */\n    tag_410:\n        /* \"#utility.yul\":10629:10706   */\n      0x4e487b7100000000000000000000000000000000000000000000000000000000\n        /* \"#utility.yul\":10626:10627   */\n      0x00\n        /* \"#utility.yul\":10619:10707   */\n      mstore\n        /* \"#utility.yul\":10726:10730   */\n      0x11\n        /* \"#utility.yul\":10723:10724   */\n      0x04\n        /* \"#utility.yul\":10716:10731   */\n      mstore\n        /* \"#utility.yul\":10750:10754   */\n      0x24\n        /* \"#utility.yul\":10747:10748   */\n      0x00\n        /* \"#utility.yul\":10740:10755   */\n      revert\n        /* \"#utility.yul\":10767:10961   */\n    tag_131:\n        /* \"#utility.yul\":10807:10811   */\n      0x00\n        /* \"#utility.yul\":10827:10847   */\n      tag_574\n        /* \"#utility.yul\":10845:10846   */\n      dup3\n        /* \"#utility.yul\":10827:10847   */\n      tag_394\n      jump\t// in\n    tag_574:\n        /* \"#utility.yul\":10822:10847   */\n      swap2\n      pop\n        /* \"#utility.yul\":10861:10881   */\n      tag_575\n        /* \"#utility.yul\":10879:10880   */\n      dup4\n        /* \"#utility.yul\":10861:10881   */\n      tag_394\n      jump\t// in\n    tag_575:\n        /* \"#utility.yul\":10856:10881   */\n      swap3\n      pop\n        /* \"#utility.yul\":10905:10906   */\n      dup3\n        /* \"#utility.yul\":10902:10903   */\n      dup3\n        /* \"#utility.yul\":10898:10907   */\n      sub\n        /* \"#utility.yul\":10890:10907   */\n      swap1\n      pop\n        /* \"#utility.yul\":10929:10930   */\n      dup2\n        /* \"#utility.yul\":10923:10927   */\n      dup2\n        /* \"#utility.yul\":10920:10931   */\n      gt\n        /* \"#utility.yul\":10917:10954   */\n      iszero\n      tag_576\n      jumpi\n        /* \"#utility.yul\":10934:10952   */\n      tag_577\n      tag_410\n      jump\t// in\n    tag_577:\n        /* \"#utility.yul\":10917:10954   */\n    tag_576:\n        /* \"#utility.yul\":10767:10961   */\n      swap3\n      swap2\n      pop\n      pop\n      jump\t// out\n        /* \"#utility.yul\":10967:11136   */\n    tag_411:\n        /* \"#utility.yul\":11107:11128   */\n      0x4b616a75737761703a20464f5242494444454e00000000000000000000000000\n        /* \"#utility.yul\":11103:11104   */\n      0x00\n        /* \"#utility.yul\":11095:11101   */\n      dup3\n        /* \"#utility.yul\":11091:11105   */\n      add\n        /* \"#utility.yul\":11084:11129   */\n      mstore\n        /* \"#utility.yul\":10967:11136   */\n      pop\n      jump\t// out\n        /* \"#utility.yul\":11142:11508   */\n    tag_412:\n        /* \"#utility.yul\":11284:11287   */\n      0x00\n        /* \"#utility.yul\":11305:11372   */\n      tag_580\n        /* \"#utility.yul\":11369:11371   */\n      0x13\n        /* \"#utility.yul\":11364:11367   */\n      dup4\n        /* \"#utility.yul\":11305:11372   */\n      tag_379\n      jump\t// in\n    tag_580:\n        /* \"#utility.yul\":11298:11372   */\n      swap2\n      pop\n        /* \"#utility.yul\":11381:11474   */\n      tag_581\n        /* \"#utility.yul\":11470:11473   */\n      dup3\n        /* \"#utility.yul\":11381:11474   */\n      tag_411\n      jump\t// in\n    tag_581:\n        /* \"#utility.yul\":11499:11501   */\n      0x20\n        /* \"#utility.yul\":11494:11497   */\n      dup3\n        /* \"#utility.yul\":11490:11502   */\n      add\n        /* \"#utility.yul\":11483:11502   */\n      swap1\n      pop\n        /* \"#utility.yul\":11142:11508   */\n      swap2\n      swap1\n      pop\n      jump\t// out\n        /* \"#utility.yul\":11514:11933   */\n    tag_142:\n        /* \"#utility.yul\":11680:11684   */\n      0x00\n        /* \"#utility.yul\":11718:11720   */\n      0x20\n        /* \"#utility.yul\":11707:11716   */\n      dup3\n        /* \"#utility.yul\":11703:11721   */\n      add\n        /* \"#utility.yul\":11695:11721   */\n      swap1\n      pop\n        /* \"#utility.yul\":11767:11776   */\n      dup2\n        /* \"#utility.yul\":11761:11765   */\n      dup2\n        /* \"#utility.yul\":11757:11777   */\n      sub\n        /* \"#utility.yul\":11753:11754   */\n      0x00\n        /* \"#utility.yul\":11742:11751   */\n      dup4\n        /* \"#utility.yul\":11738:11755   */\n      add\n        /* \"#utility.yul\":11731:11778   */\n      mstore\n        /* \"#utility.yul\":11795:11926   */\n      tag_583\n        /* \"#utility.yul\":11921:11925   */\n      dup2\n        /* \"#utility.yul\":11795:11926   */\n      tag_412\n      jump\t// in\n    tag_583:\n        /* \"#utility.yul\":11787:11926   */\n      swap1\n      pop\n        /* \"#utility.yul\":11514:11933   */\n      swap2\n      swap1\n      pop\n      jump\t// out\n        /* \"#utility.yul\":11939:12168   */\n    tag_413:\n        /* \"#utility.yul\":12079:12113   */\n      0x4b616a75737761703a20596f752063616e6e6f7420456e74657220696e207468\n        /* \"#utility.yul\":12075:12076   */\n      0x00\n        /* \"#utility.yul\":12067:12073   */\n      dup3\n        /* \"#utility.yul\":12063:12077   */\n      add\n        /* \"#utility.yul\":12056:12114   */\n      mstore\n        /* \"#utility.yul\":12148:12160   */\n      0x6520636f6e747261637400000000000000000000000000000000000000000000\n        /* \"#utility.yul\":12143:12145   */\n      0x20\n        /* \"#utility.yul\":12135:12141   */\n      dup3\n        /* \"#utility.yul\":12131:12146   */\n      add\n        /* \"#utility.yul\":12124:12161   */\n      mstore\n        /* \"#utility.yul\":11939:12168   */\n      pop\n      jump\t// out\n        /* \"#utility.yul\":12174:12540   */\n    tag_414:\n        /* \"#utility.yul\":12316:12319   */\n      0x00\n        /* \"#utility.yul\":12337:12404   */\n      tag_586\n        /* \"#utility.yul\":12401:12403   */\n      0x2a\n        /* \"#utility.yul\":12396:12399   */\n      dup4\n        /* \"#utility.yul\":12337:12404   */\n      tag_379\n      jump\t// in\n    tag_586:\n        /* \"#utility.yul\":12330:12404   */\n      swap2\n      pop\n        /* \"#utility.yul\":12413:12506   */\n      tag_587\n        /* \"#utility.yul\":12502:12505   */\n      dup3\n        /* \"#utility.yul\":12413:12506   */\n      tag_413\n      jump\t// in\n    tag_587:\n        /* \"#utility.yul\":12531:12533   */\n      0x40\n        /* \"#utility.yul\":12526:12529   */\n      dup3\n        /* \"#utility.yul\":12522:12534   */\n      add\n        /* \"#utility.yul\":12515:12534   */\n      swap1\n      pop\n        /* \"#utility.yul\":12174:12540   */\n      swap2\n      swap1\n      pop\n      jump\t// out\n        /* \"#utility.yul\":12546:12965   */\n    tag_148:\n        /* \"#utility.yul\":12712:12716   */\n      0x00\n        /* \"#utility.yul\":12750:12752   */\n      0x20\n        /* \"#utility.yul\":12739:12748   */\n      dup3\n        /* \"#utility.yul\":12735:12753   */\n      add\n        /* \"#utility.yul\":12727:12753   */\n      swap1\n      pop\n        /* \"#utility.yul\":12799:12808   */\n      dup2\n        /* \"#utility.yul\":12793:12797   */\n      dup2\n        /* \"#utility.yul\":12789:12809   */\n      sub\n        /* \"#utility.yul\":12785:12786   */\n      0x00\n        /* \"#utility.yul\":12774:12783   */\n      dup4\n        /* \"#utility.yul\":12770:12787   */\n      add\n        /* \"#utility.yul\":12763:12810   */\n      mstore\n        /* \"#utility.yul\":12827:12958   */\n      tag_589\n        /* \"#utility.yul\":12953:12957   */\n      dup2\n        /* \"#utility.yul\":12827:12958   */\n      tag_414\n      jump\t// in\n    tag_589:\n        /* \"#utility.yul\":12819:12958   */\n      swap1\n      pop\n        /* \"#utility.yul\":12546:12965   */\n      swap2\n      swap1\n      pop\n      jump\t// out\n        /* \"#utility.yul\":12971:13114   */\n    tag_415:\n        /* \"#utility.yul\":13028:13033   */\n      0x00\n        /* \"#utility.yul\":13059:13065   */\n      dup2\n        /* \"#utility.yul\":13053:13066   */\n      mload\n        /* \"#utility.yul\":13044:13066   */\n      swap1\n      pop\n        /* \"#utility.yul\":13075:13108   */\n      tag_591\n        /* \"#utility.yul\":13102:13107   */\n      dup2\n        /* \"#utility.yul\":13075:13108   */\n      tag_395\n      jump\t// in\n    tag_591:\n        /* \"#utility.yul\":12971:13114   */\n      swap3\n      swap2\n      pop\n      pop\n      jump\t// out\n        /* \"#utility.yul\":13120:13471   */\n    tag_155:\n        /* \"#utility.yul\":13190:13196   */\n      0x00\n        /* \"#utility.yul\":13239:13241   */\n      0x20\n        /* \"#utility.yul\":13227:13236   */\n      dup3\n        /* \"#utility.yul\":13218:13225   */\n      dup5\n        /* \"#utility.yul\":13214:13237   */\n      sub\n        /* \"#utility.yul\":13210:13242   */\n      slt\n        /* \"#utility.yul\":13207:13326   */\n      iszero\n      tag_593\n      jumpi\n        /* \"#utility.yul\":13245:13324   */\n      tag_594\n      tag_388\n      jump\t// in\n    tag_594:\n        /* \"#utility.yul\":13207:13326   */\n    tag_593:\n        /* \"#utility.yul\":13365:13366   */\n      0x00\n        /* \"#utility.yul\":13390:13454   */\n      tag_595\n        /* \"#utility.yul\":13446:13453   */\n      dup5\n        /* \"#utility.yul\":13437:13443   */\n      dup3\n        /* \"#utility.yul\":13426:13435   */\n      dup6\n        /* \"#utility.yul\":13422:13444   */\n      add\n        /* \"#utility.yul\":13390:13454   */\n      tag_415\n      jump\t// in\n    tag_595:\n        /* \"#utility.yul\":13380:13454   */\n      swap2\n      pop\n        /* \"#utility.yul\":13336:13464   */\n      pop\n        /* \"#utility.yul\":13120:13471   */\n      swap3\n      swap2\n      pop\n      pop\n      jump\t// out\n        /* \"#utility.yul\":13477:13887   */\n    tag_165:\n        /* \"#utility.yul\":13517:13524   */\n      0x00\n        /* \"#utility.yul\":13540:13560   */\n      tag_597\n        /* \"#utility.yul\":13558:13559   */\n      dup3\n        /* \"#utility.yul\":13540:13560   */\n      tag_394\n      jump\t// in\n    tag_597:\n        /* \"#utility.yul\":13535:13560   */\n      swap2\n      pop\n        /* \"#utility.yul\":13574:13594   */\n      tag_598\n        /* \"#utility.yul\":13592:13593   */\n      dup4\n        /* \"#utility.yul\":13574:13594   */\n      tag_394\n      jump\t// in\n    tag_598:\n        /* \"#utility.yul\":13569:13594   */\n      swap3\n      pop\n        /* \"#utility.yul\":13629:13630   */\n      dup3\n        /* \"#utility.yul\":13626:13627   */\n      dup3\n        /* \"#utility.yul\":13622:13631   */\n      mul\n        /* \"#utility.yul\":13651:13681   */\n      tag_599\n        /* \"#utility.yul\":13669:13680   */\n      dup2\n        /* \"#utility.yul\":13651:13681   */\n      tag_394\n      jump\t// in\n    tag_599:\n        /* \"#utility.yul\":13640:13681   */\n      swap2\n      pop\n        /* \"#utility.yul\":13830:13831   */\n      dup3\n        /* \"#utility.yul\":13821:13828   */\n      dup3\n        /* \"#utility.yul\":13817:13832   */\n      div\n        /* \"#utility.yul\":13814:13815   */\n      dup5\n        /* \"#utility.yul\":13811:13833   */\n      eq\n        /* \"#utility.yul\":13791:13792   */\n      dup4\n        /* \"#utility.yul\":13784:13793   */\n      iszero\n        /* \"#utility.yul\":13764:13847   */\n      or\n        /* \"#utility.yul\":13741:13880   */\n      tag_600\n      jumpi\n        /* \"#utility.yul\":13860:13878   */\n      tag_601\n      tag_410\n      jump\t// in\n    tag_601:\n        /* \"#utility.yul\":13741:13880   */\n    tag_600:\n        /* \"#utility.yul\":13525:13887   */\n      pop\n        /* \"#utility.yul\":13477:13887   */\n      swap3\n      swap2\n      pop\n      pop\n      jump\t// out\n        /* \"#utility.yul\":13893:14073   */\n    tag_416:\n        /* \"#utility.yul\":13941:14018   */\n      0x4e487b7100000000000000000000000000000000000000000000000000000000\n        /* \"#utility.yul\":13938:13939   */\n      0x00\n        /* \"#utility.yul\":13931:14019   */\n      mstore\n        /* \"#utility.yul\":14038:14042   */\n      0x12\n        /* \"#utility.yul\":14035:14036   */\n      0x04\n        /* \"#utility.yul\":14028:14043   */\n      mstore\n        /* \"#utility.yul\":14062:14066   */\n      0x24\n        /* \"#utility.yul\":14059:14060   */\n      0x00\n        /* \"#utility.yul\":14052:14067   */\n      revert\n        /* \"#utility.yul\":14079:14264   */\n    tag_174:\n        /* \"#utility.yul\":14119:14120   */\n      0x00\n        /* \"#utility.yul\":14136:14156   */\n      tag_604\n        /* \"#utility.yul\":14154:14155   */\n      dup3\n        /* \"#utility.yul\":14136:14156   */\n      tag_394\n      jump\t// in\n    tag_604:\n        /* \"#utility.yul\":14131:14156   */\n      swap2\n      pop\n        /* \"#utility.yul\":14170:14190   */\n      tag_605\n        /* \"#utility.yul\":14188:14189   */\n      dup4\n        /* \"#utility.yul\":14170:14190   */\n      tag_394\n      jump\t// in\n    tag_605:\n        /* \"#utility.yul\":14165:14190   */\n      swap3\n      pop\n        /* \"#utility.yul\":14209:14210   */\n      dup3\n        /* \"#utility.yul\":14199:14234   */\n      tag_606\n      jumpi\n        /* \"#utility.yul\":14214:14232   */\n      tag_607\n      tag_416\n      jump\t// in\n    tag_607:\n        /* \"#utility.yul\":14199:14234   */\n    tag_606:\n        /* \"#utility.yul\":14256:14257   */\n      dup3\n        /* \"#utility.yul\":14253:14254   */\n      dup3\n        /* \"#utility.yul\":14249:14258   */\n      div\n        /* \"#utility.yul\":14244:14258   */\n      swap1\n      pop\n        /* \"#utility.yul\":14079:14264   */\n      swap3\n      swap2\n      pop\n      pop\n      jump\t// out\n        /* \"#utility.yul\":14270:14496   */\n    tag_417:\n        /* \"#utility.yul\":14410:14444   */\n      0x4b616a75737761703a20494e53554646494349454e545f4c4951554944495459\n        /* \"#utility.yul\":14406:14407   */\n      0x00\n        /* \"#utility.yul\":14398:14404   */\n      dup3\n        /* \"#utility.yul\":14394:14408   */\n      add\n        /* \"#utility.yul\":14387:14445   */\n      mstore\n        /* \"#utility.yul\":14479:14488   */\n      0x5f4d494e54454400000000000000000000000000000000000000000000000000\n        /* \"#utility.yul\":14474:14476   */\n      0x20\n        /* \"#utility.yul\":14466:14472   */\n      dup3\n        /* \"#utility.yul\":14462:14477   */\n      add\n        /* \"#utility.yul\":14455:14489   */\n      mstore\n        /* \"#utility.yul\":14270:14496   */\n      pop\n      jump\t// out\n        /* \"#utility.yul\":14502:14868   */\n    tag_418:\n        /* \"#utility.yul\":14644:14647   */\n      0x00\n        /* \"#utility.yul\":14665:14732   */\n      tag_610\n        /* \"#utility.yul\":14729:14731   */\n      0x27\n        /* \"#utility.yul\":14724:14727   */\n      dup4\n        /* \"#utility.yul\":14665:14732   */\n      tag_379\n      jump\t// in\n    tag_610:\n        /* \"#utility.yul\":14658:14732   */\n      swap2\n      pop\n        /* \"#utility.yul\":14741:14834   */\n      tag_611\n        /* \"#utility.yul\":14830:14833   */\n      dup3\n        /* \"#utility.yul\":14741:14834   */\n      tag_417\n      jump\t// in\n    tag_611:\n        /* \"#utility.yul\":14859:14861   */\n      0x40\n        /* \"#utility.yul\":14854:14857   */\n      dup3\n        /* \"#utility.yul\":14850:14862   */\n      add\n        /* \"#utility.yul\":14843:14862   */\n      swap1\n      pop\n        /* \"#utility.yul\":14502:14868   */\n      swap2\n      swap1\n      pop\n      jump\t// out\n        /* \"#utility.yul\":14874:15293   */\n    tag_180:\n        /* \"#utility.yul\":15040:15044   */\n      0x00\n        /* \"#utility.yul\":15078:15080   */\n      0x20\n        /* \"#utility.yul\":15067:15076   */\n      dup3\n        /* \"#utility.yul\":15063:15081   */\n      add\n        /* \"#utility.yul\":15055:15081   */\n      swap1\n      pop\n        /* \"#utility.yul\":15127:15136   */\n      dup2\n        /* \"#utility.yul\":15121:15125   */\n      dup2\n        /* \"#utility.yul\":15117:15137   */\n      sub\n        /* \"#utility.yul\":15113:15114   */\n      0x00\n        /* \"#utility.yul\":15102:15111   */\n      dup4\n        /* \"#utility.yul\":15098:15115   */\n      add\n        /* \"#utility.yul\":15091:15138   */\n      mstore\n        /* \"#utility.yul\":15155:15286   */\n      tag_613\n        /* \"#utility.yul\":15281:15285   */\n      dup2\n        /* \"#utility.yul\":15155:15286   */\n      tag_418\n      jump\t// in\n    tag_613:\n        /* \"#utility.yul\":15147:15286   */\n      swap1\n      pop\n        /* \"#utility.yul\":14874:15293   */\n      swap2\n      swap1\n      pop\n      jump\t// out\n        /* \"#utility.yul\":15299:15522   */\n    tag_419:\n        /* \"#utility.yul\":15439:15473   */\n      0x4b616a75737761703a20494e53554646494349454e545f4f55545055545f414d\n        /* \"#utility.yul\":15435:15436   */\n      0x00\n        /* \"#utility.yul\":15427:15433   */\n      dup3\n        /* \"#utility.yul\":15423:15437   */\n      add\n        /* \"#utility.yul\":15416:15474   */\n      mstore\n        /* \"#utility.yul\":15508:15514   */\n      0x4f554e5400000000000000000000000000000000000000000000000000000000\n        /* \"#utility.yul\":15503:15505   */\n      0x20\n        /* \"#utility.yul\":15495:15501   */\n      dup3\n        /* \"#utility.yul\":15491:15506   */\n      add\n        /* \"#utility.yul\":15484:15515   */\n      mstore\n        /* \"#utility.yul\":15299:15522   */\n      pop\n      jump\t// out\n        /* \"#utility.yul\":15528:15894   */\n    tag_420:\n        /* \"#utility.yul\":15670:15673   */\n      0x00\n        /* \"#utility.yul\":15691:15758   */\n      tag_616\n        /* \"#utility.yul\":15755:15757   */\n      0x24\n        /* \"#utility.yul\":15750:15753   */\n      dup4\n        /* \"#utility.yul\":15691:15758   */\n      tag_379\n      jump\t// in\n    tag_616:\n        /* \"#utility.yul\":15684:15758   */\n      swap2\n      pop\n        /* \"#utility.yul\":15767:15860   */\n      tag_617\n        /* \"#utility.yul\":15856:15859   */\n      dup3\n        /* \"#utility.yul\":15767:15860   */\n      tag_419\n      jump\t// in\n    tag_617:\n        /* \"#utility.yul\":15885:15887   */\n      0x40\n        /* \"#utility.yul\":15880:15883   */\n      dup3\n        /* \"#utility.yul\":15876:15888   */\n      add\n        /* \"#utility.yul\":15869:15888   */\n      swap1\n      pop\n        /* \"#utility.yul\":15528:15894   */\n      swap2\n      swap1\n      pop\n      jump\t// out\n        /* \"#utility.yul\":15900:16319   */\n    tag_192:\n        /* \"#utility.yul\":16066:16070   */\n      0x00\n        /* \"#utility.yul\":16104:16106   */\n      0x20\n        /* \"#utility.yul\":16093:16102   */\n      dup3\n        /* \"#utility.yul\":16089:16107   */\n      add\n        /* \"#utility.yul\":16081:16107   */\n      swap1\n      pop\n        /* \"#utility.yul\":16153:16162   */\n      dup2\n        /* \"#utility.yul\":16147:16151   */\n      dup2\n        /* \"#utility.yul\":16143:16163   */\n      sub\n        /* \"#utility.yul\":16139:16140   */\n      0x00\n        /* \"#utility.yul\":16128:16137   */\n      dup4\n        /* \"#utility.yul\":16124:16141   */\n      add\n        /* \"#utility.yul\":16117:16164   */\n      mstore\n        /* \"#utility.yul\":16181:16312   */\n      tag_619\n        /* \"#utility.yul\":16307:16311   */\n      dup2\n        /* \"#utility.yul\":16181:16312   */\n      tag_420\n      jump\t// in\n    tag_619:\n        /* \"#utility.yul\":16173:16312   */\n      swap1\n      pop\n        /* \"#utility.yul\":15900:16319   */\n      swap2\n      swap1\n      pop\n      jump\t// out\n        /* \"#utility.yul\":16325:16507   */\n    tag_421:\n        /* \"#utility.yul\":16465:16499   */\n      0x4b616a75737761703a20494e53554646494349454e545f4c4951554944495459\n        /* \"#utility.yul\":16461:16462   */\n      0x00\n        /* \"#utility.yul\":16453:16459   */\n      dup3\n        /* \"#utility.yul\":16449:16463   */\n      add\n        /* \"#utility.yul\":16442:16500   */\n      mstore\n        /* \"#utility.yul\":16325:16507   */\n      pop\n      jump\t// out\n        /* \"#utility.yul\":16513:16879   */\n    tag_422:\n        /* \"#utility.yul\":16655:16658   */\n      0x00\n        /* \"#utility.yul\":16676:16743   */\n      tag_622\n        /* \"#utility.yul\":16740:16742   */\n      0x20\n        /* \"#utility.yul\":16735:16738   */\n      dup4\n        /* \"#utility.yul\":16676:16743   */\n      tag_379\n      jump\t// in\n    tag_622:\n        /* \"#utility.yul\":16669:16743   */\n      swap2\n      pop\n        /* \"#utility.yul\":16752:16845   */\n      tag_623\n        /* \"#utility.yul\":16841:16844   */\n      dup3\n        /* \"#utility.yul\":16752:16845   */\n      tag_421\n      jump\t// in\n    tag_623:\n        /* \"#utility.yul\":16870:16872   */\n      0x20\n        /* \"#utility.yul\":16865:16868   */\n      dup3\n        /* \"#utility.yul\":16861:16873   */\n      add\n        /* \"#utility.yul\":16854:16873   */\n      swap1\n      pop\n        /* \"#utility.yul\":16513:16879   */\n      swap2\n      swap1\n      pop\n      jump\t// out\n        /* \"#utility.yul\":16885:17304   */\n    tag_197:\n        /* \"#utility.yul\":17051:17055   */\n      0x00\n        /* \"#utility.yul\":17089:17091   */\n      0x20\n        /* \"#utility.yul\":17078:17087   */\n      dup3\n        /* \"#utility.yul\":17074:17092   */\n      add\n        /* \"#utility.yul\":17066:17092   */\n      swap1\n      pop\n        /* \"#utility.yul\":17138:17147   */\n      dup2\n        /* \"#utility.yul\":17132:17136   */\n      dup2\n        /* \"#utility.yul\":17128:17148   */\n      sub\n        /* \"#utility.yul\":17124:17125   */\n      0x00\n        /* \"#utility.yul\":17113:17122   */\n      dup4\n        /* \"#utility.yul\":17109:17126   */\n      add\n        /* \"#utility.yul\":17102:17149   */\n      mstore\n        /* \"#utility.yul\":17166:17297   */\n      tag_625\n        /* \"#utility.yul\":17292:17296   */\n      dup2\n        /* \"#utility.yul\":17166:17297   */\n      tag_422\n      jump\t// in\n    tag_625:\n        /* \"#utility.yul\":17158:17297   */\n      swap1\n      pop\n        /* \"#utility.yul\":16885:17304   */\n      swap2\n      swap1\n      pop\n      jump\t// out\n        /* \"#utility.yul\":17310:17532   */\n    tag_423:\n        /* \"#utility.yul\":17450:17484   */\n      0x4b616a75737761703a20494e53554646494349454e545f494e5055545f414d4f\n        /* \"#utility.yul\":17446:17447   */\n      0x00\n        /* \"#utility.yul\":17438:17444   */\n      dup3\n        /* \"#utility.yul\":17434:17448   */\n      add\n        /* \"#utility.yul\":17427:17485   */\n      mstore\n        /* \"#utility.yul\":17519:17524   */\n      0x554e540000000000000000000000000000000000000000000000000000000000\n        /* \"#utility.yul\":17514:17516   */\n      0x20\n        /* \"#utility.yul\":17506:17512   */\n      dup3\n        /* \"#utility.yul\":17502:17517   */\n      add\n        /* \"#utility.yul\":17495:17525   */\n      mstore\n        /* \"#utility.yul\":17310:17532   */\n      pop\n      jump\t// out\n        /* \"#utility.yul\":17538:17904   */\n    tag_424:\n        /* \"#utility.yul\":17680:17683   */\n      0x00\n        /* \"#utility.yul\":17701:17768   */\n      tag_628\n        /* \"#utility.yul\":17765:17767   */\n      0x23\n        /* \"#utility.yul\":17760:17763   */\n      dup4\n        /* \"#utility.yul\":17701:17768   */\n      tag_379\n      jump\t// in\n    tag_628:\n        /* \"#utility.yul\":17694:17768   */\n      swap2\n      pop\n        /* \"#utility.yul\":17777:17870   */\n      tag_629\n        /* \"#utility.yul\":17866:17869   */\n      dup3\n        /* \"#utility.yul\":17777:17870   */\n      tag_423\n      jump\t// in\n    tag_629:\n        /* \"#utility.yul\":17895:17897   */\n      0x40\n        /* \"#utility.yul\":17890:17893   */\n      dup3\n        /* \"#utility.yul\":17886:17898   */\n      add\n        /* \"#utility.yul\":17879:17898   */\n      swap1\n      pop\n        /* \"#utility.yul\":17538:17904   */\n      swap2\n      swap1\n      pop\n      jump\t// out\n        /* \"#utility.yul\":17910:18329   */\n    tag_224:\n        /* \"#utility.yul\":18076:18080   */\n      0x00\n        /* \"#utility.yul\":18114:18116   */\n      0x20\n        /* \"#utility.yul\":18103:18112   */\n      dup3\n        /* \"#utility.yul\":18099:18117   */\n      add\n        /* \"#utility.yul\":18091:18117   */\n      swap1\n      pop\n        /* \"#utility.yul\":18163:18172   */\n      dup2\n        /* \"#utility.yul\":18157:18161   */\n      dup2\n        /* \"#utility.yul\":18153:18173   */\n      sub\n        /* \"#utility.yul\":18149:18150   */\n      0x00\n        /* \"#utility.yul\":18138:18147   */\n      dup4\n        /* \"#utility.yul\":18134:18151   */\n      add\n        /* \"#utility.yul\":18127:18174   */\n      mstore\n        /* \"#utility.yul\":18191:18322   */\n      tag_631\n        /* \"#utility.yul\":18317:18321   */\n      dup2\n        /* \"#utility.yul\":18191:18322   */\n      tag_424\n      jump\t// in\n    tag_631:\n        /* \"#utility.yul\":18183:18322   */\n      swap1\n      pop\n        /* \"#utility.yul\":17910:18329   */\n      swap2\n      swap1\n      pop\n      jump\t// out\n        /* \"#utility.yul\":18335:18504   */\n    tag_425:\n        /* \"#utility.yul\":18475:18496   */\n      0x4b616a75737761703a20494e56414c49445f4b00000000000000000000000000\n        /* \"#utility.yul\":18471:18472   */\n      0x00\n        /* \"#utility.yul\":18463:18469   */\n      dup3\n        /* \"#utility.yul\":18459:18473   */\n      add\n        /* \"#utility.yul\":18452:18497   */\n      mstore\n        /* \"#utility.yul\":18335:18504   */\n      pop\n      jump\t// out\n        /* \"#utility.yul\":18510:18876   */\n    tag_426:\n        /* \"#utility.yul\":18652:18655   */\n      0x00\n        /* \"#utility.yul\":18673:18740   */\n      tag_634\n        /* \"#utility.yul\":18737:18739   */\n      0x13\n        /* \"#utility.yul\":18732:18735   */\n      dup4\n        /* \"#utility.yul\":18673:18740   */\n      tag_379\n      jump\t// in\n    tag_634:\n        /* \"#utility.yul\":18666:18740   */\n      swap2\n      pop\n        /* \"#utility.yul\":18749:18842   */\n      tag_635\n        /* \"#utility.yul\":18838:18841   */\n      dup3\n        /* \"#utility.yul\":18749:18842   */\n      tag_425\n      jump\t// in\n    tag_635:\n        /* \"#utility.yul\":18867:18869   */\n      0x20\n        /* \"#utility.yul\":18862:18865   */\n      dup3\n        /* \"#utility.yul\":18858:18870   */\n      add\n        /* \"#utility.yul\":18851:18870   */\n      swap1\n      pop\n        /* \"#utility.yul\":18510:18876   */\n      swap2\n      swap1\n      pop\n      jump\t// out\n        /* \"#utility.yul\":18882:19301   */\n    tag_236:\n        /* \"#utility.yul\":19048:19052   */\n      0x00\n        /* \"#utility.yul\":19086:19088   */\n      0x20\n        /* \"#utility.yul\":19075:19084   */\n      dup3\n        /* \"#utility.yul\":19071:19089   */\n      add\n        /* \"#utility.yul\":19063:19089   */\n      swap1\n      pop\n        /* \"#utility.yul\":19135:19144   */\n      dup2\n        /* \"#utility.yul\":19129:19133   */\n      dup2\n        /* \"#utility.yul\":19125:19145   */\n      sub\n        /* \"#utility.yul\":19121:19122   */\n      0x00\n        /* \"#utility.yul\":19110:19119   */\n      dup4\n        /* \"#utility.yul\":19106:19123   */\n      add\n        /* \"#utility.yul\":19099:19146   */\n      mstore\n        /* \"#utility.yul\":19163:19294   */\n      tag_637\n        /* \"#utility.yul\":19289:19293   */\n      dup2\n        /* \"#utility.yul\":19163:19294   */\n      tag_426\n      jump\t// in\n    tag_637:\n        /* \"#utility.yul\":19155:19294   */\n      swap1\n      pop\n        /* \"#utility.yul\":18882:19301   */\n      swap2\n      swap1\n      pop\n      jump\t// out\n        /* \"#utility.yul\":19307:19533   */\n    tag_427:\n        /* \"#utility.yul\":19447:19481   */\n      0x4b616a75737761703a20494e53554646494349454e545f4c4951554944495459\n        /* \"#utility.yul\":19443:19444   */\n      0x00\n        /* \"#utility.yul\":19435:19441   */\n      dup3\n        /* \"#utility.yul\":19431:19445   */\n      add\n        /* \"#utility.yul\":19424:19482   */\n      mstore\n        /* \"#utility.yul\":19516:19525   */\n      0x5f4255524e454400000000000000000000000000000000000000000000000000\n        /* \"#utility.yul\":19511:19513   */\n      0x20\n        /* \"#utility.yul\":19503:19509   */\n      dup3\n        /* \"#utility.yul\":19499:19514   */\n      add\n        /* \"#utility.yul\":19492:19526   */\n      mstore\n        /* \"#utility.yul\":19307:19533   */\n      pop\n      jump\t// out\n        /* \"#utility.yul\":19539:19905   */\n    tag_428:\n        /* \"#utility.yul\":19681:19684   */\n      0x00\n        /* \"#utility.yul\":19702:19769   */\n      tag_640\n        /* \"#utility.yul\":19766:19768   */\n      0x27\n        /* \"#utility.yul\":19761:19764   */\n      dup4\n        /* \"#utility.yul\":19702:19769   */\n      tag_379\n      jump\t// in\n    tag_640:\n        /* \"#utility.yul\":19695:19769   */\n      swap2\n      pop\n        /* \"#utility.yul\":19778:19871   */\n      tag_641\n        /* \"#utility.yul\":19867:19870   */\n      dup3\n        /* \"#utility.yul\":19778:19871   */\n      tag_427\n      jump\t// in\n    tag_641:\n        /* \"#utility.yul\":19896:19898   */\n      0x40\n        /* \"#utility.yul\":19891:19894   */\n      dup3\n        /* \"#utility.yul\":19887:19899   */\n      add\n        /* \"#utility.yul\":19880:19899   */\n      swap1\n      pop\n        /* \"#utility.yul\":19539:19905   */\n      swap2\n      swap1\n      pop\n      jump\t// out\n        /* \"#utility.yul\":19911:20330   */\n    tag_258:\n        /* \"#utility.yul\":20077:20081   */\n      0x00\n        /* \"#utility.yul\":20115:20117   */\n      0x20\n        /* \"#utility.yul\":20104:20113   */\n      dup3\n        /* \"#utility.yul\":20100:20118   */\n      add\n        /* \"#utility.yul\":20092:20118   */\n      swap1\n      pop\n        /* \"#utility.yul\":20164:20173   */\n      dup2\n        /* \"#utility.yul\":20158:20162   */\n      dup2\n        /* \"#utility.yul\":20154:20174   */\n      sub\n        /* \"#utility.yul\":20150:20151   */\n      0x00\n        /* \"#utility.yul\":20139:20148   */\n      dup4\n        /* \"#utility.yul\":20135:20152   */\n      add\n        /* \"#utility.yul\":20128:20175   */\n      mstore\n        /* \"#utility.yul\":20192:20323   */\n      tag_643\n        /* \"#utility.yul\":20318:20322   */\n      dup2\n        /* \"#utility.yul\":20192:20323   */\n      tag_428\n      jump\t// in\n    tag_643:\n        /* \"#utility.yul\":20184:20323   */\n      swap1\n      pop\n        /* \"#utility.yul\":19911:20330   */\n      swap2\n      swap1\n      pop\n      jump\t// out\n        /* \"#utility.yul\":20336:20778   */\n    tag_274:\n        /* \"#utility.yul\":20485:20489   */\n      0x00\n        /* \"#utility.yul\":20523:20525   */\n      0x60\n        /* \"#utility.yul\":20512:20521   */\n      dup3\n        /* \"#utility.yul\":20508:20526   */\n      add\n        /* \"#utility.yul\":20500:20526   */\n      swap1\n      pop\n        /* \"#utility.yul\":20536:20607   */\n      tag_645\n        /* \"#utility.yul\":20604:20605   */\n      0x00\n        /* \"#utility.yul\":20593:20602   */\n      dup4\n        /* \"#utility.yul\":20589:20606   */\n      add\n        /* \"#utility.yul\":20580:20586   */\n      dup7\n        /* \"#utility.yul\":20536:20607   */\n      tag_400\n      jump\t// in\n    tag_645:\n        /* \"#utility.yul\":20617:20689   */\n      tag_646\n        /* \"#utility.yul\":20685:20687   */\n      0x20\n        /* \"#utility.yul\":20674:20683   */\n      dup4\n        /* \"#utility.yul\":20670:20688   */\n      add\n        /* \"#utility.yul\":20661:20667   */\n      dup6\n        /* \"#utility.yul\":20617:20689   */\n      tag_400\n      jump\t// in\n    tag_646:\n        /* \"#utility.yul\":20699:20771   */\n      tag_647\n        /* \"#utility.yul\":20767:20769   */\n      0x40\n        /* \"#utility.yul\":20756:20765   */\n      dup4\n        /* \"#utility.yul\":20752:20770   */\n      add\n        /* \"#utility.yul\":20743:20749   */\n      dup5\n        /* \"#utility.yul\":20699:20771   */\n      tag_399\n      jump\t// in\n    tag_647:\n        /* \"#utility.yul\":20336:20778   */\n      swap5\n      swap4\n      pop\n      pop\n      pop\n      pop\n      jump\t// out\n        /* \"#utility.yul\":20784:20957   */\n    tag_429:\n        /* \"#utility.yul\":20924:20949   */\n      0x5045524d49545f444541444c494e455f45585049524544000000000000000000\n        /* \"#utility.yul\":20920:20921   */\n      0x00\n        /* \"#utility.yul\":20912:20918   */\n      dup3\n        /* \"#utility.yul\":20908:20922   */\n      add\n        /* \"#utility.yul\":20901:20950   */\n      mstore\n        /* \"#utility.yul\":20784:20957   */\n      pop\n      jump\t// out\n        /* \"#utility.yul\":20963:21329   */\n    tag_430:\n        /* \"#utility.yul\":21105:21108   */\n      0x00\n        /* \"#utility.yul\":21126:21193   */\n      tag_650\n        /* \"#utility.yul\":21190:21192   */\n      0x17\n        /* \"#utility.yul\":21185:21188   */\n      dup4\n        /* \"#utility.yul\":21126:21193   */\n      tag_379\n      jump\t// in\n    tag_650:\n        /* \"#utility.yul\":21119:21193   */\n      swap2\n      pop\n        /* \"#utility.yul\":21202:21295   */\n      tag_651\n        /* \"#utility.yul\":21291:21294   */\n      dup3\n        /* \"#utility.yul\":21202:21295   */\n      tag_429\n      jump\t// in\n    tag_651:\n        /* \"#utility.yul\":21320:21322   */\n      0x20\n        /* \"#utility.yul\":21315:21318   */\n      dup3\n        /* \"#utility.yul\":21311:21323   */\n      add\n        /* \"#utility.yul\":21304:21323   */\n      swap1\n      pop\n        /* \"#utility.yul\":20963:21329   */\n      swap2\n      swap1\n      pop\n      jump\t// out\n        /* \"#utility.yul\":21335:21754   */\n    tag_286:\n        /* \"#utility.yul\":21501:21505   */\n      0x00\n        /* \"#utility.yul\":21539:21541   */\n      0x20\n        /* \"#utility.yul\":21528:21537   */\n      dup3\n        /* \"#utility.yul\":21524:21542   */\n      add\n        /* \"#utility.yul\":21516:21542   */\n      swap1\n      pop\n        /* \"#utility.yul\":21588:21597   */\n      dup2\n        /* \"#utility.yul\":21582:21586   */\n      dup2\n        /* \"#utility.yul\":21578:21598   */\n      sub\n        /* \"#utility.yul\":21574:21575   */\n      0x00\n        /* \"#utility.yul\":21563:21572   */\n      dup4\n        /* \"#utility.yul\":21559:21576   */\n      add\n        /* \"#utility.yul\":21552:21599   */\n      mstore\n        /* \"#utility.yul\":21616:21747   */\n      tag_653\n        /* \"#utility.yul\":21742:21746   */\n      dup2\n        /* \"#utility.yul\":21616:21747   */\n      tag_430\n      jump\t// in\n    tag_653:\n        /* \"#utility.yul\":21608:21747   */\n      swap1\n      pop\n        /* \"#utility.yul\":21335:21754   */\n      swap2\n      swap1\n      pop\n      jump\t// out\n        /* \"#utility.yul\":21760:22535   */\n    tag_289:\n        /* \"#utility.yul\":21993:21997   */\n      0x00\n        /* \"#utility.yul\":22031:22034   */\n      0xc0\n        /* \"#utility.yul\":22020:22029   */\n      dup3\n        /* \"#utility.yul\":22016:22035   */\n      add\n        /* \"#utility.yul\":22008:22035   */\n      swap1\n      pop\n        /* \"#utility.yul\":22045:22116   */\n      tag_655\n        /* \"#utility.yul\":22113:22114   */\n      0x00\n        /* \"#utility.yul\":22102:22111   */\n      dup4\n        /* \"#utility.yul\":22098:22115   */\n      add\n        /* \"#utility.yul\":22089:22095   */\n      dup10\n        /* \"#utility.yul\":22045:22116   */\n      tag_404\n      jump\t// in\n    tag_655:\n        /* \"#utility.yul\":22126:22198   */\n      tag_656\n        /* \"#utility.yul\":22194:22196   */\n      0x20\n        /* \"#utility.yul\":22183:22192   */\n      dup4\n        /* \"#utility.yul\":22179:22197   */\n      add\n        /* \"#utility.yul\":22170:22176   */\n      dup9\n        /* \"#utility.yul\":22126:22198   */\n      tag_399\n      jump\t// in\n    tag_656:\n        /* \"#utility.yul\":22208:22280   */\n      tag_657\n        /* \"#utility.yul\":22276:22278   */\n      0x40\n        /* \"#utility.yul\":22265:22274   */\n      dup4\n        /* \"#utility.yul\":22261:22279   */\n      add\n        /* \"#utility.yul\":22252:22258   */\n      dup8\n        /* \"#utility.yul\":22208:22280   */\n      tag_399\n      jump\t// in\n    tag_657:\n        /* \"#utility.yul\":22290:22362   */\n      tag_658\n        /* \"#utility.yul\":22358:22360   */\n      0x60\n        /* \"#utility.yul\":22347:22356   */\n      dup4\n        /* \"#utility.yul\":22343:22361   */\n      add\n        /* \"#utility.yul\":22334:22340   */\n      dup7\n        /* \"#utility.yul\":22290:22362   */\n      tag_400\n      jump\t// in\n    tag_658:\n        /* \"#utility.yul\":22372:22445   */\n      tag_659\n        /* \"#utility.yul\":22440:22443   */\n      0x80\n        /* \"#utility.yul\":22429:22438   */\n      dup4\n        /* \"#utility.yul\":22425:22444   */\n      add\n        /* \"#utility.yul\":22416:22422   */\n      dup6\n        /* \"#utility.yul\":22372:22445   */\n      tag_400\n      jump\t// in\n    tag_659:\n        /* \"#utility.yul\":22455:22528   */\n      tag_660\n        /* \"#utility.yul\":22523:22526   */\n      0xa0\n        /* \"#utility.yul\":22512:22521   */\n      dup4\n        /* \"#utility.yul\":22508:22527   */\n      add\n        /* \"#utility.yul\":22499:22505   */\n      dup5\n        /* \"#utility.yul\":22455:22528   */\n      tag_400\n      jump\t// in\n    tag_660:\n        /* \"#utility.yul\":21760:22535   */\n      swap8\n      swap7\n      pop\n      pop\n      pop\n      pop\n      pop\n      pop\n      pop\n      jump\t// out\n        /* \"#utility.yul\":22541:22689   */\n    tag_431:\n        /* \"#utility.yul\":22643:22654   */\n      0x00\n        /* \"#utility.yul\":22680:22683   */\n      dup2\n        /* \"#utility.yul\":22665:22683   */\n      swap1\n      pop\n        /* \"#utility.yul\":22541:22689   */\n      swap3\n      swap2\n      pop\n      pop\n      jump\t// out\n        /* \"#utility.yul\":22695:22909   */\n    tag_432:\n        /* \"#utility.yul\":22835:22901   */\n      0x1901000000000000000000000000000000000000000000000000000000000000\n        /* \"#utility.yul\":22831:22832   */\n      0x00\n        /* \"#utility.yul\":22823:22829   */\n      dup3\n        /* \"#utility.yul\":22819:22833   */\n      add\n        /* \"#utility.yul\":22812:22902   */\n      mstore\n        /* \"#utility.yul\":22695:22909   */\n      pop\n      jump\t// out\n        /* \"#utility.yul\":22915:23315   */\n    tag_433:\n        /* \"#utility.yul\":23075:23078   */\n      0x00\n        /* \"#utility.yul\":23096:23180   */\n      tag_664\n        /* \"#utility.yul\":23178:23179   */\n      0x02\n        /* \"#utility.yul\":23173:23176   */\n      dup4\n        /* \"#utility.yul\":23096:23180   */\n      tag_431\n      jump\t// in\n    tag_664:\n        /* \"#utility.yul\":23089:23180   */\n      swap2\n      pop\n        /* \"#utility.yul\":23189:23282   */\n      tag_665\n        /* \"#utility.yul\":23278:23281   */\n      dup3\n        /* \"#utility.yul\":23189:23282   */\n      tag_432\n      jump\t// in\n    tag_665:\n        /* \"#utility.yul\":23307:23308   */\n      0x02\n        /* \"#utility.yul\":23302:23305   */\n      dup3\n        /* \"#utility.yul\":23298:23309   */\n      add\n        /* \"#utility.yul\":23291:23309   */\n      swap1\n      pop\n        /* \"#utility.yul\":22915:23315   */\n      swap2\n      swap1\n      pop\n      jump\t// out\n        /* \"#utility.yul\":23321:23400   */\n    tag_434:\n        /* \"#utility.yul\":23360:23367   */\n      0x00\n        /* \"#utility.yul\":23389:23394   */\n      dup2\n        /* \"#utility.yul\":23378:23394   */\n      swap1\n      pop\n        /* \"#utility.yul\":23321:23400   */\n      swap2\n      swap1\n      pop\n      jump\t// out\n        /* \"#utility.yul\":23406:23563   */\n    tag_435:\n        /* \"#utility.yul\":23511:23556   */\n      tag_668\n        /* \"#utility.yul\":23531:23555   */\n      tag_669\n        /* \"#utility.yul\":23549:23554   */\n      dup3\n        /* \"#utility.yul\":23531:23555   */\n      tag_403\n      jump\t// in\n    tag_669:\n        /* \"#utility.yul\":23511:23556   */\n      tag_434\n      jump\t// in\n    tag_668:\n        /* \"#utility.yul\":23506:23509   */\n      dup3\n        /* \"#utility.yul\":23499:23557   */\n      mstore\n        /* \"#utility.yul\":23406:23563   */\n      pop\n      pop\n      jump\t// out\n        /* \"#utility.yul\":23569:24232   */\n    tag_291:\n        /* \"#utility.yul\":23810:23813   */\n      0x00\n        /* \"#utility.yul\":23832:23980   */\n      tag_671\n        /* \"#utility.yul\":23976:23979   */\n      dup3\n        /* \"#utility.yul\":23832:23980   */\n      tag_433\n      jump\t// in\n    tag_671:\n        /* \"#utility.yul\":23825:23980   */\n      swap2\n      pop\n        /* \"#utility.yul\":23990:24065   */\n      tag_672\n        /* \"#utility.yul\":24061:24064   */\n      dup3\n        /* \"#utility.yul\":24052:24058   */\n      dup6\n        /* \"#utility.yul\":23990:24065   */\n      tag_435\n      jump\t// in\n    tag_672:\n        /* \"#utility.yul\":24090:24092   */\n      0x20\n        /* \"#utility.yul\":24085:24088   */\n      dup3\n        /* \"#utility.yul\":24081:24093   */\n      add\n        /* \"#utility.yul\":24074:24093   */\n      swap2\n      pop\n        /* \"#utility.yul\":24103:24178   */\n      tag_673\n        /* \"#utility.yul\":24174:24177   */\n      dup3\n        /* \"#utility.yul\":24165:24171   */\n      dup5\n        /* \"#utility.yul\":24103:24178   */\n      tag_435\n      jump\t// in\n    tag_673:\n        /* \"#utility.yul\":24203:24205   */\n      0x20\n        /* \"#utility.yul\":24198:24201   */\n      dup3\n        /* \"#utility.yul\":24194:24206   */\n      add\n        /* \"#utility.yul\":24187:24206   */\n      swap2\n      pop\n        /* \"#utility.yul\":24223:24226   */\n      dup2\n        /* \"#utility.yul\":24216:24226   */\n      swap1\n      pop\n        /* \"#utility.yul\":23569:24232   */\n      swap4\n      swap3\n      pop\n      pop\n      pop\n      jump\t// out\n        /* \"#utility.yul\":24238:24783   */\n    tag_293:\n        /* \"#utility.yul\":24411:24415   */\n      0x00\n        /* \"#utility.yul\":24449:24452   */\n      0x80\n        /* \"#utility.yul\":24438:24447   */\n      dup3\n        /* \"#utility.yul\":24434:24453   */\n      add\n        /* \"#utility.yul\":24426:24453   */\n      swap1\n      pop\n        /* \"#utility.yul\":24463:24534   */\n      tag_675\n        /* \"#utility.yul\":24531:24532   */\n      0x00\n        /* \"#utility.yul\":24520:24529   */\n      dup4\n        /* \"#utility.yul\":24516:24533   */\n      add\n        /* \"#utility.yul\":24507:24513   */\n      dup8\n        /* \"#utility.yul\":24463:24534   */\n      tag_404\n      jump\t// in\n    tag_675:\n        /* \"#utility.yul\":24544:24612   */\n      tag_676\n        /* \"#utility.yul\":24608:24610   */\n      0x20\n        /* \"#utility.yul\":24597:24606   */\n      dup4\n        /* \"#utility.yul\":24593:24611   */\n      add\n        /* \"#utility.yul\":24584:24590   */\n      dup7\n        /* \"#utility.yul\":24544:24612   */\n      tag_402\n      jump\t// in\n    tag_676:\n        /* \"#utility.yul\":24622:24694   */\n      tag_677\n        /* \"#utility.yul\":24690:24692   */\n      0x40\n        /* \"#utility.yul\":24679:24688   */\n      dup4\n        /* \"#utility.yul\":24675:24693   */\n      add\n        /* \"#utility.yul\":24666:24672   */\n      dup6\n        /* \"#utility.yul\":24622:24694   */\n      tag_404\n      jump\t// in\n    tag_677:\n        /* \"#utility.yul\":24704:24776   */\n      tag_678\n        /* \"#utility.yul\":24772:24774   */\n      0x60\n        /* \"#utility.yul\":24761:24770   */\n      dup4\n        /* \"#utility.yul\":24757:24775   */\n      add\n        /* \"#utility.yul\":24748:24754   */\n      dup5\n        /* \"#utility.yul\":24704:24776   */\n      tag_404\n      jump\t// in\n    tag_678:\n        /* \"#utility.yul\":24238:24783   */\n      swap6\n      swap5\n      pop\n      pop\n      pop\n      pop\n      pop\n      jump\t// out\n        /* \"#utility.yul\":24789:24953   */\n    tag_436:\n        /* \"#utility.yul\":24929:24945   */\n      0x494e56414c49445f5349474e4552000000000000000000000000000000000000\n        /* \"#utility.yul\":24925:24926   */\n      0x00\n        /* \"#utility.yul\":24917:24923   */\n      dup3\n        /* \"#utility.yul\":24913:24927   */\n      add\n        /* \"#utility.yul\":24906:24946   */\n      mstore\n        /* \"#utility.yul\":24789:24953   */\n      pop\n      jump\t// out\n        /* \"#utility.yul\":24959:25325   */\n    tag_437:\n        /* \"#utility.yul\":25101:25104   */\n      0x00\n        /* \"#utility.yul\":25122:25189   */\n      tag_681\n        /* \"#utility.yul\":25186:25188   */\n      0x0e\n        /* \"#utility.yul\":25181:25184   */\n      dup4\n        /* \"#utility.yul\":25122:25189   */\n      tag_379\n      jump\t// in\n    tag_681:\n        /* \"#utility.yul\":25115:25189   */\n      swap2\n      pop\n        /* \"#utility.yul\":25198:25291   */\n      tag_682\n        /* \"#utility.yul\":25287:25290   */\n      dup3\n        /* \"#utility.yul\":25198:25291   */\n      tag_436\n      jump\t// in\n    tag_682:\n        /* \"#utility.yul\":25316:25318   */\n      0x20\n        /* \"#utility.yul\":25311:25314   */\n      dup3\n        /* \"#utility.yul\":25307:25319   */\n      add\n        /* \"#utility.yul\":25300:25319   */\n      swap1\n      pop\n        /* \"#utility.yul\":24959:25325   */\n      swap2\n      swap1\n      pop\n      jump\t// out\n        /* \"#utility.yul\":25331:25750   */\n    tag_299:\n        /* \"#utility.yul\":25497:25501   */\n      0x00\n        /* \"#utility.yul\":25535:25537   */\n      0x20\n        /* \"#utility.yul\":25524:25533   */\n      dup3\n        /* \"#utility.yul\":25520:25538   */\n      add\n        /* \"#utility.yul\":25512:25538   */\n      swap1\n      pop\n        /* \"#utility.yul\":25584:25593   */\n      dup2\n        /* \"#utility.yul\":25578:25582   */\n      dup2\n        /* \"#utility.yul\":25574:25594   */\n      sub\n        /* \"#utility.yul\":25570:25571   */\n      0x00\n        /* \"#utility.yul\":25559:25568   */\n      dup4\n        /* \"#utility.yul\":25555:25572   */\n      add\n        /* \"#utility.yul\":25548:25595   */\n      mstore\n        /* \"#utility.yul\":25612:25743   */\n      tag_684\n        /* \"#utility.yul\":25738:25742   */\n      dup2\n        /* \"#utility.yul\":25612:25743   */\n      tag_437\n      jump\t// in\n    tag_684:\n        /* \"#utility.yul\":25604:25743   */\n      swap1\n      pop\n        /* \"#utility.yul\":25331:25750   */\n      swap2\n      swap1\n      pop\n      jump\t// out\n        /* \"#utility.yul\":25756:25903   */\n    tag_438:\n        /* \"#utility.yul\":25857:25868   */\n      0x00\n        /* \"#utility.yul\":25894:25897   */\n      dup2\n        /* \"#utility.yul\":25879:25897   */\n      swap1\n      pop\n        /* \"#utility.yul\":25756:25903   */\n      swap3\n      swap2\n      pop\n      pop\n      jump\t// out\n        /* \"#utility.yul\":25909:26053   */\n    tag_439:\n        /* \"#utility.yul\":25961:25965   */\n      0x00\n        /* \"#utility.yul\":25984:25987   */\n      dup2\n        /* \"#utility.yul\":25976:25987   */\n      swap1\n      pop\n        /* \"#utility.yul\":26007:26010   */\n      dup2\n        /* \"#utility.yul\":26004:26005   */\n      0x00\n        /* \"#utility.yul\":25997:26011   */\n      mstore\n        /* \"#utility.yul\":26041:26045   */\n      0x20\n        /* \"#utility.yul\":26038:26039   */\n      0x00\n        /* \"#utility.yul\":26028:26046   */\n      keccak256\n        /* \"#utility.yul\":26020:26046   */\n      swap1\n      pop\n        /* \"#utility.yul\":25909:26053   */\n      swap2\n      swap1\n      pop\n      jump\t// out\n        /* \"#utility.yul\":26081:26959   */\n    tag_440:\n        /* \"#utility.yul\":26186:26189   */\n      0x00\n        /* \"#utility.yul\":26223:26228   */\n      dup2\n        /* \"#utility.yul\":26217:26229   */\n      sload\n        /* \"#utility.yul\":26252:26288   */\n      tag_688\n        /* \"#utility.yul\":26278:26287   */\n      dup2\n        /* \"#utility.yul\":26252:26288   */\n      tag_120\n      jump\t// in\n    tag_688:\n        /* \"#utility.yul\":26304:26392   */\n      tag_689\n        /* \"#utility.yul\":26385:26391   */\n      dup2\n        /* \"#utility.yul\":26380:26383   */\n      dup7\n        /* \"#utility.yul\":26304:26392   */\n      tag_438\n      jump\t// in\n    tag_689:\n        /* \"#utility.yul\":26297:26392   */\n      swap5\n      pop\n        /* \"#utility.yul\":26423:26424   */\n      0x01\n        /* \"#utility.yul\":26412:26421   */\n      dup3\n        /* \"#utility.yul\":26408:26425   */\n      and\n        /* \"#utility.yul\":26439:26440   */\n      0x00\n        /* \"#utility.yul\":26434:26600   */\n      dup2\n      eq\n      tag_691\n      jumpi\n        /* \"#utility.yul\":26614:26615   */\n      0x01\n        /* \"#utility.yul\":26609:26953   */\n      dup2\n      eq\n      tag_692\n      jumpi\n        /* \"#utility.yul\":26401:26953   */\n      jump(tag_690)\n        /* \"#utility.yul\":26434:26600   */\n    tag_691:\n        /* \"#utility.yul\":26518:26522   */\n      0xff\n        /* \"#utility.yul\":26514:26523   */\n      not\n        /* \"#utility.yul\":26503:26512   */\n      dup4\n        /* \"#utility.yul\":26499:26524   */\n      and\n        /* \"#utility.yul\":26494:26497   */\n      dup7\n        /* \"#utility.yul\":26487:26525   */\n      mstore\n        /* \"#utility.yul\":26580:26586   */\n      dup2\n        /* \"#utility.yul\":26573:26587   */\n      iszero\n        /* \"#utility.yul\":26566:26588   */\n      iszero\n        /* \"#utility.yul\":26558:26564   */\n      dup3\n        /* \"#utility.yul\":26554:26589   */\n      mul\n        /* \"#utility.yul\":26549:26552   */\n      dup7\n        /* \"#utility.yul\":26545:26590   */\n      add\n        /* \"#utility.yul\":26538:26590   */\n      swap4\n      pop\n        /* \"#utility.yul\":26434:26600   */\n      jump(tag_690)\n        /* \"#utility.yul\":26609:26953   */\n    tag_692:\n        /* \"#utility.yul\":26676:26717   */\n      tag_693\n        /* \"#utility.yul\":26711:26716   */\n      dup6\n        /* \"#utility.yul\":26676:26717   */\n      tag_439\n      jump\t// in\n    tag_693:\n        /* \"#utility.yul\":26739:26740   */\n      0x00\n        /* \"#utility.yul\":26753:26907   */\n    tag_694:\n        /* \"#utility.yul\":26767:26773   */\n      dup4\n        /* \"#utility.yul\":26764:26765   */\n      dup2\n        /* \"#utility.yul\":26761:26774   */\n      lt\n        /* \"#utility.yul\":26753:26907   */\n      iszero\n      tag_696\n      jumpi\n        /* \"#utility.yul\":26841:26848   */\n      dup2\n        /* \"#utility.yul\":26835:26849   */\n      sload\n        /* \"#utility.yul\":26831:26832   */\n      dup2\n        /* \"#utility.yul\":26826:26829   */\n      dup10\n        /* \"#utility.yul\":26822:26833   */\n      add\n        /* \"#utility.yul\":26815:26850   */\n      mstore\n        /* \"#utility.yul\":26891:26892   */\n      0x01\n        /* \"#utility.yul\":26882:26889   */\n      dup3\n        /* \"#utility.yul\":26878:26893   */\n      add\n        /* \"#utility.yul\":26867:26893   */\n      swap2\n      pop\n        /* \"#utility.yul\":26789:26793   */\n      0x20\n        /* \"#utility.yul\":26786:26787   */\n      dup2\n        /* \"#utility.yul\":26782:26794   */\n      add\n        /* \"#utility.yul\":26777:26794   */\n      swap1\n      pop\n        /* \"#utility.yul\":26753:26907   */\n      jump(tag_694)\n    tag_696:\n        /* \"#utility.yul\":26936:26942   */\n      dup4\n        /* \"#utility.yul\":26931:26934   */\n      dup9\n        /* \"#utility.yul\":26927:26943   */\n      add\n        /* \"#utility.yul\":26920:26943   */\n      swap6\n      pop\n        /* \"#utility.yul\":26616:26953   */\n      pop\n      pop\n        /* \"#utility.yul\":26401:26953   */\n    tag_690:\n      pop\n        /* \"#utility.yul\":26190:26959   */\n      pop\n      pop\n        /* \"#utility.yul\":26081:26959   */\n      swap3\n      swap2\n      pop\n      pop\n      jump\t// out\n        /* \"#utility.yul\":26965:27238   */\n    tag_317:\n        /* \"#utility.yul\":27096:27099   */\n      0x00\n        /* \"#utility.yul\":27118:27212   */\n      tag_698\n        /* \"#utility.yul\":27208:27211   */\n      dup3\n        /* \"#utility.yul\":27199:27205   */\n      dup5\n        /* \"#utility.yul\":27118:27212   */\n      tag_440\n      jump\t// in\n    tag_698:\n        /* \"#utility.yul\":27111:27212   */\n      swap2\n      pop\n        /* \"#utility.yul\":27229:27232   */\n      dup2\n        /* \"#utility.yul\":27222:27232   */\n      swap1\n      pop\n        /* \"#utility.yul\":26965:27238   */\n      swap3\n      swap2\n      pop\n      pop\n      jump\t// out\n        /* \"#utility.yul\":27244:27908   */\n    tag_319:\n        /* \"#utility.yul\":27449:27453   */\n      0x00\n        /* \"#utility.yul\":27487:27490   */\n      0xa0\n        /* \"#utility.yul\":27476:27485   */\n      dup3\n        /* \"#utility.yul\":27472:27491   */\n      add\n        /* \"#utility.yul\":27464:27491   */\n      swap1\n      pop\n        /* \"#utility.yul\":27501:27572   */\n      tag_700\n        /* \"#utility.yul\":27569:27570   */\n      0x00\n        /* \"#utility.yul\":27558:27567   */\n      dup4\n        /* \"#utility.yul\":27554:27571   */\n      add\n        /* \"#utility.yul\":27545:27551   */\n      dup9\n        /* \"#utility.yul\":27501:27572   */\n      tag_404\n      jump\t// in\n    tag_700:\n        /* \"#utility.yul\":27582:27654   */\n      tag_701\n        /* \"#utility.yul\":27650:27652   */\n      0x20\n        /* \"#utility.yul\":27639:27648   */\n      dup4\n        /* \"#utility.yul\":27635:27653   */\n      add\n        /* \"#utility.yul\":27626:27632   */\n      dup8\n        /* \"#utility.yul\":27582:27654   */\n      tag_404\n      jump\t// in\n    tag_701:\n        /* \"#utility.yul\":27664:27736   */\n      tag_702\n        /* \"#utility.yul\":27732:27734   */\n      0x40\n        /* \"#utility.yul\":27721:27730   */\n      dup4\n        /* \"#utility.yul\":27717:27735   */\n      add\n        /* \"#utility.yul\":27708:27714   */\n      dup7\n        /* \"#utility.yul\":27664:27736   */\n      tag_404\n      jump\t// in\n    tag_702:\n        /* \"#utility.yul\":27746:27818   */\n      tag_703\n        /* \"#utility.yul\":27814:27816   */\n      0x60\n        /* \"#utility.yul\":27803:27812   */\n      dup4\n        /* \"#utility.yul\":27799:27817   */\n      add\n        /* \"#utility.yul\":27790:27796   */\n      dup6\n        /* \"#utility.yul\":27746:27818   */\n      tag_400\n      jump\t// in\n    tag_703:\n        /* \"#utility.yul\":27828:27901   */\n      tag_704\n        /* \"#utility.yul\":27896:27899   */\n      0x80\n        /* \"#utility.yul\":27885:27894   */\n      dup4\n        /* \"#utility.yul\":27881:27900   */\n      add\n        /* \"#utility.yul\":27872:27878   */\n      dup5\n        /* \"#utility.yul\":27828:27901   */\n      tag_399\n      jump\t// in\n    tag_704:\n        /* \"#utility.yul\":27244:27908   */\n      swap7\n      swap6\n      pop\n      pop\n      pop\n      pop\n      pop\n      pop\n      jump\t// out\n        /* \"#utility.yul\":27914:28105   */\n    tag_324:\n        /* \"#utility.yul\":27954:27957   */\n      0x00\n        /* \"#utility.yul\":27973:27993   */\n      tag_706\n        /* \"#utility.yul\":27991:27992   */\n      dup3\n        /* \"#utility.yul\":27973:27993   */\n      tag_394\n      jump\t// in\n    tag_706:\n        /* \"#utility.yul\":27968:27993   */\n      swap2\n      pop\n        /* \"#utility.yul\":28007:28027   */\n      tag_707\n        /* \"#utility.yul\":28025:28026   */\n      dup4\n        /* \"#utility.yul\":28007:28027   */\n      tag_394\n      jump\t// in\n    tag_707:\n        /* \"#utility.yul\":28002:28027   */\n      swap3\n      pop\n        /* \"#utility.yul\":28050:28051   */\n      dup3\n        /* \"#utility.yul\":28047:28048   */\n      dup3\n        /* \"#utility.yul\":28043:28052   */\n      add\n        /* \"#utility.yul\":28036:28052   */\n      swap1\n      pop\n        /* \"#utility.yul\":28071:28074   */\n      dup1\n        /* \"#utility.yul\":28068:28069   */\n      dup3\n        /* \"#utility.yul\":28065:28075   */\n      gt\n        /* \"#utility.yul\":28062:28098   */\n      iszero\n      tag_708\n      jumpi\n        /* \"#utility.yul\":28078:28096   */\n      tag_709\n      tag_410\n      jump\t// in\n    tag_709:\n        /* \"#utility.yul\":28062:28098   */\n    tag_708:\n        /* \"#utility.yul\":27914:28105   */\n      swap3\n      swap2\n      pop\n      pop\n      jump\t// out\n        /* \"#utility.yul\":28111:28279   */\n    tag_441:\n        /* \"#utility.yul\":28251:28271   */\n      0x4b616a75737761703a204f564552464c4f570000000000000000000000000000\n        /* \"#utility.yul\":28247:28248   */\n      0x00\n        /* \"#utility.yul\":28239:28245   */\n      dup3\n        /* \"#utility.yul\":28235:28249   */\n      add\n        /* \"#utility.yul\":28228:28272   */\n      mstore\n        /* \"#utility.yul\":28111:28279   */\n      pop\n      jump\t// out\n        /* \"#utility.yul\":28285:28651   */\n    tag_442:\n        /* \"#utility.yul\":28427:28430   */\n      0x00\n        /* \"#utility.yul\":28448:28515   */\n      tag_712\n        /* \"#utility.yul\":28512:28514   */\n      0x12\n        /* \"#utility.yul\":28507:28510   */\n      dup4\n        /* \"#utility.yul\":28448:28515   */\n      tag_379\n      jump\t// in\n    tag_712:\n        /* \"#utility.yul\":28441:28515   */\n      swap2\n      pop\n        /* \"#utility.yul\":28524:28617   */\n      tag_713\n        /* \"#utility.yul\":28613:28616   */\n      dup3\n        /* \"#utility.yul\":28524:28617   */\n      tag_441\n      jump\t// in\n    tag_713:\n        /* \"#utility.yul\":28642:28644   */\n      0x20\n        /* \"#utility.yul\":28637:28640   */\n      dup3\n        /* \"#utility.yul\":28633:28645   */\n      add\n        /* \"#utility.yul\":28626:28645   */\n      swap1\n      pop\n        /* \"#utility.yul\":28285:28651   */\n      swap2\n      swap1\n      pop\n      jump\t// out\n        /* \"#utility.yul\":28657:29076   */\n    tag_342:\n        /* \"#utility.yul\":28823:28827   */\n      0x00\n        /* \"#utility.yul\":28861:28863   */\n      0x20\n        /* \"#utility.yul\":28850:28859   */\n      dup3\n        /* \"#utility.yul\":28846:28864   */\n      add\n        /* \"#utility.yul\":28838:28864   */\n      swap1\n      pop\n        /* \"#utility.yul\":28910:28919   */\n      dup2\n        /* \"#utility.yul\":28904:28908   */\n      dup2\n        /* \"#utility.yul\":28900:28920   */\n      sub\n        /* \"#utility.yul\":28896:28897   */\n      0x00\n        /* \"#utility.yul\":28885:28894   */\n      dup4\n        /* \"#utility.yul\":28881:28898   */\n      add\n        /* \"#utility.yul\":28874:28921   */\n      mstore\n        /* \"#utility.yul\":28938:29069   */\n      tag_715\n        /* \"#utility.yul\":29064:29068   */\n      dup2\n        /* \"#utility.yul\":28938:29069   */\n      tag_442\n      jump\t// in\n    tag_715:\n        /* \"#utility.yul\":28930:29069   */\n      swap1\n      pop\n        /* \"#utility.yul\":28657:29076   */\n      swap2\n      swap1\n      pop\n      jump\t// out\n        /* \"#utility.yul\":29082:29142   */\n    tag_443:\n        /* \"#utility.yul\":29110:29113   */\n      0x00\n        /* \"#utility.yul\":29131:29136   */\n      dup2\n        /* \"#utility.yul\":29124:29136   */\n      swap1\n      pop\n        /* \"#utility.yul\":29082:29142   */\n      swap2\n      swap1\n      pop\n      jump\t// out\n        /* \"#utility.yul\":29148:29290   */\n    tag_444:\n        /* \"#utility.yul\":29198:29207   */\n      0x00\n        /* \"#utility.yul\":29231:29284   */\n      tag_718\n        /* \"#utility.yul\":29249:29283   */\n      tag_719\n        /* \"#utility.yul\":29258:29282   */\n      tag_720\n        /* \"#utility.yul\":29276:29281   */\n      dup5\n        /* \"#utility.yul\":29258:29282   */\n      tag_383\n      jump\t// in\n    tag_720:\n        /* \"#utility.yul\":29249:29283   */\n      tag_443\n      jump\t// in\n    tag_719:\n        /* \"#utility.yul\":29231:29284   */\n      tag_394\n      jump\t// in\n    tag_718:\n        /* \"#utility.yul\":29218:29284   */\n      swap1\n      pop\n        /* \"#utility.yul\":29148:29290   */\n      swap2\n      swap1\n      pop\n      jump\t// out\n        /* \"#utility.yul\":29296:29427   */\n    tag_445:\n        /* \"#utility.yul\":29383:29420   */\n      tag_722\n        /* \"#utility.yul\":29414:29419   */\n      dup2\n        /* \"#utility.yul\":29383:29420   */\n      tag_444\n      jump\t// in\n    tag_722:\n        /* \"#utility.yul\":29378:29381   */\n      dup3\n        /* \"#utility.yul\":29371:29421   */\n      mstore\n        /* \"#utility.yul\":29296:29427   */\n      pop\n      pop\n      jump\t// out\n        /* \"#utility.yul\":29433:29765   */\n    tag_353:\n        /* \"#utility.yul\":29554:29558   */\n      0x00\n        /* \"#utility.yul\":29592:29594   */\n      0x40\n        /* \"#utility.yul\":29581:29590   */\n      dup3\n        /* \"#utility.yul\":29577:29595   */\n      add\n        /* \"#utility.yul\":29569:29595   */\n      swap1\n      pop\n        /* \"#utility.yul\":29605:29676   */\n      tag_724\n        /* \"#utility.yul\":29673:29674   */\n      0x00\n        /* \"#utility.yul\":29662:29671   */\n      dup4\n        /* \"#utility.yul\":29658:29675   */\n      add\n        /* \"#utility.yul\":29649:29655   */\n      dup6\n        /* \"#utility.yul\":29605:29676   */\n      tag_445\n      jump\t// in\n    tag_724:\n        /* \"#utility.yul\":29686:29758   */\n      tag_725\n        /* \"#utility.yul\":29754:29756   */\n      0x20\n        /* \"#utility.yul\":29743:29752   */\n      dup4\n        /* \"#utility.yul\":29739:29757   */\n      add\n        /* \"#utility.yul\":29730:29736   */\n      dup5\n        /* \"#utility.yul\":29686:29758   */\n      tag_445\n      jump\t// in\n    tag_725:\n        /* \"#utility.yul\":29433:29765   */\n      swap4\n      swap3\n      pop\n      pop\n      pop\n      jump\t// out\n        /* \"#utility.yul\":29771:30103   */\n    tag_356:\n        /* \"#utility.yul\":29892:29896   */\n      0x00\n        /* \"#utility.yul\":29930:29932   */\n      0x40\n        /* \"#utility.yul\":29919:29928   */\n      dup3\n        /* \"#utility.yul\":29915:29933   */\n      add\n        /* \"#utility.yul\":29907:29933   */\n      swap1\n      pop\n        /* \"#utility.yul\":29943:30014   */\n      tag_727\n        /* \"#utility.yul\":30011:30012   */\n      0x00\n        /* \"#utility.yul\":30000:30009   */\n      dup4\n        /* \"#utility.yul\":29996:30013   */\n      add\n        /* \"#utility.yul\":29987:29993   */\n      dup6\n        /* \"#utility.yul\":29943:30014   */\n      tag_399\n      jump\t// in\n    tag_727:\n        /* \"#utility.yul\":30024:30096   */\n      tag_728\n        /* \"#utility.yul\":30092:30094   */\n      0x20\n        /* \"#utility.yul\":30081:30090   */\n      dup4\n        /* \"#utility.yul\":30077:30095   */\n      add\n        /* \"#utility.yul\":30068:30074   */\n      dup5\n        /* \"#utility.yul\":30024:30096   */\n      tag_400\n      jump\t// in\n    tag_728:\n        /* \"#utility.yul\":29771:30103   */\n      swap4\n      swap3\n      pop\n      pop\n      pop\n      jump\t// out\n        /* \"#utility.yul\":30109:30207   */\n    tag_446:\n        /* \"#utility.yul\":30160:30166   */\n      0x00\n        /* \"#utility.yul\":30194:30199   */\n      dup2\n        /* \"#utility.yul\":30188:30200   */\n      mload\n        /* \"#utility.yul\":30178:30200   */\n      swap1\n      pop\n        /* \"#utility.yul\":30109:30207   */\n      swap2\n      swap1\n      pop\n      jump\t// out\n        /* \"#utility.yul\":30213:30599   */\n    tag_447:\n        /* \"#utility.yul\":30317:30320   */\n      0x00\n        /* \"#utility.yul\":30345:30383   */\n      tag_731\n        /* \"#utility.yul\":30377:30382   */\n      dup3\n        /* \"#utility.yul\":30345:30383   */\n      tag_446\n      jump\t// in\n    tag_731:\n        /* \"#utility.yul\":30399:30487   */\n      tag_732\n        /* \"#utility.yul\":30480:30486   */\n      dup2\n        /* \"#utility.yul\":30475:30478   */\n      dup6\n        /* \"#utility.yul\":30399:30487   */\n      tag_438\n      jump\t// in\n    tag_732:\n        /* \"#utility.yul\":30392:30487   */\n      swap4\n      pop\n        /* \"#utility.yul\":30496:30561   */\n      tag_733\n        /* \"#utility.yul\":30554:30560   */\n      dup2\n        /* \"#utility.yul\":30549:30552   */\n      dup6\n        /* \"#utility.yul\":30542:30546   */\n      0x20\n        /* \"#utility.yul\":30535:30540   */\n      dup7\n        /* \"#utility.yul\":30531:30547   */\n      add\n        /* \"#utility.yul\":30496:30561   */\n      tag_380\n      jump\t// in\n    tag_733:\n        /* \"#utility.yul\":30586:30592   */\n      dup1\n        /* \"#utility.yul\":30581:30584   */\n      dup5\n        /* \"#utility.yul\":30577:30593   */\n      add\n        /* \"#utility.yul\":30570:30593   */\n      swap2\n      pop\n        /* \"#utility.yul\":30321:30599   */\n      pop\n        /* \"#utility.yul\":30213:30599   */\n      swap3\n      swap2\n      pop\n      pop\n      jump\t// out\n        /* \"#utility.yul\":30605:30876   */\n    tag_358:\n        /* \"#utility.yul\":30735:30738   */\n      0x00\n        /* \"#utility.yul\":30757:30850   */\n      tag_735\n        /* \"#utility.yul\":30846:30849   */\n      dup3\n        /* \"#utility.yul\":30837:30843   */\n      dup5\n        /* \"#utility.yul\":30757:30850   */\n      tag_447\n      jump\t// in\n    tag_735:\n        /* \"#utility.yul\":30750:30850   */\n      swap2\n      pop\n        /* \"#utility.yul\":30867:30870   */\n      dup2\n        /* \"#utility.yul\":30860:30870   */\n      swap1\n      pop\n        /* \"#utility.yul\":30605:30876   */\n      swap3\n      swap2\n      pop\n      pop\n      jump\t// out\n        /* \"#utility.yul\":30882:30998   */\n    tag_448:\n        /* \"#utility.yul\":30952:30973   */\n      tag_737\n        /* \"#utility.yul\":30967:30972   */\n      dup2\n        /* \"#utility.yul\":30952:30973   */\n      tag_397\n      jump\t// in\n    tag_737:\n        /* \"#utility.yul\":30945:30950   */\n      dup2\n        /* \"#utility.yul\":30942:30974   */\n      eq\n        /* \"#utility.yul\":30932:30992   */\n      tag_738\n      jumpi\n        /* \"#utility.yul\":30988:30989   */\n      0x00\n        /* \"#utility.yul\":30985:30986   */\n      dup1\n        /* \"#utility.yul\":30978:30990   */\n      revert\n        /* \"#utility.yul\":30932:30992   */\n    tag_738:\n        /* \"#utility.yul\":30882:30998   */\n      pop\n      jump\t// out\n        /* \"#utility.yul\":31004:31141   */\n    tag_449:\n        /* \"#utility.yul\":31058:31063   */\n      0x00\n        /* \"#utility.yul\":31089:31095   */\n      dup2\n        /* \"#utility.yul\":31083:31096   */\n      mload\n        /* \"#utility.yul\":31074:31096   */\n      swap1\n      pop\n        /* \"#utility.yul\":31105:31135   */\n      tag_740\n        /* \"#utility.yul\":31129:31134   */\n      dup2\n        /* \"#utility.yul\":31105:31135   */\n      tag_448\n      jump\t// in\n    tag_740:\n        /* \"#utility.yul\":31004:31141   */\n      swap3\n      swap2\n      pop\n      pop\n      jump\t// out\n        /* \"#utility.yul\":31147:31492   */\n    tag_365:\n        /* \"#utility.yul\":31214:31220   */\n      0x00\n        /* \"#utility.yul\":31263:31265   */\n      0x20\n        /* \"#utility.yul\":31251:31260   */\n      dup3\n        /* \"#utility.yul\":31242:31249   */\n      dup5\n        /* \"#utility.yul\":31238:31261   */\n      sub\n        /* \"#utility.yul\":31234:31266   */\n      slt\n        /* \"#utility.yul\":31231:31350   */\n      iszero\n      tag_742\n      jumpi\n        /* \"#utility.yul\":31269:31348   */\n      tag_743\n      tag_388\n      jump\t// in\n    tag_743:\n        /* \"#utility.yul\":31231:31350   */\n    tag_742:\n        /* \"#utility.yul\":31389:31390   */\n      0x00\n        /* \"#utility.yul\":31414:31475   */\n      tag_744\n        /* \"#utility.yul\":31467:31474   */\n      dup5\n        /* \"#utility.yul\":31458:31464   */\n      dup3\n        /* \"#utility.yul\":31447:31456   */\n      dup6\n        /* \"#utility.yul\":31443:31465   */\n      add\n        /* \"#utility.yul\":31414:31475   */\n      tag_449\n      jump\t// in\n    tag_744:\n        /* \"#utility.yul\":31404:31475   */\n      swap2\n      pop\n        /* \"#utility.yul\":31360:31485   */\n      pop\n        /* \"#utility.yul\":31147:31492   */\n      swap3\n      swap2\n      pop\n      pop\n      jump\t// out\n        /* \"#utility.yul\":31498:31673   */\n    tag_450:\n        /* \"#utility.yul\":31638:31665   */\n      0x4b616a75737761703a205452414e534645525f4641494c454400000000000000\n        /* \"#utility.yul\":31634:31635   */\n      0x00\n        /* \"#utility.yul\":31626:31632   */\n      dup3\n        /* \"#utility.yul\":31622:31636   */\n      add\n        /* \"#utility.yul\":31615:31666   */\n      mstore\n        /* \"#utility.yul\":31498:31673   */\n      pop\n      jump\t// out\n        /* \"#utility.yul\":31679:32045   */\n    tag_451:\n        /* \"#utility.yul\":31821:31824   */\n      0x00\n        /* \"#utility.yul\":31842:31909   */\n      tag_747\n        /* \"#utility.yul\":31906:31908   */\n      0x19\n        /* \"#utility.yul\":31901:31904   */\n      dup4\n        /* \"#utility.yul\":31842:31909   */\n      tag_379\n      jump\t// in\n    tag_747:\n        /* \"#utility.yul\":31835:31909   */\n      swap2\n      pop\n        /* \"#utility.yul\":31918:32011   */\n      tag_748\n        /* \"#utility.yul\":32007:32010   */\n      dup3\n        /* \"#utility.yul\":31918:32011   */\n      tag_450\n      jump\t// in\n    tag_748:\n        /* \"#utility.yul\":32036:32038   */\n      0x20\n        /* \"#utility.yul\":32031:32034   */\n      dup3\n        /* \"#utility.yul\":32027:32039   */\n      add\n        /* \"#utility.yul\":32020:32039   */\n      swap1\n      pop\n        /* \"#utility.yul\":31679:32045   */\n      swap2\n      swap1\n      pop\n      jump\t// out\n        /* \"#utility.yul\":32051:32470   */\n    tag_368:\n        /* \"#utility.yul\":32217:32221   */\n      0x00\n        /* \"#utility.yul\":32255:32257   */\n      0x20\n        /* \"#utility.yul\":32244:32253   */\n      dup3\n        /* \"#utility.yul\":32240:32258   */\n      add\n        /* \"#utility.yul\":32232:32258   */\n      swap1\n      pop\n        /* \"#utility.yul\":32304:32313   */\n      dup2\n        /* \"#utility.yul\":32298:32302   */\n      dup2\n        /* \"#utility.yul\":32294:32314   */\n      sub\n        /* \"#utility.yul\":32290:32291   */\n      0x00\n        /* \"#utility.yul\":32279:32288   */\n      dup4\n        /* \"#utility.yul\":32275:32292   */\n      add\n        /* \"#utility.yul\":32268:32315   */\n      mstore\n        /* \"#utility.yul\":32332:32463   */\n      tag_750\n        /* \"#utility.yul\":32458:32462   */\n      dup2\n        /* \"#utility.yul\":32332:32463   */\n      tag_451\n      jump\t// in\n    tag_750:\n        /* \"#utility.yul\":32324:32463   */\n      swap1\n      pop\n        /* \"#utility.yul\":32051:32470   */\n      swap2\n      swap1\n      pop\n      jump\t// out\n        /* \"#utility.yul\":32476:32618   */\n    tag_452:\n        /* \"#utility.yul\":32513:32520   */\n      0x00\n        /* \"#utility.yul\":32553:32611   */\n      0xffffffffffffffffffffffffffffffffffffffffffffffffffffffff\n        /* \"#utility.yul\":32546:32551   */\n      dup3\n        /* \"#utility.yul\":32542:32612   */\n      and\n        /* \"#utility.yul\":32531:32612   */\n      swap1\n      pop\n        /* \"#utility.yul\":32476:32618   */\n      swap2\n      swap1\n      pop\n      jump\t// out\n        /* \"#utility.yul\":32624:33034   */\n    tag_374:\n        /* \"#utility.yul\":32664:32671   */\n      0x00\n        /* \"#utility.yul\":32687:32707   */\n      tag_753\n        /* \"#utility.yul\":32705:32706   */\n      dup3\n        /* \"#utility.yul\":32687:32707   */\n      tag_452\n      jump\t// in\n    tag_753:\n        /* \"#utility.yul\":32682:32707   */\n      swap2\n      pop\n        /* \"#utility.yul\":32721:32741   */\n      tag_754\n        /* \"#utility.yul\":32739:32740   */\n      dup4\n        /* \"#utility.yul\":32721:32741   */\n      tag_452\n      jump\t// in\n    tag_754:\n        /* \"#utility.yul\":32716:32741   */\n      swap3\n      pop\n        /* \"#utility.yul\":32776:32777   */\n      dup3\n        /* \"#utility.yul\":32773:32774   */\n      dup3\n        /* \"#utility.yul\":32769:32778   */\n      mul\n        /* \"#utility.yul\":32798:32828   */\n      tag_755\n        /* \"#utility.yul\":32816:32827   */\n      dup2\n        /* \"#utility.yul\":32798:32828   */\n      tag_452\n      jump\t// in\n    tag_755:\n        /* \"#utility.yul\":32787:32828   */\n      swap2\n      pop\n        /* \"#utility.yul\":32977:32978   */\n      dup3\n        /* \"#utility.yul\":32968:32975   */\n      dup3\n        /* \"#utility.yul\":32964:32979   */\n      div\n        /* \"#utility.yul\":32961:32962   */\n      dup5\n        /* \"#utility.yul\":32958:32980   */\n      eq\n        /* \"#utility.yul\":32938:32939   */\n      dup4\n        /* \"#utility.yul\":32931:32940   */\n      iszero\n        /* \"#utility.yul\":32911:32994   */\n      or\n        /* \"#utility.yul\":32888:33027   */\n      tag_756\n      jumpi\n        /* \"#utility.yul\":33007:33025   */\n      tag_757\n      tag_410\n      jump\t// in\n    tag_757:\n        /* \"#utility.yul\":32888:33027   */\n    tag_756:\n        /* \"#utility.yul\":32672:33034   */\n      pop\n        /* \"#utility.yul\":32624:33034   */\n      swap3\n      swap2\n      pop\n      pop\n      jump\t// out\n        /* \"#utility.yul\":33040:33225   */\n    tag_377:\n        /* \"#utility.yul\":33080:33081   */\n      0x00\n        /* \"#utility.yul\":33097:33117   */\n      tag_759\n        /* \"#utility.yul\":33115:33116   */\n      dup3\n        /* \"#utility.yul\":33097:33117   */\n      tag_452\n      jump\t// in\n    tag_759:\n        /* \"#utility.yul\":33092:33117   */\n      swap2\n      pop\n        /* \"#utility.yul\":33131:33151   */\n      tag_760\n        /* \"#utility.yul\":33149:33150   */\n      dup4\n        /* \"#utility.yul\":33131:33151   */\n      tag_452\n      jump\t// in\n    tag_760:\n        /* \"#utility.yul\":33126:33151   */\n      swap3\n      pop\n        /* \"#utility.yul\":33170:33171   */\n      dup3\n        /* \"#utility.yul\":33160:33195   */\n      tag_761\n      jumpi\n        /* \"#utility.yul\":33175:33193   */\n      tag_762\n      tag_416\n      jump\t// in\n    tag_762:\n        /* \"#utility.yul\":33160:33195   */\n    tag_761:\n        /* \"#utility.yul\":33217:33218   */\n      dup3\n        /* \"#utility.yul\":33214:33215   */\n      dup3\n        /* \"#utility.yul\":33210:33219   */\n      div\n        /* \"#utility.yul\":33205:33219   */\n      swap1\n      pop\n        /* \"#utility.yul\":33040:33225   */\n      swap3\n      swap2\n      pop\n      pop\n      jump\t// out\n\n    auxdata: 0xa2646970667358221220c2d8e49e6b464a44c4b22b1c32db6db7a5b55910e8192f53f30272b7a916647f64736f6c63430008110033\n}\n",
				"bytecode": {
					"linkReferences": {},
					"object": "60e06040523480156200001157600080fd5b506040518060400160405280600d81526020017f4b616a75737761702050616972000000000000000000000000000000000000008152506040518060400160405280600781526020017f4b414a552d4c50000000000000000000000000000000000000000000000000008152506012826000908162000091919062000425565b508160019081620000a3919062000425565b508060ff1660808160ff16815250504660a08181525050620000ca6200011b60201b60201c565b60c0818152505050505033600660006101000a81548173ffffffffffffffffffffffffffffffffffffffff021916908373ffffffffffffffffffffffffffffffffffffffff160217905550620006a2565b60007f8b73c3c69bb8fe3d512ecc4cf759cc79239f7b179b0ffacaa9a75d522b39400f60006040516200014f9190620005bb565b60405180910390207fc89efdaa54c0f20c7adf612882df0950f5a951637e0307cdcb4c672f298b8bc646306040516020016200019095949392919062000645565b60405160208183030381529060405280519060200120905090565b600081519050919050565b7f4e487b7100000000000000000000000000000000000000000000000000000000600052604160045260246000fd5b7f4e487b7100000000000000000000000000000000000000000000000000000000600052602260045260246000fd5b600060028204905060018216806200022d57607f821691505b602082108103620002435762000242620001e5565b5b50919050565b60008190508160005260206000209050919050565b60006020601f8301049050919050565b600082821b905092915050565b600060088302620002ad7fffffffffffffffffffffffffffffffffffffffffffffffffffffffffffffffff826200026e565b620002b986836200026e565b95508019841693508086168417925050509392505050565b6000819050919050565b6000819050919050565b60006200030662000300620002fa84620002d1565b620002db565b620002d1565b9050919050565b6000819050919050565b6200032283620002e5565b6200033a62000331826200030d565b8484546200027b565b825550505050565b600090565b6200035162000342565b6200035e81848462000317565b505050565b5b8181101562000386576200037a60008262000347565b60018101905062000364565b5050565b601f821115620003d5576200039f8162000249565b620003aa846200025e565b81016020851015620003ba578190505b620003d2620003c9856200025e565b83018262000363565b50505b505050565b600082821c905092915050565b6000620003fa60001984600802620003da565b1980831691505092915050565b6000620004158383620003e7565b9150826002028217905092915050565b6200043082620001ab565b67ffffffffffffffff8111156200044c576200044b620001b6565b5b62000458825462000214565b620004658282856200038a565b600060209050601f8311600181146200049d576000841562000488578287015190505b62000494858262000407565b86555062000504565b601f198416620004ad8662000249565b60005b82811015620004d757848901518255600182019150602085019450602081019050620004b0565b86831015620004f75784890151620004f3601f891682620003e7565b8355505b6001600288020188555050505b505050505050565b600081905092915050565b60008190508160005260206000209050919050565b600081546200053b8162000214565b6200054781866200050c565b945060018216600081146200056557600181146200057b57620005b2565b60ff1983168652811515820286019350620005b2565b620005868562000517565b60005b83811015620005aa5781548189015260018201915060208101905062000589565b838801955050505b50505092915050565b6000620005c982846200052c565b915081905092915050565b6000819050919050565b620005e981620005d4565b82525050565b620005fa81620002d1565b82525050565b600073ffffffffffffffffffffffffffffffffffffffff82169050919050565b60006200062d8262000600565b9050919050565b6200063f8162000620565b82525050565b600060a0820190506200065c6000830188620005de565b6200066b6020830187620005de565b6200067a6040830186620005de565b620006896060830185620005ef565b62000698608083018462000634565b9695505050505050565b60805160a05160c051613914620006d2600039600061092c015260006108f8015260006108d201526139146000f3fe608060405234801561001057600080fd5b506004361061014d5760003560e01c80636a627842116100c3578063a9059cbb1161007c578063a9059cbb146103bb578063c45a0155146103eb578063d21220a714610409578063d505accf14610427578063dd62ed3e14610443578063fff6cae9146104735761014d565b80636a627842146102c05780636d9a640a146102f057806370a082311461030c5780637ecebe001461033c57806389afcb441461036c57806395d89b411461039d5761014d565b806323b872dd1161011557806323b872dd146101fc578063313ce5671461022c5780633644e5151461024a578063485cc955146102685780635909c0d5146102845780635a3d5493146102a25761014d565b806306fdde03146101525780630902f1ac14610170578063095ea7b3146101905780630dfe1681146101c057806318160ddd146101de575b600080fd5b61015a61047d565b6040516101679190612823565b60405180910390f35b61017861050b565b6040516101879392919061288d565b60405180910390f35b6101aa60048036038101906101a5919061295d565b610568565b6040516101b791906129b8565b60405180910390f35b6101c861065a565b6040516101d591906129e2565b60405180910390f35b6101e6610680565b6040516101f39190612a0c565b60405180910390f35b61021660048036038101906102119190612a27565b610686565b60405161022391906129b8565b60405180910390f35b6102346108d0565b6040516102419190612a96565b60405180910390f35b6102526108f4565b60405161025f9190612aca565b60405180910390f35b610282600480360381019061027d9190612ae5565b610951565b005b61028c610b4b565b6040516102999190612a0c565b60405180910390f35b6102aa610b51565b6040516102b79190612a0c565b60405180910390f35b6102da60048036038101906102d59190612b25565b610b57565b6040516102e79190612a0c565b60405180910390f35b61030a60048036038101906103059190612b52565b610ebf565b005b61032660048036038101906103219190612b25565b61147f565b6040516103339190612a0c565b60405180910390f35b61035660048036038101906103519190612b25565b611497565b6040516103639190612a0c565b60405180910390f35b61038660048036038101906103819190612b25565b6114af565b604051610394929190612ba5565b60405180910390f35b6103a5611959565b6040516103b29190612823565b60405180910390f35b6103d560048036038101906103d0919061295d565b6119e7565b6040516103e291906129b8565b60405180910390f35b6103f3611afb565b60405161040091906129e2565b60405180910390f35b610411611b21565b60405161041e91906129e2565b60405180910390f35b610441600480360381019061043c9190612c26565b611b47565b005b61045d60048036038101906104589190612ae5565b611e40565b60405161046a9190612a0c565b60405180910390f35b61047b611e65565b005b6000805461048a90612cf7565b80601f01602080910402602001604051908101604052809291908181526020018280546104b690612cf7565b80156105035780601f106104d857610100808354040283529160200191610503565b820191906000526020600020905b8154815290600101906020018083116104e657829003601f168201915b505050505081565b6000806000600960009054906101000a90046dffffffffffffffffffffffffffff166009600e9054906101000a90046dffffffffffffffffffffffffffff166009601c9054906101000a900463ffffffff16925092509250909192565b600081600460003373ffffffffffffffffffffffffffffffffffffffff1673ffffffffffffffffffffffffffffffffffffffff16815260200190815260200160002060008573ffffffffffffffffffffffffffffffffffffffff1673ffffffffffffffffffffffffffffffffffffffff168152602001908152602001600020819055508273ffffffffffffffffffffffffffffffffffffffff163373ffffffffffffffffffffffffffffffffffffffff167f8c5be1e5ebec7d5bd14f71427d1e84f3dd0314c0f7b2291e5b200ac8c7c3b925846040516106489190612a0c565b60405180910390a36001905092915050565b600760009054906101000a900473ffffffffffffffffffffffffffffffffffffffff1681565b60025481565b600080600460008673ffffffffffffffffffffffffffffffffffffffff1673ffffffffffffffffffffffffffffffffffffffff16815260200190815260200160002060003373ffffffffffffffffffffffffffffffffffffffff1673ffffffffffffffffffffffffffffffffffffffff1681526020019081526020016000205490507fffffffffffffffffffffffffffffffffffffffffffffffffffffffffffffffff81146107bc57828161073b9190612d57565b600460008773ffffffffffffffffffffffffffffffffffffffff1673ffffffffffffffffffffffffffffffffffffffff16815260200190815260200160002060003373ffffffffffffffffffffffffffffffffffffffff1673ffffffffffffffffffffffffffffffffffffffff168152602001908152602001600020819055505b82600360008773ffffffffffffffffffffffffffffffffffffffff1673ffffffffffffffffffffffffffffffffffffffff168152602001908152602001600020600082825461080b9190612d57565b9250508190555082600360008673ffffffffffffffffffffffffffffffffffffffff1673ffffffffffffffffffffffffffffffffffffffff168152602001908152602001600020600082825401925050819055508373ffffffffffffffffffffffffffffffffffffffff168573ffffffffffffffffffffffffffffffffffffffff167fddf252ad1be2c89b69c2b068fc378daa952ba7f163c4a11628f55a4df523b3ef856040516108bc9190612a0c565b60405180910390a360019150509392505050565b7f000000000000000000000000000000000000000000000000000000000000000081565b60007f0000000000000000000000000000000000000000000000000000000000000000461461092a57610925612041565b61094c565b7f00000000000000000000000000000000000000000000000000000000000000005b905090565b600660009054906101000a900473ffffffffffffffffffffffffffffffffffffffff1673ffffffffffffffffffffffffffffffffffffffff163373ffffffffffffffffffffffffffffffffffffffff16146109e1576040517f08c379a00000000000000000000000000000000000000000000000000000000081526004016109d890612dd7565b60405180910390fd5b600073ffffffffffffffffffffffffffffffffffffffff16600760009054906101000a900473ffffffffffffffffffffffffffffffffffffffff1673ffffffffffffffffffffffffffffffffffffffff16141580610a8e5750600073ffffffffffffffffffffffffffffffffffffffff16600860009054906101000a900473ffffffffffffffffffffffffffffffffffffffff1673ffffffffffffffffffffffffffffffffffffffff1614155b15610ac5576040517f0dc149f000000000000000000000000000000000000000000000000000000000815260040160405180910390fd5b81600760006101000a81548173ffffffffffffffffffffffffffffffffffffffff021916908373ffffffffffffffffffffffffffffffffffffffff16021790555080600860006101000a81548173ffffffffffffffffffffffffffffffffffffffff021916908373ffffffffffffffffffffffffffffffffffffffff1602179055505050565b600a5481565b600b5481565b6000600c60009054906101000a900460ff1615610ba9576040517f08c379a0000000000000000000000000000000000000000000000000000000008152600401610ba090612e69565b60405180910390fd5b6001600c60006101000a81548160ff021916908315150217905550600080610bcf61050b565b50915091506000600760009054906101000a900473ffffffffffffffffffffffffffffffffffffffff1673ffffffffffffffffffffffffffffffffffffffff166370a08231306040518263ffffffff1660e01b8152600401610c3191906129e2565b602060405180830381865afa158015610c4e573d6000803e3d6000fd5b505050506040513d601f19601f82011682018060405250810190610c729190612e9e565b90506000600860009054906101000a900473ffffffffffffffffffffffffffffffffffffffff1673ffffffffffffffffffffffffffffffffffffffff166370a08231306040518263ffffffff1660e01b8152600401610cd191906129e2565b602060405180830381865afa158015610cee573d6000803e3d6000fd5b505050506040513d601f19601f82011682018060405250810190610d129190612e9e565b90506000846dffffffffffffffffffffffffffff1683610d329190612d57565b90506000846dffffffffffffffffffffffffffff1683610d529190612d57565b9050600060025403610d93576103e8610d758284610d709190612ecb565b6120cd565b610d7f9190612d57565b9650610d8e60006103e8612147565b610df0565b610ded866dffffffffffffffffffffffffffff1660025484610db59190612ecb565b610dbf9190612f3c565b866dffffffffffffffffffffffffffff1660025484610dde9190612ecb565b610de89190612f3c565b612217565b96505b60008711610e33576040517f08c379a0000000000000000000000000000000000000000000000000000000008152600401610e2a90612fdf565b60405180910390fd5b610e3d8888612147565b610e4984848888612230565b8773ffffffffffffffffffffffffffffffffffffffff167f4c209b5fc8ad50758f13e2e1088ba56a560dff690a1c6fef26394f4c03821c4f8383604051610e91929190612ba5565b60405180910390a25050505050506000600c60006101000a81548160ff021916908315150217905550919050565b600c60009054906101000a900460ff1615610f0f576040517f08c379a0000000000000000000000000000000000000000000000000000000008152600401610f0690612e69565b60405180910390fd5b6001600c60006101000a81548160ff0219169083151502179055506000831180610f395750600082115b610f78576040517f08c379a0000000000000000000000000000000000000000000000000000000008152600401610f6f90613071565b60405180910390fd5b600080610f8361050b565b5091509150816dffffffffffffffffffffffffffff1685108015610fb65750806dffffffffffffffffffffffffffff1684105b610ff5576040517f08c379a0000000000000000000000000000000000000000000000000000000008152600401610fec906130dd565b60405180910390fd5b600085111561102c5761102b600760009054906101000a900473ffffffffffffffffffffffffffffffffffffffff1684876124df565b5b600084111561106357611062600860009054906101000a900473ffffffffffffffffffffffffffffffffffffffff1684866124df565b5b6000600760009054906101000a900473ffffffffffffffffffffffffffffffffffffffff1673ffffffffffffffffffffffffffffffffffffffff166370a08231306040518263ffffffff1660e01b81526004016110c091906129e2565b602060405180830381865afa1580156110dd573d6000803e3d6000fd5b505050506040513d601f19601f820116820180604052508101906111019190612e9e565b90506000600860009054906101000a900473ffffffffffffffffffffffffffffffffffffffff1673ffffffffffffffffffffffffffffffffffffffff166370a08231306040518263ffffffff1660e01b815260040161116091906129e2565b602060405180830381865afa15801561117d573d6000803e3d6000fd5b505050506040513d601f19601f820116820180604052508101906111a19190612e9e565b9050600087600960009054906101000a90046dffffffffffffffffffffffffffff166dffffffffffffffffffffffffffff166111dd9190612d57565b83116111ea57600061122e565b87600960009054906101000a90046dffffffffffffffffffffffffffff166dffffffffffffffffffffffffffff166112229190612d57565b8361122d9190612d57565b5b90506000876009600e9054906101000a90046dffffffffffffffffffffffffffff166dffffffffffffffffffffffffffff1661126a9190612d57565b83116112775760006112bb565b876009600e9054906101000a90046dffffffffffffffffffffffffffff166dffffffffffffffffffffffffffff166112af9190612d57565b836112ba9190612d57565b5b905060008211806112cc5750600081115b61130b576040517f08c379a00000000000000000000000000000000000000000000000000000000081526004016113029061316f565b60405180910390fd5b600060038361131a9190612ecb565b6103e8866113289190612ecb565b6113329190612d57565b905060006003836113439190612ecb565b6103e8866113519190612ecb565b61135b9190612d57565b9050620f4240876dffffffffffffffffffffffffffff16896dffffffffffffffffffffffffffff1661138d9190612ecb565b6113979190612ecb565b81836113a39190612ecb565b10156113e4576040517f08c379a00000000000000000000000000000000000000000000000000000000081526004016113db906131db565b60405180910390fd5b6113f086868a8a612230565b8873ffffffffffffffffffffffffffffffffffffffff163373ffffffffffffffffffffffffffffffffffffffff167f2a9237ff5aa599ef4c5ee4b1142b53429d5755e2685fe6288b2e3320202115f58d8d60405161144f929190612ba5565b60405180910390a350505050505050506000600c60006101000a81548160ff021916908315150217905550505050565b60036020528060005260406000206000915090505481565b60056020528060005260406000206000915090505481565b600080600c60009054906101000a900460ff1615611502576040517f08c379a00000000000000000000000000000000000000000000000000000000081526004016114f990612e69565b60405180910390fd5b6001600c60006101000a81548160ff0219169083151502179055506000600760009054906101000a900473ffffffffffffffffffffffffffffffffffffffff1673ffffffffffffffffffffffffffffffffffffffff166370a08231306040518263ffffffff1660e01b815260040161157a91906129e2565b602060405180830381865afa158015611597573d6000803e3d6000fd5b505050506040513d601f19601f820116820180604052508101906115bb9190612e9e565b90506000600860009054906101000a900473ffffffffffffffffffffffffffffffffffffffff1673ffffffffffffffffffffffffffffffffffffffff166370a08231306040518263ffffffff1660e01b815260040161161a91906129e2565b602060405180830381865afa158015611637573d6000803e3d6000fd5b505050506040513d601f19601f8201168201806040525081019061165b9190612e9e565b90506000600360003073ffffffffffffffffffffffffffffffffffffffff1673ffffffffffffffffffffffffffffffffffffffff16815260200190815260200160002054905060025483826116b09190612ecb565b6116ba9190612f3c565b945060025482826116cb9190612ecb565b6116d59190612f3c565b93506000851180156116e75750600084115b611726576040517f08c379a000000000000000000000000000000000000000000000000000000000815260040161171d9061326d565b60405180910390fd5b6117303082612669565b61175d600760009054906101000a900473ffffffffffffffffffffffffffffffffffffffff1687876124df565b61178a600860009054906101000a900473ffffffffffffffffffffffffffffffffffffffff1687866124df565b600760009054906101000a900473ffffffffffffffffffffffffffffffffffffffff1673ffffffffffffffffffffffffffffffffffffffff166370a08231306040518263ffffffff1660e01b81526004016117e591906129e2565b602060405180830381865afa158015611802573d6000803e3d6000fd5b505050506040513d601f19601f820116820180604052508101906118269190612e9e565b9250600860009054906101000a900473ffffffffffffffffffffffffffffffffffffffff1673ffffffffffffffffffffffffffffffffffffffff166370a08231306040518263ffffffff1660e01b815260040161188391906129e2565b602060405180830381865afa1580156118a0573d6000803e3d6000fd5b505050506040513d601f19601f820116820180604052508101906118c49190612e9e565b91506000806118d161050b565b50915091506118e285858484612230565b3373ffffffffffffffffffffffffffffffffffffffff167fdccd412f0b1252819cb1fd330b93224ca42612892bb3f4f789976e6d8193649688888b60405161192c9392919061328d565b60405180910390a250505050506000600c60006101000a81548160ff021916908315150217905550915091565b6001805461196690612cf7565b80601f016020809104026020016040519081016040528092919081815260200182805461199290612cf7565b80156119df5780601f106119b4576101008083540402835291602001916119df565b820191906000526020600020905b8154815290600101906020018083116119c257829003601f168201915b505050505081565b600081600360003373ffffffffffffffffffffffffffffffffffffffff1673ffffffffffffffffffffffffffffffffffffffff1681526020019081526020016000206000828254611a389190612d57565b9250508190555081600360008573ffffffffffffffffffffffffffffffffffffffff1673ffffffffffffffffffffffffffffffffffffffff168152602001908152602001600020600082825401925050819055508273ffffffffffffffffffffffffffffffffffffffff163373ffffffffffffffffffffffffffffffffffffffff167fddf252ad1be2c89b69c2b068fc378daa952ba7f163c4a11628f55a4df523b3ef84604051611ae99190612a0c565b60405180910390a36001905092915050565b600660009054906101000a900473ffffffffffffffffffffffffffffffffffffffff1681565b600860009054906101000a900473ffffffffffffffffffffffffffffffffffffffff1681565b42841015611b8a576040517f08c379a0000000000000000000000000000000000000000000000000000000008152600401611b8190613310565b60405180910390fd5b60006001611b966108f4565b7f6e71edae12b1b97f4d1f60370fef10105fa2faae0126114a169c64845d6126c98a8a8a600560008f73ffffffffffffffffffffffffffffffffffffffff1673ffffffffffffffffffffffffffffffffffffffff1681526020019081526020016000206000815480929190600101919050558b604051602001611c1e96959493929190613330565b60405160208183030381529060405280519060200120604051602001611c45929190613409565b6040516020818303038152906040528051906020012085858560405160008152602001604052604051611c7b9493929190613440565b6020604051602081039080840390855afa158015611c9d573d6000803e3d6000fd5b505050602060405103519050600073ffffffffffffffffffffffffffffffffffffffff168173ffffffffffffffffffffffffffffffffffffffff1614158015611d1157508773ffffffffffffffffffffffffffffffffffffffff168173ffffffffffffffffffffffffffffffffffffffff16145b611d50576040517f08c379a0000000000000000000000000000000000000000000000000000000008152600401611d47906134d1565b60405180910390fd5b85600460008373ffffffffffffffffffffffffffffffffffffffff1673ffffffffffffffffffffffffffffffffffffffff16815260200190815260200160002060008973ffffffffffffffffffffffffffffffffffffffff1673ffffffffffffffffffffffffffffffffffffffff16815260200190815260200160002081905550508573ffffffffffffffffffffffffffffffffffffffff168773ffffffffffffffffffffffffffffffffffffffff167f8c5be1e5ebec7d5bd14f71427d1e84f3dd0314c0f7b2291e5b200ac8c7c3b92587604051611e2f9190612a0c565b60405180910390a350505050505050565b6004602052816000526040600020602052806000526040600020600091509150505481565b600c60009054906101000a900460ff1615611eb5576040517f08c379a0000000000000000000000000000000000000000000000000000000008152600401611eac90612e69565b60405180910390fd5b6001600c60006101000a81548160ff021916908315150217905550600080611edb61050b565b5091509150612022600760009054906101000a900473ffffffffffffffffffffffffffffffffffffffff1673ffffffffffffffffffffffffffffffffffffffff166370a08231306040518263ffffffff1660e01b8152600401611f3e91906129e2565b602060405180830381865afa158015611f5b573d6000803e3d6000fd5b505050506040513d601f19601f82011682018060405250810190611f7f9190612e9e565b600860009054906101000a900473ffffffffffffffffffffffffffffffffffffffff1673ffffffffffffffffffffffffffffffffffffffff166370a08231306040518263ffffffff1660e01b8152600401611fda91906129e2565b602060405180830381865afa158015611ff7573d6000803e3d6000fd5b505050506040513d601f19601f8201168201806040525081019061201b9190612e9e565b8484612230565b50506000600c60006101000a81548160ff021916908315150217905550565b60007f8b73c3c69bb8fe3d512ecc4cf759cc79239f7b179b0ffacaa9a75d522b39400f60006040516120739190613594565b60405180910390207fc89efdaa54c0f20c7adf612882df0950f5a951637e0307cdcb4c672f298b8bc646306040516020016120b29594939291906135ab565b60405160208183030381529060405280519060200120905090565b6000600382111561213457819050600060016002846120ec9190612f3c565b6120f691906135fe565b90505b8181101561212e5780915060028182856121139190612f3c565b61211d91906135fe565b6121279190612f3c565b90506120f9565b50612142565b6000821461214157600190505b5b919050565b806002600082825461215991906135fe565b9250508190555080600360008473ffffffffffffffffffffffffffffffffffffffff1673ffffffffffffffffffffffffffffffffffffffff168152602001908152602001600020600082825401925050819055508173ffffffffffffffffffffffffffffffffffffffff16600073ffffffffffffffffffffffffffffffffffffffff167fddf252ad1be2c89b69c2b068fc378daa952ba7f163c4a11628f55a4df523b3ef8360405161220b9190612a0c565b60405180910390a35050565b60008183106122265781612228565b825b905092915050565b6dffffffffffffffffffffffffffff8016841115801561226057506dffffffffffffffffffffffffffff80168311155b61229f576040517f08c379a00000000000000000000000000000000000000000000000000000000081526004016122969061367e565b60405180910390fd5b60006009601c9054906101000a900463ffffffff164203905060008163ffffffff161180156122de57506000836dffffffffffffffffffffffffffff16115b80156122fa57506000826dffffffffffffffffffffffffffff16115b156123dc578063ffffffff1661233f8461231385612739565b7bffffffffffffffffffffffffffffffffffffffffffffffffffffffff1661276d90919063ffffffff16565b7bffffffffffffffffffffffffffffffffffffffffffffffffffffffff1602600a600082825401925050819055508063ffffffff166123ad8361238186612739565b7bffffffffffffffffffffffffffffffffffffffffffffffffffffffff1661276d90919063ffffffff16565b7bffffffffffffffffffffffffffffffffffffffffffffffffffffffff1602600b600082825401925050819055505b5083600960006101000a8154816dffffffffffffffffffffffffffff02191690836dffffffffffffffffffffffffffff160217905550826009600e6101000a8154816dffffffffffffffffffffffffffff02191690836dffffffffffffffffffffffffffff160217905550426009601c6101000a81548163ffffffff021916908363ffffffff1602179055507fcf2aa50876cdfbb541206f89af0ee78d44a2abf8d328e37fa4917f982149848a600960009054906101000a90046dffffffffffffffffffffffffffff166009600e9054906101000a90046dffffffffffffffffffffffffffff166040516124d19291906136d9565b60405180910390a150505050565b6000808473ffffffffffffffffffffffffffffffffffffffff166040518060400160405280601981526020017f7472616e7366657228616464726573732c75696e743235362900000000000000815250805190602001208585604051602401612549929190613702565b604051602081830303815290604052907bffffffffffffffffffffffffffffffffffffffffffffffffffffffff19166020820180517bffffffffffffffffffffffffffffffffffffffffffffffffffffffff83818316178352505050506040516125b39190613767565b6000604051808303816000865af19150503d80600081146125f0576040519150601f19603f3d011682016040523d82523d6000602084013e6125f5565b606091505b5091509150818015612623575060008151148061262257508080602001905181019061262191906137aa565b5b5b612662576040517f08c379a000000000000000000000000000000000000000000000000000000000815260040161265990613823565b60405180910390fd5b5050505050565b80600360008473ffffffffffffffffffffffffffffffffffffffff1673ffffffffffffffffffffffffffffffffffffffff16815260200190815260200160002060008282546126b89190612d57565b9250508190555080600260008282540392505081905550600073ffffffffffffffffffffffffffffffffffffffff168273ffffffffffffffffffffffffffffffffffffffff167fddf252ad1be2c89b69c2b068fc378daa952ba7f163c4a11628f55a4df523b3ef8360405161272d9190612a0c565b60405180910390a35050565b60006e010000000000000000000000000000826dffffffffffffffffffffffffffff16612766919061386b565b9050919050565b6000816dffffffffffffffffffffffffffff168361278b91906138ad565b905092915050565b600081519050919050565b600082825260208201905092915050565b60005b838110156127cd5780820151818401526020810190506127b2565b60008484015250505050565b6000601f19601f8301169050919050565b60006127f582612793565b6127ff818561279e565b935061280f8185602086016127af565b612818816127d9565b840191505092915050565b6000602082019050818103600083015261283d81846127ea565b905092915050565b60006dffffffffffffffffffffffffffff82169050919050565b61286881612845565b82525050565b600063ffffffff82169050919050565b6128878161286e565b82525050565b60006060820190506128a2600083018661285f565b6128af602083018561285f565b6128bc604083018461287e565b949350505050565b600080fd5b600073ffffffffffffffffffffffffffffffffffffffff82169050919050565b60006128f4826128c9565b9050919050565b612904816128e9565b811461290f57600080fd5b50565b600081359050612921816128fb565b92915050565b6000819050919050565b61293a81612927565b811461294557600080fd5b50565b60008135905061295781612931565b92915050565b60008060408385031215612974576129736128c4565b5b600061298285828601612912565b925050602061299385828601612948565b9150509250929050565b60008115159050919050565b6129b28161299d565b82525050565b60006020820190506129cd60008301846129a9565b92915050565b6129dc816128e9565b82525050565b60006020820190506129f760008301846129d3565b92915050565b612a0681612927565b82525050565b6000602082019050612a2160008301846129fd565b92915050565b600080600060608486031215612a4057612a3f6128c4565b5b6000612a4e86828701612912565b9350506020612a5f86828701612912565b9250506040612a7086828701612948565b9150509250925092565b600060ff82169050919050565b612a9081612a7a565b82525050565b6000602082019050612aab6000830184612a87565b92915050565b6000819050919050565b612ac481612ab1565b82525050565b6000602082019050612adf6000830184612abb565b92915050565b60008060408385031215612afc57612afb6128c4565b5b6000612b0a85828601612912565b9250506020612b1b85828601612912565b9150509250929050565b600060208284031215612b3b57612b3a6128c4565b5b6000612b4984828501612912565b91505092915050565b600080600060608486031215612b6b57612b6a6128c4565b5b6000612b7986828701612948565b9350506020612b8a86828701612948565b9250506040612b9b86828701612912565b9150509250925092565b6000604082019050612bba60008301856129fd565b612bc760208301846129fd565b9392505050565b612bd781612a7a565b8114612be257600080fd5b50565b600081359050612bf481612bce565b92915050565b612c0381612ab1565b8114612c0e57600080fd5b50565b600081359050612c2081612bfa565b92915050565b600080600080600080600060e0888a031215612c4557612c446128c4565b5b6000612c538a828b01612912565b9750506020612c648a828b01612912565b9650506040612c758a828b01612948565b9550506060612c868a828b01612948565b9450506080612c978a828b01612be5565b93505060a0612ca88a828b01612c11565b92505060c0612cb98a828b01612c11565b91505092959891949750929550565b7f4e487b7100000000000000000000000000000000000000000000000000000000600052602260045260246000fd5b60006002820490506001821680612d0f57607f821691505b602082108103612d2257612d21612cc8565b5b50919050565b7f4e487b7100000000000000000000000000000000000000000000000000000000600052601160045260246000fd5b6000612d6282612927565b9150612d6d83612927565b9250828203905081811115612d8557612d84612d28565b5b92915050565b7f4b616a75737761703a20464f5242494444454e00000000000000000000000000600082015250565b6000612dc160138361279e565b9150612dcc82612d8b565b602082019050919050565b60006020820190508181036000830152612df081612db4565b9050919050565b7f4b616a75737761703a20596f752063616e6e6f7420456e74657220696e20746860008201527f6520636f6e747261637400000000000000000000000000000000000000000000602082015250565b6000612e53602a8361279e565b9150612e5e82612df7565b604082019050919050565b60006020820190508181036000830152612e8281612e46565b9050919050565b600081519050612e9881612931565b92915050565b600060208284031215612eb457612eb36128c4565b5b6000612ec284828501612e89565b91505092915050565b6000612ed682612927565b9150612ee183612927565b9250828202612eef81612927565b91508282048414831517612f0657612f05612d28565b5b5092915050565b7f4e487b7100000000000000000000000000000000000000000000000000000000600052601260045260246000fd5b6000612f4782612927565b9150612f5283612927565b925082612f6257612f61612f0d565b5b828204905092915050565b7f4b616a75737761703a20494e53554646494349454e545f4c495155494449545960008201527f5f4d494e54454400000000000000000000000000000000000000000000000000602082015250565b6000612fc960278361279e565b9150612fd482612f6d565b604082019050919050565b60006020820190508181036000830152612ff881612fbc565b9050919050565b7f4b616a75737761703a20494e53554646494349454e545f4f55545055545f414d60008201527f4f554e5400000000000000000000000000000000000000000000000000000000602082015250565b600061305b60248361279e565b915061306682612fff565b604082019050919050565b6000602082019050818103600083015261308a8161304e565b9050919050565b7f4b616a75737761703a20494e53554646494349454e545f4c4951554944495459600082015250565b60006130c760208361279e565b91506130d282613091565b602082019050919050565b600060208201905081810360008301526130f6816130ba565b9050919050565b7f4b616a75737761703a20494e53554646494349454e545f494e5055545f414d4f60008201527f554e540000000000000000000000000000000000000000000000000000000000602082015250565b600061315960238361279e565b9150613164826130fd565b604082019050919050565b600060208201905081810360008301526131888161314c565b9050919050565b7f4b616a75737761703a20494e56414c49445f4b00000000000000000000000000600082015250565b60006131c560138361279e565b91506131d08261318f565b602082019050919050565b600060208201905081810360008301526131f4816131b8565b9050919050565b7f4b616a75737761703a20494e53554646494349454e545f4c495155494449545960008201527f5f4255524e454400000000000000000000000000000000000000000000000000602082015250565b600061325760278361279e565b9150613262826131fb565b604082019050919050565b600060208201905081810360008301526132868161324a565b9050919050565b60006060820190506132a260008301866129fd565b6132af60208301856129fd565b6132bc60408301846129d3565b949350505050565b7f5045524d49545f444541444c494e455f45585049524544000000000000000000600082015250565b60006132fa60178361279e565b9150613305826132c4565b602082019050919050565b60006020820190508181036000830152613329816132ed565b9050919050565b600060c0820190506133456000830189612abb565b61335260208301886129d3565b61335f60408301876129d3565b61336c60608301866129fd565b61337960808301856129fd565b61338660a08301846129fd565b979650505050505050565b600081905092915050565b7f1901000000000000000000000000000000000000000000000000000000000000600082015250565b60006133d2600283613391565b91506133dd8261339c565b600282019050919050565b6000819050919050565b6134036133fe82612ab1565b6133e8565b82525050565b6000613414826133c5565b915061342082856133f2565b60208201915061343082846133f2565b6020820191508190509392505050565b60006080820190506134556000830187612abb565b6134626020830186612a87565b61346f6040830185612abb565b61347c6060830184612abb565b95945050505050565b7f494e56414c49445f5349474e4552000000000000000000000000000000000000600082015250565b60006134bb600e8361279e565b91506134c682613485565b602082019050919050565b600060208201905081810360008301526134ea816134ae565b9050919050565b600081905092915050565b60008190508160005260206000209050919050565b6000815461351e81612cf7565b61352881866134f1565b9450600182166000811461354357600181146135585761358b565b60ff198316865281151582028601935061358b565b613561856134fc565b60005b8381101561358357815481890152600182019150602081019050613564565b838801955050505b50505092915050565b60006135a08284613511565b915081905092915050565b600060a0820190506135c06000830188612abb565b6135cd6020830187612abb565b6135da6040830186612abb565b6135e760608301856129fd565b6135f460808301846129d3565b9695505050505050565b600061360982612927565b915061361483612927565b925082820190508082111561362c5761362b612d28565b5b92915050565b7f4b616a75737761703a204f564552464c4f570000000000000000000000000000600082015250565b600061366860128361279e565b915061367382613632565b602082019050919050565b600060208201905081810360008301526136978161365b565b9050919050565b6000819050919050565b60006136c36136be6136b984612845565b61369e565b612927565b9050919050565b6136d3816136a8565b82525050565b60006040820190506136ee60008301856136ca565b6136fb60208301846136ca565b9392505050565b600060408201905061371760008301856129d3565b61372460208301846129fd565b9392505050565b600081519050919050565b60006137418261372b565b61374b81856134f1565b935061375b8185602086016127af565b80840191505092915050565b60006137738284613736565b915081905092915050565b6137878161299d565b811461379257600080fd5b50565b6000815190506137a48161377e565b92915050565b6000602082840312156137c0576137bf6128c4565b5b60006137ce84828501613795565b91505092915050565b7f4b616a75737761703a205452414e534645525f4641494c454400000000000000600082015250565b600061380d60198361279e565b9150613818826137d7565b602082019050919050565b6000602082019050818103600083015261383c81613800565b9050919050565b60007bffffffffffffffffffffffffffffffffffffffffffffffffffffffff82169050919050565b600061387682613843565b915061388183613843565b925082820261388f81613843565b915082820484148315176138a6576138a5612d28565b5b5092915050565b60006138b882613843565b91506138c383613843565b9250826138d3576138d2612f0d565b5b82820490509291505056fea2646970667358221220c2d8e49e6b464a44c4b22b1c32db6db7a5b55910e8192f53f30272b7a916647f64736f6c63430008110033",
					"opcodes": "PUSH1 0xE0 PUSH1 0x40 MSTORE CALLVALUE DUP1 ISZERO PUSH3 0x11 JUMPI PUSH1 0x0 DUP1 REVERT JUMPDEST POP PUSH1 0x40 MLOAD DUP1 PUSH1 0x40 ADD PUSH1 0x40 MSTORE DUP1 PUSH1 0xD DUP2 MSTORE PUSH1 0x20 ADD PUSH32 0x4B616A7573776170205061697200000000000000000000000000000000000000 DUP2 MSTORE POP PUSH1 0x40 MLOAD DUP1 PUSH1 0x40 ADD PUSH1 0x40 MSTORE DUP1 PUSH1 0x7 DUP2 MSTORE PUSH1 0x20 ADD PUSH32 0x4B414A552D4C5000000000000000000000000000000000000000000000000000 DUP2 MSTORE POP PUSH1 0x12 DUP3 PUSH1 0x0 SWAP1 DUP2 PUSH3 0x91 SWAP2 SWAP1 PUSH3 0x425 JUMP JUMPDEST POP DUP2 PUSH1 0x1 SWAP1 DUP2 PUSH3 0xA3 SWAP2 SWAP1 PUSH3 0x425 JUMP JUMPDEST POP DUP1 PUSH1 0xFF AND PUSH1 0x80 DUP2 PUSH1 0xFF AND DUP2 MSTORE POP POP CHAINID PUSH1 0xA0 DUP2 DUP2 MSTORE POP POP PUSH3 0xCA PUSH3 0x11B PUSH1 0x20 SHL PUSH1 0x20 SHR JUMP JUMPDEST PUSH1 0xC0 DUP2 DUP2 MSTORE POP POP POP POP POP CALLER PUSH1 0x6 PUSH1 0x0 PUSH2 0x100 EXP DUP2 SLOAD DUP2 PUSH20 0xFFFFFFFFFFFFFFFFFFFFFFFFFFFFFFFFFFFFFFFF MUL NOT AND SWAP1 DUP4 PUSH20 0xFFFFFFFFFFFFFFFFFFFFFFFFFFFFFFFFFFFFFFFF AND MUL OR SWAP1 SSTORE POP PUSH3 0x6A2 JUMP JUMPDEST PUSH1 0x0 PUSH32 0x8B73C3C69BB8FE3D512ECC4CF759CC79239F7B179B0FFACAA9A75D522B39400F PUSH1 0x0 PUSH1 0x40 MLOAD PUSH3 0x14F SWAP2 SWAP1 PUSH3 0x5BB JUMP JUMPDEST PUSH1 0x40 MLOAD DUP1 SWAP2 SUB SWAP1 KECCAK256 PUSH32 0xC89EFDAA54C0F20C7ADF612882DF0950F5A951637E0307CDCB4C672F298B8BC6 CHAINID ADDRESS PUSH1 0x40 MLOAD PUSH1 0x20 ADD PUSH3 0x190 SWAP6 SWAP5 SWAP4 SWAP3 SWAP2 SWAP1 PUSH3 0x645 JUMP JUMPDEST PUSH1 0x40 MLOAD PUSH1 0x20 DUP2 DUP4 SUB SUB DUP2 MSTORE SWAP1 PUSH1 0x40 MSTORE DUP1 MLOAD SWAP1 PUSH1 0x20 ADD KECCAK256 SWAP1 POP SWAP1 JUMP JUMPDEST PUSH1 0x0 DUP2 MLOAD SWAP1 POP SWAP2 SWAP1 POP JUMP JUMPDEST PUSH32 0x4E487B7100000000000000000000000000000000000000000000000000000000 PUSH1 0x0 MSTORE PUSH1 0x41 PUSH1 0x4 MSTORE PUSH1 0x24 PUSH1 0x0 REVERT JUMPDEST PUSH32 0x4E487B7100000000000000000000000000000000000000000000000000000000 PUSH1 0x0 MSTORE PUSH1 0x22 PUSH1 0x4 MSTORE PUSH1 0x24 PUSH1 0x0 REVERT JUMPDEST PUSH1 0x0 PUSH1 0x2 DUP3 DIV SWAP1 POP PUSH1 0x1 DUP3 AND DUP1 PUSH3 0x22D JUMPI PUSH1 0x7F DUP3 AND SWAP2 POP JUMPDEST PUSH1 0x20 DUP3 LT DUP2 SUB PUSH3 0x243 JUMPI PUSH3 0x242 PUSH3 0x1E5 JUMP JUMPDEST JUMPDEST POP SWAP2 SWAP1 POP JUMP JUMPDEST PUSH1 0x0 DUP2 SWAP1 POP DUP2 PUSH1 0x0 MSTORE PUSH1 0x20 PUSH1 0x0 KECCAK256 SWAP1 POP SWAP2 SWAP1 POP JUMP JUMPDEST PUSH1 0x0 PUSH1 0x20 PUSH1 0x1F DUP4 ADD DIV SWAP1 POP SWAP2 SWAP1 POP JUMP JUMPDEST PUSH1 0x0 DUP3 DUP3 SHL SWAP1 POP SWAP3 SWAP2 POP POP JUMP JUMPDEST PUSH1 0x0 PUSH1 0x8 DUP4 MUL PUSH3 0x2AD PUSH32 0xFFFFFFFFFFFFFFFFFFFFFFFFFFFFFFFFFFFFFFFFFFFFFFFFFFFFFFFFFFFFFFFF DUP3 PUSH3 0x26E JUMP JUMPDEST PUSH3 0x2B9 DUP7 DUP4 PUSH3 0x26E JUMP JUMPDEST SWAP6 POP DUP1 NOT DUP5 AND SWAP4 POP DUP1 DUP7 AND DUP5 OR SWAP3 POP POP POP SWAP4 SWAP3 POP POP POP JUMP JUMPDEST PUSH1 0x0 DUP2 SWAP1 POP SWAP2 SWAP1 POP JUMP JUMPDEST PUSH1 0x0 DUP2 SWAP1 POP SWAP2 SWAP1 POP JUMP JUMPDEST PUSH1 0x0 PUSH3 0x306 PUSH3 0x300 PUSH3 0x2FA DUP5 PUSH3 0x2D1 JUMP JUMPDEST PUSH3 0x2DB JUMP JUMPDEST PUSH3 0x2D1 JUMP JUMPDEST SWAP1 POP SWAP2 SWAP1 POP JUMP JUMPDEST PUSH1 0x0 DUP2 SWAP1 POP SWAP2 SWAP1 POP JUMP JUMPDEST PUSH3 0x322 DUP4 PUSH3 0x2E5 JUMP JUMPDEST PUSH3 0x33A PUSH3 0x331 DUP3 PUSH3 0x30D JUMP JUMPDEST DUP5 DUP5 SLOAD PUSH3 0x27B JUMP JUMPDEST DUP3 SSTORE POP POP POP POP JUMP JUMPDEST PUSH1 0x0 SWAP1 JUMP JUMPDEST PUSH3 0x351 PUSH3 0x342 JUMP JUMPDEST PUSH3 0x35E DUP2 DUP5 DUP5 PUSH3 0x317 JUMP JUMPDEST POP POP POP JUMP JUMPDEST JUMPDEST DUP2 DUP2 LT ISZERO PUSH3 0x386 JUMPI PUSH3 0x37A PUSH1 0x0 DUP3 PUSH3 0x347 JUMP JUMPDEST PUSH1 0x1 DUP2 ADD SWAP1 POP PUSH3 0x364 JUMP JUMPDEST POP POP JUMP JUMPDEST PUSH1 0x1F DUP3 GT ISZERO PUSH3 0x3D5 JUMPI PUSH3 0x39F DUP2 PUSH3 0x249 JUMP JUMPDEST PUSH3 0x3AA DUP5 PUSH3 0x25E JUMP JUMPDEST DUP2 ADD PUSH1 0x20 DUP6 LT ISZERO PUSH3 0x3BA JUMPI DUP2 SWAP1 POP JUMPDEST PUSH3 0x3D2 PUSH3 0x3C9 DUP6 PUSH3 0x25E JUMP JUMPDEST DUP4 ADD DUP3 PUSH3 0x363 JUMP JUMPDEST POP POP JUMPDEST POP POP POP JUMP JUMPDEST PUSH1 0x0 DUP3 DUP3 SHR SWAP1 POP SWAP3 SWAP2 POP POP JUMP JUMPDEST PUSH1 0x0 PUSH3 0x3FA PUSH1 0x0 NOT DUP5 PUSH1 0x8 MUL PUSH3 0x3DA JUMP JUMPDEST NOT DUP1 DUP4 AND SWAP2 POP POP SWAP3 SWAP2 POP POP JUMP JUMPDEST PUSH1 0x0 PUSH3 0x415 DUP4 DUP4 PUSH3 0x3E7 JUMP JUMPDEST SWAP2 POP DUP3 PUSH1 0x2 MUL DUP3 OR SWAP1 POP SWAP3 SWAP2 POP POP JUMP JUMPDEST PUSH3 0x430 DUP3 PUSH3 0x1AB JUMP JUMPDEST PUSH8 0xFFFFFFFFFFFFFFFF DUP2 GT ISZERO PUSH3 0x44C JUMPI PUSH3 0x44B PUSH3 0x1B6 JUMP JUMPDEST JUMPDEST PUSH3 0x458 DUP3 SLOAD PUSH3 0x214 JUMP JUMPDEST PUSH3 0x465 DUP3 DUP3 DUP6 PUSH3 0x38A JUMP JUMPDEST PUSH1 0x0 PUSH1 0x20 SWAP1 POP PUSH1 0x1F DUP4 GT PUSH1 0x1 DUP2 EQ PUSH3 0x49D JUMPI PUSH1 0x0 DUP5 ISZERO PUSH3 0x488 JUMPI DUP3 DUP8 ADD MLOAD SWAP1 POP JUMPDEST PUSH3 0x494 DUP6 DUP3 PUSH3 0x407 JUMP JUMPDEST DUP7 SSTORE POP PUSH3 0x504 JUMP JUMPDEST PUSH1 0x1F NOT DUP5 AND PUSH3 0x4AD DUP7 PUSH3 0x249 JUMP JUMPDEST PUSH1 0x0 JUMPDEST DUP3 DUP2 LT ISZERO PUSH3 0x4D7 JUMPI DUP5 DUP10 ADD MLOAD DUP3 SSTORE PUSH1 0x1 DUP3 ADD SWAP2 POP PUSH1 0x20 DUP6 ADD SWAP5 POP PUSH1 0x20 DUP2 ADD SWAP1 POP PUSH3 0x4B0 JUMP JUMPDEST DUP7 DUP4 LT ISZERO PUSH3 0x4F7 JUMPI DUP5 DUP10 ADD MLOAD PUSH3 0x4F3 PUSH1 0x1F DUP10 AND DUP3 PUSH3 0x3E7 JUMP JUMPDEST DUP4 SSTORE POP JUMPDEST PUSH1 0x1 PUSH1 0x2 DUP9 MUL ADD DUP9 SSTORE POP POP POP JUMPDEST POP POP POP POP POP POP JUMP JUMPDEST PUSH1 0x0 DUP2 SWAP1 POP SWAP3 SWAP2 POP POP JUMP JUMPDEST PUSH1 0x0 DUP2 SWAP1 POP DUP2 PUSH1 0x0 MSTORE PUSH1 0x20 PUSH1 0x0 KECCAK256 SWAP1 POP SWAP2 SWAP1 POP JUMP JUMPDEST PUSH1 0x0 DUP2 SLOAD PUSH3 0x53B DUP2 PUSH3 0x214 JUMP JUMPDEST PUSH3 0x547 DUP2 DUP7 PUSH3 0x50C JUMP JUMPDEST SWAP5 POP PUSH1 0x1 DUP3 AND PUSH1 0x0 DUP2 EQ PUSH3 0x565 JUMPI PUSH1 0x1 DUP2 EQ PUSH3 0x57B JUMPI PUSH3 0x5B2 JUMP JUMPDEST PUSH1 0xFF NOT DUP4 AND DUP7 MSTORE DUP2 ISZERO ISZERO DUP3 MUL DUP7 ADD SWAP4 POP PUSH3 0x5B2 JUMP JUMPDEST PUSH3 0x586 DUP6 PUSH3 0x517 JUMP JUMPDEST PUSH1 0x0 JUMPDEST DUP4 DUP2 LT ISZERO PUSH3 0x5AA JUMPI DUP2 SLOAD DUP2 DUP10 ADD MSTORE PUSH1 0x1 DUP3 ADD SWAP2 POP PUSH1 0x20 DUP2 ADD SWAP1 POP PUSH3 0x589 JUMP JUMPDEST DUP4 DUP9 ADD SWAP6 POP POP POP JUMPDEST POP POP POP SWAP3 SWAP2 POP POP JUMP JUMPDEST PUSH1 0x0 PUSH3 0x5C9 DUP3 DUP5 PUSH3 0x52C JUMP JUMPDEST SWAP2 POP DUP2 SWAP1 POP SWAP3 SWAP2 POP POP JUMP JUMPDEST PUSH1 0x0 DUP2 SWAP1 POP SWAP2 SWAP1 POP JUMP JUMPDEST PUSH3 0x5E9 DUP2 PUSH3 0x5D4 JUMP JUMPDEST DUP3 MSTORE POP POP JUMP JUMPDEST PUSH3 0x5FA DUP2 PUSH3 0x2D1 JUMP JUMPDEST DUP3 MSTORE POP POP JUMP JUMPDEST PUSH1 0x0 PUSH20 0xFFFFFFFFFFFFFFFFFFFFFFFFFFFFFFFFFFFFFFFF DUP3 AND SWAP1 POP SWAP2 SWAP1 POP JUMP JUMPDEST PUSH1 0x0 PUSH3 0x62D DUP3 PUSH3 0x600 JUMP JUMPDEST SWAP1 POP SWAP2 SWAP1 POP JUMP JUMPDEST PUSH3 0x63F DUP2 PUSH3 0x620 JUMP JUMPDEST DUP3 MSTORE POP POP JUMP JUMPDEST PUSH1 0x0 PUSH1 0xA0 DUP3 ADD SWAP1 POP PUSH3 0x65C PUSH1 0x0 DUP4 ADD DUP9 PUSH3 0x5DE JUMP JUMPDEST PUSH3 0x66B PUSH1 0x20 DUP4 ADD DUP8 PUSH3 0x5DE JUMP JUMPDEST PUSH3 0x67A PUSH1 0x40 DUP4 ADD DUP7 PUSH3 0x5DE JUMP JUMPDEST PUSH3 0x689 PUSH1 0x60 DUP4 ADD DUP6 PUSH3 0x5EF JUMP JUMPDEST PUSH3 0x698 PUSH1 0x80 DUP4 ADD DUP5 PUSH3 0x634 JUMP JUMPDEST SWAP7 SWAP6 POP POP POP POP POP POP JUMP JUMPDEST PUSH1 0x80 MLOAD PUSH1 0xA0 MLOAD PUSH1 0xC0 MLOAD PUSH2 0x3914 PUSH3 0x6D2 PUSH1 0x0 CODECOPY PUSH1 0x0 PUSH2 0x92C ADD MSTORE PUSH1 0x0 PUSH2 0x8F8 ADD MSTORE PUSH1 0x0 PUSH2 0x8D2 ADD MSTORE PUSH2 0x3914 PUSH1 0x0 RETURN INVALID PUSH1 0x80 PUSH1 0x40 MSTORE CALLVALUE DUP1 ISZERO PUSH2 0x10 JUMPI PUSH1 0x0 DUP1 REVERT JUMPDEST POP PUSH1 0x4 CALLDATASIZE LT PUSH2 0x14D JUMPI PUSH1 0x0 CALLDATALOAD PUSH1 0xE0 SHR DUP1 PUSH4 0x6A627842 GT PUSH2 0xC3 JUMPI DUP1 PUSH4 0xA9059CBB GT PUSH2 0x7C JUMPI DUP1 PUSH4 0xA9059CBB EQ PUSH2 0x3BB JUMPI DUP1 PUSH4 0xC45A0155 EQ PUSH2 0x3EB JUMPI DUP1 PUSH4 0xD21220A7 EQ PUSH2 0x409 JUMPI DUP1 PUSH4 0xD505ACCF EQ PUSH2 0x427 JUMPI DUP1 PUSH4 0xDD62ED3E EQ PUSH2 0x443 JUMPI DUP1 PUSH4 0xFFF6CAE9 EQ PUSH2 0x473 JUMPI PUSH2 0x14D JUMP JUMPDEST DUP1 PUSH4 0x6A627842 EQ PUSH2 0x2C0 JUMPI DUP1 PUSH4 0x6D9A640A EQ PUSH2 0x2F0 JUMPI DUP1 PUSH4 0x70A08231 EQ PUSH2 0x30C JUMPI DUP1 PUSH4 0x7ECEBE00 EQ PUSH2 0x33C JUMPI DUP1 PUSH4 0x89AFCB44 EQ PUSH2 0x36C JUMPI DUP1 PUSH4 0x95D89B41 EQ PUSH2 0x39D JUMPI PUSH2 0x14D JUMP JUMPDEST DUP1 PUSH4 0x23B872DD GT PUSH2 0x115 JUMPI DUP1 PUSH4 0x23B872DD EQ PUSH2 0x1FC JUMPI DUP1 PUSH4 0x313CE567 EQ PUSH2 0x22C JUMPI DUP1 PUSH4 0x3644E515 EQ PUSH2 0x24A JUMPI DUP1 PUSH4 0x485CC955 EQ PUSH2 0x268 JUMPI DUP1 PUSH4 0x5909C0D5 EQ PUSH2 0x284 JUMPI DUP1 PUSH4 0x5A3D5493 EQ PUSH2 0x2A2 JUMPI PUSH2 0x14D JUMP JUMPDEST DUP1 PUSH4 0x6FDDE03 EQ PUSH2 0x152 JUMPI DUP1 PUSH4 0x902F1AC EQ PUSH2 0x170 JUMPI DUP1 PUSH4 0x95EA7B3 EQ PUSH2 0x190 JUMPI DUP1 PUSH4 0xDFE1681 EQ PUSH2 0x1C0 JUMPI DUP1 PUSH4 0x18160DDD EQ PUSH2 0x1DE JUMPI JUMPDEST PUSH1 0x0 DUP1 REVERT JUMPDEST PUSH2 0x15A PUSH2 0x47D JUMP JUMPDEST PUSH1 0x40 MLOAD PUSH2 0x167 SWAP2 SWAP1 PUSH2 0x2823 JUMP JUMPDEST PUSH1 0x40 MLOAD DUP1 SWAP2 SUB SWAP1 RETURN JUMPDEST PUSH2 0x178 PUSH2 0x50B JUMP JUMPDEST PUSH1 0x40 MLOAD PUSH2 0x187 SWAP4 SWAP3 SWAP2 SWAP1 PUSH2 0x288D JUMP JUMPDEST PUSH1 0x40 MLOAD DUP1 SWAP2 SUB SWAP1 RETURN JUMPDEST PUSH2 0x1AA PUSH1 0x4 DUP1 CALLDATASIZE SUB DUP2 ADD SWAP1 PUSH2 0x1A5 SWAP2 SWAP1 PUSH2 0x295D JUMP JUMPDEST PUSH2 0x568 JUMP JUMPDEST PUSH1 0x40 MLOAD PUSH2 0x1B7 SWAP2 SWAP1 PUSH2 0x29B8 JUMP JUMPDEST PUSH1 0x40 MLOAD DUP1 SWAP2 SUB SWAP1 RETURN JUMPDEST PUSH2 0x1C8 PUSH2 0x65A JUMP JUMPDEST PUSH1 0x40 MLOAD PUSH2 0x1D5 SWAP2 SWAP1 PUSH2 0x29E2 JUMP JUMPDEST PUSH1 0x40 MLOAD DUP1 SWAP2 SUB SWAP1 RETURN JUMPDEST PUSH2 0x1E6 PUSH2 0x680 JUMP JUMPDEST PUSH1 0x40 MLOAD PUSH2 0x1F3 SWAP2 SWAP1 PUSH2 0x2A0C JUMP JUMPDEST PUSH1 0x40 MLOAD DUP1 SWAP2 SUB SWAP1 RETURN JUMPDEST PUSH2 0x216 PUSH1 0x4 DUP1 CALLDATASIZE SUB DUP2 ADD SWAP1 PUSH2 0x211 SWAP2 SWAP1 PUSH2 0x2A27 JUMP JUMPDEST PUSH2 0x686 JUMP JUMPDEST PUSH1 0x40 MLOAD PUSH2 0x223 SWAP2 SWAP1 PUSH2 0x29B8 JUMP JUMPDEST PUSH1 0x40 MLOAD DUP1 SWAP2 SUB SWAP1 RETURN JUMPDEST PUSH2 0x234 PUSH2 0x8D0 JUMP JUMPDEST PUSH1 0x40 MLOAD PUSH2 0x241 SWAP2 SWAP1 PUSH2 0x2A96 JUMP JUMPDEST PUSH1 0x40 MLOAD DUP1 SWAP2 SUB SWAP1 RETURN JUMPDEST PUSH2 0x252 PUSH2 0x8F4 JUMP JUMPDEST PUSH1 0x40 MLOAD PUSH2 0x25F SWAP2 SWAP1 PUSH2 0x2ACA JUMP JUMPDEST PUSH1 0x40 MLOAD DUP1 SWAP2 SUB SWAP1 RETURN JUMPDEST PUSH2 0x282 PUSH1 0x4 DUP1 CALLDATASIZE SUB DUP2 ADD SWAP1 PUSH2 0x27D SWAP2 SWAP1 PUSH2 0x2AE5 JUMP JUMPDEST PUSH2 0x951 JUMP JUMPDEST STOP JUMPDEST PUSH2 0x28C PUSH2 0xB4B JUMP JUMPDEST PUSH1 0x40 MLOAD PUSH2 0x299 SWAP2 SWAP1 PUSH2 0x2A0C JUMP JUMPDEST PUSH1 0x40 MLOAD DUP1 SWAP2 SUB SWAP1 RETURN JUMPDEST PUSH2 0x2AA PUSH2 0xB51 JUMP JUMPDEST PUSH1 0x40 MLOAD PUSH2 0x2B7 SWAP2 SWAP1 PUSH2 0x2A0C JUMP JUMPDEST PUSH1 0x40 MLOAD DUP1 SWAP2 SUB SWAP1 RETURN JUMPDEST PUSH2 0x2DA PUSH1 0x4 DUP1 CALLDATASIZE SUB DUP2 ADD SWAP1 PUSH2 0x2D5 SWAP2 SWAP1 PUSH2 0x2B25 JUMP JUMPDEST PUSH2 0xB57 JUMP JUMPDEST PUSH1 0x40 MLOAD PUSH2 0x2E7 SWAP2 SWAP1 PUSH2 0x2A0C JUMP JUMPDEST PUSH1 0x40 MLOAD DUP1 SWAP2 SUB SWAP1 RETURN JUMPDEST PUSH2 0x30A PUSH1 0x4 DUP1 CALLDATASIZE SUB DUP2 ADD SWAP1 PUSH2 0x305 SWAP2 SWAP1 PUSH2 0x2B52 JUMP JUMPDEST PUSH2 0xEBF JUMP JUMPDEST STOP JUMPDEST PUSH2 0x326 PUSH1 0x4 DUP1 CALLDATASIZE SUB DUP2 ADD SWAP1 PUSH2 0x321 SWAP2 SWAP1 PUSH2 0x2B25 JUMP JUMPDEST PUSH2 0x147F JUMP JUMPDEST PUSH1 0x40 MLOAD PUSH2 0x333 SWAP2 SWAP1 PUSH2 0x2A0C JUMP JUMPDEST PUSH1 0x40 MLOAD DUP1 SWAP2 SUB SWAP1 RETURN JUMPDEST PUSH2 0x356 PUSH1 0x4 DUP1 CALLDATASIZE SUB DUP2 ADD SWAP1 PUSH2 0x351 SWAP2 SWAP1 PUSH2 0x2B25 JUMP JUMPDEST PUSH2 0x1497 JUMP JUMPDEST PUSH1 0x40 MLOAD PUSH2 0x363 SWAP2 SWAP1 PUSH2 0x2A0C JUMP JUMPDEST PUSH1 0x40 MLOAD DUP1 SWAP2 SUB SWAP1 RETURN JUMPDEST PUSH2 0x386 PUSH1 0x4 DUP1 CALLDATASIZE SUB DUP2 ADD SWAP1 PUSH2 0x381 SWAP2 SWAP1 PUSH2 0x2B25 JUMP JUMPDEST PUSH2 0x14AF JUMP JUMPDEST PUSH1 0x40 MLOAD PUSH2 0x394 SWAP3 SWAP2 SWAP1 PUSH2 0x2BA5 JUMP JUMPDEST PUSH1 0x40 MLOAD DUP1 SWAP2 SUB SWAP1 RETURN JUMPDEST PUSH2 0x3A5 PUSH2 0x1959 JUMP JUMPDEST PUSH1 0x40 MLOAD PUSH2 0x3B2 SWAP2 SWAP1 PUSH2 0x2823 JUMP JUMPDEST PUSH1 0x40 MLOAD DUP1 SWAP2 SUB SWAP1 RETURN JUMPDEST PUSH2 0x3D5 PUSH1 0x4 DUP1 CALLDATASIZE SUB DUP2 ADD SWAP1 PUSH2 0x3D0 SWAP2 SWAP1 PUSH2 0x295D JUMP JUMPDEST PUSH2 0x19E7 JUMP JUMPDEST PUSH1 0x40 MLOAD PUSH2 0x3E2 SWAP2 SWAP1 PUSH2 0x29B8 JUMP JUMPDEST PUSH1 0x40 MLOAD DUP1 SWAP2 SUB SWAP1 RETURN JUMPDEST PUSH2 0x3F3 PUSH2 0x1AFB JUMP JUMPDEST PUSH1 0x40 MLOAD PUSH2 0x400 SWAP2 SWAP1 PUSH2 0x29E2 JUMP JUMPDEST PUSH1 0x40 MLOAD DUP1 SWAP2 SUB SWAP1 RETURN JUMPDEST PUSH2 0x411 PUSH2 0x1B21 JUMP JUMPDEST PUSH1 0x40 MLOAD PUSH2 0x41E SWAP2 SWAP1 PUSH2 0x29E2 JUMP JUMPDEST PUSH1 0x40 MLOAD DUP1 SWAP2 SUB SWAP1 RETURN JUMPDEST PUSH2 0x441 PUSH1 0x4 DUP1 CALLDATASIZE SUB DUP2 ADD SWAP1 PUSH2 0x43C SWAP2 SWAP1 PUSH2 0x2C26 JUMP JUMPDEST PUSH2 0x1B47 JUMP JUMPDEST STOP JUMPDEST PUSH2 0x45D PUSH1 0x4 DUP1 CALLDATASIZE SUB DUP2 ADD SWAP1 PUSH2 0x458 SWAP2 SWAP1 PUSH2 0x2AE5 JUMP JUMPDEST PUSH2 0x1E40 JUMP JUMPDEST PUSH1 0x40 MLOAD PUSH2 0x46A SWAP2 SWAP1 PUSH2 0x2A0C JUMP JUMPDEST PUSH1 0x40 MLOAD DUP1 SWAP2 SUB SWAP1 RETURN JUMPDEST PUSH2 0x47B PUSH2 0x1E65 JUMP JUMPDEST STOP JUMPDEST PUSH1 0x0 DUP1 SLOAD PUSH2 0x48A SWAP1 PUSH2 0x2CF7 JUMP JUMPDEST DUP1 PUSH1 0x1F ADD PUSH1 0x20 DUP1 SWAP2 DIV MUL PUSH1 0x20 ADD PUSH1 0x40 MLOAD SWAP1 DUP2 ADD PUSH1 0x40 MSTORE DUP1 SWAP3 SWAP2 SWAP1 DUP2 DUP2 MSTORE PUSH1 0x20 ADD DUP3 DUP1 SLOAD PUSH2 0x4B6 SWAP1 PUSH2 0x2CF7 JUMP JUMPDEST DUP1 ISZERO PUSH2 0x503 JUMPI DUP1 PUSH1 0x1F LT PUSH2 0x4D8 JUMPI PUSH2 0x100 DUP1 DUP4 SLOAD DIV MUL DUP4 MSTORE SWAP2 PUSH1 0x20 ADD SWAP2 PUSH2 0x503 JUMP JUMPDEST DUP3 ADD SWAP2 SWAP1 PUSH1 0x0 MSTORE PUSH1 0x20 PUSH1 0x0 KECCAK256 SWAP1 JUMPDEST DUP2 SLOAD DUP2 MSTORE SWAP1 PUSH1 0x1 ADD SWAP1 PUSH1 0x20 ADD DUP1 DUP4 GT PUSH2 0x4E6 JUMPI DUP3 SWAP1 SUB PUSH1 0x1F AND DUP3 ADD SWAP2 JUMPDEST POP POP POP POP POP DUP2 JUMP JUMPDEST PUSH1 0x0 DUP1 PUSH1 0x0 PUSH1 0x9 PUSH1 0x0 SWAP1 SLOAD SWAP1 PUSH2 0x100 EXP SWAP1 DIV PUSH14 0xFFFFFFFFFFFFFFFFFFFFFFFFFFFF AND PUSH1 0x9 PUSH1 0xE SWAP1 SLOAD SWAP1 PUSH2 0x100 EXP SWAP1 DIV PUSH14 0xFFFFFFFFFFFFFFFFFFFFFFFFFFFF AND PUSH1 0x9 PUSH1 0x1C SWAP1 SLOAD SWAP1 PUSH2 0x100 EXP SWAP1 DIV PUSH4 0xFFFFFFFF AND SWAP3 POP SWAP3 POP SWAP3 POP SWAP1 SWAP2 SWAP3 JUMP JUMPDEST PUSH1 0x0 DUP2 PUSH1 0x4 PUSH1 0x0 CALLER PUSH20 0xFFFFFFFFFFFFFFFFFFFFFFFFFFFFFFFFFFFFFFFF AND PUSH20 0xFFFFFFFFFFFFFFFFFFFFFFFFFFFFFFFFFFFFFFFF AND DUP2 MSTORE PUSH1 0x20 ADD SWAP1 DUP2 MSTORE PUSH1 0x20 ADD PUSH1 0x0 KECCAK256 PUSH1 0x0 DUP6 PUSH20 0xFFFFFFFFFFFFFFFFFFFFFFFFFFFFFFFFFFFFFFFF AND PUSH20 0xFFFFFFFFFFFFFFFFFFFFFFFFFFFFFFFFFFFFFFFF AND DUP2 MSTORE PUSH1 0x20 ADD SWAP1 DUP2 MSTORE PUSH1 0x20 ADD PUSH1 0x0 KECCAK256 DUP2 SWAP1 SSTORE POP DUP3 PUSH20 0xFFFFFFFFFFFFFFFFFFFFFFFFFFFFFFFFFFFFFFFF AND CALLER PUSH20 0xFFFFFFFFFFFFFFFFFFFFFFFFFFFFFFFFFFFFFFFF AND PUSH32 0x8C5BE1E5EBEC7D5BD14F71427D1E84F3DD0314C0F7B2291E5B200AC8C7C3B925 DUP5 PUSH1 0x40 MLOAD PUSH2 0x648 SWAP2 SWAP1 PUSH2 0x2A0C JUMP JUMPDEST PUSH1 0x40 MLOAD DUP1 SWAP2 SUB SWAP1 LOG3 PUSH1 0x1 SWAP1 POP SWAP3 SWAP2 POP POP JUMP JUMPDEST PUSH1 0x7 PUSH1 0x0 SWAP1 SLOAD SWAP1 PUSH2 0x100 EXP SWAP1 DIV PUSH20 0xFFFFFFFFFFFFFFFFFFFFFFFFFFFFFFFFFFFFFFFF AND DUP2 JUMP JUMPDEST PUSH1 0x2 SLOAD DUP2 JUMP JUMPDEST PUSH1 0x0 DUP1 PUSH1 0x4 PUSH1 0x0 DUP7 PUSH20 0xFFFFFFFFFFFFFFFFFFFFFFFFFFFFFFFFFFFFFFFF AND PUSH20 0xFFFFFFFFFFFFFFFFFFFFFFFFFFFFFFFFFFFFFFFF AND DUP2 MSTORE PUSH1 0x20 ADD SWAP1 DUP2 MSTORE PUSH1 0x20 ADD PUSH1 0x0 KECCAK256 PUSH1 0x0 CALLER PUSH20 0xFFFFFFFFFFFFFFFFFFFFFFFFFFFFFFFFFFFFFFFF AND PUSH20 0xFFFFFFFFFFFFFFFFFFFFFFFFFFFFFFFFFFFFFFFF AND DUP2 MSTORE PUSH1 0x20 ADD SWAP1 DUP2 MSTORE PUSH1 0x20 ADD PUSH1 0x0 KECCAK256 SLOAD SWAP1 POP PUSH32 0xFFFFFFFFFFFFFFFFFFFFFFFFFFFFFFFFFFFFFFFFFFFFFFFFFFFFFFFFFFFFFFFF DUP2 EQ PUSH2 0x7BC JUMPI DUP3 DUP2 PUSH2 0x73B SWAP2 SWAP1 PUSH2 0x2D57 JUMP JUMPDEST PUSH1 0x4 PUSH1 0x0 DUP8 PUSH20 0xFFFFFFFFFFFFFFFFFFFFFFFFFFFFFFFFFFFFFFFF AND PUSH20 0xFFFFFFFFFFFFFFFFFFFFFFFFFFFFFFFFFFFFFFFF AND DUP2 MSTORE PUSH1 0x20 ADD SWAP1 DUP2 MSTORE PUSH1 0x20 ADD PUSH1 0x0 KECCAK256 PUSH1 0x0 CALLER PUSH20 0xFFFFFFFFFFFFFFFFFFFFFFFFFFFFFFFFFFFFFFFF AND PUSH20 0xFFFFFFFFFFFFFFFFFFFFFFFFFFFFFFFFFFFFFFFF AND DUP2 MSTORE PUSH1 0x20 ADD SWAP1 DUP2 MSTORE PUSH1 0x20 ADD PUSH1 0x0 KECCAK256 DUP2 SWAP1 SSTORE POP JUMPDEST DUP3 PUSH1 0x3 PUSH1 0x0 DUP8 PUSH20 0xFFFFFFFFFFFFFFFFFFFFFFFFFFFFFFFFFFFFFFFF AND PUSH20 0xFFFFFFFFFFFFFFFFFFFFFFFFFFFFFFFFFFFFFFFF AND DUP2 MSTORE PUSH1 0x20 ADD SWAP1 DUP2 MSTORE PUSH1 0x20 ADD PUSH1 0x0 KECCAK256 PUSH1 0x0 DUP3 DUP3 SLOAD PUSH2 0x80B SWAP2 SWAP1 PUSH2 0x2D57 JUMP JUMPDEST SWAP3 POP POP DUP2 SWAP1 SSTORE POP DUP3 PUSH1 0x3 PUSH1 0x0 DUP7 PUSH20 0xFFFFFFFFFFFFFFFFFFFFFFFFFFFFFFFFFFFFFFFF AND PUSH20 0xFFFFFFFFFFFFFFFFFFFFFFFFFFFFFFFFFFFFFFFF AND DUP2 MSTORE PUSH1 0x20 ADD SWAP1 DUP2 MSTORE PUSH1 0x20 ADD PUSH1 0x0 KECCAK256 PUSH1 0x0 DUP3 DUP3 SLOAD ADD SWAP3 POP POP DUP2 SWAP1 SSTORE POP DUP4 PUSH20 0xFFFFFFFFFFFFFFFFFFFFFFFFFFFFFFFFFFFFFFFF AND DUP6 PUSH20 0xFFFFFFFFFFFFFFFFFFFFFFFFFFFFFFFFFFFFFFFF AND PUSH32 0xDDF252AD1BE2C89B69C2B068FC378DAA952BA7F163C4A11628F55A4DF523B3EF DUP6 PUSH1 0x40 MLOAD PUSH2 0x8BC SWAP2 SWAP1 PUSH2 0x2A0C JUMP JUMPDEST PUSH1 0x40 MLOAD DUP1 SWAP2 SUB SWAP1 LOG3 PUSH1 0x1 SWAP2 POP POP SWAP4 SWAP3 POP POP POP JUMP JUMPDEST PUSH32 0x0 DUP2 JUMP JUMPDEST PUSH1 0x0 PUSH32 0x0 CHAINID EQ PUSH2 0x92A JUMPI PUSH2 0x925 PUSH2 0x2041 JUMP JUMPDEST PUSH2 0x94C JUMP JUMPDEST PUSH32 0x0 JUMPDEST SWAP1 POP SWAP1 JUMP JUMPDEST PUSH1 0x6 PUSH1 0x0 SWAP1 SLOAD SWAP1 PUSH2 0x100 EXP SWAP1 DIV PUSH20 0xFFFFFFFFFFFFFFFFFFFFFFFFFFFFFFFFFFFFFFFF AND PUSH20 0xFFFFFFFFFFFFFFFFFFFFFFFFFFFFFFFFFFFFFFFF AND CALLER PUSH20 0xFFFFFFFFFFFFFFFFFFFFFFFFFFFFFFFFFFFFFFFF AND EQ PUSH2 0x9E1 JUMPI PUSH1 0x40 MLOAD PUSH32 0x8C379A000000000000000000000000000000000000000000000000000000000 DUP2 MSTORE PUSH1 0x4 ADD PUSH2 0x9D8 SWAP1 PUSH2 0x2DD7 JUMP JUMPDEST PUSH1 0x40 MLOAD DUP1 SWAP2 SUB SWAP1 REVERT JUMPDEST PUSH1 0x0 PUSH20 0xFFFFFFFFFFFFFFFFFFFFFFFFFFFFFFFFFFFFFFFF AND PUSH1 0x7 PUSH1 0x0 SWAP1 SLOAD SWAP1 PUSH2 0x100 EXP SWAP1 DIV PUSH20 0xFFFFFFFFFFFFFFFFFFFFFFFFFFFFFFFFFFFFFFFF AND PUSH20 0xFFFFFFFFFFFFFFFFFFFFFFFFFFFFFFFFFFFFFFFF AND EQ ISZERO DUP1 PUSH2 0xA8E JUMPI POP PUSH1 0x0 PUSH20 0xFFFFFFFFFFFFFFFFFFFFFFFFFFFFFFFFFFFFFFFF AND PUSH1 0x8 PUSH1 0x0 SWAP1 SLOAD SWAP1 PUSH2 0x100 EXP SWAP1 DIV PUSH20 0xFFFFFFFFFFFFFFFFFFFFFFFFFFFFFFFFFFFFFFFF AND PUSH20 0xFFFFFFFFFFFFFFFFFFFFFFFFFFFFFFFFFFFFFFFF AND EQ ISZERO JUMPDEST ISZERO PUSH2 0xAC5 JUMPI PUSH1 0x40 MLOAD PUSH32 0xDC149F000000000000000000000000000000000000000000000000000000000 DUP2 MSTORE PUSH1 0x4 ADD PUSH1 0x40 MLOAD DUP1 SWAP2 SUB SWAP1 REVERT JUMPDEST DUP2 PUSH1 0x7 PUSH1 0x0 PUSH2 0x100 EXP DUP2 SLOAD DUP2 PUSH20 0xFFFFFFFFFFFFFFFFFFFFFFFFFFFFFFFFFFFFFFFF MUL NOT AND SWAP1 DUP4 PUSH20 0xFFFFFFFFFFFFFFFFFFFFFFFFFFFFFFFFFFFFFFFF AND MUL OR SWAP1 SSTORE POP DUP1 PUSH1 0x8 PUSH1 0x0 PUSH2 0x100 EXP DUP2 SLOAD DUP2 PUSH20 0xFFFFFFFFFFFFFFFFFFFFFFFFFFFFFFFFFFFFFFFF MUL NOT AND SWAP1 DUP4 PUSH20 0xFFFFFFFFFFFFFFFFFFFFFFFFFFFFFFFFFFFFFFFF AND MUL OR SWAP1 SSTORE POP POP POP JUMP JUMPDEST PUSH1 0xA SLOAD DUP2 JUMP JUMPDEST PUSH1 0xB SLOAD DUP2 JUMP JUMPDEST PUSH1 0x0 PUSH1 0xC PUSH1 0x0 SWAP1 SLOAD SWAP1 PUSH2 0x100 EXP SWAP1 DIV PUSH1 0xFF AND ISZERO PUSH2 0xBA9 JUMPI PUSH1 0x40 MLOAD PUSH32 0x8C379A000000000000000000000000000000000000000000000000000000000 DUP2 MSTORE PUSH1 0x4 ADD PUSH2 0xBA0 SWAP1 PUSH2 0x2E69 JUMP JUMPDEST PUSH1 0x40 MLOAD DUP1 SWAP2 SUB SWAP1 REVERT JUMPDEST PUSH1 0x1 PUSH1 0xC PUSH1 0x0 PUSH2 0x100 EXP DUP2 SLOAD DUP2 PUSH1 0xFF MUL NOT AND SWAP1 DUP4 ISZERO ISZERO MUL OR SWAP1 SSTORE POP PUSH1 0x0 DUP1 PUSH2 0xBCF PUSH2 0x50B JUMP JUMPDEST POP SWAP2 POP SWAP2 POP PUSH1 0x0 PUSH1 0x7 PUSH1 0x0 SWAP1 SLOAD SWAP1 PUSH2 0x100 EXP SWAP1 DIV PUSH20 0xFFFFFFFFFFFFFFFFFFFFFFFFFFFFFFFFFFFFFFFF AND PUSH20 0xFFFFFFFFFFFFFFFFFFFFFFFFFFFFFFFFFFFFFFFF AND PUSH4 0x70A08231 ADDRESS PUSH1 0x40 MLOAD DUP3 PUSH4 0xFFFFFFFF AND PUSH1 0xE0 SHL DUP2 MSTORE PUSH1 0x4 ADD PUSH2 0xC31 SWAP2 SWAP1 PUSH2 0x29E2 JUMP JUMPDEST PUSH1 0x20 PUSH1 0x40 MLOAD DUP1 DUP4 SUB DUP2 DUP7 GAS STATICCALL ISZERO DUP1 ISZERO PUSH2 0xC4E JUMPI RETURNDATASIZE PUSH1 0x0 DUP1 RETURNDATACOPY RETURNDATASIZE PUSH1 0x0 REVERT JUMPDEST POP POP POP POP PUSH1 0x40 MLOAD RETURNDATASIZE PUSH1 0x1F NOT PUSH1 0x1F DUP3 ADD AND DUP3 ADD DUP1 PUSH1 0x40 MSTORE POP DUP2 ADD SWAP1 PUSH2 0xC72 SWAP2 SWAP1 PUSH2 0x2E9E JUMP JUMPDEST SWAP1 POP PUSH1 0x0 PUSH1 0x8 PUSH1 0x0 SWAP1 SLOAD SWAP1 PUSH2 0x100 EXP SWAP1 DIV PUSH20 0xFFFFFFFFFFFFFFFFFFFFFFFFFFFFFFFFFFFFFFFF AND PUSH20 0xFFFFFFFFFFFFFFFFFFFFFFFFFFFFFFFFFFFFFFFF AND PUSH4 0x70A08231 ADDRESS PUSH1 0x40 MLOAD DUP3 PUSH4 0xFFFFFFFF AND PUSH1 0xE0 SHL DUP2 MSTORE PUSH1 0x4 ADD PUSH2 0xCD1 SWAP2 SWAP1 PUSH2 0x29E2 JUMP JUMPDEST PUSH1 0x20 PUSH1 0x40 MLOAD DUP1 DUP4 SUB DUP2 DUP7 GAS STATICCALL ISZERO DUP1 ISZERO PUSH2 0xCEE JUMPI RETURNDATASIZE PUSH1 0x0 DUP1 RETURNDATACOPY RETURNDATASIZE PUSH1 0x0 REVERT JUMPDEST POP POP POP POP PUSH1 0x40 MLOAD RETURNDATASIZE PUSH1 0x1F NOT PUSH1 0x1F DUP3 ADD AND DUP3 ADD DUP1 PUSH1 0x40 MSTORE POP DUP2 ADD SWAP1 PUSH2 0xD12 SWAP2 SWAP1 PUSH2 0x2E9E JUMP JUMPDEST SWAP1 POP PUSH1 0x0 DUP5 PUSH14 0xFFFFFFFFFFFFFFFFFFFFFFFFFFFF AND DUP4 PUSH2 0xD32 SWAP2 SWAP1 PUSH2 0x2D57 JUMP JUMPDEST SWAP1 POP PUSH1 0x0 DUP5 PUSH14 0xFFFFFFFFFFFFFFFFFFFFFFFFFFFF AND DUP4 PUSH2 0xD52 SWAP2 SWAP1 PUSH2 0x2D57 JUMP JUMPDEST SWAP1 POP PUSH1 0x0 PUSH1 0x2 SLOAD SUB PUSH2 0xD93 JUMPI PUSH2 0x3E8 PUSH2 0xD75 DUP3 DUP5 PUSH2 0xD70 SWAP2 SWAP1 PUSH2 0x2ECB JUMP JUMPDEST PUSH2 0x20CD JUMP JUMPDEST PUSH2 0xD7F SWAP2 SWAP1 PUSH2 0x2D57 JUMP JUMPDEST SWAP7 POP PUSH2 0xD8E PUSH1 0x0 PUSH2 0x3E8 PUSH2 0x2147 JUMP JUMPDEST PUSH2 0xDF0 JUMP JUMPDEST PUSH2 0xDED DUP7 PUSH14 0xFFFFFFFFFFFFFFFFFFFFFFFFFFFF AND PUSH1 0x2 SLOAD DUP5 PUSH2 0xDB5 SWAP2 SWAP1 PUSH2 0x2ECB JUMP JUMPDEST PUSH2 0xDBF SWAP2 SWAP1 PUSH2 0x2F3C JUMP JUMPDEST DUP7 PUSH14 0xFFFFFFFFFFFFFFFFFFFFFFFFFFFF AND PUSH1 0x2 SLOAD DUP5 PUSH2 0xDDE SWAP2 SWAP1 PUSH2 0x2ECB JUMP JUMPDEST PUSH2 0xDE8 SWAP2 SWAP1 PUSH2 0x2F3C JUMP JUMPDEST PUSH2 0x2217 JUMP JUMPDEST SWAP7 POP JUMPDEST PUSH1 0x0 DUP8 GT PUSH2 0xE33 JUMPI PUSH1 0x40 MLOAD PUSH32 0x8C379A000000000000000000000000000000000000000000000000000000000 DUP2 MSTORE PUSH1 0x4 ADD PUSH2 0xE2A SWAP1 PUSH2 0x2FDF JUMP JUMPDEST PUSH1 0x40 MLOAD DUP1 SWAP2 SUB SWAP1 REVERT JUMPDEST PUSH2 0xE3D DUP9 DUP9 PUSH2 0x2147 JUMP JUMPDEST PUSH2 0xE49 DUP5 DUP5 DUP9 DUP9 PUSH2 0x2230 JUMP JUMPDEST DUP8 PUSH20 0xFFFFFFFFFFFFFFFFFFFFFFFFFFFFFFFFFFFFFFFF AND PUSH32 0x4C209B5FC8AD50758F13E2E1088BA56A560DFF690A1C6FEF26394F4C03821C4F DUP4 DUP4 PUSH1 0x40 MLOAD PUSH2 0xE91 SWAP3 SWAP2 SWAP1 PUSH2 0x2BA5 JUMP JUMPDEST PUSH1 0x40 MLOAD DUP1 SWAP2 SUB SWAP1 LOG2 POP POP POP POP POP POP PUSH1 0x0 PUSH1 0xC PUSH1 0x0 PUSH2 0x100 EXP DUP2 SLOAD DUP2 PUSH1 0xFF MUL NOT AND SWAP1 DUP4 ISZERO ISZERO MUL OR SWAP1 SSTORE POP SWAP2 SWAP1 POP JUMP JUMPDEST PUSH1 0xC PUSH1 0x0 SWAP1 SLOAD SWAP1 PUSH2 0x100 EXP SWAP1 DIV PUSH1 0xFF AND ISZERO PUSH2 0xF0F JUMPI PUSH1 0x40 MLOAD PUSH32 0x8C379A000000000000000000000000000000000000000000000000000000000 DUP2 MSTORE PUSH1 0x4 ADD PUSH2 0xF06 SWAP1 PUSH2 0x2E69 JUMP JUMPDEST PUSH1 0x40 MLOAD DUP1 SWAP2 SUB SWAP1 REVERT JUMPDEST PUSH1 0x1 PUSH1 0xC PUSH1 0x0 PUSH2 0x100 EXP DUP2 SLOAD DUP2 PUSH1 0xFF MUL NOT AND SWAP1 DUP4 ISZERO ISZERO MUL OR SWAP1 SSTORE POP PUSH1 0x0 DUP4 GT DUP1 PUSH2 0xF39 JUMPI POP PUSH1 0x0 DUP3 GT JUMPDEST PUSH2 0xF78 JUMPI PUSH1 0x40 MLOAD PUSH32 0x8C379A000000000000000000000000000000000000000000000000000000000 DUP2 MSTORE PUSH1 0x4 ADD PUSH2 0xF6F SWAP1 PUSH2 0x3071 JUMP JUMPDEST PUSH1 0x40 MLOAD DUP1 SWAP2 SUB SWAP1 REVERT JUMPDEST PUSH1 0x0 DUP1 PUSH2 0xF83 PUSH2 0x50B JUMP JUMPDEST POP SWAP2 POP SWAP2 POP DUP2 PUSH14 0xFFFFFFFFFFFFFFFFFFFFFFFFFFFF AND DUP6 LT DUP1 ISZERO PUSH2 0xFB6 JUMPI POP DUP1 PUSH14 0xFFFFFFFFFFFFFFFFFFFFFFFFFFFF AND DUP5 LT JUMPDEST PUSH2 0xFF5 JUMPI PUSH1 0x40 MLOAD PUSH32 0x8C379A000000000000000000000000000000000000000000000000000000000 DUP2 MSTORE PUSH1 0x4 ADD PUSH2 0xFEC SWAP1 PUSH2 0x30DD JUMP JUMPDEST PUSH1 0x40 MLOAD DUP1 SWAP2 SUB SWAP1 REVERT JUMPDEST PUSH1 0x0 DUP6 GT ISZERO PUSH2 0x102C JUMPI PUSH2 0x102B PUSH1 0x7 PUSH1 0x0 SWAP1 SLOAD SWAP1 PUSH2 0x100 EXP SWAP1 DIV PUSH20 0xFFFFFFFFFFFFFFFFFFFFFFFFFFFFFFFFFFFFFFFF AND DUP5 DUP8 PUSH2 0x24DF JUMP JUMPDEST JUMPDEST PUSH1 0x0 DUP5 GT ISZERO PUSH2 0x1063 JUMPI PUSH2 0x1062 PUSH1 0x8 PUSH1 0x0 SWAP1 SLOAD SWAP1 PUSH2 0x100 EXP SWAP1 DIV PUSH20 0xFFFFFFFFFFFFFFFFFFFFFFFFFFFFFFFFFFFFFFFF AND DUP5 DUP7 PUSH2 0x24DF JUMP JUMPDEST JUMPDEST PUSH1 0x0 PUSH1 0x7 PUSH1 0x0 SWAP1 SLOAD SWAP1 PUSH2 0x100 EXP SWAP1 DIV PUSH20 0xFFFFFFFFFFFFFFFFFFFFFFFFFFFFFFFFFFFFFFFF AND PUSH20 0xFFFFFFFFFFFFFFFFFFFFFFFFFFFFFFFFFFFFFFFF AND PUSH4 0x70A08231 ADDRESS PUSH1 0x40 MLOAD DUP3 PUSH4 0xFFFFFFFF AND PUSH1 0xE0 SHL DUP2 MSTORE PUSH1 0x4 ADD PUSH2 0x10C0 SWAP2 SWAP1 PUSH2 0x29E2 JUMP JUMPDEST PUSH1 0x20 PUSH1 0x40 MLOAD DUP1 DUP4 SUB DUP2 DUP7 GAS STATICCALL ISZERO DUP1 ISZERO PUSH2 0x10DD JUMPI RETURNDATASIZE PUSH1 0x0 DUP1 RETURNDATACOPY RETURNDATASIZE PUSH1 0x0 REVERT JUMPDEST POP POP POP POP PUSH1 0x40 MLOAD RETURNDATASIZE PUSH1 0x1F NOT PUSH1 0x1F DUP3 ADD AND DUP3 ADD DUP1 PUSH1 0x40 MSTORE POP DUP2 ADD SWAP1 PUSH2 0x1101 SWAP2 SWAP1 PUSH2 0x2E9E JUMP JUMPDEST SWAP1 POP PUSH1 0x0 PUSH1 0x8 PUSH1 0x0 SWAP1 SLOAD SWAP1 PUSH2 0x100 EXP SWAP1 DIV PUSH20 0xFFFFFFFFFFFFFFFFFFFFFFFFFFFFFFFFFFFFFFFF AND PUSH20 0xFFFFFFFFFFFFFFFFFFFFFFFFFFFFFFFFFFFFFFFF AND PUSH4 0x70A08231 ADDRESS PUSH1 0x40 MLOAD DUP3 PUSH4 0xFFFFFFFF AND PUSH1 0xE0 SHL DUP2 MSTORE PUSH1 0x4 ADD PUSH2 0x1160 SWAP2 SWAP1 PUSH2 0x29E2 JUMP JUMPDEST PUSH1 0x20 PUSH1 0x40 MLOAD DUP1 DUP4 SUB DUP2 DUP7 GAS STATICCALL ISZERO DUP1 ISZERO PUSH2 0x117D JUMPI RETURNDATASIZE PUSH1 0x0 DUP1 RETURNDATACOPY RETURNDATASIZE PUSH1 0x0 REVERT JUMPDEST POP POP POP POP PUSH1 0x40 MLOAD RETURNDATASIZE PUSH1 0x1F NOT PUSH1 0x1F DUP3 ADD AND DUP3 ADD DUP1 PUSH1 0x40 MSTORE POP DUP2 ADD SWAP1 PUSH2 0x11A1 SWAP2 SWAP1 PUSH2 0x2E9E JUMP JUMPDEST SWAP1 POP PUSH1 0x0 DUP8 PUSH1 0x9 PUSH1 0x0 SWAP1 SLOAD SWAP1 PUSH2 0x100 EXP SWAP1 DIV PUSH14 0xFFFFFFFFFFFFFFFFFFFFFFFFFFFF AND PUSH14 0xFFFFFFFFFFFFFFFFFFFFFFFFFFFF AND PUSH2 0x11DD SWAP2 SWAP1 PUSH2 0x2D57 JUMP JUMPDEST DUP4 GT PUSH2 0x11EA JUMPI PUSH1 0x0 PUSH2 0x122E JUMP JUMPDEST DUP8 PUSH1 0x9 PUSH1 0x0 SWAP1 SLOAD SWAP1 PUSH2 0x100 EXP SWAP1 DIV PUSH14 0xFFFFFFFFFFFFFFFFFFFFFFFFFFFF AND PUSH14 0xFFFFFFFFFFFFFFFFFFFFFFFFFFFF AND PUSH2 0x1222 SWAP2 SWAP1 PUSH2 0x2D57 JUMP JUMPDEST DUP4 PUSH2 0x122D SWAP2 SWAP1 PUSH2 0x2D57 JUMP JUMPDEST JUMPDEST SWAP1 POP PUSH1 0x0 DUP8 PUSH1 0x9 PUSH1 0xE SWAP1 SLOAD SWAP1 PUSH2 0x100 EXP SWAP1 DIV PUSH14 0xFFFFFFFFFFFFFFFFFFFFFFFFFFFF AND PUSH14 0xFFFFFFFFFFFFFFFFFFFFFFFFFFFF AND PUSH2 0x126A SWAP2 SWAP1 PUSH2 0x2D57 JUMP JUMPDEST DUP4 GT PUSH2 0x1277 JUMPI PUSH1 0x0 PUSH2 0x12BB JUMP JUMPDEST DUP8 PUSH1 0x9 PUSH1 0xE SWAP1 SLOAD SWAP1 PUSH2 0x100 EXP SWAP1 DIV PUSH14 0xFFFFFFFFFFFFFFFFFFFFFFFFFFFF AND PUSH14 0xFFFFFFFFFFFFFFFFFFFFFFFFFFFF AND PUSH2 0x12AF SWAP2 SWAP1 PUSH2 0x2D57 JUMP JUMPDEST DUP4 PUSH2 0x12BA SWAP2 SWAP1 PUSH2 0x2D57 JUMP JUMPDEST JUMPDEST SWAP1 POP PUSH1 0x0 DUP3 GT DUP1 PUSH2 0x12CC JUMPI POP PUSH1 0x0 DUP2 GT JUMPDEST PUSH2 0x130B JUMPI PUSH1 0x40 MLOAD PUSH32 0x8C379A000000000000000000000000000000000000000000000000000000000 DUP2 MSTORE PUSH1 0x4 ADD PUSH2 0x1302 SWAP1 PUSH2 0x316F JUMP JUMPDEST PUSH1 0x40 MLOAD DUP1 SWAP2 SUB SWAP1 REVERT JUMPDEST PUSH1 0x0 PUSH1 0x3 DUP4 PUSH2 0x131A SWAP2 SWAP1 PUSH2 0x2ECB JUMP JUMPDEST PUSH2 0x3E8 DUP7 PUSH2 0x1328 SWAP2 SWAP1 PUSH2 0x2ECB JUMP JUMPDEST PUSH2 0x1332 SWAP2 SWAP1 PUSH2 0x2D57 JUMP JUMPDEST SWAP1 POP PUSH1 0x0 PUSH1 0x3 DUP4 PUSH2 0x1343 SWAP2 SWAP1 PUSH2 0x2ECB JUMP JUMPDEST PUSH2 0x3E8 DUP7 PUSH2 0x1351 SWAP2 SWAP1 PUSH2 0x2ECB JUMP JUMPDEST PUSH2 0x135B SWAP2 SWAP1 PUSH2 0x2D57 JUMP JUMPDEST SWAP1 POP PUSH3 0xF4240 DUP8 PUSH14 0xFFFFFFFFFFFFFFFFFFFFFFFFFFFF AND DUP10 PUSH14 0xFFFFFFFFFFFFFFFFFFFFFFFFFFFF AND PUSH2 0x138D SWAP2 SWAP1 PUSH2 0x2ECB JUMP JUMPDEST PUSH2 0x1397 SWAP2 SWAP1 PUSH2 0x2ECB JUMP JUMPDEST DUP2 DUP4 PUSH2 0x13A3 SWAP2 SWAP1 PUSH2 0x2ECB JUMP JUMPDEST LT ISZERO PUSH2 0x13E4 JUMPI PUSH1 0x40 MLOAD PUSH32 0x8C379A000000000000000000000000000000000000000000000000000000000 DUP2 MSTORE PUSH1 0x4 ADD PUSH2 0x13DB SWAP1 PUSH2 0x31DB JUMP JUMPDEST PUSH1 0x40 MLOAD DUP1 SWAP2 SUB SWAP1 REVERT JUMPDEST PUSH2 0x13F0 DUP7 DUP7 DUP11 DUP11 PUSH2 0x2230 JUMP JUMPDEST DUP9 PUSH20 0xFFFFFFFFFFFFFFFFFFFFFFFFFFFFFFFFFFFFFFFF AND CALLER PUSH20 0xFFFFFFFFFFFFFFFFFFFFFFFFFFFFFFFFFFFFFFFF AND PUSH32 0x2A9237FF5AA599EF4C5EE4B1142B53429D5755E2685FE6288B2E3320202115F5 DUP14 DUP14 PUSH1 0x40 MLOAD PUSH2 0x144F SWAP3 SWAP2 SWAP1 PUSH2 0x2BA5 JUMP JUMPDEST PUSH1 0x40 MLOAD DUP1 SWAP2 SUB SWAP1 LOG3 POP POP POP POP POP POP POP POP PUSH1 0x0 PUSH1 0xC PUSH1 0x0 PUSH2 0x100 EXP DUP2 SLOAD DUP2 PUSH1 0xFF MUL NOT AND SWAP1 DUP4 ISZERO ISZERO MUL OR SWAP1 SSTORE POP POP POP POP JUMP JUMPDEST PUSH1 0x3 PUSH1 0x20 MSTORE DUP1 PUSH1 0x0 MSTORE PUSH1 0x40 PUSH1 0x0 KECCAK256 PUSH1 0x0 SWAP2 POP SWAP1 POP SLOAD DUP2 JUMP JUMPDEST PUSH1 0x5 PUSH1 0x20 MSTORE DUP1 PUSH1 0x0 MSTORE PUSH1 0x40 PUSH1 0x0 KECCAK256 PUSH1 0x0 SWAP2 POP SWAP1 POP SLOAD DUP2 JUMP JUMPDEST PUSH1 0x0 DUP1 PUSH1 0xC PUSH1 0x0 SWAP1 SLOAD SWAP1 PUSH2 0x100 EXP SWAP1 DIV PUSH1 0xFF AND ISZERO PUSH2 0x1502 JUMPI PUSH1 0x40 MLOAD PUSH32 0x8C379A000000000000000000000000000000000000000000000000000000000 DUP2 MSTORE PUSH1 0x4 ADD PUSH2 0x14F9 SWAP1 PUSH2 0x2E69 JUMP JUMPDEST PUSH1 0x40 MLOAD DUP1 SWAP2 SUB SWAP1 REVERT JUMPDEST PUSH1 0x1 PUSH1 0xC PUSH1 0x0 PUSH2 0x100 EXP DUP2 SLOAD DUP2 PUSH1 0xFF MUL NOT AND SWAP1 DUP4 ISZERO ISZERO MUL OR SWAP1 SSTORE POP PUSH1 0x0 PUSH1 0x7 PUSH1 0x0 SWAP1 SLOAD SWAP1 PUSH2 0x100 EXP SWAP1 DIV PUSH20 0xFFFFFFFFFFFFFFFFFFFFFFFFFFFFFFFFFFFFFFFF AND PUSH20 0xFFFFFFFFFFFFFFFFFFFFFFFFFFFFFFFFFFFFFFFF AND PUSH4 0x70A08231 ADDRESS PUSH1 0x40 MLOAD DUP3 PUSH4 0xFFFFFFFF AND PUSH1 0xE0 SHL DUP2 MSTORE PUSH1 0x4 ADD PUSH2 0x157A SWAP2 SWAP1 PUSH2 0x29E2 JUMP JUMPDEST PUSH1 0x20 PUSH1 0x40 MLOAD DUP1 DUP4 SUB DUP2 DUP7 GAS STATICCALL ISZERO DUP1 ISZERO PUSH2 0x1597 JUMPI RETURNDATASIZE PUSH1 0x0 DUP1 RETURNDATACOPY RETURNDATASIZE PUSH1 0x0 REVERT JUMPDEST POP POP POP POP PUSH1 0x40 MLOAD RETURNDATASIZE PUSH1 0x1F NOT PUSH1 0x1F DUP3 ADD AND DUP3 ADD DUP1 PUSH1 0x40 MSTORE POP DUP2 ADD SWAP1 PUSH2 0x15BB SWAP2 SWAP1 PUSH2 0x2E9E JUMP JUMPDEST SWAP1 POP PUSH1 0x0 PUSH1 0x8 PUSH1 0x0 SWAP1 SLOAD SWAP1 PUSH2 0x100 EXP SWAP1 DIV PUSH20 0xFFFFFFFFFFFFFFFFFFFFFFFFFFFFFFFFFFFFFFFF AND PUSH20 0xFFFFFFFFFFFFFFFFFFFFFFFFFFFFFFFFFFFFFFFF AND PUSH4 0x70A08231 ADDRESS PUSH1 0x40 MLOAD DUP3 PUSH4 0xFFFFFFFF AND PUSH1 0xE0 SHL DUP2 MSTORE PUSH1 0x4 ADD PUSH2 0x161A SWAP2 SWAP1 PUSH2 0x29E2 JUMP JUMPDEST PUSH1 0x20 PUSH1 0x40 MLOAD DUP1 DUP4 SUB DUP2 DUP7 GAS STATICCALL ISZERO DUP1 ISZERO PUSH2 0x1637 JUMPI RETURNDATASIZE PUSH1 0x0 DUP1 RETURNDATACOPY RETURNDATASIZE PUSH1 0x0 REVERT JUMPDEST POP POP POP POP PUSH1 0x40 MLOAD RETURNDATASIZE PUSH1 0x1F NOT PUSH1 0x1F DUP3 ADD AND DUP3 ADD DUP1 PUSH1 0x40 MSTORE POP DUP2 ADD SWAP1 PUSH2 0x165B SWAP2 SWAP1 PUSH2 0x2E9E JUMP JUMPDEST SWAP1 POP PUSH1 0x0 PUSH1 0x3 PUSH1 0x0 ADDRESS PUSH20 0xFFFFFFFFFFFFFFFFFFFFFFFFFFFFFFFFFFFFFFFF AND PUSH20 0xFFFFFFFFFFFFFFFFFFFFFFFFFFFFFFFFFFFFFFFF AND DUP2 MSTORE PUSH1 0x20 ADD SWAP1 DUP2 MSTORE PUSH1 0x20 ADD PUSH1 0x0 KECCAK256 SLOAD SWAP1 POP PUSH1 0x2 SLOAD DUP4 DUP3 PUSH2 0x16B0 SWAP2 SWAP1 PUSH2 0x2ECB JUMP JUMPDEST PUSH2 0x16BA SWAP2 SWAP1 PUSH2 0x2F3C JUMP JUMPDEST SWAP5 POP PUSH1 0x2 SLOAD DUP3 DUP3 PUSH2 0x16CB SWAP2 SWAP1 PUSH2 0x2ECB JUMP JUMPDEST PUSH2 0x16D5 SWAP2 SWAP1 PUSH2 0x2F3C JUMP JUMPDEST SWAP4 POP PUSH1 0x0 DUP6 GT DUP1 ISZERO PUSH2 0x16E7 JUMPI POP PUSH1 0x0 DUP5 GT JUMPDEST PUSH2 0x1726 JUMPI PUSH1 0x40 MLOAD PUSH32 0x8C379A000000000000000000000000000000000000000000000000000000000 DUP2 MSTORE PUSH1 0x4 ADD PUSH2 0x171D SWAP1 PUSH2 0x326D JUMP JUMPDEST PUSH1 0x40 MLOAD DUP1 SWAP2 SUB SWAP1 REVERT JUMPDEST PUSH2 0x1730 ADDRESS DUP3 PUSH2 0x2669 JUMP JUMPDEST PUSH2 0x175D PUSH1 0x7 PUSH1 0x0 SWAP1 SLOAD SWAP1 PUSH2 0x100 EXP SWAP1 DIV PUSH20 0xFFFFFFFFFFFFFFFFFFFFFFFFFFFFFFFFFFFFFFFF AND DUP8 DUP8 PUSH2 0x24DF JUMP JUMPDEST PUSH2 0x178A PUSH1 0x8 PUSH1 0x0 SWAP1 SLOAD SWAP1 PUSH2 0x100 EXP SWAP1 DIV PUSH20 0xFFFFFFFFFFFFFFFFFFFFFFFFFFFFFFFFFFFFFFFF AND DUP8 DUP7 PUSH2 0x24DF JUMP JUMPDEST PUSH1 0x7 PUSH1 0x0 SWAP1 SLOAD SWAP1 PUSH2 0x100 EXP SWAP1 DIV PUSH20 0xFFFFFFFFFFFFFFFFFFFFFFFFFFFFFFFFFFFFFFFF AND PUSH20 0xFFFFFFFFFFFFFFFFFFFFFFFFFFFFFFFFFFFFFFFF AND PUSH4 0x70A08231 ADDRESS PUSH1 0x40 MLOAD DUP3 PUSH4 0xFFFFFFFF AND PUSH1 0xE0 SHL DUP2 MSTORE PUSH1 0x4 ADD PUSH2 0x17E5 SWAP2 SWAP1 PUSH2 0x29E2 JUMP JUMPDEST PUSH1 0x20 PUSH1 0x40 MLOAD DUP1 DUP4 SUB DUP2 DUP7 GAS STATICCALL ISZERO DUP1 ISZERO PUSH2 0x1802 JUMPI RETURNDATASIZE PUSH1 0x0 DUP1 RETURNDATACOPY RETURNDATASIZE PUSH1 0x0 REVERT JUMPDEST POP POP POP POP PUSH1 0x40 MLOAD RETURNDATASIZE PUSH1 0x1F NOT PUSH1 0x1F DUP3 ADD AND DUP3 ADD DUP1 PUSH1 0x40 MSTORE POP DUP2 ADD SWAP1 PUSH2 0x1826 SWAP2 SWAP1 PUSH2 0x2E9E JUMP JUMPDEST SWAP3 POP PUSH1 0x8 PUSH1 0x0 SWAP1 SLOAD SWAP1 PUSH2 0x100 EXP SWAP1 DIV PUSH20 0xFFFFFFFFFFFFFFFFFFFFFFFFFFFFFFFFFFFFFFFF AND PUSH20 0xFFFFFFFFFFFFFFFFFFFFFFFFFFFFFFFFFFFFFFFF AND PUSH4 0x70A08231 ADDRESS PUSH1 0x40 MLOAD DUP3 PUSH4 0xFFFFFFFF AND PUSH1 0xE0 SHL DUP2 MSTORE PUSH1 0x4 ADD PUSH2 0x1883 SWAP2 SWAP1 PUSH2 0x29E2 JUMP JUMPDEST PUSH1 0x20 PUSH1 0x40 MLOAD DUP1 DUP4 SUB DUP2 DUP7 GAS STATICCALL ISZERO DUP1 ISZERO PUSH2 0x18A0 JUMPI RETURNDATASIZE PUSH1 0x0 DUP1 RETURNDATACOPY RETURNDATASIZE PUSH1 0x0 REVERT JUMPDEST POP POP POP POP PUSH1 0x40 MLOAD RETURNDATASIZE PUSH1 0x1F NOT PUSH1 0x1F DUP3 ADD AND DUP3 ADD DUP1 PUSH1 0x40 MSTORE POP DUP2 ADD SWAP1 PUSH2 0x18C4 SWAP2 SWAP1 PUSH2 0x2E9E JUMP JUMPDEST SWAP2 POP PUSH1 0x0 DUP1 PUSH2 0x18D1 PUSH2 0x50B JUMP JUMPDEST POP SWAP2 POP SWAP2 POP PUSH2 0x18E2 DUP6 DUP6 DUP5 DUP5 PUSH2 0x2230 JUMP JUMPDEST CALLER PUSH20 0xFFFFFFFFFFFFFFFFFFFFFFFFFFFFFFFFFFFFFFFF AND PUSH32 0xDCCD412F0B1252819CB1FD330B93224CA42612892BB3F4F789976E6D81936496 DUP9 DUP9 DUP12 PUSH1 0x40 MLOAD PUSH2 0x192C SWAP4 SWAP3 SWAP2 SWAP1 PUSH2 0x328D JUMP JUMPDEST PUSH1 0x40 MLOAD DUP1 SWAP2 SUB SWAP1 LOG2 POP POP POP POP POP PUSH1 0x0 PUSH1 0xC PUSH1 0x0 PUSH2 0x100 EXP DUP2 SLOAD DUP2 PUSH1 0xFF MUL NOT AND SWAP1 DUP4 ISZERO ISZERO MUL OR SWAP1 SSTORE POP SWAP2 POP SWAP2 JUMP JUMPDEST PUSH1 0x1 DUP1 SLOAD PUSH2 0x1966 SWAP1 PUSH2 0x2CF7 JUMP JUMPDEST DUP1 PUSH1 0x1F ADD PUSH1 0x20 DUP1 SWAP2 DIV MUL PUSH1 0x20 ADD PUSH1 0x40 MLOAD SWAP1 DUP2 ADD PUSH1 0x40 MSTORE DUP1 SWAP3 SWAP2 SWAP1 DUP2 DUP2 MSTORE PUSH1 0x20 ADD DUP3 DUP1 SLOAD PUSH2 0x1992 SWAP1 PUSH2 0x2CF7 JUMP JUMPDEST DUP1 ISZERO PUSH2 0x19DF JUMPI DUP1 PUSH1 0x1F LT PUSH2 0x19B4 JUMPI PUSH2 0x100 DUP1 DUP4 SLOAD DIV MUL DUP4 MSTORE SWAP2 PUSH1 0x20 ADD SWAP2 PUSH2 0x19DF JUMP JUMPDEST DUP3 ADD SWAP2 SWAP1 PUSH1 0x0 MSTORE PUSH1 0x20 PUSH1 0x0 KECCAK256 SWAP1 JUMPDEST DUP2 SLOAD DUP2 MSTORE SWAP1 PUSH1 0x1 ADD SWAP1 PUSH1 0x20 ADD DUP1 DUP4 GT PUSH2 0x19C2 JUMPI DUP3 SWAP1 SUB PUSH1 0x1F AND DUP3 ADD SWAP2 JUMPDEST POP POP POP POP POP DUP2 JUMP JUMPDEST PUSH1 0x0 DUP2 PUSH1 0x3 PUSH1 0x0 CALLER PUSH20 0xFFFFFFFFFFFFFFFFFFFFFFFFFFFFFFFFFFFFFFFF AND PUSH20 0xFFFFFFFFFFFFFFFFFFFFFFFFFFFFFFFFFFFFFFFF AND DUP2 MSTORE PUSH1 0x20 ADD SWAP1 DUP2 MSTORE PUSH1 0x20 ADD PUSH1 0x0 KECCAK256 PUSH1 0x0 DUP3 DUP3 SLOAD PUSH2 0x1A38 SWAP2 SWAP1 PUSH2 0x2D57 JUMP JUMPDEST SWAP3 POP POP DUP2 SWAP1 SSTORE POP DUP2 PUSH1 0x3 PUSH1 0x0 DUP6 PUSH20 0xFFFFFFFFFFFFFFFFFFFFFFFFFFFFFFFFFFFFFFFF AND PUSH20 0xFFFFFFFFFFFFFFFFFFFFFFFFFFFFFFFFFFFFFFFF AND DUP2 MSTORE PUSH1 0x20 ADD SWAP1 DUP2 MSTORE PUSH1 0x20 ADD PUSH1 0x0 KECCAK256 PUSH1 0x0 DUP3 DUP3 SLOAD ADD SWAP3 POP POP DUP2 SWAP1 SSTORE POP DUP3 PUSH20 0xFFFFFFFFFFFFFFFFFFFFFFFFFFFFFFFFFFFFFFFF AND CALLER PUSH20 0xFFFFFFFFFFFFFFFFFFFFFFFFFFFFFFFFFFFFFFFF AND PUSH32 0xDDF252AD1BE2C89B69C2B068FC378DAA952BA7F163C4A11628F55A4DF523B3EF DUP5 PUSH1 0x40 MLOAD PUSH2 0x1AE9 SWAP2 SWAP1 PUSH2 0x2A0C JUMP JUMPDEST PUSH1 0x40 MLOAD DUP1 SWAP2 SUB SWAP1 LOG3 PUSH1 0x1 SWAP1 POP SWAP3 SWAP2 POP POP JUMP JUMPDEST PUSH1 0x6 PUSH1 0x0 SWAP1 SLOAD SWAP1 PUSH2 0x100 EXP SWAP1 DIV PUSH20 0xFFFFFFFFFFFFFFFFFFFFFFFFFFFFFFFFFFFFFFFF AND DUP2 JUMP JUMPDEST PUSH1 0x8 PUSH1 0x0 SWAP1 SLOAD SWAP1 PUSH2 0x100 EXP SWAP1 DIV PUSH20 0xFFFFFFFFFFFFFFFFFFFFFFFFFFFFFFFFFFFFFFFF AND DUP2 JUMP JUMPDEST TIMESTAMP DUP5 LT ISZERO PUSH2 0x1B8A JUMPI PUSH1 0x40 MLOAD PUSH32 0x8C379A000000000000000000000000000000000000000000000000000000000 DUP2 MSTORE PUSH1 0x4 ADD PUSH2 0x1B81 SWAP1 PUSH2 0x3310 JUMP JUMPDEST PUSH1 0x40 MLOAD DUP1 SWAP2 SUB SWAP1 REVERT JUMPDEST PUSH1 0x0 PUSH1 0x1 PUSH2 0x1B96 PUSH2 0x8F4 JUMP JUMPDEST PUSH32 0x6E71EDAE12B1B97F4D1F60370FEF10105FA2FAAE0126114A169C64845D6126C9 DUP11 DUP11 DUP11 PUSH1 0x5 PUSH1 0x0 DUP16 PUSH20 0xFFFFFFFFFFFFFFFFFFFFFFFFFFFFFFFFFFFFFFFF AND PUSH20 0xFFFFFFFFFFFFFFFFFFFFFFFFFFFFFFFFFFFFFFFF AND DUP2 MSTORE PUSH1 0x20 ADD SWAP1 DUP2 MSTORE PUSH1 0x20 ADD PUSH1 0x0 KECCAK256 PUSH1 0x0 DUP2 SLOAD DUP1 SWAP3 SWAP2 SWAP1 PUSH1 0x1 ADD SWAP2 SWAP1 POP SSTORE DUP12 PUSH1 0x40 MLOAD PUSH1 0x20 ADD PUSH2 0x1C1E SWAP7 SWAP6 SWAP5 SWAP4 SWAP3 SWAP2 SWAP1 PUSH2 0x3330 JUMP JUMPDEST PUSH1 0x40 MLOAD PUSH1 0x20 DUP2 DUP4 SUB SUB DUP2 MSTORE SWAP1 PUSH1 0x40 MSTORE DUP1 MLOAD SWAP1 PUSH1 0x20 ADD KECCAK256 PUSH1 0x40 MLOAD PUSH1 0x20 ADD PUSH2 0x1C45 SWAP3 SWAP2 SWAP1 PUSH2 0x3409 JUMP JUMPDEST PUSH1 0x40 MLOAD PUSH1 0x20 DUP2 DUP4 SUB SUB DUP2 MSTORE SWAP1 PUSH1 0x40 MSTORE DUP1 MLOAD SWAP1 PUSH1 0x20 ADD KECCAK256 DUP6 DUP6 DUP6 PUSH1 0x40 MLOAD PUSH1 0x0 DUP2 MSTORE PUSH1 0x20 ADD PUSH1 0x40 MSTORE PUSH1 0x40 MLOAD PUSH2 0x1C7B SWAP5 SWAP4 SWAP3 SWAP2 SWAP1 PUSH2 0x3440 JUMP JUMPDEST PUSH1 0x20 PUSH1 0x40 MLOAD PUSH1 0x20 DUP2 SUB SWAP1 DUP1 DUP5 SUB SWAP1 DUP6 GAS STATICCALL ISZERO DUP1 ISZERO PUSH2 0x1C9D JUMPI RETURNDATASIZE PUSH1 0x0 DUP1 RETURNDATACOPY RETURNDATASIZE PUSH1 0x0 REVERT JUMPDEST POP POP POP PUSH1 0x20 PUSH1 0x40 MLOAD SUB MLOAD SWAP1 POP PUSH1 0x0 PUSH20 0xFFFFFFFFFFFFFFFFFFFFFFFFFFFFFFFFFFFFFFFF AND DUP2 PUSH20 0xFFFFFFFFFFFFFFFFFFFFFFFFFFFFFFFFFFFFFFFF AND EQ ISZERO DUP1 ISZERO PUSH2 0x1D11 JUMPI POP DUP8 PUSH20 0xFFFFFFFFFFFFFFFFFFFFFFFFFFFFFFFFFFFFFFFF AND DUP2 PUSH20 0xFFFFFFFFFFFFFFFFFFFFFFFFFFFFFFFFFFFFFFFF AND EQ JUMPDEST PUSH2 0x1D50 JUMPI PUSH1 0x40 MLOAD PUSH32 0x8C379A000000000000000000000000000000000000000000000000000000000 DUP2 MSTORE PUSH1 0x4 ADD PUSH2 0x1D47 SWAP1 PUSH2 0x34D1 JUMP JUMPDEST PUSH1 0x40 MLOAD DUP1 SWAP2 SUB SWAP1 REVERT JUMPDEST DUP6 PUSH1 0x4 PUSH1 0x0 DUP4 PUSH20 0xFFFFFFFFFFFFFFFFFFFFFFFFFFFFFFFFFFFFFFFF AND PUSH20 0xFFFFFFFFFFFFFFFFFFFFFFFFFFFFFFFFFFFFFFFF AND DUP2 MSTORE PUSH1 0x20 ADD SWAP1 DUP2 MSTORE PUSH1 0x20 ADD PUSH1 0x0 KECCAK256 PUSH1 0x0 DUP10 PUSH20 0xFFFFFFFFFFFFFFFFFFFFFFFFFFFFFFFFFFFFFFFF AND PUSH20 0xFFFFFFFFFFFFFFFFFFFFFFFFFFFFFFFFFFFFFFFF AND DUP2 MSTORE PUSH1 0x20 ADD SWAP1 DUP2 MSTORE PUSH1 0x20 ADD PUSH1 0x0 KECCAK256 DUP2 SWAP1 SSTORE POP POP DUP6 PUSH20 0xFFFFFFFFFFFFFFFFFFFFFFFFFFFFFFFFFFFFFFFF AND DUP8 PUSH20 0xFFFFFFFFFFFFFFFFFFFFFFFFFFFFFFFFFFFFFFFF AND PUSH32 0x8C5BE1E5EBEC7D5BD14F71427D1E84F3DD0314C0F7B2291E5B200AC8C7C3B925 DUP8 PUSH1 0x40 MLOAD PUSH2 0x1E2F SWAP2 SWAP1 PUSH2 0x2A0C JUMP JUMPDEST PUSH1 0x40 MLOAD DUP1 SWAP2 SUB SWAP1 LOG3 POP POP POP POP POP POP POP JUMP JUMPDEST PUSH1 0x4 PUSH1 0x20 MSTORE DUP2 PUSH1 0x0 MSTORE PUSH1 0x40 PUSH1 0x0 KECCAK256 PUSH1 0x20 MSTORE DUP1 PUSH1 0x0 MSTORE PUSH1 0x40 PUSH1 0x0 KECCAK256 PUSH1 0x0 SWAP2 POP SWAP2 POP POP SLOAD DUP2 JUMP JUMPDEST PUSH1 0xC PUSH1 0x0 SWAP1 SLOAD SWAP1 PUSH2 0x100 EXP SWAP1 DIV PUSH1 0xFF AND ISZERO PUSH2 0x1EB5 JUMPI PUSH1 0x40 MLOAD PUSH32 0x8C379A000000000000000000000000000000000000000000000000000000000 DUP2 MSTORE PUSH1 0x4 ADD PUSH2 0x1EAC SWAP1 PUSH2 0x2E69 JUMP JUMPDEST PUSH1 0x40 MLOAD DUP1 SWAP2 SUB SWAP1 REVERT JUMPDEST PUSH1 0x1 PUSH1 0xC PUSH1 0x0 PUSH2 0x100 EXP DUP2 SLOAD DUP2 PUSH1 0xFF MUL NOT AND SWAP1 DUP4 ISZERO ISZERO MUL OR SWAP1 SSTORE POP PUSH1 0x0 DUP1 PUSH2 0x1EDB PUSH2 0x50B JUMP JUMPDEST POP SWAP2 POP SWAP2 POP PUSH2 0x2022 PUSH1 0x7 PUSH1 0x0 SWAP1 SLOAD SWAP1 PUSH2 0x100 EXP SWAP1 DIV PUSH20 0xFFFFFFFFFFFFFFFFFFFFFFFFFFFFFFFFFFFFFFFF AND PUSH20 0xFFFFFFFFFFFFFFFFFFFFFFFFFFFFFFFFFFFFFFFF AND PUSH4 0x70A08231 ADDRESS PUSH1 0x40 MLOAD DUP3 PUSH4 0xFFFFFFFF AND PUSH1 0xE0 SHL DUP2 MSTORE PUSH1 0x4 ADD PUSH2 0x1F3E SWAP2 SWAP1 PUSH2 0x29E2 JUMP JUMPDEST PUSH1 0x20 PUSH1 0x40 MLOAD DUP1 DUP4 SUB DUP2 DUP7 GAS STATICCALL ISZERO DUP1 ISZERO PUSH2 0x1F5B JUMPI RETURNDATASIZE PUSH1 0x0 DUP1 RETURNDATACOPY RETURNDATASIZE PUSH1 0x0 REVERT JUMPDEST POP POP POP POP PUSH1 0x40 MLOAD RETURNDATASIZE PUSH1 0x1F NOT PUSH1 0x1F DUP3 ADD AND DUP3 ADD DUP1 PUSH1 0x40 MSTORE POP DUP2 ADD SWAP1 PUSH2 0x1F7F SWAP2 SWAP1 PUSH2 0x2E9E JUMP JUMPDEST PUSH1 0x8 PUSH1 0x0 SWAP1 SLOAD SWAP1 PUSH2 0x100 EXP SWAP1 DIV PUSH20 0xFFFFFFFFFFFFFFFFFFFFFFFFFFFFFFFFFFFFFFFF AND PUSH20 0xFFFFFFFFFFFFFFFFFFFFFFFFFFFFFFFFFFFFFFFF AND PUSH4 0x70A08231 ADDRESS PUSH1 0x40 MLOAD DUP3 PUSH4 0xFFFFFFFF AND PUSH1 0xE0 SHL DUP2 MSTORE PUSH1 0x4 ADD PUSH2 0x1FDA SWAP2 SWAP1 PUSH2 0x29E2 JUMP JUMPDEST PUSH1 0x20 PUSH1 0x40 MLOAD DUP1 DUP4 SUB DUP2 DUP7 GAS STATICCALL ISZERO DUP1 ISZERO PUSH2 0x1FF7 JUMPI RETURNDATASIZE PUSH1 0x0 DUP1 RETURNDATACOPY RETURNDATASIZE PUSH1 0x0 REVERT JUMPDEST POP POP POP POP PUSH1 0x40 MLOAD RETURNDATASIZE PUSH1 0x1F NOT PUSH1 0x1F DUP3 ADD AND DUP3 ADD DUP1 PUSH1 0x40 MSTORE POP DUP2 ADD SWAP1 PUSH2 0x201B SWAP2 SWAP1 PUSH2 0x2E9E JUMP JUMPDEST DUP5 DUP5 PUSH2 0x2230 JUMP JUMPDEST POP POP PUSH1 0x0 PUSH1 0xC PUSH1 0x0 PUSH2 0x100 EXP DUP2 SLOAD DUP2 PUSH1 0xFF MUL NOT AND SWAP1 DUP4 ISZERO ISZERO MUL OR SWAP1 SSTORE POP JUMP JUMPDEST PUSH1 0x0 PUSH32 0x8B73C3C69BB8FE3D512ECC4CF759CC79239F7B179B0FFACAA9A75D522B39400F PUSH1 0x0 PUSH1 0x40 MLOAD PUSH2 0x2073 SWAP2 SWAP1 PUSH2 0x3594 JUMP JUMPDEST PUSH1 0x40 MLOAD DUP1 SWAP2 SUB SWAP1 KECCAK256 PUSH32 0xC89EFDAA54C0F20C7ADF612882DF0950F5A951637E0307CDCB4C672F298B8BC6 CHAINID ADDRESS PUSH1 0x40 MLOAD PUSH1 0x20 ADD PUSH2 0x20B2 SWAP6 SWAP5 SWAP4 SWAP3 SWAP2 SWAP1 PUSH2 0x35AB JUMP JUMPDEST PUSH1 0x40 MLOAD PUSH1 0x20 DUP2 DUP4 SUB SUB DUP2 MSTORE SWAP1 PUSH1 0x40 MSTORE DUP1 MLOAD SWAP1 PUSH1 0x20 ADD KECCAK256 SWAP1 POP SWAP1 JUMP JUMPDEST PUSH1 0x0 PUSH1 0x3 DUP3 GT ISZERO PUSH2 0x2134 JUMPI DUP2 SWAP1 POP PUSH1 0x0 PUSH1 0x1 PUSH1 0x2 DUP5 PUSH2 0x20EC SWAP2 SWAP1 PUSH2 0x2F3C JUMP JUMPDEST PUSH2 0x20F6 SWAP2 SWAP1 PUSH2 0x35FE JUMP JUMPDEST SWAP1 POP JUMPDEST DUP2 DUP2 LT ISZERO PUSH2 0x212E JUMPI DUP1 SWAP2 POP PUSH1 0x2 DUP2 DUP3 DUP6 PUSH2 0x2113 SWAP2 SWAP1 PUSH2 0x2F3C JUMP JUMPDEST PUSH2 0x211D SWAP2 SWAP1 PUSH2 0x35FE JUMP JUMPDEST PUSH2 0x2127 SWAP2 SWAP1 PUSH2 0x2F3C JUMP JUMPDEST SWAP1 POP PUSH2 0x20F9 JUMP JUMPDEST POP PUSH2 0x2142 JUMP JUMPDEST PUSH1 0x0 DUP3 EQ PUSH2 0x2141 JUMPI PUSH1 0x1 SWAP1 POP JUMPDEST JUMPDEST SWAP2 SWAP1 POP JUMP JUMPDEST DUP1 PUSH1 0x2 PUSH1 0x0 DUP3 DUP3 SLOAD PUSH2 0x2159 SWAP2 SWAP1 PUSH2 0x35FE JUMP JUMPDEST SWAP3 POP POP DUP2 SWAP1 SSTORE POP DUP1 PUSH1 0x3 PUSH1 0x0 DUP5 PUSH20 0xFFFFFFFFFFFFFFFFFFFFFFFFFFFFFFFFFFFFFFFF AND PUSH20 0xFFFFFFFFFFFFFFFFFFFFFFFFFFFFFFFFFFFFFFFF AND DUP2 MSTORE PUSH1 0x20 ADD SWAP1 DUP2 MSTORE PUSH1 0x20 ADD PUSH1 0x0 KECCAK256 PUSH1 0x0 DUP3 DUP3 SLOAD ADD SWAP3 POP POP DUP2 SWAP1 SSTORE POP DUP2 PUSH20 0xFFFFFFFFFFFFFFFFFFFFFFFFFFFFFFFFFFFFFFFF AND PUSH1 0x0 PUSH20 0xFFFFFFFFFFFFFFFFFFFFFFFFFFFFFFFFFFFFFFFF AND PUSH32 0xDDF252AD1BE2C89B69C2B068FC378DAA952BA7F163C4A11628F55A4DF523B3EF DUP4 PUSH1 0x40 MLOAD PUSH2 0x220B SWAP2 SWAP1 PUSH2 0x2A0C JUMP JUMPDEST PUSH1 0x40 MLOAD DUP1 SWAP2 SUB SWAP1 LOG3 POP POP JUMP JUMPDEST PUSH1 0x0 DUP2 DUP4 LT PUSH2 0x2226 JUMPI DUP2 PUSH2 0x2228 JUMP JUMPDEST DUP3 JUMPDEST SWAP1 POP SWAP3 SWAP2 POP POP JUMP JUMPDEST PUSH14 0xFFFFFFFFFFFFFFFFFFFFFFFFFFFF DUP1 AND DUP5 GT ISZERO DUP1 ISZERO PUSH2 0x2260 JUMPI POP PUSH14 0xFFFFFFFFFFFFFFFFFFFFFFFFFFFF DUP1 AND DUP4 GT ISZERO JUMPDEST PUSH2 0x229F JUMPI PUSH1 0x40 MLOAD PUSH32 0x8C379A000000000000000000000000000000000000000000000000000000000 DUP2 MSTORE PUSH1 0x4 ADD PUSH2 0x2296 SWAP1 PUSH2 0x367E JUMP JUMPDEST PUSH1 0x40 MLOAD DUP1 SWAP2 SUB SWAP1 REVERT JUMPDEST PUSH1 0x0 PUSH1 0x9 PUSH1 0x1C SWAP1 SLOAD SWAP1 PUSH2 0x100 EXP SWAP1 DIV PUSH4 0xFFFFFFFF AND TIMESTAMP SUB SWAP1 POP PUSH1 0x0 DUP2 PUSH4 0xFFFFFFFF AND GT DUP1 ISZERO PUSH2 0x22DE JUMPI POP PUSH1 0x0 DUP4 PUSH14 0xFFFFFFFFFFFFFFFFFFFFFFFFFFFF AND GT JUMPDEST DUP1 ISZERO PUSH2 0x22FA JUMPI POP PUSH1 0x0 DUP3 PUSH14 0xFFFFFFFFFFFFFFFFFFFFFFFFFFFF AND GT JUMPDEST ISZERO PUSH2 0x23DC JUMPI DUP1 PUSH4 0xFFFFFFFF AND PUSH2 0x233F DUP5 PUSH2 0x2313 DUP6 PUSH2 0x2739 JUMP JUMPDEST PUSH28 0xFFFFFFFFFFFFFFFFFFFFFFFFFFFFFFFFFFFFFFFFFFFFFFFFFFFFFFFF AND PUSH2 0x276D SWAP1 SWAP2 SWAP1 PUSH4 0xFFFFFFFF AND JUMP JUMPDEST PUSH28 0xFFFFFFFFFFFFFFFFFFFFFFFFFFFFFFFFFFFFFFFFFFFFFFFFFFFFFFFF AND MUL PUSH1 0xA PUSH1 0x0 DUP3 DUP3 SLOAD ADD SWAP3 POP POP DUP2 SWAP1 SSTORE POP DUP1 PUSH4 0xFFFFFFFF AND PUSH2 0x23AD DUP4 PUSH2 0x2381 DUP7 PUSH2 0x2739 JUMP JUMPDEST PUSH28 0xFFFFFFFFFFFFFFFFFFFFFFFFFFFFFFFFFFFFFFFFFFFFFFFFFFFFFFFF AND PUSH2 0x276D SWAP1 SWAP2 SWAP1 PUSH4 0xFFFFFFFF AND JUMP JUMPDEST PUSH28 0xFFFFFFFFFFFFFFFFFFFFFFFFFFFFFFFFFFFFFFFFFFFFFFFFFFFFFFFF AND MUL PUSH1 0xB PUSH1 0x0 DUP3 DUP3 SLOAD ADD SWAP3 POP POP DUP2 SWAP1 SSTORE POP JUMPDEST POP DUP4 PUSH1 0x9 PUSH1 0x0 PUSH2 0x100 EXP DUP2 SLOAD DUP2 PUSH14 0xFFFFFFFFFFFFFFFFFFFFFFFFFFFF MUL NOT AND SWAP1 DUP4 PUSH14 0xFFFFFFFFFFFFFFFFFFFFFFFFFFFF AND MUL OR SWAP1 SSTORE POP DUP3 PUSH1 0x9 PUSH1 0xE PUSH2 0x100 EXP DUP2 SLOAD DUP2 PUSH14 0xFFFFFFFFFFFFFFFFFFFFFFFFFFFF MUL NOT AND SWAP1 DUP4 PUSH14 0xFFFFFFFFFFFFFFFFFFFFFFFFFFFF AND MUL OR SWAP1 SSTORE POP TIMESTAMP PUSH1 0x9 PUSH1 0x1C PUSH2 0x100 EXP DUP2 SLOAD DUP2 PUSH4 0xFFFFFFFF MUL NOT AND SWAP1 DUP4 PUSH4 0xFFFFFFFF AND MUL OR SWAP1 SSTORE POP PUSH32 0xCF2AA50876CDFBB541206F89AF0EE78D44A2ABF8D328E37FA4917F982149848A PUSH1 0x9 PUSH1 0x0 SWAP1 SLOAD SWAP1 PUSH2 0x100 EXP SWAP1 DIV PUSH14 0xFFFFFFFFFFFFFFFFFFFFFFFFFFFF AND PUSH1 0x9 PUSH1 0xE SWAP1 SLOAD SWAP1 PUSH2 0x100 EXP SWAP1 DIV PUSH14 0xFFFFFFFFFFFFFFFFFFFFFFFFFFFF AND PUSH1 0x40 MLOAD PUSH2 0x24D1 SWAP3 SWAP2 SWAP1 PUSH2 0x36D9 JUMP JUMPDEST PUSH1 0x40 MLOAD DUP1 SWAP2 SUB SWAP1 LOG1 POP POP POP POP JUMP JUMPDEST PUSH1 0x0 DUP1 DUP5 PUSH20 0xFFFFFFFFFFFFFFFFFFFFFFFFFFFFFFFFFFFFFFFF AND PUSH1 0x40 MLOAD DUP1 PUSH1 0x40 ADD PUSH1 0x40 MSTORE DUP1 PUSH1 0x19 DUP2 MSTORE PUSH1 0x20 ADD PUSH32 0x7472616E7366657228616464726573732C75696E743235362900000000000000 DUP2 MSTORE POP DUP1 MLOAD SWAP1 PUSH1 0x20 ADD KECCAK256 DUP6 DUP6 PUSH1 0x40 MLOAD PUSH1 0x24 ADD PUSH2 0x2549 SWAP3 SWAP2 SWAP1 PUSH2 0x3702 JUMP JUMPDEST PUSH1 0x40 MLOAD PUSH1 0x20 DUP2 DUP4 SUB SUB DUP2 MSTORE SWAP1 PUSH1 0x40 MSTORE SWAP1 PUSH28 0xFFFFFFFFFFFFFFFFFFFFFFFFFFFFFFFFFFFFFFFFFFFFFFFFFFFFFFFF NOT AND PUSH1 0x20 DUP3 ADD DUP1 MLOAD PUSH28 0xFFFFFFFFFFFFFFFFFFFFFFFFFFFFFFFFFFFFFFFFFFFFFFFFFFFFFFFF DUP4 DUP2 DUP4 AND OR DUP4 MSTORE POP POP POP POP PUSH1 0x40 MLOAD PUSH2 0x25B3 SWAP2 SWAP1 PUSH2 0x3767 JUMP JUMPDEST PUSH1 0x0 PUSH1 0x40 MLOAD DUP1 DUP4 SUB DUP2 PUSH1 0x0 DUP7 GAS CALL SWAP2 POP POP RETURNDATASIZE DUP1 PUSH1 0x0 DUP2 EQ PUSH2 0x25F0 JUMPI PUSH1 0x40 MLOAD SWAP2 POP PUSH1 0x1F NOT PUSH1 0x3F RETURNDATASIZE ADD AND DUP3 ADD PUSH1 0x40 MSTORE RETURNDATASIZE DUP3 MSTORE RETURNDATASIZE PUSH1 0x0 PUSH1 0x20 DUP5 ADD RETURNDATACOPY PUSH2 0x25F5 JUMP JUMPDEST PUSH1 0x60 SWAP2 POP JUMPDEST POP SWAP2 POP SWAP2 POP DUP2 DUP1 ISZERO PUSH2 0x2623 JUMPI POP PUSH1 0x0 DUP2 MLOAD EQ DUP1 PUSH2 0x2622 JUMPI POP DUP1 DUP1 PUSH1 0x20 ADD SWAP1 MLOAD DUP2 ADD SWAP1 PUSH2 0x2621 SWAP2 SWAP1 PUSH2 0x37AA JUMP JUMPDEST JUMPDEST JUMPDEST PUSH2 0x2662 JUMPI PUSH1 0x40 MLOAD PUSH32 0x8C379A000000000000000000000000000000000000000000000000000000000 DUP2 MSTORE PUSH1 0x4 ADD PUSH2 0x2659 SWAP1 PUSH2 0x3823 JUMP JUMPDEST PUSH1 0x40 MLOAD DUP1 SWAP2 SUB SWAP1 REVERT JUMPDEST POP POP POP POP POP JUMP JUMPDEST DUP1 PUSH1 0x3 PUSH1 0x0 DUP5 PUSH20 0xFFFFFFFFFFFFFFFFFFFFFFFFFFFFFFFFFFFFFFFF AND PUSH20 0xFFFFFFFFFFFFFFFFFFFFFFFFFFFFFFFFFFFFFFFF AND DUP2 MSTORE PUSH1 0x20 ADD SWAP1 DUP2 MSTORE PUSH1 0x20 ADD PUSH1 0x0 KECCAK256 PUSH1 0x0 DUP3 DUP3 SLOAD PUSH2 0x26B8 SWAP2 SWAP1 PUSH2 0x2D57 JUMP JUMPDEST SWAP3 POP POP DUP2 SWAP1 SSTORE POP DUP1 PUSH1 0x2 PUSH1 0x0 DUP3 DUP3 SLOAD SUB SWAP3 POP POP DUP2 SWAP1 SSTORE POP PUSH1 0x0 PUSH20 0xFFFFFFFFFFFFFFFFFFFFFFFFFFFFFFFFFFFFFFFF AND DUP3 PUSH20 0xFFFFFFFFFFFFFFFFFFFFFFFFFFFFFFFFFFFFFFFF AND PUSH32 0xDDF252AD1BE2C89B69C2B068FC378DAA952BA7F163C4A11628F55A4DF523B3EF DUP4 PUSH1 0x40 MLOAD PUSH2 0x272D SWAP2 SWAP1 PUSH2 0x2A0C JUMP JUMPDEST PUSH1 0x40 MLOAD DUP1 SWAP2 SUB SWAP1 LOG3 POP POP JUMP JUMPDEST PUSH1 0x0 PUSH15 0x10000000000000000000000000000 DUP3 PUSH14 0xFFFFFFFFFFFFFFFFFFFFFFFFFFFF AND PUSH2 0x2766 SWAP2 SWAP1 PUSH2 0x386B JUMP JUMPDEST SWAP1 POP SWAP2 SWAP1 POP JUMP JUMPDEST PUSH1 0x0 DUP2 PUSH14 0xFFFFFFFFFFFFFFFFFFFFFFFFFFFF AND DUP4 PUSH2 0x278B SWAP2 SWAP1 PUSH2 0x38AD JUMP JUMPDEST SWAP1 POP SWAP3 SWAP2 POP POP JUMP JUMPDEST PUSH1 0x0 DUP2 MLOAD SWAP1 POP SWAP2 SWAP1 POP JUMP JUMPDEST PUSH1 0x0 DUP3 DUP3 MSTORE PUSH1 0x20 DUP3 ADD SWAP1 POP SWAP3 SWAP2 POP POP JUMP JUMPDEST PUSH1 0x0 JUMPDEST DUP4 DUP2 LT ISZERO PUSH2 0x27CD JUMPI DUP1 DUP3 ADD MLOAD DUP2 DUP5 ADD MSTORE PUSH1 0x20 DUP2 ADD SWAP1 POP PUSH2 0x27B2 JUMP JUMPDEST PUSH1 0x0 DUP5 DUP5 ADD MSTORE POP POP POP POP JUMP JUMPDEST PUSH1 0x0 PUSH1 0x1F NOT PUSH1 0x1F DUP4 ADD AND SWAP1 POP SWAP2 SWAP1 POP JUMP JUMPDEST PUSH1 0x0 PUSH2 0x27F5 DUP3 PUSH2 0x2793 JUMP JUMPDEST PUSH2 0x27FF DUP2 DUP6 PUSH2 0x279E JUMP JUMPDEST SWAP4 POP PUSH2 0x280F DUP2 DUP6 PUSH1 0x20 DUP7 ADD PUSH2 0x27AF JUMP JUMPDEST PUSH2 0x2818 DUP2 PUSH2 0x27D9 JUMP JUMPDEST DUP5 ADD SWAP2 POP POP SWAP3 SWAP2 POP POP JUMP JUMPDEST PUSH1 0x0 PUSH1 0x20 DUP3 ADD SWAP1 POP DUP2 DUP2 SUB PUSH1 0x0 DUP4 ADD MSTORE PUSH2 0x283D DUP2 DUP5 PUSH2 0x27EA JUMP JUMPDEST SWAP1 POP SWAP3 SWAP2 POP POP JUMP JUMPDEST PUSH1 0x0 PUSH14 0xFFFFFFFFFFFFFFFFFFFFFFFFFFFF DUP3 AND SWAP1 POP SWAP2 SWAP1 POP JUMP JUMPDEST PUSH2 0x2868 DUP2 PUSH2 0x2845 JUMP JUMPDEST DUP3 MSTORE POP POP JUMP JUMPDEST PUSH1 0x0 PUSH4 0xFFFFFFFF DUP3 AND SWAP1 POP SWAP2 SWAP1 POP JUMP JUMPDEST PUSH2 0x2887 DUP2 PUSH2 0x286E JUMP JUMPDEST DUP3 MSTORE POP POP JUMP JUMPDEST PUSH1 0x0 PUSH1 0x60 DUP3 ADD SWAP1 POP PUSH2 0x28A2 PUSH1 0x0 DUP4 ADD DUP7 PUSH2 0x285F JUMP JUMPDEST PUSH2 0x28AF PUSH1 0x20 DUP4 ADD DUP6 PUSH2 0x285F JUMP JUMPDEST PUSH2 0x28BC PUSH1 0x40 DUP4 ADD DUP5 PUSH2 0x287E JUMP JUMPDEST SWAP5 SWAP4 POP POP POP POP JUMP JUMPDEST PUSH1 0x0 DUP1 REVERT JUMPDEST PUSH1 0x0 PUSH20 0xFFFFFFFFFFFFFFFFFFFFFFFFFFFFFFFFFFFFFFFF DUP3 AND SWAP1 POP SWAP2 SWAP1 POP JUMP JUMPDEST PUSH1 0x0 PUSH2 0x28F4 DUP3 PUSH2 0x28C9 JUMP JUMPDEST SWAP1 POP SWAP2 SWAP1 POP JUMP JUMPDEST PUSH2 0x2904 DUP2 PUSH2 0x28E9 JUMP JUMPDEST DUP2 EQ PUSH2 0x290F JUMPI PUSH1 0x0 DUP1 REVERT JUMPDEST POP JUMP JUMPDEST PUSH1 0x0 DUP2 CALLDATALOAD SWAP1 POP PUSH2 0x2921 DUP2 PUSH2 0x28FB JUMP JUMPDEST SWAP3 SWAP2 POP POP JUMP JUMPDEST PUSH1 0x0 DUP2 SWAP1 POP SWAP2 SWAP1 POP JUMP JUMPDEST PUSH2 0x293A DUP2 PUSH2 0x2927 JUMP JUMPDEST DUP2 EQ PUSH2 0x2945 JUMPI PUSH1 0x0 DUP1 REVERT JUMPDEST POP JUMP JUMPDEST PUSH1 0x0 DUP2 CALLDATALOAD SWAP1 POP PUSH2 0x2957 DUP2 PUSH2 0x2931 JUMP JUMPDEST SWAP3 SWAP2 POP POP JUMP JUMPDEST PUSH1 0x0 DUP1 PUSH1 0x40 DUP4 DUP6 SUB SLT ISZERO PUSH2 0x2974 JUMPI PUSH2 0x2973 PUSH2 0x28C4 JUMP JUMPDEST JUMPDEST PUSH1 0x0 PUSH2 0x2982 DUP6 DUP3 DUP7 ADD PUSH2 0x2912 JUMP JUMPDEST SWAP3 POP POP PUSH1 0x20 PUSH2 0x2993 DUP6 DUP3 DUP7 ADD PUSH2 0x2948 JUMP JUMPDEST SWAP2 POP POP SWAP3 POP SWAP3 SWAP1 POP JUMP JUMPDEST PUSH1 0x0 DUP2 ISZERO ISZERO SWAP1 POP SWAP2 SWAP1 POP JUMP JUMPDEST PUSH2 0x29B2 DUP2 PUSH2 0x299D JUMP JUMPDEST DUP3 MSTORE POP POP JUMP JUMPDEST PUSH1 0x0 PUSH1 0x20 DUP3 ADD SWAP1 POP PUSH2 0x29CD PUSH1 0x0 DUP4 ADD DUP5 PUSH2 0x29A9 JUMP JUMPDEST SWAP3 SWAP2 POP POP JUMP JUMPDEST PUSH2 0x29DC DUP2 PUSH2 0x28E9 JUMP JUMPDEST DUP3 MSTORE POP POP JUMP JUMPDEST PUSH1 0x0 PUSH1 0x20 DUP3 ADD SWAP1 POP PUSH2 0x29F7 PUSH1 0x0 DUP4 ADD DUP5 PUSH2 0x29D3 JUMP JUMPDEST SWAP3 SWAP2 POP POP JUMP JUMPDEST PUSH2 0x2A06 DUP2 PUSH2 0x2927 JUMP JUMPDEST DUP3 MSTORE POP POP JUMP JUMPDEST PUSH1 0x0 PUSH1 0x20 DUP3 ADD SWAP1 POP PUSH2 0x2A21 PUSH1 0x0 DUP4 ADD DUP5 PUSH2 0x29FD JUMP JUMPDEST SWAP3 SWAP2 POP POP JUMP JUMPDEST PUSH1 0x0 DUP1 PUSH1 0x0 PUSH1 0x60 DUP5 DUP7 SUB SLT ISZERO PUSH2 0x2A40 JUMPI PUSH2 0x2A3F PUSH2 0x28C4 JUMP JUMPDEST JUMPDEST PUSH1 0x0 PUSH2 0x2A4E DUP7 DUP3 DUP8 ADD PUSH2 0x2912 JUMP JUMPDEST SWAP4 POP POP PUSH1 0x20 PUSH2 0x2A5F DUP7 DUP3 DUP8 ADD PUSH2 0x2912 JUMP JUMPDEST SWAP3 POP POP PUSH1 0x40 PUSH2 0x2A70 DUP7 DUP3 DUP8 ADD PUSH2 0x2948 JUMP JUMPDEST SWAP2 POP POP SWAP3 POP SWAP3 POP SWAP3 JUMP JUMPDEST PUSH1 0x0 PUSH1 0xFF DUP3 AND SWAP1 POP SWAP2 SWAP1 POP JUMP JUMPDEST PUSH2 0x2A90 DUP2 PUSH2 0x2A7A JUMP JUMPDEST DUP3 MSTORE POP POP JUMP JUMPDEST PUSH1 0x0 PUSH1 0x20 DUP3 ADD SWAP1 POP PUSH2 0x2AAB PUSH1 0x0 DUP4 ADD DUP5 PUSH2 0x2A87 JUMP JUMPDEST SWAP3 SWAP2 POP POP JUMP JUMPDEST PUSH1 0x0 DUP2 SWAP1 POP SWAP2 SWAP1 POP JUMP JUMPDEST PUSH2 0x2AC4 DUP2 PUSH2 0x2AB1 JUMP JUMPDEST DUP3 MSTORE POP POP JUMP JUMPDEST PUSH1 0x0 PUSH1 0x20 DUP3 ADD SWAP1 POP PUSH2 0x2ADF PUSH1 0x0 DUP4 ADD DUP5 PUSH2 0x2ABB JUMP JUMPDEST SWAP3 SWAP2 POP POP JUMP JUMPDEST PUSH1 0x0 DUP1 PUSH1 0x40 DUP4 DUP6 SUB SLT ISZERO PUSH2 0x2AFC JUMPI PUSH2 0x2AFB PUSH2 0x28C4 JUMP JUMPDEST JUMPDEST PUSH1 0x0 PUSH2 0x2B0A DUP6 DUP3 DUP7 ADD PUSH2 0x2912 JUMP JUMPDEST SWAP3 POP POP PUSH1 0x20 PUSH2 0x2B1B DUP6 DUP3 DUP7 ADD PUSH2 0x2912 JUMP JUMPDEST SWAP2 POP POP SWAP3 POP SWAP3 SWAP1 POP JUMP JUMPDEST PUSH1 0x0 PUSH1 0x20 DUP3 DUP5 SUB SLT ISZERO PUSH2 0x2B3B JUMPI PUSH2 0x2B3A PUSH2 0x28C4 JUMP JUMPDEST JUMPDEST PUSH1 0x0 PUSH2 0x2B49 DUP5 DUP3 DUP6 ADD PUSH2 0x2912 JUMP JUMPDEST SWAP2 POP POP SWAP3 SWAP2 POP POP JUMP JUMPDEST PUSH1 0x0 DUP1 PUSH1 0x0 PUSH1 0x60 DUP5 DUP7 SUB SLT ISZERO PUSH2 0x2B6B JUMPI PUSH2 0x2B6A PUSH2 0x28C4 JUMP JUMPDEST JUMPDEST PUSH1 0x0 PUSH2 0x2B79 DUP7 DUP3 DUP8 ADD PUSH2 0x2948 JUMP JUMPDEST SWAP4 POP POP PUSH1 0x20 PUSH2 0x2B8A DUP7 DUP3 DUP8 ADD PUSH2 0x2948 JUMP JUMPDEST SWAP3 POP POP PUSH1 0x40 PUSH2 0x2B9B DUP7 DUP3 DUP8 ADD PUSH2 0x2912 JUMP JUMPDEST SWAP2 POP POP SWAP3 POP SWAP3 POP SWAP3 JUMP JUMPDEST PUSH1 0x0 PUSH1 0x40 DUP3 ADD SWAP1 POP PUSH2 0x2BBA PUSH1 0x0 DUP4 ADD DUP6 PUSH2 0x29FD JUMP JUMPDEST PUSH2 0x2BC7 PUSH1 0x20 DUP4 ADD DUP5 PUSH2 0x29FD JUMP JUMPDEST SWAP4 SWAP3 POP POP POP JUMP JUMPDEST PUSH2 0x2BD7 DUP2 PUSH2 0x2A7A JUMP JUMPDEST DUP2 EQ PUSH2 0x2BE2 JUMPI PUSH1 0x0 DUP1 REVERT JUMPDEST POP JUMP JUMPDEST PUSH1 0x0 DUP2 CALLDATALOAD SWAP1 POP PUSH2 0x2BF4 DUP2 PUSH2 0x2BCE JUMP JUMPDEST SWAP3 SWAP2 POP POP JUMP JUMPDEST PUSH2 0x2C03 DUP2 PUSH2 0x2AB1 JUMP JUMPDEST DUP2 EQ PUSH2 0x2C0E JUMPI PUSH1 0x0 DUP1 REVERT JUMPDEST POP JUMP JUMPDEST PUSH1 0x0 DUP2 CALLDATALOAD SWAP1 POP PUSH2 0x2C20 DUP2 PUSH2 0x2BFA JUMP JUMPDEST SWAP3 SWAP2 POP POP JUMP JUMPDEST PUSH1 0x0 DUP1 PUSH1 0x0 DUP1 PUSH1 0x0 DUP1 PUSH1 0x0 PUSH1 0xE0 DUP9 DUP11 SUB SLT ISZERO PUSH2 0x2C45 JUMPI PUSH2 0x2C44 PUSH2 0x28C4 JUMP JUMPDEST JUMPDEST PUSH1 0x0 PUSH2 0x2C53 DUP11 DUP3 DUP12 ADD PUSH2 0x2912 JUMP JUMPDEST SWAP8 POP POP PUSH1 0x20 PUSH2 0x2C64 DUP11 DUP3 DUP12 ADD PUSH2 0x2912 JUMP JUMPDEST SWAP7 POP POP PUSH1 0x40 PUSH2 0x2C75 DUP11 DUP3 DUP12 ADD PUSH2 0x2948 JUMP JUMPDEST SWAP6 POP POP PUSH1 0x60 PUSH2 0x2C86 DUP11 DUP3 DUP12 ADD PUSH2 0x2948 JUMP JUMPDEST SWAP5 POP POP PUSH1 0x80 PUSH2 0x2C97 DUP11 DUP3 DUP12 ADD PUSH2 0x2BE5 JUMP JUMPDEST SWAP4 POP POP PUSH1 0xA0 PUSH2 0x2CA8 DUP11 DUP3 DUP12 ADD PUSH2 0x2C11 JUMP JUMPDEST SWAP3 POP POP PUSH1 0xC0 PUSH2 0x2CB9 DUP11 DUP3 DUP12 ADD PUSH2 0x2C11 JUMP JUMPDEST SWAP2 POP POP SWAP3 SWAP6 SWAP9 SWAP2 SWAP5 SWAP8 POP SWAP3 SWAP6 POP JUMP JUMPDEST PUSH32 0x4E487B7100000000000000000000000000000000000000000000000000000000 PUSH1 0x0 MSTORE PUSH1 0x22 PUSH1 0x4 MSTORE PUSH1 0x24 PUSH1 0x0 REVERT JUMPDEST PUSH1 0x0 PUSH1 0x2 DUP3 DIV SWAP1 POP PUSH1 0x1 DUP3 AND DUP1 PUSH2 0x2D0F JUMPI PUSH1 0x7F DUP3 AND SWAP2 POP JUMPDEST PUSH1 0x20 DUP3 LT DUP2 SUB PUSH2 0x2D22 JUMPI PUSH2 0x2D21 PUSH2 0x2CC8 JUMP JUMPDEST JUMPDEST POP SWAP2 SWAP1 POP JUMP JUMPDEST PUSH32 0x4E487B7100000000000000000000000000000000000000000000000000000000 PUSH1 0x0 MSTORE PUSH1 0x11 PUSH1 0x4 MSTORE PUSH1 0x24 PUSH1 0x0 REVERT JUMPDEST PUSH1 0x0 PUSH2 0x2D62 DUP3 PUSH2 0x2927 JUMP JUMPDEST SWAP2 POP PUSH2 0x2D6D DUP4 PUSH2 0x2927 JUMP JUMPDEST SWAP3 POP DUP3 DUP3 SUB SWAP1 POP DUP2 DUP2 GT ISZERO PUSH2 0x2D85 JUMPI PUSH2 0x2D84 PUSH2 0x2D28 JUMP JUMPDEST JUMPDEST SWAP3 SWAP2 POP POP JUMP JUMPDEST PUSH32 0x4B616A75737761703A20464F5242494444454E00000000000000000000000000 PUSH1 0x0 DUP3 ADD MSTORE POP JUMP JUMPDEST PUSH1 0x0 PUSH2 0x2DC1 PUSH1 0x13 DUP4 PUSH2 0x279E JUMP JUMPDEST SWAP2 POP PUSH2 0x2DCC DUP3 PUSH2 0x2D8B JUMP JUMPDEST PUSH1 0x20 DUP3 ADD SWAP1 POP SWAP2 SWAP1 POP JUMP JUMPDEST PUSH1 0x0 PUSH1 0x20 DUP3 ADD SWAP1 POP DUP2 DUP2 SUB PUSH1 0x0 DUP4 ADD MSTORE PUSH2 0x2DF0 DUP2 PUSH2 0x2DB4 JUMP JUMPDEST SWAP1 POP SWAP2 SWAP1 POP JUMP JUMPDEST PUSH32 0x4B616A75737761703A20596F752063616E6E6F7420456E74657220696E207468 PUSH1 0x0 DUP3 ADD MSTORE PUSH32 0x6520636F6E747261637400000000000000000000000000000000000000000000 PUSH1 0x20 DUP3 ADD MSTORE POP JUMP JUMPDEST PUSH1 0x0 PUSH2 0x2E53 PUSH1 0x2A DUP4 PUSH2 0x279E JUMP JUMPDEST SWAP2 POP PUSH2 0x2E5E DUP3 PUSH2 0x2DF7 JUMP JUMPDEST PUSH1 0x40 DUP3 ADD SWAP1 POP SWAP2 SWAP1 POP JUMP JUMPDEST PUSH1 0x0 PUSH1 0x20 DUP3 ADD SWAP1 POP DUP2 DUP2 SUB PUSH1 0x0 DUP4 ADD MSTORE PUSH2 0x2E82 DUP2 PUSH2 0x2E46 JUMP JUMPDEST SWAP1 POP SWAP2 SWAP1 POP JUMP JUMPDEST PUSH1 0x0 DUP2 MLOAD SWAP1 POP PUSH2 0x2E98 DUP2 PUSH2 0x2931 JUMP JUMPDEST SWAP3 SWAP2 POP POP JUMP JUMPDEST PUSH1 0x0 PUSH1 0x20 DUP3 DUP5 SUB SLT ISZERO PUSH2 0x2EB4 JUMPI PUSH2 0x2EB3 PUSH2 0x28C4 JUMP JUMPDEST JUMPDEST PUSH1 0x0 PUSH2 0x2EC2 DUP5 DUP3 DUP6 ADD PUSH2 0x2E89 JUMP JUMPDEST SWAP2 POP POP SWAP3 SWAP2 POP POP JUMP JUMPDEST PUSH1 0x0 PUSH2 0x2ED6 DUP3 PUSH2 0x2927 JUMP JUMPDEST SWAP2 POP PUSH2 0x2EE1 DUP4 PUSH2 0x2927 JUMP JUMPDEST SWAP3 POP DUP3 DUP3 MUL PUSH2 0x2EEF DUP2 PUSH2 0x2927 JUMP JUMPDEST SWAP2 POP DUP3 DUP3 DIV DUP5 EQ DUP4 ISZERO OR PUSH2 0x2F06 JUMPI PUSH2 0x2F05 PUSH2 0x2D28 JUMP JUMPDEST JUMPDEST POP SWAP3 SWAP2 POP POP JUMP JUMPDEST PUSH32 0x4E487B7100000000000000000000000000000000000000000000000000000000 PUSH1 0x0 MSTORE PUSH1 0x12 PUSH1 0x4 MSTORE PUSH1 0x24 PUSH1 0x0 REVERT JUMPDEST PUSH1 0x0 PUSH2 0x2F47 DUP3 PUSH2 0x2927 JUMP JUMPDEST SWAP2 POP PUSH2 0x2F52 DUP4 PUSH2 0x2927 JUMP JUMPDEST SWAP3 POP DUP3 PUSH2 0x2F62 JUMPI PUSH2 0x2F61 PUSH2 0x2F0D JUMP JUMPDEST JUMPDEST DUP3 DUP3 DIV SWAP1 POP SWAP3 SWAP2 POP POP JUMP JUMPDEST PUSH32 0x4B616A75737761703A20494E53554646494349454E545F4C4951554944495459 PUSH1 0x0 DUP3 ADD MSTORE PUSH32 0x5F4D494E54454400000000000000000000000000000000000000000000000000 PUSH1 0x20 DUP3 ADD MSTORE POP JUMP JUMPDEST PUSH1 0x0 PUSH2 0x2FC9 PUSH1 0x27 DUP4 PUSH2 0x279E JUMP JUMPDEST SWAP2 POP PUSH2 0x2FD4 DUP3 PUSH2 0x2F6D JUMP JUMPDEST PUSH1 0x40 DUP3 ADD SWAP1 POP SWAP2 SWAP1 POP JUMP JUMPDEST PUSH1 0x0 PUSH1 0x20 DUP3 ADD SWAP1 POP DUP2 DUP2 SUB PUSH1 0x0 DUP4 ADD MSTORE PUSH2 0x2FF8 DUP2 PUSH2 0x2FBC JUMP JUMPDEST SWAP1 POP SWAP2 SWAP1 POP JUMP JUMPDEST PUSH32 0x4B616A75737761703A20494E53554646494349454E545F4F55545055545F414D PUSH1 0x0 DUP3 ADD MSTORE PUSH32 0x4F554E5400000000000000000000000000000000000000000000000000000000 PUSH1 0x20 DUP3 ADD MSTORE POP JUMP JUMPDEST PUSH1 0x0 PUSH2 0x305B PUSH1 0x24 DUP4 PUSH2 0x279E JUMP JUMPDEST SWAP2 POP PUSH2 0x3066 DUP3 PUSH2 0x2FFF JUMP JUMPDEST PUSH1 0x40 DUP3 ADD SWAP1 POP SWAP2 SWAP1 POP JUMP JUMPDEST PUSH1 0x0 PUSH1 0x20 DUP3 ADD SWAP1 POP DUP2 DUP2 SUB PUSH1 0x0 DUP4 ADD MSTORE PUSH2 0x308A DUP2 PUSH2 0x304E JUMP JUMPDEST SWAP1 POP SWAP2 SWAP1 POP JUMP JUMPDEST PUSH32 0x4B616A75737761703A20494E53554646494349454E545F4C4951554944495459 PUSH1 0x0 DUP3 ADD MSTORE POP JUMP JUMPDEST PUSH1 0x0 PUSH2 0x30C7 PUSH1 0x20 DUP4 PUSH2 0x279E JUMP JUMPDEST SWAP2 POP PUSH2 0x30D2 DUP3 PUSH2 0x3091 JUMP JUMPDEST PUSH1 0x20 DUP3 ADD SWAP1 POP SWAP2 SWAP1 POP JUMP JUMPDEST PUSH1 0x0 PUSH1 0x20 DUP3 ADD SWAP1 POP DUP2 DUP2 SUB PUSH1 0x0 DUP4 ADD MSTORE PUSH2 0x30F6 DUP2 PUSH2 0x30BA JUMP JUMPDEST SWAP1 POP SWAP2 SWAP1 POP JUMP JUMPDEST PUSH32 0x4B616A75737761703A20494E53554646494349454E545F494E5055545F414D4F PUSH1 0x0 DUP3 ADD MSTORE PUSH32 0x554E540000000000000000000000000000000000000000000000000000000000 PUSH1 0x20 DUP3 ADD MSTORE POP JUMP JUMPDEST PUSH1 0x0 PUSH2 0x3159 PUSH1 0x23 DUP4 PUSH2 0x279E JUMP JUMPDEST SWAP2 POP PUSH2 0x3164 DUP3 PUSH2 0x30FD JUMP JUMPDEST PUSH1 0x40 DUP3 ADD SWAP1 POP SWAP2 SWAP1 POP JUMP JUMPDEST PUSH1 0x0 PUSH1 0x20 DUP3 ADD SWAP1 POP DUP2 DUP2 SUB PUSH1 0x0 DUP4 ADD MSTORE PUSH2 0x3188 DUP2 PUSH2 0x314C JUMP JUMPDEST SWAP1 POP SWAP2 SWAP1 POP JUMP JUMPDEST PUSH32 0x4B616A75737761703A20494E56414C49445F4B00000000000000000000000000 PUSH1 0x0 DUP3 ADD MSTORE POP JUMP JUMPDEST PUSH1 0x0 PUSH2 0x31C5 PUSH1 0x13 DUP4 PUSH2 0x279E JUMP JUMPDEST SWAP2 POP PUSH2 0x31D0 DUP3 PUSH2 0x318F JUMP JUMPDEST PUSH1 0x20 DUP3 ADD SWAP1 POP SWAP2 SWAP1 POP JUMP JUMPDEST PUSH1 0x0 PUSH1 0x20 DUP3 ADD SWAP1 POP DUP2 DUP2 SUB PUSH1 0x0 DUP4 ADD MSTORE PUSH2 0x31F4 DUP2 PUSH2 0x31B8 JUMP JUMPDEST SWAP1 POP SWAP2 SWAP1 POP JUMP JUMPDEST PUSH32 0x4B616A75737761703A20494E53554646494349454E545F4C4951554944495459 PUSH1 0x0 DUP3 ADD MSTORE PUSH32 0x5F4255524E454400000000000000000000000000000000000000000000000000 PUSH1 0x20 DUP3 ADD MSTORE POP JUMP JUMPDEST PUSH1 0x0 PUSH2 0x3257 PUSH1 0x27 DUP4 PUSH2 0x279E JUMP JUMPDEST SWAP2 POP PUSH2 0x3262 DUP3 PUSH2 0x31FB JUMP JUMPDEST PUSH1 0x40 DUP3 ADD SWAP1 POP SWAP2 SWAP1 POP JUMP JUMPDEST PUSH1 0x0 PUSH1 0x20 DUP3 ADD SWAP1 POP DUP2 DUP2 SUB PUSH1 0x0 DUP4 ADD MSTORE PUSH2 0x3286 DUP2 PUSH2 0x324A JUMP JUMPDEST SWAP1 POP SWAP2 SWAP1 POP JUMP JUMPDEST PUSH1 0x0 PUSH1 0x60 DUP3 ADD SWAP1 POP PUSH2 0x32A2 PUSH1 0x0 DUP4 ADD DUP7 PUSH2 0x29FD JUMP JUMPDEST PUSH2 0x32AF PUSH1 0x20 DUP4 ADD DUP6 PUSH2 0x29FD JUMP JUMPDEST PUSH2 0x32BC PUSH1 0x40 DUP4 ADD DUP5 PUSH2 0x29D3 JUMP JUMPDEST SWAP5 SWAP4 POP POP POP POP JUMP JUMPDEST PUSH32 0x5045524D49545F444541444C494E455F45585049524544000000000000000000 PUSH1 0x0 DUP3 ADD MSTORE POP JUMP JUMPDEST PUSH1 0x0 PUSH2 0x32FA PUSH1 0x17 DUP4 PUSH2 0x279E JUMP JUMPDEST SWAP2 POP PUSH2 0x3305 DUP3 PUSH2 0x32C4 JUMP JUMPDEST PUSH1 0x20 DUP3 ADD SWAP1 POP SWAP2 SWAP1 POP JUMP JUMPDEST PUSH1 0x0 PUSH1 0x20 DUP3 ADD SWAP1 POP DUP2 DUP2 SUB PUSH1 0x0 DUP4 ADD MSTORE PUSH2 0x3329 DUP2 PUSH2 0x32ED JUMP JUMPDEST SWAP1 POP SWAP2 SWAP1 POP JUMP JUMPDEST PUSH1 0x0 PUSH1 0xC0 DUP3 ADD SWAP1 POP PUSH2 0x3345 PUSH1 0x0 DUP4 ADD DUP10 PUSH2 0x2ABB JUMP JUMPDEST PUSH2 0x3352 PUSH1 0x20 DUP4 ADD DUP9 PUSH2 0x29D3 JUMP JUMPDEST PUSH2 0x335F PUSH1 0x40 DUP4 ADD DUP8 PUSH2 0x29D3 JUMP JUMPDEST PUSH2 0x336C PUSH1 0x60 DUP4 ADD DUP7 PUSH2 0x29FD JUMP JUMPDEST PUSH2 0x3379 PUSH1 0x80 DUP4 ADD DUP6 PUSH2 0x29FD JUMP JUMPDEST PUSH2 0x3386 PUSH1 0xA0 DUP4 ADD DUP5 PUSH2 0x29FD JUMP JUMPDEST SWAP8 SWAP7 POP POP POP POP POP POP POP JUMP JUMPDEST PUSH1 0x0 DUP2 SWAP1 POP SWAP3 SWAP2 POP POP JUMP JUMPDEST PUSH32 0x1901000000000000000000000000000000000000000000000000000000000000 PUSH1 0x0 DUP3 ADD MSTORE POP JUMP JUMPDEST PUSH1 0x0 PUSH2 0x33D2 PUSH1 0x2 DUP4 PUSH2 0x3391 JUMP JUMPDEST SWAP2 POP PUSH2 0x33DD DUP3 PUSH2 0x339C JUMP JUMPDEST PUSH1 0x2 DUP3 ADD SWAP1 POP SWAP2 SWAP1 POP JUMP JUMPDEST PUSH1 0x0 DUP2 SWAP1 POP SWAP2 SWAP1 POP JUMP JUMPDEST PUSH2 0x3403 PUSH2 0x33FE DUP3 PUSH2 0x2AB1 JUMP JUMPDEST PUSH2 0x33E8 JUMP JUMPDEST DUP3 MSTORE POP POP JUMP JUMPDEST PUSH1 0x0 PUSH2 0x3414 DUP3 PUSH2 0x33C5 JUMP JUMPDEST SWAP2 POP PUSH2 0x3420 DUP3 DUP6 PUSH2 0x33F2 JUMP JUMPDEST PUSH1 0x20 DUP3 ADD SWAP2 POP PUSH2 0x3430 DUP3 DUP5 PUSH2 0x33F2 JUMP JUMPDEST PUSH1 0x20 DUP3 ADD SWAP2 POP DUP2 SWAP1 POP SWAP4 SWAP3 POP POP POP JUMP JUMPDEST PUSH1 0x0 PUSH1 0x80 DUP3 ADD SWAP1 POP PUSH2 0x3455 PUSH1 0x0 DUP4 ADD DUP8 PUSH2 0x2ABB JUMP JUMPDEST PUSH2 0x3462 PUSH1 0x20 DUP4 ADD DUP7 PUSH2 0x2A87 JUMP JUMPDEST PUSH2 0x346F PUSH1 0x40 DUP4 ADD DUP6 PUSH2 0x2ABB JUMP JUMPDEST PUSH2 0x347C PUSH1 0x60 DUP4 ADD DUP5 PUSH2 0x2ABB JUMP JUMPDEST SWAP6 SWAP5 POP POP POP POP POP JUMP JUMPDEST PUSH32 0x494E56414C49445F5349474E4552000000000000000000000000000000000000 PUSH1 0x0 DUP3 ADD MSTORE POP JUMP JUMPDEST PUSH1 0x0 PUSH2 0x34BB PUSH1 0xE DUP4 PUSH2 0x279E JUMP JUMPDEST SWAP2 POP PUSH2 0x34C6 DUP3 PUSH2 0x3485 JUMP JUMPDEST PUSH1 0x20 DUP3 ADD SWAP1 POP SWAP2 SWAP1 POP JUMP JUMPDEST PUSH1 0x0 PUSH1 0x20 DUP3 ADD SWAP1 POP DUP2 DUP2 SUB PUSH1 0x0 DUP4 ADD MSTORE PUSH2 0x34EA DUP2 PUSH2 0x34AE JUMP JUMPDEST SWAP1 POP SWAP2 SWAP1 POP JUMP JUMPDEST PUSH1 0x0 DUP2 SWAP1 POP SWAP3 SWAP2 POP POP JUMP JUMPDEST PUSH1 0x0 DUP2 SWAP1 POP DUP2 PUSH1 0x0 MSTORE PUSH1 0x20 PUSH1 0x0 KECCAK256 SWAP1 POP SWAP2 SWAP1 POP JUMP JUMPDEST PUSH1 0x0 DUP2 SLOAD PUSH2 0x351E DUP2 PUSH2 0x2CF7 JUMP JUMPDEST PUSH2 0x3528 DUP2 DUP7 PUSH2 0x34F1 JUMP JUMPDEST SWAP5 POP PUSH1 0x1 DUP3 AND PUSH1 0x0 DUP2 EQ PUSH2 0x3543 JUMPI PUSH1 0x1 DUP2 EQ PUSH2 0x3558 JUMPI PUSH2 0x358B JUMP JUMPDEST PUSH1 0xFF NOT DUP4 AND DUP7 MSTORE DUP2 ISZERO ISZERO DUP3 MUL DUP7 ADD SWAP4 POP PUSH2 0x358B JUMP JUMPDEST PUSH2 0x3561 DUP6 PUSH2 0x34FC JUMP JUMPDEST PUSH1 0x0 JUMPDEST DUP4 DUP2 LT ISZERO PUSH2 0x3583 JUMPI DUP2 SLOAD DUP2 DUP10 ADD MSTORE PUSH1 0x1 DUP3 ADD SWAP2 POP PUSH1 0x20 DUP2 ADD SWAP1 POP PUSH2 0x3564 JUMP JUMPDEST DUP4 DUP9 ADD SWAP6 POP POP POP JUMPDEST POP POP POP SWAP3 SWAP2 POP POP JUMP JUMPDEST PUSH1 0x0 PUSH2 0x35A0 DUP3 DUP5 PUSH2 0x3511 JUMP JUMPDEST SWAP2 POP DUP2 SWAP1 POP SWAP3 SWAP2 POP POP JUMP JUMPDEST PUSH1 0x0 PUSH1 0xA0 DUP3 ADD SWAP1 POP PUSH2 0x35C0 PUSH1 0x0 DUP4 ADD DUP9 PUSH2 0x2ABB JUMP JUMPDEST PUSH2 0x35CD PUSH1 0x20 DUP4 ADD DUP8 PUSH2 0x2ABB JUMP JUMPDEST PUSH2 0x35DA PUSH1 0x40 DUP4 ADD DUP7 PUSH2 0x2ABB JUMP JUMPDEST PUSH2 0x35E7 PUSH1 0x60 DUP4 ADD DUP6 PUSH2 0x29FD JUMP JUMPDEST PUSH2 0x35F4 PUSH1 0x80 DUP4 ADD DUP5 PUSH2 0x29D3 JUMP JUMPDEST SWAP7 SWAP6 POP POP POP POP POP POP JUMP JUMPDEST PUSH1 0x0 PUSH2 0x3609 DUP3 PUSH2 0x2927 JUMP JUMPDEST SWAP2 POP PUSH2 0x3614 DUP4 PUSH2 0x2927 JUMP JUMPDEST SWAP3 POP DUP3 DUP3 ADD SWAP1 POP DUP1 DUP3 GT ISZERO PUSH2 0x362C JUMPI PUSH2 0x362B PUSH2 0x2D28 JUMP JUMPDEST JUMPDEST SWAP3 SWAP2 POP POP JUMP JUMPDEST PUSH32 0x4B616A75737761703A204F564552464C4F570000000000000000000000000000 PUSH1 0x0 DUP3 ADD MSTORE POP JUMP JUMPDEST PUSH1 0x0 PUSH2 0x3668 PUSH1 0x12 DUP4 PUSH2 0x279E JUMP JUMPDEST SWAP2 POP PUSH2 0x3673 DUP3 PUSH2 0x3632 JUMP JUMPDEST PUSH1 0x20 DUP3 ADD SWAP1 POP SWAP2 SWAP1 POP JUMP JUMPDEST PUSH1 0x0 PUSH1 0x20 DUP3 ADD SWAP1 POP DUP2 DUP2 SUB PUSH1 0x0 DUP4 ADD MSTORE PUSH2 0x3697 DUP2 PUSH2 0x365B JUMP JUMPDEST SWAP1 POP SWAP2 SWAP1 POP JUMP JUMPDEST PUSH1 0x0 DUP2 SWAP1 POP SWAP2 SWAP1 POP JUMP JUMPDEST PUSH1 0x0 PUSH2 0x36C3 PUSH2 0x36BE PUSH2 0x36B9 DUP5 PUSH2 0x2845 JUMP JUMPDEST PUSH2 0x369E JUMP JUMPDEST PUSH2 0x2927 JUMP JUMPDEST SWAP1 POP SWAP2 SWAP1 POP JUMP JUMPDEST PUSH2 0x36D3 DUP2 PUSH2 0x36A8 JUMP JUMPDEST DUP3 MSTORE POP POP JUMP JUMPDEST PUSH1 0x0 PUSH1 0x40 DUP3 ADD SWAP1 POP PUSH2 0x36EE PUSH1 0x0 DUP4 ADD DUP6 PUSH2 0x36CA JUMP JUMPDEST PUSH2 0x36FB PUSH1 0x20 DUP4 ADD DUP5 PUSH2 0x36CA JUMP JUMPDEST SWAP4 SWAP3 POP POP POP JUMP JUMPDEST PUSH1 0x0 PUSH1 0x40 DUP3 ADD SWAP1 POP PUSH2 0x3717 PUSH1 0x0 DUP4 ADD DUP6 PUSH2 0x29D3 JUMP JUMPDEST PUSH2 0x3724 PUSH1 0x20 DUP4 ADD DUP5 PUSH2 0x29FD JUMP JUMPDEST SWAP4 SWAP3 POP POP POP JUMP JUMPDEST PUSH1 0x0 DUP2 MLOAD SWAP1 POP SWAP2 SWAP1 POP JUMP JUMPDEST PUSH1 0x0 PUSH2 0x3741 DUP3 PUSH2 0x372B JUMP JUMPDEST PUSH2 0x374B DUP2 DUP6 PUSH2 0x34F1 JUMP JUMPDEST SWAP4 POP PUSH2 0x375B DUP2 DUP6 PUSH1 0x20 DUP7 ADD PUSH2 0x27AF JUMP JUMPDEST DUP1 DUP5 ADD SWAP2 POP POP SWAP3 SWAP2 POP POP JUMP JUMPDEST PUSH1 0x0 PUSH2 0x3773 DUP3 DUP5 PUSH2 0x3736 JUMP JUMPDEST SWAP2 POP DUP2 SWAP1 POP SWAP3 SWAP2 POP POP JUMP JUMPDEST PUSH2 0x3787 DUP2 PUSH2 0x299D JUMP JUMPDEST DUP2 EQ PUSH2 0x3792 JUMPI PUSH1 0x0 DUP1 REVERT JUMPDEST POP JUMP JUMPDEST PUSH1 0x0 DUP2 MLOAD SWAP1 POP PUSH2 0x37A4 DUP2 PUSH2 0x377E JUMP JUMPDEST SWAP3 SWAP2 POP POP JUMP JUMPDEST PUSH1 0x0 PUSH1 0x20 DUP3 DUP5 SUB SLT ISZERO PUSH2 0x37C0 JUMPI PUSH2 0x37BF PUSH2 0x28C4 JUMP JUMPDEST JUMPDEST PUSH1 0x0 PUSH2 0x37CE DUP5 DUP3 DUP6 ADD PUSH2 0x3795 JUMP JUMPDEST SWAP2 POP POP SWAP3 SWAP2 POP POP JUMP JUMPDEST PUSH32 0x4B616A75737761703A205452414E534645525F4641494C454400000000000000 PUSH1 0x0 DUP3 ADD MSTORE POP JUMP JUMPDEST PUSH1 0x0 PUSH2 0x380D PUSH1 0x19 DUP4 PUSH2 0x279E JUMP JUMPDEST SWAP2 POP PUSH2 0x3818 DUP3 PUSH2 0x37D7 JUMP JUMPDEST PUSH1 0x20 DUP3 ADD SWAP1 POP SWAP2 SWAP1 POP JUMP JUMPDEST PUSH1 0x0 PUSH1 0x20 DUP3 ADD SWAP1 POP DUP2 DUP2 SUB PUSH1 0x0 DUP4 ADD MSTORE PUSH2 0x383C DUP2 PUSH2 0x3800 JUMP JUMPDEST SWAP1 POP SWAP2 SWAP1 POP JUMP JUMPDEST PUSH1 0x0 PUSH28 0xFFFFFFFFFFFFFFFFFFFFFFFFFFFFFFFFFFFFFFFFFFFFFFFFFFFFFFFF DUP3 AND SWAP1 POP SWAP2 SWAP1 POP JUMP JUMPDEST PUSH1 0x0 PUSH2 0x3876 DUP3 PUSH2 0x3843 JUMP JUMPDEST SWAP2 POP PUSH2 0x3881 DUP4 PUSH2 0x3843 JUMP JUMPDEST SWAP3 POP DUP3 DUP3 MUL PUSH2 0x388F DUP2 PUSH2 0x3843 JUMP JUMPDEST SWAP2 POP DUP3 DUP3 DIV DUP5 EQ DUP4 ISZERO OR PUSH2 0x38A6 JUMPI PUSH2 0x38A5 PUSH2 0x2D28 JUMP JUMPDEST JUMPDEST POP SWAP3 SWAP2 POP POP JUMP JUMPDEST PUSH1 0x0 PUSH2 0x38B8 DUP3 PUSH2 0x3843 JUMP JUMPDEST SWAP2 POP PUSH2 0x38C3 DUP4 PUSH2 0x3843 JUMP JUMPDEST SWAP3 POP DUP3 PUSH2 0x38D3 JUMPI PUSH2 0x38D2 PUSH2 0x2F0D JUMP JUMPDEST JUMPDEST DUP3 DUP3 DIV SWAP1 POP SWAP3 SWAP2 POP POP JUMP INVALID LOG2 PUSH5 0x6970667358 0x22 SLT KECCAK256 0xC2 0xD8 0xE4 SWAP15 PUSH12 0x464A44C4B22B1C32DB6DB7A5 0xB5 MSIZE LT 0xE8 NOT 0x2F MSTORE8 RETURN MUL PUSH19 0xB7A916647F64736F6C63430008110033000000 "
				},
				"gasEstimates": {
					"creation": {
						"codeDepositCost": "2922400",
						"executionCost": "infinite",
						"totalCost": "infinite"
					},
					"external": {
						"DOMAIN_SEPARATOR()": "infinite",
						"allowance(address,address)": "infinite",
						"approve(address,uint256)": "infinite",
						"balanceOf(address)": "2881",
						"burn(address)": "infinite",
						"decimals()": "infinite",
						"factory()": "2558",
						"getReserves()": "infinite",
						"initialize(address,address)": "infinite",
						"mint(address)": "infinite",
						"name()": "infinite",
						"nonces(address)": "2903",
						"permit(address,address,uint256,uint256,uint8,bytes32,bytes32)": "infinite",
						"price0CumulativeLast()": "2540",
						"price1CumulativeLast()": "2562",
						"swap(uint256,uint256,address)": "infinite",
						"symbol()": "infinite",
						"sync()": "infinite",
						"token0()": "2604",
						"token1()": "2580",
						"totalSupply()": "2541",
						"transfer(address,uint256)": "infinite",
						"transferFrom(address,address,uint256)": "infinite"
					},
					"internal": {
						"_safeTransfer(address,address,uint256)": "infinite",
						"_update(uint256,uint256,uint112,uint112)": "infinite"
					}
				},
				"methodIdentifiers": {
					"DOMAIN_SEPARATOR()": "3644e515",
					"allowance(address,address)": "dd62ed3e",
					"approve(address,uint256)": "095ea7b3",
					"balanceOf(address)": "70a08231",
					"burn(address)": "89afcb44",
					"decimals()": "313ce567",
					"factory()": "c45a0155",
					"getReserves()": "0902f1ac",
					"initialize(address,address)": "485cc955",
					"mint(address)": "6a627842",
					"name()": "06fdde03",
					"nonces(address)": "7ecebe00",
					"permit(address,address,uint256,uint256,uint8,bytes32,bytes32)": "d505accf",
					"price0CumulativeLast()": "5909c0d5",
					"price1CumulativeLast()": "5a3d5493",
					"swap(uint256,uint256,address)": "6d9a640a",
					"symbol()": "95d89b41",
					"sync()": "fff6cae9",
					"token0()": "0dfe1681",
					"token1()": "d21220a7",
					"totalSupply()": "18160ddd",
					"transfer(address,uint256)": "a9059cbb",
					"transferFrom(address,address,uint256)": "23b872dd"
				}
			},
			"storageLayout": {
				"storage": [
					{
						"astId": 20,
						"contract": "contracts/KajuSwapPair.sol:KajuswapPair",
						"label": "name",
						"offset": 0,
						"slot": "0",
						"type": "t_string_storage"
					},
					{
						"astId": 22,
						"contract": "contracts/KajuSwapPair.sol:KajuswapPair",
						"label": "symbol",
						"offset": 0,
						"slot": "1",
						"type": "t_string_storage"
					},
					{
						"astId": 26,
						"contract": "contracts/KajuSwapPair.sol:KajuswapPair",
						"label": "totalSupply",
						"offset": 0,
						"slot": "2",
						"type": "t_uint256"
					},
					{
						"astId": 30,
						"contract": "contracts/KajuSwapPair.sol:KajuswapPair",
						"label": "balanceOf",
						"offset": 0,
						"slot": "3",
						"type": "t_mapping(t_address,t_uint256)"
					},
					{
						"astId": 36,
						"contract": "contracts/KajuSwapPair.sol:KajuswapPair",
						"label": "allowance",
						"offset": 0,
						"slot": "4",
						"type": "t_mapping(t_address,t_mapping(t_address,t_uint256))"
					},
					{
						"astId": 44,
						"contract": "contracts/KajuSwapPair.sol:KajuswapPair",
						"label": "nonces",
						"offset": 0,
						"slot": "5",
						"type": "t_mapping(t_address,t_uint256)"
					},
					{
						"astId": 407,
						"contract": "contracts/KajuSwapPair.sol:KajuswapPair",
						"label": "factory",
						"offset": 0,
						"slot": "6",
						"type": "t_address"
					},
					{
						"astId": 409,
						"contract": "contracts/KajuSwapPair.sol:KajuswapPair",
						"label": "token0",
						"offset": 0,
						"slot": "7",
						"type": "t_address"
					},
					{
						"astId": 411,
						"contract": "contracts/KajuSwapPair.sol:KajuswapPair",
						"label": "token1",
						"offset": 0,
						"slot": "8",
						"type": "t_address"
					},
					{
						"astId": 413,
						"contract": "contracts/KajuSwapPair.sol:KajuswapPair",
						"label": "reserve0",
						"offset": 0,
						"slot": "9",
						"type": "t_uint112"
					},
					{
						"astId": 415,
						"contract": "contracts/KajuSwapPair.sol:KajuswapPair",
						"label": "reserve1",
						"offset": 14,
						"slot": "9",
						"type": "t_uint112"
					},
					{
						"astId": 417,
						"contract": "contracts/KajuSwapPair.sol:KajuswapPair",
						"label": "blockTimestampLast",
						"offset": 28,
						"slot": "9",
						"type": "t_uint32"
					},
					{
						"astId": 419,
						"contract": "contracts/KajuSwapPair.sol:KajuswapPair",
						"label": "price0CumulativeLast",
						"offset": 0,
						"slot": "10",
						"type": "t_uint256"
					},
					{
						"astId": 421,
						"contract": "contracts/KajuSwapPair.sol:KajuswapPair",
						"label": "price1CumulativeLast",
						"offset": 0,
						"slot": "11",
						"type": "t_uint256"
					},
					{
						"astId": 423,
						"contract": "contracts/KajuSwapPair.sol:KajuswapPair",
						"label": "isEntered",
						"offset": 0,
						"slot": "12",
						"type": "t_bool"
					}
				],
				"types": {
					"t_address": {
						"encoding": "inplace",
						"label": "address",
						"numberOfBytes": "20"
					},
					"t_bool": {
						"encoding": "inplace",
						"label": "bool",
						"numberOfBytes": "1"
					},
					"t_mapping(t_address,t_mapping(t_address,t_uint256))": {
						"encoding": "mapping",
						"key": "t_address",
						"label": "mapping(address => mapping(address => uint256))",
						"numberOfBytes": "32",
						"value": "t_mapping(t_address,t_uint256)"
					},
					"t_mapping(t_address,t_uint256)": {
						"encoding": "mapping",
						"key": "t_address",
						"label": "mapping(address => uint256)",
						"numberOfBytes": "32",
						"value": "t_uint256"
					},
					"t_string_storage": {
						"encoding": "bytes",
						"label": "string",
						"numberOfBytes": "32"
					},
					"t_uint112": {
						"encoding": "inplace",
						"label": "uint112",
						"numberOfBytes": "14"
					},
					"t_uint256": {
						"encoding": "inplace",
						"label": "uint256",
						"numberOfBytes": "32"
					},
					"t_uint32": {
						"encoding": "inplace",
						"label": "uint32",
						"numberOfBytes": "4"
					}
				}
			},
			"userdoc": {
				"kind": "user",
				"methods": {},
				"version": 1
			}
		}
	}
}