{
	"contracts/KajuswapRouter.sol": {
		"KajuswapRouter": {
			"abi": [
				{
					"inputs": [
						{
							"internalType": "address",
							"name": "factoryAddress",
							"type": "address"
						}
					],
					"stateMutability": "nonpayable",
					"type": "constructor"
				},
				{
					"inputs": [],
					"name": "ExcessiveInputAmount",
					"type": "error"
				},
				{
					"inputs": [],
					"name": "InsufficientAAmount",
					"type": "error"
				},
				{
					"inputs": [],
					"name": "InsufficientBAmount",
					"type": "error"
				},
				{
					"inputs": [],
					"name": "InsufficientOutputAmount",
					"type": "error"
				},
				{
					"inputs": [],
					"name": "SafeTransferFailed",
					"type": "error"
				},
				{
					"inputs": [
						{
							"internalType": "address",
							"name": "tokenA",
							"type": "address"
						},
						{
							"internalType": "address",
							"name": "tokenB",
							"type": "address"
						},
						{
							"internalType": "uint256",
							"name": "amountADesired",
							"type": "uint256"
						},
						{
							"internalType": "uint256",
							"name": "amountBDesired",
							"type": "uint256"
						},
						{
							"internalType": "uint256",
							"name": "amountAMin",
							"type": "uint256"
						},
						{
							"internalType": "uint256",
							"name": "amountBMin",
							"type": "uint256"
						},
						{
							"internalType": "address",
							"name": "to",
							"type": "address"
						}
					],
					"name": "addLiquidity",
					"outputs": [
						{
							"internalType": "uint256",
							"name": "amountA",
							"type": "uint256"
						},
						{
							"internalType": "uint256",
							"name": "amountB",
							"type": "uint256"
						},
						{
							"internalType": "uint256",
							"name": "liquidity",
							"type": "uint256"
						}
					],
					"stateMutability": "nonpayable",
					"type": "function"
				},
				{
					"inputs": [
						{
							"internalType": "address",
							"name": "tokenA",
							"type": "address"
						},
						{
							"internalType": "address",
							"name": "tokenB",
							"type": "address"
						},
						{
							"internalType": "uint256",
							"name": "liquidity",
							"type": "uint256"
						},
						{
							"internalType": "uint256",
							"name": "amountAMin",
							"type": "uint256"
						},
						{
							"internalType": "uint256",
							"name": "amountBMin",
							"type": "uint256"
						},
						{
							"internalType": "address",
							"name": "to",
							"type": "address"
						}
					],
					"name": "removeLiquidity",
					"outputs": [
						{
							"internalType": "uint256",
							"name": "amountA",
							"type": "uint256"
						},
						{
							"internalType": "uint256",
							"name": "amountB",
							"type": "uint256"
						}
					],
					"stateMutability": "nonpayable",
					"type": "function"
				},
				{
					"inputs": [
						{
							"internalType": "uint256",
							"name": "amountIn",
							"type": "uint256"
						},
						{
							"internalType": "uint256",
							"name": "amountOutMin",
							"type": "uint256"
						},
						{
							"internalType": "address[]",
							"name": "path",
							"type": "address[]"
						},
						{
							"internalType": "address",
							"name": "to",
							"type": "address"
						}
					],
					"name": "swapExactTokensForTokens",
					"outputs": [
						{
							"internalType": "uint256[]",
							"name": "amounts",
							"type": "uint256[]"
						}
					],
					"stateMutability": "nonpayable",
					"type": "function"
				},
				{
					"inputs": [
						{
							"internalType": "uint256",
							"name": "amountOut",
							"type": "uint256"
						},
						{
							"internalType": "uint256",
							"name": "amountInMax",
							"type": "uint256"
						},
						{
							"internalType": "address[]",
							"name": "path",
							"type": "address[]"
						},
						{
							"internalType": "address",
							"name": "to",
							"type": "address"
						}
					],
					"name": "swapTokensForExactTokens",
					"outputs": [
						{
							"internalType": "uint256[]",
							"name": "amounts",
							"type": "uint256[]"
						}
					],
					"stateMutability": "nonpayable",
					"type": "function"
				}
			],
			"devdoc": {
				"kind": "dev",
				"methods": {},
				"version": 1
			},
			"evm": {
				"assembly": "    /* \"contracts/KajuswapRouter.sol\":185:6423  contract KajuswapRouter {... */\n  mstore(0x40, 0x80)\n    /* \"contracts/KajuswapRouter.sol\":426:523  constructor(address factoryAddress) {... */\n  callvalue\n  dup1\n  iszero\n  tag_1\n  jumpi\n  0x00\n  dup1\n  revert\ntag_1:\n  pop\n  mload(0x40)\n  sub(codesize, bytecodeSize)\n  dup1\n  bytecodeSize\n  dup4\n  codecopy\n  dup2\n  dup2\n  add\n  0x40\n  mstore\n  dup2\n  add\n  swap1\n  tag_2\n  swap2\n  swap1\n  tag_3\n  jump\t// in\ntag_2:\n    /* \"contracts/KajuswapRouter.sol\":500:514  factoryAddress */\n  dup1\n    /* \"contracts/KajuswapRouter.sol\":473:480  factory */\n  0x00\n  dup1\n    /* \"contracts/KajuswapRouter.sol\":473:515  factory = IKajuswapFactory(factoryAddress) */\n  0x0100\n  exp\n  dup2\n  sload\n  dup2\n  0xffffffffffffffffffffffffffffffffffffffff\n  mul\n  not\n  and\n  swap1\n  dup4\n  0xffffffffffffffffffffffffffffffffffffffff\n  and\n  mul\n  or\n  swap1\n  sstore\n  pop\n    /* \"contracts/KajuswapRouter.sol\":426:523  constructor(address factoryAddress) {... */\n  pop\n    /* \"contracts/KajuswapRouter.sol\":185:6423  contract KajuswapRouter {... */\n  jump(tag_6)\n    /* \"#utility.yul\":88:205   */\ntag_8:\n    /* \"#utility.yul\":197:198   */\n  0x00\n    /* \"#utility.yul\":194:195   */\n  dup1\n    /* \"#utility.yul\":187:199   */\n  revert\n    /* \"#utility.yul\":334:460   */\ntag_10:\n    /* \"#utility.yul\":371:378   */\n  0x00\n    /* \"#utility.yul\":411:453   */\n  0xffffffffffffffffffffffffffffffffffffffff\n    /* \"#utility.yul\":404:409   */\n  dup3\n    /* \"#utility.yul\":400:454   */\n  and\n    /* \"#utility.yul\":389:454   */\n  swap1\n  pop\n    /* \"#utility.yul\":334:460   */\n  swap2\n  swap1\n  pop\n  jump\t// out\n    /* \"#utility.yul\":466:562   */\ntag_11:\n    /* \"#utility.yul\":503:510   */\n  0x00\n    /* \"#utility.yul\":532:556   */\n  tag_20\n    /* \"#utility.yul\":550:555   */\n  dup3\n    /* \"#utility.yul\":532:556   */\n  tag_10\n  jump\t// in\ntag_20:\n    /* \"#utility.yul\":521:556   */\n  swap1\n  pop\n    /* \"#utility.yul\":466:562   */\n  swap2\n  swap1\n  pop\n  jump\t// out\n    /* \"#utility.yul\":568:690   */\ntag_12:\n    /* \"#utility.yul\":641:665   */\n  tag_22\n    /* \"#utility.yul\":659:664   */\n  dup2\n    /* \"#utility.yul\":641:665   */\n  tag_11\n  jump\t// in\ntag_22:\n    /* \"#utility.yul\":634:639   */\n  dup2\n    /* \"#utility.yul\":631:666   */\n  eq\n    /* \"#utility.yul\":621:684   */\n  tag_23\n  jumpi\n    /* \"#utility.yul\":680:681   */\n  0x00\n    /* \"#utility.yul\":677:678   */\n  dup1\n    /* \"#utility.yul\":670:682   */\n  revert\n    /* \"#utility.yul\":621:684   */\ntag_23:\n    /* \"#utility.yul\":568:690   */\n  pop\n  jump\t// out\n    /* \"#utility.yul\":696:839   */\ntag_13:\n    /* \"#utility.yul\":753:758   */\n  0x00\n    /* \"#utility.yul\":784:790   */\n  dup2\n    /* \"#utility.yul\":778:791   */\n  mload\n    /* \"#utility.yul\":769:791   */\n  swap1\n  pop\n    /* \"#utility.yul\":800:833   */\n  tag_25\n    /* \"#utility.yul\":827:832   */\n  dup2\n    /* \"#utility.yul\":800:833   */\n  tag_12\n  jump\t// in\ntag_25:\n    /* \"#utility.yul\":696:839   */\n  swap3\n  swap2\n  pop\n  pop\n  jump\t// out\n    /* \"#utility.yul\":845:1196   */\ntag_3:\n    /* \"#utility.yul\":915:921   */\n  0x00\n    /* \"#utility.yul\":964:966   */\n  0x20\n    /* \"#utility.yul\":952:961   */\n  dup3\n    /* \"#utility.yul\":943:950   */\n  dup5\n    /* \"#utility.yul\":939:962   */\n  sub\n    /* \"#utility.yul\":935:967   */\n  slt\n    /* \"#utility.yul\":932:1051   */\n  iszero\n  tag_27\n  jumpi\n    /* \"#utility.yul\":970:1049   */\n  tag_28\n  tag_8\n  jump\t// in\ntag_28:\n    /* \"#utility.yul\":932:1051   */\ntag_27:\n    /* \"#utility.yul\":1090:1091   */\n  0x00\n    /* \"#utility.yul\":1115:1179   */\n  tag_29\n    /* \"#utility.yul\":1171:1178   */\n  dup5\n    /* \"#utility.yul\":1162:1168   */\n  dup3\n    /* \"#utility.yul\":1151:1160   */\n  dup6\n    /* \"#utility.yul\":1147:1169   */\n  add\n    /* \"#utility.yul\":1115:1179   */\n  tag_13\n  jump\t// in\ntag_29:\n    /* \"#utility.yul\":1105:1179   */\n  swap2\n  pop\n    /* \"#utility.yul\":1061:1189   */\n  pop\n    /* \"#utility.yul\":845:1196   */\n  swap3\n  swap2\n  pop\n  pop\n  jump\t// out\n    /* \"contracts/KajuswapRouter.sol\":185:6423  contract KajuswapRouter {... */\ntag_6:\n  dataSize(sub_0)\n  dup1\n  dataOffset(sub_0)\n  0x00\n  codecopy\n  0x00\n  return\nstop\n\nsub_0: assembly {\n        /* \"contracts/KajuswapRouter.sol\":185:6423  contract KajuswapRouter {... */\n      mstore(0x40, 0x80)\n      callvalue\n      dup1\n      iszero\n      tag_1\n      jumpi\n      0x00\n      dup1\n      revert\n    tag_1:\n      pop\n      jumpi(tag_2, lt(calldatasize, 0x04))\n      shr(0xe0, calldataload(0x00))\n      dup1\n      0x42712a67\n      eq\n      tag_3\n      jumpi\n      dup1\n      0x472b43f3\n      eq\n      tag_4\n      jumpi\n      dup1\n      0xc0e3ee6b\n      eq\n      tag_5\n      jumpi\n      dup1\n      0xca3d6539\n      eq\n      tag_6\n      jumpi\n    tag_2:\n      0x00\n      dup1\n      revert\n        /* \"contracts/KajuswapRouter.sol\":2904:3562  function swapTokensForExactTokens(... */\n    tag_3:\n      tag_7\n      0x04\n      dup1\n      calldatasize\n      sub\n      dup2\n      add\n      swap1\n      tag_8\n      swap2\n      swap1\n      tag_9\n      jump\t// in\n    tag_8:\n      tag_10\n      jump\t// in\n    tag_7:\n      mload(0x40)\n      tag_11\n      swap2\n      swap1\n      tag_12\n      jump\t// in\n    tag_11:\n      mload(0x40)\n      dup1\n      swap2\n      sub\n      swap1\n      return\n        /* \"contracts/KajuswapRouter.sol\":2233:2896  function swapExactTokensForTokens(... */\n    tag_4:\n      tag_13\n      0x04\n      dup1\n      calldatasize\n      sub\n      dup2\n      add\n      swap1\n      tag_14\n      swap2\n      swap1\n      tag_9\n      jump\t// in\n    tag_14:\n      tag_15\n      jump\t// in\n    tag_13:\n      mload(0x40)\n      tag_16\n      swap2\n      swap1\n      tag_12\n      jump\t// in\n    tag_16:\n      mload(0x40)\n      dup1\n      swap2\n      sub\n      swap1\n      return\n        /* \"contracts/KajuswapRouter.sol\":1583:2225  function removeLiquidity(... */\n    tag_5:\n      tag_17\n      0x04\n      dup1\n      calldatasize\n      sub\n      dup2\n      add\n      swap1\n      tag_18\n      swap2\n      swap1\n      tag_19\n      jump\t// in\n    tag_18:\n      tag_20\n      jump\t// in\n    tag_17:\n      mload(0x40)\n      tag_21\n      swap3\n      swap2\n      swap1\n      tag_22\n      jump\t// in\n    tag_21:\n      mload(0x40)\n      dup1\n      swap2\n      sub\n      swap1\n      return\n        /* \"contracts/KajuswapRouter.sol\":531:1575  function addLiquidity(... */\n    tag_6:\n      tag_23\n      0x04\n      dup1\n      calldatasize\n      sub\n      dup2\n      add\n      swap1\n      tag_24\n      swap2\n      swap1\n      tag_25\n      jump\t// in\n    tag_24:\n      tag_26\n      jump\t// in\n    tag_23:\n      mload(0x40)\n      tag_27\n      swap4\n      swap3\n      swap2\n      swap1\n      tag_28\n      jump\t// in\n    tag_27:\n      mload(0x40)\n      dup1\n      swap2\n      sub\n      swap1\n      return\n        /* \"contracts/KajuswapRouter.sol\":2904:3562  function swapTokensForExactTokens(... */\n    tag_10:\n        /* \"contracts/KajuswapRouter.sol\":3074:3098  uint256[] memory amounts */\n      0x60\n        /* \"contracts/KajuswapRouter.sol\":3121:3136  KajuswapLibrary */\n      linkerSymbol(\"18693c2782ae7b010cc3bd0449f436a78932852c600971ebfaa34cda17c779df\")\n        /* \"contracts/KajuswapRouter.sol\":3121:3149  KajuswapLibrary.getAmountsIn */\n      0x192128b2\n        /* \"contracts/KajuswapRouter.sol\":3172:3179  factory */\n      0x00\n      dup1\n      sload\n      swap1\n      0x0100\n      exp\n      swap1\n      div\n      0xffffffffffffffffffffffffffffffffffffffff\n      and\n        /* \"contracts/KajuswapRouter.sol\":3195:3204  amountOut */\n      dup9\n        /* \"contracts/KajuswapRouter.sol\":3219:3223  path */\n      dup8\n      dup8\n        /* \"contracts/KajuswapRouter.sol\":3121:3234  KajuswapLibrary.getAmountsIn(... */\n      mload(0x40)\n      dup6\n      0xffffffff\n      and\n      0xe0\n      shl\n      dup2\n      mstore\n      0x04\n      add\n      tag_30\n      swap5\n      swap4\n      swap3\n      swap2\n      swap1\n      tag_31\n      jump\t// in\n    tag_30:\n      0x00\n      mload(0x40)\n      dup1\n      dup4\n      sub\n      dup2\n      dup7\n      gas\n      delegatecall\n      iszero\n      dup1\n      iszero\n      tag_33\n      jumpi\n      returndatasize\n      0x00\n      dup1\n      returndatacopy\n      revert(0x00, returndatasize)\n    tag_33:\n      pop\n      pop\n      pop\n      pop\n      mload(0x40)\n      returndatasize\n      0x00\n      dup3\n      returndatacopy\n      returndatasize\n      not(0x1f)\n      0x1f\n      dup3\n      add\n      and\n      dup3\n      add\n      dup1\n      0x40\n      mstore\n      pop\n      dup2\n      add\n      swap1\n      tag_34\n      swap2\n      swap1\n      tag_35\n      jump\t// in\n    tag_34:\n        /* \"contracts/KajuswapRouter.sol\":3111:3234  amounts = KajuswapLibrary.getAmountsIn(... */\n      swap1\n      pop\n        /* \"contracts/KajuswapRouter.sol\":3279:3290  amountInMax */\n      dup5\n        /* \"contracts/KajuswapRouter.sol\":3249:3256  amounts */\n      dup2\n        /* \"contracts/KajuswapRouter.sol\":3274:3275  1 */\n      0x01\n        /* \"contracts/KajuswapRouter.sol\":3257:3264  amounts */\n      dup4\n        /* \"contracts/KajuswapRouter.sol\":3257:3271  amounts.length */\n      mload\n        /* \"contracts/KajuswapRouter.sol\":3257:3275  amounts.length - 1 */\n      tag_36\n      swap2\n      swap1\n      tag_37\n      jump\t// in\n    tag_36:\n        /* \"contracts/KajuswapRouter.sol\":3249:3276  amounts[amounts.length - 1] */\n      dup2\n      mload\n      dup2\n      lt\n      tag_38\n      jumpi\n      tag_39\n      tag_40\n      jump\t// in\n    tag_39:\n    tag_38:\n      0x20\n      mul\n      0x20\n      add\n      add\n      mload\n        /* \"contracts/KajuswapRouter.sol\":3249:3290  amounts[amounts.length - 1] > amountInMax */\n      gt\n        /* \"contracts/KajuswapRouter.sol\":3245:3334  if (amounts[amounts.length - 1] > amountInMax)... */\n      iszero\n      tag_41\n      jumpi\n        /* \"contracts/KajuswapRouter.sol\":3312:3334  ExcessiveInputAmount() */\n      mload(0x40)\n      0xe1b0da4f00000000000000000000000000000000000000000000000000000000\n      dup2\n      mstore\n      0x04\n      add\n      mload(0x40)\n      dup1\n      swap2\n      sub\n      swap1\n      revert\n        /* \"contracts/KajuswapRouter.sol\":3245:3334  if (amounts[amounts.length - 1] > amountInMax)... */\n    tag_41:\n        /* \"contracts/KajuswapRouter.sol\":3345:3519  _safeTransferFrom(... */\n      tag_42\n        /* \"contracts/KajuswapRouter.sol\":3377:3381  path */\n      dup5\n      dup5\n        /* \"contracts/KajuswapRouter.sol\":3382:3383  0 */\n      0x00\n        /* \"contracts/KajuswapRouter.sol\":3377:3384  path[0] */\n      dup2\n      dup2\n      lt\n      tag_43\n      jumpi\n      tag_44\n      tag_40\n      jump\t// in\n    tag_44:\n    tag_43:\n      swap1\n      pop\n      0x20\n      mul\n      add\n      0x20\n      dup2\n      add\n      swap1\n      tag_45\n      swap2\n      swap1\n      tag_46\n      jump\t// in\n    tag_45:\n        /* \"contracts/KajuswapRouter.sol\":3399:3409  msg.sender */\n      caller\n        /* \"contracts/KajuswapRouter.sol\":3424:3483  KajuswapLibrary.pairFor(address(factory), path[0], path[1]) */\n      tag_47\n        /* \"contracts/KajuswapRouter.sol\":3456:3463  factory */\n      0x00\n      dup1\n      sload\n      swap1\n      0x0100\n      exp\n      swap1\n      div\n      0xffffffffffffffffffffffffffffffffffffffff\n      and\n        /* \"contracts/KajuswapRouter.sol\":3466:3470  path */\n      dup9\n      dup9\n        /* \"contracts/KajuswapRouter.sol\":3471:3472  0 */\n      0x00\n        /* \"contracts/KajuswapRouter.sol\":3466:3473  path[0] */\n      dup2\n      dup2\n      lt\n      tag_48\n      jumpi\n      tag_49\n      tag_40\n      jump\t// in\n    tag_49:\n    tag_48:\n      swap1\n      pop\n      0x20\n      mul\n      add\n      0x20\n      dup2\n      add\n      swap1\n      tag_50\n      swap2\n      swap1\n      tag_46\n      jump\t// in\n    tag_50:\n        /* \"contracts/KajuswapRouter.sol\":3475:3479  path */\n      dup10\n      dup10\n        /* \"contracts/KajuswapRouter.sol\":3480:3481  1 */\n      0x01\n        /* \"contracts/KajuswapRouter.sol\":3475:3482  path[1] */\n      dup2\n      dup2\n      lt\n      tag_51\n      jumpi\n      tag_52\n      tag_40\n      jump\t// in\n    tag_52:\n    tag_51:\n      swap1\n      pop\n      0x20\n      mul\n      add\n      0x20\n      dup2\n      add\n      swap1\n      tag_53\n      swap2\n      swap1\n      tag_46\n      jump\t// in\n    tag_53:\n        /* \"contracts/KajuswapRouter.sol\":3424:3447  KajuswapLibrary.pairFor */\n      tag_54\n        /* \"contracts/KajuswapRouter.sol\":3424:3483  KajuswapLibrary.pairFor(address(factory), path[0], path[1]) */\n      jump\t// in\n    tag_47:\n        /* \"contracts/KajuswapRouter.sol\":3498:3505  amounts */\n      dup5\n        /* \"contracts/KajuswapRouter.sol\":3506:3507  0 */\n      0x00\n        /* \"contracts/KajuswapRouter.sol\":3498:3508  amounts[0] */\n      dup2\n      mload\n      dup2\n      lt\n      tag_55\n      jumpi\n      tag_56\n      tag_40\n      jump\t// in\n    tag_56:\n    tag_55:\n      0x20\n      mul\n      0x20\n      add\n      add\n      mload\n        /* \"contracts/KajuswapRouter.sol\":3345:3362  _safeTransferFrom */\n      tag_57\n        /* \"contracts/KajuswapRouter.sol\":3345:3519  _safeTransferFrom(... */\n      jump\t// in\n    tag_42:\n        /* \"contracts/KajuswapRouter.sol\":3530:3554  _swap(amounts, path, to) */\n      tag_58\n        /* \"contracts/KajuswapRouter.sol\":3536:3543  amounts */\n      dup2\n        /* \"contracts/KajuswapRouter.sol\":3545:3549  path */\n      dup6\n      dup6\n        /* \"contracts/KajuswapRouter.sol\":3530:3554  _swap(amounts, path, to) */\n      dup1\n      dup1\n      0x20\n      mul\n      0x20\n      add\n      mload(0x40)\n      swap1\n      dup2\n      add\n      0x40\n      mstore\n      dup1\n      swap4\n      swap3\n      swap2\n      swap1\n      dup2\n      dup2\n      mstore\n      0x20\n      add\n      dup4\n      dup4\n      0x20\n      mul\n      dup1\n      dup3\n      dup5\n      calldatacopy\n      0x00\n      dup2\n      dup5\n      add\n      mstore\n      not(0x1f)\n      0x1f\n      dup3\n      add\n      and\n      swap1\n      pop\n      dup1\n      dup4\n      add\n      swap3\n      pop\n      pop\n      pop\n      pop\n      pop\n      pop\n      pop\n        /* \"contracts/KajuswapRouter.sol\":3551:3553  to */\n      dup5\n        /* \"contracts/KajuswapRouter.sol\":3530:3535  _swap */\n      tag_59\n        /* \"contracts/KajuswapRouter.sol\":3530:3554  _swap(amounts, path, to) */\n      jump\t// in\n    tag_58:\n        /* \"contracts/KajuswapRouter.sol\":2904:3562  function swapTokensForExactTokens(... */\n      swap6\n      swap5\n      pop\n      pop\n      pop\n      pop\n      pop\n      jump\t// out\n        /* \"contracts/KajuswapRouter.sol\":2233:2896  function swapExactTokensForTokens(... */\n    tag_15:\n        /* \"contracts/KajuswapRouter.sol\":2403:2427  uint256[] memory amounts */\n      0x60\n        /* \"contracts/KajuswapRouter.sol\":2450:2465  KajuswapLibrary */\n      linkerSymbol(\"18693c2782ae7b010cc3bd0449f436a78932852c600971ebfaa34cda17c779df\")\n        /* \"contracts/KajuswapRouter.sol\":2450:2479  KajuswapLibrary.getAmountsOut */\n      0xbb7b9c76\n        /* \"contracts/KajuswapRouter.sol\":2502:2509  factory */\n      0x00\n      dup1\n      sload\n      swap1\n      0x0100\n      exp\n      swap1\n      div\n      0xffffffffffffffffffffffffffffffffffffffff\n      and\n        /* \"contracts/KajuswapRouter.sol\":2525:2533  amountIn */\n      dup9\n        /* \"contracts/KajuswapRouter.sol\":2548:2552  path */\n      dup8\n      dup8\n        /* \"contracts/KajuswapRouter.sol\":2450:2563  KajuswapLibrary.getAmountsOut(... */\n      mload(0x40)\n      dup6\n      0xffffffff\n      and\n      0xe0\n      shl\n      dup2\n      mstore\n      0x04\n      add\n      tag_61\n      swap5\n      swap4\n      swap3\n      swap2\n      swap1\n      tag_31\n      jump\t// in\n    tag_61:\n      0x00\n      mload(0x40)\n      dup1\n      dup4\n      sub\n      dup2\n      dup7\n      gas\n      delegatecall\n      iszero\n      dup1\n      iszero\n      tag_63\n      jumpi\n      returndatasize\n      0x00\n      dup1\n      returndatacopy\n      revert(0x00, returndatasize)\n    tag_63:\n      pop\n      pop\n      pop\n      pop\n      mload(0x40)\n      returndatasize\n      0x00\n      dup3\n      returndatacopy\n      returndatasize\n      not(0x1f)\n      0x1f\n      dup3\n      add\n      and\n      dup3\n      add\n      dup1\n      0x40\n      mstore\n      pop\n      dup2\n      add\n      swap1\n      tag_64\n      swap2\n      swap1\n      tag_35\n      jump\t// in\n    tag_64:\n        /* \"contracts/KajuswapRouter.sol\":2440:2563  amounts = KajuswapLibrary.getAmountsOut(... */\n      swap1\n      pop\n        /* \"contracts/KajuswapRouter.sol\":2608:2620  amountOutMin */\n      dup5\n        /* \"contracts/KajuswapRouter.sol\":2578:2585  amounts */\n      dup2\n        /* \"contracts/KajuswapRouter.sol\":2603:2604  1 */\n      0x01\n        /* \"contracts/KajuswapRouter.sol\":2586:2593  amounts */\n      dup4\n        /* \"contracts/KajuswapRouter.sol\":2586:2600  amounts.length */\n      mload\n        /* \"contracts/KajuswapRouter.sol\":2586:2604  amounts.length - 1 */\n      tag_65\n      swap2\n      swap1\n      tag_37\n      jump\t// in\n    tag_65:\n        /* \"contracts/KajuswapRouter.sol\":2578:2605  amounts[amounts.length - 1] */\n      dup2\n      mload\n      dup2\n      lt\n      tag_66\n      jumpi\n      tag_67\n      tag_40\n      jump\t// in\n    tag_67:\n    tag_66:\n      0x20\n      mul\n      0x20\n      add\n      add\n      mload\n        /* \"contracts/KajuswapRouter.sol\":2578:2620  amounts[amounts.length - 1] < amountOutMin */\n      lt\n        /* \"contracts/KajuswapRouter.sol\":2574:2668  if (amounts[amounts.length - 1] < amountOutMin)... */\n      iszero\n      tag_68\n      jumpi\n        /* \"contracts/KajuswapRouter.sol\":2642:2668  InsufficientOutputAmount() */\n      mload(0x40)\n      0x42301c2300000000000000000000000000000000000000000000000000000000\n      dup2\n      mstore\n      0x04\n      add\n      mload(0x40)\n      dup1\n      swap2\n      sub\n      swap1\n      revert\n        /* \"contracts/KajuswapRouter.sol\":2574:2668  if (amounts[amounts.length - 1] < amountOutMin)... */\n    tag_68:\n        /* \"contracts/KajuswapRouter.sol\":2679:2853  _safeTransferFrom(... */\n      tag_69\n        /* \"contracts/KajuswapRouter.sol\":2711:2715  path */\n      dup5\n      dup5\n        /* \"contracts/KajuswapRouter.sol\":2716:2717  0 */\n      0x00\n        /* \"contracts/KajuswapRouter.sol\":2711:2718  path[0] */\n      dup2\n      dup2\n      lt\n      tag_70\n      jumpi\n      tag_71\n      tag_40\n      jump\t// in\n    tag_71:\n    tag_70:\n      swap1\n      pop\n      0x20\n      mul\n      add\n      0x20\n      dup2\n      add\n      swap1\n      tag_72\n      swap2\n      swap1\n      tag_46\n      jump\t// in\n    tag_72:\n        /* \"contracts/KajuswapRouter.sol\":2733:2743  msg.sender */\n      caller\n        /* \"contracts/KajuswapRouter.sol\":2758:2817  KajuswapLibrary.pairFor(address(factory), path[0], path[1]) */\n      tag_73\n        /* \"contracts/KajuswapRouter.sol\":2790:2797  factory */\n      0x00\n      dup1\n      sload\n      swap1\n      0x0100\n      exp\n      swap1\n      div\n      0xffffffffffffffffffffffffffffffffffffffff\n      and\n        /* \"contracts/KajuswapRouter.sol\":2800:2804  path */\n      dup9\n      dup9\n        /* \"contracts/KajuswapRouter.sol\":2805:2806  0 */\n      0x00\n        /* \"contracts/KajuswapRouter.sol\":2800:2807  path[0] */\n      dup2\n      dup2\n      lt\n      tag_74\n      jumpi\n      tag_75\n      tag_40\n      jump\t// in\n    tag_75:\n    tag_74:\n      swap1\n      pop\n      0x20\n      mul\n      add\n      0x20\n      dup2\n      add\n      swap1\n      tag_76\n      swap2\n      swap1\n      tag_46\n      jump\t// in\n    tag_76:\n        /* \"contracts/KajuswapRouter.sol\":2809:2813  path */\n      dup10\n      dup10\n        /* \"contracts/KajuswapRouter.sol\":2814:2815  1 */\n      0x01\n        /* \"contracts/KajuswapRouter.sol\":2809:2816  path[1] */\n      dup2\n      dup2\n      lt\n      tag_77\n      jumpi\n      tag_78\n      tag_40\n      jump\t// in\n    tag_78:\n    tag_77:\n      swap1\n      pop\n      0x20\n      mul\n      add\n      0x20\n      dup2\n      add\n      swap1\n      tag_79\n      swap2\n      swap1\n      tag_46\n      jump\t// in\n    tag_79:\n        /* \"contracts/KajuswapRouter.sol\":2758:2781  KajuswapLibrary.pairFor */\n      tag_54\n        /* \"contracts/KajuswapRouter.sol\":2758:2817  KajuswapLibrary.pairFor(address(factory), path[0], path[1]) */\n      jump\t// in\n    tag_73:\n        /* \"contracts/KajuswapRouter.sol\":2832:2839  amounts */\n      dup5\n        /* \"contracts/KajuswapRouter.sol\":2840:2841  0 */\n      0x00\n        /* \"contracts/KajuswapRouter.sol\":2832:2842  amounts[0] */\n      dup2\n      mload\n      dup2\n      lt\n      tag_80\n      jumpi\n      tag_81\n      tag_40\n      jump\t// in\n    tag_81:\n    tag_80:\n      0x20\n      mul\n      0x20\n      add\n      add\n      mload\n        /* \"contracts/KajuswapRouter.sol\":2679:2696  _safeTransferFrom */\n      tag_57\n        /* \"contracts/KajuswapRouter.sol\":2679:2853  _safeTransferFrom(... */\n      jump\t// in\n    tag_69:\n        /* \"contracts/KajuswapRouter.sol\":2864:2888  _swap(amounts, path, to) */\n      tag_82\n        /* \"contracts/KajuswapRouter.sol\":2870:2877  amounts */\n      dup2\n        /* \"contracts/KajuswapRouter.sol\":2879:2883  path */\n      dup6\n      dup6\n        /* \"contracts/KajuswapRouter.sol\":2864:2888  _swap(amounts, path, to) */\n      dup1\n      dup1\n      0x20\n      mul\n      0x20\n      add\n      mload(0x40)\n      swap1\n      dup2\n      add\n      0x40\n      mstore\n      dup1\n      swap4\n      swap3\n      swap2\n      swap1\n      dup2\n      dup2\n      mstore\n      0x20\n      add\n      dup4\n      dup4\n      0x20\n      mul\n      dup1\n      dup3\n      dup5\n      calldatacopy\n      0x00\n      dup2\n      dup5\n      add\n      mstore\n      not(0x1f)\n      0x1f\n      dup3\n      add\n      and\n      swap1\n      pop\n      dup1\n      dup4\n      add\n      swap3\n      pop\n      pop\n      pop\n      pop\n      pop\n      pop\n      pop\n        /* \"contracts/KajuswapRouter.sol\":2885:2887  to */\n      dup5\n        /* \"contracts/KajuswapRouter.sol\":2864:2869  _swap */\n      tag_59\n        /* \"contracts/KajuswapRouter.sol\":2864:2888  _swap(amounts, path, to) */\n      jump\t// in\n    tag_82:\n        /* \"contracts/KajuswapRouter.sol\":2233:2896  function swapExactTokensForTokens(... */\n      swap6\n      swap5\n      pop\n      pop\n      pop\n      pop\n      pop\n      jump\t// out\n        /* \"contracts/KajuswapRouter.sol\":1583:2225  function removeLiquidity(... */\n    tag_20:\n        /* \"contracts/KajuswapRouter.sol\":1788:1803  uint256 amountA */\n      0x00\n        /* \"contracts/KajuswapRouter.sol\":1805:1820  uint256 amountB */\n      dup1\n        /* \"contracts/KajuswapRouter.sol\":1833:1845  address pair */\n      0x00\n        /* \"contracts/KajuswapRouter.sol\":1848:1955  KajuswapLibrary.pairFor(... */\n      tag_84\n        /* \"contracts/KajuswapRouter.sol\":1894:1901  factory */\n      0x00\n      dup1\n      sload\n      swap1\n      0x0100\n      exp\n      swap1\n      div\n      0xffffffffffffffffffffffffffffffffffffffff\n      and\n        /* \"contracts/KajuswapRouter.sol\":1917:1923  tokenA */\n      dup11\n        /* \"contracts/KajuswapRouter.sol\":1938:1944  tokenB */\n      dup11\n        /* \"contracts/KajuswapRouter.sol\":1848:1871  KajuswapLibrary.pairFor */\n      tag_54\n        /* \"contracts/KajuswapRouter.sol\":1848:1955  KajuswapLibrary.pairFor(... */\n      jump\t// in\n    tag_84:\n        /* \"contracts/KajuswapRouter.sol\":1833:1955  address pair = KajuswapLibrary.pairFor(... */\n      swap1\n      pop\n        /* \"contracts/KajuswapRouter.sol\":1980:1984  pair */\n      dup1\n        /* \"contracts/KajuswapRouter.sol\":1966:1998  IKajuswapPair(pair).transferFrom */\n      0xffffffffffffffffffffffffffffffffffffffff\n      and\n      0x23b872dd\n        /* \"contracts/KajuswapRouter.sol\":1999:2009  msg.sender */\n      caller\n        /* \"contracts/KajuswapRouter.sol\":2011:2015  pair */\n      dup4\n        /* \"contracts/KajuswapRouter.sol\":2017:2026  liquidity */\n      dup11\n        /* \"contracts/KajuswapRouter.sol\":1966:2027  IKajuswapPair(pair).transferFrom(msg.sender, pair, liquidity) */\n      mload(0x40)\n      dup5\n      0xffffffff\n      and\n      0xe0\n      shl\n      dup2\n      mstore\n      0x04\n      add\n      tag_85\n      swap4\n      swap3\n      swap2\n      swap1\n      tag_86\n      jump\t// in\n    tag_85:\n      0x20\n      mload(0x40)\n      dup1\n      dup4\n      sub\n      dup2\n      0x00\n      dup8\n      gas\n      call\n      iszero\n      dup1\n      iszero\n      tag_88\n      jumpi\n      returndatasize\n      0x00\n      dup1\n      returndatacopy\n      revert(0x00, returndatasize)\n    tag_88:\n      pop\n      pop\n      pop\n      pop\n      mload(0x40)\n      returndatasize\n      not(0x1f)\n      0x1f\n      dup3\n      add\n      and\n      dup3\n      add\n      dup1\n      0x40\n      mstore\n      pop\n      dup2\n      add\n      swap1\n      tag_89\n      swap2\n      swap1\n      tag_90\n      jump\t// in\n    tag_89:\n      pop\n        /* \"contracts/KajuswapRouter.sol\":2073:2077  pair */\n      dup1\n        /* \"contracts/KajuswapRouter.sol\":2059:2083  IKajuswapPair(pair).burn */\n      0xffffffffffffffffffffffffffffffffffffffff\n      and\n      0x89afcb44\n        /* \"contracts/KajuswapRouter.sol\":2084:2086  to */\n      dup6\n        /* \"contracts/KajuswapRouter.sol\":2059:2087  IKajuswapPair(pair).burn(to) */\n      mload(0x40)\n      dup3\n      0xffffffff\n      and\n      0xe0\n      shl\n      dup2\n      mstore\n      0x04\n      add\n      tag_91\n      swap2\n      swap1\n      tag_92\n      jump\t// in\n    tag_91:\n      0x40\n      dup1\n      mload\n      dup1\n      dup4\n      sub\n      dup2\n      0x00\n      dup8\n      gas\n      call\n      iszero\n      dup1\n      iszero\n      tag_94\n      jumpi\n      returndatasize\n      0x00\n      dup1\n      returndatacopy\n      revert(0x00, returndatasize)\n    tag_94:\n      pop\n      pop\n      pop\n      pop\n      mload(0x40)\n      returndatasize\n      not(0x1f)\n      0x1f\n      dup3\n      add\n      and\n      dup3\n      add\n      dup1\n      0x40\n      mstore\n      pop\n      dup2\n      add\n      swap1\n      tag_95\n      swap2\n      swap1\n      tag_96\n      jump\t// in\n    tag_95:\n        /* \"contracts/KajuswapRouter.sol\":2038:2087  (amountA, amountB) = IKajuswapPair(pair).burn(to) */\n      dup1\n      swap4\n      pop\n      dup2\n      swap5\n      pop\n      pop\n      pop\n        /* \"contracts/KajuswapRouter.sol\":2112:2122  amountAMin */\n      dup6\n        /* \"contracts/KajuswapRouter.sol\":2102:2109  amountA */\n      dup4\n        /* \"contracts/KajuswapRouter.sol\":2102:2122  amountA < amountAMin */\n      lt\n        /* \"contracts/KajuswapRouter.sol\":2098:2152  if (amountA < amountAMin) revert InsufficientAAmount() */\n      iszero\n      tag_97\n      jumpi\n        /* \"contracts/KajuswapRouter.sol\":2131:2152  InsufficientAAmount() */\n      mload(0x40)\n      0x8dc525d100000000000000000000000000000000000000000000000000000000\n      dup2\n      mstore\n      0x04\n      add\n      mload(0x40)\n      dup1\n      swap2\n      sub\n      swap1\n      revert\n        /* \"contracts/KajuswapRouter.sol\":2098:2152  if (amountA < amountAMin) revert InsufficientAAmount() */\n    tag_97:\n        /* \"contracts/KajuswapRouter.sol\":2177:2187  amountBMin */\n      dup5\n        /* \"contracts/KajuswapRouter.sol\":2167:2174  amountB */\n      dup3\n        /* \"contracts/KajuswapRouter.sol\":2167:2187  amountB < amountBMin */\n      lt\n        /* \"contracts/KajuswapRouter.sol\":2163:2217  if (amountB < amountBMin) revert InsufficientBAmount() */\n      iszero\n      tag_98\n      jumpi\n        /* \"contracts/KajuswapRouter.sol\":2196:2217  InsufficientBAmount() */\n      mload(0x40)\n      0xef71d09100000000000000000000000000000000000000000000000000000000\n      dup2\n      mstore\n      0x04\n      add\n      mload(0x40)\n      dup1\n      swap2\n      sub\n      swap1\n      revert\n        /* \"contracts/KajuswapRouter.sol\":2163:2217  if (amountB < amountBMin) revert InsufficientBAmount() */\n    tag_98:\n        /* \"contracts/KajuswapRouter.sol\":1822:2225  {... */\n      pop\n        /* \"contracts/KajuswapRouter.sol\":1583:2225  function removeLiquidity(... */\n      swap7\n      pop\n      swap7\n      swap5\n      pop\n      pop\n      pop\n      pop\n      pop\n      jump\t// out\n        /* \"contracts/KajuswapRouter.sol\":531:1575  function addLiquidity(... */\n    tag_26:\n        /* \"contracts/KajuswapRouter.sol\":803:818  uint256 amountA */\n      0x00\n        /* \"contracts/KajuswapRouter.sol\":833:848  uint256 amountB */\n      dup1\n        /* \"contracts/KajuswapRouter.sol\":863:880  uint256 liquidity */\n      0x00\n        /* \"contracts/KajuswapRouter.sol\":953:954  0 */\n      dup1\n        /* \"contracts/KajuswapRouter.sol\":912:955  factory.pairs(tokenA, tokenB) == address(0) */\n      0xffffffffffffffffffffffffffffffffffffffff\n      and\n        /* \"contracts/KajuswapRouter.sol\":912:919  factory */\n      0x00\n      dup1\n      sload\n      swap1\n      0x0100\n      exp\n      swap1\n      div\n      0xffffffffffffffffffffffffffffffffffffffff\n      and\n        /* \"contracts/KajuswapRouter.sol\":912:925  factory.pairs */\n      0xffffffffffffffffffffffffffffffffffffffff\n      and\n      0x69454b86\n        /* \"contracts/KajuswapRouter.sol\":926:932  tokenA */\n      dup13\n        /* \"contracts/KajuswapRouter.sol\":934:940  tokenB */\n      dup13\n        /* \"contracts/KajuswapRouter.sol\":912:941  factory.pairs(tokenA, tokenB) */\n      mload(0x40)\n      dup4\n      0xffffffff\n      and\n      0xe0\n      shl\n      dup2\n      mstore\n      0x04\n      add\n      tag_100\n      swap3\n      swap2\n      swap1\n      tag_101\n      jump\t// in\n    tag_100:\n      0x20\n      mload(0x40)\n      dup1\n      dup4\n      sub\n      dup2\n      dup7\n      gas\n      staticcall\n      iszero\n      dup1\n      iszero\n      tag_103\n      jumpi\n      returndatasize\n      0x00\n      dup1\n      returndatacopy\n      revert(0x00, returndatasize)\n    tag_103:\n      pop\n      pop\n      pop\n      pop\n      mload(0x40)\n      returndatasize\n      not(0x1f)\n      0x1f\n      dup3\n      add\n      and\n      dup3\n      add\n      dup1\n      0x40\n      mstore\n      pop\n      dup2\n      add\n      swap1\n      tag_104\n      swap2\n      swap1\n      tag_105\n      jump\t// in\n    tag_104:\n        /* \"contracts/KajuswapRouter.sol\":912:955  factory.pairs(tokenA, tokenB) == address(0) */\n      0xffffffffffffffffffffffffffffffffffffffff\n      and\n      eq\n        /* \"contracts/KajuswapRouter.sol\":908:1018  if (factory.pairs(tokenA, tokenB) == address(0)) {... */\n      iszero\n      tag_106\n      jumpi\n        /* \"contracts/KajuswapRouter.sol\":972:979  factory */\n      0x00\n      dup1\n      sload\n      swap1\n      0x0100\n      exp\n      swap1\n      div\n      0xffffffffffffffffffffffffffffffffffffffff\n      and\n        /* \"contracts/KajuswapRouter.sol\":972:990  factory.createPair */\n      0xffffffffffffffffffffffffffffffffffffffff\n      and\n      0xc9c65396\n        /* \"contracts/KajuswapRouter.sol\":991:997  tokenA */\n      dup12\n        /* \"contracts/KajuswapRouter.sol\":999:1005  tokenB */\n      dup12\n        /* \"contracts/KajuswapRouter.sol\":972:1006  factory.createPair(tokenA, tokenB) */\n      mload(0x40)\n      dup4\n      0xffffffff\n      and\n      0xe0\n      shl\n      dup2\n      mstore\n      0x04\n      add\n      tag_107\n      swap3\n      swap2\n      swap1\n      tag_101\n      jump\t// in\n    tag_107:\n      0x20\n      mload(0x40)\n      dup1\n      dup4\n      sub\n      dup2\n      0x00\n      dup8\n      gas\n      call\n      iszero\n      dup1\n      iszero\n      tag_109\n      jumpi\n      returndatasize\n      0x00\n      dup1\n      returndatacopy\n      revert(0x00, returndatasize)\n    tag_109:\n      pop\n      pop\n      pop\n      pop\n      mload(0x40)\n      returndatasize\n      not(0x1f)\n      0x1f\n      dup3\n      add\n      and\n      dup3\n      add\n      dup1\n      0x40\n      mstore\n      pop\n      dup2\n      add\n      swap1\n      tag_110\n      swap2\n      swap1\n      tag_105\n      jump\t// in\n    tag_110:\n      pop\n        /* \"contracts/KajuswapRouter.sol\":908:1018  if (factory.pairs(tokenA, tokenB) == address(0)) {... */\n    tag_106:\n        /* \"contracts/KajuswapRouter.sol\":1049:1229  _calculateLiquidity(... */\n      tag_111\n        /* \"contracts/KajuswapRouter.sol\":1083:1089  tokenA */\n      dup11\n        /* \"contracts/KajuswapRouter.sol\":1104:1110  tokenB */\n      dup11\n        /* \"contracts/KajuswapRouter.sol\":1125:1139  amountADesired */\n      dup11\n        /* \"contracts/KajuswapRouter.sol\":1154:1168  amountBDesired */\n      dup11\n        /* \"contracts/KajuswapRouter.sol\":1183:1193  amountAMin */\n      dup11\n        /* \"contracts/KajuswapRouter.sol\":1208:1218  amountBMin */\n      dup11\n        /* \"contracts/KajuswapRouter.sol\":1049:1068  _calculateLiquidity */\n      tag_112\n        /* \"contracts/KajuswapRouter.sol\":1049:1229  _calculateLiquidity(... */\n      jump\t// in\n    tag_111:\n        /* \"contracts/KajuswapRouter.sol\":1028:1229  (amountA, amountB) = _calculateLiquidity(... */\n      dup1\n      swap4\n      pop\n      dup2\n      swap5\n      pop\n      pop\n      pop\n        /* \"contracts/KajuswapRouter.sol\":1240:1259  address pairAddress */\n      0x00\n        /* \"contracts/KajuswapRouter.sol\":1262:1369  KajuswapLibrary.pairFor(... */\n      tag_113\n        /* \"contracts/KajuswapRouter.sol\":1308:1315  factory */\n      0x00\n      dup1\n      sload\n      swap1\n      0x0100\n      exp\n      swap1\n      div\n      0xffffffffffffffffffffffffffffffffffffffff\n      and\n        /* \"contracts/KajuswapRouter.sol\":1331:1337  tokenA */\n      dup13\n        /* \"contracts/KajuswapRouter.sol\":1352:1358  tokenB */\n      dup13\n        /* \"contracts/KajuswapRouter.sol\":1262:1285  KajuswapLibrary.pairFor */\n      tag_54\n        /* \"contracts/KajuswapRouter.sol\":1262:1369  KajuswapLibrary.pairFor(... */\n      jump\t// in\n    tag_113:\n        /* \"contracts/KajuswapRouter.sol\":1240:1369  address pairAddress = KajuswapLibrary.pairFor(... */\n      swap1\n      pop\n        /* \"contracts/KajuswapRouter.sol\":1380:1439  _safeTransferFrom(tokenA, msg.sender, pairAddress, amountA) */\n      tag_114\n        /* \"contracts/KajuswapRouter.sol\":1398:1404  tokenA */\n      dup12\n        /* \"contracts/KajuswapRouter.sol\":1406:1416  msg.sender */\n      caller\n        /* \"contracts/KajuswapRouter.sol\":1418:1429  pairAddress */\n      dup4\n        /* \"contracts/KajuswapRouter.sol\":1431:1438  amountA */\n      dup8\n        /* \"contracts/KajuswapRouter.sol\":1380:1397  _safeTransferFrom */\n      tag_57\n        /* \"contracts/KajuswapRouter.sol\":1380:1439  _safeTransferFrom(tokenA, msg.sender, pairAddress, amountA) */\n      jump\t// in\n    tag_114:\n        /* \"contracts/KajuswapRouter.sol\":1450:1509  _safeTransferFrom(tokenB, msg.sender, pairAddress, amountB) */\n      tag_115\n        /* \"contracts/KajuswapRouter.sol\":1468:1474  tokenB */\n      dup11\n        /* \"contracts/KajuswapRouter.sol\":1476:1486  msg.sender */\n      caller\n        /* \"contracts/KajuswapRouter.sol\":1488:1499  pairAddress */\n      dup4\n        /* \"contracts/KajuswapRouter.sol\":1501:1508  amountB */\n      dup7\n        /* \"contracts/KajuswapRouter.sol\":1450:1467  _safeTransferFrom */\n      tag_57\n        /* \"contracts/KajuswapRouter.sol\":1450:1509  _safeTransferFrom(tokenB, msg.sender, pairAddress, amountB) */\n      jump\t// in\n    tag_115:\n        /* \"contracts/KajuswapRouter.sol\":1546:1557  pairAddress */\n      dup1\n        /* \"contracts/KajuswapRouter.sol\":1532:1563  IKajuswapPair(pairAddress).mint */\n      0xffffffffffffffffffffffffffffffffffffffff\n      and\n      0x6a627842\n        /* \"contracts/KajuswapRouter.sol\":1564:1566  to */\n      dup7\n        /* \"contracts/KajuswapRouter.sol\":1532:1567  IKajuswapPair(pairAddress).mint(to) */\n      mload(0x40)\n      dup3\n      0xffffffff\n      and\n      0xe0\n      shl\n      dup2\n      mstore\n      0x04\n      add\n      tag_116\n      swap2\n      swap1\n      tag_92\n      jump\t// in\n    tag_116:\n      0x20\n      mload(0x40)\n      dup1\n      dup4\n      sub\n      dup2\n      0x00\n      dup8\n      gas\n      call\n      iszero\n      dup1\n      iszero\n      tag_118\n      jumpi\n      returndatasize\n      0x00\n      dup1\n      returndatacopy\n      revert(0x00, returndatasize)\n    tag_118:\n      pop\n      pop\n      pop\n      pop\n      mload(0x40)\n      returndatasize\n      not(0x1f)\n      0x1f\n      dup3\n      add\n      and\n      dup3\n      add\n      dup1\n      0x40\n      mstore\n      pop\n      dup2\n      add\n      swap1\n      tag_119\n      swap2\n      swap1\n      tag_120\n      jump\t// in\n    tag_119:\n        /* \"contracts/KajuswapRouter.sol\":1520:1567  liquidity = IKajuswapPair(pairAddress).mint(to) */\n      swap2\n      pop\n        /* \"contracts/KajuswapRouter.sol\":897:1575  {... */\n      pop\n        /* \"contracts/KajuswapRouter.sol\":531:1575  function addLiquidity(... */\n      swap8\n      pop\n      swap8\n      pop\n      swap8\n      swap5\n      pop\n      pop\n      pop\n      pop\n      pop\n      jump\t// out\n        /* \"contracts/KajuswapLibrary.sol\":1282:2235  function pairFor(... */\n    tag_54:\n        /* \"contracts/KajuswapLibrary.sol\":1412:1431  address pairAddress */\n      0x00\n        /* \"contracts/KajuswapLibrary.sol\":1445:1459  address token0 */\n      dup1\n        /* \"contracts/KajuswapLibrary.sol\":1461:1475  address token1 */\n      0x00\n        /* \"contracts/KajuswapLibrary.sol\":1479:1505  sortTokens(tokenA, tokenB) */\n      tag_122\n        /* \"contracts/KajuswapLibrary.sol\":1490:1496  tokenA */\n      dup6\n        /* \"contracts/KajuswapLibrary.sol\":1498:1504  tokenB */\n      dup6\n        /* \"contracts/KajuswapLibrary.sol\":1479:1489  sortTokens */\n      tag_123\n        /* \"contracts/KajuswapLibrary.sol\":1479:1505  sortTokens(tokenA, tokenB) */\n      jump\t// in\n    tag_122:\n        /* \"contracts/KajuswapLibrary.sol\":1444:1505  (address token0, address token1) = sortTokens(tokenA, tokenB) */\n      swap2\n      pop\n      swap2\n      pop\n        /* \"contracts/KajuswapLibrary.sol\":1902:1916  factoryAddress */\n      dup6\n        /* \"contracts/KajuswapLibrary.sol\":1974:1980  token0 */\n      dup3\n        /* \"contracts/KajuswapLibrary.sol\":1982:1988  token1 */\n      dup3\n        /* \"contracts/KajuswapLibrary.sol\":1957:1989  abi.encodePacked(token0, token1) */\n      add(0x20, mload(0x40))\n      tag_124\n      swap3\n      swap2\n      swap1\n      tag_125\n      jump\t// in\n    tag_124:\n      mload(0x40)\n      0x20\n      dup2\n      dup4\n      sub\n      sub\n      dup2\n      mstore\n      swap1\n      0x40\n      mstore\n        /* \"contracts/KajuswapLibrary.sol\":1947:1990  keccak256(abi.encodePacked(token0, token1)) */\n      dup1\n      mload\n      swap1\n      0x20\n      add\n      keccak256\n        /* \"contracts/KajuswapLibrary.sol\":1817:2159  abi.encodePacked(... */\n      add(0x20, mload(0x40))\n      tag_126\n      swap3\n      swap2\n      swap1\n      tag_127\n      jump\t// in\n    tag_126:\n      mload(0x40)\n      0x20\n      dup2\n      dup4\n      sub\n      sub\n      dup2\n      mstore\n      swap1\n      0x40\n      mstore\n        /* \"contracts/KajuswapLibrary.sol\":1781:2182  keccak256(... */\n      dup1\n      mload\n      swap1\n      0x20\n      add\n      keccak256\n        /* \"contracts/KajuswapLibrary.sol\":1751:2201  uint256(... */\n      0x00\n      shr\n        /* \"contracts/KajuswapLibrary.sol\":1689:2227  pairAddress = address(... */\n      swap3\n      pop\n        /* \"contracts/KajuswapLibrary.sol\":1433:2235  {... */\n      pop\n      pop\n        /* \"contracts/KajuswapLibrary.sol\":1282:2235  function pairFor(... */\n      swap4\n      swap3\n      pop\n      pop\n      pop\n      jump\t// out\n        /* \"contracts/KajuswapRouter.sol\":5915:6420  function _safeTransferFrom(... */\n    tag_57:\n        /* \"contracts/KajuswapRouter.sol\":6061:6073  bool success */\n      0x00\n        /* \"contracts/KajuswapRouter.sol\":6075:6092  bytes memory data */\n      dup1\n        /* \"contracts/KajuswapRouter.sol\":6096:6101  token */\n      dup6\n        /* \"contracts/KajuswapRouter.sol\":6096:6106  token.call */\n      0xffffffffffffffffffffffffffffffffffffffff\n      and\n        /* \"contracts/KajuswapRouter.sol\":6221:6225  from */\n      dup6\n        /* \"contracts/KajuswapRouter.sol\":6244:6246  to */\n      dup6\n        /* \"contracts/KajuswapRouter.sol\":6265:6270  value */\n      dup6\n        /* \"contracts/KajuswapRouter.sol\":6121:6285  abi.encodeWithSignature(... */\n      add(0x24, mload(0x40))\n      tag_129\n      swap4\n      swap3\n      swap2\n      swap1\n      tag_86\n      jump\t// in\n    tag_129:\n      mload(0x40)\n      0x20\n      dup2\n      dup4\n      sub\n      sub\n      dup2\n      mstore\n      swap1\n      0x40\n      mstore\n      and(not(0xffffffffffffffffffffffffffffffffffffffffffffffffffffffff), 0x23b872dd00000000000000000000000000000000000000000000000000000000)\n      0x20\n      dup3\n      add\n      dup1\n      mload\n      0xffffffffffffffffffffffffffffffffffffffffffffffffffffffff\n      dup4\n      dup2\n      dup4\n      and\n      or\n      dup4\n      mstore\n      pop\n      pop\n      pop\n      pop\n        /* \"contracts/KajuswapRouter.sol\":6096:6296  token.call(... */\n      mload(0x40)\n      tag_130\n      swap2\n      swap1\n      tag_131\n      jump\t// in\n    tag_130:\n      0x00\n      mload(0x40)\n      dup1\n      dup4\n      sub\n      dup2\n      0x00\n      dup7\n      gas\n      call\n      swap2\n      pop\n      pop\n      returndatasize\n      dup1\n      0x00\n      dup2\n      eq\n      tag_134\n      jumpi\n      mload(0x40)\n      swap2\n      pop\n      and(add(returndatasize, 0x3f), not(0x1f))\n      dup3\n      add\n      0x40\n      mstore\n      returndatasize\n      dup3\n      mstore\n      returndatasize\n      0x00\n      0x20\n      dup5\n      add\n      returndatacopy\n      jump(tag_133)\n    tag_134:\n      0x60\n      swap2\n      pop\n    tag_133:\n      pop\n        /* \"contracts/KajuswapRouter.sol\":6060:6296  (bool success, bytes memory data) = token.call(... */\n      swap2\n      pop\n      swap2\n      pop\n        /* \"contracts/KajuswapRouter.sol\":6312:6319  success */\n      dup2\n        /* \"contracts/KajuswapRouter.sol\":6311:6319  !success */\n      iszero\n        /* \"contracts/KajuswapRouter.sol\":6311:6370  !success || (data.length != 0 && !abi.decode(data, (bool))) */\n      dup1\n      tag_135\n      jumpi\n      pop\n        /* \"contracts/KajuswapRouter.sol\":6339:6340  0 */\n      0x00\n        /* \"contracts/KajuswapRouter.sol\":6324:6328  data */\n      dup2\n        /* \"contracts/KajuswapRouter.sol\":6324:6335  data.length */\n      mload\n        /* \"contracts/KajuswapRouter.sol\":6324:6340  data.length != 0 */\n      eq\n      iszero\n        /* \"contracts/KajuswapRouter.sol\":6324:6369  data.length != 0 && !abi.decode(data, (bool)) */\n      dup1\n      iszero\n      tag_136\n      jumpi\n      pop\n        /* \"contracts/KajuswapRouter.sol\":6356:6360  data */\n      dup1\n        /* \"contracts/KajuswapRouter.sol\":6345:6369  abi.decode(data, (bool)) */\n      dup1\n      0x20\n      add\n      swap1\n      mload\n      dup2\n      add\n      swap1\n      tag_137\n      swap2\n      swap1\n      tag_90\n      jump\t// in\n    tag_137:\n        /* \"contracts/KajuswapRouter.sol\":6344:6369  !abi.decode(data, (bool)) */\n      iszero\n        /* \"contracts/KajuswapRouter.sol\":6324:6369  data.length != 0 && !abi.decode(data, (bool)) */\n    tag_136:\n        /* \"contracts/KajuswapRouter.sol\":6311:6370  !success || (data.length != 0 && !abi.decode(data, (bool))) */\n    tag_135:\n        /* \"contracts/KajuswapRouter.sol\":6307:6412  if (!success || (data.length != 0 && !abi.decode(data, (bool))))... */\n      iszero\n      tag_138\n      jumpi\n        /* \"contracts/KajuswapRouter.sol\":6392:6412  SafeTransferFailed() */\n      mload(0x40)\n      0xfb7f507900000000000000000000000000000000000000000000000000000000\n      dup2\n      mstore\n      0x04\n      add\n      mload(0x40)\n      dup1\n      swap2\n      sub\n      swap1\n      revert\n        /* \"contracts/KajuswapRouter.sol\":6307:6412  if (!success || (data.length != 0 && !abi.decode(data, (bool))))... */\n    tag_138:\n        /* \"contracts/KajuswapRouter.sol\":6049:6420  {... */\n      pop\n      pop\n        /* \"contracts/KajuswapRouter.sol\":5915:6420  function _safeTransferFrom(... */\n      pop\n      pop\n      pop\n      pop\n      jump\t// out\n        /* \"contracts/KajuswapRouter.sol\":3637:4492  function _swap(... */\n    tag_59:\n        /* \"contracts/KajuswapRouter.sol\":3773:3782  uint256 i */\n      0x00\n        /* \"contracts/KajuswapRouter.sol\":3768:4485  for (uint256 i = 0; i < path.length - 1; i++) {... */\n    tag_140:\n        /* \"contracts/KajuswapRouter.sol\":3806:3807  1 */\n      0x01\n        /* \"contracts/KajuswapRouter.sol\":3792:3796  path */\n      dup4\n        /* \"contracts/KajuswapRouter.sol\":3792:3803  path.length */\n      mload\n        /* \"contracts/KajuswapRouter.sol\":3792:3807  path.length - 1 */\n      tag_143\n      swap2\n      swap1\n      tag_37\n      jump\t// in\n    tag_143:\n        /* \"contracts/KajuswapRouter.sol\":3788:3789  i */\n      dup2\n        /* \"contracts/KajuswapRouter.sol\":3788:3807  i < path.length - 1 */\n      lt\n        /* \"contracts/KajuswapRouter.sol\":3768:4485  for (uint256 i = 0; i < path.length - 1; i++) {... */\n      iszero\n      tag_141\n      jumpi\n        /* \"contracts/KajuswapRouter.sol\":3830:3843  address input */\n      0x00\n        /* \"contracts/KajuswapRouter.sol\":3845:3859  address output */\n      dup1\n        /* \"contracts/KajuswapRouter.sol\":3864:3868  path */\n      dup5\n        /* \"contracts/KajuswapRouter.sol\":3869:3870  i */\n      dup4\n        /* \"contracts/KajuswapRouter.sol\":3864:3871  path[i] */\n      dup2\n      mload\n      dup2\n      lt\n      tag_144\n      jumpi\n      tag_145\n      tag_40\n      jump\t// in\n    tag_145:\n    tag_144:\n      0x20\n      mul\n      0x20\n      add\n      add\n      mload\n        /* \"contracts/KajuswapRouter.sol\":3873:3877  path */\n      dup6\n        /* \"contracts/KajuswapRouter.sol\":3882:3883  1 */\n      0x01\n        /* \"contracts/KajuswapRouter.sol\":3878:3879  i */\n      dup6\n        /* \"contracts/KajuswapRouter.sol\":3878:3883  i + 1 */\n      tag_146\n      swap2\n      swap1\n      tag_147\n      jump\t// in\n    tag_146:\n        /* \"contracts/KajuswapRouter.sol\":3873:3884  path[i + 1] */\n      dup2\n      mload\n      dup2\n      lt\n      tag_148\n      jumpi\n      tag_149\n      tag_40\n      jump\t// in\n    tag_149:\n    tag_148:\n      0x20\n      mul\n      0x20\n      add\n      add\n      mload\n        /* \"contracts/KajuswapRouter.sol\":3829:3885  (address input, address output) = (path[i], path[i + 1]) */\n      swap2\n      pop\n      swap2\n      pop\n        /* \"contracts/KajuswapRouter.sol\":3901:3915  address token0 */\n      0x00\n        /* \"contracts/KajuswapRouter.sol\":3921:3962  KajuswapLibrary.sortTokens(input, output) */\n      tag_150\n        /* \"contracts/KajuswapRouter.sol\":3948:3953  input */\n      dup4\n        /* \"contracts/KajuswapRouter.sol\":3955:3961  output */\n      dup4\n        /* \"contracts/KajuswapRouter.sol\":3921:3947  KajuswapLibrary.sortTokens */\n      tag_123\n        /* \"contracts/KajuswapRouter.sol\":3921:3962  KajuswapLibrary.sortTokens(input, output) */\n      jump\t// in\n    tag_150:\n        /* \"contracts/KajuswapRouter.sol\":3900:3962  (address token0, ) = KajuswapLibrary.sortTokens(input, output) */\n      pop\n      swap1\n      pop\n        /* \"contracts/KajuswapRouter.sol\":3977:3994  uint256 amountOut */\n      0x00\n        /* \"contracts/KajuswapRouter.sol\":3997:4004  amounts */\n      dup8\n        /* \"contracts/KajuswapRouter.sol\":4009:4010  1 */\n      0x01\n        /* \"contracts/KajuswapRouter.sol\":4005:4006  i */\n      dup7\n        /* \"contracts/KajuswapRouter.sol\":4005:4010  i + 1 */\n      tag_151\n      swap2\n      swap1\n      tag_147\n      jump\t// in\n    tag_151:\n        /* \"contracts/KajuswapRouter.sol\":3997:4011  amounts[i + 1] */\n      dup2\n      mload\n      dup2\n      lt\n      tag_152\n      jumpi\n      tag_153\n      tag_40\n      jump\t// in\n    tag_153:\n    tag_152:\n      0x20\n      mul\n      0x20\n      add\n      add\n      mload\n        /* \"contracts/KajuswapRouter.sol\":3977:4011  uint256 amountOut = amounts[i + 1] */\n      swap1\n      pop\n        /* \"contracts/KajuswapRouter.sol\":4027:4045  uint256 amount0Out */\n      0x00\n        /* \"contracts/KajuswapRouter.sol\":4047:4065  uint256 amount1Out */\n      dup1\n        /* \"contracts/KajuswapRouter.sol\":4078:4084  token0 */\n      dup4\n        /* \"contracts/KajuswapRouter.sol\":4069:4084  input == token0 */\n      0xffffffffffffffffffffffffffffffffffffffff\n      and\n        /* \"contracts/KajuswapRouter.sol\":4069:4074  input */\n      dup7\n        /* \"contracts/KajuswapRouter.sol\":4069:4084  input == token0 */\n      0xffffffffffffffffffffffffffffffffffffffff\n      and\n      eq\n        /* \"contracts/KajuswapRouter.sol\":4069:4170  input == token0... */\n      tag_154\n      jumpi\n        /* \"contracts/KajuswapRouter.sol\":4148:4157  amountOut */\n      dup3\n        /* \"contracts/KajuswapRouter.sol\":4167:4168  0 */\n      0x00\n        /* \"contracts/KajuswapRouter.sol\":4069:4170  input == token0... */\n      jump(tag_155)\n    tag_154:\n        /* \"contracts/KajuswapRouter.sol\":4113:4114  0 */\n      0x00\n        /* \"contracts/KajuswapRouter.sol\":4117:4126  amountOut */\n      dup4\n        /* \"contracts/KajuswapRouter.sol\":4069:4170  input == token0... */\n    tag_155:\n        /* \"contracts/KajuswapRouter.sol\":4026:4170  (uint256 amount0Out, uint256 amount1Out) = input == token0... */\n      swap2\n      pop\n      swap2\n      pop\n        /* \"contracts/KajuswapRouter.sol\":4185:4195  address to */\n      0x00\n        /* \"contracts/KajuswapRouter.sol\":4216:4217  2 */\n      0x02\n        /* \"contracts/KajuswapRouter.sol\":4202:4206  path */\n      dup11\n        /* \"contracts/KajuswapRouter.sol\":4202:4213  path.length */\n      mload\n        /* \"contracts/KajuswapRouter.sol\":4202:4217  path.length - 2 */\n      tag_156\n      swap2\n      swap1\n      tag_37\n      jump\t// in\n    tag_156:\n        /* \"contracts/KajuswapRouter.sol\":4198:4199  i */\n      dup9\n        /* \"contracts/KajuswapRouter.sol\":4198:4217  i < path.length - 2 */\n      lt\n        /* \"contracts/KajuswapRouter.sol\":4198:4322  i < path.length - 2... */\n      tag_157\n      jumpi\n        /* \"contracts/KajuswapRouter.sol\":4319:4322  to_ */\n      dup9\n        /* \"contracts/KajuswapRouter.sol\":4198:4322  i < path.length - 2... */\n      jump(tag_158)\n    tag_157:\n        /* \"contracts/KajuswapRouter.sol\":4237:4299  KajuswapLibrary.pairFor(address(factory), output, path[i + 2]) */\n      tag_159\n        /* \"contracts/KajuswapRouter.sol\":4269:4276  factory */\n      0x00\n      dup1\n      sload\n      swap1\n      0x0100\n      exp\n      swap1\n      div\n      0xffffffffffffffffffffffffffffffffffffffff\n      and\n        /* \"contracts/KajuswapRouter.sol\":4279:4285  output */\n      dup8\n        /* \"contracts/KajuswapRouter.sol\":4287:4291  path */\n      dup13\n        /* \"contracts/KajuswapRouter.sol\":4296:4297  2 */\n      0x02\n        /* \"contracts/KajuswapRouter.sol\":4292:4293  i */\n      dup13\n        /* \"contracts/KajuswapRouter.sol\":4292:4297  i + 2 */\n      tag_160\n      swap2\n      swap1\n      tag_147\n      jump\t// in\n    tag_160:\n        /* \"contracts/KajuswapRouter.sol\":4287:4298  path[i + 2] */\n      dup2\n      mload\n      dup2\n      lt\n      tag_161\n      jumpi\n      tag_162\n      tag_40\n      jump\t// in\n    tag_162:\n    tag_161:\n      0x20\n      mul\n      0x20\n      add\n      add\n      mload\n        /* \"contracts/KajuswapRouter.sol\":4237:4260  KajuswapLibrary.pairFor */\n      tag_54\n        /* \"contracts/KajuswapRouter.sol\":4237:4299  KajuswapLibrary.pairFor(address(factory), output, path[i + 2]) */\n      jump\t// in\n    tag_159:\n        /* \"contracts/KajuswapRouter.sol\":4198:4322  i < path.length - 2... */\n    tag_158:\n        /* \"contracts/KajuswapRouter.sol\":4185:4322  address to = i < path.length - 2... */\n      swap1\n      pop\n        /* \"contracts/KajuswapRouter.sol\":4369:4425  KajuswapLibrary.pairFor(address(factory), input, output) */\n      tag_163\n        /* \"contracts/KajuswapRouter.sol\":4401:4408  factory */\n      0x00\n      dup1\n      sload\n      swap1\n      0x0100\n      exp\n      swap1\n      div\n      0xffffffffffffffffffffffffffffffffffffffff\n      and\n        /* \"contracts/KajuswapRouter.sol\":4411:4416  input */\n      dup9\n        /* \"contracts/KajuswapRouter.sol\":4418:4424  output */\n      dup9\n        /* \"contracts/KajuswapRouter.sol\":4369:4392  KajuswapLibrary.pairFor */\n      tag_54\n        /* \"contracts/KajuswapRouter.sol\":4369:4425  KajuswapLibrary.pairFor(address(factory), input, output) */\n      jump\t// in\n    tag_163:\n        /* \"contracts/KajuswapRouter.sol\":4337:4445  IKajuswapPair(... */\n      0xffffffffffffffffffffffffffffffffffffffff\n      and\n      0x6d9a640a\n        /* \"contracts/KajuswapRouter.sol\":4446:4456  amount0Out */\n      dup5\n        /* \"contracts/KajuswapRouter.sol\":4458:4468  amount1Out */\n      dup5\n        /* \"contracts/KajuswapRouter.sol\":4470:4472  to */\n      dup5\n        /* \"contracts/KajuswapRouter.sol\":4337:4473  IKajuswapPair(... */\n      mload(0x40)\n      dup5\n      0xffffffff\n      and\n      0xe0\n      shl\n      dup2\n      mstore\n      0x04\n      add\n      tag_164\n      swap4\n      swap3\n      swap2\n      swap1\n      tag_165\n      jump\t// in\n    tag_164:\n      0x00\n      mload(0x40)\n      dup1\n      dup4\n      sub\n      dup2\n      0x00\n      dup8\n      dup1\n      extcodesize\n      iszero\n      dup1\n      iszero\n      tag_166\n      jumpi\n      0x00\n      dup1\n      revert\n    tag_166:\n      pop\n      gas\n      call\n      iszero\n      dup1\n      iszero\n      tag_168\n      jumpi\n      returndatasize\n      0x00\n      dup1\n      returndatacopy\n      revert(0x00, returndatasize)\n    tag_168:\n      pop\n      pop\n      pop\n      pop\n        /* \"contracts/KajuswapRouter.sol\":3814:4485  {... */\n      pop\n      pop\n      pop\n      pop\n      pop\n      pop\n      pop\n        /* \"contracts/KajuswapRouter.sol\":3809:3812  i++ */\n      dup1\n      dup1\n      tag_169\n      swap1\n      tag_170\n      jump\t// in\n    tag_169:\n      swap2\n      pop\n      pop\n        /* \"contracts/KajuswapRouter.sol\":3768:4485  for (uint256 i = 0; i < path.length - 1; i++) {... */\n      jump(tag_140)\n    tag_141:\n      pop\n        /* \"contracts/KajuswapRouter.sol\":3637:4492  function _swap(... */\n      pop\n      pop\n      pop\n      jump\t// out\n        /* \"contracts/KajuswapRouter.sol\":4500:5907  function _calculateLiquidity(... */\n    tag_112:\n        /* \"contracts/KajuswapRouter.sol\":4728:4743  uint256 amountA */\n      0x00\n        /* \"contracts/KajuswapRouter.sol\":4745:4760  uint256 amountB */\n      dup1\n        /* \"contracts/KajuswapRouter.sol\":4774:4790  uint256 reserveA */\n      0x00\n        /* \"contracts/KajuswapRouter.sol\":4792:4808  uint256 reserveB */\n      dup1\n        /* \"contracts/KajuswapRouter.sol\":4812:4827  KajuswapLibrary */\n      linkerSymbol(\"18693c2782ae7b010cc3bd0449f436a78932852c600971ebfaa34cda17c779df\")\n        /* \"contracts/KajuswapRouter.sol\":4812:4839  KajuswapLibrary.getReserves */\n      0x32749461\n        /* \"contracts/KajuswapRouter.sol\":4862:4869  factory */\n      0x00\n      dup1\n      sload\n      swap1\n      0x0100\n      exp\n      swap1\n      div\n      0xffffffffffffffffffffffffffffffffffffffff\n      and\n        /* \"contracts/KajuswapRouter.sol\":4885:4891  tokenA */\n      dup13\n        /* \"contracts/KajuswapRouter.sol\":4906:4912  tokenB */\n      dup13\n        /* \"contracts/KajuswapRouter.sol\":4812:4923  KajuswapLibrary.getReserves(... */\n      mload(0x40)\n      dup5\n      0xffffffff\n      and\n      0xe0\n      shl\n      dup2\n      mstore\n      0x04\n      add\n      tag_172\n      swap4\n      swap3\n      swap2\n      swap1\n      tag_173\n      jump\t// in\n    tag_172:\n      0x40\n      dup1\n      mload\n      dup1\n      dup4\n      sub\n      dup2\n      dup7\n      gas\n      delegatecall\n      iszero\n      dup1\n      iszero\n      tag_175\n      jumpi\n      returndatasize\n      0x00\n      dup1\n      returndatacopy\n      revert(0x00, returndatasize)\n    tag_175:\n      pop\n      pop\n      pop\n      pop\n      mload(0x40)\n      returndatasize\n      not(0x1f)\n      0x1f\n      dup3\n      add\n      and\n      dup3\n      add\n      dup1\n      0x40\n      mstore\n      pop\n      dup2\n      add\n      swap1\n      tag_176\n      swap2\n      swap1\n      tag_96\n      jump\t// in\n    tag_176:\n        /* \"contracts/KajuswapRouter.sol\":4773:4923  (uint256 reserveA, uint256 reserveB) = KajuswapLibrary.getReserves(... */\n      swap2\n      pop\n      swap2\n      pop\n        /* \"contracts/KajuswapRouter.sol\":4952:4953  0 */\n      0x00\n        /* \"contracts/KajuswapRouter.sol\":4940:4948  reserveA */\n      dup3\n        /* \"contracts/KajuswapRouter.sol\":4940:4953  reserveA == 0 */\n      eq\n        /* \"contracts/KajuswapRouter.sol\":4940:4970  reserveA == 0 && reserveB == 0 */\n      dup1\n      iszero\n      tag_177\n      jumpi\n      pop\n        /* \"contracts/KajuswapRouter.sol\":4969:4970  0 */\n      0x00\n        /* \"contracts/KajuswapRouter.sol\":4957:4965  reserveB */\n      dup2\n        /* \"contracts/KajuswapRouter.sol\":4957:4970  reserveB == 0 */\n      eq\n        /* \"contracts/KajuswapRouter.sol\":4940:4970  reserveA == 0 && reserveB == 0 */\n    tag_177:\n        /* \"contracts/KajuswapRouter.sol\":4936:5900  if (reserveA == 0 && reserveB == 0) {... */\n      iszero\n      tag_178\n      jumpi\n        /* \"contracts/KajuswapRouter.sol\":5009:5023  amountADesired */\n      dup8\n        /* \"contracts/KajuswapRouter.sol\":5025:5039  amountBDesired */\n      dup8\n        /* \"contracts/KajuswapRouter.sol\":4987:5040  (amountA, amountB) = (amountADesired, amountBDesired) */\n      dup1\n      swap5\n      pop\n      dup2\n      swap6\n      pop\n      pop\n      pop\n        /* \"contracts/KajuswapRouter.sol\":4936:5900  if (reserveA == 0 && reserveB == 0) {... */\n      jump(tag_179)\n    tag_178:\n        /* \"contracts/KajuswapRouter.sol\":5073:5095  uint256 amountBOptimal */\n      0x00\n        /* \"contracts/KajuswapRouter.sol\":5098:5113  KajuswapLibrary */\n      linkerSymbol(\"18693c2782ae7b010cc3bd0449f436a78932852c600971ebfaa34cda17c779df\")\n        /* \"contracts/KajuswapRouter.sol\":5098:5119  KajuswapLibrary.quote */\n      0xad615dec\n        /* \"contracts/KajuswapRouter.sol\":5138:5152  amountADesired */\n      dup11\n        /* \"contracts/KajuswapRouter.sol\":5171:5179  reserveA */\n      dup6\n        /* \"contracts/KajuswapRouter.sol\":5198:5206  reserveB */\n      dup6\n        /* \"contracts/KajuswapRouter.sol\":5098:5221  KajuswapLibrary.quote(... */\n      mload(0x40)\n      dup5\n      0xffffffff\n      and\n      0xe0\n      shl\n      dup2\n      mstore\n      0x04\n      add\n      tag_180\n      swap4\n      swap3\n      swap2\n      swap1\n      tag_181\n      jump\t// in\n    tag_180:\n      0x20\n      mload(0x40)\n      dup1\n      dup4\n      sub\n      dup2\n      dup7\n      gas\n      delegatecall\n      iszero\n      dup1\n      iszero\n      tag_183\n      jumpi\n      returndatasize\n      0x00\n      dup1\n      returndatacopy\n      revert(0x00, returndatasize)\n    tag_183:\n      pop\n      pop\n      pop\n      pop\n      mload(0x40)\n      returndatasize\n      not(0x1f)\n      0x1f\n      dup3\n      add\n      and\n      dup3\n      add\n      dup1\n      0x40\n      mstore\n      pop\n      dup2\n      add\n      swap1\n      tag_184\n      swap2\n      swap1\n      tag_120\n      jump\t// in\n    tag_184:\n        /* \"contracts/KajuswapRouter.sol\":5073:5221  uint256 amountBOptimal = KajuswapLibrary.quote(... */\n      swap1\n      pop\n        /* \"contracts/KajuswapRouter.sol\":5285:5299  amountBDesired */\n      dup8\n        /* \"contracts/KajuswapRouter.sol\":5267:5281  amountBOptimal */\n      dup2\n        /* \"contracts/KajuswapRouter.sol\":5267:5299  amountBOptimal <= amountBDesired */\n      gt\n        /* \"contracts/KajuswapRouter.sol\":5263:5889  if (amountBOptimal <= amountBDesired) {... */\n      tag_185\n      jumpi\n        /* \"contracts/KajuswapRouter.sol\":5342:5352  amountBMin */\n      dup6\n        /* \"contracts/KajuswapRouter.sol\":5324:5338  amountBOptimal */\n      dup2\n        /* \"contracts/KajuswapRouter.sol\":5324:5352  amountBOptimal <= amountBMin */\n      gt\n        /* \"contracts/KajuswapRouter.sol\":5320:5382  if (amountBOptimal <= amountBMin) revert InsufficientBAmount() */\n      tag_186\n      jumpi\n        /* \"contracts/KajuswapRouter.sol\":5361:5382  InsufficientBAmount() */\n      mload(0x40)\n      0xef71d09100000000000000000000000000000000000000000000000000000000\n      dup2\n      mstore\n      0x04\n      add\n      mload(0x40)\n      dup1\n      swap2\n      sub\n      swap1\n      revert\n        /* \"contracts/KajuswapRouter.sol\":5320:5382  if (amountBOptimal <= amountBMin) revert InsufficientBAmount() */\n    tag_186:\n        /* \"contracts/KajuswapRouter.sol\":5423:5437  amountADesired */\n      dup9\n        /* \"contracts/KajuswapRouter.sol\":5439:5453  amountBOptimal */\n      dup2\n        /* \"contracts/KajuswapRouter.sol\":5401:5454  (amountA, amountB) = (amountADesired, amountBOptimal) */\n      dup1\n      swap6\n      pop\n      dup2\n      swap7\n      pop\n      pop\n      pop\n        /* \"contracts/KajuswapRouter.sol\":5263:5889  if (amountBOptimal <= amountBDesired) {... */\n      jump(tag_187)\n    tag_185:\n        /* \"contracts/KajuswapRouter.sol\":5495:5517  uint256 amountAOptimal */\n      0x00\n        /* \"contracts/KajuswapRouter.sol\":5520:5535  KajuswapLibrary */\n      linkerSymbol(\"18693c2782ae7b010cc3bd0449f436a78932852c600971ebfaa34cda17c779df\")\n        /* \"contracts/KajuswapRouter.sol\":5520:5541  KajuswapLibrary.quote */\n      0xad615dec\n        /* \"contracts/KajuswapRouter.sol\":5564:5578  amountBDesired */\n      dup11\n        /* \"contracts/KajuswapRouter.sol\":5601:5609  reserveB */\n      dup6\n        /* \"contracts/KajuswapRouter.sol\":5632:5640  reserveA */\n      dup8\n        /* \"contracts/KajuswapRouter.sol\":5520:5659  KajuswapLibrary.quote(... */\n      mload(0x40)\n      dup5\n      0xffffffff\n      and\n      0xe0\n      shl\n      dup2\n      mstore\n      0x04\n      add\n      tag_188\n      swap4\n      swap3\n      swap2\n      swap1\n      tag_181\n      jump\t// in\n    tag_188:\n      0x20\n      mload(0x40)\n      dup1\n      dup4\n      sub\n      dup2\n      dup7\n      gas\n      delegatecall\n      iszero\n      dup1\n      iszero\n      tag_190\n      jumpi\n      returndatasize\n      0x00\n      dup1\n      returndatacopy\n      revert(0x00, returndatasize)\n    tag_190:\n      pop\n      pop\n      pop\n      pop\n      mload(0x40)\n      returndatasize\n      not(0x1f)\n      0x1f\n      dup3\n      add\n      and\n      dup3\n      add\n      dup1\n      0x40\n      mstore\n      pop\n      dup2\n      add\n      swap1\n      tag_191\n      swap2\n      swap1\n      tag_120\n      jump\t// in\n    tag_191:\n        /* \"contracts/KajuswapRouter.sol\":5495:5659  uint256 amountAOptimal = KajuswapLibrary.quote(... */\n      swap1\n      pop\n        /* \"contracts/KajuswapRouter.sol\":5703:5717  amountADesired */\n      dup10\n        /* \"contracts/KajuswapRouter.sol\":5685:5699  amountAOptimal */\n      dup2\n        /* \"contracts/KajuswapRouter.sol\":5685:5717  amountAOptimal <= amountADesired */\n      gt\n      iszero\n        /* \"contracts/KajuswapRouter.sol\":5678:5718  assert(amountAOptimal <= amountADesired) */\n      tag_192\n      jumpi\n      tag_193\n      tag_194\n      jump\t// in\n    tag_193:\n    tag_192:\n        /* \"contracts/KajuswapRouter.sol\":5761:5771  amountAMin */\n      dup8\n        /* \"contracts/KajuswapRouter.sol\":5743:5757  amountAOptimal */\n      dup2\n        /* \"contracts/KajuswapRouter.sol\":5743:5771  amountAOptimal <= amountAMin */\n      gt\n        /* \"contracts/KajuswapRouter.sol\":5739:5801  if (amountAOptimal <= amountAMin) revert InsufficientAAmount() */\n      tag_195\n      jumpi\n        /* \"contracts/KajuswapRouter.sol\":5780:5801  InsufficientAAmount() */\n      mload(0x40)\n      0x8dc525d100000000000000000000000000000000000000000000000000000000\n      dup2\n      mstore\n      0x04\n      add\n      mload(0x40)\n      dup1\n      swap2\n      sub\n      swap1\n      revert\n        /* \"contracts/KajuswapRouter.sol\":5739:5801  if (amountAOptimal <= amountAMin) revert InsufficientAAmount() */\n    tag_195:\n        /* \"contracts/KajuswapRouter.sol\":5842:5856  amountAOptimal */\n      dup1\n        /* \"contracts/KajuswapRouter.sol\":5858:5872  amountBDesired */\n      dup10\n        /* \"contracts/KajuswapRouter.sol\":5820:5873  (amountA, amountB) = (amountAOptimal, amountBDesired) */\n      dup1\n      swap7\n      pop\n      dup2\n      swap8\n      pop\n      pop\n      pop\n        /* \"contracts/KajuswapRouter.sol\":5476:5889  {... */\n      pop\n        /* \"contracts/KajuswapRouter.sol\":5263:5889  if (amountBOptimal <= amountBDesired) {... */\n    tag_187:\n        /* \"contracts/KajuswapRouter.sol\":5058:5900  {... */\n      pop\n        /* \"contracts/KajuswapRouter.sol\":4936:5900  if (reserveA == 0 && reserveB == 0) {... */\n    tag_179:\n        /* \"contracts/KajuswapRouter.sol\":4762:5907  {... */\n      pop\n      pop\n        /* \"contracts/KajuswapRouter.sol\":4500:5907  function _calculateLiquidity(... */\n      swap7\n      pop\n      swap7\n      swap5\n      pop\n      pop\n      pop\n      pop\n      pop\n      jump\t// out\n        /* \"contracts/KajuswapLibrary.sol\":2243:2461  function sortTokens(address tokenA, address tokenB)... */\n    tag_123:\n        /* \"contracts/KajuswapLibrary.sol\":2345:2359  address token0 */\n      0x00\n        /* \"contracts/KajuswapLibrary.sol\":2361:2375  address token1 */\n      dup1\n        /* \"contracts/KajuswapLibrary.sol\":2409:2415  tokenB */\n      dup3\n        /* \"contracts/KajuswapLibrary.sol\":2400:2415  tokenA < tokenB */\n      0xffffffffffffffffffffffffffffffffffffffff\n      and\n        /* \"contracts/KajuswapLibrary.sol\":2400:2406  tokenA */\n      dup5\n        /* \"contracts/KajuswapLibrary.sol\":2400:2415  tokenA < tokenB */\n      0xffffffffffffffffffffffffffffffffffffffff\n      and\n      lt\n        /* \"contracts/KajuswapLibrary.sol\":2400:2453  tokenA < tokenB ? (tokenA, tokenB) : (tokenB, tokenA) */\n      tag_197\n      jumpi\n        /* \"contracts/KajuswapLibrary.sol\":2438:2444  tokenB */\n      dup3\n        /* \"contracts/KajuswapLibrary.sol\":2446:2452  tokenA */\n      dup5\n        /* \"contracts/KajuswapLibrary.sol\":2400:2453  tokenA < tokenB ? (tokenA, tokenB) : (tokenB, tokenA) */\n      jump(tag_198)\n    tag_197:\n        /* \"contracts/KajuswapLibrary.sol\":2419:2425  tokenA */\n      dup4\n        /* \"contracts/KajuswapLibrary.sol\":2427:2433  tokenB */\n      dup4\n        /* \"contracts/KajuswapLibrary.sol\":2400:2453  tokenA < tokenB ? (tokenA, tokenB) : (tokenB, tokenA) */\n    tag_198:\n        /* \"contracts/KajuswapLibrary.sol\":2393:2453  return tokenA < tokenB ? (tokenA, tokenB) : (tokenB, tokenA) */\n      swap2\n      pop\n      swap2\n      pop\n        /* \"contracts/KajuswapLibrary.sol\":2243:2461  function sortTokens(address tokenA, address tokenB)... */\n      swap3\n      pop\n      swap3\n      swap1\n      pop\n      jump\t// out\n        /* \"#utility.yul\":7:82   */\n    tag_199:\n        /* \"#utility.yul\":40:46   */\n      0x00\n        /* \"#utility.yul\":73:75   */\n      0x40\n        /* \"#utility.yul\":67:76   */\n      mload\n        /* \"#utility.yul\":57:76   */\n      swap1\n      pop\n        /* \"#utility.yul\":7:82   */\n      swap1\n      jump\t// out\n        /* \"#utility.yul\":88:205   */\n    tag_200:\n        /* \"#utility.yul\":197:198   */\n      0x00\n        /* \"#utility.yul\":194:195   */\n      dup1\n        /* \"#utility.yul\":187:199   */\n      revert\n        /* \"#utility.yul\":211:328   */\n    tag_201:\n        /* \"#utility.yul\":320:321   */\n      0x00\n        /* \"#utility.yul\":317:318   */\n      dup1\n        /* \"#utility.yul\":310:322   */\n      revert\n        /* \"#utility.yul\":334:411   */\n    tag_202:\n        /* \"#utility.yul\":371:378   */\n      0x00\n        /* \"#utility.yul\":400:405   */\n      dup2\n        /* \"#utility.yul\":389:405   */\n      swap1\n      pop\n        /* \"#utility.yul\":334:411   */\n      swap2\n      swap1\n      pop\n      jump\t// out\n        /* \"#utility.yul\":417:539   */\n    tag_203:\n        /* \"#utility.yul\":490:514   */\n      tag_266\n        /* \"#utility.yul\":508:513   */\n      dup2\n        /* \"#utility.yul\":490:514   */\n      tag_202\n      jump\t// in\n    tag_266:\n        /* \"#utility.yul\":483:488   */\n      dup2\n        /* \"#utility.yul\":480:515   */\n      eq\n        /* \"#utility.yul\":470:533   */\n      tag_267\n      jumpi\n        /* \"#utility.yul\":529:530   */\n      0x00\n        /* \"#utility.yul\":526:527   */\n      dup1\n        /* \"#utility.yul\":519:531   */\n      revert\n        /* \"#utility.yul\":470:533   */\n    tag_267:\n        /* \"#utility.yul\":417:539   */\n      pop\n      jump\t// out\n        /* \"#utility.yul\":545:684   */\n    tag_204:\n        /* \"#utility.yul\":591:596   */\n      0x00\n        /* \"#utility.yul\":629:635   */\n      dup2\n        /* \"#utility.yul\":616:636   */\n      calldataload\n        /* \"#utility.yul\":607:636   */\n      swap1\n      pop\n        /* \"#utility.yul\":645:678   */\n      tag_269\n        /* \"#utility.yul\":672:677   */\n      dup2\n        /* \"#utility.yul\":645:678   */\n      tag_203\n      jump\t// in\n    tag_269:\n        /* \"#utility.yul\":545:684   */\n      swap3\n      swap2\n      pop\n      pop\n      jump\t// out\n        /* \"#utility.yul\":690:807   */\n    tag_205:\n        /* \"#utility.yul\":799:800   */\n      0x00\n        /* \"#utility.yul\":796:797   */\n      dup1\n        /* \"#utility.yul\":789:801   */\n      revert\n        /* \"#utility.yul\":813:930   */\n    tag_206:\n        /* \"#utility.yul\":922:923   */\n      0x00\n        /* \"#utility.yul\":919:920   */\n      dup1\n        /* \"#utility.yul\":912:924   */\n      revert\n        /* \"#utility.yul\":936:1053   */\n    tag_207:\n        /* \"#utility.yul\":1045:1046   */\n      0x00\n        /* \"#utility.yul\":1042:1043   */\n      dup1\n        /* \"#utility.yul\":1035:1047   */\n      revert\n        /* \"#utility.yul\":1076:1644   */\n    tag_208:\n        /* \"#utility.yul\":1149:1157   */\n      0x00\n        /* \"#utility.yul\":1159:1165   */\n      dup1\n        /* \"#utility.yul\":1209:1212   */\n      dup4\n        /* \"#utility.yul\":1202:1206   */\n      0x1f\n        /* \"#utility.yul\":1194:1200   */\n      dup5\n        /* \"#utility.yul\":1190:1207   */\n      add\n        /* \"#utility.yul\":1186:1213   */\n      slt\n        /* \"#utility.yul\":1176:1298   */\n      tag_274\n      jumpi\n        /* \"#utility.yul\":1217:1296   */\n      tag_275\n      tag_205\n      jump\t// in\n    tag_275:\n        /* \"#utility.yul\":1176:1298   */\n    tag_274:\n        /* \"#utility.yul\":1330:1336   */\n      dup3\n        /* \"#utility.yul\":1317:1337   */\n      calldataload\n        /* \"#utility.yul\":1307:1337   */\n      swap1\n      pop\n        /* \"#utility.yul\":1360:1378   */\n      0xffffffffffffffff\n        /* \"#utility.yul\":1352:1358   */\n      dup2\n        /* \"#utility.yul\":1349:1379   */\n      gt\n        /* \"#utility.yul\":1346:1463   */\n      iszero\n      tag_276\n      jumpi\n        /* \"#utility.yul\":1382:1461   */\n      tag_277\n      tag_206\n      jump\t// in\n    tag_277:\n        /* \"#utility.yul\":1346:1463   */\n    tag_276:\n        /* \"#utility.yul\":1496:1500   */\n      0x20\n        /* \"#utility.yul\":1488:1494   */\n      dup4\n        /* \"#utility.yul\":1484:1501   */\n      add\n        /* \"#utility.yul\":1472:1501   */\n      swap2\n      pop\n        /* \"#utility.yul\":1550:1553   */\n      dup4\n        /* \"#utility.yul\":1542:1546   */\n      0x20\n        /* \"#utility.yul\":1534:1540   */\n      dup3\n        /* \"#utility.yul\":1530:1547   */\n      mul\n        /* \"#utility.yul\":1520:1528   */\n      dup4\n        /* \"#utility.yul\":1516:1548   */\n      add\n        /* \"#utility.yul\":1513:1554   */\n      gt\n        /* \"#utility.yul\":1510:1638   */\n      iszero\n      tag_278\n      jumpi\n        /* \"#utility.yul\":1557:1636   */\n      tag_279\n      tag_207\n      jump\t// in\n    tag_279:\n        /* \"#utility.yul\":1510:1638   */\n    tag_278:\n        /* \"#utility.yul\":1076:1644   */\n      swap3\n      pop\n      swap3\n      swap1\n      pop\n      jump\t// out\n        /* \"#utility.yul\":1650:1776   */\n    tag_209:\n        /* \"#utility.yul\":1687:1694   */\n      0x00\n        /* \"#utility.yul\":1727:1769   */\n      0xffffffffffffffffffffffffffffffffffffffff\n        /* \"#utility.yul\":1720:1725   */\n      dup3\n        /* \"#utility.yul\":1716:1770   */\n      and\n        /* \"#utility.yul\":1705:1770   */\n      swap1\n      pop\n        /* \"#utility.yul\":1650:1776   */\n      swap2\n      swap1\n      pop\n      jump\t// out\n        /* \"#utility.yul\":1782:1878   */\n    tag_210:\n        /* \"#utility.yul\":1819:1826   */\n      0x00\n        /* \"#utility.yul\":1848:1872   */\n      tag_282\n        /* \"#utility.yul\":1866:1871   */\n      dup3\n        /* \"#utility.yul\":1848:1872   */\n      tag_209\n      jump\t// in\n    tag_282:\n        /* \"#utility.yul\":1837:1872   */\n      swap1\n      pop\n        /* \"#utility.yul\":1782:1878   */\n      swap2\n      swap1\n      pop\n      jump\t// out\n        /* \"#utility.yul\":1884:2006   */\n    tag_211:\n        /* \"#utility.yul\":1957:1981   */\n      tag_284\n        /* \"#utility.yul\":1975:1980   */\n      dup2\n        /* \"#utility.yul\":1957:1981   */\n      tag_210\n      jump\t// in\n    tag_284:\n        /* \"#utility.yul\":1950:1955   */\n      dup2\n        /* \"#utility.yul\":1947:1982   */\n      eq\n        /* \"#utility.yul\":1937:2000   */\n      tag_285\n      jumpi\n        /* \"#utility.yul\":1996:1997   */\n      0x00\n        /* \"#utility.yul\":1993:1994   */\n      dup1\n        /* \"#utility.yul\":1986:1998   */\n      revert\n        /* \"#utility.yul\":1937:2000   */\n    tag_285:\n        /* \"#utility.yul\":1884:2006   */\n      pop\n      jump\t// out\n        /* \"#utility.yul\":2012:2151   */\n    tag_212:\n        /* \"#utility.yul\":2058:2063   */\n      0x00\n        /* \"#utility.yul\":2096:2102   */\n      dup2\n        /* \"#utility.yul\":2083:2103   */\n      calldataload\n        /* \"#utility.yul\":2074:2103   */\n      swap1\n      pop\n        /* \"#utility.yul\":2112:2145   */\n      tag_287\n        /* \"#utility.yul\":2139:2144   */\n      dup2\n        /* \"#utility.yul\":2112:2145   */\n      tag_211\n      jump\t// in\n    tag_287:\n        /* \"#utility.yul\":2012:2151   */\n      swap3\n      swap2\n      pop\n      pop\n      jump\t// out\n        /* \"#utility.yul\":2157:3152   */\n    tag_9:\n        /* \"#utility.yul\":2270:2276   */\n      0x00\n        /* \"#utility.yul\":2278:2284   */\n      dup1\n        /* \"#utility.yul\":2286:2292   */\n      0x00\n        /* \"#utility.yul\":2294:2300   */\n      dup1\n        /* \"#utility.yul\":2302:2308   */\n      0x00\n        /* \"#utility.yul\":2351:2354   */\n      0x80\n        /* \"#utility.yul\":2339:2348   */\n      dup7\n        /* \"#utility.yul\":2330:2337   */\n      dup9\n        /* \"#utility.yul\":2326:2349   */\n      sub\n        /* \"#utility.yul\":2322:2355   */\n      slt\n        /* \"#utility.yul\":2319:2439   */\n      iszero\n      tag_289\n      jumpi\n        /* \"#utility.yul\":2358:2437   */\n      tag_290\n      tag_200\n      jump\t// in\n    tag_290:\n        /* \"#utility.yul\":2319:2439   */\n    tag_289:\n        /* \"#utility.yul\":2478:2479   */\n      0x00\n        /* \"#utility.yul\":2503:2556   */\n      tag_291\n        /* \"#utility.yul\":2548:2555   */\n      dup9\n        /* \"#utility.yul\":2539:2545   */\n      dup3\n        /* \"#utility.yul\":2528:2537   */\n      dup10\n        /* \"#utility.yul\":2524:2546   */\n      add\n        /* \"#utility.yul\":2503:2556   */\n      tag_204\n      jump\t// in\n    tag_291:\n        /* \"#utility.yul\":2493:2556   */\n      swap6\n      pop\n        /* \"#utility.yul\":2449:2566   */\n      pop\n        /* \"#utility.yul\":2605:2607   */\n      0x20\n        /* \"#utility.yul\":2631:2684   */\n      tag_292\n        /* \"#utility.yul\":2676:2683   */\n      dup9\n        /* \"#utility.yul\":2667:2673   */\n      dup3\n        /* \"#utility.yul\":2656:2665   */\n      dup10\n        /* \"#utility.yul\":2652:2674   */\n      add\n        /* \"#utility.yul\":2631:2684   */\n      tag_204\n      jump\t// in\n    tag_292:\n        /* \"#utility.yul\":2621:2684   */\n      swap5\n      pop\n        /* \"#utility.yul\":2576:2694   */\n      pop\n        /* \"#utility.yul\":2761:2763   */\n      0x40\n        /* \"#utility.yul\":2750:2759   */\n      dup7\n        /* \"#utility.yul\":2746:2764   */\n      add\n        /* \"#utility.yul\":2733:2765   */\n      calldataload\n        /* \"#utility.yul\":2792:2810   */\n      0xffffffffffffffff\n        /* \"#utility.yul\":2784:2790   */\n      dup2\n        /* \"#utility.yul\":2781:2811   */\n      gt\n        /* \"#utility.yul\":2778:2895   */\n      iszero\n      tag_293\n      jumpi\n        /* \"#utility.yul\":2814:2893   */\n      tag_294\n      tag_201\n      jump\t// in\n    tag_294:\n        /* \"#utility.yul\":2778:2895   */\n    tag_293:\n        /* \"#utility.yul\":2927:3007   */\n      tag_295\n        /* \"#utility.yul\":2999:3006   */\n      dup9\n        /* \"#utility.yul\":2990:2996   */\n      dup3\n        /* \"#utility.yul\":2979:2988   */\n      dup10\n        /* \"#utility.yul\":2975:2997   */\n      add\n        /* \"#utility.yul\":2927:3007   */\n      tag_208\n      jump\t// in\n    tag_295:\n        /* \"#utility.yul\":2909:3007   */\n      swap4\n      pop\n      swap4\n      pop\n        /* \"#utility.yul\":2704:3017   */\n      pop\n        /* \"#utility.yul\":3056:3058   */\n      0x60\n        /* \"#utility.yul\":3082:3135   */\n      tag_296\n        /* \"#utility.yul\":3127:3134   */\n      dup9\n        /* \"#utility.yul\":3118:3124   */\n      dup3\n        /* \"#utility.yul\":3107:3116   */\n      dup10\n        /* \"#utility.yul\":3103:3125   */\n      add\n        /* \"#utility.yul\":3082:3135   */\n      tag_212\n      jump\t// in\n    tag_296:\n        /* \"#utility.yul\":3072:3135   */\n      swap2\n      pop\n        /* \"#utility.yul\":3027:3145   */\n      pop\n        /* \"#utility.yul\":2157:3152   */\n      swap3\n      swap6\n      pop\n      swap3\n      swap6\n      swap1\n      swap4\n      pop\n      jump\t// out\n        /* \"#utility.yul\":3158:3272   */\n    tag_213:\n        /* \"#utility.yul\":3225:3231   */\n      0x00\n        /* \"#utility.yul\":3259:3264   */\n      dup2\n        /* \"#utility.yul\":3253:3265   */\n      mload\n        /* \"#utility.yul\":3243:3265   */\n      swap1\n      pop\n        /* \"#utility.yul\":3158:3272   */\n      swap2\n      swap1\n      pop\n      jump\t// out\n        /* \"#utility.yul\":3278:3462   */\n    tag_214:\n        /* \"#utility.yul\":3377:3388   */\n      0x00\n        /* \"#utility.yul\":3411:3417   */\n      dup3\n        /* \"#utility.yul\":3406:3409   */\n      dup3\n        /* \"#utility.yul\":3399:3418   */\n      mstore\n        /* \"#utility.yul\":3451:3455   */\n      0x20\n        /* \"#utility.yul\":3446:3449   */\n      dup3\n        /* \"#utility.yul\":3442:3456   */\n      add\n        /* \"#utility.yul\":3427:3456   */\n      swap1\n      pop\n        /* \"#utility.yul\":3278:3462   */\n      swap3\n      swap2\n      pop\n      pop\n      jump\t// out\n        /* \"#utility.yul\":3468:3600   */\n    tag_215:\n        /* \"#utility.yul\":3535:3539   */\n      0x00\n        /* \"#utility.yul\":3558:3561   */\n      dup2\n        /* \"#utility.yul\":3550:3561   */\n      swap1\n      pop\n        /* \"#utility.yul\":3588:3592   */\n      0x20\n        /* \"#utility.yul\":3583:3586   */\n      dup3\n        /* \"#utility.yul\":3579:3593   */\n      add\n        /* \"#utility.yul\":3571:3593   */\n      swap1\n      pop\n        /* \"#utility.yul\":3468:3600   */\n      swap2\n      swap1\n      pop\n      jump\t// out\n        /* \"#utility.yul\":3606:3714   */\n    tag_216:\n        /* \"#utility.yul\":3683:3707   */\n      tag_301\n        /* \"#utility.yul\":3701:3706   */\n      dup2\n        /* \"#utility.yul\":3683:3707   */\n      tag_202\n      jump\t// in\n    tag_301:\n        /* \"#utility.yul\":3678:3681   */\n      dup3\n        /* \"#utility.yul\":3671:3708   */\n      mstore\n        /* \"#utility.yul\":3606:3714   */\n      pop\n      pop\n      jump\t// out\n        /* \"#utility.yul\":3720:3899   */\n    tag_217:\n        /* \"#utility.yul\":3789:3799   */\n      0x00\n        /* \"#utility.yul\":3810:3856   */\n      tag_303\n        /* \"#utility.yul\":3852:3855   */\n      dup4\n        /* \"#utility.yul\":3844:3850   */\n      dup4\n        /* \"#utility.yul\":3810:3856   */\n      tag_216\n      jump\t// in\n    tag_303:\n        /* \"#utility.yul\":3888:3892   */\n      0x20\n        /* \"#utility.yul\":3883:3886   */\n      dup4\n        /* \"#utility.yul\":3879:3893   */\n      add\n        /* \"#utility.yul\":3865:3893   */\n      swap1\n      pop\n        /* \"#utility.yul\":3720:3899   */\n      swap3\n      swap2\n      pop\n      pop\n      jump\t// out\n        /* \"#utility.yul\":3905:4018   */\n    tag_218:\n        /* \"#utility.yul\":3975:3979   */\n      0x00\n        /* \"#utility.yul\":4007:4011   */\n      0x20\n        /* \"#utility.yul\":4002:4005   */\n      dup3\n        /* \"#utility.yul\":3998:4012   */\n      add\n        /* \"#utility.yul\":3990:4012   */\n      swap1\n      pop\n        /* \"#utility.yul\":3905:4018   */\n      swap2\n      swap1\n      pop\n      jump\t// out\n        /* \"#utility.yul\":4054:4786   */\n    tag_219:\n        /* \"#utility.yul\":4173:4176   */\n      0x00\n        /* \"#utility.yul\":4202:4256   */\n      tag_306\n        /* \"#utility.yul\":4250:4255   */\n      dup3\n        /* \"#utility.yul\":4202:4256   */\n      tag_213\n      jump\t// in\n    tag_306:\n        /* \"#utility.yul\":4272:4358   */\n      tag_307\n        /* \"#utility.yul\":4351:4357   */\n      dup2\n        /* \"#utility.yul\":4346:4349   */\n      dup6\n        /* \"#utility.yul\":4272:4358   */\n      tag_214\n      jump\t// in\n    tag_307:\n        /* \"#utility.yul\":4265:4358   */\n      swap4\n      pop\n        /* \"#utility.yul\":4382:4438   */\n      tag_308\n        /* \"#utility.yul\":4432:4437   */\n      dup4\n        /* \"#utility.yul\":4382:4438   */\n      tag_215\n      jump\t// in\n    tag_308:\n        /* \"#utility.yul\":4461:4468   */\n      dup1\n        /* \"#utility.yul\":4492:4493   */\n      0x00\n        /* \"#utility.yul\":4477:4761   */\n    tag_309:\n        /* \"#utility.yul\":4502:4508   */\n      dup4\n        /* \"#utility.yul\":4499:4500   */\n      dup2\n        /* \"#utility.yul\":4496:4509   */\n      lt\n        /* \"#utility.yul\":4477:4761   */\n      iszero\n      tag_311\n      jumpi\n        /* \"#utility.yul\":4578:4584   */\n      dup2\n        /* \"#utility.yul\":4572:4585   */\n      mload\n        /* \"#utility.yul\":4605:4668   */\n      tag_312\n        /* \"#utility.yul\":4664:4667   */\n      dup9\n        /* \"#utility.yul\":4649:4662   */\n      dup3\n        /* \"#utility.yul\":4605:4668   */\n      tag_217\n      jump\t// in\n    tag_312:\n        /* \"#utility.yul\":4598:4668   */\n      swap8\n      pop\n        /* \"#utility.yul\":4691:4751   */\n      tag_313\n        /* \"#utility.yul\":4744:4750   */\n      dup4\n        /* \"#utility.yul\":4691:4751   */\n      tag_218\n      jump\t// in\n    tag_313:\n        /* \"#utility.yul\":4681:4751   */\n      swap3\n      pop\n        /* \"#utility.yul\":4537:4761   */\n      pop\n        /* \"#utility.yul\":4524:4525   */\n      0x01\n        /* \"#utility.yul\":4521:4522   */\n      dup2\n        /* \"#utility.yul\":4517:4526   */\n      add\n        /* \"#utility.yul\":4512:4526   */\n      swap1\n      pop\n        /* \"#utility.yul\":4477:4761   */\n      jump(tag_309)\n    tag_311:\n        /* \"#utility.yul\":4481:4495   */\n      pop\n        /* \"#utility.yul\":4777:4780   */\n      dup6\n        /* \"#utility.yul\":4770:4780   */\n      swap4\n      pop\n        /* \"#utility.yul\":4178:4786   */\n      pop\n      pop\n      pop\n        /* \"#utility.yul\":4054:4786   */\n      swap3\n      swap2\n      pop\n      pop\n      jump\t// out\n        /* \"#utility.yul\":4792:5165   */\n    tag_12:\n        /* \"#utility.yul\":4935:4939   */\n      0x00\n        /* \"#utility.yul\":4973:4975   */\n      0x20\n        /* \"#utility.yul\":4962:4971   */\n      dup3\n        /* \"#utility.yul\":4958:4976   */\n      add\n        /* \"#utility.yul\":4950:4976   */\n      swap1\n      pop\n        /* \"#utility.yul\":5022:5031   */\n      dup2\n        /* \"#utility.yul\":5016:5020   */\n      dup2\n        /* \"#utility.yul\":5012:5032   */\n      sub\n        /* \"#utility.yul\":5008:5009   */\n      0x00\n        /* \"#utility.yul\":4997:5006   */\n      dup4\n        /* \"#utility.yul\":4993:5010   */\n      add\n        /* \"#utility.yul\":4986:5033   */\n      mstore\n        /* \"#utility.yul\":5050:5158   */\n      tag_315\n        /* \"#utility.yul\":5153:5157   */\n      dup2\n        /* \"#utility.yul\":5144:5150   */\n      dup5\n        /* \"#utility.yul\":5050:5158   */\n      tag_219\n      jump\t// in\n    tag_315:\n        /* \"#utility.yul\":5042:5158   */\n      swap1\n      pop\n        /* \"#utility.yul\":4792:5165   */\n      swap3\n      swap2\n      pop\n      pop\n      jump\t// out\n        /* \"#utility.yul\":5171:6228   */\n    tag_19:\n        /* \"#utility.yul\":5275:5281   */\n      0x00\n        /* \"#utility.yul\":5283:5289   */\n      dup1\n        /* \"#utility.yul\":5291:5297   */\n      0x00\n        /* \"#utility.yul\":5299:5305   */\n      dup1\n        /* \"#utility.yul\":5307:5313   */\n      0x00\n        /* \"#utility.yul\":5315:5321   */\n      dup1\n        /* \"#utility.yul\":5364:5367   */\n      0xc0\n        /* \"#utility.yul\":5352:5361   */\n      dup8\n        /* \"#utility.yul\":5343:5350   */\n      dup10\n        /* \"#utility.yul\":5339:5362   */\n      sub\n        /* \"#utility.yul\":5335:5368   */\n      slt\n        /* \"#utility.yul\":5332:5452   */\n      iszero\n      tag_317\n      jumpi\n        /* \"#utility.yul\":5371:5450   */\n      tag_318\n      tag_200\n      jump\t// in\n    tag_318:\n        /* \"#utility.yul\":5332:5452   */\n    tag_317:\n        /* \"#utility.yul\":5491:5492   */\n      0x00\n        /* \"#utility.yul\":5516:5569   */\n      tag_319\n        /* \"#utility.yul\":5561:5568   */\n      dup10\n        /* \"#utility.yul\":5552:5558   */\n      dup3\n        /* \"#utility.yul\":5541:5550   */\n      dup11\n        /* \"#utility.yul\":5537:5559   */\n      add\n        /* \"#utility.yul\":5516:5569   */\n      tag_212\n      jump\t// in\n    tag_319:\n        /* \"#utility.yul\":5506:5569   */\n      swap7\n      pop\n        /* \"#utility.yul\":5462:5579   */\n      pop\n        /* \"#utility.yul\":5618:5620   */\n      0x20\n        /* \"#utility.yul\":5644:5697   */\n      tag_320\n        /* \"#utility.yul\":5689:5696   */\n      dup10\n        /* \"#utility.yul\":5680:5686   */\n      dup3\n        /* \"#utility.yul\":5669:5678   */\n      dup11\n        /* \"#utility.yul\":5665:5687   */\n      add\n        /* \"#utility.yul\":5644:5697   */\n      tag_212\n      jump\t// in\n    tag_320:\n        /* \"#utility.yul\":5634:5697   */\n      swap6\n      pop\n        /* \"#utility.yul\":5589:5707   */\n      pop\n        /* \"#utility.yul\":5746:5748   */\n      0x40\n        /* \"#utility.yul\":5772:5825   */\n      tag_321\n        /* \"#utility.yul\":5817:5824   */\n      dup10\n        /* \"#utility.yul\":5808:5814   */\n      dup3\n        /* \"#utility.yul\":5797:5806   */\n      dup11\n        /* \"#utility.yul\":5793:5815   */\n      add\n        /* \"#utility.yul\":5772:5825   */\n      tag_204\n      jump\t// in\n    tag_321:\n        /* \"#utility.yul\":5762:5825   */\n      swap5\n      pop\n        /* \"#utility.yul\":5717:5835   */\n      pop\n        /* \"#utility.yul\":5874:5876   */\n      0x60\n        /* \"#utility.yul\":5900:5953   */\n      tag_322\n        /* \"#utility.yul\":5945:5952   */\n      dup10\n        /* \"#utility.yul\":5936:5942   */\n      dup3\n        /* \"#utility.yul\":5925:5934   */\n      dup11\n        /* \"#utility.yul\":5921:5943   */\n      add\n        /* \"#utility.yul\":5900:5953   */\n      tag_204\n      jump\t// in\n    tag_322:\n        /* \"#utility.yul\":5890:5953   */\n      swap4\n      pop\n        /* \"#utility.yul\":5845:5963   */\n      pop\n        /* \"#utility.yul\":6002:6005   */\n      0x80\n        /* \"#utility.yul\":6029:6082   */\n      tag_323\n        /* \"#utility.yul\":6074:6081   */\n      dup10\n        /* \"#utility.yul\":6065:6071   */\n      dup3\n        /* \"#utility.yul\":6054:6063   */\n      dup11\n        /* \"#utility.yul\":6050:6072   */\n      add\n        /* \"#utility.yul\":6029:6082   */\n      tag_204\n      jump\t// in\n    tag_323:\n        /* \"#utility.yul\":6019:6082   */\n      swap3\n      pop\n        /* \"#utility.yul\":5973:6092   */\n      pop\n        /* \"#utility.yul\":6131:6134   */\n      0xa0\n        /* \"#utility.yul\":6158:6211   */\n      tag_324\n        /* \"#utility.yul\":6203:6210   */\n      dup10\n        /* \"#utility.yul\":6194:6200   */\n      dup3\n        /* \"#utility.yul\":6183:6192   */\n      dup11\n        /* \"#utility.yul\":6179:6201   */\n      add\n        /* \"#utility.yul\":6158:6211   */\n      tag_212\n      jump\t// in\n    tag_324:\n        /* \"#utility.yul\":6148:6211   */\n      swap2\n      pop\n        /* \"#utility.yul\":6102:6221   */\n      pop\n        /* \"#utility.yul\":5171:6228   */\n      swap3\n      swap6\n      pop\n      swap3\n      swap6\n      pop\n      swap3\n      swap6\n      jump\t// out\n        /* \"#utility.yul\":6234:6352   */\n    tag_220:\n        /* \"#utility.yul\":6321:6345   */\n      tag_326\n        /* \"#utility.yul\":6339:6344   */\n      dup2\n        /* \"#utility.yul\":6321:6345   */\n      tag_202\n      jump\t// in\n    tag_326:\n        /* \"#utility.yul\":6316:6319   */\n      dup3\n        /* \"#utility.yul\":6309:6346   */\n      mstore\n        /* \"#utility.yul\":6234:6352   */\n      pop\n      pop\n      jump\t// out\n        /* \"#utility.yul\":6358:6690   */\n    tag_22:\n        /* \"#utility.yul\":6479:6483   */\n      0x00\n        /* \"#utility.yul\":6517:6519   */\n      0x40\n        /* \"#utility.yul\":6506:6515   */\n      dup3\n        /* \"#utility.yul\":6502:6520   */\n      add\n        /* \"#utility.yul\":6494:6520   */\n      swap1\n      pop\n        /* \"#utility.yul\":6530:6601   */\n      tag_328\n        /* \"#utility.yul\":6598:6599   */\n      0x00\n        /* \"#utility.yul\":6587:6596   */\n      dup4\n        /* \"#utility.yul\":6583:6600   */\n      add\n        /* \"#utility.yul\":6574:6580   */\n      dup6\n        /* \"#utility.yul\":6530:6601   */\n      tag_220\n      jump\t// in\n    tag_328:\n        /* \"#utility.yul\":6611:6683   */\n      tag_329\n        /* \"#utility.yul\":6679:6681   */\n      0x20\n        /* \"#utility.yul\":6668:6677   */\n      dup4\n        /* \"#utility.yul\":6664:6682   */\n      add\n        /* \"#utility.yul\":6655:6661   */\n      dup5\n        /* \"#utility.yul\":6611:6683   */\n      tag_220\n      jump\t// in\n    tag_329:\n        /* \"#utility.yul\":6358:6690   */\n      swap4\n      swap3\n      pop\n      pop\n      pop\n      jump\t// out\n        /* \"#utility.yul\":6696:7899   */\n    tag_25:\n        /* \"#utility.yul\":6809:6815   */\n      0x00\n        /* \"#utility.yul\":6817:6823   */\n      dup1\n        /* \"#utility.yul\":6825:6831   */\n      0x00\n        /* \"#utility.yul\":6833:6839   */\n      dup1\n        /* \"#utility.yul\":6841:6847   */\n      0x00\n        /* \"#utility.yul\":6849:6855   */\n      dup1\n        /* \"#utility.yul\":6857:6863   */\n      0x00\n        /* \"#utility.yul\":6906:6909   */\n      0xe0\n        /* \"#utility.yul\":6894:6903   */\n      dup9\n        /* \"#utility.yul\":6885:6892   */\n      dup11\n        /* \"#utility.yul\":6881:6904   */\n      sub\n        /* \"#utility.yul\":6877:6910   */\n      slt\n        /* \"#utility.yul\":6874:6994   */\n      iszero\n      tag_331\n      jumpi\n        /* \"#utility.yul\":6913:6992   */\n      tag_332\n      tag_200\n      jump\t// in\n    tag_332:\n        /* \"#utility.yul\":6874:6994   */\n    tag_331:\n        /* \"#utility.yul\":7033:7034   */\n      0x00\n        /* \"#utility.yul\":7058:7111   */\n      tag_333\n        /* \"#utility.yul\":7103:7110   */\n      dup11\n        /* \"#utility.yul\":7094:7100   */\n      dup3\n        /* \"#utility.yul\":7083:7092   */\n      dup12\n        /* \"#utility.yul\":7079:7101   */\n      add\n        /* \"#utility.yul\":7058:7111   */\n      tag_212\n      jump\t// in\n    tag_333:\n        /* \"#utility.yul\":7048:7111   */\n      swap8\n      pop\n        /* \"#utility.yul\":7004:7121   */\n      pop\n        /* \"#utility.yul\":7160:7162   */\n      0x20\n        /* \"#utility.yul\":7186:7239   */\n      tag_334\n        /* \"#utility.yul\":7231:7238   */\n      dup11\n        /* \"#utility.yul\":7222:7228   */\n      dup3\n        /* \"#utility.yul\":7211:7220   */\n      dup12\n        /* \"#utility.yul\":7207:7229   */\n      add\n        /* \"#utility.yul\":7186:7239   */\n      tag_212\n      jump\t// in\n    tag_334:\n        /* \"#utility.yul\":7176:7239   */\n      swap7\n      pop\n        /* \"#utility.yul\":7131:7249   */\n      pop\n        /* \"#utility.yul\":7288:7290   */\n      0x40\n        /* \"#utility.yul\":7314:7367   */\n      tag_335\n        /* \"#utility.yul\":7359:7366   */\n      dup11\n        /* \"#utility.yul\":7350:7356   */\n      dup3\n        /* \"#utility.yul\":7339:7348   */\n      dup12\n        /* \"#utility.yul\":7335:7357   */\n      add\n        /* \"#utility.yul\":7314:7367   */\n      tag_204\n      jump\t// in\n    tag_335:\n        /* \"#utility.yul\":7304:7367   */\n      swap6\n      pop\n        /* \"#utility.yul\":7259:7377   */\n      pop\n        /* \"#utility.yul\":7416:7418   */\n      0x60\n        /* \"#utility.yul\":7442:7495   */\n      tag_336\n        /* \"#utility.yul\":7487:7494   */\n      dup11\n        /* \"#utility.yul\":7478:7484   */\n      dup3\n        /* \"#utility.yul\":7467:7476   */\n      dup12\n        /* \"#utility.yul\":7463:7485   */\n      add\n        /* \"#utility.yul\":7442:7495   */\n      tag_204\n      jump\t// in\n    tag_336:\n        /* \"#utility.yul\":7432:7495   */\n      swap5\n      pop\n        /* \"#utility.yul\":7387:7505   */\n      pop\n        /* \"#utility.yul\":7544:7547   */\n      0x80\n        /* \"#utility.yul\":7571:7624   */\n      tag_337\n        /* \"#utility.yul\":7616:7623   */\n      dup11\n        /* \"#utility.yul\":7607:7613   */\n      dup3\n        /* \"#utility.yul\":7596:7605   */\n      dup12\n        /* \"#utility.yul\":7592:7614   */\n      add\n        /* \"#utility.yul\":7571:7624   */\n      tag_204\n      jump\t// in\n    tag_337:\n        /* \"#utility.yul\":7561:7624   */\n      swap4\n      pop\n        /* \"#utility.yul\":7515:7634   */\n      pop\n        /* \"#utility.yul\":7673:7676   */\n      0xa0\n        /* \"#utility.yul\":7700:7753   */\n      tag_338\n        /* \"#utility.yul\":7745:7752   */\n      dup11\n        /* \"#utility.yul\":7736:7742   */\n      dup3\n        /* \"#utility.yul\":7725:7734   */\n      dup12\n        /* \"#utility.yul\":7721:7743   */\n      add\n        /* \"#utility.yul\":7700:7753   */\n      tag_204\n      jump\t// in\n    tag_338:\n        /* \"#utility.yul\":7690:7753   */\n      swap3\n      pop\n        /* \"#utility.yul\":7644:7763   */\n      pop\n        /* \"#utility.yul\":7802:7805   */\n      0xc0\n        /* \"#utility.yul\":7829:7882   */\n      tag_339\n        /* \"#utility.yul\":7874:7881   */\n      dup11\n        /* \"#utility.yul\":7865:7871   */\n      dup3\n        /* \"#utility.yul\":7854:7863   */\n      dup12\n        /* \"#utility.yul\":7850:7872   */\n      add\n        /* \"#utility.yul\":7829:7882   */\n      tag_212\n      jump\t// in\n    tag_339:\n        /* \"#utility.yul\":7819:7882   */\n      swap2\n      pop\n        /* \"#utility.yul\":7773:7892   */\n      pop\n        /* \"#utility.yul\":6696:7899   */\n      swap3\n      swap6\n      swap9\n      swap2\n      swap5\n      swap8\n      pop\n      swap3\n      swap6\n      pop\n      jump\t// out\n        /* \"#utility.yul\":7905:8347   */\n    tag_28:\n        /* \"#utility.yul\":8054:8058   */\n      0x00\n        /* \"#utility.yul\":8092:8094   */\n      0x60\n        /* \"#utility.yul\":8081:8090   */\n      dup3\n        /* \"#utility.yul\":8077:8095   */\n      add\n        /* \"#utility.yul\":8069:8095   */\n      swap1\n      pop\n        /* \"#utility.yul\":8105:8176   */\n      tag_341\n        /* \"#utility.yul\":8173:8174   */\n      0x00\n        /* \"#utility.yul\":8162:8171   */\n      dup4\n        /* \"#utility.yul\":8158:8175   */\n      add\n        /* \"#utility.yul\":8149:8155   */\n      dup7\n        /* \"#utility.yul\":8105:8176   */\n      tag_220\n      jump\t// in\n    tag_341:\n        /* \"#utility.yul\":8186:8258   */\n      tag_342\n        /* \"#utility.yul\":8254:8256   */\n      0x20\n        /* \"#utility.yul\":8243:8252   */\n      dup4\n        /* \"#utility.yul\":8239:8257   */\n      add\n        /* \"#utility.yul\":8230:8236   */\n      dup6\n        /* \"#utility.yul\":8186:8258   */\n      tag_220\n      jump\t// in\n    tag_342:\n        /* \"#utility.yul\":8268:8340   */\n      tag_343\n        /* \"#utility.yul\":8336:8338   */\n      0x40\n        /* \"#utility.yul\":8325:8334   */\n      dup4\n        /* \"#utility.yul\":8321:8339   */\n      add\n        /* \"#utility.yul\":8312:8318   */\n      dup5\n        /* \"#utility.yul\":8268:8340   */\n      tag_220\n      jump\t// in\n    tag_343:\n        /* \"#utility.yul\":7905:8347   */\n      swap5\n      swap4\n      pop\n      pop\n      pop\n      pop\n      jump\t// out\n        /* \"#utility.yul\":8353:8479   */\n    tag_221:\n        /* \"#utility.yul\":8448:8472   */\n      tag_345\n        /* \"#utility.yul\":8466:8471   */\n      dup2\n        /* \"#utility.yul\":8448:8472   */\n      tag_210\n      jump\t// in\n    tag_345:\n        /* \"#utility.yul\":8443:8446   */\n      dup3\n        /* \"#utility.yul\":8436:8473   */\n      mstore\n        /* \"#utility.yul\":8353:8479   */\n      pop\n      pop\n      jump\t// out\n        /* \"#utility.yul\":8485:8611   */\n    tag_222:\n        /* \"#utility.yul\":8580:8604   */\n      tag_347\n        /* \"#utility.yul\":8598:8603   */\n      dup2\n        /* \"#utility.yul\":8580:8604   */\n      tag_202\n      jump\t// in\n    tag_347:\n        /* \"#utility.yul\":8575:8578   */\n      dup3\n        /* \"#utility.yul\":8568:8605   */\n      mstore\n        /* \"#utility.yul\":8485:8611   */\n      pop\n      pop\n      jump\t// out\n        /* \"#utility.yul\":8617:8809   */\n    tag_223:\n        /* \"#utility.yul\":8724:8735   */\n      0x00\n        /* \"#utility.yul\":8758:8764   */\n      dup3\n        /* \"#utility.yul\":8753:8756   */\n      dup3\n        /* \"#utility.yul\":8746:8765   */\n      mstore\n        /* \"#utility.yul\":8798:8802   */\n      0x20\n        /* \"#utility.yul\":8793:8796   */\n      dup3\n        /* \"#utility.yul\":8789:8803   */\n      add\n        /* \"#utility.yul\":8774:8803   */\n      swap1\n      pop\n        /* \"#utility.yul\":8617:8809   */\n      swap3\n      swap2\n      pop\n      pop\n      jump\t// out\n        /* \"#utility.yul\":8815:8917   */\n    tag_224:\n        /* \"#utility.yul\":8884:8888   */\n      0x00\n        /* \"#utility.yul\":8907:8910   */\n      dup2\n        /* \"#utility.yul\":8899:8910   */\n      swap1\n      pop\n        /* \"#utility.yul\":8815:8917   */\n      swap2\n      swap1\n      pop\n      jump\t// out\n        /* \"#utility.yul\":8923:9039   */\n    tag_225:\n        /* \"#utility.yul\":9008:9032   */\n      tag_351\n        /* \"#utility.yul\":9026:9031   */\n      dup2\n        /* \"#utility.yul\":9008:9032   */\n      tag_210\n      jump\t// in\n    tag_351:\n        /* \"#utility.yul\":9003:9006   */\n      dup3\n        /* \"#utility.yul\":8996:9033   */\n      mstore\n        /* \"#utility.yul\":8923:9039   */\n      pop\n      pop\n      jump\t// out\n        /* \"#utility.yul\":9045:9240   */\n    tag_226:\n        /* \"#utility.yul\":9122:9132   */\n      0x00\n        /* \"#utility.yul\":9143:9197   */\n      tag_353\n        /* \"#utility.yul\":9193:9196   */\n      dup4\n        /* \"#utility.yul\":9185:9191   */\n      dup4\n        /* \"#utility.yul\":9143:9197   */\n      tag_225\n      jump\t// in\n    tag_353:\n        /* \"#utility.yul\":9229:9233   */\n      0x20\n        /* \"#utility.yul\":9224:9227   */\n      dup4\n        /* \"#utility.yul\":9220:9234   */\n      add\n        /* \"#utility.yul\":9206:9234   */\n      swap1\n      pop\n        /* \"#utility.yul\":9045:9240   */\n      swap3\n      swap2\n      pop\n      pop\n      jump\t// out\n        /* \"#utility.yul\":9246:9368   */\n    tag_227:\n        /* \"#utility.yul\":9298:9303   */\n      0x00\n        /* \"#utility.yul\":9323:9362   */\n      tag_355\n        /* \"#utility.yul\":9358:9360   */\n      0x20\n        /* \"#utility.yul\":9353:9356   */\n      dup5\n        /* \"#utility.yul\":9349:9361   */\n      add\n        /* \"#utility.yul\":9344:9347   */\n      dup5\n        /* \"#utility.yul\":9323:9362   */\n      tag_212\n      jump\t// in\n    tag_355:\n        /* \"#utility.yul\":9314:9362   */\n      swap1\n      pop\n        /* \"#utility.yul\":9246:9368   */\n      swap3\n      swap2\n      pop\n      pop\n      jump\t// out\n        /* \"#utility.yul\":9374:9489   */\n    tag_228:\n        /* \"#utility.yul\":9446:9450   */\n      0x00\n        /* \"#utility.yul\":9478:9482   */\n      0x20\n        /* \"#utility.yul\":9473:9476   */\n      dup3\n        /* \"#utility.yul\":9469:9483   */\n      add\n        /* \"#utility.yul\":9461:9483   */\n      swap1\n      pop\n        /* \"#utility.yul\":9374:9489   */\n      swap2\n      swap1\n      pop\n      jump\t// out\n        /* \"#utility.yul\":9525:10248   */\n    tag_229:\n        /* \"#utility.yul\":9662:9665   */\n      0x00\n        /* \"#utility.yul\":9685:9779   */\n      tag_358\n        /* \"#utility.yul\":9772:9778   */\n      dup4\n        /* \"#utility.yul\":9767:9770   */\n      dup6\n        /* \"#utility.yul\":9685:9779   */\n      tag_223\n      jump\t// in\n    tag_358:\n        /* \"#utility.yul\":9678:9779   */\n      swap4\n      pop\n        /* \"#utility.yul\":9803:9861   */\n      tag_359\n        /* \"#utility.yul\":9855:9860   */\n      dup3\n        /* \"#utility.yul\":9803:9861   */\n      tag_224\n      jump\t// in\n    tag_359:\n        /* \"#utility.yul\":9884:9891   */\n      dup1\n        /* \"#utility.yul\":9915:9916   */\n      0x00\n        /* \"#utility.yul\":9900:10223   */\n    tag_360:\n        /* \"#utility.yul\":9925:9931   */\n      dup6\n        /* \"#utility.yul\":9922:9923   */\n      dup2\n        /* \"#utility.yul\":9919:9932   */\n      lt\n        /* \"#utility.yul\":9900:10223   */\n      iszero\n      tag_362\n      jumpi\n        /* \"#utility.yul\":9995:10037   */\n      tag_363\n        /* \"#utility.yul\":10030:10036   */\n      dup3\n        /* \"#utility.yul\":10021:10028   */\n      dup5\n        /* \"#utility.yul\":9995:10037   */\n      tag_227\n      jump\t// in\n    tag_363:\n        /* \"#utility.yul\":10057:10128   */\n      tag_364\n        /* \"#utility.yul\":10124:10127   */\n      dup9\n        /* \"#utility.yul\":10109:10122   */\n      dup3\n        /* \"#utility.yul\":10057:10128   */\n      tag_226\n      jump\t// in\n    tag_364:\n        /* \"#utility.yul\":10050:10128   */\n      swap8\n      pop\n        /* \"#utility.yul\":10151:10213   */\n      tag_365\n        /* \"#utility.yul\":10206:10212   */\n      dup4\n        /* \"#utility.yul\":10151:10213   */\n      tag_228\n      jump\t// in\n    tag_365:\n        /* \"#utility.yul\":10141:10213   */\n      swap3\n      pop\n        /* \"#utility.yul\":9960:10223   */\n      pop\n        /* \"#utility.yul\":9947:9948   */\n      0x01\n        /* \"#utility.yul\":9944:9945   */\n      dup2\n        /* \"#utility.yul\":9940:9949   */\n      add\n        /* \"#utility.yul\":9935:9949   */\n      swap1\n      pop\n        /* \"#utility.yul\":9900:10223   */\n      jump(tag_360)\n    tag_362:\n        /* \"#utility.yul\":9904:9918   */\n      pop\n        /* \"#utility.yul\":10239:10242   */\n      dup6\n        /* \"#utility.yul\":10232:10242   */\n      swap3\n      pop\n        /* \"#utility.yul\":9667:10248   */\n      pop\n      pop\n        /* \"#utility.yul\":9525:10248   */\n      swap4\n      swap3\n      pop\n      pop\n      pop\n      jump\t// out\n        /* \"#utility.yul\":10254:10899   */\n    tag_31:\n        /* \"#utility.yul\":10471:10475   */\n      0x00\n        /* \"#utility.yul\":10509:10511   */\n      0x60\n        /* \"#utility.yul\":10498:10507   */\n      dup3\n        /* \"#utility.yul\":10494:10512   */\n      add\n        /* \"#utility.yul\":10486:10512   */\n      swap1\n      pop\n        /* \"#utility.yul\":10522:10601   */\n      tag_367\n        /* \"#utility.yul\":10598:10599   */\n      0x00\n        /* \"#utility.yul\":10587:10596   */\n      dup4\n        /* \"#utility.yul\":10583:10600   */\n      add\n        /* \"#utility.yul\":10574:10580   */\n      dup8\n        /* \"#utility.yul\":10522:10601   */\n      tag_221\n      jump\t// in\n    tag_367:\n        /* \"#utility.yul\":10611:10691   */\n      tag_368\n        /* \"#utility.yul\":10687:10689   */\n      0x20\n        /* \"#utility.yul\":10676:10685   */\n      dup4\n        /* \"#utility.yul\":10672:10690   */\n      add\n        /* \"#utility.yul\":10663:10669   */\n      dup7\n        /* \"#utility.yul\":10611:10691   */\n      tag_222\n      jump\t// in\n    tag_368:\n        /* \"#utility.yul\":10738:10747   */\n      dup2\n        /* \"#utility.yul\":10732:10736   */\n      dup2\n        /* \"#utility.yul\":10728:10748   */\n      sub\n        /* \"#utility.yul\":10723:10725   */\n      0x40\n        /* \"#utility.yul\":10712:10721   */\n      dup4\n        /* \"#utility.yul\":10708:10726   */\n      add\n        /* \"#utility.yul\":10701:10749   */\n      mstore\n        /* \"#utility.yul\":10766:10892   */\n      tag_369\n        /* \"#utility.yul\":10887:10891   */\n      dup2\n        /* \"#utility.yul\":10878:10884   */\n      dup5\n        /* \"#utility.yul\":10870:10876   */\n      dup7\n        /* \"#utility.yul\":10766:10892   */\n      tag_229\n      jump\t// in\n    tag_369:\n        /* \"#utility.yul\":10758:10892   */\n      swap1\n      pop\n        /* \"#utility.yul\":10254:10899   */\n      swap6\n      swap5\n      pop\n      pop\n      pop\n      pop\n      pop\n      jump\t// out\n        /* \"#utility.yul\":10905:11007   */\n    tag_230:\n        /* \"#utility.yul\":10946:10952   */\n      0x00\n        /* \"#utility.yul\":10997:10999   */\n      0x1f\n        /* \"#utility.yul\":10993:11000   */\n      not\n        /* \"#utility.yul\":10988:10990   */\n      0x1f\n        /* \"#utility.yul\":10981:10986   */\n      dup4\n        /* \"#utility.yul\":10977:10991   */\n      add\n        /* \"#utility.yul\":10973:11001   */\n      and\n        /* \"#utility.yul\":10963:11001   */\n      swap1\n      pop\n        /* \"#utility.yul\":10905:11007   */\n      swap2\n      swap1\n      pop\n      jump\t// out\n        /* \"#utility.yul\":11013:11193   */\n    tag_231:\n        /* \"#utility.yul\":11061:11138   */\n      0x4e487b7100000000000000000000000000000000000000000000000000000000\n        /* \"#utility.yul\":11058:11059   */\n      0x00\n        /* \"#utility.yul\":11051:11139   */\n      mstore\n        /* \"#utility.yul\":11158:11162   */\n      0x41\n        /* \"#utility.yul\":11155:11156   */\n      0x04\n        /* \"#utility.yul\":11148:11163   */\n      mstore\n        /* \"#utility.yul\":11182:11186   */\n      0x24\n        /* \"#utility.yul\":11179:11180   */\n      0x00\n        /* \"#utility.yul\":11172:11187   */\n      revert\n        /* \"#utility.yul\":11199:11480   */\n    tag_232:\n        /* \"#utility.yul\":11282:11309   */\n      tag_373\n        /* \"#utility.yul\":11304:11308   */\n      dup3\n        /* \"#utility.yul\":11282:11309   */\n      tag_230\n      jump\t// in\n    tag_373:\n        /* \"#utility.yul\":11274:11280   */\n      dup2\n        /* \"#utility.yul\":11270:11310   */\n      add\n        /* \"#utility.yul\":11412:11418   */\n      dup2\n        /* \"#utility.yul\":11400:11410   */\n      dup2\n        /* \"#utility.yul\":11397:11419   */\n      lt\n        /* \"#utility.yul\":11376:11394   */\n      0xffffffffffffffff\n        /* \"#utility.yul\":11364:11374   */\n      dup3\n        /* \"#utility.yul\":11361:11395   */\n      gt\n        /* \"#utility.yul\":11358:11420   */\n      or\n        /* \"#utility.yul\":11355:11443   */\n      iszero\n      tag_374\n      jumpi\n        /* \"#utility.yul\":11423:11441   */\n      tag_375\n      tag_231\n      jump\t// in\n    tag_375:\n        /* \"#utility.yul\":11355:11443   */\n    tag_374:\n        /* \"#utility.yul\":11463:11473   */\n      dup1\n        /* \"#utility.yul\":11459:11461   */\n      0x40\n        /* \"#utility.yul\":11452:11474   */\n      mstore\n        /* \"#utility.yul\":11242:11480   */\n      pop\n        /* \"#utility.yul\":11199:11480   */\n      pop\n      pop\n      jump\t// out\n        /* \"#utility.yul\":11486:11615   */\n    tag_233:\n        /* \"#utility.yul\":11520:11526   */\n      0x00\n        /* \"#utility.yul\":11547:11567   */\n      tag_377\n      tag_199\n      jump\t// in\n    tag_377:\n        /* \"#utility.yul\":11537:11567   */\n      swap1\n      pop\n        /* \"#utility.yul\":11576:11609   */\n      tag_378\n        /* \"#utility.yul\":11604:11608   */\n      dup3\n        /* \"#utility.yul\":11596:11602   */\n      dup3\n        /* \"#utility.yul\":11576:11609   */\n      tag_232\n      jump\t// in\n    tag_378:\n        /* \"#utility.yul\":11486:11615   */\n      swap2\n      swap1\n      pop\n      jump\t// out\n        /* \"#utility.yul\":11621:11932   */\n    tag_234:\n        /* \"#utility.yul\":11698:11702   */\n      0x00\n        /* \"#utility.yul\":11788:11806   */\n      0xffffffffffffffff\n        /* \"#utility.yul\":11780:11786   */\n      dup3\n        /* \"#utility.yul\":11777:11807   */\n      gt\n        /* \"#utility.yul\":11774:11830   */\n      iszero\n      tag_380\n      jumpi\n        /* \"#utility.yul\":11810:11828   */\n      tag_381\n      tag_231\n      jump\t// in\n    tag_381:\n        /* \"#utility.yul\":11774:11830   */\n    tag_380:\n        /* \"#utility.yul\":11860:11864   */\n      0x20\n        /* \"#utility.yul\":11852:11858   */\n      dup3\n        /* \"#utility.yul\":11848:11865   */\n      mul\n        /* \"#utility.yul\":11840:11865   */\n      swap1\n      pop\n        /* \"#utility.yul\":11920:11924   */\n      0x20\n        /* \"#utility.yul\":11914:11918   */\n      dup2\n        /* \"#utility.yul\":11910:11925   */\n      add\n        /* \"#utility.yul\":11902:11925   */\n      swap1\n      pop\n        /* \"#utility.yul\":11621:11932   */\n      swap2\n      swap1\n      pop\n      jump\t// out\n        /* \"#utility.yul\":11938:12081   */\n    tag_235:\n        /* \"#utility.yul\":11995:12000   */\n      0x00\n        /* \"#utility.yul\":12026:12032   */\n      dup2\n        /* \"#utility.yul\":12020:12033   */\n      mload\n        /* \"#utility.yul\":12011:12033   */\n      swap1\n      pop\n        /* \"#utility.yul\":12042:12075   */\n      tag_383\n        /* \"#utility.yul\":12069:12074   */\n      dup2\n        /* \"#utility.yul\":12042:12075   */\n      tag_203\n      jump\t// in\n    tag_383:\n        /* \"#utility.yul\":11938:12081   */\n      swap3\n      swap2\n      pop\n      pop\n      jump\t// out\n        /* \"#utility.yul\":12104:12836   */\n    tag_236:\n        /* \"#utility.yul\":12211:12216   */\n      0x00\n        /* \"#utility.yul\":12236:12317   */\n      tag_385\n        /* \"#utility.yul\":12252:12316   */\n      tag_386\n        /* \"#utility.yul\":12309:12315   */\n      dup5\n        /* \"#utility.yul\":12252:12316   */\n      tag_234\n      jump\t// in\n    tag_386:\n        /* \"#utility.yul\":12236:12317   */\n      tag_233\n      jump\t// in\n    tag_385:\n        /* \"#utility.yul\":12227:12317   */\n      swap1\n      pop\n        /* \"#utility.yul\":12337:12342   */\n      dup1\n        /* \"#utility.yul\":12366:12372   */\n      dup4\n        /* \"#utility.yul\":12359:12364   */\n      dup3\n        /* \"#utility.yul\":12352:12373   */\n      mstore\n        /* \"#utility.yul\":12400:12404   */\n      0x20\n        /* \"#utility.yul\":12393:12398   */\n      dup3\n        /* \"#utility.yul\":12389:12405   */\n      add\n        /* \"#utility.yul\":12382:12405   */\n      swap1\n      pop\n        /* \"#utility.yul\":12453:12457   */\n      0x20\n        /* \"#utility.yul\":12445:12451   */\n      dup5\n        /* \"#utility.yul\":12441:12458   */\n      mul\n        /* \"#utility.yul\":12433:12439   */\n      dup4\n        /* \"#utility.yul\":12429:12459   */\n      add\n        /* \"#utility.yul\":12482:12485   */\n      dup6\n        /* \"#utility.yul\":12474:12480   */\n      dup2\n        /* \"#utility.yul\":12471:12486   */\n      gt\n        /* \"#utility.yul\":12468:12590   */\n      iszero\n      tag_387\n      jumpi\n        /* \"#utility.yul\":12501:12580   */\n      tag_388\n      tag_207\n      jump\t// in\n    tag_388:\n        /* \"#utility.yul\":12468:12590   */\n    tag_387:\n        /* \"#utility.yul\":12616:12622   */\n      dup4\n        /* \"#utility.yul\":12599:12830   */\n    tag_389:\n        /* \"#utility.yul\":12633:12639   */\n      dup2\n        /* \"#utility.yul\":12628:12631   */\n      dup2\n        /* \"#utility.yul\":12625:12640   */\n      lt\n        /* \"#utility.yul\":12599:12830   */\n      iszero\n      tag_391\n      jumpi\n        /* \"#utility.yul\":12708:12711   */\n      dup1\n        /* \"#utility.yul\":12737:12785   */\n      tag_392\n        /* \"#utility.yul\":12781:12784   */\n      dup9\n        /* \"#utility.yul\":12769:12779   */\n      dup3\n        /* \"#utility.yul\":12737:12785   */\n      tag_235\n      jump\t// in\n    tag_392:\n        /* \"#utility.yul\":12732:12735   */\n      dup5\n        /* \"#utility.yul\":12725:12786   */\n      mstore\n        /* \"#utility.yul\":12815:12819   */\n      0x20\n        /* \"#utility.yul\":12810:12813   */\n      dup5\n        /* \"#utility.yul\":12806:12820   */\n      add\n        /* \"#utility.yul\":12799:12820   */\n      swap4\n      pop\n        /* \"#utility.yul\":12675:12830   */\n      pop\n        /* \"#utility.yul\":12659:12663   */\n      0x20\n        /* \"#utility.yul\":12654:12657   */\n      dup2\n        /* \"#utility.yul\":12650:12664   */\n      add\n        /* \"#utility.yul\":12643:12664   */\n      swap1\n      pop\n        /* \"#utility.yul\":12599:12830   */\n      jump(tag_389)\n    tag_391:\n        /* \"#utility.yul\":12603:12624   */\n      pop\n        /* \"#utility.yul\":12217:12836   */\n      pop\n      pop\n        /* \"#utility.yul\":12104:12836   */\n      swap4\n      swap3\n      pop\n      pop\n      pop\n      jump\t// out\n        /* \"#utility.yul\":12859:13244   */\n    tag_237:\n        /* \"#utility.yul\":12941:12946   */\n      0x00\n        /* \"#utility.yul\":12990:12993   */\n      dup3\n        /* \"#utility.yul\":12983:12987   */\n      0x1f\n        /* \"#utility.yul\":12975:12981   */\n      dup4\n        /* \"#utility.yul\":12971:12988   */\n      add\n        /* \"#utility.yul\":12967:12994   */\n      slt\n        /* \"#utility.yul\":12957:13079   */\n      tag_394\n      jumpi\n        /* \"#utility.yul\":12998:13077   */\n      tag_395\n      tag_205\n      jump\t// in\n    tag_395:\n        /* \"#utility.yul\":12957:13079   */\n    tag_394:\n        /* \"#utility.yul\":13108:13114   */\n      dup2\n        /* \"#utility.yul\":13102:13115   */\n      mload\n        /* \"#utility.yul\":13133:13238   */\n      tag_396\n        /* \"#utility.yul\":13234:13237   */\n      dup5\n        /* \"#utility.yul\":13226:13232   */\n      dup3\n        /* \"#utility.yul\":13219:13223   */\n      0x20\n        /* \"#utility.yul\":13211:13217   */\n      dup7\n        /* \"#utility.yul\":13207:13224   */\n      add\n        /* \"#utility.yul\":13133:13238   */\n      tag_236\n      jump\t// in\n    tag_396:\n        /* \"#utility.yul\":13124:13238   */\n      swap2\n      pop\n        /* \"#utility.yul\":12947:13244   */\n      pop\n        /* \"#utility.yul\":12859:13244   */\n      swap3\n      swap2\n      pop\n      pop\n      jump\t// out\n        /* \"#utility.yul\":13250:13804   */\n    tag_35:\n        /* \"#utility.yul\":13345:13351   */\n      0x00\n        /* \"#utility.yul\":13394:13396   */\n      0x20\n        /* \"#utility.yul\":13382:13391   */\n      dup3\n        /* \"#utility.yul\":13373:13380   */\n      dup5\n        /* \"#utility.yul\":13369:13392   */\n      sub\n        /* \"#utility.yul\":13365:13397   */\n      slt\n        /* \"#utility.yul\":13362:13481   */\n      iszero\n      tag_398\n      jumpi\n        /* \"#utility.yul\":13400:13479   */\n      tag_399\n      tag_200\n      jump\t// in\n    tag_399:\n        /* \"#utility.yul\":13362:13481   */\n    tag_398:\n        /* \"#utility.yul\":13541:13542   */\n      0x00\n        /* \"#utility.yul\":13530:13539   */\n      dup3\n        /* \"#utility.yul\":13526:13543   */\n      add\n        /* \"#utility.yul\":13520:13544   */\n      mload\n        /* \"#utility.yul\":13571:13589   */\n      0xffffffffffffffff\n        /* \"#utility.yul\":13563:13569   */\n      dup2\n        /* \"#utility.yul\":13560:13590   */\n      gt\n        /* \"#utility.yul\":13557:13674   */\n      iszero\n      tag_400\n      jumpi\n        /* \"#utility.yul\":13593:13672   */\n      tag_401\n      tag_201\n      jump\t// in\n    tag_401:\n        /* \"#utility.yul\":13557:13674   */\n    tag_400:\n        /* \"#utility.yul\":13698:13787   */\n      tag_402\n        /* \"#utility.yul\":13779:13786   */\n      dup5\n        /* \"#utility.yul\":13770:13776   */\n      dup3\n        /* \"#utility.yul\":13759:13768   */\n      dup6\n        /* \"#utility.yul\":13755:13777   */\n      add\n        /* \"#utility.yul\":13698:13787   */\n      tag_237\n      jump\t// in\n    tag_402:\n        /* \"#utility.yul\":13688:13787   */\n      swap2\n      pop\n        /* \"#utility.yul\":13491:13797   */\n      pop\n        /* \"#utility.yul\":13250:13804   */\n      swap3\n      swap2\n      pop\n      pop\n      jump\t// out\n        /* \"#utility.yul\":13810:13990   */\n    tag_238:\n        /* \"#utility.yul\":13858:13935   */\n      0x4e487b7100000000000000000000000000000000000000000000000000000000\n        /* \"#utility.yul\":13855:13856   */\n      0x00\n        /* \"#utility.yul\":13848:13936   */\n      mstore\n        /* \"#utility.yul\":13955:13959   */\n      0x11\n        /* \"#utility.yul\":13952:13953   */\n      0x04\n        /* \"#utility.yul\":13945:13960   */\n      mstore\n        /* \"#utility.yul\":13979:13983   */\n      0x24\n        /* \"#utility.yul\":13976:13977   */\n      0x00\n        /* \"#utility.yul\":13969:13984   */\n      revert\n        /* \"#utility.yul\":13996:14187   */\n    tag_37:\n        /* \"#utility.yul\":14036:14040   */\n      0x00\n        /* \"#utility.yul\":14056:14076   */\n      tag_405\n        /* \"#utility.yul\":14074:14075   */\n      dup3\n        /* \"#utility.yul\":14056:14076   */\n      tag_202\n      jump\t// in\n    tag_405:\n        /* \"#utility.yul\":14051:14076   */\n      swap2\n      pop\n        /* \"#utility.yul\":14090:14110   */\n      tag_406\n        /* \"#utility.yul\":14108:14109   */\n      dup4\n        /* \"#utility.yul\":14090:14110   */\n      tag_202\n      jump\t// in\n    tag_406:\n        /* \"#utility.yul\":14085:14110   */\n      swap3\n      pop\n        /* \"#utility.yul\":14129:14130   */\n      dup3\n        /* \"#utility.yul\":14126:14127   */\n      dup3\n        /* \"#utility.yul\":14123:14131   */\n      lt\n        /* \"#utility.yul\":14120:14154   */\n      iszero\n      tag_407\n      jumpi\n        /* \"#utility.yul\":14134:14152   */\n      tag_408\n      tag_238\n      jump\t// in\n    tag_408:\n        /* \"#utility.yul\":14120:14154   */\n    tag_407:\n        /* \"#utility.yul\":14179:14180   */\n      dup3\n        /* \"#utility.yul\":14176:14177   */\n      dup3\n        /* \"#utility.yul\":14172:14181   */\n      sub\n        /* \"#utility.yul\":14164:14181   */\n      swap1\n      pop\n        /* \"#utility.yul\":13996:14187   */\n      swap3\n      swap2\n      pop\n      pop\n      jump\t// out\n        /* \"#utility.yul\":14193:14373   */\n    tag_40:\n        /* \"#utility.yul\":14241:14318   */\n      0x4e487b7100000000000000000000000000000000000000000000000000000000\n        /* \"#utility.yul\":14238:14239   */\n      0x00\n        /* \"#utility.yul\":14231:14319   */\n      mstore\n        /* \"#utility.yul\":14338:14342   */\n      0x32\n        /* \"#utility.yul\":14335:14336   */\n      0x04\n        /* \"#utility.yul\":14328:14343   */\n      mstore\n        /* \"#utility.yul\":14362:14366   */\n      0x24\n        /* \"#utility.yul\":14359:14360   */\n      0x00\n        /* \"#utility.yul\":14352:14367   */\n      revert\n        /* \"#utility.yul\":14379:14708   */\n    tag_46:\n        /* \"#utility.yul\":14438:14444   */\n      0x00\n        /* \"#utility.yul\":14487:14489   */\n      0x20\n        /* \"#utility.yul\":14475:14484   */\n      dup3\n        /* \"#utility.yul\":14466:14473   */\n      dup5\n        /* \"#utility.yul\":14462:14485   */\n      sub\n        /* \"#utility.yul\":14458:14490   */\n      slt\n        /* \"#utility.yul\":14455:14574   */\n      iszero\n      tag_411\n      jumpi\n        /* \"#utility.yul\":14493:14572   */\n      tag_412\n      tag_200\n      jump\t// in\n    tag_412:\n        /* \"#utility.yul\":14455:14574   */\n    tag_411:\n        /* \"#utility.yul\":14613:14614   */\n      0x00\n        /* \"#utility.yul\":14638:14691   */\n      tag_413\n        /* \"#utility.yul\":14683:14690   */\n      dup5\n        /* \"#utility.yul\":14674:14680   */\n      dup3\n        /* \"#utility.yul\":14663:14672   */\n      dup6\n        /* \"#utility.yul\":14659:14681   */\n      add\n        /* \"#utility.yul\":14638:14691   */\n      tag_212\n      jump\t// in\n    tag_413:\n        /* \"#utility.yul\":14628:14691   */\n      swap2\n      pop\n        /* \"#utility.yul\":14584:14701   */\n      pop\n        /* \"#utility.yul\":14379:14708   */\n      swap3\n      swap2\n      pop\n      pop\n      jump\t// out\n        /* \"#utility.yul\":14714:14832   */\n    tag_239:\n        /* \"#utility.yul\":14801:14825   */\n      tag_415\n        /* \"#utility.yul\":14819:14824   */\n      dup2\n        /* \"#utility.yul\":14801:14825   */\n      tag_210\n      jump\t// in\n    tag_415:\n        /* \"#utility.yul\":14796:14799   */\n      dup3\n        /* \"#utility.yul\":14789:14826   */\n      mstore\n        /* \"#utility.yul\":14714:14832   */\n      pop\n      pop\n      jump\t// out\n        /* \"#utility.yul\":14838:15280   */\n    tag_86:\n        /* \"#utility.yul\":14987:14991   */\n      0x00\n        /* \"#utility.yul\":15025:15027   */\n      0x60\n        /* \"#utility.yul\":15014:15023   */\n      dup3\n        /* \"#utility.yul\":15010:15028   */\n      add\n        /* \"#utility.yul\":15002:15028   */\n      swap1\n      pop\n        /* \"#utility.yul\":15038:15109   */\n      tag_417\n        /* \"#utility.yul\":15106:15107   */\n      0x00\n        /* \"#utility.yul\":15095:15104   */\n      dup4\n        /* \"#utility.yul\":15091:15108   */\n      add\n        /* \"#utility.yul\":15082:15088   */\n      dup7\n        /* \"#utility.yul\":15038:15109   */\n      tag_239\n      jump\t// in\n    tag_417:\n        /* \"#utility.yul\":15119:15191   */\n      tag_418\n        /* \"#utility.yul\":15187:15189   */\n      0x20\n        /* \"#utility.yul\":15176:15185   */\n      dup4\n        /* \"#utility.yul\":15172:15190   */\n      add\n        /* \"#utility.yul\":15163:15169   */\n      dup6\n        /* \"#utility.yul\":15119:15191   */\n      tag_239\n      jump\t// in\n    tag_418:\n        /* \"#utility.yul\":15201:15273   */\n      tag_419\n        /* \"#utility.yul\":15269:15271   */\n      0x40\n        /* \"#utility.yul\":15258:15267   */\n      dup4\n        /* \"#utility.yul\":15254:15272   */\n      add\n        /* \"#utility.yul\":15245:15251   */\n      dup5\n        /* \"#utility.yul\":15201:15273   */\n      tag_220\n      jump\t// in\n    tag_419:\n        /* \"#utility.yul\":14838:15280   */\n      swap5\n      swap4\n      pop\n      pop\n      pop\n      pop\n      jump\t// out\n        /* \"#utility.yul\":15286:15376   */\n    tag_240:\n        /* \"#utility.yul\":15320:15327   */\n      0x00\n        /* \"#utility.yul\":15363:15368   */\n      dup2\n        /* \"#utility.yul\":15356:15369   */\n      iszero\n        /* \"#utility.yul\":15349:15370   */\n      iszero\n        /* \"#utility.yul\":15338:15370   */\n      swap1\n      pop\n        /* \"#utility.yul\":15286:15376   */\n      swap2\n      swap1\n      pop\n      jump\t// out\n        /* \"#utility.yul\":15382:15498   */\n    tag_241:\n        /* \"#utility.yul\":15452:15473   */\n      tag_422\n        /* \"#utility.yul\":15467:15472   */\n      dup2\n        /* \"#utility.yul\":15452:15473   */\n      tag_240\n      jump\t// in\n    tag_422:\n        /* \"#utility.yul\":15445:15450   */\n      dup2\n        /* \"#utility.yul\":15442:15474   */\n      eq\n        /* \"#utility.yul\":15432:15492   */\n      tag_423\n      jumpi\n        /* \"#utility.yul\":15488:15489   */\n      0x00\n        /* \"#utility.yul\":15485:15486   */\n      dup1\n        /* \"#utility.yul\":15478:15490   */\n      revert\n        /* \"#utility.yul\":15432:15492   */\n    tag_423:\n        /* \"#utility.yul\":15382:15498   */\n      pop\n      jump\t// out\n        /* \"#utility.yul\":15504:15641   */\n    tag_242:\n        /* \"#utility.yul\":15558:15563   */\n      0x00\n        /* \"#utility.yul\":15589:15595   */\n      dup2\n        /* \"#utility.yul\":15583:15596   */\n      mload\n        /* \"#utility.yul\":15574:15596   */\n      swap1\n      pop\n        /* \"#utility.yul\":15605:15635   */\n      tag_425\n        /* \"#utility.yul\":15629:15634   */\n      dup2\n        /* \"#utility.yul\":15605:15635   */\n      tag_241\n      jump\t// in\n    tag_425:\n        /* \"#utility.yul\":15504:15641   */\n      swap3\n      swap2\n      pop\n      pop\n      jump\t// out\n        /* \"#utility.yul\":15647:15992   */\n    tag_90:\n        /* \"#utility.yul\":15714:15720   */\n      0x00\n        /* \"#utility.yul\":15763:15765   */\n      0x20\n        /* \"#utility.yul\":15751:15760   */\n      dup3\n        /* \"#utility.yul\":15742:15749   */\n      dup5\n        /* \"#utility.yul\":15738:15761   */\n      sub\n        /* \"#utility.yul\":15734:15766   */\n      slt\n        /* \"#utility.yul\":15731:15850   */\n      iszero\n      tag_427\n      jumpi\n        /* \"#utility.yul\":15769:15848   */\n      tag_428\n      tag_200\n      jump\t// in\n    tag_428:\n        /* \"#utility.yul\":15731:15850   */\n    tag_427:\n        /* \"#utility.yul\":15889:15890   */\n      0x00\n        /* \"#utility.yul\":15914:15975   */\n      tag_429\n        /* \"#utility.yul\":15967:15974   */\n      dup5\n        /* \"#utility.yul\":15958:15964   */\n      dup3\n        /* \"#utility.yul\":15947:15956   */\n      dup6\n        /* \"#utility.yul\":15943:15965   */\n      add\n        /* \"#utility.yul\":15914:15975   */\n      tag_242\n      jump\t// in\n    tag_429:\n        /* \"#utility.yul\":15904:15975   */\n      swap2\n      pop\n        /* \"#utility.yul\":15860:15985   */\n      pop\n        /* \"#utility.yul\":15647:15992   */\n      swap3\n      swap2\n      pop\n      pop\n      jump\t// out\n        /* \"#utility.yul\":15998:16220   */\n    tag_92:\n        /* \"#utility.yul\":16091:16095   */\n      0x00\n        /* \"#utility.yul\":16129:16131   */\n      0x20\n        /* \"#utility.yul\":16118:16127   */\n      dup3\n        /* \"#utility.yul\":16114:16132   */\n      add\n        /* \"#utility.yul\":16106:16132   */\n      swap1\n      pop\n        /* \"#utility.yul\":16142:16213   */\n      tag_431\n        /* \"#utility.yul\":16210:16211   */\n      0x00\n        /* \"#utility.yul\":16199:16208   */\n      dup4\n        /* \"#utility.yul\":16195:16212   */\n      add\n        /* \"#utility.yul\":16186:16192   */\n      dup5\n        /* \"#utility.yul\":16142:16213   */\n      tag_239\n      jump\t// in\n    tag_431:\n        /* \"#utility.yul\":15998:16220   */\n      swap3\n      swap2\n      pop\n      pop\n      jump\t// out\n        /* \"#utility.yul\":16226:16733   */\n    tag_96:\n        /* \"#utility.yul\":16305:16311   */\n      0x00\n        /* \"#utility.yul\":16313:16319   */\n      dup1\n        /* \"#utility.yul\":16362:16364   */\n      0x40\n        /* \"#utility.yul\":16350:16359   */\n      dup4\n        /* \"#utility.yul\":16341:16348   */\n      dup6\n        /* \"#utility.yul\":16337:16360   */\n      sub\n        /* \"#utility.yul\":16333:16365   */\n      slt\n        /* \"#utility.yul\":16330:16449   */\n      iszero\n      tag_433\n      jumpi\n        /* \"#utility.yul\":16368:16447   */\n      tag_434\n      tag_200\n      jump\t// in\n    tag_434:\n        /* \"#utility.yul\":16330:16449   */\n    tag_433:\n        /* \"#utility.yul\":16488:16489   */\n      0x00\n        /* \"#utility.yul\":16513:16577   */\n      tag_435\n        /* \"#utility.yul\":16569:16576   */\n      dup6\n        /* \"#utility.yul\":16560:16566   */\n      dup3\n        /* \"#utility.yul\":16549:16558   */\n      dup7\n        /* \"#utility.yul\":16545:16567   */\n      add\n        /* \"#utility.yul\":16513:16577   */\n      tag_235\n      jump\t// in\n    tag_435:\n        /* \"#utility.yul\":16503:16577   */\n      swap3\n      pop\n        /* \"#utility.yul\":16459:16587   */\n      pop\n        /* \"#utility.yul\":16626:16628   */\n      0x20\n        /* \"#utility.yul\":16652:16716   */\n      tag_436\n        /* \"#utility.yul\":16708:16715   */\n      dup6\n        /* \"#utility.yul\":16699:16705   */\n      dup3\n        /* \"#utility.yul\":16688:16697   */\n      dup7\n        /* \"#utility.yul\":16684:16706   */\n      add\n        /* \"#utility.yul\":16652:16716   */\n      tag_235\n      jump\t// in\n    tag_436:\n        /* \"#utility.yul\":16642:16716   */\n      swap2\n      pop\n        /* \"#utility.yul\":16597:16726   */\n      pop\n        /* \"#utility.yul\":16226:16733   */\n      swap3\n      pop\n      swap3\n      swap1\n      pop\n      jump\t// out\n        /* \"#utility.yul\":16739:17071   */\n    tag_101:\n        /* \"#utility.yul\":16860:16864   */\n      0x00\n        /* \"#utility.yul\":16898:16900   */\n      0x40\n        /* \"#utility.yul\":16887:16896   */\n      dup3\n        /* \"#utility.yul\":16883:16901   */\n      add\n        /* \"#utility.yul\":16875:16901   */\n      swap1\n      pop\n        /* \"#utility.yul\":16911:16982   */\n      tag_438\n        /* \"#utility.yul\":16979:16980   */\n      0x00\n        /* \"#utility.yul\":16968:16977   */\n      dup4\n        /* \"#utility.yul\":16964:16981   */\n      add\n        /* \"#utility.yul\":16955:16961   */\n      dup6\n        /* \"#utility.yul\":16911:16982   */\n      tag_239\n      jump\t// in\n    tag_438:\n        /* \"#utility.yul\":16992:17064   */\n      tag_439\n        /* \"#utility.yul\":17060:17062   */\n      0x20\n        /* \"#utility.yul\":17049:17058   */\n      dup4\n        /* \"#utility.yul\":17045:17063   */\n      add\n        /* \"#utility.yul\":17036:17042   */\n      dup5\n        /* \"#utility.yul\":16992:17064   */\n      tag_239\n      jump\t// in\n    tag_439:\n        /* \"#utility.yul\":16739:17071   */\n      swap4\n      swap3\n      pop\n      pop\n      pop\n      jump\t// out\n        /* \"#utility.yul\":17077:17220   */\n    tag_243:\n        /* \"#utility.yul\":17134:17139   */\n      0x00\n        /* \"#utility.yul\":17165:17171   */\n      dup2\n        /* \"#utility.yul\":17159:17172   */\n      mload\n        /* \"#utility.yul\":17150:17172   */\n      swap1\n      pop\n        /* \"#utility.yul\":17181:17214   */\n      tag_441\n        /* \"#utility.yul\":17208:17213   */\n      dup2\n        /* \"#utility.yul\":17181:17214   */\n      tag_211\n      jump\t// in\n    tag_441:\n        /* \"#utility.yul\":17077:17220   */\n      swap3\n      swap2\n      pop\n      pop\n      jump\t// out\n        /* \"#utility.yul\":17226:17577   */\n    tag_105:\n        /* \"#utility.yul\":17296:17302   */\n      0x00\n        /* \"#utility.yul\":17345:17347   */\n      0x20\n        /* \"#utility.yul\":17333:17342   */\n      dup3\n        /* \"#utility.yul\":17324:17331   */\n      dup5\n        /* \"#utility.yul\":17320:17343   */\n      sub\n        /* \"#utility.yul\":17316:17348   */\n      slt\n        /* \"#utility.yul\":17313:17432   */\n      iszero\n      tag_443\n      jumpi\n        /* \"#utility.yul\":17351:17430   */\n      tag_444\n      tag_200\n      jump\t// in\n    tag_444:\n        /* \"#utility.yul\":17313:17432   */\n    tag_443:\n        /* \"#utility.yul\":17471:17472   */\n      0x00\n        /* \"#utility.yul\":17496:17560   */\n      tag_445\n        /* \"#utility.yul\":17552:17559   */\n      dup5\n        /* \"#utility.yul\":17543:17549   */\n      dup3\n        /* \"#utility.yul\":17532:17541   */\n      dup6\n        /* \"#utility.yul\":17528:17550   */\n      add\n        /* \"#utility.yul\":17496:17560   */\n      tag_243\n      jump\t// in\n    tag_445:\n        /* \"#utility.yul\":17486:17560   */\n      swap2\n      pop\n        /* \"#utility.yul\":17442:17570   */\n      pop\n        /* \"#utility.yul\":17226:17577   */\n      swap3\n      swap2\n      pop\n      pop\n      jump\t// out\n        /* \"#utility.yul\":17583:17934   */\n    tag_120:\n        /* \"#utility.yul\":17653:17659   */\n      0x00\n        /* \"#utility.yul\":17702:17704   */\n      0x20\n        /* \"#utility.yul\":17690:17699   */\n      dup3\n        /* \"#utility.yul\":17681:17688   */\n      dup5\n        /* \"#utility.yul\":17677:17700   */\n      sub\n        /* \"#utility.yul\":17673:17705   */\n      slt\n        /* \"#utility.yul\":17670:17789   */\n      iszero\n      tag_447\n      jumpi\n        /* \"#utility.yul\":17708:17787   */\n      tag_448\n      tag_200\n      jump\t// in\n    tag_448:\n        /* \"#utility.yul\":17670:17789   */\n    tag_447:\n        /* \"#utility.yul\":17828:17829   */\n      0x00\n        /* \"#utility.yul\":17853:17917   */\n      tag_449\n        /* \"#utility.yul\":17909:17916   */\n      dup5\n        /* \"#utility.yul\":17900:17906   */\n      dup3\n        /* \"#utility.yul\":17889:17898   */\n      dup6\n        /* \"#utility.yul\":17885:17907   */\n      add\n        /* \"#utility.yul\":17853:17917   */\n      tag_235\n      jump\t// in\n    tag_449:\n        /* \"#utility.yul\":17843:17917   */\n      swap2\n      pop\n        /* \"#utility.yul\":17799:17927   */\n      pop\n        /* \"#utility.yul\":17583:17934   */\n      swap3\n      swap2\n      pop\n      pop\n      jump\t// out\n        /* \"#utility.yul\":17940:18034   */\n    tag_244:\n        /* \"#utility.yul\":17973:17981   */\n      0x00\n        /* \"#utility.yul\":18021:18026   */\n      dup2\n        /* \"#utility.yul\":18017:18019   */\n      0x60\n        /* \"#utility.yul\":18013:18027   */\n      shl\n        /* \"#utility.yul\":17992:18027   */\n      swap1\n      pop\n        /* \"#utility.yul\":17940:18034   */\n      swap2\n      swap1\n      pop\n      jump\t// out\n        /* \"#utility.yul\":18040:18134   */\n    tag_245:\n        /* \"#utility.yul\":18079:18086   */\n      0x00\n        /* \"#utility.yul\":18108:18128   */\n      tag_452\n        /* \"#utility.yul\":18122:18127   */\n      dup3\n        /* \"#utility.yul\":18108:18128   */\n      tag_244\n      jump\t// in\n    tag_452:\n        /* \"#utility.yul\":18097:18128   */\n      swap1\n      pop\n        /* \"#utility.yul\":18040:18134   */\n      swap2\n      swap1\n      pop\n      jump\t// out\n        /* \"#utility.yul\":18140:18240   */\n    tag_246:\n        /* \"#utility.yul\":18179:18186   */\n      0x00\n        /* \"#utility.yul\":18208:18234   */\n      tag_454\n        /* \"#utility.yul\":18228:18233   */\n      dup3\n        /* \"#utility.yul\":18208:18234   */\n      tag_245\n      jump\t// in\n    tag_454:\n        /* \"#utility.yul\":18197:18234   */\n      swap1\n      pop\n        /* \"#utility.yul\":18140:18240   */\n      swap2\n      swap1\n      pop\n      jump\t// out\n        /* \"#utility.yul\":18246:18403   */\n    tag_247:\n        /* \"#utility.yul\":18351:18396   */\n      tag_456\n        /* \"#utility.yul\":18371:18395   */\n      tag_457\n        /* \"#utility.yul\":18389:18394   */\n      dup3\n        /* \"#utility.yul\":18371:18395   */\n      tag_210\n      jump\t// in\n    tag_457:\n        /* \"#utility.yul\":18351:18396   */\n      tag_246\n      jump\t// in\n    tag_456:\n        /* \"#utility.yul\":18346:18349   */\n      dup3\n        /* \"#utility.yul\":18339:18397   */\n      mstore\n        /* \"#utility.yul\":18246:18403   */\n      pop\n      pop\n      jump\t// out\n        /* \"#utility.yul\":18409:18806   */\n    tag_125:\n        /* \"#utility.yul\":18549:18552   */\n      0x00\n        /* \"#utility.yul\":18564:18639   */\n      tag_459\n        /* \"#utility.yul\":18635:18638   */\n      dup3\n        /* \"#utility.yul\":18626:18632   */\n      dup6\n        /* \"#utility.yul\":18564:18639   */\n      tag_247\n      jump\t// in\n    tag_459:\n        /* \"#utility.yul\":18664:18666   */\n      0x14\n        /* \"#utility.yul\":18659:18662   */\n      dup3\n        /* \"#utility.yul\":18655:18667   */\n      add\n        /* \"#utility.yul\":18648:18667   */\n      swap2\n      pop\n        /* \"#utility.yul\":18677:18752   */\n      tag_460\n        /* \"#utility.yul\":18748:18751   */\n      dup3\n        /* \"#utility.yul\":18739:18745   */\n      dup5\n        /* \"#utility.yul\":18677:18752   */\n      tag_247\n      jump\t// in\n    tag_460:\n        /* \"#utility.yul\":18777:18779   */\n      0x14\n        /* \"#utility.yul\":18772:18775   */\n      dup3\n        /* \"#utility.yul\":18768:18780   */\n      add\n        /* \"#utility.yul\":18761:18780   */\n      swap2\n      pop\n        /* \"#utility.yul\":18797:18800   */\n      dup2\n        /* \"#utility.yul\":18790:18800   */\n      swap1\n      pop\n        /* \"#utility.yul\":18409:18806   */\n      swap4\n      swap3\n      pop\n      pop\n      pop\n      jump\t// out\n        /* \"#utility.yul\":18812:18960   */\n    tag_248:\n        /* \"#utility.yul\":18914:18925   */\n      0x00\n        /* \"#utility.yul\":18951:18954   */\n      dup2\n        /* \"#utility.yul\":18936:18954   */\n      swap1\n      pop\n        /* \"#utility.yul\":18812:18960   */\n      swap3\n      swap2\n      pop\n      pop\n      jump\t// out\n        /* \"#utility.yul\":18966:19180   */\n    tag_249:\n        /* \"#utility.yul\":19106:19172   */\n      0xff00000000000000000000000000000000000000000000000000000000000000\n        /* \"#utility.yul\":19102:19103   */\n      0x00\n        /* \"#utility.yul\":19094:19100   */\n      dup3\n        /* \"#utility.yul\":19090:19104   */\n      add\n        /* \"#utility.yul\":19083:19173   */\n      mstore\n        /* \"#utility.yul\":18966:19180   */\n      pop\n      jump\t// out\n        /* \"#utility.yul\":19186:19586   */\n    tag_250:\n        /* \"#utility.yul\":19346:19349   */\n      0x00\n        /* \"#utility.yul\":19367:19451   */\n      tag_464\n        /* \"#utility.yul\":19449:19450   */\n      0x01\n        /* \"#utility.yul\":19444:19447   */\n      dup4\n        /* \"#utility.yul\":19367:19451   */\n      tag_248\n      jump\t// in\n    tag_464:\n        /* \"#utility.yul\":19360:19451   */\n      swap2\n      pop\n        /* \"#utility.yul\":19460:19553   */\n      tag_465\n        /* \"#utility.yul\":19549:19552   */\n      dup3\n        /* \"#utility.yul\":19460:19553   */\n      tag_249\n      jump\t// in\n    tag_465:\n        /* \"#utility.yul\":19578:19579   */\n      0x01\n        /* \"#utility.yul\":19573:19576   */\n      dup3\n        /* \"#utility.yul\":19569:19580   */\n      add\n        /* \"#utility.yul\":19562:19580   */\n      swap1\n      pop\n        /* \"#utility.yul\":19186:19586   */\n      swap2\n      swap1\n      pop\n      jump\t// out\n        /* \"#utility.yul\":19592:19669   */\n    tag_251:\n        /* \"#utility.yul\":19629:19636   */\n      0x00\n        /* \"#utility.yul\":19658:19663   */\n      dup2\n        /* \"#utility.yul\":19647:19663   */\n      swap1\n      pop\n        /* \"#utility.yul\":19592:19669   */\n      swap2\n      swap1\n      pop\n      jump\t// out\n        /* \"#utility.yul\":19675:19754   */\n    tag_252:\n        /* \"#utility.yul\":19714:19721   */\n      0x00\n        /* \"#utility.yul\":19743:19748   */\n      dup2\n        /* \"#utility.yul\":19732:19748   */\n      swap1\n      pop\n        /* \"#utility.yul\":19675:19754   */\n      swap2\n      swap1\n      pop\n      jump\t// out\n        /* \"#utility.yul\":19760:19917   */\n    tag_253:\n        /* \"#utility.yul\":19865:19910   */\n      tag_469\n        /* \"#utility.yul\":19885:19909   */\n      tag_470\n        /* \"#utility.yul\":19903:19908   */\n      dup3\n        /* \"#utility.yul\":19885:19909   */\n      tag_251\n      jump\t// in\n    tag_470:\n        /* \"#utility.yul\":19865:19910   */\n      tag_252\n      jump\t// in\n    tag_469:\n        /* \"#utility.yul\":19860:19863   */\n      dup3\n        /* \"#utility.yul\":19853:19911   */\n      mstore\n        /* \"#utility.yul\":19760:19917   */\n      pop\n      pop\n      jump\t// out\n        /* \"#utility.yul\":19923:20137   */\n    tag_254:\n        /* \"#utility.yul\":20063:20129   */\n      0xab66b891387a046b7fefca26f19f061e1ced0309d8009fc43808c517eaec6917\n        /* \"#utility.yul\":20059:20060   */\n      0x00\n        /* \"#utility.yul\":20051:20057   */\n      dup3\n        /* \"#utility.yul\":20047:20061   */\n      add\n        /* \"#utility.yul\":20040:20130   */\n      mstore\n        /* \"#utility.yul\":19923:20137   */\n      pop\n      jump\t// out\n        /* \"#utility.yul\":20143:20545   */\n    tag_255:\n        /* \"#utility.yul\":20303:20306   */\n      0x00\n        /* \"#utility.yul\":20324:20409   */\n      tag_473\n        /* \"#utility.yul\":20406:20408   */\n      0x20\n        /* \"#utility.yul\":20401:20404   */\n      dup4\n        /* \"#utility.yul\":20324:20409   */\n      tag_248\n      jump\t// in\n    tag_473:\n        /* \"#utility.yul\":20317:20409   */\n      swap2\n      pop\n        /* \"#utility.yul\":20418:20511   */\n      tag_474\n        /* \"#utility.yul\":20507:20510   */\n      dup3\n        /* \"#utility.yul\":20418:20511   */\n      tag_254\n      jump\t// in\n    tag_474:\n        /* \"#utility.yul\":20536:20538   */\n      0x20\n        /* \"#utility.yul\":20531:20534   */\n      dup3\n        /* \"#utility.yul\":20527:20539   */\n      add\n        /* \"#utility.yul\":20520:20539   */\n      swap1\n      pop\n        /* \"#utility.yul\":20143:20545   */\n      swap2\n      swap1\n      pop\n      jump\t// out\n        /* \"#utility.yul\":20551:21480   */\n    tag_127:\n        /* \"#utility.yul\":20893:20896   */\n      0x00\n        /* \"#utility.yul\":20915:21063   */\n      tag_476\n        /* \"#utility.yul\":21059:21062   */\n      dup3\n        /* \"#utility.yul\":20915:21063   */\n      tag_250\n      jump\t// in\n    tag_476:\n        /* \"#utility.yul\":20908:21063   */\n      swap2\n      pop\n        /* \"#utility.yul\":21073:21148   */\n      tag_477\n        /* \"#utility.yul\":21144:21147   */\n      dup3\n        /* \"#utility.yul\":21135:21141   */\n      dup6\n        /* \"#utility.yul\":21073:21148   */\n      tag_247\n      jump\t// in\n    tag_477:\n        /* \"#utility.yul\":21173:21175   */\n      0x14\n        /* \"#utility.yul\":21168:21171   */\n      dup3\n        /* \"#utility.yul\":21164:21176   */\n      add\n        /* \"#utility.yul\":21157:21176   */\n      swap2\n      pop\n        /* \"#utility.yul\":21186:21261   */\n      tag_478\n        /* \"#utility.yul\":21257:21260   */\n      dup3\n        /* \"#utility.yul\":21248:21254   */\n      dup5\n        /* \"#utility.yul\":21186:21261   */\n      tag_253\n      jump\t// in\n    tag_478:\n        /* \"#utility.yul\":21286:21288   */\n      0x20\n        /* \"#utility.yul\":21281:21284   */\n      dup3\n        /* \"#utility.yul\":21277:21289   */\n      add\n        /* \"#utility.yul\":21270:21289   */\n      swap2\n      pop\n        /* \"#utility.yul\":21306:21454   */\n      tag_479\n        /* \"#utility.yul\":21450:21453   */\n      dup3\n        /* \"#utility.yul\":21306:21454   */\n      tag_255\n      jump\t// in\n    tag_479:\n        /* \"#utility.yul\":21299:21454   */\n      swap2\n      pop\n        /* \"#utility.yul\":21471:21474   */\n      dup2\n        /* \"#utility.yul\":21464:21474   */\n      swap1\n      pop\n        /* \"#utility.yul\":20551:21480   */\n      swap4\n      swap3\n      pop\n      pop\n      pop\n      jump\t// out\n        /* \"#utility.yul\":21486:21584   */\n    tag_256:\n        /* \"#utility.yul\":21537:21543   */\n      0x00\n        /* \"#utility.yul\":21571:21576   */\n      dup2\n        /* \"#utility.yul\":21565:21577   */\n      mload\n        /* \"#utility.yul\":21555:21577   */\n      swap1\n      pop\n        /* \"#utility.yul\":21486:21584   */\n      swap2\n      swap1\n      pop\n      jump\t// out\n        /* \"#utility.yul\":21590:21737   */\n    tag_257:\n        /* \"#utility.yul\":21691:21702   */\n      0x00\n        /* \"#utility.yul\":21728:21731   */\n      dup2\n        /* \"#utility.yul\":21713:21731   */\n      swap1\n      pop\n        /* \"#utility.yul\":21590:21737   */\n      swap3\n      swap2\n      pop\n      pop\n      jump\t// out\n        /* \"#utility.yul\":21743:22050   */\n    tag_258:\n        /* \"#utility.yul\":21811:21812   */\n      0x00\n        /* \"#utility.yul\":21821:21934   */\n    tag_483:\n        /* \"#utility.yul\":21835:21841   */\n      dup4\n        /* \"#utility.yul\":21832:21833   */\n      dup2\n        /* \"#utility.yul\":21829:21842   */\n      lt\n        /* \"#utility.yul\":21821:21934   */\n      iszero\n      tag_485\n      jumpi\n        /* \"#utility.yul\":21920:21921   */\n      dup1\n        /* \"#utility.yul\":21915:21918   */\n      dup3\n        /* \"#utility.yul\":21911:21922   */\n      add\n        /* \"#utility.yul\":21905:21923   */\n      mload\n        /* \"#utility.yul\":21901:21902   */\n      dup2\n        /* \"#utility.yul\":21896:21899   */\n      dup5\n        /* \"#utility.yul\":21892:21903   */\n      add\n        /* \"#utility.yul\":21885:21924   */\n      mstore\n        /* \"#utility.yul\":21857:21859   */\n      0x20\n        /* \"#utility.yul\":21854:21855   */\n      dup2\n        /* \"#utility.yul\":21850:21860   */\n      add\n        /* \"#utility.yul\":21845:21860   */\n      swap1\n      pop\n        /* \"#utility.yul\":21821:21934   */\n      jump(tag_483)\n    tag_485:\n        /* \"#utility.yul\":21952:21958   */\n      dup4\n        /* \"#utility.yul\":21949:21950   */\n      dup2\n        /* \"#utility.yul\":21946:21959   */\n      gt\n        /* \"#utility.yul\":21943:22044   */\n      iszero\n      tag_486\n      jumpi\n        /* \"#utility.yul\":22032:22033   */\n      0x00\n        /* \"#utility.yul\":22023:22029   */\n      dup5\n        /* \"#utility.yul\":22018:22021   */\n      dup5\n        /* \"#utility.yul\":22014:22030   */\n      add\n        /* \"#utility.yul\":22007:22034   */\n      mstore\n        /* \"#utility.yul\":21943:22044   */\n    tag_486:\n        /* \"#utility.yul\":21792:22050   */\n      pop\n        /* \"#utility.yul\":21743:22050   */\n      pop\n      pop\n      pop\n      jump\t// out\n        /* \"#utility.yul\":22056:22429   */\n    tag_259:\n        /* \"#utility.yul\":22160:22163   */\n      0x00\n        /* \"#utility.yul\":22188:22226   */\n      tag_488\n        /* \"#utility.yul\":22220:22225   */\n      dup3\n        /* \"#utility.yul\":22188:22226   */\n      tag_256\n      jump\t// in\n    tag_488:\n        /* \"#utility.yul\":22242:22330   */\n      tag_489\n        /* \"#utility.yul\":22323:22329   */\n      dup2\n        /* \"#utility.yul\":22318:22321   */\n      dup6\n        /* \"#utility.yul\":22242:22330   */\n      tag_257\n      jump\t// in\n    tag_489:\n        /* \"#utility.yul\":22235:22330   */\n      swap4\n      pop\n        /* \"#utility.yul\":22339:22391   */\n      tag_490\n        /* \"#utility.yul\":22384:22390   */\n      dup2\n        /* \"#utility.yul\":22379:22382   */\n      dup6\n        /* \"#utility.yul\":22372:22376   */\n      0x20\n        /* \"#utility.yul\":22365:22370   */\n      dup7\n        /* \"#utility.yul\":22361:22377   */\n      add\n        /* \"#utility.yul\":22339:22391   */\n      tag_258\n      jump\t// in\n    tag_490:\n        /* \"#utility.yul\":22416:22422   */\n      dup1\n        /* \"#utility.yul\":22411:22414   */\n      dup5\n        /* \"#utility.yul\":22407:22423   */\n      add\n        /* \"#utility.yul\":22400:22423   */\n      swap2\n      pop\n        /* \"#utility.yul\":22164:22429   */\n      pop\n        /* \"#utility.yul\":22056:22429   */\n      swap3\n      swap2\n      pop\n      pop\n      jump\t// out\n        /* \"#utility.yul\":22435:22706   */\n    tag_131:\n        /* \"#utility.yul\":22565:22568   */\n      0x00\n        /* \"#utility.yul\":22587:22680   */\n      tag_492\n        /* \"#utility.yul\":22676:22679   */\n      dup3\n        /* \"#utility.yul\":22667:22673   */\n      dup5\n        /* \"#utility.yul\":22587:22680   */\n      tag_259\n      jump\t// in\n    tag_492:\n        /* \"#utility.yul\":22580:22680   */\n      swap2\n      pop\n        /* \"#utility.yul\":22697:22700   */\n      dup2\n        /* \"#utility.yul\":22690:22700   */\n      swap1\n      pop\n        /* \"#utility.yul\":22435:22706   */\n      swap3\n      swap2\n      pop\n      pop\n      jump\t// out\n        /* \"#utility.yul\":22712:23017   */\n    tag_147:\n        /* \"#utility.yul\":22752:22755   */\n      0x00\n        /* \"#utility.yul\":22771:22791   */\n      tag_494\n        /* \"#utility.yul\":22789:22790   */\n      dup3\n        /* \"#utility.yul\":22771:22791   */\n      tag_202\n      jump\t// in\n    tag_494:\n        /* \"#utility.yul\":22766:22791   */\n      swap2\n      pop\n        /* \"#utility.yul\":22805:22825   */\n      tag_495\n        /* \"#utility.yul\":22823:22824   */\n      dup4\n        /* \"#utility.yul\":22805:22825   */\n      tag_202\n      jump\t// in\n    tag_495:\n        /* \"#utility.yul\":22800:22825   */\n      swap3\n      pop\n        /* \"#utility.yul\":22959:22960   */\n      dup3\n        /* \"#utility.yul\":22891:22957   */\n      0xffffffffffffffffffffffffffffffffffffffffffffffffffffffffffffffff\n        /* \"#utility.yul\":22887:22961   */\n      sub\n        /* \"#utility.yul\":22884:22885   */\n      dup3\n        /* \"#utility.yul\":22881:22962   */\n      gt\n        /* \"#utility.yul\":22878:22985   */\n      iszero\n      tag_496\n      jumpi\n        /* \"#utility.yul\":22965:22983   */\n      tag_497\n      tag_238\n      jump\t// in\n    tag_497:\n        /* \"#utility.yul\":22878:22985   */\n    tag_496:\n        /* \"#utility.yul\":23009:23010   */\n      dup3\n        /* \"#utility.yul\":23006:23007   */\n      dup3\n        /* \"#utility.yul\":23002:23011   */\n      add\n        /* \"#utility.yul\":22995:23011   */\n      swap1\n      pop\n        /* \"#utility.yul\":22712:23017   */\n      swap3\n      swap2\n      pop\n      pop\n      jump\t// out\n        /* \"#utility.yul\":23023:23465   */\n    tag_165:\n        /* \"#utility.yul\":23172:23176   */\n      0x00\n        /* \"#utility.yul\":23210:23212   */\n      0x60\n        /* \"#utility.yul\":23199:23208   */\n      dup3\n        /* \"#utility.yul\":23195:23213   */\n      add\n        /* \"#utility.yul\":23187:23213   */\n      swap1\n      pop\n        /* \"#utility.yul\":23223:23294   */\n      tag_499\n        /* \"#utility.yul\":23291:23292   */\n      0x00\n        /* \"#utility.yul\":23280:23289   */\n      dup4\n        /* \"#utility.yul\":23276:23293   */\n      add\n        /* \"#utility.yul\":23267:23273   */\n      dup7\n        /* \"#utility.yul\":23223:23294   */\n      tag_220\n      jump\t// in\n    tag_499:\n        /* \"#utility.yul\":23304:23376   */\n      tag_500\n        /* \"#utility.yul\":23372:23374   */\n      0x20\n        /* \"#utility.yul\":23361:23370   */\n      dup4\n        /* \"#utility.yul\":23357:23375   */\n      add\n        /* \"#utility.yul\":23348:23354   */\n      dup6\n        /* \"#utility.yul\":23304:23376   */\n      tag_220\n      jump\t// in\n    tag_500:\n        /* \"#utility.yul\":23386:23458   */\n      tag_501\n        /* \"#utility.yul\":23454:23456   */\n      0x40\n        /* \"#utility.yul\":23443:23452   */\n      dup4\n        /* \"#utility.yul\":23439:23457   */\n      add\n        /* \"#utility.yul\":23430:23436   */\n      dup5\n        /* \"#utility.yul\":23386:23458   */\n      tag_239\n      jump\t// in\n    tag_501:\n        /* \"#utility.yul\":23023:23465   */\n      swap5\n      swap4\n      pop\n      pop\n      pop\n      pop\n      jump\t// out\n        /* \"#utility.yul\":23471:23704   */\n    tag_170:\n        /* \"#utility.yul\":23510:23513   */\n      0x00\n        /* \"#utility.yul\":23533:23557   */\n      tag_503\n        /* \"#utility.yul\":23551:23556   */\n      dup3\n        /* \"#utility.yul\":23533:23557   */\n      tag_202\n      jump\t// in\n    tag_503:\n        /* \"#utility.yul\":23524:23557   */\n      swap2\n      pop\n        /* \"#utility.yul\":23579:23645   */\n      0xffffffffffffffffffffffffffffffffffffffffffffffffffffffffffffffff\n        /* \"#utility.yul\":23572:23577   */\n      dup3\n        /* \"#utility.yul\":23569:23646   */\n      eq\n        /* \"#utility.yul\":23566:23669   */\n      iszero\n      tag_504\n      jumpi\n        /* \"#utility.yul\":23649:23667   */\n      tag_505\n      tag_238\n      jump\t// in\n    tag_505:\n        /* \"#utility.yul\":23566:23669   */\n    tag_504:\n        /* \"#utility.yul\":23696:23697   */\n      0x01\n        /* \"#utility.yul\":23689:23694   */\n      dup3\n        /* \"#utility.yul\":23685:23698   */\n      add\n        /* \"#utility.yul\":23678:23698   */\n      swap1\n      pop\n        /* \"#utility.yul\":23471:23704   */\n      swap2\n      swap1\n      pop\n      jump\t// out\n        /* \"#utility.yul\":23710:24184   */\n    tag_173:\n        /* \"#utility.yul\":23867:23871   */\n      0x00\n        /* \"#utility.yul\":23905:23907   */\n      0x60\n        /* \"#utility.yul\":23894:23903   */\n      dup3\n        /* \"#utility.yul\":23890:23908   */\n      add\n        /* \"#utility.yul\":23882:23908   */\n      swap1\n      pop\n        /* \"#utility.yul\":23918:23997   */\n      tag_507\n        /* \"#utility.yul\":23994:23995   */\n      0x00\n        /* \"#utility.yul\":23983:23992   */\n      dup4\n        /* \"#utility.yul\":23979:23996   */\n      add\n        /* \"#utility.yul\":23970:23976   */\n      dup7\n        /* \"#utility.yul\":23918:23997   */\n      tag_221\n      jump\t// in\n    tag_507:\n        /* \"#utility.yul\":24007:24087   */\n      tag_508\n        /* \"#utility.yul\":24083:24085   */\n      0x20\n        /* \"#utility.yul\":24072:24081   */\n      dup4\n        /* \"#utility.yul\":24068:24086   */\n      add\n        /* \"#utility.yul\":24059:24065   */\n      dup6\n        /* \"#utility.yul\":24007:24087   */\n      tag_221\n      jump\t// in\n    tag_508:\n        /* \"#utility.yul\":24097:24177   */\n      tag_509\n        /* \"#utility.yul\":24173:24175   */\n      0x40\n        /* \"#utility.yul\":24162:24171   */\n      dup4\n        /* \"#utility.yul\":24158:24176   */\n      add\n        /* \"#utility.yul\":24149:24155   */\n      dup5\n        /* \"#utility.yul\":24097:24177   */\n      tag_221\n      jump\t// in\n    tag_509:\n        /* \"#utility.yul\":23710:24184   */\n      swap5\n      swap4\n      pop\n      pop\n      pop\n      pop\n      jump\t// out\n        /* \"#utility.yul\":24190:24664   */\n    tag_181:\n        /* \"#utility.yul\":24347:24351   */\n      0x00\n        /* \"#utility.yul\":24385:24387   */\n      0x60\n        /* \"#utility.yul\":24374:24383   */\n      dup3\n        /* \"#utility.yul\":24370:24388   */\n      add\n        /* \"#utility.yul\":24362:24388   */\n      swap1\n      pop\n        /* \"#utility.yul\":24398:24477   */\n      tag_511\n        /* \"#utility.yul\":24474:24475   */\n      0x00\n        /* \"#utility.yul\":24463:24472   */\n      dup4\n        /* \"#utility.yul\":24459:24476   */\n      add\n        /* \"#utility.yul\":24450:24456   */\n      dup7\n        /* \"#utility.yul\":24398:24477   */\n      tag_222\n      jump\t// in\n    tag_511:\n        /* \"#utility.yul\":24487:24567   */\n      tag_512\n        /* \"#utility.yul\":24563:24565   */\n      0x20\n        /* \"#utility.yul\":24552:24561   */\n      dup4\n        /* \"#utility.yul\":24548:24566   */\n      add\n        /* \"#utility.yul\":24539:24545   */\n      dup6\n        /* \"#utility.yul\":24487:24567   */\n      tag_222\n      jump\t// in\n    tag_512:\n        /* \"#utility.yul\":24577:24657   */\n      tag_513\n        /* \"#utility.yul\":24653:24655   */\n      0x40\n        /* \"#utility.yul\":24642:24651   */\n      dup4\n        /* \"#utility.yul\":24638:24656   */\n      add\n        /* \"#utility.yul\":24629:24635   */\n      dup5\n        /* \"#utility.yul\":24577:24657   */\n      tag_222\n      jump\t// in\n    tag_513:\n        /* \"#utility.yul\":24190:24664   */\n      swap5\n      swap4\n      pop\n      pop\n      pop\n      pop\n      jump\t// out\n        /* \"#utility.yul\":24670:24850   */\n    tag_194:\n        /* \"#utility.yul\":24718:24795   */\n      0x4e487b7100000000000000000000000000000000000000000000000000000000\n        /* \"#utility.yul\":24715:24716   */\n      0x00\n        /* \"#utility.yul\":24708:24796   */\n      mstore\n        /* \"#utility.yul\":24815:24819   */\n      0x01\n        /* \"#utility.yul\":24812:24813   */\n      0x04\n        /* \"#utility.yul\":24805:24820   */\n      mstore\n        /* \"#utility.yul\":24839:24843   */\n      0x24\n        /* \"#utility.yul\":24836:24837   */\n      0x00\n        /* \"#utility.yul\":24829:24844   */\n      revert\n\n    auxdata: 0xa2646970667358221220e13a50e9c72b25f94a48213e07c515bffff52c034e1b91e62d49cc288021e85d64736f6c634300080a0033\n}\n",
				"bytecode": {
					"linkReferences": {
						"contracts/KajuswapLibrary.sol": {
							"KajuswapLibrary": [
								{
									"length": 20,
									"start": 578
								},
								{
									"length": 20,
									"start": 1128
								},
								{
									"length": 20,
									"start": 3724
								},
								{
									"length": 20,
									"start": 3921
								},
								{
									"length": 20,
									"start": 4128
								}
							]
						}
					},
					"object": "60806040523480156200001157600080fd5b5060405162001e4838038062001e488339818101604052810190620000379190620000e8565b806000806101000a81548173ffffffffffffffffffffffffffffffffffffffff021916908373ffffffffffffffffffffffffffffffffffffffff160217905550506200011a565b600080fd5b600073ffffffffffffffffffffffffffffffffffffffff82169050919050565b6000620000b08262000083565b9050919050565b620000c281620000a3565b8114620000ce57600080fd5b50565b600081519050620000e281620000b7565b92915050565b6000602082840312156200010157620001006200007e565b5b60006200011184828501620000d1565b91505092915050565b611d1e806200012a6000396000f3fe608060405234801561001057600080fd5b506004361061004c5760003560e01c806342712a6714610051578063472b43f314610081578063c0e3ee6b146100b1578063ca3d6539146100e2575b600080fd5b61006b6004803603810190610066919061112f565b610114565b6040516100789190611275565b60405180910390f35b61009b6004803603810190610096919061112f565b61033a565b6040516100a89190611275565b60405180910390f35b6100cb60048036038101906100c69190611297565b610560565b6040516100d9929190611333565b60405180910390f35b6100fc60048036038101906100f7919061135c565b610716565b60405161010b939291906113fe565b60405180910390f35b606073__$18693c2782ae7b010cc3bd0449f436a789$__63192128b260008054906101000a900473ffffffffffffffffffffffffffffffffffffffff168887876040518563ffffffff1660e01b81526004016101739493929190611516565b600060405180830381865af4158015610190573d6000803e3d6000fd5b505050506040513d6000823e3d601f19601f820116820180604052508101906101b991906116ba565b90508481600183516101cb9190611732565b815181106101dc576101db611766565b5b6020026020010151111561021c576040517fe1b0da4f00000000000000000000000000000000000000000000000000000000815260040160405180910390fd5b6102e58484600081811061023357610232611766565b5b90506020020160208101906102489190611795565b336102c460008054906101000a900473ffffffffffffffffffffffffffffffffffffffff168888600081811061028157610280611766565b5b90506020020160208101906102969190611795565b898960018181106102aa576102a9611766565b5b90506020020160208101906102bf9190611795565b610973565b846000815181106102d8576102d7611766565b5b60200260200101516109e5565b61033181858580806020026020016040519081016040528093929190818152602001838360200280828437600081840152601f19601f8201169050808301925050505050505084610b50565b95945050505050565b606073__$18693c2782ae7b010cc3bd0449f436a789$__63bb7b9c7660008054906101000a900473ffffffffffffffffffffffffffffffffffffffff168887876040518563ffffffff1660e01b81526004016103999493929190611516565b600060405180830381865af41580156103b6573d6000803e3d6000fd5b505050506040513d6000823e3d601f19601f820116820180604052508101906103df91906116ba565b90508481600183516103f19190611732565b8151811061040257610401611766565b5b60200260200101511015610442576040517f42301c2300000000000000000000000000000000000000000000000000000000815260040160405180910390fd5b61050b8484600081811061045957610458611766565b5b905060200201602081019061046e9190611795565b336104ea60008054906101000a900473ffffffffffffffffffffffffffffffffffffffff16888860008181106104a7576104a6611766565b5b90506020020160208101906104bc9190611795565b898960018181106104d0576104cf611766565b5b90506020020160208101906104e59190611795565b610973565b846000815181106104fe576104fd611766565b5b60200260200101516109e5565b61055781858580806020026020016040519081016040528093929190818152602001838360200280828437600081840152601f19601f8201169050808301925050505050505084610b50565b95945050505050565b600080600061059060008054906101000a900473ffffffffffffffffffffffffffffffffffffffff168a8a610973565b90508073ffffffffffffffffffffffffffffffffffffffff166323b872dd33838a6040518463ffffffff1660e01b81526004016105cf939291906117d1565b6020604051808303816000875af11580156105ee573d6000803e3d6000fd5b505050506040513d601f19601f820116820180604052508101906106129190611840565b508073ffffffffffffffffffffffffffffffffffffffff166389afcb44856040518263ffffffff1660e01b815260040161064c919061186d565b60408051808303816000875af115801561066a573d6000803e3d6000fd5b505050506040513d601f19601f8201168201806040525081019061068e9190611888565b8093508194505050858310156106d0576040517f8dc525d100000000000000000000000000000000000000000000000000000000815260040160405180910390fd5b8482101561070a576040517fef71d09100000000000000000000000000000000000000000000000000000000815260040160405180910390fd5b50965096945050505050565b60008060008073ffffffffffffffffffffffffffffffffffffffff1660008054906101000a900473ffffffffffffffffffffffffffffffffffffffff1673ffffffffffffffffffffffffffffffffffffffff166369454b868c8c6040518363ffffffff1660e01b815260040161078d9291906118c8565b602060405180830381865afa1580156107aa573d6000803e3d6000fd5b505050506040513d601f19601f820116820180604052508101906107ce9190611906565b73ffffffffffffffffffffffffffffffffffffffff16141561088a5760008054906101000a900473ffffffffffffffffffffffffffffffffffffffff1673ffffffffffffffffffffffffffffffffffffffff1663c9c653968b8b6040518363ffffffff1660e01b81526004016108459291906118c8565b6020604051808303816000875af1158015610864573d6000803e3d6000fd5b505050506040513d601f19601f820116820180604052508101906108889190611906565b505b6108988a8a8a8a8a8a610d5a565b809350819450505060006108cd60008054906101000a900473ffffffffffffffffffffffffffffffffffffffff168c8c610973565b90506108db8b3383876109e5565b6108e78a3383866109e5565b8073ffffffffffffffffffffffffffffffffffffffff16636a627842866040518263ffffffff1660e01b8152600401610920919061186d565b6020604051808303816000875af115801561093f573d6000803e3d6000fd5b505050506040513d601f19601f820116820180604052508101906109639190611933565b9150509750975097945050505050565b60008060006109828585610fd7565b9150915085828260405160200161099a9291906119a8565b604051602081830303815290604052805190602001206040516020016109c1929190611aa2565b6040516020818303038152906040528051906020012060001c925050509392505050565b6000808573ffffffffffffffffffffffffffffffffffffffff16858585604051602401610a14939291906117d1565b6040516020818303038152906040527f23b872dd000000000000000000000000000000000000000000000000000000007bffffffffffffffffffffffffffffffffffffffffffffffffffffffff19166020820180517bffffffffffffffffffffffffffffffffffffffffffffffffffffffff8381831617835250505050604051610a9e9190611b5e565b6000604051808303816000865af19150503d8060008114610adb576040519150601f19603f3d011682016040523d82523d6000602084013e610ae0565b606091505b5091509150811580610b1157506000815114158015610b10575080806020019051810190610b0e9190611840565b155b5b15610b48576040517ffb7f507900000000000000000000000000000000000000000000000000000000815260040160405180910390fd5b505050505050565b60005b60018351610b619190611732565b811015610d5457600080848381518110610b7e57610b7d611766565b5b602002602001015185600185610b949190611b75565b81518110610ba557610ba4611766565b5b6020026020010151915091506000610bbd8383610fd7565b509050600087600186610bd09190611b75565b81518110610be157610be0611766565b5b602002602001015190506000808373ffffffffffffffffffffffffffffffffffffffff168673ffffffffffffffffffffffffffffffffffffffff1614610c2957826000610c2d565b6000835b91509150600060028a51610c419190611732565b8810610c4d5788610c9f565b610c9e60008054906101000a900473ffffffffffffffffffffffffffffffffffffffff16878c60028c610c809190611b75565b81518110610c9157610c90611766565b5b6020026020010151610973565b5b9050610ccc60008054906101000a900473ffffffffffffffffffffffffffffffffffffffff168888610973565b73ffffffffffffffffffffffffffffffffffffffff16636d9a640a8484846040518463ffffffff1660e01b8152600401610d0893929190611bcb565b600060405180830381600087803b158015610d2257600080fd5b505af1158015610d36573d6000803e3d6000fd5b50505050505050505050508080610d4c90611c02565b915050610b53565b50505050565b60008060008073__$18693c2782ae7b010cc3bd0449f436a789$__633274946160008054906101000a900473ffffffffffffffffffffffffffffffffffffffff168c8c6040518463ffffffff1660e01b8152600401610dbb93929190611c4b565b6040805180830381865af4158015610dd7573d6000803e3d6000fd5b505050506040513d601f19601f82011682018060405250810190610dfb9190611888565b91509150600082148015610e0f5750600081145b15610e235787878094508195505050610fca565b600073__$18693c2782ae7b010cc3bd0449f436a789$__63ad615dec8a85856040518463ffffffff1660e01b8152600401610e6093929190611c82565b602060405180830381865af4158015610e7d573d6000803e3d6000fd5b505050506040513d601f19601f82011682018060405250810190610ea19190611933565b9050878111610ef257858111610ee3576040517fef71d09100000000000000000000000000000000000000000000000000000000815260040160405180910390fd5b88818095508196505050610fc8565b600073__$18693c2782ae7b010cc3bd0449f436a789$__63ad615dec8a85876040518463ffffffff1660e01b8152600401610f2f93929190611c82565b602060405180830381865af4158015610f4c573d6000803e3d6000fd5b505050506040513d601f19601f82011682018060405250810190610f709190611933565b905089811115610f8357610f82611cb9565b5b878111610fbc576040517f8dc525d100000000000000000000000000000000000000000000000000000000815260040160405180910390fd5b80898096508197505050505b505b5050965096945050505050565b6000808273ffffffffffffffffffffffffffffffffffffffff168473ffffffffffffffffffffffffffffffffffffffff1610611014578284611017565b83835b915091509250929050565b6000604051905090565b600080fd5b600080fd5b6000819050919050565b61104981611036565b811461105457600080fd5b50565b60008135905061106681611040565b92915050565b600080fd5b600080fd5b600080fd5b60008083601f8401126110915761109061106c565b5b8235905067ffffffffffffffff8111156110ae576110ad611071565b5b6020830191508360208202830111156110ca576110c9611076565b5b9250929050565b600073ffffffffffffffffffffffffffffffffffffffff82169050919050565b60006110fc826110d1565b9050919050565b61110c816110f1565b811461111757600080fd5b50565b60008135905061112981611103565b92915050565b60008060008060006080868803121561114b5761114a61102c565b5b600061115988828901611057565b955050602061116a88828901611057565b945050604086013567ffffffffffffffff81111561118b5761118a611031565b5b6111978882890161107b565b935093505060606111aa8882890161111a565b9150509295509295909350565b600081519050919050565b600082825260208201905092915050565b6000819050602082019050919050565b6111ec81611036565b82525050565b60006111fe83836111e3565b60208301905092915050565b6000602082019050919050565b6000611222826111b7565b61122c81856111c2565b9350611237836111d3565b8060005b8381101561126857815161124f88826111f2565b975061125a8361120a565b92505060018101905061123b565b5085935050505092915050565b6000602082019050818103600083015261128f8184611217565b905092915050565b60008060008060008060c087890312156112b4576112b361102c565b5b60006112c289828a0161111a565b96505060206112d389828a0161111a565b95505060406112e489828a01611057565b94505060606112f589828a01611057565b935050608061130689828a01611057565b92505060a061131789828a0161111a565b9150509295509295509295565b61132d81611036565b82525050565b60006040820190506113486000830185611324565b6113556020830184611324565b9392505050565b600080600080600080600060e0888a03121561137b5761137a61102c565b5b60006113898a828b0161111a565b975050602061139a8a828b0161111a565b96505060406113ab8a828b01611057565b95505060606113bc8a828b01611057565b94505060806113cd8a828b01611057565b93505060a06113de8a828b01611057565b92505060c06113ef8a828b0161111a565b91505092959891949750929550565b60006060820190506114136000830186611324565b6114206020830185611324565b61142d6040830184611324565b949350505050565b61143e816110f1565b82525050565b61144d81611036565b82525050565b600082825260208201905092915050565b6000819050919050565b611477816110f1565b82525050565b6000611489838361146e565b60208301905092915050565b60006114a4602084018461111a565b905092915050565b6000602082019050919050565b60006114c58385611453565b93506114d082611464565b8060005b85811015611509576114e68284611495565b6114f0888261147d565b97506114fb836114ac565b9250506001810190506114d4565b5085925050509392505050565b600060608201905061152b6000830187611435565b6115386020830186611444565b818103604083015261154b8184866114b9565b905095945050505050565b6000601f19601f8301169050919050565b7f4e487b7100000000000000000000000000000000000000000000000000000000600052604160045260246000fd5b61159f82611556565b810181811067ffffffffffffffff821117156115be576115bd611567565b5b80604052505050565b60006115d1611022565b90506115dd8282611596565b919050565b600067ffffffffffffffff8211156115fd576115fc611567565b5b602082029050602081019050919050565b60008151905061161d81611040565b92915050565b6000611636611631846115e2565b6115c7565b9050808382526020820190506020840283018581111561165957611658611076565b5b835b81811015611682578061166e888261160e565b84526020840193505060208101905061165b565b5050509392505050565b600082601f8301126116a1576116a061106c565b5b81516116b1848260208601611623565b91505092915050565b6000602082840312156116d0576116cf61102c565b5b600082015167ffffffffffffffff8111156116ee576116ed611031565b5b6116fa8482850161168c565b91505092915050565b7f4e487b7100000000000000000000000000000000000000000000000000000000600052601160045260246000fd5b600061173d82611036565b915061174883611036565b92508282101561175b5761175a611703565b5b828203905092915050565b7f4e487b7100000000000000000000000000000000000000000000000000000000600052603260045260246000fd5b6000602082840312156117ab576117aa61102c565b5b60006117b98482850161111a565b91505092915050565b6117cb816110f1565b82525050565b60006060820190506117e660008301866117c2565b6117f360208301856117c2565b6118006040830184611324565b949350505050565b60008115159050919050565b61181d81611808565b811461182857600080fd5b50565b60008151905061183a81611814565b92915050565b6000602082840312156118565761185561102c565b5b60006118648482850161182b565b91505092915050565b600060208201905061188260008301846117c2565b92915050565b6000806040838503121561189f5761189e61102c565b5b60006118ad8582860161160e565b92505060206118be8582860161160e565b9150509250929050565b60006040820190506118dd60008301856117c2565b6118ea60208301846117c2565b9392505050565b60008151905061190081611103565b92915050565b60006020828403121561191c5761191b61102c565b5b600061192a848285016118f1565b91505092915050565b6000602082840312156119495761194861102c565b5b60006119578482850161160e565b91505092915050565b60008160601b9050919050565b600061197882611960565b9050919050565b600061198a8261196d565b9050919050565b6119a261199d826110f1565b61197f565b82525050565b60006119b48285611991565b6014820191506119c48284611991565b6014820191508190509392505050565b600081905092915050565b7fff00000000000000000000000000000000000000000000000000000000000000600082015250565b6000611a156001836119d4565b9150611a20826119df565b600182019050919050565b6000819050919050565b6000819050919050565b611a50611a4b82611a2b565b611a35565b82525050565b7fab66b891387a046b7fefca26f19f061e1ced0309d8009fc43808c517eaec6917600082015250565b6000611a8c6020836119d4565b9150611a9782611a56565b602082019050919050565b6000611aad82611a08565b9150611ab98285611991565b601482019150611ac98284611a3f565b602082019150611ad882611a7f565b91508190509392505050565b600081519050919050565b600081905092915050565b60005b83811015611b18578082015181840152602081019050611afd565b83811115611b27576000848401525b50505050565b6000611b3882611ae4565b611b428185611aef565b9350611b52818560208601611afa565b80840191505092915050565b6000611b6a8284611b2d565b915081905092915050565b6000611b8082611036565b9150611b8b83611036565b9250827fffffffffffffffffffffffffffffffffffffffffffffffffffffffffffffffff03821115611bc057611bbf611703565b5b828201905092915050565b6000606082019050611be06000830186611324565b611bed6020830185611324565b611bfa60408301846117c2565b949350505050565b6000611c0d82611036565b91507fffffffffffffffffffffffffffffffffffffffffffffffffffffffffffffffff821415611c4057611c3f611703565b5b600182019050919050565b6000606082019050611c606000830186611435565b611c6d6020830185611435565b611c7a6040830184611435565b949350505050565b6000606082019050611c976000830186611444565b611ca46020830185611444565b611cb16040830184611444565b949350505050565b7f4e487b7100000000000000000000000000000000000000000000000000000000600052600160045260246000fdfea2646970667358221220e13a50e9c72b25f94a48213e07c515bffff52c034e1b91e62d49cc288021e85d64736f6c634300080a0033",
					"opcodes": "PUSH1 0x80 PUSH1 0x40 MSTORE CALLVALUE DUP1 ISZERO PUSH3 0x11 JUMPI PUSH1 0x0 DUP1 REVERT JUMPDEST POP PUSH1 0x40 MLOAD PUSH3 0x1E48 CODESIZE SUB DUP1 PUSH3 0x1E48 DUP4 CODECOPY DUP2 DUP2 ADD PUSH1 0x40 MSTORE DUP2 ADD SWAP1 PUSH3 0x37 SWAP2 SWAP1 PUSH3 0xE8 JUMP JUMPDEST DUP1 PUSH1 0x0 DUP1 PUSH2 0x100 EXP DUP2 SLOAD DUP2 PUSH20 0xFFFFFFFFFFFFFFFFFFFFFFFFFFFFFFFFFFFFFFFF MUL NOT AND SWAP1 DUP4 PUSH20 0xFFFFFFFFFFFFFFFFFFFFFFFFFFFFFFFFFFFFFFFF AND MUL OR SWAP1 SSTORE POP POP PUSH3 0x11A JUMP JUMPDEST PUSH1 0x0 DUP1 REVERT JUMPDEST PUSH1 0x0 PUSH20 0xFFFFFFFFFFFFFFFFFFFFFFFFFFFFFFFFFFFFFFFF DUP3 AND SWAP1 POP SWAP2 SWAP1 POP JUMP JUMPDEST PUSH1 0x0 PUSH3 0xB0 DUP3 PUSH3 0x83 JUMP JUMPDEST SWAP1 POP SWAP2 SWAP1 POP JUMP JUMPDEST PUSH3 0xC2 DUP2 PUSH3 0xA3 JUMP JUMPDEST DUP2 EQ PUSH3 0xCE JUMPI PUSH1 0x0 DUP1 REVERT JUMPDEST POP JUMP JUMPDEST PUSH1 0x0 DUP2 MLOAD SWAP1 POP PUSH3 0xE2 DUP2 PUSH3 0xB7 JUMP JUMPDEST SWAP3 SWAP2 POP POP JUMP JUMPDEST PUSH1 0x0 PUSH1 0x20 DUP3 DUP5 SUB SLT ISZERO PUSH3 0x101 JUMPI PUSH3 0x100 PUSH3 0x7E JUMP JUMPDEST JUMPDEST PUSH1 0x0 PUSH3 0x111 DUP5 DUP3 DUP6 ADD PUSH3 0xD1 JUMP JUMPDEST SWAP2 POP POP SWAP3 SWAP2 POP POP JUMP JUMPDEST PUSH2 0x1D1E DUP1 PUSH3 0x12A PUSH1 0x0 CODECOPY PUSH1 0x0 RETURN INVALID PUSH1 0x80 PUSH1 0x40 MSTORE CALLVALUE DUP1 ISZERO PUSH2 0x10 JUMPI PUSH1 0x0 DUP1 REVERT JUMPDEST POP PUSH1 0x4 CALLDATASIZE LT PUSH2 0x4C JUMPI PUSH1 0x0 CALLDATALOAD PUSH1 0xE0 SHR DUP1 PUSH4 0x42712A67 EQ PUSH2 0x51 JUMPI DUP1 PUSH4 0x472B43F3 EQ PUSH2 0x81 JUMPI DUP1 PUSH4 0xC0E3EE6B EQ PUSH2 0xB1 JUMPI DUP1 PUSH4 0xCA3D6539 EQ PUSH2 0xE2 JUMPI JUMPDEST PUSH1 0x0 DUP1 REVERT JUMPDEST PUSH2 0x6B PUSH1 0x4 DUP1 CALLDATASIZE SUB DUP2 ADD SWAP1 PUSH2 0x66 SWAP2 SWAP1 PUSH2 0x112F JUMP JUMPDEST PUSH2 0x114 JUMP JUMPDEST PUSH1 0x40 MLOAD PUSH2 0x78 SWAP2 SWAP1 PUSH2 0x1275 JUMP JUMPDEST PUSH1 0x40 MLOAD DUP1 SWAP2 SUB SWAP1 RETURN JUMPDEST PUSH2 0x9B PUSH1 0x4 DUP1 CALLDATASIZE SUB DUP2 ADD SWAP1 PUSH2 0x96 SWAP2 SWAP1 PUSH2 0x112F JUMP JUMPDEST PUSH2 0x33A JUMP JUMPDEST PUSH1 0x40 MLOAD PUSH2 0xA8 SWAP2 SWAP1 PUSH2 0x1275 JUMP JUMPDEST PUSH1 0x40 MLOAD DUP1 SWAP2 SUB SWAP1 RETURN JUMPDEST PUSH2 0xCB PUSH1 0x4 DUP1 CALLDATASIZE SUB DUP2 ADD SWAP1 PUSH2 0xC6 SWAP2 SWAP1 PUSH2 0x1297 JUMP JUMPDEST PUSH2 0x560 JUMP JUMPDEST PUSH1 0x40 MLOAD PUSH2 0xD9 SWAP3 SWAP2 SWAP1 PUSH2 0x1333 JUMP JUMPDEST PUSH1 0x40 MLOAD DUP1 SWAP2 SUB SWAP1 RETURN JUMPDEST PUSH2 0xFC PUSH1 0x4 DUP1 CALLDATASIZE SUB DUP2 ADD SWAP1 PUSH2 0xF7 SWAP2 SWAP1 PUSH2 0x135C JUMP JUMPDEST PUSH2 0x716 JUMP JUMPDEST PUSH1 0x40 MLOAD PUSH2 0x10B SWAP4 SWAP3 SWAP2 SWAP1 PUSH2 0x13FE JUMP JUMPDEST PUSH1 0x40 MLOAD DUP1 SWAP2 SUB SWAP1 RETURN JUMPDEST PUSH1 0x60 PUSH20 0x0 PUSH4 0x192128B2 PUSH1 0x0 DUP1 SLOAD SWAP1 PUSH2 0x100 EXP SWAP1 DIV PUSH20 0xFFFFFFFFFFFFFFFFFFFFFFFFFFFFFFFFFFFFFFFF AND DUP9 DUP8 DUP8 PUSH1 0x40 MLOAD DUP6 PUSH4 0xFFFFFFFF AND PUSH1 0xE0 SHL DUP2 MSTORE PUSH1 0x4 ADD PUSH2 0x173 SWAP5 SWAP4 SWAP3 SWAP2 SWAP1 PUSH2 0x1516 JUMP JUMPDEST PUSH1 0x0 PUSH1 0x40 MLOAD DUP1 DUP4 SUB DUP2 DUP7 GAS DELEGATECALL ISZERO DUP1 ISZERO PUSH2 0x190 JUMPI RETURNDATASIZE PUSH1 0x0 DUP1 RETURNDATACOPY RETURNDATASIZE PUSH1 0x0 REVERT JUMPDEST POP POP POP POP PUSH1 0x40 MLOAD RETURNDATASIZE PUSH1 0x0 DUP3 RETURNDATACOPY RETURNDATASIZE PUSH1 0x1F NOT PUSH1 0x1F DUP3 ADD AND DUP3 ADD DUP1 PUSH1 0x40 MSTORE POP DUP2 ADD SWAP1 PUSH2 0x1B9 SWAP2 SWAP1 PUSH2 0x16BA JUMP JUMPDEST SWAP1 POP DUP5 DUP2 PUSH1 0x1 DUP4 MLOAD PUSH2 0x1CB SWAP2 SWAP1 PUSH2 0x1732 JUMP JUMPDEST DUP2 MLOAD DUP2 LT PUSH2 0x1DC JUMPI PUSH2 0x1DB PUSH2 0x1766 JUMP JUMPDEST JUMPDEST PUSH1 0x20 MUL PUSH1 0x20 ADD ADD MLOAD GT ISZERO PUSH2 0x21C JUMPI PUSH1 0x40 MLOAD PUSH32 0xE1B0DA4F00000000000000000000000000000000000000000000000000000000 DUP2 MSTORE PUSH1 0x4 ADD PUSH1 0x40 MLOAD DUP1 SWAP2 SUB SWAP1 REVERT JUMPDEST PUSH2 0x2E5 DUP5 DUP5 PUSH1 0x0 DUP2 DUP2 LT PUSH2 0x233 JUMPI PUSH2 0x232 PUSH2 0x1766 JUMP JUMPDEST JUMPDEST SWAP1 POP PUSH1 0x20 MUL ADD PUSH1 0x20 DUP2 ADD SWAP1 PUSH2 0x248 SWAP2 SWAP1 PUSH2 0x1795 JUMP JUMPDEST CALLER PUSH2 0x2C4 PUSH1 0x0 DUP1 SLOAD SWAP1 PUSH2 0x100 EXP SWAP1 DIV PUSH20 0xFFFFFFFFFFFFFFFFFFFFFFFFFFFFFFFFFFFFFFFF AND DUP9 DUP9 PUSH1 0x0 DUP2 DUP2 LT PUSH2 0x281 JUMPI PUSH2 0x280 PUSH2 0x1766 JUMP JUMPDEST JUMPDEST SWAP1 POP PUSH1 0x20 MUL ADD PUSH1 0x20 DUP2 ADD SWAP1 PUSH2 0x296 SWAP2 SWAP1 PUSH2 0x1795 JUMP JUMPDEST DUP10 DUP10 PUSH1 0x1 DUP2 DUP2 LT PUSH2 0x2AA JUMPI PUSH2 0x2A9 PUSH2 0x1766 JUMP JUMPDEST JUMPDEST SWAP1 POP PUSH1 0x20 MUL ADD PUSH1 0x20 DUP2 ADD SWAP1 PUSH2 0x2BF SWAP2 SWAP1 PUSH2 0x1795 JUMP JUMPDEST PUSH2 0x973 JUMP JUMPDEST DUP5 PUSH1 0x0 DUP2 MLOAD DUP2 LT PUSH2 0x2D8 JUMPI PUSH2 0x2D7 PUSH2 0x1766 JUMP JUMPDEST JUMPDEST PUSH1 0x20 MUL PUSH1 0x20 ADD ADD MLOAD PUSH2 0x9E5 JUMP JUMPDEST PUSH2 0x331 DUP2 DUP6 DUP6 DUP1 DUP1 PUSH1 0x20 MUL PUSH1 0x20 ADD PUSH1 0x40 MLOAD SWAP1 DUP2 ADD PUSH1 0x40 MSTORE DUP1 SWAP4 SWAP3 SWAP2 SWAP1 DUP2 DUP2 MSTORE PUSH1 0x20 ADD DUP4 DUP4 PUSH1 0x20 MUL DUP1 DUP3 DUP5 CALLDATACOPY PUSH1 0x0 DUP2 DUP5 ADD MSTORE PUSH1 0x1F NOT PUSH1 0x1F DUP3 ADD AND SWAP1 POP DUP1 DUP4 ADD SWAP3 POP POP POP POP POP POP POP DUP5 PUSH2 0xB50 JUMP JUMPDEST SWAP6 SWAP5 POP POP POP POP POP JUMP JUMPDEST PUSH1 0x60 PUSH20 0x0 PUSH4 0xBB7B9C76 PUSH1 0x0 DUP1 SLOAD SWAP1 PUSH2 0x100 EXP SWAP1 DIV PUSH20 0xFFFFFFFFFFFFFFFFFFFFFFFFFFFFFFFFFFFFFFFF AND DUP9 DUP8 DUP8 PUSH1 0x40 MLOAD DUP6 PUSH4 0xFFFFFFFF AND PUSH1 0xE0 SHL DUP2 MSTORE PUSH1 0x4 ADD PUSH2 0x399 SWAP5 SWAP4 SWAP3 SWAP2 SWAP1 PUSH2 0x1516 JUMP JUMPDEST PUSH1 0x0 PUSH1 0x40 MLOAD DUP1 DUP4 SUB DUP2 DUP7 GAS DELEGATECALL ISZERO DUP1 ISZERO PUSH2 0x3B6 JUMPI RETURNDATASIZE PUSH1 0x0 DUP1 RETURNDATACOPY RETURNDATASIZE PUSH1 0x0 REVERT JUMPDEST POP POP POP POP PUSH1 0x40 MLOAD RETURNDATASIZE PUSH1 0x0 DUP3 RETURNDATACOPY RETURNDATASIZE PUSH1 0x1F NOT PUSH1 0x1F DUP3 ADD AND DUP3 ADD DUP1 PUSH1 0x40 MSTORE POP DUP2 ADD SWAP1 PUSH2 0x3DF SWAP2 SWAP1 PUSH2 0x16BA JUMP JUMPDEST SWAP1 POP DUP5 DUP2 PUSH1 0x1 DUP4 MLOAD PUSH2 0x3F1 SWAP2 SWAP1 PUSH2 0x1732 JUMP JUMPDEST DUP2 MLOAD DUP2 LT PUSH2 0x402 JUMPI PUSH2 0x401 PUSH2 0x1766 JUMP JUMPDEST JUMPDEST PUSH1 0x20 MUL PUSH1 0x20 ADD ADD MLOAD LT ISZERO PUSH2 0x442 JUMPI PUSH1 0x40 MLOAD PUSH32 0x42301C2300000000000000000000000000000000000000000000000000000000 DUP2 MSTORE PUSH1 0x4 ADD PUSH1 0x40 MLOAD DUP1 SWAP2 SUB SWAP1 REVERT JUMPDEST PUSH2 0x50B DUP5 DUP5 PUSH1 0x0 DUP2 DUP2 LT PUSH2 0x459 JUMPI PUSH2 0x458 PUSH2 0x1766 JUMP JUMPDEST JUMPDEST SWAP1 POP PUSH1 0x20 MUL ADD PUSH1 0x20 DUP2 ADD SWAP1 PUSH2 0x46E SWAP2 SWAP1 PUSH2 0x1795 JUMP JUMPDEST CALLER PUSH2 0x4EA PUSH1 0x0 DUP1 SLOAD SWAP1 PUSH2 0x100 EXP SWAP1 DIV PUSH20 0xFFFFFFFFFFFFFFFFFFFFFFFFFFFFFFFFFFFFFFFF AND DUP9 DUP9 PUSH1 0x0 DUP2 DUP2 LT PUSH2 0x4A7 JUMPI PUSH2 0x4A6 PUSH2 0x1766 JUMP JUMPDEST JUMPDEST SWAP1 POP PUSH1 0x20 MUL ADD PUSH1 0x20 DUP2 ADD SWAP1 PUSH2 0x4BC SWAP2 SWAP1 PUSH2 0x1795 JUMP JUMPDEST DUP10 DUP10 PUSH1 0x1 DUP2 DUP2 LT PUSH2 0x4D0 JUMPI PUSH2 0x4CF PUSH2 0x1766 JUMP JUMPDEST JUMPDEST SWAP1 POP PUSH1 0x20 MUL ADD PUSH1 0x20 DUP2 ADD SWAP1 PUSH2 0x4E5 SWAP2 SWAP1 PUSH2 0x1795 JUMP JUMPDEST PUSH2 0x973 JUMP JUMPDEST DUP5 PUSH1 0x0 DUP2 MLOAD DUP2 LT PUSH2 0x4FE JUMPI PUSH2 0x4FD PUSH2 0x1766 JUMP JUMPDEST JUMPDEST PUSH1 0x20 MUL PUSH1 0x20 ADD ADD MLOAD PUSH2 0x9E5 JUMP JUMPDEST PUSH2 0x557 DUP2 DUP6 DUP6 DUP1 DUP1 PUSH1 0x20 MUL PUSH1 0x20 ADD PUSH1 0x40 MLOAD SWAP1 DUP2 ADD PUSH1 0x40 MSTORE DUP1 SWAP4 SWAP3 SWAP2 SWAP1 DUP2 DUP2 MSTORE PUSH1 0x20 ADD DUP4 DUP4 PUSH1 0x20 MUL DUP1 DUP3 DUP5 CALLDATACOPY PUSH1 0x0 DUP2 DUP5 ADD MSTORE PUSH1 0x1F NOT PUSH1 0x1F DUP3 ADD AND SWAP1 POP DUP1 DUP4 ADD SWAP3 POP POP POP POP POP POP POP DUP5 PUSH2 0xB50 JUMP JUMPDEST SWAP6 SWAP5 POP POP POP POP POP JUMP JUMPDEST PUSH1 0x0 DUP1 PUSH1 0x0 PUSH2 0x590 PUSH1 0x0 DUP1 SLOAD SWAP1 PUSH2 0x100 EXP SWAP1 DIV PUSH20 0xFFFFFFFFFFFFFFFFFFFFFFFFFFFFFFFFFFFFFFFF AND DUP11 DUP11 PUSH2 0x973 JUMP JUMPDEST SWAP1 POP DUP1 PUSH20 0xFFFFFFFFFFFFFFFFFFFFFFFFFFFFFFFFFFFFFFFF AND PUSH4 0x23B872DD CALLER DUP4 DUP11 PUSH1 0x40 MLOAD DUP5 PUSH4 0xFFFFFFFF AND PUSH1 0xE0 SHL DUP2 MSTORE PUSH1 0x4 ADD PUSH2 0x5CF SWAP4 SWAP3 SWAP2 SWAP1 PUSH2 0x17D1 JUMP JUMPDEST PUSH1 0x20 PUSH1 0x40 MLOAD DUP1 DUP4 SUB DUP2 PUSH1 0x0 DUP8 GAS CALL ISZERO DUP1 ISZERO PUSH2 0x5EE JUMPI RETURNDATASIZE PUSH1 0x0 DUP1 RETURNDATACOPY RETURNDATASIZE PUSH1 0x0 REVERT JUMPDEST POP POP POP POP PUSH1 0x40 MLOAD RETURNDATASIZE PUSH1 0x1F NOT PUSH1 0x1F DUP3 ADD AND DUP3 ADD DUP1 PUSH1 0x40 MSTORE POP DUP2 ADD SWAP1 PUSH2 0x612 SWAP2 SWAP1 PUSH2 0x1840 JUMP JUMPDEST POP DUP1 PUSH20 0xFFFFFFFFFFFFFFFFFFFFFFFFFFFFFFFFFFFFFFFF AND PUSH4 0x89AFCB44 DUP6 PUSH1 0x40 MLOAD DUP3 PUSH4 0xFFFFFFFF AND PUSH1 0xE0 SHL DUP2 MSTORE PUSH1 0x4 ADD PUSH2 0x64C SWAP2 SWAP1 PUSH2 0x186D JUMP JUMPDEST PUSH1 0x40 DUP1 MLOAD DUP1 DUP4 SUB DUP2 PUSH1 0x0 DUP8 GAS CALL ISZERO DUP1 ISZERO PUSH2 0x66A JUMPI RETURNDATASIZE PUSH1 0x0 DUP1 RETURNDATACOPY RETURNDATASIZE PUSH1 0x0 REVERT JUMPDEST POP POP POP POP PUSH1 0x40 MLOAD RETURNDATASIZE PUSH1 0x1F NOT PUSH1 0x1F DUP3 ADD AND DUP3 ADD DUP1 PUSH1 0x40 MSTORE POP DUP2 ADD SWAP1 PUSH2 0x68E SWAP2 SWAP1 PUSH2 0x1888 JUMP JUMPDEST DUP1 SWAP4 POP DUP2 SWAP5 POP POP POP DUP6 DUP4 LT ISZERO PUSH2 0x6D0 JUMPI PUSH1 0x40 MLOAD PUSH32 0x8DC525D100000000000000000000000000000000000000000000000000000000 DUP2 MSTORE PUSH1 0x4 ADD PUSH1 0x40 MLOAD DUP1 SWAP2 SUB SWAP1 REVERT JUMPDEST DUP5 DUP3 LT ISZERO PUSH2 0x70A JUMPI PUSH1 0x40 MLOAD PUSH32 0xEF71D09100000000000000000000000000000000000000000000000000000000 DUP2 MSTORE PUSH1 0x4 ADD PUSH1 0x40 MLOAD DUP1 SWAP2 SUB SWAP1 REVERT JUMPDEST POP SWAP7 POP SWAP7 SWAP5 POP POP POP POP POP JUMP JUMPDEST PUSH1 0x0 DUP1 PUSH1 0x0 DUP1 PUSH20 0xFFFFFFFFFFFFFFFFFFFFFFFFFFFFFFFFFFFFFFFF AND PUSH1 0x0 DUP1 SLOAD SWAP1 PUSH2 0x100 EXP SWAP1 DIV PUSH20 0xFFFFFFFFFFFFFFFFFFFFFFFFFFFFFFFFFFFFFFFF AND PUSH20 0xFFFFFFFFFFFFFFFFFFFFFFFFFFFFFFFFFFFFFFFF AND PUSH4 0x69454B86 DUP13 DUP13 PUSH1 0x40 MLOAD DUP4 PUSH4 0xFFFFFFFF AND PUSH1 0xE0 SHL DUP2 MSTORE PUSH1 0x4 ADD PUSH2 0x78D SWAP3 SWAP2 SWAP1 PUSH2 0x18C8 JUMP JUMPDEST PUSH1 0x20 PUSH1 0x40 MLOAD DUP1 DUP4 SUB DUP2 DUP7 GAS STATICCALL ISZERO DUP1 ISZERO PUSH2 0x7AA JUMPI RETURNDATASIZE PUSH1 0x0 DUP1 RETURNDATACOPY RETURNDATASIZE PUSH1 0x0 REVERT JUMPDEST POP POP POP POP PUSH1 0x40 MLOAD RETURNDATASIZE PUSH1 0x1F NOT PUSH1 0x1F DUP3 ADD AND DUP3 ADD DUP1 PUSH1 0x40 MSTORE POP DUP2 ADD SWAP1 PUSH2 0x7CE SWAP2 SWAP1 PUSH2 0x1906 JUMP JUMPDEST PUSH20 0xFFFFFFFFFFFFFFFFFFFFFFFFFFFFFFFFFFFFFFFF AND EQ ISZERO PUSH2 0x88A JUMPI PUSH1 0x0 DUP1 SLOAD SWAP1 PUSH2 0x100 EXP SWAP1 DIV PUSH20 0xFFFFFFFFFFFFFFFFFFFFFFFFFFFFFFFFFFFFFFFF AND PUSH20 0xFFFFFFFFFFFFFFFFFFFFFFFFFFFFFFFFFFFFFFFF AND PUSH4 0xC9C65396 DUP12 DUP12 PUSH1 0x40 MLOAD DUP4 PUSH4 0xFFFFFFFF AND PUSH1 0xE0 SHL DUP2 MSTORE PUSH1 0x4 ADD PUSH2 0x845 SWAP3 SWAP2 SWAP1 PUSH2 0x18C8 JUMP JUMPDEST PUSH1 0x20 PUSH1 0x40 MLOAD DUP1 DUP4 SUB DUP2 PUSH1 0x0 DUP8 GAS CALL ISZERO DUP1 ISZERO PUSH2 0x864 JUMPI RETURNDATASIZE PUSH1 0x0 DUP1 RETURNDATACOPY RETURNDATASIZE PUSH1 0x0 REVERT JUMPDEST POP POP POP POP PUSH1 0x40 MLOAD RETURNDATASIZE PUSH1 0x1F NOT PUSH1 0x1F DUP3 ADD AND DUP3 ADD DUP1 PUSH1 0x40 MSTORE POP DUP2 ADD SWAP1 PUSH2 0x888 SWAP2 SWAP1 PUSH2 0x1906 JUMP JUMPDEST POP JUMPDEST PUSH2 0x898 DUP11 DUP11 DUP11 DUP11 DUP11 DUP11 PUSH2 0xD5A JUMP JUMPDEST DUP1 SWAP4 POP DUP2 SWAP5 POP POP POP PUSH1 0x0 PUSH2 0x8CD PUSH1 0x0 DUP1 SLOAD SWAP1 PUSH2 0x100 EXP SWAP1 DIV PUSH20 0xFFFFFFFFFFFFFFFFFFFFFFFFFFFFFFFFFFFFFFFF AND DUP13 DUP13 PUSH2 0x973 JUMP JUMPDEST SWAP1 POP PUSH2 0x8DB DUP12 CALLER DUP4 DUP8 PUSH2 0x9E5 JUMP JUMPDEST PUSH2 0x8E7 DUP11 CALLER DUP4 DUP7 PUSH2 0x9E5 JUMP JUMPDEST DUP1 PUSH20 0xFFFFFFFFFFFFFFFFFFFFFFFFFFFFFFFFFFFFFFFF AND PUSH4 0x6A627842 DUP7 PUSH1 0x40 MLOAD DUP3 PUSH4 0xFFFFFFFF AND PUSH1 0xE0 SHL DUP2 MSTORE PUSH1 0x4 ADD PUSH2 0x920 SWAP2 SWAP1 PUSH2 0x186D JUMP JUMPDEST PUSH1 0x20 PUSH1 0x40 MLOAD DUP1 DUP4 SUB DUP2 PUSH1 0x0 DUP8 GAS CALL ISZERO DUP1 ISZERO PUSH2 0x93F JUMPI RETURNDATASIZE PUSH1 0x0 DUP1 RETURNDATACOPY RETURNDATASIZE PUSH1 0x0 REVERT JUMPDEST POP POP POP POP PUSH1 0x40 MLOAD RETURNDATASIZE PUSH1 0x1F NOT PUSH1 0x1F DUP3 ADD AND DUP3 ADD DUP1 PUSH1 0x40 MSTORE POP DUP2 ADD SWAP1 PUSH2 0x963 SWAP2 SWAP1 PUSH2 0x1933 JUMP JUMPDEST SWAP2 POP POP SWAP8 POP SWAP8 POP SWAP8 SWAP5 POP POP POP POP POP JUMP JUMPDEST PUSH1 0x0 DUP1 PUSH1 0x0 PUSH2 0x982 DUP6 DUP6 PUSH2 0xFD7 JUMP JUMPDEST SWAP2 POP SWAP2 POP DUP6 DUP3 DUP3 PUSH1 0x40 MLOAD PUSH1 0x20 ADD PUSH2 0x99A SWAP3 SWAP2 SWAP1 PUSH2 0x19A8 JUMP JUMPDEST PUSH1 0x40 MLOAD PUSH1 0x20 DUP2 DUP4 SUB SUB DUP2 MSTORE SWAP1 PUSH1 0x40 MSTORE DUP1 MLOAD SWAP1 PUSH1 0x20 ADD KECCAK256 PUSH1 0x40 MLOAD PUSH1 0x20 ADD PUSH2 0x9C1 SWAP3 SWAP2 SWAP1 PUSH2 0x1AA2 JUMP JUMPDEST PUSH1 0x40 MLOAD PUSH1 0x20 DUP2 DUP4 SUB SUB DUP2 MSTORE SWAP1 PUSH1 0x40 MSTORE DUP1 MLOAD SWAP1 PUSH1 0x20 ADD KECCAK256 PUSH1 0x0 SHR SWAP3 POP POP POP SWAP4 SWAP3 POP POP POP JUMP JUMPDEST PUSH1 0x0 DUP1 DUP6 PUSH20 0xFFFFFFFFFFFFFFFFFFFFFFFFFFFFFFFFFFFFFFFF AND DUP6 DUP6 DUP6 PUSH1 0x40 MLOAD PUSH1 0x24 ADD PUSH2 0xA14 SWAP4 SWAP3 SWAP2 SWAP1 PUSH2 0x17D1 JUMP JUMPDEST PUSH1 0x40 MLOAD PUSH1 0x20 DUP2 DUP4 SUB SUB DUP2 MSTORE SWAP1 PUSH1 0x40 MSTORE PUSH32 0x23B872DD00000000000000000000000000000000000000000000000000000000 PUSH28 0xFFFFFFFFFFFFFFFFFFFFFFFFFFFFFFFFFFFFFFFFFFFFFFFFFFFFFFFF NOT AND PUSH1 0x20 DUP3 ADD DUP1 MLOAD PUSH28 0xFFFFFFFFFFFFFFFFFFFFFFFFFFFFFFFFFFFFFFFFFFFFFFFFFFFFFFFF DUP4 DUP2 DUP4 AND OR DUP4 MSTORE POP POP POP POP PUSH1 0x40 MLOAD PUSH2 0xA9E SWAP2 SWAP1 PUSH2 0x1B5E JUMP JUMPDEST PUSH1 0x0 PUSH1 0x40 MLOAD DUP1 DUP4 SUB DUP2 PUSH1 0x0 DUP7 GAS CALL SWAP2 POP POP RETURNDATASIZE DUP1 PUSH1 0x0 DUP2 EQ PUSH2 0xADB JUMPI PUSH1 0x40 MLOAD SWAP2 POP PUSH1 0x1F NOT PUSH1 0x3F RETURNDATASIZE ADD AND DUP3 ADD PUSH1 0x40 MSTORE RETURNDATASIZE DUP3 MSTORE RETURNDATASIZE PUSH1 0x0 PUSH1 0x20 DUP5 ADD RETURNDATACOPY PUSH2 0xAE0 JUMP JUMPDEST PUSH1 0x60 SWAP2 POP JUMPDEST POP SWAP2 POP SWAP2 POP DUP2 ISZERO DUP1 PUSH2 0xB11 JUMPI POP PUSH1 0x0 DUP2 MLOAD EQ ISZERO DUP1 ISZERO PUSH2 0xB10 JUMPI POP DUP1 DUP1 PUSH1 0x20 ADD SWAP1 MLOAD DUP2 ADD SWAP1 PUSH2 0xB0E SWAP2 SWAP1 PUSH2 0x1840 JUMP JUMPDEST ISZERO JUMPDEST JUMPDEST ISZERO PUSH2 0xB48 JUMPI PUSH1 0x40 MLOAD PUSH32 0xFB7F507900000000000000000000000000000000000000000000000000000000 DUP2 MSTORE PUSH1 0x4 ADD PUSH1 0x40 MLOAD DUP1 SWAP2 SUB SWAP1 REVERT JUMPDEST POP POP POP POP POP POP JUMP JUMPDEST PUSH1 0x0 JUMPDEST PUSH1 0x1 DUP4 MLOAD PUSH2 0xB61 SWAP2 SWAP1 PUSH2 0x1732 JUMP JUMPDEST DUP2 LT ISZERO PUSH2 0xD54 JUMPI PUSH1 0x0 DUP1 DUP5 DUP4 DUP2 MLOAD DUP2 LT PUSH2 0xB7E JUMPI PUSH2 0xB7D PUSH2 0x1766 JUMP JUMPDEST JUMPDEST PUSH1 0x20 MUL PUSH1 0x20 ADD ADD MLOAD DUP6 PUSH1 0x1 DUP6 PUSH2 0xB94 SWAP2 SWAP1 PUSH2 0x1B75 JUMP JUMPDEST DUP2 MLOAD DUP2 LT PUSH2 0xBA5 JUMPI PUSH2 0xBA4 PUSH2 0x1766 JUMP JUMPDEST JUMPDEST PUSH1 0x20 MUL PUSH1 0x20 ADD ADD MLOAD SWAP2 POP SWAP2 POP PUSH1 0x0 PUSH2 0xBBD DUP4 DUP4 PUSH2 0xFD7 JUMP JUMPDEST POP SWAP1 POP PUSH1 0x0 DUP8 PUSH1 0x1 DUP7 PUSH2 0xBD0 SWAP2 SWAP1 PUSH2 0x1B75 JUMP JUMPDEST DUP2 MLOAD DUP2 LT PUSH2 0xBE1 JUMPI PUSH2 0xBE0 PUSH2 0x1766 JUMP JUMPDEST JUMPDEST PUSH1 0x20 MUL PUSH1 0x20 ADD ADD MLOAD SWAP1 POP PUSH1 0x0 DUP1 DUP4 PUSH20 0xFFFFFFFFFFFFFFFFFFFFFFFFFFFFFFFFFFFFFFFF AND DUP7 PUSH20 0xFFFFFFFFFFFFFFFFFFFFFFFFFFFFFFFFFFFFFFFF AND EQ PUSH2 0xC29 JUMPI DUP3 PUSH1 0x0 PUSH2 0xC2D JUMP JUMPDEST PUSH1 0x0 DUP4 JUMPDEST SWAP2 POP SWAP2 POP PUSH1 0x0 PUSH1 0x2 DUP11 MLOAD PUSH2 0xC41 SWAP2 SWAP1 PUSH2 0x1732 JUMP JUMPDEST DUP9 LT PUSH2 0xC4D JUMPI DUP9 PUSH2 0xC9F JUMP JUMPDEST PUSH2 0xC9E PUSH1 0x0 DUP1 SLOAD SWAP1 PUSH2 0x100 EXP SWAP1 DIV PUSH20 0xFFFFFFFFFFFFFFFFFFFFFFFFFFFFFFFFFFFFFFFF AND DUP8 DUP13 PUSH1 0x2 DUP13 PUSH2 0xC80 SWAP2 SWAP1 PUSH2 0x1B75 JUMP JUMPDEST DUP2 MLOAD DUP2 LT PUSH2 0xC91 JUMPI PUSH2 0xC90 PUSH2 0x1766 JUMP JUMPDEST JUMPDEST PUSH1 0x20 MUL PUSH1 0x20 ADD ADD MLOAD PUSH2 0x973 JUMP JUMPDEST JUMPDEST SWAP1 POP PUSH2 0xCCC PUSH1 0x0 DUP1 SLOAD SWAP1 PUSH2 0x100 EXP SWAP1 DIV PUSH20 0xFFFFFFFFFFFFFFFFFFFFFFFFFFFFFFFFFFFFFFFF AND DUP9 DUP9 PUSH2 0x973 JUMP JUMPDEST PUSH20 0xFFFFFFFFFFFFFFFFFFFFFFFFFFFFFFFFFFFFFFFF AND PUSH4 0x6D9A640A DUP5 DUP5 DUP5 PUSH1 0x40 MLOAD DUP5 PUSH4 0xFFFFFFFF AND PUSH1 0xE0 SHL DUP2 MSTORE PUSH1 0x4 ADD PUSH2 0xD08 SWAP4 SWAP3 SWAP2 SWAP1 PUSH2 0x1BCB JUMP JUMPDEST PUSH1 0x0 PUSH1 0x40 MLOAD DUP1 DUP4 SUB DUP2 PUSH1 0x0 DUP8 DUP1 EXTCODESIZE ISZERO DUP1 ISZERO PUSH2 0xD22 JUMPI PUSH1 0x0 DUP1 REVERT JUMPDEST POP GAS CALL ISZERO DUP1 ISZERO PUSH2 0xD36 JUMPI RETURNDATASIZE PUSH1 0x0 DUP1 RETURNDATACOPY RETURNDATASIZE PUSH1 0x0 REVERT JUMPDEST POP POP POP POP POP POP POP POP POP POP POP DUP1 DUP1 PUSH2 0xD4C SWAP1 PUSH2 0x1C02 JUMP JUMPDEST SWAP2 POP POP PUSH2 0xB53 JUMP JUMPDEST POP POP POP POP JUMP JUMPDEST PUSH1 0x0 DUP1 PUSH1 0x0 DUP1 PUSH20 0x0 PUSH4 0x32749461 PUSH1 0x0 DUP1 SLOAD SWAP1 PUSH2 0x100 EXP SWAP1 DIV PUSH20 0xFFFFFFFFFFFFFFFFFFFFFFFFFFFFFFFFFFFFFFFF AND DUP13 DUP13 PUSH1 0x40 MLOAD DUP5 PUSH4 0xFFFFFFFF AND PUSH1 0xE0 SHL DUP2 MSTORE PUSH1 0x4 ADD PUSH2 0xDBB SWAP4 SWAP3 SWAP2 SWAP1 PUSH2 0x1C4B JUMP JUMPDEST PUSH1 0x40 DUP1 MLOAD DUP1 DUP4 SUB DUP2 DUP7 GAS DELEGATECALL ISZERO DUP1 ISZERO PUSH2 0xDD7 JUMPI RETURNDATASIZE PUSH1 0x0 DUP1 RETURNDATACOPY RETURNDATASIZE PUSH1 0x0 REVERT JUMPDEST POP POP POP POP PUSH1 0x40 MLOAD RETURNDATASIZE PUSH1 0x1F NOT PUSH1 0x1F DUP3 ADD AND DUP3 ADD DUP1 PUSH1 0x40 MSTORE POP DUP2 ADD SWAP1 PUSH2 0xDFB SWAP2 SWAP1 PUSH2 0x1888 JUMP JUMPDEST SWAP2 POP SWAP2 POP PUSH1 0x0 DUP3 EQ DUP1 ISZERO PUSH2 0xE0F JUMPI POP PUSH1 0x0 DUP2 EQ JUMPDEST ISZERO PUSH2 0xE23 JUMPI DUP8 DUP8 DUP1 SWAP5 POP DUP2 SWAP6 POP POP POP PUSH2 0xFCA JUMP JUMPDEST PUSH1 0x0 PUSH20 0x0 PUSH4 0xAD615DEC DUP11 DUP6 DUP6 PUSH1 0x40 MLOAD DUP5 PUSH4 0xFFFFFFFF AND PUSH1 0xE0 SHL DUP2 MSTORE PUSH1 0x4 ADD PUSH2 0xE60 SWAP4 SWAP3 SWAP2 SWAP1 PUSH2 0x1C82 JUMP JUMPDEST PUSH1 0x20 PUSH1 0x40 MLOAD DUP1 DUP4 SUB DUP2 DUP7 GAS DELEGATECALL ISZERO DUP1 ISZERO PUSH2 0xE7D JUMPI RETURNDATASIZE PUSH1 0x0 DUP1 RETURNDATACOPY RETURNDATASIZE PUSH1 0x0 REVERT JUMPDEST POP POP POP POP PUSH1 0x40 MLOAD RETURNDATASIZE PUSH1 0x1F NOT PUSH1 0x1F DUP3 ADD AND DUP3 ADD DUP1 PUSH1 0x40 MSTORE POP DUP2 ADD SWAP1 PUSH2 0xEA1 SWAP2 SWAP1 PUSH2 0x1933 JUMP JUMPDEST SWAP1 POP DUP8 DUP2 GT PUSH2 0xEF2 JUMPI DUP6 DUP2 GT PUSH2 0xEE3 JUMPI PUSH1 0x40 MLOAD PUSH32 0xEF71D09100000000000000000000000000000000000000000000000000000000 DUP2 MSTORE PUSH1 0x4 ADD PUSH1 0x40 MLOAD DUP1 SWAP2 SUB SWAP1 REVERT JUMPDEST DUP9 DUP2 DUP1 SWAP6 POP DUP2 SWAP7 POP POP POP PUSH2 0xFC8 JUMP JUMPDEST PUSH1 0x0 PUSH20 0x0 PUSH4 0xAD615DEC DUP11 DUP6 DUP8 PUSH1 0x40 MLOAD DUP5 PUSH4 0xFFFFFFFF AND PUSH1 0xE0 SHL DUP2 MSTORE PUSH1 0x4 ADD PUSH2 0xF2F SWAP4 SWAP3 SWAP2 SWAP1 PUSH2 0x1C82 JUMP JUMPDEST PUSH1 0x20 PUSH1 0x40 MLOAD DUP1 DUP4 SUB DUP2 DUP7 GAS DELEGATECALL ISZERO DUP1 ISZERO PUSH2 0xF4C JUMPI RETURNDATASIZE PUSH1 0x0 DUP1 RETURNDATACOPY RETURNDATASIZE PUSH1 0x0 REVERT JUMPDEST POP POP POP POP PUSH1 0x40 MLOAD RETURNDATASIZE PUSH1 0x1F NOT PUSH1 0x1F DUP3 ADD AND DUP3 ADD DUP1 PUSH1 0x40 MSTORE POP DUP2 ADD SWAP1 PUSH2 0xF70 SWAP2 SWAP1 PUSH2 0x1933 JUMP JUMPDEST SWAP1 POP DUP10 DUP2 GT ISZERO PUSH2 0xF83 JUMPI PUSH2 0xF82 PUSH2 0x1CB9 JUMP JUMPDEST JUMPDEST DUP8 DUP2 GT PUSH2 0xFBC JUMPI PUSH1 0x40 MLOAD PUSH32 0x8DC525D100000000000000000000000000000000000000000000000000000000 DUP2 MSTORE PUSH1 0x4 ADD PUSH1 0x40 MLOAD DUP1 SWAP2 SUB SWAP1 REVERT JUMPDEST DUP1 DUP10 DUP1 SWAP7 POP DUP2 SWAP8 POP POP POP POP JUMPDEST POP JUMPDEST POP POP SWAP7 POP SWAP7 SWAP5 POP POP POP POP POP JUMP JUMPDEST PUSH1 0x0 DUP1 DUP3 PUSH20 0xFFFFFFFFFFFFFFFFFFFFFFFFFFFFFFFFFFFFFFFF AND DUP5 PUSH20 0xFFFFFFFFFFFFFFFFFFFFFFFFFFFFFFFFFFFFFFFF AND LT PUSH2 0x1014 JUMPI DUP3 DUP5 PUSH2 0x1017 JUMP JUMPDEST DUP4 DUP4 JUMPDEST SWAP2 POP SWAP2 POP SWAP3 POP SWAP3 SWAP1 POP JUMP JUMPDEST PUSH1 0x0 PUSH1 0x40 MLOAD SWAP1 POP SWAP1 JUMP JUMPDEST PUSH1 0x0 DUP1 REVERT JUMPDEST PUSH1 0x0 DUP1 REVERT JUMPDEST PUSH1 0x0 DUP2 SWAP1 POP SWAP2 SWAP1 POP JUMP JUMPDEST PUSH2 0x1049 DUP2 PUSH2 0x1036 JUMP JUMPDEST DUP2 EQ PUSH2 0x1054 JUMPI PUSH1 0x0 DUP1 REVERT JUMPDEST POP JUMP JUMPDEST PUSH1 0x0 DUP2 CALLDATALOAD SWAP1 POP PUSH2 0x1066 DUP2 PUSH2 0x1040 JUMP JUMPDEST SWAP3 SWAP2 POP POP JUMP JUMPDEST PUSH1 0x0 DUP1 REVERT JUMPDEST PUSH1 0x0 DUP1 REVERT JUMPDEST PUSH1 0x0 DUP1 REVERT JUMPDEST PUSH1 0x0 DUP1 DUP4 PUSH1 0x1F DUP5 ADD SLT PUSH2 0x1091 JUMPI PUSH2 0x1090 PUSH2 0x106C JUMP JUMPDEST JUMPDEST DUP3 CALLDATALOAD SWAP1 POP PUSH8 0xFFFFFFFFFFFFFFFF DUP2 GT ISZERO PUSH2 0x10AE JUMPI PUSH2 0x10AD PUSH2 0x1071 JUMP JUMPDEST JUMPDEST PUSH1 0x20 DUP4 ADD SWAP2 POP DUP4 PUSH1 0x20 DUP3 MUL DUP4 ADD GT ISZERO PUSH2 0x10CA JUMPI PUSH2 0x10C9 PUSH2 0x1076 JUMP JUMPDEST JUMPDEST SWAP3 POP SWAP3 SWAP1 POP JUMP JUMPDEST PUSH1 0x0 PUSH20 0xFFFFFFFFFFFFFFFFFFFFFFFFFFFFFFFFFFFFFFFF DUP3 AND SWAP1 POP SWAP2 SWAP1 POP JUMP JUMPDEST PUSH1 0x0 PUSH2 0x10FC DUP3 PUSH2 0x10D1 JUMP JUMPDEST SWAP1 POP SWAP2 SWAP1 POP JUMP JUMPDEST PUSH2 0x110C DUP2 PUSH2 0x10F1 JUMP JUMPDEST DUP2 EQ PUSH2 0x1117 JUMPI PUSH1 0x0 DUP1 REVERT JUMPDEST POP JUMP JUMPDEST PUSH1 0x0 DUP2 CALLDATALOAD SWAP1 POP PUSH2 0x1129 DUP2 PUSH2 0x1103 JUMP JUMPDEST SWAP3 SWAP2 POP POP JUMP JUMPDEST PUSH1 0x0 DUP1 PUSH1 0x0 DUP1 PUSH1 0x0 PUSH1 0x80 DUP7 DUP9 SUB SLT ISZERO PUSH2 0x114B JUMPI PUSH2 0x114A PUSH2 0x102C JUMP JUMPDEST JUMPDEST PUSH1 0x0 PUSH2 0x1159 DUP9 DUP3 DUP10 ADD PUSH2 0x1057 JUMP JUMPDEST SWAP6 POP POP PUSH1 0x20 PUSH2 0x116A DUP9 DUP3 DUP10 ADD PUSH2 0x1057 JUMP JUMPDEST SWAP5 POP POP PUSH1 0x40 DUP7 ADD CALLDATALOAD PUSH8 0xFFFFFFFFFFFFFFFF DUP2 GT ISZERO PUSH2 0x118B JUMPI PUSH2 0x118A PUSH2 0x1031 JUMP JUMPDEST JUMPDEST PUSH2 0x1197 DUP9 DUP3 DUP10 ADD PUSH2 0x107B JUMP JUMPDEST SWAP4 POP SWAP4 POP POP PUSH1 0x60 PUSH2 0x11AA DUP9 DUP3 DUP10 ADD PUSH2 0x111A JUMP JUMPDEST SWAP2 POP POP SWAP3 SWAP6 POP SWAP3 SWAP6 SWAP1 SWAP4 POP JUMP JUMPDEST PUSH1 0x0 DUP2 MLOAD SWAP1 POP SWAP2 SWAP1 POP JUMP JUMPDEST PUSH1 0x0 DUP3 DUP3 MSTORE PUSH1 0x20 DUP3 ADD SWAP1 POP SWAP3 SWAP2 POP POP JUMP JUMPDEST PUSH1 0x0 DUP2 SWAP1 POP PUSH1 0x20 DUP3 ADD SWAP1 POP SWAP2 SWAP1 POP JUMP JUMPDEST PUSH2 0x11EC DUP2 PUSH2 0x1036 JUMP JUMPDEST DUP3 MSTORE POP POP JUMP JUMPDEST PUSH1 0x0 PUSH2 0x11FE DUP4 DUP4 PUSH2 0x11E3 JUMP JUMPDEST PUSH1 0x20 DUP4 ADD SWAP1 POP SWAP3 SWAP2 POP POP JUMP JUMPDEST PUSH1 0x0 PUSH1 0x20 DUP3 ADD SWAP1 POP SWAP2 SWAP1 POP JUMP JUMPDEST PUSH1 0x0 PUSH2 0x1222 DUP3 PUSH2 0x11B7 JUMP JUMPDEST PUSH2 0x122C DUP2 DUP6 PUSH2 0x11C2 JUMP JUMPDEST SWAP4 POP PUSH2 0x1237 DUP4 PUSH2 0x11D3 JUMP JUMPDEST DUP1 PUSH1 0x0 JUMPDEST DUP4 DUP2 LT ISZERO PUSH2 0x1268 JUMPI DUP2 MLOAD PUSH2 0x124F DUP9 DUP3 PUSH2 0x11F2 JUMP JUMPDEST SWAP8 POP PUSH2 0x125A DUP4 PUSH2 0x120A JUMP JUMPDEST SWAP3 POP POP PUSH1 0x1 DUP2 ADD SWAP1 POP PUSH2 0x123B JUMP JUMPDEST POP DUP6 SWAP4 POP POP POP POP SWAP3 SWAP2 POP POP JUMP JUMPDEST PUSH1 0x0 PUSH1 0x20 DUP3 ADD SWAP1 POP DUP2 DUP2 SUB PUSH1 0x0 DUP4 ADD MSTORE PUSH2 0x128F DUP2 DUP5 PUSH2 0x1217 JUMP JUMPDEST SWAP1 POP SWAP3 SWAP2 POP POP JUMP JUMPDEST PUSH1 0x0 DUP1 PUSH1 0x0 DUP1 PUSH1 0x0 DUP1 PUSH1 0xC0 DUP8 DUP10 SUB SLT ISZERO PUSH2 0x12B4 JUMPI PUSH2 0x12B3 PUSH2 0x102C JUMP JUMPDEST JUMPDEST PUSH1 0x0 PUSH2 0x12C2 DUP10 DUP3 DUP11 ADD PUSH2 0x111A JUMP JUMPDEST SWAP7 POP POP PUSH1 0x20 PUSH2 0x12D3 DUP10 DUP3 DUP11 ADD PUSH2 0x111A JUMP JUMPDEST SWAP6 POP POP PUSH1 0x40 PUSH2 0x12E4 DUP10 DUP3 DUP11 ADD PUSH2 0x1057 JUMP JUMPDEST SWAP5 POP POP PUSH1 0x60 PUSH2 0x12F5 DUP10 DUP3 DUP11 ADD PUSH2 0x1057 JUMP JUMPDEST SWAP4 POP POP PUSH1 0x80 PUSH2 0x1306 DUP10 DUP3 DUP11 ADD PUSH2 0x1057 JUMP JUMPDEST SWAP3 POP POP PUSH1 0xA0 PUSH2 0x1317 DUP10 DUP3 DUP11 ADD PUSH2 0x111A JUMP JUMPDEST SWAP2 POP POP SWAP3 SWAP6 POP SWAP3 SWAP6 POP SWAP3 SWAP6 JUMP JUMPDEST PUSH2 0x132D DUP2 PUSH2 0x1036 JUMP JUMPDEST DUP3 MSTORE POP POP JUMP JUMPDEST PUSH1 0x0 PUSH1 0x40 DUP3 ADD SWAP1 POP PUSH2 0x1348 PUSH1 0x0 DUP4 ADD DUP6 PUSH2 0x1324 JUMP JUMPDEST PUSH2 0x1355 PUSH1 0x20 DUP4 ADD DUP5 PUSH2 0x1324 JUMP JUMPDEST SWAP4 SWAP3 POP POP POP JUMP JUMPDEST PUSH1 0x0 DUP1 PUSH1 0x0 DUP1 PUSH1 0x0 DUP1 PUSH1 0x0 PUSH1 0xE0 DUP9 DUP11 SUB SLT ISZERO PUSH2 0x137B JUMPI PUSH2 0x137A PUSH2 0x102C JUMP JUMPDEST JUMPDEST PUSH1 0x0 PUSH2 0x1389 DUP11 DUP3 DUP12 ADD PUSH2 0x111A JUMP JUMPDEST SWAP8 POP POP PUSH1 0x20 PUSH2 0x139A DUP11 DUP3 DUP12 ADD PUSH2 0x111A JUMP JUMPDEST SWAP7 POP POP PUSH1 0x40 PUSH2 0x13AB DUP11 DUP3 DUP12 ADD PUSH2 0x1057 JUMP JUMPDEST SWAP6 POP POP PUSH1 0x60 PUSH2 0x13BC DUP11 DUP3 DUP12 ADD PUSH2 0x1057 JUMP JUMPDEST SWAP5 POP POP PUSH1 0x80 PUSH2 0x13CD DUP11 DUP3 DUP12 ADD PUSH2 0x1057 JUMP JUMPDEST SWAP4 POP POP PUSH1 0xA0 PUSH2 0x13DE DUP11 DUP3 DUP12 ADD PUSH2 0x1057 JUMP JUMPDEST SWAP3 POP POP PUSH1 0xC0 PUSH2 0x13EF DUP11 DUP3 DUP12 ADD PUSH2 0x111A JUMP JUMPDEST SWAP2 POP POP SWAP3 SWAP6 SWAP9 SWAP2 SWAP5 SWAP8 POP SWAP3 SWAP6 POP JUMP JUMPDEST PUSH1 0x0 PUSH1 0x60 DUP3 ADD SWAP1 POP PUSH2 0x1413 PUSH1 0x0 DUP4 ADD DUP7 PUSH2 0x1324 JUMP JUMPDEST PUSH2 0x1420 PUSH1 0x20 DUP4 ADD DUP6 PUSH2 0x1324 JUMP JUMPDEST PUSH2 0x142D PUSH1 0x40 DUP4 ADD DUP5 PUSH2 0x1324 JUMP JUMPDEST SWAP5 SWAP4 POP POP POP POP JUMP JUMPDEST PUSH2 0x143E DUP2 PUSH2 0x10F1 JUMP JUMPDEST DUP3 MSTORE POP POP JUMP JUMPDEST PUSH2 0x144D DUP2 PUSH2 0x1036 JUMP JUMPDEST DUP3 MSTORE POP POP JUMP JUMPDEST PUSH1 0x0 DUP3 DUP3 MSTORE PUSH1 0x20 DUP3 ADD SWAP1 POP SWAP3 SWAP2 POP POP JUMP JUMPDEST PUSH1 0x0 DUP2 SWAP1 POP SWAP2 SWAP1 POP JUMP JUMPDEST PUSH2 0x1477 DUP2 PUSH2 0x10F1 JUMP JUMPDEST DUP3 MSTORE POP POP JUMP JUMPDEST PUSH1 0x0 PUSH2 0x1489 DUP4 DUP4 PUSH2 0x146E JUMP JUMPDEST PUSH1 0x20 DUP4 ADD SWAP1 POP SWAP3 SWAP2 POP POP JUMP JUMPDEST PUSH1 0x0 PUSH2 0x14A4 PUSH1 0x20 DUP5 ADD DUP5 PUSH2 0x111A JUMP JUMPDEST SWAP1 POP SWAP3 SWAP2 POP POP JUMP JUMPDEST PUSH1 0x0 PUSH1 0x20 DUP3 ADD SWAP1 POP SWAP2 SWAP1 POP JUMP JUMPDEST PUSH1 0x0 PUSH2 0x14C5 DUP4 DUP6 PUSH2 0x1453 JUMP JUMPDEST SWAP4 POP PUSH2 0x14D0 DUP3 PUSH2 0x1464 JUMP JUMPDEST DUP1 PUSH1 0x0 JUMPDEST DUP6 DUP2 LT ISZERO PUSH2 0x1509 JUMPI PUSH2 0x14E6 DUP3 DUP5 PUSH2 0x1495 JUMP JUMPDEST PUSH2 0x14F0 DUP9 DUP3 PUSH2 0x147D JUMP JUMPDEST SWAP8 POP PUSH2 0x14FB DUP4 PUSH2 0x14AC JUMP JUMPDEST SWAP3 POP POP PUSH1 0x1 DUP2 ADD SWAP1 POP PUSH2 0x14D4 JUMP JUMPDEST POP DUP6 SWAP3 POP POP POP SWAP4 SWAP3 POP POP POP JUMP JUMPDEST PUSH1 0x0 PUSH1 0x60 DUP3 ADD SWAP1 POP PUSH2 0x152B PUSH1 0x0 DUP4 ADD DUP8 PUSH2 0x1435 JUMP JUMPDEST PUSH2 0x1538 PUSH1 0x20 DUP4 ADD DUP7 PUSH2 0x1444 JUMP JUMPDEST DUP2 DUP2 SUB PUSH1 0x40 DUP4 ADD MSTORE PUSH2 0x154B DUP2 DUP5 DUP7 PUSH2 0x14B9 JUMP JUMPDEST SWAP1 POP SWAP6 SWAP5 POP POP POP POP POP JUMP JUMPDEST PUSH1 0x0 PUSH1 0x1F NOT PUSH1 0x1F DUP4 ADD AND SWAP1 POP SWAP2 SWAP1 POP JUMP JUMPDEST PUSH32 0x4E487B7100000000000000000000000000000000000000000000000000000000 PUSH1 0x0 MSTORE PUSH1 0x41 PUSH1 0x4 MSTORE PUSH1 0x24 PUSH1 0x0 REVERT JUMPDEST PUSH2 0x159F DUP3 PUSH2 0x1556 JUMP JUMPDEST DUP2 ADD DUP2 DUP2 LT PUSH8 0xFFFFFFFFFFFFFFFF DUP3 GT OR ISZERO PUSH2 0x15BE JUMPI PUSH2 0x15BD PUSH2 0x1567 JUMP JUMPDEST JUMPDEST DUP1 PUSH1 0x40 MSTORE POP POP POP JUMP JUMPDEST PUSH1 0x0 PUSH2 0x15D1 PUSH2 0x1022 JUMP JUMPDEST SWAP1 POP PUSH2 0x15DD DUP3 DUP3 PUSH2 0x1596 JUMP JUMPDEST SWAP2 SWAP1 POP JUMP JUMPDEST PUSH1 0x0 PUSH8 0xFFFFFFFFFFFFFFFF DUP3 GT ISZERO PUSH2 0x15FD JUMPI PUSH2 0x15FC PUSH2 0x1567 JUMP JUMPDEST JUMPDEST PUSH1 0x20 DUP3 MUL SWAP1 POP PUSH1 0x20 DUP2 ADD SWAP1 POP SWAP2 SWAP1 POP JUMP JUMPDEST PUSH1 0x0 DUP2 MLOAD SWAP1 POP PUSH2 0x161D DUP2 PUSH2 0x1040 JUMP JUMPDEST SWAP3 SWAP2 POP POP JUMP JUMPDEST PUSH1 0x0 PUSH2 0x1636 PUSH2 0x1631 DUP5 PUSH2 0x15E2 JUMP JUMPDEST PUSH2 0x15C7 JUMP JUMPDEST SWAP1 POP DUP1 DUP4 DUP3 MSTORE PUSH1 0x20 DUP3 ADD SWAP1 POP PUSH1 0x20 DUP5 MUL DUP4 ADD DUP6 DUP2 GT ISZERO PUSH2 0x1659 JUMPI PUSH2 0x1658 PUSH2 0x1076 JUMP JUMPDEST JUMPDEST DUP4 JUMPDEST DUP2 DUP2 LT ISZERO PUSH2 0x1682 JUMPI DUP1 PUSH2 0x166E DUP9 DUP3 PUSH2 0x160E JUMP JUMPDEST DUP5 MSTORE PUSH1 0x20 DUP5 ADD SWAP4 POP POP PUSH1 0x20 DUP2 ADD SWAP1 POP PUSH2 0x165B JUMP JUMPDEST POP POP POP SWAP4 SWAP3 POP POP POP JUMP JUMPDEST PUSH1 0x0 DUP3 PUSH1 0x1F DUP4 ADD SLT PUSH2 0x16A1 JUMPI PUSH2 0x16A0 PUSH2 0x106C JUMP JUMPDEST JUMPDEST DUP2 MLOAD PUSH2 0x16B1 DUP5 DUP3 PUSH1 0x20 DUP7 ADD PUSH2 0x1623 JUMP JUMPDEST SWAP2 POP POP SWAP3 SWAP2 POP POP JUMP JUMPDEST PUSH1 0x0 PUSH1 0x20 DUP3 DUP5 SUB SLT ISZERO PUSH2 0x16D0 JUMPI PUSH2 0x16CF PUSH2 0x102C JUMP JUMPDEST JUMPDEST PUSH1 0x0 DUP3 ADD MLOAD PUSH8 0xFFFFFFFFFFFFFFFF DUP2 GT ISZERO PUSH2 0x16EE JUMPI PUSH2 0x16ED PUSH2 0x1031 JUMP JUMPDEST JUMPDEST PUSH2 0x16FA DUP5 DUP3 DUP6 ADD PUSH2 0x168C JUMP JUMPDEST SWAP2 POP POP SWAP3 SWAP2 POP POP JUMP JUMPDEST PUSH32 0x4E487B7100000000000000000000000000000000000000000000000000000000 PUSH1 0x0 MSTORE PUSH1 0x11 PUSH1 0x4 MSTORE PUSH1 0x24 PUSH1 0x0 REVERT JUMPDEST PUSH1 0x0 PUSH2 0x173D DUP3 PUSH2 0x1036 JUMP JUMPDEST SWAP2 POP PUSH2 0x1748 DUP4 PUSH2 0x1036 JUMP JUMPDEST SWAP3 POP DUP3 DUP3 LT ISZERO PUSH2 0x175B JUMPI PUSH2 0x175A PUSH2 0x1703 JUMP JUMPDEST JUMPDEST DUP3 DUP3 SUB SWAP1 POP SWAP3 SWAP2 POP POP JUMP JUMPDEST PUSH32 0x4E487B7100000000000000000000000000000000000000000000000000000000 PUSH1 0x0 MSTORE PUSH1 0x32 PUSH1 0x4 MSTORE PUSH1 0x24 PUSH1 0x0 REVERT JUMPDEST PUSH1 0x0 PUSH1 0x20 DUP3 DUP5 SUB SLT ISZERO PUSH2 0x17AB JUMPI PUSH2 0x17AA PUSH2 0x102C JUMP JUMPDEST JUMPDEST PUSH1 0x0 PUSH2 0x17B9 DUP5 DUP3 DUP6 ADD PUSH2 0x111A JUMP JUMPDEST SWAP2 POP POP SWAP3 SWAP2 POP POP JUMP JUMPDEST PUSH2 0x17CB DUP2 PUSH2 0x10F1 JUMP JUMPDEST DUP3 MSTORE POP POP JUMP JUMPDEST PUSH1 0x0 PUSH1 0x60 DUP3 ADD SWAP1 POP PUSH2 0x17E6 PUSH1 0x0 DUP4 ADD DUP7 PUSH2 0x17C2 JUMP JUMPDEST PUSH2 0x17F3 PUSH1 0x20 DUP4 ADD DUP6 PUSH2 0x17C2 JUMP JUMPDEST PUSH2 0x1800 PUSH1 0x40 DUP4 ADD DUP5 PUSH2 0x1324 JUMP JUMPDEST SWAP5 SWAP4 POP POP POP POP JUMP JUMPDEST PUSH1 0x0 DUP2 ISZERO ISZERO SWAP1 POP SWAP2 SWAP1 POP JUMP JUMPDEST PUSH2 0x181D DUP2 PUSH2 0x1808 JUMP JUMPDEST DUP2 EQ PUSH2 0x1828 JUMPI PUSH1 0x0 DUP1 REVERT JUMPDEST POP JUMP JUMPDEST PUSH1 0x0 DUP2 MLOAD SWAP1 POP PUSH2 0x183A DUP2 PUSH2 0x1814 JUMP JUMPDEST SWAP3 SWAP2 POP POP JUMP JUMPDEST PUSH1 0x0 PUSH1 0x20 DUP3 DUP5 SUB SLT ISZERO PUSH2 0x1856 JUMPI PUSH2 0x1855 PUSH2 0x102C JUMP JUMPDEST JUMPDEST PUSH1 0x0 PUSH2 0x1864 DUP5 DUP3 DUP6 ADD PUSH2 0x182B JUMP JUMPDEST SWAP2 POP POP SWAP3 SWAP2 POP POP JUMP JUMPDEST PUSH1 0x0 PUSH1 0x20 DUP3 ADD SWAP1 POP PUSH2 0x1882 PUSH1 0x0 DUP4 ADD DUP5 PUSH2 0x17C2 JUMP JUMPDEST SWAP3 SWAP2 POP POP JUMP JUMPDEST PUSH1 0x0 DUP1 PUSH1 0x40 DUP4 DUP6 SUB SLT ISZERO PUSH2 0x189F JUMPI PUSH2 0x189E PUSH2 0x102C JUMP JUMPDEST JUMPDEST PUSH1 0x0 PUSH2 0x18AD DUP6 DUP3 DUP7 ADD PUSH2 0x160E JUMP JUMPDEST SWAP3 POP POP PUSH1 0x20 PUSH2 0x18BE DUP6 DUP3 DUP7 ADD PUSH2 0x160E JUMP JUMPDEST SWAP2 POP POP SWAP3 POP SWAP3 SWAP1 POP JUMP JUMPDEST PUSH1 0x0 PUSH1 0x40 DUP3 ADD SWAP1 POP PUSH2 0x18DD PUSH1 0x0 DUP4 ADD DUP6 PUSH2 0x17C2 JUMP JUMPDEST PUSH2 0x18EA PUSH1 0x20 DUP4 ADD DUP5 PUSH2 0x17C2 JUMP JUMPDEST SWAP4 SWAP3 POP POP POP JUMP JUMPDEST PUSH1 0x0 DUP2 MLOAD SWAP1 POP PUSH2 0x1900 DUP2 PUSH2 0x1103 JUMP JUMPDEST SWAP3 SWAP2 POP POP JUMP JUMPDEST PUSH1 0x0 PUSH1 0x20 DUP3 DUP5 SUB SLT ISZERO PUSH2 0x191C JUMPI PUSH2 0x191B PUSH2 0x102C JUMP JUMPDEST JUMPDEST PUSH1 0x0 PUSH2 0x192A DUP5 DUP3 DUP6 ADD PUSH2 0x18F1 JUMP JUMPDEST SWAP2 POP POP SWAP3 SWAP2 POP POP JUMP JUMPDEST PUSH1 0x0 PUSH1 0x20 DUP3 DUP5 SUB SLT ISZERO PUSH2 0x1949 JUMPI PUSH2 0x1948 PUSH2 0x102C JUMP JUMPDEST JUMPDEST PUSH1 0x0 PUSH2 0x1957 DUP5 DUP3 DUP6 ADD PUSH2 0x160E JUMP JUMPDEST SWAP2 POP POP SWAP3 SWAP2 POP POP JUMP JUMPDEST PUSH1 0x0 DUP2 PUSH1 0x60 SHL SWAP1 POP SWAP2 SWAP1 POP JUMP JUMPDEST PUSH1 0x0 PUSH2 0x1978 DUP3 PUSH2 0x1960 JUMP JUMPDEST SWAP1 POP SWAP2 SWAP1 POP JUMP JUMPDEST PUSH1 0x0 PUSH2 0x198A DUP3 PUSH2 0x196D JUMP JUMPDEST SWAP1 POP SWAP2 SWAP1 POP JUMP JUMPDEST PUSH2 0x19A2 PUSH2 0x199D DUP3 PUSH2 0x10F1 JUMP JUMPDEST PUSH2 0x197F JUMP JUMPDEST DUP3 MSTORE POP POP JUMP JUMPDEST PUSH1 0x0 PUSH2 0x19B4 DUP3 DUP6 PUSH2 0x1991 JUMP JUMPDEST PUSH1 0x14 DUP3 ADD SWAP2 POP PUSH2 0x19C4 DUP3 DUP5 PUSH2 0x1991 JUMP JUMPDEST PUSH1 0x14 DUP3 ADD SWAP2 POP DUP2 SWAP1 POP SWAP4 SWAP3 POP POP POP JUMP JUMPDEST PUSH1 0x0 DUP2 SWAP1 POP SWAP3 SWAP2 POP POP JUMP JUMPDEST PUSH32 0xFF00000000000000000000000000000000000000000000000000000000000000 PUSH1 0x0 DUP3 ADD MSTORE POP JUMP JUMPDEST PUSH1 0x0 PUSH2 0x1A15 PUSH1 0x1 DUP4 PUSH2 0x19D4 JUMP JUMPDEST SWAP2 POP PUSH2 0x1A20 DUP3 PUSH2 0x19DF JUMP JUMPDEST PUSH1 0x1 DUP3 ADD SWAP1 POP SWAP2 SWAP1 POP JUMP JUMPDEST PUSH1 0x0 DUP2 SWAP1 POP SWAP2 SWAP1 POP JUMP JUMPDEST PUSH1 0x0 DUP2 SWAP1 POP SWAP2 SWAP1 POP JUMP JUMPDEST PUSH2 0x1A50 PUSH2 0x1A4B DUP3 PUSH2 0x1A2B JUMP JUMPDEST PUSH2 0x1A35 JUMP JUMPDEST DUP3 MSTORE POP POP JUMP JUMPDEST PUSH32 0xAB66B891387A046B7FEFCA26F19F061E1CED0309D8009FC43808C517EAEC6917 PUSH1 0x0 DUP3 ADD MSTORE POP JUMP JUMPDEST PUSH1 0x0 PUSH2 0x1A8C PUSH1 0x20 DUP4 PUSH2 0x19D4 JUMP JUMPDEST SWAP2 POP PUSH2 0x1A97 DUP3 PUSH2 0x1A56 JUMP JUMPDEST PUSH1 0x20 DUP3 ADD SWAP1 POP SWAP2 SWAP1 POP JUMP JUMPDEST PUSH1 0x0 PUSH2 0x1AAD DUP3 PUSH2 0x1A08 JUMP JUMPDEST SWAP2 POP PUSH2 0x1AB9 DUP3 DUP6 PUSH2 0x1991 JUMP JUMPDEST PUSH1 0x14 DUP3 ADD SWAP2 POP PUSH2 0x1AC9 DUP3 DUP5 PUSH2 0x1A3F JUMP JUMPDEST PUSH1 0x20 DUP3 ADD SWAP2 POP PUSH2 0x1AD8 DUP3 PUSH2 0x1A7F JUMP JUMPDEST SWAP2 POP DUP2 SWAP1 POP SWAP4 SWAP3 POP POP POP JUMP JUMPDEST PUSH1 0x0 DUP2 MLOAD SWAP1 POP SWAP2 SWAP1 POP JUMP JUMPDEST PUSH1 0x0 DUP2 SWAP1 POP SWAP3 SWAP2 POP POP JUMP JUMPDEST PUSH1 0x0 JUMPDEST DUP4 DUP2 LT ISZERO PUSH2 0x1B18 JUMPI DUP1 DUP3 ADD MLOAD DUP2 DUP5 ADD MSTORE PUSH1 0x20 DUP2 ADD SWAP1 POP PUSH2 0x1AFD JUMP JUMPDEST DUP4 DUP2 GT ISZERO PUSH2 0x1B27 JUMPI PUSH1 0x0 DUP5 DUP5 ADD MSTORE JUMPDEST POP POP POP POP JUMP JUMPDEST PUSH1 0x0 PUSH2 0x1B38 DUP3 PUSH2 0x1AE4 JUMP JUMPDEST PUSH2 0x1B42 DUP2 DUP6 PUSH2 0x1AEF JUMP JUMPDEST SWAP4 POP PUSH2 0x1B52 DUP2 DUP6 PUSH1 0x20 DUP7 ADD PUSH2 0x1AFA JUMP JUMPDEST DUP1 DUP5 ADD SWAP2 POP POP SWAP3 SWAP2 POP POP JUMP JUMPDEST PUSH1 0x0 PUSH2 0x1B6A DUP3 DUP5 PUSH2 0x1B2D JUMP JUMPDEST SWAP2 POP DUP2 SWAP1 POP SWAP3 SWAP2 POP POP JUMP JUMPDEST PUSH1 0x0 PUSH2 0x1B80 DUP3 PUSH2 0x1036 JUMP JUMPDEST SWAP2 POP PUSH2 0x1B8B DUP4 PUSH2 0x1036 JUMP JUMPDEST SWAP3 POP DUP3 PUSH32 0xFFFFFFFFFFFFFFFFFFFFFFFFFFFFFFFFFFFFFFFFFFFFFFFFFFFFFFFFFFFFFFFF SUB DUP3 GT ISZERO PUSH2 0x1BC0 JUMPI PUSH2 0x1BBF PUSH2 0x1703 JUMP JUMPDEST JUMPDEST DUP3 DUP3 ADD SWAP1 POP SWAP3 SWAP2 POP POP JUMP JUMPDEST PUSH1 0x0 PUSH1 0x60 DUP3 ADD SWAP1 POP PUSH2 0x1BE0 PUSH1 0x0 DUP4 ADD DUP7 PUSH2 0x1324 JUMP JUMPDEST PUSH2 0x1BED PUSH1 0x20 DUP4 ADD DUP6 PUSH2 0x1324 JUMP JUMPDEST PUSH2 0x1BFA PUSH1 0x40 DUP4 ADD DUP5 PUSH2 0x17C2 JUMP JUMPDEST SWAP5 SWAP4 POP POP POP POP JUMP JUMPDEST PUSH1 0x0 PUSH2 0x1C0D DUP3 PUSH2 0x1036 JUMP JUMPDEST SWAP2 POP PUSH32 0xFFFFFFFFFFFFFFFFFFFFFFFFFFFFFFFFFFFFFFFFFFFFFFFFFFFFFFFFFFFFFFFF DUP3 EQ ISZERO PUSH2 0x1C40 JUMPI PUSH2 0x1C3F PUSH2 0x1703 JUMP JUMPDEST JUMPDEST PUSH1 0x1 DUP3 ADD SWAP1 POP SWAP2 SWAP1 POP JUMP JUMPDEST PUSH1 0x0 PUSH1 0x60 DUP3 ADD SWAP1 POP PUSH2 0x1C60 PUSH1 0x0 DUP4 ADD DUP7 PUSH2 0x1435 JUMP JUMPDEST PUSH2 0x1C6D PUSH1 0x20 DUP4 ADD DUP6 PUSH2 0x1435 JUMP JUMPDEST PUSH2 0x1C7A PUSH1 0x40 DUP4 ADD DUP5 PUSH2 0x1435 JUMP JUMPDEST SWAP5 SWAP4 POP POP POP POP JUMP JUMPDEST PUSH1 0x0 PUSH1 0x60 DUP3 ADD SWAP1 POP PUSH2 0x1C97 PUSH1 0x0 DUP4 ADD DUP7 PUSH2 0x1444 JUMP JUMPDEST PUSH2 0x1CA4 PUSH1 0x20 DUP4 ADD DUP6 PUSH2 0x1444 JUMP JUMPDEST PUSH2 0x1CB1 PUSH1 0x40 DUP4 ADD DUP5 PUSH2 0x1444 JUMP JUMPDEST SWAP5 SWAP4 POP POP POP POP JUMP JUMPDEST PUSH32 0x4E487B7100000000000000000000000000000000000000000000000000000000 PUSH1 0x0 MSTORE PUSH1 0x1 PUSH1 0x4 MSTORE PUSH1 0x24 PUSH1 0x0 REVERT INVALID LOG2 PUSH5 0x6970667358 0x22 SLT KECCAK256 0xE1 GASPRICE POP 0xE9 0xC7 0x2B 0x25 0xF9 0x4A BASEFEE 0x21 RETURNDATACOPY SMOD 0xC5 ISZERO 0xBF SELFDESTRUCT CREATE2 0x2C SUB 0x4E SHL SWAP2 0xE6 0x2D 0x49 0xCC 0x28 DUP1 0x21 0xE8 0x5D PUSH5 0x736F6C6343 STOP ADDMOD EXP STOP CALLER "
				},
				"gasEstimates": {
					"creation": {
						"codeDepositCost": "1490800",
						"executionCost": "infinite",
						"totalCost": "infinite"
					},
					"external": {
						"addLiquidity(address,address,uint256,uint256,uint256,uint256,address)": "infinite",
						"removeLiquidity(address,address,uint256,uint256,uint256,address)": "infinite",
						"swapExactTokensForTokens(uint256,uint256,address[],address)": "infinite",
						"swapTokensForExactTokens(uint256,uint256,address[],address)": "infinite"
					},
					"internal": {
						"_calculateLiquidity(address,address,uint256,uint256,uint256,uint256)": "infinite",
						"_safeTransferFrom(address,address,address,uint256)": "infinite",
						"_swap(uint256[] memory,address[] memory,address)": "infinite"
					}
				},
				"methodIdentifiers": {
					"addLiquidity(address,address,uint256,uint256,uint256,uint256,address)": "ca3d6539",
					"removeLiquidity(address,address,uint256,uint256,uint256,address)": "c0e3ee6b",
					"swapExactTokensForTokens(uint256,uint256,address[],address)": "472b43f3",
					"swapTokensForExactTokens(uint256,uint256,address[],address)": "42712a67"
				}
			},
			"storageLayout": {
				"storage": [
					{
						"astId": 474,
						"contract": "contracts/KajuswapRouter.sol:KajuswapRouter",
						"label": "factory",
						"offset": 0,
						"slot": "0",
						"type": "t_contract(IKajuswapFactory)1087"
					}
				],
				"types": {
					"t_contract(IKajuswapFactory)1087": {
						"encoding": "inplace",
						"label": "contract IKajuswapFactory",
						"numberOfBytes": "20"
					}
				}
			},
			"userdoc": {
				"kind": "user",
				"methods": {},
				"version": 1
			}
		}
	}
}