{
	"contracts/KajuswapLibrary.sol": {
		"KajuswapLibrary": {
			"abi": [
				{
					"inputs": [],
					"name": "InsufficientAmount",
					"type": "error"
				},
				{
					"inputs": [],
					"name": "InsufficientLiquidity",
					"type": "error"
				},
				{
					"inputs": [],
					"name": "InvalidPath",
					"type": "error"
				},
				{
					"inputs": [
						{
							"internalType": "uint256",
							"name": "amountOut",
							"type": "uint256"
						},
						{
							"internalType": "uint256",
							"name": "reserveIn",
							"type": "uint256"
						},
						{
							"internalType": "uint256",
							"name": "reserveOut",
							"type": "uint256"
						}
					],
					"name": "getAmountIn",
					"outputs": [
						{
							"internalType": "uint256",
							"name": "",
							"type": "uint256"
						}
					],
					"stateMutability": "pure",
					"type": "function"
				},
				{
					"inputs": [
						{
							"internalType": "uint256",
							"name": "amountIn",
							"type": "uint256"
						},
						{
							"internalType": "uint256",
							"name": "reserveIn",
							"type": "uint256"
						},
						{
							"internalType": "uint256",
							"name": "reserveOut",
							"type": "uint256"
						}
					],
					"name": "getAmountOut",
					"outputs": [
						{
							"internalType": "uint256",
							"name": "",
							"type": "uint256"
						}
					],
					"stateMutability": "pure",
					"type": "function"
				},
				{
					"inputs": [
						{
							"internalType": "uint256",
							"name": "amountIn",
							"type": "uint256"
						},
						{
							"internalType": "uint256",
							"name": "reserveIn",
							"type": "uint256"
						},
						{
							"internalType": "uint256",
							"name": "reserveOut",
							"type": "uint256"
						}
					],
					"name": "quote",
					"outputs": [
						{
							"internalType": "uint256",
							"name": "amountOut",
							"type": "uint256"
						}
					],
					"stateMutability": "pure",
					"type": "function"
				}
			],
			"devdoc": {
				"kind": "dev",
				"methods": {},
				"version": 1
			},
			"evm": {
				"assembly": "    /* \"contracts/KajuswapLibrary.sol\":152:4767  library KajuswapLibrary {... */\n  dataSize(sub_0)\n  dataOffset(sub_0)\n  0x0b\n  dup3\n  dup3\n  dup3\n  codecopy\n  dup1\n  mload\n  0x00\n  byte\n  0x73\n  eq\n  tag_1\n  jumpi\n  mstore(0x00, 0x4e487b7100000000000000000000000000000000000000000000000000000000)\n  mstore(0x04, 0x00)\n  revert(0x00, 0x24)\ntag_1:\n  mstore(0x00, address)\n  0x73\n  dup2\n  mstore8\n  dup3\n  dup2\n  return\nstop\n\nsub_0: assembly {\n        /* \"contracts/KajuswapLibrary.sol\":152:4767  library KajuswapLibrary {... */\n      eq(address, deployTimeAddress())\n      mstore(0x40, 0x80)\n      jumpi(tag_1, lt(calldatasize, 0x04))\n      shr(0xe0, calldataload(0x00))\n      dup1\n      0x054d50d4\n      eq\n      tag_2\n      jumpi\n      dup1\n      0x192128b2\n      eq\n      tag_3\n      jumpi\n      dup1\n      0x32749461\n      eq\n      tag_4\n      jumpi\n      dup1\n      0x85f8c259\n      eq\n      tag_5\n      jumpi\n      dup1\n      0xad615dec\n      eq\n      tag_6\n      jumpi\n      dup1\n      0xbb7b9c76\n      eq\n      tag_7\n      jumpi\n    tag_1:\n      0x00\n      dup1\n      revert\n        /* \"contracts/KajuswapLibrary.sol\":2469:2981  function getAmountOut(... */\n    tag_2:\n      tag_8\n      0x04\n      dup1\n      calldatasize\n      sub\n      dup2\n      add\n      swap1\n      tag_9\n      swap2\n      swap1\n      tag_10\n      jump\t// in\n    tag_9:\n      tag_11\n      jump\t// in\n    tag_8:\n      mload(0x40)\n      tag_12\n      swap2\n      swap1\n      tag_13\n      jump\t// in\n    tag_12:\n      mload(0x40)\n      dup1\n      swap2\n      sub\n      swap1\n      return\n        /* \"contracts/KajuswapLibrary.sol\":4107:4764  function getAmountsIn(... */\n    tag_3:\n      dup2\n      dup1\n      iszero\n      tag_14\n      jumpi\n      0x00\n      dup1\n      revert\n    tag_14:\n      pop\n      tag_15\n      0x04\n      dup1\n      calldatasize\n      sub\n      dup2\n      add\n      swap1\n      tag_16\n      swap2\n      swap1\n      tag_17\n      jump\t// in\n    tag_16:\n      tag_18\n      jump\t// in\n    tag_15:\n      mload(0x40)\n      tag_19\n      swap2\n      swap1\n      tag_20\n      jump\t// in\n    tag_19:\n      mload(0x40)\n      dup1\n      swap2\n      sub\n      swap1\n      return\n        /* \"contracts/KajuswapLibrary.sol\":280:855  function getReserves(... */\n    tag_4:\n      dup2\n      dup1\n      iszero\n      tag_21\n      jumpi\n      0x00\n      dup1\n      revert\n    tag_21:\n      pop\n      tag_22\n      0x04\n      dup1\n      calldatasize\n      sub\n      dup2\n      add\n      swap1\n      tag_23\n      swap2\n      swap1\n      tag_24\n      jump\t// in\n    tag_23:\n      tag_25\n      jump\t// in\n    tag_22:\n      mload(0x40)\n      tag_26\n      swap3\n      swap2\n      swap1\n      tag_27\n      jump\t// in\n    tag_26:\n      mload(0x40)\n      dup1\n      swap2\n      sub\n      swap1\n      return\n        /* \"contracts/KajuswapLibrary.sol\":3637:4099  function getAmountIn(... */\n    tag_5:\n      tag_28\n      0x04\n      dup1\n      calldatasize\n      sub\n      dup2\n      add\n      swap1\n      tag_29\n      swap2\n      swap1\n      tag_10\n      jump\t// in\n    tag_29:\n      tag_30\n      jump\t// in\n    tag_28:\n      mload(0x40)\n      tag_31\n      swap2\n      swap1\n      tag_13\n      jump\t// in\n    tag_31:\n      mload(0x40)\n      dup1\n      swap2\n      sub\n      swap1\n      return\n        /* \"contracts/KajuswapLibrary.sol\":863:1209  function quote(... */\n    tag_6:\n      tag_32\n      0x04\n      dup1\n      calldatasize\n      sub\n      dup2\n      add\n      swap1\n      tag_33\n      swap2\n      swap1\n      tag_10\n      jump\t// in\n    tag_33:\n      tag_34\n      jump\t// in\n    tag_32:\n      mload(0x40)\n      tag_35\n      swap2\n      swap1\n      tag_13\n      jump\t// in\n    tag_35:\n      mload(0x40)\n      dup1\n      swap2\n      sub\n      swap1\n      return\n        /* \"contracts/KajuswapLibrary.sol\":2989:3629  function getAmountsOut(... */\n    tag_7:\n      dup2\n      dup1\n      iszero\n      tag_36\n      jumpi\n      0x00\n      dup1\n      revert\n    tag_36:\n      pop\n      tag_37\n      0x04\n      dup1\n      calldatasize\n      sub\n      dup2\n      add\n      swap1\n      tag_38\n      swap2\n      swap1\n      tag_17\n      jump\t// in\n    tag_38:\n      tag_39\n      jump\t// in\n    tag_37:\n      mload(0x40)\n      tag_40\n      swap2\n      swap1\n      tag_20\n      jump\t// in\n    tag_40:\n      mload(0x40)\n      dup1\n      swap2\n      sub\n      swap1\n      return\n        /* \"contracts/KajuswapLibrary.sol\":2469:2981  function getAmountOut(... */\n    tag_11:\n        /* \"contracts/KajuswapLibrary.sol\":2603:2610  uint256 */\n      0x00\n        /* \"contracts/KajuswapLibrary.sol\":2639:2640  0 */\n      dup1\n        /* \"contracts/KajuswapLibrary.sol\":2627:2635  amountIn */\n      dup5\n        /* \"contracts/KajuswapLibrary.sol\":2627:2640  amountIn == 0 */\n      eq\n        /* \"contracts/KajuswapLibrary.sol\":2623:2669  if (amountIn == 0) revert InsufficientAmount() */\n      iszero\n      tag_42\n      jumpi\n        /* \"contracts/KajuswapLibrary.sol\":2649:2669  InsufficientAmount() */\n      mload(0x40)\n      0x5945ea5600000000000000000000000000000000000000000000000000000000\n      dup2\n      mstore\n      0x04\n      add\n      mload(0x40)\n      dup1\n      swap2\n      sub\n      swap1\n      revert\n        /* \"contracts/KajuswapLibrary.sol\":2623:2669  if (amountIn == 0) revert InsufficientAmount() */\n    tag_42:\n        /* \"contracts/KajuswapLibrary.sol\":2697:2698  0 */\n      0x00\n        /* \"contracts/KajuswapLibrary.sol\":2684:2693  reserveIn */\n      dup4\n        /* \"contracts/KajuswapLibrary.sol\":2684:2698  reserveIn == 0 */\n      eq\n        /* \"contracts/KajuswapLibrary.sol\":2684:2717  reserveIn == 0 || reserveOut == 0 */\n      dup1\n      tag_43\n      jumpi\n      pop\n        /* \"contracts/KajuswapLibrary.sol\":2716:2717  0 */\n      0x00\n        /* \"contracts/KajuswapLibrary.sol\":2702:2712  reserveOut */\n      dup3\n        /* \"contracts/KajuswapLibrary.sol\":2702:2717  reserveOut == 0 */\n      eq\n        /* \"contracts/KajuswapLibrary.sol\":2684:2717  reserveIn == 0 || reserveOut == 0 */\n    tag_43:\n        /* \"contracts/KajuswapLibrary.sol\":2680:2749  if (reserveIn == 0 || reserveOut == 0) revert InsufficientLiquidity() */\n      iszero\n      tag_44\n      jumpi\n        /* \"contracts/KajuswapLibrary.sol\":2726:2749  InsufficientLiquidity() */\n      mload(0x40)\n      0xbb55fd2700000000000000000000000000000000000000000000000000000000\n      dup2\n      mstore\n      0x04\n      add\n      mload(0x40)\n      dup1\n      swap2\n      sub\n      swap1\n      revert\n        /* \"contracts/KajuswapLibrary.sol\":2680:2749  if (reserveIn == 0 || reserveOut == 0) revert InsufficientLiquidity() */\n    tag_44:\n        /* \"contracts/KajuswapLibrary.sol\":2762:2785  uint256 amountInWithFee */\n      0x00\n        /* \"contracts/KajuswapLibrary.sol\":2799:2802  997 */\n      0x03e5\n        /* \"contracts/KajuswapLibrary.sol\":2788:2796  amountIn */\n      dup6\n        /* \"contracts/KajuswapLibrary.sol\":2788:2802  amountIn * 997 */\n      tag_45\n      swap2\n      swap1\n      tag_46\n      jump\t// in\n    tag_45:\n        /* \"contracts/KajuswapLibrary.sol\":2762:2802  uint256 amountInWithFee = amountIn * 997 */\n      swap1\n      pop\n        /* \"contracts/KajuswapLibrary.sol\":2813:2830  uint256 numerator */\n      0x00\n        /* \"contracts/KajuswapLibrary.sol\":2851:2861  reserveOut */\n      dup4\n        /* \"contracts/KajuswapLibrary.sol\":2833:2848  amountInWithFee */\n      dup3\n        /* \"contracts/KajuswapLibrary.sol\":2833:2861  amountInWithFee * reserveOut */\n      tag_47\n      swap2\n      swap1\n      tag_46\n      jump\t// in\n    tag_47:\n        /* \"contracts/KajuswapLibrary.sol\":2813:2861  uint256 numerator = amountInWithFee * reserveOut */\n      swap1\n      pop\n        /* \"contracts/KajuswapLibrary.sol\":2872:2891  uint256 denominator */\n      0x00\n        /* \"contracts/KajuswapLibrary.sol\":2915:2930  amountInWithFee */\n      dup3\n        /* \"contracts/KajuswapLibrary.sol\":2907:2911  1000 */\n      0x03e8\n        /* \"contracts/KajuswapLibrary.sol\":2895:2904  reserveIn */\n      dup8\n        /* \"contracts/KajuswapLibrary.sol\":2895:2911  reserveIn * 1000 */\n      tag_48\n      swap2\n      swap1\n      tag_46\n      jump\t// in\n    tag_48:\n        /* \"contracts/KajuswapLibrary.sol\":2894:2930  (reserveIn * 1000) + amountInWithFee */\n      tag_49\n      swap2\n      swap1\n      tag_50\n      jump\t// in\n    tag_49:\n        /* \"contracts/KajuswapLibrary.sol\":2872:2930  uint256 denominator = (reserveIn * 1000) + amountInWithFee */\n      swap1\n      pop\n        /* \"contracts/KajuswapLibrary.sol\":2962:2973  denominator */\n      dup1\n        /* \"contracts/KajuswapLibrary.sol\":2950:2959  numerator */\n      dup3\n        /* \"contracts/KajuswapLibrary.sol\":2950:2973  numerator / denominator */\n      tag_51\n      swap2\n      swap1\n      tag_52\n      jump\t// in\n    tag_51:\n        /* \"contracts/KajuswapLibrary.sol\":2943:2973  return numerator / denominator */\n      swap4\n      pop\n      pop\n      pop\n      pop\n        /* \"contracts/KajuswapLibrary.sol\":2469:2981  function getAmountOut(... */\n      swap4\n      swap3\n      pop\n      pop\n      pop\n      jump\t// out\n        /* \"contracts/KajuswapLibrary.sol\":4107:4764  function getAmountsIn(... */\n    tag_18:\n        /* \"contracts/KajuswapLibrary.sol\":4238:4254  uint256[] memory */\n      0x60\n        /* \"contracts/KajuswapLibrary.sol\":4285:4286  2 */\n      0x02\n        /* \"contracts/KajuswapLibrary.sol\":4271:4275  path */\n      dup3\n        /* \"contracts/KajuswapLibrary.sol\":4271:4282  path.length */\n      mload\n        /* \"contracts/KajuswapLibrary.sol\":4271:4286  path.length < 2 */\n      lt\n        /* \"contracts/KajuswapLibrary.sol\":4267:4308  if (path.length < 2) revert InvalidPath() */\n      iszero\n      tag_54\n      jumpi\n        /* \"contracts/KajuswapLibrary.sol\":4295:4308  InvalidPath() */\n      mload(0x40)\n      0x20db826700000000000000000000000000000000000000000000000000000000\n      dup2\n      mstore\n      0x04\n      add\n      mload(0x40)\n      dup1\n      swap2\n      sub\n      swap1\n      revert\n        /* \"contracts/KajuswapLibrary.sol\":4267:4308  if (path.length < 2) revert InvalidPath() */\n    tag_54:\n        /* \"contracts/KajuswapLibrary.sol\":4319:4343  uint256[] memory amounts */\n      0x00\n        /* \"contracts/KajuswapLibrary.sol\":4360:4364  path */\n      dup3\n        /* \"contracts/KajuswapLibrary.sol\":4360:4371  path.length */\n      mload\n        /* \"contracts/KajuswapLibrary.sol\":4346:4372  new uint256[](path.length) */\n      0xffffffffffffffff\n      dup2\n      gt\n      iszero\n      tag_55\n      jumpi\n      tag_56\n      tag_57\n      jump\t// in\n    tag_56:\n    tag_55:\n      mload(0x40)\n      swap1\n      dup1\n      dup3\n      mstore\n      dup1\n      0x20\n      mul\n      0x20\n      add\n      dup3\n      add\n      0x40\n      mstore\n      dup1\n      iszero\n      tag_58\n      jumpi\n      dup2\n      0x20\n      add\n      0x20\n      dup3\n      mul\n      dup1\n      calldatasize\n      dup4\n      calldatacopy\n      dup1\n      dup3\n      add\n      swap2\n      pop\n      pop\n      swap1\n      pop\n    tag_58:\n      pop\n        /* \"contracts/KajuswapLibrary.sol\":4319:4372  uint256[] memory amounts = new uint256[](path.length) */\n      swap1\n      pop\n        /* \"contracts/KajuswapLibrary.sol\":4413:4422  amountOut */\n      dup4\n        /* \"contracts/KajuswapLibrary.sol\":4383:4390  amounts */\n      dup2\n        /* \"contracts/KajuswapLibrary.sol\":4408:4409  1 */\n      0x01\n        /* \"contracts/KajuswapLibrary.sol\":4391:4398  amounts */\n      dup4\n        /* \"contracts/KajuswapLibrary.sol\":4391:4405  amounts.length */\n      mload\n        /* \"contracts/KajuswapLibrary.sol\":4391:4409  amounts.length - 1 */\n      tag_59\n      swap2\n      swap1\n      tag_60\n      jump\t// in\n    tag_59:\n        /* \"contracts/KajuswapLibrary.sol\":4383:4410  amounts[amounts.length - 1] */\n      dup2\n      mload\n      dup2\n      lt\n      tag_61\n      jumpi\n      tag_62\n      tag_63\n      jump\t// in\n    tag_62:\n    tag_61:\n      0x20\n      mul\n      0x20\n      add\n      add\n        /* \"contracts/KajuswapLibrary.sol\":4383:4422  amounts[amounts.length - 1] = amountOut */\n      dup2\n      dup2\n      mstore\n      pop\n      pop\n        /* \"contracts/KajuswapLibrary.sol\":4440:4449  uint256 i */\n      0x00\n        /* \"contracts/KajuswapLibrary.sol\":4466:4467  1 */\n      0x01\n        /* \"contracts/KajuswapLibrary.sol\":4452:4456  path */\n      dup5\n        /* \"contracts/KajuswapLibrary.sol\":4452:4463  path.length */\n      mload\n        /* \"contracts/KajuswapLibrary.sol\":4452:4467  path.length - 1 */\n      tag_67\n      swap2\n      swap1\n      tag_60\n      jump\t// in\n    tag_67:\n        /* \"contracts/KajuswapLibrary.sol\":4440:4467  uint256 i = path.length - 1 */\n      swap1\n      pop\n        /* \"contracts/KajuswapLibrary.sol\":4435:4730  for (uint256 i = path.length - 1; i > 0; i--) {... */\n    tag_64:\n        /* \"contracts/KajuswapLibrary.sol\":4473:4474  0 */\n      0x00\n        /* \"contracts/KajuswapLibrary.sol\":4469:4470  i */\n      dup2\n        /* \"contracts/KajuswapLibrary.sol\":4469:4474  i > 0 */\n      gt\n        /* \"contracts/KajuswapLibrary.sol\":4435:4730  for (uint256 i = path.length - 1; i > 0; i--) {... */\n      iszero\n      tag_65\n      jumpi\n        /* \"contracts/KajuswapLibrary.sol\":4497:4513  uint256 reserve0 */\n      0x00\n        /* \"contracts/KajuswapLibrary.sol\":4515:4531  uint256 reserve1 */\n      dup1\n        /* \"contracts/KajuswapLibrary.sol\":4535:4643  getReserves(... */\n      tag_68\n        /* \"contracts/KajuswapLibrary.sol\":4565:4572  factory */\n      dup9\n        /* \"contracts/KajuswapLibrary.sol\":4591:4595  path */\n      dup8\n        /* \"contracts/KajuswapLibrary.sol\":4600:4601  1 */\n      0x01\n        /* \"contracts/KajuswapLibrary.sol\":4596:4597  i */\n      dup7\n        /* \"contracts/KajuswapLibrary.sol\":4596:4601  i - 1 */\n      tag_69\n      swap2\n      swap1\n      tag_60\n      jump\t// in\n    tag_69:\n        /* \"contracts/KajuswapLibrary.sol\":4591:4602  path[i - 1] */\n      dup2\n      mload\n      dup2\n      lt\n      tag_70\n      jumpi\n      tag_71\n      tag_63\n      jump\t// in\n    tag_71:\n    tag_70:\n      0x20\n      mul\n      0x20\n      add\n      add\n      mload\n        /* \"contracts/KajuswapLibrary.sol\":4621:4625  path */\n      dup9\n        /* \"contracts/KajuswapLibrary.sol\":4626:4627  i */\n      dup7\n        /* \"contracts/KajuswapLibrary.sol\":4621:4628  path[i] */\n      dup2\n      mload\n      dup2\n      lt\n      tag_72\n      jumpi\n      tag_73\n      tag_63\n      jump\t// in\n    tag_73:\n    tag_72:\n      0x20\n      mul\n      0x20\n      add\n      add\n      mload\n        /* \"contracts/KajuswapLibrary.sol\":4535:4546  getReserves */\n      tag_25\n        /* \"contracts/KajuswapLibrary.sol\":4535:4643  getReserves(... */\n      jump\t// in\n    tag_68:\n        /* \"contracts/KajuswapLibrary.sol\":4496:4643  (uint256 reserve0, uint256 reserve1) = getReserves(... */\n      swap2\n      pop\n      swap2\n      pop\n        /* \"contracts/KajuswapLibrary.sol\":4675:4718  getAmountIn(amounts[i], reserve0, reserve1) */\n      tag_74\n        /* \"contracts/KajuswapLibrary.sol\":4687:4694  amounts */\n      dup5\n        /* \"contracts/KajuswapLibrary.sol\":4695:4696  i */\n      dup5\n        /* \"contracts/KajuswapLibrary.sol\":4687:4697  amounts[i] */\n      dup2\n      mload\n      dup2\n      lt\n      tag_75\n      jumpi\n      tag_76\n      tag_63\n      jump\t// in\n    tag_76:\n    tag_75:\n      0x20\n      mul\n      0x20\n      add\n      add\n      mload\n        /* \"contracts/KajuswapLibrary.sol\":4699:4707  reserve0 */\n      dup4\n        /* \"contracts/KajuswapLibrary.sol\":4709:4717  reserve1 */\n      dup4\n        /* \"contracts/KajuswapLibrary.sol\":4675:4686  getAmountIn */\n      tag_30\n        /* \"contracts/KajuswapLibrary.sol\":4675:4718  getAmountIn(amounts[i], reserve0, reserve1) */\n      jump\t// in\n    tag_74:\n        /* \"contracts/KajuswapLibrary.sol\":4658:4665  amounts */\n      dup5\n        /* \"contracts/KajuswapLibrary.sol\":4670:4671  1 */\n      0x01\n        /* \"contracts/KajuswapLibrary.sol\":4666:4667  i */\n      dup6\n        /* \"contracts/KajuswapLibrary.sol\":4666:4671  i - 1 */\n      tag_77\n      swap2\n      swap1\n      tag_60\n      jump\t// in\n    tag_77:\n        /* \"contracts/KajuswapLibrary.sol\":4658:4672  amounts[i - 1] */\n      dup2\n      mload\n      dup2\n      lt\n      tag_78\n      jumpi\n      tag_79\n      tag_63\n      jump\t// in\n    tag_79:\n    tag_78:\n      0x20\n      mul\n      0x20\n      add\n      add\n        /* \"contracts/KajuswapLibrary.sol\":4658:4718  amounts[i - 1] = getAmountIn(amounts[i], reserve0, reserve1) */\n      dup2\n      dup2\n      mstore\n      pop\n      pop\n        /* \"contracts/KajuswapLibrary.sol\":4481:4730  {... */\n      pop\n      pop\n        /* \"contracts/KajuswapLibrary.sol\":4476:4479  i-- */\n      dup1\n      dup1\n      tag_80\n      swap1\n      tag_81\n      jump\t// in\n    tag_80:\n      swap2\n      pop\n      pop\n        /* \"contracts/KajuswapLibrary.sol\":4435:4730  for (uint256 i = path.length - 1; i > 0; i--) {... */\n      jump(tag_64)\n    tag_65:\n      pop\n        /* \"contracts/KajuswapLibrary.sol\":4749:4756  amounts */\n      dup1\n        /* \"contracts/KajuswapLibrary.sol\":4742:4756  return amounts */\n      swap2\n      pop\n      pop\n        /* \"contracts/KajuswapLibrary.sol\":4107:4764  function getAmountsIn(... */\n      swap4\n      swap3\n      pop\n      pop\n      pop\n      jump\t// out\n        /* \"contracts/KajuswapLibrary.sol\":280:855  function getReserves(... */\n    tag_25:\n        /* \"contracts/KajuswapLibrary.sol\":407:423  uint256 reserveA */\n      0x00\n        /* \"contracts/KajuswapLibrary.sol\":425:441  uint256 reserveB */\n      dup1\n        /* \"contracts/KajuswapLibrary.sol\":455:469  address token0 */\n      0x00\n        /* \"contracts/KajuswapLibrary.sol\":471:485  address token1 */\n      dup1\n        /* \"contracts/KajuswapLibrary.sol\":489:515  sortTokens(tokenA, tokenB) */\n      tag_83\n        /* \"contracts/KajuswapLibrary.sol\":500:506  tokenA */\n      dup7\n        /* \"contracts/KajuswapLibrary.sol\":508:514  tokenB */\n      dup7\n        /* \"contracts/KajuswapLibrary.sol\":489:499  sortTokens */\n      tag_84\n        /* \"contracts/KajuswapLibrary.sol\":489:515  sortTokens(tokenA, tokenB) */\n      jump\t// in\n    tag_83:\n        /* \"contracts/KajuswapLibrary.sol\":454:515  (address token0, address token1) = sortTokens(tokenA, tokenB) */\n      swap2\n      pop\n      swap2\n      pop\n        /* \"contracts/KajuswapLibrary.sol\":593:609  uint256 reserve0 */\n      0x00\n        /* \"contracts/KajuswapLibrary.sol\":611:627  uint256 reserve1 */\n      dup1\n        /* \"contracts/KajuswapLibrary.sol\":661:700  pairFor(factoryAddress, token0, token1) */\n      tag_85\n        /* \"contracts/KajuswapLibrary.sol\":669:683  factoryAddress */\n      dup10\n        /* \"contracts/KajuswapLibrary.sol\":685:691  token0 */\n      dup6\n        /* \"contracts/KajuswapLibrary.sol\":693:699  token1 */\n      dup6\n        /* \"contracts/KajuswapLibrary.sol\":661:668  pairFor */\n      tag_86\n        /* \"contracts/KajuswapLibrary.sol\":661:700  pairFor(factoryAddress, token0, token1) */\n      jump\t// in\n    tag_85:\n        /* \"contracts/KajuswapLibrary.sol\":633:723  IKajuswapPair(... */\n      0xffffffffffffffffffffffffffffffffffffffff\n      and\n      0x0902f1ac\n        /* \"contracts/KajuswapLibrary.sol\":633:725  IKajuswapPair(... */\n      mload(0x40)\n      dup2\n      0xffffffff\n      and\n      0xe0\n      shl\n      dup2\n      mstore\n      0x04\n      add\n      0x60\n      mload(0x40)\n      dup1\n      dup4\n      sub\n      dup2\n      0x00\n      dup8\n      gas\n      call\n      iszero\n      dup1\n      iszero\n      tag_88\n      jumpi\n      returndatasize\n      0x00\n      dup1\n      returndatacopy\n      revert(0x00, returndatasize)\n    tag_88:\n      pop\n      pop\n      pop\n      pop\n      mload(0x40)\n      returndatasize\n      not(0x1f)\n      0x1f\n      dup3\n      add\n      and\n      dup3\n      add\n      dup1\n      0x40\n      mstore\n      pop\n      dup2\n      add\n      swap1\n      tag_89\n      swap2\n      swap1\n      tag_90\n      jump\t// in\n    tag_89:\n        /* \"contracts/KajuswapLibrary.sol\":592:725  (uint256 reserve0, uint256 reserve1, ) = IKajuswapPair(... */\n      pop\n      0xffffffffffffffffffffffffffff\n      and\n      swap2\n      pop\n      0xffffffffffffffffffffffffffff\n      and\n      swap2\n      pop\n        /* \"contracts/KajuswapLibrary.sol\":769:775  token0 */\n      dup4\n        /* \"contracts/KajuswapLibrary.sol\":759:775  tokenA == token0 */\n      0xffffffffffffffffffffffffffffffffffffffff\n      and\n        /* \"contracts/KajuswapLibrary.sol\":759:765  tokenA */\n      dup9\n        /* \"contracts/KajuswapLibrary.sol\":759:775  tokenA == token0 */\n      0xffffffffffffffffffffffffffffffffffffffff\n      and\n      eq\n        /* \"contracts/KajuswapLibrary.sol\":759:847  tokenA == token0... */\n      tag_91\n      jumpi\n        /* \"contracts/KajuswapLibrary.sol\":828:836  reserve1 */\n      dup1\n        /* \"contracts/KajuswapLibrary.sol\":838:846  reserve0 */\n      dup3\n        /* \"contracts/KajuswapLibrary.sol\":759:847  tokenA == token0... */\n      jump(tag_92)\n    tag_91:\n        /* \"contracts/KajuswapLibrary.sol\":792:800  reserve0 */\n      dup2\n        /* \"contracts/KajuswapLibrary.sol\":802:810  reserve1 */\n      dup2\n        /* \"contracts/KajuswapLibrary.sol\":759:847  tokenA == token0... */\n    tag_92:\n        /* \"contracts/KajuswapLibrary.sol\":736:847  (reserveA, reserveB) = tokenA == token0... */\n      dup1\n      swap7\n      pop\n      dup2\n      swap8\n      pop\n      pop\n      pop\n        /* \"contracts/KajuswapLibrary.sol\":443:855  {... */\n      pop\n      pop\n      pop\n      pop\n        /* \"contracts/KajuswapLibrary.sol\":280:855  function getReserves(... */\n      swap4\n      pop\n      swap4\n      swap2\n      pop\n      pop\n      jump\t// out\n        /* \"contracts/KajuswapLibrary.sol\":3637:4099  function getAmountIn(... */\n    tag_30:\n        /* \"contracts/KajuswapLibrary.sol\":3771:3778  uint256 */\n      0x00\n        /* \"contracts/KajuswapLibrary.sol\":3808:3809  0 */\n      dup1\n        /* \"contracts/KajuswapLibrary.sol\":3795:3804  amountOut */\n      dup5\n        /* \"contracts/KajuswapLibrary.sol\":3795:3809  amountOut == 0 */\n      eq\n        /* \"contracts/KajuswapLibrary.sol\":3791:3838  if (amountOut == 0) revert InsufficientAmount() */\n      iszero\n      tag_94\n      jumpi\n        /* \"contracts/KajuswapLibrary.sol\":3818:3838  InsufficientAmount() */\n      mload(0x40)\n      0x5945ea5600000000000000000000000000000000000000000000000000000000\n      dup2\n      mstore\n      0x04\n      add\n      mload(0x40)\n      dup1\n      swap2\n      sub\n      swap1\n      revert\n        /* \"contracts/KajuswapLibrary.sol\":3791:3838  if (amountOut == 0) revert InsufficientAmount() */\n    tag_94:\n        /* \"contracts/KajuswapLibrary.sol\":3866:3867  0 */\n      0x00\n        /* \"contracts/KajuswapLibrary.sol\":3853:3862  reserveIn */\n      dup4\n        /* \"contracts/KajuswapLibrary.sol\":3853:3867  reserveIn == 0 */\n      eq\n        /* \"contracts/KajuswapLibrary.sol\":3853:3886  reserveIn == 0 || reserveOut == 0 */\n      dup1\n      tag_95\n      jumpi\n      pop\n        /* \"contracts/KajuswapLibrary.sol\":3885:3886  0 */\n      0x00\n        /* \"contracts/KajuswapLibrary.sol\":3871:3881  reserveOut */\n      dup3\n        /* \"contracts/KajuswapLibrary.sol\":3871:3886  reserveOut == 0 */\n      eq\n        /* \"contracts/KajuswapLibrary.sol\":3853:3886  reserveIn == 0 || reserveOut == 0 */\n    tag_95:\n        /* \"contracts/KajuswapLibrary.sol\":3849:3918  if (reserveIn == 0 || reserveOut == 0) revert InsufficientLiquidity() */\n      iszero\n      tag_96\n      jumpi\n        /* \"contracts/KajuswapLibrary.sol\":3895:3918  InsufficientLiquidity() */\n      mload(0x40)\n      0xbb55fd2700000000000000000000000000000000000000000000000000000000\n      dup2\n      mstore\n      0x04\n      add\n      mload(0x40)\n      dup1\n      swap2\n      sub\n      swap1\n      revert\n        /* \"contracts/KajuswapLibrary.sol\":3849:3918  if (reserveIn == 0 || reserveOut == 0) revert InsufficientLiquidity() */\n    tag_96:\n        /* \"contracts/KajuswapLibrary.sol\":3931:3948  uint256 numerator */\n      0x00\n        /* \"contracts/KajuswapLibrary.sol\":3975:3979  1000 */\n      0x03e8\n        /* \"contracts/KajuswapLibrary.sol\":3963:3972  amountOut */\n      dup6\n        /* \"contracts/KajuswapLibrary.sol\":3951:3960  reserveIn */\n      dup6\n        /* \"contracts/KajuswapLibrary.sol\":3951:3972  reserveIn * amountOut */\n      tag_97\n      swap2\n      swap1\n      tag_46\n      jump\t// in\n    tag_97:\n        /* \"contracts/KajuswapLibrary.sol\":3951:3979  reserveIn * amountOut * 1000 */\n      tag_98\n      swap2\n      swap1\n      tag_46\n      jump\t// in\n    tag_98:\n        /* \"contracts/KajuswapLibrary.sol\":3931:3979  uint256 numerator = reserveIn * amountOut * 1000 */\n      swap1\n      pop\n        /* \"contracts/KajuswapLibrary.sol\":3990:4009  uint256 denominator */\n      0x00\n        /* \"contracts/KajuswapLibrary.sol\":4039:4042  997 */\n      0x03e5\n        /* \"contracts/KajuswapLibrary.sol\":4026:4035  amountOut */\n      dup7\n        /* \"contracts/KajuswapLibrary.sol\":4013:4023  reserveOut */\n      dup6\n        /* \"contracts/KajuswapLibrary.sol\":4013:4035  reserveOut - amountOut */\n      tag_99\n      swap2\n      swap1\n      tag_60\n      jump\t// in\n    tag_99:\n        /* \"contracts/KajuswapLibrary.sol\":4012:4042  (reserveOut - amountOut) * 997 */\n      tag_100\n      swap2\n      swap1\n      tag_46\n      jump\t// in\n    tag_100:\n        /* \"contracts/KajuswapLibrary.sol\":3990:4042  uint256 denominator = (reserveOut - amountOut) * 997 */\n      swap1\n      pop\n        /* \"contracts/KajuswapLibrary.sol\":4090:4091  1 */\n      0x01\n        /* \"contracts/KajuswapLibrary.sol\":4075:4086  denominator */\n      dup2\n        /* \"contracts/KajuswapLibrary.sol\":4063:4072  numerator */\n      dup4\n        /* \"contracts/KajuswapLibrary.sol\":4063:4086  numerator / denominator */\n      tag_101\n      swap2\n      swap1\n      tag_52\n      jump\t// in\n    tag_101:\n        /* \"contracts/KajuswapLibrary.sol\":4062:4091  (numerator / denominator) + 1 */\n      tag_102\n      swap2\n      swap1\n      tag_50\n      jump\t// in\n    tag_102:\n        /* \"contracts/KajuswapLibrary.sol\":4055:4091  return (numerator / denominator) + 1 */\n      swap3\n      pop\n      pop\n      pop\n        /* \"contracts/KajuswapLibrary.sol\":3637:4099  function getAmountIn(... */\n      swap4\n      swap3\n      pop\n      pop\n      pop\n      jump\t// out\n        /* \"contracts/KajuswapLibrary.sol\":863:1209  function quote(... */\n    tag_34:\n        /* \"contracts/KajuswapLibrary.sol\":990:1007  uint256 amountOut */\n      0x00\n        /* \"contracts/KajuswapLibrary.sol\":1036:1037  0 */\n      dup1\n        /* \"contracts/KajuswapLibrary.sol\":1024:1032  amountIn */\n      dup5\n        /* \"contracts/KajuswapLibrary.sol\":1024:1037  amountIn == 0 */\n      eq\n        /* \"contracts/KajuswapLibrary.sol\":1020:1066  if (amountIn == 0) revert InsufficientAmount() */\n      iszero\n      tag_104\n      jumpi\n        /* \"contracts/KajuswapLibrary.sol\":1046:1066  InsufficientAmount() */\n      mload(0x40)\n      0x5945ea5600000000000000000000000000000000000000000000000000000000\n      dup2\n      mstore\n      0x04\n      add\n      mload(0x40)\n      dup1\n      swap2\n      sub\n      swap1\n      revert\n        /* \"contracts/KajuswapLibrary.sol\":1020:1066  if (amountIn == 0) revert InsufficientAmount() */\n    tag_104:\n        /* \"contracts/KajuswapLibrary.sol\":1094:1095  0 */\n      0x00\n        /* \"contracts/KajuswapLibrary.sol\":1081:1090  reserveIn */\n      dup4\n        /* \"contracts/KajuswapLibrary.sol\":1081:1095  reserveIn == 0 */\n      eq\n        /* \"contracts/KajuswapLibrary.sol\":1081:1114  reserveIn == 0 || reserveOut == 0 */\n      dup1\n      tag_105\n      jumpi\n      pop\n        /* \"contracts/KajuswapLibrary.sol\":1113:1114  0 */\n      0x00\n        /* \"contracts/KajuswapLibrary.sol\":1099:1109  reserveOut */\n      dup3\n        /* \"contracts/KajuswapLibrary.sol\":1099:1114  reserveOut == 0 */\n      eq\n        /* \"contracts/KajuswapLibrary.sol\":1081:1114  reserveIn == 0 || reserveOut == 0 */\n    tag_105:\n        /* \"contracts/KajuswapLibrary.sol\":1077:1146  if (reserveIn == 0 || reserveOut == 0) revert InsufficientLiquidity() */\n      iszero\n      tag_106\n      jumpi\n        /* \"contracts/KajuswapLibrary.sol\":1123:1146  InsufficientLiquidity() */\n      mload(0x40)\n      0xbb55fd2700000000000000000000000000000000000000000000000000000000\n      dup2\n      mstore\n      0x04\n      add\n      mload(0x40)\n      dup1\n      swap2\n      sub\n      swap1\n      revert\n        /* \"contracts/KajuswapLibrary.sol\":1077:1146  if (reserveIn == 0 || reserveOut == 0) revert InsufficientLiquidity() */\n    tag_106:\n        /* \"contracts/KajuswapLibrary.sol\":1192:1201  reserveIn */\n      dup3\n        /* \"contracts/KajuswapLibrary.sol\":1178:1188  reserveOut */\n      dup3\n        /* \"contracts/KajuswapLibrary.sol\":1167:1175  amountIn */\n      dup6\n        /* \"contracts/KajuswapLibrary.sol\":1167:1188  amountIn * reserveOut */\n      tag_107\n      swap2\n      swap1\n      tag_46\n      jump\t// in\n    tag_107:\n        /* \"contracts/KajuswapLibrary.sol\":1166:1201  (amountIn * reserveOut) / reserveIn */\n      tag_108\n      swap2\n      swap1\n      tag_52\n      jump\t// in\n    tag_108:\n        /* \"contracts/KajuswapLibrary.sol\":1159:1201  return (amountIn * reserveOut) / reserveIn */\n      swap1\n      pop\n        /* \"contracts/KajuswapLibrary.sol\":863:1209  function quote(... */\n      swap4\n      swap3\n      pop\n      pop\n      pop\n      jump\t// out\n        /* \"contracts/KajuswapLibrary.sol\":2989:3629  function getAmountsOut(... */\n    tag_39:\n        /* \"contracts/KajuswapLibrary.sol\":3120:3136  uint256[] memory */\n      0x60\n        /* \"contracts/KajuswapLibrary.sol\":3167:3168  2 */\n      0x02\n        /* \"contracts/KajuswapLibrary.sol\":3153:3157  path */\n      dup3\n        /* \"contracts/KajuswapLibrary.sol\":3153:3164  path.length */\n      mload\n        /* \"contracts/KajuswapLibrary.sol\":3153:3168  path.length < 2 */\n      lt\n        /* \"contracts/KajuswapLibrary.sol\":3149:3190  if (path.length < 2) revert InvalidPath() */\n      iszero\n      tag_110\n      jumpi\n        /* \"contracts/KajuswapLibrary.sol\":3177:3190  InvalidPath() */\n      mload(0x40)\n      0x20db826700000000000000000000000000000000000000000000000000000000\n      dup2\n      mstore\n      0x04\n      add\n      mload(0x40)\n      dup1\n      swap2\n      sub\n      swap1\n      revert\n        /* \"contracts/KajuswapLibrary.sol\":3149:3190  if (path.length < 2) revert InvalidPath() */\n    tag_110:\n        /* \"contracts/KajuswapLibrary.sol\":3201:3225  uint256[] memory amounts */\n      0x00\n        /* \"contracts/KajuswapLibrary.sol\":3242:3246  path */\n      dup3\n        /* \"contracts/KajuswapLibrary.sol\":3242:3253  path.length */\n      mload\n        /* \"contracts/KajuswapLibrary.sol\":3228:3254  new uint256[](path.length) */\n      0xffffffffffffffff\n      dup2\n      gt\n      iszero\n      tag_111\n      jumpi\n      tag_112\n      tag_57\n      jump\t// in\n    tag_112:\n    tag_111:\n      mload(0x40)\n      swap1\n      dup1\n      dup3\n      mstore\n      dup1\n      0x20\n      mul\n      0x20\n      add\n      dup3\n      add\n      0x40\n      mstore\n      dup1\n      iszero\n      tag_113\n      jumpi\n      dup2\n      0x20\n      add\n      0x20\n      dup3\n      mul\n      dup1\n      calldatasize\n      dup4\n      calldatacopy\n      dup1\n      dup3\n      add\n      swap2\n      pop\n      pop\n      swap1\n      pop\n    tag_113:\n      pop\n        /* \"contracts/KajuswapLibrary.sol\":3201:3254  uint256[] memory amounts = new uint256[](path.length) */\n      swap1\n      pop\n        /* \"contracts/KajuswapLibrary.sol\":3278:3286  amountIn */\n      dup4\n        /* \"contracts/KajuswapLibrary.sol\":3265:3272  amounts */\n      dup2\n        /* \"contracts/KajuswapLibrary.sol\":3273:3274  0 */\n      0x00\n        /* \"contracts/KajuswapLibrary.sol\":3265:3275  amounts[0] */\n      dup2\n      mload\n      dup2\n      lt\n      tag_114\n      jumpi\n      tag_115\n      tag_63\n      jump\t// in\n    tag_115:\n    tag_114:\n      0x20\n      mul\n      0x20\n      add\n      add\n        /* \"contracts/KajuswapLibrary.sol\":3265:3286  amounts[0] = amountIn */\n      dup2\n      dup2\n      mstore\n      pop\n      pop\n        /* \"contracts/KajuswapLibrary.sol\":3304:3313  uint256 i */\n      0x00\n        /* \"contracts/KajuswapLibrary.sol\":3299:3595  for (uint256 i = 0; i < path.length - 1; i++) {... */\n    tag_116:\n        /* \"contracts/KajuswapLibrary.sol\":3337:3338  1 */\n      0x01\n        /* \"contracts/KajuswapLibrary.sol\":3323:3327  path */\n      dup5\n        /* \"contracts/KajuswapLibrary.sol\":3323:3334  path.length */\n      mload\n        /* \"contracts/KajuswapLibrary.sol\":3323:3338  path.length - 1 */\n      tag_119\n      swap2\n      swap1\n      tag_60\n      jump\t// in\n    tag_119:\n        /* \"contracts/KajuswapLibrary.sol\":3319:3320  i */\n      dup2\n        /* \"contracts/KajuswapLibrary.sol\":3319:3338  i < path.length - 1 */\n      lt\n        /* \"contracts/KajuswapLibrary.sol\":3299:3595  for (uint256 i = 0; i < path.length - 1; i++) {... */\n      iszero\n      tag_117\n      jumpi\n        /* \"contracts/KajuswapLibrary.sol\":3361:3377  uint256 reserve0 */\n      0x00\n        /* \"contracts/KajuswapLibrary.sol\":3379:3395  uint256 reserve1 */\n      dup1\n        /* \"contracts/KajuswapLibrary.sol\":3399:3507  getReserves(... */\n      tag_120\n        /* \"contracts/KajuswapLibrary.sol\":3429:3436  factory */\n      dup9\n        /* \"contracts/KajuswapLibrary.sol\":3455:3459  path */\n      dup8\n        /* \"contracts/KajuswapLibrary.sol\":3460:3461  i */\n      dup6\n        /* \"contracts/KajuswapLibrary.sol\":3455:3462  path[i] */\n      dup2\n      mload\n      dup2\n      lt\n      tag_121\n      jumpi\n      tag_122\n      tag_63\n      jump\t// in\n    tag_122:\n    tag_121:\n      0x20\n      mul\n      0x20\n      add\n      add\n      mload\n        /* \"contracts/KajuswapLibrary.sol\":3481:3485  path */\n      dup9\n        /* \"contracts/KajuswapLibrary.sol\":3490:3491  1 */\n      0x01\n        /* \"contracts/KajuswapLibrary.sol\":3486:3487  i */\n      dup8\n        /* \"contracts/KajuswapLibrary.sol\":3486:3491  i + 1 */\n      tag_123\n      swap2\n      swap1\n      tag_50\n      jump\t// in\n    tag_123:\n        /* \"contracts/KajuswapLibrary.sol\":3481:3492  path[i + 1] */\n      dup2\n      mload\n      dup2\n      lt\n      tag_124\n      jumpi\n      tag_125\n      tag_63\n      jump\t// in\n    tag_125:\n    tag_124:\n      0x20\n      mul\n      0x20\n      add\n      add\n      mload\n        /* \"contracts/KajuswapLibrary.sol\":3399:3410  getReserves */\n      tag_25\n        /* \"contracts/KajuswapLibrary.sol\":3399:3507  getReserves(... */\n      jump\t// in\n    tag_120:\n        /* \"contracts/KajuswapLibrary.sol\":3360:3507  (uint256 reserve0, uint256 reserve1) = getReserves(... */\n      swap2\n      pop\n      swap2\n      pop\n        /* \"contracts/KajuswapLibrary.sol\":3539:3583  getAmountOut(amounts[i], reserve0, reserve1) */\n      tag_126\n        /* \"contracts/KajuswapLibrary.sol\":3552:3559  amounts */\n      dup5\n        /* \"contracts/KajuswapLibrary.sol\":3560:3561  i */\n      dup5\n        /* \"contracts/KajuswapLibrary.sol\":3552:3562  amounts[i] */\n      dup2\n      mload\n      dup2\n      lt\n      tag_127\n      jumpi\n      tag_128\n      tag_63\n      jump\t// in\n    tag_128:\n    tag_127:\n      0x20\n      mul\n      0x20\n      add\n      add\n      mload\n        /* \"contracts/KajuswapLibrary.sol\":3564:3572  reserve0 */\n      dup4\n        /* \"contracts/KajuswapLibrary.sol\":3574:3582  reserve1 */\n      dup4\n        /* \"contracts/KajuswapLibrary.sol\":3539:3551  getAmountOut */\n      tag_11\n        /* \"contracts/KajuswapLibrary.sol\":3539:3583  getAmountOut(amounts[i], reserve0, reserve1) */\n      jump\t// in\n    tag_126:\n        /* \"contracts/KajuswapLibrary.sol\":3522:3529  amounts */\n      dup5\n        /* \"contracts/KajuswapLibrary.sol\":3534:3535  1 */\n      0x01\n        /* \"contracts/KajuswapLibrary.sol\":3530:3531  i */\n      dup6\n        /* \"contracts/KajuswapLibrary.sol\":3530:3535  i + 1 */\n      tag_129\n      swap2\n      swap1\n      tag_50\n      jump\t// in\n    tag_129:\n        /* \"contracts/KajuswapLibrary.sol\":3522:3536  amounts[i + 1] */\n      dup2\n      mload\n      dup2\n      lt\n      tag_130\n      jumpi\n      tag_131\n      tag_63\n      jump\t// in\n    tag_131:\n    tag_130:\n      0x20\n      mul\n      0x20\n      add\n      add\n        /* \"contracts/KajuswapLibrary.sol\":3522:3583  amounts[i + 1] = getAmountOut(amounts[i], reserve0, reserve1) */\n      dup2\n      dup2\n      mstore\n      pop\n      pop\n        /* \"contracts/KajuswapLibrary.sol\":3345:3595  {... */\n      pop\n      pop\n        /* \"contracts/KajuswapLibrary.sol\":3340:3343  i++ */\n      dup1\n      dup1\n      tag_132\n      swap1\n      tag_133\n      jump\t// in\n    tag_132:\n      swap2\n      pop\n      pop\n        /* \"contracts/KajuswapLibrary.sol\":3299:3595  for (uint256 i = 0; i < path.length - 1; i++) {... */\n      jump(tag_116)\n    tag_117:\n      pop\n        /* \"contracts/KajuswapLibrary.sol\":3614:3621  amounts */\n      dup1\n        /* \"contracts/KajuswapLibrary.sol\":3607:3621  return amounts */\n      swap2\n      pop\n      pop\n        /* \"contracts/KajuswapLibrary.sol\":2989:3629  function getAmountsOut(... */\n      swap4\n      swap3\n      pop\n      pop\n      pop\n      jump\t// out\n        /* \"contracts/KajuswapLibrary.sol\":2243:2461  function sortTokens(address tokenA, address tokenB)... */\n    tag_84:\n        /* \"contracts/KajuswapLibrary.sol\":2345:2359  address token0 */\n      0x00\n        /* \"contracts/KajuswapLibrary.sol\":2361:2375  address token1 */\n      dup1\n        /* \"contracts/KajuswapLibrary.sol\":2409:2415  tokenB */\n      dup3\n        /* \"contracts/KajuswapLibrary.sol\":2400:2415  tokenA < tokenB */\n      0xffffffffffffffffffffffffffffffffffffffff\n      and\n        /* \"contracts/KajuswapLibrary.sol\":2400:2406  tokenA */\n      dup5\n        /* \"contracts/KajuswapLibrary.sol\":2400:2415  tokenA < tokenB */\n      0xffffffffffffffffffffffffffffffffffffffff\n      and\n      lt\n        /* \"contracts/KajuswapLibrary.sol\":2400:2453  tokenA < tokenB ? (tokenA, tokenB) : (tokenB, tokenA) */\n      tag_135\n      jumpi\n        /* \"contracts/KajuswapLibrary.sol\":2438:2444  tokenB */\n      dup3\n        /* \"contracts/KajuswapLibrary.sol\":2446:2452  tokenA */\n      dup5\n        /* \"contracts/KajuswapLibrary.sol\":2400:2453  tokenA < tokenB ? (tokenA, tokenB) : (tokenB, tokenA) */\n      jump(tag_136)\n    tag_135:\n        /* \"contracts/KajuswapLibrary.sol\":2419:2425  tokenA */\n      dup4\n        /* \"contracts/KajuswapLibrary.sol\":2427:2433  tokenB */\n      dup4\n        /* \"contracts/KajuswapLibrary.sol\":2400:2453  tokenA < tokenB ? (tokenA, tokenB) : (tokenB, tokenA) */\n    tag_136:\n        /* \"contracts/KajuswapLibrary.sol\":2393:2453  return tokenA < tokenB ? (tokenA, tokenB) : (tokenB, tokenA) */\n      swap2\n      pop\n      swap2\n      pop\n        /* \"contracts/KajuswapLibrary.sol\":2243:2461  function sortTokens(address tokenA, address tokenB)... */\n      swap3\n      pop\n      swap3\n      swap1\n      pop\n      jump\t// out\n        /* \"contracts/KajuswapLibrary.sol\":1282:2235  function pairFor(... */\n    tag_86:\n        /* \"contracts/KajuswapLibrary.sol\":1412:1431  address pairAddress */\n      0x00\n        /* \"contracts/KajuswapLibrary.sol\":1445:1459  address token0 */\n      dup1\n        /* \"contracts/KajuswapLibrary.sol\":1461:1475  address token1 */\n      0x00\n        /* \"contracts/KajuswapLibrary.sol\":1479:1505  sortTokens(tokenA, tokenB) */\n      tag_138\n        /* \"contracts/KajuswapLibrary.sol\":1490:1496  tokenA */\n      dup6\n        /* \"contracts/KajuswapLibrary.sol\":1498:1504  tokenB */\n      dup6\n        /* \"contracts/KajuswapLibrary.sol\":1479:1489  sortTokens */\n      tag_84\n        /* \"contracts/KajuswapLibrary.sol\":1479:1505  sortTokens(tokenA, tokenB) */\n      jump\t// in\n    tag_138:\n        /* \"contracts/KajuswapLibrary.sol\":1444:1505  (address token0, address token1) = sortTokens(tokenA, tokenB) */\n      swap2\n      pop\n      swap2\n      pop\n        /* \"contracts/KajuswapLibrary.sol\":1902:1916  factoryAddress */\n      dup6\n        /* \"contracts/KajuswapLibrary.sol\":1974:1980  token0 */\n      dup3\n        /* \"contracts/KajuswapLibrary.sol\":1982:1988  token1 */\n      dup3\n        /* \"contracts/KajuswapLibrary.sol\":1957:1989  abi.encodePacked(token0, token1) */\n      add(0x20, mload(0x40))\n      tag_139\n      swap3\n      swap2\n      swap1\n      tag_140\n      jump\t// in\n    tag_139:\n      mload(0x40)\n      0x20\n      dup2\n      dup4\n      sub\n      sub\n      dup2\n      mstore\n      swap1\n      0x40\n      mstore\n        /* \"contracts/KajuswapLibrary.sol\":1947:1990  keccak256(abi.encodePacked(token0, token1)) */\n      dup1\n      mload\n      swap1\n      0x20\n      add\n      keccak256\n        /* \"contracts/KajuswapLibrary.sol\":1817:2159  abi.encodePacked(... */\n      add(0x20, mload(0x40))\n      tag_141\n      swap3\n      swap2\n      swap1\n      tag_142\n      jump\t// in\n    tag_141:\n      mload(0x40)\n      0x20\n      dup2\n      dup4\n      sub\n      sub\n      dup2\n      mstore\n      swap1\n      0x40\n      mstore\n        /* \"contracts/KajuswapLibrary.sol\":1781:2182  keccak256(... */\n      dup1\n      mload\n      swap1\n      0x20\n      add\n      keccak256\n        /* \"contracts/KajuswapLibrary.sol\":1751:2201  uint256(... */\n      0x00\n      shr\n        /* \"contracts/KajuswapLibrary.sol\":1689:2227  pairAddress = address(... */\n      swap3\n      pop\n        /* \"contracts/KajuswapLibrary.sol\":1433:2235  {... */\n      pop\n      pop\n        /* \"contracts/KajuswapLibrary.sol\":1282:2235  function pairFor(... */\n      swap4\n      swap3\n      pop\n      pop\n      pop\n      jump\t// out\n        /* \"#utility.yul\":7:82   */\n    tag_143:\n        /* \"#utility.yul\":40:46   */\n      0x00\n        /* \"#utility.yul\":73:75   */\n      0x40\n        /* \"#utility.yul\":67:76   */\n      mload\n        /* \"#utility.yul\":57:76   */\n      swap1\n      pop\n        /* \"#utility.yul\":7:82   */\n      swap1\n      jump\t// out\n        /* \"#utility.yul\":88:205   */\n    tag_144:\n        /* \"#utility.yul\":197:198   */\n      0x00\n        /* \"#utility.yul\":194:195   */\n      dup1\n        /* \"#utility.yul\":187:199   */\n      revert\n        /* \"#utility.yul\":211:328   */\n    tag_145:\n        /* \"#utility.yul\":320:321   */\n      0x00\n        /* \"#utility.yul\":317:318   */\n      dup1\n        /* \"#utility.yul\":310:322   */\n      revert\n        /* \"#utility.yul\":334:411   */\n    tag_146:\n        /* \"#utility.yul\":371:378   */\n      0x00\n        /* \"#utility.yul\":400:405   */\n      dup2\n        /* \"#utility.yul\":389:405   */\n      swap1\n      pop\n        /* \"#utility.yul\":334:411   */\n      swap2\n      swap1\n      pop\n      jump\t// out\n        /* \"#utility.yul\":417:539   */\n    tag_147:\n        /* \"#utility.yul\":490:514   */\n      tag_195\n        /* \"#utility.yul\":508:513   */\n      dup2\n        /* \"#utility.yul\":490:514   */\n      tag_146\n      jump\t// in\n    tag_195:\n        /* \"#utility.yul\":483:488   */\n      dup2\n        /* \"#utility.yul\":480:515   */\n      eq\n        /* \"#utility.yul\":470:533   */\n      tag_196\n      jumpi\n        /* \"#utility.yul\":529:530   */\n      0x00\n        /* \"#utility.yul\":526:527   */\n      dup1\n        /* \"#utility.yul\":519:531   */\n      revert\n        /* \"#utility.yul\":470:533   */\n    tag_196:\n        /* \"#utility.yul\":417:539   */\n      pop\n      jump\t// out\n        /* \"#utility.yul\":545:684   */\n    tag_148:\n        /* \"#utility.yul\":591:596   */\n      0x00\n        /* \"#utility.yul\":629:635   */\n      dup2\n        /* \"#utility.yul\":616:636   */\n      calldataload\n        /* \"#utility.yul\":607:636   */\n      swap1\n      pop\n        /* \"#utility.yul\":645:678   */\n      tag_198\n        /* \"#utility.yul\":672:677   */\n      dup2\n        /* \"#utility.yul\":645:678   */\n      tag_147\n      jump\t// in\n    tag_198:\n        /* \"#utility.yul\":545:684   */\n      swap3\n      swap2\n      pop\n      pop\n      jump\t// out\n        /* \"#utility.yul\":690:1309   */\n    tag_10:\n        /* \"#utility.yul\":767:773   */\n      0x00\n        /* \"#utility.yul\":775:781   */\n      dup1\n        /* \"#utility.yul\":783:789   */\n      0x00\n        /* \"#utility.yul\":832:834   */\n      0x60\n        /* \"#utility.yul\":820:829   */\n      dup5\n        /* \"#utility.yul\":811:818   */\n      dup7\n        /* \"#utility.yul\":807:830   */\n      sub\n        /* \"#utility.yul\":803:835   */\n      slt\n        /* \"#utility.yul\":800:919   */\n      iszero\n      tag_200\n      jumpi\n        /* \"#utility.yul\":838:917   */\n      tag_201\n      tag_144\n      jump\t// in\n    tag_201:\n        /* \"#utility.yul\":800:919   */\n    tag_200:\n        /* \"#utility.yul\":958:959   */\n      0x00\n        /* \"#utility.yul\":983:1036   */\n      tag_202\n        /* \"#utility.yul\":1028:1035   */\n      dup7\n        /* \"#utility.yul\":1019:1025   */\n      dup3\n        /* \"#utility.yul\":1008:1017   */\n      dup8\n        /* \"#utility.yul\":1004:1026   */\n      add\n        /* \"#utility.yul\":983:1036   */\n      tag_148\n      jump\t// in\n    tag_202:\n        /* \"#utility.yul\":973:1036   */\n      swap4\n      pop\n        /* \"#utility.yul\":929:1046   */\n      pop\n        /* \"#utility.yul\":1085:1087   */\n      0x20\n        /* \"#utility.yul\":1111:1164   */\n      tag_203\n        /* \"#utility.yul\":1156:1163   */\n      dup7\n        /* \"#utility.yul\":1147:1153   */\n      dup3\n        /* \"#utility.yul\":1136:1145   */\n      dup8\n        /* \"#utility.yul\":1132:1154   */\n      add\n        /* \"#utility.yul\":1111:1164   */\n      tag_148\n      jump\t// in\n    tag_203:\n        /* \"#utility.yul\":1101:1164   */\n      swap3\n      pop\n        /* \"#utility.yul\":1056:1174   */\n      pop\n        /* \"#utility.yul\":1213:1215   */\n      0x40\n        /* \"#utility.yul\":1239:1292   */\n      tag_204\n        /* \"#utility.yul\":1284:1291   */\n      dup7\n        /* \"#utility.yul\":1275:1281   */\n      dup3\n        /* \"#utility.yul\":1264:1273   */\n      dup8\n        /* \"#utility.yul\":1260:1282   */\n      add\n        /* \"#utility.yul\":1239:1292   */\n      tag_148\n      jump\t// in\n    tag_204:\n        /* \"#utility.yul\":1229:1292   */\n      swap2\n      pop\n        /* \"#utility.yul\":1184:1302   */\n      pop\n        /* \"#utility.yul\":690:1309   */\n      swap3\n      pop\n      swap3\n      pop\n      swap3\n      jump\t// out\n        /* \"#utility.yul\":1315:1441   */\n    tag_149:\n        /* \"#utility.yul\":1410:1434   */\n      tag_206\n        /* \"#utility.yul\":1428:1433   */\n      dup2\n        /* \"#utility.yul\":1410:1434   */\n      tag_146\n      jump\t// in\n    tag_206:\n        /* \"#utility.yul\":1405:1408   */\n      dup3\n        /* \"#utility.yul\":1398:1435   */\n      mstore\n        /* \"#utility.yul\":1315:1441   */\n      pop\n      pop\n      jump\t// out\n        /* \"#utility.yul\":1447:1685   */\n    tag_13:\n        /* \"#utility.yul\":1548:1552   */\n      0x00\n        /* \"#utility.yul\":1586:1588   */\n      0x20\n        /* \"#utility.yul\":1575:1584   */\n      dup3\n        /* \"#utility.yul\":1571:1589   */\n      add\n        /* \"#utility.yul\":1563:1589   */\n      swap1\n      pop\n        /* \"#utility.yul\":1599:1678   */\n      tag_208\n        /* \"#utility.yul\":1675:1676   */\n      0x00\n        /* \"#utility.yul\":1664:1673   */\n      dup4\n        /* \"#utility.yul\":1660:1677   */\n      add\n        /* \"#utility.yul\":1651:1657   */\n      dup5\n        /* \"#utility.yul\":1599:1678   */\n      tag_149\n      jump\t// in\n    tag_208:\n        /* \"#utility.yul\":1447:1685   */\n      swap3\n      swap2\n      pop\n      pop\n      jump\t// out\n        /* \"#utility.yul\":1691:1817   */\n    tag_150:\n        /* \"#utility.yul\":1728:1735   */\n      0x00\n        /* \"#utility.yul\":1768:1810   */\n      0xffffffffffffffffffffffffffffffffffffffff\n        /* \"#utility.yul\":1761:1766   */\n      dup3\n        /* \"#utility.yul\":1757:1811   */\n      and\n        /* \"#utility.yul\":1746:1811   */\n      swap1\n      pop\n        /* \"#utility.yul\":1691:1817   */\n      swap2\n      swap1\n      pop\n      jump\t// out\n        /* \"#utility.yul\":1823:1919   */\n    tag_151:\n        /* \"#utility.yul\":1860:1867   */\n      0x00\n        /* \"#utility.yul\":1889:1913   */\n      tag_211\n        /* \"#utility.yul\":1907:1912   */\n      dup3\n        /* \"#utility.yul\":1889:1913   */\n      tag_150\n      jump\t// in\n    tag_211:\n        /* \"#utility.yul\":1878:1913   */\n      swap1\n      pop\n        /* \"#utility.yul\":1823:1919   */\n      swap2\n      swap1\n      pop\n      jump\t// out\n        /* \"#utility.yul\":1925:2047   */\n    tag_152:\n        /* \"#utility.yul\":1998:2022   */\n      tag_213\n        /* \"#utility.yul\":2016:2021   */\n      dup2\n        /* \"#utility.yul\":1998:2022   */\n      tag_151\n      jump\t// in\n    tag_213:\n        /* \"#utility.yul\":1991:1996   */\n      dup2\n        /* \"#utility.yul\":1988:2023   */\n      eq\n        /* \"#utility.yul\":1978:2041   */\n      tag_214\n      jumpi\n        /* \"#utility.yul\":2037:2038   */\n      0x00\n        /* \"#utility.yul\":2034:2035   */\n      dup1\n        /* \"#utility.yul\":2027:2039   */\n      revert\n        /* \"#utility.yul\":1978:2041   */\n    tag_214:\n        /* \"#utility.yul\":1925:2047   */\n      pop\n      jump\t// out\n        /* \"#utility.yul\":2053:2192   */\n    tag_153:\n        /* \"#utility.yul\":2099:2104   */\n      0x00\n        /* \"#utility.yul\":2137:2143   */\n      dup2\n        /* \"#utility.yul\":2124:2144   */\n      calldataload\n        /* \"#utility.yul\":2115:2144   */\n      swap1\n      pop\n        /* \"#utility.yul\":2153:2186   */\n      tag_216\n        /* \"#utility.yul\":2180:2185   */\n      dup2\n        /* \"#utility.yul\":2153:2186   */\n      tag_152\n      jump\t// in\n    tag_216:\n        /* \"#utility.yul\":2053:2192   */\n      swap3\n      swap2\n      pop\n      pop\n      jump\t// out\n        /* \"#utility.yul\":2198:2315   */\n    tag_154:\n        /* \"#utility.yul\":2307:2308   */\n      0x00\n        /* \"#utility.yul\":2304:2305   */\n      dup1\n        /* \"#utility.yul\":2297:2309   */\n      revert\n        /* \"#utility.yul\":2321:2423   */\n    tag_155:\n        /* \"#utility.yul\":2362:2368   */\n      0x00\n        /* \"#utility.yul\":2413:2415   */\n      0x1f\n        /* \"#utility.yul\":2409:2416   */\n      not\n        /* \"#utility.yul\":2404:2406   */\n      0x1f\n        /* \"#utility.yul\":2397:2402   */\n      dup4\n        /* \"#utility.yul\":2393:2407   */\n      add\n        /* \"#utility.yul\":2389:2417   */\n      and\n        /* \"#utility.yul\":2379:2417   */\n      swap1\n      pop\n        /* \"#utility.yul\":2321:2423   */\n      swap2\n      swap1\n      pop\n      jump\t// out\n        /* \"#utility.yul\":2429:2609   */\n    tag_57:\n        /* \"#utility.yul\":2477:2554   */\n      0x4e487b7100000000000000000000000000000000000000000000000000000000\n        /* \"#utility.yul\":2474:2475   */\n      0x00\n        /* \"#utility.yul\":2467:2555   */\n      mstore\n        /* \"#utility.yul\":2574:2578   */\n      0x41\n        /* \"#utility.yul\":2571:2572   */\n      0x04\n        /* \"#utility.yul\":2564:2579   */\n      mstore\n        /* \"#utility.yul\":2598:2602   */\n      0x24\n        /* \"#utility.yul\":2595:2596   */\n      0x00\n        /* \"#utility.yul\":2588:2603   */\n      revert\n        /* \"#utility.yul\":2615:2896   */\n    tag_156:\n        /* \"#utility.yul\":2698:2725   */\n      tag_221\n        /* \"#utility.yul\":2720:2724   */\n      dup3\n        /* \"#utility.yul\":2698:2725   */\n      tag_155\n      jump\t// in\n    tag_221:\n        /* \"#utility.yul\":2690:2696   */\n      dup2\n        /* \"#utility.yul\":2686:2726   */\n      add\n        /* \"#utility.yul\":2828:2834   */\n      dup2\n        /* \"#utility.yul\":2816:2826   */\n      dup2\n        /* \"#utility.yul\":2813:2835   */\n      lt\n        /* \"#utility.yul\":2792:2810   */\n      0xffffffffffffffff\n        /* \"#utility.yul\":2780:2790   */\n      dup3\n        /* \"#utility.yul\":2777:2811   */\n      gt\n        /* \"#utility.yul\":2774:2836   */\n      or\n        /* \"#utility.yul\":2771:2859   */\n      iszero\n      tag_222\n      jumpi\n        /* \"#utility.yul\":2839:2857   */\n      tag_223\n      tag_57\n      jump\t// in\n    tag_223:\n        /* \"#utility.yul\":2771:2859   */\n    tag_222:\n        /* \"#utility.yul\":2879:2889   */\n      dup1\n        /* \"#utility.yul\":2875:2877   */\n      0x40\n        /* \"#utility.yul\":2868:2890   */\n      mstore\n        /* \"#utility.yul\":2658:2896   */\n      pop\n        /* \"#utility.yul\":2615:2896   */\n      pop\n      pop\n      jump\t// out\n        /* \"#utility.yul\":2902:3031   */\n    tag_157:\n        /* \"#utility.yul\":2936:2942   */\n      0x00\n        /* \"#utility.yul\":2963:2983   */\n      tag_225\n      tag_143\n      jump\t// in\n    tag_225:\n        /* \"#utility.yul\":2953:2983   */\n      swap1\n      pop\n        /* \"#utility.yul\":2992:3025   */\n      tag_226\n        /* \"#utility.yul\":3020:3024   */\n      dup3\n        /* \"#utility.yul\":3012:3018   */\n      dup3\n        /* \"#utility.yul\":2992:3025   */\n      tag_156\n      jump\t// in\n    tag_226:\n        /* \"#utility.yul\":2902:3031   */\n      swap2\n      swap1\n      pop\n      jump\t// out\n        /* \"#utility.yul\":3037:3348   */\n    tag_158:\n        /* \"#utility.yul\":3114:3118   */\n      0x00\n        /* \"#utility.yul\":3204:3222   */\n      0xffffffffffffffff\n        /* \"#utility.yul\":3196:3202   */\n      dup3\n        /* \"#utility.yul\":3193:3223   */\n      gt\n        /* \"#utility.yul\":3190:3246   */\n      iszero\n      tag_228\n      jumpi\n        /* \"#utility.yul\":3226:3244   */\n      tag_229\n      tag_57\n      jump\t// in\n    tag_229:\n        /* \"#utility.yul\":3190:3246   */\n    tag_228:\n        /* \"#utility.yul\":3276:3280   */\n      0x20\n        /* \"#utility.yul\":3268:3274   */\n      dup3\n        /* \"#utility.yul\":3264:3281   */\n      mul\n        /* \"#utility.yul\":3256:3281   */\n      swap1\n      pop\n        /* \"#utility.yul\":3336:3340   */\n      0x20\n        /* \"#utility.yul\":3330:3334   */\n      dup2\n        /* \"#utility.yul\":3326:3341   */\n      add\n        /* \"#utility.yul\":3318:3341   */\n      swap1\n      pop\n        /* \"#utility.yul\":3037:3348   */\n      swap2\n      swap1\n      pop\n      jump\t// out\n        /* \"#utility.yul\":3354:3471   */\n    tag_159:\n        /* \"#utility.yul\":3463:3464   */\n      0x00\n        /* \"#utility.yul\":3460:3461   */\n      dup1\n        /* \"#utility.yul\":3453:3465   */\n      revert\n        /* \"#utility.yul\":3494:4204   */\n    tag_160:\n        /* \"#utility.yul\":3590:3595   */\n      0x00\n        /* \"#utility.yul\":3615:3696   */\n      tag_232\n        /* \"#utility.yul\":3631:3695   */\n      tag_233\n        /* \"#utility.yul\":3688:3694   */\n      dup5\n        /* \"#utility.yul\":3631:3695   */\n      tag_158\n      jump\t// in\n    tag_233:\n        /* \"#utility.yul\":3615:3696   */\n      tag_157\n      jump\t// in\n    tag_232:\n        /* \"#utility.yul\":3606:3696   */\n      swap1\n      pop\n        /* \"#utility.yul\":3716:3721   */\n      dup1\n        /* \"#utility.yul\":3745:3751   */\n      dup4\n        /* \"#utility.yul\":3738:3743   */\n      dup3\n        /* \"#utility.yul\":3731:3752   */\n      mstore\n        /* \"#utility.yul\":3779:3783   */\n      0x20\n        /* \"#utility.yul\":3772:3777   */\n      dup3\n        /* \"#utility.yul\":3768:3784   */\n      add\n        /* \"#utility.yul\":3761:3784   */\n      swap1\n      pop\n        /* \"#utility.yul\":3832:3836   */\n      0x20\n        /* \"#utility.yul\":3824:3830   */\n      dup5\n        /* \"#utility.yul\":3820:3837   */\n      mul\n        /* \"#utility.yul\":3812:3818   */\n      dup4\n        /* \"#utility.yul\":3808:3838   */\n      add\n        /* \"#utility.yul\":3861:3864   */\n      dup6\n        /* \"#utility.yul\":3853:3859   */\n      dup2\n        /* \"#utility.yul\":3850:3865   */\n      gt\n        /* \"#utility.yul\":3847:3969   */\n      iszero\n      tag_234\n      jumpi\n        /* \"#utility.yul\":3880:3959   */\n      tag_235\n      tag_159\n      jump\t// in\n    tag_235:\n        /* \"#utility.yul\":3847:3969   */\n    tag_234:\n        /* \"#utility.yul\":3995:4001   */\n      dup4\n        /* \"#utility.yul\":3978:4198   */\n    tag_236:\n        /* \"#utility.yul\":4012:4018   */\n      dup2\n        /* \"#utility.yul\":4007:4010   */\n      dup2\n        /* \"#utility.yul\":4004:4019   */\n      lt\n        /* \"#utility.yul\":3978:4198   */\n      iszero\n      tag_238\n      jumpi\n        /* \"#utility.yul\":4087:4090   */\n      dup1\n        /* \"#utility.yul\":4116:4153   */\n      tag_239\n        /* \"#utility.yul\":4149:4152   */\n      dup9\n        /* \"#utility.yul\":4137:4147   */\n      dup3\n        /* \"#utility.yul\":4116:4153   */\n      tag_153\n      jump\t// in\n    tag_239:\n        /* \"#utility.yul\":4111:4114   */\n      dup5\n        /* \"#utility.yul\":4104:4154   */\n      mstore\n        /* \"#utility.yul\":4183:4187   */\n      0x20\n        /* \"#utility.yul\":4178:4181   */\n      dup5\n        /* \"#utility.yul\":4174:4188   */\n      add\n        /* \"#utility.yul\":4167:4188   */\n      swap4\n      pop\n        /* \"#utility.yul\":4054:4198   */\n      pop\n        /* \"#utility.yul\":4038:4042   */\n      0x20\n        /* \"#utility.yul\":4033:4036   */\n      dup2\n        /* \"#utility.yul\":4029:4043   */\n      add\n        /* \"#utility.yul\":4022:4043   */\n      swap1\n      pop\n        /* \"#utility.yul\":3978:4198   */\n      jump(tag_236)\n    tag_238:\n        /* \"#utility.yul\":3982:4003   */\n      pop\n        /* \"#utility.yul\":3596:4204   */\n      pop\n      pop\n        /* \"#utility.yul\":3494:4204   */\n      swap4\n      swap3\n      pop\n      pop\n      pop\n      jump\t// out\n        /* \"#utility.yul\":4227:4597   */\n    tag_161:\n        /* \"#utility.yul\":4298:4303   */\n      0x00\n        /* \"#utility.yul\":4347:4350   */\n      dup3\n        /* \"#utility.yul\":4340:4344   */\n      0x1f\n        /* \"#utility.yul\":4332:4338   */\n      dup4\n        /* \"#utility.yul\":4328:4345   */\n      add\n        /* \"#utility.yul\":4324:4351   */\n      slt\n        /* \"#utility.yul\":4314:4436   */\n      tag_241\n      jumpi\n        /* \"#utility.yul\":4355:4434   */\n      tag_242\n      tag_154\n      jump\t// in\n    tag_242:\n        /* \"#utility.yul\":4314:4436   */\n    tag_241:\n        /* \"#utility.yul\":4472:4478   */\n      dup2\n        /* \"#utility.yul\":4459:4479   */\n      calldataload\n        /* \"#utility.yul\":4497:4591   */\n      tag_243\n        /* \"#utility.yul\":4587:4590   */\n      dup5\n        /* \"#utility.yul\":4579:4585   */\n      dup3\n        /* \"#utility.yul\":4572:4576   */\n      0x20\n        /* \"#utility.yul\":4564:4570   */\n      dup7\n        /* \"#utility.yul\":4560:4577   */\n      add\n        /* \"#utility.yul\":4497:4591   */\n      tag_160\n      jump\t// in\n    tag_243:\n        /* \"#utility.yul\":4488:4591   */\n      swap2\n      pop\n        /* \"#utility.yul\":4304:4597   */\n      pop\n        /* \"#utility.yul\":4227:4597   */\n      swap3\n      swap2\n      pop\n      pop\n      jump\t// out\n        /* \"#utility.yul\":4603:5432   */\n    tag_17:\n        /* \"#utility.yul\":4705:4711   */\n      0x00\n        /* \"#utility.yul\":4713:4719   */\n      dup1\n        /* \"#utility.yul\":4721:4727   */\n      0x00\n        /* \"#utility.yul\":4770:4772   */\n      0x60\n        /* \"#utility.yul\":4758:4767   */\n      dup5\n        /* \"#utility.yul\":4749:4756   */\n      dup7\n        /* \"#utility.yul\":4745:4768   */\n      sub\n        /* \"#utility.yul\":4741:4773   */\n      slt\n        /* \"#utility.yul\":4738:4857   */\n      iszero\n      tag_245\n      jumpi\n        /* \"#utility.yul\":4776:4855   */\n      tag_246\n      tag_144\n      jump\t// in\n    tag_246:\n        /* \"#utility.yul\":4738:4857   */\n    tag_245:\n        /* \"#utility.yul\":4896:4897   */\n      0x00\n        /* \"#utility.yul\":4921:4974   */\n      tag_247\n        /* \"#utility.yul\":4966:4973   */\n      dup7\n        /* \"#utility.yul\":4957:4963   */\n      dup3\n        /* \"#utility.yul\":4946:4955   */\n      dup8\n        /* \"#utility.yul\":4942:4964   */\n      add\n        /* \"#utility.yul\":4921:4974   */\n      tag_153\n      jump\t// in\n    tag_247:\n        /* \"#utility.yul\":4911:4974   */\n      swap4\n      pop\n        /* \"#utility.yul\":4867:4984   */\n      pop\n        /* \"#utility.yul\":5023:5025   */\n      0x20\n        /* \"#utility.yul\":5049:5102   */\n      tag_248\n        /* \"#utility.yul\":5094:5101   */\n      dup7\n        /* \"#utility.yul\":5085:5091   */\n      dup3\n        /* \"#utility.yul\":5074:5083   */\n      dup8\n        /* \"#utility.yul\":5070:5092   */\n      add\n        /* \"#utility.yul\":5049:5102   */\n      tag_148\n      jump\t// in\n    tag_248:\n        /* \"#utility.yul\":5039:5102   */\n      swap3\n      pop\n        /* \"#utility.yul\":4994:5112   */\n      pop\n        /* \"#utility.yul\":5179:5181   */\n      0x40\n        /* \"#utility.yul\":5168:5177   */\n      dup5\n        /* \"#utility.yul\":5164:5182   */\n      add\n        /* \"#utility.yul\":5151:5183   */\n      calldataload\n        /* \"#utility.yul\":5210:5228   */\n      0xffffffffffffffff\n        /* \"#utility.yul\":5202:5208   */\n      dup2\n        /* \"#utility.yul\":5199:5229   */\n      gt\n        /* \"#utility.yul\":5196:5313   */\n      iszero\n      tag_249\n      jumpi\n        /* \"#utility.yul\":5232:5311   */\n      tag_250\n      tag_145\n      jump\t// in\n    tag_250:\n        /* \"#utility.yul\":5196:5313   */\n    tag_249:\n        /* \"#utility.yul\":5337:5415   */\n      tag_251\n        /* \"#utility.yul\":5407:5414   */\n      dup7\n        /* \"#utility.yul\":5398:5404   */\n      dup3\n        /* \"#utility.yul\":5387:5396   */\n      dup8\n        /* \"#utility.yul\":5383:5405   */\n      add\n        /* \"#utility.yul\":5337:5415   */\n      tag_161\n      jump\t// in\n    tag_251:\n        /* \"#utility.yul\":5327:5415   */\n      swap2\n      pop\n        /* \"#utility.yul\":5122:5425   */\n      pop\n        /* \"#utility.yul\":4603:5432   */\n      swap3\n      pop\n      swap3\n      pop\n      swap3\n      jump\t// out\n        /* \"#utility.yul\":5438:5552   */\n    tag_162:\n        /* \"#utility.yul\":5505:5511   */\n      0x00\n        /* \"#utility.yul\":5539:5544   */\n      dup2\n        /* \"#utility.yul\":5533:5545   */\n      mload\n        /* \"#utility.yul\":5523:5545   */\n      swap1\n      pop\n        /* \"#utility.yul\":5438:5552   */\n      swap2\n      swap1\n      pop\n      jump\t// out\n        /* \"#utility.yul\":5558:5750   */\n    tag_163:\n        /* \"#utility.yul\":5665:5676   */\n      0x00\n        /* \"#utility.yul\":5699:5705   */\n      dup3\n        /* \"#utility.yul\":5694:5697   */\n      dup3\n        /* \"#utility.yul\":5687:5706   */\n      mstore\n        /* \"#utility.yul\":5739:5743   */\n      0x20\n        /* \"#utility.yul\":5734:5737   */\n      dup3\n        /* \"#utility.yul\":5730:5744   */\n      add\n        /* \"#utility.yul\":5715:5744   */\n      swap1\n      pop\n        /* \"#utility.yul\":5558:5750   */\n      swap3\n      swap2\n      pop\n      pop\n      jump\t// out\n        /* \"#utility.yul\":5756:5888   */\n    tag_164:\n        /* \"#utility.yul\":5823:5827   */\n      0x00\n        /* \"#utility.yul\":5846:5849   */\n      dup2\n        /* \"#utility.yul\":5838:5849   */\n      swap1\n      pop\n        /* \"#utility.yul\":5876:5880   */\n      0x20\n        /* \"#utility.yul\":5871:5874   */\n      dup3\n        /* \"#utility.yul\":5867:5881   */\n      add\n        /* \"#utility.yul\":5859:5881   */\n      swap1\n      pop\n        /* \"#utility.yul\":5756:5888   */\n      swap2\n      swap1\n      pop\n      jump\t// out\n        /* \"#utility.yul\":5894:6010   */\n    tag_165:\n        /* \"#utility.yul\":5979:6003   */\n      tag_256\n        /* \"#utility.yul\":5997:6002   */\n      dup2\n        /* \"#utility.yul\":5979:6003   */\n      tag_146\n      jump\t// in\n    tag_256:\n        /* \"#utility.yul\":5974:5977   */\n      dup3\n        /* \"#utility.yul\":5967:6004   */\n      mstore\n        /* \"#utility.yul\":5894:6010   */\n      pop\n      pop\n      jump\t// out\n        /* \"#utility.yul\":6016:6211   */\n    tag_166:\n        /* \"#utility.yul\":6093:6103   */\n      0x00\n        /* \"#utility.yul\":6114:6168   */\n      tag_258\n        /* \"#utility.yul\":6164:6167   */\n      dup4\n        /* \"#utility.yul\":6156:6162   */\n      dup4\n        /* \"#utility.yul\":6114:6168   */\n      tag_165\n      jump\t// in\n    tag_258:\n        /* \"#utility.yul\":6200:6204   */\n      0x20\n        /* \"#utility.yul\":6195:6198   */\n      dup4\n        /* \"#utility.yul\":6191:6205   */\n      add\n        /* \"#utility.yul\":6177:6205   */\n      swap1\n      pop\n        /* \"#utility.yul\":6016:6211   */\n      swap3\n      swap2\n      pop\n      pop\n      jump\t// out\n        /* \"#utility.yul\":6217:6330   */\n    tag_167:\n        /* \"#utility.yul\":6287:6291   */\n      0x00\n        /* \"#utility.yul\":6319:6323   */\n      0x20\n        /* \"#utility.yul\":6314:6317   */\n      dup3\n        /* \"#utility.yul\":6310:6324   */\n      add\n        /* \"#utility.yul\":6302:6324   */\n      swap1\n      pop\n        /* \"#utility.yul\":6217:6330   */\n      swap2\n      swap1\n      pop\n      jump\t// out\n        /* \"#utility.yul\":6366:7122   */\n    tag_168:\n        /* \"#utility.yul\":6493:6496   */\n      0x00\n        /* \"#utility.yul\":6522:6576   */\n      tag_261\n        /* \"#utility.yul\":6570:6575   */\n      dup3\n        /* \"#utility.yul\":6522:6576   */\n      tag_162\n      jump\t// in\n    tag_261:\n        /* \"#utility.yul\":6592:6686   */\n      tag_262\n        /* \"#utility.yul\":6679:6685   */\n      dup2\n        /* \"#utility.yul\":6674:6677   */\n      dup6\n        /* \"#utility.yul\":6592:6686   */\n      tag_163\n      jump\t// in\n    tag_262:\n        /* \"#utility.yul\":6585:6686   */\n      swap4\n      pop\n        /* \"#utility.yul\":6710:6766   */\n      tag_263\n        /* \"#utility.yul\":6760:6765   */\n      dup4\n        /* \"#utility.yul\":6710:6766   */\n      tag_164\n      jump\t// in\n    tag_263:\n        /* \"#utility.yul\":6789:6796   */\n      dup1\n        /* \"#utility.yul\":6820:6821   */\n      0x00\n        /* \"#utility.yul\":6805:7097   */\n    tag_264:\n        /* \"#utility.yul\":6830:6836   */\n      dup4\n        /* \"#utility.yul\":6827:6828   */\n      dup2\n        /* \"#utility.yul\":6824:6837   */\n      lt\n        /* \"#utility.yul\":6805:7097   */\n      iszero\n      tag_266\n      jumpi\n        /* \"#utility.yul\":6906:6912   */\n      dup2\n        /* \"#utility.yul\":6900:6913   */\n      mload\n        /* \"#utility.yul\":6933:7004   */\n      tag_267\n        /* \"#utility.yul\":7000:7003   */\n      dup9\n        /* \"#utility.yul\":6985:6998   */\n      dup3\n        /* \"#utility.yul\":6933:7004   */\n      tag_166\n      jump\t// in\n    tag_267:\n        /* \"#utility.yul\":6926:7004   */\n      swap8\n      pop\n        /* \"#utility.yul\":7027:7087   */\n      tag_268\n        /* \"#utility.yul\":7080:7086   */\n      dup4\n        /* \"#utility.yul\":7027:7087   */\n      tag_167\n      jump\t// in\n    tag_268:\n        /* \"#utility.yul\":7017:7087   */\n      swap3\n      pop\n        /* \"#utility.yul\":6865:7097   */\n      pop\n        /* \"#utility.yul\":6852:6853   */\n      0x01\n        /* \"#utility.yul\":6849:6850   */\n      dup2\n        /* \"#utility.yul\":6845:6854   */\n      add\n        /* \"#utility.yul\":6840:6854   */\n      swap1\n      pop\n        /* \"#utility.yul\":6805:7097   */\n      jump(tag_264)\n    tag_266:\n        /* \"#utility.yul\":6809:6823   */\n      pop\n        /* \"#utility.yul\":7113:7116   */\n      dup6\n        /* \"#utility.yul\":7106:7116   */\n      swap4\n      pop\n        /* \"#utility.yul\":6498:7122   */\n      pop\n      pop\n      pop\n        /* \"#utility.yul\":6366:7122   */\n      swap3\n      swap2\n      pop\n      pop\n      jump\t// out\n        /* \"#utility.yul\":7128:7517   */\n    tag_20:\n        /* \"#utility.yul\":7279:7283   */\n      0x00\n        /* \"#utility.yul\":7317:7319   */\n      0x20\n        /* \"#utility.yul\":7306:7315   */\n      dup3\n        /* \"#utility.yul\":7302:7320   */\n      add\n        /* \"#utility.yul\":7294:7320   */\n      swap1\n      pop\n        /* \"#utility.yul\":7366:7375   */\n      dup2\n        /* \"#utility.yul\":7360:7364   */\n      dup2\n        /* \"#utility.yul\":7356:7376   */\n      sub\n        /* \"#utility.yul\":7352:7353   */\n      0x00\n        /* \"#utility.yul\":7341:7350   */\n      dup4\n        /* \"#utility.yul\":7337:7354   */\n      add\n        /* \"#utility.yul\":7330:7377   */\n      mstore\n        /* \"#utility.yul\":7394:7510   */\n      tag_270\n        /* \"#utility.yul\":7505:7509   */\n      dup2\n        /* \"#utility.yul\":7496:7502   */\n      dup5\n        /* \"#utility.yul\":7394:7510   */\n      tag_168\n      jump\t// in\n    tag_270:\n        /* \"#utility.yul\":7386:7510   */\n      swap1\n      pop\n        /* \"#utility.yul\":7128:7517   */\n      swap3\n      swap2\n      pop\n      pop\n      jump\t// out\n        /* \"#utility.yul\":7523:8142   */\n    tag_24:\n        /* \"#utility.yul\":7600:7606   */\n      0x00\n        /* \"#utility.yul\":7608:7614   */\n      dup1\n        /* \"#utility.yul\":7616:7622   */\n      0x00\n        /* \"#utility.yul\":7665:7667   */\n      0x60\n        /* \"#utility.yul\":7653:7662   */\n      dup5\n        /* \"#utility.yul\":7644:7651   */\n      dup7\n        /* \"#utility.yul\":7640:7663   */\n      sub\n        /* \"#utility.yul\":7636:7668   */\n      slt\n        /* \"#utility.yul\":7633:7752   */\n      iszero\n      tag_272\n      jumpi\n        /* \"#utility.yul\":7671:7750   */\n      tag_273\n      tag_144\n      jump\t// in\n    tag_273:\n        /* \"#utility.yul\":7633:7752   */\n    tag_272:\n        /* \"#utility.yul\":7791:7792   */\n      0x00\n        /* \"#utility.yul\":7816:7869   */\n      tag_274\n        /* \"#utility.yul\":7861:7868   */\n      dup7\n        /* \"#utility.yul\":7852:7858   */\n      dup3\n        /* \"#utility.yul\":7841:7850   */\n      dup8\n        /* \"#utility.yul\":7837:7859   */\n      add\n        /* \"#utility.yul\":7816:7869   */\n      tag_153\n      jump\t// in\n    tag_274:\n        /* \"#utility.yul\":7806:7869   */\n      swap4\n      pop\n        /* \"#utility.yul\":7762:7879   */\n      pop\n        /* \"#utility.yul\":7918:7920   */\n      0x20\n        /* \"#utility.yul\":7944:7997   */\n      tag_275\n        /* \"#utility.yul\":7989:7996   */\n      dup7\n        /* \"#utility.yul\":7980:7986   */\n      dup3\n        /* \"#utility.yul\":7969:7978   */\n      dup8\n        /* \"#utility.yul\":7965:7987   */\n      add\n        /* \"#utility.yul\":7944:7997   */\n      tag_153\n      jump\t// in\n    tag_275:\n        /* \"#utility.yul\":7934:7997   */\n      swap3\n      pop\n        /* \"#utility.yul\":7889:8007   */\n      pop\n        /* \"#utility.yul\":8046:8048   */\n      0x40\n        /* \"#utility.yul\":8072:8125   */\n      tag_276\n        /* \"#utility.yul\":8117:8124   */\n      dup7\n        /* \"#utility.yul\":8108:8114   */\n      dup3\n        /* \"#utility.yul\":8097:8106   */\n      dup8\n        /* \"#utility.yul\":8093:8115   */\n      add\n        /* \"#utility.yul\":8072:8125   */\n      tag_153\n      jump\t// in\n    tag_276:\n        /* \"#utility.yul\":8062:8125   */\n      swap2\n      pop\n        /* \"#utility.yul\":8017:8135   */\n      pop\n        /* \"#utility.yul\":7523:8142   */\n      swap3\n      pop\n      swap3\n      pop\n      swap3\n      jump\t// out\n        /* \"#utility.yul\":8148:8504   */\n    tag_27:\n        /* \"#utility.yul\":8277:8281   */\n      0x00\n        /* \"#utility.yul\":8315:8317   */\n      0x40\n        /* \"#utility.yul\":8304:8313   */\n      dup3\n        /* \"#utility.yul\":8300:8318   */\n      add\n        /* \"#utility.yul\":8292:8318   */\n      swap1\n      pop\n        /* \"#utility.yul\":8328:8407   */\n      tag_278\n        /* \"#utility.yul\":8404:8405   */\n      0x00\n        /* \"#utility.yul\":8393:8402   */\n      dup4\n        /* \"#utility.yul\":8389:8406   */\n      add\n        /* \"#utility.yul\":8380:8386   */\n      dup6\n        /* \"#utility.yul\":8328:8407   */\n      tag_149\n      jump\t// in\n    tag_278:\n        /* \"#utility.yul\":8417:8497   */\n      tag_279\n        /* \"#utility.yul\":8493:8495   */\n      0x20\n        /* \"#utility.yul\":8482:8491   */\n      dup4\n        /* \"#utility.yul\":8478:8496   */\n      add\n        /* \"#utility.yul\":8469:8475   */\n      dup5\n        /* \"#utility.yul\":8417:8497   */\n      tag_149\n      jump\t// in\n    tag_279:\n        /* \"#utility.yul\":8148:8504   */\n      swap4\n      swap3\n      pop\n      pop\n      pop\n      jump\t// out\n        /* \"#utility.yul\":8510:8690   */\n    tag_169:\n        /* \"#utility.yul\":8558:8635   */\n      0x4e487b7100000000000000000000000000000000000000000000000000000000\n        /* \"#utility.yul\":8555:8556   */\n      0x00\n        /* \"#utility.yul\":8548:8636   */\n      mstore\n        /* \"#utility.yul\":8655:8659   */\n      0x11\n        /* \"#utility.yul\":8652:8653   */\n      0x04\n        /* \"#utility.yul\":8645:8660   */\n      mstore\n        /* \"#utility.yul\":8679:8683   */\n      0x24\n        /* \"#utility.yul\":8676:8677   */\n      0x00\n        /* \"#utility.yul\":8669:8684   */\n      revert\n        /* \"#utility.yul\":8696:9044   */\n    tag_46:\n        /* \"#utility.yul\":8736:8743   */\n      0x00\n        /* \"#utility.yul\":8759:8779   */\n      tag_282\n        /* \"#utility.yul\":8777:8778   */\n      dup3\n        /* \"#utility.yul\":8759:8779   */\n      tag_146\n      jump\t// in\n    tag_282:\n        /* \"#utility.yul\":8754:8779   */\n      swap2\n      pop\n        /* \"#utility.yul\":8793:8813   */\n      tag_283\n        /* \"#utility.yul\":8811:8812   */\n      dup4\n        /* \"#utility.yul\":8793:8813   */\n      tag_146\n      jump\t// in\n    tag_283:\n        /* \"#utility.yul\":8788:8813   */\n      swap3\n      pop\n        /* \"#utility.yul\":8981:8982   */\n      dup2\n        /* \"#utility.yul\":8913:8979   */\n      0xffffffffffffffffffffffffffffffffffffffffffffffffffffffffffffffff\n        /* \"#utility.yul\":8909:8983   */\n      div\n        /* \"#utility.yul\":8906:8907   */\n      dup4\n        /* \"#utility.yul\":8903:8984   */\n      gt\n        /* \"#utility.yul\":8898:8899   */\n      dup3\n        /* \"#utility.yul\":8891:8900   */\n      iszero\n        /* \"#utility.yul\":8884:8901   */\n      iszero\n        /* \"#utility.yul\":8880:8985   */\n      and\n        /* \"#utility.yul\":8877:9008   */\n      iszero\n      tag_284\n      jumpi\n        /* \"#utility.yul\":8988:9006   */\n      tag_285\n      tag_169\n      jump\t// in\n    tag_285:\n        /* \"#utility.yul\":8877:9008   */\n    tag_284:\n        /* \"#utility.yul\":9036:9037   */\n      dup3\n        /* \"#utility.yul\":9033:9034   */\n      dup3\n        /* \"#utility.yul\":9029:9038   */\n      mul\n        /* \"#utility.yul\":9018:9038   */\n      swap1\n      pop\n        /* \"#utility.yul\":8696:9044   */\n      swap3\n      swap2\n      pop\n      pop\n      jump\t// out\n        /* \"#utility.yul\":9050:9355   */\n    tag_50:\n        /* \"#utility.yul\":9090:9093   */\n      0x00\n        /* \"#utility.yul\":9109:9129   */\n      tag_287\n        /* \"#utility.yul\":9127:9128   */\n      dup3\n        /* \"#utility.yul\":9109:9129   */\n      tag_146\n      jump\t// in\n    tag_287:\n        /* \"#utility.yul\":9104:9129   */\n      swap2\n      pop\n        /* \"#utility.yul\":9143:9163   */\n      tag_288\n        /* \"#utility.yul\":9161:9162   */\n      dup4\n        /* \"#utility.yul\":9143:9163   */\n      tag_146\n      jump\t// in\n    tag_288:\n        /* \"#utility.yul\":9138:9163   */\n      swap3\n      pop\n        /* \"#utility.yul\":9297:9298   */\n      dup3\n        /* \"#utility.yul\":9229:9295   */\n      0xffffffffffffffffffffffffffffffffffffffffffffffffffffffffffffffff\n        /* \"#utility.yul\":9225:9299   */\n      sub\n        /* \"#utility.yul\":9222:9223   */\n      dup3\n        /* \"#utility.yul\":9219:9300   */\n      gt\n        /* \"#utility.yul\":9216:9323   */\n      iszero\n      tag_289\n      jumpi\n        /* \"#utility.yul\":9303:9321   */\n      tag_290\n      tag_169\n      jump\t// in\n    tag_290:\n        /* \"#utility.yul\":9216:9323   */\n    tag_289:\n        /* \"#utility.yul\":9347:9348   */\n      dup3\n        /* \"#utility.yul\":9344:9345   */\n      dup3\n        /* \"#utility.yul\":9340:9349   */\n      add\n        /* \"#utility.yul\":9333:9349   */\n      swap1\n      pop\n        /* \"#utility.yul\":9050:9355   */\n      swap3\n      swap2\n      pop\n      pop\n      jump\t// out\n        /* \"#utility.yul\":9361:9541   */\n    tag_170:\n        /* \"#utility.yul\":9409:9486   */\n      0x4e487b7100000000000000000000000000000000000000000000000000000000\n        /* \"#utility.yul\":9406:9407   */\n      0x00\n        /* \"#utility.yul\":9399:9487   */\n      mstore\n        /* \"#utility.yul\":9506:9510   */\n      0x12\n        /* \"#utility.yul\":9503:9504   */\n      0x04\n        /* \"#utility.yul\":9496:9511   */\n      mstore\n        /* \"#utility.yul\":9530:9534   */\n      0x24\n        /* \"#utility.yul\":9527:9528   */\n      0x00\n        /* \"#utility.yul\":9520:9535   */\n      revert\n        /* \"#utility.yul\":9547:9732   */\n    tag_52:\n        /* \"#utility.yul\":9587:9588   */\n      0x00\n        /* \"#utility.yul\":9604:9624   */\n      tag_293\n        /* \"#utility.yul\":9622:9623   */\n      dup3\n        /* \"#utility.yul\":9604:9624   */\n      tag_146\n      jump\t// in\n    tag_293:\n        /* \"#utility.yul\":9599:9624   */\n      swap2\n      pop\n        /* \"#utility.yul\":9638:9658   */\n      tag_294\n        /* \"#utility.yul\":9656:9657   */\n      dup4\n        /* \"#utility.yul\":9638:9658   */\n      tag_146\n      jump\t// in\n    tag_294:\n        /* \"#utility.yul\":9633:9658   */\n      swap3\n      pop\n        /* \"#utility.yul\":9677:9678   */\n      dup3\n        /* \"#utility.yul\":9667:9702   */\n      tag_295\n      jumpi\n        /* \"#utility.yul\":9682:9700   */\n      tag_296\n      tag_170\n      jump\t// in\n    tag_296:\n        /* \"#utility.yul\":9667:9702   */\n    tag_295:\n        /* \"#utility.yul\":9724:9725   */\n      dup3\n        /* \"#utility.yul\":9721:9722   */\n      dup3\n        /* \"#utility.yul\":9717:9726   */\n      div\n        /* \"#utility.yul\":9712:9726   */\n      swap1\n      pop\n        /* \"#utility.yul\":9547:9732   */\n      swap3\n      swap2\n      pop\n      pop\n      jump\t// out\n        /* \"#utility.yul\":9738:9929   */\n    tag_60:\n        /* \"#utility.yul\":9778:9782   */\n      0x00\n        /* \"#utility.yul\":9798:9818   */\n      tag_298\n        /* \"#utility.yul\":9816:9817   */\n      dup3\n        /* \"#utility.yul\":9798:9818   */\n      tag_146\n      jump\t// in\n    tag_298:\n        /* \"#utility.yul\":9793:9818   */\n      swap2\n      pop\n        /* \"#utility.yul\":9832:9852   */\n      tag_299\n        /* \"#utility.yul\":9850:9851   */\n      dup4\n        /* \"#utility.yul\":9832:9852   */\n      tag_146\n      jump\t// in\n    tag_299:\n        /* \"#utility.yul\":9827:9852   */\n      swap3\n      pop\n        /* \"#utility.yul\":9871:9872   */\n      dup3\n        /* \"#utility.yul\":9868:9869   */\n      dup3\n        /* \"#utility.yul\":9865:9873   */\n      lt\n        /* \"#utility.yul\":9862:9896   */\n      iszero\n      tag_300\n      jumpi\n        /* \"#utility.yul\":9876:9894   */\n      tag_301\n      tag_169\n      jump\t// in\n    tag_301:\n        /* \"#utility.yul\":9862:9896   */\n    tag_300:\n        /* \"#utility.yul\":9921:9922   */\n      dup3\n        /* \"#utility.yul\":9918:9919   */\n      dup3\n        /* \"#utility.yul\":9914:9923   */\n      sub\n        /* \"#utility.yul\":9906:9923   */\n      swap1\n      pop\n        /* \"#utility.yul\":9738:9929   */\n      swap3\n      swap2\n      pop\n      pop\n      jump\t// out\n        /* \"#utility.yul\":9935:10115   */\n    tag_63:\n        /* \"#utility.yul\":9983:10060   */\n      0x4e487b7100000000000000000000000000000000000000000000000000000000\n        /* \"#utility.yul\":9980:9981   */\n      0x00\n        /* \"#utility.yul\":9973:10061   */\n      mstore\n        /* \"#utility.yul\":10080:10084   */\n      0x32\n        /* \"#utility.yul\":10077:10078   */\n      0x04\n        /* \"#utility.yul\":10070:10085   */\n      mstore\n        /* \"#utility.yul\":10104:10108   */\n      0x24\n        /* \"#utility.yul\":10101:10102   */\n      0x00\n        /* \"#utility.yul\":10094:10109   */\n      revert\n        /* \"#utility.yul\":10121:10292   */\n    tag_81:\n        /* \"#utility.yul\":10160:10163   */\n      0x00\n        /* \"#utility.yul\":10183:10207   */\n      tag_304\n        /* \"#utility.yul\":10201:10206   */\n      dup3\n        /* \"#utility.yul\":10183:10207   */\n      tag_146\n      jump\t// in\n    tag_304:\n        /* \"#utility.yul\":10174:10207   */\n      swap2\n      pop\n        /* \"#utility.yul\":10229:10233   */\n      0x00\n        /* \"#utility.yul\":10222:10227   */\n      dup3\n        /* \"#utility.yul\":10219:10234   */\n      eq\n        /* \"#utility.yul\":10216:10257   */\n      iszero\n      tag_305\n      jumpi\n        /* \"#utility.yul\":10237:10255   */\n      tag_306\n      tag_169\n      jump\t// in\n    tag_306:\n        /* \"#utility.yul\":10216:10257   */\n    tag_305:\n        /* \"#utility.yul\":10284:10285   */\n      0x01\n        /* \"#utility.yul\":10277:10282   */\n      dup3\n        /* \"#utility.yul\":10273:10286   */\n      sub\n        /* \"#utility.yul\":10266:10286   */\n      swap1\n      pop\n        /* \"#utility.yul\":10121:10292   */\n      swap2\n      swap1\n      pop\n      jump\t// out\n        /* \"#utility.yul\":10298:10412   */\n    tag_171:\n        /* \"#utility.yul\":10335:10342   */\n      0x00\n        /* \"#utility.yul\":10375:10405   */\n      0xffffffffffffffffffffffffffff\n        /* \"#utility.yul\":10368:10373   */\n      dup3\n        /* \"#utility.yul\":10364:10406   */\n      and\n        /* \"#utility.yul\":10353:10406   */\n      swap1\n      pop\n        /* \"#utility.yul\":10298:10412   */\n      swap2\n      swap1\n      pop\n      jump\t// out\n        /* \"#utility.yul\":10418:10540   */\n    tag_172:\n        /* \"#utility.yul\":10491:10515   */\n      tag_309\n        /* \"#utility.yul\":10509:10514   */\n      dup2\n        /* \"#utility.yul\":10491:10515   */\n      tag_171\n      jump\t// in\n    tag_309:\n        /* \"#utility.yul\":10484:10489   */\n      dup2\n        /* \"#utility.yul\":10481:10516   */\n      eq\n        /* \"#utility.yul\":10471:10534   */\n      tag_310\n      jumpi\n        /* \"#utility.yul\":10530:10531   */\n      0x00\n        /* \"#utility.yul\":10527:10528   */\n      dup1\n        /* \"#utility.yul\":10520:10532   */\n      revert\n        /* \"#utility.yul\":10471:10534   */\n    tag_310:\n        /* \"#utility.yul\":10418:10540   */\n      pop\n      jump\t// out\n        /* \"#utility.yul\":10546:10689   */\n    tag_173:\n        /* \"#utility.yul\":10603:10608   */\n      0x00\n        /* \"#utility.yul\":10634:10640   */\n      dup2\n        /* \"#utility.yul\":10628:10641   */\n      mload\n        /* \"#utility.yul\":10619:10641   */\n      swap1\n      pop\n        /* \"#utility.yul\":10650:10683   */\n      tag_312\n        /* \"#utility.yul\":10677:10682   */\n      dup2\n        /* \"#utility.yul\":10650:10683   */\n      tag_172\n      jump\t// in\n    tag_312:\n        /* \"#utility.yul\":10546:10689   */\n      swap3\n      swap2\n      pop\n      pop\n      jump\t// out\n        /* \"#utility.yul\":10695:10788   */\n    tag_174:\n        /* \"#utility.yul\":10731:10738   */\n      0x00\n        /* \"#utility.yul\":10771:10781   */\n      0xffffffff\n        /* \"#utility.yul\":10764:10769   */\n      dup3\n        /* \"#utility.yul\":10760:10782   */\n      and\n        /* \"#utility.yul\":10749:10782   */\n      swap1\n      pop\n        /* \"#utility.yul\":10695:10788   */\n      swap2\n      swap1\n      pop\n      jump\t// out\n        /* \"#utility.yul\":10794:10914   */\n    tag_175:\n        /* \"#utility.yul\":10866:10889   */\n      tag_315\n        /* \"#utility.yul\":10883:10888   */\n      dup2\n        /* \"#utility.yul\":10866:10889   */\n      tag_174\n      jump\t// in\n    tag_315:\n        /* \"#utility.yul\":10859:10864   */\n      dup2\n        /* \"#utility.yul\":10856:10890   */\n      eq\n        /* \"#utility.yul\":10846:10908   */\n      tag_316\n      jumpi\n        /* \"#utility.yul\":10904:10905   */\n      0x00\n        /* \"#utility.yul\":10901:10902   */\n      dup1\n        /* \"#utility.yul\":10894:10906   */\n      revert\n        /* \"#utility.yul\":10846:10908   */\n    tag_316:\n        /* \"#utility.yul\":10794:10914   */\n      pop\n      jump\t// out\n        /* \"#utility.yul\":10920:11061   */\n    tag_176:\n        /* \"#utility.yul\":10976:10981   */\n      0x00\n        /* \"#utility.yul\":11007:11013   */\n      dup2\n        /* \"#utility.yul\":11001:11014   */\n      mload\n        /* \"#utility.yul\":10992:11014   */\n      swap1\n      pop\n        /* \"#utility.yul\":11023:11055   */\n      tag_318\n        /* \"#utility.yul\":11049:11054   */\n      dup2\n        /* \"#utility.yul\":11023:11055   */\n      tag_175\n      jump\t// in\n    tag_318:\n        /* \"#utility.yul\":10920:11061   */\n      swap3\n      swap2\n      pop\n      pop\n      jump\t// out\n        /* \"#utility.yul\":11067:11728   */\n    tag_90:\n        /* \"#utility.yul\":11154:11160   */\n      0x00\n        /* \"#utility.yul\":11162:11168   */\n      dup1\n        /* \"#utility.yul\":11170:11176   */\n      0x00\n        /* \"#utility.yul\":11219:11221   */\n      0x60\n        /* \"#utility.yul\":11207:11216   */\n      dup5\n        /* \"#utility.yul\":11198:11205   */\n      dup7\n        /* \"#utility.yul\":11194:11217   */\n      sub\n        /* \"#utility.yul\":11190:11222   */\n      slt\n        /* \"#utility.yul\":11187:11306   */\n      iszero\n      tag_320\n      jumpi\n        /* \"#utility.yul\":11225:11304   */\n      tag_321\n      tag_144\n      jump\t// in\n    tag_321:\n        /* \"#utility.yul\":11187:11306   */\n    tag_320:\n        /* \"#utility.yul\":11345:11346   */\n      0x00\n        /* \"#utility.yul\":11370:11434   */\n      tag_322\n        /* \"#utility.yul\":11426:11433   */\n      dup7\n        /* \"#utility.yul\":11417:11423   */\n      dup3\n        /* \"#utility.yul\":11406:11415   */\n      dup8\n        /* \"#utility.yul\":11402:11424   */\n      add\n        /* \"#utility.yul\":11370:11434   */\n      tag_173\n      jump\t// in\n    tag_322:\n        /* \"#utility.yul\":11360:11434   */\n      swap4\n      pop\n        /* \"#utility.yul\":11316:11444   */\n      pop\n        /* \"#utility.yul\":11483:11485   */\n      0x20\n        /* \"#utility.yul\":11509:11573   */\n      tag_323\n        /* \"#utility.yul\":11565:11572   */\n      dup7\n        /* \"#utility.yul\":11556:11562   */\n      dup3\n        /* \"#utility.yul\":11545:11554   */\n      dup8\n        /* \"#utility.yul\":11541:11563   */\n      add\n        /* \"#utility.yul\":11509:11573   */\n      tag_173\n      jump\t// in\n    tag_323:\n        /* \"#utility.yul\":11499:11573   */\n      swap3\n      pop\n        /* \"#utility.yul\":11454:11583   */\n      pop\n        /* \"#utility.yul\":11622:11624   */\n      0x40\n        /* \"#utility.yul\":11648:11711   */\n      tag_324\n        /* \"#utility.yul\":11703:11710   */\n      dup7\n        /* \"#utility.yul\":11694:11700   */\n      dup3\n        /* \"#utility.yul\":11683:11692   */\n      dup8\n        /* \"#utility.yul\":11679:11701   */\n      add\n        /* \"#utility.yul\":11648:11711   */\n      tag_176\n      jump\t// in\n    tag_324:\n        /* \"#utility.yul\":11638:11711   */\n      swap2\n      pop\n        /* \"#utility.yul\":11593:11721   */\n      pop\n        /* \"#utility.yul\":11067:11728   */\n      swap3\n      pop\n      swap3\n      pop\n      swap3\n      jump\t// out\n        /* \"#utility.yul\":11734:11967   */\n    tag_133:\n        /* \"#utility.yul\":11773:11776   */\n      0x00\n        /* \"#utility.yul\":11796:11820   */\n      tag_326\n        /* \"#utility.yul\":11814:11819   */\n      dup3\n        /* \"#utility.yul\":11796:11820   */\n      tag_146\n      jump\t// in\n    tag_326:\n        /* \"#utility.yul\":11787:11820   */\n      swap2\n      pop\n        /* \"#utility.yul\":11842:11908   */\n      0xffffffffffffffffffffffffffffffffffffffffffffffffffffffffffffffff\n        /* \"#utility.yul\":11835:11840   */\n      dup3\n        /* \"#utility.yul\":11832:11909   */\n      eq\n        /* \"#utility.yul\":11829:11932   */\n      iszero\n      tag_327\n      jumpi\n        /* \"#utility.yul\":11912:11930   */\n      tag_328\n      tag_169\n      jump\t// in\n    tag_328:\n        /* \"#utility.yul\":11829:11932   */\n    tag_327:\n        /* \"#utility.yul\":11959:11960   */\n      0x01\n        /* \"#utility.yul\":11952:11957   */\n      dup3\n        /* \"#utility.yul\":11948:11961   */\n      add\n        /* \"#utility.yul\":11941:11961   */\n      swap1\n      pop\n        /* \"#utility.yul\":11734:11967   */\n      swap2\n      swap1\n      pop\n      jump\t// out\n        /* \"#utility.yul\":11973:12067   */\n    tag_177:\n        /* \"#utility.yul\":12006:12014   */\n      0x00\n        /* \"#utility.yul\":12054:12059   */\n      dup2\n        /* \"#utility.yul\":12050:12052   */\n      0x60\n        /* \"#utility.yul\":12046:12060   */\n      shl\n        /* \"#utility.yul\":12025:12060   */\n      swap1\n      pop\n        /* \"#utility.yul\":11973:12067   */\n      swap2\n      swap1\n      pop\n      jump\t// out\n        /* \"#utility.yul\":12073:12167   */\n    tag_178:\n        /* \"#utility.yul\":12112:12119   */\n      0x00\n        /* \"#utility.yul\":12141:12161   */\n      tag_331\n        /* \"#utility.yul\":12155:12160   */\n      dup3\n        /* \"#utility.yul\":12141:12161   */\n      tag_177\n      jump\t// in\n    tag_331:\n        /* \"#utility.yul\":12130:12161   */\n      swap1\n      pop\n        /* \"#utility.yul\":12073:12167   */\n      swap2\n      swap1\n      pop\n      jump\t// out\n        /* \"#utility.yul\":12173:12273   */\n    tag_179:\n        /* \"#utility.yul\":12212:12219   */\n      0x00\n        /* \"#utility.yul\":12241:12267   */\n      tag_333\n        /* \"#utility.yul\":12261:12266   */\n      dup3\n        /* \"#utility.yul\":12241:12267   */\n      tag_178\n      jump\t// in\n    tag_333:\n        /* \"#utility.yul\":12230:12267   */\n      swap1\n      pop\n        /* \"#utility.yul\":12173:12273   */\n      swap2\n      swap1\n      pop\n      jump\t// out\n        /* \"#utility.yul\":12279:12436   */\n    tag_180:\n        /* \"#utility.yul\":12384:12429   */\n      tag_335\n        /* \"#utility.yul\":12404:12428   */\n      tag_336\n        /* \"#utility.yul\":12422:12427   */\n      dup3\n        /* \"#utility.yul\":12404:12428   */\n      tag_151\n      jump\t// in\n    tag_336:\n        /* \"#utility.yul\":12384:12429   */\n      tag_179\n      jump\t// in\n    tag_335:\n        /* \"#utility.yul\":12379:12382   */\n      dup3\n        /* \"#utility.yul\":12372:12430   */\n      mstore\n        /* \"#utility.yul\":12279:12436   */\n      pop\n      pop\n      jump\t// out\n        /* \"#utility.yul\":12442:12839   */\n    tag_140:\n        /* \"#utility.yul\":12582:12585   */\n      0x00\n        /* \"#utility.yul\":12597:12672   */\n      tag_338\n        /* \"#utility.yul\":12668:12671   */\n      dup3\n        /* \"#utility.yul\":12659:12665   */\n      dup6\n        /* \"#utility.yul\":12597:12672   */\n      tag_180\n      jump\t// in\n    tag_338:\n        /* \"#utility.yul\":12697:12699   */\n      0x14\n        /* \"#utility.yul\":12692:12695   */\n      dup3\n        /* \"#utility.yul\":12688:12700   */\n      add\n        /* \"#utility.yul\":12681:12700   */\n      swap2\n      pop\n        /* \"#utility.yul\":12710:12785   */\n      tag_339\n        /* \"#utility.yul\":12781:12784   */\n      dup3\n        /* \"#utility.yul\":12772:12778   */\n      dup5\n        /* \"#utility.yul\":12710:12785   */\n      tag_180\n      jump\t// in\n    tag_339:\n        /* \"#utility.yul\":12810:12812   */\n      0x14\n        /* \"#utility.yul\":12805:12808   */\n      dup3\n        /* \"#utility.yul\":12801:12813   */\n      add\n        /* \"#utility.yul\":12794:12813   */\n      swap2\n      pop\n        /* \"#utility.yul\":12830:12833   */\n      dup2\n        /* \"#utility.yul\":12823:12833   */\n      swap1\n      pop\n        /* \"#utility.yul\":12442:12839   */\n      swap4\n      swap3\n      pop\n      pop\n      pop\n      jump\t// out\n        /* \"#utility.yul\":12845:12993   */\n    tag_181:\n        /* \"#utility.yul\":12947:12958   */\n      0x00\n        /* \"#utility.yul\":12984:12987   */\n      dup2\n        /* \"#utility.yul\":12969:12987   */\n      swap1\n      pop\n        /* \"#utility.yul\":12845:12993   */\n      swap3\n      swap2\n      pop\n      pop\n      jump\t// out\n        /* \"#utility.yul\":12999:13213   */\n    tag_182:\n        /* \"#utility.yul\":13139:13205   */\n      0xff00000000000000000000000000000000000000000000000000000000000000\n        /* \"#utility.yul\":13135:13136   */\n      0x00\n        /* \"#utility.yul\":13127:13133   */\n      dup3\n        /* \"#utility.yul\":13123:13137   */\n      add\n        /* \"#utility.yul\":13116:13206   */\n      mstore\n        /* \"#utility.yul\":12999:13213   */\n      pop\n      jump\t// out\n        /* \"#utility.yul\":13219:13619   */\n    tag_183:\n        /* \"#utility.yul\":13379:13382   */\n      0x00\n        /* \"#utility.yul\":13400:13484   */\n      tag_343\n        /* \"#utility.yul\":13482:13483   */\n      0x01\n        /* \"#utility.yul\":13477:13480   */\n      dup4\n        /* \"#utility.yul\":13400:13484   */\n      tag_181\n      jump\t// in\n    tag_343:\n        /* \"#utility.yul\":13393:13484   */\n      swap2\n      pop\n        /* \"#utility.yul\":13493:13586   */\n      tag_344\n        /* \"#utility.yul\":13582:13585   */\n      dup3\n        /* \"#utility.yul\":13493:13586   */\n      tag_182\n      jump\t// in\n    tag_344:\n        /* \"#utility.yul\":13611:13612   */\n      0x01\n        /* \"#utility.yul\":13606:13609   */\n      dup3\n        /* \"#utility.yul\":13602:13613   */\n      add\n        /* \"#utility.yul\":13595:13613   */\n      swap1\n      pop\n        /* \"#utility.yul\":13219:13619   */\n      swap2\n      swap1\n      pop\n      jump\t// out\n        /* \"#utility.yul\":13625:13702   */\n    tag_184:\n        /* \"#utility.yul\":13662:13669   */\n      0x00\n        /* \"#utility.yul\":13691:13696   */\n      dup2\n        /* \"#utility.yul\":13680:13696   */\n      swap1\n      pop\n        /* \"#utility.yul\":13625:13702   */\n      swap2\n      swap1\n      pop\n      jump\t// out\n        /* \"#utility.yul\":13708:13787   */\n    tag_185:\n        /* \"#utility.yul\":13747:13754   */\n      0x00\n        /* \"#utility.yul\":13776:13781   */\n      dup2\n        /* \"#utility.yul\":13765:13781   */\n      swap1\n      pop\n        /* \"#utility.yul\":13708:13787   */\n      swap2\n      swap1\n      pop\n      jump\t// out\n        /* \"#utility.yul\":13793:13950   */\n    tag_186:\n        /* \"#utility.yul\":13898:13943   */\n      tag_348\n        /* \"#utility.yul\":13918:13942   */\n      tag_349\n        /* \"#utility.yul\":13936:13941   */\n      dup3\n        /* \"#utility.yul\":13918:13942   */\n      tag_184\n      jump\t// in\n    tag_349:\n        /* \"#utility.yul\":13898:13943   */\n      tag_185\n      jump\t// in\n    tag_348:\n        /* \"#utility.yul\":13893:13896   */\n      dup3\n        /* \"#utility.yul\":13886:13944   */\n      mstore\n        /* \"#utility.yul\":13793:13950   */\n      pop\n      pop\n      jump\t// out\n        /* \"#utility.yul\":13956:14170   */\n    tag_187:\n        /* \"#utility.yul\":14096:14162   */\n      0xab66b891387a046b7fefca26f19f061e1ced0309d8009fc43808c517eaec6917\n        /* \"#utility.yul\":14092:14093   */\n      0x00\n        /* \"#utility.yul\":14084:14090   */\n      dup3\n        /* \"#utility.yul\":14080:14094   */\n      add\n        /* \"#utility.yul\":14073:14163   */\n      mstore\n        /* \"#utility.yul\":13956:14170   */\n      pop\n      jump\t// out\n        /* \"#utility.yul\":14176:14578   */\n    tag_188:\n        /* \"#utility.yul\":14336:14339   */\n      0x00\n        /* \"#utility.yul\":14357:14442   */\n      tag_352\n        /* \"#utility.yul\":14439:14441   */\n      0x20\n        /* \"#utility.yul\":14434:14437   */\n      dup4\n        /* \"#utility.yul\":14357:14442   */\n      tag_181\n      jump\t// in\n    tag_352:\n        /* \"#utility.yul\":14350:14442   */\n      swap2\n      pop\n        /* \"#utility.yul\":14451:14544   */\n      tag_353\n        /* \"#utility.yul\":14540:14543   */\n      dup3\n        /* \"#utility.yul\":14451:14544   */\n      tag_187\n      jump\t// in\n    tag_353:\n        /* \"#utility.yul\":14569:14571   */\n      0x20\n        /* \"#utility.yul\":14564:14567   */\n      dup3\n        /* \"#utility.yul\":14560:14572   */\n      add\n        /* \"#utility.yul\":14553:14572   */\n      swap1\n      pop\n        /* \"#utility.yul\":14176:14578   */\n      swap2\n      swap1\n      pop\n      jump\t// out\n        /* \"#utility.yul\":14584:15513   */\n    tag_142:\n        /* \"#utility.yul\":14926:14929   */\n      0x00\n        /* \"#utility.yul\":14948:15096   */\n      tag_355\n        /* \"#utility.yul\":15092:15095   */\n      dup3\n        /* \"#utility.yul\":14948:15096   */\n      tag_183\n      jump\t// in\n    tag_355:\n        /* \"#utility.yul\":14941:15096   */\n      swap2\n      pop\n        /* \"#utility.yul\":15106:15181   */\n      tag_356\n        /* \"#utility.yul\":15177:15180   */\n      dup3\n        /* \"#utility.yul\":15168:15174   */\n      dup6\n        /* \"#utility.yul\":15106:15181   */\n      tag_180\n      jump\t// in\n    tag_356:\n        /* \"#utility.yul\":15206:15208   */\n      0x14\n        /* \"#utility.yul\":15201:15204   */\n      dup3\n        /* \"#utility.yul\":15197:15209   */\n      add\n        /* \"#utility.yul\":15190:15209   */\n      swap2\n      pop\n        /* \"#utility.yul\":15219:15294   */\n      tag_357\n        /* \"#utility.yul\":15290:15293   */\n      dup3\n        /* \"#utility.yul\":15281:15287   */\n      dup5\n        /* \"#utility.yul\":15219:15294   */\n      tag_186\n      jump\t// in\n    tag_357:\n        /* \"#utility.yul\":15319:15321   */\n      0x20\n        /* \"#utility.yul\":15314:15317   */\n      dup3\n        /* \"#utility.yul\":15310:15322   */\n      add\n        /* \"#utility.yul\":15303:15322   */\n      swap2\n      pop\n        /* \"#utility.yul\":15339:15487   */\n      tag_358\n        /* \"#utility.yul\":15483:15486   */\n      dup3\n        /* \"#utility.yul\":15339:15487   */\n      tag_188\n      jump\t// in\n    tag_358:\n        /* \"#utility.yul\":15332:15487   */\n      swap2\n      pop\n        /* \"#utility.yul\":15504:15507   */\n      dup2\n        /* \"#utility.yul\":15497:15507   */\n      swap1\n      pop\n        /* \"#utility.yul\":14584:15513   */\n      swap4\n      swap3\n      pop\n      pop\n      pop\n      jump\t// out\n\n    auxdata: 0xa2646970667358221220b667110a8825a2af7473043b0f2a848cd7155a273ee4919b7969869abab4c46364736f6c634300080a0033\n}\n",
				"bytecode": {
					"linkReferences": {},
					"object": "6111e5610053600b82828239805160001a607314610046577f4e487b7100000000000000000000000000000000000000000000000000000000600052600060045260246000fd5b30600052607381538281f3fe730000000000000000000000000000000000000000301460806040526004361061006c5760003560e01c8063054d50d414610071578063192128b2146100a157806332749461146100de57806385f8c2591461011c578063ad615dec1461014c578063bb7b9c761461017c575b600080fd5b61008b60048036038101906100869190610942565b6101b9565b60405161009891906109a4565b60405180910390f35b8180156100ad57600080fd5b506100c860048036038101906100c39190610b76565b610292565b6040516100d59190610ca3565b60405180910390f35b8180156100ea57600080fd5b5061010560048036038101906101009190610cc5565b61042a565b604051610113929190610d18565b60405180910390f35b61013660048036038101906101319190610942565b610532565b60405161014391906109a4565b60405180910390f35b61016660048036038101906101619190610942565b610611565b60405161017391906109a4565b60405180910390f35b81801561018857600080fd5b506101a3600480360381019061019e9190610b76565b6106b3565b6040516101b09190610ca3565b60405180910390f35b6000808414156101f5576040517f5945ea5600000000000000000000000000000000000000000000000000000000815260040160405180910390fd5b60008314806102045750600082145b1561023b576040517fbb55fd2700000000000000000000000000000000000000000000000000000000815260040160405180910390fd5b60006103e58561024b9190610d70565b90506000838261025b9190610d70565b90506000826103e88761026e9190610d70565b6102789190610dca565b905080826102869190610e4f565b93505050509392505050565b60606002825110156102d0576040517f20db826700000000000000000000000000000000000000000000000000000000815260040160405180910390fd5b6000825167ffffffffffffffff8111156102ed576102ec610a33565b5b60405190808252806020026020018201604052801561031b5781602001602082028036833780820191505090505b50905083816001835161032e9190610e80565b8151811061033f5761033e610eb4565b5b60200260200101818152505060006001845161035b9190610e80565b90505b600081111561041e576000806103b5888760018661037c9190610e80565b8151811061038d5761038c610eb4565b5b60200260200101518886815181106103a8576103a7610eb4565b5b602002602001015161042a565b915091506103de8484815181106103cf576103ce610eb4565b5b60200260200101518383610532565b846001856103ec9190610e80565b815181106103fd576103fc610eb4565b5b6020026020010181815250505050808061041690610ee3565b91505061035e565b50809150509392505050565b60008060008061043a868661083b565b9150915060008061044c898585610886565b73ffffffffffffffffffffffffffffffffffffffff16630902f1ac6040518163ffffffff1660e01b81526004016060604051808303816000875af1158015610498573d6000803e3d6000fd5b505050506040513d601f19601f820116820180604052508101906104bc9190610f8f565b506dffffffffffffffffffffffffffff1691506dffffffffffffffffffffffffffff1691508373ffffffffffffffffffffffffffffffffffffffff168873ffffffffffffffffffffffffffffffffffffffff161461051b57808261051e565b81815b809650819750505050505050935093915050565b60008084141561056e576040517f5945ea5600000000000000000000000000000000000000000000000000000000815260040160405180910390fd5b600083148061057d5750600082145b156105b4576040517fbb55fd2700000000000000000000000000000000000000000000000000000000815260040160405180910390fd5b60006103e885856105c59190610d70565b6105cf9190610d70565b905060006103e586856105e29190610e80565b6105ec9190610d70565b9050600181836105fc9190610e4f565b6106069190610dca565b925050509392505050565b60008084141561064d576040517f5945ea5600000000000000000000000000000000000000000000000000000000815260040160405180910390fd5b600083148061065c5750600082145b15610693576040517fbb55fd2700000000000000000000000000000000000000000000000000000000815260040160405180910390fd5b8282856106a09190610d70565b6106aa9190610e4f565b90509392505050565b60606002825110156106f1576040517f20db826700000000000000000000000000000000000000000000000000000000815260040160405180910390fd5b6000825167ffffffffffffffff81111561070e5761070d610a33565b5b60405190808252806020026020018201604052801561073c5781602001602082028036833780820191505090505b509050838160008151811061075457610753610eb4565b5b60200260200101818152505060005b600184516107719190610e80565b81101561082f576000806107c68887858151811061079257610791610eb4565b5b6020026020010151886001876107a89190610dca565b815181106107b9576107b8610eb4565b5b602002602001015161042a565b915091506107ef8484815181106107e0576107df610eb4565b5b602002602001015183836101b9565b846001856107fd9190610dca565b8151811061080e5761080d610eb4565b5b6020026020010181815250505050808061082790610fe2565b915050610763565b50809150509392505050565b6000808273ffffffffffffffffffffffffffffffffffffffff168473ffffffffffffffffffffffffffffffffffffffff161061087857828461087b565b83835b915091509250929050565b6000806000610895858561083b565b915091508582826040516020016108ad929190611073565b604051602081830303815290604052805190602001206040516020016108d492919061116d565b6040516020818303038152906040528051906020012060001c925050509392505050565b6000604051905090565b600080fd5b600080fd5b6000819050919050565b61091f8161090c565b811461092a57600080fd5b50565b60008135905061093c81610916565b92915050565b60008060006060848603121561095b5761095a610902565b5b60006109698682870161092d565b935050602061097a8682870161092d565b925050604061098b8682870161092d565b9150509250925092565b61099e8161090c565b82525050565b60006020820190506109b96000830184610995565b92915050565b600073ffffffffffffffffffffffffffffffffffffffff82169050919050565b60006109ea826109bf565b9050919050565b6109fa816109df565b8114610a0557600080fd5b50565b600081359050610a17816109f1565b92915050565b600080fd5b6000601f19601f8301169050919050565b7f4e487b7100000000000000000000000000000000000000000000000000000000600052604160045260246000fd5b610a6b82610a22565b810181811067ffffffffffffffff82111715610a8a57610a89610a33565b5b80604052505050565b6000610a9d6108f8565b9050610aa98282610a62565b919050565b600067ffffffffffffffff821115610ac957610ac8610a33565b5b602082029050602081019050919050565b600080fd5b6000610af2610aed84610aae565b610a93565b90508083825260208201905060208402830185811115610b1557610b14610ada565b5b835b81811015610b3e5780610b2a8882610a08565b845260208401935050602081019050610b17565b5050509392505050565b600082601f830112610b5d57610b5c610a1d565b5b8135610b6d848260208601610adf565b91505092915050565b600080600060608486031215610b8f57610b8e610902565b5b6000610b9d86828701610a08565b9350506020610bae8682870161092d565b925050604084013567ffffffffffffffff811115610bcf57610bce610907565b5b610bdb86828701610b48565b9150509250925092565b600081519050919050565b600082825260208201905092915050565b6000819050602082019050919050565b610c1a8161090c565b82525050565b6000610c2c8383610c11565b60208301905092915050565b6000602082019050919050565b6000610c5082610be5565b610c5a8185610bf0565b9350610c6583610c01565b8060005b83811015610c96578151610c7d8882610c20565b9750610c8883610c38565b925050600181019050610c69565b5085935050505092915050565b60006020820190508181036000830152610cbd8184610c45565b905092915050565b600080600060608486031215610cde57610cdd610902565b5b6000610cec86828701610a08565b9350506020610cfd86828701610a08565b9250506040610d0e86828701610a08565b9150509250925092565b6000604082019050610d2d6000830185610995565b610d3a6020830184610995565b9392505050565b7f4e487b7100000000000000000000000000000000000000000000000000000000600052601160045260246000fd5b6000610d7b8261090c565b9150610d868361090c565b9250817fffffffffffffffffffffffffffffffffffffffffffffffffffffffffffffffff0483118215151615610dbf57610dbe610d41565b5b828202905092915050565b6000610dd58261090c565b9150610de08361090c565b9250827fffffffffffffffffffffffffffffffffffffffffffffffffffffffffffffffff03821115610e1557610e14610d41565b5b828201905092915050565b7f4e487b7100000000000000000000000000000000000000000000000000000000600052601260045260246000fd5b6000610e5a8261090c565b9150610e658361090c565b925082610e7557610e74610e20565b5b828204905092915050565b6000610e8b8261090c565b9150610e968361090c565b925082821015610ea957610ea8610d41565b5b828203905092915050565b7f4e487b7100000000000000000000000000000000000000000000000000000000600052603260045260246000fd5b6000610eee8261090c565b91506000821415610f0257610f01610d41565b5b600182039050919050565b60006dffffffffffffffffffffffffffff82169050919050565b610f3081610f0d565b8114610f3b57600080fd5b50565b600081519050610f4d81610f27565b92915050565b600063ffffffff82169050919050565b610f6c81610f53565b8114610f7757600080fd5b50565b600081519050610f8981610f63565b92915050565b600080600060608486031215610fa857610fa7610902565b5b6000610fb686828701610f3e565b9350506020610fc786828701610f3e565b9250506040610fd886828701610f7a565b9150509250925092565b6000610fed8261090c565b91507fffffffffffffffffffffffffffffffffffffffffffffffffffffffffffffffff8214156110205761101f610d41565b5b600182019050919050565b60008160601b9050919050565b60006110438261102b565b9050919050565b600061105582611038565b9050919050565b61106d611068826109df565b61104a565b82525050565b600061107f828561105c565b60148201915061108f828461105c565b6014820191508190509392505050565b600081905092915050565b7fff00000000000000000000000000000000000000000000000000000000000000600082015250565b60006110e060018361109f565b91506110eb826110aa565b600182019050919050565b6000819050919050565b6000819050919050565b61111b611116826110f6565b611100565b82525050565b7fab66b891387a046b7fefca26f19f061e1ced0309d8009fc43808c517eaec6917600082015250565b600061115760208361109f565b915061116282611121565b602082019050919050565b6000611178826110d3565b9150611184828561105c565b601482019150611194828461110a565b6020820191506111a38261114a565b9150819050939250505056fea2646970667358221220b667110a8825a2af7473043b0f2a848cd7155a273ee4919b7969869abab4c46364736f6c634300080a0033",
					"opcodes": "PUSH2 0x11E5 PUSH2 0x53 PUSH1 0xB DUP3 DUP3 DUP3 CODECOPY DUP1 MLOAD PUSH1 0x0 BYTE PUSH1 0x73 EQ PUSH2 0x46 JUMPI PUSH32 0x4E487B7100000000000000000000000000000000000000000000000000000000 PUSH1 0x0 MSTORE PUSH1 0x0 PUSH1 0x4 MSTORE PUSH1 0x24 PUSH1 0x0 REVERT JUMPDEST ADDRESS PUSH1 0x0 MSTORE PUSH1 0x73 DUP2 MSTORE8 DUP3 DUP2 RETURN INVALID PUSH20 0x0 ADDRESS EQ PUSH1 0x80 PUSH1 0x40 MSTORE PUSH1 0x4 CALLDATASIZE LT PUSH2 0x6C JUMPI PUSH1 0x0 CALLDATALOAD PUSH1 0xE0 SHR DUP1 PUSH4 0x54D50D4 EQ PUSH2 0x71 JUMPI DUP1 PUSH4 0x192128B2 EQ PUSH2 0xA1 JUMPI DUP1 PUSH4 0x32749461 EQ PUSH2 0xDE JUMPI DUP1 PUSH4 0x85F8C259 EQ PUSH2 0x11C JUMPI DUP1 PUSH4 0xAD615DEC EQ PUSH2 0x14C JUMPI DUP1 PUSH4 0xBB7B9C76 EQ PUSH2 0x17C JUMPI JUMPDEST PUSH1 0x0 DUP1 REVERT JUMPDEST PUSH2 0x8B PUSH1 0x4 DUP1 CALLDATASIZE SUB DUP2 ADD SWAP1 PUSH2 0x86 SWAP2 SWAP1 PUSH2 0x942 JUMP JUMPDEST PUSH2 0x1B9 JUMP JUMPDEST PUSH1 0x40 MLOAD PUSH2 0x98 SWAP2 SWAP1 PUSH2 0x9A4 JUMP JUMPDEST PUSH1 0x40 MLOAD DUP1 SWAP2 SUB SWAP1 RETURN JUMPDEST DUP2 DUP1 ISZERO PUSH2 0xAD JUMPI PUSH1 0x0 DUP1 REVERT JUMPDEST POP PUSH2 0xC8 PUSH1 0x4 DUP1 CALLDATASIZE SUB DUP2 ADD SWAP1 PUSH2 0xC3 SWAP2 SWAP1 PUSH2 0xB76 JUMP JUMPDEST PUSH2 0x292 JUMP JUMPDEST PUSH1 0x40 MLOAD PUSH2 0xD5 SWAP2 SWAP1 PUSH2 0xCA3 JUMP JUMPDEST PUSH1 0x40 MLOAD DUP1 SWAP2 SUB SWAP1 RETURN JUMPDEST DUP2 DUP1 ISZERO PUSH2 0xEA JUMPI PUSH1 0x0 DUP1 REVERT JUMPDEST POP PUSH2 0x105 PUSH1 0x4 DUP1 CALLDATASIZE SUB DUP2 ADD SWAP1 PUSH2 0x100 SWAP2 SWAP1 PUSH2 0xCC5 JUMP JUMPDEST PUSH2 0x42A JUMP JUMPDEST PUSH1 0x40 MLOAD PUSH2 0x113 SWAP3 SWAP2 SWAP1 PUSH2 0xD18 JUMP JUMPDEST PUSH1 0x40 MLOAD DUP1 SWAP2 SUB SWAP1 RETURN JUMPDEST PUSH2 0x136 PUSH1 0x4 DUP1 CALLDATASIZE SUB DUP2 ADD SWAP1 PUSH2 0x131 SWAP2 SWAP1 PUSH2 0x942 JUMP JUMPDEST PUSH2 0x532 JUMP JUMPDEST PUSH1 0x40 MLOAD PUSH2 0x143 SWAP2 SWAP1 PUSH2 0x9A4 JUMP JUMPDEST PUSH1 0x40 MLOAD DUP1 SWAP2 SUB SWAP1 RETURN JUMPDEST PUSH2 0x166 PUSH1 0x4 DUP1 CALLDATASIZE SUB DUP2 ADD SWAP1 PUSH2 0x161 SWAP2 SWAP1 PUSH2 0x942 JUMP JUMPDEST PUSH2 0x611 JUMP JUMPDEST PUSH1 0x40 MLOAD PUSH2 0x173 SWAP2 SWAP1 PUSH2 0x9A4 JUMP JUMPDEST PUSH1 0x40 MLOAD DUP1 SWAP2 SUB SWAP1 RETURN JUMPDEST DUP2 DUP1 ISZERO PUSH2 0x188 JUMPI PUSH1 0x0 DUP1 REVERT JUMPDEST POP PUSH2 0x1A3 PUSH1 0x4 DUP1 CALLDATASIZE SUB DUP2 ADD SWAP1 PUSH2 0x19E SWAP2 SWAP1 PUSH2 0xB76 JUMP JUMPDEST PUSH2 0x6B3 JUMP JUMPDEST PUSH1 0x40 MLOAD PUSH2 0x1B0 SWAP2 SWAP1 PUSH2 0xCA3 JUMP JUMPDEST PUSH1 0x40 MLOAD DUP1 SWAP2 SUB SWAP1 RETURN JUMPDEST PUSH1 0x0 DUP1 DUP5 EQ ISZERO PUSH2 0x1F5 JUMPI PUSH1 0x40 MLOAD PUSH32 0x5945EA5600000000000000000000000000000000000000000000000000000000 DUP2 MSTORE PUSH1 0x4 ADD PUSH1 0x40 MLOAD DUP1 SWAP2 SUB SWAP1 REVERT JUMPDEST PUSH1 0x0 DUP4 EQ DUP1 PUSH2 0x204 JUMPI POP PUSH1 0x0 DUP3 EQ JUMPDEST ISZERO PUSH2 0x23B JUMPI PUSH1 0x40 MLOAD PUSH32 0xBB55FD2700000000000000000000000000000000000000000000000000000000 DUP2 MSTORE PUSH1 0x4 ADD PUSH1 0x40 MLOAD DUP1 SWAP2 SUB SWAP1 REVERT JUMPDEST PUSH1 0x0 PUSH2 0x3E5 DUP6 PUSH2 0x24B SWAP2 SWAP1 PUSH2 0xD70 JUMP JUMPDEST SWAP1 POP PUSH1 0x0 DUP4 DUP3 PUSH2 0x25B SWAP2 SWAP1 PUSH2 0xD70 JUMP JUMPDEST SWAP1 POP PUSH1 0x0 DUP3 PUSH2 0x3E8 DUP8 PUSH2 0x26E SWAP2 SWAP1 PUSH2 0xD70 JUMP JUMPDEST PUSH2 0x278 SWAP2 SWAP1 PUSH2 0xDCA JUMP JUMPDEST SWAP1 POP DUP1 DUP3 PUSH2 0x286 SWAP2 SWAP1 PUSH2 0xE4F JUMP JUMPDEST SWAP4 POP POP POP POP SWAP4 SWAP3 POP POP POP JUMP JUMPDEST PUSH1 0x60 PUSH1 0x2 DUP3 MLOAD LT ISZERO PUSH2 0x2D0 JUMPI PUSH1 0x40 MLOAD PUSH32 0x20DB826700000000000000000000000000000000000000000000000000000000 DUP2 MSTORE PUSH1 0x4 ADD PUSH1 0x40 MLOAD DUP1 SWAP2 SUB SWAP1 REVERT JUMPDEST PUSH1 0x0 DUP3 MLOAD PUSH8 0xFFFFFFFFFFFFFFFF DUP2 GT ISZERO PUSH2 0x2ED JUMPI PUSH2 0x2EC PUSH2 0xA33 JUMP JUMPDEST JUMPDEST PUSH1 0x40 MLOAD SWAP1 DUP1 DUP3 MSTORE DUP1 PUSH1 0x20 MUL PUSH1 0x20 ADD DUP3 ADD PUSH1 0x40 MSTORE DUP1 ISZERO PUSH2 0x31B JUMPI DUP2 PUSH1 0x20 ADD PUSH1 0x20 DUP3 MUL DUP1 CALLDATASIZE DUP4 CALLDATACOPY DUP1 DUP3 ADD SWAP2 POP POP SWAP1 POP JUMPDEST POP SWAP1 POP DUP4 DUP2 PUSH1 0x1 DUP4 MLOAD PUSH2 0x32E SWAP2 SWAP1 PUSH2 0xE80 JUMP JUMPDEST DUP2 MLOAD DUP2 LT PUSH2 0x33F JUMPI PUSH2 0x33E PUSH2 0xEB4 JUMP JUMPDEST JUMPDEST PUSH1 0x20 MUL PUSH1 0x20 ADD ADD DUP2 DUP2 MSTORE POP POP PUSH1 0x0 PUSH1 0x1 DUP5 MLOAD PUSH2 0x35B SWAP2 SWAP1 PUSH2 0xE80 JUMP JUMPDEST SWAP1 POP JUMPDEST PUSH1 0x0 DUP2 GT ISZERO PUSH2 0x41E JUMPI PUSH1 0x0 DUP1 PUSH2 0x3B5 DUP9 DUP8 PUSH1 0x1 DUP7 PUSH2 0x37C SWAP2 SWAP1 PUSH2 0xE80 JUMP JUMPDEST DUP2 MLOAD DUP2 LT PUSH2 0x38D JUMPI PUSH2 0x38C PUSH2 0xEB4 JUMP JUMPDEST JUMPDEST PUSH1 0x20 MUL PUSH1 0x20 ADD ADD MLOAD DUP9 DUP7 DUP2 MLOAD DUP2 LT PUSH2 0x3A8 JUMPI PUSH2 0x3A7 PUSH2 0xEB4 JUMP JUMPDEST JUMPDEST PUSH1 0x20 MUL PUSH1 0x20 ADD ADD MLOAD PUSH2 0x42A JUMP JUMPDEST SWAP2 POP SWAP2 POP PUSH2 0x3DE DUP5 DUP5 DUP2 MLOAD DUP2 LT PUSH2 0x3CF JUMPI PUSH2 0x3CE PUSH2 0xEB4 JUMP JUMPDEST JUMPDEST PUSH1 0x20 MUL PUSH1 0x20 ADD ADD MLOAD DUP4 DUP4 PUSH2 0x532 JUMP JUMPDEST DUP5 PUSH1 0x1 DUP6 PUSH2 0x3EC SWAP2 SWAP1 PUSH2 0xE80 JUMP JUMPDEST DUP2 MLOAD DUP2 LT PUSH2 0x3FD JUMPI PUSH2 0x3FC PUSH2 0xEB4 JUMP JUMPDEST JUMPDEST PUSH1 0x20 MUL PUSH1 0x20 ADD ADD DUP2 DUP2 MSTORE POP POP POP POP DUP1 DUP1 PUSH2 0x416 SWAP1 PUSH2 0xEE3 JUMP JUMPDEST SWAP2 POP POP PUSH2 0x35E JUMP JUMPDEST POP DUP1 SWAP2 POP POP SWAP4 SWAP3 POP POP POP JUMP JUMPDEST PUSH1 0x0 DUP1 PUSH1 0x0 DUP1 PUSH2 0x43A DUP7 DUP7 PUSH2 0x83B JUMP JUMPDEST SWAP2 POP SWAP2 POP PUSH1 0x0 DUP1 PUSH2 0x44C DUP10 DUP6 DUP6 PUSH2 0x886 JUMP JUMPDEST PUSH20 0xFFFFFFFFFFFFFFFFFFFFFFFFFFFFFFFFFFFFFFFF AND PUSH4 0x902F1AC PUSH1 0x40 MLOAD DUP2 PUSH4 0xFFFFFFFF AND PUSH1 0xE0 SHL DUP2 MSTORE PUSH1 0x4 ADD PUSH1 0x60 PUSH1 0x40 MLOAD DUP1 DUP4 SUB DUP2 PUSH1 0x0 DUP8 GAS CALL ISZERO DUP1 ISZERO PUSH2 0x498 JUMPI RETURNDATASIZE PUSH1 0x0 DUP1 RETURNDATACOPY RETURNDATASIZE PUSH1 0x0 REVERT JUMPDEST POP POP POP POP PUSH1 0x40 MLOAD RETURNDATASIZE PUSH1 0x1F NOT PUSH1 0x1F DUP3 ADD AND DUP3 ADD DUP1 PUSH1 0x40 MSTORE POP DUP2 ADD SWAP1 PUSH2 0x4BC SWAP2 SWAP1 PUSH2 0xF8F JUMP JUMPDEST POP PUSH14 0xFFFFFFFFFFFFFFFFFFFFFFFFFFFF AND SWAP2 POP PUSH14 0xFFFFFFFFFFFFFFFFFFFFFFFFFFFF AND SWAP2 POP DUP4 PUSH20 0xFFFFFFFFFFFFFFFFFFFFFFFFFFFFFFFFFFFFFFFF AND DUP9 PUSH20 0xFFFFFFFFFFFFFFFFFFFFFFFFFFFFFFFFFFFFFFFF AND EQ PUSH2 0x51B JUMPI DUP1 DUP3 PUSH2 0x51E JUMP JUMPDEST DUP2 DUP2 JUMPDEST DUP1 SWAP7 POP DUP2 SWAP8 POP POP POP POP POP POP POP SWAP4 POP SWAP4 SWAP2 POP POP JUMP JUMPDEST PUSH1 0x0 DUP1 DUP5 EQ ISZERO PUSH2 0x56E JUMPI PUSH1 0x40 MLOAD PUSH32 0x5945EA5600000000000000000000000000000000000000000000000000000000 DUP2 MSTORE PUSH1 0x4 ADD PUSH1 0x40 MLOAD DUP1 SWAP2 SUB SWAP1 REVERT JUMPDEST PUSH1 0x0 DUP4 EQ DUP1 PUSH2 0x57D JUMPI POP PUSH1 0x0 DUP3 EQ JUMPDEST ISZERO PUSH2 0x5B4 JUMPI PUSH1 0x40 MLOAD PUSH32 0xBB55FD2700000000000000000000000000000000000000000000000000000000 DUP2 MSTORE PUSH1 0x4 ADD PUSH1 0x40 MLOAD DUP1 SWAP2 SUB SWAP1 REVERT JUMPDEST PUSH1 0x0 PUSH2 0x3E8 DUP6 DUP6 PUSH2 0x5C5 SWAP2 SWAP1 PUSH2 0xD70 JUMP JUMPDEST PUSH2 0x5CF SWAP2 SWAP1 PUSH2 0xD70 JUMP JUMPDEST SWAP1 POP PUSH1 0x0 PUSH2 0x3E5 DUP7 DUP6 PUSH2 0x5E2 SWAP2 SWAP1 PUSH2 0xE80 JUMP JUMPDEST PUSH2 0x5EC SWAP2 SWAP1 PUSH2 0xD70 JUMP JUMPDEST SWAP1 POP PUSH1 0x1 DUP2 DUP4 PUSH2 0x5FC SWAP2 SWAP1 PUSH2 0xE4F JUMP JUMPDEST PUSH2 0x606 SWAP2 SWAP1 PUSH2 0xDCA JUMP JUMPDEST SWAP3 POP POP POP SWAP4 SWAP3 POP POP POP JUMP JUMPDEST PUSH1 0x0 DUP1 DUP5 EQ ISZERO PUSH2 0x64D JUMPI PUSH1 0x40 MLOAD PUSH32 0x5945EA5600000000000000000000000000000000000000000000000000000000 DUP2 MSTORE PUSH1 0x4 ADD PUSH1 0x40 MLOAD DUP1 SWAP2 SUB SWAP1 REVERT JUMPDEST PUSH1 0x0 DUP4 EQ DUP1 PUSH2 0x65C JUMPI POP PUSH1 0x0 DUP3 EQ JUMPDEST ISZERO PUSH2 0x693 JUMPI PUSH1 0x40 MLOAD PUSH32 0xBB55FD2700000000000000000000000000000000000000000000000000000000 DUP2 MSTORE PUSH1 0x4 ADD PUSH1 0x40 MLOAD DUP1 SWAP2 SUB SWAP1 REVERT JUMPDEST DUP3 DUP3 DUP6 PUSH2 0x6A0 SWAP2 SWAP1 PUSH2 0xD70 JUMP JUMPDEST PUSH2 0x6AA SWAP2 SWAP1 PUSH2 0xE4F JUMP JUMPDEST SWAP1 POP SWAP4 SWAP3 POP POP POP JUMP JUMPDEST PUSH1 0x60 PUSH1 0x2 DUP3 MLOAD LT ISZERO PUSH2 0x6F1 JUMPI PUSH1 0x40 MLOAD PUSH32 0x20DB826700000000000000000000000000000000000000000000000000000000 DUP2 MSTORE PUSH1 0x4 ADD PUSH1 0x40 MLOAD DUP1 SWAP2 SUB SWAP1 REVERT JUMPDEST PUSH1 0x0 DUP3 MLOAD PUSH8 0xFFFFFFFFFFFFFFFF DUP2 GT ISZERO PUSH2 0x70E JUMPI PUSH2 0x70D PUSH2 0xA33 JUMP JUMPDEST JUMPDEST PUSH1 0x40 MLOAD SWAP1 DUP1 DUP3 MSTORE DUP1 PUSH1 0x20 MUL PUSH1 0x20 ADD DUP3 ADD PUSH1 0x40 MSTORE DUP1 ISZERO PUSH2 0x73C JUMPI DUP2 PUSH1 0x20 ADD PUSH1 0x20 DUP3 MUL DUP1 CALLDATASIZE DUP4 CALLDATACOPY DUP1 DUP3 ADD SWAP2 POP POP SWAP1 POP JUMPDEST POP SWAP1 POP DUP4 DUP2 PUSH1 0x0 DUP2 MLOAD DUP2 LT PUSH2 0x754 JUMPI PUSH2 0x753 PUSH2 0xEB4 JUMP JUMPDEST JUMPDEST PUSH1 0x20 MUL PUSH1 0x20 ADD ADD DUP2 DUP2 MSTORE POP POP PUSH1 0x0 JUMPDEST PUSH1 0x1 DUP5 MLOAD PUSH2 0x771 SWAP2 SWAP1 PUSH2 0xE80 JUMP JUMPDEST DUP2 LT ISZERO PUSH2 0x82F JUMPI PUSH1 0x0 DUP1 PUSH2 0x7C6 DUP9 DUP8 DUP6 DUP2 MLOAD DUP2 LT PUSH2 0x792 JUMPI PUSH2 0x791 PUSH2 0xEB4 JUMP JUMPDEST JUMPDEST PUSH1 0x20 MUL PUSH1 0x20 ADD ADD MLOAD DUP9 PUSH1 0x1 DUP8 PUSH2 0x7A8 SWAP2 SWAP1 PUSH2 0xDCA JUMP JUMPDEST DUP2 MLOAD DUP2 LT PUSH2 0x7B9 JUMPI PUSH2 0x7B8 PUSH2 0xEB4 JUMP JUMPDEST JUMPDEST PUSH1 0x20 MUL PUSH1 0x20 ADD ADD MLOAD PUSH2 0x42A JUMP JUMPDEST SWAP2 POP SWAP2 POP PUSH2 0x7EF DUP5 DUP5 DUP2 MLOAD DUP2 LT PUSH2 0x7E0 JUMPI PUSH2 0x7DF PUSH2 0xEB4 JUMP JUMPDEST JUMPDEST PUSH1 0x20 MUL PUSH1 0x20 ADD ADD MLOAD DUP4 DUP4 PUSH2 0x1B9 JUMP JUMPDEST DUP5 PUSH1 0x1 DUP6 PUSH2 0x7FD SWAP2 SWAP1 PUSH2 0xDCA JUMP JUMPDEST DUP2 MLOAD DUP2 LT PUSH2 0x80E JUMPI PUSH2 0x80D PUSH2 0xEB4 JUMP JUMPDEST JUMPDEST PUSH1 0x20 MUL PUSH1 0x20 ADD ADD DUP2 DUP2 MSTORE POP POP POP POP DUP1 DUP1 PUSH2 0x827 SWAP1 PUSH2 0xFE2 JUMP JUMPDEST SWAP2 POP POP PUSH2 0x763 JUMP JUMPDEST POP DUP1 SWAP2 POP POP SWAP4 SWAP3 POP POP POP JUMP JUMPDEST PUSH1 0x0 DUP1 DUP3 PUSH20 0xFFFFFFFFFFFFFFFFFFFFFFFFFFFFFFFFFFFFFFFF AND DUP5 PUSH20 0xFFFFFFFFFFFFFFFFFFFFFFFFFFFFFFFFFFFFFFFF AND LT PUSH2 0x878 JUMPI DUP3 DUP5 PUSH2 0x87B JUMP JUMPDEST DUP4 DUP4 JUMPDEST SWAP2 POP SWAP2 POP SWAP3 POP SWAP3 SWAP1 POP JUMP JUMPDEST PUSH1 0x0 DUP1 PUSH1 0x0 PUSH2 0x895 DUP6 DUP6 PUSH2 0x83B JUMP JUMPDEST SWAP2 POP SWAP2 POP DUP6 DUP3 DUP3 PUSH1 0x40 MLOAD PUSH1 0x20 ADD PUSH2 0x8AD SWAP3 SWAP2 SWAP1 PUSH2 0x1073 JUMP JUMPDEST PUSH1 0x40 MLOAD PUSH1 0x20 DUP2 DUP4 SUB SUB DUP2 MSTORE SWAP1 PUSH1 0x40 MSTORE DUP1 MLOAD SWAP1 PUSH1 0x20 ADD KECCAK256 PUSH1 0x40 MLOAD PUSH1 0x20 ADD PUSH2 0x8D4 SWAP3 SWAP2 SWAP1 PUSH2 0x116D JUMP JUMPDEST PUSH1 0x40 MLOAD PUSH1 0x20 DUP2 DUP4 SUB SUB DUP2 MSTORE SWAP1 PUSH1 0x40 MSTORE DUP1 MLOAD SWAP1 PUSH1 0x20 ADD KECCAK256 PUSH1 0x0 SHR SWAP3 POP POP POP SWAP4 SWAP3 POP POP POP JUMP JUMPDEST PUSH1 0x0 PUSH1 0x40 MLOAD SWAP1 POP SWAP1 JUMP JUMPDEST PUSH1 0x0 DUP1 REVERT JUMPDEST PUSH1 0x0 DUP1 REVERT JUMPDEST PUSH1 0x0 DUP2 SWAP1 POP SWAP2 SWAP1 POP JUMP JUMPDEST PUSH2 0x91F DUP2 PUSH2 0x90C JUMP JUMPDEST DUP2 EQ PUSH2 0x92A JUMPI PUSH1 0x0 DUP1 REVERT JUMPDEST POP JUMP JUMPDEST PUSH1 0x0 DUP2 CALLDATALOAD SWAP1 POP PUSH2 0x93C DUP2 PUSH2 0x916 JUMP JUMPDEST SWAP3 SWAP2 POP POP JUMP JUMPDEST PUSH1 0x0 DUP1 PUSH1 0x0 PUSH1 0x60 DUP5 DUP7 SUB SLT ISZERO PUSH2 0x95B JUMPI PUSH2 0x95A PUSH2 0x902 JUMP JUMPDEST JUMPDEST PUSH1 0x0 PUSH2 0x969 DUP7 DUP3 DUP8 ADD PUSH2 0x92D JUMP JUMPDEST SWAP4 POP POP PUSH1 0x20 PUSH2 0x97A DUP7 DUP3 DUP8 ADD PUSH2 0x92D JUMP JUMPDEST SWAP3 POP POP PUSH1 0x40 PUSH2 0x98B DUP7 DUP3 DUP8 ADD PUSH2 0x92D JUMP JUMPDEST SWAP2 POP POP SWAP3 POP SWAP3 POP SWAP3 JUMP JUMPDEST PUSH2 0x99E DUP2 PUSH2 0x90C JUMP JUMPDEST DUP3 MSTORE POP POP JUMP JUMPDEST PUSH1 0x0 PUSH1 0x20 DUP3 ADD SWAP1 POP PUSH2 0x9B9 PUSH1 0x0 DUP4 ADD DUP5 PUSH2 0x995 JUMP JUMPDEST SWAP3 SWAP2 POP POP JUMP JUMPDEST PUSH1 0x0 PUSH20 0xFFFFFFFFFFFFFFFFFFFFFFFFFFFFFFFFFFFFFFFF DUP3 AND SWAP1 POP SWAP2 SWAP1 POP JUMP JUMPDEST PUSH1 0x0 PUSH2 0x9EA DUP3 PUSH2 0x9BF JUMP JUMPDEST SWAP1 POP SWAP2 SWAP1 POP JUMP JUMPDEST PUSH2 0x9FA DUP2 PUSH2 0x9DF JUMP JUMPDEST DUP2 EQ PUSH2 0xA05 JUMPI PUSH1 0x0 DUP1 REVERT JUMPDEST POP JUMP JUMPDEST PUSH1 0x0 DUP2 CALLDATALOAD SWAP1 POP PUSH2 0xA17 DUP2 PUSH2 0x9F1 JUMP JUMPDEST SWAP3 SWAP2 POP POP JUMP JUMPDEST PUSH1 0x0 DUP1 REVERT JUMPDEST PUSH1 0x0 PUSH1 0x1F NOT PUSH1 0x1F DUP4 ADD AND SWAP1 POP SWAP2 SWAP1 POP JUMP JUMPDEST PUSH32 0x4E487B7100000000000000000000000000000000000000000000000000000000 PUSH1 0x0 MSTORE PUSH1 0x41 PUSH1 0x4 MSTORE PUSH1 0x24 PUSH1 0x0 REVERT JUMPDEST PUSH2 0xA6B DUP3 PUSH2 0xA22 JUMP JUMPDEST DUP2 ADD DUP2 DUP2 LT PUSH8 0xFFFFFFFFFFFFFFFF DUP3 GT OR ISZERO PUSH2 0xA8A JUMPI PUSH2 0xA89 PUSH2 0xA33 JUMP JUMPDEST JUMPDEST DUP1 PUSH1 0x40 MSTORE POP POP POP JUMP JUMPDEST PUSH1 0x0 PUSH2 0xA9D PUSH2 0x8F8 JUMP JUMPDEST SWAP1 POP PUSH2 0xAA9 DUP3 DUP3 PUSH2 0xA62 JUMP JUMPDEST SWAP2 SWAP1 POP JUMP JUMPDEST PUSH1 0x0 PUSH8 0xFFFFFFFFFFFFFFFF DUP3 GT ISZERO PUSH2 0xAC9 JUMPI PUSH2 0xAC8 PUSH2 0xA33 JUMP JUMPDEST JUMPDEST PUSH1 0x20 DUP3 MUL SWAP1 POP PUSH1 0x20 DUP2 ADD SWAP1 POP SWAP2 SWAP1 POP JUMP JUMPDEST PUSH1 0x0 DUP1 REVERT JUMPDEST PUSH1 0x0 PUSH2 0xAF2 PUSH2 0xAED DUP5 PUSH2 0xAAE JUMP JUMPDEST PUSH2 0xA93 JUMP JUMPDEST SWAP1 POP DUP1 DUP4 DUP3 MSTORE PUSH1 0x20 DUP3 ADD SWAP1 POP PUSH1 0x20 DUP5 MUL DUP4 ADD DUP6 DUP2 GT ISZERO PUSH2 0xB15 JUMPI PUSH2 0xB14 PUSH2 0xADA JUMP JUMPDEST JUMPDEST DUP4 JUMPDEST DUP2 DUP2 LT ISZERO PUSH2 0xB3E JUMPI DUP1 PUSH2 0xB2A DUP9 DUP3 PUSH2 0xA08 JUMP JUMPDEST DUP5 MSTORE PUSH1 0x20 DUP5 ADD SWAP4 POP POP PUSH1 0x20 DUP2 ADD SWAP1 POP PUSH2 0xB17 JUMP JUMPDEST POP POP POP SWAP4 SWAP3 POP POP POP JUMP JUMPDEST PUSH1 0x0 DUP3 PUSH1 0x1F DUP4 ADD SLT PUSH2 0xB5D JUMPI PUSH2 0xB5C PUSH2 0xA1D JUMP JUMPDEST JUMPDEST DUP2 CALLDATALOAD PUSH2 0xB6D DUP5 DUP3 PUSH1 0x20 DUP7 ADD PUSH2 0xADF JUMP JUMPDEST SWAP2 POP POP SWAP3 SWAP2 POP POP JUMP JUMPDEST PUSH1 0x0 DUP1 PUSH1 0x0 PUSH1 0x60 DUP5 DUP7 SUB SLT ISZERO PUSH2 0xB8F JUMPI PUSH2 0xB8E PUSH2 0x902 JUMP JUMPDEST JUMPDEST PUSH1 0x0 PUSH2 0xB9D DUP7 DUP3 DUP8 ADD PUSH2 0xA08 JUMP JUMPDEST SWAP4 POP POP PUSH1 0x20 PUSH2 0xBAE DUP7 DUP3 DUP8 ADD PUSH2 0x92D JUMP JUMPDEST SWAP3 POP POP PUSH1 0x40 DUP5 ADD CALLDATALOAD PUSH8 0xFFFFFFFFFFFFFFFF DUP2 GT ISZERO PUSH2 0xBCF JUMPI PUSH2 0xBCE PUSH2 0x907 JUMP JUMPDEST JUMPDEST PUSH2 0xBDB DUP7 DUP3 DUP8 ADD PUSH2 0xB48 JUMP JUMPDEST SWAP2 POP POP SWAP3 POP SWAP3 POP SWAP3 JUMP JUMPDEST PUSH1 0x0 DUP2 MLOAD SWAP1 POP SWAP2 SWAP1 POP JUMP JUMPDEST PUSH1 0x0 DUP3 DUP3 MSTORE PUSH1 0x20 DUP3 ADD SWAP1 POP SWAP3 SWAP2 POP POP JUMP JUMPDEST PUSH1 0x0 DUP2 SWAP1 POP PUSH1 0x20 DUP3 ADD SWAP1 POP SWAP2 SWAP1 POP JUMP JUMPDEST PUSH2 0xC1A DUP2 PUSH2 0x90C JUMP JUMPDEST DUP3 MSTORE POP POP JUMP JUMPDEST PUSH1 0x0 PUSH2 0xC2C DUP4 DUP4 PUSH2 0xC11 JUMP JUMPDEST PUSH1 0x20 DUP4 ADD SWAP1 POP SWAP3 SWAP2 POP POP JUMP JUMPDEST PUSH1 0x0 PUSH1 0x20 DUP3 ADD SWAP1 POP SWAP2 SWAP1 POP JUMP JUMPDEST PUSH1 0x0 PUSH2 0xC50 DUP3 PUSH2 0xBE5 JUMP JUMPDEST PUSH2 0xC5A DUP2 DUP6 PUSH2 0xBF0 JUMP JUMPDEST SWAP4 POP PUSH2 0xC65 DUP4 PUSH2 0xC01 JUMP JUMPDEST DUP1 PUSH1 0x0 JUMPDEST DUP4 DUP2 LT ISZERO PUSH2 0xC96 JUMPI DUP2 MLOAD PUSH2 0xC7D DUP9 DUP3 PUSH2 0xC20 JUMP JUMPDEST SWAP8 POP PUSH2 0xC88 DUP4 PUSH2 0xC38 JUMP JUMPDEST SWAP3 POP POP PUSH1 0x1 DUP2 ADD SWAP1 POP PUSH2 0xC69 JUMP JUMPDEST POP DUP6 SWAP4 POP POP POP POP SWAP3 SWAP2 POP POP JUMP JUMPDEST PUSH1 0x0 PUSH1 0x20 DUP3 ADD SWAP1 POP DUP2 DUP2 SUB PUSH1 0x0 DUP4 ADD MSTORE PUSH2 0xCBD DUP2 DUP5 PUSH2 0xC45 JUMP JUMPDEST SWAP1 POP SWAP3 SWAP2 POP POP JUMP JUMPDEST PUSH1 0x0 DUP1 PUSH1 0x0 PUSH1 0x60 DUP5 DUP7 SUB SLT ISZERO PUSH2 0xCDE JUMPI PUSH2 0xCDD PUSH2 0x902 JUMP JUMPDEST JUMPDEST PUSH1 0x0 PUSH2 0xCEC DUP7 DUP3 DUP8 ADD PUSH2 0xA08 JUMP JUMPDEST SWAP4 POP POP PUSH1 0x20 PUSH2 0xCFD DUP7 DUP3 DUP8 ADD PUSH2 0xA08 JUMP JUMPDEST SWAP3 POP POP PUSH1 0x40 PUSH2 0xD0E DUP7 DUP3 DUP8 ADD PUSH2 0xA08 JUMP JUMPDEST SWAP2 POP POP SWAP3 POP SWAP3 POP SWAP3 JUMP JUMPDEST PUSH1 0x0 PUSH1 0x40 DUP3 ADD SWAP1 POP PUSH2 0xD2D PUSH1 0x0 DUP4 ADD DUP6 PUSH2 0x995 JUMP JUMPDEST PUSH2 0xD3A PUSH1 0x20 DUP4 ADD DUP5 PUSH2 0x995 JUMP JUMPDEST SWAP4 SWAP3 POP POP POP JUMP JUMPDEST PUSH32 0x4E487B7100000000000000000000000000000000000000000000000000000000 PUSH1 0x0 MSTORE PUSH1 0x11 PUSH1 0x4 MSTORE PUSH1 0x24 PUSH1 0x0 REVERT JUMPDEST PUSH1 0x0 PUSH2 0xD7B DUP3 PUSH2 0x90C JUMP JUMPDEST SWAP2 POP PUSH2 0xD86 DUP4 PUSH2 0x90C JUMP JUMPDEST SWAP3 POP DUP2 PUSH32 0xFFFFFFFFFFFFFFFFFFFFFFFFFFFFFFFFFFFFFFFFFFFFFFFFFFFFFFFFFFFFFFFF DIV DUP4 GT DUP3 ISZERO ISZERO AND ISZERO PUSH2 0xDBF JUMPI PUSH2 0xDBE PUSH2 0xD41 JUMP JUMPDEST JUMPDEST DUP3 DUP3 MUL SWAP1 POP SWAP3 SWAP2 POP POP JUMP JUMPDEST PUSH1 0x0 PUSH2 0xDD5 DUP3 PUSH2 0x90C JUMP JUMPDEST SWAP2 POP PUSH2 0xDE0 DUP4 PUSH2 0x90C JUMP JUMPDEST SWAP3 POP DUP3 PUSH32 0xFFFFFFFFFFFFFFFFFFFFFFFFFFFFFFFFFFFFFFFFFFFFFFFFFFFFFFFFFFFFFFFF SUB DUP3 GT ISZERO PUSH2 0xE15 JUMPI PUSH2 0xE14 PUSH2 0xD41 JUMP JUMPDEST JUMPDEST DUP3 DUP3 ADD SWAP1 POP SWAP3 SWAP2 POP POP JUMP JUMPDEST PUSH32 0x4E487B7100000000000000000000000000000000000000000000000000000000 PUSH1 0x0 MSTORE PUSH1 0x12 PUSH1 0x4 MSTORE PUSH1 0x24 PUSH1 0x0 REVERT JUMPDEST PUSH1 0x0 PUSH2 0xE5A DUP3 PUSH2 0x90C JUMP JUMPDEST SWAP2 POP PUSH2 0xE65 DUP4 PUSH2 0x90C JUMP JUMPDEST SWAP3 POP DUP3 PUSH2 0xE75 JUMPI PUSH2 0xE74 PUSH2 0xE20 JUMP JUMPDEST JUMPDEST DUP3 DUP3 DIV SWAP1 POP SWAP3 SWAP2 POP POP JUMP JUMPDEST PUSH1 0x0 PUSH2 0xE8B DUP3 PUSH2 0x90C JUMP JUMPDEST SWAP2 POP PUSH2 0xE96 DUP4 PUSH2 0x90C JUMP JUMPDEST SWAP3 POP DUP3 DUP3 LT ISZERO PUSH2 0xEA9 JUMPI PUSH2 0xEA8 PUSH2 0xD41 JUMP JUMPDEST JUMPDEST DUP3 DUP3 SUB SWAP1 POP SWAP3 SWAP2 POP POP JUMP JUMPDEST PUSH32 0x4E487B7100000000000000000000000000000000000000000000000000000000 PUSH1 0x0 MSTORE PUSH1 0x32 PUSH1 0x4 MSTORE PUSH1 0x24 PUSH1 0x0 REVERT JUMPDEST PUSH1 0x0 PUSH2 0xEEE DUP3 PUSH2 0x90C JUMP JUMPDEST SWAP2 POP PUSH1 0x0 DUP3 EQ ISZERO PUSH2 0xF02 JUMPI PUSH2 0xF01 PUSH2 0xD41 JUMP JUMPDEST JUMPDEST PUSH1 0x1 DUP3 SUB SWAP1 POP SWAP2 SWAP1 POP JUMP JUMPDEST PUSH1 0x0 PUSH14 0xFFFFFFFFFFFFFFFFFFFFFFFFFFFF DUP3 AND SWAP1 POP SWAP2 SWAP1 POP JUMP JUMPDEST PUSH2 0xF30 DUP2 PUSH2 0xF0D JUMP JUMPDEST DUP2 EQ PUSH2 0xF3B JUMPI PUSH1 0x0 DUP1 REVERT JUMPDEST POP JUMP JUMPDEST PUSH1 0x0 DUP2 MLOAD SWAP1 POP PUSH2 0xF4D DUP2 PUSH2 0xF27 JUMP JUMPDEST SWAP3 SWAP2 POP POP JUMP JUMPDEST PUSH1 0x0 PUSH4 0xFFFFFFFF DUP3 AND SWAP1 POP SWAP2 SWAP1 POP JUMP JUMPDEST PUSH2 0xF6C DUP2 PUSH2 0xF53 JUMP JUMPDEST DUP2 EQ PUSH2 0xF77 JUMPI PUSH1 0x0 DUP1 REVERT JUMPDEST POP JUMP JUMPDEST PUSH1 0x0 DUP2 MLOAD SWAP1 POP PUSH2 0xF89 DUP2 PUSH2 0xF63 JUMP JUMPDEST SWAP3 SWAP2 POP POP JUMP JUMPDEST PUSH1 0x0 DUP1 PUSH1 0x0 PUSH1 0x60 DUP5 DUP7 SUB SLT ISZERO PUSH2 0xFA8 JUMPI PUSH2 0xFA7 PUSH2 0x902 JUMP JUMPDEST JUMPDEST PUSH1 0x0 PUSH2 0xFB6 DUP7 DUP3 DUP8 ADD PUSH2 0xF3E JUMP JUMPDEST SWAP4 POP POP PUSH1 0x20 PUSH2 0xFC7 DUP7 DUP3 DUP8 ADD PUSH2 0xF3E JUMP JUMPDEST SWAP3 POP POP PUSH1 0x40 PUSH2 0xFD8 DUP7 DUP3 DUP8 ADD PUSH2 0xF7A JUMP JUMPDEST SWAP2 POP POP SWAP3 POP SWAP3 POP SWAP3 JUMP JUMPDEST PUSH1 0x0 PUSH2 0xFED DUP3 PUSH2 0x90C JUMP JUMPDEST SWAP2 POP PUSH32 0xFFFFFFFFFFFFFFFFFFFFFFFFFFFFFFFFFFFFFFFFFFFFFFFFFFFFFFFFFFFFFFFF DUP3 EQ ISZERO PUSH2 0x1020 JUMPI PUSH2 0x101F PUSH2 0xD41 JUMP JUMPDEST JUMPDEST PUSH1 0x1 DUP3 ADD SWAP1 POP SWAP2 SWAP1 POP JUMP JUMPDEST PUSH1 0x0 DUP2 PUSH1 0x60 SHL SWAP1 POP SWAP2 SWAP1 POP JUMP JUMPDEST PUSH1 0x0 PUSH2 0x1043 DUP3 PUSH2 0x102B JUMP JUMPDEST SWAP1 POP SWAP2 SWAP1 POP JUMP JUMPDEST PUSH1 0x0 PUSH2 0x1055 DUP3 PUSH2 0x1038 JUMP JUMPDEST SWAP1 POP SWAP2 SWAP1 POP JUMP JUMPDEST PUSH2 0x106D PUSH2 0x1068 DUP3 PUSH2 0x9DF JUMP JUMPDEST PUSH2 0x104A JUMP JUMPDEST DUP3 MSTORE POP POP JUMP JUMPDEST PUSH1 0x0 PUSH2 0x107F DUP3 DUP6 PUSH2 0x105C JUMP JUMPDEST PUSH1 0x14 DUP3 ADD SWAP2 POP PUSH2 0x108F DUP3 DUP5 PUSH2 0x105C JUMP JUMPDEST PUSH1 0x14 DUP3 ADD SWAP2 POP DUP2 SWAP1 POP SWAP4 SWAP3 POP POP POP JUMP JUMPDEST PUSH1 0x0 DUP2 SWAP1 POP SWAP3 SWAP2 POP POP JUMP JUMPDEST PUSH32 0xFF00000000000000000000000000000000000000000000000000000000000000 PUSH1 0x0 DUP3 ADD MSTORE POP JUMP JUMPDEST PUSH1 0x0 PUSH2 0x10E0 PUSH1 0x1 DUP4 PUSH2 0x109F JUMP JUMPDEST SWAP2 POP PUSH2 0x10EB DUP3 PUSH2 0x10AA JUMP JUMPDEST PUSH1 0x1 DUP3 ADD SWAP1 POP SWAP2 SWAP1 POP JUMP JUMPDEST PUSH1 0x0 DUP2 SWAP1 POP SWAP2 SWAP1 POP JUMP JUMPDEST PUSH1 0x0 DUP2 SWAP1 POP SWAP2 SWAP1 POP JUMP JUMPDEST PUSH2 0x111B PUSH2 0x1116 DUP3 PUSH2 0x10F6 JUMP JUMPDEST PUSH2 0x1100 JUMP JUMPDEST DUP3 MSTORE POP POP JUMP JUMPDEST PUSH32 0xAB66B891387A046B7FEFCA26F19F061E1CED0309D8009FC43808C517EAEC6917 PUSH1 0x0 DUP3 ADD MSTORE POP JUMP JUMPDEST PUSH1 0x0 PUSH2 0x1157 PUSH1 0x20 DUP4 PUSH2 0x109F JUMP JUMPDEST SWAP2 POP PUSH2 0x1162 DUP3 PUSH2 0x1121 JUMP JUMPDEST PUSH1 0x20 DUP3 ADD SWAP1 POP SWAP2 SWAP1 POP JUMP JUMPDEST PUSH1 0x0 PUSH2 0x1178 DUP3 PUSH2 0x10D3 JUMP JUMPDEST SWAP2 POP PUSH2 0x1184 DUP3 DUP6 PUSH2 0x105C JUMP JUMPDEST PUSH1 0x14 DUP3 ADD SWAP2 POP PUSH2 0x1194 DUP3 DUP5 PUSH2 0x110A JUMP JUMPDEST PUSH1 0x20 DUP3 ADD SWAP2 POP PUSH2 0x11A3 DUP3 PUSH2 0x114A JUMP JUMPDEST SWAP2 POP DUP2 SWAP1 POP SWAP4 SWAP3 POP POP POP JUMP INVALID LOG2 PUSH5 0x6970667358 0x22 SLT KECCAK256 0xB6 PUSH8 0x110A8825A2AF7473 DIV EXTCODESIZE 0xF 0x2A DUP5 DUP13 0xD7 ISZERO GAS 0x27 RETURNDATACOPY 0xE4 SWAP2 SWAP12 PUSH26 0x69869ABAB4C46364736F6C634300080A00330000000000000000 "
				},
				"gasEstimates": {
					"creation": {
						"codeDepositCost": "916200",
						"executionCost": "980",
						"totalCost": "917180"
					},
					"external": {
						"getAmountIn(uint256,uint256,uint256)": "infinite",
						"getAmountOut(uint256,uint256,uint256)": "infinite",
						"getAmountsIn(address,uint256,address[])": "infinite",
						"getAmountsOut(address,uint256,address[])": "infinite",
						"getReserves(address,address,address)": "infinite",
						"quote(uint256,uint256,uint256)": "infinite"
					},
					"internal": {
						"pairFor(address,address,address)": "infinite",
						"sortTokens(address,address)": "90"
					}
				},
				"methodIdentifiers": {
					"getAmountIn(uint256,uint256,uint256)": "85f8c259",
					"getAmountOut(uint256,uint256,uint256)": "054d50d4",
					"getAmountsIn(address,uint256,address[])": "192128b2",
					"getAmountsOut(address,uint256,address[])": "bb7b9c76",
					"getReserves(address,address,address)": "32749461",
					"quote(uint256,uint256,uint256)": "ad615dec"
				}
			},
			"storageLayout": {
				"storage": [],
				"types": null
			},
			"userdoc": {
				"kind": "user",
				"methods": {},
				"version": 1
			}
		}
	}
}