{
	"contracts/KajuswapPair.sol": {
		"KajuswapPair": {
			"abi": [
				{
					"inputs": [],
					"stateMutability": "nonpayable",
					"type": "constructor"
				},
				{
					"inputs": [],
					"name": "AlreadyInitialized",
					"type": "error"
				},
				{
					"anonymous": false,
					"inputs": [
						{
							"indexed": true,
							"internalType": "address",
							"name": "owner",
							"type": "address"
						},
						{
							"indexed": true,
							"internalType": "address",
							"name": "spender",
							"type": "address"
						},
						{
							"indexed": false,
							"internalType": "uint256",
							"name": "amount",
							"type": "uint256"
						}
					],
					"name": "Approval",
					"type": "event"
				},
				{
					"anonymous": false,
					"inputs": [
						{
							"indexed": true,
							"internalType": "address",
							"name": "sender",
							"type": "address"
						},
						{
							"indexed": false,
							"internalType": "uint256",
							"name": "amount0",
							"type": "uint256"
						},
						{
							"indexed": false,
							"internalType": "uint256",
							"name": "amount1",
							"type": "uint256"
						},
						{
							"indexed": false,
							"internalType": "address",
							"name": "to",
							"type": "address"
						}
					],
					"name": "Burn",
					"type": "event"
				},
				{
					"anonymous": false,
					"inputs": [
						{
							"indexed": true,
							"internalType": "address",
							"name": "sender",
							"type": "address"
						},
						{
							"indexed": false,
							"internalType": "uint256",
							"name": "amount0",
							"type": "uint256"
						},
						{
							"indexed": false,
							"internalType": "uint256",
							"name": "amount1",
							"type": "uint256"
						}
					],
					"name": "Mint",
					"type": "event"
				},
				{
					"anonymous": false,
					"inputs": [
						{
							"indexed": true,
							"internalType": "address",
							"name": "sender",
							"type": "address"
						},
						{
							"indexed": false,
							"internalType": "uint256",
							"name": "amount0Out",
							"type": "uint256"
						},
						{
							"indexed": false,
							"internalType": "uint256",
							"name": "amount1Out",
							"type": "uint256"
						},
						{
							"indexed": true,
							"internalType": "address",
							"name": "to",
							"type": "address"
						}
					],
					"name": "Swap",
					"type": "event"
				},
				{
					"anonymous": false,
					"inputs": [
						{
							"indexed": false,
							"internalType": "uint256",
							"name": "reserve0",
							"type": "uint256"
						},
						{
							"indexed": false,
							"internalType": "uint256",
							"name": "reserve1",
							"type": "uint256"
						}
					],
					"name": "Sync",
					"type": "event"
				},
				{
					"anonymous": false,
					"inputs": [
						{
							"indexed": true,
							"internalType": "address",
							"name": "from",
							"type": "address"
						},
						{
							"indexed": true,
							"internalType": "address",
							"name": "to",
							"type": "address"
						},
						{
							"indexed": false,
							"internalType": "uint256",
							"name": "amount",
							"type": "uint256"
						}
					],
					"name": "Transfer",
					"type": "event"
				},
				{
					"inputs": [],
					"name": "DOMAIN_SEPARATOR",
					"outputs": [
						{
							"internalType": "bytes32",
							"name": "",
							"type": "bytes32"
						}
					],
					"stateMutability": "view",
					"type": "function"
				},
				{
					"inputs": [
						{
							"internalType": "address",
							"name": "",
							"type": "address"
						},
						{
							"internalType": "address",
							"name": "",
							"type": "address"
						}
					],
					"name": "allowance",
					"outputs": [
						{
							"internalType": "uint256",
							"name": "",
							"type": "uint256"
						}
					],
					"stateMutability": "view",
					"type": "function"
				},
				{
					"inputs": [
						{
							"internalType": "address",
							"name": "spender",
							"type": "address"
						},
						{
							"internalType": "uint256",
							"name": "amount",
							"type": "uint256"
						}
					],
					"name": "approve",
					"outputs": [
						{
							"internalType": "bool",
							"name": "",
							"type": "bool"
						}
					],
					"stateMutability": "nonpayable",
					"type": "function"
				},
				{
					"inputs": [
						{
							"internalType": "address",
							"name": "",
							"type": "address"
						}
					],
					"name": "balanceOf",
					"outputs": [
						{
							"internalType": "uint256",
							"name": "",
							"type": "uint256"
						}
					],
					"stateMutability": "view",
					"type": "function"
				},
				{
					"inputs": [
						{
							"internalType": "address",
							"name": "to",
							"type": "address"
						}
					],
					"name": "burn",
					"outputs": [
						{
							"internalType": "uint256",
							"name": "amount0",
							"type": "uint256"
						},
						{
							"internalType": "uint256",
							"name": "amount1",
							"type": "uint256"
						}
					],
					"stateMutability": "nonpayable",
					"type": "function"
				},
				{
					"inputs": [],
					"name": "decimals",
					"outputs": [
						{
							"internalType": "uint8",
							"name": "",
							"type": "uint8"
						}
					],
					"stateMutability": "view",
					"type": "function"
				},
				{
					"inputs": [],
					"name": "factory",
					"outputs": [
						{
							"internalType": "address",
							"name": "",
							"type": "address"
						}
					],
					"stateMutability": "view",
					"type": "function"
				},
				{
					"inputs": [],
					"name": "getReserves",
					"outputs": [
						{
							"internalType": "uint112",
							"name": "",
							"type": "uint112"
						},
						{
							"internalType": "uint112",
							"name": "",
							"type": "uint112"
						},
						{
							"internalType": "uint32",
							"name": "",
							"type": "uint32"
						}
					],
					"stateMutability": "view",
					"type": "function"
				},
				{
					"inputs": [
						{
							"internalType": "address",
							"name": "token0_",
							"type": "address"
						},
						{
							"internalType": "address",
							"name": "token1_",
							"type": "address"
						}
					],
					"name": "initialize",
					"outputs": [],
					"stateMutability": "nonpayable",
					"type": "function"
				},
				{
					"inputs": [
						{
							"internalType": "address",
							"name": "to",
							"type": "address"
						}
					],
					"name": "mint",
					"outputs": [
						{
							"internalType": "uint256",
							"name": "liquidity",
							"type": "uint256"
						}
					],
					"stateMutability": "nonpayable",
					"type": "function"
				},
				{
					"inputs": [],
					"name": "name",
					"outputs": [
						{
							"internalType": "string",
							"name": "",
							"type": "string"
						}
					],
					"stateMutability": "view",
					"type": "function"
				},
				{
					"inputs": [
						{
							"internalType": "address",
							"name": "",
							"type": "address"
						}
					],
					"name": "nonces",
					"outputs": [
						{
							"internalType": "uint256",
							"name": "",
							"type": "uint256"
						}
					],
					"stateMutability": "view",
					"type": "function"
				},
				{
					"inputs": [
						{
							"internalType": "address",
							"name": "owner",
							"type": "address"
						},
						{
							"internalType": "address",
							"name": "spender",
							"type": "address"
						},
						{
							"internalType": "uint256",
							"name": "value",
							"type": "uint256"
						},
						{
							"internalType": "uint256",
							"name": "deadline",
							"type": "uint256"
						},
						{
							"internalType": "uint8",
							"name": "v",
							"type": "uint8"
						},
						{
							"internalType": "bytes32",
							"name": "r",
							"type": "bytes32"
						},
						{
							"internalType": "bytes32",
							"name": "s",
							"type": "bytes32"
						}
					],
					"name": "permit",
					"outputs": [],
					"stateMutability": "nonpayable",
					"type": "function"
				},
				{
					"inputs": [],
					"name": "price0CumulativeLast",
					"outputs": [
						{
							"internalType": "uint256",
							"name": "",
							"type": "uint256"
						}
					],
					"stateMutability": "view",
					"type": "function"
				},
				{
					"inputs": [],
					"name": "price1CumulativeLast",
					"outputs": [
						{
							"internalType": "uint256",
							"name": "",
							"type": "uint256"
						}
					],
					"stateMutability": "view",
					"type": "function"
				},
				{
					"inputs": [
						{
							"internalType": "uint256",
							"name": "amount0Out",
							"type": "uint256"
						},
						{
							"internalType": "uint256",
							"name": "amount1Out",
							"type": "uint256"
						},
						{
							"internalType": "address",
							"name": "to",
							"type": "address"
						}
					],
					"name": "swap",
					"outputs": [],
					"stateMutability": "nonpayable",
					"type": "function"
				},
				{
					"inputs": [],
					"name": "symbol",
					"outputs": [
						{
							"internalType": "string",
							"name": "",
							"type": "string"
						}
					],
					"stateMutability": "view",
					"type": "function"
				},
				{
					"inputs": [],
					"name": "sync",
					"outputs": [],
					"stateMutability": "nonpayable",
					"type": "function"
				},
				{
					"inputs": [],
					"name": "token0",
					"outputs": [
						{
							"internalType": "address",
							"name": "",
							"type": "address"
						}
					],
					"stateMutability": "view",
					"type": "function"
				},
				{
					"inputs": [],
					"name": "token1",
					"outputs": [
						{
							"internalType": "address",
							"name": "",
							"type": "address"
						}
					],
					"stateMutability": "view",
					"type": "function"
				},
				{
					"inputs": [],
					"name": "totalSupply",
					"outputs": [
						{
							"internalType": "uint256",
							"name": "",
							"type": "uint256"
						}
					],
					"stateMutability": "view",
					"type": "function"
				},
				{
					"inputs": [
						{
							"internalType": "address",
							"name": "to",
							"type": "address"
						},
						{
							"internalType": "uint256",
							"name": "amount",
							"type": "uint256"
						}
					],
					"name": "transfer",
					"outputs": [
						{
							"internalType": "bool",
							"name": "",
							"type": "bool"
						}
					],
					"stateMutability": "nonpayable",
					"type": "function"
				},
				{
					"inputs": [
						{
							"internalType": "address",
							"name": "from",
							"type": "address"
						},
						{
							"internalType": "address",
							"name": "to",
							"type": "address"
						},
						{
							"internalType": "uint256",
							"name": "amount",
							"type": "uint256"
						}
					],
					"name": "transferFrom",
					"outputs": [
						{
							"internalType": "bool",
							"name": "",
							"type": "bool"
						}
					],
					"stateMutability": "nonpayable",
					"type": "function"
				}
			],
			"devdoc": {
				"kind": "dev",
				"methods": {},
				"version": 1
			},
			"evm": {
				"assembly": "    /* \"contracts/KajuswapPair.sol\":527:9150  contract KajuswapPair is ERC20, Math {... */\n  mstore(0x40, 0xe0)\n    /* \"contracts/KajuswapPair.sol\":1915:2003  constructor() ERC20(\"Kajuswap Pair\", \"KAJU\", 18) {... */\n  callvalue\n  dup1\n  iszero\n  tag_1\n  jumpi\n  0x00\n  dup1\n  revert\ntag_1:\n  pop\n    /* \"@rari-capital/solmate/src/tokens/ERC20.sol\":1978:2270  constructor(... */\n  mload(0x40)\n  dup1\n  0x40\n  add\n  0x40\n  mstore\n  dup1\n  0x0d\n  dup2\n  mstore\n  0x20\n  add\n  0x4b616a7573776170205061697200000000000000000000000000000000000000\n  dup2\n  mstore\n  pop\n  mload(0x40)\n  dup1\n  0x40\n  add\n  0x40\n  mstore\n  dup1\n  0x04\n  dup2\n  mstore\n  0x20\n  add\n  0x4b414a5500000000000000000000000000000000000000000000000000000000\n  dup2\n  mstore\n  pop\n    /* \"contracts/KajuswapPair.sol\":1960:1962  18 */\n  0x12\n    /* \"@rari-capital/solmate/src/tokens/ERC20.sol\":2098:2103  _name */\n  dup3\n    /* \"@rari-capital/solmate/src/tokens/ERC20.sol\":2091:2095  name */\n  0x00\n    /* \"@rari-capital/solmate/src/tokens/ERC20.sol\":2091:2103  name = _name */\n  swap1\n  dup2\n  tag_5\n  swap2\n  swap1\n  tag_6\n  jump\t// in\ntag_5:\n  pop\n    /* \"@rari-capital/solmate/src/tokens/ERC20.sol\":2122:2129  _symbol */\n  dup2\n    /* \"@rari-capital/solmate/src/tokens/ERC20.sol\":2113:2119  symbol */\n  0x01\n    /* \"@rari-capital/solmate/src/tokens/ERC20.sol\":2113:2129  symbol = _symbol */\n  swap1\n  dup2\n  tag_7\n  swap2\n  swap1\n  tag_6\n  jump\t// in\ntag_7:\n  pop\n    /* \"@rari-capital/solmate/src/tokens/ERC20.sol\":2150:2159  _decimals */\n  dup1\n    /* \"@rari-capital/solmate/src/tokens/ERC20.sol\":2139:2159  decimals = _decimals */\n  0xff\n  and\n  0x80\n  dup2\n  0xff\n  and\n  dup2\n  mstore\n  pop\n  pop\n    /* \"@rari-capital/solmate/src/tokens/ERC20.sol\":2189:2202  block.chainid */\n  chainid\n    /* \"@rari-capital/solmate/src/tokens/ERC20.sol\":2170:2202  INITIAL_CHAIN_ID = block.chainid */\n  0xa0\n  dup2\n  dup2\n  mstore\n  pop\n  pop\n    /* \"@rari-capital/solmate/src/tokens/ERC20.sol\":2239:2263  computeDomainSeparator() */\n  tag_8\n    /* \"@rari-capital/solmate/src/tokens/ERC20.sol\":2239:2261  computeDomainSeparator */\n  shl(0x20, tag_9)\n    /* \"@rari-capital/solmate/src/tokens/ERC20.sol\":2239:2263  computeDomainSeparator() */\n  0x20\n  shr\n  jump\t// in\ntag_8:\n    /* \"@rari-capital/solmate/src/tokens/ERC20.sol\":2212:2263  INITIAL_DOMAIN_SEPARATOR = computeDomainSeparator() */\n  0xc0\n  dup2\n  dup2\n  mstore\n  pop\n  pop\n    /* \"@rari-capital/solmate/src/tokens/ERC20.sol\":1978:2270  constructor(... */\n  pop\n  pop\n  pop\n    /* \"contracts/KajuswapPair.sol\":1985:1995  msg.sender */\n  caller\n    /* \"contracts/KajuswapPair.sol\":1975:1982  factory */\n  0x06\n  0x00\n    /* \"contracts/KajuswapPair.sol\":1975:1995  factory = msg.sender */\n  0x0100\n  exp\n  dup2\n  sload\n  dup2\n  0xffffffffffffffffffffffffffffffffffffffff\n  mul\n  not\n  and\n  swap1\n  dup4\n  0xffffffffffffffffffffffffffffffffffffffff\n  and\n  mul\n  or\n  swap1\n  sstore\n  pop\n    /* \"contracts/KajuswapPair.sol\":527:9150  contract KajuswapPair is ERC20, Math {... */\n  jump(tag_11)\n    /* \"@rari-capital/solmate/src/tokens/ERC20.sol\":5507:5953  function computeDomainSeparator() internal view virtual returns (bytes32) {... */\ntag_9:\n    /* \"@rari-capital/solmate/src/tokens/ERC20.sol\":5572:5579  bytes32 */\n  0x00\n    /* \"@rari-capital/solmate/src/tokens/ERC20.sol\":5669:5764  keccak256(\"EIP712Domain(string name,string version,uint256 chainId,address verifyingContract)\") */\n  0x8b73c3c69bb8fe3d512ecc4cf759cc79239f7b179b0ffacaa9a75d522b39400f\n    /* \"@rari-capital/solmate/src/tokens/ERC20.sol\":5802:5806  name */\n  0x00\n    /* \"@rari-capital/solmate/src/tokens/ERC20.sol\":5786:5808  keccak256(bytes(name)) */\n  mload(0x40)\n  tag_13\n  swap2\n  swap1\n  tag_14\n  jump\t// in\ntag_13:\n  mload(0x40)\n  dup1\n  swap2\n  sub\n  swap1\n  keccak256\n    /* \"@rari-capital/solmate/src/tokens/ERC20.sol\":5830:5844  keccak256(\"1\") */\n  0xc89efdaa54c0f20c7adf612882df0950f5a951637e0307cdcb4c672f298b8bc6\n    /* \"@rari-capital/solmate/src/tokens/ERC20.sol\":5866:5879  block.chainid */\n  chainid\n    /* \"@rari-capital/solmate/src/tokens/ERC20.sol\":5909:5913  this */\n  address\n    /* \"@rari-capital/solmate/src/tokens/ERC20.sol\":5637:5932  abi.encode(... */\n  add(0x20, mload(0x40))\n  tag_15\n  swap6\n  swap5\n  swap4\n  swap3\n  swap2\n  swap1\n  tag_16\n  jump\t// in\ntag_15:\n  mload(0x40)\n  0x20\n  dup2\n  dup4\n  sub\n  sub\n  dup2\n  mstore\n  swap1\n  0x40\n  mstore\n    /* \"@rari-capital/solmate/src/tokens/ERC20.sol\":5610:5946  keccak256(... */\n  dup1\n  mload\n  swap1\n  0x20\n  add\n  keccak256\n    /* \"@rari-capital/solmate/src/tokens/ERC20.sol\":5591:5946  return... */\n  swap1\n  pop\n    /* \"@rari-capital/solmate/src/tokens/ERC20.sol\":5507:5953  function computeDomainSeparator() internal view virtual returns (bytes32) {... */\n  swap1\n  jump\t// out\n    /* \"#utility.yul\":7:106   */\ntag_17:\n    /* \"#utility.yul\":59:65   */\n  0x00\n    /* \"#utility.yul\":93:98   */\n  dup2\n    /* \"#utility.yul\":87:99   */\n  mload\n    /* \"#utility.yul\":77:99   */\n  swap1\n  pop\n    /* \"#utility.yul\":7:106   */\n  swap2\n  swap1\n  pop\n  jump\t// out\n    /* \"#utility.yul\":112:292   */\ntag_18:\n    /* \"#utility.yul\":160:237   */\n  0x4e487b7100000000000000000000000000000000000000000000000000000000\n    /* \"#utility.yul\":157:158   */\n  0x00\n    /* \"#utility.yul\":150:238   */\n  mstore\n    /* \"#utility.yul\":257:261   */\n  0x41\n    /* \"#utility.yul\":254:255   */\n  0x04\n    /* \"#utility.yul\":247:262   */\n  mstore\n    /* \"#utility.yul\":281:285   */\n  0x24\n    /* \"#utility.yul\":278:279   */\n  0x00\n    /* \"#utility.yul\":271:286   */\n  revert\n    /* \"#utility.yul\":298:478   */\ntag_19:\n    /* \"#utility.yul\":346:423   */\n  0x4e487b7100000000000000000000000000000000000000000000000000000000\n    /* \"#utility.yul\":343:344   */\n  0x00\n    /* \"#utility.yul\":336:424   */\n  mstore\n    /* \"#utility.yul\":443:447   */\n  0x22\n    /* \"#utility.yul\":440:441   */\n  0x04\n    /* \"#utility.yul\":433:448   */\n  mstore\n    /* \"#utility.yul\":467:471   */\n  0x24\n    /* \"#utility.yul\":464:465   */\n  0x00\n    /* \"#utility.yul\":457:472   */\n  revert\n    /* \"#utility.yul\":484:804   */\ntag_20:\n    /* \"#utility.yul\":528:534   */\n  0x00\n    /* \"#utility.yul\":565:566   */\n  0x02\n    /* \"#utility.yul\":559:563   */\n  dup3\n    /* \"#utility.yul\":555:567   */\n  div\n    /* \"#utility.yul\":545:567   */\n  swap1\n  pop\n    /* \"#utility.yul\":612:613   */\n  0x01\n    /* \"#utility.yul\":606:610   */\n  dup3\n    /* \"#utility.yul\":602:614   */\n  and\n    /* \"#utility.yul\":633:651   */\n  dup1\n    /* \"#utility.yul\":623:704   */\n  tag_51\n  jumpi\n    /* \"#utility.yul\":689:693   */\n  0x7f\n    /* \"#utility.yul\":681:687   */\n  dup3\n    /* \"#utility.yul\":677:694   */\n  and\n    /* \"#utility.yul\":667:694   */\n  swap2\n  pop\n    /* \"#utility.yul\":623:704   */\ntag_51:\n    /* \"#utility.yul\":751:753   */\n  0x20\n    /* \"#utility.yul\":743:749   */\n  dup3\n    /* \"#utility.yul\":740:754   */\n  lt\n    /* \"#utility.yul\":720:738   */\n  dup2\n    /* \"#utility.yul\":717:755   */\n  sub\n    /* \"#utility.yul\":714:798   */\n  tag_52\n  jumpi\n    /* \"#utility.yul\":770:788   */\n  tag_53\n  tag_19\n  jump\t// in\ntag_53:\n    /* \"#utility.yul\":714:798   */\ntag_52:\n    /* \"#utility.yul\":535:804   */\n  pop\n    /* \"#utility.yul\":484:804   */\n  swap2\n  swap1\n  pop\n  jump\t// out\n    /* \"#utility.yul\":810:951   */\ntag_21:\n    /* \"#utility.yul\":859:863   */\n  0x00\n    /* \"#utility.yul\":882:885   */\n  dup2\n    /* \"#utility.yul\":874:885   */\n  swap1\n  pop\n    /* \"#utility.yul\":905:908   */\n  dup2\n    /* \"#utility.yul\":902:903   */\n  0x00\n    /* \"#utility.yul\":895:909   */\n  mstore\n    /* \"#utility.yul\":939:943   */\n  0x20\n    /* \"#utility.yul\":936:937   */\n  0x00\n    /* \"#utility.yul\":926:944   */\n  keccak256\n    /* \"#utility.yul\":918:944   */\n  swap1\n  pop\n    /* \"#utility.yul\":810:951   */\n  swap2\n  swap1\n  pop\n  jump\t// out\n    /* \"#utility.yul\":957:1050   */\ntag_22:\n    /* \"#utility.yul\":994:1000   */\n  0x00\n    /* \"#utility.yul\":1041:1043   */\n  0x20\n    /* \"#utility.yul\":1036:1038   */\n  0x1f\n    /* \"#utility.yul\":1029:1034   */\n  dup4\n    /* \"#utility.yul\":1025:1039   */\n  add\n    /* \"#utility.yul\":1021:1044   */\n  div\n    /* \"#utility.yul\":1011:1044   */\n  swap1\n  pop\n    /* \"#utility.yul\":957:1050   */\n  swap2\n  swap1\n  pop\n  jump\t// out\n    /* \"#utility.yul\":1056:1163   */\ntag_23:\n    /* \"#utility.yul\":1100:1108   */\n  0x00\n    /* \"#utility.yul\":1150:1155   */\n  dup3\n    /* \"#utility.yul\":1144:1148   */\n  dup3\n    /* \"#utility.yul\":1140:1156   */\n  shl\n    /* \"#utility.yul\":1119:1156   */\n  swap1\n  pop\n    /* \"#utility.yul\":1056:1163   */\n  swap3\n  swap2\n  pop\n  pop\n  jump\t// out\n    /* \"#utility.yul\":1169:1562   */\ntag_24:\n    /* \"#utility.yul\":1238:1244   */\n  0x00\n    /* \"#utility.yul\":1288:1289   */\n  0x08\n    /* \"#utility.yul\":1276:1286   */\n  dup4\n    /* \"#utility.yul\":1272:1290   */\n  mul\n    /* \"#utility.yul\":1311:1408   */\n  tag_58\n    /* \"#utility.yul\":1341:1407   */\n  0xffffffffffffffffffffffffffffffffffffffffffffffffffffffffffffffff\n    /* \"#utility.yul\":1330:1339   */\n  dup3\n    /* \"#utility.yul\":1311:1408   */\n  tag_23\n  jump\t// in\ntag_58:\n    /* \"#utility.yul\":1429:1468   */\n  tag_59\n    /* \"#utility.yul\":1459:1467   */\n  dup7\n    /* \"#utility.yul\":1448:1457   */\n  dup4\n    /* \"#utility.yul\":1429:1468   */\n  tag_23\n  jump\t// in\ntag_59:\n    /* \"#utility.yul\":1417:1468   */\n  swap6\n  pop\n    /* \"#utility.yul\":1501:1505   */\n  dup1\n    /* \"#utility.yul\":1497:1506   */\n  not\n    /* \"#utility.yul\":1490:1495   */\n  dup5\n    /* \"#utility.yul\":1486:1507   */\n  and\n    /* \"#utility.yul\":1477:1507   */\n  swap4\n  pop\n    /* \"#utility.yul\":1550:1554   */\n  dup1\n    /* \"#utility.yul\":1540:1548   */\n  dup7\n    /* \"#utility.yul\":1536:1555   */\n  and\n    /* \"#utility.yul\":1529:1534   */\n  dup5\n    /* \"#utility.yul\":1526:1556   */\n  or\n    /* \"#utility.yul\":1516:1556   */\n  swap3\n  pop\n    /* \"#utility.yul\":1245:1562   */\n  pop\n  pop\n    /* \"#utility.yul\":1169:1562   */\n  swap4\n  swap3\n  pop\n  pop\n  pop\n  jump\t// out\n    /* \"#utility.yul\":1568:1645   */\ntag_25:\n    /* \"#utility.yul\":1605:1612   */\n  0x00\n    /* \"#utility.yul\":1634:1639   */\n  dup2\n    /* \"#utility.yul\":1623:1639   */\n  swap1\n  pop\n    /* \"#utility.yul\":1568:1645   */\n  swap2\n  swap1\n  pop\n  jump\t// out\n    /* \"#utility.yul\":1651:1711   */\ntag_26:\n    /* \"#utility.yul\":1679:1682   */\n  0x00\n    /* \"#utility.yul\":1700:1705   */\n  dup2\n    /* \"#utility.yul\":1693:1705   */\n  swap1\n  pop\n    /* \"#utility.yul\":1651:1711   */\n  swap2\n  swap1\n  pop\n  jump\t// out\n    /* \"#utility.yul\":1717:1859   */\ntag_27:\n    /* \"#utility.yul\":1767:1776   */\n  0x00\n    /* \"#utility.yul\":1800:1853   */\n  tag_63\n    /* \"#utility.yul\":1818:1852   */\n  tag_64\n    /* \"#utility.yul\":1827:1851   */\n  tag_65\n    /* \"#utility.yul\":1845:1850   */\n  dup5\n    /* \"#utility.yul\":1827:1851   */\n  tag_25\n  jump\t// in\ntag_65:\n    /* \"#utility.yul\":1818:1852   */\n  tag_26\n  jump\t// in\ntag_64:\n    /* \"#utility.yul\":1800:1853   */\n  tag_25\n  jump\t// in\ntag_63:\n    /* \"#utility.yul\":1787:1853   */\n  swap1\n  pop\n    /* \"#utility.yul\":1717:1859   */\n  swap2\n  swap1\n  pop\n  jump\t// out\n    /* \"#utility.yul\":1865:1940   */\ntag_28:\n    /* \"#utility.yul\":1908:1911   */\n  0x00\n    /* \"#utility.yul\":1929:1934   */\n  dup2\n    /* \"#utility.yul\":1922:1934   */\n  swap1\n  pop\n    /* \"#utility.yul\":1865:1940   */\n  swap2\n  swap1\n  pop\n  jump\t// out\n    /* \"#utility.yul\":1946:2215   */\ntag_29:\n    /* \"#utility.yul\":2056:2095   */\n  tag_68\n    /* \"#utility.yul\":2087:2094   */\n  dup4\n    /* \"#utility.yul\":2056:2095   */\n  tag_27\n  jump\t// in\ntag_68:\n    /* \"#utility.yul\":2117:2208   */\n  tag_69\n    /* \"#utility.yul\":2166:2207   */\n  tag_70\n    /* \"#utility.yul\":2190:2206   */\n  dup3\n    /* \"#utility.yul\":2166:2207   */\n  tag_28\n  jump\t// in\ntag_70:\n    /* \"#utility.yul\":2158:2164   */\n  dup5\n    /* \"#utility.yul\":2151:2155   */\n  dup5\n    /* \"#utility.yul\":2145:2156   */\n  sload\n    /* \"#utility.yul\":2117:2208   */\n  tag_24\n  jump\t// in\ntag_69:\n    /* \"#utility.yul\":2111:2115   */\n  dup3\n    /* \"#utility.yul\":2104:2209   */\n  sstore\n    /* \"#utility.yul\":2022:2215   */\n  pop\n    /* \"#utility.yul\":1946:2215   */\n  pop\n  pop\n  pop\n  jump\t// out\n    /* \"#utility.yul\":2221:2294   */\ntag_30:\n    /* \"#utility.yul\":2266:2269   */\n  0x00\n    /* \"#utility.yul\":2221:2294   */\n  swap1\n  jump\t// out\n    /* \"#utility.yul\":2300:2489   */\ntag_31:\n    /* \"#utility.yul\":2377:2409   */\n  tag_73\n  tag_30\n  jump\t// in\ntag_73:\n    /* \"#utility.yul\":2418:2483   */\n  tag_74\n    /* \"#utility.yul\":2476:2482   */\n  dup2\n    /* \"#utility.yul\":2468:2474   */\n  dup5\n    /* \"#utility.yul\":2462:2466   */\n  dup5\n    /* \"#utility.yul\":2418:2483   */\n  tag_29\n  jump\t// in\ntag_74:\n    /* \"#utility.yul\":2353:2489   */\n  pop\n    /* \"#utility.yul\":2300:2489   */\n  pop\n  pop\n  jump\t// out\n    /* \"#utility.yul\":2495:2681   */\ntag_32:\n    /* \"#utility.yul\":2555:2675   */\ntag_76:\n    /* \"#utility.yul\":2572:2575   */\n  dup2\n    /* \"#utility.yul\":2565:2570   */\n  dup2\n    /* \"#utility.yul\":2562:2576   */\n  lt\n    /* \"#utility.yul\":2555:2675   */\n  iszero\n  tag_78\n  jumpi\n    /* \"#utility.yul\":2626:2665   */\n  tag_79\n    /* \"#utility.yul\":2663:2664   */\n  0x00\n    /* \"#utility.yul\":2656:2661   */\n  dup3\n    /* \"#utility.yul\":2626:2665   */\n  tag_31\n  jump\t// in\ntag_79:\n    /* \"#utility.yul\":2599:2600   */\n  0x01\n    /* \"#utility.yul\":2592:2597   */\n  dup2\n    /* \"#utility.yul\":2588:2601   */\n  add\n    /* \"#utility.yul\":2579:2601   */\n  swap1\n  pop\n    /* \"#utility.yul\":2555:2675   */\n  jump(tag_76)\ntag_78:\n    /* \"#utility.yul\":2495:2681   */\n  pop\n  pop\n  jump\t// out\n    /* \"#utility.yul\":2687:3230   */\ntag_33:\n    /* \"#utility.yul\":2788:2790   */\n  0x1f\n    /* \"#utility.yul\":2783:2786   */\n  dup3\n    /* \"#utility.yul\":2780:2791   */\n  gt\n    /* \"#utility.yul\":2777:3223   */\n  iszero\n  tag_81\n  jumpi\n    /* \"#utility.yul\":2822:2860   */\n  tag_82\n    /* \"#utility.yul\":2854:2859   */\n  dup2\n    /* \"#utility.yul\":2822:2860   */\n  tag_21\n  jump\t// in\ntag_82:\n    /* \"#utility.yul\":2906:2935   */\n  tag_83\n    /* \"#utility.yul\":2924:2934   */\n  dup5\n    /* \"#utility.yul\":2906:2935   */\n  tag_22\n  jump\t// in\ntag_83:\n    /* \"#utility.yul\":2896:2904   */\n  dup2\n    /* \"#utility.yul\":2892:2936   */\n  add\n    /* \"#utility.yul\":3089:3091   */\n  0x20\n    /* \"#utility.yul\":3077:3087   */\n  dup6\n    /* \"#utility.yul\":3074:3092   */\n  lt\n    /* \"#utility.yul\":3071:3120   */\n  iszero\n  tag_84\n  jumpi\n    /* \"#utility.yul\":3110:3118   */\n  dup2\n    /* \"#utility.yul\":3095:3118   */\n  swap1\n  pop\n    /* \"#utility.yul\":3071:3120   */\ntag_84:\n    /* \"#utility.yul\":3133:3213   */\n  tag_85\n    /* \"#utility.yul\":3189:3211   */\n  tag_86\n    /* \"#utility.yul\":3207:3210   */\n  dup6\n    /* \"#utility.yul\":3189:3211   */\n  tag_22\n  jump\t// in\ntag_86:\n    /* \"#utility.yul\":3179:3187   */\n  dup4\n    /* \"#utility.yul\":3175:3212   */\n  add\n    /* \"#utility.yul\":3162:3173   */\n  dup3\n    /* \"#utility.yul\":3133:3213   */\n  tag_32\n  jump\t// in\ntag_85:\n    /* \"#utility.yul\":2792:3223   */\n  pop\n  pop\n    /* \"#utility.yul\":2777:3223   */\ntag_81:\n    /* \"#utility.yul\":2687:3230   */\n  pop\n  pop\n  pop\n  jump\t// out\n    /* \"#utility.yul\":3236:3353   */\ntag_34:\n    /* \"#utility.yul\":3290:3298   */\n  0x00\n    /* \"#utility.yul\":3340:3345   */\n  dup3\n    /* \"#utility.yul\":3334:3338   */\n  dup3\n    /* \"#utility.yul\":3330:3346   */\n  shr\n    /* \"#utility.yul\":3309:3346   */\n  swap1\n  pop\n    /* \"#utility.yul\":3236:3353   */\n  swap3\n  swap2\n  pop\n  pop\n  jump\t// out\n    /* \"#utility.yul\":3359:3528   */\ntag_35:\n    /* \"#utility.yul\":3403:3409   */\n  0x00\n    /* \"#utility.yul\":3436:3487   */\n  tag_89\n    /* \"#utility.yul\":3484:3485   */\n  0x00\n    /* \"#utility.yul\":3480:3486   */\n  not\n    /* \"#utility.yul\":3472:3477   */\n  dup5\n    /* \"#utility.yul\":3469:3470   */\n  0x08\n    /* \"#utility.yul\":3465:3478   */\n  mul\n    /* \"#utility.yul\":3436:3487   */\n  tag_34\n  jump\t// in\ntag_89:\n    /* \"#utility.yul\":3432:3488   */\n  not\n    /* \"#utility.yul\":3517:3521   */\n  dup1\n    /* \"#utility.yul\":3511:3515   */\n  dup4\n    /* \"#utility.yul\":3507:3522   */\n  and\n    /* \"#utility.yul\":3497:3522   */\n  swap2\n  pop\n    /* \"#utility.yul\":3410:3528   */\n  pop\n    /* \"#utility.yul\":3359:3528   */\n  swap3\n  swap2\n  pop\n  pop\n  jump\t// out\n    /* \"#utility.yul\":3533:3828   */\ntag_36:\n    /* \"#utility.yul\":3609:3613   */\n  0x00\n    /* \"#utility.yul\":3755:3784   */\n  tag_91\n    /* \"#utility.yul\":3780:3783   */\n  dup4\n    /* \"#utility.yul\":3774:3778   */\n  dup4\n    /* \"#utility.yul\":3755:3784   */\n  tag_35\n  jump\t// in\ntag_91:\n    /* \"#utility.yul\":3747:3784   */\n  swap2\n  pop\n    /* \"#utility.yul\":3817:3820   */\n  dup3\n    /* \"#utility.yul\":3814:3815   */\n  0x02\n    /* \"#utility.yul\":3810:3821   */\n  mul\n    /* \"#utility.yul\":3804:3808   */\n  dup3\n    /* \"#utility.yul\":3801:3822   */\n  or\n    /* \"#utility.yul\":3793:3822   */\n  swap1\n  pop\n    /* \"#utility.yul\":3533:3828   */\n  swap3\n  swap2\n  pop\n  pop\n  jump\t// out\n    /* \"#utility.yul\":3833:5228   */\ntag_6:\n    /* \"#utility.yul\":3950:3987   */\n  tag_93\n    /* \"#utility.yul\":3983:3986   */\n  dup3\n    /* \"#utility.yul\":3950:3987   */\n  tag_17\n  jump\t// in\ntag_93:\n    /* \"#utility.yul\":4052:4070   */\n  0xffffffffffffffff\n    /* \"#utility.yul\":4044:4050   */\n  dup2\n    /* \"#utility.yul\":4041:4071   */\n  gt\n    /* \"#utility.yul\":4038:4094   */\n  iszero\n  tag_94\n  jumpi\n    /* \"#utility.yul\":4074:4092   */\n  tag_95\n  tag_18\n  jump\t// in\ntag_95:\n    /* \"#utility.yul\":4038:4094   */\ntag_94:\n    /* \"#utility.yul\":4118:4156   */\n  tag_96\n    /* \"#utility.yul\":4150:4154   */\n  dup3\n    /* \"#utility.yul\":4144:4155   */\n  sload\n    /* \"#utility.yul\":4118:4156   */\n  tag_20\n  jump\t// in\ntag_96:\n    /* \"#utility.yul\":4203:4270   */\n  tag_97\n    /* \"#utility.yul\":4263:4269   */\n  dup3\n    /* \"#utility.yul\":4255:4261   */\n  dup3\n    /* \"#utility.yul\":4249:4253   */\n  dup6\n    /* \"#utility.yul\":4203:4270   */\n  tag_33\n  jump\t// in\ntag_97:\n    /* \"#utility.yul\":4297:4298   */\n  0x00\n    /* \"#utility.yul\":4321:4325   */\n  0x20\n    /* \"#utility.yul\":4308:4325   */\n  swap1\n  pop\n    /* \"#utility.yul\":4353:4355   */\n  0x1f\n    /* \"#utility.yul\":4345:4351   */\n  dup4\n    /* \"#utility.yul\":4342:4356   */\n  gt\n    /* \"#utility.yul\":4370:4371   */\n  0x01\n    /* \"#utility.yul\":4365:4983   */\n  dup2\n  eq\n  tag_99\n  jumpi\n    /* \"#utility.yul\":5027:5028   */\n  0x00\n    /* \"#utility.yul\":5044:5050   */\n  dup5\n    /* \"#utility.yul\":5041:5118   */\n  iszero\n  tag_100\n  jumpi\n    /* \"#utility.yul\":5093:5102   */\n  dup3\n    /* \"#utility.yul\":5088:5091   */\n  dup8\n    /* \"#utility.yul\":5084:5103   */\n  add\n    /* \"#utility.yul\":5078:5104   */\n  mload\n    /* \"#utility.yul\":5069:5104   */\n  swap1\n  pop\n    /* \"#utility.yul\":5041:5118   */\ntag_100:\n    /* \"#utility.yul\":5144:5211   */\n  tag_101\n    /* \"#utility.yul\":5204:5210   */\n  dup6\n    /* \"#utility.yul\":5197:5202   */\n  dup3\n    /* \"#utility.yul\":5144:5211   */\n  tag_36\n  jump\t// in\ntag_101:\n    /* \"#utility.yul\":5138:5142   */\n  dup7\n    /* \"#utility.yul\":5131:5212   */\n  sstore\n    /* \"#utility.yul\":5000:5222   */\n  pop\n    /* \"#utility.yul\":4335:5222   */\n  jump(tag_98)\n    /* \"#utility.yul\":4365:4983   */\ntag_99:\n    /* \"#utility.yul\":4417:4421   */\n  0x1f\n    /* \"#utility.yul\":4413:4422   */\n  not\n    /* \"#utility.yul\":4405:4411   */\n  dup5\n    /* \"#utility.yul\":4401:4423   */\n  and\n    /* \"#utility.yul\":4451:4488   */\n  tag_102\n    /* \"#utility.yul\":4483:4487   */\n  dup7\n    /* \"#utility.yul\":4451:4488   */\n  tag_21\n  jump\t// in\ntag_102:\n    /* \"#utility.yul\":4510:4511   */\n  0x00\n    /* \"#utility.yul\":4524:4732   */\ntag_103:\n    /* \"#utility.yul\":4538:4545   */\n  dup3\n    /* \"#utility.yul\":4535:4536   */\n  dup2\n    /* \"#utility.yul\":4532:4546   */\n  lt\n    /* \"#utility.yul\":4524:4732   */\n  iszero\n  tag_105\n  jumpi\n    /* \"#utility.yul\":4617:4626   */\n  dup5\n    /* \"#utility.yul\":4612:4615   */\n  dup10\n    /* \"#utility.yul\":4608:4627   */\n  add\n    /* \"#utility.yul\":4602:4628   */\n  mload\n    /* \"#utility.yul\":4594:4600   */\n  dup3\n    /* \"#utility.yul\":4587:4629   */\n  sstore\n    /* \"#utility.yul\":4668:4669   */\n  0x01\n    /* \"#utility.yul\":4660:4666   */\n  dup3\n    /* \"#utility.yul\":4656:4670   */\n  add\n    /* \"#utility.yul\":4646:4670   */\n  swap2\n  pop\n    /* \"#utility.yul\":4715:4717   */\n  0x20\n    /* \"#utility.yul\":4704:4713   */\n  dup6\n    /* \"#utility.yul\":4700:4718   */\n  add\n    /* \"#utility.yul\":4687:4718   */\n  swap5\n  pop\n    /* \"#utility.yul\":4561:4565   */\n  0x20\n    /* \"#utility.yul\":4558:4559   */\n  dup2\n    /* \"#utility.yul\":4554:4566   */\n  add\n    /* \"#utility.yul\":4549:4566   */\n  swap1\n  pop\n    /* \"#utility.yul\":4524:4732   */\n  jump(tag_103)\ntag_105:\n    /* \"#utility.yul\":4760:4766   */\n  dup7\n    /* \"#utility.yul\":4751:4758   */\n  dup4\n    /* \"#utility.yul\":4748:4767   */\n  lt\n    /* \"#utility.yul\":4745:4924   */\n  iszero\n  tag_106\n  jumpi\n    /* \"#utility.yul\":4818:4827   */\n  dup5\n    /* \"#utility.yul\":4813:4816   */\n  dup10\n    /* \"#utility.yul\":4809:4828   */\n  add\n    /* \"#utility.yul\":4803:4829   */\n  mload\n    /* \"#utility.yul\":4861:4909   */\n  tag_107\n    /* \"#utility.yul\":4903:4907   */\n  0x1f\n    /* \"#utility.yul\":4895:4901   */\n  dup10\n    /* \"#utility.yul\":4891:4908   */\n  and\n    /* \"#utility.yul\":4880:4889   */\n  dup3\n    /* \"#utility.yul\":4861:4909   */\n  tag_35\n  jump\t// in\ntag_107:\n    /* \"#utility.yul\":4853:4859   */\n  dup4\n    /* \"#utility.yul\":4846:4910   */\n  sstore\n    /* \"#utility.yul\":4768:4924   */\n  pop\n    /* \"#utility.yul\":4745:4924   */\ntag_106:\n    /* \"#utility.yul\":4970:4971   */\n  0x01\n    /* \"#utility.yul\":4966:4967   */\n  0x02\n    /* \"#utility.yul\":4958:4964   */\n  dup9\n    /* \"#utility.yul\":4954:4968   */\n  mul\n    /* \"#utility.yul\":4950:4972   */\n  add\n    /* \"#utility.yul\":4944:4948   */\n  dup9\n    /* \"#utility.yul\":4937:4973   */\n  sstore\n    /* \"#utility.yul\":4372:4983   */\n  pop\n  pop\n  pop\n    /* \"#utility.yul\":4335:5222   */\ntag_98:\n  pop\n    /* \"#utility.yul\":3925:5228   */\n  pop\n  pop\n  pop\n    /* \"#utility.yul\":3833:5228   */\n  pop\n  pop\n  jump\t// out\n    /* \"#utility.yul\":5234:5381   */\ntag_37:\n    /* \"#utility.yul\":5335:5346   */\n  0x00\n    /* \"#utility.yul\":5372:5375   */\n  dup2\n    /* \"#utility.yul\":5357:5375   */\n  swap1\n  pop\n    /* \"#utility.yul\":5234:5381   */\n  swap3\n  swap2\n  pop\n  pop\n  jump\t// out\n    /* \"#utility.yul\":5387:5531   */\ntag_38:\n    /* \"#utility.yul\":5439:5443   */\n  0x00\n    /* \"#utility.yul\":5462:5465   */\n  dup2\n    /* \"#utility.yul\":5454:5465   */\n  swap1\n  pop\n    /* \"#utility.yul\":5485:5488   */\n  dup2\n    /* \"#utility.yul\":5482:5483   */\n  0x00\n    /* \"#utility.yul\":5475:5489   */\n  mstore\n    /* \"#utility.yul\":5519:5523   */\n  0x20\n    /* \"#utility.yul\":5516:5517   */\n  0x00\n    /* \"#utility.yul\":5506:5524   */\n  keccak256\n    /* \"#utility.yul\":5498:5524   */\n  swap1\n  pop\n    /* \"#utility.yul\":5387:5531   */\n  swap2\n  swap1\n  pop\n  jump\t// out\n    /* \"#utility.yul\":5559:6437   */\ntag_39:\n    /* \"#utility.yul\":5664:5667   */\n  0x00\n    /* \"#utility.yul\":5701:5706   */\n  dup2\n    /* \"#utility.yul\":5695:5707   */\n  sload\n    /* \"#utility.yul\":5730:5766   */\n  tag_111\n    /* \"#utility.yul\":5756:5765   */\n  dup2\n    /* \"#utility.yul\":5730:5766   */\n  tag_20\n  jump\t// in\ntag_111:\n    /* \"#utility.yul\":5782:5870   */\n  tag_112\n    /* \"#utility.yul\":5863:5869   */\n  dup2\n    /* \"#utility.yul\":5858:5861   */\n  dup7\n    /* \"#utility.yul\":5782:5870   */\n  tag_37\n  jump\t// in\ntag_112:\n    /* \"#utility.yul\":5775:5870   */\n  swap5\n  pop\n    /* \"#utility.yul\":5901:5902   */\n  0x01\n    /* \"#utility.yul\":5890:5899   */\n  dup3\n    /* \"#utility.yul\":5886:5903   */\n  and\n    /* \"#utility.yul\":5917:5918   */\n  0x00\n    /* \"#utility.yul\":5912:6078   */\n  dup2\n  eq\n  tag_114\n  jumpi\n    /* \"#utility.yul\":6092:6093   */\n  0x01\n    /* \"#utility.yul\":6087:6431   */\n  dup2\n  eq\n  tag_115\n  jumpi\n    /* \"#utility.yul\":5879:6431   */\n  jump(tag_113)\n    /* \"#utility.yul\":5912:6078   */\ntag_114:\n    /* \"#utility.yul\":5996:6000   */\n  0xff\n    /* \"#utility.yul\":5992:6001   */\n  not\n    /* \"#utility.yul\":5981:5990   */\n  dup4\n    /* \"#utility.yul\":5977:6002   */\n  and\n    /* \"#utility.yul\":5972:5975   */\n  dup7\n    /* \"#utility.yul\":5965:6003   */\n  mstore\n    /* \"#utility.yul\":6058:6064   */\n  dup2\n    /* \"#utility.yul\":6051:6065   */\n  iszero\n    /* \"#utility.yul\":6044:6066   */\n  iszero\n    /* \"#utility.yul\":6036:6042   */\n  dup3\n    /* \"#utility.yul\":6032:6067   */\n  mul\n    /* \"#utility.yul\":6027:6030   */\n  dup7\n    /* \"#utility.yul\":6023:6068   */\n  add\n    /* \"#utility.yul\":6016:6068   */\n  swap4\n  pop\n    /* \"#utility.yul\":5912:6078   */\n  jump(tag_113)\n    /* \"#utility.yul\":6087:6431   */\ntag_115:\n    /* \"#utility.yul\":6154:6195   */\n  tag_116\n    /* \"#utility.yul\":6189:6194   */\n  dup6\n    /* \"#utility.yul\":6154:6195   */\n  tag_38\n  jump\t// in\ntag_116:\n    /* \"#utility.yul\":6217:6218   */\n  0x00\n    /* \"#utility.yul\":6231:6385   */\ntag_117:\n    /* \"#utility.yul\":6245:6251   */\n  dup4\n    /* \"#utility.yul\":6242:6243   */\n  dup2\n    /* \"#utility.yul\":6239:6252   */\n  lt\n    /* \"#utility.yul\":6231:6385   */\n  iszero\n  tag_119\n  jumpi\n    /* \"#utility.yul\":6319:6326   */\n  dup2\n    /* \"#utility.yul\":6313:6327   */\n  sload\n    /* \"#utility.yul\":6309:6310   */\n  dup2\n    /* \"#utility.yul\":6304:6307   */\n  dup10\n    /* \"#utility.yul\":6300:6311   */\n  add\n    /* \"#utility.yul\":6293:6328   */\n  mstore\n    /* \"#utility.yul\":6369:6370   */\n  0x01\n    /* \"#utility.yul\":6360:6367   */\n  dup3\n    /* \"#utility.yul\":6356:6371   */\n  add\n    /* \"#utility.yul\":6345:6371   */\n  swap2\n  pop\n    /* \"#utility.yul\":6267:6271   */\n  0x20\n    /* \"#utility.yul\":6264:6265   */\n  dup2\n    /* \"#utility.yul\":6260:6272   */\n  add\n    /* \"#utility.yul\":6255:6272   */\n  swap1\n  pop\n    /* \"#utility.yul\":6231:6385   */\n  jump(tag_117)\ntag_119:\n    /* \"#utility.yul\":6414:6420   */\n  dup4\n    /* \"#utility.yul\":6409:6412   */\n  dup9\n    /* \"#utility.yul\":6405:6421   */\n  add\n    /* \"#utility.yul\":6398:6421   */\n  swap6\n  pop\n    /* \"#utility.yul\":6094:6431   */\n  pop\n  pop\n    /* \"#utility.yul\":5879:6431   */\ntag_113:\n  pop\n    /* \"#utility.yul\":5668:6437   */\n  pop\n  pop\n    /* \"#utility.yul\":5559:6437   */\n  swap3\n  swap2\n  pop\n  pop\n  jump\t// out\n    /* \"#utility.yul\":6443:6716   */\ntag_14:\n    /* \"#utility.yul\":6574:6577   */\n  0x00\n    /* \"#utility.yul\":6596:6690   */\n  tag_121\n    /* \"#utility.yul\":6686:6689   */\n  dup3\n    /* \"#utility.yul\":6677:6683   */\n  dup5\n    /* \"#utility.yul\":6596:6690   */\n  tag_39\n  jump\t// in\ntag_121:\n    /* \"#utility.yul\":6589:6690   */\n  swap2\n  pop\n    /* \"#utility.yul\":6707:6710   */\n  dup2\n    /* \"#utility.yul\":6700:6710   */\n  swap1\n  pop\n    /* \"#utility.yul\":6443:6716   */\n  swap3\n  swap2\n  pop\n  pop\n  jump\t// out\n    /* \"#utility.yul\":6722:6799   */\ntag_40:\n    /* \"#utility.yul\":6759:6766   */\n  0x00\n    /* \"#utility.yul\":6788:6793   */\n  dup2\n    /* \"#utility.yul\":6777:6793   */\n  swap1\n  pop\n    /* \"#utility.yul\":6722:6799   */\n  swap2\n  swap1\n  pop\n  jump\t// out\n    /* \"#utility.yul\":6805:6923   */\ntag_41:\n    /* \"#utility.yul\":6892:6916   */\n  tag_124\n    /* \"#utility.yul\":6910:6915   */\n  dup2\n    /* \"#utility.yul\":6892:6916   */\n  tag_40\n  jump\t// in\ntag_124:\n    /* \"#utility.yul\":6887:6890   */\n  dup3\n    /* \"#utility.yul\":6880:6917   */\n  mstore\n    /* \"#utility.yul\":6805:6923   */\n  pop\n  pop\n  jump\t// out\n    /* \"#utility.yul\":6929:7047   */\ntag_42:\n    /* \"#utility.yul\":7016:7040   */\n  tag_126\n    /* \"#utility.yul\":7034:7039   */\n  dup2\n    /* \"#utility.yul\":7016:7040   */\n  tag_25\n  jump\t// in\ntag_126:\n    /* \"#utility.yul\":7011:7014   */\n  dup3\n    /* \"#utility.yul\":7004:7041   */\n  mstore\n    /* \"#utility.yul\":6929:7047   */\n  pop\n  pop\n  jump\t// out\n    /* \"#utility.yul\":7053:7179   */\ntag_43:\n    /* \"#utility.yul\":7090:7097   */\n  0x00\n    /* \"#utility.yul\":7130:7172   */\n  0xffffffffffffffffffffffffffffffffffffffff\n    /* \"#utility.yul\":7123:7128   */\n  dup3\n    /* \"#utility.yul\":7119:7173   */\n  and\n    /* \"#utility.yul\":7108:7173   */\n  swap1\n  pop\n    /* \"#utility.yul\":7053:7179   */\n  swap2\n  swap1\n  pop\n  jump\t// out\n    /* \"#utility.yul\":7185:7281   */\ntag_44:\n    /* \"#utility.yul\":7222:7229   */\n  0x00\n    /* \"#utility.yul\":7251:7275   */\n  tag_129\n    /* \"#utility.yul\":7269:7274   */\n  dup3\n    /* \"#utility.yul\":7251:7275   */\n  tag_43\n  jump\t// in\ntag_129:\n    /* \"#utility.yul\":7240:7275   */\n  swap1\n  pop\n    /* \"#utility.yul\":7185:7281   */\n  swap2\n  swap1\n  pop\n  jump\t// out\n    /* \"#utility.yul\":7287:7405   */\ntag_45:\n    /* \"#utility.yul\":7374:7398   */\n  tag_131\n    /* \"#utility.yul\":7392:7397   */\n  dup2\n    /* \"#utility.yul\":7374:7398   */\n  tag_44\n  jump\t// in\ntag_131:\n    /* \"#utility.yul\":7369:7372   */\n  dup3\n    /* \"#utility.yul\":7362:7399   */\n  mstore\n    /* \"#utility.yul\":7287:7405   */\n  pop\n  pop\n  jump\t// out\n    /* \"#utility.yul\":7411:8075   */\ntag_16:\n    /* \"#utility.yul\":7616:7620   */\n  0x00\n    /* \"#utility.yul\":7654:7657   */\n  0xa0\n    /* \"#utility.yul\":7643:7652   */\n  dup3\n    /* \"#utility.yul\":7639:7658   */\n  add\n    /* \"#utility.yul\":7631:7658   */\n  swap1\n  pop\n    /* \"#utility.yul\":7668:7739   */\n  tag_133\n    /* \"#utility.yul\":7736:7737   */\n  0x00\n    /* \"#utility.yul\":7725:7734   */\n  dup4\n    /* \"#utility.yul\":7721:7738   */\n  add\n    /* \"#utility.yul\":7712:7718   */\n  dup9\n    /* \"#utility.yul\":7668:7739   */\n  tag_41\n  jump\t// in\ntag_133:\n    /* \"#utility.yul\":7749:7821   */\n  tag_134\n    /* \"#utility.yul\":7817:7819   */\n  0x20\n    /* \"#utility.yul\":7806:7815   */\n  dup4\n    /* \"#utility.yul\":7802:7820   */\n  add\n    /* \"#utility.yul\":7793:7799   */\n  dup8\n    /* \"#utility.yul\":7749:7821   */\n  tag_41\n  jump\t// in\ntag_134:\n    /* \"#utility.yul\":7831:7903   */\n  tag_135\n    /* \"#utility.yul\":7899:7901   */\n  0x40\n    /* \"#utility.yul\":7888:7897   */\n  dup4\n    /* \"#utility.yul\":7884:7902   */\n  add\n    /* \"#utility.yul\":7875:7881   */\n  dup7\n    /* \"#utility.yul\":7831:7903   */\n  tag_41\n  jump\t// in\ntag_135:\n    /* \"#utility.yul\":7913:7985   */\n  tag_136\n    /* \"#utility.yul\":7981:7983   */\n  0x60\n    /* \"#utility.yul\":7970:7979   */\n  dup4\n    /* \"#utility.yul\":7966:7984   */\n  add\n    /* \"#utility.yul\":7957:7963   */\n  dup6\n    /* \"#utility.yul\":7913:7985   */\n  tag_42\n  jump\t// in\ntag_136:\n    /* \"#utility.yul\":7995:8068   */\n  tag_137\n    /* \"#utility.yul\":8063:8066   */\n  0x80\n    /* \"#utility.yul\":8052:8061   */\n  dup4\n    /* \"#utility.yul\":8048:8067   */\n  add\n    /* \"#utility.yul\":8039:8045   */\n  dup5\n    /* \"#utility.yul\":7995:8068   */\n  tag_45\n  jump\t// in\ntag_137:\n    /* \"#utility.yul\":7411:8075   */\n  swap7\n  swap6\n  pop\n  pop\n  pop\n  pop\n  pop\n  pop\n  jump\t// out\n    /* \"contracts/KajuswapPair.sol\":527:9150  contract KajuswapPair is ERC20, Math {... */\ntag_11:\n  mload(0x80)\n  mload(0xa0)\n  mload(0xc0)\n  codecopy(0x00, dataOffset(sub_0), dataSize(sub_0))\n  0x00\n  assignImmutable(\"0x880de8116b3dfac28e9ff528a9fef1d1e0a51449c1addce011ffec1f302992b6\")\n  0x00\n  assignImmutable(\"0xd67d834462ca31eaef1f30157e31659f60355143b7441e6fc7d9eae1fa79f3f8\")\n  0x00\n  assignImmutable(\"0x6585423cb6456b1d4957f6454d2f004f0c4f58d53a00082412d5c2ef4b1b31fd\")\n  return(0x00, dataSize(sub_0))\nstop\n\nsub_0: assembly {\n        /* \"contracts/KajuswapPair.sol\":527:9150  contract KajuswapPair is ERC20, Math {... */\n      mstore(0x40, 0x80)\n      callvalue\n      dup1\n      iszero\n      tag_1\n      jumpi\n      0x00\n      dup1\n      revert\n    tag_1:\n      pop\n      jumpi(tag_2, lt(calldatasize, 0x04))\n      shr(0xe0, calldataload(0x00))\n      dup1\n      0x6a627842\n      gt\n      tag_26\n      jumpi\n      dup1\n      0xa9059cbb\n      gt\n      tag_27\n      jumpi\n      dup1\n      0xa9059cbb\n      eq\n      tag_20\n      jumpi\n      dup1\n      0xc45a0155\n      eq\n      tag_21\n      jumpi\n      dup1\n      0xd21220a7\n      eq\n      tag_22\n      jumpi\n      dup1\n      0xd505accf\n      eq\n      tag_23\n      jumpi\n      dup1\n      0xdd62ed3e\n      eq\n      tag_24\n      jumpi\n      dup1\n      0xfff6cae9\n      eq\n      tag_25\n      jumpi\n      jump(tag_2)\n    tag_27:\n      dup1\n      0x6a627842\n      eq\n      tag_14\n      jumpi\n      dup1\n      0x6d9a640a\n      eq\n      tag_15\n      jumpi\n      dup1\n      0x70a08231\n      eq\n      tag_16\n      jumpi\n      dup1\n      0x7ecebe00\n      eq\n      tag_17\n      jumpi\n      dup1\n      0x89afcb44\n      eq\n      tag_18\n      jumpi\n      dup1\n      0x95d89b41\n      eq\n      tag_19\n      jumpi\n      jump(tag_2)\n    tag_26:\n      dup1\n      0x23b872dd\n      gt\n      tag_28\n      jumpi\n      dup1\n      0x23b872dd\n      eq\n      tag_8\n      jumpi\n      dup1\n      0x313ce567\n      eq\n      tag_9\n      jumpi\n      dup1\n      0x3644e515\n      eq\n      tag_10\n      jumpi\n      dup1\n      0x485cc955\n      eq\n      tag_11\n      jumpi\n      dup1\n      0x5909c0d5\n      eq\n      tag_12\n      jumpi\n      dup1\n      0x5a3d5493\n      eq\n      tag_13\n      jumpi\n      jump(tag_2)\n    tag_28:\n      dup1\n      0x06fdde03\n      eq\n      tag_3\n      jumpi\n      dup1\n      0x0902f1ac\n      eq\n      tag_4\n      jumpi\n      dup1\n      0x095ea7b3\n      eq\n      tag_5\n      jumpi\n      dup1\n      0x0dfe1681\n      eq\n      tag_6\n      jumpi\n      dup1\n      0x18160ddd\n      eq\n      tag_7\n      jumpi\n    tag_2:\n      0x00\n      dup1\n      revert\n        /* \"@rari-capital/solmate/src/tokens/ERC20.sol\":1028:1046  string public name */\n    tag_3:\n      tag_29\n      tag_30\n      jump\t// in\n    tag_29:\n      mload(0x40)\n      tag_31\n      swap2\n      swap1\n      tag_32\n      jump\t// in\n    tag_31:\n      mload(0x40)\n      dup1\n      swap2\n      sub\n      swap1\n      return\n        /* \"contracts/KajuswapPair.sol\":1689:1907  function getReserves()... */\n    tag_4:\n      tag_33\n      tag_34\n      jump\t// in\n    tag_33:\n      mload(0x40)\n      tag_35\n      swap4\n      swap3\n      swap2\n      swap1\n      tag_36\n      jump\t// in\n    tag_35:\n      mload(0x40)\n      dup1\n      swap2\n      sub\n      swap1\n      return\n        /* \"@rari-capital/solmate/src/tokens/ERC20.sol\":2458:2669  function approve(address spender, uint256 amount) public virtual returns (bool) {... */\n    tag_5:\n      tag_37\n      0x04\n      dup1\n      calldatasize\n      sub\n      dup2\n      add\n      swap1\n      tag_38\n      swap2\n      swap1\n      tag_39\n      jump\t// in\n    tag_38:\n      tag_40\n      jump\t// in\n    tag_37:\n      mload(0x40)\n      tag_41\n      swap2\n      swap1\n      tag_42\n      jump\t// in\n    tag_41:\n      mload(0x40)\n      dup1\n      swap2\n      sub\n      swap1\n      return\n        /* \"contracts/KajuswapPair.sol\":773:794  address public token0 */\n    tag_6:\n      tag_43\n      tag_44\n      jump\t// in\n    tag_43:\n      mload(0x40)\n      tag_45\n      swap2\n      swap1\n      tag_46\n      jump\t// in\n    tag_45:\n      mload(0x40)\n      dup1\n      swap2\n      sub\n      swap1\n      return\n        /* \"@rari-capital/solmate/src/tokens/ERC20.sol\":1301:1327  uint256 public totalSupply */\n    tag_7:\n      tag_47\n      tag_48\n      jump\t// in\n    tag_47:\n      mload(0x40)\n      tag_49\n      swap2\n      swap1\n      tag_50\n      jump\t// in\n    tag_49:\n      mload(0x40)\n      dup1\n      swap2\n      sub\n      swap1\n      return\n        /* \"@rari-capital/solmate/src/tokens/ERC20.sol\":3054:3646  function transferFrom(... */\n    tag_8:\n      tag_51\n      0x04\n      dup1\n      calldatasize\n      sub\n      dup2\n      add\n      swap1\n      tag_52\n      swap2\n      swap1\n      tag_53\n      jump\t// in\n    tag_52:\n      tag_54\n      jump\t// in\n    tag_51:\n      mload(0x40)\n      tag_55\n      swap2\n      swap1\n      tag_42\n      jump\t// in\n    tag_55:\n      mload(0x40)\n      dup1\n      swap2\n      sub\n      swap1\n      return\n        /* \"@rari-capital/solmate/src/tokens/ERC20.sol\":1080:1111  uint8 public immutable decimals */\n    tag_9:\n      tag_56\n      tag_57\n      jump\t// in\n    tag_56:\n      mload(0x40)\n      tag_58\n      swap2\n      swap1\n      tag_59\n      jump\t// in\n    tag_58:\n      mload(0x40)\n      dup1\n      swap2\n      sub\n      swap1\n      return\n        /* \"@rari-capital/solmate/src/tokens/ERC20.sol\":5324:5501  function DOMAIN_SEPARATOR() public view virtual returns (bytes32) {... */\n    tag_10:\n      tag_60\n      tag_61\n      jump\t// in\n    tag_60:\n      mload(0x40)\n      tag_62\n      swap2\n      swap1\n      tag_63\n      jump\t// in\n    tag_62:\n      mload(0x40)\n      dup1\n      swap2\n      sub\n      swap1\n      return\n        /* \"contracts/KajuswapPair.sol\":2117:2599  function initialize(address token0_, address token1_) public {... */\n    tag_11:\n      tag_64\n      0x04\n      dup1\n      calldatasize\n      sub\n      dup2\n      add\n      swap1\n      tag_65\n      swap2\n      swap1\n      tag_66\n      jump\t// in\n    tag_65:\n      tag_67\n      jump\t// in\n    tag_64:\n      stop\n        /* \"contracts/KajuswapPair.sol\":935:970  uint256 public price0CumulativeLast */\n    tag_12:\n      tag_68\n      tag_69\n      jump\t// in\n    tag_68:\n      mload(0x40)\n      tag_70\n      swap2\n      swap1\n      tag_50\n      jump\t// in\n    tag_70:\n      mload(0x40)\n      dup1\n      swap2\n      sub\n      swap1\n      return\n        /* \"contracts/KajuswapPair.sol\":977:1012  uint256 public price1CumulativeLast */\n    tag_13:\n      tag_71\n      tag_72\n      jump\t// in\n    tag_71:\n      mload(0x40)\n      tag_73\n      swap2\n      swap1\n      tag_50\n      jump\t// in\n    tag_73:\n      mload(0x40)\n      dup1\n      swap2\n      sub\n      swap1\n      return\n        /* \"contracts/KajuswapPair.sol\":2607:3629  function mint(address to) public lock returns (uint256 liquidity) {... */\n    tag_14:\n      tag_74\n      0x04\n      dup1\n      calldatasize\n      sub\n      dup2\n      add\n      swap1\n      tag_75\n      swap2\n      swap1\n      tag_76\n      jump\t// in\n    tag_75:\n      tag_77\n      jump\t// in\n    tag_74:\n      mload(0x40)\n      tag_78\n      swap2\n      swap1\n      tag_50\n      jump\t// in\n    tag_78:\n      mload(0x40)\n      dup1\n      swap2\n      sub\n      swap1\n      return\n        /* \"contracts/KajuswapPair.sol\":4689:6728  function swap(... */\n    tag_15:\n      tag_79\n      0x04\n      dup1\n      calldatasize\n      sub\n      dup2\n      add\n      swap1\n      tag_80\n      swap2\n      swap1\n      tag_81\n      jump\t// in\n    tag_80:\n      tag_82\n      jump\t// in\n    tag_79:\n      stop\n        /* \"@rari-capital/solmate/src/tokens/ERC20.sol\":1334:1378  mapping(address => uint256) public balanceOf */\n    tag_16:\n      tag_83\n      0x04\n      dup1\n      calldatasize\n      sub\n      dup2\n      add\n      swap1\n      tag_84\n      swap2\n      swap1\n      tag_76\n      jump\t// in\n    tag_84:\n      tag_85\n      jump\t// in\n    tag_83:\n      mload(0x40)\n      tag_86\n      swap2\n      swap1\n      tag_50\n      jump\t// in\n    tag_86:\n      mload(0x40)\n      dup1\n      swap2\n      sub\n      swap1\n      return\n        /* \"@rari-capital/solmate/src/tokens/ERC20.sol\":1748:1789  mapping(address => uint256) public nonces */\n    tag_17:\n      tag_87\n      0x04\n      dup1\n      calldatasize\n      sub\n      dup2\n      add\n      swap1\n      tag_88\n      swap2\n      swap1\n      tag_76\n      jump\t// in\n    tag_88:\n      tag_89\n      jump\t// in\n    tag_87:\n      mload(0x40)\n      tag_90\n      swap2\n      swap1\n      tag_50\n      jump\t// in\n    tag_90:\n      mload(0x40)\n      dup1\n      swap2\n      sub\n      swap1\n      return\n        /* \"contracts/KajuswapPair.sol\":3637:4681  function burn(address to)... */\n    tag_18:\n      tag_91\n      0x04\n      dup1\n      calldatasize\n      sub\n      dup2\n      add\n      swap1\n      tag_92\n      swap2\n      swap1\n      tag_76\n      jump\t// in\n    tag_92:\n      tag_93\n      jump\t// in\n    tag_91:\n      mload(0x40)\n      tag_94\n      swap3\n      swap2\n      swap1\n      tag_95\n      jump\t// in\n    tag_94:\n      mload(0x40)\n      dup1\n      swap2\n      sub\n      swap1\n      return\n        /* \"@rari-capital/solmate/src/tokens/ERC20.sol\":1053:1073  string public symbol */\n    tag_19:\n      tag_96\n      tag_97\n      jump\t// in\n    tag_96:\n      mload(0x40)\n      tag_98\n      swap2\n      swap1\n      tag_32\n      jump\t// in\n    tag_98:\n      mload(0x40)\n      dup1\n      swap2\n      sub\n      swap1\n      return\n        /* \"@rari-capital/solmate/src/tokens/ERC20.sol\":2675:3048  function transfer(address to, uint256 amount) public virtual returns (bool) {... */\n    tag_20:\n      tag_99\n      0x04\n      dup1\n      calldatasize\n      sub\n      dup2\n      add\n      swap1\n      tag_100\n      swap2\n      swap1\n      tag_39\n      jump\t// in\n    tag_100:\n      tag_101\n      jump\t// in\n    tag_99:\n      mload(0x40)\n      tag_102\n      swap2\n      swap1\n      tag_42\n      jump\t// in\n    tag_102:\n      mload(0x40)\n      dup1\n      swap2\n      sub\n      swap1\n      return\n        /* \"contracts/KajuswapPair.sol\":744:766  address public factory */\n    tag_21:\n      tag_103\n      tag_104\n      jump\t// in\n    tag_103:\n      mload(0x40)\n      tag_105\n      swap2\n      swap1\n      tag_46\n      jump\t// in\n    tag_105:\n      mload(0x40)\n      dup1\n      swap2\n      sub\n      swap1\n      return\n        /* \"contracts/KajuswapPair.sol\":801:822  address public token1 */\n    tag_22:\n      tag_106\n      tag_107\n      jump\t// in\n    tag_106:\n      mload(0x40)\n      tag_108\n      swap2\n      swap1\n      tag_46\n      jump\t// in\n    tag_108:\n      mload(0x40)\n      dup1\n      swap2\n      sub\n      swap1\n      return\n        /* \"@rari-capital/solmate/src/tokens/ERC20.sol\":3835:5318  function permit(... */\n    tag_23:\n      tag_109\n      0x04\n      dup1\n      calldatasize\n      sub\n      dup2\n      add\n      swap1\n      tag_110\n      swap2\n      swap1\n      tag_111\n      jump\t// in\n    tag_110:\n      tag_112\n      jump\t// in\n    tag_109:\n      stop\n        /* \"@rari-capital/solmate/src/tokens/ERC20.sol\":1385:1449  mapping(address => mapping(address => uint256)) public allowance */\n    tag_24:\n      tag_113\n      0x04\n      dup1\n      calldatasize\n      sub\n      dup2\n      add\n      swap1\n      tag_114\n      swap2\n      swap1\n      tag_66\n      jump\t// in\n    tag_114:\n      tag_115\n      jump\t// in\n    tag_113:\n      mload(0x40)\n      tag_116\n      swap2\n      swap1\n      tag_50\n      jump\t// in\n    tag_116:\n      mload(0x40)\n      dup1\n      swap2\n      sub\n      swap1\n      return\n        /* \"contracts/KajuswapPair.sol\":6736:7024  function sync() public lock {... */\n    tag_25:\n      tag_117\n      tag_118\n      jump\t// in\n    tag_117:\n      stop\n        /* \"@rari-capital/solmate/src/tokens/ERC20.sol\":1028:1046  string public name */\n    tag_30:\n      0x00\n      dup1\n      sload\n      tag_119\n      swap1\n      tag_120\n      jump\t// in\n    tag_119:\n      dup1\n      0x1f\n      add\n      0x20\n      dup1\n      swap2\n      div\n      mul\n      0x20\n      add\n      mload(0x40)\n      swap1\n      dup2\n      add\n      0x40\n      mstore\n      dup1\n      swap3\n      swap2\n      swap1\n      dup2\n      dup2\n      mstore\n      0x20\n      add\n      dup3\n      dup1\n      sload\n      tag_121\n      swap1\n      tag_120\n      jump\t// in\n    tag_121:\n      dup1\n      iszero\n      tag_122\n      jumpi\n      dup1\n      0x1f\n      lt\n      tag_123\n      jumpi\n      0x0100\n      dup1\n      dup4\n      sload\n      div\n      mul\n      dup4\n      mstore\n      swap2\n      0x20\n      add\n      swap2\n      jump(tag_122)\n    tag_123:\n      dup3\n      add\n      swap2\n      swap1\n      0x00\n      mstore\n      keccak256(0x00, 0x20)\n      swap1\n    tag_124:\n      dup2\n      sload\n      dup2\n      mstore\n      swap1\n      0x01\n      add\n      swap1\n      0x20\n      add\n      dup1\n      dup4\n      gt\n      tag_124\n      jumpi\n      dup3\n      swap1\n      sub\n      0x1f\n      and\n      dup3\n      add\n      swap2\n    tag_122:\n      pop\n      pop\n      pop\n      pop\n      pop\n      dup2\n      jump\t// out\n        /* \"contracts/KajuswapPair.sol\":1689:1907  function getReserves()... */\n    tag_34:\n        /* \"contracts/KajuswapPair.sol\":1774:1781  uint112 */\n      0x00\n        /* \"contracts/KajuswapPair.sol\":1796:1803  uint112 */\n      dup1\n        /* \"contracts/KajuswapPair.sol\":1818:1824  uint32 */\n      0x00\n        /* \"contracts/KajuswapPair.sol\":1860:1868  reserve0 */\n      0x09\n      0x00\n      swap1\n      sload\n      swap1\n      0x0100\n      exp\n      swap1\n      div\n      0xffffffffffffffffffffffffffff\n      and\n        /* \"contracts/KajuswapPair.sol\":1870:1878  reserve1 */\n      0x09\n      0x0e\n      swap1\n      sload\n      swap1\n      0x0100\n      exp\n      swap1\n      div\n      0xffffffffffffffffffffffffffff\n      and\n        /* \"contracts/KajuswapPair.sol\":1880:1898  blockTimestampLast */\n      0x09\n      0x1c\n      swap1\n      sload\n      swap1\n      0x0100\n      exp\n      swap1\n      div\n      0xffffffff\n      and\n        /* \"contracts/KajuswapPair.sol\":1852:1899  return (reserve0, reserve1, blockTimestampLast) */\n      swap3\n      pop\n      swap3\n      pop\n      swap3\n      pop\n        /* \"contracts/KajuswapPair.sol\":1689:1907  function getReserves()... */\n      swap1\n      swap2\n      swap3\n      jump\t// out\n        /* \"@rari-capital/solmate/src/tokens/ERC20.sol\":2458:2669  function approve(address spender, uint256 amount) public virtual returns (bool) {... */\n    tag_40:\n        /* \"@rari-capital/solmate/src/tokens/ERC20.sol\":2532:2536  bool */\n      0x00\n        /* \"@rari-capital/solmate/src/tokens/ERC20.sol\":2581:2587  amount */\n      dup2\n        /* \"@rari-capital/solmate/src/tokens/ERC20.sol\":2548:2557  allowance */\n      0x04\n        /* \"@rari-capital/solmate/src/tokens/ERC20.sol\":2548:2569  allowance[msg.sender] */\n      0x00\n        /* \"@rari-capital/solmate/src/tokens/ERC20.sol\":2558:2568  msg.sender */\n      caller\n        /* \"@rari-capital/solmate/src/tokens/ERC20.sol\":2548:2569  allowance[msg.sender] */\n      0xffffffffffffffffffffffffffffffffffffffff\n      and\n      0xffffffffffffffffffffffffffffffffffffffff\n      and\n      dup2\n      mstore\n      0x20\n      add\n      swap1\n      dup2\n      mstore\n      0x20\n      add\n      0x00\n      keccak256\n        /* \"@rari-capital/solmate/src/tokens/ERC20.sol\":2548:2578  allowance[msg.sender][spender] */\n      0x00\n        /* \"@rari-capital/solmate/src/tokens/ERC20.sol\":2570:2577  spender */\n      dup6\n        /* \"@rari-capital/solmate/src/tokens/ERC20.sol\":2548:2578  allowance[msg.sender][spender] */\n      0xffffffffffffffffffffffffffffffffffffffff\n      and\n      0xffffffffffffffffffffffffffffffffffffffff\n      and\n      dup2\n      mstore\n      0x20\n      add\n      swap1\n      dup2\n      mstore\n      0x20\n      add\n      0x00\n      keccak256\n        /* \"@rari-capital/solmate/src/tokens/ERC20.sol\":2548:2587  allowance[msg.sender][spender] = amount */\n      dup2\n      swap1\n      sstore\n      pop\n        /* \"@rari-capital/solmate/src/tokens/ERC20.sol\":2624:2631  spender */\n      dup3\n        /* \"@rari-capital/solmate/src/tokens/ERC20.sol\":2603:2640  Approval(msg.sender, spender, amount) */\n      0xffffffffffffffffffffffffffffffffffffffff\n      and\n        /* \"@rari-capital/solmate/src/tokens/ERC20.sol\":2612:2622  msg.sender */\n      caller\n        /* \"@rari-capital/solmate/src/tokens/ERC20.sol\":2603:2640  Approval(msg.sender, spender, amount) */\n      0xffffffffffffffffffffffffffffffffffffffff\n      and\n      0x8c5be1e5ebec7d5bd14f71427d1e84f3dd0314c0f7b2291e5b200ac8c7c3b925\n        /* \"@rari-capital/solmate/src/tokens/ERC20.sol\":2633:2639  amount */\n      dup5\n        /* \"@rari-capital/solmate/src/tokens/ERC20.sol\":2603:2640  Approval(msg.sender, spender, amount) */\n      mload(0x40)\n      tag_127\n      swap2\n      swap1\n      tag_50\n      jump\t// in\n    tag_127:\n      mload(0x40)\n      dup1\n      swap2\n      sub\n      swap1\n      log3\n        /* \"@rari-capital/solmate/src/tokens/ERC20.sol\":2658:2662  true */\n      0x01\n        /* \"@rari-capital/solmate/src/tokens/ERC20.sol\":2651:2662  return true */\n      swap1\n      pop\n        /* \"@rari-capital/solmate/src/tokens/ERC20.sol\":2458:2669  function approve(address spender, uint256 amount) public virtual returns (bool) {... */\n      swap3\n      swap2\n      pop\n      pop\n      jump\t// out\n        /* \"contracts/KajuswapPair.sol\":773:794  address public token0 */\n    tag_44:\n      0x07\n      0x00\n      swap1\n      sload\n      swap1\n      0x0100\n      exp\n      swap1\n      div\n      0xffffffffffffffffffffffffffffffffffffffff\n      and\n      dup2\n      jump\t// out\n        /* \"@rari-capital/solmate/src/tokens/ERC20.sol\":1301:1327  uint256 public totalSupply */\n    tag_48:\n      sload(0x02)\n      dup2\n      jump\t// out\n        /* \"@rari-capital/solmate/src/tokens/ERC20.sol\":3054:3646  function transferFrom(... */\n    tag_54:\n        /* \"@rari-capital/solmate/src/tokens/ERC20.sol\":3172:3176  bool */\n      0x00\n        /* \"@rari-capital/solmate/src/tokens/ERC20.sol\":3188:3203  uint256 allowed */\n      dup1\n        /* \"@rari-capital/solmate/src/tokens/ERC20.sol\":3206:3215  allowance */\n      0x04\n        /* \"@rari-capital/solmate/src/tokens/ERC20.sol\":3206:3221  allowance[from] */\n      0x00\n        /* \"@rari-capital/solmate/src/tokens/ERC20.sol\":3216:3220  from */\n      dup7\n        /* \"@rari-capital/solmate/src/tokens/ERC20.sol\":3206:3221  allowance[from] */\n      0xffffffffffffffffffffffffffffffffffffffff\n      and\n      0xffffffffffffffffffffffffffffffffffffffff\n      and\n      dup2\n      mstore\n      0x20\n      add\n      swap1\n      dup2\n      mstore\n      0x20\n      add\n      0x00\n      keccak256\n        /* \"@rari-capital/solmate/src/tokens/ERC20.sol\":3206:3233  allowance[from][msg.sender] */\n      0x00\n        /* \"@rari-capital/solmate/src/tokens/ERC20.sol\":3222:3232  msg.sender */\n      caller\n        /* \"@rari-capital/solmate/src/tokens/ERC20.sol\":3206:3233  allowance[from][msg.sender] */\n      0xffffffffffffffffffffffffffffffffffffffff\n      and\n      0xffffffffffffffffffffffffffffffffffffffff\n      and\n      dup2\n      mstore\n      0x20\n      add\n      swap1\n      dup2\n      mstore\n      0x20\n      add\n      0x00\n      keccak256\n      sload\n        /* \"@rari-capital/solmate/src/tokens/ERC20.sol\":3188:3233  uint256 allowed = allowance[from][msg.sender] */\n      swap1\n      pop\n        /* \"@rari-capital/solmate/src/tokens/ERC20.sol\":3295:3312  type(uint256).max */\n      0xffffffffffffffffffffffffffffffffffffffffffffffffffffffffffffffff\n        /* \"@rari-capital/solmate/src/tokens/ERC20.sol\":3284:3291  allowed */\n      dup2\n        /* \"@rari-capital/solmate/src/tokens/ERC20.sol\":3284:3312  allowed != type(uint256).max */\n      eq\n        /* \"@rari-capital/solmate/src/tokens/ERC20.sol\":3280:3360  if (allowed != type(uint256).max) allowance[from][msg.sender] = allowed - amount */\n      tag_129\n      jumpi\n        /* \"@rari-capital/solmate/src/tokens/ERC20.sol\":3354:3360  amount */\n      dup3\n        /* \"@rari-capital/solmate/src/tokens/ERC20.sol\":3344:3351  allowed */\n      dup2\n        /* \"@rari-capital/solmate/src/tokens/ERC20.sol\":3344:3360  allowed - amount */\n      tag_130\n      swap2\n      swap1\n      tag_131\n      jump\t// in\n    tag_130:\n        /* \"@rari-capital/solmate/src/tokens/ERC20.sol\":3314:3323  allowance */\n      0x04\n        /* \"@rari-capital/solmate/src/tokens/ERC20.sol\":3314:3329  allowance[from] */\n      0x00\n        /* \"@rari-capital/solmate/src/tokens/ERC20.sol\":3324:3328  from */\n      dup8\n        /* \"@rari-capital/solmate/src/tokens/ERC20.sol\":3314:3329  allowance[from] */\n      0xffffffffffffffffffffffffffffffffffffffff\n      and\n      0xffffffffffffffffffffffffffffffffffffffff\n      and\n      dup2\n      mstore\n      0x20\n      add\n      swap1\n      dup2\n      mstore\n      0x20\n      add\n      0x00\n      keccak256\n        /* \"@rari-capital/solmate/src/tokens/ERC20.sol\":3314:3341  allowance[from][msg.sender] */\n      0x00\n        /* \"@rari-capital/solmate/src/tokens/ERC20.sol\":3330:3340  msg.sender */\n      caller\n        /* \"@rari-capital/solmate/src/tokens/ERC20.sol\":3314:3341  allowance[from][msg.sender] */\n      0xffffffffffffffffffffffffffffffffffffffff\n      and\n      0xffffffffffffffffffffffffffffffffffffffff\n      and\n      dup2\n      mstore\n      0x20\n      add\n      swap1\n      dup2\n      mstore\n      0x20\n      add\n      0x00\n      keccak256\n        /* \"@rari-capital/solmate/src/tokens/ERC20.sol\":3314:3360  allowance[from][msg.sender] = allowed - amount */\n      dup2\n      swap1\n      sstore\n      pop\n        /* \"@rari-capital/solmate/src/tokens/ERC20.sol\":3280:3360  if (allowed != type(uint256).max) allowance[from][msg.sender] = allowed - amount */\n    tag_129:\n        /* \"@rari-capital/solmate/src/tokens/ERC20.sol\":3390:3396  amount */\n      dup3\n        /* \"@rari-capital/solmate/src/tokens/ERC20.sol\":3371:3380  balanceOf */\n      0x03\n        /* \"@rari-capital/solmate/src/tokens/ERC20.sol\":3371:3386  balanceOf[from] */\n      0x00\n        /* \"@rari-capital/solmate/src/tokens/ERC20.sol\":3381:3385  from */\n      dup8\n        /* \"@rari-capital/solmate/src/tokens/ERC20.sol\":3371:3386  balanceOf[from] */\n      0xffffffffffffffffffffffffffffffffffffffff\n      and\n      0xffffffffffffffffffffffffffffffffffffffff\n      and\n      dup2\n      mstore\n      0x20\n      add\n      swap1\n      dup2\n      mstore\n      0x20\n      add\n      0x00\n      keccak256\n      0x00\n        /* \"@rari-capital/solmate/src/tokens/ERC20.sol\":3371:3396  balanceOf[from] -= amount */\n      dup3\n      dup3\n      sload\n      tag_132\n      swap2\n      swap1\n      tag_131\n      jump\t// in\n    tag_132:\n      swap3\n      pop\n      pop\n      dup2\n      swap1\n      sstore\n      pop\n        /* \"@rari-capital/solmate/src/tokens/ERC20.sol\":3559:3565  amount */\n      dup3\n        /* \"@rari-capital/solmate/src/tokens/ERC20.sol\":3542:3551  balanceOf */\n      0x03\n        /* \"@rari-capital/solmate/src/tokens/ERC20.sol\":3542:3555  balanceOf[to] */\n      0x00\n        /* \"@rari-capital/solmate/src/tokens/ERC20.sol\":3552:3554  to */\n      dup7\n        /* \"@rari-capital/solmate/src/tokens/ERC20.sol\":3542:3555  balanceOf[to] */\n      0xffffffffffffffffffffffffffffffffffffffff\n      and\n      0xffffffffffffffffffffffffffffffffffffffff\n      and\n      dup2\n      mstore\n      0x20\n      add\n      swap1\n      dup2\n      mstore\n      0x20\n      add\n      0x00\n      keccak256\n      0x00\n        /* \"@rari-capital/solmate/src/tokens/ERC20.sol\":3542:3565  balanceOf[to] += amount */\n      dup3\n      dup3\n      sload\n      add\n      swap3\n      pop\n      pop\n      dup2\n      swap1\n      sstore\n      pop\n        /* \"@rari-capital/solmate/src/tokens/ERC20.sol\":3606:3608  to */\n      dup4\n        /* \"@rari-capital/solmate/src/tokens/ERC20.sol\":3591:3617  Transfer(from, to, amount) */\n      0xffffffffffffffffffffffffffffffffffffffff\n      and\n        /* \"@rari-capital/solmate/src/tokens/ERC20.sol\":3600:3604  from */\n      dup6\n        /* \"@rari-capital/solmate/src/tokens/ERC20.sol\":3591:3617  Transfer(from, to, amount) */\n      0xffffffffffffffffffffffffffffffffffffffff\n      and\n      0xddf252ad1be2c89b69c2b068fc378daa952ba7f163c4a11628f55a4df523b3ef\n        /* \"@rari-capital/solmate/src/tokens/ERC20.sol\":3610:3616  amount */\n      dup6\n        /* \"@rari-capital/solmate/src/tokens/ERC20.sol\":3591:3617  Transfer(from, to, amount) */\n      mload(0x40)\n      tag_133\n      swap2\n      swap1\n      tag_50\n      jump\t// in\n    tag_133:\n      mload(0x40)\n      dup1\n      swap2\n      sub\n      swap1\n      log3\n        /* \"@rari-capital/solmate/src/tokens/ERC20.sol\":3635:3639  true */\n      0x01\n        /* \"@rari-capital/solmate/src/tokens/ERC20.sol\":3628:3639  return true */\n      swap2\n      pop\n      pop\n        /* \"@rari-capital/solmate/src/tokens/ERC20.sol\":3054:3646  function transferFrom(... */\n      swap4\n      swap3\n      pop\n      pop\n      pop\n      jump\t// out\n        /* \"@rari-capital/solmate/src/tokens/ERC20.sol\":1080:1111  uint8 public immutable decimals */\n    tag_57:\n      immutable(\"0x6585423cb6456b1d4957f6454d2f004f0c4f58d53a00082412d5c2ef4b1b31fd\")\n      dup2\n      jump\t// out\n        /* \"@rari-capital/solmate/src/tokens/ERC20.sol\":5324:5501  function DOMAIN_SEPARATOR() public view virtual returns (bytes32) {... */\n    tag_61:\n        /* \"@rari-capital/solmate/src/tokens/ERC20.sol\":5381:5388  bytes32 */\n      0x00\n        /* \"@rari-capital/solmate/src/tokens/ERC20.sol\":5424:5440  INITIAL_CHAIN_ID */\n      immutable(\"0xd67d834462ca31eaef1f30157e31659f60355143b7441e6fc7d9eae1fa79f3f8\")\n        /* \"@rari-capital/solmate/src/tokens/ERC20.sol\":5407:5420  block.chainid */\n      chainid\n        /* \"@rari-capital/solmate/src/tokens/ERC20.sol\":5407:5440  block.chainid == INITIAL_CHAIN_ID */\n      eq\n        /* \"@rari-capital/solmate/src/tokens/ERC20.sol\":5407:5494  block.chainid == INITIAL_CHAIN_ID ? INITIAL_DOMAIN_SEPARATOR : computeDomainSeparator() */\n      tag_135\n      jumpi\n        /* \"@rari-capital/solmate/src/tokens/ERC20.sol\":5470:5494  computeDomainSeparator() */\n      tag_136\n        /* \"@rari-capital/solmate/src/tokens/ERC20.sol\":5470:5492  computeDomainSeparator */\n      tag_137\n        /* \"@rari-capital/solmate/src/tokens/ERC20.sol\":5470:5494  computeDomainSeparator() */\n      jump\t// in\n    tag_136:\n        /* \"@rari-capital/solmate/src/tokens/ERC20.sol\":5407:5494  block.chainid == INITIAL_CHAIN_ID ? INITIAL_DOMAIN_SEPARATOR : computeDomainSeparator() */\n      jump(tag_138)\n    tag_135:\n        /* \"@rari-capital/solmate/src/tokens/ERC20.sol\":5443:5467  INITIAL_DOMAIN_SEPARATOR */\n      immutable(\"0x880de8116b3dfac28e9ff528a9fef1d1e0a51449c1addce011ffec1f302992b6\")\n        /* \"@rari-capital/solmate/src/tokens/ERC20.sol\":5407:5494  block.chainid == INITIAL_CHAIN_ID ? INITIAL_DOMAIN_SEPARATOR : computeDomainSeparator() */\n    tag_138:\n        /* \"@rari-capital/solmate/src/tokens/ERC20.sol\":5400:5494  return block.chainid == INITIAL_CHAIN_ID ? INITIAL_DOMAIN_SEPARATOR : computeDomainSeparator() */\n      swap1\n      pop\n        /* \"@rari-capital/solmate/src/tokens/ERC20.sol\":5324:5501  function DOMAIN_SEPARATOR() public view virtual returns (bytes32) {... */\n      swap1\n      jump\t// out\n        /* \"contracts/KajuswapPair.sol\":2117:2599  function initialize(address token0_, address token1_) public {... */\n    tag_67:\n        /* \"contracts/KajuswapPair.sol\":2272:2279  factory */\n      0x06\n      0x00\n      swap1\n      sload\n      swap1\n      0x0100\n      exp\n      swap1\n      div\n      0xffffffffffffffffffffffffffffffffffffffff\n      and\n        /* \"contracts/KajuswapPair.sol\":2258:2279  msg.sender == factory */\n      0xffffffffffffffffffffffffffffffffffffffff\n      and\n        /* \"contracts/KajuswapPair.sol\":2258:2268  msg.sender */\n      caller\n        /* \"contracts/KajuswapPair.sol\":2258:2279  msg.sender == factory */\n      0xffffffffffffffffffffffffffffffffffffffff\n      and\n      eq\n        /* \"contracts/KajuswapPair.sol\":2250:2303  require(msg.sender == factory, \"Kajuswap: FORBIDDEN\") */\n      tag_140\n      jumpi\n      mload(0x40)\n      0x08c379a000000000000000000000000000000000000000000000000000000000\n      dup2\n      mstore\n      0x04\n      add\n      tag_141\n      swap1\n      tag_142\n      jump\t// in\n    tag_141:\n      mload(0x40)\n      dup1\n      swap2\n      sub\n      swap1\n      revert\n    tag_140:\n        /* \"contracts/KajuswapPair.sol\":2356:2357  0 */\n      0x00\n        /* \"contracts/KajuswapPair.sol\":2338:2358  token0 != address(0) */\n      0xffffffffffffffffffffffffffffffffffffffff\n      and\n        /* \"contracts/KajuswapPair.sol\":2338:2344  token0 */\n      0x07\n      0x00\n      swap1\n      sload\n      swap1\n      0x0100\n      exp\n      swap1\n      div\n      0xffffffffffffffffffffffffffffffffffffffff\n      and\n        /* \"contracts/KajuswapPair.sol\":2338:2358  token0 != address(0) */\n      0xffffffffffffffffffffffffffffffffffffffff\n      and\n      eq\n      iszero\n        /* \"contracts/KajuswapPair.sol\":2338:2382  token0 != address(0) || token1 != address(0) */\n      dup1\n      tag_143\n      jumpi\n      pop\n        /* \"contracts/KajuswapPair.sol\":2380:2381  0 */\n      0x00\n        /* \"contracts/KajuswapPair.sol\":2362:2382  token1 != address(0) */\n      0xffffffffffffffffffffffffffffffffffffffff\n      and\n        /* \"contracts/KajuswapPair.sol\":2362:2368  token1 */\n      0x08\n      0x00\n      swap1\n      sload\n      swap1\n      0x0100\n      exp\n      swap1\n      div\n      0xffffffffffffffffffffffffffffffffffffffff\n      and\n        /* \"contracts/KajuswapPair.sol\":2362:2382  token1 != address(0) */\n      0xffffffffffffffffffffffffffffffffffffffff\n      and\n      eq\n      iszero\n        /* \"contracts/KajuswapPair.sol\":2338:2382  token0 != address(0) || token1 != address(0) */\n    tag_143:\n        /* \"contracts/KajuswapPair.sol\":2334:2424  if (token0 != address(0) || token1 != address(0))... */\n      iszero\n      tag_144\n      jumpi\n        /* \"contracts/KajuswapPair.sol\":2404:2424  AlreadyInitialized() */\n      mload(0x40)\n      0x0dc149f000000000000000000000000000000000000000000000000000000000\n      dup2\n      mstore\n      0x04\n      add\n      mload(0x40)\n      dup1\n      swap2\n      sub\n      swap1\n      revert\n        /* \"contracts/KajuswapPair.sol\":2334:2424  if (token0 != address(0) || token1 != address(0))... */\n    tag_144:\n        /* \"contracts/KajuswapPair.sol\":2557:2564  token0_ */\n      dup2\n        /* \"contracts/KajuswapPair.sol\":2548:2554  token0 */\n      0x07\n      0x00\n        /* \"contracts/KajuswapPair.sol\":2548:2564  token0 = token0_ */\n      0x0100\n      exp\n      dup2\n      sload\n      dup2\n      0xffffffffffffffffffffffffffffffffffffffff\n      mul\n      not\n      and\n      swap1\n      dup4\n      0xffffffffffffffffffffffffffffffffffffffff\n      and\n      mul\n      or\n      swap1\n      sstore\n      pop\n        /* \"contracts/KajuswapPair.sol\":2584:2591  token1_ */\n      dup1\n        /* \"contracts/KajuswapPair.sol\":2575:2581  token1 */\n      0x08\n      0x00\n        /* \"contracts/KajuswapPair.sol\":2575:2591  token1 = token1_ */\n      0x0100\n      exp\n      dup2\n      sload\n      dup2\n      0xffffffffffffffffffffffffffffffffffffffff\n      mul\n      not\n      and\n      swap1\n      dup4\n      0xffffffffffffffffffffffffffffffffffffffff\n      and\n      mul\n      or\n      swap1\n      sstore\n      pop\n        /* \"contracts/KajuswapPair.sol\":2117:2599  function initialize(address token0_, address token1_) public {... */\n      pop\n      pop\n      jump\t// out\n        /* \"contracts/KajuswapPair.sol\":935:970  uint256 public price0CumulativeLast */\n    tag_69:\n      sload(0x0a)\n      dup2\n      jump\t// out\n        /* \"contracts/KajuswapPair.sol\":977:1012  uint256 public price1CumulativeLast */\n    tag_72:\n      sload(0x0b)\n      dup2\n      jump\t// out\n        /* \"contracts/KajuswapPair.sol\":2607:3629  function mint(address to) public lock returns (uint256 liquidity) {... */\n    tag_77:\n        /* \"contracts/KajuswapPair.sol\":2654:2671  uint256 liquidity */\n      0x00\n        /* \"contracts/KajuswapPair.sol\":1550:1559  isEntered */\n      0x0c\n      0x00\n      swap1\n      sload\n      swap1\n      0x0100\n      exp\n      swap1\n      div\n      0xff\n      and\n        /* \"contracts/KajuswapPair.sol\":1549:1559  !isEntered */\n      iszero\n        /* \"contracts/KajuswapPair.sol\":1541:1606  require(!isEntered, \"Kajuswap: You cannot Enter in the contract\") */\n      tag_146\n      jumpi\n      mload(0x40)\n      0x08c379a000000000000000000000000000000000000000000000000000000000\n      dup2\n      mstore\n      0x04\n      add\n      tag_147\n      swap1\n      tag_148\n      jump\t// in\n    tag_147:\n      mload(0x40)\n      dup1\n      swap2\n      sub\n      swap1\n      revert\n    tag_146:\n        /* \"contracts/KajuswapPair.sol\":1629:1633  true */\n      0x01\n        /* \"contracts/KajuswapPair.sol\":1617:1626  isEntered */\n      0x0c\n      0x00\n        /* \"contracts/KajuswapPair.sol\":1617:1633  isEntered = true */\n      0x0100\n      exp\n      dup2\n      sload\n      dup2\n      0xff\n      mul\n      not\n      and\n      swap1\n      dup4\n      iszero\n      iszero\n      mul\n      or\n      swap1\n      sstore\n      pop\n        /* \"contracts/KajuswapPair.sol\":2685:2702  uint112 reserve0_ */\n      0x00\n        /* \"contracts/KajuswapPair.sol\":2704:2721  uint112 reserve1_ */\n      dup1\n        /* \"contracts/KajuswapPair.sol\":2727:2740  getReserves() */\n      tag_150\n        /* \"contracts/KajuswapPair.sol\":2727:2738  getReserves */\n      tag_34\n        /* \"contracts/KajuswapPair.sol\":2727:2740  getReserves() */\n      jump\t// in\n    tag_150:\n        /* \"contracts/KajuswapPair.sol\":2684:2740  (uint112 reserve0_, uint112 reserve1_, ) = getReserves() */\n      pop\n      swap2\n      pop\n      swap2\n      pop\n        /* \"contracts/KajuswapPair.sol\":2765:2781  uint256 balance0 */\n      0x00\n        /* \"contracts/KajuswapPair.sol\":2791:2797  token0 */\n      0x07\n      0x00\n      swap1\n      sload\n      swap1\n      0x0100\n      exp\n      swap1\n      div\n      0xffffffffffffffffffffffffffffffffffffffff\n      and\n        /* \"contracts/KajuswapPair.sol\":2784:2808  IERC20(token0).balanceOf */\n      0xffffffffffffffffffffffffffffffffffffffff\n      and\n      0x70a08231\n        /* \"contracts/KajuswapPair.sol\":2817:2821  this */\n      address\n        /* \"contracts/KajuswapPair.sol\":2784:2823  IERC20(token0).balanceOf(address(this)) */\n      mload(0x40)\n      dup3\n      0xffffffff\n      and\n      0xe0\n      shl\n      dup2\n      mstore\n      0x04\n      add\n      tag_151\n      swap2\n      swap1\n      tag_46\n      jump\t// in\n    tag_151:\n      0x20\n      mload(0x40)\n      dup1\n      dup4\n      sub\n      dup2\n      0x00\n      dup8\n      gas\n      call\n      iszero\n      dup1\n      iszero\n      tag_153\n      jumpi\n      returndatasize\n      0x00\n      dup1\n      returndatacopy\n      revert(0x00, returndatasize)\n    tag_153:\n      pop\n      pop\n      pop\n      pop\n      mload(0x40)\n      returndatasize\n      not(0x1f)\n      0x1f\n      dup3\n      add\n      and\n      dup3\n      add\n      dup1\n      0x40\n      mstore\n      pop\n      dup2\n      add\n      swap1\n      tag_154\n      swap2\n      swap1\n      tag_155\n      jump\t// in\n    tag_154:\n        /* \"contracts/KajuswapPair.sol\":2765:2823  uint256 balance0 = IERC20(token0).balanceOf(address(this)) */\n      swap1\n      pop\n        /* \"contracts/KajuswapPair.sol\":2834:2850  uint256 balance1 */\n      0x00\n        /* \"contracts/KajuswapPair.sol\":2860:2866  token1 */\n      0x08\n      0x00\n      swap1\n      sload\n      swap1\n      0x0100\n      exp\n      swap1\n      div\n      0xffffffffffffffffffffffffffffffffffffffff\n      and\n        /* \"contracts/KajuswapPair.sol\":2853:2877  IERC20(token1).balanceOf */\n      0xffffffffffffffffffffffffffffffffffffffff\n      and\n      0x70a08231\n        /* \"contracts/KajuswapPair.sol\":2886:2890  this */\n      address\n        /* \"contracts/KajuswapPair.sol\":2853:2892  IERC20(token1).balanceOf(address(this)) */\n      mload(0x40)\n      dup3\n      0xffffffff\n      and\n      0xe0\n      shl\n      dup2\n      mstore\n      0x04\n      add\n      tag_156\n      swap2\n      swap1\n      tag_46\n      jump\t// in\n    tag_156:\n      0x20\n      mload(0x40)\n      dup1\n      dup4\n      sub\n      dup2\n      0x00\n      dup8\n      gas\n      call\n      iszero\n      dup1\n      iszero\n      tag_158\n      jumpi\n      returndatasize\n      0x00\n      dup1\n      returndatacopy\n      revert(0x00, returndatasize)\n    tag_158:\n      pop\n      pop\n      pop\n      pop\n      mload(0x40)\n      returndatasize\n      not(0x1f)\n      0x1f\n      dup3\n      add\n      and\n      dup3\n      add\n      dup1\n      0x40\n      mstore\n      pop\n      dup2\n      add\n      swap1\n      tag_159\n      swap2\n      swap1\n      tag_155\n      jump\t// in\n    tag_159:\n        /* \"contracts/KajuswapPair.sol\":2834:2892  uint256 balance1 = IERC20(token1).balanceOf(address(this)) */\n      swap1\n      pop\n        /* \"contracts/KajuswapPair.sol\":2903:2918  uint256 amount0 */\n      0x00\n        /* \"contracts/KajuswapPair.sol\":2932:2941  reserve0_ */\n      dup5\n        /* \"contracts/KajuswapPair.sol\":2921:2941  balance0 - reserve0_ */\n      0xffffffffffffffffffffffffffff\n      and\n        /* \"contracts/KajuswapPair.sol\":2921:2929  balance0 */\n      dup4\n        /* \"contracts/KajuswapPair.sol\":2921:2941  balance0 - reserve0_ */\n      tag_160\n      swap2\n      swap1\n      tag_131\n      jump\t// in\n    tag_160:\n        /* \"contracts/KajuswapPair.sol\":2903:2941  uint256 amount0 = balance0 - reserve0_ */\n      swap1\n      pop\n        /* \"contracts/KajuswapPair.sol\":2952:2967  uint256 amount1 */\n      0x00\n        /* \"contracts/KajuswapPair.sol\":2981:2990  reserve1_ */\n      dup5\n        /* \"contracts/KajuswapPair.sol\":2970:2990  balance1 - reserve1_ */\n      0xffffffffffffffffffffffffffff\n      and\n        /* \"contracts/KajuswapPair.sol\":2970:2978  balance1 */\n      dup4\n        /* \"contracts/KajuswapPair.sol\":2970:2990  balance1 - reserve1_ */\n      tag_161\n      swap2\n      swap1\n      tag_131\n      jump\t// in\n    tag_161:\n        /* \"contracts/KajuswapPair.sol\":2952:2990  uint256 amount1 = balance1 - reserve1_ */\n      swap1\n      pop\n        /* \"contracts/KajuswapPair.sol\":3022:3023  0 */\n      0x00\n        /* \"contracts/KajuswapPair.sol\":3007:3018  totalSupply */\n      sload(0x02)\n        /* \"contracts/KajuswapPair.sol\":3007:3023  totalSupply == 0 */\n      sub\n        /* \"contracts/KajuswapPair.sol\":3003:3339  if (totalSupply == 0) {... */\n      tag_162\n      jumpi\n        /* \"contracts/KajuswapPair.sol\":644:648  1000 */\n      0x03e8\n        /* \"contracts/KajuswapPair.sol\":3052:3080  Math.sqrt(amount0 * amount1) */\n      tag_163\n        /* \"contracts/KajuswapPair.sol\":3072:3079  amount1 */\n      dup3\n        /* \"contracts/KajuswapPair.sol\":3062:3069  amount0 */\n      dup5\n        /* \"contracts/KajuswapPair.sol\":3062:3079  amount0 * amount1 */\n      tag_164\n      swap2\n      swap1\n      tag_165\n      jump\t// in\n    tag_164:\n        /* \"contracts/KajuswapPair.sol\":3052:3061  Math.sqrt */\n      tag_166\n        /* \"contracts/KajuswapPair.sol\":3052:3080  Math.sqrt(amount0 * amount1) */\n      jump\t// in\n    tag_163:\n        /* \"contracts/KajuswapPair.sol\":3052:3100  Math.sqrt(amount0 * amount1) - MINIMUM_LIQUIDITY */\n      tag_167\n      swap2\n      swap1\n      tag_131\n      jump\t// in\n    tag_167:\n        /* \"contracts/KajuswapPair.sol\":3040:3100  liquidity = Math.sqrt(amount0 * amount1) - MINIMUM_LIQUIDITY */\n      swap7\n      pop\n        /* \"contracts/KajuswapPair.sol\":3115:3151  _mint(address(0), MINIMUM_LIQUIDITY) */\n      tag_168\n        /* \"contracts/KajuswapPair.sol\":3129:3130  0 */\n      0x00\n        /* \"contracts/KajuswapPair.sol\":644:648  1000 */\n      0x03e8\n        /* \"contracts/KajuswapPair.sol\":3115:3120  _mint */\n      tag_169\n        /* \"contracts/KajuswapPair.sol\":3115:3151  _mint(address(0), MINIMUM_LIQUIDITY) */\n      jump\t// in\n    tag_168:\n        /* \"contracts/KajuswapPair.sol\":3003:3339  if (totalSupply == 0) {... */\n      jump(tag_170)\n    tag_162:\n        /* \"contracts/KajuswapPair.sol\":3196:3327  Math.min(... */\n      tag_171\n        /* \"contracts/KajuswapPair.sol\":3249:3258  reserve0_ */\n      dup7\n        /* \"contracts/KajuswapPair.sol\":3223:3258  (amount0 * totalSupply) / reserve0_ */\n      0xffffffffffffffffffffffffffff\n      and\n        /* \"contracts/KajuswapPair.sol\":3234:3245  totalSupply */\n      sload(0x02)\n        /* \"contracts/KajuswapPair.sol\":3224:3231  amount0 */\n      dup5\n        /* \"contracts/KajuswapPair.sol\":3224:3245  amount0 * totalSupply */\n      tag_172\n      swap2\n      swap1\n      tag_165\n      jump\t// in\n    tag_172:\n        /* \"contracts/KajuswapPair.sol\":3223:3258  (amount0 * totalSupply) / reserve0_ */\n      tag_173\n      swap2\n      swap1\n      tag_174\n      jump\t// in\n    tag_173:\n        /* \"contracts/KajuswapPair.sol\":3303:3312  reserve1_ */\n      dup7\n        /* \"contracts/KajuswapPair.sol\":3277:3312  (amount1 * totalSupply) / reserve1_ */\n      0xffffffffffffffffffffffffffff\n      and\n        /* \"contracts/KajuswapPair.sol\":3288:3299  totalSupply */\n      sload(0x02)\n        /* \"contracts/KajuswapPair.sol\":3278:3285  amount1 */\n      dup5\n        /* \"contracts/KajuswapPair.sol\":3278:3299  amount1 * totalSupply */\n      tag_175\n      swap2\n      swap1\n      tag_165\n      jump\t// in\n    tag_175:\n        /* \"contracts/KajuswapPair.sol\":3277:3312  (amount1 * totalSupply) / reserve1_ */\n      tag_176\n      swap2\n      swap1\n      tag_174\n      jump\t// in\n    tag_176:\n        /* \"contracts/KajuswapPair.sol\":3196:3204  Math.min */\n      tag_177\n        /* \"contracts/KajuswapPair.sol\":3196:3327  Math.min(... */\n      jump\t// in\n    tag_171:\n        /* \"contracts/KajuswapPair.sol\":3184:3327  liquidity = Math.min(... */\n      swap7\n      pop\n        /* \"contracts/KajuswapPair.sol\":3003:3339  if (totalSupply == 0) {... */\n    tag_170:\n        /* \"contracts/KajuswapPair.sol\":3441:3442  0 */\n      0x00\n        /* \"contracts/KajuswapPair.sol\":3429:3438  liquidity */\n      dup8\n        /* \"contracts/KajuswapPair.sol\":3429:3442  liquidity > 0 */\n      gt\n        /* \"contracts/KajuswapPair.sol\":3421:3486  require(liquidity > 0, \"Kajuswap: INSUFFICIENT_LIQUIDITY_MINTED\") */\n      tag_178\n      jumpi\n      mload(0x40)\n      0x08c379a000000000000000000000000000000000000000000000000000000000\n      dup2\n      mstore\n      0x04\n      add\n      tag_179\n      swap1\n      tag_180\n      jump\t// in\n    tag_179:\n      mload(0x40)\n      dup1\n      swap2\n      sub\n      swap1\n      revert\n    tag_178:\n        /* \"contracts/KajuswapPair.sol\":3499:3519  _mint(to, liquidity) */\n      tag_181\n        /* \"contracts/KajuswapPair.sol\":3505:3507  to */\n      dup9\n        /* \"contracts/KajuswapPair.sol\":3509:3518  liquidity */\n      dup9\n        /* \"contracts/KajuswapPair.sol\":3499:3504  _mint */\n      tag_169\n        /* \"contracts/KajuswapPair.sol\":3499:3519  _mint(to, liquidity) */\n      jump\t// in\n    tag_181:\n        /* \"contracts/KajuswapPair.sol\":3530:3579  _update(balance0, balance1, reserve0_, reserve1_) */\n      tag_182\n        /* \"contracts/KajuswapPair.sol\":3538:3546  balance0 */\n      dup5\n        /* \"contracts/KajuswapPair.sol\":3548:3556  balance1 */\n      dup5\n        /* \"contracts/KajuswapPair.sol\":3558:3567  reserve0_ */\n      dup9\n        /* \"contracts/KajuswapPair.sol\":3569:3578  reserve1_ */\n      dup9\n        /* \"contracts/KajuswapPair.sol\":3530:3537  _update */\n      tag_183\n        /* \"contracts/KajuswapPair.sol\":3530:3579  _update(balance0, balance1, reserve0_, reserve1_) */\n      jump\t// in\n    tag_182:\n        /* \"contracts/KajuswapPair.sol\":3600:3602  to */\n      dup8\n        /* \"contracts/KajuswapPair.sol\":3595:3621  Mint(to, amount0, amount1) */\n      0xffffffffffffffffffffffffffffffffffffffff\n      and\n      0x4c209b5fc8ad50758f13e2e1088ba56a560dff690a1c6fef26394f4c03821c4f\n        /* \"contracts/KajuswapPair.sol\":3604:3611  amount0 */\n      dup4\n        /* \"contracts/KajuswapPair.sol\":3613:3620  amount1 */\n      dup4\n        /* \"contracts/KajuswapPair.sol\":3595:3621  Mint(to, amount0, amount1) */\n      mload(0x40)\n      tag_184\n      swap3\n      swap2\n      swap1\n      tag_95\n      jump\t// in\n    tag_184:\n      mload(0x40)\n      dup1\n      swap2\n      sub\n      swap1\n      log2\n        /* \"contracts/KajuswapPair.sol\":2673:3629  {... */\n      pop\n      pop\n      pop\n      pop\n      pop\n      pop\n        /* \"contracts/KajuswapPair.sol\":1668:1673  false */\n      0x00\n        /* \"contracts/KajuswapPair.sol\":1656:1665  isEntered */\n      0x0c\n      0x00\n        /* \"contracts/KajuswapPair.sol\":1656:1673  isEntered = false */\n      0x0100\n      exp\n      dup2\n      sload\n      dup2\n      0xff\n      mul\n      not\n      and\n      swap1\n      dup4\n      iszero\n      iszero\n      mul\n      or\n      swap1\n      sstore\n      pop\n        /* \"contracts/KajuswapPair.sol\":2607:3629  function mint(address to) public lock returns (uint256 liquidity) {... */\n      swap2\n      swap1\n      pop\n      jump\t// out\n        /* \"contracts/KajuswapPair.sol\":4689:6728  function swap(... */\n    tag_82:\n        /* \"contracts/KajuswapPair.sol\":1550:1559  isEntered */\n      0x0c\n      0x00\n      swap1\n      sload\n      swap1\n      0x0100\n      exp\n      swap1\n      div\n      0xff\n      and\n        /* \"contracts/KajuswapPair.sol\":1549:1559  !isEntered */\n      iszero\n        /* \"contracts/KajuswapPair.sol\":1541:1606  require(!isEntered, \"Kajuswap: You cannot Enter in the contract\") */\n      tag_186\n      jumpi\n      mload(0x40)\n      0x08c379a000000000000000000000000000000000000000000000000000000000\n      dup2\n      mstore\n      0x04\n      add\n      tag_187\n      swap1\n      tag_148\n      jump\t// in\n    tag_187:\n      mload(0x40)\n      dup1\n      swap2\n      sub\n      swap1\n      revert\n    tag_186:\n        /* \"contracts/KajuswapPair.sol\":1629:1633  true */\n      0x01\n        /* \"contracts/KajuswapPair.sol\":1617:1626  isEntered */\n      0x0c\n      0x00\n        /* \"contracts/KajuswapPair.sol\":1617:1633  isEntered = true */\n      0x0100\n      exp\n      dup2\n      sload\n      dup2\n      0xff\n      mul\n      not\n      and\n      swap1\n      dup4\n      iszero\n      iszero\n      mul\n      or\n      swap1\n      sstore\n      pop\n        /* \"contracts/KajuswapPair.sol\":4936:4937  0 */\n      0x00\n        /* \"contracts/KajuswapPair.sol\":4923:4933  amount0Out */\n      dup4\n        /* \"contracts/KajuswapPair.sol\":4923:4937  amount0Out > 0 */\n      gt\n        /* \"contracts/KajuswapPair.sol\":4923:4955  amount0Out > 0 || amount1Out > 0 */\n      dup1\n      tag_189\n      jumpi\n      pop\n        /* \"contracts/KajuswapPair.sol\":4954:4955  0 */\n      0x00\n        /* \"contracts/KajuswapPair.sol\":4941:4951  amount1Out */\n      dup3\n        /* \"contracts/KajuswapPair.sol\":4941:4955  amount1Out > 0 */\n      gt\n        /* \"contracts/KajuswapPair.sol\":4923:4955  amount0Out > 0 || amount1Out > 0 */\n    tag_189:\n        /* \"contracts/KajuswapPair.sol\":4915:4996  require(amount0Out > 0 || amount1Out > 0, \"Kajuswap: INSUFFICIENT_OUTPUT_AMOUNT\") */\n      tag_190\n      jumpi\n      mload(0x40)\n      0x08c379a000000000000000000000000000000000000000000000000000000000\n      dup2\n      mstore\n      0x04\n      add\n      tag_191\n      swap1\n      tag_192\n      jump\t// in\n    tag_191:\n      mload(0x40)\n      dup1\n      swap2\n      sub\n      swap1\n      revert\n    tag_190:\n        /* \"contracts/KajuswapPair.sol\":5010:5027  uint112 reserve0_ */\n      0x00\n        /* \"contracts/KajuswapPair.sol\":5029:5046  uint112 reserve1_ */\n      dup1\n        /* \"contracts/KajuswapPair.sol\":5052:5065  getReserves() */\n      tag_193\n        /* \"contracts/KajuswapPair.sol\":5052:5063  getReserves */\n      tag_34\n        /* \"contracts/KajuswapPair.sol\":5052:5065  getReserves() */\n      jump\t// in\n    tag_193:\n        /* \"contracts/KajuswapPair.sol\":5009:5065  (uint112 reserve0_, uint112 reserve1_, ) = getReserves() */\n      pop\n      swap2\n      pop\n      swap2\n      pop\n        /* \"contracts/KajuswapPair.sol\":5213:5222  reserve0_ */\n      dup2\n        /* \"contracts/KajuswapPair.sol\":5200:5222  amount0Out < reserve0_ */\n      0xffffffffffffffffffffffffffff\n      and\n        /* \"contracts/KajuswapPair.sol\":5200:5210  amount0Out */\n      dup6\n        /* \"contracts/KajuswapPair.sol\":5200:5222  amount0Out < reserve0_ */\n      lt\n        /* \"contracts/KajuswapPair.sol\":5200:5248  amount0Out < reserve0_ && amount1Out < reserve1_ */\n      dup1\n      iszero\n      tag_194\n      jumpi\n      pop\n        /* \"contracts/KajuswapPair.sol\":5239:5248  reserve1_ */\n      dup1\n        /* \"contracts/KajuswapPair.sol\":5226:5248  amount1Out < reserve1_ */\n      0xffffffffffffffffffffffffffff\n      and\n        /* \"contracts/KajuswapPair.sol\":5226:5236  amount1Out */\n      dup5\n        /* \"contracts/KajuswapPair.sol\":5226:5248  amount1Out < reserve1_ */\n      lt\n        /* \"contracts/KajuswapPair.sol\":5200:5248  amount0Out < reserve0_ && amount1Out < reserve1_ */\n    tag_194:\n        /* \"contracts/KajuswapPair.sol\":5192:5285  require(amount0Out < reserve0_ && amount1Out < reserve1_, \"Kajuswap: INSUFFICIENT_LIQUIDITY\") */\n      tag_195\n      jumpi\n      mload(0x40)\n      0x08c379a000000000000000000000000000000000000000000000000000000000\n      dup2\n      mstore\n      0x04\n      add\n      tag_196\n      swap1\n      tag_197\n      jump\t// in\n    tag_196:\n      mload(0x40)\n      dup1\n      swap2\n      sub\n      swap1\n      revert\n    tag_195:\n        /* \"contracts/KajuswapPair.sol\":5315:5316  0 */\n      0x00\n        /* \"contracts/KajuswapPair.sol\":5302:5312  amount0Out */\n      dup6\n        /* \"contracts/KajuswapPair.sol\":5302:5316  amount0Out > 0 */\n      gt\n        /* \"contracts/KajuswapPair.sol\":5298:5355  if (amount0Out > 0) _safeTransfer(token0, to, amount0Out) */\n      iszero\n      tag_198\n      jumpi\n        /* \"contracts/KajuswapPair.sol\":5318:5355  _safeTransfer(token0, to, amount0Out) */\n      tag_199\n        /* \"contracts/KajuswapPair.sol\":5332:5338  token0 */\n      0x07\n      0x00\n      swap1\n      sload\n      swap1\n      0x0100\n      exp\n      swap1\n      div\n      0xffffffffffffffffffffffffffffffffffffffff\n      and\n        /* \"contracts/KajuswapPair.sol\":5340:5342  to */\n      dup5\n        /* \"contracts/KajuswapPair.sol\":5344:5354  amount0Out */\n      dup8\n        /* \"contracts/KajuswapPair.sol\":5318:5331  _safeTransfer */\n      tag_200\n        /* \"contracts/KajuswapPair.sol\":5318:5355  _safeTransfer(token0, to, amount0Out) */\n      jump\t// in\n    tag_199:\n        /* \"contracts/KajuswapPair.sol\":5298:5355  if (amount0Out > 0) _safeTransfer(token0, to, amount0Out) */\n    tag_198:\n        /* \"contracts/KajuswapPair.sol\":5383:5384  0 */\n      0x00\n        /* \"contracts/KajuswapPair.sol\":5370:5380  amount1Out */\n      dup5\n        /* \"contracts/KajuswapPair.sol\":5370:5384  amount1Out > 0 */\n      gt\n        /* \"contracts/KajuswapPair.sol\":5366:5423  if (amount1Out > 0) _safeTransfer(token1, to, amount1Out) */\n      iszero\n      tag_201\n      jumpi\n        /* \"contracts/KajuswapPair.sol\":5386:5423  _safeTransfer(token1, to, amount1Out) */\n      tag_202\n        /* \"contracts/KajuswapPair.sol\":5400:5406  token1 */\n      0x08\n      0x00\n      swap1\n      sload\n      swap1\n      0x0100\n      exp\n      swap1\n      div\n      0xffffffffffffffffffffffffffffffffffffffff\n      and\n        /* \"contracts/KajuswapPair.sol\":5408:5410  to */\n      dup5\n        /* \"contracts/KajuswapPair.sol\":5412:5422  amount1Out */\n      dup7\n        /* \"contracts/KajuswapPair.sol\":5386:5399  _safeTransfer */\n      tag_200\n        /* \"contracts/KajuswapPair.sol\":5386:5423  _safeTransfer(token1, to, amount1Out) */\n      jump\t// in\n    tag_202:\n        /* \"contracts/KajuswapPair.sol\":5366:5423  if (amount1Out > 0) _safeTransfer(token1, to, amount1Out) */\n    tag_201:\n        /* \"contracts/KajuswapPair.sol\":5436:5452  uint256 balance0 */\n      0x00\n        /* \"contracts/KajuswapPair.sol\":5462:5468  token0 */\n      0x07\n      0x00\n      swap1\n      sload\n      swap1\n      0x0100\n      exp\n      swap1\n      div\n      0xffffffffffffffffffffffffffffffffffffffff\n      and\n        /* \"contracts/KajuswapPair.sol\":5455:5479  IERC20(token0).balanceOf */\n      0xffffffffffffffffffffffffffffffffffffffff\n      and\n      0x70a08231\n        /* \"contracts/KajuswapPair.sol\":5488:5492  this */\n      address\n        /* \"contracts/KajuswapPair.sol\":5455:5494  IERC20(token0).balanceOf(address(this)) */\n      mload(0x40)\n      dup3\n      0xffffffff\n      and\n      0xe0\n      shl\n      dup2\n      mstore\n      0x04\n      add\n      tag_203\n      swap2\n      swap1\n      tag_46\n      jump\t// in\n    tag_203:\n      0x20\n      mload(0x40)\n      dup1\n      dup4\n      sub\n      dup2\n      0x00\n      dup8\n      gas\n      call\n      iszero\n      dup1\n      iszero\n      tag_205\n      jumpi\n      returndatasize\n      0x00\n      dup1\n      returndatacopy\n      revert(0x00, returndatasize)\n    tag_205:\n      pop\n      pop\n      pop\n      pop\n      mload(0x40)\n      returndatasize\n      not(0x1f)\n      0x1f\n      dup3\n      add\n      and\n      dup3\n      add\n      dup1\n      0x40\n      mstore\n      pop\n      dup2\n      add\n      swap1\n      tag_206\n      swap2\n      swap1\n      tag_155\n      jump\t// in\n    tag_206:\n        /* \"contracts/KajuswapPair.sol\":5436:5494  uint256 balance0 = IERC20(token0).balanceOf(address(this)) */\n      swap1\n      pop\n        /* \"contracts/KajuswapPair.sol\":5539:5555  uint256 balance1 */\n      0x00\n        /* \"contracts/KajuswapPair.sol\":5565:5571  token1 */\n      0x08\n      0x00\n      swap1\n      sload\n      swap1\n      0x0100\n      exp\n      swap1\n      div\n      0xffffffffffffffffffffffffffffffffffffffff\n      and\n        /* \"contracts/KajuswapPair.sol\":5558:5582  IERC20(token1).balanceOf */\n      0xffffffffffffffffffffffffffffffffffffffff\n      and\n      0x70a08231\n        /* \"contracts/KajuswapPair.sol\":5591:5595  this */\n      address\n        /* \"contracts/KajuswapPair.sol\":5558:5597  IERC20(token1).balanceOf(address(this)) */\n      mload(0x40)\n      dup3\n      0xffffffff\n      and\n      0xe0\n      shl\n      dup2\n      mstore\n      0x04\n      add\n      tag_207\n      swap2\n      swap1\n      tag_46\n      jump\t// in\n    tag_207:\n      0x20\n      mload(0x40)\n      dup1\n      dup4\n      sub\n      dup2\n      0x00\n      dup8\n      gas\n      call\n      iszero\n      dup1\n      iszero\n      tag_209\n      jumpi\n      returndatasize\n      0x00\n      dup1\n      returndatacopy\n      revert(0x00, returndatasize)\n    tag_209:\n      pop\n      pop\n      pop\n      pop\n      mload(0x40)\n      returndatasize\n      not(0x1f)\n      0x1f\n      dup3\n      add\n      and\n      dup3\n      add\n      dup1\n      0x40\n      mstore\n      pop\n      dup2\n      add\n      swap1\n      tag_210\n      swap2\n      swap1\n      tag_155\n      jump\t// in\n    tag_210:\n        /* \"contracts/KajuswapPair.sol\":5539:5597  uint256 balance1 = IERC20(token1).balanceOf(address(this)) */\n      swap1\n      pop\n        /* \"contracts/KajuswapPair.sol\":5642:5659  uint256 amount0In */\n      0x00\n        /* \"contracts/KajuswapPair.sol\":5684:5694  amount0Out */\n      dup8\n        /* \"contracts/KajuswapPair.sol\":5673:5681  reserve0 */\n      0x09\n      0x00\n      swap1\n      sload\n      swap1\n      0x0100\n      exp\n      swap1\n      div\n      0xffffffffffffffffffffffffffff\n      and\n        /* \"contracts/KajuswapPair.sol\":5673:5694  reserve0 - amount0Out */\n      0xffffffffffffffffffffffffffff\n      and\n      tag_211\n      swap2\n      swap1\n      tag_131\n      jump\t// in\n    tag_211:\n        /* \"contracts/KajuswapPair.sol\":5662:5670  balance0 */\n      dup4\n        /* \"contracts/KajuswapPair.sol\":5662:5694  balance0 > reserve0 - amount0Out */\n      gt\n        /* \"contracts/KajuswapPair.sol\":5662:5761  balance0 > reserve0 - amount0Out... */\n      tag_212\n      jumpi\n        /* \"contracts/KajuswapPair.sol\":5760:5761  0 */\n      0x00\n        /* \"contracts/KajuswapPair.sol\":5662:5761  balance0 > reserve0 - amount0Out... */\n      jump(tag_213)\n    tag_212:\n        /* \"contracts/KajuswapPair.sol\":5733:5743  amount0Out */\n      dup8\n        /* \"contracts/KajuswapPair.sol\":5722:5730  reserve0 */\n      0x09\n      0x00\n      swap1\n      sload\n      swap1\n      0x0100\n      exp\n      swap1\n      div\n      0xffffffffffffffffffffffffffff\n      and\n        /* \"contracts/KajuswapPair.sol\":5722:5743  reserve0 - amount0Out */\n      0xffffffffffffffffffffffffffff\n      and\n      tag_214\n      swap2\n      swap1\n      tag_131\n      jump\t// in\n    tag_214:\n        /* \"contracts/KajuswapPair.sol\":5710:5718  balance0 */\n      dup4\n        /* \"contracts/KajuswapPair.sol\":5710:5744  balance0 - (reserve0 - amount0Out) */\n      tag_215\n      swap2\n      swap1\n      tag_131\n      jump\t// in\n    tag_215:\n        /* \"contracts/KajuswapPair.sol\":5662:5761  balance0 > reserve0 - amount0Out... */\n    tag_213:\n        /* \"contracts/KajuswapPair.sol\":5642:5761  uint256 amount0In = balance0 > reserve0 - amount0Out... */\n      swap1\n      pop\n        /* \"contracts/KajuswapPair.sol\":5772:5789  uint256 amount1In */\n      0x00\n        /* \"contracts/KajuswapPair.sol\":5814:5824  amount1Out */\n      dup8\n        /* \"contracts/KajuswapPair.sol\":5803:5811  reserve1 */\n      0x09\n      0x0e\n      swap1\n      sload\n      swap1\n      0x0100\n      exp\n      swap1\n      div\n      0xffffffffffffffffffffffffffff\n      and\n        /* \"contracts/KajuswapPair.sol\":5803:5824  reserve1 - amount1Out */\n      0xffffffffffffffffffffffffffff\n      and\n      tag_216\n      swap2\n      swap1\n      tag_131\n      jump\t// in\n    tag_216:\n        /* \"contracts/KajuswapPair.sol\":5792:5800  balance1 */\n      dup4\n        /* \"contracts/KajuswapPair.sol\":5792:5824  balance1 > reserve1 - amount1Out */\n      gt\n        /* \"contracts/KajuswapPair.sol\":5792:5891  balance1 > reserve1 - amount1Out... */\n      tag_217\n      jumpi\n        /* \"contracts/KajuswapPair.sol\":5890:5891  0 */\n      0x00\n        /* \"contracts/KajuswapPair.sol\":5792:5891  balance1 > reserve1 - amount1Out... */\n      jump(tag_218)\n    tag_217:\n        /* \"contracts/KajuswapPair.sol\":5863:5873  amount1Out */\n      dup8\n        /* \"contracts/KajuswapPair.sol\":5852:5860  reserve1 */\n      0x09\n      0x0e\n      swap1\n      sload\n      swap1\n      0x0100\n      exp\n      swap1\n      div\n      0xffffffffffffffffffffffffffff\n      and\n        /* \"contracts/KajuswapPair.sol\":5852:5873  reserve1 - amount1Out */\n      0xffffffffffffffffffffffffffff\n      and\n      tag_219\n      swap2\n      swap1\n      tag_131\n      jump\t// in\n    tag_219:\n        /* \"contracts/KajuswapPair.sol\":5840:5848  balance1 */\n      dup4\n        /* \"contracts/KajuswapPair.sol\":5840:5874  balance1 - (reserve1 - amount1Out) */\n      tag_220\n      swap2\n      swap1\n      tag_131\n      jump\t// in\n    tag_220:\n        /* \"contracts/KajuswapPair.sol\":5792:5891  balance1 > reserve1 - amount1Out... */\n    tag_218:\n        /* \"contracts/KajuswapPair.sol\":5772:5891  uint256 amount1In = balance1 > reserve1 - amount1Out... */\n      swap1\n      pop\n        /* \"contracts/KajuswapPair.sol\":6006:6007  0 */\n      0x00\n        /* \"contracts/KajuswapPair.sol\":5994:6003  amount0In */\n      dup3\n        /* \"contracts/KajuswapPair.sol\":5994:6007  amount0In > 0 */\n      gt\n        /* \"contracts/KajuswapPair.sol\":5994:6024  amount0In > 0 || amount1In > 0 */\n      dup1\n      tag_221\n      jumpi\n      pop\n        /* \"contracts/KajuswapPair.sol\":6023:6024  0 */\n      0x00\n        /* \"contracts/KajuswapPair.sol\":6011:6020  amount1In */\n      dup2\n        /* \"contracts/KajuswapPair.sol\":6011:6024  amount1In > 0 */\n      gt\n        /* \"contracts/KajuswapPair.sol\":5994:6024  amount0In > 0 || amount1In > 0 */\n    tag_221:\n        /* \"contracts/KajuswapPair.sol\":5986:6064  require(amount0In > 0 || amount1In > 0, \"Kajuswap: INSUFFICIENT_INPUT_AMOUNT\") */\n      tag_222\n      jumpi\n      mload(0x40)\n      0x08c379a000000000000000000000000000000000000000000000000000000000\n      dup2\n      mstore\n      0x04\n      add\n      tag_223\n      swap1\n      tag_224\n      jump\t// in\n    tag_223:\n      mload(0x40)\n      dup1\n      swap2\n      sub\n      swap1\n      revert\n    tag_222:\n        /* \"contracts/KajuswapPair.sol\":6158:6182  uint256 balance0Adjusted */\n      0x00\n        /* \"contracts/KajuswapPair.sol\":6218:6219  3 */\n      0x03\n        /* \"contracts/KajuswapPair.sol\":6206:6215  amount0In */\n      dup4\n        /* \"contracts/KajuswapPair.sol\":6206:6219  amount0In * 3 */\n      tag_225\n      swap2\n      swap1\n      tag_165\n      jump\t// in\n    tag_225:\n        /* \"contracts/KajuswapPair.sol\":6197:6201  1000 */\n      0x03e8\n        /* \"contracts/KajuswapPair.sol\":6186:6194  balance0 */\n      dup7\n        /* \"contracts/KajuswapPair.sol\":6186:6201  balance0 * 1000 */\n      tag_226\n      swap2\n      swap1\n      tag_165\n      jump\t// in\n    tag_226:\n        /* \"contracts/KajuswapPair.sol\":6185:6220  (balance0 * 1000) - (amount0In * 3) */\n      tag_227\n      swap2\n      swap1\n      tag_131\n      jump\t// in\n    tag_227:\n        /* \"contracts/KajuswapPair.sol\":6158:6220  uint256 balance0Adjusted = (balance0 * 1000) - (amount0In * 3) */\n      swap1\n      pop\n        /* \"contracts/KajuswapPair.sol\":6231:6255  uint256 balance1Adjusted */\n      0x00\n        /* \"contracts/KajuswapPair.sol\":6291:6292  3 */\n      0x03\n        /* \"contracts/KajuswapPair.sol\":6279:6288  amount1In */\n      dup4\n        /* \"contracts/KajuswapPair.sol\":6279:6292  amount1In * 3 */\n      tag_228\n      swap2\n      swap1\n      tag_165\n      jump\t// in\n    tag_228:\n        /* \"contracts/KajuswapPair.sol\":6270:6274  1000 */\n      0x03e8\n        /* \"contracts/KajuswapPair.sol\":6259:6267  balance1 */\n      dup7\n        /* \"contracts/KajuswapPair.sol\":6259:6274  balance1 * 1000 */\n      tag_229\n      swap2\n      swap1\n      tag_165\n      jump\t// in\n    tag_229:\n        /* \"contracts/KajuswapPair.sol\":6258:6293  (balance1 * 1000) - (amount1In * 3) */\n      tag_230\n      swap2\n      swap1\n      tag_131\n      jump\t// in\n    tag_230:\n        /* \"contracts/KajuswapPair.sol\":6231:6293  uint256 balance1Adjusted = (balance1 * 1000) - (amount1In * 3) */\n      swap1\n      pop\n        /* \"contracts/KajuswapPair.sol\":6568:6575  1000**2 */\n      0x0f4240\n        /* \"contracts/KajuswapPair.sol\":6554:6563  reserve1_ */\n      dup8\n        /* \"contracts/KajuswapPair.sol\":6546:6564  uint256(reserve1_) */\n      0xffffffffffffffffffffffffffff\n      and\n        /* \"contracts/KajuswapPair.sol\":6533:6542  reserve0_ */\n      dup10\n        /* \"contracts/KajuswapPair.sol\":6525:6543  uint256(reserve0_) */\n      0xffffffffffffffffffffffffffff\n      and\n        /* \"contracts/KajuswapPair.sol\":6525:6564  uint256(reserve0_) * uint256(reserve1_) */\n      tag_231\n      swap2\n      swap1\n      tag_165\n      jump\t// in\n    tag_231:\n        /* \"contracts/KajuswapPair.sol\":6525:6576  uint256(reserve0_) * uint256(reserve1_) * (1000**2) */\n      tag_232\n      swap2\n      swap1\n      tag_165\n      jump\t// in\n    tag_232:\n        /* \"contracts/KajuswapPair.sol\":6505:6521  balance1Adjusted */\n      dup2\n        /* \"contracts/KajuswapPair.sol\":6486:6502  balance0Adjusted */\n      dup4\n        /* \"contracts/KajuswapPair.sol\":6486:6521  balance0Adjusted * balance1Adjusted */\n      tag_233\n      swap2\n      swap1\n      tag_165\n      jump\t// in\n    tag_233:\n        /* \"contracts/KajuswapPair.sol\":6486:6576  balance0Adjusted * balance1Adjusted >= uint256(reserve0_) * uint256(reserve1_) * (1000**2) */\n      lt\n      iszero\n        /* \"contracts/KajuswapPair.sol\":6478:6600  require(balance0Adjusted * balance1Adjusted >= uint256(reserve0_) * uint256(reserve1_) * (1000**2), \"Kajuswap: INVALID_K\") */\n      tag_234\n      jumpi\n      mload(0x40)\n      0x08c379a000000000000000000000000000000000000000000000000000000000\n      dup2\n      mstore\n      0x04\n      add\n      tag_235\n      swap1\n      tag_236\n      jump\t// in\n    tag_235:\n      mload(0x40)\n      dup1\n      swap2\n      sub\n      swap1\n      revert\n    tag_234:\n        /* \"contracts/KajuswapPair.sol\":6611:6660  _update(balance0, balance1, reserve0_, reserve1_) */\n      tag_237\n        /* \"contracts/KajuswapPair.sol\":6619:6627  balance0 */\n      dup7\n        /* \"contracts/KajuswapPair.sol\":6629:6637  balance1 */\n      dup7\n        /* \"contracts/KajuswapPair.sol\":6639:6648  reserve0_ */\n      dup11\n        /* \"contracts/KajuswapPair.sol\":6650:6659  reserve1_ */\n      dup11\n        /* \"contracts/KajuswapPair.sol\":6611:6618  _update */\n      tag_183\n        /* \"contracts/KajuswapPair.sol\":6611:6660  _update(balance0, balance1, reserve0_, reserve1_) */\n      jump\t// in\n    tag_237:\n        /* \"contracts/KajuswapPair.sol\":6717:6719  to */\n      dup9\n        /* \"contracts/KajuswapPair.sol\":6676:6720  Swap(msg.sender, amount0Out, amount1Out, to) */\n      0xffffffffffffffffffffffffffffffffffffffff\n      and\n        /* \"contracts/KajuswapPair.sol\":6681:6691  msg.sender */\n      caller\n        /* \"contracts/KajuswapPair.sol\":6676:6720  Swap(msg.sender, amount0Out, amount1Out, to) */\n      0xffffffffffffffffffffffffffffffffffffffff\n      and\n      0x2a9237ff5aa599ef4c5ee4b1142b53429d5755e2685fe6288b2e3320202115f5\n        /* \"contracts/KajuswapPair.sol\":6693:6703  amount0Out */\n      dup14\n        /* \"contracts/KajuswapPair.sol\":6705:6715  amount1Out */\n      dup14\n        /* \"contracts/KajuswapPair.sol\":6676:6720  Swap(msg.sender, amount0Out, amount1Out, to) */\n      mload(0x40)\n      tag_238\n      swap3\n      swap2\n      swap1\n      tag_95\n      jump\t// in\n    tag_238:\n      mload(0x40)\n      dup1\n      swap2\n      sub\n      swap1\n      log3\n        /* \"contracts/KajuswapPair.sol\":4801:6728  {... */\n      pop\n      pop\n      pop\n      pop\n      pop\n      pop\n      pop\n      pop\n        /* \"contracts/KajuswapPair.sol\":1668:1673  false */\n      0x00\n        /* \"contracts/KajuswapPair.sol\":1656:1665  isEntered */\n      0x0c\n      0x00\n        /* \"contracts/KajuswapPair.sol\":1656:1673  isEntered = false */\n      0x0100\n      exp\n      dup2\n      sload\n      dup2\n      0xff\n      mul\n      not\n      and\n      swap1\n      dup4\n      iszero\n      iszero\n      mul\n      or\n      swap1\n      sstore\n      pop\n        /* \"contracts/KajuswapPair.sol\":4689:6728  function swap(... */\n      pop\n      pop\n      pop\n      jump\t// out\n        /* \"@rari-capital/solmate/src/tokens/ERC20.sol\":1334:1378  mapping(address => uint256) public balanceOf */\n    tag_85:\n      mstore(0x20, 0x03)\n      dup1\n      0x00\n      mstore\n      keccak256(0x00, 0x40)\n      0x00\n      swap2\n      pop\n      swap1\n      pop\n      sload\n      dup2\n      jump\t// out\n        /* \"@rari-capital/solmate/src/tokens/ERC20.sol\":1748:1789  mapping(address => uint256) public nonces */\n    tag_89:\n      mstore(0x20, 0x05)\n      dup1\n      0x00\n      mstore\n      keccak256(0x00, 0x40)\n      0x00\n      swap2\n      pop\n      swap1\n      pop\n      sload\n      dup2\n      jump\t// out\n        /* \"contracts/KajuswapPair.sol\":3637:4681  function burn(address to)... */\n    tag_93:\n        /* \"contracts/KajuswapPair.sol\":3711:3726  uint256 amount0 */\n      0x00\n        /* \"contracts/KajuswapPair.sol\":3728:3743  uint256 amount1 */\n      dup1\n        /* \"contracts/KajuswapPair.sol\":1550:1559  isEntered */\n      0x0c\n      0x00\n      swap1\n      sload\n      swap1\n      0x0100\n      exp\n      swap1\n      div\n      0xff\n      and\n        /* \"contracts/KajuswapPair.sol\":1549:1559  !isEntered */\n      iszero\n        /* \"contracts/KajuswapPair.sol\":1541:1606  require(!isEntered, \"Kajuswap: You cannot Enter in the contract\") */\n      tag_240\n      jumpi\n      mload(0x40)\n      0x08c379a000000000000000000000000000000000000000000000000000000000\n      dup2\n      mstore\n      0x04\n      add\n      tag_241\n      swap1\n      tag_148\n      jump\t// in\n    tag_241:\n      mload(0x40)\n      dup1\n      swap2\n      sub\n      swap1\n      revert\n    tag_240:\n        /* \"contracts/KajuswapPair.sol\":1629:1633  true */\n      0x01\n        /* \"contracts/KajuswapPair.sol\":1617:1626  isEntered */\n      0x0c\n      0x00\n        /* \"contracts/KajuswapPair.sol\":1617:1633  isEntered = true */\n      0x0100\n      exp\n      dup2\n      sload\n      dup2\n      0xff\n      mul\n      not\n      and\n      swap1\n      dup4\n      iszero\n      iszero\n      mul\n      or\n      swap1\n      sstore\n      pop\n        /* \"contracts/KajuswapPair.sol\":3761:3777  uint256 balance0 */\n      0x00\n        /* \"contracts/KajuswapPair.sol\":3787:3793  token0 */\n      0x07\n      0x00\n      swap1\n      sload\n      swap1\n      0x0100\n      exp\n      swap1\n      div\n      0xffffffffffffffffffffffffffffffffffffffff\n      and\n        /* \"contracts/KajuswapPair.sol\":3780:3804  IERC20(token0).balanceOf */\n      0xffffffffffffffffffffffffffffffffffffffff\n      and\n      0x70a08231\n        /* \"contracts/KajuswapPair.sol\":3813:3817  this */\n      address\n        /* \"contracts/KajuswapPair.sol\":3780:3819  IERC20(token0).balanceOf(address(this)) */\n      mload(0x40)\n      dup3\n      0xffffffff\n      and\n      0xe0\n      shl\n      dup2\n      mstore\n      0x04\n      add\n      tag_243\n      swap2\n      swap1\n      tag_46\n      jump\t// in\n    tag_243:\n      0x20\n      mload(0x40)\n      dup1\n      dup4\n      sub\n      dup2\n      0x00\n      dup8\n      gas\n      call\n      iszero\n      dup1\n      iszero\n      tag_245\n      jumpi\n      returndatasize\n      0x00\n      dup1\n      returndatacopy\n      revert(0x00, returndatasize)\n    tag_245:\n      pop\n      pop\n      pop\n      pop\n      mload(0x40)\n      returndatasize\n      not(0x1f)\n      0x1f\n      dup3\n      add\n      and\n      dup3\n      add\n      dup1\n      0x40\n      mstore\n      pop\n      dup2\n      add\n      swap1\n      tag_246\n      swap2\n      swap1\n      tag_155\n      jump\t// in\n    tag_246:\n        /* \"contracts/KajuswapPair.sol\":3761:3819  uint256 balance0 = IERC20(token0).balanceOf(address(this)) */\n      swap1\n      pop\n        /* \"contracts/KajuswapPair.sol\":3830:3846  uint256 balance1 */\n      0x00\n        /* \"contracts/KajuswapPair.sol\":3856:3862  token1 */\n      0x08\n      0x00\n      swap1\n      sload\n      swap1\n      0x0100\n      exp\n      swap1\n      div\n      0xffffffffffffffffffffffffffffffffffffffff\n      and\n        /* \"contracts/KajuswapPair.sol\":3849:3873  IERC20(token1).balanceOf */\n      0xffffffffffffffffffffffffffffffffffffffff\n      and\n      0x70a08231\n        /* \"contracts/KajuswapPair.sol\":3882:3886  this */\n      address\n        /* \"contracts/KajuswapPair.sol\":3849:3888  IERC20(token1).balanceOf(address(this)) */\n      mload(0x40)\n      dup3\n      0xffffffff\n      and\n      0xe0\n      shl\n      dup2\n      mstore\n      0x04\n      add\n      tag_247\n      swap2\n      swap1\n      tag_46\n      jump\t// in\n    tag_247:\n      0x20\n      mload(0x40)\n      dup1\n      dup4\n      sub\n      dup2\n      0x00\n      dup8\n      gas\n      call\n      iszero\n      dup1\n      iszero\n      tag_249\n      jumpi\n      returndatasize\n      0x00\n      dup1\n      returndatacopy\n      revert(0x00, returndatasize)\n    tag_249:\n      pop\n      pop\n      pop\n      pop\n      mload(0x40)\n      returndatasize\n      not(0x1f)\n      0x1f\n      dup3\n      add\n      and\n      dup3\n      add\n      dup1\n      0x40\n      mstore\n      pop\n      dup2\n      add\n      swap1\n      tag_250\n      swap2\n      swap1\n      tag_155\n      jump\t// in\n    tag_250:\n        /* \"contracts/KajuswapPair.sol\":3830:3888  uint256 balance1 = IERC20(token1).balanceOf(address(this)) */\n      swap1\n      pop\n        /* \"contracts/KajuswapPair.sol\":3899:3916  uint256 liquidity */\n      0x00\n        /* \"contracts/KajuswapPair.sol\":3919:3928  balanceOf */\n      0x03\n        /* \"contracts/KajuswapPair.sol\":3919:3943  balanceOf[address(this)] */\n      0x00\n        /* \"contracts/KajuswapPair.sol\":3937:3941  this */\n      address\n        /* \"contracts/KajuswapPair.sol\":3919:3943  balanceOf[address(this)] */\n      0xffffffffffffffffffffffffffffffffffffffff\n      and\n      0xffffffffffffffffffffffffffffffffffffffff\n      and\n      dup2\n      mstore\n      0x20\n      add\n      swap1\n      dup2\n      mstore\n      0x20\n      add\n      0x00\n      keccak256\n      sload\n        /* \"contracts/KajuswapPair.sol\":3899:3943  uint256 liquidity = balanceOf[address(this)] */\n      swap1\n      pop\n        /* \"contracts/KajuswapPair.sol\":3991:4002  totalSupply */\n      sload(0x02)\n        /* \"contracts/KajuswapPair.sol\":3979:3987  balance0 */\n      dup4\n        /* \"contracts/KajuswapPair.sol\":3967:3976  liquidity */\n      dup3\n        /* \"contracts/KajuswapPair.sol\":3967:3987  liquidity * balance0 */\n      tag_251\n      swap2\n      swap1\n      tag_165\n      jump\t// in\n    tag_251:\n        /* \"contracts/KajuswapPair.sol\":3966:4002  (liquidity * balance0) / totalSupply */\n      tag_252\n      swap2\n      swap1\n      tag_174\n      jump\t// in\n    tag_252:\n        /* \"contracts/KajuswapPair.sol\":3956:4002  amount0 = (liquidity * balance0) / totalSupply */\n      swap5\n      pop\n        /* \"contracts/KajuswapPair.sol\":4048:4059  totalSupply */\n      sload(0x02)\n        /* \"contracts/KajuswapPair.sol\":4036:4044  balance1 */\n      dup3\n        /* \"contracts/KajuswapPair.sol\":4024:4033  liquidity */\n      dup3\n        /* \"contracts/KajuswapPair.sol\":4024:4044  liquidity * balance1 */\n      tag_253\n      swap2\n      swap1\n      tag_165\n      jump\t// in\n    tag_253:\n        /* \"contracts/KajuswapPair.sol\":4023:4059  (liquidity * balance1) / totalSupply */\n      tag_254\n      swap2\n      swap1\n      tag_174\n      jump\t// in\n    tag_254:\n        /* \"contracts/KajuswapPair.sol\":4013:4059  amount1 = (liquidity * balance1) / totalSupply */\n      swap4\n      pop\n        /* \"contracts/KajuswapPair.sol\":4174:4175  0 */\n      0x00\n        /* \"contracts/KajuswapPair.sol\":4164:4171  amount0 */\n      dup6\n        /* \"contracts/KajuswapPair.sol\":4164:4175  amount0 > 0 */\n      gt\n        /* \"contracts/KajuswapPair.sol\":4164:4190  amount0 > 0 && amount1 > 0 */\n      dup1\n      iszero\n      tag_255\n      jumpi\n      pop\n        /* \"contracts/KajuswapPair.sol\":4189:4190  0 */\n      0x00\n        /* \"contracts/KajuswapPair.sol\":4179:4186  amount1 */\n      dup5\n        /* \"contracts/KajuswapPair.sol\":4179:4190  amount1 > 0 */\n      gt\n        /* \"contracts/KajuswapPair.sol\":4164:4190  amount0 > 0 && amount1 > 0 */\n    tag_255:\n        /* \"contracts/KajuswapPair.sol\":4156:4234  require(amount0 > 0 && amount1 > 0, \"Kajuswap: INSUFFICIENT_LIQUIDITY_BURNED\") */\n      tag_256\n      jumpi\n      mload(0x40)\n      0x08c379a000000000000000000000000000000000000000000000000000000000\n      dup2\n      mstore\n      0x04\n      add\n      tag_257\n      swap1\n      tag_258\n      jump\t// in\n    tag_257:\n      mload(0x40)\n      dup1\n      swap2\n      sub\n      swap1\n      revert\n    tag_256:\n        /* \"contracts/KajuswapPair.sol\":4247:4278  _burn(address(this), liquidity) */\n      tag_259\n        /* \"contracts/KajuswapPair.sol\":4261:4265  this */\n      address\n        /* \"contracts/KajuswapPair.sol\":4268:4277  liquidity */\n      dup3\n        /* \"contracts/KajuswapPair.sol\":4247:4252  _burn */\n      tag_260\n        /* \"contracts/KajuswapPair.sol\":4247:4278  _burn(address(this), liquidity) */\n      jump\t// in\n    tag_259:\n        /* \"contracts/KajuswapPair.sol\":4289:4323  _safeTransfer(token0, to, amount0) */\n      tag_261\n        /* \"contracts/KajuswapPair.sol\":4303:4309  token0 */\n      0x07\n      0x00\n      swap1\n      sload\n      swap1\n      0x0100\n      exp\n      swap1\n      div\n      0xffffffffffffffffffffffffffffffffffffffff\n      and\n        /* \"contracts/KajuswapPair.sol\":4311:4313  to */\n      dup8\n        /* \"contracts/KajuswapPair.sol\":4315:4322  amount0 */\n      dup8\n        /* \"contracts/KajuswapPair.sol\":4289:4302  _safeTransfer */\n      tag_200\n        /* \"contracts/KajuswapPair.sol\":4289:4323  _safeTransfer(token0, to, amount0) */\n      jump\t// in\n    tag_261:\n        /* \"contracts/KajuswapPair.sol\":4334:4368  _safeTransfer(token1, to, amount1) */\n      tag_262\n        /* \"contracts/KajuswapPair.sol\":4348:4354  token1 */\n      0x08\n      0x00\n      swap1\n      sload\n      swap1\n      0x0100\n      exp\n      swap1\n      div\n      0xffffffffffffffffffffffffffffffffffffffff\n      and\n        /* \"contracts/KajuswapPair.sol\":4356:4358  to */\n      dup8\n        /* \"contracts/KajuswapPair.sol\":4360:4367  amount1 */\n      dup7\n        /* \"contracts/KajuswapPair.sol\":4334:4347  _safeTransfer */\n      tag_200\n        /* \"contracts/KajuswapPair.sol\":4334:4368  _safeTransfer(token1, to, amount1) */\n      jump\t// in\n    tag_262:\n        /* \"contracts/KajuswapPair.sol\":4397:4403  token0 */\n      0x07\n      0x00\n      swap1\n      sload\n      swap1\n      0x0100\n      exp\n      swap1\n      div\n      0xffffffffffffffffffffffffffffffffffffffff\n      and\n        /* \"contracts/KajuswapPair.sol\":4390:4414  IERC20(token0).balanceOf */\n      0xffffffffffffffffffffffffffffffffffffffff\n      and\n      0x70a08231\n        /* \"contracts/KajuswapPair.sol\":4423:4427  this */\n      address\n        /* \"contracts/KajuswapPair.sol\":4390:4429  IERC20(token0).balanceOf(address(this)) */\n      mload(0x40)\n      dup3\n      0xffffffff\n      and\n      0xe0\n      shl\n      dup2\n      mstore\n      0x04\n      add\n      tag_263\n      swap2\n      swap1\n      tag_46\n      jump\t// in\n    tag_263:\n      0x20\n      mload(0x40)\n      dup1\n      dup4\n      sub\n      dup2\n      0x00\n      dup8\n      gas\n      call\n      iszero\n      dup1\n      iszero\n      tag_265\n      jumpi\n      returndatasize\n      0x00\n      dup1\n      returndatacopy\n      revert(0x00, returndatasize)\n    tag_265:\n      pop\n      pop\n      pop\n      pop\n      mload(0x40)\n      returndatasize\n      not(0x1f)\n      0x1f\n      dup3\n      add\n      and\n      dup3\n      add\n      dup1\n      0x40\n      mstore\n      pop\n      dup2\n      add\n      swap1\n      tag_266\n      swap2\n      swap1\n      tag_155\n      jump\t// in\n    tag_266:\n        /* \"contracts/KajuswapPair.sol\":4379:4429  balance0 = IERC20(token0).balanceOf(address(this)) */\n      swap3\n      pop\n        /* \"contracts/KajuswapPair.sol\":4458:4464  token1 */\n      0x08\n      0x00\n      swap1\n      sload\n      swap1\n      0x0100\n      exp\n      swap1\n      div\n      0xffffffffffffffffffffffffffffffffffffffff\n      and\n        /* \"contracts/KajuswapPair.sol\":4451:4475  IERC20(token1).balanceOf */\n      0xffffffffffffffffffffffffffffffffffffffff\n      and\n      0x70a08231\n        /* \"contracts/KajuswapPair.sol\":4484:4488  this */\n      address\n        /* \"contracts/KajuswapPair.sol\":4451:4490  IERC20(token1).balanceOf(address(this)) */\n      mload(0x40)\n      dup3\n      0xffffffff\n      and\n      0xe0\n      shl\n      dup2\n      mstore\n      0x04\n      add\n      tag_267\n      swap2\n      swap1\n      tag_46\n      jump\t// in\n    tag_267:\n      0x20\n      mload(0x40)\n      dup1\n      dup4\n      sub\n      dup2\n      0x00\n      dup8\n      gas\n      call\n      iszero\n      dup1\n      iszero\n      tag_269\n      jumpi\n      returndatasize\n      0x00\n      dup1\n      returndatacopy\n      revert(0x00, returndatasize)\n    tag_269:\n      pop\n      pop\n      pop\n      pop\n      mload(0x40)\n      returndatasize\n      not(0x1f)\n      0x1f\n      dup3\n      add\n      and\n      dup3\n      add\n      dup1\n      0x40\n      mstore\n      pop\n      dup2\n      add\n      swap1\n      tag_270\n      swap2\n      swap1\n      tag_155\n      jump\t// in\n    tag_270:\n        /* \"contracts/KajuswapPair.sol\":4440:4490  balance1 = IERC20(token1).balanceOf(address(this)) */\n      swap2\n      pop\n        /* \"contracts/KajuswapPair.sol\":4502:4519  uint112 reserve0_ */\n      0x00\n        /* \"contracts/KajuswapPair.sol\":4521:4538  uint112 reserve1_ */\n      dup1\n        /* \"contracts/KajuswapPair.sol\":4544:4557  getReserves() */\n      tag_271\n        /* \"contracts/KajuswapPair.sol\":4544:4555  getReserves */\n      tag_34\n        /* \"contracts/KajuswapPair.sol\":4544:4557  getReserves() */\n      jump\t// in\n    tag_271:\n        /* \"contracts/KajuswapPair.sol\":4501:4557  (uint112 reserve0_, uint112 reserve1_, ) = getReserves() */\n      pop\n      swap2\n      pop\n      swap2\n      pop\n        /* \"contracts/KajuswapPair.sol\":4568:4617  _update(balance0, balance1, reserve0_, reserve1_) */\n      tag_272\n        /* \"contracts/KajuswapPair.sol\":4576:4584  balance0 */\n      dup6\n        /* \"contracts/KajuswapPair.sol\":4586:4594  balance1 */\n      dup6\n        /* \"contracts/KajuswapPair.sol\":4596:4605  reserve0_ */\n      dup5\n        /* \"contracts/KajuswapPair.sol\":4607:4616  reserve1_ */\n      dup5\n        /* \"contracts/KajuswapPair.sol\":4568:4575  _update */\n      tag_183\n        /* \"contracts/KajuswapPair.sol\":4568:4617  _update(balance0, balance1, reserve0_, reserve1_) */\n      jump\t// in\n    tag_272:\n        /* \"contracts/KajuswapPair.sol\":4640:4650  msg.sender */\n      caller\n        /* \"contracts/KajuswapPair.sol\":4635:4673  Burn(msg.sender, amount0, amount1, to) */\n      0xffffffffffffffffffffffffffffffffffffffff\n      and\n      0xdccd412f0b1252819cb1fd330b93224ca42612892bb3f4f789976e6d81936496\n        /* \"contracts/KajuswapPair.sol\":4652:4659  amount0 */\n      dup9\n        /* \"contracts/KajuswapPair.sol\":4661:4668  amount1 */\n      dup9\n        /* \"contracts/KajuswapPair.sol\":4670:4672  to */\n      dup12\n        /* \"contracts/KajuswapPair.sol\":4635:4673  Burn(msg.sender, amount0, amount1, to) */\n      mload(0x40)\n      tag_273\n      swap4\n      swap3\n      swap2\n      swap1\n      tag_274\n      jump\t// in\n    tag_273:\n      mload(0x40)\n      dup1\n      swap2\n      sub\n      swap1\n      log2\n        /* \"contracts/KajuswapPair.sol\":3750:4681  {... */\n      pop\n      pop\n      pop\n      pop\n      pop\n        /* \"contracts/KajuswapPair.sol\":1668:1673  false */\n      0x00\n        /* \"contracts/KajuswapPair.sol\":1656:1665  isEntered */\n      0x0c\n      0x00\n        /* \"contracts/KajuswapPair.sol\":1656:1673  isEntered = false */\n      0x0100\n      exp\n      dup2\n      sload\n      dup2\n      0xff\n      mul\n      not\n      and\n      swap1\n      dup4\n      iszero\n      iszero\n      mul\n      or\n      swap1\n      sstore\n      pop\n        /* \"contracts/KajuswapPair.sol\":3637:4681  function burn(address to)... */\n      swap2\n      pop\n      swap2\n      jump\t// out\n        /* \"@rari-capital/solmate/src/tokens/ERC20.sol\":1053:1073  string public symbol */\n    tag_97:\n      0x01\n      dup1\n      sload\n      tag_275\n      swap1\n      tag_120\n      jump\t// in\n    tag_275:\n      dup1\n      0x1f\n      add\n      0x20\n      dup1\n      swap2\n      div\n      mul\n      0x20\n      add\n      mload(0x40)\n      swap1\n      dup2\n      add\n      0x40\n      mstore\n      dup1\n      swap3\n      swap2\n      swap1\n      dup2\n      dup2\n      mstore\n      0x20\n      add\n      dup3\n      dup1\n      sload\n      tag_276\n      swap1\n      tag_120\n      jump\t// in\n    tag_276:\n      dup1\n      iszero\n      tag_277\n      jumpi\n      dup1\n      0x1f\n      lt\n      tag_278\n      jumpi\n      0x0100\n      dup1\n      dup4\n      sload\n      div\n      mul\n      dup4\n      mstore\n      swap2\n      0x20\n      add\n      swap2\n      jump(tag_277)\n    tag_278:\n      dup3\n      add\n      swap2\n      swap1\n      0x00\n      mstore\n      keccak256(0x00, 0x20)\n      swap1\n    tag_279:\n      dup2\n      sload\n      dup2\n      mstore\n      swap1\n      0x01\n      add\n      swap1\n      0x20\n      add\n      dup1\n      dup4\n      gt\n      tag_279\n      jumpi\n      dup3\n      swap1\n      sub\n      0x1f\n      and\n      dup3\n      add\n      swap2\n    tag_277:\n      pop\n      pop\n      pop\n      pop\n      pop\n      dup2\n      jump\t// out\n        /* \"@rari-capital/solmate/src/tokens/ERC20.sol\":2675:3048  function transfer(address to, uint256 amount) public virtual returns (bool) {... */\n    tag_101:\n        /* \"@rari-capital/solmate/src/tokens/ERC20.sol\":2745:2749  bool */\n      0x00\n        /* \"@rari-capital/solmate/src/tokens/ERC20.sol\":2786:2792  amount */\n      dup2\n        /* \"@rari-capital/solmate/src/tokens/ERC20.sol\":2761:2770  balanceOf */\n      0x03\n        /* \"@rari-capital/solmate/src/tokens/ERC20.sol\":2761:2782  balanceOf[msg.sender] */\n      0x00\n        /* \"@rari-capital/solmate/src/tokens/ERC20.sol\":2771:2781  msg.sender */\n      caller\n        /* \"@rari-capital/solmate/src/tokens/ERC20.sol\":2761:2782  balanceOf[msg.sender] */\n      0xffffffffffffffffffffffffffffffffffffffff\n      and\n      0xffffffffffffffffffffffffffffffffffffffff\n      and\n      dup2\n      mstore\n      0x20\n      add\n      swap1\n      dup2\n      mstore\n      0x20\n      add\n      0x00\n      keccak256\n      0x00\n        /* \"@rari-capital/solmate/src/tokens/ERC20.sol\":2761:2792  balanceOf[msg.sender] -= amount */\n      dup3\n      dup3\n      sload\n      tag_281\n      swap2\n      swap1\n      tag_131\n      jump\t// in\n    tag_281:\n      swap3\n      pop\n      pop\n      dup2\n      swap1\n      sstore\n      pop\n        /* \"@rari-capital/solmate/src/tokens/ERC20.sol\":2955:2961  amount */\n      dup2\n        /* \"@rari-capital/solmate/src/tokens/ERC20.sol\":2938:2947  balanceOf */\n      0x03\n        /* \"@rari-capital/solmate/src/tokens/ERC20.sol\":2938:2951  balanceOf[to] */\n      0x00\n        /* \"@rari-capital/solmate/src/tokens/ERC20.sol\":2948:2950  to */\n      dup6\n        /* \"@rari-capital/solmate/src/tokens/ERC20.sol\":2938:2951  balanceOf[to] */\n      0xffffffffffffffffffffffffffffffffffffffff\n      and\n      0xffffffffffffffffffffffffffffffffffffffff\n      and\n      dup2\n      mstore\n      0x20\n      add\n      swap1\n      dup2\n      mstore\n      0x20\n      add\n      0x00\n      keccak256\n      0x00\n        /* \"@rari-capital/solmate/src/tokens/ERC20.sol\":2938:2961  balanceOf[to] += amount */\n      dup3\n      dup3\n      sload\n      add\n      swap3\n      pop\n      pop\n      dup2\n      swap1\n      sstore\n      pop\n        /* \"@rari-capital/solmate/src/tokens/ERC20.sol\":3008:3010  to */\n      dup3\n        /* \"@rari-capital/solmate/src/tokens/ERC20.sol\":2987:3019  Transfer(msg.sender, to, amount) */\n      0xffffffffffffffffffffffffffffffffffffffff\n      and\n        /* \"@rari-capital/solmate/src/tokens/ERC20.sol\":2996:3006  msg.sender */\n      caller\n        /* \"@rari-capital/solmate/src/tokens/ERC20.sol\":2987:3019  Transfer(msg.sender, to, amount) */\n      0xffffffffffffffffffffffffffffffffffffffff\n      and\n      0xddf252ad1be2c89b69c2b068fc378daa952ba7f163c4a11628f55a4df523b3ef\n        /* \"@rari-capital/solmate/src/tokens/ERC20.sol\":3012:3018  amount */\n      dup5\n        /* \"@rari-capital/solmate/src/tokens/ERC20.sol\":2987:3019  Transfer(msg.sender, to, amount) */\n      mload(0x40)\n      tag_282\n      swap2\n      swap1\n      tag_50\n      jump\t// in\n    tag_282:\n      mload(0x40)\n      dup1\n      swap2\n      sub\n      swap1\n      log3\n        /* \"@rari-capital/solmate/src/tokens/ERC20.sol\":3037:3041  true */\n      0x01\n        /* \"@rari-capital/solmate/src/tokens/ERC20.sol\":3030:3041  return true */\n      swap1\n      pop\n        /* \"@rari-capital/solmate/src/tokens/ERC20.sol\":2675:3048  function transfer(address to, uint256 amount) public virtual returns (bool) {... */\n      swap3\n      swap2\n      pop\n      pop\n      jump\t// out\n        /* \"contracts/KajuswapPair.sol\":744:766  address public factory */\n    tag_104:\n      0x06\n      0x00\n      swap1\n      sload\n      swap1\n      0x0100\n      exp\n      swap1\n      div\n      0xffffffffffffffffffffffffffffffffffffffff\n      and\n      dup2\n      jump\t// out\n        /* \"contracts/KajuswapPair.sol\":801:822  address public token1 */\n    tag_107:\n      0x08\n      0x00\n      swap1\n      sload\n      swap1\n      0x0100\n      exp\n      swap1\n      div\n      0xffffffffffffffffffffffffffffffffffffffff\n      and\n      dup2\n      jump\t// out\n        /* \"@rari-capital/solmate/src/tokens/ERC20.sol\":3835:5318  function permit(... */\n    tag_112:\n        /* \"@rari-capital/solmate/src/tokens/ERC20.sol\":4054:4069  block.timestamp */\n      timestamp\n        /* \"@rari-capital/solmate/src/tokens/ERC20.sol\":4042:4050  deadline */\n      dup5\n        /* \"@rari-capital/solmate/src/tokens/ERC20.sol\":4042:4069  deadline >= block.timestamp */\n      lt\n      iszero\n        /* \"@rari-capital/solmate/src/tokens/ERC20.sol\":4034:4097  require(deadline >= block.timestamp, \"PERMIT_DEADLINE_EXPIRED\") */\n      tag_284\n      jumpi\n      mload(0x40)\n      0x08c379a000000000000000000000000000000000000000000000000000000000\n      dup2\n      mstore\n      0x04\n      add\n      tag_285\n      swap1\n      tag_286\n      jump\t// in\n    tag_285:\n      mload(0x40)\n      dup1\n      swap2\n      sub\n      swap1\n      revert\n    tag_284:\n        /* \"@rari-capital/solmate/src/tokens/ERC20.sol\":4262:4286  address recoveredAddress */\n      0x00\n        /* \"@rari-capital/solmate/src/tokens/ERC20.sol\":4289:5094  ecrecover(... */\n      0x01\n        /* \"@rari-capital/solmate/src/tokens/ERC20.sol\":4425:4443  DOMAIN_SEPARATOR() */\n      tag_287\n        /* \"@rari-capital/solmate/src/tokens/ERC20.sol\":4425:4441  DOMAIN_SEPARATOR */\n      tag_61\n        /* \"@rari-capital/solmate/src/tokens/ERC20.sol\":4425:4443  DOMAIN_SEPARATOR() */\n      jump\t// in\n    tag_287:\n        /* \"@rari-capital/solmate/src/tokens/ERC20.sol\":4552:4717  keccak256(... */\n      0x6e71edae12b1b97f4d1f60370fef10105fa2faae0126114a169c64845d6126c9\n        /* \"@rari-capital/solmate/src/tokens/ERC20.sol\":4751:4756  owner */\n      dup11\n        /* \"@rari-capital/solmate/src/tokens/ERC20.sol\":4790:4797  spender */\n      dup11\n        /* \"@rari-capital/solmate/src/tokens/ERC20.sol\":4831:4836  value */\n      dup11\n        /* \"@rari-capital/solmate/src/tokens/ERC20.sol\":4870:4876  nonces */\n      0x05\n        /* \"@rari-capital/solmate/src/tokens/ERC20.sol\":4870:4883  nonces[owner] */\n      0x00\n        /* \"@rari-capital/solmate/src/tokens/ERC20.sol\":4877:4882  owner */\n      dup16\n        /* \"@rari-capital/solmate/src/tokens/ERC20.sol\":4870:4883  nonces[owner] */\n      0xffffffffffffffffffffffffffffffffffffffff\n      and\n      0xffffffffffffffffffffffffffffffffffffffff\n      and\n      dup2\n      mstore\n      0x20\n      add\n      swap1\n      dup2\n      mstore\n      0x20\n      add\n      0x00\n      keccak256\n      0x00\n        /* \"@rari-capital/solmate/src/tokens/ERC20.sol\":4870:4885  nonces[owner]++ */\n      dup2\n      sload\n      dup1\n      swap3\n      swap2\n      swap1\n      0x01\n      add\n      swap2\n      swap1\n      pop\n      sstore\n        /* \"@rari-capital/solmate/src/tokens/ERC20.sol\":4919:4927  deadline */\n      dup12\n        /* \"@rari-capital/solmate/src/tokens/ERC20.sol\":4508:4957  abi.encode(... */\n      add(0x20, mload(0x40))\n      tag_288\n      swap7\n      swap6\n      swap5\n      swap4\n      swap3\n      swap2\n      swap1\n      tag_289\n      jump\t// in\n    tag_288:\n      mload(0x40)\n      0x20\n      dup2\n      dup4\n      sub\n      sub\n      dup2\n      mstore\n      swap1\n      0x40\n      mstore\n        /* \"@rari-capital/solmate/src/tokens/ERC20.sol\":4469:4983  keccak256(... */\n      dup1\n      mload\n      swap1\n      0x20\n      add\n      keccak256\n        /* \"@rari-capital/solmate/src/tokens/ERC20.sol\":4347:5005  abi.encodePacked(... */\n      add(0x20, mload(0x40))\n      tag_290\n      swap3\n      swap2\n      swap1\n      tag_291\n      jump\t// in\n    tag_290:\n      mload(0x40)\n      0x20\n      dup2\n      dup4\n      sub\n      sub\n      dup2\n      mstore\n      swap1\n      0x40\n      mstore\n        /* \"@rari-capital/solmate/src/tokens/ERC20.sol\":4316:5023  keccak256(... */\n      dup1\n      mload\n      swap1\n      0x20\n      add\n      keccak256\n        /* \"@rari-capital/solmate/src/tokens/ERC20.sol\":5041:5042  v */\n      dup6\n        /* \"@rari-capital/solmate/src/tokens/ERC20.sol\":5060:5061  r */\n      dup6\n        /* \"@rari-capital/solmate/src/tokens/ERC20.sol\":5079:5080  s */\n      dup6\n        /* \"@rari-capital/solmate/src/tokens/ERC20.sol\":4289:5094  ecrecover(... */\n      mload(0x40)\n      0x00\n      dup2\n      mstore\n      0x20\n      add\n      0x40\n      mstore\n      mload(0x40)\n      tag_292\n      swap5\n      swap4\n      swap3\n      swap2\n      swap1\n      tag_293\n      jump\t// in\n    tag_292:\n      0x20\n      mload(0x40)\n      0x20\n      dup2\n      sub\n      swap1\n      dup1\n      dup5\n      sub\n      swap1\n      dup6\n      gas\n      staticcall\n      iszero\n      dup1\n      iszero\n      tag_295\n      jumpi\n      returndatasize\n      0x00\n      dup1\n      returndatacopy\n      revert(0x00, returndatasize)\n    tag_295:\n      pop\n      pop\n      pop\n      mload(sub(mload(0x40), 0x20))\n        /* \"@rari-capital/solmate/src/tokens/ERC20.sol\":4262:5094  address recoveredAddress = ecrecover(... */\n      swap1\n      pop\n        /* \"@rari-capital/solmate/src/tokens/ERC20.sol\":5145:5146  0 */\n      0x00\n        /* \"@rari-capital/solmate/src/tokens/ERC20.sol\":5117:5147  recoveredAddress != address(0) */\n      0xffffffffffffffffffffffffffffffffffffffff\n      and\n        /* \"@rari-capital/solmate/src/tokens/ERC20.sol\":5117:5133  recoveredAddress */\n      dup2\n        /* \"@rari-capital/solmate/src/tokens/ERC20.sol\":5117:5147  recoveredAddress != address(0) */\n      0xffffffffffffffffffffffffffffffffffffffff\n      and\n      eq\n      iszero\n        /* \"@rari-capital/solmate/src/tokens/ERC20.sol\":5117:5176  recoveredAddress != address(0) && recoveredAddress == owner */\n      dup1\n      iszero\n      tag_296\n      jumpi\n      pop\n        /* \"@rari-capital/solmate/src/tokens/ERC20.sol\":5171:5176  owner */\n      dup8\n        /* \"@rari-capital/solmate/src/tokens/ERC20.sol\":5151:5176  recoveredAddress == owner */\n      0xffffffffffffffffffffffffffffffffffffffff\n      and\n        /* \"@rari-capital/solmate/src/tokens/ERC20.sol\":5151:5167  recoveredAddress */\n      dup2\n        /* \"@rari-capital/solmate/src/tokens/ERC20.sol\":5151:5176  recoveredAddress == owner */\n      0xffffffffffffffffffffffffffffffffffffffff\n      and\n      eq\n        /* \"@rari-capital/solmate/src/tokens/ERC20.sol\":5117:5176  recoveredAddress != address(0) && recoveredAddress == owner */\n    tag_296:\n        /* \"@rari-capital/solmate/src/tokens/ERC20.sol\":5109:5195  require(recoveredAddress != address(0) && recoveredAddress == owner, \"INVALID_SIGNER\") */\n      tag_297\n      jumpi\n      mload(0x40)\n      0x08c379a000000000000000000000000000000000000000000000000000000000\n      dup2\n      mstore\n      0x04\n      add\n      tag_298\n      swap1\n      tag_299\n      jump\t// in\n    tag_298:\n      mload(0x40)\n      dup1\n      swap2\n      sub\n      swap1\n      revert\n    tag_297:\n        /* \"@rari-capital/solmate/src/tokens/ERC20.sol\":5249:5254  value */\n      dup6\n        /* \"@rari-capital/solmate/src/tokens/ERC20.sol\":5210:5219  allowance */\n      0x04\n        /* \"@rari-capital/solmate/src/tokens/ERC20.sol\":5210:5237  allowance[recoveredAddress] */\n      0x00\n        /* \"@rari-capital/solmate/src/tokens/ERC20.sol\":5220:5236  recoveredAddress */\n      dup4\n        /* \"@rari-capital/solmate/src/tokens/ERC20.sol\":5210:5237  allowance[recoveredAddress] */\n      0xffffffffffffffffffffffffffffffffffffffff\n      and\n      0xffffffffffffffffffffffffffffffffffffffff\n      and\n      dup2\n      mstore\n      0x20\n      add\n      swap1\n      dup2\n      mstore\n      0x20\n      add\n      0x00\n      keccak256\n        /* \"@rari-capital/solmate/src/tokens/ERC20.sol\":5210:5246  allowance[recoveredAddress][spender] */\n      0x00\n        /* \"@rari-capital/solmate/src/tokens/ERC20.sol\":5238:5245  spender */\n      dup10\n        /* \"@rari-capital/solmate/src/tokens/ERC20.sol\":5210:5246  allowance[recoveredAddress][spender] */\n      0xffffffffffffffffffffffffffffffffffffffff\n      and\n      0xffffffffffffffffffffffffffffffffffffffff\n      and\n      dup2\n      mstore\n      0x20\n      add\n      swap1\n      dup2\n      mstore\n      0x20\n      add\n      0x00\n      keccak256\n        /* \"@rari-capital/solmate/src/tokens/ERC20.sol\":5210:5254  allowance[recoveredAddress][spender] = value */\n      dup2\n      swap1\n      sstore\n      pop\n        /* \"@rari-capital/solmate/src/tokens/ERC20.sol\":4238:5265  unchecked {... */\n      pop\n        /* \"@rari-capital/solmate/src/tokens/ERC20.sol\":5296:5303  spender */\n      dup6\n        /* \"@rari-capital/solmate/src/tokens/ERC20.sol\":5280:5311  Approval(owner, spender, value) */\n      0xffffffffffffffffffffffffffffffffffffffff\n      and\n        /* \"@rari-capital/solmate/src/tokens/ERC20.sol\":5289:5294  owner */\n      dup8\n        /* \"@rari-capital/solmate/src/tokens/ERC20.sol\":5280:5311  Approval(owner, spender, value) */\n      0xffffffffffffffffffffffffffffffffffffffff\n      and\n      0x8c5be1e5ebec7d5bd14f71427d1e84f3dd0314c0f7b2291e5b200ac8c7c3b925\n        /* \"@rari-capital/solmate/src/tokens/ERC20.sol\":5305:5310  value */\n      dup8\n        /* \"@rari-capital/solmate/src/tokens/ERC20.sol\":5280:5311  Approval(owner, spender, value) */\n      mload(0x40)\n      tag_300\n      swap2\n      swap1\n      tag_50\n      jump\t// in\n    tag_300:\n      mload(0x40)\n      dup1\n      swap2\n      sub\n      swap1\n      log3\n        /* \"@rari-capital/solmate/src/tokens/ERC20.sol\":3835:5318  function permit(... */\n      pop\n      pop\n      pop\n      pop\n      pop\n      pop\n      pop\n      jump\t// out\n        /* \"@rari-capital/solmate/src/tokens/ERC20.sol\":1385:1449  mapping(address => mapping(address => uint256)) public allowance */\n    tag_115:\n      mstore(0x20, 0x04)\n      dup2\n      0x00\n      mstore\n      mstore(0x20, keccak256(0x00, 0x40))\n      dup1\n      0x00\n      mstore\n      keccak256(0x00, 0x40)\n      0x00\n      swap2\n      pop\n      swap2\n      pop\n      pop\n      sload\n      dup2\n      jump\t// out\n        /* \"contracts/KajuswapPair.sol\":6736:7024  function sync() public lock {... */\n    tag_118:\n        /* \"contracts/KajuswapPair.sol\":1550:1559  isEntered */\n      0x0c\n      0x00\n      swap1\n      sload\n      swap1\n      0x0100\n      exp\n      swap1\n      div\n      0xff\n      and\n        /* \"contracts/KajuswapPair.sol\":1549:1559  !isEntered */\n      iszero\n        /* \"contracts/KajuswapPair.sol\":1541:1606  require(!isEntered, \"Kajuswap: You cannot Enter in the contract\") */\n      tag_302\n      jumpi\n      mload(0x40)\n      0x08c379a000000000000000000000000000000000000000000000000000000000\n      dup2\n      mstore\n      0x04\n      add\n      tag_303\n      swap1\n      tag_148\n      jump\t// in\n    tag_303:\n      mload(0x40)\n      dup1\n      swap2\n      sub\n      swap1\n      revert\n    tag_302:\n        /* \"contracts/KajuswapPair.sol\":1629:1633  true */\n      0x01\n        /* \"contracts/KajuswapPair.sol\":1617:1626  isEntered */\n      0x0c\n      0x00\n        /* \"contracts/KajuswapPair.sol\":1617:1633  isEntered = true */\n      0x0100\n      exp\n      dup2\n      sload\n      dup2\n      0xff\n      mul\n      not\n      and\n      swap1\n      dup4\n      iszero\n      iszero\n      mul\n      or\n      swap1\n      sstore\n      pop\n        /* \"contracts/KajuswapPair.sol\":6776:6793  uint112 reserve0_ */\n      0x00\n        /* \"contracts/KajuswapPair.sol\":6795:6812  uint112 reserve1_ */\n      dup1\n        /* \"contracts/KajuswapPair.sol\":6818:6831  getReserves() */\n      tag_305\n        /* \"contracts/KajuswapPair.sol\":6818:6829  getReserves */\n      tag_34\n        /* \"contracts/KajuswapPair.sol\":6818:6831  getReserves() */\n      jump\t// in\n    tag_305:\n        /* \"contracts/KajuswapPair.sol\":6775:6831  (uint112 reserve0_, uint112 reserve1_, ) = getReserves() */\n      pop\n      swap2\n      pop\n      swap2\n      pop\n        /* \"contracts/KajuswapPair.sol\":6842:7016  _update(... */\n      tag_306\n        /* \"contracts/KajuswapPair.sol\":6871:6877  token0 */\n      0x07\n      0x00\n      swap1\n      sload\n      swap1\n      0x0100\n      exp\n      swap1\n      div\n      0xffffffffffffffffffffffffffffffffffffffff\n      and\n        /* \"contracts/KajuswapPair.sol\":6864:6888  IERC20(token0).balanceOf */\n      0xffffffffffffffffffffffffffffffffffffffff\n      and\n      0x70a08231\n        /* \"contracts/KajuswapPair.sol\":6897:6901  this */\n      address\n        /* \"contracts/KajuswapPair.sol\":6864:6903  IERC20(token0).balanceOf(address(this)) */\n      mload(0x40)\n      dup3\n      0xffffffff\n      and\n      0xe0\n      shl\n      dup2\n      mstore\n      0x04\n      add\n      tag_307\n      swap2\n      swap1\n      tag_46\n      jump\t// in\n    tag_307:\n      0x20\n      mload(0x40)\n      dup1\n      dup4\n      sub\n      dup2\n      0x00\n      dup8\n      gas\n      call\n      iszero\n      dup1\n      iszero\n      tag_309\n      jumpi\n      returndatasize\n      0x00\n      dup1\n      returndatacopy\n      revert(0x00, returndatasize)\n    tag_309:\n      pop\n      pop\n      pop\n      pop\n      mload(0x40)\n      returndatasize\n      not(0x1f)\n      0x1f\n      dup3\n      add\n      and\n      dup3\n      add\n      dup1\n      0x40\n      mstore\n      pop\n      dup2\n      add\n      swap1\n      tag_310\n      swap2\n      swap1\n      tag_155\n      jump\t// in\n    tag_310:\n        /* \"contracts/KajuswapPair.sol\":6925:6931  token1 */\n      0x08\n      0x00\n      swap1\n      sload\n      swap1\n      0x0100\n      exp\n      swap1\n      div\n      0xffffffffffffffffffffffffffffffffffffffff\n      and\n        /* \"contracts/KajuswapPair.sol\":6918:6942  IERC20(token1).balanceOf */\n      0xffffffffffffffffffffffffffffffffffffffff\n      and\n      0x70a08231\n        /* \"contracts/KajuswapPair.sol\":6951:6955  this */\n      address\n        /* \"contracts/KajuswapPair.sol\":6918:6957  IERC20(token1).balanceOf(address(this)) */\n      mload(0x40)\n      dup3\n      0xffffffff\n      and\n      0xe0\n      shl\n      dup2\n      mstore\n      0x04\n      add\n      tag_311\n      swap2\n      swap1\n      tag_46\n      jump\t// in\n    tag_311:\n      0x20\n      mload(0x40)\n      dup1\n      dup4\n      sub\n      dup2\n      0x00\n      dup8\n      gas\n      call\n      iszero\n      dup1\n      iszero\n      tag_313\n      jumpi\n      returndatasize\n      0x00\n      dup1\n      returndatacopy\n      revert(0x00, returndatasize)\n    tag_313:\n      pop\n      pop\n      pop\n      pop\n      mload(0x40)\n      returndatasize\n      not(0x1f)\n      0x1f\n      dup3\n      add\n      and\n      dup3\n      add\n      dup1\n      0x40\n      mstore\n      pop\n      dup2\n      add\n      swap1\n      tag_314\n      swap2\n      swap1\n      tag_155\n      jump\t// in\n    tag_314:\n        /* \"contracts/KajuswapPair.sol\":6972:6981  reserve0_ */\n      dup5\n        /* \"contracts/KajuswapPair.sol\":6996:7005  reserve1_ */\n      dup5\n        /* \"contracts/KajuswapPair.sol\":6842:6849  _update */\n      tag_183\n        /* \"contracts/KajuswapPair.sol\":6842:7016  _update(... */\n      jump\t// in\n    tag_306:\n        /* \"contracts/KajuswapPair.sol\":6764:7024  {... */\n      pop\n      pop\n        /* \"contracts/KajuswapPair.sol\":1668:1673  false */\n      0x00\n        /* \"contracts/KajuswapPair.sol\":1656:1665  isEntered */\n      0x0c\n      0x00\n        /* \"contracts/KajuswapPair.sol\":1656:1673  isEntered = false */\n      0x0100\n      exp\n      dup2\n      sload\n      dup2\n      0xff\n      mul\n      not\n      and\n      swap1\n      dup4\n      iszero\n      iszero\n      mul\n      or\n      swap1\n      sstore\n      pop\n        /* \"contracts/KajuswapPair.sol\":6736:7024  function sync() public lock {... */\n      jump\t// out\n        /* \"@rari-capital/solmate/src/tokens/ERC20.sol\":5507:5953  function computeDomainSeparator() internal view virtual returns (bytes32) {... */\n    tag_137:\n        /* \"@rari-capital/solmate/src/tokens/ERC20.sol\":5572:5579  bytes32 */\n      0x00\n        /* \"@rari-capital/solmate/src/tokens/ERC20.sol\":5669:5764  keccak256(\"EIP712Domain(string name,string version,uint256 chainId,address verifyingContract)\") */\n      0x8b73c3c69bb8fe3d512ecc4cf759cc79239f7b179b0ffacaa9a75d522b39400f\n        /* \"@rari-capital/solmate/src/tokens/ERC20.sol\":5802:5806  name */\n      0x00\n        /* \"@rari-capital/solmate/src/tokens/ERC20.sol\":5786:5808  keccak256(bytes(name)) */\n      mload(0x40)\n      tag_316\n      swap2\n      swap1\n      tag_317\n      jump\t// in\n    tag_316:\n      mload(0x40)\n      dup1\n      swap2\n      sub\n      swap1\n      keccak256\n        /* \"@rari-capital/solmate/src/tokens/ERC20.sol\":5830:5844  keccak256(\"1\") */\n      0xc89efdaa54c0f20c7adf612882df0950f5a951637e0307cdcb4c672f298b8bc6\n        /* \"@rari-capital/solmate/src/tokens/ERC20.sol\":5866:5879  block.chainid */\n      chainid\n        /* \"@rari-capital/solmate/src/tokens/ERC20.sol\":5909:5913  this */\n      address\n        /* \"@rari-capital/solmate/src/tokens/ERC20.sol\":5637:5932  abi.encode(... */\n      add(0x20, mload(0x40))\n      tag_318\n      swap6\n      swap5\n      swap4\n      swap3\n      swap2\n      swap1\n      tag_319\n      jump\t// in\n    tag_318:\n      mload(0x40)\n      0x20\n      dup2\n      dup4\n      sub\n      sub\n      dup2\n      mstore\n      swap1\n      0x40\n      mstore\n        /* \"@rari-capital/solmate/src/tokens/ERC20.sol\":5610:5946  keccak256(... */\n      dup1\n      mload\n      swap1\n      0x20\n      add\n      keccak256\n        /* \"@rari-capital/solmate/src/tokens/ERC20.sol\":5591:5946  return... */\n      swap1\n      pop\n        /* \"@rari-capital/solmate/src/tokens/ERC20.sol\":5507:5953  function computeDomainSeparator() internal view virtual returns (bytes32) {... */\n      swap1\n      jump\t// out\n        /* \"libraries/Math.sol\":196:508  function sqrt(uint256 y) internal pure returns (uint256 z) {... */\n    tag_166:\n        /* \"libraries/Math.sol\":244:253  uint256 z */\n      0x00\n        /* \"libraries/Math.sol\":274:275  3 */\n      0x03\n        /* \"libraries/Math.sol\":270:271  y */\n      dup3\n        /* \"libraries/Math.sol\":270:275  y > 3 */\n      gt\n        /* \"libraries/Math.sol\":266:501  if (y > 3) {... */\n      iszero\n      tag_321\n      jumpi\n        /* \"libraries/Math.sol\":296:297  y */\n      dup2\n        /* \"libraries/Math.sol\":292:297  z = y */\n      swap1\n      pop\n        /* \"libraries/Math.sol\":312:321  uint256 x */\n      0x00\n        /* \"libraries/Math.sol\":332:333  1 */\n      0x01\n        /* \"libraries/Math.sol\":328:329  2 */\n      0x02\n        /* \"libraries/Math.sol\":324:325  y */\n      dup5\n        /* \"libraries/Math.sol\":324:329  y / 2 */\n      tag_322\n      swap2\n      swap1\n      tag_174\n      jump\t// in\n    tag_322:\n        /* \"libraries/Math.sol\":324:333  y / 2 + 1 */\n      tag_323\n      swap2\n      swap1\n      tag_324\n      jump\t// in\n    tag_323:\n        /* \"libraries/Math.sol\":312:333  uint256 x = y / 2 + 1 */\n      swap1\n      pop\n        /* \"libraries/Math.sol\":348:440  while (x < z) {... */\n    tag_325:\n        /* \"libraries/Math.sol\":359:360  z */\n      dup2\n        /* \"libraries/Math.sol\":355:356  x */\n      dup2\n        /* \"libraries/Math.sol\":355:360  x < z */\n      lt\n        /* \"libraries/Math.sol\":348:440  while (x < z) {... */\n      iszero\n      tag_326\n      jumpi\n        /* \"libraries/Math.sol\":385:386  x */\n      dup1\n        /* \"libraries/Math.sol\":381:386  z = x */\n      swap2\n      pop\n        /* \"libraries/Math.sol\":423:424  2 */\n      0x02\n        /* \"libraries/Math.sol\":418:419  x */\n      dup2\n        /* \"libraries/Math.sol\":414:415  x */\n      dup3\n        /* \"libraries/Math.sol\":410:411  y */\n      dup6\n        /* \"libraries/Math.sol\":410:415  y / x */\n      tag_327\n      swap2\n      swap1\n      tag_174\n      jump\t// in\n    tag_327:\n        /* \"libraries/Math.sol\":410:419  y / x + x */\n      tag_328\n      swap2\n      swap1\n      tag_324\n      jump\t// in\n    tag_328:\n        /* \"libraries/Math.sol\":409:424  (y / x + x) / 2 */\n      tag_329\n      swap2\n      swap1\n      tag_174\n      jump\t// in\n    tag_329:\n        /* \"libraries/Math.sol\":405:424  x = (y / x + x) / 2 */\n      swap1\n      pop\n        /* \"libraries/Math.sol\":348:440  while (x < z) {... */\n      jump(tag_325)\n    tag_326:\n        /* \"libraries/Math.sol\":277:451  {... */\n      pop\n        /* \"libraries/Math.sol\":266:501  if (y > 3) {... */\n      jump(tag_330)\n    tag_321:\n        /* \"libraries/Math.sol\":466:467  0 */\n      0x00\n        /* \"libraries/Math.sol\":461:462  y */\n      dup3\n        /* \"libraries/Math.sol\":461:467  y != 0 */\n      eq\n        /* \"libraries/Math.sol\":457:501  if (y != 0) {... */\n      tag_331\n      jumpi\n        /* \"libraries/Math.sol\":488:489  1 */\n      0x01\n        /* \"libraries/Math.sol\":484:489  z = 1 */\n      swap1\n      pop\n        /* \"libraries/Math.sol\":457:501  if (y != 0) {... */\n    tag_331:\n        /* \"libraries/Math.sol\":266:501  if (y > 3) {... */\n    tag_330:\n        /* \"libraries/Math.sol\":196:508  function sqrt(uint256 y) internal pure returns (uint256 z) {... */\n      swap2\n      swap1\n      pop\n      jump\t// out\n        /* \"@rari-capital/solmate/src/tokens/ERC20.sol\":6147:6472  function _mint(address to, uint256 amount) internal virtual {... */\n    tag_169:\n        /* \"@rari-capital/solmate/src/tokens/ERC20.sol\":6232:6238  amount */\n      dup1\n        /* \"@rari-capital/solmate/src/tokens/ERC20.sol\":6217:6228  totalSupply */\n      0x02\n      0x00\n        /* \"@rari-capital/solmate/src/tokens/ERC20.sol\":6217:6238  totalSupply += amount */\n      dup3\n      dup3\n      sload\n      tag_333\n      swap2\n      swap1\n      tag_324\n      jump\t// in\n    tag_333:\n      swap3\n      pop\n      pop\n      dup2\n      swap1\n      sstore\n      pop\n        /* \"@rari-capital/solmate/src/tokens/ERC20.sol\":6401:6407  amount */\n      dup1\n        /* \"@rari-capital/solmate/src/tokens/ERC20.sol\":6384:6393  balanceOf */\n      0x03\n        /* \"@rari-capital/solmate/src/tokens/ERC20.sol\":6384:6397  balanceOf[to] */\n      0x00\n        /* \"@rari-capital/solmate/src/tokens/ERC20.sol\":6394:6396  to */\n      dup5\n        /* \"@rari-capital/solmate/src/tokens/ERC20.sol\":6384:6397  balanceOf[to] */\n      0xffffffffffffffffffffffffffffffffffffffff\n      and\n      0xffffffffffffffffffffffffffffffffffffffff\n      and\n      dup2\n      mstore\n      0x20\n      add\n      swap1\n      dup2\n      mstore\n      0x20\n      add\n      0x00\n      keccak256\n      0x00\n        /* \"@rari-capital/solmate/src/tokens/ERC20.sol\":6384:6407  balanceOf[to] += amount */\n      dup3\n      dup3\n      sload\n      add\n      swap3\n      pop\n      pop\n      dup2\n      swap1\n      sstore\n      pop\n        /* \"@rari-capital/solmate/src/tokens/ERC20.sol\":6454:6456  to */\n      dup2\n        /* \"@rari-capital/solmate/src/tokens/ERC20.sol\":6433:6465  Transfer(address(0), to, amount) */\n      0xffffffffffffffffffffffffffffffffffffffff\n      and\n        /* \"@rari-capital/solmate/src/tokens/ERC20.sol\":6450:6451  0 */\n      0x00\n        /* \"@rari-capital/solmate/src/tokens/ERC20.sol\":6433:6465  Transfer(address(0), to, amount) */\n      0xffffffffffffffffffffffffffffffffffffffff\n      and\n      0xddf252ad1be2c89b69c2b068fc378daa952ba7f163c4a11628f55a4df523b3ef\n        /* \"@rari-capital/solmate/src/tokens/ERC20.sol\":6458:6464  amount */\n      dup4\n        /* \"@rari-capital/solmate/src/tokens/ERC20.sol\":6433:6465  Transfer(address(0), to, amount) */\n      mload(0x40)\n      tag_334\n      swap2\n      swap1\n      tag_50\n      jump\t// in\n    tag_334:\n      mload(0x40)\n      dup1\n      swap2\n      sub\n      swap1\n      log3\n        /* \"@rari-capital/solmate/src/tokens/ERC20.sol\":6147:6472  function _mint(address to, uint256 amount) internal virtual {... */\n      pop\n      pop\n      jump\t// out\n        /* \"libraries/Math.sol\":82:188  function min(uint256 a, uint256 b) internal pure returns (uint256) {... */\n    tag_177:\n        /* \"libraries/Math.sol\":140:147  uint256 */\n      0x00\n        /* \"libraries/Math.sol\":171:172  b */\n      dup2\n        /* \"libraries/Math.sol\":167:168  a */\n      dup4\n        /* \"libraries/Math.sol\":167:172  a < b */\n      lt\n        /* \"libraries/Math.sol\":167:180  a < b ? a : b */\n      tag_336\n      jumpi\n        /* \"libraries/Math.sol\":179:180  b */\n      dup2\n        /* \"libraries/Math.sol\":167:180  a < b ? a : b */\n      jump(tag_337)\n    tag_336:\n        /* \"libraries/Math.sol\":175:176  a */\n      dup3\n        /* \"libraries/Math.sol\":167:180  a < b ? a : b */\n    tag_337:\n        /* \"libraries/Math.sol\":160:180  return a < b ? a : b */\n      swap1\n      pop\n        /* \"libraries/Math.sol\":82:188  function min(uint256 a, uint256 b) internal pure returns (uint256) {... */\n      swap3\n      swap2\n      pop\n      pop\n      jump\t// out\n        /* \"contracts/KajuswapPair.sol\":7067:8238  function _update(... */\n    tag_183:\n        /* \"contracts/KajuswapPair.sol\":7360:7377  type(uint112).max */\n      0xffffffffffffffffffffffffffff\n        /* \"contracts/KajuswapPair.sol\":7348:7377  balance0 <= type(uint112).max */\n      dup1\n      and\n        /* \"contracts/KajuswapPair.sol\":7348:7356  balance0 */\n      dup5\n        /* \"contracts/KajuswapPair.sol\":7348:7377  balance0 <= type(uint112).max */\n      gt\n      iszero\n        /* \"contracts/KajuswapPair.sol\":7348:7410  balance0 <= type(uint112).max && balance1 <= type(uint112).max */\n      dup1\n      iszero\n      tag_339\n      jumpi\n      pop\n        /* \"contracts/KajuswapPair.sol\":7393:7410  type(uint112).max */\n      0xffffffffffffffffffffffffffff\n        /* \"contracts/KajuswapPair.sol\":7381:7410  balance1 <= type(uint112).max */\n      dup1\n      and\n        /* \"contracts/KajuswapPair.sol\":7381:7389  balance1 */\n      dup4\n        /* \"contracts/KajuswapPair.sol\":7381:7410  balance1 <= type(uint112).max */\n      gt\n      iszero\n        /* \"contracts/KajuswapPair.sol\":7348:7410  balance0 <= type(uint112).max && balance1 <= type(uint112).max */\n    tag_339:\n        /* \"contracts/KajuswapPair.sol\":7340:7433  require(balance0 <= type(uint112).max && balance1 <= type(uint112).max, \"Kajuswap: OVERFLOW\") */\n      tag_340\n      jumpi\n      mload(0x40)\n      0x08c379a000000000000000000000000000000000000000000000000000000000\n      dup2\n      mstore\n      0x04\n      add\n      tag_341\n      swap1\n      tag_342\n      jump\t// in\n    tag_341:\n      mload(0x40)\n      dup1\n      swap2\n      sub\n      swap1\n      revert\n    tag_340:\n        /* \"contracts/KajuswapPair.sol\":7586:7604  uint32 timeElapsed */\n      0x00\n        /* \"contracts/KajuswapPair.sol\":7633:7651  blockTimestampLast */\n      0x09\n      0x1c\n      swap1\n      sload\n      swap1\n      0x0100\n      exp\n      swap1\n      div\n      0xffffffff\n      and\n        /* \"contracts/KajuswapPair.sol\":7614:7629  block.timestamp */\n      timestamp\n        /* \"contracts/KajuswapPair.sol\":7607:7651  uint32(block.timestamp) - blockTimestampLast */\n      sub\n        /* \"contracts/KajuswapPair.sol\":7586:7651  uint32 timeElapsed = uint32(block.timestamp) - blockTimestampLast */\n      swap1\n      pop\n        /* \"contracts/KajuswapPair.sol\":7686:7687  0 */\n      0x00\n        /* \"contracts/KajuswapPair.sol\":7672:7683  timeElapsed */\n      dup2\n        /* \"contracts/KajuswapPair.sol\":7672:7687  timeElapsed > 0 */\n      0xffffffff\n      and\n      gt\n        /* \"contracts/KajuswapPair.sol\":7672:7704  timeElapsed > 0 && reserve0_ > 0 */\n      dup1\n      iszero\n      tag_343\n      jumpi\n      pop\n        /* \"contracts/KajuswapPair.sol\":7703:7704  0 */\n      0x00\n        /* \"contracts/KajuswapPair.sol\":7691:7700  reserve0_ */\n      dup4\n        /* \"contracts/KajuswapPair.sol\":7691:7704  reserve0_ > 0 */\n      0xffffffffffffffffffffffffffff\n      and\n      gt\n        /* \"contracts/KajuswapPair.sol\":7672:7704  timeElapsed > 0 && reserve0_ > 0 */\n    tag_343:\n        /* \"contracts/KajuswapPair.sol\":7672:7721  timeElapsed > 0 && reserve0_ > 0 && reserve1_ > 0 */\n      dup1\n      iszero\n      tag_344\n      jumpi\n      pop\n        /* \"contracts/KajuswapPair.sol\":7720:7721  0 */\n      0x00\n        /* \"contracts/KajuswapPair.sol\":7708:7717  reserve1_ */\n      dup3\n        /* \"contracts/KajuswapPair.sol\":7708:7721  reserve1_ > 0 */\n      0xffffffffffffffffffffffffffff\n      and\n      gt\n        /* \"contracts/KajuswapPair.sol\":7672:7721  timeElapsed > 0 && reserve0_ > 0 && reserve1_ > 0 */\n    tag_344:\n        /* \"contracts/KajuswapPair.sol\":7668:8043  if (timeElapsed > 0 && reserve0_ > 0 && reserve1_ > 0) {... */\n      iszero\n      tag_345\n      jumpi\n        /* \"contracts/KajuswapPair.sol\":7864:7875  timeElapsed */\n      dup1\n        /* \"contracts/KajuswapPair.sol\":7787:7875  uint256(UQ112x112.encode(reserve1_).uqdiv(reserve0_)) *... */\n      0xffffffff\n      and\n        /* \"contracts/KajuswapPair.sol\":7795:7839  UQ112x112.encode(reserve1_).uqdiv(reserve0_) */\n      tag_346\n        /* \"contracts/KajuswapPair.sol\":7829:7838  reserve0_ */\n      dup5\n        /* \"contracts/KajuswapPair.sol\":7795:7822  UQ112x112.encode(reserve1_) */\n      tag_347\n        /* \"contracts/KajuswapPair.sol\":7812:7821  reserve1_ */\n      dup6\n        /* \"contracts/KajuswapPair.sol\":7795:7811  UQ112x112.encode */\n      tag_348\n        /* \"contracts/KajuswapPair.sol\":7795:7822  UQ112x112.encode(reserve1_) */\n      jump\t// in\n    tag_347:\n        /* \"contracts/KajuswapPair.sol\":7795:7828  UQ112x112.encode(reserve1_).uqdiv */\n      0xffffffffffffffffffffffffffffffffffffffffffffffffffffffff\n      and\n      tag_349\n      swap1\n        /* \"contracts/KajuswapPair.sol\":7795:7839  UQ112x112.encode(reserve1_).uqdiv(reserve0_) */\n      swap2\n      swap1\n      0xffffffff\n      and\n      jump\t// in\n    tag_346:\n        /* \"contracts/KajuswapPair.sol\":7787:7840  uint256(UQ112x112.encode(reserve1_).uqdiv(reserve0_)) */\n      0xffffffffffffffffffffffffffffffffffffffffffffffffffffffff\n      and\n        /* \"contracts/KajuswapPair.sol\":7787:7875  uint256(UQ112x112.encode(reserve1_).uqdiv(reserve0_)) *... */\n      mul\n        /* \"contracts/KajuswapPair.sol\":7742:7762  price0CumulativeLast */\n      0x0a\n      0x00\n        /* \"contracts/KajuswapPair.sol\":7742:7875  price0CumulativeLast +=... */\n      dup3\n      dup3\n      sload\n      add\n      swap3\n      pop\n      pop\n      dup2\n      swap1\n      sstore\n      pop\n        /* \"contracts/KajuswapPair.sol\":8016:8027  timeElapsed */\n      dup1\n        /* \"contracts/KajuswapPair.sol\":7939:8027  uint256(UQ112x112.encode(reserve0_).uqdiv(reserve1_)) *... */\n      0xffffffff\n      and\n        /* \"contracts/KajuswapPair.sol\":7947:7991  UQ112x112.encode(reserve0_).uqdiv(reserve1_) */\n      tag_350\n        /* \"contracts/KajuswapPair.sol\":7981:7990  reserve1_ */\n      dup4\n        /* \"contracts/KajuswapPair.sol\":7947:7974  UQ112x112.encode(reserve0_) */\n      tag_351\n        /* \"contracts/KajuswapPair.sol\":7964:7973  reserve0_ */\n      dup7\n        /* \"contracts/KajuswapPair.sol\":7947:7963  UQ112x112.encode */\n      tag_348\n        /* \"contracts/KajuswapPair.sol\":7947:7974  UQ112x112.encode(reserve0_) */\n      jump\t// in\n    tag_351:\n        /* \"contracts/KajuswapPair.sol\":7947:7980  UQ112x112.encode(reserve0_).uqdiv */\n      0xffffffffffffffffffffffffffffffffffffffffffffffffffffffff\n      and\n      tag_349\n      swap1\n        /* \"contracts/KajuswapPair.sol\":7947:7991  UQ112x112.encode(reserve0_).uqdiv(reserve1_) */\n      swap2\n      swap1\n      0xffffffff\n      and\n      jump\t// in\n    tag_350:\n        /* \"contracts/KajuswapPair.sol\":7939:7992  uint256(UQ112x112.encode(reserve0_).uqdiv(reserve1_)) */\n      0xffffffffffffffffffffffffffffffffffffffffffffffffffffffff\n      and\n        /* \"contracts/KajuswapPair.sol\":7939:8027  uint256(UQ112x112.encode(reserve0_).uqdiv(reserve1_)) *... */\n      mul\n        /* \"contracts/KajuswapPair.sol\":7894:7914  price1CumulativeLast */\n      0x0b\n      0x00\n        /* \"contracts/KajuswapPair.sol\":7894:8027  price1CumulativeLast +=... */\n      dup3\n      dup3\n      sload\n      add\n      swap3\n      pop\n      pop\n      dup2\n      swap1\n      sstore\n      pop\n        /* \"contracts/KajuswapPair.sol\":7668:8043  if (timeElapsed > 0 && reserve0_ > 0 && reserve1_ > 0) {... */\n    tag_345:\n        /* \"contracts/KajuswapPair.sol\":7446:8054  unchecked {... */\n      pop\n        /* \"contracts/KajuswapPair.sol\":8085:8093  balance0 */\n      dup4\n        /* \"contracts/KajuswapPair.sol\":8066:8074  reserve0 */\n      0x09\n      0x00\n        /* \"contracts/KajuswapPair.sol\":8066:8094  reserve0 = uint112(balance0) */\n      0x0100\n      exp\n      dup2\n      sload\n      dup2\n      0xffffffffffffffffffffffffffff\n      mul\n      not\n      and\n      swap1\n      dup4\n      0xffffffffffffffffffffffffffff\n      and\n      mul\n      or\n      swap1\n      sstore\n      pop\n        /* \"contracts/KajuswapPair.sol\":8124:8132  balance1 */\n      dup3\n        /* \"contracts/KajuswapPair.sol\":8105:8113  reserve1 */\n      0x09\n      0x0e\n        /* \"contracts/KajuswapPair.sol\":8105:8133  reserve1 = uint112(balance1) */\n      0x0100\n      exp\n      dup2\n      sload\n      dup2\n      0xffffffffffffffffffffffffffff\n      mul\n      not\n      and\n      swap1\n      dup4\n      0xffffffffffffffffffffffffffff\n      and\n      mul\n      or\n      swap1\n      sstore\n      pop\n        /* \"contracts/KajuswapPair.sol\":8172:8187  block.timestamp */\n      timestamp\n        /* \"contracts/KajuswapPair.sol\":8144:8162  blockTimestampLast */\n      0x09\n      0x1c\n        /* \"contracts/KajuswapPair.sol\":8144:8188  blockTimestampLast = uint32(block.timestamp) */\n      0x0100\n      exp\n      dup2\n      sload\n      dup2\n      0xffffffff\n      mul\n      not\n      and\n      swap1\n      dup4\n      0xffffffff\n      and\n      mul\n      or\n      swap1\n      sstore\n      pop\n        /* \"contracts/KajuswapPair.sol\":8206:8230  Sync(reserve0, reserve1) */\n      0xcf2aa50876cdfbb541206f89af0ee78d44a2abf8d328e37fa4917f982149848a\n        /* \"contracts/KajuswapPair.sol\":8211:8219  reserve0 */\n      0x09\n      0x00\n      swap1\n      sload\n      swap1\n      0x0100\n      exp\n      swap1\n      div\n      0xffffffffffffffffffffffffffff\n      and\n        /* \"contracts/KajuswapPair.sol\":8221:8229  reserve1 */\n      0x09\n      0x0e\n      swap1\n      sload\n      swap1\n      0x0100\n      exp\n      swap1\n      div\n      0xffffffffffffffffffffffffffff\n      and\n        /* \"contracts/KajuswapPair.sol\":8206:8230  Sync(reserve0, reserve1) */\n      mload(0x40)\n      tag_352\n      swap3\n      swap2\n      swap1\n      tag_353\n      jump\t// in\n    tag_352:\n      mload(0x40)\n      dup1\n      swap2\n      sub\n      swap1\n      log1\n        /* \"contracts/KajuswapPair.sol\":7067:8238  function _update(... */\n      pop\n      pop\n      pop\n      pop\n      jump\t// out\n        /* \"contracts/KajuswapPair.sol\":8472:9147  function _safeTransfer(... */\n    tag_200:\n        /* \"contracts/KajuswapPair.sol\":8874:8886  bool success */\n      0x00\n        /* \"contracts/KajuswapPair.sol\":8888:8905  bytes memory data */\n      dup1\n        /* \"contracts/KajuswapPair.sol\":8909:8914  token */\n      dup5\n        /* \"contracts/KajuswapPair.sol\":8909:8919  token.call */\n      0xffffffffffffffffffffffffffffffffffffffff\n      and\n        /* \"contracts/KajuswapPair.sol\":8974:9008  bytes('transfer(address,uint256)') */\n      mload(0x40)\n      dup1\n      0x40\n      add\n      0x40\n      mstore\n      dup1\n      0x19\n      dup2\n      mstore\n      0x20\n      add\n      0x7472616e7366657228616464726573732c75696e743235362900000000000000\n      dup2\n      mstore\n      pop\n        /* \"contracts/KajuswapPair.sol\":8964:9009  keccak256(bytes('transfer(address,uint256)')) */\n      dup1\n      mload\n      swap1\n      0x20\n      add\n      keccak256\n        /* \"contracts/KajuswapPair.sol\":9012:9014  to */\n      dup6\n        /* \"contracts/KajuswapPair.sol\":9016:9021  value */\n      dup6\n        /* \"contracts/KajuswapPair.sol\":8934:9022  abi.encodeWithSelector(bytes4(keccak256(bytes('transfer(address,uint256)'))), to, value) */\n      add(0x24, mload(0x40))\n      tag_355\n      swap3\n      swap2\n      swap1\n      tag_356\n      jump\t// in\n    tag_355:\n      mload(0x40)\n      0x20\n      dup2\n      dup4\n      sub\n      sub\n      dup2\n      mstore\n      swap1\n      0x40\n      mstore\n      swap1\n      not(0xffffffffffffffffffffffffffffffffffffffffffffffffffffffff)\n      and\n      0x20\n      dup3\n      add\n      dup1\n      mload\n      0xffffffffffffffffffffffffffffffffffffffffffffffffffffffff\n      dup4\n      dup2\n      dup4\n      and\n      or\n      dup4\n      mstore\n      pop\n      pop\n      pop\n      pop\n        /* \"contracts/KajuswapPair.sol\":8909:9033  token.call(... */\n      mload(0x40)\n      tag_357\n      swap2\n      swap1\n      tag_358\n      jump\t// in\n    tag_357:\n      0x00\n      mload(0x40)\n      dup1\n      dup4\n      sub\n      dup2\n      0x00\n      dup7\n      gas\n      call\n      swap2\n      pop\n      pop\n      returndatasize\n      dup1\n      0x00\n      dup2\n      eq\n      tag_361\n      jumpi\n      mload(0x40)\n      swap2\n      pop\n      and(add(returndatasize, 0x3f), not(0x1f))\n      dup3\n      add\n      0x40\n      mstore\n      returndatasize\n      dup3\n      mstore\n      returndatasize\n      0x00\n      0x20\n      dup5\n      add\n      returndatacopy\n      jump(tag_360)\n    tag_361:\n      0x60\n      swap2\n      pop\n    tag_360:\n      pop\n        /* \"contracts/KajuswapPair.sol\":8873:9033  (bool success, bytes memory data) = token.call(... */\n      swap2\n      pop\n      swap2\n      pop\n        /* \"contracts/KajuswapPair.sol\":9052:9059  success */\n      dup2\n        /* \"contracts/KajuswapPair.sol\":9052:9109  success && (data.length == 0 || abi.decode(data, (bool))) */\n      dup1\n      iszero\n      tag_362\n      jumpi\n      pop\n        /* \"contracts/KajuswapPair.sol\":9079:9080  0 */\n      0x00\n        /* \"contracts/KajuswapPair.sol\":9064:9068  data */\n      dup2\n        /* \"contracts/KajuswapPair.sol\":9064:9075  data.length */\n      mload\n        /* \"contracts/KajuswapPair.sol\":9064:9080  data.length == 0 */\n      eq\n        /* \"contracts/KajuswapPair.sol\":9064:9108  data.length == 0 || abi.decode(data, (bool)) */\n      dup1\n      tag_363\n      jumpi\n      pop\n        /* \"contracts/KajuswapPair.sol\":9095:9099  data */\n      dup1\n        /* \"contracts/KajuswapPair.sol\":9084:9108  abi.decode(data, (bool)) */\n      dup1\n      0x20\n      add\n      swap1\n      mload\n      dup2\n      add\n      swap1\n      tag_364\n      swap2\n      swap1\n      tag_365\n      jump\t// in\n    tag_364:\n        /* \"contracts/KajuswapPair.sol\":9064:9108  data.length == 0 || abi.decode(data, (bool)) */\n    tag_363:\n        /* \"contracts/KajuswapPair.sol\":9052:9109  success && (data.length == 0 || abi.decode(data, (bool))) */\n    tag_362:\n        /* \"contracts/KajuswapPair.sol\":9044:9139  require(success && (data.length == 0 || abi.decode(data, (bool))), \"Kajuswap: TRANSFER_FAILED\") */\n      tag_366\n      jumpi\n      mload(0x40)\n      0x08c379a000000000000000000000000000000000000000000000000000000000\n      dup2\n      mstore\n      0x04\n      add\n      tag_367\n      swap1\n      tag_368\n      jump\t// in\n    tag_367:\n      mload(0x40)\n      dup1\n      swap2\n      sub\n      swap1\n      revert\n    tag_366:\n        /* \"contracts/KajuswapPair.sol\":8579:9147  {... */\n      pop\n      pop\n        /* \"contracts/KajuswapPair.sol\":8472:9147  function _safeTransfer(... */\n      pop\n      pop\n      pop\n      jump\t// out\n        /* \"@rari-capital/solmate/src/tokens/ERC20.sol\":6478:6806  function _burn(address from, uint256 amount) internal virtual {... */\n    tag_260:\n        /* \"@rari-capital/solmate/src/tokens/ERC20.sol\":6569:6575  amount */\n      dup1\n        /* \"@rari-capital/solmate/src/tokens/ERC20.sol\":6550:6559  balanceOf */\n      0x03\n        /* \"@rari-capital/solmate/src/tokens/ERC20.sol\":6550:6565  balanceOf[from] */\n      0x00\n        /* \"@rari-capital/solmate/src/tokens/ERC20.sol\":6560:6564  from */\n      dup5\n        /* \"@rari-capital/solmate/src/tokens/ERC20.sol\":6550:6565  balanceOf[from] */\n      0xffffffffffffffffffffffffffffffffffffffff\n      and\n      0xffffffffffffffffffffffffffffffffffffffff\n      and\n      dup2\n      mstore\n      0x20\n      add\n      swap1\n      dup2\n      mstore\n      0x20\n      add\n      0x00\n      keccak256\n      0x00\n        /* \"@rari-capital/solmate/src/tokens/ERC20.sol\":6550:6575  balanceOf[from] -= amount */\n      dup3\n      dup3\n      sload\n      tag_370\n      swap2\n      swap1\n      tag_131\n      jump\t// in\n    tag_370:\n      swap3\n      pop\n      pop\n      dup2\n      swap1\n      sstore\n      pop\n        /* \"@rari-capital/solmate/src/tokens/ERC20.sol\":6733:6739  amount */\n      dup1\n        /* \"@rari-capital/solmate/src/tokens/ERC20.sol\":6718:6729  totalSupply */\n      0x02\n      0x00\n        /* \"@rari-capital/solmate/src/tokens/ERC20.sol\":6718:6739  totalSupply -= amount */\n      dup3\n      dup3\n      sload\n      sub\n      swap3\n      pop\n      pop\n      dup2\n      swap1\n      sstore\n      pop\n        /* \"@rari-capital/solmate/src/tokens/ERC20.sol\":6788:6789  0 */\n      0x00\n        /* \"@rari-capital/solmate/src/tokens/ERC20.sol\":6765:6799  Transfer(from, address(0), amount) */\n      0xffffffffffffffffffffffffffffffffffffffff\n      and\n        /* \"@rari-capital/solmate/src/tokens/ERC20.sol\":6774:6778  from */\n      dup3\n        /* \"@rari-capital/solmate/src/tokens/ERC20.sol\":6765:6799  Transfer(from, address(0), amount) */\n      0xffffffffffffffffffffffffffffffffffffffff\n      and\n      0xddf252ad1be2c89b69c2b068fc378daa952ba7f163c4a11628f55a4df523b3ef\n        /* \"@rari-capital/solmate/src/tokens/ERC20.sol\":6792:6798  amount */\n      dup4\n        /* \"@rari-capital/solmate/src/tokens/ERC20.sol\":6765:6799  Transfer(from, address(0), amount) */\n      mload(0x40)\n      tag_371\n      swap2\n      swap1\n      tag_50\n      jump\t// in\n    tag_371:\n      mload(0x40)\n      dup1\n      swap2\n      sub\n      swap1\n      log3\n        /* \"@rari-capital/solmate/src/tokens/ERC20.sol\":6478:6806  function _burn(address from, uint256 amount) internal virtual {... */\n      pop\n      pop\n      jump\t// out\n        /* \"libraries/UQ112x112.sol\":131:232  function encode(uint112 y) internal pure returns (uint224 z) {... */\n    tag_348:\n        /* \"libraries/UQ112x112.sol\":181:190  uint224 z */\n      0x00\n        /* \"libraries/UQ112x112.sol\":116:122  2**112 */\n      0x010000000000000000000000000000\n        /* \"libraries/UQ112x112.sol\":215:216  y */\n      dup3\n        /* \"libraries/UQ112x112.sol\":207:217  uint224(y) */\n      0xffffffffffffffffffffffffffff\n      and\n        /* \"libraries/UQ112x112.sol\":207:224  uint224(y) * Q112 */\n      tag_373\n      swap2\n      swap1\n      tag_374\n      jump\t// in\n    tag_373:\n        /* \"libraries/UQ112x112.sol\":203:224  z = uint224(y) * Q112 */\n      swap1\n      pop\n        /* \"libraries/UQ112x112.sol\":131:232  function encode(uint112 y) internal pure returns (uint224 z) {... */\n      swap2\n      swap1\n      pop\n      jump\t// out\n        /* \"libraries/UQ112x112.sol\":240:348  function uqdiv(uint224 x, uint112 y) internal pure returns (uint224 z) {... */\n    tag_349:\n        /* \"libraries/UQ112x112.sol\":300:309  uint224 z */\n      0x00\n        /* \"libraries/UQ112x112.sol\":338:339  y */\n      dup2\n        /* \"libraries/UQ112x112.sol\":330:340  uint224(y) */\n      0xffffffffffffffffffffffffffff\n      and\n        /* \"libraries/UQ112x112.sol\":326:327  x */\n      dup4\n        /* \"libraries/UQ112x112.sol\":326:340  x / uint224(y) */\n      tag_376\n      swap2\n      swap1\n      tag_377\n      jump\t// in\n    tag_376:\n        /* \"libraries/UQ112x112.sol\":322:340  z = x / uint224(y) */\n      swap1\n      pop\n        /* \"libraries/UQ112x112.sol\":240:348  function uqdiv(uint224 x, uint112 y) internal pure returns (uint224 z) {... */\n      swap3\n      swap2\n      pop\n      pop\n      jump\t// out\n        /* \"#utility.yul\":7:106   */\n    tag_378:\n        /* \"#utility.yul\":59:65   */\n      0x00\n        /* \"#utility.yul\":93:98   */\n      dup2\n        /* \"#utility.yul\":87:99   */\n      mload\n        /* \"#utility.yul\":77:99   */\n      swap1\n      pop\n        /* \"#utility.yul\":7:106   */\n      swap2\n      swap1\n      pop\n      jump\t// out\n        /* \"#utility.yul\":112:281   */\n    tag_379:\n        /* \"#utility.yul\":196:207   */\n      0x00\n        /* \"#utility.yul\":230:236   */\n      dup3\n        /* \"#utility.yul\":225:228   */\n      dup3\n        /* \"#utility.yul\":218:237   */\n      mstore\n        /* \"#utility.yul\":270:274   */\n      0x20\n        /* \"#utility.yul\":265:268   */\n      dup3\n        /* \"#utility.yul\":261:275   */\n      add\n        /* \"#utility.yul\":246:275   */\n      swap1\n      pop\n        /* \"#utility.yul\":112:281   */\n      swap3\n      swap2\n      pop\n      pop\n      jump\t// out\n        /* \"#utility.yul\":287:594   */\n    tag_380:\n        /* \"#utility.yul\":355:356   */\n      0x00\n        /* \"#utility.yul\":365:478   */\n    tag_457:\n        /* \"#utility.yul\":379:385   */\n      dup4\n        /* \"#utility.yul\":376:377   */\n      dup2\n        /* \"#utility.yul\":373:386   */\n      lt\n        /* \"#utility.yul\":365:478   */\n      iszero\n      tag_459\n      jumpi\n        /* \"#utility.yul\":464:465   */\n      dup1\n        /* \"#utility.yul\":459:462   */\n      dup3\n        /* \"#utility.yul\":455:466   */\n      add\n        /* \"#utility.yul\":449:467   */\n      mload\n        /* \"#utility.yul\":445:446   */\n      dup2\n        /* \"#utility.yul\":440:443   */\n      dup5\n        /* \"#utility.yul\":436:447   */\n      add\n        /* \"#utility.yul\":429:468   */\n      mstore\n        /* \"#utility.yul\":401:403   */\n      0x20\n        /* \"#utility.yul\":398:399   */\n      dup2\n        /* \"#utility.yul\":394:404   */\n      add\n        /* \"#utility.yul\":389:404   */\n      swap1\n      pop\n        /* \"#utility.yul\":365:478   */\n      jump(tag_457)\n    tag_459:\n        /* \"#utility.yul\":496:502   */\n      dup4\n        /* \"#utility.yul\":493:494   */\n      dup2\n        /* \"#utility.yul\":490:503   */\n      gt\n        /* \"#utility.yul\":487:588   */\n      iszero\n      tag_460\n      jumpi\n        /* \"#utility.yul\":576:577   */\n      0x00\n        /* \"#utility.yul\":567:573   */\n      dup5\n        /* \"#utility.yul\":562:565   */\n      dup5\n        /* \"#utility.yul\":558:574   */\n      add\n        /* \"#utility.yul\":551:578   */\n      mstore\n        /* \"#utility.yul\":487:588   */\n    tag_460:\n        /* \"#utility.yul\":336:594   */\n      pop\n        /* \"#utility.yul\":287:594   */\n      pop\n      pop\n      pop\n      jump\t// out\n        /* \"#utility.yul\":600:702   */\n    tag_381:\n        /* \"#utility.yul\":641:647   */\n      0x00\n        /* \"#utility.yul\":692:694   */\n      0x1f\n        /* \"#utility.yul\":688:695   */\n      not\n        /* \"#utility.yul\":683:685   */\n      0x1f\n        /* \"#utility.yul\":676:681   */\n      dup4\n        /* \"#utility.yul\":672:686   */\n      add\n        /* \"#utility.yul\":668:696   */\n      and\n        /* \"#utility.yul\":658:696   */\n      swap1\n      pop\n        /* \"#utility.yul\":600:702   */\n      swap2\n      swap1\n      pop\n      jump\t// out\n        /* \"#utility.yul\":708:1072   */\n    tag_382:\n        /* \"#utility.yul\":796:799   */\n      0x00\n        /* \"#utility.yul\":824:863   */\n      tag_463\n        /* \"#utility.yul\":857:862   */\n      dup3\n        /* \"#utility.yul\":824:863   */\n      tag_378\n      jump\t// in\n    tag_463:\n        /* \"#utility.yul\":879:950   */\n      tag_464\n        /* \"#utility.yul\":943:949   */\n      dup2\n        /* \"#utility.yul\":938:941   */\n      dup6\n        /* \"#utility.yul\":879:950   */\n      tag_379\n      jump\t// in\n    tag_464:\n        /* \"#utility.yul\":872:950   */\n      swap4\n      pop\n        /* \"#utility.yul\":959:1011   */\n      tag_465\n        /* \"#utility.yul\":1004:1010   */\n      dup2\n        /* \"#utility.yul\":999:1002   */\n      dup6\n        /* \"#utility.yul\":992:996   */\n      0x20\n        /* \"#utility.yul\":985:990   */\n      dup7\n        /* \"#utility.yul\":981:997   */\n      add\n        /* \"#utility.yul\":959:1011   */\n      tag_380\n      jump\t// in\n    tag_465:\n        /* \"#utility.yul\":1036:1065   */\n      tag_466\n        /* \"#utility.yul\":1058:1064   */\n      dup2\n        /* \"#utility.yul\":1036:1065   */\n      tag_381\n      jump\t// in\n    tag_466:\n        /* \"#utility.yul\":1031:1034   */\n      dup5\n        /* \"#utility.yul\":1027:1066   */\n      add\n        /* \"#utility.yul\":1020:1066   */\n      swap2\n      pop\n        /* \"#utility.yul\":800:1072   */\n      pop\n        /* \"#utility.yul\":708:1072   */\n      swap3\n      swap2\n      pop\n      pop\n      jump\t// out\n        /* \"#utility.yul\":1078:1391   */\n    tag_32:\n        /* \"#utility.yul\":1191:1195   */\n      0x00\n        /* \"#utility.yul\":1229:1231   */\n      0x20\n        /* \"#utility.yul\":1218:1227   */\n      dup3\n        /* \"#utility.yul\":1214:1232   */\n      add\n        /* \"#utility.yul\":1206:1232   */\n      swap1\n      pop\n        /* \"#utility.yul\":1278:1287   */\n      dup2\n        /* \"#utility.yul\":1272:1276   */\n      dup2\n        /* \"#utility.yul\":1268:1288   */\n      sub\n        /* \"#utility.yul\":1264:1265   */\n      0x00\n        /* \"#utility.yul\":1253:1262   */\n      dup4\n        /* \"#utility.yul\":1249:1266   */\n      add\n        /* \"#utility.yul\":1242:1289   */\n      mstore\n        /* \"#utility.yul\":1306:1384   */\n      tag_468\n        /* \"#utility.yul\":1379:1383   */\n      dup2\n        /* \"#utility.yul\":1370:1376   */\n      dup5\n        /* \"#utility.yul\":1306:1384   */\n      tag_382\n      jump\t// in\n    tag_468:\n        /* \"#utility.yul\":1298:1384   */\n      swap1\n      pop\n        /* \"#utility.yul\":1078:1391   */\n      swap3\n      swap2\n      pop\n      pop\n      jump\t// out\n        /* \"#utility.yul\":1397:1511   */\n    tag_383:\n        /* \"#utility.yul\":1434:1441   */\n      0x00\n        /* \"#utility.yul\":1474:1504   */\n      0xffffffffffffffffffffffffffff\n        /* \"#utility.yul\":1467:1472   */\n      dup3\n        /* \"#utility.yul\":1463:1505   */\n      and\n        /* \"#utility.yul\":1452:1505   */\n      swap1\n      pop\n        /* \"#utility.yul\":1397:1511   */\n      swap2\n      swap1\n      pop\n      jump\t// out\n        /* \"#utility.yul\":1517:1635   */\n    tag_384:\n        /* \"#utility.yul\":1604:1628   */\n      tag_471\n        /* \"#utility.yul\":1622:1627   */\n      dup2\n        /* \"#utility.yul\":1604:1628   */\n      tag_383\n      jump\t// in\n    tag_471:\n        /* \"#utility.yul\":1599:1602   */\n      dup3\n        /* \"#utility.yul\":1592:1629   */\n      mstore\n        /* \"#utility.yul\":1517:1635   */\n      pop\n      pop\n      jump\t// out\n        /* \"#utility.yul\":1641:1734   */\n    tag_385:\n        /* \"#utility.yul\":1677:1684   */\n      0x00\n        /* \"#utility.yul\":1717:1727   */\n      0xffffffff\n        /* \"#utility.yul\":1710:1715   */\n      dup3\n        /* \"#utility.yul\":1706:1728   */\n      and\n        /* \"#utility.yul\":1695:1728   */\n      swap1\n      pop\n        /* \"#utility.yul\":1641:1734   */\n      swap2\n      swap1\n      pop\n      jump\t// out\n        /* \"#utility.yul\":1740:1855   */\n    tag_386:\n        /* \"#utility.yul\":1825:1848   */\n      tag_474\n        /* \"#utility.yul\":1842:1847   */\n      dup2\n        /* \"#utility.yul\":1825:1848   */\n      tag_385\n      jump\t// in\n    tag_474:\n        /* \"#utility.yul\":1820:1823   */\n      dup3\n        /* \"#utility.yul\":1813:1849   */\n      mstore\n        /* \"#utility.yul\":1740:1855   */\n      pop\n      pop\n      jump\t// out\n        /* \"#utility.yul\":1861:2299   */\n    tag_36:\n        /* \"#utility.yul\":2008:2012   */\n      0x00\n        /* \"#utility.yul\":2046:2048   */\n      0x60\n        /* \"#utility.yul\":2035:2044   */\n      dup3\n        /* \"#utility.yul\":2031:2049   */\n      add\n        /* \"#utility.yul\":2023:2049   */\n      swap1\n      pop\n        /* \"#utility.yul\":2059:2130   */\n      tag_476\n        /* \"#utility.yul\":2127:2128   */\n      0x00\n        /* \"#utility.yul\":2116:2125   */\n      dup4\n        /* \"#utility.yul\":2112:2129   */\n      add\n        /* \"#utility.yul\":2103:2109   */\n      dup7\n        /* \"#utility.yul\":2059:2130   */\n      tag_384\n      jump\t// in\n    tag_476:\n        /* \"#utility.yul\":2140:2212   */\n      tag_477\n        /* \"#utility.yul\":2208:2210   */\n      0x20\n        /* \"#utility.yul\":2197:2206   */\n      dup4\n        /* \"#utility.yul\":2193:2211   */\n      add\n        /* \"#utility.yul\":2184:2190   */\n      dup6\n        /* \"#utility.yul\":2140:2212   */\n      tag_384\n      jump\t// in\n    tag_477:\n        /* \"#utility.yul\":2222:2292   */\n      tag_478\n        /* \"#utility.yul\":2288:2290   */\n      0x40\n        /* \"#utility.yul\":2277:2286   */\n      dup4\n        /* \"#utility.yul\":2273:2291   */\n      add\n        /* \"#utility.yul\":2264:2270   */\n      dup5\n        /* \"#utility.yul\":2222:2292   */\n      tag_386\n      jump\t// in\n    tag_478:\n        /* \"#utility.yul\":1861:2299   */\n      swap5\n      swap4\n      pop\n      pop\n      pop\n      pop\n      jump\t// out\n        /* \"#utility.yul\":2386:2503   */\n    tag_388:\n        /* \"#utility.yul\":2495:2496   */\n      0x00\n        /* \"#utility.yul\":2492:2493   */\n      dup1\n        /* \"#utility.yul\":2485:2497   */\n      revert\n        /* \"#utility.yul\":2632:2758   */\n    tag_390:\n        /* \"#utility.yul\":2669:2676   */\n      0x00\n        /* \"#utility.yul\":2709:2751   */\n      0xffffffffffffffffffffffffffffffffffffffff\n        /* \"#utility.yul\":2702:2707   */\n      dup3\n        /* \"#utility.yul\":2698:2752   */\n      and\n        /* \"#utility.yul\":2687:2752   */\n      swap1\n      pop\n        /* \"#utility.yul\":2632:2758   */\n      swap2\n      swap1\n      pop\n      jump\t// out\n        /* \"#utility.yul\":2764:2860   */\n    tag_391:\n        /* \"#utility.yul\":2801:2808   */\n      0x00\n        /* \"#utility.yul\":2830:2854   */\n      tag_484\n        /* \"#utility.yul\":2848:2853   */\n      dup3\n        /* \"#utility.yul\":2830:2854   */\n      tag_390\n      jump\t// in\n    tag_484:\n        /* \"#utility.yul\":2819:2854   */\n      swap1\n      pop\n        /* \"#utility.yul\":2764:2860   */\n      swap2\n      swap1\n      pop\n      jump\t// out\n        /* \"#utility.yul\":2866:2988   */\n    tag_392:\n        /* \"#utility.yul\":2939:2963   */\n      tag_486\n        /* \"#utility.yul\":2957:2962   */\n      dup2\n        /* \"#utility.yul\":2939:2963   */\n      tag_391\n      jump\t// in\n    tag_486:\n        /* \"#utility.yul\":2932:2937   */\n      dup2\n        /* \"#utility.yul\":2929:2964   */\n      eq\n        /* \"#utility.yul\":2919:2982   */\n      tag_487\n      jumpi\n        /* \"#utility.yul\":2978:2979   */\n      0x00\n        /* \"#utility.yul\":2975:2976   */\n      dup1\n        /* \"#utility.yul\":2968:2980   */\n      revert\n        /* \"#utility.yul\":2919:2982   */\n    tag_487:\n        /* \"#utility.yul\":2866:2988   */\n      pop\n      jump\t// out\n        /* \"#utility.yul\":2994:3133   */\n    tag_393:\n        /* \"#utility.yul\":3040:3045   */\n      0x00\n        /* \"#utility.yul\":3078:3084   */\n      dup2\n        /* \"#utility.yul\":3065:3085   */\n      calldataload\n        /* \"#utility.yul\":3056:3085   */\n      swap1\n      pop\n        /* \"#utility.yul\":3094:3127   */\n      tag_489\n        /* \"#utility.yul\":3121:3126   */\n      dup2\n        /* \"#utility.yul\":3094:3127   */\n      tag_392\n      jump\t// in\n    tag_489:\n        /* \"#utility.yul\":2994:3133   */\n      swap3\n      swap2\n      pop\n      pop\n      jump\t// out\n        /* \"#utility.yul\":3139:3216   */\n    tag_394:\n        /* \"#utility.yul\":3176:3183   */\n      0x00\n        /* \"#utility.yul\":3205:3210   */\n      dup2\n        /* \"#utility.yul\":3194:3210   */\n      swap1\n      pop\n        /* \"#utility.yul\":3139:3216   */\n      swap2\n      swap1\n      pop\n      jump\t// out\n        /* \"#utility.yul\":3222:3344   */\n    tag_395:\n        /* \"#utility.yul\":3295:3319   */\n      tag_492\n        /* \"#utility.yul\":3313:3318   */\n      dup2\n        /* \"#utility.yul\":3295:3319   */\n      tag_394\n      jump\t// in\n    tag_492:\n        /* \"#utility.yul\":3288:3293   */\n      dup2\n        /* \"#utility.yul\":3285:3320   */\n      eq\n        /* \"#utility.yul\":3275:3338   */\n      tag_493\n      jumpi\n        /* \"#utility.yul\":3334:3335   */\n      0x00\n        /* \"#utility.yul\":3331:3332   */\n      dup1\n        /* \"#utility.yul\":3324:3336   */\n      revert\n        /* \"#utility.yul\":3275:3338   */\n    tag_493:\n        /* \"#utility.yul\":3222:3344   */\n      pop\n      jump\t// out\n        /* \"#utility.yul\":3350:3489   */\n    tag_396:\n        /* \"#utility.yul\":3396:3401   */\n      0x00\n        /* \"#utility.yul\":3434:3440   */\n      dup2\n        /* \"#utility.yul\":3421:3441   */\n      calldataload\n        /* \"#utility.yul\":3412:3441   */\n      swap1\n      pop\n        /* \"#utility.yul\":3450:3483   */\n      tag_495\n        /* \"#utility.yul\":3477:3482   */\n      dup2\n        /* \"#utility.yul\":3450:3483   */\n      tag_395\n      jump\t// in\n    tag_495:\n        /* \"#utility.yul\":3350:3489   */\n      swap3\n      swap2\n      pop\n      pop\n      jump\t// out\n        /* \"#utility.yul\":3495:3969   */\n    tag_39:\n        /* \"#utility.yul\":3563:3569   */\n      0x00\n        /* \"#utility.yul\":3571:3577   */\n      dup1\n        /* \"#utility.yul\":3620:3622   */\n      0x40\n        /* \"#utility.yul\":3608:3617   */\n      dup4\n        /* \"#utility.yul\":3599:3606   */\n      dup6\n        /* \"#utility.yul\":3595:3618   */\n      sub\n        /* \"#utility.yul\":3591:3623   */\n      slt\n        /* \"#utility.yul\":3588:3707   */\n      iszero\n      tag_497\n      jumpi\n        /* \"#utility.yul\":3626:3705   */\n      tag_498\n      tag_388\n      jump\t// in\n    tag_498:\n        /* \"#utility.yul\":3588:3707   */\n    tag_497:\n        /* \"#utility.yul\":3746:3747   */\n      0x00\n        /* \"#utility.yul\":3771:3824   */\n      tag_499\n        /* \"#utility.yul\":3816:3823   */\n      dup6\n        /* \"#utility.yul\":3807:3813   */\n      dup3\n        /* \"#utility.yul\":3796:3805   */\n      dup7\n        /* \"#utility.yul\":3792:3814   */\n      add\n        /* \"#utility.yul\":3771:3824   */\n      tag_393\n      jump\t// in\n    tag_499:\n        /* \"#utility.yul\":3761:3824   */\n      swap3\n      pop\n        /* \"#utility.yul\":3717:3834   */\n      pop\n        /* \"#utility.yul\":3873:3875   */\n      0x20\n        /* \"#utility.yul\":3899:3952   */\n      tag_500\n        /* \"#utility.yul\":3944:3951   */\n      dup6\n        /* \"#utility.yul\":3935:3941   */\n      dup3\n        /* \"#utility.yul\":3924:3933   */\n      dup7\n        /* \"#utility.yul\":3920:3942   */\n      add\n        /* \"#utility.yul\":3899:3952   */\n      tag_396\n      jump\t// in\n    tag_500:\n        /* \"#utility.yul\":3889:3952   */\n      swap2\n      pop\n        /* \"#utility.yul\":3844:3962   */\n      pop\n        /* \"#utility.yul\":3495:3969   */\n      swap3\n      pop\n      swap3\n      swap1\n      pop\n      jump\t// out\n        /* \"#utility.yul\":3975:4065   */\n    tag_397:\n        /* \"#utility.yul\":4009:4016   */\n      0x00\n        /* \"#utility.yul\":4052:4057   */\n      dup2\n        /* \"#utility.yul\":4045:4058   */\n      iszero\n        /* \"#utility.yul\":4038:4059   */\n      iszero\n        /* \"#utility.yul\":4027:4059   */\n      swap1\n      pop\n        /* \"#utility.yul\":3975:4065   */\n      swap2\n      swap1\n      pop\n      jump\t// out\n        /* \"#utility.yul\":4071:4180   */\n    tag_398:\n        /* \"#utility.yul\":4152:4173   */\n      tag_503\n        /* \"#utility.yul\":4167:4172   */\n      dup2\n        /* \"#utility.yul\":4152:4173   */\n      tag_397\n      jump\t// in\n    tag_503:\n        /* \"#utility.yul\":4147:4150   */\n      dup3\n        /* \"#utility.yul\":4140:4174   */\n      mstore\n        /* \"#utility.yul\":4071:4180   */\n      pop\n      pop\n      jump\t// out\n        /* \"#utility.yul\":4186:4396   */\n    tag_42:\n        /* \"#utility.yul\":4273:4277   */\n      0x00\n        /* \"#utility.yul\":4311:4313   */\n      0x20\n        /* \"#utility.yul\":4300:4309   */\n      dup3\n        /* \"#utility.yul\":4296:4314   */\n      add\n        /* \"#utility.yul\":4288:4314   */\n      swap1\n      pop\n        /* \"#utility.yul\":4324:4389   */\n      tag_505\n        /* \"#utility.yul\":4386:4387   */\n      0x00\n        /* \"#utility.yul\":4375:4384   */\n      dup4\n        /* \"#utility.yul\":4371:4388   */\n      add\n        /* \"#utility.yul\":4362:4368   */\n      dup5\n        /* \"#utility.yul\":4324:4389   */\n      tag_398\n      jump\t// in\n    tag_505:\n        /* \"#utility.yul\":4186:4396   */\n      swap3\n      swap2\n      pop\n      pop\n      jump\t// out\n        /* \"#utility.yul\":4402:4520   */\n    tag_399:\n        /* \"#utility.yul\":4489:4513   */\n      tag_507\n        /* \"#utility.yul\":4507:4512   */\n      dup2\n        /* \"#utility.yul\":4489:4513   */\n      tag_391\n      jump\t// in\n    tag_507:\n        /* \"#utility.yul\":4484:4487   */\n      dup3\n        /* \"#utility.yul\":4477:4514   */\n      mstore\n        /* \"#utility.yul\":4402:4520   */\n      pop\n      pop\n      jump\t// out\n        /* \"#utility.yul\":4526:4748   */\n    tag_46:\n        /* \"#utility.yul\":4619:4623   */\n      0x00\n        /* \"#utility.yul\":4657:4659   */\n      0x20\n        /* \"#utility.yul\":4646:4655   */\n      dup3\n        /* \"#utility.yul\":4642:4660   */\n      add\n        /* \"#utility.yul\":4634:4660   */\n      swap1\n      pop\n        /* \"#utility.yul\":4670:4741   */\n      tag_509\n        /* \"#utility.yul\":4738:4739   */\n      0x00\n        /* \"#utility.yul\":4727:4736   */\n      dup4\n        /* \"#utility.yul\":4723:4740   */\n      add\n        /* \"#utility.yul\":4714:4720   */\n      dup5\n        /* \"#utility.yul\":4670:4741   */\n      tag_399\n      jump\t// in\n    tag_509:\n        /* \"#utility.yul\":4526:4748   */\n      swap3\n      swap2\n      pop\n      pop\n      jump\t// out\n        /* \"#utility.yul\":4754:4872   */\n    tag_400:\n        /* \"#utility.yul\":4841:4865   */\n      tag_511\n        /* \"#utility.yul\":4859:4864   */\n      dup2\n        /* \"#utility.yul\":4841:4865   */\n      tag_394\n      jump\t// in\n    tag_511:\n        /* \"#utility.yul\":4836:4839   */\n      dup3\n        /* \"#utility.yul\":4829:4866   */\n      mstore\n        /* \"#utility.yul\":4754:4872   */\n      pop\n      pop\n      jump\t// out\n        /* \"#utility.yul\":4878:5100   */\n    tag_50:\n        /* \"#utility.yul\":4971:4975   */\n      0x00\n        /* \"#utility.yul\":5009:5011   */\n      0x20\n        /* \"#utility.yul\":4998:5007   */\n      dup3\n        /* \"#utility.yul\":4994:5012   */\n      add\n        /* \"#utility.yul\":4986:5012   */\n      swap1\n      pop\n        /* \"#utility.yul\":5022:5093   */\n      tag_513\n        /* \"#utility.yul\":5090:5091   */\n      0x00\n        /* \"#utility.yul\":5079:5088   */\n      dup4\n        /* \"#utility.yul\":5075:5092   */\n      add\n        /* \"#utility.yul\":5066:5072   */\n      dup5\n        /* \"#utility.yul\":5022:5093   */\n      tag_400\n      jump\t// in\n    tag_513:\n        /* \"#utility.yul\":4878:5100   */\n      swap3\n      swap2\n      pop\n      pop\n      jump\t// out\n        /* \"#utility.yul\":5106:5725   */\n    tag_53:\n        /* \"#utility.yul\":5183:5189   */\n      0x00\n        /* \"#utility.yul\":5191:5197   */\n      dup1\n        /* \"#utility.yul\":5199:5205   */\n      0x00\n        /* \"#utility.yul\":5248:5250   */\n      0x60\n        /* \"#utility.yul\":5236:5245   */\n      dup5\n        /* \"#utility.yul\":5227:5234   */\n      dup7\n        /* \"#utility.yul\":5223:5246   */\n      sub\n        /* \"#utility.yul\":5219:5251   */\n      slt\n        /* \"#utility.yul\":5216:5335   */\n      iszero\n      tag_515\n      jumpi\n        /* \"#utility.yul\":5254:5333   */\n      tag_516\n      tag_388\n      jump\t// in\n    tag_516:\n        /* \"#utility.yul\":5216:5335   */\n    tag_515:\n        /* \"#utility.yul\":5374:5375   */\n      0x00\n        /* \"#utility.yul\":5399:5452   */\n      tag_517\n        /* \"#utility.yul\":5444:5451   */\n      dup7\n        /* \"#utility.yul\":5435:5441   */\n      dup3\n        /* \"#utility.yul\":5424:5433   */\n      dup8\n        /* \"#utility.yul\":5420:5442   */\n      add\n        /* \"#utility.yul\":5399:5452   */\n      tag_393\n      jump\t// in\n    tag_517:\n        /* \"#utility.yul\":5389:5452   */\n      swap4\n      pop\n        /* \"#utility.yul\":5345:5462   */\n      pop\n        /* \"#utility.yul\":5501:5503   */\n      0x20\n        /* \"#utility.yul\":5527:5580   */\n      tag_518\n        /* \"#utility.yul\":5572:5579   */\n      dup7\n        /* \"#utility.yul\":5563:5569   */\n      dup3\n        /* \"#utility.yul\":5552:5561   */\n      dup8\n        /* \"#utility.yul\":5548:5570   */\n      add\n        /* \"#utility.yul\":5527:5580   */\n      tag_393\n      jump\t// in\n    tag_518:\n        /* \"#utility.yul\":5517:5580   */\n      swap3\n      pop\n        /* \"#utility.yul\":5472:5590   */\n      pop\n        /* \"#utility.yul\":5629:5631   */\n      0x40\n        /* \"#utility.yul\":5655:5708   */\n      tag_519\n        /* \"#utility.yul\":5700:5707   */\n      dup7\n        /* \"#utility.yul\":5691:5697   */\n      dup3\n        /* \"#utility.yul\":5680:5689   */\n      dup8\n        /* \"#utility.yul\":5676:5698   */\n      add\n        /* \"#utility.yul\":5655:5708   */\n      tag_396\n      jump\t// in\n    tag_519:\n        /* \"#utility.yul\":5645:5708   */\n      swap2\n      pop\n        /* \"#utility.yul\":5600:5718   */\n      pop\n        /* \"#utility.yul\":5106:5725   */\n      swap3\n      pop\n      swap3\n      pop\n      swap3\n      jump\t// out\n        /* \"#utility.yul\":5731:5817   */\n    tag_401:\n        /* \"#utility.yul\":5766:5773   */\n      0x00\n        /* \"#utility.yul\":5806:5810   */\n      0xff\n        /* \"#utility.yul\":5799:5804   */\n      dup3\n        /* \"#utility.yul\":5795:5811   */\n      and\n        /* \"#utility.yul\":5784:5811   */\n      swap1\n      pop\n        /* \"#utility.yul\":5731:5817   */\n      swap2\n      swap1\n      pop\n      jump\t// out\n        /* \"#utility.yul\":5823:5935   */\n    tag_402:\n        /* \"#utility.yul\":5906:5928   */\n      tag_522\n        /* \"#utility.yul\":5922:5927   */\n      dup2\n        /* \"#utility.yul\":5906:5928   */\n      tag_401\n      jump\t// in\n    tag_522:\n        /* \"#utility.yul\":5901:5904   */\n      dup3\n        /* \"#utility.yul\":5894:5929   */\n      mstore\n        /* \"#utility.yul\":5823:5935   */\n      pop\n      pop\n      jump\t// out\n        /* \"#utility.yul\":5941:6155   */\n    tag_59:\n        /* \"#utility.yul\":6030:6034   */\n      0x00\n        /* \"#utility.yul\":6068:6070   */\n      0x20\n        /* \"#utility.yul\":6057:6066   */\n      dup3\n        /* \"#utility.yul\":6053:6071   */\n      add\n        /* \"#utility.yul\":6045:6071   */\n      swap1\n      pop\n        /* \"#utility.yul\":6081:6148   */\n      tag_524\n        /* \"#utility.yul\":6145:6146   */\n      0x00\n        /* \"#utility.yul\":6134:6143   */\n      dup4\n        /* \"#utility.yul\":6130:6147   */\n      add\n        /* \"#utility.yul\":6121:6127   */\n      dup5\n        /* \"#utility.yul\":6081:6148   */\n      tag_402\n      jump\t// in\n    tag_524:\n        /* \"#utility.yul\":5941:6155   */\n      swap3\n      swap2\n      pop\n      pop\n      jump\t// out\n        /* \"#utility.yul\":6161:6238   */\n    tag_403:\n        /* \"#utility.yul\":6198:6205   */\n      0x00\n        /* \"#utility.yul\":6227:6232   */\n      dup2\n        /* \"#utility.yul\":6216:6232   */\n      swap1\n      pop\n        /* \"#utility.yul\":6161:6238   */\n      swap2\n      swap1\n      pop\n      jump\t// out\n        /* \"#utility.yul\":6244:6362   */\n    tag_404:\n        /* \"#utility.yul\":6331:6355   */\n      tag_527\n        /* \"#utility.yul\":6349:6354   */\n      dup2\n        /* \"#utility.yul\":6331:6355   */\n      tag_403\n      jump\t// in\n    tag_527:\n        /* \"#utility.yul\":6326:6329   */\n      dup3\n        /* \"#utility.yul\":6319:6356   */\n      mstore\n        /* \"#utility.yul\":6244:6362   */\n      pop\n      pop\n      jump\t// out\n        /* \"#utility.yul\":6368:6590   */\n    tag_63:\n        /* \"#utility.yul\":6461:6465   */\n      0x00\n        /* \"#utility.yul\":6499:6501   */\n      0x20\n        /* \"#utility.yul\":6488:6497   */\n      dup3\n        /* \"#utility.yul\":6484:6502   */\n      add\n        /* \"#utility.yul\":6476:6502   */\n      swap1\n      pop\n        /* \"#utility.yul\":6512:6583   */\n      tag_529\n        /* \"#utility.yul\":6580:6581   */\n      0x00\n        /* \"#utility.yul\":6569:6578   */\n      dup4\n        /* \"#utility.yul\":6565:6582   */\n      add\n        /* \"#utility.yul\":6556:6562   */\n      dup5\n        /* \"#utility.yul\":6512:6583   */\n      tag_404\n      jump\t// in\n    tag_529:\n        /* \"#utility.yul\":6368:6590   */\n      swap3\n      swap2\n      pop\n      pop\n      jump\t// out\n        /* \"#utility.yul\":6596:7070   */\n    tag_66:\n        /* \"#utility.yul\":6664:6670   */\n      0x00\n        /* \"#utility.yul\":6672:6678   */\n      dup1\n        /* \"#utility.yul\":6721:6723   */\n      0x40\n        /* \"#utility.yul\":6709:6718   */\n      dup4\n        /* \"#utility.yul\":6700:6707   */\n      dup6\n        /* \"#utility.yul\":6696:6719   */\n      sub\n        /* \"#utility.yul\":6692:6724   */\n      slt\n        /* \"#utility.yul\":6689:6808   */\n      iszero\n      tag_531\n      jumpi\n        /* \"#utility.yul\":6727:6806   */\n      tag_532\n      tag_388\n      jump\t// in\n    tag_532:\n        /* \"#utility.yul\":6689:6808   */\n    tag_531:\n        /* \"#utility.yul\":6847:6848   */\n      0x00\n        /* \"#utility.yul\":6872:6925   */\n      tag_533\n        /* \"#utility.yul\":6917:6924   */\n      dup6\n        /* \"#utility.yul\":6908:6914   */\n      dup3\n        /* \"#utility.yul\":6897:6906   */\n      dup7\n        /* \"#utility.yul\":6893:6915   */\n      add\n        /* \"#utility.yul\":6872:6925   */\n      tag_393\n      jump\t// in\n    tag_533:\n        /* \"#utility.yul\":6862:6925   */\n      swap3\n      pop\n        /* \"#utility.yul\":6818:6935   */\n      pop\n        /* \"#utility.yul\":6974:6976   */\n      0x20\n        /* \"#utility.yul\":7000:7053   */\n      tag_534\n        /* \"#utility.yul\":7045:7052   */\n      dup6\n        /* \"#utility.yul\":7036:7042   */\n      dup3\n        /* \"#utility.yul\":7025:7034   */\n      dup7\n        /* \"#utility.yul\":7021:7043   */\n      add\n        /* \"#utility.yul\":7000:7053   */\n      tag_393\n      jump\t// in\n    tag_534:\n        /* \"#utility.yul\":6990:7053   */\n      swap2\n      pop\n        /* \"#utility.yul\":6945:7063   */\n      pop\n        /* \"#utility.yul\":6596:7070   */\n      swap3\n      pop\n      swap3\n      swap1\n      pop\n      jump\t// out\n        /* \"#utility.yul\":7076:7405   */\n    tag_76:\n        /* \"#utility.yul\":7135:7141   */\n      0x00\n        /* \"#utility.yul\":7184:7186   */\n      0x20\n        /* \"#utility.yul\":7172:7181   */\n      dup3\n        /* \"#utility.yul\":7163:7170   */\n      dup5\n        /* \"#utility.yul\":7159:7182   */\n      sub\n        /* \"#utility.yul\":7155:7187   */\n      slt\n        /* \"#utility.yul\":7152:7271   */\n      iszero\n      tag_536\n      jumpi\n        /* \"#utility.yul\":7190:7269   */\n      tag_537\n      tag_388\n      jump\t// in\n    tag_537:\n        /* \"#utility.yul\":7152:7271   */\n    tag_536:\n        /* \"#utility.yul\":7310:7311   */\n      0x00\n        /* \"#utility.yul\":7335:7388   */\n      tag_538\n        /* \"#utility.yul\":7380:7387   */\n      dup5\n        /* \"#utility.yul\":7371:7377   */\n      dup3\n        /* \"#utility.yul\":7360:7369   */\n      dup6\n        /* \"#utility.yul\":7356:7378   */\n      add\n        /* \"#utility.yul\":7335:7388   */\n      tag_393\n      jump\t// in\n    tag_538:\n        /* \"#utility.yul\":7325:7388   */\n      swap2\n      pop\n        /* \"#utility.yul\":7281:7398   */\n      pop\n        /* \"#utility.yul\":7076:7405   */\n      swap3\n      swap2\n      pop\n      pop\n      jump\t// out\n        /* \"#utility.yul\":7411:8030   */\n    tag_81:\n        /* \"#utility.yul\":7488:7494   */\n      0x00\n        /* \"#utility.yul\":7496:7502   */\n      dup1\n        /* \"#utility.yul\":7504:7510   */\n      0x00\n        /* \"#utility.yul\":7553:7555   */\n      0x60\n        /* \"#utility.yul\":7541:7550   */\n      dup5\n        /* \"#utility.yul\":7532:7539   */\n      dup7\n        /* \"#utility.yul\":7528:7551   */\n      sub\n        /* \"#utility.yul\":7524:7556   */\n      slt\n        /* \"#utility.yul\":7521:7640   */\n      iszero\n      tag_540\n      jumpi\n        /* \"#utility.yul\":7559:7638   */\n      tag_541\n      tag_388\n      jump\t// in\n    tag_541:\n        /* \"#utility.yul\":7521:7640   */\n    tag_540:\n        /* \"#utility.yul\":7679:7680   */\n      0x00\n        /* \"#utility.yul\":7704:7757   */\n      tag_542\n        /* \"#utility.yul\":7749:7756   */\n      dup7\n        /* \"#utility.yul\":7740:7746   */\n      dup3\n        /* \"#utility.yul\":7729:7738   */\n      dup8\n        /* \"#utility.yul\":7725:7747   */\n      add\n        /* \"#utility.yul\":7704:7757   */\n      tag_396\n      jump\t// in\n    tag_542:\n        /* \"#utility.yul\":7694:7757   */\n      swap4\n      pop\n        /* \"#utility.yul\":7650:7767   */\n      pop\n        /* \"#utility.yul\":7806:7808   */\n      0x20\n        /* \"#utility.yul\":7832:7885   */\n      tag_543\n        /* \"#utility.yul\":7877:7884   */\n      dup7\n        /* \"#utility.yul\":7868:7874   */\n      dup3\n        /* \"#utility.yul\":7857:7866   */\n      dup8\n        /* \"#utility.yul\":7853:7875   */\n      add\n        /* \"#utility.yul\":7832:7885   */\n      tag_396\n      jump\t// in\n    tag_543:\n        /* \"#utility.yul\":7822:7885   */\n      swap3\n      pop\n        /* \"#utility.yul\":7777:7895   */\n      pop\n        /* \"#utility.yul\":7934:7936   */\n      0x40\n        /* \"#utility.yul\":7960:8013   */\n      tag_544\n        /* \"#utility.yul\":8005:8012   */\n      dup7\n        /* \"#utility.yul\":7996:8002   */\n      dup3\n        /* \"#utility.yul\":7985:7994   */\n      dup8\n        /* \"#utility.yul\":7981:8003   */\n      add\n        /* \"#utility.yul\":7960:8013   */\n      tag_393\n      jump\t// in\n    tag_544:\n        /* \"#utility.yul\":7950:8013   */\n      swap2\n      pop\n        /* \"#utility.yul\":7905:8023   */\n      pop\n        /* \"#utility.yul\":7411:8030   */\n      swap3\n      pop\n      swap3\n      pop\n      swap3\n      jump\t// out\n        /* \"#utility.yul\":8036:8368   */\n    tag_95:\n        /* \"#utility.yul\":8157:8161   */\n      0x00\n        /* \"#utility.yul\":8195:8197   */\n      0x40\n        /* \"#utility.yul\":8184:8193   */\n      dup3\n        /* \"#utility.yul\":8180:8198   */\n      add\n        /* \"#utility.yul\":8172:8198   */\n      swap1\n      pop\n        /* \"#utility.yul\":8208:8279   */\n      tag_546\n        /* \"#utility.yul\":8276:8277   */\n      0x00\n        /* \"#utility.yul\":8265:8274   */\n      dup4\n        /* \"#utility.yul\":8261:8278   */\n      add\n        /* \"#utility.yul\":8252:8258   */\n      dup6\n        /* \"#utility.yul\":8208:8279   */\n      tag_400\n      jump\t// in\n    tag_546:\n        /* \"#utility.yul\":8289:8361   */\n      tag_547\n        /* \"#utility.yul\":8357:8359   */\n      0x20\n        /* \"#utility.yul\":8346:8355   */\n      dup4\n        /* \"#utility.yul\":8342:8360   */\n      add\n        /* \"#utility.yul\":8333:8339   */\n      dup5\n        /* \"#utility.yul\":8289:8361   */\n      tag_400\n      jump\t// in\n    tag_547:\n        /* \"#utility.yul\":8036:8368   */\n      swap4\n      swap3\n      pop\n      pop\n      pop\n      jump\t// out\n        /* \"#utility.yul\":8374:8492   */\n    tag_405:\n        /* \"#utility.yul\":8445:8467   */\n      tag_549\n        /* \"#utility.yul\":8461:8466   */\n      dup2\n        /* \"#utility.yul\":8445:8467   */\n      tag_401\n      jump\t// in\n    tag_549:\n        /* \"#utility.yul\":8438:8443   */\n      dup2\n        /* \"#utility.yul\":8435:8468   */\n      eq\n        /* \"#utility.yul\":8425:8486   */\n      tag_550\n      jumpi\n        /* \"#utility.yul\":8482:8483   */\n      0x00\n        /* \"#utility.yul\":8479:8480   */\n      dup1\n        /* \"#utility.yul\":8472:8484   */\n      revert\n        /* \"#utility.yul\":8425:8486   */\n    tag_550:\n        /* \"#utility.yul\":8374:8492   */\n      pop\n      jump\t// out\n        /* \"#utility.yul\":8498:8633   */\n    tag_406:\n        /* \"#utility.yul\":8542:8547   */\n      0x00\n        /* \"#utility.yul\":8580:8586   */\n      dup2\n        /* \"#utility.yul\":8567:8587   */\n      calldataload\n        /* \"#utility.yul\":8558:8587   */\n      swap1\n      pop\n        /* \"#utility.yul\":8596:8627   */\n      tag_552\n        /* \"#utility.yul\":8621:8626   */\n      dup2\n        /* \"#utility.yul\":8596:8627   */\n      tag_405\n      jump\t// in\n    tag_552:\n        /* \"#utility.yul\":8498:8633   */\n      swap3\n      swap2\n      pop\n      pop\n      jump\t// out\n        /* \"#utility.yul\":8639:8761   */\n    tag_407:\n        /* \"#utility.yul\":8712:8736   */\n      tag_554\n        /* \"#utility.yul\":8730:8735   */\n      dup2\n        /* \"#utility.yul\":8712:8736   */\n      tag_403\n      jump\t// in\n    tag_554:\n        /* \"#utility.yul\":8705:8710   */\n      dup2\n        /* \"#utility.yul\":8702:8737   */\n      eq\n        /* \"#utility.yul\":8692:8755   */\n      tag_555\n      jumpi\n        /* \"#utility.yul\":8751:8752   */\n      0x00\n        /* \"#utility.yul\":8748:8749   */\n      dup1\n        /* \"#utility.yul\":8741:8753   */\n      revert\n        /* \"#utility.yul\":8692:8755   */\n    tag_555:\n        /* \"#utility.yul\":8639:8761   */\n      pop\n      jump\t// out\n        /* \"#utility.yul\":8767:8906   */\n    tag_408:\n        /* \"#utility.yul\":8813:8818   */\n      0x00\n        /* \"#utility.yul\":8851:8857   */\n      dup2\n        /* \"#utility.yul\":8838:8858   */\n      calldataload\n        /* \"#utility.yul\":8829:8858   */\n      swap1\n      pop\n        /* \"#utility.yul\":8867:8900   */\n      tag_557\n        /* \"#utility.yul\":8894:8899   */\n      dup2\n        /* \"#utility.yul\":8867:8900   */\n      tag_407\n      jump\t// in\n    tag_557:\n        /* \"#utility.yul\":8767:8906   */\n      swap3\n      swap2\n      pop\n      pop\n      jump\t// out\n        /* \"#utility.yul\":8912:10111   */\n    tag_111:\n        /* \"#utility.yul\":9023:9029   */\n      0x00\n        /* \"#utility.yul\":9031:9037   */\n      dup1\n        /* \"#utility.yul\":9039:9045   */\n      0x00\n        /* \"#utility.yul\":9047:9053   */\n      dup1\n        /* \"#utility.yul\":9055:9061   */\n      0x00\n        /* \"#utility.yul\":9063:9069   */\n      dup1\n        /* \"#utility.yul\":9071:9077   */\n      0x00\n        /* \"#utility.yul\":9120:9123   */\n      0xe0\n        /* \"#utility.yul\":9108:9117   */\n      dup9\n        /* \"#utility.yul\":9099:9106   */\n      dup11\n        /* \"#utility.yul\":9095:9118   */\n      sub\n        /* \"#utility.yul\":9091:9124   */\n      slt\n        /* \"#utility.yul\":9088:9208   */\n      iszero\n      tag_559\n      jumpi\n        /* \"#utility.yul\":9127:9206   */\n      tag_560\n      tag_388\n      jump\t// in\n    tag_560:\n        /* \"#utility.yul\":9088:9208   */\n    tag_559:\n        /* \"#utility.yul\":9247:9248   */\n      0x00\n        /* \"#utility.yul\":9272:9325   */\n      tag_561\n        /* \"#utility.yul\":9317:9324   */\n      dup11\n        /* \"#utility.yul\":9308:9314   */\n      dup3\n        /* \"#utility.yul\":9297:9306   */\n      dup12\n        /* \"#utility.yul\":9293:9315   */\n      add\n        /* \"#utility.yul\":9272:9325   */\n      tag_393\n      jump\t// in\n    tag_561:\n        /* \"#utility.yul\":9262:9325   */\n      swap8\n      pop\n        /* \"#utility.yul\":9218:9335   */\n      pop\n        /* \"#utility.yul\":9374:9376   */\n      0x20\n        /* \"#utility.yul\":9400:9453   */\n      tag_562\n        /* \"#utility.yul\":9445:9452   */\n      dup11\n        /* \"#utility.yul\":9436:9442   */\n      dup3\n        /* \"#utility.yul\":9425:9434   */\n      dup12\n        /* \"#utility.yul\":9421:9443   */\n      add\n        /* \"#utility.yul\":9400:9453   */\n      tag_393\n      jump\t// in\n    tag_562:\n        /* \"#utility.yul\":9390:9453   */\n      swap7\n      pop\n        /* \"#utility.yul\":9345:9463   */\n      pop\n        /* \"#utility.yul\":9502:9504   */\n      0x40\n        /* \"#utility.yul\":9528:9581   */\n      tag_563\n        /* \"#utility.yul\":9573:9580   */\n      dup11\n        /* \"#utility.yul\":9564:9570   */\n      dup3\n        /* \"#utility.yul\":9553:9562   */\n      dup12\n        /* \"#utility.yul\":9549:9571   */\n      add\n        /* \"#utility.yul\":9528:9581   */\n      tag_396\n      jump\t// in\n    tag_563:\n        /* \"#utility.yul\":9518:9581   */\n      swap6\n      pop\n        /* \"#utility.yul\":9473:9591   */\n      pop\n        /* \"#utility.yul\":9630:9632   */\n      0x60\n        /* \"#utility.yul\":9656:9709   */\n      tag_564\n        /* \"#utility.yul\":9701:9708   */\n      dup11\n        /* \"#utility.yul\":9692:9698   */\n      dup3\n        /* \"#utility.yul\":9681:9690   */\n      dup12\n        /* \"#utility.yul\":9677:9699   */\n      add\n        /* \"#utility.yul\":9656:9709   */\n      tag_396\n      jump\t// in\n    tag_564:\n        /* \"#utility.yul\":9646:9709   */\n      swap5\n      pop\n        /* \"#utility.yul\":9601:9719   */\n      pop\n        /* \"#utility.yul\":9758:9761   */\n      0x80\n        /* \"#utility.yul\":9785:9836   */\n      tag_565\n        /* \"#utility.yul\":9828:9835   */\n      dup11\n        /* \"#utility.yul\":9819:9825   */\n      dup3\n        /* \"#utility.yul\":9808:9817   */\n      dup12\n        /* \"#utility.yul\":9804:9826   */\n      add\n        /* \"#utility.yul\":9785:9836   */\n      tag_406\n      jump\t// in\n    tag_565:\n        /* \"#utility.yul\":9775:9836   */\n      swap4\n      pop\n        /* \"#utility.yul\":9729:9846   */\n      pop\n        /* \"#utility.yul\":9885:9888   */\n      0xa0\n        /* \"#utility.yul\":9912:9965   */\n      tag_566\n        /* \"#utility.yul\":9957:9964   */\n      dup11\n        /* \"#utility.yul\":9948:9954   */\n      dup3\n        /* \"#utility.yul\":9937:9946   */\n      dup12\n        /* \"#utility.yul\":9933:9955   */\n      add\n        /* \"#utility.yul\":9912:9965   */\n      tag_408\n      jump\t// in\n    tag_566:\n        /* \"#utility.yul\":9902:9965   */\n      swap3\n      pop\n        /* \"#utility.yul\":9856:9975   */\n      pop\n        /* \"#utility.yul\":10014:10017   */\n      0xc0\n        /* \"#utility.yul\":10041:10094   */\n      tag_567\n        /* \"#utility.yul\":10086:10093   */\n      dup11\n        /* \"#utility.yul\":10077:10083   */\n      dup3\n        /* \"#utility.yul\":10066:10075   */\n      dup12\n        /* \"#utility.yul\":10062:10084   */\n      add\n        /* \"#utility.yul\":10041:10094   */\n      tag_408\n      jump\t// in\n    tag_567:\n        /* \"#utility.yul\":10031:10094   */\n      swap2\n      pop\n        /* \"#utility.yul\":9985:10104   */\n      pop\n        /* \"#utility.yul\":8912:10111   */\n      swap3\n      swap6\n      swap9\n      swap2\n      swap5\n      swap8\n      pop\n      swap3\n      swap6\n      pop\n      jump\t// out\n        /* \"#utility.yul\":10117:10297   */\n    tag_409:\n        /* \"#utility.yul\":10165:10242   */\n      0x4e487b7100000000000000000000000000000000000000000000000000000000\n        /* \"#utility.yul\":10162:10163   */\n      0x00\n        /* \"#utility.yul\":10155:10243   */\n      mstore\n        /* \"#utility.yul\":10262:10266   */\n      0x22\n        /* \"#utility.yul\":10259:10260   */\n      0x04\n        /* \"#utility.yul\":10252:10267   */\n      mstore\n        /* \"#utility.yul\":10286:10290   */\n      0x24\n        /* \"#utility.yul\":10283:10284   */\n      0x00\n        /* \"#utility.yul\":10276:10291   */\n      revert\n        /* \"#utility.yul\":10303:10623   */\n    tag_120:\n        /* \"#utility.yul\":10347:10353   */\n      0x00\n        /* \"#utility.yul\":10384:10385   */\n      0x02\n        /* \"#utility.yul\":10378:10382   */\n      dup3\n        /* \"#utility.yul\":10374:10386   */\n      div\n        /* \"#utility.yul\":10364:10386   */\n      swap1\n      pop\n        /* \"#utility.yul\":10431:10432   */\n      0x01\n        /* \"#utility.yul\":10425:10429   */\n      dup3\n        /* \"#utility.yul\":10421:10433   */\n      and\n        /* \"#utility.yul\":10452:10470   */\n      dup1\n        /* \"#utility.yul\":10442:10523   */\n      tag_570\n      jumpi\n        /* \"#utility.yul\":10508:10512   */\n      0x7f\n        /* \"#utility.yul\":10500:10506   */\n      dup3\n        /* \"#utility.yul\":10496:10513   */\n      and\n        /* \"#utility.yul\":10486:10513   */\n      swap2\n      pop\n        /* \"#utility.yul\":10442:10523   */\n    tag_570:\n        /* \"#utility.yul\":10570:10572   */\n      0x20\n        /* \"#utility.yul\":10562:10568   */\n      dup3\n        /* \"#utility.yul\":10559:10573   */\n      lt\n        /* \"#utility.yul\":10539:10557   */\n      dup2\n        /* \"#utility.yul\":10536:10574   */\n      sub\n        /* \"#utility.yul\":10533:10617   */\n      tag_571\n      jumpi\n        /* \"#utility.yul\":10589:10607   */\n      tag_572\n      tag_409\n      jump\t// in\n    tag_572:\n        /* \"#utility.yul\":10533:10617   */\n    tag_571:\n        /* \"#utility.yul\":10354:10623   */\n      pop\n        /* \"#utility.yul\":10303:10623   */\n      swap2\n      swap1\n      pop\n      jump\t// out\n        /* \"#utility.yul\":10629:10809   */\n    tag_410:\n        /* \"#utility.yul\":10677:10754   */\n      0x4e487b7100000000000000000000000000000000000000000000000000000000\n        /* \"#utility.yul\":10674:10675   */\n      0x00\n        /* \"#utility.yul\":10667:10755   */\n      mstore\n        /* \"#utility.yul\":10774:10778   */\n      0x11\n        /* \"#utility.yul\":10771:10772   */\n      0x04\n        /* \"#utility.yul\":10764:10779   */\n      mstore\n        /* \"#utility.yul\":10798:10802   */\n      0x24\n        /* \"#utility.yul\":10795:10796   */\n      0x00\n        /* \"#utility.yul\":10788:10803   */\n      revert\n        /* \"#utility.yul\":10815:11006   */\n    tag_131:\n        /* \"#utility.yul\":10855:10859   */\n      0x00\n        /* \"#utility.yul\":10875:10895   */\n      tag_575\n        /* \"#utility.yul\":10893:10894   */\n      dup3\n        /* \"#utility.yul\":10875:10895   */\n      tag_394\n      jump\t// in\n    tag_575:\n        /* \"#utility.yul\":10870:10895   */\n      swap2\n      pop\n        /* \"#utility.yul\":10909:10929   */\n      tag_576\n        /* \"#utility.yul\":10927:10928   */\n      dup4\n        /* \"#utility.yul\":10909:10929   */\n      tag_394\n      jump\t// in\n    tag_576:\n        /* \"#utility.yul\":10904:10929   */\n      swap3\n      pop\n        /* \"#utility.yul\":10948:10949   */\n      dup3\n        /* \"#utility.yul\":10945:10946   */\n      dup3\n        /* \"#utility.yul\":10942:10950   */\n      lt\n        /* \"#utility.yul\":10939:10973   */\n      iszero\n      tag_577\n      jumpi\n        /* \"#utility.yul\":10953:10971   */\n      tag_578\n      tag_410\n      jump\t// in\n    tag_578:\n        /* \"#utility.yul\":10939:10973   */\n    tag_577:\n        /* \"#utility.yul\":10998:10999   */\n      dup3\n        /* \"#utility.yul\":10995:10996   */\n      dup3\n        /* \"#utility.yul\":10991:11000   */\n      sub\n        /* \"#utility.yul\":10983:11000   */\n      swap1\n      pop\n        /* \"#utility.yul\":10815:11006   */\n      swap3\n      swap2\n      pop\n      pop\n      jump\t// out\n        /* \"#utility.yul\":11012:11181   */\n    tag_411:\n        /* \"#utility.yul\":11152:11173   */\n      0x4b616a75737761703a20464f5242494444454e00000000000000000000000000\n        /* \"#utility.yul\":11148:11149   */\n      0x00\n        /* \"#utility.yul\":11140:11146   */\n      dup3\n        /* \"#utility.yul\":11136:11150   */\n      add\n        /* \"#utility.yul\":11129:11174   */\n      mstore\n        /* \"#utility.yul\":11012:11181   */\n      pop\n      jump\t// out\n        /* \"#utility.yul\":11187:11553   */\n    tag_412:\n        /* \"#utility.yul\":11329:11332   */\n      0x00\n        /* \"#utility.yul\":11350:11417   */\n      tag_581\n        /* \"#utility.yul\":11414:11416   */\n      0x13\n        /* \"#utility.yul\":11409:11412   */\n      dup4\n        /* \"#utility.yul\":11350:11417   */\n      tag_379\n      jump\t// in\n    tag_581:\n        /* \"#utility.yul\":11343:11417   */\n      swap2\n      pop\n        /* \"#utility.yul\":11426:11519   */\n      tag_582\n        /* \"#utility.yul\":11515:11518   */\n      dup3\n        /* \"#utility.yul\":11426:11519   */\n      tag_411\n      jump\t// in\n    tag_582:\n        /* \"#utility.yul\":11544:11546   */\n      0x20\n        /* \"#utility.yul\":11539:11542   */\n      dup3\n        /* \"#utility.yul\":11535:11547   */\n      add\n        /* \"#utility.yul\":11528:11547   */\n      swap1\n      pop\n        /* \"#utility.yul\":11187:11553   */\n      swap2\n      swap1\n      pop\n      jump\t// out\n        /* \"#utility.yul\":11559:11978   */\n    tag_142:\n        /* \"#utility.yul\":11725:11729   */\n      0x00\n        /* \"#utility.yul\":11763:11765   */\n      0x20\n        /* \"#utility.yul\":11752:11761   */\n      dup3\n        /* \"#utility.yul\":11748:11766   */\n      add\n        /* \"#utility.yul\":11740:11766   */\n      swap1\n      pop\n        /* \"#utility.yul\":11812:11821   */\n      dup2\n        /* \"#utility.yul\":11806:11810   */\n      dup2\n        /* \"#utility.yul\":11802:11822   */\n      sub\n        /* \"#utility.yul\":11798:11799   */\n      0x00\n        /* \"#utility.yul\":11787:11796   */\n      dup4\n        /* \"#utility.yul\":11783:11800   */\n      add\n        /* \"#utility.yul\":11776:11823   */\n      mstore\n        /* \"#utility.yul\":11840:11971   */\n      tag_584\n        /* \"#utility.yul\":11966:11970   */\n      dup2\n        /* \"#utility.yul\":11840:11971   */\n      tag_412\n      jump\t// in\n    tag_584:\n        /* \"#utility.yul\":11832:11971   */\n      swap1\n      pop\n        /* \"#utility.yul\":11559:11978   */\n      swap2\n      swap1\n      pop\n      jump\t// out\n        /* \"#utility.yul\":11984:12213   */\n    tag_413:\n        /* \"#utility.yul\":12124:12158   */\n      0x4b616a75737761703a20596f752063616e6e6f7420456e74657220696e207468\n        /* \"#utility.yul\":12120:12121   */\n      0x00\n        /* \"#utility.yul\":12112:12118   */\n      dup3\n        /* \"#utility.yul\":12108:12122   */\n      add\n        /* \"#utility.yul\":12101:12159   */\n      mstore\n        /* \"#utility.yul\":12193:12205   */\n      0x6520636f6e747261637400000000000000000000000000000000000000000000\n        /* \"#utility.yul\":12188:12190   */\n      0x20\n        /* \"#utility.yul\":12180:12186   */\n      dup3\n        /* \"#utility.yul\":12176:12191   */\n      add\n        /* \"#utility.yul\":12169:12206   */\n      mstore\n        /* \"#utility.yul\":11984:12213   */\n      pop\n      jump\t// out\n        /* \"#utility.yul\":12219:12585   */\n    tag_414:\n        /* \"#utility.yul\":12361:12364   */\n      0x00\n        /* \"#utility.yul\":12382:12449   */\n      tag_587\n        /* \"#utility.yul\":12446:12448   */\n      0x2a\n        /* \"#utility.yul\":12441:12444   */\n      dup4\n        /* \"#utility.yul\":12382:12449   */\n      tag_379\n      jump\t// in\n    tag_587:\n        /* \"#utility.yul\":12375:12449   */\n      swap2\n      pop\n        /* \"#utility.yul\":12458:12551   */\n      tag_588\n        /* \"#utility.yul\":12547:12550   */\n      dup3\n        /* \"#utility.yul\":12458:12551   */\n      tag_413\n      jump\t// in\n    tag_588:\n        /* \"#utility.yul\":12576:12578   */\n      0x40\n        /* \"#utility.yul\":12571:12574   */\n      dup3\n        /* \"#utility.yul\":12567:12579   */\n      add\n        /* \"#utility.yul\":12560:12579   */\n      swap1\n      pop\n        /* \"#utility.yul\":12219:12585   */\n      swap2\n      swap1\n      pop\n      jump\t// out\n        /* \"#utility.yul\":12591:13010   */\n    tag_148:\n        /* \"#utility.yul\":12757:12761   */\n      0x00\n        /* \"#utility.yul\":12795:12797   */\n      0x20\n        /* \"#utility.yul\":12784:12793   */\n      dup3\n        /* \"#utility.yul\":12780:12798   */\n      add\n        /* \"#utility.yul\":12772:12798   */\n      swap1\n      pop\n        /* \"#utility.yul\":12844:12853   */\n      dup2\n        /* \"#utility.yul\":12838:12842   */\n      dup2\n        /* \"#utility.yul\":12834:12854   */\n      sub\n        /* \"#utility.yul\":12830:12831   */\n      0x00\n        /* \"#utility.yul\":12819:12828   */\n      dup4\n        /* \"#utility.yul\":12815:12832   */\n      add\n        /* \"#utility.yul\":12808:12855   */\n      mstore\n        /* \"#utility.yul\":12872:13003   */\n      tag_590\n        /* \"#utility.yul\":12998:13002   */\n      dup2\n        /* \"#utility.yul\":12872:13003   */\n      tag_414\n      jump\t// in\n    tag_590:\n        /* \"#utility.yul\":12864:13003   */\n      swap1\n      pop\n        /* \"#utility.yul\":12591:13010   */\n      swap2\n      swap1\n      pop\n      jump\t// out\n        /* \"#utility.yul\":13016:13159   */\n    tag_415:\n        /* \"#utility.yul\":13073:13078   */\n      0x00\n        /* \"#utility.yul\":13104:13110   */\n      dup2\n        /* \"#utility.yul\":13098:13111   */\n      mload\n        /* \"#utility.yul\":13089:13111   */\n      swap1\n      pop\n        /* \"#utility.yul\":13120:13153   */\n      tag_592\n        /* \"#utility.yul\":13147:13152   */\n      dup2\n        /* \"#utility.yul\":13120:13153   */\n      tag_395\n      jump\t// in\n    tag_592:\n        /* \"#utility.yul\":13016:13159   */\n      swap3\n      swap2\n      pop\n      pop\n      jump\t// out\n        /* \"#utility.yul\":13165:13516   */\n    tag_155:\n        /* \"#utility.yul\":13235:13241   */\n      0x00\n        /* \"#utility.yul\":13284:13286   */\n      0x20\n        /* \"#utility.yul\":13272:13281   */\n      dup3\n        /* \"#utility.yul\":13263:13270   */\n      dup5\n        /* \"#utility.yul\":13259:13282   */\n      sub\n        /* \"#utility.yul\":13255:13287   */\n      slt\n        /* \"#utility.yul\":13252:13371   */\n      iszero\n      tag_594\n      jumpi\n        /* \"#utility.yul\":13290:13369   */\n      tag_595\n      tag_388\n      jump\t// in\n    tag_595:\n        /* \"#utility.yul\":13252:13371   */\n    tag_594:\n        /* \"#utility.yul\":13410:13411   */\n      0x00\n        /* \"#utility.yul\":13435:13499   */\n      tag_596\n        /* \"#utility.yul\":13491:13498   */\n      dup5\n        /* \"#utility.yul\":13482:13488   */\n      dup3\n        /* \"#utility.yul\":13471:13480   */\n      dup6\n        /* \"#utility.yul\":13467:13489   */\n      add\n        /* \"#utility.yul\":13435:13499   */\n      tag_415\n      jump\t// in\n    tag_596:\n        /* \"#utility.yul\":13425:13499   */\n      swap2\n      pop\n        /* \"#utility.yul\":13381:13509   */\n      pop\n        /* \"#utility.yul\":13165:13516   */\n      swap3\n      swap2\n      pop\n      pop\n      jump\t// out\n        /* \"#utility.yul\":13522:13870   */\n    tag_165:\n        /* \"#utility.yul\":13562:13569   */\n      0x00\n        /* \"#utility.yul\":13585:13605   */\n      tag_598\n        /* \"#utility.yul\":13603:13604   */\n      dup3\n        /* \"#utility.yul\":13585:13605   */\n      tag_394\n      jump\t// in\n    tag_598:\n        /* \"#utility.yul\":13580:13605   */\n      swap2\n      pop\n        /* \"#utility.yul\":13619:13639   */\n      tag_599\n        /* \"#utility.yul\":13637:13638   */\n      dup4\n        /* \"#utility.yul\":13619:13639   */\n      tag_394\n      jump\t// in\n    tag_599:\n        /* \"#utility.yul\":13614:13639   */\n      swap3\n      pop\n        /* \"#utility.yul\":13807:13808   */\n      dup2\n        /* \"#utility.yul\":13739:13805   */\n      0xffffffffffffffffffffffffffffffffffffffffffffffffffffffffffffffff\n        /* \"#utility.yul\":13735:13809   */\n      div\n        /* \"#utility.yul\":13732:13733   */\n      dup4\n        /* \"#utility.yul\":13729:13810   */\n      gt\n        /* \"#utility.yul\":13724:13725   */\n      dup3\n        /* \"#utility.yul\":13717:13726   */\n      iszero\n        /* \"#utility.yul\":13710:13727   */\n      iszero\n        /* \"#utility.yul\":13706:13811   */\n      and\n        /* \"#utility.yul\":13703:13834   */\n      iszero\n      tag_600\n      jumpi\n        /* \"#utility.yul\":13814:13832   */\n      tag_601\n      tag_410\n      jump\t// in\n    tag_601:\n        /* \"#utility.yul\":13703:13834   */\n    tag_600:\n        /* \"#utility.yul\":13862:13863   */\n      dup3\n        /* \"#utility.yul\":13859:13860   */\n      dup3\n        /* \"#utility.yul\":13855:13864   */\n      mul\n        /* \"#utility.yul\":13844:13864   */\n      swap1\n      pop\n        /* \"#utility.yul\":13522:13870   */\n      swap3\n      swap2\n      pop\n      pop\n      jump\t// out\n        /* \"#utility.yul\":13876:14056   */\n    tag_416:\n        /* \"#utility.yul\":13924:14001   */\n      0x4e487b7100000000000000000000000000000000000000000000000000000000\n        /* \"#utility.yul\":13921:13922   */\n      0x00\n        /* \"#utility.yul\":13914:14002   */\n      mstore\n        /* \"#utility.yul\":14021:14025   */\n      0x12\n        /* \"#utility.yul\":14018:14019   */\n      0x04\n        /* \"#utility.yul\":14011:14026   */\n      mstore\n        /* \"#utility.yul\":14045:14049   */\n      0x24\n        /* \"#utility.yul\":14042:14043   */\n      0x00\n        /* \"#utility.yul\":14035:14050   */\n      revert\n        /* \"#utility.yul\":14062:14247   */\n    tag_174:\n        /* \"#utility.yul\":14102:14103   */\n      0x00\n        /* \"#utility.yul\":14119:14139   */\n      tag_604\n        /* \"#utility.yul\":14137:14138   */\n      dup3\n        /* \"#utility.yul\":14119:14139   */\n      tag_394\n      jump\t// in\n    tag_604:\n        /* \"#utility.yul\":14114:14139   */\n      swap2\n      pop\n        /* \"#utility.yul\":14153:14173   */\n      tag_605\n        /* \"#utility.yul\":14171:14172   */\n      dup4\n        /* \"#utility.yul\":14153:14173   */\n      tag_394\n      jump\t// in\n    tag_605:\n        /* \"#utility.yul\":14148:14173   */\n      swap3\n      pop\n        /* \"#utility.yul\":14192:14193   */\n      dup3\n        /* \"#utility.yul\":14182:14217   */\n      tag_606\n      jumpi\n        /* \"#utility.yul\":14197:14215   */\n      tag_607\n      tag_416\n      jump\t// in\n    tag_607:\n        /* \"#utility.yul\":14182:14217   */\n    tag_606:\n        /* \"#utility.yul\":14239:14240   */\n      dup3\n        /* \"#utility.yul\":14236:14237   */\n      dup3\n        /* \"#utility.yul\":14232:14241   */\n      div\n        /* \"#utility.yul\":14227:14241   */\n      swap1\n      pop\n        /* \"#utility.yul\":14062:14247   */\n      swap3\n      swap2\n      pop\n      pop\n      jump\t// out\n        /* \"#utility.yul\":14253:14479   */\n    tag_417:\n        /* \"#utility.yul\":14393:14427   */\n      0x4b616a75737761703a20494e53554646494349454e545f4c4951554944495459\n        /* \"#utility.yul\":14389:14390   */\n      0x00\n        /* \"#utility.yul\":14381:14387   */\n      dup3\n        /* \"#utility.yul\":14377:14391   */\n      add\n        /* \"#utility.yul\":14370:14428   */\n      mstore\n        /* \"#utility.yul\":14462:14471   */\n      0x5f4d494e54454400000000000000000000000000000000000000000000000000\n        /* \"#utility.yul\":14457:14459   */\n      0x20\n        /* \"#utility.yul\":14449:14455   */\n      dup3\n        /* \"#utility.yul\":14445:14460   */\n      add\n        /* \"#utility.yul\":14438:14472   */\n      mstore\n        /* \"#utility.yul\":14253:14479   */\n      pop\n      jump\t// out\n        /* \"#utility.yul\":14485:14851   */\n    tag_418:\n        /* \"#utility.yul\":14627:14630   */\n      0x00\n        /* \"#utility.yul\":14648:14715   */\n      tag_610\n        /* \"#utility.yul\":14712:14714   */\n      0x27\n        /* \"#utility.yul\":14707:14710   */\n      dup4\n        /* \"#utility.yul\":14648:14715   */\n      tag_379\n      jump\t// in\n    tag_610:\n        /* \"#utility.yul\":14641:14715   */\n      swap2\n      pop\n        /* \"#utility.yul\":14724:14817   */\n      tag_611\n        /* \"#utility.yul\":14813:14816   */\n      dup3\n        /* \"#utility.yul\":14724:14817   */\n      tag_417\n      jump\t// in\n    tag_611:\n        /* \"#utility.yul\":14842:14844   */\n      0x40\n        /* \"#utility.yul\":14837:14840   */\n      dup3\n        /* \"#utility.yul\":14833:14845   */\n      add\n        /* \"#utility.yul\":14826:14845   */\n      swap1\n      pop\n        /* \"#utility.yul\":14485:14851   */\n      swap2\n      swap1\n      pop\n      jump\t// out\n        /* \"#utility.yul\":14857:15276   */\n    tag_180:\n        /* \"#utility.yul\":15023:15027   */\n      0x00\n        /* \"#utility.yul\":15061:15063   */\n      0x20\n        /* \"#utility.yul\":15050:15059   */\n      dup3\n        /* \"#utility.yul\":15046:15064   */\n      add\n        /* \"#utility.yul\":15038:15064   */\n      swap1\n      pop\n        /* \"#utility.yul\":15110:15119   */\n      dup2\n        /* \"#utility.yul\":15104:15108   */\n      dup2\n        /* \"#utility.yul\":15100:15120   */\n      sub\n        /* \"#utility.yul\":15096:15097   */\n      0x00\n        /* \"#utility.yul\":15085:15094   */\n      dup4\n        /* \"#utility.yul\":15081:15098   */\n      add\n        /* \"#utility.yul\":15074:15121   */\n      mstore\n        /* \"#utility.yul\":15138:15269   */\n      tag_613\n        /* \"#utility.yul\":15264:15268   */\n      dup2\n        /* \"#utility.yul\":15138:15269   */\n      tag_418\n      jump\t// in\n    tag_613:\n        /* \"#utility.yul\":15130:15269   */\n      swap1\n      pop\n        /* \"#utility.yul\":14857:15276   */\n      swap2\n      swap1\n      pop\n      jump\t// out\n        /* \"#utility.yul\":15282:15505   */\n    tag_419:\n        /* \"#utility.yul\":15422:15456   */\n      0x4b616a75737761703a20494e53554646494349454e545f4f55545055545f414d\n        /* \"#utility.yul\":15418:15419   */\n      0x00\n        /* \"#utility.yul\":15410:15416   */\n      dup3\n        /* \"#utility.yul\":15406:15420   */\n      add\n        /* \"#utility.yul\":15399:15457   */\n      mstore\n        /* \"#utility.yul\":15491:15497   */\n      0x4f554e5400000000000000000000000000000000000000000000000000000000\n        /* \"#utility.yul\":15486:15488   */\n      0x20\n        /* \"#utility.yul\":15478:15484   */\n      dup3\n        /* \"#utility.yul\":15474:15489   */\n      add\n        /* \"#utility.yul\":15467:15498   */\n      mstore\n        /* \"#utility.yul\":15282:15505   */\n      pop\n      jump\t// out\n        /* \"#utility.yul\":15511:15877   */\n    tag_420:\n        /* \"#utility.yul\":15653:15656   */\n      0x00\n        /* \"#utility.yul\":15674:15741   */\n      tag_616\n        /* \"#utility.yul\":15738:15740   */\n      0x24\n        /* \"#utility.yul\":15733:15736   */\n      dup4\n        /* \"#utility.yul\":15674:15741   */\n      tag_379\n      jump\t// in\n    tag_616:\n        /* \"#utility.yul\":15667:15741   */\n      swap2\n      pop\n        /* \"#utility.yul\":15750:15843   */\n      tag_617\n        /* \"#utility.yul\":15839:15842   */\n      dup3\n        /* \"#utility.yul\":15750:15843   */\n      tag_419\n      jump\t// in\n    tag_617:\n        /* \"#utility.yul\":15868:15870   */\n      0x40\n        /* \"#utility.yul\":15863:15866   */\n      dup3\n        /* \"#utility.yul\":15859:15871   */\n      add\n        /* \"#utility.yul\":15852:15871   */\n      swap1\n      pop\n        /* \"#utility.yul\":15511:15877   */\n      swap2\n      swap1\n      pop\n      jump\t// out\n        /* \"#utility.yul\":15883:16302   */\n    tag_192:\n        /* \"#utility.yul\":16049:16053   */\n      0x00\n        /* \"#utility.yul\":16087:16089   */\n      0x20\n        /* \"#utility.yul\":16076:16085   */\n      dup3\n        /* \"#utility.yul\":16072:16090   */\n      add\n        /* \"#utility.yul\":16064:16090   */\n      swap1\n      pop\n        /* \"#utility.yul\":16136:16145   */\n      dup2\n        /* \"#utility.yul\":16130:16134   */\n      dup2\n        /* \"#utility.yul\":16126:16146   */\n      sub\n        /* \"#utility.yul\":16122:16123   */\n      0x00\n        /* \"#utility.yul\":16111:16120   */\n      dup4\n        /* \"#utility.yul\":16107:16124   */\n      add\n        /* \"#utility.yul\":16100:16147   */\n      mstore\n        /* \"#utility.yul\":16164:16295   */\n      tag_619\n        /* \"#utility.yul\":16290:16294   */\n      dup2\n        /* \"#utility.yul\":16164:16295   */\n      tag_420\n      jump\t// in\n    tag_619:\n        /* \"#utility.yul\":16156:16295   */\n      swap1\n      pop\n        /* \"#utility.yul\":15883:16302   */\n      swap2\n      swap1\n      pop\n      jump\t// out\n        /* \"#utility.yul\":16308:16490   */\n    tag_421:\n        /* \"#utility.yul\":16448:16482   */\n      0x4b616a75737761703a20494e53554646494349454e545f4c4951554944495459\n        /* \"#utility.yul\":16444:16445   */\n      0x00\n        /* \"#utility.yul\":16436:16442   */\n      dup3\n        /* \"#utility.yul\":16432:16446   */\n      add\n        /* \"#utility.yul\":16425:16483   */\n      mstore\n        /* \"#utility.yul\":16308:16490   */\n      pop\n      jump\t// out\n        /* \"#utility.yul\":16496:16862   */\n    tag_422:\n        /* \"#utility.yul\":16638:16641   */\n      0x00\n        /* \"#utility.yul\":16659:16726   */\n      tag_622\n        /* \"#utility.yul\":16723:16725   */\n      0x20\n        /* \"#utility.yul\":16718:16721   */\n      dup4\n        /* \"#utility.yul\":16659:16726   */\n      tag_379\n      jump\t// in\n    tag_622:\n        /* \"#utility.yul\":16652:16726   */\n      swap2\n      pop\n        /* \"#utility.yul\":16735:16828   */\n      tag_623\n        /* \"#utility.yul\":16824:16827   */\n      dup3\n        /* \"#utility.yul\":16735:16828   */\n      tag_421\n      jump\t// in\n    tag_623:\n        /* \"#utility.yul\":16853:16855   */\n      0x20\n        /* \"#utility.yul\":16848:16851   */\n      dup3\n        /* \"#utility.yul\":16844:16856   */\n      add\n        /* \"#utility.yul\":16837:16856   */\n      swap1\n      pop\n        /* \"#utility.yul\":16496:16862   */\n      swap2\n      swap1\n      pop\n      jump\t// out\n        /* \"#utility.yul\":16868:17287   */\n    tag_197:\n        /* \"#utility.yul\":17034:17038   */\n      0x00\n        /* \"#utility.yul\":17072:17074   */\n      0x20\n        /* \"#utility.yul\":17061:17070   */\n      dup3\n        /* \"#utility.yul\":17057:17075   */\n      add\n        /* \"#utility.yul\":17049:17075   */\n      swap1\n      pop\n        /* \"#utility.yul\":17121:17130   */\n      dup2\n        /* \"#utility.yul\":17115:17119   */\n      dup2\n        /* \"#utility.yul\":17111:17131   */\n      sub\n        /* \"#utility.yul\":17107:17108   */\n      0x00\n        /* \"#utility.yul\":17096:17105   */\n      dup4\n        /* \"#utility.yul\":17092:17109   */\n      add\n        /* \"#utility.yul\":17085:17132   */\n      mstore\n        /* \"#utility.yul\":17149:17280   */\n      tag_625\n        /* \"#utility.yul\":17275:17279   */\n      dup2\n        /* \"#utility.yul\":17149:17280   */\n      tag_422\n      jump\t// in\n    tag_625:\n        /* \"#utility.yul\":17141:17280   */\n      swap1\n      pop\n        /* \"#utility.yul\":16868:17287   */\n      swap2\n      swap1\n      pop\n      jump\t// out\n        /* \"#utility.yul\":17293:17515   */\n    tag_423:\n        /* \"#utility.yul\":17433:17467   */\n      0x4b616a75737761703a20494e53554646494349454e545f494e5055545f414d4f\n        /* \"#utility.yul\":17429:17430   */\n      0x00\n        /* \"#utility.yul\":17421:17427   */\n      dup3\n        /* \"#utility.yul\":17417:17431   */\n      add\n        /* \"#utility.yul\":17410:17468   */\n      mstore\n        /* \"#utility.yul\":17502:17507   */\n      0x554e540000000000000000000000000000000000000000000000000000000000\n        /* \"#utility.yul\":17497:17499   */\n      0x20\n        /* \"#utility.yul\":17489:17495   */\n      dup3\n        /* \"#utility.yul\":17485:17500   */\n      add\n        /* \"#utility.yul\":17478:17508   */\n      mstore\n        /* \"#utility.yul\":17293:17515   */\n      pop\n      jump\t// out\n        /* \"#utility.yul\":17521:17887   */\n    tag_424:\n        /* \"#utility.yul\":17663:17666   */\n      0x00\n        /* \"#utility.yul\":17684:17751   */\n      tag_628\n        /* \"#utility.yul\":17748:17750   */\n      0x23\n        /* \"#utility.yul\":17743:17746   */\n      dup4\n        /* \"#utility.yul\":17684:17751   */\n      tag_379\n      jump\t// in\n    tag_628:\n        /* \"#utility.yul\":17677:17751   */\n      swap2\n      pop\n        /* \"#utility.yul\":17760:17853   */\n      tag_629\n        /* \"#utility.yul\":17849:17852   */\n      dup3\n        /* \"#utility.yul\":17760:17853   */\n      tag_423\n      jump\t// in\n    tag_629:\n        /* \"#utility.yul\":17878:17880   */\n      0x40\n        /* \"#utility.yul\":17873:17876   */\n      dup3\n        /* \"#utility.yul\":17869:17881   */\n      add\n        /* \"#utility.yul\":17862:17881   */\n      swap1\n      pop\n        /* \"#utility.yul\":17521:17887   */\n      swap2\n      swap1\n      pop\n      jump\t// out\n        /* \"#utility.yul\":17893:18312   */\n    tag_224:\n        /* \"#utility.yul\":18059:18063   */\n      0x00\n        /* \"#utility.yul\":18097:18099   */\n      0x20\n        /* \"#utility.yul\":18086:18095   */\n      dup3\n        /* \"#utility.yul\":18082:18100   */\n      add\n        /* \"#utility.yul\":18074:18100   */\n      swap1\n      pop\n        /* \"#utility.yul\":18146:18155   */\n      dup2\n        /* \"#utility.yul\":18140:18144   */\n      dup2\n        /* \"#utility.yul\":18136:18156   */\n      sub\n        /* \"#utility.yul\":18132:18133   */\n      0x00\n        /* \"#utility.yul\":18121:18130   */\n      dup4\n        /* \"#utility.yul\":18117:18134   */\n      add\n        /* \"#utility.yul\":18110:18157   */\n      mstore\n        /* \"#utility.yul\":18174:18305   */\n      tag_631\n        /* \"#utility.yul\":18300:18304   */\n      dup2\n        /* \"#utility.yul\":18174:18305   */\n      tag_424\n      jump\t// in\n    tag_631:\n        /* \"#utility.yul\":18166:18305   */\n      swap1\n      pop\n        /* \"#utility.yul\":17893:18312   */\n      swap2\n      swap1\n      pop\n      jump\t// out\n        /* \"#utility.yul\":18318:18487   */\n    tag_425:\n        /* \"#utility.yul\":18458:18479   */\n      0x4b616a75737761703a20494e56414c49445f4b00000000000000000000000000\n        /* \"#utility.yul\":18454:18455   */\n      0x00\n        /* \"#utility.yul\":18446:18452   */\n      dup3\n        /* \"#utility.yul\":18442:18456   */\n      add\n        /* \"#utility.yul\":18435:18480   */\n      mstore\n        /* \"#utility.yul\":18318:18487   */\n      pop\n      jump\t// out\n        /* \"#utility.yul\":18493:18859   */\n    tag_426:\n        /* \"#utility.yul\":18635:18638   */\n      0x00\n        /* \"#utility.yul\":18656:18723   */\n      tag_634\n        /* \"#utility.yul\":18720:18722   */\n      0x13\n        /* \"#utility.yul\":18715:18718   */\n      dup4\n        /* \"#utility.yul\":18656:18723   */\n      tag_379\n      jump\t// in\n    tag_634:\n        /* \"#utility.yul\":18649:18723   */\n      swap2\n      pop\n        /* \"#utility.yul\":18732:18825   */\n      tag_635\n        /* \"#utility.yul\":18821:18824   */\n      dup3\n        /* \"#utility.yul\":18732:18825   */\n      tag_425\n      jump\t// in\n    tag_635:\n        /* \"#utility.yul\":18850:18852   */\n      0x20\n        /* \"#utility.yul\":18845:18848   */\n      dup3\n        /* \"#utility.yul\":18841:18853   */\n      add\n        /* \"#utility.yul\":18834:18853   */\n      swap1\n      pop\n        /* \"#utility.yul\":18493:18859   */\n      swap2\n      swap1\n      pop\n      jump\t// out\n        /* \"#utility.yul\":18865:19284   */\n    tag_236:\n        /* \"#utility.yul\":19031:19035   */\n      0x00\n        /* \"#utility.yul\":19069:19071   */\n      0x20\n        /* \"#utility.yul\":19058:19067   */\n      dup3\n        /* \"#utility.yul\":19054:19072   */\n      add\n        /* \"#utility.yul\":19046:19072   */\n      swap1\n      pop\n        /* \"#utility.yul\":19118:19127   */\n      dup2\n        /* \"#utility.yul\":19112:19116   */\n      dup2\n        /* \"#utility.yul\":19108:19128   */\n      sub\n        /* \"#utility.yul\":19104:19105   */\n      0x00\n        /* \"#utility.yul\":19093:19102   */\n      dup4\n        /* \"#utility.yul\":19089:19106   */\n      add\n        /* \"#utility.yul\":19082:19129   */\n      mstore\n        /* \"#utility.yul\":19146:19277   */\n      tag_637\n        /* \"#utility.yul\":19272:19276   */\n      dup2\n        /* \"#utility.yul\":19146:19277   */\n      tag_426\n      jump\t// in\n    tag_637:\n        /* \"#utility.yul\":19138:19277   */\n      swap1\n      pop\n        /* \"#utility.yul\":18865:19284   */\n      swap2\n      swap1\n      pop\n      jump\t// out\n        /* \"#utility.yul\":19290:19516   */\n    tag_427:\n        /* \"#utility.yul\":19430:19464   */\n      0x4b616a75737761703a20494e53554646494349454e545f4c4951554944495459\n        /* \"#utility.yul\":19426:19427   */\n      0x00\n        /* \"#utility.yul\":19418:19424   */\n      dup3\n        /* \"#utility.yul\":19414:19428   */\n      add\n        /* \"#utility.yul\":19407:19465   */\n      mstore\n        /* \"#utility.yul\":19499:19508   */\n      0x5f4255524e454400000000000000000000000000000000000000000000000000\n        /* \"#utility.yul\":19494:19496   */\n      0x20\n        /* \"#utility.yul\":19486:19492   */\n      dup3\n        /* \"#utility.yul\":19482:19497   */\n      add\n        /* \"#utility.yul\":19475:19509   */\n      mstore\n        /* \"#utility.yul\":19290:19516   */\n      pop\n      jump\t// out\n        /* \"#utility.yul\":19522:19888   */\n    tag_428:\n        /* \"#utility.yul\":19664:19667   */\n      0x00\n        /* \"#utility.yul\":19685:19752   */\n      tag_640\n        /* \"#utility.yul\":19749:19751   */\n      0x27\n        /* \"#utility.yul\":19744:19747   */\n      dup4\n        /* \"#utility.yul\":19685:19752   */\n      tag_379\n      jump\t// in\n    tag_640:\n        /* \"#utility.yul\":19678:19752   */\n      swap2\n      pop\n        /* \"#utility.yul\":19761:19854   */\n      tag_641\n        /* \"#utility.yul\":19850:19853   */\n      dup3\n        /* \"#utility.yul\":19761:19854   */\n      tag_427\n      jump\t// in\n    tag_641:\n        /* \"#utility.yul\":19879:19881   */\n      0x40\n        /* \"#utility.yul\":19874:19877   */\n      dup3\n        /* \"#utility.yul\":19870:19882   */\n      add\n        /* \"#utility.yul\":19863:19882   */\n      swap1\n      pop\n        /* \"#utility.yul\":19522:19888   */\n      swap2\n      swap1\n      pop\n      jump\t// out\n        /* \"#utility.yul\":19894:20313   */\n    tag_258:\n        /* \"#utility.yul\":20060:20064   */\n      0x00\n        /* \"#utility.yul\":20098:20100   */\n      0x20\n        /* \"#utility.yul\":20087:20096   */\n      dup3\n        /* \"#utility.yul\":20083:20101   */\n      add\n        /* \"#utility.yul\":20075:20101   */\n      swap1\n      pop\n        /* \"#utility.yul\":20147:20156   */\n      dup2\n        /* \"#utility.yul\":20141:20145   */\n      dup2\n        /* \"#utility.yul\":20137:20157   */\n      sub\n        /* \"#utility.yul\":20133:20134   */\n      0x00\n        /* \"#utility.yul\":20122:20131   */\n      dup4\n        /* \"#utility.yul\":20118:20135   */\n      add\n        /* \"#utility.yul\":20111:20158   */\n      mstore\n        /* \"#utility.yul\":20175:20306   */\n      tag_643\n        /* \"#utility.yul\":20301:20305   */\n      dup2\n        /* \"#utility.yul\":20175:20306   */\n      tag_428\n      jump\t// in\n    tag_643:\n        /* \"#utility.yul\":20167:20306   */\n      swap1\n      pop\n        /* \"#utility.yul\":19894:20313   */\n      swap2\n      swap1\n      pop\n      jump\t// out\n        /* \"#utility.yul\":20319:20761   */\n    tag_274:\n        /* \"#utility.yul\":20468:20472   */\n      0x00\n        /* \"#utility.yul\":20506:20508   */\n      0x60\n        /* \"#utility.yul\":20495:20504   */\n      dup3\n        /* \"#utility.yul\":20491:20509   */\n      add\n        /* \"#utility.yul\":20483:20509   */\n      swap1\n      pop\n        /* \"#utility.yul\":20519:20590   */\n      tag_645\n        /* \"#utility.yul\":20587:20588   */\n      0x00\n        /* \"#utility.yul\":20576:20585   */\n      dup4\n        /* \"#utility.yul\":20572:20589   */\n      add\n        /* \"#utility.yul\":20563:20569   */\n      dup7\n        /* \"#utility.yul\":20519:20590   */\n      tag_400\n      jump\t// in\n    tag_645:\n        /* \"#utility.yul\":20600:20672   */\n      tag_646\n        /* \"#utility.yul\":20668:20670   */\n      0x20\n        /* \"#utility.yul\":20657:20666   */\n      dup4\n        /* \"#utility.yul\":20653:20671   */\n      add\n        /* \"#utility.yul\":20644:20650   */\n      dup6\n        /* \"#utility.yul\":20600:20672   */\n      tag_400\n      jump\t// in\n    tag_646:\n        /* \"#utility.yul\":20682:20754   */\n      tag_647\n        /* \"#utility.yul\":20750:20752   */\n      0x40\n        /* \"#utility.yul\":20739:20748   */\n      dup4\n        /* \"#utility.yul\":20735:20753   */\n      add\n        /* \"#utility.yul\":20726:20732   */\n      dup5\n        /* \"#utility.yul\":20682:20754   */\n      tag_399\n      jump\t// in\n    tag_647:\n        /* \"#utility.yul\":20319:20761   */\n      swap5\n      swap4\n      pop\n      pop\n      pop\n      pop\n      jump\t// out\n        /* \"#utility.yul\":20767:20940   */\n    tag_429:\n        /* \"#utility.yul\":20907:20932   */\n      0x5045524d49545f444541444c494e455f45585049524544000000000000000000\n        /* \"#utility.yul\":20903:20904   */\n      0x00\n        /* \"#utility.yul\":20895:20901   */\n      dup3\n        /* \"#utility.yul\":20891:20905   */\n      add\n        /* \"#utility.yul\":20884:20933   */\n      mstore\n        /* \"#utility.yul\":20767:20940   */\n      pop\n      jump\t// out\n        /* \"#utility.yul\":20946:21312   */\n    tag_430:\n        /* \"#utility.yul\":21088:21091   */\n      0x00\n        /* \"#utility.yul\":21109:21176   */\n      tag_650\n        /* \"#utility.yul\":21173:21175   */\n      0x17\n        /* \"#utility.yul\":21168:21171   */\n      dup4\n        /* \"#utility.yul\":21109:21176   */\n      tag_379\n      jump\t// in\n    tag_650:\n        /* \"#utility.yul\":21102:21176   */\n      swap2\n      pop\n        /* \"#utility.yul\":21185:21278   */\n      tag_651\n        /* \"#utility.yul\":21274:21277   */\n      dup3\n        /* \"#utility.yul\":21185:21278   */\n      tag_429\n      jump\t// in\n    tag_651:\n        /* \"#utility.yul\":21303:21305   */\n      0x20\n        /* \"#utility.yul\":21298:21301   */\n      dup3\n        /* \"#utility.yul\":21294:21306   */\n      add\n        /* \"#utility.yul\":21287:21306   */\n      swap1\n      pop\n        /* \"#utility.yul\":20946:21312   */\n      swap2\n      swap1\n      pop\n      jump\t// out\n        /* \"#utility.yul\":21318:21737   */\n    tag_286:\n        /* \"#utility.yul\":21484:21488   */\n      0x00\n        /* \"#utility.yul\":21522:21524   */\n      0x20\n        /* \"#utility.yul\":21511:21520   */\n      dup3\n        /* \"#utility.yul\":21507:21525   */\n      add\n        /* \"#utility.yul\":21499:21525   */\n      swap1\n      pop\n        /* \"#utility.yul\":21571:21580   */\n      dup2\n        /* \"#utility.yul\":21565:21569   */\n      dup2\n        /* \"#utility.yul\":21561:21581   */\n      sub\n        /* \"#utility.yul\":21557:21558   */\n      0x00\n        /* \"#utility.yul\":21546:21555   */\n      dup4\n        /* \"#utility.yul\":21542:21559   */\n      add\n        /* \"#utility.yul\":21535:21582   */\n      mstore\n        /* \"#utility.yul\":21599:21730   */\n      tag_653\n        /* \"#utility.yul\":21725:21729   */\n      dup2\n        /* \"#utility.yul\":21599:21730   */\n      tag_430\n      jump\t// in\n    tag_653:\n        /* \"#utility.yul\":21591:21730   */\n      swap1\n      pop\n        /* \"#utility.yul\":21318:21737   */\n      swap2\n      swap1\n      pop\n      jump\t// out\n        /* \"#utility.yul\":21743:22518   */\n    tag_289:\n        /* \"#utility.yul\":21976:21980   */\n      0x00\n        /* \"#utility.yul\":22014:22017   */\n      0xc0\n        /* \"#utility.yul\":22003:22012   */\n      dup3\n        /* \"#utility.yul\":21999:22018   */\n      add\n        /* \"#utility.yul\":21991:22018   */\n      swap1\n      pop\n        /* \"#utility.yul\":22028:22099   */\n      tag_655\n        /* \"#utility.yul\":22096:22097   */\n      0x00\n        /* \"#utility.yul\":22085:22094   */\n      dup4\n        /* \"#utility.yul\":22081:22098   */\n      add\n        /* \"#utility.yul\":22072:22078   */\n      dup10\n        /* \"#utility.yul\":22028:22099   */\n      tag_404\n      jump\t// in\n    tag_655:\n        /* \"#utility.yul\":22109:22181   */\n      tag_656\n        /* \"#utility.yul\":22177:22179   */\n      0x20\n        /* \"#utility.yul\":22166:22175   */\n      dup4\n        /* \"#utility.yul\":22162:22180   */\n      add\n        /* \"#utility.yul\":22153:22159   */\n      dup9\n        /* \"#utility.yul\":22109:22181   */\n      tag_399\n      jump\t// in\n    tag_656:\n        /* \"#utility.yul\":22191:22263   */\n      tag_657\n        /* \"#utility.yul\":22259:22261   */\n      0x40\n        /* \"#utility.yul\":22248:22257   */\n      dup4\n        /* \"#utility.yul\":22244:22262   */\n      add\n        /* \"#utility.yul\":22235:22241   */\n      dup8\n        /* \"#utility.yul\":22191:22263   */\n      tag_399\n      jump\t// in\n    tag_657:\n        /* \"#utility.yul\":22273:22345   */\n      tag_658\n        /* \"#utility.yul\":22341:22343   */\n      0x60\n        /* \"#utility.yul\":22330:22339   */\n      dup4\n        /* \"#utility.yul\":22326:22344   */\n      add\n        /* \"#utility.yul\":22317:22323   */\n      dup7\n        /* \"#utility.yul\":22273:22345   */\n      tag_400\n      jump\t// in\n    tag_658:\n        /* \"#utility.yul\":22355:22428   */\n      tag_659\n        /* \"#utility.yul\":22423:22426   */\n      0x80\n        /* \"#utility.yul\":22412:22421   */\n      dup4\n        /* \"#utility.yul\":22408:22427   */\n      add\n        /* \"#utility.yul\":22399:22405   */\n      dup6\n        /* \"#utility.yul\":22355:22428   */\n      tag_400\n      jump\t// in\n    tag_659:\n        /* \"#utility.yul\":22438:22511   */\n      tag_660\n        /* \"#utility.yul\":22506:22509   */\n      0xa0\n        /* \"#utility.yul\":22495:22504   */\n      dup4\n        /* \"#utility.yul\":22491:22510   */\n      add\n        /* \"#utility.yul\":22482:22488   */\n      dup5\n        /* \"#utility.yul\":22438:22511   */\n      tag_400\n      jump\t// in\n    tag_660:\n        /* \"#utility.yul\":21743:22518   */\n      swap8\n      swap7\n      pop\n      pop\n      pop\n      pop\n      pop\n      pop\n      pop\n      jump\t// out\n        /* \"#utility.yul\":22524:22672   */\n    tag_431:\n        /* \"#utility.yul\":22626:22637   */\n      0x00\n        /* \"#utility.yul\":22663:22666   */\n      dup2\n        /* \"#utility.yul\":22648:22666   */\n      swap1\n      pop\n        /* \"#utility.yul\":22524:22672   */\n      swap3\n      swap2\n      pop\n      pop\n      jump\t// out\n        /* \"#utility.yul\":22678:22892   */\n    tag_432:\n        /* \"#utility.yul\":22818:22884   */\n      0x1901000000000000000000000000000000000000000000000000000000000000\n        /* \"#utility.yul\":22814:22815   */\n      0x00\n        /* \"#utility.yul\":22806:22812   */\n      dup3\n        /* \"#utility.yul\":22802:22816   */\n      add\n        /* \"#utility.yul\":22795:22885   */\n      mstore\n        /* \"#utility.yul\":22678:22892   */\n      pop\n      jump\t// out\n        /* \"#utility.yul\":22898:23298   */\n    tag_433:\n        /* \"#utility.yul\":23058:23061   */\n      0x00\n        /* \"#utility.yul\":23079:23163   */\n      tag_664\n        /* \"#utility.yul\":23161:23162   */\n      0x02\n        /* \"#utility.yul\":23156:23159   */\n      dup4\n        /* \"#utility.yul\":23079:23163   */\n      tag_431\n      jump\t// in\n    tag_664:\n        /* \"#utility.yul\":23072:23163   */\n      swap2\n      pop\n        /* \"#utility.yul\":23172:23265   */\n      tag_665\n        /* \"#utility.yul\":23261:23264   */\n      dup3\n        /* \"#utility.yul\":23172:23265   */\n      tag_432\n      jump\t// in\n    tag_665:\n        /* \"#utility.yul\":23290:23291   */\n      0x02\n        /* \"#utility.yul\":23285:23288   */\n      dup3\n        /* \"#utility.yul\":23281:23292   */\n      add\n        /* \"#utility.yul\":23274:23292   */\n      swap1\n      pop\n        /* \"#utility.yul\":22898:23298   */\n      swap2\n      swap1\n      pop\n      jump\t// out\n        /* \"#utility.yul\":23304:23383   */\n    tag_434:\n        /* \"#utility.yul\":23343:23350   */\n      0x00\n        /* \"#utility.yul\":23372:23377   */\n      dup2\n        /* \"#utility.yul\":23361:23377   */\n      swap1\n      pop\n        /* \"#utility.yul\":23304:23383   */\n      swap2\n      swap1\n      pop\n      jump\t// out\n        /* \"#utility.yul\":23389:23546   */\n    tag_435:\n        /* \"#utility.yul\":23494:23539   */\n      tag_668\n        /* \"#utility.yul\":23514:23538   */\n      tag_669\n        /* \"#utility.yul\":23532:23537   */\n      dup3\n        /* \"#utility.yul\":23514:23538   */\n      tag_403\n      jump\t// in\n    tag_669:\n        /* \"#utility.yul\":23494:23539   */\n      tag_434\n      jump\t// in\n    tag_668:\n        /* \"#utility.yul\":23489:23492   */\n      dup3\n        /* \"#utility.yul\":23482:23540   */\n      mstore\n        /* \"#utility.yul\":23389:23546   */\n      pop\n      pop\n      jump\t// out\n        /* \"#utility.yul\":23552:24215   */\n    tag_291:\n        /* \"#utility.yul\":23793:23796   */\n      0x00\n        /* \"#utility.yul\":23815:23963   */\n      tag_671\n        /* \"#utility.yul\":23959:23962   */\n      dup3\n        /* \"#utility.yul\":23815:23963   */\n      tag_433\n      jump\t// in\n    tag_671:\n        /* \"#utility.yul\":23808:23963   */\n      swap2\n      pop\n        /* \"#utility.yul\":23973:24048   */\n      tag_672\n        /* \"#utility.yul\":24044:24047   */\n      dup3\n        /* \"#utility.yul\":24035:24041   */\n      dup6\n        /* \"#utility.yul\":23973:24048   */\n      tag_435\n      jump\t// in\n    tag_672:\n        /* \"#utility.yul\":24073:24075   */\n      0x20\n        /* \"#utility.yul\":24068:24071   */\n      dup3\n        /* \"#utility.yul\":24064:24076   */\n      add\n        /* \"#utility.yul\":24057:24076   */\n      swap2\n      pop\n        /* \"#utility.yul\":24086:24161   */\n      tag_673\n        /* \"#utility.yul\":24157:24160   */\n      dup3\n        /* \"#utility.yul\":24148:24154   */\n      dup5\n        /* \"#utility.yul\":24086:24161   */\n      tag_435\n      jump\t// in\n    tag_673:\n        /* \"#utility.yul\":24186:24188   */\n      0x20\n        /* \"#utility.yul\":24181:24184   */\n      dup3\n        /* \"#utility.yul\":24177:24189   */\n      add\n        /* \"#utility.yul\":24170:24189   */\n      swap2\n      pop\n        /* \"#utility.yul\":24206:24209   */\n      dup2\n        /* \"#utility.yul\":24199:24209   */\n      swap1\n      pop\n        /* \"#utility.yul\":23552:24215   */\n      swap4\n      swap3\n      pop\n      pop\n      pop\n      jump\t// out\n        /* \"#utility.yul\":24221:24766   */\n    tag_293:\n        /* \"#utility.yul\":24394:24398   */\n      0x00\n        /* \"#utility.yul\":24432:24435   */\n      0x80\n        /* \"#utility.yul\":24421:24430   */\n      dup3\n        /* \"#utility.yul\":24417:24436   */\n      add\n        /* \"#utility.yul\":24409:24436   */\n      swap1\n      pop\n        /* \"#utility.yul\":24446:24517   */\n      tag_675\n        /* \"#utility.yul\":24514:24515   */\n      0x00\n        /* \"#utility.yul\":24503:24512   */\n      dup4\n        /* \"#utility.yul\":24499:24516   */\n      add\n        /* \"#utility.yul\":24490:24496   */\n      dup8\n        /* \"#utility.yul\":24446:24517   */\n      tag_404\n      jump\t// in\n    tag_675:\n        /* \"#utility.yul\":24527:24595   */\n      tag_676\n        /* \"#utility.yul\":24591:24593   */\n      0x20\n        /* \"#utility.yul\":24580:24589   */\n      dup4\n        /* \"#utility.yul\":24576:24594   */\n      add\n        /* \"#utility.yul\":24567:24573   */\n      dup7\n        /* \"#utility.yul\":24527:24595   */\n      tag_402\n      jump\t// in\n    tag_676:\n        /* \"#utility.yul\":24605:24677   */\n      tag_677\n        /* \"#utility.yul\":24673:24675   */\n      0x40\n        /* \"#utility.yul\":24662:24671   */\n      dup4\n        /* \"#utility.yul\":24658:24676   */\n      add\n        /* \"#utility.yul\":24649:24655   */\n      dup6\n        /* \"#utility.yul\":24605:24677   */\n      tag_404\n      jump\t// in\n    tag_677:\n        /* \"#utility.yul\":24687:24759   */\n      tag_678\n        /* \"#utility.yul\":24755:24757   */\n      0x60\n        /* \"#utility.yul\":24744:24753   */\n      dup4\n        /* \"#utility.yul\":24740:24758   */\n      add\n        /* \"#utility.yul\":24731:24737   */\n      dup5\n        /* \"#utility.yul\":24687:24759   */\n      tag_404\n      jump\t// in\n    tag_678:\n        /* \"#utility.yul\":24221:24766   */\n      swap6\n      swap5\n      pop\n      pop\n      pop\n      pop\n      pop\n      jump\t// out\n        /* \"#utility.yul\":24772:24936   */\n    tag_436:\n        /* \"#utility.yul\":24912:24928   */\n      0x494e56414c49445f5349474e4552000000000000000000000000000000000000\n        /* \"#utility.yul\":24908:24909   */\n      0x00\n        /* \"#utility.yul\":24900:24906   */\n      dup3\n        /* \"#utility.yul\":24896:24910   */\n      add\n        /* \"#utility.yul\":24889:24929   */\n      mstore\n        /* \"#utility.yul\":24772:24936   */\n      pop\n      jump\t// out\n        /* \"#utility.yul\":24942:25308   */\n    tag_437:\n        /* \"#utility.yul\":25084:25087   */\n      0x00\n        /* \"#utility.yul\":25105:25172   */\n      tag_681\n        /* \"#utility.yul\":25169:25171   */\n      0x0e\n        /* \"#utility.yul\":25164:25167   */\n      dup4\n        /* \"#utility.yul\":25105:25172   */\n      tag_379\n      jump\t// in\n    tag_681:\n        /* \"#utility.yul\":25098:25172   */\n      swap2\n      pop\n        /* \"#utility.yul\":25181:25274   */\n      tag_682\n        /* \"#utility.yul\":25270:25273   */\n      dup3\n        /* \"#utility.yul\":25181:25274   */\n      tag_436\n      jump\t// in\n    tag_682:\n        /* \"#utility.yul\":25299:25301   */\n      0x20\n        /* \"#utility.yul\":25294:25297   */\n      dup3\n        /* \"#utility.yul\":25290:25302   */\n      add\n        /* \"#utility.yul\":25283:25302   */\n      swap1\n      pop\n        /* \"#utility.yul\":24942:25308   */\n      swap2\n      swap1\n      pop\n      jump\t// out\n        /* \"#utility.yul\":25314:25733   */\n    tag_299:\n        /* \"#utility.yul\":25480:25484   */\n      0x00\n        /* \"#utility.yul\":25518:25520   */\n      0x20\n        /* \"#utility.yul\":25507:25516   */\n      dup3\n        /* \"#utility.yul\":25503:25521   */\n      add\n        /* \"#utility.yul\":25495:25521   */\n      swap1\n      pop\n        /* \"#utility.yul\":25567:25576   */\n      dup2\n        /* \"#utility.yul\":25561:25565   */\n      dup2\n        /* \"#utility.yul\":25557:25577   */\n      sub\n        /* \"#utility.yul\":25553:25554   */\n      0x00\n        /* \"#utility.yul\":25542:25551   */\n      dup4\n        /* \"#utility.yul\":25538:25555   */\n      add\n        /* \"#utility.yul\":25531:25578   */\n      mstore\n        /* \"#utility.yul\":25595:25726   */\n      tag_684\n        /* \"#utility.yul\":25721:25725   */\n      dup2\n        /* \"#utility.yul\":25595:25726   */\n      tag_437\n      jump\t// in\n    tag_684:\n        /* \"#utility.yul\":25587:25726   */\n      swap1\n      pop\n        /* \"#utility.yul\":25314:25733   */\n      swap2\n      swap1\n      pop\n      jump\t// out\n        /* \"#utility.yul\":25739:25886   */\n    tag_438:\n        /* \"#utility.yul\":25840:25851   */\n      0x00\n        /* \"#utility.yul\":25877:25880   */\n      dup2\n        /* \"#utility.yul\":25862:25880   */\n      swap1\n      pop\n        /* \"#utility.yul\":25739:25886   */\n      swap3\n      swap2\n      pop\n      pop\n      jump\t// out\n        /* \"#utility.yul\":25892:26036   */\n    tag_439:\n        /* \"#utility.yul\":25944:25948   */\n      0x00\n        /* \"#utility.yul\":25967:25970   */\n      dup2\n        /* \"#utility.yul\":25959:25970   */\n      swap1\n      pop\n        /* \"#utility.yul\":25990:25993   */\n      dup2\n        /* \"#utility.yul\":25987:25988   */\n      0x00\n        /* \"#utility.yul\":25980:25994   */\n      mstore\n        /* \"#utility.yul\":26024:26028   */\n      0x20\n        /* \"#utility.yul\":26021:26022   */\n      0x00\n        /* \"#utility.yul\":26011:26029   */\n      keccak256\n        /* \"#utility.yul\":26003:26029   */\n      swap1\n      pop\n        /* \"#utility.yul\":25892:26036   */\n      swap2\n      swap1\n      pop\n      jump\t// out\n        /* \"#utility.yul\":26064:26942   */\n    tag_440:\n        /* \"#utility.yul\":26169:26172   */\n      0x00\n        /* \"#utility.yul\":26206:26211   */\n      dup2\n        /* \"#utility.yul\":26200:26212   */\n      sload\n        /* \"#utility.yul\":26235:26271   */\n      tag_688\n        /* \"#utility.yul\":26261:26270   */\n      dup2\n        /* \"#utility.yul\":26235:26271   */\n      tag_120\n      jump\t// in\n    tag_688:\n        /* \"#utility.yul\":26287:26375   */\n      tag_689\n        /* \"#utility.yul\":26368:26374   */\n      dup2\n        /* \"#utility.yul\":26363:26366   */\n      dup7\n        /* \"#utility.yul\":26287:26375   */\n      tag_438\n      jump\t// in\n    tag_689:\n        /* \"#utility.yul\":26280:26375   */\n      swap5\n      pop\n        /* \"#utility.yul\":26406:26407   */\n      0x01\n        /* \"#utility.yul\":26395:26404   */\n      dup3\n        /* \"#utility.yul\":26391:26408   */\n      and\n        /* \"#utility.yul\":26422:26423   */\n      0x00\n        /* \"#utility.yul\":26417:26583   */\n      dup2\n      eq\n      tag_691\n      jumpi\n        /* \"#utility.yul\":26597:26598   */\n      0x01\n        /* \"#utility.yul\":26592:26936   */\n      dup2\n      eq\n      tag_692\n      jumpi\n        /* \"#utility.yul\":26384:26936   */\n      jump(tag_690)\n        /* \"#utility.yul\":26417:26583   */\n    tag_691:\n        /* \"#utility.yul\":26501:26505   */\n      0xff\n        /* \"#utility.yul\":26497:26506   */\n      not\n        /* \"#utility.yul\":26486:26495   */\n      dup4\n        /* \"#utility.yul\":26482:26507   */\n      and\n        /* \"#utility.yul\":26477:26480   */\n      dup7\n        /* \"#utility.yul\":26470:26508   */\n      mstore\n        /* \"#utility.yul\":26563:26569   */\n      dup2\n        /* \"#utility.yul\":26556:26570   */\n      iszero\n        /* \"#utility.yul\":26549:26571   */\n      iszero\n        /* \"#utility.yul\":26541:26547   */\n      dup3\n        /* \"#utility.yul\":26537:26572   */\n      mul\n        /* \"#utility.yul\":26532:26535   */\n      dup7\n        /* \"#utility.yul\":26528:26573   */\n      add\n        /* \"#utility.yul\":26521:26573   */\n      swap4\n      pop\n        /* \"#utility.yul\":26417:26583   */\n      jump(tag_690)\n        /* \"#utility.yul\":26592:26936   */\n    tag_692:\n        /* \"#utility.yul\":26659:26700   */\n      tag_693\n        /* \"#utility.yul\":26694:26699   */\n      dup6\n        /* \"#utility.yul\":26659:26700   */\n      tag_439\n      jump\t// in\n    tag_693:\n        /* \"#utility.yul\":26722:26723   */\n      0x00\n        /* \"#utility.yul\":26736:26890   */\n    tag_694:\n        /* \"#utility.yul\":26750:26756   */\n      dup4\n        /* \"#utility.yul\":26747:26748   */\n      dup2\n        /* \"#utility.yul\":26744:26757   */\n      lt\n        /* \"#utility.yul\":26736:26890   */\n      iszero\n      tag_696\n      jumpi\n        /* \"#utility.yul\":26824:26831   */\n      dup2\n        /* \"#utility.yul\":26818:26832   */\n      sload\n        /* \"#utility.yul\":26814:26815   */\n      dup2\n        /* \"#utility.yul\":26809:26812   */\n      dup10\n        /* \"#utility.yul\":26805:26816   */\n      add\n        /* \"#utility.yul\":26798:26833   */\n      mstore\n        /* \"#utility.yul\":26874:26875   */\n      0x01\n        /* \"#utility.yul\":26865:26872   */\n      dup3\n        /* \"#utility.yul\":26861:26876   */\n      add\n        /* \"#utility.yul\":26850:26876   */\n      swap2\n      pop\n        /* \"#utility.yul\":26772:26776   */\n      0x20\n        /* \"#utility.yul\":26769:26770   */\n      dup2\n        /* \"#utility.yul\":26765:26777   */\n      add\n        /* \"#utility.yul\":26760:26777   */\n      swap1\n      pop\n        /* \"#utility.yul\":26736:26890   */\n      jump(tag_694)\n    tag_696:\n        /* \"#utility.yul\":26919:26925   */\n      dup4\n        /* \"#utility.yul\":26914:26917   */\n      dup9\n        /* \"#utility.yul\":26910:26926   */\n      add\n        /* \"#utility.yul\":26903:26926   */\n      swap6\n      pop\n        /* \"#utility.yul\":26599:26936   */\n      pop\n      pop\n        /* \"#utility.yul\":26384:26936   */\n    tag_690:\n      pop\n        /* \"#utility.yul\":26173:26942   */\n      pop\n      pop\n        /* \"#utility.yul\":26064:26942   */\n      swap3\n      swap2\n      pop\n      pop\n      jump\t// out\n        /* \"#utility.yul\":26948:27221   */\n    tag_317:\n        /* \"#utility.yul\":27079:27082   */\n      0x00\n        /* \"#utility.yul\":27101:27195   */\n      tag_698\n        /* \"#utility.yul\":27191:27194   */\n      dup3\n        /* \"#utility.yul\":27182:27188   */\n      dup5\n        /* \"#utility.yul\":27101:27195   */\n      tag_440\n      jump\t// in\n    tag_698:\n        /* \"#utility.yul\":27094:27195   */\n      swap2\n      pop\n        /* \"#utility.yul\":27212:27215   */\n      dup2\n        /* \"#utility.yul\":27205:27215   */\n      swap1\n      pop\n        /* \"#utility.yul\":26948:27221   */\n      swap3\n      swap2\n      pop\n      pop\n      jump\t// out\n        /* \"#utility.yul\":27227:27891   */\n    tag_319:\n        /* \"#utility.yul\":27432:27436   */\n      0x00\n        /* \"#utility.yul\":27470:27473   */\n      0xa0\n        /* \"#utility.yul\":27459:27468   */\n      dup3\n        /* \"#utility.yul\":27455:27474   */\n      add\n        /* \"#utility.yul\":27447:27474   */\n      swap1\n      pop\n        /* \"#utility.yul\":27484:27555   */\n      tag_700\n        /* \"#utility.yul\":27552:27553   */\n      0x00\n        /* \"#utility.yul\":27541:27550   */\n      dup4\n        /* \"#utility.yul\":27537:27554   */\n      add\n        /* \"#utility.yul\":27528:27534   */\n      dup9\n        /* \"#utility.yul\":27484:27555   */\n      tag_404\n      jump\t// in\n    tag_700:\n        /* \"#utility.yul\":27565:27637   */\n      tag_701\n        /* \"#utility.yul\":27633:27635   */\n      0x20\n        /* \"#utility.yul\":27622:27631   */\n      dup4\n        /* \"#utility.yul\":27618:27636   */\n      add\n        /* \"#utility.yul\":27609:27615   */\n      dup8\n        /* \"#utility.yul\":27565:27637   */\n      tag_404\n      jump\t// in\n    tag_701:\n        /* \"#utility.yul\":27647:27719   */\n      tag_702\n        /* \"#utility.yul\":27715:27717   */\n      0x40\n        /* \"#utility.yul\":27704:27713   */\n      dup4\n        /* \"#utility.yul\":27700:27718   */\n      add\n        /* \"#utility.yul\":27691:27697   */\n      dup7\n        /* \"#utility.yul\":27647:27719   */\n      tag_404\n      jump\t// in\n    tag_702:\n        /* \"#utility.yul\":27729:27801   */\n      tag_703\n        /* \"#utility.yul\":27797:27799   */\n      0x60\n        /* \"#utility.yul\":27786:27795   */\n      dup4\n        /* \"#utility.yul\":27782:27800   */\n      add\n        /* \"#utility.yul\":27773:27779   */\n      dup6\n        /* \"#utility.yul\":27729:27801   */\n      tag_400\n      jump\t// in\n    tag_703:\n        /* \"#utility.yul\":27811:27884   */\n      tag_704\n        /* \"#utility.yul\":27879:27882   */\n      0x80\n        /* \"#utility.yul\":27868:27877   */\n      dup4\n        /* \"#utility.yul\":27864:27883   */\n      add\n        /* \"#utility.yul\":27855:27861   */\n      dup5\n        /* \"#utility.yul\":27811:27884   */\n      tag_399\n      jump\t// in\n    tag_704:\n        /* \"#utility.yul\":27227:27891   */\n      swap7\n      swap6\n      pop\n      pop\n      pop\n      pop\n      pop\n      pop\n      jump\t// out\n        /* \"#utility.yul\":27897:28202   */\n    tag_324:\n        /* \"#utility.yul\":27937:27940   */\n      0x00\n        /* \"#utility.yul\":27956:27976   */\n      tag_706\n        /* \"#utility.yul\":27974:27975   */\n      dup3\n        /* \"#utility.yul\":27956:27976   */\n      tag_394\n      jump\t// in\n    tag_706:\n        /* \"#utility.yul\":27951:27976   */\n      swap2\n      pop\n        /* \"#utility.yul\":27990:28010   */\n      tag_707\n        /* \"#utility.yul\":28008:28009   */\n      dup4\n        /* \"#utility.yul\":27990:28010   */\n      tag_394\n      jump\t// in\n    tag_707:\n        /* \"#utility.yul\":27985:28010   */\n      swap3\n      pop\n        /* \"#utility.yul\":28144:28145   */\n      dup3\n        /* \"#utility.yul\":28076:28142   */\n      0xffffffffffffffffffffffffffffffffffffffffffffffffffffffffffffffff\n        /* \"#utility.yul\":28072:28146   */\n      sub\n        /* \"#utility.yul\":28069:28070   */\n      dup3\n        /* \"#utility.yul\":28066:28147   */\n      gt\n        /* \"#utility.yul\":28063:28170   */\n      iszero\n      tag_708\n      jumpi\n        /* \"#utility.yul\":28150:28168   */\n      tag_709\n      tag_410\n      jump\t// in\n    tag_709:\n        /* \"#utility.yul\":28063:28170   */\n    tag_708:\n        /* \"#utility.yul\":28194:28195   */\n      dup3\n        /* \"#utility.yul\":28191:28192   */\n      dup3\n        /* \"#utility.yul\":28187:28196   */\n      add\n        /* \"#utility.yul\":28180:28196   */\n      swap1\n      pop\n        /* \"#utility.yul\":27897:28202   */\n      swap3\n      swap2\n      pop\n      pop\n      jump\t// out\n        /* \"#utility.yul\":28208:28376   */\n    tag_441:\n        /* \"#utility.yul\":28348:28368   */\n      0x4b616a75737761703a204f564552464c4f570000000000000000000000000000\n        /* \"#utility.yul\":28344:28345   */\n      0x00\n        /* \"#utility.yul\":28336:28342   */\n      dup3\n        /* \"#utility.yul\":28332:28346   */\n      add\n        /* \"#utility.yul\":28325:28369   */\n      mstore\n        /* \"#utility.yul\":28208:28376   */\n      pop\n      jump\t// out\n        /* \"#utility.yul\":28382:28748   */\n    tag_442:\n        /* \"#utility.yul\":28524:28527   */\n      0x00\n        /* \"#utility.yul\":28545:28612   */\n      tag_712\n        /* \"#utility.yul\":28609:28611   */\n      0x12\n        /* \"#utility.yul\":28604:28607   */\n      dup4\n        /* \"#utility.yul\":28545:28612   */\n      tag_379\n      jump\t// in\n    tag_712:\n        /* \"#utility.yul\":28538:28612   */\n      swap2\n      pop\n        /* \"#utility.yul\":28621:28714   */\n      tag_713\n        /* \"#utility.yul\":28710:28713   */\n      dup3\n        /* \"#utility.yul\":28621:28714   */\n      tag_441\n      jump\t// in\n    tag_713:\n        /* \"#utility.yul\":28739:28741   */\n      0x20\n        /* \"#utility.yul\":28734:28737   */\n      dup3\n        /* \"#utility.yul\":28730:28742   */\n      add\n        /* \"#utility.yul\":28723:28742   */\n      swap1\n      pop\n        /* \"#utility.yul\":28382:28748   */\n      swap2\n      swap1\n      pop\n      jump\t// out\n        /* \"#utility.yul\":28754:29173   */\n    tag_342:\n        /* \"#utility.yul\":28920:28924   */\n      0x00\n        /* \"#utility.yul\":28958:28960   */\n      0x20\n        /* \"#utility.yul\":28947:28956   */\n      dup3\n        /* \"#utility.yul\":28943:28961   */\n      add\n        /* \"#utility.yul\":28935:28961   */\n      swap1\n      pop\n        /* \"#utility.yul\":29007:29016   */\n      dup2\n        /* \"#utility.yul\":29001:29005   */\n      dup2\n        /* \"#utility.yul\":28997:29017   */\n      sub\n        /* \"#utility.yul\":28993:28994   */\n      0x00\n        /* \"#utility.yul\":28982:28991   */\n      dup4\n        /* \"#utility.yul\":28978:28995   */\n      add\n        /* \"#utility.yul\":28971:29018   */\n      mstore\n        /* \"#utility.yul\":29035:29166   */\n      tag_715\n        /* \"#utility.yul\":29161:29165   */\n      dup2\n        /* \"#utility.yul\":29035:29166   */\n      tag_442\n      jump\t// in\n    tag_715:\n        /* \"#utility.yul\":29027:29166   */\n      swap1\n      pop\n        /* \"#utility.yul\":28754:29173   */\n      swap2\n      swap1\n      pop\n      jump\t// out\n        /* \"#utility.yul\":29179:29239   */\n    tag_443:\n        /* \"#utility.yul\":29207:29210   */\n      0x00\n        /* \"#utility.yul\":29228:29233   */\n      dup2\n        /* \"#utility.yul\":29221:29233   */\n      swap1\n      pop\n        /* \"#utility.yul\":29179:29239   */\n      swap2\n      swap1\n      pop\n      jump\t// out\n        /* \"#utility.yul\":29245:29387   */\n    tag_444:\n        /* \"#utility.yul\":29295:29304   */\n      0x00\n        /* \"#utility.yul\":29328:29381   */\n      tag_718\n        /* \"#utility.yul\":29346:29380   */\n      tag_719\n        /* \"#utility.yul\":29355:29379   */\n      tag_720\n        /* \"#utility.yul\":29373:29378   */\n      dup5\n        /* \"#utility.yul\":29355:29379   */\n      tag_383\n      jump\t// in\n    tag_720:\n        /* \"#utility.yul\":29346:29380   */\n      tag_443\n      jump\t// in\n    tag_719:\n        /* \"#utility.yul\":29328:29381   */\n      tag_394\n      jump\t// in\n    tag_718:\n        /* \"#utility.yul\":29315:29381   */\n      swap1\n      pop\n        /* \"#utility.yul\":29245:29387   */\n      swap2\n      swap1\n      pop\n      jump\t// out\n        /* \"#utility.yul\":29393:29524   */\n    tag_445:\n        /* \"#utility.yul\":29480:29517   */\n      tag_722\n        /* \"#utility.yul\":29511:29516   */\n      dup2\n        /* \"#utility.yul\":29480:29517   */\n      tag_444\n      jump\t// in\n    tag_722:\n        /* \"#utility.yul\":29475:29478   */\n      dup3\n        /* \"#utility.yul\":29468:29518   */\n      mstore\n        /* \"#utility.yul\":29393:29524   */\n      pop\n      pop\n      jump\t// out\n        /* \"#utility.yul\":29530:29862   */\n    tag_353:\n        /* \"#utility.yul\":29651:29655   */\n      0x00\n        /* \"#utility.yul\":29689:29691   */\n      0x40\n        /* \"#utility.yul\":29678:29687   */\n      dup3\n        /* \"#utility.yul\":29674:29692   */\n      add\n        /* \"#utility.yul\":29666:29692   */\n      swap1\n      pop\n        /* \"#utility.yul\":29702:29773   */\n      tag_724\n        /* \"#utility.yul\":29770:29771   */\n      0x00\n        /* \"#utility.yul\":29759:29768   */\n      dup4\n        /* \"#utility.yul\":29755:29772   */\n      add\n        /* \"#utility.yul\":29746:29752   */\n      dup6\n        /* \"#utility.yul\":29702:29773   */\n      tag_445\n      jump\t// in\n    tag_724:\n        /* \"#utility.yul\":29783:29855   */\n      tag_725\n        /* \"#utility.yul\":29851:29853   */\n      0x20\n        /* \"#utility.yul\":29840:29849   */\n      dup4\n        /* \"#utility.yul\":29836:29854   */\n      add\n        /* \"#utility.yul\":29827:29833   */\n      dup5\n        /* \"#utility.yul\":29783:29855   */\n      tag_445\n      jump\t// in\n    tag_725:\n        /* \"#utility.yul\":29530:29862   */\n      swap4\n      swap3\n      pop\n      pop\n      pop\n      jump\t// out\n        /* \"#utility.yul\":29868:30200   */\n    tag_356:\n        /* \"#utility.yul\":29989:29993   */\n      0x00\n        /* \"#utility.yul\":30027:30029   */\n      0x40\n        /* \"#utility.yul\":30016:30025   */\n      dup3\n        /* \"#utility.yul\":30012:30030   */\n      add\n        /* \"#utility.yul\":30004:30030   */\n      swap1\n      pop\n        /* \"#utility.yul\":30040:30111   */\n      tag_727\n        /* \"#utility.yul\":30108:30109   */\n      0x00\n        /* \"#utility.yul\":30097:30106   */\n      dup4\n        /* \"#utility.yul\":30093:30110   */\n      add\n        /* \"#utility.yul\":30084:30090   */\n      dup6\n        /* \"#utility.yul\":30040:30111   */\n      tag_399\n      jump\t// in\n    tag_727:\n        /* \"#utility.yul\":30121:30193   */\n      tag_728\n        /* \"#utility.yul\":30189:30191   */\n      0x20\n        /* \"#utility.yul\":30178:30187   */\n      dup4\n        /* \"#utility.yul\":30174:30192   */\n      add\n        /* \"#utility.yul\":30165:30171   */\n      dup5\n        /* \"#utility.yul\":30121:30193   */\n      tag_400\n      jump\t// in\n    tag_728:\n        /* \"#utility.yul\":29868:30200   */\n      swap4\n      swap3\n      pop\n      pop\n      pop\n      jump\t// out\n        /* \"#utility.yul\":30206:30304   */\n    tag_446:\n        /* \"#utility.yul\":30257:30263   */\n      0x00\n        /* \"#utility.yul\":30291:30296   */\n      dup2\n        /* \"#utility.yul\":30285:30297   */\n      mload\n        /* \"#utility.yul\":30275:30297   */\n      swap1\n      pop\n        /* \"#utility.yul\":30206:30304   */\n      swap2\n      swap1\n      pop\n      jump\t// out\n        /* \"#utility.yul\":30310:30683   */\n    tag_447:\n        /* \"#utility.yul\":30414:30417   */\n      0x00\n        /* \"#utility.yul\":30442:30480   */\n      tag_731\n        /* \"#utility.yul\":30474:30479   */\n      dup3\n        /* \"#utility.yul\":30442:30480   */\n      tag_446\n      jump\t// in\n    tag_731:\n        /* \"#utility.yul\":30496:30584   */\n      tag_732\n        /* \"#utility.yul\":30577:30583   */\n      dup2\n        /* \"#utility.yul\":30572:30575   */\n      dup6\n        /* \"#utility.yul\":30496:30584   */\n      tag_438\n      jump\t// in\n    tag_732:\n        /* \"#utility.yul\":30489:30584   */\n      swap4\n      pop\n        /* \"#utility.yul\":30593:30645   */\n      tag_733\n        /* \"#utility.yul\":30638:30644   */\n      dup2\n        /* \"#utility.yul\":30633:30636   */\n      dup6\n        /* \"#utility.yul\":30626:30630   */\n      0x20\n        /* \"#utility.yul\":30619:30624   */\n      dup7\n        /* \"#utility.yul\":30615:30631   */\n      add\n        /* \"#utility.yul\":30593:30645   */\n      tag_380\n      jump\t// in\n    tag_733:\n        /* \"#utility.yul\":30670:30676   */\n      dup1\n        /* \"#utility.yul\":30665:30668   */\n      dup5\n        /* \"#utility.yul\":30661:30677   */\n      add\n        /* \"#utility.yul\":30654:30677   */\n      swap2\n      pop\n        /* \"#utility.yul\":30418:30683   */\n      pop\n        /* \"#utility.yul\":30310:30683   */\n      swap3\n      swap2\n      pop\n      pop\n      jump\t// out\n        /* \"#utility.yul\":30689:30960   */\n    tag_358:\n        /* \"#utility.yul\":30819:30822   */\n      0x00\n        /* \"#utility.yul\":30841:30934   */\n      tag_735\n        /* \"#utility.yul\":30930:30933   */\n      dup3\n        /* \"#utility.yul\":30921:30927   */\n      dup5\n        /* \"#utility.yul\":30841:30934   */\n      tag_447\n      jump\t// in\n    tag_735:\n        /* \"#utility.yul\":30834:30934   */\n      swap2\n      pop\n        /* \"#utility.yul\":30951:30954   */\n      dup2\n        /* \"#utility.yul\":30944:30954   */\n      swap1\n      pop\n        /* \"#utility.yul\":30689:30960   */\n      swap3\n      swap2\n      pop\n      pop\n      jump\t// out\n        /* \"#utility.yul\":30966:31082   */\n    tag_448:\n        /* \"#utility.yul\":31036:31057   */\n      tag_737\n        /* \"#utility.yul\":31051:31056   */\n      dup2\n        /* \"#utility.yul\":31036:31057   */\n      tag_397\n      jump\t// in\n    tag_737:\n        /* \"#utility.yul\":31029:31034   */\n      dup2\n        /* \"#utility.yul\":31026:31058   */\n      eq\n        /* \"#utility.yul\":31016:31076   */\n      tag_738\n      jumpi\n        /* \"#utility.yul\":31072:31073   */\n      0x00\n        /* \"#utility.yul\":31069:31070   */\n      dup1\n        /* \"#utility.yul\":31062:31074   */\n      revert\n        /* \"#utility.yul\":31016:31076   */\n    tag_738:\n        /* \"#utility.yul\":30966:31082   */\n      pop\n      jump\t// out\n        /* \"#utility.yul\":31088:31225   */\n    tag_449:\n        /* \"#utility.yul\":31142:31147   */\n      0x00\n        /* \"#utility.yul\":31173:31179   */\n      dup2\n        /* \"#utility.yul\":31167:31180   */\n      mload\n        /* \"#utility.yul\":31158:31180   */\n      swap1\n      pop\n        /* \"#utility.yul\":31189:31219   */\n      tag_740\n        /* \"#utility.yul\":31213:31218   */\n      dup2\n        /* \"#utility.yul\":31189:31219   */\n      tag_448\n      jump\t// in\n    tag_740:\n        /* \"#utility.yul\":31088:31225   */\n      swap3\n      swap2\n      pop\n      pop\n      jump\t// out\n        /* \"#utility.yul\":31231:31576   */\n    tag_365:\n        /* \"#utility.yul\":31298:31304   */\n      0x00\n        /* \"#utility.yul\":31347:31349   */\n      0x20\n        /* \"#utility.yul\":31335:31344   */\n      dup3\n        /* \"#utility.yul\":31326:31333   */\n      dup5\n        /* \"#utility.yul\":31322:31345   */\n      sub\n        /* \"#utility.yul\":31318:31350   */\n      slt\n        /* \"#utility.yul\":31315:31434   */\n      iszero\n      tag_742\n      jumpi\n        /* \"#utility.yul\":31353:31432   */\n      tag_743\n      tag_388\n      jump\t// in\n    tag_743:\n        /* \"#utility.yul\":31315:31434   */\n    tag_742:\n        /* \"#utility.yul\":31473:31474   */\n      0x00\n        /* \"#utility.yul\":31498:31559   */\n      tag_744\n        /* \"#utility.yul\":31551:31558   */\n      dup5\n        /* \"#utility.yul\":31542:31548   */\n      dup3\n        /* \"#utility.yul\":31531:31540   */\n      dup6\n        /* \"#utility.yul\":31527:31549   */\n      add\n        /* \"#utility.yul\":31498:31559   */\n      tag_449\n      jump\t// in\n    tag_744:\n        /* \"#utility.yul\":31488:31559   */\n      swap2\n      pop\n        /* \"#utility.yul\":31444:31569   */\n      pop\n        /* \"#utility.yul\":31231:31576   */\n      swap3\n      swap2\n      pop\n      pop\n      jump\t// out\n        /* \"#utility.yul\":31582:31757   */\n    tag_450:\n        /* \"#utility.yul\":31722:31749   */\n      0x4b616a75737761703a205452414e534645525f4641494c454400000000000000\n        /* \"#utility.yul\":31718:31719   */\n      0x00\n        /* \"#utility.yul\":31710:31716   */\n      dup3\n        /* \"#utility.yul\":31706:31720   */\n      add\n        /* \"#utility.yul\":31699:31750   */\n      mstore\n        /* \"#utility.yul\":31582:31757   */\n      pop\n      jump\t// out\n        /* \"#utility.yul\":31763:32129   */\n    tag_451:\n        /* \"#utility.yul\":31905:31908   */\n      0x00\n        /* \"#utility.yul\":31926:31993   */\n      tag_747\n        /* \"#utility.yul\":31990:31992   */\n      0x19\n        /* \"#utility.yul\":31985:31988   */\n      dup4\n        /* \"#utility.yul\":31926:31993   */\n      tag_379\n      jump\t// in\n    tag_747:\n        /* \"#utility.yul\":31919:31993   */\n      swap2\n      pop\n        /* \"#utility.yul\":32002:32095   */\n      tag_748\n        /* \"#utility.yul\":32091:32094   */\n      dup3\n        /* \"#utility.yul\":32002:32095   */\n      tag_450\n      jump\t// in\n    tag_748:\n        /* \"#utility.yul\":32120:32122   */\n      0x20\n        /* \"#utility.yul\":32115:32118   */\n      dup3\n        /* \"#utility.yul\":32111:32123   */\n      add\n        /* \"#utility.yul\":32104:32123   */\n      swap1\n      pop\n        /* \"#utility.yul\":31763:32129   */\n      swap2\n      swap1\n      pop\n      jump\t// out\n        /* \"#utility.yul\":32135:32554   */\n    tag_368:\n        /* \"#utility.yul\":32301:32305   */\n      0x00\n        /* \"#utility.yul\":32339:32341   */\n      0x20\n        /* \"#utility.yul\":32328:32337   */\n      dup3\n        /* \"#utility.yul\":32324:32342   */\n      add\n        /* \"#utility.yul\":32316:32342   */\n      swap1\n      pop\n        /* \"#utility.yul\":32388:32397   */\n      dup2\n        /* \"#utility.yul\":32382:32386   */\n      dup2\n        /* \"#utility.yul\":32378:32398   */\n      sub\n        /* \"#utility.yul\":32374:32375   */\n      0x00\n        /* \"#utility.yul\":32363:32372   */\n      dup4\n        /* \"#utility.yul\":32359:32376   */\n      add\n        /* \"#utility.yul\":32352:32399   */\n      mstore\n        /* \"#utility.yul\":32416:32547   */\n      tag_750\n        /* \"#utility.yul\":32542:32546   */\n      dup2\n        /* \"#utility.yul\":32416:32547   */\n      tag_451\n      jump\t// in\n    tag_750:\n        /* \"#utility.yul\":32408:32547   */\n      swap1\n      pop\n        /* \"#utility.yul\":32135:32554   */\n      swap2\n      swap1\n      pop\n      jump\t// out\n        /* \"#utility.yul\":32560:32702   */\n    tag_452:\n        /* \"#utility.yul\":32597:32604   */\n      0x00\n        /* \"#utility.yul\":32637:32695   */\n      0xffffffffffffffffffffffffffffffffffffffffffffffffffffffff\n        /* \"#utility.yul\":32630:32635   */\n      dup3\n        /* \"#utility.yul\":32626:32696   */\n      and\n        /* \"#utility.yul\":32615:32696   */\n      swap1\n      pop\n        /* \"#utility.yul\":32560:32702   */\n      swap2\n      swap1\n      pop\n      jump\t// out\n        /* \"#utility.yul\":32708:33048   */\n    tag_374:\n        /* \"#utility.yul\":32748:32755   */\n      0x00\n        /* \"#utility.yul\":32771:32791   */\n      tag_753\n        /* \"#utility.yul\":32789:32790   */\n      dup3\n        /* \"#utility.yul\":32771:32791   */\n      tag_452\n      jump\t// in\n    tag_753:\n        /* \"#utility.yul\":32766:32791   */\n      swap2\n      pop\n        /* \"#utility.yul\":32805:32825   */\n      tag_754\n        /* \"#utility.yul\":32823:32824   */\n      dup4\n        /* \"#utility.yul\":32805:32825   */\n      tag_452\n      jump\t// in\n    tag_754:\n        /* \"#utility.yul\":32800:32825   */\n      swap3\n      pop\n        /* \"#utility.yul\":32985:32986   */\n      dup2\n        /* \"#utility.yul\":32925:32983   */\n      0xffffffffffffffffffffffffffffffffffffffffffffffffffffffff\n        /* \"#utility.yul\":32921:32987   */\n      div\n        /* \"#utility.yul\":32918:32919   */\n      dup4\n        /* \"#utility.yul\":32915:32988   */\n      gt\n        /* \"#utility.yul\":32910:32911   */\n      dup3\n        /* \"#utility.yul\":32903:32912   */\n      iszero\n        /* \"#utility.yul\":32896:32913   */\n      iszero\n        /* \"#utility.yul\":32892:32989   */\n      and\n        /* \"#utility.yul\":32889:33012   */\n      iszero\n      tag_755\n      jumpi\n        /* \"#utility.yul\":32992:33010   */\n      tag_756\n      tag_410\n      jump\t// in\n    tag_756:\n        /* \"#utility.yul\":32889:33012   */\n    tag_755:\n        /* \"#utility.yul\":33040:33041   */\n      dup3\n        /* \"#utility.yul\":33037:33038   */\n      dup3\n        /* \"#utility.yul\":33033:33042   */\n      mul\n        /* \"#utility.yul\":33022:33042   */\n      swap1\n      pop\n        /* \"#utility.yul\":32708:33048   */\n      swap3\n      swap2\n      pop\n      pop\n      jump\t// out\n        /* \"#utility.yul\":33054:33239   */\n    tag_377:\n        /* \"#utility.yul\":33094:33095   */\n      0x00\n        /* \"#utility.yul\":33111:33131   */\n      tag_758\n        /* \"#utility.yul\":33129:33130   */\n      dup3\n        /* \"#utility.yul\":33111:33131   */\n      tag_452\n      jump\t// in\n    tag_758:\n        /* \"#utility.yul\":33106:33131   */\n      swap2\n      pop\n        /* \"#utility.yul\":33145:33165   */\n      tag_759\n        /* \"#utility.yul\":33163:33164   */\n      dup4\n        /* \"#utility.yul\":33145:33165   */\n      tag_452\n      jump\t// in\n    tag_759:\n        /* \"#utility.yul\":33140:33165   */\n      swap3\n      pop\n        /* \"#utility.yul\":33184:33185   */\n      dup3\n        /* \"#utility.yul\":33174:33209   */\n      tag_760\n      jumpi\n        /* \"#utility.yul\":33189:33207   */\n      tag_761\n      tag_416\n      jump\t// in\n    tag_761:\n        /* \"#utility.yul\":33174:33209   */\n    tag_760:\n        /* \"#utility.yul\":33231:33232   */\n      dup3\n        /* \"#utility.yul\":33228:33229   */\n      dup3\n        /* \"#utility.yul\":33224:33233   */\n      div\n        /* \"#utility.yul\":33219:33233   */\n      swap1\n      pop\n        /* \"#utility.yul\":33054:33239   */\n      swap3\n      swap2\n      pop\n      pop\n      jump\t// out\n\n    auxdata: 0xa2646970667358221220fc500b56d76fb44c6901118d317b5fbf88621938ec84d35f044081ceda00b3e664736f6c634300080f0033\n}\n",
				"bytecode": {
					"linkReferences": {},
					"object": "60e06040523480156200001157600080fd5b506040518060400160405280600d81526020017f4b616a75737761702050616972000000000000000000000000000000000000008152506040518060400160405280600481526020017f4b414a55000000000000000000000000000000000000000000000000000000008152506012826000908162000091919062000425565b508160019081620000a3919062000425565b508060ff1660808160ff16815250504660a08181525050620000ca6200011b60201b60201c565b60c0818152505050505033600660006101000a81548173ffffffffffffffffffffffffffffffffffffffff021916908373ffffffffffffffffffffffffffffffffffffffff160217905550620006a2565b60007f8b73c3c69bb8fe3d512ecc4cf759cc79239f7b179b0ffacaa9a75d522b39400f60006040516200014f9190620005bb565b60405180910390207fc89efdaa54c0f20c7adf612882df0950f5a951637e0307cdcb4c672f298b8bc646306040516020016200019095949392919062000645565b60405160208183030381529060405280519060200120905090565b600081519050919050565b7f4e487b7100000000000000000000000000000000000000000000000000000000600052604160045260246000fd5b7f4e487b7100000000000000000000000000000000000000000000000000000000600052602260045260246000fd5b600060028204905060018216806200022d57607f821691505b602082108103620002435762000242620001e5565b5b50919050565b60008190508160005260206000209050919050565b60006020601f8301049050919050565b600082821b905092915050565b600060088302620002ad7fffffffffffffffffffffffffffffffffffffffffffffffffffffffffffffffff826200026e565b620002b986836200026e565b95508019841693508086168417925050509392505050565b6000819050919050565b6000819050919050565b60006200030662000300620002fa84620002d1565b620002db565b620002d1565b9050919050565b6000819050919050565b6200032283620002e5565b6200033a62000331826200030d565b8484546200027b565b825550505050565b600090565b6200035162000342565b6200035e81848462000317565b505050565b5b8181101562000386576200037a60008262000347565b60018101905062000364565b5050565b601f821115620003d5576200039f8162000249565b620003aa846200025e565b81016020851015620003ba578190505b620003d2620003c9856200025e565b83018262000363565b50505b505050565b600082821c905092915050565b6000620003fa60001984600802620003da565b1980831691505092915050565b6000620004158383620003e7565b9150826002028217905092915050565b6200043082620001ab565b67ffffffffffffffff8111156200044c576200044b620001b6565b5b62000458825462000214565b620004658282856200038a565b600060209050601f8311600181146200049d576000841562000488578287015190505b62000494858262000407565b86555062000504565b601f198416620004ad8662000249565b60005b82811015620004d757848901518255600182019150602085019450602081019050620004b0565b86831015620004f75784890151620004f3601f891682620003e7565b8355505b6001600288020188555050505b505050505050565b600081905092915050565b60008190508160005260206000209050919050565b600081546200053b8162000214565b6200054781866200050c565b945060018216600081146200056557600181146200057b57620005b2565b60ff1983168652811515820286019350620005b2565b620005868562000517565b60005b83811015620005aa5781548189015260018201915060208101905062000589565b838801955050505b50505092915050565b6000620005c982846200052c565b915081905092915050565b6000819050919050565b620005e981620005d4565b82525050565b620005fa81620002d1565b82525050565b600073ffffffffffffffffffffffffffffffffffffffff82169050919050565b60006200062d8262000600565b9050919050565b6200063f8162000620565b82525050565b600060a0820190506200065c6000830188620005de565b6200066b6020830187620005de565b6200067a6040830186620005de565b620006896060830185620005ef565b62000698608083018462000634565b9695505050505050565b60805160a05160c05161397f620006d2600039600061092c015260006108f8015260006108d2015261397f6000f3fe608060405234801561001057600080fd5b506004361061014d5760003560e01c80636a627842116100c3578063a9059cbb1161007c578063a9059cbb146103bb578063c45a0155146103eb578063d21220a714610409578063d505accf14610427578063dd62ed3e14610443578063fff6cae9146104735761014d565b80636a627842146102c05780636d9a640a146102f057806370a082311461030c5780637ecebe001461033c57806389afcb441461036c57806395d89b411461039d5761014d565b806323b872dd1161011557806323b872dd146101fc578063313ce5671461022c5780633644e5151461024a578063485cc955146102685780635909c0d5146102845780635a3d5493146102a25761014d565b806306fdde03146101525780630902f1ac14610170578063095ea7b3146101905780630dfe1681146101c057806318160ddd146101de575b600080fd5b61015a61047d565b6040516101679190612840565b60405180910390f35b61017861050b565b604051610187939291906128aa565b60405180910390f35b6101aa60048036038101906101a5919061297a565b610568565b6040516101b791906129d5565b60405180910390f35b6101c861065a565b6040516101d591906129ff565b60405180910390f35b6101e6610680565b6040516101f39190612a29565b60405180910390f35b61021660048036038101906102119190612a44565b610686565b60405161022391906129d5565b60405180910390f35b6102346108d0565b6040516102419190612ab3565b60405180910390f35b6102526108f4565b60405161025f9190612ae7565b60405180910390f35b610282600480360381019061027d9190612b02565b610951565b005b61028c610b4b565b6040516102999190612a29565b60405180910390f35b6102aa610b51565b6040516102b79190612a29565b60405180910390f35b6102da60048036038101906102d59190612b42565b610b57565b6040516102e79190612a29565b60405180910390f35b61030a60048036038101906103059190612b6f565b610ec3565b005b61032660048036038101906103219190612b42565b611487565b6040516103339190612a29565b60405180910390f35b61035660048036038101906103519190612b42565b61149f565b6040516103639190612a29565b60405180910390f35b61038660048036038101906103819190612b42565b6114b7565b604051610394929190612bc2565b60405180910390f35b6103a5611969565b6040516103b29190612840565b60405180910390f35b6103d560048036038101906103d0919061297a565b6119f7565b6040516103e291906129d5565b60405180910390f35b6103f3611b0b565b60405161040091906129ff565b60405180910390f35b610411611b31565b60405161041e91906129ff565b60405180910390f35b610441600480360381019061043c9190612c43565b611b57565b005b61045d60048036038101906104589190612b02565b611e50565b60405161046a9190612a29565b60405180910390f35b61047b611e75565b005b6000805461048a90612d14565b80601f01602080910402602001604051908101604052809291908181526020018280546104b690612d14565b80156105035780601f106104d857610100808354040283529160200191610503565b820191906000526020600020905b8154815290600101906020018083116104e657829003601f168201915b505050505081565b6000806000600960009054906101000a90046dffffffffffffffffffffffffffff166009600e9054906101000a90046dffffffffffffffffffffffffffff166009601c9054906101000a900463ffffffff16925092509250909192565b600081600460003373ffffffffffffffffffffffffffffffffffffffff1673ffffffffffffffffffffffffffffffffffffffff16815260200190815260200160002060008573ffffffffffffffffffffffffffffffffffffffff1673ffffffffffffffffffffffffffffffffffffffff168152602001908152602001600020819055508273ffffffffffffffffffffffffffffffffffffffff163373ffffffffffffffffffffffffffffffffffffffff167f8c5be1e5ebec7d5bd14f71427d1e84f3dd0314c0f7b2291e5b200ac8c7c3b925846040516106489190612a29565b60405180910390a36001905092915050565b600760009054906101000a900473ffffffffffffffffffffffffffffffffffffffff1681565b60025481565b600080600460008673ffffffffffffffffffffffffffffffffffffffff1673ffffffffffffffffffffffffffffffffffffffff16815260200190815260200160002060003373ffffffffffffffffffffffffffffffffffffffff1673ffffffffffffffffffffffffffffffffffffffff1681526020019081526020016000205490507fffffffffffffffffffffffffffffffffffffffffffffffffffffffffffffffff81146107bc57828161073b9190612d74565b600460008773ffffffffffffffffffffffffffffffffffffffff1673ffffffffffffffffffffffffffffffffffffffff16815260200190815260200160002060003373ffffffffffffffffffffffffffffffffffffffff1673ffffffffffffffffffffffffffffffffffffffff168152602001908152602001600020819055505b82600360008773ffffffffffffffffffffffffffffffffffffffff1673ffffffffffffffffffffffffffffffffffffffff168152602001908152602001600020600082825461080b9190612d74565b9250508190555082600360008673ffffffffffffffffffffffffffffffffffffffff1673ffffffffffffffffffffffffffffffffffffffff168152602001908152602001600020600082825401925050819055508373ffffffffffffffffffffffffffffffffffffffff168573ffffffffffffffffffffffffffffffffffffffff167fddf252ad1be2c89b69c2b068fc378daa952ba7f163c4a11628f55a4df523b3ef856040516108bc9190612a29565b60405180910390a360019150509392505050565b7f000000000000000000000000000000000000000000000000000000000000000081565b60007f0000000000000000000000000000000000000000000000000000000000000000461461092a57610925612055565b61094c565b7f00000000000000000000000000000000000000000000000000000000000000005b905090565b600660009054906101000a900473ffffffffffffffffffffffffffffffffffffffff1673ffffffffffffffffffffffffffffffffffffffff163373ffffffffffffffffffffffffffffffffffffffff16146109e1576040517f08c379a00000000000000000000000000000000000000000000000000000000081526004016109d890612df4565b60405180910390fd5b600073ffffffffffffffffffffffffffffffffffffffff16600760009054906101000a900473ffffffffffffffffffffffffffffffffffffffff1673ffffffffffffffffffffffffffffffffffffffff16141580610a8e5750600073ffffffffffffffffffffffffffffffffffffffff16600860009054906101000a900473ffffffffffffffffffffffffffffffffffffffff1673ffffffffffffffffffffffffffffffffffffffff1614155b15610ac5576040517f0dc149f000000000000000000000000000000000000000000000000000000000815260040160405180910390fd5b81600760006101000a81548173ffffffffffffffffffffffffffffffffffffffff021916908373ffffffffffffffffffffffffffffffffffffffff16021790555080600860006101000a81548173ffffffffffffffffffffffffffffffffffffffff021916908373ffffffffffffffffffffffffffffffffffffffff1602179055505050565b600a5481565b600b5481565b6000600c60009054906101000a900460ff1615610ba9576040517f08c379a0000000000000000000000000000000000000000000000000000000008152600401610ba090612e86565b60405180910390fd5b6001600c60006101000a81548160ff021916908315150217905550600080610bcf61050b565b50915091506000600760009054906101000a900473ffffffffffffffffffffffffffffffffffffffff1673ffffffffffffffffffffffffffffffffffffffff166370a08231306040518263ffffffff1660e01b8152600401610c3191906129ff565b6020604051808303816000875af1158015610c50573d6000803e3d6000fd5b505050506040513d601f19601f82011682018060405250810190610c749190612ebb565b90506000600860009054906101000a900473ffffffffffffffffffffffffffffffffffffffff1673ffffffffffffffffffffffffffffffffffffffff166370a08231306040518263ffffffff1660e01b8152600401610cd391906129ff565b6020604051808303816000875af1158015610cf2573d6000803e3d6000fd5b505050506040513d601f19601f82011682018060405250810190610d169190612ebb565b90506000846dffffffffffffffffffffffffffff1683610d369190612d74565b90506000846dffffffffffffffffffffffffffff1683610d569190612d74565b9050600060025403610d97576103e8610d798284610d749190612ee8565b6120e1565b610d839190612d74565b9650610d9260006103e861215b565b610df4565b610df1866dffffffffffffffffffffffffffff1660025484610db99190612ee8565b610dc39190612f71565b866dffffffffffffffffffffffffffff1660025484610de29190612ee8565b610dec9190612f71565b61222b565b96505b60008711610e37576040517f08c379a0000000000000000000000000000000000000000000000000000000008152600401610e2e90613014565b60405180910390fd5b610e41888861215b565b610e4d84848888612244565b8773ffffffffffffffffffffffffffffffffffffffff167f4c209b5fc8ad50758f13e2e1088ba56a560dff690a1c6fef26394f4c03821c4f8383604051610e95929190612bc2565b60405180910390a25050505050506000600c60006101000a81548160ff021916908315150217905550919050565b600c60009054906101000a900460ff1615610f13576040517f08c379a0000000000000000000000000000000000000000000000000000000008152600401610f0a90612e86565b60405180910390fd5b6001600c60006101000a81548160ff0219169083151502179055506000831180610f3d5750600082115b610f7c576040517f08c379a0000000000000000000000000000000000000000000000000000000008152600401610f73906130a6565b60405180910390fd5b600080610f8761050b565b5091509150816dffffffffffffffffffffffffffff1685108015610fba5750806dffffffffffffffffffffffffffff1684105b610ff9576040517f08c379a0000000000000000000000000000000000000000000000000000000008152600401610ff090613112565b60405180910390fd5b60008511156110305761102f600760009054906101000a900473ffffffffffffffffffffffffffffffffffffffff1684876124f3565b5b600084111561106757611066600860009054906101000a900473ffffffffffffffffffffffffffffffffffffffff1684866124f3565b5b6000600760009054906101000a900473ffffffffffffffffffffffffffffffffffffffff1673ffffffffffffffffffffffffffffffffffffffff166370a08231306040518263ffffffff1660e01b81526004016110c491906129ff565b6020604051808303816000875af11580156110e3573d6000803e3d6000fd5b505050506040513d601f19601f820116820180604052508101906111079190612ebb565b90506000600860009054906101000a900473ffffffffffffffffffffffffffffffffffffffff1673ffffffffffffffffffffffffffffffffffffffff166370a08231306040518263ffffffff1660e01b815260040161116691906129ff565b6020604051808303816000875af1158015611185573d6000803e3d6000fd5b505050506040513d601f19601f820116820180604052508101906111a99190612ebb565b9050600087600960009054906101000a90046dffffffffffffffffffffffffffff166dffffffffffffffffffffffffffff166111e59190612d74565b83116111f2576000611236565b87600960009054906101000a90046dffffffffffffffffffffffffffff166dffffffffffffffffffffffffffff1661122a9190612d74565b836112359190612d74565b5b90506000876009600e9054906101000a90046dffffffffffffffffffffffffffff166dffffffffffffffffffffffffffff166112729190612d74565b831161127f5760006112c3565b876009600e9054906101000a90046dffffffffffffffffffffffffffff166dffffffffffffffffffffffffffff166112b79190612d74565b836112c29190612d74565b5b905060008211806112d45750600081115b611313576040517f08c379a000000000000000000000000000000000000000000000000000000000815260040161130a906131a4565b60405180910390fd5b60006003836113229190612ee8565b6103e8866113309190612ee8565b61133a9190612d74565b9050600060038361134b9190612ee8565b6103e8866113599190612ee8565b6113639190612d74565b9050620f4240876dffffffffffffffffffffffffffff16896dffffffffffffffffffffffffffff166113959190612ee8565b61139f9190612ee8565b81836113ab9190612ee8565b10156113ec576040517f08c379a00000000000000000000000000000000000000000000000000000000081526004016113e390613210565b60405180910390fd5b6113f886868a8a612244565b8873ffffffffffffffffffffffffffffffffffffffff163373ffffffffffffffffffffffffffffffffffffffff167f2a9237ff5aa599ef4c5ee4b1142b53429d5755e2685fe6288b2e3320202115f58d8d604051611457929190612bc2565b60405180910390a350505050505050506000600c60006101000a81548160ff021916908315150217905550505050565b60036020528060005260406000206000915090505481565b60056020528060005260406000206000915090505481565b600080600c60009054906101000a900460ff161561150a576040517f08c379a000000000000000000000000000000000000000000000000000000000815260040161150190612e86565b60405180910390fd5b6001600c60006101000a81548160ff0219169083151502179055506000600760009054906101000a900473ffffffffffffffffffffffffffffffffffffffff1673ffffffffffffffffffffffffffffffffffffffff166370a08231306040518263ffffffff1660e01b815260040161158291906129ff565b6020604051808303816000875af11580156115a1573d6000803e3d6000fd5b505050506040513d601f19601f820116820180604052508101906115c59190612ebb565b90506000600860009054906101000a900473ffffffffffffffffffffffffffffffffffffffff1673ffffffffffffffffffffffffffffffffffffffff166370a08231306040518263ffffffff1660e01b815260040161162491906129ff565b6020604051808303816000875af1158015611643573d6000803e3d6000fd5b505050506040513d601f19601f820116820180604052508101906116679190612ebb565b90506000600360003073ffffffffffffffffffffffffffffffffffffffff1673ffffffffffffffffffffffffffffffffffffffff16815260200190815260200160002054905060025483826116bc9190612ee8565b6116c69190612f71565b945060025482826116d79190612ee8565b6116e19190612f71565b93506000851180156116f35750600084115b611732576040517f08c379a0000000000000000000000000000000000000000000000000000000008152600401611729906132a2565b60405180910390fd5b61173c308261267d565b611769600760009054906101000a900473ffffffffffffffffffffffffffffffffffffffff1687876124f3565b611796600860009054906101000a900473ffffffffffffffffffffffffffffffffffffffff1687866124f3565b600760009054906101000a900473ffffffffffffffffffffffffffffffffffffffff1673ffffffffffffffffffffffffffffffffffffffff166370a08231306040518263ffffffff1660e01b81526004016117f191906129ff565b6020604051808303816000875af1158015611810573d6000803e3d6000fd5b505050506040513d601f19601f820116820180604052508101906118349190612ebb565b9250600860009054906101000a900473ffffffffffffffffffffffffffffffffffffffff1673ffffffffffffffffffffffffffffffffffffffff166370a08231306040518263ffffffff1660e01b815260040161189191906129ff565b6020604051808303816000875af11580156118b0573d6000803e3d6000fd5b505050506040513d601f19601f820116820180604052508101906118d49190612ebb565b91506000806118e161050b565b50915091506118f285858484612244565b3373ffffffffffffffffffffffffffffffffffffffff167fdccd412f0b1252819cb1fd330b93224ca42612892bb3f4f789976e6d8193649688888b60405161193c939291906132c2565b60405180910390a250505050506000600c60006101000a81548160ff021916908315150217905550915091565b6001805461197690612d14565b80601f01602080910402602001604051908101604052809291908181526020018280546119a290612d14565b80156119ef5780601f106119c4576101008083540402835291602001916119ef565b820191906000526020600020905b8154815290600101906020018083116119d257829003601f168201915b505050505081565b600081600360003373ffffffffffffffffffffffffffffffffffffffff1673ffffffffffffffffffffffffffffffffffffffff1681526020019081526020016000206000828254611a489190612d74565b9250508190555081600360008573ffffffffffffffffffffffffffffffffffffffff1673ffffffffffffffffffffffffffffffffffffffff168152602001908152602001600020600082825401925050819055508273ffffffffffffffffffffffffffffffffffffffff163373ffffffffffffffffffffffffffffffffffffffff167fddf252ad1be2c89b69c2b068fc378daa952ba7f163c4a11628f55a4df523b3ef84604051611af99190612a29565b60405180910390a36001905092915050565b600660009054906101000a900473ffffffffffffffffffffffffffffffffffffffff1681565b600860009054906101000a900473ffffffffffffffffffffffffffffffffffffffff1681565b42841015611b9a576040517f08c379a0000000000000000000000000000000000000000000000000000000008152600401611b9190613345565b60405180910390fd5b60006001611ba66108f4565b7f6e71edae12b1b97f4d1f60370fef10105fa2faae0126114a169c64845d6126c98a8a8a600560008f73ffffffffffffffffffffffffffffffffffffffff1673ffffffffffffffffffffffffffffffffffffffff1681526020019081526020016000206000815480929190600101919050558b604051602001611c2e96959493929190613365565b60405160208183030381529060405280519060200120604051602001611c5592919061343e565b6040516020818303038152906040528051906020012085858560405160008152602001604052604051611c8b9493929190613475565b6020604051602081039080840390855afa158015611cad573d6000803e3d6000fd5b505050602060405103519050600073ffffffffffffffffffffffffffffffffffffffff168173ffffffffffffffffffffffffffffffffffffffff1614158015611d2157508773ffffffffffffffffffffffffffffffffffffffff168173ffffffffffffffffffffffffffffffffffffffff16145b611d60576040517f08c379a0000000000000000000000000000000000000000000000000000000008152600401611d5790613506565b60405180910390fd5b85600460008373ffffffffffffffffffffffffffffffffffffffff1673ffffffffffffffffffffffffffffffffffffffff16815260200190815260200160002060008973ffffffffffffffffffffffffffffffffffffffff1673ffffffffffffffffffffffffffffffffffffffff16815260200190815260200160002081905550508573ffffffffffffffffffffffffffffffffffffffff168773ffffffffffffffffffffffffffffffffffffffff167f8c5be1e5ebec7d5bd14f71427d1e84f3dd0314c0f7b2291e5b200ac8c7c3b92587604051611e3f9190612a29565b60405180910390a350505050505050565b6004602052816000526040600020602052806000526040600020600091509150505481565b600c60009054906101000a900460ff1615611ec5576040517f08c379a0000000000000000000000000000000000000000000000000000000008152600401611ebc90612e86565b60405180910390fd5b6001600c60006101000a81548160ff021916908315150217905550600080611eeb61050b565b5091509150612036600760009054906101000a900473ffffffffffffffffffffffffffffffffffffffff1673ffffffffffffffffffffffffffffffffffffffff166370a08231306040518263ffffffff1660e01b8152600401611f4e91906129ff565b6020604051808303816000875af1158015611f6d573d6000803e3d6000fd5b505050506040513d601f19601f82011682018060405250810190611f919190612ebb565b600860009054906101000a900473ffffffffffffffffffffffffffffffffffffffff1673ffffffffffffffffffffffffffffffffffffffff166370a08231306040518263ffffffff1660e01b8152600401611fec91906129ff565b6020604051808303816000875af115801561200b573d6000803e3d6000fd5b505050506040513d601f19601f8201168201806040525081019061202f9190612ebb565b8484612244565b50506000600c60006101000a81548160ff021916908315150217905550565b60007f8b73c3c69bb8fe3d512ecc4cf759cc79239f7b179b0ffacaa9a75d522b39400f600060405161208791906135c9565b60405180910390207fc89efdaa54c0f20c7adf612882df0950f5a951637e0307cdcb4c672f298b8bc646306040516020016120c69594939291906135e0565b60405160208183030381529060405280519060200120905090565b6000600382111561214857819050600060016002846121009190612f71565b61210a9190613633565b90505b818110156121425780915060028182856121279190612f71565b6121319190613633565b61213b9190612f71565b905061210d565b50612156565b6000821461215557600190505b5b919050565b806002600082825461216d9190613633565b9250508190555080600360008473ffffffffffffffffffffffffffffffffffffffff1673ffffffffffffffffffffffffffffffffffffffff168152602001908152602001600020600082825401925050819055508173ffffffffffffffffffffffffffffffffffffffff16600073ffffffffffffffffffffffffffffffffffffffff167fddf252ad1be2c89b69c2b068fc378daa952ba7f163c4a11628f55a4df523b3ef8360405161221f9190612a29565b60405180910390a35050565b600081831061223a578161223c565b825b905092915050565b6dffffffffffffffffffffffffffff8016841115801561227457506dffffffffffffffffffffffffffff80168311155b6122b3576040517f08c379a00000000000000000000000000000000000000000000000000000000081526004016122aa906136d5565b60405180910390fd5b60006009601c9054906101000a900463ffffffff164203905060008163ffffffff161180156122f257506000836dffffffffffffffffffffffffffff16115b801561230e57506000826dffffffffffffffffffffffffffff16115b156123f0578063ffffffff16612353846123278561274d565b7bffffffffffffffffffffffffffffffffffffffffffffffffffffffff1661278190919063ffffffff16565b7bffffffffffffffffffffffffffffffffffffffffffffffffffffffff1602600a600082825401925050819055508063ffffffff166123c1836123958661274d565b7bffffffffffffffffffffffffffffffffffffffffffffffffffffffff1661278190919063ffffffff16565b7bffffffffffffffffffffffffffffffffffffffffffffffffffffffff1602600b600082825401925050819055505b5083600960006101000a8154816dffffffffffffffffffffffffffff02191690836dffffffffffffffffffffffffffff160217905550826009600e6101000a8154816dffffffffffffffffffffffffffff02191690836dffffffffffffffffffffffffffff160217905550426009601c6101000a81548163ffffffff021916908363ffffffff1602179055507fcf2aa50876cdfbb541206f89af0ee78d44a2abf8d328e37fa4917f982149848a600960009054906101000a90046dffffffffffffffffffffffffffff166009600e9054906101000a90046dffffffffffffffffffffffffffff166040516124e5929190613730565b60405180910390a150505050565b6000808473ffffffffffffffffffffffffffffffffffffffff166040518060400160405280601981526020017f7472616e7366657228616464726573732c75696e74323536290000000000000081525080519060200120858560405160240161255d929190613759565b604051602081830303815290604052907bffffffffffffffffffffffffffffffffffffffffffffffffffffffff19166020820180517bffffffffffffffffffffffffffffffffffffffffffffffffffffffff83818316178352505050506040516125c791906137be565b6000604051808303816000865af19150503d8060008114612604576040519150601f19603f3d011682016040523d82523d6000602084013e612609565b606091505b509150915081801561263757506000815114806126365750808060200190518101906126359190613801565b5b5b612676576040517f08c379a000000000000000000000000000000000000000000000000000000000815260040161266d9061387a565b60405180910390fd5b5050505050565b80600360008473ffffffffffffffffffffffffffffffffffffffff1673ffffffffffffffffffffffffffffffffffffffff16815260200190815260200160002060008282546126cc9190612d74565b9250508190555080600260008282540392505081905550600073ffffffffffffffffffffffffffffffffffffffff168273ffffffffffffffffffffffffffffffffffffffff167fddf252ad1be2c89b69c2b068fc378daa952ba7f163c4a11628f55a4df523b3ef836040516127419190612a29565b60405180910390a35050565b60006e010000000000000000000000000000826dffffffffffffffffffffffffffff1661277a91906138c2565b9050919050565b6000816dffffffffffffffffffffffffffff168361279f9190613918565b905092915050565b600081519050919050565b600082825260208201905092915050565b60005b838110156127e15780820151818401526020810190506127c6565b838111156127f0576000848401525b50505050565b6000601f19601f8301169050919050565b6000612812826127a7565b61281c81856127b2565b935061282c8185602086016127c3565b612835816127f6565b840191505092915050565b6000602082019050818103600083015261285a8184612807565b905092915050565b60006dffffffffffffffffffffffffffff82169050919050565b61288581612862565b82525050565b600063ffffffff82169050919050565b6128a48161288b565b82525050565b60006060820190506128bf600083018661287c565b6128cc602083018561287c565b6128d9604083018461289b565b949350505050565b600080fd5b600073ffffffffffffffffffffffffffffffffffffffff82169050919050565b6000612911826128e6565b9050919050565b61292181612906565b811461292c57600080fd5b50565b60008135905061293e81612918565b92915050565b6000819050919050565b61295781612944565b811461296257600080fd5b50565b6000813590506129748161294e565b92915050565b60008060408385031215612991576129906128e1565b5b600061299f8582860161292f565b92505060206129b085828601612965565b9150509250929050565b60008115159050919050565b6129cf816129ba565b82525050565b60006020820190506129ea60008301846129c6565b92915050565b6129f981612906565b82525050565b6000602082019050612a1460008301846129f0565b92915050565b612a2381612944565b82525050565b6000602082019050612a3e6000830184612a1a565b92915050565b600080600060608486031215612a5d57612a5c6128e1565b5b6000612a6b8682870161292f565b9350506020612a7c8682870161292f565b9250506040612a8d86828701612965565b9150509250925092565b600060ff82169050919050565b612aad81612a97565b82525050565b6000602082019050612ac86000830184612aa4565b92915050565b6000819050919050565b612ae181612ace565b82525050565b6000602082019050612afc6000830184612ad8565b92915050565b60008060408385031215612b1957612b186128e1565b5b6000612b278582860161292f565b9250506020612b388582860161292f565b9150509250929050565b600060208284031215612b5857612b576128e1565b5b6000612b668482850161292f565b91505092915050565b600080600060608486031215612b8857612b876128e1565b5b6000612b9686828701612965565b9350506020612ba786828701612965565b9250506040612bb88682870161292f565b9150509250925092565b6000604082019050612bd76000830185612a1a565b612be46020830184612a1a565b9392505050565b612bf481612a97565b8114612bff57600080fd5b50565b600081359050612c1181612beb565b92915050565b612c2081612ace565b8114612c2b57600080fd5b50565b600081359050612c3d81612c17565b92915050565b600080600080600080600060e0888a031215612c6257612c616128e1565b5b6000612c708a828b0161292f565b9750506020612c818a828b0161292f565b9650506040612c928a828b01612965565b9550506060612ca38a828b01612965565b9450506080612cb48a828b01612c02565b93505060a0612cc58a828b01612c2e565b92505060c0612cd68a828b01612c2e565b91505092959891949750929550565b7f4e487b7100000000000000000000000000000000000000000000000000000000600052602260045260246000fd5b60006002820490506001821680612d2c57607f821691505b602082108103612d3f57612d3e612ce5565b5b50919050565b7f4e487b7100000000000000000000000000000000000000000000000000000000600052601160045260246000fd5b6000612d7f82612944565b9150612d8a83612944565b925082821015612d9d57612d9c612d45565b5b828203905092915050565b7f4b616a75737761703a20464f5242494444454e00000000000000000000000000600082015250565b6000612dde6013836127b2565b9150612de982612da8565b602082019050919050565b60006020820190508181036000830152612e0d81612dd1565b9050919050565b7f4b616a75737761703a20596f752063616e6e6f7420456e74657220696e20746860008201527f6520636f6e747261637400000000000000000000000000000000000000000000602082015250565b6000612e70602a836127b2565b9150612e7b82612e14565b604082019050919050565b60006020820190508181036000830152612e9f81612e63565b9050919050565b600081519050612eb58161294e565b92915050565b600060208284031215612ed157612ed06128e1565b5b6000612edf84828501612ea6565b91505092915050565b6000612ef382612944565b9150612efe83612944565b9250817fffffffffffffffffffffffffffffffffffffffffffffffffffffffffffffffff0483118215151615612f3757612f36612d45565b5b828202905092915050565b7f4e487b7100000000000000000000000000000000000000000000000000000000600052601260045260246000fd5b6000612f7c82612944565b9150612f8783612944565b925082612f9757612f96612f42565b5b828204905092915050565b7f4b616a75737761703a20494e53554646494349454e545f4c495155494449545960008201527f5f4d494e54454400000000000000000000000000000000000000000000000000602082015250565b6000612ffe6027836127b2565b915061300982612fa2565b604082019050919050565b6000602082019050818103600083015261302d81612ff1565b9050919050565b7f4b616a75737761703a20494e53554646494349454e545f4f55545055545f414d60008201527f4f554e5400000000000000000000000000000000000000000000000000000000602082015250565b60006130906024836127b2565b915061309b82613034565b604082019050919050565b600060208201905081810360008301526130bf81613083565b9050919050565b7f4b616a75737761703a20494e53554646494349454e545f4c4951554944495459600082015250565b60006130fc6020836127b2565b9150613107826130c6565b602082019050919050565b6000602082019050818103600083015261312b816130ef565b9050919050565b7f4b616a75737761703a20494e53554646494349454e545f494e5055545f414d4f60008201527f554e540000000000000000000000000000000000000000000000000000000000602082015250565b600061318e6023836127b2565b915061319982613132565b604082019050919050565b600060208201905081810360008301526131bd81613181565b9050919050565b7f4b616a75737761703a20494e56414c49445f4b00000000000000000000000000600082015250565b60006131fa6013836127b2565b9150613205826131c4565b602082019050919050565b60006020820190508181036000830152613229816131ed565b9050919050565b7f4b616a75737761703a20494e53554646494349454e545f4c495155494449545960008201527f5f4255524e454400000000000000000000000000000000000000000000000000602082015250565b600061328c6027836127b2565b915061329782613230565b604082019050919050565b600060208201905081810360008301526132bb8161327f565b9050919050565b60006060820190506132d76000830186612a1a565b6132e46020830185612a1a565b6132f160408301846129f0565b949350505050565b7f5045524d49545f444541444c494e455f45585049524544000000000000000000600082015250565b600061332f6017836127b2565b915061333a826132f9565b602082019050919050565b6000602082019050818103600083015261335e81613322565b9050919050565b600060c08201905061337a6000830189612ad8565b61338760208301886129f0565b61339460408301876129f0565b6133a16060830186612a1a565b6133ae6080830185612a1a565b6133bb60a0830184612a1a565b979650505050505050565b600081905092915050565b7f1901000000000000000000000000000000000000000000000000000000000000600082015250565b60006134076002836133c6565b9150613412826133d1565b600282019050919050565b6000819050919050565b61343861343382612ace565b61341d565b82525050565b6000613449826133fa565b91506134558285613427565b6020820191506134658284613427565b6020820191508190509392505050565b600060808201905061348a6000830187612ad8565b6134976020830186612aa4565b6134a46040830185612ad8565b6134b16060830184612ad8565b95945050505050565b7f494e56414c49445f5349474e4552000000000000000000000000000000000000600082015250565b60006134f0600e836127b2565b91506134fb826134ba565b602082019050919050565b6000602082019050818103600083015261351f816134e3565b9050919050565b600081905092915050565b60008190508160005260206000209050919050565b6000815461355381612d14565b61355d8186613526565b94506001821660008114613578576001811461358d576135c0565b60ff19831686528115158202860193506135c0565b61359685613531565b60005b838110156135b857815481890152600182019150602081019050613599565b838801955050505b50505092915050565b60006135d58284613546565b915081905092915050565b600060a0820190506135f56000830188612ad8565b6136026020830187612ad8565b61360f6040830186612ad8565b61361c6060830185612a1a565b61362960808301846129f0565b9695505050505050565b600061363e82612944565b915061364983612944565b9250827fffffffffffffffffffffffffffffffffffffffffffffffffffffffffffffffff0382111561367e5761367d612d45565b5b828201905092915050565b7f4b616a75737761703a204f564552464c4f570000000000000000000000000000600082015250565b60006136bf6012836127b2565b91506136ca82613689565b602082019050919050565b600060208201905081810360008301526136ee816136b2565b9050919050565b6000819050919050565b600061371a61371561371084612862565b6136f5565b612944565b9050919050565b61372a816136ff565b82525050565b60006040820190506137456000830185613721565b6137526020830184613721565b9392505050565b600060408201905061376e60008301856129f0565b61377b6020830184612a1a565b9392505050565b600081519050919050565b600061379882613782565b6137a28185613526565b93506137b28185602086016127c3565b80840191505092915050565b60006137ca828461378d565b915081905092915050565b6137de816129ba565b81146137e957600080fd5b50565b6000815190506137fb816137d5565b92915050565b600060208284031215613817576138166128e1565b5b6000613825848285016137ec565b91505092915050565b7f4b616a75737761703a205452414e534645525f4641494c454400000000000000600082015250565b60006138646019836127b2565b915061386f8261382e565b602082019050919050565b6000602082019050818103600083015261389381613857565b9050919050565b60007bffffffffffffffffffffffffffffffffffffffffffffffffffffffff82169050919050565b60006138cd8261389a565b91506138d88361389a565b9250817bffffffffffffffffffffffffffffffffffffffffffffffffffffffff048311821515161561390d5761390c612d45565b5b828202905092915050565b60006139238261389a565b915061392e8361389a565b92508261393e5761393d612f42565b5b82820490509291505056fea2646970667358221220fc500b56d76fb44c6901118d317b5fbf88621938ec84d35f044081ceda00b3e664736f6c634300080f0033",
					"opcodes": "PUSH1 0xE0 PUSH1 0x40 MSTORE CALLVALUE DUP1 ISZERO PUSH3 0x11 JUMPI PUSH1 0x0 DUP1 REVERT JUMPDEST POP PUSH1 0x40 MLOAD DUP1 PUSH1 0x40 ADD PUSH1 0x40 MSTORE DUP1 PUSH1 0xD DUP2 MSTORE PUSH1 0x20 ADD PUSH32 0x4B616A7573776170205061697200000000000000000000000000000000000000 DUP2 MSTORE POP PUSH1 0x40 MLOAD DUP1 PUSH1 0x40 ADD PUSH1 0x40 MSTORE DUP1 PUSH1 0x4 DUP2 MSTORE PUSH1 0x20 ADD PUSH32 0x4B414A5500000000000000000000000000000000000000000000000000000000 DUP2 MSTORE POP PUSH1 0x12 DUP3 PUSH1 0x0 SWAP1 DUP2 PUSH3 0x91 SWAP2 SWAP1 PUSH3 0x425 JUMP JUMPDEST POP DUP2 PUSH1 0x1 SWAP1 DUP2 PUSH3 0xA3 SWAP2 SWAP1 PUSH3 0x425 JUMP JUMPDEST POP DUP1 PUSH1 0xFF AND PUSH1 0x80 DUP2 PUSH1 0xFF AND DUP2 MSTORE POP POP CHAINID PUSH1 0xA0 DUP2 DUP2 MSTORE POP POP PUSH3 0xCA PUSH3 0x11B PUSH1 0x20 SHL PUSH1 0x20 SHR JUMP JUMPDEST PUSH1 0xC0 DUP2 DUP2 MSTORE POP POP POP POP POP CALLER PUSH1 0x6 PUSH1 0x0 PUSH2 0x100 EXP DUP2 SLOAD DUP2 PUSH20 0xFFFFFFFFFFFFFFFFFFFFFFFFFFFFFFFFFFFFFFFF MUL NOT AND SWAP1 DUP4 PUSH20 0xFFFFFFFFFFFFFFFFFFFFFFFFFFFFFFFFFFFFFFFF AND MUL OR SWAP1 SSTORE POP PUSH3 0x6A2 JUMP JUMPDEST PUSH1 0x0 PUSH32 0x8B73C3C69BB8FE3D512ECC4CF759CC79239F7B179B0FFACAA9A75D522B39400F PUSH1 0x0 PUSH1 0x40 MLOAD PUSH3 0x14F SWAP2 SWAP1 PUSH3 0x5BB JUMP JUMPDEST PUSH1 0x40 MLOAD DUP1 SWAP2 SUB SWAP1 KECCAK256 PUSH32 0xC89EFDAA54C0F20C7ADF612882DF0950F5A951637E0307CDCB4C672F298B8BC6 CHAINID ADDRESS PUSH1 0x40 MLOAD PUSH1 0x20 ADD PUSH3 0x190 SWAP6 SWAP5 SWAP4 SWAP3 SWAP2 SWAP1 PUSH3 0x645 JUMP JUMPDEST PUSH1 0x40 MLOAD PUSH1 0x20 DUP2 DUP4 SUB SUB DUP2 MSTORE SWAP1 PUSH1 0x40 MSTORE DUP1 MLOAD SWAP1 PUSH1 0x20 ADD KECCAK256 SWAP1 POP SWAP1 JUMP JUMPDEST PUSH1 0x0 DUP2 MLOAD SWAP1 POP SWAP2 SWAP1 POP JUMP JUMPDEST PUSH32 0x4E487B7100000000000000000000000000000000000000000000000000000000 PUSH1 0x0 MSTORE PUSH1 0x41 PUSH1 0x4 MSTORE PUSH1 0x24 PUSH1 0x0 REVERT JUMPDEST PUSH32 0x4E487B7100000000000000000000000000000000000000000000000000000000 PUSH1 0x0 MSTORE PUSH1 0x22 PUSH1 0x4 MSTORE PUSH1 0x24 PUSH1 0x0 REVERT JUMPDEST PUSH1 0x0 PUSH1 0x2 DUP3 DIV SWAP1 POP PUSH1 0x1 DUP3 AND DUP1 PUSH3 0x22D JUMPI PUSH1 0x7F DUP3 AND SWAP2 POP JUMPDEST PUSH1 0x20 DUP3 LT DUP2 SUB PUSH3 0x243 JUMPI PUSH3 0x242 PUSH3 0x1E5 JUMP JUMPDEST JUMPDEST POP SWAP2 SWAP1 POP JUMP JUMPDEST PUSH1 0x0 DUP2 SWAP1 POP DUP2 PUSH1 0x0 MSTORE PUSH1 0x20 PUSH1 0x0 KECCAK256 SWAP1 POP SWAP2 SWAP1 POP JUMP JUMPDEST PUSH1 0x0 PUSH1 0x20 PUSH1 0x1F DUP4 ADD DIV SWAP1 POP SWAP2 SWAP1 POP JUMP JUMPDEST PUSH1 0x0 DUP3 DUP3 SHL SWAP1 POP SWAP3 SWAP2 POP POP JUMP JUMPDEST PUSH1 0x0 PUSH1 0x8 DUP4 MUL PUSH3 0x2AD PUSH32 0xFFFFFFFFFFFFFFFFFFFFFFFFFFFFFFFFFFFFFFFFFFFFFFFFFFFFFFFFFFFFFFFF DUP3 PUSH3 0x26E JUMP JUMPDEST PUSH3 0x2B9 DUP7 DUP4 PUSH3 0x26E JUMP JUMPDEST SWAP6 POP DUP1 NOT DUP5 AND SWAP4 POP DUP1 DUP7 AND DUP5 OR SWAP3 POP POP POP SWAP4 SWAP3 POP POP POP JUMP JUMPDEST PUSH1 0x0 DUP2 SWAP1 POP SWAP2 SWAP1 POP JUMP JUMPDEST PUSH1 0x0 DUP2 SWAP1 POP SWAP2 SWAP1 POP JUMP JUMPDEST PUSH1 0x0 PUSH3 0x306 PUSH3 0x300 PUSH3 0x2FA DUP5 PUSH3 0x2D1 JUMP JUMPDEST PUSH3 0x2DB JUMP JUMPDEST PUSH3 0x2D1 JUMP JUMPDEST SWAP1 POP SWAP2 SWAP1 POP JUMP JUMPDEST PUSH1 0x0 DUP2 SWAP1 POP SWAP2 SWAP1 POP JUMP JUMPDEST PUSH3 0x322 DUP4 PUSH3 0x2E5 JUMP JUMPDEST PUSH3 0x33A PUSH3 0x331 DUP3 PUSH3 0x30D JUMP JUMPDEST DUP5 DUP5 SLOAD PUSH3 0x27B JUMP JUMPDEST DUP3 SSTORE POP POP POP POP JUMP JUMPDEST PUSH1 0x0 SWAP1 JUMP JUMPDEST PUSH3 0x351 PUSH3 0x342 JUMP JUMPDEST PUSH3 0x35E DUP2 DUP5 DUP5 PUSH3 0x317 JUMP JUMPDEST POP POP POP JUMP JUMPDEST JUMPDEST DUP2 DUP2 LT ISZERO PUSH3 0x386 JUMPI PUSH3 0x37A PUSH1 0x0 DUP3 PUSH3 0x347 JUMP JUMPDEST PUSH1 0x1 DUP2 ADD SWAP1 POP PUSH3 0x364 JUMP JUMPDEST POP POP JUMP JUMPDEST PUSH1 0x1F DUP3 GT ISZERO PUSH3 0x3D5 JUMPI PUSH3 0x39F DUP2 PUSH3 0x249 JUMP JUMPDEST PUSH3 0x3AA DUP5 PUSH3 0x25E JUMP JUMPDEST DUP2 ADD PUSH1 0x20 DUP6 LT ISZERO PUSH3 0x3BA JUMPI DUP2 SWAP1 POP JUMPDEST PUSH3 0x3D2 PUSH3 0x3C9 DUP6 PUSH3 0x25E JUMP JUMPDEST DUP4 ADD DUP3 PUSH3 0x363 JUMP JUMPDEST POP POP JUMPDEST POP POP POP JUMP JUMPDEST PUSH1 0x0 DUP3 DUP3 SHR SWAP1 POP SWAP3 SWAP2 POP POP JUMP JUMPDEST PUSH1 0x0 PUSH3 0x3FA PUSH1 0x0 NOT DUP5 PUSH1 0x8 MUL PUSH3 0x3DA JUMP JUMPDEST NOT DUP1 DUP4 AND SWAP2 POP POP SWAP3 SWAP2 POP POP JUMP JUMPDEST PUSH1 0x0 PUSH3 0x415 DUP4 DUP4 PUSH3 0x3E7 JUMP JUMPDEST SWAP2 POP DUP3 PUSH1 0x2 MUL DUP3 OR SWAP1 POP SWAP3 SWAP2 POP POP JUMP JUMPDEST PUSH3 0x430 DUP3 PUSH3 0x1AB JUMP JUMPDEST PUSH8 0xFFFFFFFFFFFFFFFF DUP2 GT ISZERO PUSH3 0x44C JUMPI PUSH3 0x44B PUSH3 0x1B6 JUMP JUMPDEST JUMPDEST PUSH3 0x458 DUP3 SLOAD PUSH3 0x214 JUMP JUMPDEST PUSH3 0x465 DUP3 DUP3 DUP6 PUSH3 0x38A JUMP JUMPDEST PUSH1 0x0 PUSH1 0x20 SWAP1 POP PUSH1 0x1F DUP4 GT PUSH1 0x1 DUP2 EQ PUSH3 0x49D JUMPI PUSH1 0x0 DUP5 ISZERO PUSH3 0x488 JUMPI DUP3 DUP8 ADD MLOAD SWAP1 POP JUMPDEST PUSH3 0x494 DUP6 DUP3 PUSH3 0x407 JUMP JUMPDEST DUP7 SSTORE POP PUSH3 0x504 JUMP JUMPDEST PUSH1 0x1F NOT DUP5 AND PUSH3 0x4AD DUP7 PUSH3 0x249 JUMP JUMPDEST PUSH1 0x0 JUMPDEST DUP3 DUP2 LT ISZERO PUSH3 0x4D7 JUMPI DUP5 DUP10 ADD MLOAD DUP3 SSTORE PUSH1 0x1 DUP3 ADD SWAP2 POP PUSH1 0x20 DUP6 ADD SWAP5 POP PUSH1 0x20 DUP2 ADD SWAP1 POP PUSH3 0x4B0 JUMP JUMPDEST DUP7 DUP4 LT ISZERO PUSH3 0x4F7 JUMPI DUP5 DUP10 ADD MLOAD PUSH3 0x4F3 PUSH1 0x1F DUP10 AND DUP3 PUSH3 0x3E7 JUMP JUMPDEST DUP4 SSTORE POP JUMPDEST PUSH1 0x1 PUSH1 0x2 DUP9 MUL ADD DUP9 SSTORE POP POP POP JUMPDEST POP POP POP POP POP POP JUMP JUMPDEST PUSH1 0x0 DUP2 SWAP1 POP SWAP3 SWAP2 POP POP JUMP JUMPDEST PUSH1 0x0 DUP2 SWAP1 POP DUP2 PUSH1 0x0 MSTORE PUSH1 0x20 PUSH1 0x0 KECCAK256 SWAP1 POP SWAP2 SWAP1 POP JUMP JUMPDEST PUSH1 0x0 DUP2 SLOAD PUSH3 0x53B DUP2 PUSH3 0x214 JUMP JUMPDEST PUSH3 0x547 DUP2 DUP7 PUSH3 0x50C JUMP JUMPDEST SWAP5 POP PUSH1 0x1 DUP3 AND PUSH1 0x0 DUP2 EQ PUSH3 0x565 JUMPI PUSH1 0x1 DUP2 EQ PUSH3 0x57B JUMPI PUSH3 0x5B2 JUMP JUMPDEST PUSH1 0xFF NOT DUP4 AND DUP7 MSTORE DUP2 ISZERO ISZERO DUP3 MUL DUP7 ADD SWAP4 POP PUSH3 0x5B2 JUMP JUMPDEST PUSH3 0x586 DUP6 PUSH3 0x517 JUMP JUMPDEST PUSH1 0x0 JUMPDEST DUP4 DUP2 LT ISZERO PUSH3 0x5AA JUMPI DUP2 SLOAD DUP2 DUP10 ADD MSTORE PUSH1 0x1 DUP3 ADD SWAP2 POP PUSH1 0x20 DUP2 ADD SWAP1 POP PUSH3 0x589 JUMP JUMPDEST DUP4 DUP9 ADD SWAP6 POP POP POP JUMPDEST POP POP POP SWAP3 SWAP2 POP POP JUMP JUMPDEST PUSH1 0x0 PUSH3 0x5C9 DUP3 DUP5 PUSH3 0x52C JUMP JUMPDEST SWAP2 POP DUP2 SWAP1 POP SWAP3 SWAP2 POP POP JUMP JUMPDEST PUSH1 0x0 DUP2 SWAP1 POP SWAP2 SWAP1 POP JUMP JUMPDEST PUSH3 0x5E9 DUP2 PUSH3 0x5D4 JUMP JUMPDEST DUP3 MSTORE POP POP JUMP JUMPDEST PUSH3 0x5FA DUP2 PUSH3 0x2D1 JUMP JUMPDEST DUP3 MSTORE POP POP JUMP JUMPDEST PUSH1 0x0 PUSH20 0xFFFFFFFFFFFFFFFFFFFFFFFFFFFFFFFFFFFFFFFF DUP3 AND SWAP1 POP SWAP2 SWAP1 POP JUMP JUMPDEST PUSH1 0x0 PUSH3 0x62D DUP3 PUSH3 0x600 JUMP JUMPDEST SWAP1 POP SWAP2 SWAP1 POP JUMP JUMPDEST PUSH3 0x63F DUP2 PUSH3 0x620 JUMP JUMPDEST DUP3 MSTORE POP POP JUMP JUMPDEST PUSH1 0x0 PUSH1 0xA0 DUP3 ADD SWAP1 POP PUSH3 0x65C PUSH1 0x0 DUP4 ADD DUP9 PUSH3 0x5DE JUMP JUMPDEST PUSH3 0x66B PUSH1 0x20 DUP4 ADD DUP8 PUSH3 0x5DE JUMP JUMPDEST PUSH3 0x67A PUSH1 0x40 DUP4 ADD DUP7 PUSH3 0x5DE JUMP JUMPDEST PUSH3 0x689 PUSH1 0x60 DUP4 ADD DUP6 PUSH3 0x5EF JUMP JUMPDEST PUSH3 0x698 PUSH1 0x80 DUP4 ADD DUP5 PUSH3 0x634 JUMP JUMPDEST SWAP7 SWAP6 POP POP POP POP POP POP JUMP JUMPDEST PUSH1 0x80 MLOAD PUSH1 0xA0 MLOAD PUSH1 0xC0 MLOAD PUSH2 0x397F PUSH3 0x6D2 PUSH1 0x0 CODECOPY PUSH1 0x0 PUSH2 0x92C ADD MSTORE PUSH1 0x0 PUSH2 0x8F8 ADD MSTORE PUSH1 0x0 PUSH2 0x8D2 ADD MSTORE PUSH2 0x397F PUSH1 0x0 RETURN INVALID PUSH1 0x80 PUSH1 0x40 MSTORE CALLVALUE DUP1 ISZERO PUSH2 0x10 JUMPI PUSH1 0x0 DUP1 REVERT JUMPDEST POP PUSH1 0x4 CALLDATASIZE LT PUSH2 0x14D JUMPI PUSH1 0x0 CALLDATALOAD PUSH1 0xE0 SHR DUP1 PUSH4 0x6A627842 GT PUSH2 0xC3 JUMPI DUP1 PUSH4 0xA9059CBB GT PUSH2 0x7C JUMPI DUP1 PUSH4 0xA9059CBB EQ PUSH2 0x3BB JUMPI DUP1 PUSH4 0xC45A0155 EQ PUSH2 0x3EB JUMPI DUP1 PUSH4 0xD21220A7 EQ PUSH2 0x409 JUMPI DUP1 PUSH4 0xD505ACCF EQ PUSH2 0x427 JUMPI DUP1 PUSH4 0xDD62ED3E EQ PUSH2 0x443 JUMPI DUP1 PUSH4 0xFFF6CAE9 EQ PUSH2 0x473 JUMPI PUSH2 0x14D JUMP JUMPDEST DUP1 PUSH4 0x6A627842 EQ PUSH2 0x2C0 JUMPI DUP1 PUSH4 0x6D9A640A EQ PUSH2 0x2F0 JUMPI DUP1 PUSH4 0x70A08231 EQ PUSH2 0x30C JUMPI DUP1 PUSH4 0x7ECEBE00 EQ PUSH2 0x33C JUMPI DUP1 PUSH4 0x89AFCB44 EQ PUSH2 0x36C JUMPI DUP1 PUSH4 0x95D89B41 EQ PUSH2 0x39D JUMPI PUSH2 0x14D JUMP JUMPDEST DUP1 PUSH4 0x23B872DD GT PUSH2 0x115 JUMPI DUP1 PUSH4 0x23B872DD EQ PUSH2 0x1FC JUMPI DUP1 PUSH4 0x313CE567 EQ PUSH2 0x22C JUMPI DUP1 PUSH4 0x3644E515 EQ PUSH2 0x24A JUMPI DUP1 PUSH4 0x485CC955 EQ PUSH2 0x268 JUMPI DUP1 PUSH4 0x5909C0D5 EQ PUSH2 0x284 JUMPI DUP1 PUSH4 0x5A3D5493 EQ PUSH2 0x2A2 JUMPI PUSH2 0x14D JUMP JUMPDEST DUP1 PUSH4 0x6FDDE03 EQ PUSH2 0x152 JUMPI DUP1 PUSH4 0x902F1AC EQ PUSH2 0x170 JUMPI DUP1 PUSH4 0x95EA7B3 EQ PUSH2 0x190 JUMPI DUP1 PUSH4 0xDFE1681 EQ PUSH2 0x1C0 JUMPI DUP1 PUSH4 0x18160DDD EQ PUSH2 0x1DE JUMPI JUMPDEST PUSH1 0x0 DUP1 REVERT JUMPDEST PUSH2 0x15A PUSH2 0x47D JUMP JUMPDEST PUSH1 0x40 MLOAD PUSH2 0x167 SWAP2 SWAP1 PUSH2 0x2840 JUMP JUMPDEST PUSH1 0x40 MLOAD DUP1 SWAP2 SUB SWAP1 RETURN JUMPDEST PUSH2 0x178 PUSH2 0x50B JUMP JUMPDEST PUSH1 0x40 MLOAD PUSH2 0x187 SWAP4 SWAP3 SWAP2 SWAP1 PUSH2 0x28AA JUMP JUMPDEST PUSH1 0x40 MLOAD DUP1 SWAP2 SUB SWAP1 RETURN JUMPDEST PUSH2 0x1AA PUSH1 0x4 DUP1 CALLDATASIZE SUB DUP2 ADD SWAP1 PUSH2 0x1A5 SWAP2 SWAP1 PUSH2 0x297A JUMP JUMPDEST PUSH2 0x568 JUMP JUMPDEST PUSH1 0x40 MLOAD PUSH2 0x1B7 SWAP2 SWAP1 PUSH2 0x29D5 JUMP JUMPDEST PUSH1 0x40 MLOAD DUP1 SWAP2 SUB SWAP1 RETURN JUMPDEST PUSH2 0x1C8 PUSH2 0x65A JUMP JUMPDEST PUSH1 0x40 MLOAD PUSH2 0x1D5 SWAP2 SWAP1 PUSH2 0x29FF JUMP JUMPDEST PUSH1 0x40 MLOAD DUP1 SWAP2 SUB SWAP1 RETURN JUMPDEST PUSH2 0x1E6 PUSH2 0x680 JUMP JUMPDEST PUSH1 0x40 MLOAD PUSH2 0x1F3 SWAP2 SWAP1 PUSH2 0x2A29 JUMP JUMPDEST PUSH1 0x40 MLOAD DUP1 SWAP2 SUB SWAP1 RETURN JUMPDEST PUSH2 0x216 PUSH1 0x4 DUP1 CALLDATASIZE SUB DUP2 ADD SWAP1 PUSH2 0x211 SWAP2 SWAP1 PUSH2 0x2A44 JUMP JUMPDEST PUSH2 0x686 JUMP JUMPDEST PUSH1 0x40 MLOAD PUSH2 0x223 SWAP2 SWAP1 PUSH2 0x29D5 JUMP JUMPDEST PUSH1 0x40 MLOAD DUP1 SWAP2 SUB SWAP1 RETURN JUMPDEST PUSH2 0x234 PUSH2 0x8D0 JUMP JUMPDEST PUSH1 0x40 MLOAD PUSH2 0x241 SWAP2 SWAP1 PUSH2 0x2AB3 JUMP JUMPDEST PUSH1 0x40 MLOAD DUP1 SWAP2 SUB SWAP1 RETURN JUMPDEST PUSH2 0x252 PUSH2 0x8F4 JUMP JUMPDEST PUSH1 0x40 MLOAD PUSH2 0x25F SWAP2 SWAP1 PUSH2 0x2AE7 JUMP JUMPDEST PUSH1 0x40 MLOAD DUP1 SWAP2 SUB SWAP1 RETURN JUMPDEST PUSH2 0x282 PUSH1 0x4 DUP1 CALLDATASIZE SUB DUP2 ADD SWAP1 PUSH2 0x27D SWAP2 SWAP1 PUSH2 0x2B02 JUMP JUMPDEST PUSH2 0x951 JUMP JUMPDEST STOP JUMPDEST PUSH2 0x28C PUSH2 0xB4B JUMP JUMPDEST PUSH1 0x40 MLOAD PUSH2 0x299 SWAP2 SWAP1 PUSH2 0x2A29 JUMP JUMPDEST PUSH1 0x40 MLOAD DUP1 SWAP2 SUB SWAP1 RETURN JUMPDEST PUSH2 0x2AA PUSH2 0xB51 JUMP JUMPDEST PUSH1 0x40 MLOAD PUSH2 0x2B7 SWAP2 SWAP1 PUSH2 0x2A29 JUMP JUMPDEST PUSH1 0x40 MLOAD DUP1 SWAP2 SUB SWAP1 RETURN JUMPDEST PUSH2 0x2DA PUSH1 0x4 DUP1 CALLDATASIZE SUB DUP2 ADD SWAP1 PUSH2 0x2D5 SWAP2 SWAP1 PUSH2 0x2B42 JUMP JUMPDEST PUSH2 0xB57 JUMP JUMPDEST PUSH1 0x40 MLOAD PUSH2 0x2E7 SWAP2 SWAP1 PUSH2 0x2A29 JUMP JUMPDEST PUSH1 0x40 MLOAD DUP1 SWAP2 SUB SWAP1 RETURN JUMPDEST PUSH2 0x30A PUSH1 0x4 DUP1 CALLDATASIZE SUB DUP2 ADD SWAP1 PUSH2 0x305 SWAP2 SWAP1 PUSH2 0x2B6F JUMP JUMPDEST PUSH2 0xEC3 JUMP JUMPDEST STOP JUMPDEST PUSH2 0x326 PUSH1 0x4 DUP1 CALLDATASIZE SUB DUP2 ADD SWAP1 PUSH2 0x321 SWAP2 SWAP1 PUSH2 0x2B42 JUMP JUMPDEST PUSH2 0x1487 JUMP JUMPDEST PUSH1 0x40 MLOAD PUSH2 0x333 SWAP2 SWAP1 PUSH2 0x2A29 JUMP JUMPDEST PUSH1 0x40 MLOAD DUP1 SWAP2 SUB SWAP1 RETURN JUMPDEST PUSH2 0x356 PUSH1 0x4 DUP1 CALLDATASIZE SUB DUP2 ADD SWAP1 PUSH2 0x351 SWAP2 SWAP1 PUSH2 0x2B42 JUMP JUMPDEST PUSH2 0x149F JUMP JUMPDEST PUSH1 0x40 MLOAD PUSH2 0x363 SWAP2 SWAP1 PUSH2 0x2A29 JUMP JUMPDEST PUSH1 0x40 MLOAD DUP1 SWAP2 SUB SWAP1 RETURN JUMPDEST PUSH2 0x386 PUSH1 0x4 DUP1 CALLDATASIZE SUB DUP2 ADD SWAP1 PUSH2 0x381 SWAP2 SWAP1 PUSH2 0x2B42 JUMP JUMPDEST PUSH2 0x14B7 JUMP JUMPDEST PUSH1 0x40 MLOAD PUSH2 0x394 SWAP3 SWAP2 SWAP1 PUSH2 0x2BC2 JUMP JUMPDEST PUSH1 0x40 MLOAD DUP1 SWAP2 SUB SWAP1 RETURN JUMPDEST PUSH2 0x3A5 PUSH2 0x1969 JUMP JUMPDEST PUSH1 0x40 MLOAD PUSH2 0x3B2 SWAP2 SWAP1 PUSH2 0x2840 JUMP JUMPDEST PUSH1 0x40 MLOAD DUP1 SWAP2 SUB SWAP1 RETURN JUMPDEST PUSH2 0x3D5 PUSH1 0x4 DUP1 CALLDATASIZE SUB DUP2 ADD SWAP1 PUSH2 0x3D0 SWAP2 SWAP1 PUSH2 0x297A JUMP JUMPDEST PUSH2 0x19F7 JUMP JUMPDEST PUSH1 0x40 MLOAD PUSH2 0x3E2 SWAP2 SWAP1 PUSH2 0x29D5 JUMP JUMPDEST PUSH1 0x40 MLOAD DUP1 SWAP2 SUB SWAP1 RETURN JUMPDEST PUSH2 0x3F3 PUSH2 0x1B0B JUMP JUMPDEST PUSH1 0x40 MLOAD PUSH2 0x400 SWAP2 SWAP1 PUSH2 0x29FF JUMP JUMPDEST PUSH1 0x40 MLOAD DUP1 SWAP2 SUB SWAP1 RETURN JUMPDEST PUSH2 0x411 PUSH2 0x1B31 JUMP JUMPDEST PUSH1 0x40 MLOAD PUSH2 0x41E SWAP2 SWAP1 PUSH2 0x29FF JUMP JUMPDEST PUSH1 0x40 MLOAD DUP1 SWAP2 SUB SWAP1 RETURN JUMPDEST PUSH2 0x441 PUSH1 0x4 DUP1 CALLDATASIZE SUB DUP2 ADD SWAP1 PUSH2 0x43C SWAP2 SWAP1 PUSH2 0x2C43 JUMP JUMPDEST PUSH2 0x1B57 JUMP JUMPDEST STOP JUMPDEST PUSH2 0x45D PUSH1 0x4 DUP1 CALLDATASIZE SUB DUP2 ADD SWAP1 PUSH2 0x458 SWAP2 SWAP1 PUSH2 0x2B02 JUMP JUMPDEST PUSH2 0x1E50 JUMP JUMPDEST PUSH1 0x40 MLOAD PUSH2 0x46A SWAP2 SWAP1 PUSH2 0x2A29 JUMP JUMPDEST PUSH1 0x40 MLOAD DUP1 SWAP2 SUB SWAP1 RETURN JUMPDEST PUSH2 0x47B PUSH2 0x1E75 JUMP JUMPDEST STOP JUMPDEST PUSH1 0x0 DUP1 SLOAD PUSH2 0x48A SWAP1 PUSH2 0x2D14 JUMP JUMPDEST DUP1 PUSH1 0x1F ADD PUSH1 0x20 DUP1 SWAP2 DIV MUL PUSH1 0x20 ADD PUSH1 0x40 MLOAD SWAP1 DUP2 ADD PUSH1 0x40 MSTORE DUP1 SWAP3 SWAP2 SWAP1 DUP2 DUP2 MSTORE PUSH1 0x20 ADD DUP3 DUP1 SLOAD PUSH2 0x4B6 SWAP1 PUSH2 0x2D14 JUMP JUMPDEST DUP1 ISZERO PUSH2 0x503 JUMPI DUP1 PUSH1 0x1F LT PUSH2 0x4D8 JUMPI PUSH2 0x100 DUP1 DUP4 SLOAD DIV MUL DUP4 MSTORE SWAP2 PUSH1 0x20 ADD SWAP2 PUSH2 0x503 JUMP JUMPDEST DUP3 ADD SWAP2 SWAP1 PUSH1 0x0 MSTORE PUSH1 0x20 PUSH1 0x0 KECCAK256 SWAP1 JUMPDEST DUP2 SLOAD DUP2 MSTORE SWAP1 PUSH1 0x1 ADD SWAP1 PUSH1 0x20 ADD DUP1 DUP4 GT PUSH2 0x4E6 JUMPI DUP3 SWAP1 SUB PUSH1 0x1F AND DUP3 ADD SWAP2 JUMPDEST POP POP POP POP POP DUP2 JUMP JUMPDEST PUSH1 0x0 DUP1 PUSH1 0x0 PUSH1 0x9 PUSH1 0x0 SWAP1 SLOAD SWAP1 PUSH2 0x100 EXP SWAP1 DIV PUSH14 0xFFFFFFFFFFFFFFFFFFFFFFFFFFFF AND PUSH1 0x9 PUSH1 0xE SWAP1 SLOAD SWAP1 PUSH2 0x100 EXP SWAP1 DIV PUSH14 0xFFFFFFFFFFFFFFFFFFFFFFFFFFFF AND PUSH1 0x9 PUSH1 0x1C SWAP1 SLOAD SWAP1 PUSH2 0x100 EXP SWAP1 DIV PUSH4 0xFFFFFFFF AND SWAP3 POP SWAP3 POP SWAP3 POP SWAP1 SWAP2 SWAP3 JUMP JUMPDEST PUSH1 0x0 DUP2 PUSH1 0x4 PUSH1 0x0 CALLER PUSH20 0xFFFFFFFFFFFFFFFFFFFFFFFFFFFFFFFFFFFFFFFF AND PUSH20 0xFFFFFFFFFFFFFFFFFFFFFFFFFFFFFFFFFFFFFFFF AND DUP2 MSTORE PUSH1 0x20 ADD SWAP1 DUP2 MSTORE PUSH1 0x20 ADD PUSH1 0x0 KECCAK256 PUSH1 0x0 DUP6 PUSH20 0xFFFFFFFFFFFFFFFFFFFFFFFFFFFFFFFFFFFFFFFF AND PUSH20 0xFFFFFFFFFFFFFFFFFFFFFFFFFFFFFFFFFFFFFFFF AND DUP2 MSTORE PUSH1 0x20 ADD SWAP1 DUP2 MSTORE PUSH1 0x20 ADD PUSH1 0x0 KECCAK256 DUP2 SWAP1 SSTORE POP DUP3 PUSH20 0xFFFFFFFFFFFFFFFFFFFFFFFFFFFFFFFFFFFFFFFF AND CALLER PUSH20 0xFFFFFFFFFFFFFFFFFFFFFFFFFFFFFFFFFFFFFFFF AND PUSH32 0x8C5BE1E5EBEC7D5BD14F71427D1E84F3DD0314C0F7B2291E5B200AC8C7C3B925 DUP5 PUSH1 0x40 MLOAD PUSH2 0x648 SWAP2 SWAP1 PUSH2 0x2A29 JUMP JUMPDEST PUSH1 0x40 MLOAD DUP1 SWAP2 SUB SWAP1 LOG3 PUSH1 0x1 SWAP1 POP SWAP3 SWAP2 POP POP JUMP JUMPDEST PUSH1 0x7 PUSH1 0x0 SWAP1 SLOAD SWAP1 PUSH2 0x100 EXP SWAP1 DIV PUSH20 0xFFFFFFFFFFFFFFFFFFFFFFFFFFFFFFFFFFFFFFFF AND DUP2 JUMP JUMPDEST PUSH1 0x2 SLOAD DUP2 JUMP JUMPDEST PUSH1 0x0 DUP1 PUSH1 0x4 PUSH1 0x0 DUP7 PUSH20 0xFFFFFFFFFFFFFFFFFFFFFFFFFFFFFFFFFFFFFFFF AND PUSH20 0xFFFFFFFFFFFFFFFFFFFFFFFFFFFFFFFFFFFFFFFF AND DUP2 MSTORE PUSH1 0x20 ADD SWAP1 DUP2 MSTORE PUSH1 0x20 ADD PUSH1 0x0 KECCAK256 PUSH1 0x0 CALLER PUSH20 0xFFFFFFFFFFFFFFFFFFFFFFFFFFFFFFFFFFFFFFFF AND PUSH20 0xFFFFFFFFFFFFFFFFFFFFFFFFFFFFFFFFFFFFFFFF AND DUP2 MSTORE PUSH1 0x20 ADD SWAP1 DUP2 MSTORE PUSH1 0x20 ADD PUSH1 0x0 KECCAK256 SLOAD SWAP1 POP PUSH32 0xFFFFFFFFFFFFFFFFFFFFFFFFFFFFFFFFFFFFFFFFFFFFFFFFFFFFFFFFFFFFFFFF DUP2 EQ PUSH2 0x7BC JUMPI DUP3 DUP2 PUSH2 0x73B SWAP2 SWAP1 PUSH2 0x2D74 JUMP JUMPDEST PUSH1 0x4 PUSH1 0x0 DUP8 PUSH20 0xFFFFFFFFFFFFFFFFFFFFFFFFFFFFFFFFFFFFFFFF AND PUSH20 0xFFFFFFFFFFFFFFFFFFFFFFFFFFFFFFFFFFFFFFFF AND DUP2 MSTORE PUSH1 0x20 ADD SWAP1 DUP2 MSTORE PUSH1 0x20 ADD PUSH1 0x0 KECCAK256 PUSH1 0x0 CALLER PUSH20 0xFFFFFFFFFFFFFFFFFFFFFFFFFFFFFFFFFFFFFFFF AND PUSH20 0xFFFFFFFFFFFFFFFFFFFFFFFFFFFFFFFFFFFFFFFF AND DUP2 MSTORE PUSH1 0x20 ADD SWAP1 DUP2 MSTORE PUSH1 0x20 ADD PUSH1 0x0 KECCAK256 DUP2 SWAP1 SSTORE POP JUMPDEST DUP3 PUSH1 0x3 PUSH1 0x0 DUP8 PUSH20 0xFFFFFFFFFFFFFFFFFFFFFFFFFFFFFFFFFFFFFFFF AND PUSH20 0xFFFFFFFFFFFFFFFFFFFFFFFFFFFFFFFFFFFFFFFF AND DUP2 MSTORE PUSH1 0x20 ADD SWAP1 DUP2 MSTORE PUSH1 0x20 ADD PUSH1 0x0 KECCAK256 PUSH1 0x0 DUP3 DUP3 SLOAD PUSH2 0x80B SWAP2 SWAP1 PUSH2 0x2D74 JUMP JUMPDEST SWAP3 POP POP DUP2 SWAP1 SSTORE POP DUP3 PUSH1 0x3 PUSH1 0x0 DUP7 PUSH20 0xFFFFFFFFFFFFFFFFFFFFFFFFFFFFFFFFFFFFFFFF AND PUSH20 0xFFFFFFFFFFFFFFFFFFFFFFFFFFFFFFFFFFFFFFFF AND DUP2 MSTORE PUSH1 0x20 ADD SWAP1 DUP2 MSTORE PUSH1 0x20 ADD PUSH1 0x0 KECCAK256 PUSH1 0x0 DUP3 DUP3 SLOAD ADD SWAP3 POP POP DUP2 SWAP1 SSTORE POP DUP4 PUSH20 0xFFFFFFFFFFFFFFFFFFFFFFFFFFFFFFFFFFFFFFFF AND DUP6 PUSH20 0xFFFFFFFFFFFFFFFFFFFFFFFFFFFFFFFFFFFFFFFF AND PUSH32 0xDDF252AD1BE2C89B69C2B068FC378DAA952BA7F163C4A11628F55A4DF523B3EF DUP6 PUSH1 0x40 MLOAD PUSH2 0x8BC SWAP2 SWAP1 PUSH2 0x2A29 JUMP JUMPDEST PUSH1 0x40 MLOAD DUP1 SWAP2 SUB SWAP1 LOG3 PUSH1 0x1 SWAP2 POP POP SWAP4 SWAP3 POP POP POP JUMP JUMPDEST PUSH32 0x0 DUP2 JUMP JUMPDEST PUSH1 0x0 PUSH32 0x0 CHAINID EQ PUSH2 0x92A JUMPI PUSH2 0x925 PUSH2 0x2055 JUMP JUMPDEST PUSH2 0x94C JUMP JUMPDEST PUSH32 0x0 JUMPDEST SWAP1 POP SWAP1 JUMP JUMPDEST PUSH1 0x6 PUSH1 0x0 SWAP1 SLOAD SWAP1 PUSH2 0x100 EXP SWAP1 DIV PUSH20 0xFFFFFFFFFFFFFFFFFFFFFFFFFFFFFFFFFFFFFFFF AND PUSH20 0xFFFFFFFFFFFFFFFFFFFFFFFFFFFFFFFFFFFFFFFF AND CALLER PUSH20 0xFFFFFFFFFFFFFFFFFFFFFFFFFFFFFFFFFFFFFFFF AND EQ PUSH2 0x9E1 JUMPI PUSH1 0x40 MLOAD PUSH32 0x8C379A000000000000000000000000000000000000000000000000000000000 DUP2 MSTORE PUSH1 0x4 ADD PUSH2 0x9D8 SWAP1 PUSH2 0x2DF4 JUMP JUMPDEST PUSH1 0x40 MLOAD DUP1 SWAP2 SUB SWAP1 REVERT JUMPDEST PUSH1 0x0 PUSH20 0xFFFFFFFFFFFFFFFFFFFFFFFFFFFFFFFFFFFFFFFF AND PUSH1 0x7 PUSH1 0x0 SWAP1 SLOAD SWAP1 PUSH2 0x100 EXP SWAP1 DIV PUSH20 0xFFFFFFFFFFFFFFFFFFFFFFFFFFFFFFFFFFFFFFFF AND PUSH20 0xFFFFFFFFFFFFFFFFFFFFFFFFFFFFFFFFFFFFFFFF AND EQ ISZERO DUP1 PUSH2 0xA8E JUMPI POP PUSH1 0x0 PUSH20 0xFFFFFFFFFFFFFFFFFFFFFFFFFFFFFFFFFFFFFFFF AND PUSH1 0x8 PUSH1 0x0 SWAP1 SLOAD SWAP1 PUSH2 0x100 EXP SWAP1 DIV PUSH20 0xFFFFFFFFFFFFFFFFFFFFFFFFFFFFFFFFFFFFFFFF AND PUSH20 0xFFFFFFFFFFFFFFFFFFFFFFFFFFFFFFFFFFFFFFFF AND EQ ISZERO JUMPDEST ISZERO PUSH2 0xAC5 JUMPI PUSH1 0x40 MLOAD PUSH32 0xDC149F000000000000000000000000000000000000000000000000000000000 DUP2 MSTORE PUSH1 0x4 ADD PUSH1 0x40 MLOAD DUP1 SWAP2 SUB SWAP1 REVERT JUMPDEST DUP2 PUSH1 0x7 PUSH1 0x0 PUSH2 0x100 EXP DUP2 SLOAD DUP2 PUSH20 0xFFFFFFFFFFFFFFFFFFFFFFFFFFFFFFFFFFFFFFFF MUL NOT AND SWAP1 DUP4 PUSH20 0xFFFFFFFFFFFFFFFFFFFFFFFFFFFFFFFFFFFFFFFF AND MUL OR SWAP1 SSTORE POP DUP1 PUSH1 0x8 PUSH1 0x0 PUSH2 0x100 EXP DUP2 SLOAD DUP2 PUSH20 0xFFFFFFFFFFFFFFFFFFFFFFFFFFFFFFFFFFFFFFFF MUL NOT AND SWAP1 DUP4 PUSH20 0xFFFFFFFFFFFFFFFFFFFFFFFFFFFFFFFFFFFFFFFF AND MUL OR SWAP1 SSTORE POP POP POP JUMP JUMPDEST PUSH1 0xA SLOAD DUP2 JUMP JUMPDEST PUSH1 0xB SLOAD DUP2 JUMP JUMPDEST PUSH1 0x0 PUSH1 0xC PUSH1 0x0 SWAP1 SLOAD SWAP1 PUSH2 0x100 EXP SWAP1 DIV PUSH1 0xFF AND ISZERO PUSH2 0xBA9 JUMPI PUSH1 0x40 MLOAD PUSH32 0x8C379A000000000000000000000000000000000000000000000000000000000 DUP2 MSTORE PUSH1 0x4 ADD PUSH2 0xBA0 SWAP1 PUSH2 0x2E86 JUMP JUMPDEST PUSH1 0x40 MLOAD DUP1 SWAP2 SUB SWAP1 REVERT JUMPDEST PUSH1 0x1 PUSH1 0xC PUSH1 0x0 PUSH2 0x100 EXP DUP2 SLOAD DUP2 PUSH1 0xFF MUL NOT AND SWAP1 DUP4 ISZERO ISZERO MUL OR SWAP1 SSTORE POP PUSH1 0x0 DUP1 PUSH2 0xBCF PUSH2 0x50B JUMP JUMPDEST POP SWAP2 POP SWAP2 POP PUSH1 0x0 PUSH1 0x7 PUSH1 0x0 SWAP1 SLOAD SWAP1 PUSH2 0x100 EXP SWAP1 DIV PUSH20 0xFFFFFFFFFFFFFFFFFFFFFFFFFFFFFFFFFFFFFFFF AND PUSH20 0xFFFFFFFFFFFFFFFFFFFFFFFFFFFFFFFFFFFFFFFF AND PUSH4 0x70A08231 ADDRESS PUSH1 0x40 MLOAD DUP3 PUSH4 0xFFFFFFFF AND PUSH1 0xE0 SHL DUP2 MSTORE PUSH1 0x4 ADD PUSH2 0xC31 SWAP2 SWAP1 PUSH2 0x29FF JUMP JUMPDEST PUSH1 0x20 PUSH1 0x40 MLOAD DUP1 DUP4 SUB DUP2 PUSH1 0x0 DUP8 GAS CALL ISZERO DUP1 ISZERO PUSH2 0xC50 JUMPI RETURNDATASIZE PUSH1 0x0 DUP1 RETURNDATACOPY RETURNDATASIZE PUSH1 0x0 REVERT JUMPDEST POP POP POP POP PUSH1 0x40 MLOAD RETURNDATASIZE PUSH1 0x1F NOT PUSH1 0x1F DUP3 ADD AND DUP3 ADD DUP1 PUSH1 0x40 MSTORE POP DUP2 ADD SWAP1 PUSH2 0xC74 SWAP2 SWAP1 PUSH2 0x2EBB JUMP JUMPDEST SWAP1 POP PUSH1 0x0 PUSH1 0x8 PUSH1 0x0 SWAP1 SLOAD SWAP1 PUSH2 0x100 EXP SWAP1 DIV PUSH20 0xFFFFFFFFFFFFFFFFFFFFFFFFFFFFFFFFFFFFFFFF AND PUSH20 0xFFFFFFFFFFFFFFFFFFFFFFFFFFFFFFFFFFFFFFFF AND PUSH4 0x70A08231 ADDRESS PUSH1 0x40 MLOAD DUP3 PUSH4 0xFFFFFFFF AND PUSH1 0xE0 SHL DUP2 MSTORE PUSH1 0x4 ADD PUSH2 0xCD3 SWAP2 SWAP1 PUSH2 0x29FF JUMP JUMPDEST PUSH1 0x20 PUSH1 0x40 MLOAD DUP1 DUP4 SUB DUP2 PUSH1 0x0 DUP8 GAS CALL ISZERO DUP1 ISZERO PUSH2 0xCF2 JUMPI RETURNDATASIZE PUSH1 0x0 DUP1 RETURNDATACOPY RETURNDATASIZE PUSH1 0x0 REVERT JUMPDEST POP POP POP POP PUSH1 0x40 MLOAD RETURNDATASIZE PUSH1 0x1F NOT PUSH1 0x1F DUP3 ADD AND DUP3 ADD DUP1 PUSH1 0x40 MSTORE POP DUP2 ADD SWAP1 PUSH2 0xD16 SWAP2 SWAP1 PUSH2 0x2EBB JUMP JUMPDEST SWAP1 POP PUSH1 0x0 DUP5 PUSH14 0xFFFFFFFFFFFFFFFFFFFFFFFFFFFF AND DUP4 PUSH2 0xD36 SWAP2 SWAP1 PUSH2 0x2D74 JUMP JUMPDEST SWAP1 POP PUSH1 0x0 DUP5 PUSH14 0xFFFFFFFFFFFFFFFFFFFFFFFFFFFF AND DUP4 PUSH2 0xD56 SWAP2 SWAP1 PUSH2 0x2D74 JUMP JUMPDEST SWAP1 POP PUSH1 0x0 PUSH1 0x2 SLOAD SUB PUSH2 0xD97 JUMPI PUSH2 0x3E8 PUSH2 0xD79 DUP3 DUP5 PUSH2 0xD74 SWAP2 SWAP1 PUSH2 0x2EE8 JUMP JUMPDEST PUSH2 0x20E1 JUMP JUMPDEST PUSH2 0xD83 SWAP2 SWAP1 PUSH2 0x2D74 JUMP JUMPDEST SWAP7 POP PUSH2 0xD92 PUSH1 0x0 PUSH2 0x3E8 PUSH2 0x215B JUMP JUMPDEST PUSH2 0xDF4 JUMP JUMPDEST PUSH2 0xDF1 DUP7 PUSH14 0xFFFFFFFFFFFFFFFFFFFFFFFFFFFF AND PUSH1 0x2 SLOAD DUP5 PUSH2 0xDB9 SWAP2 SWAP1 PUSH2 0x2EE8 JUMP JUMPDEST PUSH2 0xDC3 SWAP2 SWAP1 PUSH2 0x2F71 JUMP JUMPDEST DUP7 PUSH14 0xFFFFFFFFFFFFFFFFFFFFFFFFFFFF AND PUSH1 0x2 SLOAD DUP5 PUSH2 0xDE2 SWAP2 SWAP1 PUSH2 0x2EE8 JUMP JUMPDEST PUSH2 0xDEC SWAP2 SWAP1 PUSH2 0x2F71 JUMP JUMPDEST PUSH2 0x222B JUMP JUMPDEST SWAP7 POP JUMPDEST PUSH1 0x0 DUP8 GT PUSH2 0xE37 JUMPI PUSH1 0x40 MLOAD PUSH32 0x8C379A000000000000000000000000000000000000000000000000000000000 DUP2 MSTORE PUSH1 0x4 ADD PUSH2 0xE2E SWAP1 PUSH2 0x3014 JUMP JUMPDEST PUSH1 0x40 MLOAD DUP1 SWAP2 SUB SWAP1 REVERT JUMPDEST PUSH2 0xE41 DUP9 DUP9 PUSH2 0x215B JUMP JUMPDEST PUSH2 0xE4D DUP5 DUP5 DUP9 DUP9 PUSH2 0x2244 JUMP JUMPDEST DUP8 PUSH20 0xFFFFFFFFFFFFFFFFFFFFFFFFFFFFFFFFFFFFFFFF AND PUSH32 0x4C209B5FC8AD50758F13E2E1088BA56A560DFF690A1C6FEF26394F4C03821C4F DUP4 DUP4 PUSH1 0x40 MLOAD PUSH2 0xE95 SWAP3 SWAP2 SWAP1 PUSH2 0x2BC2 JUMP JUMPDEST PUSH1 0x40 MLOAD DUP1 SWAP2 SUB SWAP1 LOG2 POP POP POP POP POP POP PUSH1 0x0 PUSH1 0xC PUSH1 0x0 PUSH2 0x100 EXP DUP2 SLOAD DUP2 PUSH1 0xFF MUL NOT AND SWAP1 DUP4 ISZERO ISZERO MUL OR SWAP1 SSTORE POP SWAP2 SWAP1 POP JUMP JUMPDEST PUSH1 0xC PUSH1 0x0 SWAP1 SLOAD SWAP1 PUSH2 0x100 EXP SWAP1 DIV PUSH1 0xFF AND ISZERO PUSH2 0xF13 JUMPI PUSH1 0x40 MLOAD PUSH32 0x8C379A000000000000000000000000000000000000000000000000000000000 DUP2 MSTORE PUSH1 0x4 ADD PUSH2 0xF0A SWAP1 PUSH2 0x2E86 JUMP JUMPDEST PUSH1 0x40 MLOAD DUP1 SWAP2 SUB SWAP1 REVERT JUMPDEST PUSH1 0x1 PUSH1 0xC PUSH1 0x0 PUSH2 0x100 EXP DUP2 SLOAD DUP2 PUSH1 0xFF MUL NOT AND SWAP1 DUP4 ISZERO ISZERO MUL OR SWAP1 SSTORE POP PUSH1 0x0 DUP4 GT DUP1 PUSH2 0xF3D JUMPI POP PUSH1 0x0 DUP3 GT JUMPDEST PUSH2 0xF7C JUMPI PUSH1 0x40 MLOAD PUSH32 0x8C379A000000000000000000000000000000000000000000000000000000000 DUP2 MSTORE PUSH1 0x4 ADD PUSH2 0xF73 SWAP1 PUSH2 0x30A6 JUMP JUMPDEST PUSH1 0x40 MLOAD DUP1 SWAP2 SUB SWAP1 REVERT JUMPDEST PUSH1 0x0 DUP1 PUSH2 0xF87 PUSH2 0x50B JUMP JUMPDEST POP SWAP2 POP SWAP2 POP DUP2 PUSH14 0xFFFFFFFFFFFFFFFFFFFFFFFFFFFF AND DUP6 LT DUP1 ISZERO PUSH2 0xFBA JUMPI POP DUP1 PUSH14 0xFFFFFFFFFFFFFFFFFFFFFFFFFFFF AND DUP5 LT JUMPDEST PUSH2 0xFF9 JUMPI PUSH1 0x40 MLOAD PUSH32 0x8C379A000000000000000000000000000000000000000000000000000000000 DUP2 MSTORE PUSH1 0x4 ADD PUSH2 0xFF0 SWAP1 PUSH2 0x3112 JUMP JUMPDEST PUSH1 0x40 MLOAD DUP1 SWAP2 SUB SWAP1 REVERT JUMPDEST PUSH1 0x0 DUP6 GT ISZERO PUSH2 0x1030 JUMPI PUSH2 0x102F PUSH1 0x7 PUSH1 0x0 SWAP1 SLOAD SWAP1 PUSH2 0x100 EXP SWAP1 DIV PUSH20 0xFFFFFFFFFFFFFFFFFFFFFFFFFFFFFFFFFFFFFFFF AND DUP5 DUP8 PUSH2 0x24F3 JUMP JUMPDEST JUMPDEST PUSH1 0x0 DUP5 GT ISZERO PUSH2 0x1067 JUMPI PUSH2 0x1066 PUSH1 0x8 PUSH1 0x0 SWAP1 SLOAD SWAP1 PUSH2 0x100 EXP SWAP1 DIV PUSH20 0xFFFFFFFFFFFFFFFFFFFFFFFFFFFFFFFFFFFFFFFF AND DUP5 DUP7 PUSH2 0x24F3 JUMP JUMPDEST JUMPDEST PUSH1 0x0 PUSH1 0x7 PUSH1 0x0 SWAP1 SLOAD SWAP1 PUSH2 0x100 EXP SWAP1 DIV PUSH20 0xFFFFFFFFFFFFFFFFFFFFFFFFFFFFFFFFFFFFFFFF AND PUSH20 0xFFFFFFFFFFFFFFFFFFFFFFFFFFFFFFFFFFFFFFFF AND PUSH4 0x70A08231 ADDRESS PUSH1 0x40 MLOAD DUP3 PUSH4 0xFFFFFFFF AND PUSH1 0xE0 SHL DUP2 MSTORE PUSH1 0x4 ADD PUSH2 0x10C4 SWAP2 SWAP1 PUSH2 0x29FF JUMP JUMPDEST PUSH1 0x20 PUSH1 0x40 MLOAD DUP1 DUP4 SUB DUP2 PUSH1 0x0 DUP8 GAS CALL ISZERO DUP1 ISZERO PUSH2 0x10E3 JUMPI RETURNDATASIZE PUSH1 0x0 DUP1 RETURNDATACOPY RETURNDATASIZE PUSH1 0x0 REVERT JUMPDEST POP POP POP POP PUSH1 0x40 MLOAD RETURNDATASIZE PUSH1 0x1F NOT PUSH1 0x1F DUP3 ADD AND DUP3 ADD DUP1 PUSH1 0x40 MSTORE POP DUP2 ADD SWAP1 PUSH2 0x1107 SWAP2 SWAP1 PUSH2 0x2EBB JUMP JUMPDEST SWAP1 POP PUSH1 0x0 PUSH1 0x8 PUSH1 0x0 SWAP1 SLOAD SWAP1 PUSH2 0x100 EXP SWAP1 DIV PUSH20 0xFFFFFFFFFFFFFFFFFFFFFFFFFFFFFFFFFFFFFFFF AND PUSH20 0xFFFFFFFFFFFFFFFFFFFFFFFFFFFFFFFFFFFFFFFF AND PUSH4 0x70A08231 ADDRESS PUSH1 0x40 MLOAD DUP3 PUSH4 0xFFFFFFFF AND PUSH1 0xE0 SHL DUP2 MSTORE PUSH1 0x4 ADD PUSH2 0x1166 SWAP2 SWAP1 PUSH2 0x29FF JUMP JUMPDEST PUSH1 0x20 PUSH1 0x40 MLOAD DUP1 DUP4 SUB DUP2 PUSH1 0x0 DUP8 GAS CALL ISZERO DUP1 ISZERO PUSH2 0x1185 JUMPI RETURNDATASIZE PUSH1 0x0 DUP1 RETURNDATACOPY RETURNDATASIZE PUSH1 0x0 REVERT JUMPDEST POP POP POP POP PUSH1 0x40 MLOAD RETURNDATASIZE PUSH1 0x1F NOT PUSH1 0x1F DUP3 ADD AND DUP3 ADD DUP1 PUSH1 0x40 MSTORE POP DUP2 ADD SWAP1 PUSH2 0x11A9 SWAP2 SWAP1 PUSH2 0x2EBB JUMP JUMPDEST SWAP1 POP PUSH1 0x0 DUP8 PUSH1 0x9 PUSH1 0x0 SWAP1 SLOAD SWAP1 PUSH2 0x100 EXP SWAP1 DIV PUSH14 0xFFFFFFFFFFFFFFFFFFFFFFFFFFFF AND PUSH14 0xFFFFFFFFFFFFFFFFFFFFFFFFFFFF AND PUSH2 0x11E5 SWAP2 SWAP1 PUSH2 0x2D74 JUMP JUMPDEST DUP4 GT PUSH2 0x11F2 JUMPI PUSH1 0x0 PUSH2 0x1236 JUMP JUMPDEST DUP8 PUSH1 0x9 PUSH1 0x0 SWAP1 SLOAD SWAP1 PUSH2 0x100 EXP SWAP1 DIV PUSH14 0xFFFFFFFFFFFFFFFFFFFFFFFFFFFF AND PUSH14 0xFFFFFFFFFFFFFFFFFFFFFFFFFFFF AND PUSH2 0x122A SWAP2 SWAP1 PUSH2 0x2D74 JUMP JUMPDEST DUP4 PUSH2 0x1235 SWAP2 SWAP1 PUSH2 0x2D74 JUMP JUMPDEST JUMPDEST SWAP1 POP PUSH1 0x0 DUP8 PUSH1 0x9 PUSH1 0xE SWAP1 SLOAD SWAP1 PUSH2 0x100 EXP SWAP1 DIV PUSH14 0xFFFFFFFFFFFFFFFFFFFFFFFFFFFF AND PUSH14 0xFFFFFFFFFFFFFFFFFFFFFFFFFFFF AND PUSH2 0x1272 SWAP2 SWAP1 PUSH2 0x2D74 JUMP JUMPDEST DUP4 GT PUSH2 0x127F JUMPI PUSH1 0x0 PUSH2 0x12C3 JUMP JUMPDEST DUP8 PUSH1 0x9 PUSH1 0xE SWAP1 SLOAD SWAP1 PUSH2 0x100 EXP SWAP1 DIV PUSH14 0xFFFFFFFFFFFFFFFFFFFFFFFFFFFF AND PUSH14 0xFFFFFFFFFFFFFFFFFFFFFFFFFFFF AND PUSH2 0x12B7 SWAP2 SWAP1 PUSH2 0x2D74 JUMP JUMPDEST DUP4 PUSH2 0x12C2 SWAP2 SWAP1 PUSH2 0x2D74 JUMP JUMPDEST JUMPDEST SWAP1 POP PUSH1 0x0 DUP3 GT DUP1 PUSH2 0x12D4 JUMPI POP PUSH1 0x0 DUP2 GT JUMPDEST PUSH2 0x1313 JUMPI PUSH1 0x40 MLOAD PUSH32 0x8C379A000000000000000000000000000000000000000000000000000000000 DUP2 MSTORE PUSH1 0x4 ADD PUSH2 0x130A SWAP1 PUSH2 0x31A4 JUMP JUMPDEST PUSH1 0x40 MLOAD DUP1 SWAP2 SUB SWAP1 REVERT JUMPDEST PUSH1 0x0 PUSH1 0x3 DUP4 PUSH2 0x1322 SWAP2 SWAP1 PUSH2 0x2EE8 JUMP JUMPDEST PUSH2 0x3E8 DUP7 PUSH2 0x1330 SWAP2 SWAP1 PUSH2 0x2EE8 JUMP JUMPDEST PUSH2 0x133A SWAP2 SWAP1 PUSH2 0x2D74 JUMP JUMPDEST SWAP1 POP PUSH1 0x0 PUSH1 0x3 DUP4 PUSH2 0x134B SWAP2 SWAP1 PUSH2 0x2EE8 JUMP JUMPDEST PUSH2 0x3E8 DUP7 PUSH2 0x1359 SWAP2 SWAP1 PUSH2 0x2EE8 JUMP JUMPDEST PUSH2 0x1363 SWAP2 SWAP1 PUSH2 0x2D74 JUMP JUMPDEST SWAP1 POP PUSH3 0xF4240 DUP8 PUSH14 0xFFFFFFFFFFFFFFFFFFFFFFFFFFFF AND DUP10 PUSH14 0xFFFFFFFFFFFFFFFFFFFFFFFFFFFF AND PUSH2 0x1395 SWAP2 SWAP1 PUSH2 0x2EE8 JUMP JUMPDEST PUSH2 0x139F SWAP2 SWAP1 PUSH2 0x2EE8 JUMP JUMPDEST DUP2 DUP4 PUSH2 0x13AB SWAP2 SWAP1 PUSH2 0x2EE8 JUMP JUMPDEST LT ISZERO PUSH2 0x13EC JUMPI PUSH1 0x40 MLOAD PUSH32 0x8C379A000000000000000000000000000000000000000000000000000000000 DUP2 MSTORE PUSH1 0x4 ADD PUSH2 0x13E3 SWAP1 PUSH2 0x3210 JUMP JUMPDEST PUSH1 0x40 MLOAD DUP1 SWAP2 SUB SWAP1 REVERT JUMPDEST PUSH2 0x13F8 DUP7 DUP7 DUP11 DUP11 PUSH2 0x2244 JUMP JUMPDEST DUP9 PUSH20 0xFFFFFFFFFFFFFFFFFFFFFFFFFFFFFFFFFFFFFFFF AND CALLER PUSH20 0xFFFFFFFFFFFFFFFFFFFFFFFFFFFFFFFFFFFFFFFF AND PUSH32 0x2A9237FF5AA599EF4C5EE4B1142B53429D5755E2685FE6288B2E3320202115F5 DUP14 DUP14 PUSH1 0x40 MLOAD PUSH2 0x1457 SWAP3 SWAP2 SWAP1 PUSH2 0x2BC2 JUMP JUMPDEST PUSH1 0x40 MLOAD DUP1 SWAP2 SUB SWAP1 LOG3 POP POP POP POP POP POP POP POP PUSH1 0x0 PUSH1 0xC PUSH1 0x0 PUSH2 0x100 EXP DUP2 SLOAD DUP2 PUSH1 0xFF MUL NOT AND SWAP1 DUP4 ISZERO ISZERO MUL OR SWAP1 SSTORE POP POP POP POP JUMP JUMPDEST PUSH1 0x3 PUSH1 0x20 MSTORE DUP1 PUSH1 0x0 MSTORE PUSH1 0x40 PUSH1 0x0 KECCAK256 PUSH1 0x0 SWAP2 POP SWAP1 POP SLOAD DUP2 JUMP JUMPDEST PUSH1 0x5 PUSH1 0x20 MSTORE DUP1 PUSH1 0x0 MSTORE PUSH1 0x40 PUSH1 0x0 KECCAK256 PUSH1 0x0 SWAP2 POP SWAP1 POP SLOAD DUP2 JUMP JUMPDEST PUSH1 0x0 DUP1 PUSH1 0xC PUSH1 0x0 SWAP1 SLOAD SWAP1 PUSH2 0x100 EXP SWAP1 DIV PUSH1 0xFF AND ISZERO PUSH2 0x150A JUMPI PUSH1 0x40 MLOAD PUSH32 0x8C379A000000000000000000000000000000000000000000000000000000000 DUP2 MSTORE PUSH1 0x4 ADD PUSH2 0x1501 SWAP1 PUSH2 0x2E86 JUMP JUMPDEST PUSH1 0x40 MLOAD DUP1 SWAP2 SUB SWAP1 REVERT JUMPDEST PUSH1 0x1 PUSH1 0xC PUSH1 0x0 PUSH2 0x100 EXP DUP2 SLOAD DUP2 PUSH1 0xFF MUL NOT AND SWAP1 DUP4 ISZERO ISZERO MUL OR SWAP1 SSTORE POP PUSH1 0x0 PUSH1 0x7 PUSH1 0x0 SWAP1 SLOAD SWAP1 PUSH2 0x100 EXP SWAP1 DIV PUSH20 0xFFFFFFFFFFFFFFFFFFFFFFFFFFFFFFFFFFFFFFFF AND PUSH20 0xFFFFFFFFFFFFFFFFFFFFFFFFFFFFFFFFFFFFFFFF AND PUSH4 0x70A08231 ADDRESS PUSH1 0x40 MLOAD DUP3 PUSH4 0xFFFFFFFF AND PUSH1 0xE0 SHL DUP2 MSTORE PUSH1 0x4 ADD PUSH2 0x1582 SWAP2 SWAP1 PUSH2 0x29FF JUMP JUMPDEST PUSH1 0x20 PUSH1 0x40 MLOAD DUP1 DUP4 SUB DUP2 PUSH1 0x0 DUP8 GAS CALL ISZERO DUP1 ISZERO PUSH2 0x15A1 JUMPI RETURNDATASIZE PUSH1 0x0 DUP1 RETURNDATACOPY RETURNDATASIZE PUSH1 0x0 REVERT JUMPDEST POP POP POP POP PUSH1 0x40 MLOAD RETURNDATASIZE PUSH1 0x1F NOT PUSH1 0x1F DUP3 ADD AND DUP3 ADD DUP1 PUSH1 0x40 MSTORE POP DUP2 ADD SWAP1 PUSH2 0x15C5 SWAP2 SWAP1 PUSH2 0x2EBB JUMP JUMPDEST SWAP1 POP PUSH1 0x0 PUSH1 0x8 PUSH1 0x0 SWAP1 SLOAD SWAP1 PUSH2 0x100 EXP SWAP1 DIV PUSH20 0xFFFFFFFFFFFFFFFFFFFFFFFFFFFFFFFFFFFFFFFF AND PUSH20 0xFFFFFFFFFFFFFFFFFFFFFFFFFFFFFFFFFFFFFFFF AND PUSH4 0x70A08231 ADDRESS PUSH1 0x40 MLOAD DUP3 PUSH4 0xFFFFFFFF AND PUSH1 0xE0 SHL DUP2 MSTORE PUSH1 0x4 ADD PUSH2 0x1624 SWAP2 SWAP1 PUSH2 0x29FF JUMP JUMPDEST PUSH1 0x20 PUSH1 0x40 MLOAD DUP1 DUP4 SUB DUP2 PUSH1 0x0 DUP8 GAS CALL ISZERO DUP1 ISZERO PUSH2 0x1643 JUMPI RETURNDATASIZE PUSH1 0x0 DUP1 RETURNDATACOPY RETURNDATASIZE PUSH1 0x0 REVERT JUMPDEST POP POP POP POP PUSH1 0x40 MLOAD RETURNDATASIZE PUSH1 0x1F NOT PUSH1 0x1F DUP3 ADD AND DUP3 ADD DUP1 PUSH1 0x40 MSTORE POP DUP2 ADD SWAP1 PUSH2 0x1667 SWAP2 SWAP1 PUSH2 0x2EBB JUMP JUMPDEST SWAP1 POP PUSH1 0x0 PUSH1 0x3 PUSH1 0x0 ADDRESS PUSH20 0xFFFFFFFFFFFFFFFFFFFFFFFFFFFFFFFFFFFFFFFF AND PUSH20 0xFFFFFFFFFFFFFFFFFFFFFFFFFFFFFFFFFFFFFFFF AND DUP2 MSTORE PUSH1 0x20 ADD SWAP1 DUP2 MSTORE PUSH1 0x20 ADD PUSH1 0x0 KECCAK256 SLOAD SWAP1 POP PUSH1 0x2 SLOAD DUP4 DUP3 PUSH2 0x16BC SWAP2 SWAP1 PUSH2 0x2EE8 JUMP JUMPDEST PUSH2 0x16C6 SWAP2 SWAP1 PUSH2 0x2F71 JUMP JUMPDEST SWAP5 POP PUSH1 0x2 SLOAD DUP3 DUP3 PUSH2 0x16D7 SWAP2 SWAP1 PUSH2 0x2EE8 JUMP JUMPDEST PUSH2 0x16E1 SWAP2 SWAP1 PUSH2 0x2F71 JUMP JUMPDEST SWAP4 POP PUSH1 0x0 DUP6 GT DUP1 ISZERO PUSH2 0x16F3 JUMPI POP PUSH1 0x0 DUP5 GT JUMPDEST PUSH2 0x1732 JUMPI PUSH1 0x40 MLOAD PUSH32 0x8C379A000000000000000000000000000000000000000000000000000000000 DUP2 MSTORE PUSH1 0x4 ADD PUSH2 0x1729 SWAP1 PUSH2 0x32A2 JUMP JUMPDEST PUSH1 0x40 MLOAD DUP1 SWAP2 SUB SWAP1 REVERT JUMPDEST PUSH2 0x173C ADDRESS DUP3 PUSH2 0x267D JUMP JUMPDEST PUSH2 0x1769 PUSH1 0x7 PUSH1 0x0 SWAP1 SLOAD SWAP1 PUSH2 0x100 EXP SWAP1 DIV PUSH20 0xFFFFFFFFFFFFFFFFFFFFFFFFFFFFFFFFFFFFFFFF AND DUP8 DUP8 PUSH2 0x24F3 JUMP JUMPDEST PUSH2 0x1796 PUSH1 0x8 PUSH1 0x0 SWAP1 SLOAD SWAP1 PUSH2 0x100 EXP SWAP1 DIV PUSH20 0xFFFFFFFFFFFFFFFFFFFFFFFFFFFFFFFFFFFFFFFF AND DUP8 DUP7 PUSH2 0x24F3 JUMP JUMPDEST PUSH1 0x7 PUSH1 0x0 SWAP1 SLOAD SWAP1 PUSH2 0x100 EXP SWAP1 DIV PUSH20 0xFFFFFFFFFFFFFFFFFFFFFFFFFFFFFFFFFFFFFFFF AND PUSH20 0xFFFFFFFFFFFFFFFFFFFFFFFFFFFFFFFFFFFFFFFF AND PUSH4 0x70A08231 ADDRESS PUSH1 0x40 MLOAD DUP3 PUSH4 0xFFFFFFFF AND PUSH1 0xE0 SHL DUP2 MSTORE PUSH1 0x4 ADD PUSH2 0x17F1 SWAP2 SWAP1 PUSH2 0x29FF JUMP JUMPDEST PUSH1 0x20 PUSH1 0x40 MLOAD DUP1 DUP4 SUB DUP2 PUSH1 0x0 DUP8 GAS CALL ISZERO DUP1 ISZERO PUSH2 0x1810 JUMPI RETURNDATASIZE PUSH1 0x0 DUP1 RETURNDATACOPY RETURNDATASIZE PUSH1 0x0 REVERT JUMPDEST POP POP POP POP PUSH1 0x40 MLOAD RETURNDATASIZE PUSH1 0x1F NOT PUSH1 0x1F DUP3 ADD AND DUP3 ADD DUP1 PUSH1 0x40 MSTORE POP DUP2 ADD SWAP1 PUSH2 0x1834 SWAP2 SWAP1 PUSH2 0x2EBB JUMP JUMPDEST SWAP3 POP PUSH1 0x8 PUSH1 0x0 SWAP1 SLOAD SWAP1 PUSH2 0x100 EXP SWAP1 DIV PUSH20 0xFFFFFFFFFFFFFFFFFFFFFFFFFFFFFFFFFFFFFFFF AND PUSH20 0xFFFFFFFFFFFFFFFFFFFFFFFFFFFFFFFFFFFFFFFF AND PUSH4 0x70A08231 ADDRESS PUSH1 0x40 MLOAD DUP3 PUSH4 0xFFFFFFFF AND PUSH1 0xE0 SHL DUP2 MSTORE PUSH1 0x4 ADD PUSH2 0x1891 SWAP2 SWAP1 PUSH2 0x29FF JUMP JUMPDEST PUSH1 0x20 PUSH1 0x40 MLOAD DUP1 DUP4 SUB DUP2 PUSH1 0x0 DUP8 GAS CALL ISZERO DUP1 ISZERO PUSH2 0x18B0 JUMPI RETURNDATASIZE PUSH1 0x0 DUP1 RETURNDATACOPY RETURNDATASIZE PUSH1 0x0 REVERT JUMPDEST POP POP POP POP PUSH1 0x40 MLOAD RETURNDATASIZE PUSH1 0x1F NOT PUSH1 0x1F DUP3 ADD AND DUP3 ADD DUP1 PUSH1 0x40 MSTORE POP DUP2 ADD SWAP1 PUSH2 0x18D4 SWAP2 SWAP1 PUSH2 0x2EBB JUMP JUMPDEST SWAP2 POP PUSH1 0x0 DUP1 PUSH2 0x18E1 PUSH2 0x50B JUMP JUMPDEST POP SWAP2 POP SWAP2 POP PUSH2 0x18F2 DUP6 DUP6 DUP5 DUP5 PUSH2 0x2244 JUMP JUMPDEST CALLER PUSH20 0xFFFFFFFFFFFFFFFFFFFFFFFFFFFFFFFFFFFFFFFF AND PUSH32 0xDCCD412F0B1252819CB1FD330B93224CA42612892BB3F4F789976E6D81936496 DUP9 DUP9 DUP12 PUSH1 0x40 MLOAD PUSH2 0x193C SWAP4 SWAP3 SWAP2 SWAP1 PUSH2 0x32C2 JUMP JUMPDEST PUSH1 0x40 MLOAD DUP1 SWAP2 SUB SWAP1 LOG2 POP POP POP POP POP PUSH1 0x0 PUSH1 0xC PUSH1 0x0 PUSH2 0x100 EXP DUP2 SLOAD DUP2 PUSH1 0xFF MUL NOT AND SWAP1 DUP4 ISZERO ISZERO MUL OR SWAP1 SSTORE POP SWAP2 POP SWAP2 JUMP JUMPDEST PUSH1 0x1 DUP1 SLOAD PUSH2 0x1976 SWAP1 PUSH2 0x2D14 JUMP JUMPDEST DUP1 PUSH1 0x1F ADD PUSH1 0x20 DUP1 SWAP2 DIV MUL PUSH1 0x20 ADD PUSH1 0x40 MLOAD SWAP1 DUP2 ADD PUSH1 0x40 MSTORE DUP1 SWAP3 SWAP2 SWAP1 DUP2 DUP2 MSTORE PUSH1 0x20 ADD DUP3 DUP1 SLOAD PUSH2 0x19A2 SWAP1 PUSH2 0x2D14 JUMP JUMPDEST DUP1 ISZERO PUSH2 0x19EF JUMPI DUP1 PUSH1 0x1F LT PUSH2 0x19C4 JUMPI PUSH2 0x100 DUP1 DUP4 SLOAD DIV MUL DUP4 MSTORE SWAP2 PUSH1 0x20 ADD SWAP2 PUSH2 0x19EF JUMP JUMPDEST DUP3 ADD SWAP2 SWAP1 PUSH1 0x0 MSTORE PUSH1 0x20 PUSH1 0x0 KECCAK256 SWAP1 JUMPDEST DUP2 SLOAD DUP2 MSTORE SWAP1 PUSH1 0x1 ADD SWAP1 PUSH1 0x20 ADD DUP1 DUP4 GT PUSH2 0x19D2 JUMPI DUP3 SWAP1 SUB PUSH1 0x1F AND DUP3 ADD SWAP2 JUMPDEST POP POP POP POP POP DUP2 JUMP JUMPDEST PUSH1 0x0 DUP2 PUSH1 0x3 PUSH1 0x0 CALLER PUSH20 0xFFFFFFFFFFFFFFFFFFFFFFFFFFFFFFFFFFFFFFFF AND PUSH20 0xFFFFFFFFFFFFFFFFFFFFFFFFFFFFFFFFFFFFFFFF AND DUP2 MSTORE PUSH1 0x20 ADD SWAP1 DUP2 MSTORE PUSH1 0x20 ADD PUSH1 0x0 KECCAK256 PUSH1 0x0 DUP3 DUP3 SLOAD PUSH2 0x1A48 SWAP2 SWAP1 PUSH2 0x2D74 JUMP JUMPDEST SWAP3 POP POP DUP2 SWAP1 SSTORE POP DUP2 PUSH1 0x3 PUSH1 0x0 DUP6 PUSH20 0xFFFFFFFFFFFFFFFFFFFFFFFFFFFFFFFFFFFFFFFF AND PUSH20 0xFFFFFFFFFFFFFFFFFFFFFFFFFFFFFFFFFFFFFFFF AND DUP2 MSTORE PUSH1 0x20 ADD SWAP1 DUP2 MSTORE PUSH1 0x20 ADD PUSH1 0x0 KECCAK256 PUSH1 0x0 DUP3 DUP3 SLOAD ADD SWAP3 POP POP DUP2 SWAP1 SSTORE POP DUP3 PUSH20 0xFFFFFFFFFFFFFFFFFFFFFFFFFFFFFFFFFFFFFFFF AND CALLER PUSH20 0xFFFFFFFFFFFFFFFFFFFFFFFFFFFFFFFFFFFFFFFF AND PUSH32 0xDDF252AD1BE2C89B69C2B068FC378DAA952BA7F163C4A11628F55A4DF523B3EF DUP5 PUSH1 0x40 MLOAD PUSH2 0x1AF9 SWAP2 SWAP1 PUSH2 0x2A29 JUMP JUMPDEST PUSH1 0x40 MLOAD DUP1 SWAP2 SUB SWAP1 LOG3 PUSH1 0x1 SWAP1 POP SWAP3 SWAP2 POP POP JUMP JUMPDEST PUSH1 0x6 PUSH1 0x0 SWAP1 SLOAD SWAP1 PUSH2 0x100 EXP SWAP1 DIV PUSH20 0xFFFFFFFFFFFFFFFFFFFFFFFFFFFFFFFFFFFFFFFF AND DUP2 JUMP JUMPDEST PUSH1 0x8 PUSH1 0x0 SWAP1 SLOAD SWAP1 PUSH2 0x100 EXP SWAP1 DIV PUSH20 0xFFFFFFFFFFFFFFFFFFFFFFFFFFFFFFFFFFFFFFFF AND DUP2 JUMP JUMPDEST TIMESTAMP DUP5 LT ISZERO PUSH2 0x1B9A JUMPI PUSH1 0x40 MLOAD PUSH32 0x8C379A000000000000000000000000000000000000000000000000000000000 DUP2 MSTORE PUSH1 0x4 ADD PUSH2 0x1B91 SWAP1 PUSH2 0x3345 JUMP JUMPDEST PUSH1 0x40 MLOAD DUP1 SWAP2 SUB SWAP1 REVERT JUMPDEST PUSH1 0x0 PUSH1 0x1 PUSH2 0x1BA6 PUSH2 0x8F4 JUMP JUMPDEST PUSH32 0x6E71EDAE12B1B97F4D1F60370FEF10105FA2FAAE0126114A169C64845D6126C9 DUP11 DUP11 DUP11 PUSH1 0x5 PUSH1 0x0 DUP16 PUSH20 0xFFFFFFFFFFFFFFFFFFFFFFFFFFFFFFFFFFFFFFFF AND PUSH20 0xFFFFFFFFFFFFFFFFFFFFFFFFFFFFFFFFFFFFFFFF AND DUP2 MSTORE PUSH1 0x20 ADD SWAP1 DUP2 MSTORE PUSH1 0x20 ADD PUSH1 0x0 KECCAK256 PUSH1 0x0 DUP2 SLOAD DUP1 SWAP3 SWAP2 SWAP1 PUSH1 0x1 ADD SWAP2 SWAP1 POP SSTORE DUP12 PUSH1 0x40 MLOAD PUSH1 0x20 ADD PUSH2 0x1C2E SWAP7 SWAP6 SWAP5 SWAP4 SWAP3 SWAP2 SWAP1 PUSH2 0x3365 JUMP JUMPDEST PUSH1 0x40 MLOAD PUSH1 0x20 DUP2 DUP4 SUB SUB DUP2 MSTORE SWAP1 PUSH1 0x40 MSTORE DUP1 MLOAD SWAP1 PUSH1 0x20 ADD KECCAK256 PUSH1 0x40 MLOAD PUSH1 0x20 ADD PUSH2 0x1C55 SWAP3 SWAP2 SWAP1 PUSH2 0x343E JUMP JUMPDEST PUSH1 0x40 MLOAD PUSH1 0x20 DUP2 DUP4 SUB SUB DUP2 MSTORE SWAP1 PUSH1 0x40 MSTORE DUP1 MLOAD SWAP1 PUSH1 0x20 ADD KECCAK256 DUP6 DUP6 DUP6 PUSH1 0x40 MLOAD PUSH1 0x0 DUP2 MSTORE PUSH1 0x20 ADD PUSH1 0x40 MSTORE PUSH1 0x40 MLOAD PUSH2 0x1C8B SWAP5 SWAP4 SWAP3 SWAP2 SWAP1 PUSH2 0x3475 JUMP JUMPDEST PUSH1 0x20 PUSH1 0x40 MLOAD PUSH1 0x20 DUP2 SUB SWAP1 DUP1 DUP5 SUB SWAP1 DUP6 GAS STATICCALL ISZERO DUP1 ISZERO PUSH2 0x1CAD JUMPI RETURNDATASIZE PUSH1 0x0 DUP1 RETURNDATACOPY RETURNDATASIZE PUSH1 0x0 REVERT JUMPDEST POP POP POP PUSH1 0x20 PUSH1 0x40 MLOAD SUB MLOAD SWAP1 POP PUSH1 0x0 PUSH20 0xFFFFFFFFFFFFFFFFFFFFFFFFFFFFFFFFFFFFFFFF AND DUP2 PUSH20 0xFFFFFFFFFFFFFFFFFFFFFFFFFFFFFFFFFFFFFFFF AND EQ ISZERO DUP1 ISZERO PUSH2 0x1D21 JUMPI POP DUP8 PUSH20 0xFFFFFFFFFFFFFFFFFFFFFFFFFFFFFFFFFFFFFFFF AND DUP2 PUSH20 0xFFFFFFFFFFFFFFFFFFFFFFFFFFFFFFFFFFFFFFFF AND EQ JUMPDEST PUSH2 0x1D60 JUMPI PUSH1 0x40 MLOAD PUSH32 0x8C379A000000000000000000000000000000000000000000000000000000000 DUP2 MSTORE PUSH1 0x4 ADD PUSH2 0x1D57 SWAP1 PUSH2 0x3506 JUMP JUMPDEST PUSH1 0x40 MLOAD DUP1 SWAP2 SUB SWAP1 REVERT JUMPDEST DUP6 PUSH1 0x4 PUSH1 0x0 DUP4 PUSH20 0xFFFFFFFFFFFFFFFFFFFFFFFFFFFFFFFFFFFFFFFF AND PUSH20 0xFFFFFFFFFFFFFFFFFFFFFFFFFFFFFFFFFFFFFFFF AND DUP2 MSTORE PUSH1 0x20 ADD SWAP1 DUP2 MSTORE PUSH1 0x20 ADD PUSH1 0x0 KECCAK256 PUSH1 0x0 DUP10 PUSH20 0xFFFFFFFFFFFFFFFFFFFFFFFFFFFFFFFFFFFFFFFF AND PUSH20 0xFFFFFFFFFFFFFFFFFFFFFFFFFFFFFFFFFFFFFFFF AND DUP2 MSTORE PUSH1 0x20 ADD SWAP1 DUP2 MSTORE PUSH1 0x20 ADD PUSH1 0x0 KECCAK256 DUP2 SWAP1 SSTORE POP POP DUP6 PUSH20 0xFFFFFFFFFFFFFFFFFFFFFFFFFFFFFFFFFFFFFFFF AND DUP8 PUSH20 0xFFFFFFFFFFFFFFFFFFFFFFFFFFFFFFFFFFFFFFFF AND PUSH32 0x8C5BE1E5EBEC7D5BD14F71427D1E84F3DD0314C0F7B2291E5B200AC8C7C3B925 DUP8 PUSH1 0x40 MLOAD PUSH2 0x1E3F SWAP2 SWAP1 PUSH2 0x2A29 JUMP JUMPDEST PUSH1 0x40 MLOAD DUP1 SWAP2 SUB SWAP1 LOG3 POP POP POP POP POP POP POP JUMP JUMPDEST PUSH1 0x4 PUSH1 0x20 MSTORE DUP2 PUSH1 0x0 MSTORE PUSH1 0x40 PUSH1 0x0 KECCAK256 PUSH1 0x20 MSTORE DUP1 PUSH1 0x0 MSTORE PUSH1 0x40 PUSH1 0x0 KECCAK256 PUSH1 0x0 SWAP2 POP SWAP2 POP POP SLOAD DUP2 JUMP JUMPDEST PUSH1 0xC PUSH1 0x0 SWAP1 SLOAD SWAP1 PUSH2 0x100 EXP SWAP1 DIV PUSH1 0xFF AND ISZERO PUSH2 0x1EC5 JUMPI PUSH1 0x40 MLOAD PUSH32 0x8C379A000000000000000000000000000000000000000000000000000000000 DUP2 MSTORE PUSH1 0x4 ADD PUSH2 0x1EBC SWAP1 PUSH2 0x2E86 JUMP JUMPDEST PUSH1 0x40 MLOAD DUP1 SWAP2 SUB SWAP1 REVERT JUMPDEST PUSH1 0x1 PUSH1 0xC PUSH1 0x0 PUSH2 0x100 EXP DUP2 SLOAD DUP2 PUSH1 0xFF MUL NOT AND SWAP1 DUP4 ISZERO ISZERO MUL OR SWAP1 SSTORE POP PUSH1 0x0 DUP1 PUSH2 0x1EEB PUSH2 0x50B JUMP JUMPDEST POP SWAP2 POP SWAP2 POP PUSH2 0x2036 PUSH1 0x7 PUSH1 0x0 SWAP1 SLOAD SWAP1 PUSH2 0x100 EXP SWAP1 DIV PUSH20 0xFFFFFFFFFFFFFFFFFFFFFFFFFFFFFFFFFFFFFFFF AND PUSH20 0xFFFFFFFFFFFFFFFFFFFFFFFFFFFFFFFFFFFFFFFF AND PUSH4 0x70A08231 ADDRESS PUSH1 0x40 MLOAD DUP3 PUSH4 0xFFFFFFFF AND PUSH1 0xE0 SHL DUP2 MSTORE PUSH1 0x4 ADD PUSH2 0x1F4E SWAP2 SWAP1 PUSH2 0x29FF JUMP JUMPDEST PUSH1 0x20 PUSH1 0x40 MLOAD DUP1 DUP4 SUB DUP2 PUSH1 0x0 DUP8 GAS CALL ISZERO DUP1 ISZERO PUSH2 0x1F6D JUMPI RETURNDATASIZE PUSH1 0x0 DUP1 RETURNDATACOPY RETURNDATASIZE PUSH1 0x0 REVERT JUMPDEST POP POP POP POP PUSH1 0x40 MLOAD RETURNDATASIZE PUSH1 0x1F NOT PUSH1 0x1F DUP3 ADD AND DUP3 ADD DUP1 PUSH1 0x40 MSTORE POP DUP2 ADD SWAP1 PUSH2 0x1F91 SWAP2 SWAP1 PUSH2 0x2EBB JUMP JUMPDEST PUSH1 0x8 PUSH1 0x0 SWAP1 SLOAD SWAP1 PUSH2 0x100 EXP SWAP1 DIV PUSH20 0xFFFFFFFFFFFFFFFFFFFFFFFFFFFFFFFFFFFFFFFF AND PUSH20 0xFFFFFFFFFFFFFFFFFFFFFFFFFFFFFFFFFFFFFFFF AND PUSH4 0x70A08231 ADDRESS PUSH1 0x40 MLOAD DUP3 PUSH4 0xFFFFFFFF AND PUSH1 0xE0 SHL DUP2 MSTORE PUSH1 0x4 ADD PUSH2 0x1FEC SWAP2 SWAP1 PUSH2 0x29FF JUMP JUMPDEST PUSH1 0x20 PUSH1 0x40 MLOAD DUP1 DUP4 SUB DUP2 PUSH1 0x0 DUP8 GAS CALL ISZERO DUP1 ISZERO PUSH2 0x200B JUMPI RETURNDATASIZE PUSH1 0x0 DUP1 RETURNDATACOPY RETURNDATASIZE PUSH1 0x0 REVERT JUMPDEST POP POP POP POP PUSH1 0x40 MLOAD RETURNDATASIZE PUSH1 0x1F NOT PUSH1 0x1F DUP3 ADD AND DUP3 ADD DUP1 PUSH1 0x40 MSTORE POP DUP2 ADD SWAP1 PUSH2 0x202F SWAP2 SWAP1 PUSH2 0x2EBB JUMP JUMPDEST DUP5 DUP5 PUSH2 0x2244 JUMP JUMPDEST POP POP PUSH1 0x0 PUSH1 0xC PUSH1 0x0 PUSH2 0x100 EXP DUP2 SLOAD DUP2 PUSH1 0xFF MUL NOT AND SWAP1 DUP4 ISZERO ISZERO MUL OR SWAP1 SSTORE POP JUMP JUMPDEST PUSH1 0x0 PUSH32 0x8B73C3C69BB8FE3D512ECC4CF759CC79239F7B179B0FFACAA9A75D522B39400F PUSH1 0x0 PUSH1 0x40 MLOAD PUSH2 0x2087 SWAP2 SWAP1 PUSH2 0x35C9 JUMP JUMPDEST PUSH1 0x40 MLOAD DUP1 SWAP2 SUB SWAP1 KECCAK256 PUSH32 0xC89EFDAA54C0F20C7ADF612882DF0950F5A951637E0307CDCB4C672F298B8BC6 CHAINID ADDRESS PUSH1 0x40 MLOAD PUSH1 0x20 ADD PUSH2 0x20C6 SWAP6 SWAP5 SWAP4 SWAP3 SWAP2 SWAP1 PUSH2 0x35E0 JUMP JUMPDEST PUSH1 0x40 MLOAD PUSH1 0x20 DUP2 DUP4 SUB SUB DUP2 MSTORE SWAP1 PUSH1 0x40 MSTORE DUP1 MLOAD SWAP1 PUSH1 0x20 ADD KECCAK256 SWAP1 POP SWAP1 JUMP JUMPDEST PUSH1 0x0 PUSH1 0x3 DUP3 GT ISZERO PUSH2 0x2148 JUMPI DUP2 SWAP1 POP PUSH1 0x0 PUSH1 0x1 PUSH1 0x2 DUP5 PUSH2 0x2100 SWAP2 SWAP1 PUSH2 0x2F71 JUMP JUMPDEST PUSH2 0x210A SWAP2 SWAP1 PUSH2 0x3633 JUMP JUMPDEST SWAP1 POP JUMPDEST DUP2 DUP2 LT ISZERO PUSH2 0x2142 JUMPI DUP1 SWAP2 POP PUSH1 0x2 DUP2 DUP3 DUP6 PUSH2 0x2127 SWAP2 SWAP1 PUSH2 0x2F71 JUMP JUMPDEST PUSH2 0x2131 SWAP2 SWAP1 PUSH2 0x3633 JUMP JUMPDEST PUSH2 0x213B SWAP2 SWAP1 PUSH2 0x2F71 JUMP JUMPDEST SWAP1 POP PUSH2 0x210D JUMP JUMPDEST POP PUSH2 0x2156 JUMP JUMPDEST PUSH1 0x0 DUP3 EQ PUSH2 0x2155 JUMPI PUSH1 0x1 SWAP1 POP JUMPDEST JUMPDEST SWAP2 SWAP1 POP JUMP JUMPDEST DUP1 PUSH1 0x2 PUSH1 0x0 DUP3 DUP3 SLOAD PUSH2 0x216D SWAP2 SWAP1 PUSH2 0x3633 JUMP JUMPDEST SWAP3 POP POP DUP2 SWAP1 SSTORE POP DUP1 PUSH1 0x3 PUSH1 0x0 DUP5 PUSH20 0xFFFFFFFFFFFFFFFFFFFFFFFFFFFFFFFFFFFFFFFF AND PUSH20 0xFFFFFFFFFFFFFFFFFFFFFFFFFFFFFFFFFFFFFFFF AND DUP2 MSTORE PUSH1 0x20 ADD SWAP1 DUP2 MSTORE PUSH1 0x20 ADD PUSH1 0x0 KECCAK256 PUSH1 0x0 DUP3 DUP3 SLOAD ADD SWAP3 POP POP DUP2 SWAP1 SSTORE POP DUP2 PUSH20 0xFFFFFFFFFFFFFFFFFFFFFFFFFFFFFFFFFFFFFFFF AND PUSH1 0x0 PUSH20 0xFFFFFFFFFFFFFFFFFFFFFFFFFFFFFFFFFFFFFFFF AND PUSH32 0xDDF252AD1BE2C89B69C2B068FC378DAA952BA7F163C4A11628F55A4DF523B3EF DUP4 PUSH1 0x40 MLOAD PUSH2 0x221F SWAP2 SWAP1 PUSH2 0x2A29 JUMP JUMPDEST PUSH1 0x40 MLOAD DUP1 SWAP2 SUB SWAP1 LOG3 POP POP JUMP JUMPDEST PUSH1 0x0 DUP2 DUP4 LT PUSH2 0x223A JUMPI DUP2 PUSH2 0x223C JUMP JUMPDEST DUP3 JUMPDEST SWAP1 POP SWAP3 SWAP2 POP POP JUMP JUMPDEST PUSH14 0xFFFFFFFFFFFFFFFFFFFFFFFFFFFF DUP1 AND DUP5 GT ISZERO DUP1 ISZERO PUSH2 0x2274 JUMPI POP PUSH14 0xFFFFFFFFFFFFFFFFFFFFFFFFFFFF DUP1 AND DUP4 GT ISZERO JUMPDEST PUSH2 0x22B3 JUMPI PUSH1 0x40 MLOAD PUSH32 0x8C379A000000000000000000000000000000000000000000000000000000000 DUP2 MSTORE PUSH1 0x4 ADD PUSH2 0x22AA SWAP1 PUSH2 0x36D5 JUMP JUMPDEST PUSH1 0x40 MLOAD DUP1 SWAP2 SUB SWAP1 REVERT JUMPDEST PUSH1 0x0 PUSH1 0x9 PUSH1 0x1C SWAP1 SLOAD SWAP1 PUSH2 0x100 EXP SWAP1 DIV PUSH4 0xFFFFFFFF AND TIMESTAMP SUB SWAP1 POP PUSH1 0x0 DUP2 PUSH4 0xFFFFFFFF AND GT DUP1 ISZERO PUSH2 0x22F2 JUMPI POP PUSH1 0x0 DUP4 PUSH14 0xFFFFFFFFFFFFFFFFFFFFFFFFFFFF AND GT JUMPDEST DUP1 ISZERO PUSH2 0x230E JUMPI POP PUSH1 0x0 DUP3 PUSH14 0xFFFFFFFFFFFFFFFFFFFFFFFFFFFF AND GT JUMPDEST ISZERO PUSH2 0x23F0 JUMPI DUP1 PUSH4 0xFFFFFFFF AND PUSH2 0x2353 DUP5 PUSH2 0x2327 DUP6 PUSH2 0x274D JUMP JUMPDEST PUSH28 0xFFFFFFFFFFFFFFFFFFFFFFFFFFFFFFFFFFFFFFFFFFFFFFFFFFFFFFFF AND PUSH2 0x2781 SWAP1 SWAP2 SWAP1 PUSH4 0xFFFFFFFF AND JUMP JUMPDEST PUSH28 0xFFFFFFFFFFFFFFFFFFFFFFFFFFFFFFFFFFFFFFFFFFFFFFFFFFFFFFFF AND MUL PUSH1 0xA PUSH1 0x0 DUP3 DUP3 SLOAD ADD SWAP3 POP POP DUP2 SWAP1 SSTORE POP DUP1 PUSH4 0xFFFFFFFF AND PUSH2 0x23C1 DUP4 PUSH2 0x2395 DUP7 PUSH2 0x274D JUMP JUMPDEST PUSH28 0xFFFFFFFFFFFFFFFFFFFFFFFFFFFFFFFFFFFFFFFFFFFFFFFFFFFFFFFF AND PUSH2 0x2781 SWAP1 SWAP2 SWAP1 PUSH4 0xFFFFFFFF AND JUMP JUMPDEST PUSH28 0xFFFFFFFFFFFFFFFFFFFFFFFFFFFFFFFFFFFFFFFFFFFFFFFFFFFFFFFF AND MUL PUSH1 0xB PUSH1 0x0 DUP3 DUP3 SLOAD ADD SWAP3 POP POP DUP2 SWAP1 SSTORE POP JUMPDEST POP DUP4 PUSH1 0x9 PUSH1 0x0 PUSH2 0x100 EXP DUP2 SLOAD DUP2 PUSH14 0xFFFFFFFFFFFFFFFFFFFFFFFFFFFF MUL NOT AND SWAP1 DUP4 PUSH14 0xFFFFFFFFFFFFFFFFFFFFFFFFFFFF AND MUL OR SWAP1 SSTORE POP DUP3 PUSH1 0x9 PUSH1 0xE PUSH2 0x100 EXP DUP2 SLOAD DUP2 PUSH14 0xFFFFFFFFFFFFFFFFFFFFFFFFFFFF MUL NOT AND SWAP1 DUP4 PUSH14 0xFFFFFFFFFFFFFFFFFFFFFFFFFFFF AND MUL OR SWAP1 SSTORE POP TIMESTAMP PUSH1 0x9 PUSH1 0x1C PUSH2 0x100 EXP DUP2 SLOAD DUP2 PUSH4 0xFFFFFFFF MUL NOT AND SWAP1 DUP4 PUSH4 0xFFFFFFFF AND MUL OR SWAP1 SSTORE POP PUSH32 0xCF2AA50876CDFBB541206F89AF0EE78D44A2ABF8D328E37FA4917F982149848A PUSH1 0x9 PUSH1 0x0 SWAP1 SLOAD SWAP1 PUSH2 0x100 EXP SWAP1 DIV PUSH14 0xFFFFFFFFFFFFFFFFFFFFFFFFFFFF AND PUSH1 0x9 PUSH1 0xE SWAP1 SLOAD SWAP1 PUSH2 0x100 EXP SWAP1 DIV PUSH14 0xFFFFFFFFFFFFFFFFFFFFFFFFFFFF AND PUSH1 0x40 MLOAD PUSH2 0x24E5 SWAP3 SWAP2 SWAP1 PUSH2 0x3730 JUMP JUMPDEST PUSH1 0x40 MLOAD DUP1 SWAP2 SUB SWAP1 LOG1 POP POP POP POP JUMP JUMPDEST PUSH1 0x0 DUP1 DUP5 PUSH20 0xFFFFFFFFFFFFFFFFFFFFFFFFFFFFFFFFFFFFFFFF AND PUSH1 0x40 MLOAD DUP1 PUSH1 0x40 ADD PUSH1 0x40 MSTORE DUP1 PUSH1 0x19 DUP2 MSTORE PUSH1 0x20 ADD PUSH32 0x7472616E7366657228616464726573732C75696E743235362900000000000000 DUP2 MSTORE POP DUP1 MLOAD SWAP1 PUSH1 0x20 ADD KECCAK256 DUP6 DUP6 PUSH1 0x40 MLOAD PUSH1 0x24 ADD PUSH2 0x255D SWAP3 SWAP2 SWAP1 PUSH2 0x3759 JUMP JUMPDEST PUSH1 0x40 MLOAD PUSH1 0x20 DUP2 DUP4 SUB SUB DUP2 MSTORE SWAP1 PUSH1 0x40 MSTORE SWAP1 PUSH28 0xFFFFFFFFFFFFFFFFFFFFFFFFFFFFFFFFFFFFFFFFFFFFFFFFFFFFFFFF NOT AND PUSH1 0x20 DUP3 ADD DUP1 MLOAD PUSH28 0xFFFFFFFFFFFFFFFFFFFFFFFFFFFFFFFFFFFFFFFFFFFFFFFFFFFFFFFF DUP4 DUP2 DUP4 AND OR DUP4 MSTORE POP POP POP POP PUSH1 0x40 MLOAD PUSH2 0x25C7 SWAP2 SWAP1 PUSH2 0x37BE JUMP JUMPDEST PUSH1 0x0 PUSH1 0x40 MLOAD DUP1 DUP4 SUB DUP2 PUSH1 0x0 DUP7 GAS CALL SWAP2 POP POP RETURNDATASIZE DUP1 PUSH1 0x0 DUP2 EQ PUSH2 0x2604 JUMPI PUSH1 0x40 MLOAD SWAP2 POP PUSH1 0x1F NOT PUSH1 0x3F RETURNDATASIZE ADD AND DUP3 ADD PUSH1 0x40 MSTORE RETURNDATASIZE DUP3 MSTORE RETURNDATASIZE PUSH1 0x0 PUSH1 0x20 DUP5 ADD RETURNDATACOPY PUSH2 0x2609 JUMP JUMPDEST PUSH1 0x60 SWAP2 POP JUMPDEST POP SWAP2 POP SWAP2 POP DUP2 DUP1 ISZERO PUSH2 0x2637 JUMPI POP PUSH1 0x0 DUP2 MLOAD EQ DUP1 PUSH2 0x2636 JUMPI POP DUP1 DUP1 PUSH1 0x20 ADD SWAP1 MLOAD DUP2 ADD SWAP1 PUSH2 0x2635 SWAP2 SWAP1 PUSH2 0x3801 JUMP JUMPDEST JUMPDEST JUMPDEST PUSH2 0x2676 JUMPI PUSH1 0x40 MLOAD PUSH32 0x8C379A000000000000000000000000000000000000000000000000000000000 DUP2 MSTORE PUSH1 0x4 ADD PUSH2 0x266D SWAP1 PUSH2 0x387A JUMP JUMPDEST PUSH1 0x40 MLOAD DUP1 SWAP2 SUB SWAP1 REVERT JUMPDEST POP POP POP POP POP JUMP JUMPDEST DUP1 PUSH1 0x3 PUSH1 0x0 DUP5 PUSH20 0xFFFFFFFFFFFFFFFFFFFFFFFFFFFFFFFFFFFFFFFF AND PUSH20 0xFFFFFFFFFFFFFFFFFFFFFFFFFFFFFFFFFFFFFFFF AND DUP2 MSTORE PUSH1 0x20 ADD SWAP1 DUP2 MSTORE PUSH1 0x20 ADD PUSH1 0x0 KECCAK256 PUSH1 0x0 DUP3 DUP3 SLOAD PUSH2 0x26CC SWAP2 SWAP1 PUSH2 0x2D74 JUMP JUMPDEST SWAP3 POP POP DUP2 SWAP1 SSTORE POP DUP1 PUSH1 0x2 PUSH1 0x0 DUP3 DUP3 SLOAD SUB SWAP3 POP POP DUP2 SWAP1 SSTORE POP PUSH1 0x0 PUSH20 0xFFFFFFFFFFFFFFFFFFFFFFFFFFFFFFFFFFFFFFFF AND DUP3 PUSH20 0xFFFFFFFFFFFFFFFFFFFFFFFFFFFFFFFFFFFFFFFF AND PUSH32 0xDDF252AD1BE2C89B69C2B068FC378DAA952BA7F163C4A11628F55A4DF523B3EF DUP4 PUSH1 0x40 MLOAD PUSH2 0x2741 SWAP2 SWAP1 PUSH2 0x2A29 JUMP JUMPDEST PUSH1 0x40 MLOAD DUP1 SWAP2 SUB SWAP1 LOG3 POP POP JUMP JUMPDEST PUSH1 0x0 PUSH15 0x10000000000000000000000000000 DUP3 PUSH14 0xFFFFFFFFFFFFFFFFFFFFFFFFFFFF AND PUSH2 0x277A SWAP2 SWAP1 PUSH2 0x38C2 JUMP JUMPDEST SWAP1 POP SWAP2 SWAP1 POP JUMP JUMPDEST PUSH1 0x0 DUP2 PUSH14 0xFFFFFFFFFFFFFFFFFFFFFFFFFFFF AND DUP4 PUSH2 0x279F SWAP2 SWAP1 PUSH2 0x3918 JUMP JUMPDEST SWAP1 POP SWAP3 SWAP2 POP POP JUMP JUMPDEST PUSH1 0x0 DUP2 MLOAD SWAP1 POP SWAP2 SWAP1 POP JUMP JUMPDEST PUSH1 0x0 DUP3 DUP3 MSTORE PUSH1 0x20 DUP3 ADD SWAP1 POP SWAP3 SWAP2 POP POP JUMP JUMPDEST PUSH1 0x0 JUMPDEST DUP4 DUP2 LT ISZERO PUSH2 0x27E1 JUMPI DUP1 DUP3 ADD MLOAD DUP2 DUP5 ADD MSTORE PUSH1 0x20 DUP2 ADD SWAP1 POP PUSH2 0x27C6 JUMP JUMPDEST DUP4 DUP2 GT ISZERO PUSH2 0x27F0 JUMPI PUSH1 0x0 DUP5 DUP5 ADD MSTORE JUMPDEST POP POP POP POP JUMP JUMPDEST PUSH1 0x0 PUSH1 0x1F NOT PUSH1 0x1F DUP4 ADD AND SWAP1 POP SWAP2 SWAP1 POP JUMP JUMPDEST PUSH1 0x0 PUSH2 0x2812 DUP3 PUSH2 0x27A7 JUMP JUMPDEST PUSH2 0x281C DUP2 DUP6 PUSH2 0x27B2 JUMP JUMPDEST SWAP4 POP PUSH2 0x282C DUP2 DUP6 PUSH1 0x20 DUP7 ADD PUSH2 0x27C3 JUMP JUMPDEST PUSH2 0x2835 DUP2 PUSH2 0x27F6 JUMP JUMPDEST DUP5 ADD SWAP2 POP POP SWAP3 SWAP2 POP POP JUMP JUMPDEST PUSH1 0x0 PUSH1 0x20 DUP3 ADD SWAP1 POP DUP2 DUP2 SUB PUSH1 0x0 DUP4 ADD MSTORE PUSH2 0x285A DUP2 DUP5 PUSH2 0x2807 JUMP JUMPDEST SWAP1 POP SWAP3 SWAP2 POP POP JUMP JUMPDEST PUSH1 0x0 PUSH14 0xFFFFFFFFFFFFFFFFFFFFFFFFFFFF DUP3 AND SWAP1 POP SWAP2 SWAP1 POP JUMP JUMPDEST PUSH2 0x2885 DUP2 PUSH2 0x2862 JUMP JUMPDEST DUP3 MSTORE POP POP JUMP JUMPDEST PUSH1 0x0 PUSH4 0xFFFFFFFF DUP3 AND SWAP1 POP SWAP2 SWAP1 POP JUMP JUMPDEST PUSH2 0x28A4 DUP2 PUSH2 0x288B JUMP JUMPDEST DUP3 MSTORE POP POP JUMP JUMPDEST PUSH1 0x0 PUSH1 0x60 DUP3 ADD SWAP1 POP PUSH2 0x28BF PUSH1 0x0 DUP4 ADD DUP7 PUSH2 0x287C JUMP JUMPDEST PUSH2 0x28CC PUSH1 0x20 DUP4 ADD DUP6 PUSH2 0x287C JUMP JUMPDEST PUSH2 0x28D9 PUSH1 0x40 DUP4 ADD DUP5 PUSH2 0x289B JUMP JUMPDEST SWAP5 SWAP4 POP POP POP POP JUMP JUMPDEST PUSH1 0x0 DUP1 REVERT JUMPDEST PUSH1 0x0 PUSH20 0xFFFFFFFFFFFFFFFFFFFFFFFFFFFFFFFFFFFFFFFF DUP3 AND SWAP1 POP SWAP2 SWAP1 POP JUMP JUMPDEST PUSH1 0x0 PUSH2 0x2911 DUP3 PUSH2 0x28E6 JUMP JUMPDEST SWAP1 POP SWAP2 SWAP1 POP JUMP JUMPDEST PUSH2 0x2921 DUP2 PUSH2 0x2906 JUMP JUMPDEST DUP2 EQ PUSH2 0x292C JUMPI PUSH1 0x0 DUP1 REVERT JUMPDEST POP JUMP JUMPDEST PUSH1 0x0 DUP2 CALLDATALOAD SWAP1 POP PUSH2 0x293E DUP2 PUSH2 0x2918 JUMP JUMPDEST SWAP3 SWAP2 POP POP JUMP JUMPDEST PUSH1 0x0 DUP2 SWAP1 POP SWAP2 SWAP1 POP JUMP JUMPDEST PUSH2 0x2957 DUP2 PUSH2 0x2944 JUMP JUMPDEST DUP2 EQ PUSH2 0x2962 JUMPI PUSH1 0x0 DUP1 REVERT JUMPDEST POP JUMP JUMPDEST PUSH1 0x0 DUP2 CALLDATALOAD SWAP1 POP PUSH2 0x2974 DUP2 PUSH2 0x294E JUMP JUMPDEST SWAP3 SWAP2 POP POP JUMP JUMPDEST PUSH1 0x0 DUP1 PUSH1 0x40 DUP4 DUP6 SUB SLT ISZERO PUSH2 0x2991 JUMPI PUSH2 0x2990 PUSH2 0x28E1 JUMP JUMPDEST JUMPDEST PUSH1 0x0 PUSH2 0x299F DUP6 DUP3 DUP7 ADD PUSH2 0x292F JUMP JUMPDEST SWAP3 POP POP PUSH1 0x20 PUSH2 0x29B0 DUP6 DUP3 DUP7 ADD PUSH2 0x2965 JUMP JUMPDEST SWAP2 POP POP SWAP3 POP SWAP3 SWAP1 POP JUMP JUMPDEST PUSH1 0x0 DUP2 ISZERO ISZERO SWAP1 POP SWAP2 SWAP1 POP JUMP JUMPDEST PUSH2 0x29CF DUP2 PUSH2 0x29BA JUMP JUMPDEST DUP3 MSTORE POP POP JUMP JUMPDEST PUSH1 0x0 PUSH1 0x20 DUP3 ADD SWAP1 POP PUSH2 0x29EA PUSH1 0x0 DUP4 ADD DUP5 PUSH2 0x29C6 JUMP JUMPDEST SWAP3 SWAP2 POP POP JUMP JUMPDEST PUSH2 0x29F9 DUP2 PUSH2 0x2906 JUMP JUMPDEST DUP3 MSTORE POP POP JUMP JUMPDEST PUSH1 0x0 PUSH1 0x20 DUP3 ADD SWAP1 POP PUSH2 0x2A14 PUSH1 0x0 DUP4 ADD DUP5 PUSH2 0x29F0 JUMP JUMPDEST SWAP3 SWAP2 POP POP JUMP JUMPDEST PUSH2 0x2A23 DUP2 PUSH2 0x2944 JUMP JUMPDEST DUP3 MSTORE POP POP JUMP JUMPDEST PUSH1 0x0 PUSH1 0x20 DUP3 ADD SWAP1 POP PUSH2 0x2A3E PUSH1 0x0 DUP4 ADD DUP5 PUSH2 0x2A1A JUMP JUMPDEST SWAP3 SWAP2 POP POP JUMP JUMPDEST PUSH1 0x0 DUP1 PUSH1 0x0 PUSH1 0x60 DUP5 DUP7 SUB SLT ISZERO PUSH2 0x2A5D JUMPI PUSH2 0x2A5C PUSH2 0x28E1 JUMP JUMPDEST JUMPDEST PUSH1 0x0 PUSH2 0x2A6B DUP7 DUP3 DUP8 ADD PUSH2 0x292F JUMP JUMPDEST SWAP4 POP POP PUSH1 0x20 PUSH2 0x2A7C DUP7 DUP3 DUP8 ADD PUSH2 0x292F JUMP JUMPDEST SWAP3 POP POP PUSH1 0x40 PUSH2 0x2A8D DUP7 DUP3 DUP8 ADD PUSH2 0x2965 JUMP JUMPDEST SWAP2 POP POP SWAP3 POP SWAP3 POP SWAP3 JUMP JUMPDEST PUSH1 0x0 PUSH1 0xFF DUP3 AND SWAP1 POP SWAP2 SWAP1 POP JUMP JUMPDEST PUSH2 0x2AAD DUP2 PUSH2 0x2A97 JUMP JUMPDEST DUP3 MSTORE POP POP JUMP JUMPDEST PUSH1 0x0 PUSH1 0x20 DUP3 ADD SWAP1 POP PUSH2 0x2AC8 PUSH1 0x0 DUP4 ADD DUP5 PUSH2 0x2AA4 JUMP JUMPDEST SWAP3 SWAP2 POP POP JUMP JUMPDEST PUSH1 0x0 DUP2 SWAP1 POP SWAP2 SWAP1 POP JUMP JUMPDEST PUSH2 0x2AE1 DUP2 PUSH2 0x2ACE JUMP JUMPDEST DUP3 MSTORE POP POP JUMP JUMPDEST PUSH1 0x0 PUSH1 0x20 DUP3 ADD SWAP1 POP PUSH2 0x2AFC PUSH1 0x0 DUP4 ADD DUP5 PUSH2 0x2AD8 JUMP JUMPDEST SWAP3 SWAP2 POP POP JUMP JUMPDEST PUSH1 0x0 DUP1 PUSH1 0x40 DUP4 DUP6 SUB SLT ISZERO PUSH2 0x2B19 JUMPI PUSH2 0x2B18 PUSH2 0x28E1 JUMP JUMPDEST JUMPDEST PUSH1 0x0 PUSH2 0x2B27 DUP6 DUP3 DUP7 ADD PUSH2 0x292F JUMP JUMPDEST SWAP3 POP POP PUSH1 0x20 PUSH2 0x2B38 DUP6 DUP3 DUP7 ADD PUSH2 0x292F JUMP JUMPDEST SWAP2 POP POP SWAP3 POP SWAP3 SWAP1 POP JUMP JUMPDEST PUSH1 0x0 PUSH1 0x20 DUP3 DUP5 SUB SLT ISZERO PUSH2 0x2B58 JUMPI PUSH2 0x2B57 PUSH2 0x28E1 JUMP JUMPDEST JUMPDEST PUSH1 0x0 PUSH2 0x2B66 DUP5 DUP3 DUP6 ADD PUSH2 0x292F JUMP JUMPDEST SWAP2 POP POP SWAP3 SWAP2 POP POP JUMP JUMPDEST PUSH1 0x0 DUP1 PUSH1 0x0 PUSH1 0x60 DUP5 DUP7 SUB SLT ISZERO PUSH2 0x2B88 JUMPI PUSH2 0x2B87 PUSH2 0x28E1 JUMP JUMPDEST JUMPDEST PUSH1 0x0 PUSH2 0x2B96 DUP7 DUP3 DUP8 ADD PUSH2 0x2965 JUMP JUMPDEST SWAP4 POP POP PUSH1 0x20 PUSH2 0x2BA7 DUP7 DUP3 DUP8 ADD PUSH2 0x2965 JUMP JUMPDEST SWAP3 POP POP PUSH1 0x40 PUSH2 0x2BB8 DUP7 DUP3 DUP8 ADD PUSH2 0x292F JUMP JUMPDEST SWAP2 POP POP SWAP3 POP SWAP3 POP SWAP3 JUMP JUMPDEST PUSH1 0x0 PUSH1 0x40 DUP3 ADD SWAP1 POP PUSH2 0x2BD7 PUSH1 0x0 DUP4 ADD DUP6 PUSH2 0x2A1A JUMP JUMPDEST PUSH2 0x2BE4 PUSH1 0x20 DUP4 ADD DUP5 PUSH2 0x2A1A JUMP JUMPDEST SWAP4 SWAP3 POP POP POP JUMP JUMPDEST PUSH2 0x2BF4 DUP2 PUSH2 0x2A97 JUMP JUMPDEST DUP2 EQ PUSH2 0x2BFF JUMPI PUSH1 0x0 DUP1 REVERT JUMPDEST POP JUMP JUMPDEST PUSH1 0x0 DUP2 CALLDATALOAD SWAP1 POP PUSH2 0x2C11 DUP2 PUSH2 0x2BEB JUMP JUMPDEST SWAP3 SWAP2 POP POP JUMP JUMPDEST PUSH2 0x2C20 DUP2 PUSH2 0x2ACE JUMP JUMPDEST DUP2 EQ PUSH2 0x2C2B JUMPI PUSH1 0x0 DUP1 REVERT JUMPDEST POP JUMP JUMPDEST PUSH1 0x0 DUP2 CALLDATALOAD SWAP1 POP PUSH2 0x2C3D DUP2 PUSH2 0x2C17 JUMP JUMPDEST SWAP3 SWAP2 POP POP JUMP JUMPDEST PUSH1 0x0 DUP1 PUSH1 0x0 DUP1 PUSH1 0x0 DUP1 PUSH1 0x0 PUSH1 0xE0 DUP9 DUP11 SUB SLT ISZERO PUSH2 0x2C62 JUMPI PUSH2 0x2C61 PUSH2 0x28E1 JUMP JUMPDEST JUMPDEST PUSH1 0x0 PUSH2 0x2C70 DUP11 DUP3 DUP12 ADD PUSH2 0x292F JUMP JUMPDEST SWAP8 POP POP PUSH1 0x20 PUSH2 0x2C81 DUP11 DUP3 DUP12 ADD PUSH2 0x292F JUMP JUMPDEST SWAP7 POP POP PUSH1 0x40 PUSH2 0x2C92 DUP11 DUP3 DUP12 ADD PUSH2 0x2965 JUMP JUMPDEST SWAP6 POP POP PUSH1 0x60 PUSH2 0x2CA3 DUP11 DUP3 DUP12 ADD PUSH2 0x2965 JUMP JUMPDEST SWAP5 POP POP PUSH1 0x80 PUSH2 0x2CB4 DUP11 DUP3 DUP12 ADD PUSH2 0x2C02 JUMP JUMPDEST SWAP4 POP POP PUSH1 0xA0 PUSH2 0x2CC5 DUP11 DUP3 DUP12 ADD PUSH2 0x2C2E JUMP JUMPDEST SWAP3 POP POP PUSH1 0xC0 PUSH2 0x2CD6 DUP11 DUP3 DUP12 ADD PUSH2 0x2C2E JUMP JUMPDEST SWAP2 POP POP SWAP3 SWAP6 SWAP9 SWAP2 SWAP5 SWAP8 POP SWAP3 SWAP6 POP JUMP JUMPDEST PUSH32 0x4E487B7100000000000000000000000000000000000000000000000000000000 PUSH1 0x0 MSTORE PUSH1 0x22 PUSH1 0x4 MSTORE PUSH1 0x24 PUSH1 0x0 REVERT JUMPDEST PUSH1 0x0 PUSH1 0x2 DUP3 DIV SWAP1 POP PUSH1 0x1 DUP3 AND DUP1 PUSH2 0x2D2C JUMPI PUSH1 0x7F DUP3 AND SWAP2 POP JUMPDEST PUSH1 0x20 DUP3 LT DUP2 SUB PUSH2 0x2D3F JUMPI PUSH2 0x2D3E PUSH2 0x2CE5 JUMP JUMPDEST JUMPDEST POP SWAP2 SWAP1 POP JUMP JUMPDEST PUSH32 0x4E487B7100000000000000000000000000000000000000000000000000000000 PUSH1 0x0 MSTORE PUSH1 0x11 PUSH1 0x4 MSTORE PUSH1 0x24 PUSH1 0x0 REVERT JUMPDEST PUSH1 0x0 PUSH2 0x2D7F DUP3 PUSH2 0x2944 JUMP JUMPDEST SWAP2 POP PUSH2 0x2D8A DUP4 PUSH2 0x2944 JUMP JUMPDEST SWAP3 POP DUP3 DUP3 LT ISZERO PUSH2 0x2D9D JUMPI PUSH2 0x2D9C PUSH2 0x2D45 JUMP JUMPDEST JUMPDEST DUP3 DUP3 SUB SWAP1 POP SWAP3 SWAP2 POP POP JUMP JUMPDEST PUSH32 0x4B616A75737761703A20464F5242494444454E00000000000000000000000000 PUSH1 0x0 DUP3 ADD MSTORE POP JUMP JUMPDEST PUSH1 0x0 PUSH2 0x2DDE PUSH1 0x13 DUP4 PUSH2 0x27B2 JUMP JUMPDEST SWAP2 POP PUSH2 0x2DE9 DUP3 PUSH2 0x2DA8 JUMP JUMPDEST PUSH1 0x20 DUP3 ADD SWAP1 POP SWAP2 SWAP1 POP JUMP JUMPDEST PUSH1 0x0 PUSH1 0x20 DUP3 ADD SWAP1 POP DUP2 DUP2 SUB PUSH1 0x0 DUP4 ADD MSTORE PUSH2 0x2E0D DUP2 PUSH2 0x2DD1 JUMP JUMPDEST SWAP1 POP SWAP2 SWAP1 POP JUMP JUMPDEST PUSH32 0x4B616A75737761703A20596F752063616E6E6F7420456E74657220696E207468 PUSH1 0x0 DUP3 ADD MSTORE PUSH32 0x6520636F6E747261637400000000000000000000000000000000000000000000 PUSH1 0x20 DUP3 ADD MSTORE POP JUMP JUMPDEST PUSH1 0x0 PUSH2 0x2E70 PUSH1 0x2A DUP4 PUSH2 0x27B2 JUMP JUMPDEST SWAP2 POP PUSH2 0x2E7B DUP3 PUSH2 0x2E14 JUMP JUMPDEST PUSH1 0x40 DUP3 ADD SWAP1 POP SWAP2 SWAP1 POP JUMP JUMPDEST PUSH1 0x0 PUSH1 0x20 DUP3 ADD SWAP1 POP DUP2 DUP2 SUB PUSH1 0x0 DUP4 ADD MSTORE PUSH2 0x2E9F DUP2 PUSH2 0x2E63 JUMP JUMPDEST SWAP1 POP SWAP2 SWAP1 POP JUMP JUMPDEST PUSH1 0x0 DUP2 MLOAD SWAP1 POP PUSH2 0x2EB5 DUP2 PUSH2 0x294E JUMP JUMPDEST SWAP3 SWAP2 POP POP JUMP JUMPDEST PUSH1 0x0 PUSH1 0x20 DUP3 DUP5 SUB SLT ISZERO PUSH2 0x2ED1 JUMPI PUSH2 0x2ED0 PUSH2 0x28E1 JUMP JUMPDEST JUMPDEST PUSH1 0x0 PUSH2 0x2EDF DUP5 DUP3 DUP6 ADD PUSH2 0x2EA6 JUMP JUMPDEST SWAP2 POP POP SWAP3 SWAP2 POP POP JUMP JUMPDEST PUSH1 0x0 PUSH2 0x2EF3 DUP3 PUSH2 0x2944 JUMP JUMPDEST SWAP2 POP PUSH2 0x2EFE DUP4 PUSH2 0x2944 JUMP JUMPDEST SWAP3 POP DUP2 PUSH32 0xFFFFFFFFFFFFFFFFFFFFFFFFFFFFFFFFFFFFFFFFFFFFFFFFFFFFFFFFFFFFFFFF DIV DUP4 GT DUP3 ISZERO ISZERO AND ISZERO PUSH2 0x2F37 JUMPI PUSH2 0x2F36 PUSH2 0x2D45 JUMP JUMPDEST JUMPDEST DUP3 DUP3 MUL SWAP1 POP SWAP3 SWAP2 POP POP JUMP JUMPDEST PUSH32 0x4E487B7100000000000000000000000000000000000000000000000000000000 PUSH1 0x0 MSTORE PUSH1 0x12 PUSH1 0x4 MSTORE PUSH1 0x24 PUSH1 0x0 REVERT JUMPDEST PUSH1 0x0 PUSH2 0x2F7C DUP3 PUSH2 0x2944 JUMP JUMPDEST SWAP2 POP PUSH2 0x2F87 DUP4 PUSH2 0x2944 JUMP JUMPDEST SWAP3 POP DUP3 PUSH2 0x2F97 JUMPI PUSH2 0x2F96 PUSH2 0x2F42 JUMP JUMPDEST JUMPDEST DUP3 DUP3 DIV SWAP1 POP SWAP3 SWAP2 POP POP JUMP JUMPDEST PUSH32 0x4B616A75737761703A20494E53554646494349454E545F4C4951554944495459 PUSH1 0x0 DUP3 ADD MSTORE PUSH32 0x5F4D494E54454400000000000000000000000000000000000000000000000000 PUSH1 0x20 DUP3 ADD MSTORE POP JUMP JUMPDEST PUSH1 0x0 PUSH2 0x2FFE PUSH1 0x27 DUP4 PUSH2 0x27B2 JUMP JUMPDEST SWAP2 POP PUSH2 0x3009 DUP3 PUSH2 0x2FA2 JUMP JUMPDEST PUSH1 0x40 DUP3 ADD SWAP1 POP SWAP2 SWAP1 POP JUMP JUMPDEST PUSH1 0x0 PUSH1 0x20 DUP3 ADD SWAP1 POP DUP2 DUP2 SUB PUSH1 0x0 DUP4 ADD MSTORE PUSH2 0x302D DUP2 PUSH2 0x2FF1 JUMP JUMPDEST SWAP1 POP SWAP2 SWAP1 POP JUMP JUMPDEST PUSH32 0x4B616A75737761703A20494E53554646494349454E545F4F55545055545F414D PUSH1 0x0 DUP3 ADD MSTORE PUSH32 0x4F554E5400000000000000000000000000000000000000000000000000000000 PUSH1 0x20 DUP3 ADD MSTORE POP JUMP JUMPDEST PUSH1 0x0 PUSH2 0x3090 PUSH1 0x24 DUP4 PUSH2 0x27B2 JUMP JUMPDEST SWAP2 POP PUSH2 0x309B DUP3 PUSH2 0x3034 JUMP JUMPDEST PUSH1 0x40 DUP3 ADD SWAP1 POP SWAP2 SWAP1 POP JUMP JUMPDEST PUSH1 0x0 PUSH1 0x20 DUP3 ADD SWAP1 POP DUP2 DUP2 SUB PUSH1 0x0 DUP4 ADD MSTORE PUSH2 0x30BF DUP2 PUSH2 0x3083 JUMP JUMPDEST SWAP1 POP SWAP2 SWAP1 POP JUMP JUMPDEST PUSH32 0x4B616A75737761703A20494E53554646494349454E545F4C4951554944495459 PUSH1 0x0 DUP3 ADD MSTORE POP JUMP JUMPDEST PUSH1 0x0 PUSH2 0x30FC PUSH1 0x20 DUP4 PUSH2 0x27B2 JUMP JUMPDEST SWAP2 POP PUSH2 0x3107 DUP3 PUSH2 0x30C6 JUMP JUMPDEST PUSH1 0x20 DUP3 ADD SWAP1 POP SWAP2 SWAP1 POP JUMP JUMPDEST PUSH1 0x0 PUSH1 0x20 DUP3 ADD SWAP1 POP DUP2 DUP2 SUB PUSH1 0x0 DUP4 ADD MSTORE PUSH2 0x312B DUP2 PUSH2 0x30EF JUMP JUMPDEST SWAP1 POP SWAP2 SWAP1 POP JUMP JUMPDEST PUSH32 0x4B616A75737761703A20494E53554646494349454E545F494E5055545F414D4F PUSH1 0x0 DUP3 ADD MSTORE PUSH32 0x554E540000000000000000000000000000000000000000000000000000000000 PUSH1 0x20 DUP3 ADD MSTORE POP JUMP JUMPDEST PUSH1 0x0 PUSH2 0x318E PUSH1 0x23 DUP4 PUSH2 0x27B2 JUMP JUMPDEST SWAP2 POP PUSH2 0x3199 DUP3 PUSH2 0x3132 JUMP JUMPDEST PUSH1 0x40 DUP3 ADD SWAP1 POP SWAP2 SWAP1 POP JUMP JUMPDEST PUSH1 0x0 PUSH1 0x20 DUP3 ADD SWAP1 POP DUP2 DUP2 SUB PUSH1 0x0 DUP4 ADD MSTORE PUSH2 0x31BD DUP2 PUSH2 0x3181 JUMP JUMPDEST SWAP1 POP SWAP2 SWAP1 POP JUMP JUMPDEST PUSH32 0x4B616A75737761703A20494E56414C49445F4B00000000000000000000000000 PUSH1 0x0 DUP3 ADD MSTORE POP JUMP JUMPDEST PUSH1 0x0 PUSH2 0x31FA PUSH1 0x13 DUP4 PUSH2 0x27B2 JUMP JUMPDEST SWAP2 POP PUSH2 0x3205 DUP3 PUSH2 0x31C4 JUMP JUMPDEST PUSH1 0x20 DUP3 ADD SWAP1 POP SWAP2 SWAP1 POP JUMP JUMPDEST PUSH1 0x0 PUSH1 0x20 DUP3 ADD SWAP1 POP DUP2 DUP2 SUB PUSH1 0x0 DUP4 ADD MSTORE PUSH2 0x3229 DUP2 PUSH2 0x31ED JUMP JUMPDEST SWAP1 POP SWAP2 SWAP1 POP JUMP JUMPDEST PUSH32 0x4B616A75737761703A20494E53554646494349454E545F4C4951554944495459 PUSH1 0x0 DUP3 ADD MSTORE PUSH32 0x5F4255524E454400000000000000000000000000000000000000000000000000 PUSH1 0x20 DUP3 ADD MSTORE POP JUMP JUMPDEST PUSH1 0x0 PUSH2 0x328C PUSH1 0x27 DUP4 PUSH2 0x27B2 JUMP JUMPDEST SWAP2 POP PUSH2 0x3297 DUP3 PUSH2 0x3230 JUMP JUMPDEST PUSH1 0x40 DUP3 ADD SWAP1 POP SWAP2 SWAP1 POP JUMP JUMPDEST PUSH1 0x0 PUSH1 0x20 DUP3 ADD SWAP1 POP DUP2 DUP2 SUB PUSH1 0x0 DUP4 ADD MSTORE PUSH2 0x32BB DUP2 PUSH2 0x327F JUMP JUMPDEST SWAP1 POP SWAP2 SWAP1 POP JUMP JUMPDEST PUSH1 0x0 PUSH1 0x60 DUP3 ADD SWAP1 POP PUSH2 0x32D7 PUSH1 0x0 DUP4 ADD DUP7 PUSH2 0x2A1A JUMP JUMPDEST PUSH2 0x32E4 PUSH1 0x20 DUP4 ADD DUP6 PUSH2 0x2A1A JUMP JUMPDEST PUSH2 0x32F1 PUSH1 0x40 DUP4 ADD DUP5 PUSH2 0x29F0 JUMP JUMPDEST SWAP5 SWAP4 POP POP POP POP JUMP JUMPDEST PUSH32 0x5045524D49545F444541444C494E455F45585049524544000000000000000000 PUSH1 0x0 DUP3 ADD MSTORE POP JUMP JUMPDEST PUSH1 0x0 PUSH2 0x332F PUSH1 0x17 DUP4 PUSH2 0x27B2 JUMP JUMPDEST SWAP2 POP PUSH2 0x333A DUP3 PUSH2 0x32F9 JUMP JUMPDEST PUSH1 0x20 DUP3 ADD SWAP1 POP SWAP2 SWAP1 POP JUMP JUMPDEST PUSH1 0x0 PUSH1 0x20 DUP3 ADD SWAP1 POP DUP2 DUP2 SUB PUSH1 0x0 DUP4 ADD MSTORE PUSH2 0x335E DUP2 PUSH2 0x3322 JUMP JUMPDEST SWAP1 POP SWAP2 SWAP1 POP JUMP JUMPDEST PUSH1 0x0 PUSH1 0xC0 DUP3 ADD SWAP1 POP PUSH2 0x337A PUSH1 0x0 DUP4 ADD DUP10 PUSH2 0x2AD8 JUMP JUMPDEST PUSH2 0x3387 PUSH1 0x20 DUP4 ADD DUP9 PUSH2 0x29F0 JUMP JUMPDEST PUSH2 0x3394 PUSH1 0x40 DUP4 ADD DUP8 PUSH2 0x29F0 JUMP JUMPDEST PUSH2 0x33A1 PUSH1 0x60 DUP4 ADD DUP7 PUSH2 0x2A1A JUMP JUMPDEST PUSH2 0x33AE PUSH1 0x80 DUP4 ADD DUP6 PUSH2 0x2A1A JUMP JUMPDEST PUSH2 0x33BB PUSH1 0xA0 DUP4 ADD DUP5 PUSH2 0x2A1A JUMP JUMPDEST SWAP8 SWAP7 POP POP POP POP POP POP POP JUMP JUMPDEST PUSH1 0x0 DUP2 SWAP1 POP SWAP3 SWAP2 POP POP JUMP JUMPDEST PUSH32 0x1901000000000000000000000000000000000000000000000000000000000000 PUSH1 0x0 DUP3 ADD MSTORE POP JUMP JUMPDEST PUSH1 0x0 PUSH2 0x3407 PUSH1 0x2 DUP4 PUSH2 0x33C6 JUMP JUMPDEST SWAP2 POP PUSH2 0x3412 DUP3 PUSH2 0x33D1 JUMP JUMPDEST PUSH1 0x2 DUP3 ADD SWAP1 POP SWAP2 SWAP1 POP JUMP JUMPDEST PUSH1 0x0 DUP2 SWAP1 POP SWAP2 SWAP1 POP JUMP JUMPDEST PUSH2 0x3438 PUSH2 0x3433 DUP3 PUSH2 0x2ACE JUMP JUMPDEST PUSH2 0x341D JUMP JUMPDEST DUP3 MSTORE POP POP JUMP JUMPDEST PUSH1 0x0 PUSH2 0x3449 DUP3 PUSH2 0x33FA JUMP JUMPDEST SWAP2 POP PUSH2 0x3455 DUP3 DUP6 PUSH2 0x3427 JUMP JUMPDEST PUSH1 0x20 DUP3 ADD SWAP2 POP PUSH2 0x3465 DUP3 DUP5 PUSH2 0x3427 JUMP JUMPDEST PUSH1 0x20 DUP3 ADD SWAP2 POP DUP2 SWAP1 POP SWAP4 SWAP3 POP POP POP JUMP JUMPDEST PUSH1 0x0 PUSH1 0x80 DUP3 ADD SWAP1 POP PUSH2 0x348A PUSH1 0x0 DUP4 ADD DUP8 PUSH2 0x2AD8 JUMP JUMPDEST PUSH2 0x3497 PUSH1 0x20 DUP4 ADD DUP7 PUSH2 0x2AA4 JUMP JUMPDEST PUSH2 0x34A4 PUSH1 0x40 DUP4 ADD DUP6 PUSH2 0x2AD8 JUMP JUMPDEST PUSH2 0x34B1 PUSH1 0x60 DUP4 ADD DUP5 PUSH2 0x2AD8 JUMP JUMPDEST SWAP6 SWAP5 POP POP POP POP POP JUMP JUMPDEST PUSH32 0x494E56414C49445F5349474E4552000000000000000000000000000000000000 PUSH1 0x0 DUP3 ADD MSTORE POP JUMP JUMPDEST PUSH1 0x0 PUSH2 0x34F0 PUSH1 0xE DUP4 PUSH2 0x27B2 JUMP JUMPDEST SWAP2 POP PUSH2 0x34FB DUP3 PUSH2 0x34BA JUMP JUMPDEST PUSH1 0x20 DUP3 ADD SWAP1 POP SWAP2 SWAP1 POP JUMP JUMPDEST PUSH1 0x0 PUSH1 0x20 DUP3 ADD SWAP1 POP DUP2 DUP2 SUB PUSH1 0x0 DUP4 ADD MSTORE PUSH2 0x351F DUP2 PUSH2 0x34E3 JUMP JUMPDEST SWAP1 POP SWAP2 SWAP1 POP JUMP JUMPDEST PUSH1 0x0 DUP2 SWAP1 POP SWAP3 SWAP2 POP POP JUMP JUMPDEST PUSH1 0x0 DUP2 SWAP1 POP DUP2 PUSH1 0x0 MSTORE PUSH1 0x20 PUSH1 0x0 KECCAK256 SWAP1 POP SWAP2 SWAP1 POP JUMP JUMPDEST PUSH1 0x0 DUP2 SLOAD PUSH2 0x3553 DUP2 PUSH2 0x2D14 JUMP JUMPDEST PUSH2 0x355D DUP2 DUP7 PUSH2 0x3526 JUMP JUMPDEST SWAP5 POP PUSH1 0x1 DUP3 AND PUSH1 0x0 DUP2 EQ PUSH2 0x3578 JUMPI PUSH1 0x1 DUP2 EQ PUSH2 0x358D JUMPI PUSH2 0x35C0 JUMP JUMPDEST PUSH1 0xFF NOT DUP4 AND DUP7 MSTORE DUP2 ISZERO ISZERO DUP3 MUL DUP7 ADD SWAP4 POP PUSH2 0x35C0 JUMP JUMPDEST PUSH2 0x3596 DUP6 PUSH2 0x3531 JUMP JUMPDEST PUSH1 0x0 JUMPDEST DUP4 DUP2 LT ISZERO PUSH2 0x35B8 JUMPI DUP2 SLOAD DUP2 DUP10 ADD MSTORE PUSH1 0x1 DUP3 ADD SWAP2 POP PUSH1 0x20 DUP2 ADD SWAP1 POP PUSH2 0x3599 JUMP JUMPDEST DUP4 DUP9 ADD SWAP6 POP POP POP JUMPDEST POP POP POP SWAP3 SWAP2 POP POP JUMP JUMPDEST PUSH1 0x0 PUSH2 0x35D5 DUP3 DUP5 PUSH2 0x3546 JUMP JUMPDEST SWAP2 POP DUP2 SWAP1 POP SWAP3 SWAP2 POP POP JUMP JUMPDEST PUSH1 0x0 PUSH1 0xA0 DUP3 ADD SWAP1 POP PUSH2 0x35F5 PUSH1 0x0 DUP4 ADD DUP9 PUSH2 0x2AD8 JUMP JUMPDEST PUSH2 0x3602 PUSH1 0x20 DUP4 ADD DUP8 PUSH2 0x2AD8 JUMP JUMPDEST PUSH2 0x360F PUSH1 0x40 DUP4 ADD DUP7 PUSH2 0x2AD8 JUMP JUMPDEST PUSH2 0x361C PUSH1 0x60 DUP4 ADD DUP6 PUSH2 0x2A1A JUMP JUMPDEST PUSH2 0x3629 PUSH1 0x80 DUP4 ADD DUP5 PUSH2 0x29F0 JUMP JUMPDEST SWAP7 SWAP6 POP POP POP POP POP POP JUMP JUMPDEST PUSH1 0x0 PUSH2 0x363E DUP3 PUSH2 0x2944 JUMP JUMPDEST SWAP2 POP PUSH2 0x3649 DUP4 PUSH2 0x2944 JUMP JUMPDEST SWAP3 POP DUP3 PUSH32 0xFFFFFFFFFFFFFFFFFFFFFFFFFFFFFFFFFFFFFFFFFFFFFFFFFFFFFFFFFFFFFFFF SUB DUP3 GT ISZERO PUSH2 0x367E JUMPI PUSH2 0x367D PUSH2 0x2D45 JUMP JUMPDEST JUMPDEST DUP3 DUP3 ADD SWAP1 POP SWAP3 SWAP2 POP POP JUMP JUMPDEST PUSH32 0x4B616A75737761703A204F564552464C4F570000000000000000000000000000 PUSH1 0x0 DUP3 ADD MSTORE POP JUMP JUMPDEST PUSH1 0x0 PUSH2 0x36BF PUSH1 0x12 DUP4 PUSH2 0x27B2 JUMP JUMPDEST SWAP2 POP PUSH2 0x36CA DUP3 PUSH2 0x3689 JUMP JUMPDEST PUSH1 0x20 DUP3 ADD SWAP1 POP SWAP2 SWAP1 POP JUMP JUMPDEST PUSH1 0x0 PUSH1 0x20 DUP3 ADD SWAP1 POP DUP2 DUP2 SUB PUSH1 0x0 DUP4 ADD MSTORE PUSH2 0x36EE DUP2 PUSH2 0x36B2 JUMP JUMPDEST SWAP1 POP SWAP2 SWAP1 POP JUMP JUMPDEST PUSH1 0x0 DUP2 SWAP1 POP SWAP2 SWAP1 POP JUMP JUMPDEST PUSH1 0x0 PUSH2 0x371A PUSH2 0x3715 PUSH2 0x3710 DUP5 PUSH2 0x2862 JUMP JUMPDEST PUSH2 0x36F5 JUMP JUMPDEST PUSH2 0x2944 JUMP JUMPDEST SWAP1 POP SWAP2 SWAP1 POP JUMP JUMPDEST PUSH2 0x372A DUP2 PUSH2 0x36FF JUMP JUMPDEST DUP3 MSTORE POP POP JUMP JUMPDEST PUSH1 0x0 PUSH1 0x40 DUP3 ADD SWAP1 POP PUSH2 0x3745 PUSH1 0x0 DUP4 ADD DUP6 PUSH2 0x3721 JUMP JUMPDEST PUSH2 0x3752 PUSH1 0x20 DUP4 ADD DUP5 PUSH2 0x3721 JUMP JUMPDEST SWAP4 SWAP3 POP POP POP JUMP JUMPDEST PUSH1 0x0 PUSH1 0x40 DUP3 ADD SWAP1 POP PUSH2 0x376E PUSH1 0x0 DUP4 ADD DUP6 PUSH2 0x29F0 JUMP JUMPDEST PUSH2 0x377B PUSH1 0x20 DUP4 ADD DUP5 PUSH2 0x2A1A JUMP JUMPDEST SWAP4 SWAP3 POP POP POP JUMP JUMPDEST PUSH1 0x0 DUP2 MLOAD SWAP1 POP SWAP2 SWAP1 POP JUMP JUMPDEST PUSH1 0x0 PUSH2 0x3798 DUP3 PUSH2 0x3782 JUMP JUMPDEST PUSH2 0x37A2 DUP2 DUP6 PUSH2 0x3526 JUMP JUMPDEST SWAP4 POP PUSH2 0x37B2 DUP2 DUP6 PUSH1 0x20 DUP7 ADD PUSH2 0x27C3 JUMP JUMPDEST DUP1 DUP5 ADD SWAP2 POP POP SWAP3 SWAP2 POP POP JUMP JUMPDEST PUSH1 0x0 PUSH2 0x37CA DUP3 DUP5 PUSH2 0x378D JUMP JUMPDEST SWAP2 POP DUP2 SWAP1 POP SWAP3 SWAP2 POP POP JUMP JUMPDEST PUSH2 0x37DE DUP2 PUSH2 0x29BA JUMP JUMPDEST DUP2 EQ PUSH2 0x37E9 JUMPI PUSH1 0x0 DUP1 REVERT JUMPDEST POP JUMP JUMPDEST PUSH1 0x0 DUP2 MLOAD SWAP1 POP PUSH2 0x37FB DUP2 PUSH2 0x37D5 JUMP JUMPDEST SWAP3 SWAP2 POP POP JUMP JUMPDEST PUSH1 0x0 PUSH1 0x20 DUP3 DUP5 SUB SLT ISZERO PUSH2 0x3817 JUMPI PUSH2 0x3816 PUSH2 0x28E1 JUMP JUMPDEST JUMPDEST PUSH1 0x0 PUSH2 0x3825 DUP5 DUP3 DUP6 ADD PUSH2 0x37EC JUMP JUMPDEST SWAP2 POP POP SWAP3 SWAP2 POP POP JUMP JUMPDEST PUSH32 0x4B616A75737761703A205452414E534645525F4641494C454400000000000000 PUSH1 0x0 DUP3 ADD MSTORE POP JUMP JUMPDEST PUSH1 0x0 PUSH2 0x3864 PUSH1 0x19 DUP4 PUSH2 0x27B2 JUMP JUMPDEST SWAP2 POP PUSH2 0x386F DUP3 PUSH2 0x382E JUMP JUMPDEST PUSH1 0x20 DUP3 ADD SWAP1 POP SWAP2 SWAP1 POP JUMP JUMPDEST PUSH1 0x0 PUSH1 0x20 DUP3 ADD SWAP1 POP DUP2 DUP2 SUB PUSH1 0x0 DUP4 ADD MSTORE PUSH2 0x3893 DUP2 PUSH2 0x3857 JUMP JUMPDEST SWAP1 POP SWAP2 SWAP1 POP JUMP JUMPDEST PUSH1 0x0 PUSH28 0xFFFFFFFFFFFFFFFFFFFFFFFFFFFFFFFFFFFFFFFFFFFFFFFFFFFFFFFF DUP3 AND SWAP1 POP SWAP2 SWAP1 POP JUMP JUMPDEST PUSH1 0x0 PUSH2 0x38CD DUP3 PUSH2 0x389A JUMP JUMPDEST SWAP2 POP PUSH2 0x38D8 DUP4 PUSH2 0x389A JUMP JUMPDEST SWAP3 POP DUP2 PUSH28 0xFFFFFFFFFFFFFFFFFFFFFFFFFFFFFFFFFFFFFFFFFFFFFFFFFFFFFFFF DIV DUP4 GT DUP3 ISZERO ISZERO AND ISZERO PUSH2 0x390D JUMPI PUSH2 0x390C PUSH2 0x2D45 JUMP JUMPDEST JUMPDEST DUP3 DUP3 MUL SWAP1 POP SWAP3 SWAP2 POP POP JUMP JUMPDEST PUSH1 0x0 PUSH2 0x3923 DUP3 PUSH2 0x389A JUMP JUMPDEST SWAP2 POP PUSH2 0x392E DUP4 PUSH2 0x389A JUMP JUMPDEST SWAP3 POP DUP3 PUSH2 0x393E JUMPI PUSH2 0x393D PUSH2 0x2F42 JUMP JUMPDEST JUMPDEST DUP3 DUP3 DIV SWAP1 POP SWAP3 SWAP2 POP POP JUMP INVALID LOG2 PUSH5 0x6970667358 0x22 SLT KECCAK256 0xFC POP SIGNEXTEND JUMP 0xD7 PUSH16 0xB44C6901118D317B5FBF88621938EC84 0xD3 0x5F DIV BLOCKHASH DUP2 0xCE 0xDA STOP 0xB3 0xE6 PUSH5 0x736F6C6343 STOP ADDMOD 0xF STOP CALLER "
				},
				"gasEstimates": {
					"creation": {
						"codeDepositCost": "2943800",
						"executionCost": "infinite",
						"totalCost": "infinite"
					},
					"external": {
						"DOMAIN_SEPARATOR()": "infinite",
						"allowance(address,address)": "infinite",
						"approve(address,uint256)": "infinite",
						"balanceOf(address)": "2881",
						"burn(address)": "infinite",
						"decimals()": "infinite",
						"factory()": "2558",
						"getReserves()": "infinite",
						"initialize(address,address)": "infinite",
						"mint(address)": "infinite",
						"name()": "infinite",
						"nonces(address)": "2903",
						"permit(address,address,uint256,uint256,uint8,bytes32,bytes32)": "infinite",
						"price0CumulativeLast()": "2540",
						"price1CumulativeLast()": "2562",
						"swap(uint256,uint256,address)": "infinite",
						"symbol()": "infinite",
						"sync()": "infinite",
						"token0()": "2604",
						"token1()": "2580",
						"totalSupply()": "2541",
						"transfer(address,uint256)": "infinite",
						"transferFrom(address,address,uint256)": "infinite"
					},
					"internal": {
						"_safeTransfer(address,address,uint256)": "infinite",
						"_update(uint256,uint256,uint112,uint112)": "infinite"
					}
				},
				"methodIdentifiers": {
					"DOMAIN_SEPARATOR()": "3644e515",
					"allowance(address,address)": "dd62ed3e",
					"approve(address,uint256)": "095ea7b3",
					"balanceOf(address)": "70a08231",
					"burn(address)": "89afcb44",
					"decimals()": "313ce567",
					"factory()": "c45a0155",
					"getReserves()": "0902f1ac",
					"initialize(address,address)": "485cc955",
					"mint(address)": "6a627842",
					"name()": "06fdde03",
					"nonces(address)": "7ecebe00",
					"permit(address,address,uint256,uint256,uint8,bytes32,bytes32)": "d505accf",
					"price0CumulativeLast()": "5909c0d5",
					"price1CumulativeLast()": "5a3d5493",
					"swap(uint256,uint256,address)": "6d9a640a",
					"symbol()": "95d89b41",
					"sync()": "fff6cae9",
					"token0()": "0dfe1681",
					"token1()": "d21220a7",
					"totalSupply()": "18160ddd",
					"transfer(address,uint256)": "a9059cbb",
					"transferFrom(address,address,uint256)": "23b872dd"
				}
			},
			"storageLayout": {
				"storage": [
					{
						"astId": 20,
						"contract": "contracts/KajuswapPair.sol:KajuswapPair",
						"label": "name",
						"offset": 0,
						"slot": "0",
						"type": "t_string_storage"
					},
					{
						"astId": 22,
						"contract": "contracts/KajuswapPair.sol:KajuswapPair",
						"label": "symbol",
						"offset": 0,
						"slot": "1",
						"type": "t_string_storage"
					},
					{
						"astId": 26,
						"contract": "contracts/KajuswapPair.sol:KajuswapPair",
						"label": "totalSupply",
						"offset": 0,
						"slot": "2",
						"type": "t_uint256"
					},
					{
						"astId": 30,
						"contract": "contracts/KajuswapPair.sol:KajuswapPair",
						"label": "balanceOf",
						"offset": 0,
						"slot": "3",
						"type": "t_mapping(t_address,t_uint256)"
					},
					{
						"astId": 36,
						"contract": "contracts/KajuswapPair.sol:KajuswapPair",
						"label": "allowance",
						"offset": 0,
						"slot": "4",
						"type": "t_mapping(t_address,t_mapping(t_address,t_uint256))"
					},
					{
						"astId": 44,
						"contract": "contracts/KajuswapPair.sol:KajuswapPair",
						"label": "nonces",
						"offset": 0,
						"slot": "5",
						"type": "t_mapping(t_address,t_uint256)"
					},
					{
						"astId": 407,
						"contract": "contracts/KajuswapPair.sol:KajuswapPair",
						"label": "factory",
						"offset": 0,
						"slot": "6",
						"type": "t_address"
					},
					{
						"astId": 409,
						"contract": "contracts/KajuswapPair.sol:KajuswapPair",
						"label": "token0",
						"offset": 0,
						"slot": "7",
						"type": "t_address"
					},
					{
						"astId": 411,
						"contract": "contracts/KajuswapPair.sol:KajuswapPair",
						"label": "token1",
						"offset": 0,
						"slot": "8",
						"type": "t_address"
					},
					{
						"astId": 413,
						"contract": "contracts/KajuswapPair.sol:KajuswapPair",
						"label": "reserve0",
						"offset": 0,
						"slot": "9",
						"type": "t_uint112"
					},
					{
						"astId": 415,
						"contract": "contracts/KajuswapPair.sol:KajuswapPair",
						"label": "reserve1",
						"offset": 14,
						"slot": "9",
						"type": "t_uint112"
					},
					{
						"astId": 417,
						"contract": "contracts/KajuswapPair.sol:KajuswapPair",
						"label": "blockTimestampLast",
						"offset": 28,
						"slot": "9",
						"type": "t_uint32"
					},
					{
						"astId": 419,
						"contract": "contracts/KajuswapPair.sol:KajuswapPair",
						"label": "price0CumulativeLast",
						"offset": 0,
						"slot": "10",
						"type": "t_uint256"
					},
					{
						"astId": 421,
						"contract": "contracts/KajuswapPair.sol:KajuswapPair",
						"label": "price1CumulativeLast",
						"offset": 0,
						"slot": "11",
						"type": "t_uint256"
					},
					{
						"astId": 423,
						"contract": "contracts/KajuswapPair.sol:KajuswapPair",
						"label": "isEntered",
						"offset": 0,
						"slot": "12",
						"type": "t_bool"
					}
				],
				"types": {
					"t_address": {
						"encoding": "inplace",
						"label": "address",
						"numberOfBytes": "20"
					},
					"t_bool": {
						"encoding": "inplace",
						"label": "bool",
						"numberOfBytes": "1"
					},
					"t_mapping(t_address,t_mapping(t_address,t_uint256))": {
						"encoding": "mapping",
						"key": "t_address",
						"label": "mapping(address => mapping(address => uint256))",
						"numberOfBytes": "32",
						"value": "t_mapping(t_address,t_uint256)"
					},
					"t_mapping(t_address,t_uint256)": {
						"encoding": "mapping",
						"key": "t_address",
						"label": "mapping(address => uint256)",
						"numberOfBytes": "32",
						"value": "t_uint256"
					},
					"t_string_storage": {
						"encoding": "bytes",
						"label": "string",
						"numberOfBytes": "32"
					},
					"t_uint112": {
						"encoding": "inplace",
						"label": "uint112",
						"numberOfBytes": "14"
					},
					"t_uint256": {
						"encoding": "inplace",
						"label": "uint256",
						"numberOfBytes": "32"
					},
					"t_uint32": {
						"encoding": "inplace",
						"label": "uint32",
						"numberOfBytes": "4"
					}
				}
			},
			"userdoc": {
				"kind": "user",
				"methods": {},
				"version": 1
			}
		}
	}
}