{
	"contracts/KajuswapPair.sol": {
		"KajuswapPair": {
			"abi": [
				{
					"inputs": [],
					"stateMutability": "nonpayable",
					"type": "constructor"
				},
				{
					"inputs": [],
					"name": "AlreadyInitialized",
					"type": "error"
				},
				{
					"inputs": [],
					"name": "BalanceOverflow",
					"type": "error"
				},
				{
					"inputs": [],
					"name": "InsufficientInputAmount",
					"type": "error"
				},
				{
					"inputs": [],
					"name": "InsufficientLiquidity",
					"type": "error"
				},
				{
					"inputs": [],
					"name": "InsufficientLiquidityBurned",
					"type": "error"
				},
				{
					"inputs": [],
					"name": "InsufficientLiquidityMinted",
					"type": "error"
				},
				{
					"inputs": [],
					"name": "InsufficientOutputAmount",
					"type": "error"
				},
				{
					"inputs": [],
					"name": "InvalidK",
					"type": "error"
				},
				{
					"inputs": [],
					"name": "TransferFailed",
					"type": "error"
				},
				{
					"anonymous": false,
					"inputs": [
						{
							"indexed": true,
							"internalType": "address",
							"name": "owner",
							"type": "address"
						},
						{
							"indexed": true,
							"internalType": "address",
							"name": "spender",
							"type": "address"
						},
						{
							"indexed": false,
							"internalType": "uint256",
							"name": "amount",
							"type": "uint256"
						}
					],
					"name": "Approval",
					"type": "event"
				},
				{
					"anonymous": false,
					"inputs": [
						{
							"indexed": true,
							"internalType": "address",
							"name": "sender",
							"type": "address"
						},
						{
							"indexed": false,
							"internalType": "uint256",
							"name": "amount0",
							"type": "uint256"
						},
						{
							"indexed": false,
							"internalType": "uint256",
							"name": "amount1",
							"type": "uint256"
						},
						{
							"indexed": false,
							"internalType": "address",
							"name": "to",
							"type": "address"
						}
					],
					"name": "Burn",
					"type": "event"
				},
				{
					"anonymous": false,
					"inputs": [
						{
							"indexed": true,
							"internalType": "address",
							"name": "sender",
							"type": "address"
						},
						{
							"indexed": false,
							"internalType": "uint256",
							"name": "amount0",
							"type": "uint256"
						},
						{
							"indexed": false,
							"internalType": "uint256",
							"name": "amount1",
							"type": "uint256"
						}
					],
					"name": "Mint",
					"type": "event"
				},
				{
					"anonymous": false,
					"inputs": [
						{
							"indexed": true,
							"internalType": "address",
							"name": "sender",
							"type": "address"
						},
						{
							"indexed": false,
							"internalType": "uint256",
							"name": "amount0Out",
							"type": "uint256"
						},
						{
							"indexed": false,
							"internalType": "uint256",
							"name": "amount1Out",
							"type": "uint256"
						},
						{
							"indexed": true,
							"internalType": "address",
							"name": "to",
							"type": "address"
						}
					],
					"name": "Swap",
					"type": "event"
				},
				{
					"anonymous": false,
					"inputs": [
						{
							"indexed": false,
							"internalType": "uint256",
							"name": "reserve0",
							"type": "uint256"
						},
						{
							"indexed": false,
							"internalType": "uint256",
							"name": "reserve1",
							"type": "uint256"
						}
					],
					"name": "Sync",
					"type": "event"
				},
				{
					"anonymous": false,
					"inputs": [
						{
							"indexed": true,
							"internalType": "address",
							"name": "from",
							"type": "address"
						},
						{
							"indexed": true,
							"internalType": "address",
							"name": "to",
							"type": "address"
						},
						{
							"indexed": false,
							"internalType": "uint256",
							"name": "amount",
							"type": "uint256"
						}
					],
					"name": "Transfer",
					"type": "event"
				},
				{
					"inputs": [],
					"name": "DOMAIN_SEPARATOR",
					"outputs": [
						{
							"internalType": "bytes32",
							"name": "",
							"type": "bytes32"
						}
					],
					"stateMutability": "view",
					"type": "function"
				},
				{
					"inputs": [
						{
							"internalType": "address",
							"name": "",
							"type": "address"
						},
						{
							"internalType": "address",
							"name": "",
							"type": "address"
						}
					],
					"name": "allowance",
					"outputs": [
						{
							"internalType": "uint256",
							"name": "",
							"type": "uint256"
						}
					],
					"stateMutability": "view",
					"type": "function"
				},
				{
					"inputs": [
						{
							"internalType": "address",
							"name": "spender",
							"type": "address"
						},
						{
							"internalType": "uint256",
							"name": "amount",
							"type": "uint256"
						}
					],
					"name": "approve",
					"outputs": [
						{
							"internalType": "bool",
							"name": "",
							"type": "bool"
						}
					],
					"stateMutability": "nonpayable",
					"type": "function"
				},
				{
					"inputs": [
						{
							"internalType": "address",
							"name": "",
							"type": "address"
						}
					],
					"name": "balanceOf",
					"outputs": [
						{
							"internalType": "uint256",
							"name": "",
							"type": "uint256"
						}
					],
					"stateMutability": "view",
					"type": "function"
				},
				{
					"inputs": [
						{
							"internalType": "address",
							"name": "to",
							"type": "address"
						}
					],
					"name": "burn",
					"outputs": [
						{
							"internalType": "uint256",
							"name": "amount0",
							"type": "uint256"
						},
						{
							"internalType": "uint256",
							"name": "amount1",
							"type": "uint256"
						}
					],
					"stateMutability": "nonpayable",
					"type": "function"
				},
				{
					"inputs": [],
					"name": "decimals",
					"outputs": [
						{
							"internalType": "uint8",
							"name": "",
							"type": "uint8"
						}
					],
					"stateMutability": "view",
					"type": "function"
				},
				{
					"inputs": [],
					"name": "getReserves",
					"outputs": [
						{
							"internalType": "uint112",
							"name": "",
							"type": "uint112"
						},
						{
							"internalType": "uint112",
							"name": "",
							"type": "uint112"
						},
						{
							"internalType": "uint32",
							"name": "",
							"type": "uint32"
						}
					],
					"stateMutability": "view",
					"type": "function"
				},
				{
					"inputs": [
						{
							"internalType": "address",
							"name": "token0_",
							"type": "address"
						},
						{
							"internalType": "address",
							"name": "token1_",
							"type": "address"
						}
					],
					"name": "initialize",
					"outputs": [],
					"stateMutability": "nonpayable",
					"type": "function"
				},
				{
					"inputs": [
						{
							"internalType": "address",
							"name": "to",
							"type": "address"
						}
					],
					"name": "mint",
					"outputs": [
						{
							"internalType": "uint256",
							"name": "liquidity",
							"type": "uint256"
						}
					],
					"stateMutability": "nonpayable",
					"type": "function"
				},
				{
					"inputs": [],
					"name": "name",
					"outputs": [
						{
							"internalType": "string",
							"name": "",
							"type": "string"
						}
					],
					"stateMutability": "view",
					"type": "function"
				},
				{
					"inputs": [
						{
							"internalType": "address",
							"name": "",
							"type": "address"
						}
					],
					"name": "nonces",
					"outputs": [
						{
							"internalType": "uint256",
							"name": "",
							"type": "uint256"
						}
					],
					"stateMutability": "view",
					"type": "function"
				},
				{
					"inputs": [
						{
							"internalType": "address",
							"name": "owner",
							"type": "address"
						},
						{
							"internalType": "address",
							"name": "spender",
							"type": "address"
						},
						{
							"internalType": "uint256",
							"name": "value",
							"type": "uint256"
						},
						{
							"internalType": "uint256",
							"name": "deadline",
							"type": "uint256"
						},
						{
							"internalType": "uint8",
							"name": "v",
							"type": "uint8"
						},
						{
							"internalType": "bytes32",
							"name": "r",
							"type": "bytes32"
						},
						{
							"internalType": "bytes32",
							"name": "s",
							"type": "bytes32"
						}
					],
					"name": "permit",
					"outputs": [],
					"stateMutability": "nonpayable",
					"type": "function"
				},
				{
					"inputs": [],
					"name": "price0CumulativeLast",
					"outputs": [
						{
							"internalType": "uint256",
							"name": "",
							"type": "uint256"
						}
					],
					"stateMutability": "view",
					"type": "function"
				},
				{
					"inputs": [],
					"name": "price1CumulativeLast",
					"outputs": [
						{
							"internalType": "uint256",
							"name": "",
							"type": "uint256"
						}
					],
					"stateMutability": "view",
					"type": "function"
				},
				{
					"inputs": [
						{
							"internalType": "uint256",
							"name": "amount0Out",
							"type": "uint256"
						},
						{
							"internalType": "uint256",
							"name": "amount1Out",
							"type": "uint256"
						},
						{
							"internalType": "address",
							"name": "to",
							"type": "address"
						}
					],
					"name": "swap",
					"outputs": [],
					"stateMutability": "nonpayable",
					"type": "function"
				},
				{
					"inputs": [],
					"name": "symbol",
					"outputs": [
						{
							"internalType": "string",
							"name": "",
							"type": "string"
						}
					],
					"stateMutability": "view",
					"type": "function"
				},
				{
					"inputs": [],
					"name": "sync",
					"outputs": [],
					"stateMutability": "nonpayable",
					"type": "function"
				},
				{
					"inputs": [],
					"name": "token0",
					"outputs": [
						{
							"internalType": "address",
							"name": "",
							"type": "address"
						}
					],
					"stateMutability": "view",
					"type": "function"
				},
				{
					"inputs": [],
					"name": "token1",
					"outputs": [
						{
							"internalType": "address",
							"name": "",
							"type": "address"
						}
					],
					"stateMutability": "view",
					"type": "function"
				},
				{
					"inputs": [],
					"name": "totalSupply",
					"outputs": [
						{
							"internalType": "uint256",
							"name": "",
							"type": "uint256"
						}
					],
					"stateMutability": "view",
					"type": "function"
				},
				{
					"inputs": [
						{
							"internalType": "address",
							"name": "to",
							"type": "address"
						},
						{
							"internalType": "uint256",
							"name": "amount",
							"type": "uint256"
						}
					],
					"name": "transfer",
					"outputs": [
						{
							"internalType": "bool",
							"name": "",
							"type": "bool"
						}
					],
					"stateMutability": "nonpayable",
					"type": "function"
				},
				{
					"inputs": [
						{
							"internalType": "address",
							"name": "from",
							"type": "address"
						},
						{
							"internalType": "address",
							"name": "to",
							"type": "address"
						},
						{
							"internalType": "uint256",
							"name": "amount",
							"type": "uint256"
						}
					],
					"name": "transferFrom",
					"outputs": [
						{
							"internalType": "bool",
							"name": "",
							"type": "bool"
						}
					],
					"stateMutability": "nonpayable",
					"type": "function"
				}
			],
			"devdoc": {
				"kind": "dev",
				"methods": {},
				"version": 1
			},
			"evm": {
				"assembly": "    /* \"contracts/KajuswapPair.sol\":503:7934  contract KajuswapPair is ERC20, Math {... */\n  mstore(0x40, 0xe0)\n    /* \"contracts/KajuswapPair.sol\":1862:1913  constructor() ERC20(\"Kajuswap Pair\", \"KAJU\", 18) {} */\n  callvalue\n  dup1\n  iszero\n  tag_1\n  jumpi\n  0x00\n  dup1\n  revert\ntag_1:\n  pop\n    /* \"@rari-capital/solmate/src/tokens/ERC20.sol\":1978:2270  constructor(... */\n  mload(0x40)\n  dup1\n  0x40\n  add\n  0x40\n  mstore\n  dup1\n  0x0d\n  dup2\n  mstore\n  0x20\n  add\n  0x4b616a7573776170205061697200000000000000000000000000000000000000\n  dup2\n  mstore\n  pop\n  mload(0x40)\n  dup1\n  0x40\n  add\n  0x40\n  mstore\n  dup1\n  0x04\n  dup2\n  mstore\n  0x20\n  add\n  0x4b414a5500000000000000000000000000000000000000000000000000000000\n  dup2\n  mstore\n  pop\n    /* \"contracts/KajuswapPair.sol\":1907:1909  18 */\n  0x12\n    /* \"@rari-capital/solmate/src/tokens/ERC20.sol\":2098:2103  _name */\n  dup3\n    /* \"@rari-capital/solmate/src/tokens/ERC20.sol\":2091:2095  name */\n  0x00\n    /* \"@rari-capital/solmate/src/tokens/ERC20.sol\":2091:2103  name = _name */\n  swap1\n  dup1\n  mload\n  swap1\n  0x20\n  add\n  swap1\n  tag_5\n  swap3\n  swap2\n  swap1\n  tag_6\n  jump\t// in\ntag_5:\n  pop\n    /* \"@rari-capital/solmate/src/tokens/ERC20.sol\":2122:2129  _symbol */\n  dup2\n    /* \"@rari-capital/solmate/src/tokens/ERC20.sol\":2113:2119  symbol */\n  0x01\n    /* \"@rari-capital/solmate/src/tokens/ERC20.sol\":2113:2129  symbol = _symbol */\n  swap1\n  dup1\n  mload\n  swap1\n  0x20\n  add\n  swap1\n  tag_7\n  swap3\n  swap2\n  swap1\n  tag_6\n  jump\t// in\ntag_7:\n  pop\n    /* \"@rari-capital/solmate/src/tokens/ERC20.sol\":2150:2159  _decimals */\n  dup1\n    /* \"@rari-capital/solmate/src/tokens/ERC20.sol\":2139:2159  decimals = _decimals */\n  0xff\n  and\n  0x80\n  dup2\n  0xff\n  and\n  dup2\n  mstore\n  pop\n  pop\n    /* \"@rari-capital/solmate/src/tokens/ERC20.sol\":2189:2202  block.chainid */\n  chainid\n    /* \"@rari-capital/solmate/src/tokens/ERC20.sol\":2170:2202  INITIAL_CHAIN_ID = block.chainid */\n  0xa0\n  dup2\n  dup2\n  mstore\n  pop\n  pop\n    /* \"@rari-capital/solmate/src/tokens/ERC20.sol\":2239:2263  computeDomainSeparator() */\n  tag_8\n    /* \"@rari-capital/solmate/src/tokens/ERC20.sol\":2239:2261  computeDomainSeparator */\n  shl(0x20, tag_9)\n    /* \"@rari-capital/solmate/src/tokens/ERC20.sol\":2239:2263  computeDomainSeparator() */\n  0x20\n  shr\n  jump\t// in\ntag_8:\n    /* \"@rari-capital/solmate/src/tokens/ERC20.sol\":2212:2263  INITIAL_DOMAIN_SEPARATOR = computeDomainSeparator() */\n  0xc0\n  dup2\n  dup2\n  mstore\n  pop\n  pop\n    /* \"@rari-capital/solmate/src/tokens/ERC20.sol\":1978:2270  constructor(... */\n  pop\n  pop\n  pop\n    /* \"contracts/KajuswapPair.sol\":503:7934  contract KajuswapPair is ERC20, Math {... */\n  jump(tag_11)\n    /* \"@rari-capital/solmate/src/tokens/ERC20.sol\":5507:5953  function computeDomainSeparator() internal view virtual returns (bytes32) {... */\ntag_9:\n    /* \"@rari-capital/solmate/src/tokens/ERC20.sol\":5572:5579  bytes32 */\n  0x00\n    /* \"@rari-capital/solmate/src/tokens/ERC20.sol\":5669:5764  keccak256(\"EIP712Domain(string name,string version,uint256 chainId,address verifyingContract)\") */\n  0x8b73c3c69bb8fe3d512ecc4cf759cc79239f7b179b0ffacaa9a75d522b39400f\n    /* \"@rari-capital/solmate/src/tokens/ERC20.sol\":5802:5806  name */\n  0x00\n    /* \"@rari-capital/solmate/src/tokens/ERC20.sol\":5786:5808  keccak256(bytes(name)) */\n  mload(0x40)\n  tag_13\n  swap2\n  swap1\n  tag_14\n  jump\t// in\ntag_13:\n  mload(0x40)\n  dup1\n  swap2\n  sub\n  swap1\n  keccak256\n    /* \"@rari-capital/solmate/src/tokens/ERC20.sol\":5830:5844  keccak256(\"1\") */\n  0xc89efdaa54c0f20c7adf612882df0950f5a951637e0307cdcb4c672f298b8bc6\n    /* \"@rari-capital/solmate/src/tokens/ERC20.sol\":5866:5879  block.chainid */\n  chainid\n    /* \"@rari-capital/solmate/src/tokens/ERC20.sol\":5909:5913  this */\n  address\n    /* \"@rari-capital/solmate/src/tokens/ERC20.sol\":5637:5932  abi.encode(... */\n  add(0x20, mload(0x40))\n  tag_15\n  swap6\n  swap5\n  swap4\n  swap3\n  swap2\n  swap1\n  tag_16\n  jump\t// in\ntag_15:\n  mload(0x40)\n  0x20\n  dup2\n  dup4\n  sub\n  sub\n  dup2\n  mstore\n  swap1\n  0x40\n  mstore\n    /* \"@rari-capital/solmate/src/tokens/ERC20.sol\":5610:5946  keccak256(... */\n  dup1\n  mload\n  swap1\n  0x20\n  add\n  keccak256\n    /* \"@rari-capital/solmate/src/tokens/ERC20.sol\":5591:5946  return... */\n  swap1\n  pop\n    /* \"@rari-capital/solmate/src/tokens/ERC20.sol\":5507:5953  function computeDomainSeparator() internal view virtual returns (bytes32) {... */\n  swap1\n  jump\t// out\n    /* \"contracts/KajuswapPair.sol\":503:7934  contract KajuswapPair is ERC20, Math {... */\ntag_6:\n  dup3\n  dup1\n  sload\n  tag_17\n  swap1\n  tag_18\n  jump\t// in\ntag_17:\n  swap1\n  0x00\n  mstore\n  keccak256(0x00, 0x20)\n  swap1\n  0x1f\n  add\n  0x20\n  swap1\n  div\n  dup2\n  add\n  swap3\n  dup3\n  tag_20\n  jumpi\n  0x00\n  dup6\n  sstore\n  jump(tag_19)\ntag_20:\n  dup3\n  0x1f\n  lt\n  tag_21\n  jumpi\n  dup1\n  mload\n  not(0xff)\n  and\n  dup4\n  dup1\n  add\n  or\n  dup6\n  sstore\n  jump(tag_19)\ntag_21:\n  dup3\n  dup1\n  add\n  0x01\n  add\n  dup6\n  sstore\n  dup3\n  iszero\n  tag_19\n  jumpi\n  swap2\n  dup3\n  add\ntag_22:\n  dup3\n  dup2\n  gt\n  iszero\n  tag_23\n  jumpi\n  dup3\n  mload\n  dup3\n  sstore\n  swap2\n  0x20\n  add\n  swap2\n  swap1\n  0x01\n  add\n  swap1\n  jump(tag_22)\ntag_23:\ntag_19:\n  pop\n  swap1\n  pop\n  tag_24\n  swap2\n  swap1\n  tag_25\n  jump\t// in\ntag_24:\n  pop\n  swap1\n  jump\t// out\ntag_25:\ntag_26:\n  dup1\n  dup3\n  gt\n  iszero\n  tag_27\n  jumpi\n  0x00\n  dup2\n  0x00\n  swap1\n  sstore\n  pop\n  0x01\n  add\n  jump(tag_26)\ntag_27:\n  pop\n  swap1\n  jump\t// out\n    /* \"#utility.yul\":7:187   */\ntag_28:\n    /* \"#utility.yul\":55:132   */\n  0x4e487b7100000000000000000000000000000000000000000000000000000000\n    /* \"#utility.yul\":52:53   */\n  0x00\n    /* \"#utility.yul\":45:133   */\n  mstore\n    /* \"#utility.yul\":152:156   */\n  0x22\n    /* \"#utility.yul\":149:150   */\n  0x04\n    /* \"#utility.yul\":142:157   */\n  mstore\n    /* \"#utility.yul\":176:180   */\n  0x24\n    /* \"#utility.yul\":173:174   */\n  0x00\n    /* \"#utility.yul\":166:181   */\n  revert\n    /* \"#utility.yul\":193:513   */\ntag_18:\n    /* \"#utility.yul\":237:243   */\n  0x00\n    /* \"#utility.yul\":274:275   */\n  0x02\n    /* \"#utility.yul\":268:272   */\n  dup3\n    /* \"#utility.yul\":264:276   */\n  div\n    /* \"#utility.yul\":254:276   */\n  swap1\n  pop\n    /* \"#utility.yul\":321:322   */\n  0x01\n    /* \"#utility.yul\":315:319   */\n  dup3\n    /* \"#utility.yul\":311:323   */\n  and\n    /* \"#utility.yul\":342:360   */\n  dup1\n    /* \"#utility.yul\":332:413   */\n  tag_42\n  jumpi\n    /* \"#utility.yul\":398:402   */\n  0x7f\n    /* \"#utility.yul\":390:396   */\n  dup3\n    /* \"#utility.yul\":386:403   */\n  and\n    /* \"#utility.yul\":376:403   */\n  swap2\n  pop\n    /* \"#utility.yul\":332:413   */\ntag_42:\n    /* \"#utility.yul\":460:462   */\n  0x20\n    /* \"#utility.yul\":452:458   */\n  dup3\n    /* \"#utility.yul\":449:463   */\n  lt\n    /* \"#utility.yul\":429:447   */\n  dup2\n    /* \"#utility.yul\":426:464   */\n  eq\n    /* \"#utility.yul\":423:507   */\n  iszero\n  tag_43\n  jumpi\n    /* \"#utility.yul\":479:497   */\n  tag_44\n  tag_28\n  jump\t// in\ntag_44:\n    /* \"#utility.yul\":423:507   */\ntag_43:\n    /* \"#utility.yul\":244:513   */\n  pop\n    /* \"#utility.yul\":193:513   */\n  swap2\n  swap1\n  pop\n  jump\t// out\n    /* \"#utility.yul\":519:666   */\ntag_29:\n    /* \"#utility.yul\":620:631   */\n  0x00\n    /* \"#utility.yul\":657:660   */\n  dup2\n    /* \"#utility.yul\":642:660   */\n  swap1\n  pop\n    /* \"#utility.yul\":519:666   */\n  swap3\n  swap2\n  pop\n  pop\n  jump\t// out\n    /* \"#utility.yul\":672:816   */\ntag_30:\n    /* \"#utility.yul\":724:728   */\n  0x00\n    /* \"#utility.yul\":747:750   */\n  dup2\n    /* \"#utility.yul\":739:750   */\n  swap1\n  pop\n    /* \"#utility.yul\":770:773   */\n  dup2\n    /* \"#utility.yul\":767:768   */\n  0x00\n    /* \"#utility.yul\":760:774   */\n  mstore\n    /* \"#utility.yul\":804:808   */\n  0x20\n    /* \"#utility.yul\":801:802   */\n  0x00\n    /* \"#utility.yul\":791:809   */\n  keccak256\n    /* \"#utility.yul\":783:809   */\n  swap1\n  pop\n    /* \"#utility.yul\":672:816   */\n  swap2\n  swap1\n  pop\n  jump\t// out\n    /* \"#utility.yul\":844:1693   */\ntag_31:\n    /* \"#utility.yul\":949:952   */\n  0x00\n    /* \"#utility.yul\":986:991   */\n  dup2\n    /* \"#utility.yul\":980:992   */\n  sload\n    /* \"#utility.yul\":1015:1051   */\n  tag_48\n    /* \"#utility.yul\":1041:1050   */\n  dup2\n    /* \"#utility.yul\":1015:1051   */\n  tag_18\n  jump\t// in\ntag_48:\n    /* \"#utility.yul\":1067:1155   */\n  tag_49\n    /* \"#utility.yul\":1148:1154   */\n  dup2\n    /* \"#utility.yul\":1143:1146   */\n  dup7\n    /* \"#utility.yul\":1067:1155   */\n  tag_29\n  jump\t// in\ntag_49:\n    /* \"#utility.yul\":1060:1155   */\n  swap5\n  pop\n    /* \"#utility.yul\":1186:1187   */\n  0x01\n    /* \"#utility.yul\":1175:1184   */\n  dup3\n    /* \"#utility.yul\":1171:1188   */\n  and\n    /* \"#utility.yul\":1202:1203   */\n  0x00\n    /* \"#utility.yul\":1197:1334   */\n  dup2\n  eq\n  tag_51\n  jumpi\n    /* \"#utility.yul\":1348:1349   */\n  0x01\n    /* \"#utility.yul\":1343:1687   */\n  dup2\n  eq\n  tag_52\n  jumpi\n    /* \"#utility.yul\":1164:1687   */\n  jump(tag_50)\n    /* \"#utility.yul\":1197:1334   */\ntag_51:\n    /* \"#utility.yul\":1281:1285   */\n  0xff\n    /* \"#utility.yul\":1277:1286   */\n  not\n    /* \"#utility.yul\":1266:1275   */\n  dup4\n    /* \"#utility.yul\":1262:1287   */\n  and\n    /* \"#utility.yul\":1257:1260   */\n  dup7\n    /* \"#utility.yul\":1250:1288   */\n  mstore\n    /* \"#utility.yul\":1317:1323   */\n  dup2\n    /* \"#utility.yul\":1312:1315   */\n  dup7\n    /* \"#utility.yul\":1308:1324   */\n  add\n    /* \"#utility.yul\":1301:1324   */\n  swap4\n  pop\n    /* \"#utility.yul\":1197:1334   */\n  jump(tag_50)\n    /* \"#utility.yul\":1343:1687   */\ntag_52:\n    /* \"#utility.yul\":1410:1451   */\n  tag_53\n    /* \"#utility.yul\":1445:1450   */\n  dup6\n    /* \"#utility.yul\":1410:1451   */\n  tag_30\n  jump\t// in\ntag_53:\n    /* \"#utility.yul\":1473:1474   */\n  0x00\n    /* \"#utility.yul\":1487:1641   */\ntag_54:\n    /* \"#utility.yul\":1501:1507   */\n  dup4\n    /* \"#utility.yul\":1498:1499   */\n  dup2\n    /* \"#utility.yul\":1495:1508   */\n  lt\n    /* \"#utility.yul\":1487:1641   */\n  iszero\n  tag_56\n  jumpi\n    /* \"#utility.yul\":1575:1582   */\n  dup2\n    /* \"#utility.yul\":1569:1583   */\n  sload\n    /* \"#utility.yul\":1565:1566   */\n  dup2\n    /* \"#utility.yul\":1560:1563   */\n  dup10\n    /* \"#utility.yul\":1556:1567   */\n  add\n    /* \"#utility.yul\":1549:1584   */\n  mstore\n    /* \"#utility.yul\":1625:1626   */\n  0x01\n    /* \"#utility.yul\":1616:1623   */\n  dup3\n    /* \"#utility.yul\":1612:1627   */\n  add\n    /* \"#utility.yul\":1601:1627   */\n  swap2\n  pop\n    /* \"#utility.yul\":1523:1527   */\n  0x20\n    /* \"#utility.yul\":1520:1521   */\n  dup2\n    /* \"#utility.yul\":1516:1528   */\n  add\n    /* \"#utility.yul\":1511:1528   */\n  swap1\n  pop\n    /* \"#utility.yul\":1487:1641   */\n  jump(tag_54)\ntag_56:\n    /* \"#utility.yul\":1670:1676   */\n  dup4\n    /* \"#utility.yul\":1665:1668   */\n  dup9\n    /* \"#utility.yul\":1661:1677   */\n  add\n    /* \"#utility.yul\":1654:1677   */\n  swap6\n  pop\n    /* \"#utility.yul\":1350:1687   */\n  pop\n  pop\n    /* \"#utility.yul\":1164:1687   */\ntag_50:\n  pop\n    /* \"#utility.yul\":953:1693   */\n  pop\n  pop\n    /* \"#utility.yul\":844:1693   */\n  swap3\n  swap2\n  pop\n  pop\n  jump\t// out\n    /* \"#utility.yul\":1699:1972   */\ntag_14:\n    /* \"#utility.yul\":1830:1833   */\n  0x00\n    /* \"#utility.yul\":1852:1946   */\n  tag_58\n    /* \"#utility.yul\":1942:1945   */\n  dup3\n    /* \"#utility.yul\":1933:1939   */\n  dup5\n    /* \"#utility.yul\":1852:1946   */\n  tag_31\n  jump\t// in\ntag_58:\n    /* \"#utility.yul\":1845:1946   */\n  swap2\n  pop\n    /* \"#utility.yul\":1963:1966   */\n  dup2\n    /* \"#utility.yul\":1956:1966   */\n  swap1\n  pop\n    /* \"#utility.yul\":1699:1972   */\n  swap3\n  swap2\n  pop\n  pop\n  jump\t// out\n    /* \"#utility.yul\":1978:2055   */\ntag_32:\n    /* \"#utility.yul\":2015:2022   */\n  0x00\n    /* \"#utility.yul\":2044:2049   */\n  dup2\n    /* \"#utility.yul\":2033:2049   */\n  swap1\n  pop\n    /* \"#utility.yul\":1978:2055   */\n  swap2\n  swap1\n  pop\n  jump\t// out\n    /* \"#utility.yul\":2061:2179   */\ntag_33:\n    /* \"#utility.yul\":2148:2172   */\n  tag_61\n    /* \"#utility.yul\":2166:2171   */\n  dup2\n    /* \"#utility.yul\":2148:2172   */\n  tag_32\n  jump\t// in\ntag_61:\n    /* \"#utility.yul\":2143:2146   */\n  dup3\n    /* \"#utility.yul\":2136:2173   */\n  mstore\n    /* \"#utility.yul\":2061:2179   */\n  pop\n  pop\n  jump\t// out\n    /* \"#utility.yul\":2185:2262   */\ntag_34:\n    /* \"#utility.yul\":2222:2229   */\n  0x00\n    /* \"#utility.yul\":2251:2256   */\n  dup2\n    /* \"#utility.yul\":2240:2256   */\n  swap1\n  pop\n    /* \"#utility.yul\":2185:2262   */\n  swap2\n  swap1\n  pop\n  jump\t// out\n    /* \"#utility.yul\":2268:2386   */\ntag_35:\n    /* \"#utility.yul\":2355:2379   */\n  tag_64\n    /* \"#utility.yul\":2373:2378   */\n  dup2\n    /* \"#utility.yul\":2355:2379   */\n  tag_34\n  jump\t// in\ntag_64:\n    /* \"#utility.yul\":2350:2353   */\n  dup3\n    /* \"#utility.yul\":2343:2380   */\n  mstore\n    /* \"#utility.yul\":2268:2386   */\n  pop\n  pop\n  jump\t// out\n    /* \"#utility.yul\":2392:2518   */\ntag_36:\n    /* \"#utility.yul\":2429:2436   */\n  0x00\n    /* \"#utility.yul\":2469:2511   */\n  0xffffffffffffffffffffffffffffffffffffffff\n    /* \"#utility.yul\":2462:2467   */\n  dup3\n    /* \"#utility.yul\":2458:2512   */\n  and\n    /* \"#utility.yul\":2447:2512   */\n  swap1\n  pop\n    /* \"#utility.yul\":2392:2518   */\n  swap2\n  swap1\n  pop\n  jump\t// out\n    /* \"#utility.yul\":2524:2620   */\ntag_37:\n    /* \"#utility.yul\":2561:2568   */\n  0x00\n    /* \"#utility.yul\":2590:2614   */\n  tag_67\n    /* \"#utility.yul\":2608:2613   */\n  dup3\n    /* \"#utility.yul\":2590:2614   */\n  tag_36\n  jump\t// in\ntag_67:\n    /* \"#utility.yul\":2579:2614   */\n  swap1\n  pop\n    /* \"#utility.yul\":2524:2620   */\n  swap2\n  swap1\n  pop\n  jump\t// out\n    /* \"#utility.yul\":2626:2744   */\ntag_38:\n    /* \"#utility.yul\":2713:2737   */\n  tag_69\n    /* \"#utility.yul\":2731:2736   */\n  dup2\n    /* \"#utility.yul\":2713:2737   */\n  tag_37\n  jump\t// in\ntag_69:\n    /* \"#utility.yul\":2708:2711   */\n  dup3\n    /* \"#utility.yul\":2701:2738   */\n  mstore\n    /* \"#utility.yul\":2626:2744   */\n  pop\n  pop\n  jump\t// out\n    /* \"#utility.yul\":2750:3414   */\ntag_16:\n    /* \"#utility.yul\":2955:2959   */\n  0x00\n    /* \"#utility.yul\":2993:2996   */\n  0xa0\n    /* \"#utility.yul\":2982:2991   */\n  dup3\n    /* \"#utility.yul\":2978:2997   */\n  add\n    /* \"#utility.yul\":2970:2997   */\n  swap1\n  pop\n    /* \"#utility.yul\":3007:3078   */\n  tag_71\n    /* \"#utility.yul\":3075:3076   */\n  0x00\n    /* \"#utility.yul\":3064:3073   */\n  dup4\n    /* \"#utility.yul\":3060:3077   */\n  add\n    /* \"#utility.yul\":3051:3057   */\n  dup9\n    /* \"#utility.yul\":3007:3078   */\n  tag_33\n  jump\t// in\ntag_71:\n    /* \"#utility.yul\":3088:3160   */\n  tag_72\n    /* \"#utility.yul\":3156:3158   */\n  0x20\n    /* \"#utility.yul\":3145:3154   */\n  dup4\n    /* \"#utility.yul\":3141:3159   */\n  add\n    /* \"#utility.yul\":3132:3138   */\n  dup8\n    /* \"#utility.yul\":3088:3160   */\n  tag_33\n  jump\t// in\ntag_72:\n    /* \"#utility.yul\":3170:3242   */\n  tag_73\n    /* \"#utility.yul\":3238:3240   */\n  0x40\n    /* \"#utility.yul\":3227:3236   */\n  dup4\n    /* \"#utility.yul\":3223:3241   */\n  add\n    /* \"#utility.yul\":3214:3220   */\n  dup7\n    /* \"#utility.yul\":3170:3242   */\n  tag_33\n  jump\t// in\ntag_73:\n    /* \"#utility.yul\":3252:3324   */\n  tag_74\n    /* \"#utility.yul\":3320:3322   */\n  0x60\n    /* \"#utility.yul\":3309:3318   */\n  dup4\n    /* \"#utility.yul\":3305:3323   */\n  add\n    /* \"#utility.yul\":3296:3302   */\n  dup6\n    /* \"#utility.yul\":3252:3324   */\n  tag_35\n  jump\t// in\ntag_74:\n    /* \"#utility.yul\":3334:3407   */\n  tag_75\n    /* \"#utility.yul\":3402:3405   */\n  0x80\n    /* \"#utility.yul\":3391:3400   */\n  dup4\n    /* \"#utility.yul\":3387:3406   */\n  add\n    /* \"#utility.yul\":3378:3384   */\n  dup5\n    /* \"#utility.yul\":3334:3407   */\n  tag_38\n  jump\t// in\ntag_75:\n    /* \"#utility.yul\":2750:3414   */\n  swap7\n  swap6\n  pop\n  pop\n  pop\n  pop\n  pop\n  pop\n  jump\t// out\n    /* \"contracts/KajuswapPair.sol\":503:7934  contract KajuswapPair is ERC20, Math {... */\ntag_11:\n  mload(0x80)\n  mload(0xa0)\n  mload(0xc0)\n  codecopy(0x00, dataOffset(sub_0), dataSize(sub_0))\n  0x00\n  assignImmutable(\"0x880de8116b3dfac28e9ff528a9fef1d1e0a51449c1addce011ffec1f302992b6\")\n  0x00\n  assignImmutable(\"0xd67d834462ca31eaef1f30157e31659f60355143b7441e6fc7d9eae1fa79f3f8\")\n  0x00\n  assignImmutable(\"0x6585423cb6456b1d4957f6454d2f004f0c4f58d53a00082412d5c2ef4b1b31fd\")\n  return(0x00, dataSize(sub_0))\nstop\n\nsub_0: assembly {\n        /* \"contracts/KajuswapPair.sol\":503:7934  contract KajuswapPair is ERC20, Math {... */\n      mstore(0x40, 0x80)\n      callvalue\n      dup1\n      iszero\n      tag_1\n      jumpi\n      0x00\n      dup1\n      revert\n    tag_1:\n      pop\n      jumpi(tag_2, lt(calldatasize, 0x04))\n      shr(0xe0, calldataload(0x00))\n      dup1\n      0x6a627842\n      gt\n      tag_25\n      jumpi\n      dup1\n      0x95d89b41\n      gt\n      tag_26\n      jumpi\n      dup1\n      0x95d89b41\n      eq\n      tag_19\n      jumpi\n      dup1\n      0xa9059cbb\n      eq\n      tag_20\n      jumpi\n      dup1\n      0xd21220a7\n      eq\n      tag_21\n      jumpi\n      dup1\n      0xd505accf\n      eq\n      tag_22\n      jumpi\n      dup1\n      0xdd62ed3e\n      eq\n      tag_23\n      jumpi\n      dup1\n      0xfff6cae9\n      eq\n      tag_24\n      jumpi\n      jump(tag_2)\n    tag_26:\n      dup1\n      0x6a627842\n      eq\n      tag_14\n      jumpi\n      dup1\n      0x6d9a640a\n      eq\n      tag_15\n      jumpi\n      dup1\n      0x70a08231\n      eq\n      tag_16\n      jumpi\n      dup1\n      0x7ecebe00\n      eq\n      tag_17\n      jumpi\n      dup1\n      0x89afcb44\n      eq\n      tag_18\n      jumpi\n      jump(tag_2)\n    tag_25:\n      dup1\n      0x23b872dd\n      gt\n      tag_27\n      jumpi\n      dup1\n      0x23b872dd\n      eq\n      tag_8\n      jumpi\n      dup1\n      0x313ce567\n      eq\n      tag_9\n      jumpi\n      dup1\n      0x3644e515\n      eq\n      tag_10\n      jumpi\n      dup1\n      0x485cc955\n      eq\n      tag_11\n      jumpi\n      dup1\n      0x5909c0d5\n      eq\n      tag_12\n      jumpi\n      dup1\n      0x5a3d5493\n      eq\n      tag_13\n      jumpi\n      jump(tag_2)\n    tag_27:\n      dup1\n      0x06fdde03\n      eq\n      tag_3\n      jumpi\n      dup1\n      0x0902f1ac\n      eq\n      tag_4\n      jumpi\n      dup1\n      0x095ea7b3\n      eq\n      tag_5\n      jumpi\n      dup1\n      0x0dfe1681\n      eq\n      tag_6\n      jumpi\n      dup1\n      0x18160ddd\n      eq\n      tag_7\n      jumpi\n    tag_2:\n      0x00\n      dup1\n      revert\n        /* \"@rari-capital/solmate/src/tokens/ERC20.sol\":1028:1046  string public name */\n    tag_3:\n      tag_28\n      tag_29\n      jump\t// in\n    tag_28:\n      mload(0x40)\n      tag_30\n      swap2\n      swap1\n      tag_31\n      jump\t// in\n    tag_30:\n      mload(0x40)\n      dup1\n      swap2\n      sub\n      swap1\n      return\n        /* \"contracts/KajuswapPair.sol\":1636:1854  function getReserves()... */\n    tag_4:\n      tag_32\n      tag_33\n      jump\t// in\n    tag_32:\n      mload(0x40)\n      tag_34\n      swap4\n      swap3\n      swap2\n      swap1\n      tag_35\n      jump\t// in\n    tag_34:\n      mload(0x40)\n      dup1\n      swap2\n      sub\n      swap1\n      return\n        /* \"@rari-capital/solmate/src/tokens/ERC20.sol\":2458:2669  function approve(address spender, uint256 amount) public virtual returns (bool) {... */\n    tag_5:\n      tag_36\n      0x04\n      dup1\n      calldatasize\n      sub\n      dup2\n      add\n      swap1\n      tag_37\n      swap2\n      swap1\n      tag_38\n      jump\t// in\n    tag_37:\n      tag_39\n      jump\t// in\n    tag_36:\n      mload(0x40)\n      tag_40\n      swap2\n      swap1\n      tag_41\n      jump\t// in\n    tag_40:\n      mload(0x40)\n      dup1\n      swap2\n      sub\n      swap1\n      return\n        /* \"contracts/KajuswapPair.sol\":720:741  address public token0 */\n    tag_6:\n      tag_42\n      tag_43\n      jump\t// in\n    tag_42:\n      mload(0x40)\n      tag_44\n      swap2\n      swap1\n      tag_45\n      jump\t// in\n    tag_44:\n      mload(0x40)\n      dup1\n      swap2\n      sub\n      swap1\n      return\n        /* \"@rari-capital/solmate/src/tokens/ERC20.sol\":1301:1327  uint256 public totalSupply */\n    tag_7:\n      tag_46\n      tag_47\n      jump\t// in\n    tag_46:\n      mload(0x40)\n      tag_48\n      swap2\n      swap1\n      tag_49\n      jump\t// in\n    tag_48:\n      mload(0x40)\n      dup1\n      swap2\n      sub\n      swap1\n      return\n        /* \"@rari-capital/solmate/src/tokens/ERC20.sol\":3054:3646  function transferFrom(... */\n    tag_8:\n      tag_50\n      0x04\n      dup1\n      calldatasize\n      sub\n      dup2\n      add\n      swap1\n      tag_51\n      swap2\n      swap1\n      tag_52\n      jump\t// in\n    tag_51:\n      tag_53\n      jump\t// in\n    tag_50:\n      mload(0x40)\n      tag_54\n      swap2\n      swap1\n      tag_41\n      jump\t// in\n    tag_54:\n      mload(0x40)\n      dup1\n      swap2\n      sub\n      swap1\n      return\n        /* \"@rari-capital/solmate/src/tokens/ERC20.sol\":1080:1111  uint8 public immutable decimals */\n    tag_9:\n      tag_55\n      tag_56\n      jump\t// in\n    tag_55:\n      mload(0x40)\n      tag_57\n      swap2\n      swap1\n      tag_58\n      jump\t// in\n    tag_57:\n      mload(0x40)\n      dup1\n      swap2\n      sub\n      swap1\n      return\n        /* \"@rari-capital/solmate/src/tokens/ERC20.sol\":5324:5501  function DOMAIN_SEPARATOR() public view virtual returns (bytes32) {... */\n    tag_10:\n      tag_59\n      tag_60\n      jump\t// in\n    tag_59:\n      mload(0x40)\n      tag_61\n      swap2\n      swap1\n      tag_62\n      jump\t// in\n    tag_61:\n      mload(0x40)\n      dup1\n      swap2\n      sub\n      swap1\n      return\n        /* \"contracts/KajuswapPair.sol\":2027:2411  function initialize(address token0_, address token1_) public {... */\n    tag_11:\n      tag_63\n      0x04\n      dup1\n      calldatasize\n      sub\n      dup2\n      add\n      swap1\n      tag_64\n      swap2\n      swap1\n      tag_65\n      jump\t// in\n    tag_64:\n      tag_66\n      jump\t// in\n    tag_63:\n      stop\n        /* \"contracts/KajuswapPair.sol\":882:917  uint256 public price0CumulativeLast */\n    tag_12:\n      tag_67\n      tag_68\n      jump\t// in\n    tag_67:\n      mload(0x40)\n      tag_69\n      swap2\n      swap1\n      tag_49\n      jump\t// in\n    tag_69:\n      mload(0x40)\n      dup1\n      swap2\n      sub\n      swap1\n      return\n        /* \"contracts/KajuswapPair.sol\":924:959  uint256 public price1CumulativeLast */\n    tag_13:\n      tag_70\n      tag_71\n      jump\t// in\n    tag_70:\n      mload(0x40)\n      tag_72\n      swap2\n      swap1\n      tag_49\n      jump\t// in\n    tag_72:\n      mload(0x40)\n      dup1\n      swap2\n      sub\n      swap1\n      return\n        /* \"contracts/KajuswapPair.sol\":2419:3362  function mint(address to) public lock returns (uint256 liquidity) {... */\n    tag_14:\n      tag_73\n      0x04\n      dup1\n      calldatasize\n      sub\n      dup2\n      add\n      swap1\n      tag_74\n      swap2\n      swap1\n      tag_75\n      jump\t// in\n    tag_74:\n      tag_76\n      jump\t// in\n    tag_73:\n      mload(0x40)\n      tag_77\n      swap2\n      swap1\n      tag_49\n      jump\t// in\n    tag_77:\n      mload(0x40)\n      dup1\n      swap2\n      sub\n      swap1\n      return\n        /* \"contracts/KajuswapPair.sol\":4330:5924  function swap(... */\n    tag_15:\n      tag_78\n      0x04\n      dup1\n      calldatasize\n      sub\n      dup2\n      add\n      swap1\n      tag_79\n      swap2\n      swap1\n      tag_80\n      jump\t// in\n    tag_79:\n      tag_81\n      jump\t// in\n    tag_78:\n      stop\n        /* \"@rari-capital/solmate/src/tokens/ERC20.sol\":1334:1378  mapping(address => uint256) public balanceOf */\n    tag_16:\n      tag_82\n      0x04\n      dup1\n      calldatasize\n      sub\n      dup2\n      add\n      swap1\n      tag_83\n      swap2\n      swap1\n      tag_75\n      jump\t// in\n    tag_83:\n      tag_84\n      jump\t// in\n    tag_82:\n      mload(0x40)\n      tag_85\n      swap2\n      swap1\n      tag_49\n      jump\t// in\n    tag_85:\n      mload(0x40)\n      dup1\n      swap2\n      sub\n      swap1\n      return\n        /* \"@rari-capital/solmate/src/tokens/ERC20.sol\":1748:1789  mapping(address => uint256) public nonces */\n    tag_17:\n      tag_86\n      0x04\n      dup1\n      calldatasize\n      sub\n      dup2\n      add\n      swap1\n      tag_87\n      swap2\n      swap1\n      tag_75\n      jump\t// in\n    tag_87:\n      tag_88\n      jump\t// in\n    tag_86:\n      mload(0x40)\n      tag_89\n      swap2\n      swap1\n      tag_49\n      jump\t// in\n    tag_89:\n      mload(0x40)\n      dup1\n      swap2\n      sub\n      swap1\n      return\n        /* \"contracts/KajuswapPair.sol\":3370:4322  function burn(address to)... */\n    tag_18:\n      tag_90\n      0x04\n      dup1\n      calldatasize\n      sub\n      dup2\n      add\n      swap1\n      tag_91\n      swap2\n      swap1\n      tag_75\n      jump\t// in\n    tag_91:\n      tag_92\n      jump\t// in\n    tag_90:\n      mload(0x40)\n      tag_93\n      swap3\n      swap2\n      swap1\n      tag_94\n      jump\t// in\n    tag_93:\n      mload(0x40)\n      dup1\n      swap2\n      sub\n      swap1\n      return\n        /* \"@rari-capital/solmate/src/tokens/ERC20.sol\":1053:1073  string public symbol */\n    tag_19:\n      tag_95\n      tag_96\n      jump\t// in\n    tag_95:\n      mload(0x40)\n      tag_97\n      swap2\n      swap1\n      tag_31\n      jump\t// in\n    tag_97:\n      mload(0x40)\n      dup1\n      swap2\n      sub\n      swap1\n      return\n        /* \"@rari-capital/solmate/src/tokens/ERC20.sol\":2675:3048  function transfer(address to, uint256 amount) public virtual returns (bool) {... */\n    tag_20:\n      tag_98\n      0x04\n      dup1\n      calldatasize\n      sub\n      dup2\n      add\n      swap1\n      tag_99\n      swap2\n      swap1\n      tag_38\n      jump\t// in\n    tag_99:\n      tag_100\n      jump\t// in\n    tag_98:\n      mload(0x40)\n      tag_101\n      swap2\n      swap1\n      tag_41\n      jump\t// in\n    tag_101:\n      mload(0x40)\n      dup1\n      swap2\n      sub\n      swap1\n      return\n        /* \"contracts/KajuswapPair.sol\":748:769  address public token1 */\n    tag_21:\n      tag_102\n      tag_103\n      jump\t// in\n    tag_102:\n      mload(0x40)\n      tag_104\n      swap2\n      swap1\n      tag_45\n      jump\t// in\n    tag_104:\n      mload(0x40)\n      dup1\n      swap2\n      sub\n      swap1\n      return\n        /* \"@rari-capital/solmate/src/tokens/ERC20.sol\":3835:5318  function permit(... */\n    tag_22:\n      tag_105\n      0x04\n      dup1\n      calldatasize\n      sub\n      dup2\n      add\n      swap1\n      tag_106\n      swap2\n      swap1\n      tag_107\n      jump\t// in\n    tag_106:\n      tag_108\n      jump\t// in\n    tag_105:\n      stop\n        /* \"@rari-capital/solmate/src/tokens/ERC20.sol\":1385:1449  mapping(address => mapping(address => uint256)) public allowance */\n    tag_23:\n      tag_109\n      0x04\n      dup1\n      calldatasize\n      sub\n      dup2\n      add\n      swap1\n      tag_110\n      swap2\n      swap1\n      tag_65\n      jump\t// in\n    tag_110:\n      tag_111\n      jump\t// in\n    tag_109:\n      mload(0x40)\n      tag_112\n      swap2\n      swap1\n      tag_49\n      jump\t// in\n    tag_112:\n      mload(0x40)\n      dup1\n      swap2\n      sub\n      swap1\n      return\n        /* \"contracts/KajuswapPair.sol\":5932:6220  function sync() public lock {... */\n    tag_24:\n      tag_113\n      tag_114\n      jump\t// in\n    tag_113:\n      stop\n        /* \"@rari-capital/solmate/src/tokens/ERC20.sol\":1028:1046  string public name */\n    tag_29:\n      0x00\n      dup1\n      sload\n      tag_115\n      swap1\n      tag_116\n      jump\t// in\n    tag_115:\n      dup1\n      0x1f\n      add\n      0x20\n      dup1\n      swap2\n      div\n      mul\n      0x20\n      add\n      mload(0x40)\n      swap1\n      dup2\n      add\n      0x40\n      mstore\n      dup1\n      swap3\n      swap2\n      swap1\n      dup2\n      dup2\n      mstore\n      0x20\n      add\n      dup3\n      dup1\n      sload\n      tag_117\n      swap1\n      tag_116\n      jump\t// in\n    tag_117:\n      dup1\n      iszero\n      tag_118\n      jumpi\n      dup1\n      0x1f\n      lt\n      tag_119\n      jumpi\n      0x0100\n      dup1\n      dup4\n      sload\n      div\n      mul\n      dup4\n      mstore\n      swap2\n      0x20\n      add\n      swap2\n      jump(tag_118)\n    tag_119:\n      dup3\n      add\n      swap2\n      swap1\n      0x00\n      mstore\n      keccak256(0x00, 0x20)\n      swap1\n    tag_120:\n      dup2\n      sload\n      dup2\n      mstore\n      swap1\n      0x01\n      add\n      swap1\n      0x20\n      add\n      dup1\n      dup4\n      gt\n      tag_120\n      jumpi\n      dup3\n      swap1\n      sub\n      0x1f\n      and\n      dup3\n      add\n      swap2\n    tag_118:\n      pop\n      pop\n      pop\n      pop\n      pop\n      dup2\n      jump\t// out\n        /* \"contracts/KajuswapPair.sol\":1636:1854  function getReserves()... */\n    tag_33:\n        /* \"contracts/KajuswapPair.sol\":1721:1728  uint112 */\n      0x00\n        /* \"contracts/KajuswapPair.sol\":1743:1750  uint112 */\n      dup1\n        /* \"contracts/KajuswapPair.sol\":1765:1771  uint32 */\n      0x00\n        /* \"contracts/KajuswapPair.sol\":1807:1815  reserve0 */\n      0x08\n      0x00\n      swap1\n      sload\n      swap1\n      0x0100\n      exp\n      swap1\n      div\n      0xffffffffffffffffffffffffffff\n      and\n        /* \"contracts/KajuswapPair.sol\":1817:1825  reserve1 */\n      0x08\n      0x0e\n      swap1\n      sload\n      swap1\n      0x0100\n      exp\n      swap1\n      div\n      0xffffffffffffffffffffffffffff\n      and\n        /* \"contracts/KajuswapPair.sol\":1827:1845  blockTimestampLast */\n      0x08\n      0x1c\n      swap1\n      sload\n      swap1\n      0x0100\n      exp\n      swap1\n      div\n      0xffffffff\n      and\n        /* \"contracts/KajuswapPair.sol\":1799:1846  return (reserve0, reserve1, blockTimestampLast) */\n      swap3\n      pop\n      swap3\n      pop\n      swap3\n      pop\n        /* \"contracts/KajuswapPair.sol\":1636:1854  function getReserves()... */\n      swap1\n      swap2\n      swap3\n      jump\t// out\n        /* \"@rari-capital/solmate/src/tokens/ERC20.sol\":2458:2669  function approve(address spender, uint256 amount) public virtual returns (bool) {... */\n    tag_39:\n        /* \"@rari-capital/solmate/src/tokens/ERC20.sol\":2532:2536  bool */\n      0x00\n        /* \"@rari-capital/solmate/src/tokens/ERC20.sol\":2581:2587  amount */\n      dup2\n        /* \"@rari-capital/solmate/src/tokens/ERC20.sol\":2548:2557  allowance */\n      0x04\n        /* \"@rari-capital/solmate/src/tokens/ERC20.sol\":2548:2569  allowance[msg.sender] */\n      0x00\n        /* \"@rari-capital/solmate/src/tokens/ERC20.sol\":2558:2568  msg.sender */\n      caller\n        /* \"@rari-capital/solmate/src/tokens/ERC20.sol\":2548:2569  allowance[msg.sender] */\n      0xffffffffffffffffffffffffffffffffffffffff\n      and\n      0xffffffffffffffffffffffffffffffffffffffff\n      and\n      dup2\n      mstore\n      0x20\n      add\n      swap1\n      dup2\n      mstore\n      0x20\n      add\n      0x00\n      keccak256\n        /* \"@rari-capital/solmate/src/tokens/ERC20.sol\":2548:2578  allowance[msg.sender][spender] */\n      0x00\n        /* \"@rari-capital/solmate/src/tokens/ERC20.sol\":2570:2577  spender */\n      dup6\n        /* \"@rari-capital/solmate/src/tokens/ERC20.sol\":2548:2578  allowance[msg.sender][spender] */\n      0xffffffffffffffffffffffffffffffffffffffff\n      and\n      0xffffffffffffffffffffffffffffffffffffffff\n      and\n      dup2\n      mstore\n      0x20\n      add\n      swap1\n      dup2\n      mstore\n      0x20\n      add\n      0x00\n      keccak256\n        /* \"@rari-capital/solmate/src/tokens/ERC20.sol\":2548:2587  allowance[msg.sender][spender] = amount */\n      dup2\n      swap1\n      sstore\n      pop\n        /* \"@rari-capital/solmate/src/tokens/ERC20.sol\":2624:2631  spender */\n      dup3\n        /* \"@rari-capital/solmate/src/tokens/ERC20.sol\":2603:2640  Approval(msg.sender, spender, amount) */\n      0xffffffffffffffffffffffffffffffffffffffff\n      and\n        /* \"@rari-capital/solmate/src/tokens/ERC20.sol\":2612:2622  msg.sender */\n      caller\n        /* \"@rari-capital/solmate/src/tokens/ERC20.sol\":2603:2640  Approval(msg.sender, spender, amount) */\n      0xffffffffffffffffffffffffffffffffffffffff\n      and\n      0x8c5be1e5ebec7d5bd14f71427d1e84f3dd0314c0f7b2291e5b200ac8c7c3b925\n        /* \"@rari-capital/solmate/src/tokens/ERC20.sol\":2633:2639  amount */\n      dup5\n        /* \"@rari-capital/solmate/src/tokens/ERC20.sol\":2603:2640  Approval(msg.sender, spender, amount) */\n      mload(0x40)\n      tag_123\n      swap2\n      swap1\n      tag_49\n      jump\t// in\n    tag_123:\n      mload(0x40)\n      dup1\n      swap2\n      sub\n      swap1\n      log3\n        /* \"@rari-capital/solmate/src/tokens/ERC20.sol\":2658:2662  true */\n      0x01\n        /* \"@rari-capital/solmate/src/tokens/ERC20.sol\":2651:2662  return true */\n      swap1\n      pop\n        /* \"@rari-capital/solmate/src/tokens/ERC20.sol\":2458:2669  function approve(address spender, uint256 amount) public virtual returns (bool) {... */\n      swap3\n      swap2\n      pop\n      pop\n      jump\t// out\n        /* \"contracts/KajuswapPair.sol\":720:741  address public token0 */\n    tag_43:\n      0x06\n      0x00\n      swap1\n      sload\n      swap1\n      0x0100\n      exp\n      swap1\n      div\n      0xffffffffffffffffffffffffffffffffffffffff\n      and\n      dup2\n      jump\t// out\n        /* \"@rari-capital/solmate/src/tokens/ERC20.sol\":1301:1327  uint256 public totalSupply */\n    tag_47:\n      sload(0x02)\n      dup2\n      jump\t// out\n        /* \"@rari-capital/solmate/src/tokens/ERC20.sol\":3054:3646  function transferFrom(... */\n    tag_53:\n        /* \"@rari-capital/solmate/src/tokens/ERC20.sol\":3172:3176  bool */\n      0x00\n        /* \"@rari-capital/solmate/src/tokens/ERC20.sol\":3188:3203  uint256 allowed */\n      dup1\n        /* \"@rari-capital/solmate/src/tokens/ERC20.sol\":3206:3215  allowance */\n      0x04\n        /* \"@rari-capital/solmate/src/tokens/ERC20.sol\":3206:3221  allowance[from] */\n      0x00\n        /* \"@rari-capital/solmate/src/tokens/ERC20.sol\":3216:3220  from */\n      dup7\n        /* \"@rari-capital/solmate/src/tokens/ERC20.sol\":3206:3221  allowance[from] */\n      0xffffffffffffffffffffffffffffffffffffffff\n      and\n      0xffffffffffffffffffffffffffffffffffffffff\n      and\n      dup2\n      mstore\n      0x20\n      add\n      swap1\n      dup2\n      mstore\n      0x20\n      add\n      0x00\n      keccak256\n        /* \"@rari-capital/solmate/src/tokens/ERC20.sol\":3206:3233  allowance[from][msg.sender] */\n      0x00\n        /* \"@rari-capital/solmate/src/tokens/ERC20.sol\":3222:3232  msg.sender */\n      caller\n        /* \"@rari-capital/solmate/src/tokens/ERC20.sol\":3206:3233  allowance[from][msg.sender] */\n      0xffffffffffffffffffffffffffffffffffffffff\n      and\n      0xffffffffffffffffffffffffffffffffffffffff\n      and\n      dup2\n      mstore\n      0x20\n      add\n      swap1\n      dup2\n      mstore\n      0x20\n      add\n      0x00\n      keccak256\n      sload\n        /* \"@rari-capital/solmate/src/tokens/ERC20.sol\":3188:3233  uint256 allowed = allowance[from][msg.sender] */\n      swap1\n      pop\n        /* \"@rari-capital/solmate/src/tokens/ERC20.sol\":3295:3312  type(uint256).max */\n      0xffffffffffffffffffffffffffffffffffffffffffffffffffffffffffffffff\n        /* \"@rari-capital/solmate/src/tokens/ERC20.sol\":3284:3291  allowed */\n      dup2\n        /* \"@rari-capital/solmate/src/tokens/ERC20.sol\":3284:3312  allowed != type(uint256).max */\n      eq\n        /* \"@rari-capital/solmate/src/tokens/ERC20.sol\":3280:3360  if (allowed != type(uint256).max) allowance[from][msg.sender] = allowed - amount */\n      tag_125\n      jumpi\n        /* \"@rari-capital/solmate/src/tokens/ERC20.sol\":3354:3360  amount */\n      dup3\n        /* \"@rari-capital/solmate/src/tokens/ERC20.sol\":3344:3351  allowed */\n      dup2\n        /* \"@rari-capital/solmate/src/tokens/ERC20.sol\":3344:3360  allowed - amount */\n      tag_126\n      swap2\n      swap1\n      tag_127\n      jump\t// in\n    tag_126:\n        /* \"@rari-capital/solmate/src/tokens/ERC20.sol\":3314:3323  allowance */\n      0x04\n        /* \"@rari-capital/solmate/src/tokens/ERC20.sol\":3314:3329  allowance[from] */\n      0x00\n        /* \"@rari-capital/solmate/src/tokens/ERC20.sol\":3324:3328  from */\n      dup8\n        /* \"@rari-capital/solmate/src/tokens/ERC20.sol\":3314:3329  allowance[from] */\n      0xffffffffffffffffffffffffffffffffffffffff\n      and\n      0xffffffffffffffffffffffffffffffffffffffff\n      and\n      dup2\n      mstore\n      0x20\n      add\n      swap1\n      dup2\n      mstore\n      0x20\n      add\n      0x00\n      keccak256\n        /* \"@rari-capital/solmate/src/tokens/ERC20.sol\":3314:3341  allowance[from][msg.sender] */\n      0x00\n        /* \"@rari-capital/solmate/src/tokens/ERC20.sol\":3330:3340  msg.sender */\n      caller\n        /* \"@rari-capital/solmate/src/tokens/ERC20.sol\":3314:3341  allowance[from][msg.sender] */\n      0xffffffffffffffffffffffffffffffffffffffff\n      and\n      0xffffffffffffffffffffffffffffffffffffffff\n      and\n      dup2\n      mstore\n      0x20\n      add\n      swap1\n      dup2\n      mstore\n      0x20\n      add\n      0x00\n      keccak256\n        /* \"@rari-capital/solmate/src/tokens/ERC20.sol\":3314:3360  allowance[from][msg.sender] = allowed - amount */\n      dup2\n      swap1\n      sstore\n      pop\n        /* \"@rari-capital/solmate/src/tokens/ERC20.sol\":3280:3360  if (allowed != type(uint256).max) allowance[from][msg.sender] = allowed - amount */\n    tag_125:\n        /* \"@rari-capital/solmate/src/tokens/ERC20.sol\":3390:3396  amount */\n      dup3\n        /* \"@rari-capital/solmate/src/tokens/ERC20.sol\":3371:3380  balanceOf */\n      0x03\n        /* \"@rari-capital/solmate/src/tokens/ERC20.sol\":3371:3386  balanceOf[from] */\n      0x00\n        /* \"@rari-capital/solmate/src/tokens/ERC20.sol\":3381:3385  from */\n      dup8\n        /* \"@rari-capital/solmate/src/tokens/ERC20.sol\":3371:3386  balanceOf[from] */\n      0xffffffffffffffffffffffffffffffffffffffff\n      and\n      0xffffffffffffffffffffffffffffffffffffffff\n      and\n      dup2\n      mstore\n      0x20\n      add\n      swap1\n      dup2\n      mstore\n      0x20\n      add\n      0x00\n      keccak256\n      0x00\n        /* \"@rari-capital/solmate/src/tokens/ERC20.sol\":3371:3396  balanceOf[from] -= amount */\n      dup3\n      dup3\n      sload\n      tag_128\n      swap2\n      swap1\n      tag_127\n      jump\t// in\n    tag_128:\n      swap3\n      pop\n      pop\n      dup2\n      swap1\n      sstore\n      pop\n        /* \"@rari-capital/solmate/src/tokens/ERC20.sol\":3559:3565  amount */\n      dup3\n        /* \"@rari-capital/solmate/src/tokens/ERC20.sol\":3542:3551  balanceOf */\n      0x03\n        /* \"@rari-capital/solmate/src/tokens/ERC20.sol\":3542:3555  balanceOf[to] */\n      0x00\n        /* \"@rari-capital/solmate/src/tokens/ERC20.sol\":3552:3554  to */\n      dup7\n        /* \"@rari-capital/solmate/src/tokens/ERC20.sol\":3542:3555  balanceOf[to] */\n      0xffffffffffffffffffffffffffffffffffffffff\n      and\n      0xffffffffffffffffffffffffffffffffffffffff\n      and\n      dup2\n      mstore\n      0x20\n      add\n      swap1\n      dup2\n      mstore\n      0x20\n      add\n      0x00\n      keccak256\n      0x00\n        /* \"@rari-capital/solmate/src/tokens/ERC20.sol\":3542:3565  balanceOf[to] += amount */\n      dup3\n      dup3\n      sload\n      add\n      swap3\n      pop\n      pop\n      dup2\n      swap1\n      sstore\n      pop\n        /* \"@rari-capital/solmate/src/tokens/ERC20.sol\":3606:3608  to */\n      dup4\n        /* \"@rari-capital/solmate/src/tokens/ERC20.sol\":3591:3617  Transfer(from, to, amount) */\n      0xffffffffffffffffffffffffffffffffffffffff\n      and\n        /* \"@rari-capital/solmate/src/tokens/ERC20.sol\":3600:3604  from */\n      dup6\n        /* \"@rari-capital/solmate/src/tokens/ERC20.sol\":3591:3617  Transfer(from, to, amount) */\n      0xffffffffffffffffffffffffffffffffffffffff\n      and\n      0xddf252ad1be2c89b69c2b068fc378daa952ba7f163c4a11628f55a4df523b3ef\n        /* \"@rari-capital/solmate/src/tokens/ERC20.sol\":3610:3616  amount */\n      dup6\n        /* \"@rari-capital/solmate/src/tokens/ERC20.sol\":3591:3617  Transfer(from, to, amount) */\n      mload(0x40)\n      tag_129\n      swap2\n      swap1\n      tag_49\n      jump\t// in\n    tag_129:\n      mload(0x40)\n      dup1\n      swap2\n      sub\n      swap1\n      log3\n        /* \"@rari-capital/solmate/src/tokens/ERC20.sol\":3635:3639  true */\n      0x01\n        /* \"@rari-capital/solmate/src/tokens/ERC20.sol\":3628:3639  return true */\n      swap2\n      pop\n      pop\n        /* \"@rari-capital/solmate/src/tokens/ERC20.sol\":3054:3646  function transferFrom(... */\n      swap4\n      swap3\n      pop\n      pop\n      pop\n      jump\t// out\n        /* \"@rari-capital/solmate/src/tokens/ERC20.sol\":1080:1111  uint8 public immutable decimals */\n    tag_56:\n      immutable(\"0x6585423cb6456b1d4957f6454d2f004f0c4f58d53a00082412d5c2ef4b1b31fd\")\n      dup2\n      jump\t// out\n        /* \"@rari-capital/solmate/src/tokens/ERC20.sol\":5324:5501  function DOMAIN_SEPARATOR() public view virtual returns (bytes32) {... */\n    tag_60:\n        /* \"@rari-capital/solmate/src/tokens/ERC20.sol\":5381:5388  bytes32 */\n      0x00\n        /* \"@rari-capital/solmate/src/tokens/ERC20.sol\":5424:5440  INITIAL_CHAIN_ID */\n      immutable(\"0xd67d834462ca31eaef1f30157e31659f60355143b7441e6fc7d9eae1fa79f3f8\")\n        /* \"@rari-capital/solmate/src/tokens/ERC20.sol\":5407:5420  block.chainid */\n      chainid\n        /* \"@rari-capital/solmate/src/tokens/ERC20.sol\":5407:5440  block.chainid == INITIAL_CHAIN_ID */\n      eq\n        /* \"@rari-capital/solmate/src/tokens/ERC20.sol\":5407:5494  block.chainid == INITIAL_CHAIN_ID ? INITIAL_DOMAIN_SEPARATOR : computeDomainSeparator() */\n      tag_131\n      jumpi\n        /* \"@rari-capital/solmate/src/tokens/ERC20.sol\":5470:5494  computeDomainSeparator() */\n      tag_132\n        /* \"@rari-capital/solmate/src/tokens/ERC20.sol\":5470:5492  computeDomainSeparator */\n      tag_133\n        /* \"@rari-capital/solmate/src/tokens/ERC20.sol\":5470:5494  computeDomainSeparator() */\n      jump\t// in\n    tag_132:\n        /* \"@rari-capital/solmate/src/tokens/ERC20.sol\":5407:5494  block.chainid == INITIAL_CHAIN_ID ? INITIAL_DOMAIN_SEPARATOR : computeDomainSeparator() */\n      jump(tag_134)\n    tag_131:\n        /* \"@rari-capital/solmate/src/tokens/ERC20.sol\":5443:5467  INITIAL_DOMAIN_SEPARATOR */\n      immutable(\"0x880de8116b3dfac28e9ff528a9fef1d1e0a51449c1addce011ffec1f302992b6\")\n        /* \"@rari-capital/solmate/src/tokens/ERC20.sol\":5407:5494  block.chainid == INITIAL_CHAIN_ID ? INITIAL_DOMAIN_SEPARATOR : computeDomainSeparator() */\n    tag_134:\n        /* \"@rari-capital/solmate/src/tokens/ERC20.sol\":5400:5494  return block.chainid == INITIAL_CHAIN_ID ? INITIAL_DOMAIN_SEPARATOR : computeDomainSeparator() */\n      swap1\n      pop\n        /* \"@rari-capital/solmate/src/tokens/ERC20.sol\":5324:5501  function DOMAIN_SEPARATOR() public view virtual returns (bytes32) {... */\n      swap1\n      jump\t// out\n        /* \"contracts/KajuswapPair.sol\":2027:2411  function initialize(address token0_, address token1_) public {... */\n    tag_66:\n        /* \"contracts/KajuswapPair.sol\":2182:2183  0 */\n      0x00\n        /* \"contracts/KajuswapPair.sol\":2164:2184  token0 != address(0) */\n      0xffffffffffffffffffffffffffffffffffffffff\n      and\n        /* \"contracts/KajuswapPair.sol\":2164:2170  token0 */\n      0x06\n      0x00\n      swap1\n      sload\n      swap1\n      0x0100\n      exp\n      swap1\n      div\n      0xffffffffffffffffffffffffffffffffffffffff\n      and\n        /* \"contracts/KajuswapPair.sol\":2164:2184  token0 != address(0) */\n      0xffffffffffffffffffffffffffffffffffffffff\n      and\n      eq\n      iszero\n        /* \"contracts/KajuswapPair.sol\":2164:2208  token0 != address(0) || token1 != address(0) */\n      dup1\n      tag_136\n      jumpi\n      pop\n        /* \"contracts/KajuswapPair.sol\":2206:2207  0 */\n      0x00\n        /* \"contracts/KajuswapPair.sol\":2188:2208  token1 != address(0) */\n      0xffffffffffffffffffffffffffffffffffffffff\n      and\n        /* \"contracts/KajuswapPair.sol\":2188:2194  token1 */\n      0x07\n      0x00\n      swap1\n      sload\n      swap1\n      0x0100\n      exp\n      swap1\n      div\n      0xffffffffffffffffffffffffffffffffffffffff\n      and\n        /* \"contracts/KajuswapPair.sol\":2188:2208  token1 != address(0) */\n      0xffffffffffffffffffffffffffffffffffffffff\n      and\n      eq\n      iszero\n        /* \"contracts/KajuswapPair.sol\":2164:2208  token0 != address(0) || token1 != address(0) */\n    tag_136:\n        /* \"contracts/KajuswapPair.sol\":2160:2250  if (token0 != address(0) || token1 != address(0))... */\n      iszero\n      tag_137\n      jumpi\n        /* \"contracts/KajuswapPair.sol\":2230:2250  AlreadyInitialized() */\n      mload(0x40)\n      0x0dc149f000000000000000000000000000000000000000000000000000000000\n      dup2\n      mstore\n      0x04\n      add\n      mload(0x40)\n      dup1\n      swap2\n      sub\n      swap1\n      revert\n        /* \"contracts/KajuswapPair.sol\":2160:2250  if (token0 != address(0) || token1 != address(0))... */\n    tag_137:\n        /* \"contracts/KajuswapPair.sol\":2369:2376  token0_ */\n      dup2\n        /* \"contracts/KajuswapPair.sol\":2360:2366  token0 */\n      0x06\n      0x00\n        /* \"contracts/KajuswapPair.sol\":2360:2376  token0 = token0_ */\n      0x0100\n      exp\n      dup2\n      sload\n      dup2\n      0xffffffffffffffffffffffffffffffffffffffff\n      mul\n      not\n      and\n      swap1\n      dup4\n      0xffffffffffffffffffffffffffffffffffffffff\n      and\n      mul\n      or\n      swap1\n      sstore\n      pop\n        /* \"contracts/KajuswapPair.sol\":2396:2403  token1_ */\n      dup1\n        /* \"contracts/KajuswapPair.sol\":2387:2393  token1 */\n      0x07\n      0x00\n        /* \"contracts/KajuswapPair.sol\":2387:2403  token1 = token1_ */\n      0x0100\n      exp\n      dup2\n      sload\n      dup2\n      0xffffffffffffffffffffffffffffffffffffffff\n      mul\n      not\n      and\n      swap1\n      dup4\n      0xffffffffffffffffffffffffffffffffffffffff\n      and\n      mul\n      or\n      swap1\n      sstore\n      pop\n        /* \"contracts/KajuswapPair.sol\":2027:2411  function initialize(address token0_, address token1_) public {... */\n      pop\n      pop\n      jump\t// out\n        /* \"contracts/KajuswapPair.sol\":882:917  uint256 public price0CumulativeLast */\n    tag_68:\n      sload(0x09)\n      dup2\n      jump\t// out\n        /* \"contracts/KajuswapPair.sol\":924:959  uint256 public price1CumulativeLast */\n    tag_71:\n      sload(0x0a)\n      dup2\n      jump\t// out\n        /* \"contracts/KajuswapPair.sol\":2419:3362  function mint(address to) public lock returns (uint256 liquidity) {... */\n    tag_76:\n        /* \"contracts/KajuswapPair.sol\":2466:2483  uint256 liquidity */\n      0x00\n        /* \"contracts/KajuswapPair.sol\":1497:1506  isEntered */\n      0x0b\n      0x00\n      swap1\n      sload\n      swap1\n      0x0100\n      exp\n      swap1\n      div\n      0xff\n      and\n        /* \"contracts/KajuswapPair.sol\":1496:1506  !isEntered */\n      iszero\n        /* \"contracts/KajuswapPair.sol\":1488:1553  require(!isEntered, \"Kajuswap: You cannot Enter in the contract\") */\n      tag_139\n      jumpi\n      mload(0x40)\n      0x08c379a000000000000000000000000000000000000000000000000000000000\n      dup2\n      mstore\n      0x04\n      add\n      tag_140\n      swap1\n      tag_141\n      jump\t// in\n    tag_140:\n      mload(0x40)\n      dup1\n      swap2\n      sub\n      swap1\n      revert\n    tag_139:\n        /* \"contracts/KajuswapPair.sol\":1576:1580  true */\n      0x01\n        /* \"contracts/KajuswapPair.sol\":1564:1573  isEntered */\n      0x0b\n      0x00\n        /* \"contracts/KajuswapPair.sol\":1564:1580  isEntered = true */\n      0x0100\n      exp\n      dup2\n      sload\n      dup2\n      0xff\n      mul\n      not\n      and\n      swap1\n      dup4\n      iszero\n      iszero\n      mul\n      or\n      swap1\n      sstore\n      pop\n        /* \"contracts/KajuswapPair.sol\":2497:2514  uint112 reserve0_ */\n      0x00\n        /* \"contracts/KajuswapPair.sol\":2516:2533  uint112 reserve1_ */\n      dup1\n        /* \"contracts/KajuswapPair.sol\":2539:2552  getReserves() */\n      tag_143\n        /* \"contracts/KajuswapPair.sol\":2539:2550  getReserves */\n      tag_33\n        /* \"contracts/KajuswapPair.sol\":2539:2552  getReserves() */\n      jump\t// in\n    tag_143:\n        /* \"contracts/KajuswapPair.sol\":2496:2552  (uint112 reserve0_, uint112 reserve1_, ) = getReserves() */\n      pop\n      swap2\n      pop\n      swap2\n      pop\n        /* \"contracts/KajuswapPair.sol\":2577:2593  uint256 balance0 */\n      0x00\n        /* \"contracts/KajuswapPair.sol\":2603:2609  token0 */\n      0x06\n      0x00\n      swap1\n      sload\n      swap1\n      0x0100\n      exp\n      swap1\n      div\n      0xffffffffffffffffffffffffffffffffffffffff\n      and\n        /* \"contracts/KajuswapPair.sol\":2596:2620  IERC20(token0).balanceOf */\n      0xffffffffffffffffffffffffffffffffffffffff\n      and\n      0x70a08231\n        /* \"contracts/KajuswapPair.sol\":2629:2633  this */\n      address\n        /* \"contracts/KajuswapPair.sol\":2596:2635  IERC20(token0).balanceOf(address(this)) */\n      mload(0x40)\n      dup3\n      0xffffffff\n      and\n      0xe0\n      shl\n      dup2\n      mstore\n      0x04\n      add\n      tag_144\n      swap2\n      swap1\n      tag_45\n      jump\t// in\n    tag_144:\n      0x20\n      mload(0x40)\n      dup1\n      dup4\n      sub\n      dup2\n      0x00\n      dup8\n      gas\n      call\n      iszero\n      dup1\n      iszero\n      tag_146\n      jumpi\n      returndatasize\n      0x00\n      dup1\n      returndatacopy\n      revert(0x00, returndatasize)\n    tag_146:\n      pop\n      pop\n      pop\n      pop\n      mload(0x40)\n      returndatasize\n      not(0x1f)\n      0x1f\n      dup3\n      add\n      and\n      dup3\n      add\n      dup1\n      0x40\n      mstore\n      pop\n      dup2\n      add\n      swap1\n      tag_147\n      swap2\n      swap1\n      tag_148\n      jump\t// in\n    tag_147:\n        /* \"contracts/KajuswapPair.sol\":2577:2635  uint256 balance0 = IERC20(token0).balanceOf(address(this)) */\n      swap1\n      pop\n        /* \"contracts/KajuswapPair.sol\":2646:2662  uint256 balance1 */\n      0x00\n        /* \"contracts/KajuswapPair.sol\":2672:2678  token1 */\n      0x07\n      0x00\n      swap1\n      sload\n      swap1\n      0x0100\n      exp\n      swap1\n      div\n      0xffffffffffffffffffffffffffffffffffffffff\n      and\n        /* \"contracts/KajuswapPair.sol\":2665:2689  IERC20(token1).balanceOf */\n      0xffffffffffffffffffffffffffffffffffffffff\n      and\n      0x70a08231\n        /* \"contracts/KajuswapPair.sol\":2698:2702  this */\n      address\n        /* \"contracts/KajuswapPair.sol\":2665:2704  IERC20(token1).balanceOf(address(this)) */\n      mload(0x40)\n      dup3\n      0xffffffff\n      and\n      0xe0\n      shl\n      dup2\n      mstore\n      0x04\n      add\n      tag_149\n      swap2\n      swap1\n      tag_45\n      jump\t// in\n    tag_149:\n      0x20\n      mload(0x40)\n      dup1\n      dup4\n      sub\n      dup2\n      0x00\n      dup8\n      gas\n      call\n      iszero\n      dup1\n      iszero\n      tag_151\n      jumpi\n      returndatasize\n      0x00\n      dup1\n      returndatacopy\n      revert(0x00, returndatasize)\n    tag_151:\n      pop\n      pop\n      pop\n      pop\n      mload(0x40)\n      returndatasize\n      not(0x1f)\n      0x1f\n      dup3\n      add\n      and\n      dup3\n      add\n      dup1\n      0x40\n      mstore\n      pop\n      dup2\n      add\n      swap1\n      tag_152\n      swap2\n      swap1\n      tag_148\n      jump\t// in\n    tag_152:\n        /* \"contracts/KajuswapPair.sol\":2646:2704  uint256 balance1 = IERC20(token1).balanceOf(address(this)) */\n      swap1\n      pop\n        /* \"contracts/KajuswapPair.sol\":2715:2730  uint256 amount0 */\n      0x00\n        /* \"contracts/KajuswapPair.sol\":2744:2753  reserve0_ */\n      dup5\n        /* \"contracts/KajuswapPair.sol\":2733:2753  balance0 - reserve0_ */\n      0xffffffffffffffffffffffffffff\n      and\n        /* \"contracts/KajuswapPair.sol\":2733:2741  balance0 */\n      dup4\n        /* \"contracts/KajuswapPair.sol\":2733:2753  balance0 - reserve0_ */\n      tag_153\n      swap2\n      swap1\n      tag_127\n      jump\t// in\n    tag_153:\n        /* \"contracts/KajuswapPair.sol\":2715:2753  uint256 amount0 = balance0 - reserve0_ */\n      swap1\n      pop\n        /* \"contracts/KajuswapPair.sol\":2764:2779  uint256 amount1 */\n      0x00\n        /* \"contracts/KajuswapPair.sol\":2793:2802  reserve1_ */\n      dup5\n        /* \"contracts/KajuswapPair.sol\":2782:2802  balance1 - reserve1_ */\n      0xffffffffffffffffffffffffffff\n      and\n        /* \"contracts/KajuswapPair.sol\":2782:2790  balance1 */\n      dup4\n        /* \"contracts/KajuswapPair.sol\":2782:2802  balance1 - reserve1_ */\n      tag_154\n      swap2\n      swap1\n      tag_127\n      jump\t// in\n    tag_154:\n        /* \"contracts/KajuswapPair.sol\":2764:2802  uint256 amount1 = balance1 - reserve1_ */\n      swap1\n      pop\n        /* \"contracts/KajuswapPair.sol\":2834:2835  0 */\n      0x00\n        /* \"contracts/KajuswapPair.sol\":2819:2830  totalSupply */\n      sload(0x02)\n        /* \"contracts/KajuswapPair.sol\":2819:2835  totalSupply == 0 */\n      eq\n        /* \"contracts/KajuswapPair.sol\":2815:3151  if (totalSupply == 0) {... */\n      iszero\n      tag_155\n      jumpi\n        /* \"contracts/KajuswapPair.sol\":620:624  1000 */\n      0x03e8\n        /* \"contracts/KajuswapPair.sol\":2864:2892  Math.sqrt(amount0 * amount1) */\n      tag_156\n        /* \"contracts/KajuswapPair.sol\":2884:2891  amount1 */\n      dup3\n        /* \"contracts/KajuswapPair.sol\":2874:2881  amount0 */\n      dup5\n        /* \"contracts/KajuswapPair.sol\":2874:2891  amount0 * amount1 */\n      tag_157\n      swap2\n      swap1\n      tag_158\n      jump\t// in\n    tag_157:\n        /* \"contracts/KajuswapPair.sol\":2864:2873  Math.sqrt */\n      tag_159\n        /* \"contracts/KajuswapPair.sol\":2864:2892  Math.sqrt(amount0 * amount1) */\n      jump\t// in\n    tag_156:\n        /* \"contracts/KajuswapPair.sol\":2864:2912  Math.sqrt(amount0 * amount1) - MINIMUM_LIQUIDITY */\n      tag_160\n      swap2\n      swap1\n      tag_127\n      jump\t// in\n    tag_160:\n        /* \"contracts/KajuswapPair.sol\":2852:2912  liquidity = Math.sqrt(amount0 * amount1) - MINIMUM_LIQUIDITY */\n      swap7\n      pop\n        /* \"contracts/KajuswapPair.sol\":2927:2963  _mint(address(0), MINIMUM_LIQUIDITY) */\n      tag_161\n        /* \"contracts/KajuswapPair.sol\":2941:2942  0 */\n      0x00\n        /* \"contracts/KajuswapPair.sol\":620:624  1000 */\n      0x03e8\n        /* \"contracts/KajuswapPair.sol\":2927:2932  _mint */\n      tag_162\n        /* \"contracts/KajuswapPair.sol\":2927:2963  _mint(address(0), MINIMUM_LIQUIDITY) */\n      jump\t// in\n    tag_161:\n        /* \"contracts/KajuswapPair.sol\":2815:3151  if (totalSupply == 0) {... */\n      jump(tag_163)\n    tag_155:\n        /* \"contracts/KajuswapPair.sol\":3008:3139  Math.min(... */\n      tag_164\n        /* \"contracts/KajuswapPair.sol\":3061:3070  reserve0_ */\n      dup7\n        /* \"contracts/KajuswapPair.sol\":3035:3070  (amount0 * totalSupply) / reserve0_ */\n      0xffffffffffffffffffffffffffff\n      and\n        /* \"contracts/KajuswapPair.sol\":3046:3057  totalSupply */\n      sload(0x02)\n        /* \"contracts/KajuswapPair.sol\":3036:3043  amount0 */\n      dup5\n        /* \"contracts/KajuswapPair.sol\":3036:3057  amount0 * totalSupply */\n      tag_165\n      swap2\n      swap1\n      tag_158\n      jump\t// in\n    tag_165:\n        /* \"contracts/KajuswapPair.sol\":3035:3070  (amount0 * totalSupply) / reserve0_ */\n      tag_166\n      swap2\n      swap1\n      tag_167\n      jump\t// in\n    tag_166:\n        /* \"contracts/KajuswapPair.sol\":3115:3124  reserve1_ */\n      dup7\n        /* \"contracts/KajuswapPair.sol\":3089:3124  (amount1 * totalSupply) / reserve1_ */\n      0xffffffffffffffffffffffffffff\n      and\n        /* \"contracts/KajuswapPair.sol\":3100:3111  totalSupply */\n      sload(0x02)\n        /* \"contracts/KajuswapPair.sol\":3090:3097  amount1 */\n      dup5\n        /* \"contracts/KajuswapPair.sol\":3090:3111  amount1 * totalSupply */\n      tag_168\n      swap2\n      swap1\n      tag_158\n      jump\t// in\n    tag_168:\n        /* \"contracts/KajuswapPair.sol\":3089:3124  (amount1 * totalSupply) / reserve1_ */\n      tag_169\n      swap2\n      swap1\n      tag_167\n      jump\t// in\n    tag_169:\n        /* \"contracts/KajuswapPair.sol\":3008:3016  Math.min */\n      tag_170\n        /* \"contracts/KajuswapPair.sol\":3008:3139  Math.min(... */\n      jump\t// in\n    tag_164:\n        /* \"contracts/KajuswapPair.sol\":2996:3139  liquidity = Math.min(... */\n      swap7\n      pop\n        /* \"contracts/KajuswapPair.sol\":2815:3151  if (totalSupply == 0) {... */\n    tag_163:\n        /* \"contracts/KajuswapPair.sol\":3180:3181  0 */\n      0x00\n        /* \"contracts/KajuswapPair.sol\":3167:3176  liquidity */\n      dup8\n        /* \"contracts/KajuswapPair.sol\":3167:3181  liquidity <= 0 */\n      gt\n        /* \"contracts/KajuswapPair.sol\":3163:3219  if (liquidity <= 0) revert InsufficientLiquidityMinted() */\n      tag_171\n      jumpi\n        /* \"contracts/KajuswapPair.sol\":3190:3219  InsufficientLiquidityMinted() */\n      mload(0x40)\n      0xd226f9d400000000000000000000000000000000000000000000000000000000\n      dup2\n      mstore\n      0x04\n      add\n      mload(0x40)\n      dup1\n      swap2\n      sub\n      swap1\n      revert\n        /* \"contracts/KajuswapPair.sol\":3163:3219  if (liquidity <= 0) revert InsufficientLiquidityMinted() */\n    tag_171:\n        /* \"contracts/KajuswapPair.sol\":3232:3252  _mint(to, liquidity) */\n      tag_172\n        /* \"contracts/KajuswapPair.sol\":3238:3240  to */\n      dup9\n        /* \"contracts/KajuswapPair.sol\":3242:3251  liquidity */\n      dup9\n        /* \"contracts/KajuswapPair.sol\":3232:3237  _mint */\n      tag_162\n        /* \"contracts/KajuswapPair.sol\":3232:3252  _mint(to, liquidity) */\n      jump\t// in\n    tag_172:\n        /* \"contracts/KajuswapPair.sol\":3263:3312  _update(balance0, balance1, reserve0_, reserve1_) */\n      tag_173\n        /* \"contracts/KajuswapPair.sol\":3271:3279  balance0 */\n      dup5\n        /* \"contracts/KajuswapPair.sol\":3281:3289  balance1 */\n      dup5\n        /* \"contracts/KajuswapPair.sol\":3291:3300  reserve0_ */\n      dup9\n        /* \"contracts/KajuswapPair.sol\":3302:3311  reserve1_ */\n      dup9\n        /* \"contracts/KajuswapPair.sol\":3263:3270  _update */\n      tag_174\n        /* \"contracts/KajuswapPair.sol\":3263:3312  _update(balance0, balance1, reserve0_, reserve1_) */\n      jump\t// in\n    tag_173:\n        /* \"contracts/KajuswapPair.sol\":3333:3335  to */\n      dup8\n        /* \"contracts/KajuswapPair.sol\":3328:3354  Mint(to, amount0, amount1) */\n      0xffffffffffffffffffffffffffffffffffffffff\n      and\n      0x4c209b5fc8ad50758f13e2e1088ba56a560dff690a1c6fef26394f4c03821c4f\n        /* \"contracts/KajuswapPair.sol\":3337:3344  amount0 */\n      dup4\n        /* \"contracts/KajuswapPair.sol\":3346:3353  amount1 */\n      dup4\n        /* \"contracts/KajuswapPair.sol\":3328:3354  Mint(to, amount0, amount1) */\n      mload(0x40)\n      tag_175\n      swap3\n      swap2\n      swap1\n      tag_94\n      jump\t// in\n    tag_175:\n      mload(0x40)\n      dup1\n      swap2\n      sub\n      swap1\n      log2\n        /* \"contracts/KajuswapPair.sol\":2485:3362  {... */\n      pop\n      pop\n      pop\n      pop\n      pop\n      pop\n        /* \"contracts/KajuswapPair.sol\":1615:1620  false */\n      0x00\n        /* \"contracts/KajuswapPair.sol\":1603:1612  isEntered */\n      0x0b\n      0x00\n        /* \"contracts/KajuswapPair.sol\":1603:1620  isEntered = false */\n      0x0100\n      exp\n      dup2\n      sload\n      dup2\n      0xff\n      mul\n      not\n      and\n      swap1\n      dup4\n      iszero\n      iszero\n      mul\n      or\n      swap1\n      sstore\n      pop\n        /* \"contracts/KajuswapPair.sol\":2419:3362  function mint(address to) public lock returns (uint256 liquidity) {... */\n      swap2\n      swap1\n      pop\n      jump\t// out\n        /* \"contracts/KajuswapPair.sol\":4330:5924  function swap(... */\n    tag_81:\n        /* \"contracts/KajuswapPair.sol\":1497:1506  isEntered */\n      0x0b\n      0x00\n      swap1\n      sload\n      swap1\n      0x0100\n      exp\n      swap1\n      div\n      0xff\n      and\n        /* \"contracts/KajuswapPair.sol\":1496:1506  !isEntered */\n      iszero\n        /* \"contracts/KajuswapPair.sol\":1488:1553  require(!isEntered, \"Kajuswap: You cannot Enter in the contract\") */\n      tag_177\n      jumpi\n      mload(0x40)\n      0x08c379a000000000000000000000000000000000000000000000000000000000\n      dup2\n      mstore\n      0x04\n      add\n      tag_178\n      swap1\n      tag_141\n      jump\t// in\n    tag_178:\n      mload(0x40)\n      dup1\n      swap2\n      sub\n      swap1\n      revert\n    tag_177:\n        /* \"contracts/KajuswapPair.sol\":1576:1580  true */\n      0x01\n        /* \"contracts/KajuswapPair.sol\":1564:1573  isEntered */\n      0x0b\n      0x00\n        /* \"contracts/KajuswapPair.sol\":1564:1580  isEntered = true */\n      0x0100\n      exp\n      dup2\n      sload\n      dup2\n      0xff\n      mul\n      not\n      and\n      swap1\n      dup4\n      iszero\n      iszero\n      mul\n      or\n      swap1\n      sstore\n      pop\n        /* \"contracts/KajuswapPair.sol\":4471:4472  0 */\n      0x00\n        /* \"contracts/KajuswapPair.sol\":4457:4467  amount0Out */\n      dup4\n        /* \"contracts/KajuswapPair.sol\":4457:4472  amount0Out == 0 */\n      eq\n        /* \"contracts/KajuswapPair.sol\":4457:4491  amount0Out == 0 && amount1Out == 0 */\n      dup1\n      iszero\n      tag_180\n      jumpi\n      pop\n        /* \"contracts/KajuswapPair.sol\":4490:4491  0 */\n      0x00\n        /* \"contracts/KajuswapPair.sol\":4476:4486  amount1Out */\n      dup3\n        /* \"contracts/KajuswapPair.sol\":4476:4491  amount1Out == 0 */\n      eq\n        /* \"contracts/KajuswapPair.sol\":4457:4491  amount0Out == 0 && amount1Out == 0 */\n    tag_180:\n        /* \"contracts/KajuswapPair.sol\":4453:4539  if (amount0Out == 0 && amount1Out == 0)... */\n      iszero\n      tag_181\n      jumpi\n        /* \"contracts/KajuswapPair.sol\":4513:4539  InsufficientOutputAmount() */\n      mload(0x40)\n      0x42301c2300000000000000000000000000000000000000000000000000000000\n      dup2\n      mstore\n      0x04\n      add\n      mload(0x40)\n      dup1\n      swap2\n      sub\n      swap1\n      revert\n        /* \"contracts/KajuswapPair.sol\":4453:4539  if (amount0Out == 0 && amount1Out == 0)... */\n    tag_181:\n        /* \"contracts/KajuswapPair.sol\":4553:4570  uint112 reserve0_ */\n      0x00\n        /* \"contracts/KajuswapPair.sol\":4572:4589  uint112 reserve1_ */\n      dup1\n        /* \"contracts/KajuswapPair.sol\":4595:4608  getReserves() */\n      tag_182\n        /* \"contracts/KajuswapPair.sol\":4595:4606  getReserves */\n      tag_33\n        /* \"contracts/KajuswapPair.sol\":4595:4608  getReserves() */\n      jump\t// in\n    tag_182:\n        /* \"contracts/KajuswapPair.sol\":4552:4608  (uint112 reserve0_, uint112 reserve1_, ) = getReserves() */\n      pop\n      swap2\n      pop\n      swap2\n      pop\n        /* \"contracts/KajuswapPair.sol\":4638:4647  reserve0_ */\n      dup2\n        /* \"contracts/KajuswapPair.sol\":4625:4647  amount0Out > reserve0_ */\n      0xffffffffffffffffffffffffffff\n      and\n        /* \"contracts/KajuswapPair.sol\":4625:4635  amount0Out */\n      dup6\n        /* \"contracts/KajuswapPair.sol\":4625:4647  amount0Out > reserve0_ */\n      gt\n        /* \"contracts/KajuswapPair.sol\":4625:4673  amount0Out > reserve0_ || amount1Out > reserve1_ */\n      dup1\n      tag_183\n      jumpi\n      pop\n        /* \"contracts/KajuswapPair.sol\":4664:4673  reserve1_ */\n      dup1\n        /* \"contracts/KajuswapPair.sol\":4651:4673  amount1Out > reserve1_ */\n      0xffffffffffffffffffffffffffff\n      and\n        /* \"contracts/KajuswapPair.sol\":4651:4661  amount1Out */\n      dup5\n        /* \"contracts/KajuswapPair.sol\":4651:4673  amount1Out > reserve1_ */\n      gt\n        /* \"contracts/KajuswapPair.sol\":4625:4673  amount0Out > reserve0_ || amount1Out > reserve1_ */\n    tag_183:\n        /* \"contracts/KajuswapPair.sol\":4621:4718  if (amount0Out > reserve0_ || amount1Out > reserve1_)... */\n      iszero\n      tag_184\n      jumpi\n        /* \"contracts/KajuswapPair.sol\":4695:4718  InsufficientLiquidity() */\n      mload(0x40)\n      0xbb55fd2700000000000000000000000000000000000000000000000000000000\n      dup2\n      mstore\n      0x04\n      add\n      mload(0x40)\n      dup1\n      swap2\n      sub\n      swap1\n      revert\n        /* \"contracts/KajuswapPair.sol\":4621:4718  if (amount0Out > reserve0_ || amount1Out > reserve1_)... */\n    tag_184:\n        /* \"contracts/KajuswapPair.sol\":4748:4749  0 */\n      0x00\n        /* \"contracts/KajuswapPair.sol\":4735:4745  amount0Out */\n      dup6\n        /* \"contracts/KajuswapPair.sol\":4735:4749  amount0Out > 0 */\n      gt\n        /* \"contracts/KajuswapPair.sol\":4731:4788  if (amount0Out > 0) _safeTransfer(token0, to, amount0Out) */\n      iszero\n      tag_185\n      jumpi\n        /* \"contracts/KajuswapPair.sol\":4751:4788  _safeTransfer(token0, to, amount0Out) */\n      tag_186\n        /* \"contracts/KajuswapPair.sol\":4765:4771  token0 */\n      0x06\n      0x00\n      swap1\n      sload\n      swap1\n      0x0100\n      exp\n      swap1\n      div\n      0xffffffffffffffffffffffffffffffffffffffff\n      and\n        /* \"contracts/KajuswapPair.sol\":4773:4775  to */\n      dup5\n        /* \"contracts/KajuswapPair.sol\":4777:4787  amount0Out */\n      dup8\n        /* \"contracts/KajuswapPair.sol\":4751:4764  _safeTransfer */\n      tag_187\n        /* \"contracts/KajuswapPair.sol\":4751:4788  _safeTransfer(token0, to, amount0Out) */\n      jump\t// in\n    tag_186:\n        /* \"contracts/KajuswapPair.sol\":4731:4788  if (amount0Out > 0) _safeTransfer(token0, to, amount0Out) */\n    tag_185:\n        /* \"contracts/KajuswapPair.sol\":4816:4817  0 */\n      0x00\n        /* \"contracts/KajuswapPair.sol\":4803:4813  amount1Out */\n      dup5\n        /* \"contracts/KajuswapPair.sol\":4803:4817  amount1Out > 0 */\n      gt\n        /* \"contracts/KajuswapPair.sol\":4799:4856  if (amount1Out > 0) _safeTransfer(token1, to, amount1Out) */\n      iszero\n      tag_188\n      jumpi\n        /* \"contracts/KajuswapPair.sol\":4819:4856  _safeTransfer(token1, to, amount1Out) */\n      tag_189\n        /* \"contracts/KajuswapPair.sol\":4833:4839  token1 */\n      0x07\n      0x00\n      swap1\n      sload\n      swap1\n      0x0100\n      exp\n      swap1\n      div\n      0xffffffffffffffffffffffffffffffffffffffff\n      and\n        /* \"contracts/KajuswapPair.sol\":4841:4843  to */\n      dup5\n        /* \"contracts/KajuswapPair.sol\":4845:4855  amount1Out */\n      dup7\n        /* \"contracts/KajuswapPair.sol\":4819:4832  _safeTransfer */\n      tag_187\n        /* \"contracts/KajuswapPair.sol\":4819:4856  _safeTransfer(token1, to, amount1Out) */\n      jump\t// in\n    tag_189:\n        /* \"contracts/KajuswapPair.sol\":4799:4856  if (amount1Out > 0) _safeTransfer(token1, to, amount1Out) */\n    tag_188:\n        /* \"contracts/KajuswapPair.sol\":4869:4885  uint256 balance0 */\n      0x00\n        /* \"contracts/KajuswapPair.sol\":4895:4901  token0 */\n      0x06\n      0x00\n      swap1\n      sload\n      swap1\n      0x0100\n      exp\n      swap1\n      div\n      0xffffffffffffffffffffffffffffffffffffffff\n      and\n        /* \"contracts/KajuswapPair.sol\":4888:4912  IERC20(token0).balanceOf */\n      0xffffffffffffffffffffffffffffffffffffffff\n      and\n      0x70a08231\n        /* \"contracts/KajuswapPair.sol\":4921:4925  this */\n      address\n        /* \"contracts/KajuswapPair.sol\":4888:4927  IERC20(token0).balanceOf(address(this)) */\n      mload(0x40)\n      dup3\n      0xffffffff\n      and\n      0xe0\n      shl\n      dup2\n      mstore\n      0x04\n      add\n      tag_190\n      swap2\n      swap1\n      tag_45\n      jump\t// in\n    tag_190:\n      0x20\n      mload(0x40)\n      dup1\n      dup4\n      sub\n      dup2\n      0x00\n      dup8\n      gas\n      call\n      iszero\n      dup1\n      iszero\n      tag_192\n      jumpi\n      returndatasize\n      0x00\n      dup1\n      returndatacopy\n      revert(0x00, returndatasize)\n    tag_192:\n      pop\n      pop\n      pop\n      pop\n      mload(0x40)\n      returndatasize\n      not(0x1f)\n      0x1f\n      dup3\n      add\n      and\n      dup3\n      add\n      dup1\n      0x40\n      mstore\n      pop\n      dup2\n      add\n      swap1\n      tag_193\n      swap2\n      swap1\n      tag_148\n      jump\t// in\n    tag_193:\n        /* \"contracts/KajuswapPair.sol\":4869:4927  uint256 balance0 = IERC20(token0).balanceOf(address(this)) */\n      swap1\n      pop\n        /* \"contracts/KajuswapPair.sol\":4972:4988  uint256 balance1 */\n      0x00\n        /* \"contracts/KajuswapPair.sol\":4998:5004  token1 */\n      0x07\n      0x00\n      swap1\n      sload\n      swap1\n      0x0100\n      exp\n      swap1\n      div\n      0xffffffffffffffffffffffffffffffffffffffff\n      and\n        /* \"contracts/KajuswapPair.sol\":4991:5015  IERC20(token1).balanceOf */\n      0xffffffffffffffffffffffffffffffffffffffff\n      and\n      0x70a08231\n        /* \"contracts/KajuswapPair.sol\":5024:5028  this */\n      address\n        /* \"contracts/KajuswapPair.sol\":4991:5030  IERC20(token1).balanceOf(address(this)) */\n      mload(0x40)\n      dup3\n      0xffffffff\n      and\n      0xe0\n      shl\n      dup2\n      mstore\n      0x04\n      add\n      tag_194\n      swap2\n      swap1\n      tag_45\n      jump\t// in\n    tag_194:\n      0x20\n      mload(0x40)\n      dup1\n      dup4\n      sub\n      dup2\n      0x00\n      dup8\n      gas\n      call\n      iszero\n      dup1\n      iszero\n      tag_196\n      jumpi\n      returndatasize\n      0x00\n      dup1\n      returndatacopy\n      revert(0x00, returndatasize)\n    tag_196:\n      pop\n      pop\n      pop\n      pop\n      mload(0x40)\n      returndatasize\n      not(0x1f)\n      0x1f\n      dup3\n      add\n      and\n      dup3\n      add\n      dup1\n      0x40\n      mstore\n      pop\n      dup2\n      add\n      swap1\n      tag_197\n      swap2\n      swap1\n      tag_148\n      jump\t// in\n    tag_197:\n        /* \"contracts/KajuswapPair.sol\":4972:5030  uint256 balance1 = IERC20(token1).balanceOf(address(this)) */\n      swap1\n      pop\n        /* \"contracts/KajuswapPair.sol\":5075:5092  uint256 amount0In */\n      0x00\n        /* \"contracts/KajuswapPair.sol\":5117:5127  amount0Out */\n      dup8\n        /* \"contracts/KajuswapPair.sol\":5106:5114  reserve0 */\n      0x08\n      0x00\n      swap1\n      sload\n      swap1\n      0x0100\n      exp\n      swap1\n      div\n      0xffffffffffffffffffffffffffff\n      and\n        /* \"contracts/KajuswapPair.sol\":5106:5127  reserve0 - amount0Out */\n      0xffffffffffffffffffffffffffff\n      and\n      tag_198\n      swap2\n      swap1\n      tag_127\n      jump\t// in\n    tag_198:\n        /* \"contracts/KajuswapPair.sol\":5095:5103  balance0 */\n      dup4\n        /* \"contracts/KajuswapPair.sol\":5095:5127  balance0 > reserve0 - amount0Out */\n      gt\n        /* \"contracts/KajuswapPair.sol\":5095:5194  balance0 > reserve0 - amount0Out... */\n      tag_199\n      jumpi\n        /* \"contracts/KajuswapPair.sol\":5193:5194  0 */\n      0x00\n        /* \"contracts/KajuswapPair.sol\":5095:5194  balance0 > reserve0 - amount0Out... */\n      jump(tag_200)\n    tag_199:\n        /* \"contracts/KajuswapPair.sol\":5166:5176  amount0Out */\n      dup8\n        /* \"contracts/KajuswapPair.sol\":5155:5163  reserve0 */\n      0x08\n      0x00\n      swap1\n      sload\n      swap1\n      0x0100\n      exp\n      swap1\n      div\n      0xffffffffffffffffffffffffffff\n      and\n        /* \"contracts/KajuswapPair.sol\":5155:5176  reserve0 - amount0Out */\n      0xffffffffffffffffffffffffffff\n      and\n      tag_201\n      swap2\n      swap1\n      tag_127\n      jump\t// in\n    tag_201:\n        /* \"contracts/KajuswapPair.sol\":5143:5151  balance0 */\n      dup4\n        /* \"contracts/KajuswapPair.sol\":5143:5177  balance0 - (reserve0 - amount0Out) */\n      tag_202\n      swap2\n      swap1\n      tag_127\n      jump\t// in\n    tag_202:\n        /* \"contracts/KajuswapPair.sol\":5095:5194  balance0 > reserve0 - amount0Out... */\n    tag_200:\n        /* \"contracts/KajuswapPair.sol\":5075:5194  uint256 amount0In = balance0 > reserve0 - amount0Out... */\n      swap1\n      pop\n        /* \"contracts/KajuswapPair.sol\":5205:5222  uint256 amount1In */\n      0x00\n        /* \"contracts/KajuswapPair.sol\":5247:5257  amount1Out */\n      dup8\n        /* \"contracts/KajuswapPair.sol\":5236:5244  reserve1 */\n      0x08\n      0x0e\n      swap1\n      sload\n      swap1\n      0x0100\n      exp\n      swap1\n      div\n      0xffffffffffffffffffffffffffff\n      and\n        /* \"contracts/KajuswapPair.sol\":5236:5257  reserve1 - amount1Out */\n      0xffffffffffffffffffffffffffff\n      and\n      tag_203\n      swap2\n      swap1\n      tag_127\n      jump\t// in\n    tag_203:\n        /* \"contracts/KajuswapPair.sol\":5225:5233  balance1 */\n      dup4\n        /* \"contracts/KajuswapPair.sol\":5225:5257  balance1 > reserve1 - amount1Out */\n      gt\n        /* \"contracts/KajuswapPair.sol\":5225:5324  balance1 > reserve1 - amount1Out... */\n      tag_204\n      jumpi\n        /* \"contracts/KajuswapPair.sol\":5323:5324  0 */\n      0x00\n        /* \"contracts/KajuswapPair.sol\":5225:5324  balance1 > reserve1 - amount1Out... */\n      jump(tag_205)\n    tag_204:\n        /* \"contracts/KajuswapPair.sol\":5296:5306  amount1Out */\n      dup8\n        /* \"contracts/KajuswapPair.sol\":5285:5293  reserve1 */\n      0x08\n      0x0e\n      swap1\n      sload\n      swap1\n      0x0100\n      exp\n      swap1\n      div\n      0xffffffffffffffffffffffffffff\n      and\n        /* \"contracts/KajuswapPair.sol\":5285:5306  reserve1 - amount1Out */\n      0xffffffffffffffffffffffffffff\n      and\n      tag_206\n      swap2\n      swap1\n      tag_127\n      jump\t// in\n    tag_206:\n        /* \"contracts/KajuswapPair.sol\":5273:5281  balance1 */\n      dup4\n        /* \"contracts/KajuswapPair.sol\":5273:5307  balance1 - (reserve1 - amount1Out) */\n      tag_207\n      swap2\n      swap1\n      tag_127\n      jump\t// in\n    tag_207:\n        /* \"contracts/KajuswapPair.sol\":5225:5324  balance1 > reserve1 - amount1Out... */\n    tag_205:\n        /* \"contracts/KajuswapPair.sol\":5205:5324  uint256 amount1In = balance1 > reserve1 - amount1Out... */\n      swap1\n      pop\n        /* \"contracts/KajuswapPair.sol\":5352:5353  0 */\n      0x00\n        /* \"contracts/KajuswapPair.sol\":5339:5348  amount0In */\n      dup3\n        /* \"contracts/KajuswapPair.sol\":5339:5353  amount0In == 0 */\n      eq\n        /* \"contracts/KajuswapPair.sol\":5339:5371  amount0In == 0 && amount1In == 0 */\n      dup1\n      iszero\n      tag_208\n      jumpi\n      pop\n        /* \"contracts/KajuswapPair.sol\":5370:5371  0 */\n      0x00\n        /* \"contracts/KajuswapPair.sol\":5357:5366  amount1In */\n      dup2\n        /* \"contracts/KajuswapPair.sol\":5357:5371  amount1In == 0 */\n      eq\n        /* \"contracts/KajuswapPair.sol\":5339:5371  amount0In == 0 && amount1In == 0 */\n    tag_208:\n        /* \"contracts/KajuswapPair.sol\":5335:5405  if (amount0In == 0 && amount1In == 0) revert InsufficientInputAmount() */\n      iszero\n      tag_209\n      jumpi\n        /* \"contracts/KajuswapPair.sol\":5380:5405  InsufficientInputAmount() */\n      mload(0x40)\n      0x098fb56100000000000000000000000000000000000000000000000000000000\n      dup2\n      mstore\n      0x04\n      add\n      mload(0x40)\n      dup1\n      swap2\n      sub\n      swap1\n      revert\n        /* \"contracts/KajuswapPair.sol\":5335:5405  if (amount0In == 0 && amount1In == 0) revert InsufficientInputAmount() */\n    tag_209:\n        /* \"contracts/KajuswapPair.sol\":5499:5523  uint256 balance0Adjusted */\n      0x00\n        /* \"contracts/KajuswapPair.sol\":5559:5560  3 */\n      0x03\n        /* \"contracts/KajuswapPair.sol\":5547:5556  amount0In */\n      dup4\n        /* \"contracts/KajuswapPair.sol\":5547:5560  amount0In * 3 */\n      tag_210\n      swap2\n      swap1\n      tag_158\n      jump\t// in\n    tag_210:\n        /* \"contracts/KajuswapPair.sol\":5538:5542  1000 */\n      0x03e8\n        /* \"contracts/KajuswapPair.sol\":5527:5535  balance0 */\n      dup7\n        /* \"contracts/KajuswapPair.sol\":5527:5542  balance0 * 1000 */\n      tag_211\n      swap2\n      swap1\n      tag_158\n      jump\t// in\n    tag_211:\n        /* \"contracts/KajuswapPair.sol\":5526:5561  (balance0 * 1000) - (amount0In * 3) */\n      tag_212\n      swap2\n      swap1\n      tag_127\n      jump\t// in\n    tag_212:\n        /* \"contracts/KajuswapPair.sol\":5499:5561  uint256 balance0Adjusted = (balance0 * 1000) - (amount0In * 3) */\n      swap1\n      pop\n        /* \"contracts/KajuswapPair.sol\":5572:5596  uint256 balance1Adjusted */\n      0x00\n        /* \"contracts/KajuswapPair.sol\":5632:5633  3 */\n      0x03\n        /* \"contracts/KajuswapPair.sol\":5620:5629  amount1In */\n      dup4\n        /* \"contracts/KajuswapPair.sol\":5620:5633  amount1In * 3 */\n      tag_213\n      swap2\n      swap1\n      tag_158\n      jump\t// in\n    tag_213:\n        /* \"contracts/KajuswapPair.sol\":5611:5615  1000 */\n      0x03e8\n        /* \"contracts/KajuswapPair.sol\":5600:5608  balance1 */\n      dup7\n        /* \"contracts/KajuswapPair.sol\":5600:5615  balance1 * 1000 */\n      tag_214\n      swap2\n      swap1\n      tag_158\n      jump\t// in\n    tag_214:\n        /* \"contracts/KajuswapPair.sol\":5599:5634  (balance1 * 1000) - (amount1In * 3) */\n      tag_215\n      swap2\n      swap1\n      tag_127\n      jump\t// in\n    tag_215:\n        /* \"contracts/KajuswapPair.sol\":5572:5634  uint256 balance1Adjusted = (balance1 * 1000) - (amount1In * 3) */\n      swap1\n      pop\n        /* \"contracts/KajuswapPair.sol\":5759:5766  1000**2 */\n      0x0f4240\n        /* \"contracts/KajuswapPair.sol\":5745:5754  reserve1_ */\n      dup8\n        /* \"contracts/KajuswapPair.sol\":5737:5755  uint256(reserve1_) */\n      0xffffffffffffffffffffffffffff\n      and\n        /* \"contracts/KajuswapPair.sol\":5724:5733  reserve0_ */\n      dup10\n        /* \"contracts/KajuswapPair.sol\":5716:5734  uint256(reserve0_) */\n      0xffffffffffffffffffffffffffff\n      and\n        /* \"contracts/KajuswapPair.sol\":5716:5755  uint256(reserve0_) * uint256(reserve1_) */\n      tag_216\n      swap2\n      swap1\n      tag_158\n      jump\t// in\n    tag_216:\n        /* \"contracts/KajuswapPair.sol\":5716:5767  uint256(reserve0_) * uint256(reserve1_) * (1000**2) */\n      tag_217\n      swap2\n      swap1\n      tag_158\n      jump\t// in\n    tag_217:\n        /* \"contracts/KajuswapPair.sol\":5684:5700  balance1Adjusted */\n      dup2\n        /* \"contracts/KajuswapPair.sol\":5665:5681  balance0Adjusted */\n      dup4\n        /* \"contracts/KajuswapPair.sol\":5665:5700  balance0Adjusted * balance1Adjusted */\n      tag_218\n      swap2\n      swap1\n      tag_158\n      jump\t// in\n    tag_218:\n        /* \"contracts/KajuswapPair.sol\":5665:5767  balance0Adjusted * balance1Adjusted <... */\n      lt\n        /* \"contracts/KajuswapPair.sol\":5647:5796  if (... */\n      iszero\n      tag_219\n      jumpi\n        /* \"contracts/KajuswapPair.sol\":5786:5796  InvalidK() */\n      mload(0x40)\n      0xbd8bc36400000000000000000000000000000000000000000000000000000000\n      dup2\n      mstore\n      0x04\n      add\n      mload(0x40)\n      dup1\n      swap2\n      sub\n      swap1\n      revert\n        /* \"contracts/KajuswapPair.sol\":5647:5796  if (... */\n    tag_219:\n        /* \"contracts/KajuswapPair.sol\":5807:5856  _update(balance0, balance1, reserve0_, reserve1_) */\n      tag_220\n        /* \"contracts/KajuswapPair.sol\":5815:5823  balance0 */\n      dup7\n        /* \"contracts/KajuswapPair.sol\":5825:5833  balance1 */\n      dup7\n        /* \"contracts/KajuswapPair.sol\":5835:5844  reserve0_ */\n      dup11\n        /* \"contracts/KajuswapPair.sol\":5846:5855  reserve1_ */\n      dup11\n        /* \"contracts/KajuswapPair.sol\":5807:5814  _update */\n      tag_174\n        /* \"contracts/KajuswapPair.sol\":5807:5856  _update(balance0, balance1, reserve0_, reserve1_) */\n      jump\t// in\n    tag_220:\n        /* \"contracts/KajuswapPair.sol\":5913:5915  to */\n      dup9\n        /* \"contracts/KajuswapPair.sol\":5872:5916  Swap(msg.sender, amount0Out, amount1Out, to) */\n      0xffffffffffffffffffffffffffffffffffffffff\n      and\n        /* \"contracts/KajuswapPair.sol\":5877:5887  msg.sender */\n      caller\n        /* \"contracts/KajuswapPair.sol\":5872:5916  Swap(msg.sender, amount0Out, amount1Out, to) */\n      0xffffffffffffffffffffffffffffffffffffffff\n      and\n      0x2a9237ff5aa599ef4c5ee4b1142b53429d5755e2685fe6288b2e3320202115f5\n        /* \"contracts/KajuswapPair.sol\":5889:5899  amount0Out */\n      dup14\n        /* \"contracts/KajuswapPair.sol\":5901:5911  amount1Out */\n      dup14\n        /* \"contracts/KajuswapPair.sol\":5872:5916  Swap(msg.sender, amount0Out, amount1Out, to) */\n      mload(0x40)\n      tag_221\n      swap3\n      swap2\n      swap1\n      tag_94\n      jump\t// in\n    tag_221:\n      mload(0x40)\n      dup1\n      swap2\n      sub\n      swap1\n      log3\n        /* \"contracts/KajuswapPair.sol\":4442:5924  {... */\n      pop\n      pop\n      pop\n      pop\n      pop\n      pop\n      pop\n      pop\n        /* \"contracts/KajuswapPair.sol\":1615:1620  false */\n      0x00\n        /* \"contracts/KajuswapPair.sol\":1603:1612  isEntered */\n      0x0b\n      0x00\n        /* \"contracts/KajuswapPair.sol\":1603:1620  isEntered = false */\n      0x0100\n      exp\n      dup2\n      sload\n      dup2\n      0xff\n      mul\n      not\n      and\n      swap1\n      dup4\n      iszero\n      iszero\n      mul\n      or\n      swap1\n      sstore\n      pop\n        /* \"contracts/KajuswapPair.sol\":4330:5924  function swap(... */\n      pop\n      pop\n      pop\n      jump\t// out\n        /* \"@rari-capital/solmate/src/tokens/ERC20.sol\":1334:1378  mapping(address => uint256) public balanceOf */\n    tag_84:\n      mstore(0x20, 0x03)\n      dup1\n      0x00\n      mstore\n      keccak256(0x00, 0x40)\n      0x00\n      swap2\n      pop\n      swap1\n      pop\n      sload\n      dup2\n      jump\t// out\n        /* \"@rari-capital/solmate/src/tokens/ERC20.sol\":1748:1789  mapping(address => uint256) public nonces */\n    tag_88:\n      mstore(0x20, 0x05)\n      dup1\n      0x00\n      mstore\n      keccak256(0x00, 0x40)\n      0x00\n      swap2\n      pop\n      swap1\n      pop\n      sload\n      dup2\n      jump\t// out\n        /* \"contracts/KajuswapPair.sol\":3370:4322  function burn(address to)... */\n    tag_92:\n        /* \"contracts/KajuswapPair.sol\":3444:3459  uint256 amount0 */\n      0x00\n        /* \"contracts/KajuswapPair.sol\":3461:3476  uint256 amount1 */\n      dup1\n        /* \"contracts/KajuswapPair.sol\":1497:1506  isEntered */\n      0x0b\n      0x00\n      swap1\n      sload\n      swap1\n      0x0100\n      exp\n      swap1\n      div\n      0xff\n      and\n        /* \"contracts/KajuswapPair.sol\":1496:1506  !isEntered */\n      iszero\n        /* \"contracts/KajuswapPair.sol\":1488:1553  require(!isEntered, \"Kajuswap: You cannot Enter in the contract\") */\n      tag_223\n      jumpi\n      mload(0x40)\n      0x08c379a000000000000000000000000000000000000000000000000000000000\n      dup2\n      mstore\n      0x04\n      add\n      tag_224\n      swap1\n      tag_141\n      jump\t// in\n    tag_224:\n      mload(0x40)\n      dup1\n      swap2\n      sub\n      swap1\n      revert\n    tag_223:\n        /* \"contracts/KajuswapPair.sol\":1576:1580  true */\n      0x01\n        /* \"contracts/KajuswapPair.sol\":1564:1573  isEntered */\n      0x0b\n      0x00\n        /* \"contracts/KajuswapPair.sol\":1564:1580  isEntered = true */\n      0x0100\n      exp\n      dup2\n      sload\n      dup2\n      0xff\n      mul\n      not\n      and\n      swap1\n      dup4\n      iszero\n      iszero\n      mul\n      or\n      swap1\n      sstore\n      pop\n        /* \"contracts/KajuswapPair.sol\":3494:3510  uint256 balance0 */\n      0x00\n        /* \"contracts/KajuswapPair.sol\":3520:3526  token0 */\n      0x06\n      0x00\n      swap1\n      sload\n      swap1\n      0x0100\n      exp\n      swap1\n      div\n      0xffffffffffffffffffffffffffffffffffffffff\n      and\n        /* \"contracts/KajuswapPair.sol\":3513:3537  IERC20(token0).balanceOf */\n      0xffffffffffffffffffffffffffffffffffffffff\n      and\n      0x70a08231\n        /* \"contracts/KajuswapPair.sol\":3546:3550  this */\n      address\n        /* \"contracts/KajuswapPair.sol\":3513:3552  IERC20(token0).balanceOf(address(this)) */\n      mload(0x40)\n      dup3\n      0xffffffff\n      and\n      0xe0\n      shl\n      dup2\n      mstore\n      0x04\n      add\n      tag_226\n      swap2\n      swap1\n      tag_45\n      jump\t// in\n    tag_226:\n      0x20\n      mload(0x40)\n      dup1\n      dup4\n      sub\n      dup2\n      0x00\n      dup8\n      gas\n      call\n      iszero\n      dup1\n      iszero\n      tag_228\n      jumpi\n      returndatasize\n      0x00\n      dup1\n      returndatacopy\n      revert(0x00, returndatasize)\n    tag_228:\n      pop\n      pop\n      pop\n      pop\n      mload(0x40)\n      returndatasize\n      not(0x1f)\n      0x1f\n      dup3\n      add\n      and\n      dup3\n      add\n      dup1\n      0x40\n      mstore\n      pop\n      dup2\n      add\n      swap1\n      tag_229\n      swap2\n      swap1\n      tag_148\n      jump\t// in\n    tag_229:\n        /* \"contracts/KajuswapPair.sol\":3494:3552  uint256 balance0 = IERC20(token0).balanceOf(address(this)) */\n      swap1\n      pop\n        /* \"contracts/KajuswapPair.sol\":3563:3579  uint256 balance1 */\n      0x00\n        /* \"contracts/KajuswapPair.sol\":3589:3595  token1 */\n      0x07\n      0x00\n      swap1\n      sload\n      swap1\n      0x0100\n      exp\n      swap1\n      div\n      0xffffffffffffffffffffffffffffffffffffffff\n      and\n        /* \"contracts/KajuswapPair.sol\":3582:3606  IERC20(token1).balanceOf */\n      0xffffffffffffffffffffffffffffffffffffffff\n      and\n      0x70a08231\n        /* \"contracts/KajuswapPair.sol\":3615:3619  this */\n      address\n        /* \"contracts/KajuswapPair.sol\":3582:3621  IERC20(token1).balanceOf(address(this)) */\n      mload(0x40)\n      dup3\n      0xffffffff\n      and\n      0xe0\n      shl\n      dup2\n      mstore\n      0x04\n      add\n      tag_230\n      swap2\n      swap1\n      tag_45\n      jump\t// in\n    tag_230:\n      0x20\n      mload(0x40)\n      dup1\n      dup4\n      sub\n      dup2\n      0x00\n      dup8\n      gas\n      call\n      iszero\n      dup1\n      iszero\n      tag_232\n      jumpi\n      returndatasize\n      0x00\n      dup1\n      returndatacopy\n      revert(0x00, returndatasize)\n    tag_232:\n      pop\n      pop\n      pop\n      pop\n      mload(0x40)\n      returndatasize\n      not(0x1f)\n      0x1f\n      dup3\n      add\n      and\n      dup3\n      add\n      dup1\n      0x40\n      mstore\n      pop\n      dup2\n      add\n      swap1\n      tag_233\n      swap2\n      swap1\n      tag_148\n      jump\t// in\n    tag_233:\n        /* \"contracts/KajuswapPair.sol\":3563:3621  uint256 balance1 = IERC20(token1).balanceOf(address(this)) */\n      swap1\n      pop\n        /* \"contracts/KajuswapPair.sol\":3632:3649  uint256 liquidity */\n      0x00\n        /* \"contracts/KajuswapPair.sol\":3652:3661  balanceOf */\n      0x03\n        /* \"contracts/KajuswapPair.sol\":3652:3676  balanceOf[address(this)] */\n      0x00\n        /* \"contracts/KajuswapPair.sol\":3670:3674  this */\n      address\n        /* \"contracts/KajuswapPair.sol\":3652:3676  balanceOf[address(this)] */\n      0xffffffffffffffffffffffffffffffffffffffff\n      and\n      0xffffffffffffffffffffffffffffffffffffffff\n      and\n      dup2\n      mstore\n      0x20\n      add\n      swap1\n      dup2\n      mstore\n      0x20\n      add\n      0x00\n      keccak256\n      sload\n        /* \"contracts/KajuswapPair.sol\":3632:3676  uint256 liquidity = balanceOf[address(this)] */\n      swap1\n      pop\n        /* \"contracts/KajuswapPair.sol\":3724:3735  totalSupply */\n      sload(0x02)\n        /* \"contracts/KajuswapPair.sol\":3712:3720  balance0 */\n      dup4\n        /* \"contracts/KajuswapPair.sol\":3700:3709  liquidity */\n      dup3\n        /* \"contracts/KajuswapPair.sol\":3700:3720  liquidity * balance0 */\n      tag_234\n      swap2\n      swap1\n      tag_158\n      jump\t// in\n    tag_234:\n        /* \"contracts/KajuswapPair.sol\":3699:3735  (liquidity * balance0) / totalSupply */\n      tag_235\n      swap2\n      swap1\n      tag_167\n      jump\t// in\n    tag_235:\n        /* \"contracts/KajuswapPair.sol\":3689:3735  amount0 = (liquidity * balance0) / totalSupply */\n      swap5\n      pop\n        /* \"contracts/KajuswapPair.sol\":3781:3792  totalSupply */\n      sload(0x02)\n        /* \"contracts/KajuswapPair.sol\":3769:3777  balance1 */\n      dup3\n        /* \"contracts/KajuswapPair.sol\":3757:3766  liquidity */\n      dup3\n        /* \"contracts/KajuswapPair.sol\":3757:3777  liquidity * balance1 */\n      tag_236\n      swap2\n      swap1\n      tag_158\n      jump\t// in\n    tag_236:\n        /* \"contracts/KajuswapPair.sol\":3756:3792  (liquidity * balance1) / totalSupply */\n      tag_237\n      swap2\n      swap1\n      tag_167\n      jump\t// in\n    tag_237:\n        /* \"contracts/KajuswapPair.sol\":3746:3792  amount1 = (liquidity * balance1) / totalSupply */\n      swap4\n      pop\n        /* \"contracts/KajuswapPair.sol\":3820:3821  0 */\n      0x00\n        /* \"contracts/KajuswapPair.sol\":3809:3816  amount0 */\n      dup6\n        /* \"contracts/KajuswapPair.sol\":3809:3821  amount0 == 0 */\n      eq\n        /* \"contracts/KajuswapPair.sol\":3809:3837  amount0 == 0 || amount1 == 0 */\n      dup1\n      tag_238\n      jumpi\n      pop\n        /* \"contracts/KajuswapPair.sol\":3836:3837  0 */\n      0x00\n        /* \"contracts/KajuswapPair.sol\":3825:3832  amount1 */\n      dup5\n        /* \"contracts/KajuswapPair.sol\":3825:3837  amount1 == 0 */\n      eq\n        /* \"contracts/KajuswapPair.sol\":3809:3837  amount0 == 0 || amount1 == 0 */\n    tag_238:\n        /* \"contracts/KajuswapPair.sol\":3805:3875  if (amount0 == 0 || amount1 == 0) revert InsufficientLiquidityBurned() */\n      iszero\n      tag_239\n      jumpi\n        /* \"contracts/KajuswapPair.sol\":3846:3875  InsufficientLiquidityBurned() */\n      mload(0x40)\n      0x749383ad00000000000000000000000000000000000000000000000000000000\n      dup2\n      mstore\n      0x04\n      add\n      mload(0x40)\n      dup1\n      swap2\n      sub\n      swap1\n      revert\n        /* \"contracts/KajuswapPair.sol\":3805:3875  if (amount0 == 0 || amount1 == 0) revert InsufficientLiquidityBurned() */\n    tag_239:\n        /* \"contracts/KajuswapPair.sol\":3888:3919  _burn(address(this), liquidity) */\n      tag_240\n        /* \"contracts/KajuswapPair.sol\":3902:3906  this */\n      address\n        /* \"contracts/KajuswapPair.sol\":3909:3918  liquidity */\n      dup3\n        /* \"contracts/KajuswapPair.sol\":3888:3893  _burn */\n      tag_241\n        /* \"contracts/KajuswapPair.sol\":3888:3919  _burn(address(this), liquidity) */\n      jump\t// in\n    tag_240:\n        /* \"contracts/KajuswapPair.sol\":3930:3964  _safeTransfer(token0, to, amount0) */\n      tag_242\n        /* \"contracts/KajuswapPair.sol\":3944:3950  token0 */\n      0x06\n      0x00\n      swap1\n      sload\n      swap1\n      0x0100\n      exp\n      swap1\n      div\n      0xffffffffffffffffffffffffffffffffffffffff\n      and\n        /* \"contracts/KajuswapPair.sol\":3952:3954  to */\n      dup8\n        /* \"contracts/KajuswapPair.sol\":3956:3963  amount0 */\n      dup8\n        /* \"contracts/KajuswapPair.sol\":3930:3943  _safeTransfer */\n      tag_187\n        /* \"contracts/KajuswapPair.sol\":3930:3964  _safeTransfer(token0, to, amount0) */\n      jump\t// in\n    tag_242:\n        /* \"contracts/KajuswapPair.sol\":3975:4009  _safeTransfer(token1, to, amount1) */\n      tag_243\n        /* \"contracts/KajuswapPair.sol\":3989:3995  token1 */\n      0x07\n      0x00\n      swap1\n      sload\n      swap1\n      0x0100\n      exp\n      swap1\n      div\n      0xffffffffffffffffffffffffffffffffffffffff\n      and\n        /* \"contracts/KajuswapPair.sol\":3997:3999  to */\n      dup8\n        /* \"contracts/KajuswapPair.sol\":4001:4008  amount1 */\n      dup7\n        /* \"contracts/KajuswapPair.sol\":3975:3988  _safeTransfer */\n      tag_187\n        /* \"contracts/KajuswapPair.sol\":3975:4009  _safeTransfer(token1, to, amount1) */\n      jump\t// in\n    tag_243:\n        /* \"contracts/KajuswapPair.sol\":4038:4044  token0 */\n      0x06\n      0x00\n      swap1\n      sload\n      swap1\n      0x0100\n      exp\n      swap1\n      div\n      0xffffffffffffffffffffffffffffffffffffffff\n      and\n        /* \"contracts/KajuswapPair.sol\":4031:4055  IERC20(token0).balanceOf */\n      0xffffffffffffffffffffffffffffffffffffffff\n      and\n      0x70a08231\n        /* \"contracts/KajuswapPair.sol\":4064:4068  this */\n      address\n        /* \"contracts/KajuswapPair.sol\":4031:4070  IERC20(token0).balanceOf(address(this)) */\n      mload(0x40)\n      dup3\n      0xffffffff\n      and\n      0xe0\n      shl\n      dup2\n      mstore\n      0x04\n      add\n      tag_244\n      swap2\n      swap1\n      tag_45\n      jump\t// in\n    tag_244:\n      0x20\n      mload(0x40)\n      dup1\n      dup4\n      sub\n      dup2\n      0x00\n      dup8\n      gas\n      call\n      iszero\n      dup1\n      iszero\n      tag_246\n      jumpi\n      returndatasize\n      0x00\n      dup1\n      returndatacopy\n      revert(0x00, returndatasize)\n    tag_246:\n      pop\n      pop\n      pop\n      pop\n      mload(0x40)\n      returndatasize\n      not(0x1f)\n      0x1f\n      dup3\n      add\n      and\n      dup3\n      add\n      dup1\n      0x40\n      mstore\n      pop\n      dup2\n      add\n      swap1\n      tag_247\n      swap2\n      swap1\n      tag_148\n      jump\t// in\n    tag_247:\n        /* \"contracts/KajuswapPair.sol\":4020:4070  balance0 = IERC20(token0).balanceOf(address(this)) */\n      swap3\n      pop\n        /* \"contracts/KajuswapPair.sol\":4099:4105  token1 */\n      0x07\n      0x00\n      swap1\n      sload\n      swap1\n      0x0100\n      exp\n      swap1\n      div\n      0xffffffffffffffffffffffffffffffffffffffff\n      and\n        /* \"contracts/KajuswapPair.sol\":4092:4116  IERC20(token1).balanceOf */\n      0xffffffffffffffffffffffffffffffffffffffff\n      and\n      0x70a08231\n        /* \"contracts/KajuswapPair.sol\":4125:4129  this */\n      address\n        /* \"contracts/KajuswapPair.sol\":4092:4131  IERC20(token1).balanceOf(address(this)) */\n      mload(0x40)\n      dup3\n      0xffffffff\n      and\n      0xe0\n      shl\n      dup2\n      mstore\n      0x04\n      add\n      tag_248\n      swap2\n      swap1\n      tag_45\n      jump\t// in\n    tag_248:\n      0x20\n      mload(0x40)\n      dup1\n      dup4\n      sub\n      dup2\n      0x00\n      dup8\n      gas\n      call\n      iszero\n      dup1\n      iszero\n      tag_250\n      jumpi\n      returndatasize\n      0x00\n      dup1\n      returndatacopy\n      revert(0x00, returndatasize)\n    tag_250:\n      pop\n      pop\n      pop\n      pop\n      mload(0x40)\n      returndatasize\n      not(0x1f)\n      0x1f\n      dup3\n      add\n      and\n      dup3\n      add\n      dup1\n      0x40\n      mstore\n      pop\n      dup2\n      add\n      swap1\n      tag_251\n      swap2\n      swap1\n      tag_148\n      jump\t// in\n    tag_251:\n        /* \"contracts/KajuswapPair.sol\":4081:4131  balance1 = IERC20(token1).balanceOf(address(this)) */\n      swap2\n      pop\n        /* \"contracts/KajuswapPair.sol\":4143:4160  uint112 reserve0_ */\n      0x00\n        /* \"contracts/KajuswapPair.sol\":4162:4179  uint112 reserve1_ */\n      dup1\n        /* \"contracts/KajuswapPair.sol\":4185:4198  getReserves() */\n      tag_252\n        /* \"contracts/KajuswapPair.sol\":4185:4196  getReserves */\n      tag_33\n        /* \"contracts/KajuswapPair.sol\":4185:4198  getReserves() */\n      jump\t// in\n    tag_252:\n        /* \"contracts/KajuswapPair.sol\":4142:4198  (uint112 reserve0_, uint112 reserve1_, ) = getReserves() */\n      pop\n      swap2\n      pop\n      swap2\n      pop\n        /* \"contracts/KajuswapPair.sol\":4209:4258  _update(balance0, balance1, reserve0_, reserve1_) */\n      tag_253\n        /* \"contracts/KajuswapPair.sol\":4217:4225  balance0 */\n      dup6\n        /* \"contracts/KajuswapPair.sol\":4227:4235  balance1 */\n      dup6\n        /* \"contracts/KajuswapPair.sol\":4237:4246  reserve0_ */\n      dup5\n        /* \"contracts/KajuswapPair.sol\":4248:4257  reserve1_ */\n      dup5\n        /* \"contracts/KajuswapPair.sol\":4209:4216  _update */\n      tag_174\n        /* \"contracts/KajuswapPair.sol\":4209:4258  _update(balance0, balance1, reserve0_, reserve1_) */\n      jump\t// in\n    tag_253:\n        /* \"contracts/KajuswapPair.sol\":4281:4291  msg.sender */\n      caller\n        /* \"contracts/KajuswapPair.sol\":4276:4314  Burn(msg.sender, amount0, amount1, to) */\n      0xffffffffffffffffffffffffffffffffffffffff\n      and\n      0xdccd412f0b1252819cb1fd330b93224ca42612892bb3f4f789976e6d81936496\n        /* \"contracts/KajuswapPair.sol\":4293:4300  amount0 */\n      dup9\n        /* \"contracts/KajuswapPair.sol\":4302:4309  amount1 */\n      dup9\n        /* \"contracts/KajuswapPair.sol\":4311:4313  to */\n      dup12\n        /* \"contracts/KajuswapPair.sol\":4276:4314  Burn(msg.sender, amount0, amount1, to) */\n      mload(0x40)\n      tag_254\n      swap4\n      swap3\n      swap2\n      swap1\n      tag_255\n      jump\t// in\n    tag_254:\n      mload(0x40)\n      dup1\n      swap2\n      sub\n      swap1\n      log2\n        /* \"contracts/KajuswapPair.sol\":3483:4322  {... */\n      pop\n      pop\n      pop\n      pop\n      pop\n        /* \"contracts/KajuswapPair.sol\":1615:1620  false */\n      0x00\n        /* \"contracts/KajuswapPair.sol\":1603:1612  isEntered */\n      0x0b\n      0x00\n        /* \"contracts/KajuswapPair.sol\":1603:1620  isEntered = false */\n      0x0100\n      exp\n      dup2\n      sload\n      dup2\n      0xff\n      mul\n      not\n      and\n      swap1\n      dup4\n      iszero\n      iszero\n      mul\n      or\n      swap1\n      sstore\n      pop\n        /* \"contracts/KajuswapPair.sol\":3370:4322  function burn(address to)... */\n      swap2\n      pop\n      swap2\n      jump\t// out\n        /* \"@rari-capital/solmate/src/tokens/ERC20.sol\":1053:1073  string public symbol */\n    tag_96:\n      0x01\n      dup1\n      sload\n      tag_256\n      swap1\n      tag_116\n      jump\t// in\n    tag_256:\n      dup1\n      0x1f\n      add\n      0x20\n      dup1\n      swap2\n      div\n      mul\n      0x20\n      add\n      mload(0x40)\n      swap1\n      dup2\n      add\n      0x40\n      mstore\n      dup1\n      swap3\n      swap2\n      swap1\n      dup2\n      dup2\n      mstore\n      0x20\n      add\n      dup3\n      dup1\n      sload\n      tag_257\n      swap1\n      tag_116\n      jump\t// in\n    tag_257:\n      dup1\n      iszero\n      tag_258\n      jumpi\n      dup1\n      0x1f\n      lt\n      tag_259\n      jumpi\n      0x0100\n      dup1\n      dup4\n      sload\n      div\n      mul\n      dup4\n      mstore\n      swap2\n      0x20\n      add\n      swap2\n      jump(tag_258)\n    tag_259:\n      dup3\n      add\n      swap2\n      swap1\n      0x00\n      mstore\n      keccak256(0x00, 0x20)\n      swap1\n    tag_260:\n      dup2\n      sload\n      dup2\n      mstore\n      swap1\n      0x01\n      add\n      swap1\n      0x20\n      add\n      dup1\n      dup4\n      gt\n      tag_260\n      jumpi\n      dup3\n      swap1\n      sub\n      0x1f\n      and\n      dup3\n      add\n      swap2\n    tag_258:\n      pop\n      pop\n      pop\n      pop\n      pop\n      dup2\n      jump\t// out\n        /* \"@rari-capital/solmate/src/tokens/ERC20.sol\":2675:3048  function transfer(address to, uint256 amount) public virtual returns (bool) {... */\n    tag_100:\n        /* \"@rari-capital/solmate/src/tokens/ERC20.sol\":2745:2749  bool */\n      0x00\n        /* \"@rari-capital/solmate/src/tokens/ERC20.sol\":2786:2792  amount */\n      dup2\n        /* \"@rari-capital/solmate/src/tokens/ERC20.sol\":2761:2770  balanceOf */\n      0x03\n        /* \"@rari-capital/solmate/src/tokens/ERC20.sol\":2761:2782  balanceOf[msg.sender] */\n      0x00\n        /* \"@rari-capital/solmate/src/tokens/ERC20.sol\":2771:2781  msg.sender */\n      caller\n        /* \"@rari-capital/solmate/src/tokens/ERC20.sol\":2761:2782  balanceOf[msg.sender] */\n      0xffffffffffffffffffffffffffffffffffffffff\n      and\n      0xffffffffffffffffffffffffffffffffffffffff\n      and\n      dup2\n      mstore\n      0x20\n      add\n      swap1\n      dup2\n      mstore\n      0x20\n      add\n      0x00\n      keccak256\n      0x00\n        /* \"@rari-capital/solmate/src/tokens/ERC20.sol\":2761:2792  balanceOf[msg.sender] -= amount */\n      dup3\n      dup3\n      sload\n      tag_262\n      swap2\n      swap1\n      tag_127\n      jump\t// in\n    tag_262:\n      swap3\n      pop\n      pop\n      dup2\n      swap1\n      sstore\n      pop\n        /* \"@rari-capital/solmate/src/tokens/ERC20.sol\":2955:2961  amount */\n      dup2\n        /* \"@rari-capital/solmate/src/tokens/ERC20.sol\":2938:2947  balanceOf */\n      0x03\n        /* \"@rari-capital/solmate/src/tokens/ERC20.sol\":2938:2951  balanceOf[to] */\n      0x00\n        /* \"@rari-capital/solmate/src/tokens/ERC20.sol\":2948:2950  to */\n      dup6\n        /* \"@rari-capital/solmate/src/tokens/ERC20.sol\":2938:2951  balanceOf[to] */\n      0xffffffffffffffffffffffffffffffffffffffff\n      and\n      0xffffffffffffffffffffffffffffffffffffffff\n      and\n      dup2\n      mstore\n      0x20\n      add\n      swap1\n      dup2\n      mstore\n      0x20\n      add\n      0x00\n      keccak256\n      0x00\n        /* \"@rari-capital/solmate/src/tokens/ERC20.sol\":2938:2961  balanceOf[to] += amount */\n      dup3\n      dup3\n      sload\n      add\n      swap3\n      pop\n      pop\n      dup2\n      swap1\n      sstore\n      pop\n        /* \"@rari-capital/solmate/src/tokens/ERC20.sol\":3008:3010  to */\n      dup3\n        /* \"@rari-capital/solmate/src/tokens/ERC20.sol\":2987:3019  Transfer(msg.sender, to, amount) */\n      0xffffffffffffffffffffffffffffffffffffffff\n      and\n        /* \"@rari-capital/solmate/src/tokens/ERC20.sol\":2996:3006  msg.sender */\n      caller\n        /* \"@rari-capital/solmate/src/tokens/ERC20.sol\":2987:3019  Transfer(msg.sender, to, amount) */\n      0xffffffffffffffffffffffffffffffffffffffff\n      and\n      0xddf252ad1be2c89b69c2b068fc378daa952ba7f163c4a11628f55a4df523b3ef\n        /* \"@rari-capital/solmate/src/tokens/ERC20.sol\":3012:3018  amount */\n      dup5\n        /* \"@rari-capital/solmate/src/tokens/ERC20.sol\":2987:3019  Transfer(msg.sender, to, amount) */\n      mload(0x40)\n      tag_263\n      swap2\n      swap1\n      tag_49\n      jump\t// in\n    tag_263:\n      mload(0x40)\n      dup1\n      swap2\n      sub\n      swap1\n      log3\n        /* \"@rari-capital/solmate/src/tokens/ERC20.sol\":3037:3041  true */\n      0x01\n        /* \"@rari-capital/solmate/src/tokens/ERC20.sol\":3030:3041  return true */\n      swap1\n      pop\n        /* \"@rari-capital/solmate/src/tokens/ERC20.sol\":2675:3048  function transfer(address to, uint256 amount) public virtual returns (bool) {... */\n      swap3\n      swap2\n      pop\n      pop\n      jump\t// out\n        /* \"contracts/KajuswapPair.sol\":748:769  address public token1 */\n    tag_103:\n      0x07\n      0x00\n      swap1\n      sload\n      swap1\n      0x0100\n      exp\n      swap1\n      div\n      0xffffffffffffffffffffffffffffffffffffffff\n      and\n      dup2\n      jump\t// out\n        /* \"@rari-capital/solmate/src/tokens/ERC20.sol\":3835:5318  function permit(... */\n    tag_108:\n        /* \"@rari-capital/solmate/src/tokens/ERC20.sol\":4054:4069  block.timestamp */\n      timestamp\n        /* \"@rari-capital/solmate/src/tokens/ERC20.sol\":4042:4050  deadline */\n      dup5\n        /* \"@rari-capital/solmate/src/tokens/ERC20.sol\":4042:4069  deadline >= block.timestamp */\n      lt\n      iszero\n        /* \"@rari-capital/solmate/src/tokens/ERC20.sol\":4034:4097  require(deadline >= block.timestamp, \"PERMIT_DEADLINE_EXPIRED\") */\n      tag_265\n      jumpi\n      mload(0x40)\n      0x08c379a000000000000000000000000000000000000000000000000000000000\n      dup2\n      mstore\n      0x04\n      add\n      tag_266\n      swap1\n      tag_267\n      jump\t// in\n    tag_266:\n      mload(0x40)\n      dup1\n      swap2\n      sub\n      swap1\n      revert\n    tag_265:\n        /* \"@rari-capital/solmate/src/tokens/ERC20.sol\":4262:4286  address recoveredAddress */\n      0x00\n        /* \"@rari-capital/solmate/src/tokens/ERC20.sol\":4289:5094  ecrecover(... */\n      0x01\n        /* \"@rari-capital/solmate/src/tokens/ERC20.sol\":4425:4443  DOMAIN_SEPARATOR() */\n      tag_268\n        /* \"@rari-capital/solmate/src/tokens/ERC20.sol\":4425:4441  DOMAIN_SEPARATOR */\n      tag_60\n        /* \"@rari-capital/solmate/src/tokens/ERC20.sol\":4425:4443  DOMAIN_SEPARATOR() */\n      jump\t// in\n    tag_268:\n        /* \"@rari-capital/solmate/src/tokens/ERC20.sol\":4552:4717  keccak256(... */\n      0x6e71edae12b1b97f4d1f60370fef10105fa2faae0126114a169c64845d6126c9\n        /* \"@rari-capital/solmate/src/tokens/ERC20.sol\":4751:4756  owner */\n      dup11\n        /* \"@rari-capital/solmate/src/tokens/ERC20.sol\":4790:4797  spender */\n      dup11\n        /* \"@rari-capital/solmate/src/tokens/ERC20.sol\":4831:4836  value */\n      dup11\n        /* \"@rari-capital/solmate/src/tokens/ERC20.sol\":4870:4876  nonces */\n      0x05\n        /* \"@rari-capital/solmate/src/tokens/ERC20.sol\":4870:4883  nonces[owner] */\n      0x00\n        /* \"@rari-capital/solmate/src/tokens/ERC20.sol\":4877:4882  owner */\n      dup16\n        /* \"@rari-capital/solmate/src/tokens/ERC20.sol\":4870:4883  nonces[owner] */\n      0xffffffffffffffffffffffffffffffffffffffff\n      and\n      0xffffffffffffffffffffffffffffffffffffffff\n      and\n      dup2\n      mstore\n      0x20\n      add\n      swap1\n      dup2\n      mstore\n      0x20\n      add\n      0x00\n      keccak256\n      0x00\n        /* \"@rari-capital/solmate/src/tokens/ERC20.sol\":4870:4885  nonces[owner]++ */\n      dup2\n      sload\n      dup1\n      swap3\n      swap2\n      swap1\n      0x01\n      add\n      swap2\n      swap1\n      pop\n      sstore\n        /* \"@rari-capital/solmate/src/tokens/ERC20.sol\":4919:4927  deadline */\n      dup12\n        /* \"@rari-capital/solmate/src/tokens/ERC20.sol\":4508:4957  abi.encode(... */\n      add(0x20, mload(0x40))\n      tag_269\n      swap7\n      swap6\n      swap5\n      swap4\n      swap3\n      swap2\n      swap1\n      tag_270\n      jump\t// in\n    tag_269:\n      mload(0x40)\n      0x20\n      dup2\n      dup4\n      sub\n      sub\n      dup2\n      mstore\n      swap1\n      0x40\n      mstore\n        /* \"@rari-capital/solmate/src/tokens/ERC20.sol\":4469:4983  keccak256(... */\n      dup1\n      mload\n      swap1\n      0x20\n      add\n      keccak256\n        /* \"@rari-capital/solmate/src/tokens/ERC20.sol\":4347:5005  abi.encodePacked(... */\n      add(0x20, mload(0x40))\n      tag_271\n      swap3\n      swap2\n      swap1\n      tag_272\n      jump\t// in\n    tag_271:\n      mload(0x40)\n      0x20\n      dup2\n      dup4\n      sub\n      sub\n      dup2\n      mstore\n      swap1\n      0x40\n      mstore\n        /* \"@rari-capital/solmate/src/tokens/ERC20.sol\":4316:5023  keccak256(... */\n      dup1\n      mload\n      swap1\n      0x20\n      add\n      keccak256\n        /* \"@rari-capital/solmate/src/tokens/ERC20.sol\":5041:5042  v */\n      dup6\n        /* \"@rari-capital/solmate/src/tokens/ERC20.sol\":5060:5061  r */\n      dup6\n        /* \"@rari-capital/solmate/src/tokens/ERC20.sol\":5079:5080  s */\n      dup6\n        /* \"@rari-capital/solmate/src/tokens/ERC20.sol\":4289:5094  ecrecover(... */\n      mload(0x40)\n      0x00\n      dup2\n      mstore\n      0x20\n      add\n      0x40\n      mstore\n      mload(0x40)\n      tag_273\n      swap5\n      swap4\n      swap3\n      swap2\n      swap1\n      tag_274\n      jump\t// in\n    tag_273:\n      0x20\n      mload(0x40)\n      0x20\n      dup2\n      sub\n      swap1\n      dup1\n      dup5\n      sub\n      swap1\n      dup6\n      gas\n      staticcall\n      iszero\n      dup1\n      iszero\n      tag_276\n      jumpi\n      returndatasize\n      0x00\n      dup1\n      returndatacopy\n      revert(0x00, returndatasize)\n    tag_276:\n      pop\n      pop\n      pop\n      mload(sub(mload(0x40), 0x20))\n        /* \"@rari-capital/solmate/src/tokens/ERC20.sol\":4262:5094  address recoveredAddress = ecrecover(... */\n      swap1\n      pop\n        /* \"@rari-capital/solmate/src/tokens/ERC20.sol\":5145:5146  0 */\n      0x00\n        /* \"@rari-capital/solmate/src/tokens/ERC20.sol\":5117:5147  recoveredAddress != address(0) */\n      0xffffffffffffffffffffffffffffffffffffffff\n      and\n        /* \"@rari-capital/solmate/src/tokens/ERC20.sol\":5117:5133  recoveredAddress */\n      dup2\n        /* \"@rari-capital/solmate/src/tokens/ERC20.sol\":5117:5147  recoveredAddress != address(0) */\n      0xffffffffffffffffffffffffffffffffffffffff\n      and\n      eq\n      iszero\n        /* \"@rari-capital/solmate/src/tokens/ERC20.sol\":5117:5176  recoveredAddress != address(0) && recoveredAddress == owner */\n      dup1\n      iszero\n      tag_277\n      jumpi\n      pop\n        /* \"@rari-capital/solmate/src/tokens/ERC20.sol\":5171:5176  owner */\n      dup8\n        /* \"@rari-capital/solmate/src/tokens/ERC20.sol\":5151:5176  recoveredAddress == owner */\n      0xffffffffffffffffffffffffffffffffffffffff\n      and\n        /* \"@rari-capital/solmate/src/tokens/ERC20.sol\":5151:5167  recoveredAddress */\n      dup2\n        /* \"@rari-capital/solmate/src/tokens/ERC20.sol\":5151:5176  recoveredAddress == owner */\n      0xffffffffffffffffffffffffffffffffffffffff\n      and\n      eq\n        /* \"@rari-capital/solmate/src/tokens/ERC20.sol\":5117:5176  recoveredAddress != address(0) && recoveredAddress == owner */\n    tag_277:\n        /* \"@rari-capital/solmate/src/tokens/ERC20.sol\":5109:5195  require(recoveredAddress != address(0) && recoveredAddress == owner, \"INVALID_SIGNER\") */\n      tag_278\n      jumpi\n      mload(0x40)\n      0x08c379a000000000000000000000000000000000000000000000000000000000\n      dup2\n      mstore\n      0x04\n      add\n      tag_279\n      swap1\n      tag_280\n      jump\t// in\n    tag_279:\n      mload(0x40)\n      dup1\n      swap2\n      sub\n      swap1\n      revert\n    tag_278:\n        /* \"@rari-capital/solmate/src/tokens/ERC20.sol\":5249:5254  value */\n      dup6\n        /* \"@rari-capital/solmate/src/tokens/ERC20.sol\":5210:5219  allowance */\n      0x04\n        /* \"@rari-capital/solmate/src/tokens/ERC20.sol\":5210:5237  allowance[recoveredAddress] */\n      0x00\n        /* \"@rari-capital/solmate/src/tokens/ERC20.sol\":5220:5236  recoveredAddress */\n      dup4\n        /* \"@rari-capital/solmate/src/tokens/ERC20.sol\":5210:5237  allowance[recoveredAddress] */\n      0xffffffffffffffffffffffffffffffffffffffff\n      and\n      0xffffffffffffffffffffffffffffffffffffffff\n      and\n      dup2\n      mstore\n      0x20\n      add\n      swap1\n      dup2\n      mstore\n      0x20\n      add\n      0x00\n      keccak256\n        /* \"@rari-capital/solmate/src/tokens/ERC20.sol\":5210:5246  allowance[recoveredAddress][spender] */\n      0x00\n        /* \"@rari-capital/solmate/src/tokens/ERC20.sol\":5238:5245  spender */\n      dup10\n        /* \"@rari-capital/solmate/src/tokens/ERC20.sol\":5210:5246  allowance[recoveredAddress][spender] */\n      0xffffffffffffffffffffffffffffffffffffffff\n      and\n      0xffffffffffffffffffffffffffffffffffffffff\n      and\n      dup2\n      mstore\n      0x20\n      add\n      swap1\n      dup2\n      mstore\n      0x20\n      add\n      0x00\n      keccak256\n        /* \"@rari-capital/solmate/src/tokens/ERC20.sol\":5210:5254  allowance[recoveredAddress][spender] = value */\n      dup2\n      swap1\n      sstore\n      pop\n        /* \"@rari-capital/solmate/src/tokens/ERC20.sol\":4238:5265  unchecked {... */\n      pop\n        /* \"@rari-capital/solmate/src/tokens/ERC20.sol\":5296:5303  spender */\n      dup6\n        /* \"@rari-capital/solmate/src/tokens/ERC20.sol\":5280:5311  Approval(owner, spender, value) */\n      0xffffffffffffffffffffffffffffffffffffffff\n      and\n        /* \"@rari-capital/solmate/src/tokens/ERC20.sol\":5289:5294  owner */\n      dup8\n        /* \"@rari-capital/solmate/src/tokens/ERC20.sol\":5280:5311  Approval(owner, spender, value) */\n      0xffffffffffffffffffffffffffffffffffffffff\n      and\n      0x8c5be1e5ebec7d5bd14f71427d1e84f3dd0314c0f7b2291e5b200ac8c7c3b925\n        /* \"@rari-capital/solmate/src/tokens/ERC20.sol\":5305:5310  value */\n      dup8\n        /* \"@rari-capital/solmate/src/tokens/ERC20.sol\":5280:5311  Approval(owner, spender, value) */\n      mload(0x40)\n      tag_281\n      swap2\n      swap1\n      tag_49\n      jump\t// in\n    tag_281:\n      mload(0x40)\n      dup1\n      swap2\n      sub\n      swap1\n      log3\n        /* \"@rari-capital/solmate/src/tokens/ERC20.sol\":3835:5318  function permit(... */\n      pop\n      pop\n      pop\n      pop\n      pop\n      pop\n      pop\n      jump\t// out\n        /* \"@rari-capital/solmate/src/tokens/ERC20.sol\":1385:1449  mapping(address => mapping(address => uint256)) public allowance */\n    tag_111:\n      mstore(0x20, 0x04)\n      dup2\n      0x00\n      mstore\n      mstore(0x20, keccak256(0x00, 0x40))\n      dup1\n      0x00\n      mstore\n      keccak256(0x00, 0x40)\n      0x00\n      swap2\n      pop\n      swap2\n      pop\n      pop\n      sload\n      dup2\n      jump\t// out\n        /* \"contracts/KajuswapPair.sol\":5932:6220  function sync() public lock {... */\n    tag_114:\n        /* \"contracts/KajuswapPair.sol\":1497:1506  isEntered */\n      0x0b\n      0x00\n      swap1\n      sload\n      swap1\n      0x0100\n      exp\n      swap1\n      div\n      0xff\n      and\n        /* \"contracts/KajuswapPair.sol\":1496:1506  !isEntered */\n      iszero\n        /* \"contracts/KajuswapPair.sol\":1488:1553  require(!isEntered, \"Kajuswap: You cannot Enter in the contract\") */\n      tag_283\n      jumpi\n      mload(0x40)\n      0x08c379a000000000000000000000000000000000000000000000000000000000\n      dup2\n      mstore\n      0x04\n      add\n      tag_284\n      swap1\n      tag_141\n      jump\t// in\n    tag_284:\n      mload(0x40)\n      dup1\n      swap2\n      sub\n      swap1\n      revert\n    tag_283:\n        /* \"contracts/KajuswapPair.sol\":1576:1580  true */\n      0x01\n        /* \"contracts/KajuswapPair.sol\":1564:1573  isEntered */\n      0x0b\n      0x00\n        /* \"contracts/KajuswapPair.sol\":1564:1580  isEntered = true */\n      0x0100\n      exp\n      dup2\n      sload\n      dup2\n      0xff\n      mul\n      not\n      and\n      swap1\n      dup4\n      iszero\n      iszero\n      mul\n      or\n      swap1\n      sstore\n      pop\n        /* \"contracts/KajuswapPair.sol\":5972:5989  uint112 reserve0_ */\n      0x00\n        /* \"contracts/KajuswapPair.sol\":5991:6008  uint112 reserve1_ */\n      dup1\n        /* \"contracts/KajuswapPair.sol\":6014:6027  getReserves() */\n      tag_286\n        /* \"contracts/KajuswapPair.sol\":6014:6025  getReserves */\n      tag_33\n        /* \"contracts/KajuswapPair.sol\":6014:6027  getReserves() */\n      jump\t// in\n    tag_286:\n        /* \"contracts/KajuswapPair.sol\":5971:6027  (uint112 reserve0_, uint112 reserve1_, ) = getReserves() */\n      pop\n      swap2\n      pop\n      swap2\n      pop\n        /* \"contracts/KajuswapPair.sol\":6038:6212  _update(... */\n      tag_287\n        /* \"contracts/KajuswapPair.sol\":6067:6073  token0 */\n      0x06\n      0x00\n      swap1\n      sload\n      swap1\n      0x0100\n      exp\n      swap1\n      div\n      0xffffffffffffffffffffffffffffffffffffffff\n      and\n        /* \"contracts/KajuswapPair.sol\":6060:6084  IERC20(token0).balanceOf */\n      0xffffffffffffffffffffffffffffffffffffffff\n      and\n      0x70a08231\n        /* \"contracts/KajuswapPair.sol\":6093:6097  this */\n      address\n        /* \"contracts/KajuswapPair.sol\":6060:6099  IERC20(token0).balanceOf(address(this)) */\n      mload(0x40)\n      dup3\n      0xffffffff\n      and\n      0xe0\n      shl\n      dup2\n      mstore\n      0x04\n      add\n      tag_288\n      swap2\n      swap1\n      tag_45\n      jump\t// in\n    tag_288:\n      0x20\n      mload(0x40)\n      dup1\n      dup4\n      sub\n      dup2\n      0x00\n      dup8\n      gas\n      call\n      iszero\n      dup1\n      iszero\n      tag_290\n      jumpi\n      returndatasize\n      0x00\n      dup1\n      returndatacopy\n      revert(0x00, returndatasize)\n    tag_290:\n      pop\n      pop\n      pop\n      pop\n      mload(0x40)\n      returndatasize\n      not(0x1f)\n      0x1f\n      dup3\n      add\n      and\n      dup3\n      add\n      dup1\n      0x40\n      mstore\n      pop\n      dup2\n      add\n      swap1\n      tag_291\n      swap2\n      swap1\n      tag_148\n      jump\t// in\n    tag_291:\n        /* \"contracts/KajuswapPair.sol\":6121:6127  token1 */\n      0x07\n      0x00\n      swap1\n      sload\n      swap1\n      0x0100\n      exp\n      swap1\n      div\n      0xffffffffffffffffffffffffffffffffffffffff\n      and\n        /* \"contracts/KajuswapPair.sol\":6114:6138  IERC20(token1).balanceOf */\n      0xffffffffffffffffffffffffffffffffffffffff\n      and\n      0x70a08231\n        /* \"contracts/KajuswapPair.sol\":6147:6151  this */\n      address\n        /* \"contracts/KajuswapPair.sol\":6114:6153  IERC20(token1).balanceOf(address(this)) */\n      mload(0x40)\n      dup3\n      0xffffffff\n      and\n      0xe0\n      shl\n      dup2\n      mstore\n      0x04\n      add\n      tag_292\n      swap2\n      swap1\n      tag_45\n      jump\t// in\n    tag_292:\n      0x20\n      mload(0x40)\n      dup1\n      dup4\n      sub\n      dup2\n      0x00\n      dup8\n      gas\n      call\n      iszero\n      dup1\n      iszero\n      tag_294\n      jumpi\n      returndatasize\n      0x00\n      dup1\n      returndatacopy\n      revert(0x00, returndatasize)\n    tag_294:\n      pop\n      pop\n      pop\n      pop\n      mload(0x40)\n      returndatasize\n      not(0x1f)\n      0x1f\n      dup3\n      add\n      and\n      dup3\n      add\n      dup1\n      0x40\n      mstore\n      pop\n      dup2\n      add\n      swap1\n      tag_295\n      swap2\n      swap1\n      tag_148\n      jump\t// in\n    tag_295:\n        /* \"contracts/KajuswapPair.sol\":6168:6177  reserve0_ */\n      dup5\n        /* \"contracts/KajuswapPair.sol\":6192:6201  reserve1_ */\n      dup5\n        /* \"contracts/KajuswapPair.sol\":6038:6045  _update */\n      tag_174\n        /* \"contracts/KajuswapPair.sol\":6038:6212  _update(... */\n      jump\t// in\n    tag_287:\n        /* \"contracts/KajuswapPair.sol\":5960:6220  {... */\n      pop\n      pop\n        /* \"contracts/KajuswapPair.sol\":1615:1620  false */\n      0x00\n        /* \"contracts/KajuswapPair.sol\":1603:1612  isEntered */\n      0x0b\n      0x00\n        /* \"contracts/KajuswapPair.sol\":1603:1620  isEntered = false */\n      0x0100\n      exp\n      dup2\n      sload\n      dup2\n      0xff\n      mul\n      not\n      and\n      swap1\n      dup4\n      iszero\n      iszero\n      mul\n      or\n      swap1\n      sstore\n      pop\n        /* \"contracts/KajuswapPair.sol\":5932:6220  function sync() public lock {... */\n      jump\t// out\n        /* \"@rari-capital/solmate/src/tokens/ERC20.sol\":5507:5953  function computeDomainSeparator() internal view virtual returns (bytes32) {... */\n    tag_133:\n        /* \"@rari-capital/solmate/src/tokens/ERC20.sol\":5572:5579  bytes32 */\n      0x00\n        /* \"@rari-capital/solmate/src/tokens/ERC20.sol\":5669:5764  keccak256(\"EIP712Domain(string name,string version,uint256 chainId,address verifyingContract)\") */\n      0x8b73c3c69bb8fe3d512ecc4cf759cc79239f7b179b0ffacaa9a75d522b39400f\n        /* \"@rari-capital/solmate/src/tokens/ERC20.sol\":5802:5806  name */\n      0x00\n        /* \"@rari-capital/solmate/src/tokens/ERC20.sol\":5786:5808  keccak256(bytes(name)) */\n      mload(0x40)\n      tag_297\n      swap2\n      swap1\n      tag_298\n      jump\t// in\n    tag_297:\n      mload(0x40)\n      dup1\n      swap2\n      sub\n      swap1\n      keccak256\n        /* \"@rari-capital/solmate/src/tokens/ERC20.sol\":5830:5844  keccak256(\"1\") */\n      0xc89efdaa54c0f20c7adf612882df0950f5a951637e0307cdcb4c672f298b8bc6\n        /* \"@rari-capital/solmate/src/tokens/ERC20.sol\":5866:5879  block.chainid */\n      chainid\n        /* \"@rari-capital/solmate/src/tokens/ERC20.sol\":5909:5913  this */\n      address\n        /* \"@rari-capital/solmate/src/tokens/ERC20.sol\":5637:5932  abi.encode(... */\n      add(0x20, mload(0x40))\n      tag_299\n      swap6\n      swap5\n      swap4\n      swap3\n      swap2\n      swap1\n      tag_300\n      jump\t// in\n    tag_299:\n      mload(0x40)\n      0x20\n      dup2\n      dup4\n      sub\n      sub\n      dup2\n      mstore\n      swap1\n      0x40\n      mstore\n        /* \"@rari-capital/solmate/src/tokens/ERC20.sol\":5610:5946  keccak256(... */\n      dup1\n      mload\n      swap1\n      0x20\n      add\n      keccak256\n        /* \"@rari-capital/solmate/src/tokens/ERC20.sol\":5591:5946  return... */\n      swap1\n      pop\n        /* \"@rari-capital/solmate/src/tokens/ERC20.sol\":5507:5953  function computeDomainSeparator() internal view virtual returns (bytes32) {... */\n      swap1\n      jump\t// out\n        /* \"libraries/Math.sol\":196:508  function sqrt(uint256 y) internal pure returns (uint256 z) {... */\n    tag_159:\n        /* \"libraries/Math.sol\":244:253  uint256 z */\n      0x00\n        /* \"libraries/Math.sol\":274:275  3 */\n      0x03\n        /* \"libraries/Math.sol\":270:271  y */\n      dup3\n        /* \"libraries/Math.sol\":270:275  y > 3 */\n      gt\n        /* \"libraries/Math.sol\":266:501  if (y > 3) {... */\n      iszero\n      tag_302\n      jumpi\n        /* \"libraries/Math.sol\":296:297  y */\n      dup2\n        /* \"libraries/Math.sol\":292:297  z = y */\n      swap1\n      pop\n        /* \"libraries/Math.sol\":312:321  uint256 x */\n      0x00\n        /* \"libraries/Math.sol\":332:333  1 */\n      0x01\n        /* \"libraries/Math.sol\":328:329  2 */\n      0x02\n        /* \"libraries/Math.sol\":324:325  y */\n      dup5\n        /* \"libraries/Math.sol\":324:329  y / 2 */\n      tag_303\n      swap2\n      swap1\n      tag_167\n      jump\t// in\n    tag_303:\n        /* \"libraries/Math.sol\":324:333  y / 2 + 1 */\n      tag_304\n      swap2\n      swap1\n      tag_305\n      jump\t// in\n    tag_304:\n        /* \"libraries/Math.sol\":312:333  uint256 x = y / 2 + 1 */\n      swap1\n      pop\n        /* \"libraries/Math.sol\":348:440  while (x < z) {... */\n    tag_306:\n        /* \"libraries/Math.sol\":359:360  z */\n      dup2\n        /* \"libraries/Math.sol\":355:356  x */\n      dup2\n        /* \"libraries/Math.sol\":355:360  x < z */\n      lt\n        /* \"libraries/Math.sol\":348:440  while (x < z) {... */\n      iszero\n      tag_307\n      jumpi\n        /* \"libraries/Math.sol\":385:386  x */\n      dup1\n        /* \"libraries/Math.sol\":381:386  z = x */\n      swap2\n      pop\n        /* \"libraries/Math.sol\":423:424  2 */\n      0x02\n        /* \"libraries/Math.sol\":418:419  x */\n      dup2\n        /* \"libraries/Math.sol\":414:415  x */\n      dup3\n        /* \"libraries/Math.sol\":410:411  y */\n      dup6\n        /* \"libraries/Math.sol\":410:415  y / x */\n      tag_308\n      swap2\n      swap1\n      tag_167\n      jump\t// in\n    tag_308:\n        /* \"libraries/Math.sol\":410:419  y / x + x */\n      tag_309\n      swap2\n      swap1\n      tag_305\n      jump\t// in\n    tag_309:\n        /* \"libraries/Math.sol\":409:424  (y / x + x) / 2 */\n      tag_310\n      swap2\n      swap1\n      tag_167\n      jump\t// in\n    tag_310:\n        /* \"libraries/Math.sol\":405:424  x = (y / x + x) / 2 */\n      swap1\n      pop\n        /* \"libraries/Math.sol\":348:440  while (x < z) {... */\n      jump(tag_306)\n    tag_307:\n        /* \"libraries/Math.sol\":277:451  {... */\n      pop\n        /* \"libraries/Math.sol\":266:501  if (y > 3) {... */\n      jump(tag_311)\n    tag_302:\n        /* \"libraries/Math.sol\":466:467  0 */\n      0x00\n        /* \"libraries/Math.sol\":461:462  y */\n      dup3\n        /* \"libraries/Math.sol\":461:467  y != 0 */\n      eq\n        /* \"libraries/Math.sol\":457:501  if (y != 0) {... */\n      tag_312\n      jumpi\n        /* \"libraries/Math.sol\":488:489  1 */\n      0x01\n        /* \"libraries/Math.sol\":484:489  z = 1 */\n      swap1\n      pop\n        /* \"libraries/Math.sol\":457:501  if (y != 0) {... */\n    tag_312:\n        /* \"libraries/Math.sol\":266:501  if (y > 3) {... */\n    tag_311:\n        /* \"libraries/Math.sol\":196:508  function sqrt(uint256 y) internal pure returns (uint256 z) {... */\n      swap2\n      swap1\n      pop\n      jump\t// out\n        /* \"@rari-capital/solmate/src/tokens/ERC20.sol\":6147:6472  function _mint(address to, uint256 amount) internal virtual {... */\n    tag_162:\n        /* \"@rari-capital/solmate/src/tokens/ERC20.sol\":6232:6238  amount */\n      dup1\n        /* \"@rari-capital/solmate/src/tokens/ERC20.sol\":6217:6228  totalSupply */\n      0x02\n      0x00\n        /* \"@rari-capital/solmate/src/tokens/ERC20.sol\":6217:6238  totalSupply += amount */\n      dup3\n      dup3\n      sload\n      tag_314\n      swap2\n      swap1\n      tag_305\n      jump\t// in\n    tag_314:\n      swap3\n      pop\n      pop\n      dup2\n      swap1\n      sstore\n      pop\n        /* \"@rari-capital/solmate/src/tokens/ERC20.sol\":6401:6407  amount */\n      dup1\n        /* \"@rari-capital/solmate/src/tokens/ERC20.sol\":6384:6393  balanceOf */\n      0x03\n        /* \"@rari-capital/solmate/src/tokens/ERC20.sol\":6384:6397  balanceOf[to] */\n      0x00\n        /* \"@rari-capital/solmate/src/tokens/ERC20.sol\":6394:6396  to */\n      dup5\n        /* \"@rari-capital/solmate/src/tokens/ERC20.sol\":6384:6397  balanceOf[to] */\n      0xffffffffffffffffffffffffffffffffffffffff\n      and\n      0xffffffffffffffffffffffffffffffffffffffff\n      and\n      dup2\n      mstore\n      0x20\n      add\n      swap1\n      dup2\n      mstore\n      0x20\n      add\n      0x00\n      keccak256\n      0x00\n        /* \"@rari-capital/solmate/src/tokens/ERC20.sol\":6384:6407  balanceOf[to] += amount */\n      dup3\n      dup3\n      sload\n      add\n      swap3\n      pop\n      pop\n      dup2\n      swap1\n      sstore\n      pop\n        /* \"@rari-capital/solmate/src/tokens/ERC20.sol\":6454:6456  to */\n      dup2\n        /* \"@rari-capital/solmate/src/tokens/ERC20.sol\":6433:6465  Transfer(address(0), to, amount) */\n      0xffffffffffffffffffffffffffffffffffffffff\n      and\n        /* \"@rari-capital/solmate/src/tokens/ERC20.sol\":6450:6451  0 */\n      0x00\n        /* \"@rari-capital/solmate/src/tokens/ERC20.sol\":6433:6465  Transfer(address(0), to, amount) */\n      0xffffffffffffffffffffffffffffffffffffffff\n      and\n      0xddf252ad1be2c89b69c2b068fc378daa952ba7f163c4a11628f55a4df523b3ef\n        /* \"@rari-capital/solmate/src/tokens/ERC20.sol\":6458:6464  amount */\n      dup4\n        /* \"@rari-capital/solmate/src/tokens/ERC20.sol\":6433:6465  Transfer(address(0), to, amount) */\n      mload(0x40)\n      tag_315\n      swap2\n      swap1\n      tag_49\n      jump\t// in\n    tag_315:\n      mload(0x40)\n      dup1\n      swap2\n      sub\n      swap1\n      log3\n        /* \"@rari-capital/solmate/src/tokens/ERC20.sol\":6147:6472  function _mint(address to, uint256 amount) internal virtual {... */\n      pop\n      pop\n      jump\t// out\n        /* \"libraries/Math.sol\":82:188  function min(uint256 a, uint256 b) internal pure returns (uint256) {... */\n    tag_170:\n        /* \"libraries/Math.sol\":140:147  uint256 */\n      0x00\n        /* \"libraries/Math.sol\":171:172  b */\n      dup2\n        /* \"libraries/Math.sol\":167:168  a */\n      dup4\n        /* \"libraries/Math.sol\":167:172  a < b */\n      lt\n        /* \"libraries/Math.sol\":167:180  a < b ? a : b */\n      tag_317\n      jumpi\n        /* \"libraries/Math.sol\":179:180  b */\n      dup2\n        /* \"libraries/Math.sol\":167:180  a < b ? a : b */\n      jump(tag_318)\n    tag_317:\n        /* \"libraries/Math.sol\":175:176  a */\n      dup3\n        /* \"libraries/Math.sol\":167:180  a < b ? a : b */\n    tag_318:\n        /* \"libraries/Math.sol\":160:180  return a < b ? a : b */\n      swap1\n      pop\n        /* \"libraries/Math.sol\":82:188  function min(uint256 a, uint256 b) internal pure returns (uint256) {... */\n      swap3\n      swap2\n      pop\n      pop\n      jump\t// out\n        /* \"contracts/KajuswapPair.sol\":6263:7324  function _update(... */\n    tag_174:\n        /* \"contracts/KajuswapPair.sol\":6431:6448  type(uint112).max */\n      0xffffffffffffffffffffffffffff\n        /* \"contracts/KajuswapPair.sol\":6420:6448  balance0 > type(uint112).max */\n      dup1\n      and\n        /* \"contracts/KajuswapPair.sol\":6420:6428  balance0 */\n      dup5\n        /* \"contracts/KajuswapPair.sol\":6420:6448  balance0 > type(uint112).max */\n      gt\n        /* \"contracts/KajuswapPair.sol\":6420:6480  balance0 > type(uint112).max || balance1 > type(uint112).max */\n      dup1\n      tag_320\n      jumpi\n      pop\n        /* \"contracts/KajuswapPair.sol\":6463:6480  type(uint112).max */\n      0xffffffffffffffffffffffffffff\n        /* \"contracts/KajuswapPair.sol\":6452:6480  balance1 > type(uint112).max */\n      dup1\n      and\n        /* \"contracts/KajuswapPair.sol\":6452:6460  balance1 */\n      dup4\n        /* \"contracts/KajuswapPair.sol\":6452:6480  balance1 > type(uint112).max */\n      gt\n        /* \"contracts/KajuswapPair.sol\":6420:6480  balance0 > type(uint112).max || balance1 > type(uint112).max */\n    tag_320:\n        /* \"contracts/KajuswapPair.sol\":6416:6519  if (balance0 > type(uint112).max || balance1 > type(uint112).max)... */\n      iszero\n      tag_321\n      jumpi\n        /* \"contracts/KajuswapPair.sol\":6502:6519  BalanceOverflow() */\n      mload(0x40)\n      0x89560ca100000000000000000000000000000000000000000000000000000000\n      dup2\n      mstore\n      0x04\n      add\n      mload(0x40)\n      dup1\n      swap2\n      sub\n      swap1\n      revert\n        /* \"contracts/KajuswapPair.sol\":6416:6519  if (balance0 > type(uint112).max || balance1 > type(uint112).max)... */\n    tag_321:\n        /* \"contracts/KajuswapPair.sol\":6672:6690  uint32 timeElapsed */\n      0x00\n        /* \"contracts/KajuswapPair.sol\":6719:6737  blockTimestampLast */\n      0x08\n      0x1c\n      swap1\n      sload\n      swap1\n      0x0100\n      exp\n      swap1\n      div\n      0xffffffff\n      and\n        /* \"contracts/KajuswapPair.sol\":6700:6715  block.timestamp */\n      timestamp\n        /* \"contracts/KajuswapPair.sol\":6693:6737  uint32(block.timestamp) - blockTimestampLast */\n      sub\n        /* \"contracts/KajuswapPair.sol\":6672:6737  uint32 timeElapsed = uint32(block.timestamp) - blockTimestampLast */\n      swap1\n      pop\n        /* \"contracts/KajuswapPair.sol\":6772:6773  0 */\n      0x00\n        /* \"contracts/KajuswapPair.sol\":6758:6769  timeElapsed */\n      dup2\n        /* \"contracts/KajuswapPair.sol\":6758:6773  timeElapsed > 0 */\n      0xffffffff\n      and\n      gt\n        /* \"contracts/KajuswapPair.sol\":6758:6790  timeElapsed > 0 && reserve0_ > 0 */\n      dup1\n      iszero\n      tag_322\n      jumpi\n      pop\n        /* \"contracts/KajuswapPair.sol\":6789:6790  0 */\n      0x00\n        /* \"contracts/KajuswapPair.sol\":6777:6786  reserve0_ */\n      dup4\n        /* \"contracts/KajuswapPair.sol\":6777:6790  reserve0_ > 0 */\n      0xffffffffffffffffffffffffffff\n      and\n      gt\n        /* \"contracts/KajuswapPair.sol\":6758:6790  timeElapsed > 0 && reserve0_ > 0 */\n    tag_322:\n        /* \"contracts/KajuswapPair.sol\":6758:6807  timeElapsed > 0 && reserve0_ > 0 && reserve1_ > 0 */\n      dup1\n      iszero\n      tag_323\n      jumpi\n      pop\n        /* \"contracts/KajuswapPair.sol\":6806:6807  0 */\n      0x00\n        /* \"contracts/KajuswapPair.sol\":6794:6803  reserve1_ */\n      dup3\n        /* \"contracts/KajuswapPair.sol\":6794:6807  reserve1_ > 0 */\n      0xffffffffffffffffffffffffffff\n      and\n      gt\n        /* \"contracts/KajuswapPair.sol\":6758:6807  timeElapsed > 0 && reserve0_ > 0 && reserve1_ > 0 */\n    tag_323:\n        /* \"contracts/KajuswapPair.sol\":6754:7129  if (timeElapsed > 0 && reserve0_ > 0 && reserve1_ > 0) {... */\n      iszero\n      tag_324\n      jumpi\n        /* \"contracts/KajuswapPair.sol\":6950:6961  timeElapsed */\n      dup1\n        /* \"contracts/KajuswapPair.sol\":6873:6961  uint256(UQ112x112.encode(reserve1_).uqdiv(reserve0_)) *... */\n      0xffffffff\n      and\n        /* \"contracts/KajuswapPair.sol\":6881:6925  UQ112x112.encode(reserve1_).uqdiv(reserve0_) */\n      tag_325\n        /* \"contracts/KajuswapPair.sol\":6915:6924  reserve0_ */\n      dup5\n        /* \"contracts/KajuswapPair.sol\":6881:6908  UQ112x112.encode(reserve1_) */\n      tag_326\n        /* \"contracts/KajuswapPair.sol\":6898:6907  reserve1_ */\n      dup6\n        /* \"contracts/KajuswapPair.sol\":6881:6897  UQ112x112.encode */\n      tag_327\n        /* \"contracts/KajuswapPair.sol\":6881:6908  UQ112x112.encode(reserve1_) */\n      jump\t// in\n    tag_326:\n        /* \"contracts/KajuswapPair.sol\":6881:6914  UQ112x112.encode(reserve1_).uqdiv */\n      0xffffffffffffffffffffffffffffffffffffffffffffffffffffffff\n      and\n      tag_328\n      swap1\n        /* \"contracts/KajuswapPair.sol\":6881:6925  UQ112x112.encode(reserve1_).uqdiv(reserve0_) */\n      swap2\n      swap1\n      0xffffffff\n      and\n      jump\t// in\n    tag_325:\n        /* \"contracts/KajuswapPair.sol\":6873:6926  uint256(UQ112x112.encode(reserve1_).uqdiv(reserve0_)) */\n      0xffffffffffffffffffffffffffffffffffffffffffffffffffffffff\n      and\n        /* \"contracts/KajuswapPair.sol\":6873:6961  uint256(UQ112x112.encode(reserve1_).uqdiv(reserve0_)) *... */\n      mul\n        /* \"contracts/KajuswapPair.sol\":6828:6848  price0CumulativeLast */\n      0x09\n      0x00\n        /* \"contracts/KajuswapPair.sol\":6828:6961  price0CumulativeLast +=... */\n      dup3\n      dup3\n      sload\n      add\n      swap3\n      pop\n      pop\n      dup2\n      swap1\n      sstore\n      pop\n        /* \"contracts/KajuswapPair.sol\":7102:7113  timeElapsed */\n      dup1\n        /* \"contracts/KajuswapPair.sol\":7025:7113  uint256(UQ112x112.encode(reserve0_).uqdiv(reserve1_)) *... */\n      0xffffffff\n      and\n        /* \"contracts/KajuswapPair.sol\":7033:7077  UQ112x112.encode(reserve0_).uqdiv(reserve1_) */\n      tag_329\n        /* \"contracts/KajuswapPair.sol\":7067:7076  reserve1_ */\n      dup4\n        /* \"contracts/KajuswapPair.sol\":7033:7060  UQ112x112.encode(reserve0_) */\n      tag_330\n        /* \"contracts/KajuswapPair.sol\":7050:7059  reserve0_ */\n      dup7\n        /* \"contracts/KajuswapPair.sol\":7033:7049  UQ112x112.encode */\n      tag_327\n        /* \"contracts/KajuswapPair.sol\":7033:7060  UQ112x112.encode(reserve0_) */\n      jump\t// in\n    tag_330:\n        /* \"contracts/KajuswapPair.sol\":7033:7066  UQ112x112.encode(reserve0_).uqdiv */\n      0xffffffffffffffffffffffffffffffffffffffffffffffffffffffff\n      and\n      tag_328\n      swap1\n        /* \"contracts/KajuswapPair.sol\":7033:7077  UQ112x112.encode(reserve0_).uqdiv(reserve1_) */\n      swap2\n      swap1\n      0xffffffff\n      and\n      jump\t// in\n    tag_329:\n        /* \"contracts/KajuswapPair.sol\":7025:7078  uint256(UQ112x112.encode(reserve0_).uqdiv(reserve1_)) */\n      0xffffffffffffffffffffffffffffffffffffffffffffffffffffffff\n      and\n        /* \"contracts/KajuswapPair.sol\":7025:7113  uint256(UQ112x112.encode(reserve0_).uqdiv(reserve1_)) *... */\n      mul\n        /* \"contracts/KajuswapPair.sol\":6980:7000  price1CumulativeLast */\n      0x0a\n      0x00\n        /* \"contracts/KajuswapPair.sol\":6980:7113  price1CumulativeLast +=... */\n      dup3\n      dup3\n      sload\n      add\n      swap3\n      pop\n      pop\n      dup2\n      swap1\n      sstore\n      pop\n        /* \"contracts/KajuswapPair.sol\":6754:7129  if (timeElapsed > 0 && reserve0_ > 0 && reserve1_ > 0) {... */\n    tag_324:\n        /* \"contracts/KajuswapPair.sol\":6532:7140  unchecked {... */\n      pop\n        /* \"contracts/KajuswapPair.sol\":7171:7179  balance0 */\n      dup4\n        /* \"contracts/KajuswapPair.sol\":7152:7160  reserve0 */\n      0x08\n      0x00\n        /* \"contracts/KajuswapPair.sol\":7152:7180  reserve0 = uint112(balance0) */\n      0x0100\n      exp\n      dup2\n      sload\n      dup2\n      0xffffffffffffffffffffffffffff\n      mul\n      not\n      and\n      swap1\n      dup4\n      0xffffffffffffffffffffffffffff\n      and\n      mul\n      or\n      swap1\n      sstore\n      pop\n        /* \"contracts/KajuswapPair.sol\":7210:7218  balance1 */\n      dup3\n        /* \"contracts/KajuswapPair.sol\":7191:7199  reserve1 */\n      0x08\n      0x0e\n        /* \"contracts/KajuswapPair.sol\":7191:7219  reserve1 = uint112(balance1) */\n      0x0100\n      exp\n      dup2\n      sload\n      dup2\n      0xffffffffffffffffffffffffffff\n      mul\n      not\n      and\n      swap1\n      dup4\n      0xffffffffffffffffffffffffffff\n      and\n      mul\n      or\n      swap1\n      sstore\n      pop\n        /* \"contracts/KajuswapPair.sol\":7258:7273  block.timestamp */\n      timestamp\n        /* \"contracts/KajuswapPair.sol\":7230:7248  blockTimestampLast */\n      0x08\n      0x1c\n        /* \"contracts/KajuswapPair.sol\":7230:7274  blockTimestampLast = uint32(block.timestamp) */\n      0x0100\n      exp\n      dup2\n      sload\n      dup2\n      0xffffffff\n      mul\n      not\n      and\n      swap1\n      dup4\n      0xffffffff\n      and\n      mul\n      or\n      swap1\n      sstore\n      pop\n        /* \"contracts/KajuswapPair.sol\":7292:7316  Sync(reserve0, reserve1) */\n      0xcf2aa50876cdfbb541206f89af0ee78d44a2abf8d328e37fa4917f982149848a\n        /* \"contracts/KajuswapPair.sol\":7297:7305  reserve0 */\n      0x08\n      0x00\n      swap1\n      sload\n      swap1\n      0x0100\n      exp\n      swap1\n      div\n      0xffffffffffffffffffffffffffff\n      and\n        /* \"contracts/KajuswapPair.sol\":7307:7315  reserve1 */\n      0x08\n      0x0e\n      swap1\n      sload\n      swap1\n      0x0100\n      exp\n      swap1\n      div\n      0xffffffffffffffffffffffffffff\n      and\n        /* \"contracts/KajuswapPair.sol\":7292:7316  Sync(reserve0, reserve1) */\n      mload(0x40)\n      tag_331\n      swap3\n      swap2\n      swap1\n      tag_332\n      jump\t// in\n    tag_331:\n      mload(0x40)\n      dup1\n      swap2\n      sub\n      swap1\n      log1\n        /* \"contracts/KajuswapPair.sol\":6263:7324  function _update(... */\n      pop\n      pop\n      pop\n      pop\n      jump\t// out\n        /* \"contracts/KajuswapPair.sol\":7558:7931  function _safeTransfer(... */\n    tag_187:\n        /* \"contracts/KajuswapPair.sol\":7677:7689  bool success */\n      0x00\n        /* \"contracts/KajuswapPair.sol\":7691:7708  bytes memory data */\n      dup1\n        /* \"contracts/KajuswapPair.sol\":7712:7717  token */\n      dup5\n        /* \"contracts/KajuswapPair.sol\":7712:7722  token.call */\n      0xffffffffffffffffffffffffffffffffffffffff\n      and\n        /* \"contracts/KajuswapPair.sol\":7790:7792  to */\n      dup5\n        /* \"contracts/KajuswapPair.sol\":7794:7799  value */\n      dup5\n        /* \"contracts/KajuswapPair.sol\":7737:7800  abi.encodeWithSignature(\"transfer(address,uint256)\", to, value) */\n      add(0x24, mload(0x40))\n      tag_334\n      swap3\n      swap2\n      swap1\n      tag_335\n      jump\t// in\n    tag_334:\n      mload(0x40)\n      0x20\n      dup2\n      dup4\n      sub\n      sub\n      dup2\n      mstore\n      swap1\n      0x40\n      mstore\n      and(not(0xffffffffffffffffffffffffffffffffffffffffffffffffffffffff), 0xa9059cbb00000000000000000000000000000000000000000000000000000000)\n      0x20\n      dup3\n      add\n      dup1\n      mload\n      0xffffffffffffffffffffffffffffffffffffffffffffffffffffffff\n      dup4\n      dup2\n      dup4\n      and\n      or\n      dup4\n      mstore\n      pop\n      pop\n      pop\n      pop\n        /* \"contracts/KajuswapPair.sol\":7712:7811  token.call(... */\n      mload(0x40)\n      tag_336\n      swap2\n      swap1\n      tag_337\n      jump\t// in\n    tag_336:\n      0x00\n      mload(0x40)\n      dup1\n      dup4\n      sub\n      dup2\n      0x00\n      dup7\n      gas\n      call\n      swap2\n      pop\n      pop\n      returndatasize\n      dup1\n      0x00\n      dup2\n      eq\n      tag_340\n      jumpi\n      mload(0x40)\n      swap2\n      pop\n      and(add(returndatasize, 0x3f), not(0x1f))\n      dup3\n      add\n      0x40\n      mstore\n      returndatasize\n      dup3\n      mstore\n      returndatasize\n      0x00\n      0x20\n      dup5\n      add\n      returndatacopy\n      jump(tag_339)\n    tag_340:\n      0x60\n      swap2\n      pop\n    tag_339:\n      pop\n        /* \"contracts/KajuswapPair.sol\":7676:7811  (bool success, bytes memory data) = token.call(... */\n      swap2\n      pop\n      swap2\n      pop\n        /* \"contracts/KajuswapPair.sol\":7827:7834  success */\n      dup2\n        /* \"contracts/KajuswapPair.sol\":7826:7834  !success */\n      iszero\n        /* \"contracts/KajuswapPair.sol\":7826:7885  !success || (data.length != 0 && !abi.decode(data, (bool))) */\n      dup1\n      tag_341\n      jumpi\n      pop\n        /* \"contracts/KajuswapPair.sol\":7854:7855  0 */\n      0x00\n        /* \"contracts/KajuswapPair.sol\":7839:7843  data */\n      dup2\n        /* \"contracts/KajuswapPair.sol\":7839:7850  data.length */\n      mload\n        /* \"contracts/KajuswapPair.sol\":7839:7855  data.length != 0 */\n      eq\n      iszero\n        /* \"contracts/KajuswapPair.sol\":7839:7884  data.length != 0 && !abi.decode(data, (bool)) */\n      dup1\n      iszero\n      tag_342\n      jumpi\n      pop\n        /* \"contracts/KajuswapPair.sol\":7871:7875  data */\n      dup1\n        /* \"contracts/KajuswapPair.sol\":7860:7884  abi.decode(data, (bool)) */\n      dup1\n      0x20\n      add\n      swap1\n      mload\n      dup2\n      add\n      swap1\n      tag_343\n      swap2\n      swap1\n      tag_344\n      jump\t// in\n    tag_343:\n        /* \"contracts/KajuswapPair.sol\":7859:7884  !abi.decode(data, (bool)) */\n      iszero\n        /* \"contracts/KajuswapPair.sol\":7839:7884  data.length != 0 && !abi.decode(data, (bool)) */\n    tag_342:\n        /* \"contracts/KajuswapPair.sol\":7826:7885  !success || (data.length != 0 && !abi.decode(data, (bool))) */\n    tag_341:\n        /* \"contracts/KajuswapPair.sol\":7822:7923  if (!success || (data.length != 0 && !abi.decode(data, (bool))))... */\n      iszero\n      tag_345\n      jumpi\n        /* \"contracts/KajuswapPair.sol\":7907:7923  TransferFailed() */\n      mload(0x40)\n      0x90b8ec1800000000000000000000000000000000000000000000000000000000\n      dup2\n      mstore\n      0x04\n      add\n      mload(0x40)\n      dup1\n      swap2\n      sub\n      swap1\n      revert\n        /* \"contracts/KajuswapPair.sol\":7822:7923  if (!success || (data.length != 0 && !abi.decode(data, (bool))))... */\n    tag_345:\n        /* \"contracts/KajuswapPair.sol\":7665:7931  {... */\n      pop\n      pop\n        /* \"contracts/KajuswapPair.sol\":7558:7931  function _safeTransfer(... */\n      pop\n      pop\n      pop\n      jump\t// out\n        /* \"@rari-capital/solmate/src/tokens/ERC20.sol\":6478:6806  function _burn(address from, uint256 amount) internal virtual {... */\n    tag_241:\n        /* \"@rari-capital/solmate/src/tokens/ERC20.sol\":6569:6575  amount */\n      dup1\n        /* \"@rari-capital/solmate/src/tokens/ERC20.sol\":6550:6559  balanceOf */\n      0x03\n        /* \"@rari-capital/solmate/src/tokens/ERC20.sol\":6550:6565  balanceOf[from] */\n      0x00\n        /* \"@rari-capital/solmate/src/tokens/ERC20.sol\":6560:6564  from */\n      dup5\n        /* \"@rari-capital/solmate/src/tokens/ERC20.sol\":6550:6565  balanceOf[from] */\n      0xffffffffffffffffffffffffffffffffffffffff\n      and\n      0xffffffffffffffffffffffffffffffffffffffff\n      and\n      dup2\n      mstore\n      0x20\n      add\n      swap1\n      dup2\n      mstore\n      0x20\n      add\n      0x00\n      keccak256\n      0x00\n        /* \"@rari-capital/solmate/src/tokens/ERC20.sol\":6550:6575  balanceOf[from] -= amount */\n      dup3\n      dup3\n      sload\n      tag_347\n      swap2\n      swap1\n      tag_127\n      jump\t// in\n    tag_347:\n      swap3\n      pop\n      pop\n      dup2\n      swap1\n      sstore\n      pop\n        /* \"@rari-capital/solmate/src/tokens/ERC20.sol\":6733:6739  amount */\n      dup1\n        /* \"@rari-capital/solmate/src/tokens/ERC20.sol\":6718:6729  totalSupply */\n      0x02\n      0x00\n        /* \"@rari-capital/solmate/src/tokens/ERC20.sol\":6718:6739  totalSupply -= amount */\n      dup3\n      dup3\n      sload\n      sub\n      swap3\n      pop\n      pop\n      dup2\n      swap1\n      sstore\n      pop\n        /* \"@rari-capital/solmate/src/tokens/ERC20.sol\":6788:6789  0 */\n      0x00\n        /* \"@rari-capital/solmate/src/tokens/ERC20.sol\":6765:6799  Transfer(from, address(0), amount) */\n      0xffffffffffffffffffffffffffffffffffffffff\n      and\n        /* \"@rari-capital/solmate/src/tokens/ERC20.sol\":6774:6778  from */\n      dup3\n        /* \"@rari-capital/solmate/src/tokens/ERC20.sol\":6765:6799  Transfer(from, address(0), amount) */\n      0xffffffffffffffffffffffffffffffffffffffff\n      and\n      0xddf252ad1be2c89b69c2b068fc378daa952ba7f163c4a11628f55a4df523b3ef\n        /* \"@rari-capital/solmate/src/tokens/ERC20.sol\":6792:6798  amount */\n      dup4\n        /* \"@rari-capital/solmate/src/tokens/ERC20.sol\":6765:6799  Transfer(from, address(0), amount) */\n      mload(0x40)\n      tag_348\n      swap2\n      swap1\n      tag_49\n      jump\t// in\n    tag_348:\n      mload(0x40)\n      dup1\n      swap2\n      sub\n      swap1\n      log3\n        /* \"@rari-capital/solmate/src/tokens/ERC20.sol\":6478:6806  function _burn(address from, uint256 amount) internal virtual {... */\n      pop\n      pop\n      jump\t// out\n        /* \"libraries/UQ112x112.sol\":131:232  function encode(uint112 y) internal pure returns (uint224 z) {... */\n    tag_327:\n        /* \"libraries/UQ112x112.sol\":181:190  uint224 z */\n      0x00\n        /* \"libraries/UQ112x112.sol\":116:122  2**112 */\n      0x010000000000000000000000000000\n        /* \"libraries/UQ112x112.sol\":215:216  y */\n      dup3\n        /* \"libraries/UQ112x112.sol\":207:217  uint224(y) */\n      0xffffffffffffffffffffffffffff\n      and\n        /* \"libraries/UQ112x112.sol\":207:224  uint224(y) * Q112 */\n      tag_350\n      swap2\n      swap1\n      tag_351\n      jump\t// in\n    tag_350:\n        /* \"libraries/UQ112x112.sol\":203:224  z = uint224(y) * Q112 */\n      swap1\n      pop\n        /* \"libraries/UQ112x112.sol\":131:232  function encode(uint112 y) internal pure returns (uint224 z) {... */\n      swap2\n      swap1\n      pop\n      jump\t// out\n        /* \"libraries/UQ112x112.sol\":240:348  function uqdiv(uint224 x, uint112 y) internal pure returns (uint224 z) {... */\n    tag_328:\n        /* \"libraries/UQ112x112.sol\":300:309  uint224 z */\n      0x00\n        /* \"libraries/UQ112x112.sol\":338:339  y */\n      dup2\n        /* \"libraries/UQ112x112.sol\":330:340  uint224(y) */\n      0xffffffffffffffffffffffffffff\n      and\n        /* \"libraries/UQ112x112.sol\":326:327  x */\n      dup4\n        /* \"libraries/UQ112x112.sol\":326:340  x / uint224(y) */\n      tag_353\n      swap2\n      swap1\n      tag_354\n      jump\t// in\n    tag_353:\n        /* \"libraries/UQ112x112.sol\":322:340  z = x / uint224(y) */\n      swap1\n      pop\n        /* \"libraries/UQ112x112.sol\":240:348  function uqdiv(uint224 x, uint112 y) internal pure returns (uint224 z) {... */\n      swap3\n      swap2\n      pop\n      pop\n      jump\t// out\n        /* \"#utility.yul\":7:106   */\n    tag_355:\n        /* \"#utility.yul\":59:65   */\n      0x00\n        /* \"#utility.yul\":93:98   */\n      dup2\n        /* \"#utility.yul\":87:99   */\n      mload\n        /* \"#utility.yul\":77:99   */\n      swap1\n      pop\n        /* \"#utility.yul\":7:106   */\n      swap2\n      swap1\n      pop\n      jump\t// out\n        /* \"#utility.yul\":112:281   */\n    tag_356:\n        /* \"#utility.yul\":196:207   */\n      0x00\n        /* \"#utility.yul\":230:236   */\n      dup3\n        /* \"#utility.yul\":225:228   */\n      dup3\n        /* \"#utility.yul\":218:237   */\n      mstore\n        /* \"#utility.yul\":270:274   */\n      0x20\n        /* \"#utility.yul\":265:268   */\n      dup3\n        /* \"#utility.yul\":261:275   */\n      add\n        /* \"#utility.yul\":246:275   */\n      swap1\n      pop\n        /* \"#utility.yul\":112:281   */\n      swap3\n      swap2\n      pop\n      pop\n      jump\t// out\n        /* \"#utility.yul\":287:594   */\n    tag_357:\n        /* \"#utility.yul\":355:356   */\n      0x00\n        /* \"#utility.yul\":365:478   */\n    tag_416:\n        /* \"#utility.yul\":379:385   */\n      dup4\n        /* \"#utility.yul\":376:377   */\n      dup2\n        /* \"#utility.yul\":373:386   */\n      lt\n        /* \"#utility.yul\":365:478   */\n      iszero\n      tag_418\n      jumpi\n        /* \"#utility.yul\":464:465   */\n      dup1\n        /* \"#utility.yul\":459:462   */\n      dup3\n        /* \"#utility.yul\":455:466   */\n      add\n        /* \"#utility.yul\":449:467   */\n      mload\n        /* \"#utility.yul\":445:446   */\n      dup2\n        /* \"#utility.yul\":440:443   */\n      dup5\n        /* \"#utility.yul\":436:447   */\n      add\n        /* \"#utility.yul\":429:468   */\n      mstore\n        /* \"#utility.yul\":401:403   */\n      0x20\n        /* \"#utility.yul\":398:399   */\n      dup2\n        /* \"#utility.yul\":394:404   */\n      add\n        /* \"#utility.yul\":389:404   */\n      swap1\n      pop\n        /* \"#utility.yul\":365:478   */\n      jump(tag_416)\n    tag_418:\n        /* \"#utility.yul\":496:502   */\n      dup4\n        /* \"#utility.yul\":493:494   */\n      dup2\n        /* \"#utility.yul\":490:503   */\n      gt\n        /* \"#utility.yul\":487:588   */\n      iszero\n      tag_419\n      jumpi\n        /* \"#utility.yul\":576:577   */\n      0x00\n        /* \"#utility.yul\":567:573   */\n      dup5\n        /* \"#utility.yul\":562:565   */\n      dup5\n        /* \"#utility.yul\":558:574   */\n      add\n        /* \"#utility.yul\":551:578   */\n      mstore\n        /* \"#utility.yul\":487:588   */\n    tag_419:\n        /* \"#utility.yul\":336:594   */\n      pop\n        /* \"#utility.yul\":287:594   */\n      pop\n      pop\n      pop\n      jump\t// out\n        /* \"#utility.yul\":600:702   */\n    tag_358:\n        /* \"#utility.yul\":641:647   */\n      0x00\n        /* \"#utility.yul\":692:694   */\n      0x1f\n        /* \"#utility.yul\":688:695   */\n      not\n        /* \"#utility.yul\":683:685   */\n      0x1f\n        /* \"#utility.yul\":676:681   */\n      dup4\n        /* \"#utility.yul\":672:686   */\n      add\n        /* \"#utility.yul\":668:696   */\n      and\n        /* \"#utility.yul\":658:696   */\n      swap1\n      pop\n        /* \"#utility.yul\":600:702   */\n      swap2\n      swap1\n      pop\n      jump\t// out\n        /* \"#utility.yul\":708:1072   */\n    tag_359:\n        /* \"#utility.yul\":796:799   */\n      0x00\n        /* \"#utility.yul\":824:863   */\n      tag_422\n        /* \"#utility.yul\":857:862   */\n      dup3\n        /* \"#utility.yul\":824:863   */\n      tag_355\n      jump\t// in\n    tag_422:\n        /* \"#utility.yul\":879:950   */\n      tag_423\n        /* \"#utility.yul\":943:949   */\n      dup2\n        /* \"#utility.yul\":938:941   */\n      dup6\n        /* \"#utility.yul\":879:950   */\n      tag_356\n      jump\t// in\n    tag_423:\n        /* \"#utility.yul\":872:950   */\n      swap4\n      pop\n        /* \"#utility.yul\":959:1011   */\n      tag_424\n        /* \"#utility.yul\":1004:1010   */\n      dup2\n        /* \"#utility.yul\":999:1002   */\n      dup6\n        /* \"#utility.yul\":992:996   */\n      0x20\n        /* \"#utility.yul\":985:990   */\n      dup7\n        /* \"#utility.yul\":981:997   */\n      add\n        /* \"#utility.yul\":959:1011   */\n      tag_357\n      jump\t// in\n    tag_424:\n        /* \"#utility.yul\":1036:1065   */\n      tag_425\n        /* \"#utility.yul\":1058:1064   */\n      dup2\n        /* \"#utility.yul\":1036:1065   */\n      tag_358\n      jump\t// in\n    tag_425:\n        /* \"#utility.yul\":1031:1034   */\n      dup5\n        /* \"#utility.yul\":1027:1066   */\n      add\n        /* \"#utility.yul\":1020:1066   */\n      swap2\n      pop\n        /* \"#utility.yul\":800:1072   */\n      pop\n        /* \"#utility.yul\":708:1072   */\n      swap3\n      swap2\n      pop\n      pop\n      jump\t// out\n        /* \"#utility.yul\":1078:1391   */\n    tag_31:\n        /* \"#utility.yul\":1191:1195   */\n      0x00\n        /* \"#utility.yul\":1229:1231   */\n      0x20\n        /* \"#utility.yul\":1218:1227   */\n      dup3\n        /* \"#utility.yul\":1214:1232   */\n      add\n        /* \"#utility.yul\":1206:1232   */\n      swap1\n      pop\n        /* \"#utility.yul\":1278:1287   */\n      dup2\n        /* \"#utility.yul\":1272:1276   */\n      dup2\n        /* \"#utility.yul\":1268:1288   */\n      sub\n        /* \"#utility.yul\":1264:1265   */\n      0x00\n        /* \"#utility.yul\":1253:1262   */\n      dup4\n        /* \"#utility.yul\":1249:1266   */\n      add\n        /* \"#utility.yul\":1242:1289   */\n      mstore\n        /* \"#utility.yul\":1306:1384   */\n      tag_427\n        /* \"#utility.yul\":1379:1383   */\n      dup2\n        /* \"#utility.yul\":1370:1376   */\n      dup5\n        /* \"#utility.yul\":1306:1384   */\n      tag_359\n      jump\t// in\n    tag_427:\n        /* \"#utility.yul\":1298:1384   */\n      swap1\n      pop\n        /* \"#utility.yul\":1078:1391   */\n      swap3\n      swap2\n      pop\n      pop\n      jump\t// out\n        /* \"#utility.yul\":1397:1511   */\n    tag_360:\n        /* \"#utility.yul\":1434:1441   */\n      0x00\n        /* \"#utility.yul\":1474:1504   */\n      0xffffffffffffffffffffffffffff\n        /* \"#utility.yul\":1467:1472   */\n      dup3\n        /* \"#utility.yul\":1463:1505   */\n      and\n        /* \"#utility.yul\":1452:1505   */\n      swap1\n      pop\n        /* \"#utility.yul\":1397:1511   */\n      swap2\n      swap1\n      pop\n      jump\t// out\n        /* \"#utility.yul\":1517:1635   */\n    tag_361:\n        /* \"#utility.yul\":1604:1628   */\n      tag_430\n        /* \"#utility.yul\":1622:1627   */\n      dup2\n        /* \"#utility.yul\":1604:1628   */\n      tag_360\n      jump\t// in\n    tag_430:\n        /* \"#utility.yul\":1599:1602   */\n      dup3\n        /* \"#utility.yul\":1592:1629   */\n      mstore\n        /* \"#utility.yul\":1517:1635   */\n      pop\n      pop\n      jump\t// out\n        /* \"#utility.yul\":1641:1734   */\n    tag_362:\n        /* \"#utility.yul\":1677:1684   */\n      0x00\n        /* \"#utility.yul\":1717:1727   */\n      0xffffffff\n        /* \"#utility.yul\":1710:1715   */\n      dup3\n        /* \"#utility.yul\":1706:1728   */\n      and\n        /* \"#utility.yul\":1695:1728   */\n      swap1\n      pop\n        /* \"#utility.yul\":1641:1734   */\n      swap2\n      swap1\n      pop\n      jump\t// out\n        /* \"#utility.yul\":1740:1855   */\n    tag_363:\n        /* \"#utility.yul\":1825:1848   */\n      tag_433\n        /* \"#utility.yul\":1842:1847   */\n      dup2\n        /* \"#utility.yul\":1825:1848   */\n      tag_362\n      jump\t// in\n    tag_433:\n        /* \"#utility.yul\":1820:1823   */\n      dup3\n        /* \"#utility.yul\":1813:1849   */\n      mstore\n        /* \"#utility.yul\":1740:1855   */\n      pop\n      pop\n      jump\t// out\n        /* \"#utility.yul\":1861:2299   */\n    tag_35:\n        /* \"#utility.yul\":2008:2012   */\n      0x00\n        /* \"#utility.yul\":2046:2048   */\n      0x60\n        /* \"#utility.yul\":2035:2044   */\n      dup3\n        /* \"#utility.yul\":2031:2049   */\n      add\n        /* \"#utility.yul\":2023:2049   */\n      swap1\n      pop\n        /* \"#utility.yul\":2059:2130   */\n      tag_435\n        /* \"#utility.yul\":2127:2128   */\n      0x00\n        /* \"#utility.yul\":2116:2125   */\n      dup4\n        /* \"#utility.yul\":2112:2129   */\n      add\n        /* \"#utility.yul\":2103:2109   */\n      dup7\n        /* \"#utility.yul\":2059:2130   */\n      tag_361\n      jump\t// in\n    tag_435:\n        /* \"#utility.yul\":2140:2212   */\n      tag_436\n        /* \"#utility.yul\":2208:2210   */\n      0x20\n        /* \"#utility.yul\":2197:2206   */\n      dup4\n        /* \"#utility.yul\":2193:2211   */\n      add\n        /* \"#utility.yul\":2184:2190   */\n      dup6\n        /* \"#utility.yul\":2140:2212   */\n      tag_361\n      jump\t// in\n    tag_436:\n        /* \"#utility.yul\":2222:2292   */\n      tag_437\n        /* \"#utility.yul\":2288:2290   */\n      0x40\n        /* \"#utility.yul\":2277:2286   */\n      dup4\n        /* \"#utility.yul\":2273:2291   */\n      add\n        /* \"#utility.yul\":2264:2270   */\n      dup5\n        /* \"#utility.yul\":2222:2292   */\n      tag_363\n      jump\t// in\n    tag_437:\n        /* \"#utility.yul\":1861:2299   */\n      swap5\n      swap4\n      pop\n      pop\n      pop\n      pop\n      jump\t// out\n        /* \"#utility.yul\":2386:2503   */\n    tag_365:\n        /* \"#utility.yul\":2495:2496   */\n      0x00\n        /* \"#utility.yul\":2492:2493   */\n      dup1\n        /* \"#utility.yul\":2485:2497   */\n      revert\n        /* \"#utility.yul\":2632:2758   */\n    tag_367:\n        /* \"#utility.yul\":2669:2676   */\n      0x00\n        /* \"#utility.yul\":2709:2751   */\n      0xffffffffffffffffffffffffffffffffffffffff\n        /* \"#utility.yul\":2702:2707   */\n      dup3\n        /* \"#utility.yul\":2698:2752   */\n      and\n        /* \"#utility.yul\":2687:2752   */\n      swap1\n      pop\n        /* \"#utility.yul\":2632:2758   */\n      swap2\n      swap1\n      pop\n      jump\t// out\n        /* \"#utility.yul\":2764:2860   */\n    tag_368:\n        /* \"#utility.yul\":2801:2808   */\n      0x00\n        /* \"#utility.yul\":2830:2854   */\n      tag_443\n        /* \"#utility.yul\":2848:2853   */\n      dup3\n        /* \"#utility.yul\":2830:2854   */\n      tag_367\n      jump\t// in\n    tag_443:\n        /* \"#utility.yul\":2819:2854   */\n      swap1\n      pop\n        /* \"#utility.yul\":2764:2860   */\n      swap2\n      swap1\n      pop\n      jump\t// out\n        /* \"#utility.yul\":2866:2988   */\n    tag_369:\n        /* \"#utility.yul\":2939:2963   */\n      tag_445\n        /* \"#utility.yul\":2957:2962   */\n      dup2\n        /* \"#utility.yul\":2939:2963   */\n      tag_368\n      jump\t// in\n    tag_445:\n        /* \"#utility.yul\":2932:2937   */\n      dup2\n        /* \"#utility.yul\":2929:2964   */\n      eq\n        /* \"#utility.yul\":2919:2982   */\n      tag_446\n      jumpi\n        /* \"#utility.yul\":2978:2979   */\n      0x00\n        /* \"#utility.yul\":2975:2976   */\n      dup1\n        /* \"#utility.yul\":2968:2980   */\n      revert\n        /* \"#utility.yul\":2919:2982   */\n    tag_446:\n        /* \"#utility.yul\":2866:2988   */\n      pop\n      jump\t// out\n        /* \"#utility.yul\":2994:3133   */\n    tag_370:\n        /* \"#utility.yul\":3040:3045   */\n      0x00\n        /* \"#utility.yul\":3078:3084   */\n      dup2\n        /* \"#utility.yul\":3065:3085   */\n      calldataload\n        /* \"#utility.yul\":3056:3085   */\n      swap1\n      pop\n        /* \"#utility.yul\":3094:3127   */\n      tag_448\n        /* \"#utility.yul\":3121:3126   */\n      dup2\n        /* \"#utility.yul\":3094:3127   */\n      tag_369\n      jump\t// in\n    tag_448:\n        /* \"#utility.yul\":2994:3133   */\n      swap3\n      swap2\n      pop\n      pop\n      jump\t// out\n        /* \"#utility.yul\":3139:3216   */\n    tag_371:\n        /* \"#utility.yul\":3176:3183   */\n      0x00\n        /* \"#utility.yul\":3205:3210   */\n      dup2\n        /* \"#utility.yul\":3194:3210   */\n      swap1\n      pop\n        /* \"#utility.yul\":3139:3216   */\n      swap2\n      swap1\n      pop\n      jump\t// out\n        /* \"#utility.yul\":3222:3344   */\n    tag_372:\n        /* \"#utility.yul\":3295:3319   */\n      tag_451\n        /* \"#utility.yul\":3313:3318   */\n      dup2\n        /* \"#utility.yul\":3295:3319   */\n      tag_371\n      jump\t// in\n    tag_451:\n        /* \"#utility.yul\":3288:3293   */\n      dup2\n        /* \"#utility.yul\":3285:3320   */\n      eq\n        /* \"#utility.yul\":3275:3338   */\n      tag_452\n      jumpi\n        /* \"#utility.yul\":3334:3335   */\n      0x00\n        /* \"#utility.yul\":3331:3332   */\n      dup1\n        /* \"#utility.yul\":3324:3336   */\n      revert\n        /* \"#utility.yul\":3275:3338   */\n    tag_452:\n        /* \"#utility.yul\":3222:3344   */\n      pop\n      jump\t// out\n        /* \"#utility.yul\":3350:3489   */\n    tag_373:\n        /* \"#utility.yul\":3396:3401   */\n      0x00\n        /* \"#utility.yul\":3434:3440   */\n      dup2\n        /* \"#utility.yul\":3421:3441   */\n      calldataload\n        /* \"#utility.yul\":3412:3441   */\n      swap1\n      pop\n        /* \"#utility.yul\":3450:3483   */\n      tag_454\n        /* \"#utility.yul\":3477:3482   */\n      dup2\n        /* \"#utility.yul\":3450:3483   */\n      tag_372\n      jump\t// in\n    tag_454:\n        /* \"#utility.yul\":3350:3489   */\n      swap3\n      swap2\n      pop\n      pop\n      jump\t// out\n        /* \"#utility.yul\":3495:3969   */\n    tag_38:\n        /* \"#utility.yul\":3563:3569   */\n      0x00\n        /* \"#utility.yul\":3571:3577   */\n      dup1\n        /* \"#utility.yul\":3620:3622   */\n      0x40\n        /* \"#utility.yul\":3608:3617   */\n      dup4\n        /* \"#utility.yul\":3599:3606   */\n      dup6\n        /* \"#utility.yul\":3595:3618   */\n      sub\n        /* \"#utility.yul\":3591:3623   */\n      slt\n        /* \"#utility.yul\":3588:3707   */\n      iszero\n      tag_456\n      jumpi\n        /* \"#utility.yul\":3626:3705   */\n      tag_457\n      tag_365\n      jump\t// in\n    tag_457:\n        /* \"#utility.yul\":3588:3707   */\n    tag_456:\n        /* \"#utility.yul\":3746:3747   */\n      0x00\n        /* \"#utility.yul\":3771:3824   */\n      tag_458\n        /* \"#utility.yul\":3816:3823   */\n      dup6\n        /* \"#utility.yul\":3807:3813   */\n      dup3\n        /* \"#utility.yul\":3796:3805   */\n      dup7\n        /* \"#utility.yul\":3792:3814   */\n      add\n        /* \"#utility.yul\":3771:3824   */\n      tag_370\n      jump\t// in\n    tag_458:\n        /* \"#utility.yul\":3761:3824   */\n      swap3\n      pop\n        /* \"#utility.yul\":3717:3834   */\n      pop\n        /* \"#utility.yul\":3873:3875   */\n      0x20\n        /* \"#utility.yul\":3899:3952   */\n      tag_459\n        /* \"#utility.yul\":3944:3951   */\n      dup6\n        /* \"#utility.yul\":3935:3941   */\n      dup3\n        /* \"#utility.yul\":3924:3933   */\n      dup7\n        /* \"#utility.yul\":3920:3942   */\n      add\n        /* \"#utility.yul\":3899:3952   */\n      tag_373\n      jump\t// in\n    tag_459:\n        /* \"#utility.yul\":3889:3952   */\n      swap2\n      pop\n        /* \"#utility.yul\":3844:3962   */\n      pop\n        /* \"#utility.yul\":3495:3969   */\n      swap3\n      pop\n      swap3\n      swap1\n      pop\n      jump\t// out\n        /* \"#utility.yul\":3975:4065   */\n    tag_374:\n        /* \"#utility.yul\":4009:4016   */\n      0x00\n        /* \"#utility.yul\":4052:4057   */\n      dup2\n        /* \"#utility.yul\":4045:4058   */\n      iszero\n        /* \"#utility.yul\":4038:4059   */\n      iszero\n        /* \"#utility.yul\":4027:4059   */\n      swap1\n      pop\n        /* \"#utility.yul\":3975:4065   */\n      swap2\n      swap1\n      pop\n      jump\t// out\n        /* \"#utility.yul\":4071:4180   */\n    tag_375:\n        /* \"#utility.yul\":4152:4173   */\n      tag_462\n        /* \"#utility.yul\":4167:4172   */\n      dup2\n        /* \"#utility.yul\":4152:4173   */\n      tag_374\n      jump\t// in\n    tag_462:\n        /* \"#utility.yul\":4147:4150   */\n      dup3\n        /* \"#utility.yul\":4140:4174   */\n      mstore\n        /* \"#utility.yul\":4071:4180   */\n      pop\n      pop\n      jump\t// out\n        /* \"#utility.yul\":4186:4396   */\n    tag_41:\n        /* \"#utility.yul\":4273:4277   */\n      0x00\n        /* \"#utility.yul\":4311:4313   */\n      0x20\n        /* \"#utility.yul\":4300:4309   */\n      dup3\n        /* \"#utility.yul\":4296:4314   */\n      add\n        /* \"#utility.yul\":4288:4314   */\n      swap1\n      pop\n        /* \"#utility.yul\":4324:4389   */\n      tag_464\n        /* \"#utility.yul\":4386:4387   */\n      0x00\n        /* \"#utility.yul\":4375:4384   */\n      dup4\n        /* \"#utility.yul\":4371:4388   */\n      add\n        /* \"#utility.yul\":4362:4368   */\n      dup5\n        /* \"#utility.yul\":4324:4389   */\n      tag_375\n      jump\t// in\n    tag_464:\n        /* \"#utility.yul\":4186:4396   */\n      swap3\n      swap2\n      pop\n      pop\n      jump\t// out\n        /* \"#utility.yul\":4402:4520   */\n    tag_376:\n        /* \"#utility.yul\":4489:4513   */\n      tag_466\n        /* \"#utility.yul\":4507:4512   */\n      dup2\n        /* \"#utility.yul\":4489:4513   */\n      tag_368\n      jump\t// in\n    tag_466:\n        /* \"#utility.yul\":4484:4487   */\n      dup3\n        /* \"#utility.yul\":4477:4514   */\n      mstore\n        /* \"#utility.yul\":4402:4520   */\n      pop\n      pop\n      jump\t// out\n        /* \"#utility.yul\":4526:4748   */\n    tag_45:\n        /* \"#utility.yul\":4619:4623   */\n      0x00\n        /* \"#utility.yul\":4657:4659   */\n      0x20\n        /* \"#utility.yul\":4646:4655   */\n      dup3\n        /* \"#utility.yul\":4642:4660   */\n      add\n        /* \"#utility.yul\":4634:4660   */\n      swap1\n      pop\n        /* \"#utility.yul\":4670:4741   */\n      tag_468\n        /* \"#utility.yul\":4738:4739   */\n      0x00\n        /* \"#utility.yul\":4727:4736   */\n      dup4\n        /* \"#utility.yul\":4723:4740   */\n      add\n        /* \"#utility.yul\":4714:4720   */\n      dup5\n        /* \"#utility.yul\":4670:4741   */\n      tag_376\n      jump\t// in\n    tag_468:\n        /* \"#utility.yul\":4526:4748   */\n      swap3\n      swap2\n      pop\n      pop\n      jump\t// out\n        /* \"#utility.yul\":4754:4872   */\n    tag_377:\n        /* \"#utility.yul\":4841:4865   */\n      tag_470\n        /* \"#utility.yul\":4859:4864   */\n      dup2\n        /* \"#utility.yul\":4841:4865   */\n      tag_371\n      jump\t// in\n    tag_470:\n        /* \"#utility.yul\":4836:4839   */\n      dup3\n        /* \"#utility.yul\":4829:4866   */\n      mstore\n        /* \"#utility.yul\":4754:4872   */\n      pop\n      pop\n      jump\t// out\n        /* \"#utility.yul\":4878:5100   */\n    tag_49:\n        /* \"#utility.yul\":4971:4975   */\n      0x00\n        /* \"#utility.yul\":5009:5011   */\n      0x20\n        /* \"#utility.yul\":4998:5007   */\n      dup3\n        /* \"#utility.yul\":4994:5012   */\n      add\n        /* \"#utility.yul\":4986:5012   */\n      swap1\n      pop\n        /* \"#utility.yul\":5022:5093   */\n      tag_472\n        /* \"#utility.yul\":5090:5091   */\n      0x00\n        /* \"#utility.yul\":5079:5088   */\n      dup4\n        /* \"#utility.yul\":5075:5092   */\n      add\n        /* \"#utility.yul\":5066:5072   */\n      dup5\n        /* \"#utility.yul\":5022:5093   */\n      tag_377\n      jump\t// in\n    tag_472:\n        /* \"#utility.yul\":4878:5100   */\n      swap3\n      swap2\n      pop\n      pop\n      jump\t// out\n        /* \"#utility.yul\":5106:5725   */\n    tag_52:\n        /* \"#utility.yul\":5183:5189   */\n      0x00\n        /* \"#utility.yul\":5191:5197   */\n      dup1\n        /* \"#utility.yul\":5199:5205   */\n      0x00\n        /* \"#utility.yul\":5248:5250   */\n      0x60\n        /* \"#utility.yul\":5236:5245   */\n      dup5\n        /* \"#utility.yul\":5227:5234   */\n      dup7\n        /* \"#utility.yul\":5223:5246   */\n      sub\n        /* \"#utility.yul\":5219:5251   */\n      slt\n        /* \"#utility.yul\":5216:5335   */\n      iszero\n      tag_474\n      jumpi\n        /* \"#utility.yul\":5254:5333   */\n      tag_475\n      tag_365\n      jump\t// in\n    tag_475:\n        /* \"#utility.yul\":5216:5335   */\n    tag_474:\n        /* \"#utility.yul\":5374:5375   */\n      0x00\n        /* \"#utility.yul\":5399:5452   */\n      tag_476\n        /* \"#utility.yul\":5444:5451   */\n      dup7\n        /* \"#utility.yul\":5435:5441   */\n      dup3\n        /* \"#utility.yul\":5424:5433   */\n      dup8\n        /* \"#utility.yul\":5420:5442   */\n      add\n        /* \"#utility.yul\":5399:5452   */\n      tag_370\n      jump\t// in\n    tag_476:\n        /* \"#utility.yul\":5389:5452   */\n      swap4\n      pop\n        /* \"#utility.yul\":5345:5462   */\n      pop\n        /* \"#utility.yul\":5501:5503   */\n      0x20\n        /* \"#utility.yul\":5527:5580   */\n      tag_477\n        /* \"#utility.yul\":5572:5579   */\n      dup7\n        /* \"#utility.yul\":5563:5569   */\n      dup3\n        /* \"#utility.yul\":5552:5561   */\n      dup8\n        /* \"#utility.yul\":5548:5570   */\n      add\n        /* \"#utility.yul\":5527:5580   */\n      tag_370\n      jump\t// in\n    tag_477:\n        /* \"#utility.yul\":5517:5580   */\n      swap3\n      pop\n        /* \"#utility.yul\":5472:5590   */\n      pop\n        /* \"#utility.yul\":5629:5631   */\n      0x40\n        /* \"#utility.yul\":5655:5708   */\n      tag_478\n        /* \"#utility.yul\":5700:5707   */\n      dup7\n        /* \"#utility.yul\":5691:5697   */\n      dup3\n        /* \"#utility.yul\":5680:5689   */\n      dup8\n        /* \"#utility.yul\":5676:5698   */\n      add\n        /* \"#utility.yul\":5655:5708   */\n      tag_373\n      jump\t// in\n    tag_478:\n        /* \"#utility.yul\":5645:5708   */\n      swap2\n      pop\n        /* \"#utility.yul\":5600:5718   */\n      pop\n        /* \"#utility.yul\":5106:5725   */\n      swap3\n      pop\n      swap3\n      pop\n      swap3\n      jump\t// out\n        /* \"#utility.yul\":5731:5817   */\n    tag_378:\n        /* \"#utility.yul\":5766:5773   */\n      0x00\n        /* \"#utility.yul\":5806:5810   */\n      0xff\n        /* \"#utility.yul\":5799:5804   */\n      dup3\n        /* \"#utility.yul\":5795:5811   */\n      and\n        /* \"#utility.yul\":5784:5811   */\n      swap1\n      pop\n        /* \"#utility.yul\":5731:5817   */\n      swap2\n      swap1\n      pop\n      jump\t// out\n        /* \"#utility.yul\":5823:5935   */\n    tag_379:\n        /* \"#utility.yul\":5906:5928   */\n      tag_481\n        /* \"#utility.yul\":5922:5927   */\n      dup2\n        /* \"#utility.yul\":5906:5928   */\n      tag_378\n      jump\t// in\n    tag_481:\n        /* \"#utility.yul\":5901:5904   */\n      dup3\n        /* \"#utility.yul\":5894:5929   */\n      mstore\n        /* \"#utility.yul\":5823:5935   */\n      pop\n      pop\n      jump\t// out\n        /* \"#utility.yul\":5941:6155   */\n    tag_58:\n        /* \"#utility.yul\":6030:6034   */\n      0x00\n        /* \"#utility.yul\":6068:6070   */\n      0x20\n        /* \"#utility.yul\":6057:6066   */\n      dup3\n        /* \"#utility.yul\":6053:6071   */\n      add\n        /* \"#utility.yul\":6045:6071   */\n      swap1\n      pop\n        /* \"#utility.yul\":6081:6148   */\n      tag_483\n        /* \"#utility.yul\":6145:6146   */\n      0x00\n        /* \"#utility.yul\":6134:6143   */\n      dup4\n        /* \"#utility.yul\":6130:6147   */\n      add\n        /* \"#utility.yul\":6121:6127   */\n      dup5\n        /* \"#utility.yul\":6081:6148   */\n      tag_379\n      jump\t// in\n    tag_483:\n        /* \"#utility.yul\":5941:6155   */\n      swap3\n      swap2\n      pop\n      pop\n      jump\t// out\n        /* \"#utility.yul\":6161:6238   */\n    tag_380:\n        /* \"#utility.yul\":6198:6205   */\n      0x00\n        /* \"#utility.yul\":6227:6232   */\n      dup2\n        /* \"#utility.yul\":6216:6232   */\n      swap1\n      pop\n        /* \"#utility.yul\":6161:6238   */\n      swap2\n      swap1\n      pop\n      jump\t// out\n        /* \"#utility.yul\":6244:6362   */\n    tag_381:\n        /* \"#utility.yul\":6331:6355   */\n      tag_486\n        /* \"#utility.yul\":6349:6354   */\n      dup2\n        /* \"#utility.yul\":6331:6355   */\n      tag_380\n      jump\t// in\n    tag_486:\n        /* \"#utility.yul\":6326:6329   */\n      dup3\n        /* \"#utility.yul\":6319:6356   */\n      mstore\n        /* \"#utility.yul\":6244:6362   */\n      pop\n      pop\n      jump\t// out\n        /* \"#utility.yul\":6368:6590   */\n    tag_62:\n        /* \"#utility.yul\":6461:6465   */\n      0x00\n        /* \"#utility.yul\":6499:6501   */\n      0x20\n        /* \"#utility.yul\":6488:6497   */\n      dup3\n        /* \"#utility.yul\":6484:6502   */\n      add\n        /* \"#utility.yul\":6476:6502   */\n      swap1\n      pop\n        /* \"#utility.yul\":6512:6583   */\n      tag_488\n        /* \"#utility.yul\":6580:6581   */\n      0x00\n        /* \"#utility.yul\":6569:6578   */\n      dup4\n        /* \"#utility.yul\":6565:6582   */\n      add\n        /* \"#utility.yul\":6556:6562   */\n      dup5\n        /* \"#utility.yul\":6512:6583   */\n      tag_381\n      jump\t// in\n    tag_488:\n        /* \"#utility.yul\":6368:6590   */\n      swap3\n      swap2\n      pop\n      pop\n      jump\t// out\n        /* \"#utility.yul\":6596:7070   */\n    tag_65:\n        /* \"#utility.yul\":6664:6670   */\n      0x00\n        /* \"#utility.yul\":6672:6678   */\n      dup1\n        /* \"#utility.yul\":6721:6723   */\n      0x40\n        /* \"#utility.yul\":6709:6718   */\n      dup4\n        /* \"#utility.yul\":6700:6707   */\n      dup6\n        /* \"#utility.yul\":6696:6719   */\n      sub\n        /* \"#utility.yul\":6692:6724   */\n      slt\n        /* \"#utility.yul\":6689:6808   */\n      iszero\n      tag_490\n      jumpi\n        /* \"#utility.yul\":6727:6806   */\n      tag_491\n      tag_365\n      jump\t// in\n    tag_491:\n        /* \"#utility.yul\":6689:6808   */\n    tag_490:\n        /* \"#utility.yul\":6847:6848   */\n      0x00\n        /* \"#utility.yul\":6872:6925   */\n      tag_492\n        /* \"#utility.yul\":6917:6924   */\n      dup6\n        /* \"#utility.yul\":6908:6914   */\n      dup3\n        /* \"#utility.yul\":6897:6906   */\n      dup7\n        /* \"#utility.yul\":6893:6915   */\n      add\n        /* \"#utility.yul\":6872:6925   */\n      tag_370\n      jump\t// in\n    tag_492:\n        /* \"#utility.yul\":6862:6925   */\n      swap3\n      pop\n        /* \"#utility.yul\":6818:6935   */\n      pop\n        /* \"#utility.yul\":6974:6976   */\n      0x20\n        /* \"#utility.yul\":7000:7053   */\n      tag_493\n        /* \"#utility.yul\":7045:7052   */\n      dup6\n        /* \"#utility.yul\":7036:7042   */\n      dup3\n        /* \"#utility.yul\":7025:7034   */\n      dup7\n        /* \"#utility.yul\":7021:7043   */\n      add\n        /* \"#utility.yul\":7000:7053   */\n      tag_370\n      jump\t// in\n    tag_493:\n        /* \"#utility.yul\":6990:7053   */\n      swap2\n      pop\n        /* \"#utility.yul\":6945:7063   */\n      pop\n        /* \"#utility.yul\":6596:7070   */\n      swap3\n      pop\n      swap3\n      swap1\n      pop\n      jump\t// out\n        /* \"#utility.yul\":7076:7405   */\n    tag_75:\n        /* \"#utility.yul\":7135:7141   */\n      0x00\n        /* \"#utility.yul\":7184:7186   */\n      0x20\n        /* \"#utility.yul\":7172:7181   */\n      dup3\n        /* \"#utility.yul\":7163:7170   */\n      dup5\n        /* \"#utility.yul\":7159:7182   */\n      sub\n        /* \"#utility.yul\":7155:7187   */\n      slt\n        /* \"#utility.yul\":7152:7271   */\n      iszero\n      tag_495\n      jumpi\n        /* \"#utility.yul\":7190:7269   */\n      tag_496\n      tag_365\n      jump\t// in\n    tag_496:\n        /* \"#utility.yul\":7152:7271   */\n    tag_495:\n        /* \"#utility.yul\":7310:7311   */\n      0x00\n        /* \"#utility.yul\":7335:7388   */\n      tag_497\n        /* \"#utility.yul\":7380:7387   */\n      dup5\n        /* \"#utility.yul\":7371:7377   */\n      dup3\n        /* \"#utility.yul\":7360:7369   */\n      dup6\n        /* \"#utility.yul\":7356:7378   */\n      add\n        /* \"#utility.yul\":7335:7388   */\n      tag_370\n      jump\t// in\n    tag_497:\n        /* \"#utility.yul\":7325:7388   */\n      swap2\n      pop\n        /* \"#utility.yul\":7281:7398   */\n      pop\n        /* \"#utility.yul\":7076:7405   */\n      swap3\n      swap2\n      pop\n      pop\n      jump\t// out\n        /* \"#utility.yul\":7411:8030   */\n    tag_80:\n        /* \"#utility.yul\":7488:7494   */\n      0x00\n        /* \"#utility.yul\":7496:7502   */\n      dup1\n        /* \"#utility.yul\":7504:7510   */\n      0x00\n        /* \"#utility.yul\":7553:7555   */\n      0x60\n        /* \"#utility.yul\":7541:7550   */\n      dup5\n        /* \"#utility.yul\":7532:7539   */\n      dup7\n        /* \"#utility.yul\":7528:7551   */\n      sub\n        /* \"#utility.yul\":7524:7556   */\n      slt\n        /* \"#utility.yul\":7521:7640   */\n      iszero\n      tag_499\n      jumpi\n        /* \"#utility.yul\":7559:7638   */\n      tag_500\n      tag_365\n      jump\t// in\n    tag_500:\n        /* \"#utility.yul\":7521:7640   */\n    tag_499:\n        /* \"#utility.yul\":7679:7680   */\n      0x00\n        /* \"#utility.yul\":7704:7757   */\n      tag_501\n        /* \"#utility.yul\":7749:7756   */\n      dup7\n        /* \"#utility.yul\":7740:7746   */\n      dup3\n        /* \"#utility.yul\":7729:7738   */\n      dup8\n        /* \"#utility.yul\":7725:7747   */\n      add\n        /* \"#utility.yul\":7704:7757   */\n      tag_373\n      jump\t// in\n    tag_501:\n        /* \"#utility.yul\":7694:7757   */\n      swap4\n      pop\n        /* \"#utility.yul\":7650:7767   */\n      pop\n        /* \"#utility.yul\":7806:7808   */\n      0x20\n        /* \"#utility.yul\":7832:7885   */\n      tag_502\n        /* \"#utility.yul\":7877:7884   */\n      dup7\n        /* \"#utility.yul\":7868:7874   */\n      dup3\n        /* \"#utility.yul\":7857:7866   */\n      dup8\n        /* \"#utility.yul\":7853:7875   */\n      add\n        /* \"#utility.yul\":7832:7885   */\n      tag_373\n      jump\t// in\n    tag_502:\n        /* \"#utility.yul\":7822:7885   */\n      swap3\n      pop\n        /* \"#utility.yul\":7777:7895   */\n      pop\n        /* \"#utility.yul\":7934:7936   */\n      0x40\n        /* \"#utility.yul\":7960:8013   */\n      tag_503\n        /* \"#utility.yul\":8005:8012   */\n      dup7\n        /* \"#utility.yul\":7996:8002   */\n      dup3\n        /* \"#utility.yul\":7985:7994   */\n      dup8\n        /* \"#utility.yul\":7981:8003   */\n      add\n        /* \"#utility.yul\":7960:8013   */\n      tag_370\n      jump\t// in\n    tag_503:\n        /* \"#utility.yul\":7950:8013   */\n      swap2\n      pop\n        /* \"#utility.yul\":7905:8023   */\n      pop\n        /* \"#utility.yul\":7411:8030   */\n      swap3\n      pop\n      swap3\n      pop\n      swap3\n      jump\t// out\n        /* \"#utility.yul\":8036:8368   */\n    tag_94:\n        /* \"#utility.yul\":8157:8161   */\n      0x00\n        /* \"#utility.yul\":8195:8197   */\n      0x40\n        /* \"#utility.yul\":8184:8193   */\n      dup3\n        /* \"#utility.yul\":8180:8198   */\n      add\n        /* \"#utility.yul\":8172:8198   */\n      swap1\n      pop\n        /* \"#utility.yul\":8208:8279   */\n      tag_505\n        /* \"#utility.yul\":8276:8277   */\n      0x00\n        /* \"#utility.yul\":8265:8274   */\n      dup4\n        /* \"#utility.yul\":8261:8278   */\n      add\n        /* \"#utility.yul\":8252:8258   */\n      dup6\n        /* \"#utility.yul\":8208:8279   */\n      tag_377\n      jump\t// in\n    tag_505:\n        /* \"#utility.yul\":8289:8361   */\n      tag_506\n        /* \"#utility.yul\":8357:8359   */\n      0x20\n        /* \"#utility.yul\":8346:8355   */\n      dup4\n        /* \"#utility.yul\":8342:8360   */\n      add\n        /* \"#utility.yul\":8333:8339   */\n      dup5\n        /* \"#utility.yul\":8289:8361   */\n      tag_377\n      jump\t// in\n    tag_506:\n        /* \"#utility.yul\":8036:8368   */\n      swap4\n      swap3\n      pop\n      pop\n      pop\n      jump\t// out\n        /* \"#utility.yul\":8374:8492   */\n    tag_382:\n        /* \"#utility.yul\":8445:8467   */\n      tag_508\n        /* \"#utility.yul\":8461:8466   */\n      dup2\n        /* \"#utility.yul\":8445:8467   */\n      tag_378\n      jump\t// in\n    tag_508:\n        /* \"#utility.yul\":8438:8443   */\n      dup2\n        /* \"#utility.yul\":8435:8468   */\n      eq\n        /* \"#utility.yul\":8425:8486   */\n      tag_509\n      jumpi\n        /* \"#utility.yul\":8482:8483   */\n      0x00\n        /* \"#utility.yul\":8479:8480   */\n      dup1\n        /* \"#utility.yul\":8472:8484   */\n      revert\n        /* \"#utility.yul\":8425:8486   */\n    tag_509:\n        /* \"#utility.yul\":8374:8492   */\n      pop\n      jump\t// out\n        /* \"#utility.yul\":8498:8633   */\n    tag_383:\n        /* \"#utility.yul\":8542:8547   */\n      0x00\n        /* \"#utility.yul\":8580:8586   */\n      dup2\n        /* \"#utility.yul\":8567:8587   */\n      calldataload\n        /* \"#utility.yul\":8558:8587   */\n      swap1\n      pop\n        /* \"#utility.yul\":8596:8627   */\n      tag_511\n        /* \"#utility.yul\":8621:8626   */\n      dup2\n        /* \"#utility.yul\":8596:8627   */\n      tag_382\n      jump\t// in\n    tag_511:\n        /* \"#utility.yul\":8498:8633   */\n      swap3\n      swap2\n      pop\n      pop\n      jump\t// out\n        /* \"#utility.yul\":8639:8761   */\n    tag_384:\n        /* \"#utility.yul\":8712:8736   */\n      tag_513\n        /* \"#utility.yul\":8730:8735   */\n      dup2\n        /* \"#utility.yul\":8712:8736   */\n      tag_380\n      jump\t// in\n    tag_513:\n        /* \"#utility.yul\":8705:8710   */\n      dup2\n        /* \"#utility.yul\":8702:8737   */\n      eq\n        /* \"#utility.yul\":8692:8755   */\n      tag_514\n      jumpi\n        /* \"#utility.yul\":8751:8752   */\n      0x00\n        /* \"#utility.yul\":8748:8749   */\n      dup1\n        /* \"#utility.yul\":8741:8753   */\n      revert\n        /* \"#utility.yul\":8692:8755   */\n    tag_514:\n        /* \"#utility.yul\":8639:8761   */\n      pop\n      jump\t// out\n        /* \"#utility.yul\":8767:8906   */\n    tag_385:\n        /* \"#utility.yul\":8813:8818   */\n      0x00\n        /* \"#utility.yul\":8851:8857   */\n      dup2\n        /* \"#utility.yul\":8838:8858   */\n      calldataload\n        /* \"#utility.yul\":8829:8858   */\n      swap1\n      pop\n        /* \"#utility.yul\":8867:8900   */\n      tag_516\n        /* \"#utility.yul\":8894:8899   */\n      dup2\n        /* \"#utility.yul\":8867:8900   */\n      tag_384\n      jump\t// in\n    tag_516:\n        /* \"#utility.yul\":8767:8906   */\n      swap3\n      swap2\n      pop\n      pop\n      jump\t// out\n        /* \"#utility.yul\":8912:10111   */\n    tag_107:\n        /* \"#utility.yul\":9023:9029   */\n      0x00\n        /* \"#utility.yul\":9031:9037   */\n      dup1\n        /* \"#utility.yul\":9039:9045   */\n      0x00\n        /* \"#utility.yul\":9047:9053   */\n      dup1\n        /* \"#utility.yul\":9055:9061   */\n      0x00\n        /* \"#utility.yul\":9063:9069   */\n      dup1\n        /* \"#utility.yul\":9071:9077   */\n      0x00\n        /* \"#utility.yul\":9120:9123   */\n      0xe0\n        /* \"#utility.yul\":9108:9117   */\n      dup9\n        /* \"#utility.yul\":9099:9106   */\n      dup11\n        /* \"#utility.yul\":9095:9118   */\n      sub\n        /* \"#utility.yul\":9091:9124   */\n      slt\n        /* \"#utility.yul\":9088:9208   */\n      iszero\n      tag_518\n      jumpi\n        /* \"#utility.yul\":9127:9206   */\n      tag_519\n      tag_365\n      jump\t// in\n    tag_519:\n        /* \"#utility.yul\":9088:9208   */\n    tag_518:\n        /* \"#utility.yul\":9247:9248   */\n      0x00\n        /* \"#utility.yul\":9272:9325   */\n      tag_520\n        /* \"#utility.yul\":9317:9324   */\n      dup11\n        /* \"#utility.yul\":9308:9314   */\n      dup3\n        /* \"#utility.yul\":9297:9306   */\n      dup12\n        /* \"#utility.yul\":9293:9315   */\n      add\n        /* \"#utility.yul\":9272:9325   */\n      tag_370\n      jump\t// in\n    tag_520:\n        /* \"#utility.yul\":9262:9325   */\n      swap8\n      pop\n        /* \"#utility.yul\":9218:9335   */\n      pop\n        /* \"#utility.yul\":9374:9376   */\n      0x20\n        /* \"#utility.yul\":9400:9453   */\n      tag_521\n        /* \"#utility.yul\":9445:9452   */\n      dup11\n        /* \"#utility.yul\":9436:9442   */\n      dup3\n        /* \"#utility.yul\":9425:9434   */\n      dup12\n        /* \"#utility.yul\":9421:9443   */\n      add\n        /* \"#utility.yul\":9400:9453   */\n      tag_370\n      jump\t// in\n    tag_521:\n        /* \"#utility.yul\":9390:9453   */\n      swap7\n      pop\n        /* \"#utility.yul\":9345:9463   */\n      pop\n        /* \"#utility.yul\":9502:9504   */\n      0x40\n        /* \"#utility.yul\":9528:9581   */\n      tag_522\n        /* \"#utility.yul\":9573:9580   */\n      dup11\n        /* \"#utility.yul\":9564:9570   */\n      dup3\n        /* \"#utility.yul\":9553:9562   */\n      dup12\n        /* \"#utility.yul\":9549:9571   */\n      add\n        /* \"#utility.yul\":9528:9581   */\n      tag_373\n      jump\t// in\n    tag_522:\n        /* \"#utility.yul\":9518:9581   */\n      swap6\n      pop\n        /* \"#utility.yul\":9473:9591   */\n      pop\n        /* \"#utility.yul\":9630:9632   */\n      0x60\n        /* \"#utility.yul\":9656:9709   */\n      tag_523\n        /* \"#utility.yul\":9701:9708   */\n      dup11\n        /* \"#utility.yul\":9692:9698   */\n      dup3\n        /* \"#utility.yul\":9681:9690   */\n      dup12\n        /* \"#utility.yul\":9677:9699   */\n      add\n        /* \"#utility.yul\":9656:9709   */\n      tag_373\n      jump\t// in\n    tag_523:\n        /* \"#utility.yul\":9646:9709   */\n      swap5\n      pop\n        /* \"#utility.yul\":9601:9719   */\n      pop\n        /* \"#utility.yul\":9758:9761   */\n      0x80\n        /* \"#utility.yul\":9785:9836   */\n      tag_524\n        /* \"#utility.yul\":9828:9835   */\n      dup11\n        /* \"#utility.yul\":9819:9825   */\n      dup3\n        /* \"#utility.yul\":9808:9817   */\n      dup12\n        /* \"#utility.yul\":9804:9826   */\n      add\n        /* \"#utility.yul\":9785:9836   */\n      tag_383\n      jump\t// in\n    tag_524:\n        /* \"#utility.yul\":9775:9836   */\n      swap4\n      pop\n        /* \"#utility.yul\":9729:9846   */\n      pop\n        /* \"#utility.yul\":9885:9888   */\n      0xa0\n        /* \"#utility.yul\":9912:9965   */\n      tag_525\n        /* \"#utility.yul\":9957:9964   */\n      dup11\n        /* \"#utility.yul\":9948:9954   */\n      dup3\n        /* \"#utility.yul\":9937:9946   */\n      dup12\n        /* \"#utility.yul\":9933:9955   */\n      add\n        /* \"#utility.yul\":9912:9965   */\n      tag_385\n      jump\t// in\n    tag_525:\n        /* \"#utility.yul\":9902:9965   */\n      swap3\n      pop\n        /* \"#utility.yul\":9856:9975   */\n      pop\n        /* \"#utility.yul\":10014:10017   */\n      0xc0\n        /* \"#utility.yul\":10041:10094   */\n      tag_526\n        /* \"#utility.yul\":10086:10093   */\n      dup11\n        /* \"#utility.yul\":10077:10083   */\n      dup3\n        /* \"#utility.yul\":10066:10075   */\n      dup12\n        /* \"#utility.yul\":10062:10084   */\n      add\n        /* \"#utility.yul\":10041:10094   */\n      tag_385\n      jump\t// in\n    tag_526:\n        /* \"#utility.yul\":10031:10094   */\n      swap2\n      pop\n        /* \"#utility.yul\":9985:10104   */\n      pop\n        /* \"#utility.yul\":8912:10111   */\n      swap3\n      swap6\n      swap9\n      swap2\n      swap5\n      swap8\n      pop\n      swap3\n      swap6\n      pop\n      jump\t// out\n        /* \"#utility.yul\":10117:10297   */\n    tag_386:\n        /* \"#utility.yul\":10165:10242   */\n      0x4e487b7100000000000000000000000000000000000000000000000000000000\n        /* \"#utility.yul\":10162:10163   */\n      0x00\n        /* \"#utility.yul\":10155:10243   */\n      mstore\n        /* \"#utility.yul\":10262:10266   */\n      0x22\n        /* \"#utility.yul\":10259:10260   */\n      0x04\n        /* \"#utility.yul\":10252:10267   */\n      mstore\n        /* \"#utility.yul\":10286:10290   */\n      0x24\n        /* \"#utility.yul\":10283:10284   */\n      0x00\n        /* \"#utility.yul\":10276:10291   */\n      revert\n        /* \"#utility.yul\":10303:10623   */\n    tag_116:\n        /* \"#utility.yul\":10347:10353   */\n      0x00\n        /* \"#utility.yul\":10384:10385   */\n      0x02\n        /* \"#utility.yul\":10378:10382   */\n      dup3\n        /* \"#utility.yul\":10374:10386   */\n      div\n        /* \"#utility.yul\":10364:10386   */\n      swap1\n      pop\n        /* \"#utility.yul\":10431:10432   */\n      0x01\n        /* \"#utility.yul\":10425:10429   */\n      dup3\n        /* \"#utility.yul\":10421:10433   */\n      and\n        /* \"#utility.yul\":10452:10470   */\n      dup1\n        /* \"#utility.yul\":10442:10523   */\n      tag_529\n      jumpi\n        /* \"#utility.yul\":10508:10512   */\n      0x7f\n        /* \"#utility.yul\":10500:10506   */\n      dup3\n        /* \"#utility.yul\":10496:10513   */\n      and\n        /* \"#utility.yul\":10486:10513   */\n      swap2\n      pop\n        /* \"#utility.yul\":10442:10523   */\n    tag_529:\n        /* \"#utility.yul\":10570:10572   */\n      0x20\n        /* \"#utility.yul\":10562:10568   */\n      dup3\n        /* \"#utility.yul\":10559:10573   */\n      lt\n        /* \"#utility.yul\":10539:10557   */\n      dup2\n        /* \"#utility.yul\":10536:10574   */\n      eq\n        /* \"#utility.yul\":10533:10617   */\n      iszero\n      tag_530\n      jumpi\n        /* \"#utility.yul\":10589:10607   */\n      tag_531\n      tag_386\n      jump\t// in\n    tag_531:\n        /* \"#utility.yul\":10533:10617   */\n    tag_530:\n        /* \"#utility.yul\":10354:10623   */\n      pop\n        /* \"#utility.yul\":10303:10623   */\n      swap2\n      swap1\n      pop\n      jump\t// out\n        /* \"#utility.yul\":10629:10809   */\n    tag_387:\n        /* \"#utility.yul\":10677:10754   */\n      0x4e487b7100000000000000000000000000000000000000000000000000000000\n        /* \"#utility.yul\":10674:10675   */\n      0x00\n        /* \"#utility.yul\":10667:10755   */\n      mstore\n        /* \"#utility.yul\":10774:10778   */\n      0x11\n        /* \"#utility.yul\":10771:10772   */\n      0x04\n        /* \"#utility.yul\":10764:10779   */\n      mstore\n        /* \"#utility.yul\":10798:10802   */\n      0x24\n        /* \"#utility.yul\":10795:10796   */\n      0x00\n        /* \"#utility.yul\":10788:10803   */\n      revert\n        /* \"#utility.yul\":10815:11006   */\n    tag_127:\n        /* \"#utility.yul\":10855:10859   */\n      0x00\n        /* \"#utility.yul\":10875:10895   */\n      tag_534\n        /* \"#utility.yul\":10893:10894   */\n      dup3\n        /* \"#utility.yul\":10875:10895   */\n      tag_371\n      jump\t// in\n    tag_534:\n        /* \"#utility.yul\":10870:10895   */\n      swap2\n      pop\n        /* \"#utility.yul\":10909:10929   */\n      tag_535\n        /* \"#utility.yul\":10927:10928   */\n      dup4\n        /* \"#utility.yul\":10909:10929   */\n      tag_371\n      jump\t// in\n    tag_535:\n        /* \"#utility.yul\":10904:10929   */\n      swap3\n      pop\n        /* \"#utility.yul\":10948:10949   */\n      dup3\n        /* \"#utility.yul\":10945:10946   */\n      dup3\n        /* \"#utility.yul\":10942:10950   */\n      lt\n        /* \"#utility.yul\":10939:10973   */\n      iszero\n      tag_536\n      jumpi\n        /* \"#utility.yul\":10953:10971   */\n      tag_537\n      tag_387\n      jump\t// in\n    tag_537:\n        /* \"#utility.yul\":10939:10973   */\n    tag_536:\n        /* \"#utility.yul\":10998:10999   */\n      dup3\n        /* \"#utility.yul\":10995:10996   */\n      dup3\n        /* \"#utility.yul\":10991:11000   */\n      sub\n        /* \"#utility.yul\":10983:11000   */\n      swap1\n      pop\n        /* \"#utility.yul\":10815:11006   */\n      swap3\n      swap2\n      pop\n      pop\n      jump\t// out\n        /* \"#utility.yul\":11012:11241   */\n    tag_388:\n        /* \"#utility.yul\":11152:11186   */\n      0x4b616a75737761703a20596f752063616e6e6f7420456e74657220696e207468\n        /* \"#utility.yul\":11148:11149   */\n      0x00\n        /* \"#utility.yul\":11140:11146   */\n      dup3\n        /* \"#utility.yul\":11136:11150   */\n      add\n        /* \"#utility.yul\":11129:11187   */\n      mstore\n        /* \"#utility.yul\":11221:11233   */\n      0x6520636f6e747261637400000000000000000000000000000000000000000000\n        /* \"#utility.yul\":11216:11218   */\n      0x20\n        /* \"#utility.yul\":11208:11214   */\n      dup3\n        /* \"#utility.yul\":11204:11219   */\n      add\n        /* \"#utility.yul\":11197:11234   */\n      mstore\n        /* \"#utility.yul\":11012:11241   */\n      pop\n      jump\t// out\n        /* \"#utility.yul\":11247:11613   */\n    tag_389:\n        /* \"#utility.yul\":11389:11392   */\n      0x00\n        /* \"#utility.yul\":11410:11477   */\n      tag_540\n        /* \"#utility.yul\":11474:11476   */\n      0x2a\n        /* \"#utility.yul\":11469:11472   */\n      dup4\n        /* \"#utility.yul\":11410:11477   */\n      tag_356\n      jump\t// in\n    tag_540:\n        /* \"#utility.yul\":11403:11477   */\n      swap2\n      pop\n        /* \"#utility.yul\":11486:11579   */\n      tag_541\n        /* \"#utility.yul\":11575:11578   */\n      dup3\n        /* \"#utility.yul\":11486:11579   */\n      tag_388\n      jump\t// in\n    tag_541:\n        /* \"#utility.yul\":11604:11606   */\n      0x40\n        /* \"#utility.yul\":11599:11602   */\n      dup3\n        /* \"#utility.yul\":11595:11607   */\n      add\n        /* \"#utility.yul\":11588:11607   */\n      swap1\n      pop\n        /* \"#utility.yul\":11247:11613   */\n      swap2\n      swap1\n      pop\n      jump\t// out\n        /* \"#utility.yul\":11619:12038   */\n    tag_141:\n        /* \"#utility.yul\":11785:11789   */\n      0x00\n        /* \"#utility.yul\":11823:11825   */\n      0x20\n        /* \"#utility.yul\":11812:11821   */\n      dup3\n        /* \"#utility.yul\":11808:11826   */\n      add\n        /* \"#utility.yul\":11800:11826   */\n      swap1\n      pop\n        /* \"#utility.yul\":11872:11881   */\n      dup2\n        /* \"#utility.yul\":11866:11870   */\n      dup2\n        /* \"#utility.yul\":11862:11882   */\n      sub\n        /* \"#utility.yul\":11858:11859   */\n      0x00\n        /* \"#utility.yul\":11847:11856   */\n      dup4\n        /* \"#utility.yul\":11843:11860   */\n      add\n        /* \"#utility.yul\":11836:11883   */\n      mstore\n        /* \"#utility.yul\":11900:12031   */\n      tag_543\n        /* \"#utility.yul\":12026:12030   */\n      dup2\n        /* \"#utility.yul\":11900:12031   */\n      tag_389\n      jump\t// in\n    tag_543:\n        /* \"#utility.yul\":11892:12031   */\n      swap1\n      pop\n        /* \"#utility.yul\":11619:12038   */\n      swap2\n      swap1\n      pop\n      jump\t// out\n        /* \"#utility.yul\":12044:12187   */\n    tag_390:\n        /* \"#utility.yul\":12101:12106   */\n      0x00\n        /* \"#utility.yul\":12132:12138   */\n      dup2\n        /* \"#utility.yul\":12126:12139   */\n      mload\n        /* \"#utility.yul\":12117:12139   */\n      swap1\n      pop\n        /* \"#utility.yul\":12148:12181   */\n      tag_545\n        /* \"#utility.yul\":12175:12180   */\n      dup2\n        /* \"#utility.yul\":12148:12181   */\n      tag_372\n      jump\t// in\n    tag_545:\n        /* \"#utility.yul\":12044:12187   */\n      swap3\n      swap2\n      pop\n      pop\n      jump\t// out\n        /* \"#utility.yul\":12193:12544   */\n    tag_148:\n        /* \"#utility.yul\":12263:12269   */\n      0x00\n        /* \"#utility.yul\":12312:12314   */\n      0x20\n        /* \"#utility.yul\":12300:12309   */\n      dup3\n        /* \"#utility.yul\":12291:12298   */\n      dup5\n        /* \"#utility.yul\":12287:12310   */\n      sub\n        /* \"#utility.yul\":12283:12315   */\n      slt\n        /* \"#utility.yul\":12280:12399   */\n      iszero\n      tag_547\n      jumpi\n        /* \"#utility.yul\":12318:12397   */\n      tag_548\n      tag_365\n      jump\t// in\n    tag_548:\n        /* \"#utility.yul\":12280:12399   */\n    tag_547:\n        /* \"#utility.yul\":12438:12439   */\n      0x00\n        /* \"#utility.yul\":12463:12527   */\n      tag_549\n        /* \"#utility.yul\":12519:12526   */\n      dup5\n        /* \"#utility.yul\":12510:12516   */\n      dup3\n        /* \"#utility.yul\":12499:12508   */\n      dup6\n        /* \"#utility.yul\":12495:12517   */\n      add\n        /* \"#utility.yul\":12463:12527   */\n      tag_390\n      jump\t// in\n    tag_549:\n        /* \"#utility.yul\":12453:12527   */\n      swap2\n      pop\n        /* \"#utility.yul\":12409:12537   */\n      pop\n        /* \"#utility.yul\":12193:12544   */\n      swap3\n      swap2\n      pop\n      pop\n      jump\t// out\n        /* \"#utility.yul\":12550:12898   */\n    tag_158:\n        /* \"#utility.yul\":12590:12597   */\n      0x00\n        /* \"#utility.yul\":12613:12633   */\n      tag_551\n        /* \"#utility.yul\":12631:12632   */\n      dup3\n        /* \"#utility.yul\":12613:12633   */\n      tag_371\n      jump\t// in\n    tag_551:\n        /* \"#utility.yul\":12608:12633   */\n      swap2\n      pop\n        /* \"#utility.yul\":12647:12667   */\n      tag_552\n        /* \"#utility.yul\":12665:12666   */\n      dup4\n        /* \"#utility.yul\":12647:12667   */\n      tag_371\n      jump\t// in\n    tag_552:\n        /* \"#utility.yul\":12642:12667   */\n      swap3\n      pop\n        /* \"#utility.yul\":12835:12836   */\n      dup2\n        /* \"#utility.yul\":12767:12833   */\n      0xffffffffffffffffffffffffffffffffffffffffffffffffffffffffffffffff\n        /* \"#utility.yul\":12763:12837   */\n      div\n        /* \"#utility.yul\":12760:12761   */\n      dup4\n        /* \"#utility.yul\":12757:12838   */\n      gt\n        /* \"#utility.yul\":12752:12753   */\n      dup3\n        /* \"#utility.yul\":12745:12754   */\n      iszero\n        /* \"#utility.yul\":12738:12755   */\n      iszero\n        /* \"#utility.yul\":12734:12839   */\n      and\n        /* \"#utility.yul\":12731:12862   */\n      iszero\n      tag_553\n      jumpi\n        /* \"#utility.yul\":12842:12860   */\n      tag_554\n      tag_387\n      jump\t// in\n    tag_554:\n        /* \"#utility.yul\":12731:12862   */\n    tag_553:\n        /* \"#utility.yul\":12890:12891   */\n      dup3\n        /* \"#utility.yul\":12887:12888   */\n      dup3\n        /* \"#utility.yul\":12883:12892   */\n      mul\n        /* \"#utility.yul\":12872:12892   */\n      swap1\n      pop\n        /* \"#utility.yul\":12550:12898   */\n      swap3\n      swap2\n      pop\n      pop\n      jump\t// out\n        /* \"#utility.yul\":12904:13084   */\n    tag_391:\n        /* \"#utility.yul\":12952:13029   */\n      0x4e487b7100000000000000000000000000000000000000000000000000000000\n        /* \"#utility.yul\":12949:12950   */\n      0x00\n        /* \"#utility.yul\":12942:13030   */\n      mstore\n        /* \"#utility.yul\":13049:13053   */\n      0x12\n        /* \"#utility.yul\":13046:13047   */\n      0x04\n        /* \"#utility.yul\":13039:13054   */\n      mstore\n        /* \"#utility.yul\":13073:13077   */\n      0x24\n        /* \"#utility.yul\":13070:13071   */\n      0x00\n        /* \"#utility.yul\":13063:13078   */\n      revert\n        /* \"#utility.yul\":13090:13275   */\n    tag_167:\n        /* \"#utility.yul\":13130:13131   */\n      0x00\n        /* \"#utility.yul\":13147:13167   */\n      tag_557\n        /* \"#utility.yul\":13165:13166   */\n      dup3\n        /* \"#utility.yul\":13147:13167   */\n      tag_371\n      jump\t// in\n    tag_557:\n        /* \"#utility.yul\":13142:13167   */\n      swap2\n      pop\n        /* \"#utility.yul\":13181:13201   */\n      tag_558\n        /* \"#utility.yul\":13199:13200   */\n      dup4\n        /* \"#utility.yul\":13181:13201   */\n      tag_371\n      jump\t// in\n    tag_558:\n        /* \"#utility.yul\":13176:13201   */\n      swap3\n      pop\n        /* \"#utility.yul\":13220:13221   */\n      dup3\n        /* \"#utility.yul\":13210:13245   */\n      tag_559\n      jumpi\n        /* \"#utility.yul\":13225:13243   */\n      tag_560\n      tag_391\n      jump\t// in\n    tag_560:\n        /* \"#utility.yul\":13210:13245   */\n    tag_559:\n        /* \"#utility.yul\":13267:13268   */\n      dup3\n        /* \"#utility.yul\":13264:13265   */\n      dup3\n        /* \"#utility.yul\":13260:13269   */\n      div\n        /* \"#utility.yul\":13255:13269   */\n      swap1\n      pop\n        /* \"#utility.yul\":13090:13275   */\n      swap3\n      swap2\n      pop\n      pop\n      jump\t// out\n        /* \"#utility.yul\":13281:13723   */\n    tag_255:\n        /* \"#utility.yul\":13430:13434   */\n      0x00\n        /* \"#utility.yul\":13468:13470   */\n      0x60\n        /* \"#utility.yul\":13457:13466   */\n      dup3\n        /* \"#utility.yul\":13453:13471   */\n      add\n        /* \"#utility.yul\":13445:13471   */\n      swap1\n      pop\n        /* \"#utility.yul\":13481:13552   */\n      tag_562\n        /* \"#utility.yul\":13549:13550   */\n      0x00\n        /* \"#utility.yul\":13538:13547   */\n      dup4\n        /* \"#utility.yul\":13534:13551   */\n      add\n        /* \"#utility.yul\":13525:13531   */\n      dup7\n        /* \"#utility.yul\":13481:13552   */\n      tag_377\n      jump\t// in\n    tag_562:\n        /* \"#utility.yul\":13562:13634   */\n      tag_563\n        /* \"#utility.yul\":13630:13632   */\n      0x20\n        /* \"#utility.yul\":13619:13628   */\n      dup4\n        /* \"#utility.yul\":13615:13633   */\n      add\n        /* \"#utility.yul\":13606:13612   */\n      dup6\n        /* \"#utility.yul\":13562:13634   */\n      tag_377\n      jump\t// in\n    tag_563:\n        /* \"#utility.yul\":13644:13716   */\n      tag_564\n        /* \"#utility.yul\":13712:13714   */\n      0x40\n        /* \"#utility.yul\":13701:13710   */\n      dup4\n        /* \"#utility.yul\":13697:13715   */\n      add\n        /* \"#utility.yul\":13688:13694   */\n      dup5\n        /* \"#utility.yul\":13644:13716   */\n      tag_376\n      jump\t// in\n    tag_564:\n        /* \"#utility.yul\":13281:13723   */\n      swap5\n      swap4\n      pop\n      pop\n      pop\n      pop\n      jump\t// out\n        /* \"#utility.yul\":13729:13902   */\n    tag_392:\n        /* \"#utility.yul\":13869:13894   */\n      0x5045524d49545f444541444c494e455f45585049524544000000000000000000\n        /* \"#utility.yul\":13865:13866   */\n      0x00\n        /* \"#utility.yul\":13857:13863   */\n      dup3\n        /* \"#utility.yul\":13853:13867   */\n      add\n        /* \"#utility.yul\":13846:13895   */\n      mstore\n        /* \"#utility.yul\":13729:13902   */\n      pop\n      jump\t// out\n        /* \"#utility.yul\":13908:14274   */\n    tag_393:\n        /* \"#utility.yul\":14050:14053   */\n      0x00\n        /* \"#utility.yul\":14071:14138   */\n      tag_567\n        /* \"#utility.yul\":14135:14137   */\n      0x17\n        /* \"#utility.yul\":14130:14133   */\n      dup4\n        /* \"#utility.yul\":14071:14138   */\n      tag_356\n      jump\t// in\n    tag_567:\n        /* \"#utility.yul\":14064:14138   */\n      swap2\n      pop\n        /* \"#utility.yul\":14147:14240   */\n      tag_568\n        /* \"#utility.yul\":14236:14239   */\n      dup3\n        /* \"#utility.yul\":14147:14240   */\n      tag_392\n      jump\t// in\n    tag_568:\n        /* \"#utility.yul\":14265:14267   */\n      0x20\n        /* \"#utility.yul\":14260:14263   */\n      dup3\n        /* \"#utility.yul\":14256:14268   */\n      add\n        /* \"#utility.yul\":14249:14268   */\n      swap1\n      pop\n        /* \"#utility.yul\":13908:14274   */\n      swap2\n      swap1\n      pop\n      jump\t// out\n        /* \"#utility.yul\":14280:14699   */\n    tag_267:\n        /* \"#utility.yul\":14446:14450   */\n      0x00\n        /* \"#utility.yul\":14484:14486   */\n      0x20\n        /* \"#utility.yul\":14473:14482   */\n      dup3\n        /* \"#utility.yul\":14469:14487   */\n      add\n        /* \"#utility.yul\":14461:14487   */\n      swap1\n      pop\n        /* \"#utility.yul\":14533:14542   */\n      dup2\n        /* \"#utility.yul\":14527:14531   */\n      dup2\n        /* \"#utility.yul\":14523:14543   */\n      sub\n        /* \"#utility.yul\":14519:14520   */\n      0x00\n        /* \"#utility.yul\":14508:14517   */\n      dup4\n        /* \"#utility.yul\":14504:14521   */\n      add\n        /* \"#utility.yul\":14497:14544   */\n      mstore\n        /* \"#utility.yul\":14561:14692   */\n      tag_570\n        /* \"#utility.yul\":14687:14691   */\n      dup2\n        /* \"#utility.yul\":14561:14692   */\n      tag_393\n      jump\t// in\n    tag_570:\n        /* \"#utility.yul\":14553:14692   */\n      swap1\n      pop\n        /* \"#utility.yul\":14280:14699   */\n      swap2\n      swap1\n      pop\n      jump\t// out\n        /* \"#utility.yul\":14705:15480   */\n    tag_270:\n        /* \"#utility.yul\":14938:14942   */\n      0x00\n        /* \"#utility.yul\":14976:14979   */\n      0xc0\n        /* \"#utility.yul\":14965:14974   */\n      dup3\n        /* \"#utility.yul\":14961:14980   */\n      add\n        /* \"#utility.yul\":14953:14980   */\n      swap1\n      pop\n        /* \"#utility.yul\":14990:15061   */\n      tag_572\n        /* \"#utility.yul\":15058:15059   */\n      0x00\n        /* \"#utility.yul\":15047:15056   */\n      dup4\n        /* \"#utility.yul\":15043:15060   */\n      add\n        /* \"#utility.yul\":15034:15040   */\n      dup10\n        /* \"#utility.yul\":14990:15061   */\n      tag_381\n      jump\t// in\n    tag_572:\n        /* \"#utility.yul\":15071:15143   */\n      tag_573\n        /* \"#utility.yul\":15139:15141   */\n      0x20\n        /* \"#utility.yul\":15128:15137   */\n      dup4\n        /* \"#utility.yul\":15124:15142   */\n      add\n        /* \"#utility.yul\":15115:15121   */\n      dup9\n        /* \"#utility.yul\":15071:15143   */\n      tag_376\n      jump\t// in\n    tag_573:\n        /* \"#utility.yul\":15153:15225   */\n      tag_574\n        /* \"#utility.yul\":15221:15223   */\n      0x40\n        /* \"#utility.yul\":15210:15219   */\n      dup4\n        /* \"#utility.yul\":15206:15224   */\n      add\n        /* \"#utility.yul\":15197:15203   */\n      dup8\n        /* \"#utility.yul\":15153:15225   */\n      tag_376\n      jump\t// in\n    tag_574:\n        /* \"#utility.yul\":15235:15307   */\n      tag_575\n        /* \"#utility.yul\":15303:15305   */\n      0x60\n        /* \"#utility.yul\":15292:15301   */\n      dup4\n        /* \"#utility.yul\":15288:15306   */\n      add\n        /* \"#utility.yul\":15279:15285   */\n      dup7\n        /* \"#utility.yul\":15235:15307   */\n      tag_377\n      jump\t// in\n    tag_575:\n        /* \"#utility.yul\":15317:15390   */\n      tag_576\n        /* \"#utility.yul\":15385:15388   */\n      0x80\n        /* \"#utility.yul\":15374:15383   */\n      dup4\n        /* \"#utility.yul\":15370:15389   */\n      add\n        /* \"#utility.yul\":15361:15367   */\n      dup6\n        /* \"#utility.yul\":15317:15390   */\n      tag_377\n      jump\t// in\n    tag_576:\n        /* \"#utility.yul\":15400:15473   */\n      tag_577\n        /* \"#utility.yul\":15468:15471   */\n      0xa0\n        /* \"#utility.yul\":15457:15466   */\n      dup4\n        /* \"#utility.yul\":15453:15472   */\n      add\n        /* \"#utility.yul\":15444:15450   */\n      dup5\n        /* \"#utility.yul\":15400:15473   */\n      tag_377\n      jump\t// in\n    tag_577:\n        /* \"#utility.yul\":14705:15480   */\n      swap8\n      swap7\n      pop\n      pop\n      pop\n      pop\n      pop\n      pop\n      pop\n      jump\t// out\n        /* \"#utility.yul\":15486:15634   */\n    tag_394:\n        /* \"#utility.yul\":15588:15599   */\n      0x00\n        /* \"#utility.yul\":15625:15628   */\n      dup2\n        /* \"#utility.yul\":15610:15628   */\n      swap1\n      pop\n        /* \"#utility.yul\":15486:15634   */\n      swap3\n      swap2\n      pop\n      pop\n      jump\t// out\n        /* \"#utility.yul\":15640:15854   */\n    tag_395:\n        /* \"#utility.yul\":15780:15846   */\n      0x1901000000000000000000000000000000000000000000000000000000000000\n        /* \"#utility.yul\":15776:15777   */\n      0x00\n        /* \"#utility.yul\":15768:15774   */\n      dup3\n        /* \"#utility.yul\":15764:15778   */\n      add\n        /* \"#utility.yul\":15757:15847   */\n      mstore\n        /* \"#utility.yul\":15640:15854   */\n      pop\n      jump\t// out\n        /* \"#utility.yul\":15860:16260   */\n    tag_396:\n        /* \"#utility.yul\":16020:16023   */\n      0x00\n        /* \"#utility.yul\":16041:16125   */\n      tag_581\n        /* \"#utility.yul\":16123:16124   */\n      0x02\n        /* \"#utility.yul\":16118:16121   */\n      dup4\n        /* \"#utility.yul\":16041:16125   */\n      tag_394\n      jump\t// in\n    tag_581:\n        /* \"#utility.yul\":16034:16125   */\n      swap2\n      pop\n        /* \"#utility.yul\":16134:16227   */\n      tag_582\n        /* \"#utility.yul\":16223:16226   */\n      dup3\n        /* \"#utility.yul\":16134:16227   */\n      tag_395\n      jump\t// in\n    tag_582:\n        /* \"#utility.yul\":16252:16253   */\n      0x02\n        /* \"#utility.yul\":16247:16250   */\n      dup3\n        /* \"#utility.yul\":16243:16254   */\n      add\n        /* \"#utility.yul\":16236:16254   */\n      swap1\n      pop\n        /* \"#utility.yul\":15860:16260   */\n      swap2\n      swap1\n      pop\n      jump\t// out\n        /* \"#utility.yul\":16266:16345   */\n    tag_397:\n        /* \"#utility.yul\":16305:16312   */\n      0x00\n        /* \"#utility.yul\":16334:16339   */\n      dup2\n        /* \"#utility.yul\":16323:16339   */\n      swap1\n      pop\n        /* \"#utility.yul\":16266:16345   */\n      swap2\n      swap1\n      pop\n      jump\t// out\n        /* \"#utility.yul\":16351:16508   */\n    tag_398:\n        /* \"#utility.yul\":16456:16501   */\n      tag_585\n        /* \"#utility.yul\":16476:16500   */\n      tag_586\n        /* \"#utility.yul\":16494:16499   */\n      dup3\n        /* \"#utility.yul\":16476:16500   */\n      tag_380\n      jump\t// in\n    tag_586:\n        /* \"#utility.yul\":16456:16501   */\n      tag_397\n      jump\t// in\n    tag_585:\n        /* \"#utility.yul\":16451:16454   */\n      dup3\n        /* \"#utility.yul\":16444:16502   */\n      mstore\n        /* \"#utility.yul\":16351:16508   */\n      pop\n      pop\n      jump\t// out\n        /* \"#utility.yul\":16514:17177   */\n    tag_272:\n        /* \"#utility.yul\":16755:16758   */\n      0x00\n        /* \"#utility.yul\":16777:16925   */\n      tag_588\n        /* \"#utility.yul\":16921:16924   */\n      dup3\n        /* \"#utility.yul\":16777:16925   */\n      tag_396\n      jump\t// in\n    tag_588:\n        /* \"#utility.yul\":16770:16925   */\n      swap2\n      pop\n        /* \"#utility.yul\":16935:17010   */\n      tag_589\n        /* \"#utility.yul\":17006:17009   */\n      dup3\n        /* \"#utility.yul\":16997:17003   */\n      dup6\n        /* \"#utility.yul\":16935:17010   */\n      tag_398\n      jump\t// in\n    tag_589:\n        /* \"#utility.yul\":17035:17037   */\n      0x20\n        /* \"#utility.yul\":17030:17033   */\n      dup3\n        /* \"#utility.yul\":17026:17038   */\n      add\n        /* \"#utility.yul\":17019:17038   */\n      swap2\n      pop\n        /* \"#utility.yul\":17048:17123   */\n      tag_590\n        /* \"#utility.yul\":17119:17122   */\n      dup3\n        /* \"#utility.yul\":17110:17116   */\n      dup5\n        /* \"#utility.yul\":17048:17123   */\n      tag_398\n      jump\t// in\n    tag_590:\n        /* \"#utility.yul\":17148:17150   */\n      0x20\n        /* \"#utility.yul\":17143:17146   */\n      dup3\n        /* \"#utility.yul\":17139:17151   */\n      add\n        /* \"#utility.yul\":17132:17151   */\n      swap2\n      pop\n        /* \"#utility.yul\":17168:17171   */\n      dup2\n        /* \"#utility.yul\":17161:17171   */\n      swap1\n      pop\n        /* \"#utility.yul\":16514:17177   */\n      swap4\n      swap3\n      pop\n      pop\n      pop\n      jump\t// out\n        /* \"#utility.yul\":17183:17728   */\n    tag_274:\n        /* \"#utility.yul\":17356:17360   */\n      0x00\n        /* \"#utility.yul\":17394:17397   */\n      0x80\n        /* \"#utility.yul\":17383:17392   */\n      dup3\n        /* \"#utility.yul\":17379:17398   */\n      add\n        /* \"#utility.yul\":17371:17398   */\n      swap1\n      pop\n        /* \"#utility.yul\":17408:17479   */\n      tag_592\n        /* \"#utility.yul\":17476:17477   */\n      0x00\n        /* \"#utility.yul\":17465:17474   */\n      dup4\n        /* \"#utility.yul\":17461:17478   */\n      add\n        /* \"#utility.yul\":17452:17458   */\n      dup8\n        /* \"#utility.yul\":17408:17479   */\n      tag_381\n      jump\t// in\n    tag_592:\n        /* \"#utility.yul\":17489:17557   */\n      tag_593\n        /* \"#utility.yul\":17553:17555   */\n      0x20\n        /* \"#utility.yul\":17542:17551   */\n      dup4\n        /* \"#utility.yul\":17538:17556   */\n      add\n        /* \"#utility.yul\":17529:17535   */\n      dup7\n        /* \"#utility.yul\":17489:17557   */\n      tag_379\n      jump\t// in\n    tag_593:\n        /* \"#utility.yul\":17567:17639   */\n      tag_594\n        /* \"#utility.yul\":17635:17637   */\n      0x40\n        /* \"#utility.yul\":17624:17633   */\n      dup4\n        /* \"#utility.yul\":17620:17638   */\n      add\n        /* \"#utility.yul\":17611:17617   */\n      dup6\n        /* \"#utility.yul\":17567:17639   */\n      tag_381\n      jump\t// in\n    tag_594:\n        /* \"#utility.yul\":17649:17721   */\n      tag_595\n        /* \"#utility.yul\":17717:17719   */\n      0x60\n        /* \"#utility.yul\":17706:17715   */\n      dup4\n        /* \"#utility.yul\":17702:17720   */\n      add\n        /* \"#utility.yul\":17693:17699   */\n      dup5\n        /* \"#utility.yul\":17649:17721   */\n      tag_381\n      jump\t// in\n    tag_595:\n        /* \"#utility.yul\":17183:17728   */\n      swap6\n      swap5\n      pop\n      pop\n      pop\n      pop\n      pop\n      jump\t// out\n        /* \"#utility.yul\":17734:17898   */\n    tag_399:\n        /* \"#utility.yul\":17874:17890   */\n      0x494e56414c49445f5349474e4552000000000000000000000000000000000000\n        /* \"#utility.yul\":17870:17871   */\n      0x00\n        /* \"#utility.yul\":17862:17868   */\n      dup3\n        /* \"#utility.yul\":17858:17872   */\n      add\n        /* \"#utility.yul\":17851:17891   */\n      mstore\n        /* \"#utility.yul\":17734:17898   */\n      pop\n      jump\t// out\n        /* \"#utility.yul\":17904:18270   */\n    tag_400:\n        /* \"#utility.yul\":18046:18049   */\n      0x00\n        /* \"#utility.yul\":18067:18134   */\n      tag_598\n        /* \"#utility.yul\":18131:18133   */\n      0x0e\n        /* \"#utility.yul\":18126:18129   */\n      dup4\n        /* \"#utility.yul\":18067:18134   */\n      tag_356\n      jump\t// in\n    tag_598:\n        /* \"#utility.yul\":18060:18134   */\n      swap2\n      pop\n        /* \"#utility.yul\":18143:18236   */\n      tag_599\n        /* \"#utility.yul\":18232:18235   */\n      dup3\n        /* \"#utility.yul\":18143:18236   */\n      tag_399\n      jump\t// in\n    tag_599:\n        /* \"#utility.yul\":18261:18263   */\n      0x20\n        /* \"#utility.yul\":18256:18259   */\n      dup3\n        /* \"#utility.yul\":18252:18264   */\n      add\n        /* \"#utility.yul\":18245:18264   */\n      swap1\n      pop\n        /* \"#utility.yul\":17904:18270   */\n      swap2\n      swap1\n      pop\n      jump\t// out\n        /* \"#utility.yul\":18276:18695   */\n    tag_280:\n        /* \"#utility.yul\":18442:18446   */\n      0x00\n        /* \"#utility.yul\":18480:18482   */\n      0x20\n        /* \"#utility.yul\":18469:18478   */\n      dup3\n        /* \"#utility.yul\":18465:18483   */\n      add\n        /* \"#utility.yul\":18457:18483   */\n      swap1\n      pop\n        /* \"#utility.yul\":18529:18538   */\n      dup2\n        /* \"#utility.yul\":18523:18527   */\n      dup2\n        /* \"#utility.yul\":18519:18539   */\n      sub\n        /* \"#utility.yul\":18515:18516   */\n      0x00\n        /* \"#utility.yul\":18504:18513   */\n      dup4\n        /* \"#utility.yul\":18500:18517   */\n      add\n        /* \"#utility.yul\":18493:18540   */\n      mstore\n        /* \"#utility.yul\":18557:18688   */\n      tag_601\n        /* \"#utility.yul\":18683:18687   */\n      dup2\n        /* \"#utility.yul\":18557:18688   */\n      tag_400\n      jump\t// in\n    tag_601:\n        /* \"#utility.yul\":18549:18688   */\n      swap1\n      pop\n        /* \"#utility.yul\":18276:18695   */\n      swap2\n      swap1\n      pop\n      jump\t// out\n        /* \"#utility.yul\":18701:18848   */\n    tag_401:\n        /* \"#utility.yul\":18802:18813   */\n      0x00\n        /* \"#utility.yul\":18839:18842   */\n      dup2\n        /* \"#utility.yul\":18824:18842   */\n      swap1\n      pop\n        /* \"#utility.yul\":18701:18848   */\n      swap3\n      swap2\n      pop\n      pop\n      jump\t// out\n        /* \"#utility.yul\":18854:18998   */\n    tag_402:\n        /* \"#utility.yul\":18906:18910   */\n      0x00\n        /* \"#utility.yul\":18929:18932   */\n      dup2\n        /* \"#utility.yul\":18921:18932   */\n      swap1\n      pop\n        /* \"#utility.yul\":18952:18955   */\n      dup2\n        /* \"#utility.yul\":18949:18950   */\n      0x00\n        /* \"#utility.yul\":18942:18956   */\n      mstore\n        /* \"#utility.yul\":18986:18990   */\n      0x20\n        /* \"#utility.yul\":18983:18984   */\n      0x00\n        /* \"#utility.yul\":18973:18991   */\n      keccak256\n        /* \"#utility.yul\":18965:18991   */\n      swap1\n      pop\n        /* \"#utility.yul\":18854:18998   */\n      swap2\n      swap1\n      pop\n      jump\t// out\n        /* \"#utility.yul\":19026:19875   */\n    tag_403:\n        /* \"#utility.yul\":19131:19134   */\n      0x00\n        /* \"#utility.yul\":19168:19173   */\n      dup2\n        /* \"#utility.yul\":19162:19174   */\n      sload\n        /* \"#utility.yul\":19197:19233   */\n      tag_605\n        /* \"#utility.yul\":19223:19232   */\n      dup2\n        /* \"#utility.yul\":19197:19233   */\n      tag_116\n      jump\t// in\n    tag_605:\n        /* \"#utility.yul\":19249:19337   */\n      tag_606\n        /* \"#utility.yul\":19330:19336   */\n      dup2\n        /* \"#utility.yul\":19325:19328   */\n      dup7\n        /* \"#utility.yul\":19249:19337   */\n      tag_401\n      jump\t// in\n    tag_606:\n        /* \"#utility.yul\":19242:19337   */\n      swap5\n      pop\n        /* \"#utility.yul\":19368:19369   */\n      0x01\n        /* \"#utility.yul\":19357:19366   */\n      dup3\n        /* \"#utility.yul\":19353:19370   */\n      and\n        /* \"#utility.yul\":19384:19385   */\n      0x00\n        /* \"#utility.yul\":19379:19516   */\n      dup2\n      eq\n      tag_608\n      jumpi\n        /* \"#utility.yul\":19530:19531   */\n      0x01\n        /* \"#utility.yul\":19525:19869   */\n      dup2\n      eq\n      tag_609\n      jumpi\n        /* \"#utility.yul\":19346:19869   */\n      jump(tag_607)\n        /* \"#utility.yul\":19379:19516   */\n    tag_608:\n        /* \"#utility.yul\":19463:19467   */\n      0xff\n        /* \"#utility.yul\":19459:19468   */\n      not\n        /* \"#utility.yul\":19448:19457   */\n      dup4\n        /* \"#utility.yul\":19444:19469   */\n      and\n        /* \"#utility.yul\":19439:19442   */\n      dup7\n        /* \"#utility.yul\":19432:19470   */\n      mstore\n        /* \"#utility.yul\":19499:19505   */\n      dup2\n        /* \"#utility.yul\":19494:19497   */\n      dup7\n        /* \"#utility.yul\":19490:19506   */\n      add\n        /* \"#utility.yul\":19483:19506   */\n      swap4\n      pop\n        /* \"#utility.yul\":19379:19516   */\n      jump(tag_607)\n        /* \"#utility.yul\":19525:19869   */\n    tag_609:\n        /* \"#utility.yul\":19592:19633   */\n      tag_610\n        /* \"#utility.yul\":19627:19632   */\n      dup6\n        /* \"#utility.yul\":19592:19633   */\n      tag_402\n      jump\t// in\n    tag_610:\n        /* \"#utility.yul\":19655:19656   */\n      0x00\n        /* \"#utility.yul\":19669:19823   */\n    tag_611:\n        /* \"#utility.yul\":19683:19689   */\n      dup4\n        /* \"#utility.yul\":19680:19681   */\n      dup2\n        /* \"#utility.yul\":19677:19690   */\n      lt\n        /* \"#utility.yul\":19669:19823   */\n      iszero\n      tag_613\n      jumpi\n        /* \"#utility.yul\":19757:19764   */\n      dup2\n        /* \"#utility.yul\":19751:19765   */\n      sload\n        /* \"#utility.yul\":19747:19748   */\n      dup2\n        /* \"#utility.yul\":19742:19745   */\n      dup10\n        /* \"#utility.yul\":19738:19749   */\n      add\n        /* \"#utility.yul\":19731:19766   */\n      mstore\n        /* \"#utility.yul\":19807:19808   */\n      0x01\n        /* \"#utility.yul\":19798:19805   */\n      dup3\n        /* \"#utility.yul\":19794:19809   */\n      add\n        /* \"#utility.yul\":19783:19809   */\n      swap2\n      pop\n        /* \"#utility.yul\":19705:19709   */\n      0x20\n        /* \"#utility.yul\":19702:19703   */\n      dup2\n        /* \"#utility.yul\":19698:19710   */\n      add\n        /* \"#utility.yul\":19693:19710   */\n      swap1\n      pop\n        /* \"#utility.yul\":19669:19823   */\n      jump(tag_611)\n    tag_613:\n        /* \"#utility.yul\":19852:19858   */\n      dup4\n        /* \"#utility.yul\":19847:19850   */\n      dup9\n        /* \"#utility.yul\":19843:19859   */\n      add\n        /* \"#utility.yul\":19836:19859   */\n      swap6\n      pop\n        /* \"#utility.yul\":19532:19869   */\n      pop\n      pop\n        /* \"#utility.yul\":19346:19869   */\n    tag_607:\n      pop\n        /* \"#utility.yul\":19135:19875   */\n      pop\n      pop\n        /* \"#utility.yul\":19026:19875   */\n      swap3\n      swap2\n      pop\n      pop\n      jump\t// out\n        /* \"#utility.yul\":19881:20154   */\n    tag_298:\n        /* \"#utility.yul\":20012:20015   */\n      0x00\n        /* \"#utility.yul\":20034:20128   */\n      tag_615\n        /* \"#utility.yul\":20124:20127   */\n      dup3\n        /* \"#utility.yul\":20115:20121   */\n      dup5\n        /* \"#utility.yul\":20034:20128   */\n      tag_403\n      jump\t// in\n    tag_615:\n        /* \"#utility.yul\":20027:20128   */\n      swap2\n      pop\n        /* \"#utility.yul\":20145:20148   */\n      dup2\n        /* \"#utility.yul\":20138:20148   */\n      swap1\n      pop\n        /* \"#utility.yul\":19881:20154   */\n      swap3\n      swap2\n      pop\n      pop\n      jump\t// out\n        /* \"#utility.yul\":20160:20824   */\n    tag_300:\n        /* \"#utility.yul\":20365:20369   */\n      0x00\n        /* \"#utility.yul\":20403:20406   */\n      0xa0\n        /* \"#utility.yul\":20392:20401   */\n      dup3\n        /* \"#utility.yul\":20388:20407   */\n      add\n        /* \"#utility.yul\":20380:20407   */\n      swap1\n      pop\n        /* \"#utility.yul\":20417:20488   */\n      tag_617\n        /* \"#utility.yul\":20485:20486   */\n      0x00\n        /* \"#utility.yul\":20474:20483   */\n      dup4\n        /* \"#utility.yul\":20470:20487   */\n      add\n        /* \"#utility.yul\":20461:20467   */\n      dup9\n        /* \"#utility.yul\":20417:20488   */\n      tag_381\n      jump\t// in\n    tag_617:\n        /* \"#utility.yul\":20498:20570   */\n      tag_618\n        /* \"#utility.yul\":20566:20568   */\n      0x20\n        /* \"#utility.yul\":20555:20564   */\n      dup4\n        /* \"#utility.yul\":20551:20569   */\n      add\n        /* \"#utility.yul\":20542:20548   */\n      dup8\n        /* \"#utility.yul\":20498:20570   */\n      tag_381\n      jump\t// in\n    tag_618:\n        /* \"#utility.yul\":20580:20652   */\n      tag_619\n        /* \"#utility.yul\":20648:20650   */\n      0x40\n        /* \"#utility.yul\":20637:20646   */\n      dup4\n        /* \"#utility.yul\":20633:20651   */\n      add\n        /* \"#utility.yul\":20624:20630   */\n      dup7\n        /* \"#utility.yul\":20580:20652   */\n      tag_381\n      jump\t// in\n    tag_619:\n        /* \"#utility.yul\":20662:20734   */\n      tag_620\n        /* \"#utility.yul\":20730:20732   */\n      0x60\n        /* \"#utility.yul\":20719:20728   */\n      dup4\n        /* \"#utility.yul\":20715:20733   */\n      add\n        /* \"#utility.yul\":20706:20712   */\n      dup6\n        /* \"#utility.yul\":20662:20734   */\n      tag_377\n      jump\t// in\n    tag_620:\n        /* \"#utility.yul\":20744:20817   */\n      tag_621\n        /* \"#utility.yul\":20812:20815   */\n      0x80\n        /* \"#utility.yul\":20801:20810   */\n      dup4\n        /* \"#utility.yul\":20797:20816   */\n      add\n        /* \"#utility.yul\":20788:20794   */\n      dup5\n        /* \"#utility.yul\":20744:20817   */\n      tag_376\n      jump\t// in\n    tag_621:\n        /* \"#utility.yul\":20160:20824   */\n      swap7\n      swap6\n      pop\n      pop\n      pop\n      pop\n      pop\n      pop\n      jump\t// out\n        /* \"#utility.yul\":20830:21135   */\n    tag_305:\n        /* \"#utility.yul\":20870:20873   */\n      0x00\n        /* \"#utility.yul\":20889:20909   */\n      tag_623\n        /* \"#utility.yul\":20907:20908   */\n      dup3\n        /* \"#utility.yul\":20889:20909   */\n      tag_371\n      jump\t// in\n    tag_623:\n        /* \"#utility.yul\":20884:20909   */\n      swap2\n      pop\n        /* \"#utility.yul\":20923:20943   */\n      tag_624\n        /* \"#utility.yul\":20941:20942   */\n      dup4\n        /* \"#utility.yul\":20923:20943   */\n      tag_371\n      jump\t// in\n    tag_624:\n        /* \"#utility.yul\":20918:20943   */\n      swap3\n      pop\n        /* \"#utility.yul\":21077:21078   */\n      dup3\n        /* \"#utility.yul\":21009:21075   */\n      0xffffffffffffffffffffffffffffffffffffffffffffffffffffffffffffffff\n        /* \"#utility.yul\":21005:21079   */\n      sub\n        /* \"#utility.yul\":21002:21003   */\n      dup3\n        /* \"#utility.yul\":20999:21080   */\n      gt\n        /* \"#utility.yul\":20996:21103   */\n      iszero\n      tag_625\n      jumpi\n        /* \"#utility.yul\":21083:21101   */\n      tag_626\n      tag_387\n      jump\t// in\n    tag_626:\n        /* \"#utility.yul\":20996:21103   */\n    tag_625:\n        /* \"#utility.yul\":21127:21128   */\n      dup3\n        /* \"#utility.yul\":21124:21125   */\n      dup3\n        /* \"#utility.yul\":21120:21129   */\n      add\n        /* \"#utility.yul\":21113:21129   */\n      swap1\n      pop\n        /* \"#utility.yul\":20830:21135   */\n      swap3\n      swap2\n      pop\n      pop\n      jump\t// out\n        /* \"#utility.yul\":21141:21201   */\n    tag_404:\n        /* \"#utility.yul\":21169:21172   */\n      0x00\n        /* \"#utility.yul\":21190:21195   */\n      dup2\n        /* \"#utility.yul\":21183:21195   */\n      swap1\n      pop\n        /* \"#utility.yul\":21141:21201   */\n      swap2\n      swap1\n      pop\n      jump\t// out\n        /* \"#utility.yul\":21207:21349   */\n    tag_405:\n        /* \"#utility.yul\":21257:21266   */\n      0x00\n        /* \"#utility.yul\":21290:21343   */\n      tag_629\n        /* \"#utility.yul\":21308:21342   */\n      tag_630\n        /* \"#utility.yul\":21317:21341   */\n      tag_631\n        /* \"#utility.yul\":21335:21340   */\n      dup5\n        /* \"#utility.yul\":21317:21341   */\n      tag_360\n      jump\t// in\n    tag_631:\n        /* \"#utility.yul\":21308:21342   */\n      tag_404\n      jump\t// in\n    tag_630:\n        /* \"#utility.yul\":21290:21343   */\n      tag_371\n      jump\t// in\n    tag_629:\n        /* \"#utility.yul\":21277:21343   */\n      swap1\n      pop\n        /* \"#utility.yul\":21207:21349   */\n      swap2\n      swap1\n      pop\n      jump\t// out\n        /* \"#utility.yul\":21355:21486   */\n    tag_406:\n        /* \"#utility.yul\":21442:21479   */\n      tag_633\n        /* \"#utility.yul\":21473:21478   */\n      dup2\n        /* \"#utility.yul\":21442:21479   */\n      tag_405\n      jump\t// in\n    tag_633:\n        /* \"#utility.yul\":21437:21440   */\n      dup3\n        /* \"#utility.yul\":21430:21480   */\n      mstore\n        /* \"#utility.yul\":21355:21486   */\n      pop\n      pop\n      jump\t// out\n        /* \"#utility.yul\":21492:21824   */\n    tag_332:\n        /* \"#utility.yul\":21613:21617   */\n      0x00\n        /* \"#utility.yul\":21651:21653   */\n      0x40\n        /* \"#utility.yul\":21640:21649   */\n      dup3\n        /* \"#utility.yul\":21636:21654   */\n      add\n        /* \"#utility.yul\":21628:21654   */\n      swap1\n      pop\n        /* \"#utility.yul\":21664:21735   */\n      tag_635\n        /* \"#utility.yul\":21732:21733   */\n      0x00\n        /* \"#utility.yul\":21721:21730   */\n      dup4\n        /* \"#utility.yul\":21717:21734   */\n      add\n        /* \"#utility.yul\":21708:21714   */\n      dup6\n        /* \"#utility.yul\":21664:21735   */\n      tag_406\n      jump\t// in\n    tag_635:\n        /* \"#utility.yul\":21745:21817   */\n      tag_636\n        /* \"#utility.yul\":21813:21815   */\n      0x20\n        /* \"#utility.yul\":21802:21811   */\n      dup4\n        /* \"#utility.yul\":21798:21816   */\n      add\n        /* \"#utility.yul\":21789:21795   */\n      dup5\n        /* \"#utility.yul\":21745:21817   */\n      tag_406\n      jump\t// in\n    tag_636:\n        /* \"#utility.yul\":21492:21824   */\n      swap4\n      swap3\n      pop\n      pop\n      pop\n      jump\t// out\n        /* \"#utility.yul\":21830:22162   */\n    tag_335:\n        /* \"#utility.yul\":21951:21955   */\n      0x00\n        /* \"#utility.yul\":21989:21991   */\n      0x40\n        /* \"#utility.yul\":21978:21987   */\n      dup3\n        /* \"#utility.yul\":21974:21992   */\n      add\n        /* \"#utility.yul\":21966:21992   */\n      swap1\n      pop\n        /* \"#utility.yul\":22002:22073   */\n      tag_638\n        /* \"#utility.yul\":22070:22071   */\n      0x00\n        /* \"#utility.yul\":22059:22068   */\n      dup4\n        /* \"#utility.yul\":22055:22072   */\n      add\n        /* \"#utility.yul\":22046:22052   */\n      dup6\n        /* \"#utility.yul\":22002:22073   */\n      tag_376\n      jump\t// in\n    tag_638:\n        /* \"#utility.yul\":22083:22155   */\n      tag_639\n        /* \"#utility.yul\":22151:22153   */\n      0x20\n        /* \"#utility.yul\":22140:22149   */\n      dup4\n        /* \"#utility.yul\":22136:22154   */\n      add\n        /* \"#utility.yul\":22127:22133   */\n      dup5\n        /* \"#utility.yul\":22083:22155   */\n      tag_377\n      jump\t// in\n    tag_639:\n        /* \"#utility.yul\":21830:22162   */\n      swap4\n      swap3\n      pop\n      pop\n      pop\n      jump\t// out\n        /* \"#utility.yul\":22168:22266   */\n    tag_407:\n        /* \"#utility.yul\":22219:22225   */\n      0x00\n        /* \"#utility.yul\":22253:22258   */\n      dup2\n        /* \"#utility.yul\":22247:22259   */\n      mload\n        /* \"#utility.yul\":22237:22259   */\n      swap1\n      pop\n        /* \"#utility.yul\":22168:22266   */\n      swap2\n      swap1\n      pop\n      jump\t// out\n        /* \"#utility.yul\":22272:22645   */\n    tag_408:\n        /* \"#utility.yul\":22376:22379   */\n      0x00\n        /* \"#utility.yul\":22404:22442   */\n      tag_642\n        /* \"#utility.yul\":22436:22441   */\n      dup3\n        /* \"#utility.yul\":22404:22442   */\n      tag_407\n      jump\t// in\n    tag_642:\n        /* \"#utility.yul\":22458:22546   */\n      tag_643\n        /* \"#utility.yul\":22539:22545   */\n      dup2\n        /* \"#utility.yul\":22534:22537   */\n      dup6\n        /* \"#utility.yul\":22458:22546   */\n      tag_401\n      jump\t// in\n    tag_643:\n        /* \"#utility.yul\":22451:22546   */\n      swap4\n      pop\n        /* \"#utility.yul\":22555:22607   */\n      tag_644\n        /* \"#utility.yul\":22600:22606   */\n      dup2\n        /* \"#utility.yul\":22595:22598   */\n      dup6\n        /* \"#utility.yul\":22588:22592   */\n      0x20\n        /* \"#utility.yul\":22581:22586   */\n      dup7\n        /* \"#utility.yul\":22577:22593   */\n      add\n        /* \"#utility.yul\":22555:22607   */\n      tag_357\n      jump\t// in\n    tag_644:\n        /* \"#utility.yul\":22632:22638   */\n      dup1\n        /* \"#utility.yul\":22627:22630   */\n      dup5\n        /* \"#utility.yul\":22623:22639   */\n      add\n        /* \"#utility.yul\":22616:22639   */\n      swap2\n      pop\n        /* \"#utility.yul\":22380:22645   */\n      pop\n        /* \"#utility.yul\":22272:22645   */\n      swap3\n      swap2\n      pop\n      pop\n      jump\t// out\n        /* \"#utility.yul\":22651:22922   */\n    tag_337:\n        /* \"#utility.yul\":22781:22784   */\n      0x00\n        /* \"#utility.yul\":22803:22896   */\n      tag_646\n        /* \"#utility.yul\":22892:22895   */\n      dup3\n        /* \"#utility.yul\":22883:22889   */\n      dup5\n        /* \"#utility.yul\":22803:22896   */\n      tag_408\n      jump\t// in\n    tag_646:\n        /* \"#utility.yul\":22796:22896   */\n      swap2\n      pop\n        /* \"#utility.yul\":22913:22916   */\n      dup2\n        /* \"#utility.yul\":22906:22916   */\n      swap1\n      pop\n        /* \"#utility.yul\":22651:22922   */\n      swap3\n      swap2\n      pop\n      pop\n      jump\t// out\n        /* \"#utility.yul\":22928:23044   */\n    tag_409:\n        /* \"#utility.yul\":22998:23019   */\n      tag_648\n        /* \"#utility.yul\":23013:23018   */\n      dup2\n        /* \"#utility.yul\":22998:23019   */\n      tag_374\n      jump\t// in\n    tag_648:\n        /* \"#utility.yul\":22991:22996   */\n      dup2\n        /* \"#utility.yul\":22988:23020   */\n      eq\n        /* \"#utility.yul\":22978:23038   */\n      tag_649\n      jumpi\n        /* \"#utility.yul\":23034:23035   */\n      0x00\n        /* \"#utility.yul\":23031:23032   */\n      dup1\n        /* \"#utility.yul\":23024:23036   */\n      revert\n        /* \"#utility.yul\":22978:23038   */\n    tag_649:\n        /* \"#utility.yul\":22928:23044   */\n      pop\n      jump\t// out\n        /* \"#utility.yul\":23050:23187   */\n    tag_410:\n        /* \"#utility.yul\":23104:23109   */\n      0x00\n        /* \"#utility.yul\":23135:23141   */\n      dup2\n        /* \"#utility.yul\":23129:23142   */\n      mload\n        /* \"#utility.yul\":23120:23142   */\n      swap1\n      pop\n        /* \"#utility.yul\":23151:23181   */\n      tag_651\n        /* \"#utility.yul\":23175:23180   */\n      dup2\n        /* \"#utility.yul\":23151:23181   */\n      tag_409\n      jump\t// in\n    tag_651:\n        /* \"#utility.yul\":23050:23187   */\n      swap3\n      swap2\n      pop\n      pop\n      jump\t// out\n        /* \"#utility.yul\":23193:23538   */\n    tag_344:\n        /* \"#utility.yul\":23260:23266   */\n      0x00\n        /* \"#utility.yul\":23309:23311   */\n      0x20\n        /* \"#utility.yul\":23297:23306   */\n      dup3\n        /* \"#utility.yul\":23288:23295   */\n      dup5\n        /* \"#utility.yul\":23284:23307   */\n      sub\n        /* \"#utility.yul\":23280:23312   */\n      slt\n        /* \"#utility.yul\":23277:23396   */\n      iszero\n      tag_653\n      jumpi\n        /* \"#utility.yul\":23315:23394   */\n      tag_654\n      tag_365\n      jump\t// in\n    tag_654:\n        /* \"#utility.yul\":23277:23396   */\n    tag_653:\n        /* \"#utility.yul\":23435:23436   */\n      0x00\n        /* \"#utility.yul\":23460:23521   */\n      tag_655\n        /* \"#utility.yul\":23513:23520   */\n      dup5\n        /* \"#utility.yul\":23504:23510   */\n      dup3\n        /* \"#utility.yul\":23493:23502   */\n      dup6\n        /* \"#utility.yul\":23489:23511   */\n      add\n        /* \"#utility.yul\":23460:23521   */\n      tag_410\n      jump\t// in\n    tag_655:\n        /* \"#utility.yul\":23450:23521   */\n      swap2\n      pop\n        /* \"#utility.yul\":23406:23531   */\n      pop\n        /* \"#utility.yul\":23193:23538   */\n      swap3\n      swap2\n      pop\n      pop\n      jump\t// out\n        /* \"#utility.yul\":23544:23686   */\n    tag_411:\n        /* \"#utility.yul\":23581:23588   */\n      0x00\n        /* \"#utility.yul\":23621:23679   */\n      0xffffffffffffffffffffffffffffffffffffffffffffffffffffffff\n        /* \"#utility.yul\":23614:23619   */\n      dup3\n        /* \"#utility.yul\":23610:23680   */\n      and\n        /* \"#utility.yul\":23599:23680   */\n      swap1\n      pop\n        /* \"#utility.yul\":23544:23686   */\n      swap2\n      swap1\n      pop\n      jump\t// out\n        /* \"#utility.yul\":23692:24032   */\n    tag_351:\n        /* \"#utility.yul\":23732:23739   */\n      0x00\n        /* \"#utility.yul\":23755:23775   */\n      tag_658\n        /* \"#utility.yul\":23773:23774   */\n      dup3\n        /* \"#utility.yul\":23755:23775   */\n      tag_411\n      jump\t// in\n    tag_658:\n        /* \"#utility.yul\":23750:23775   */\n      swap2\n      pop\n        /* \"#utility.yul\":23789:23809   */\n      tag_659\n        /* \"#utility.yul\":23807:23808   */\n      dup4\n        /* \"#utility.yul\":23789:23809   */\n      tag_411\n      jump\t// in\n    tag_659:\n        /* \"#utility.yul\":23784:23809   */\n      swap3\n      pop\n        /* \"#utility.yul\":23969:23970   */\n      dup2\n        /* \"#utility.yul\":23909:23967   */\n      0xffffffffffffffffffffffffffffffffffffffffffffffffffffffff\n        /* \"#utility.yul\":23905:23971   */\n      div\n        /* \"#utility.yul\":23902:23903   */\n      dup4\n        /* \"#utility.yul\":23899:23972   */\n      gt\n        /* \"#utility.yul\":23894:23895   */\n      dup3\n        /* \"#utility.yul\":23887:23896   */\n      iszero\n        /* \"#utility.yul\":23880:23897   */\n      iszero\n        /* \"#utility.yul\":23876:23973   */\n      and\n        /* \"#utility.yul\":23873:23996   */\n      iszero\n      tag_660\n      jumpi\n        /* \"#utility.yul\":23976:23994   */\n      tag_661\n      tag_387\n      jump\t// in\n    tag_661:\n        /* \"#utility.yul\":23873:23996   */\n    tag_660:\n        /* \"#utility.yul\":24024:24025   */\n      dup3\n        /* \"#utility.yul\":24021:24022   */\n      dup3\n        /* \"#utility.yul\":24017:24026   */\n      mul\n        /* \"#utility.yul\":24006:24026   */\n      swap1\n      pop\n        /* \"#utility.yul\":23692:24032   */\n      swap3\n      swap2\n      pop\n      pop\n      jump\t// out\n        /* \"#utility.yul\":24038:24223   */\n    tag_354:\n        /* \"#utility.yul\":24078:24079   */\n      0x00\n        /* \"#utility.yul\":24095:24115   */\n      tag_663\n        /* \"#utility.yul\":24113:24114   */\n      dup3\n        /* \"#utility.yul\":24095:24115   */\n      tag_411\n      jump\t// in\n    tag_663:\n        /* \"#utility.yul\":24090:24115   */\n      swap2\n      pop\n        /* \"#utility.yul\":24129:24149   */\n      tag_664\n        /* \"#utility.yul\":24147:24148   */\n      dup4\n        /* \"#utility.yul\":24129:24149   */\n      tag_411\n      jump\t// in\n    tag_664:\n        /* \"#utility.yul\":24124:24149   */\n      swap3\n      pop\n        /* \"#utility.yul\":24168:24169   */\n      dup3\n        /* \"#utility.yul\":24158:24193   */\n      tag_665\n      jumpi\n        /* \"#utility.yul\":24173:24191   */\n      tag_666\n      tag_391\n      jump\t// in\n    tag_666:\n        /* \"#utility.yul\":24158:24193   */\n    tag_665:\n        /* \"#utility.yul\":24215:24216   */\n      dup3\n        /* \"#utility.yul\":24212:24213   */\n      dup3\n        /* \"#utility.yul\":24208:24217   */\n      div\n        /* \"#utility.yul\":24203:24217   */\n      swap1\n      pop\n        /* \"#utility.yul\":24038:24223   */\n      swap3\n      swap2\n      pop\n      pop\n      jump\t// out\n\n    auxdata: 0xa2646970667358221220d3a69dd3292acc5d6eb06c1817ccd01508948822b59ddb36cf03f7c1c49eb25064736f6c634300080a0033\n}\n",
				"bytecode": {
					"linkReferences": {},
					"object": "60e06040523480156200001157600080fd5b506040518060400160405280600d81526020017f4b616a75737761702050616972000000000000000000000000000000000000008152506040518060400160405280600481526020017f4b414a5500000000000000000000000000000000000000000000000000000000815250601282600090805190602001906200009892919062000178565b508160019080519060200190620000b192919062000178565b508060ff1660808160ff16815250504660a08181525050620000d8620000e860201b60201c565b60c0818152505050505062000429565b60007f8b73c3c69bb8fe3d512ecc4cf759cc79239f7b179b0ffacaa9a75d522b39400f60006040516200011c919062000338565b60405180910390207fc89efdaa54c0f20c7adf612882df0950f5a951637e0307cdcb4c672f298b8bc646306040516020016200015d959493929190620003cc565b60405160208183030381529060405280519060200120905090565b828054620001869062000257565b90600052602060002090601f016020900481019282620001aa5760008555620001f6565b82601f10620001c557805160ff1916838001178555620001f6565b82800160010185558215620001f6579182015b82811115620001f5578251825591602001919060010190620001d8565b5b50905062000205919062000209565b5090565b5b80821115620002245760008160009055506001016200020a565b5090565b7f4e487b7100000000000000000000000000000000000000000000000000000000600052602260045260246000fd5b600060028204905060018216806200027057607f821691505b6020821081141562000287576200028662000228565b5b50919050565b600081905092915050565b60008190508160005260206000209050919050565b60008154620002bc8162000257565b620002c881866200028d565b94506001821660008114620002e65760018114620002f8576200032f565b60ff198316865281860193506200032f565b620003038562000298565b60005b83811015620003275781548189015260018201915060208101905062000306565b838801955050505b50505092915050565b6000620003468284620002ad565b915081905092915050565b6000819050919050565b620003668162000351565b82525050565b6000819050919050565b62000381816200036c565b82525050565b600073ffffffffffffffffffffffffffffffffffffffff82169050919050565b6000620003b48262000387565b9050919050565b620003c681620003a7565b82525050565b600060a082019050620003e360008301886200035b565b620003f260208301876200035b565b6200040160408301866200035b565b62000410606083018562000376565b6200041f6080830184620003bb565b9695505050505050565b60805160a05160c0516133db620004596000396000610903015260006108cf015260006108a901526133db6000f3fe608060405234801561001057600080fd5b50600436106101425760003560e01c80636a627842116100b857806395d89b411161007c57806395d89b4114610392578063a9059cbb146103b0578063d21220a7146103e0578063d505accf146103fe578063dd62ed3e1461041a578063fff6cae91461044a57610142565b80636a627842146102b55780636d9a640a146102e557806370a08231146103015780637ecebe001461033157806389afcb441461036157610142565b806323b872dd1161010a57806323b872dd146101f1578063313ce567146102215780633644e5151461023f578063485cc9551461025d5780635909c0d5146102795780635a3d54931461029757610142565b806306fdde03146101475780630902f1ac14610165578063095ea7b3146101855780630dfe1681146101b557806318160ddd146101d3575b600080fd5b61014f610454565b60405161015c9190612703565b60405180910390f35b61016d6104e2565b60405161017c9392919061276d565b60405180910390f35b61019f600480360381019061019a919061283d565b61053f565b6040516101ac9190612898565b60405180910390f35b6101bd610631565b6040516101ca91906128c2565b60405180910390f35b6101db610657565b6040516101e891906128ec565b60405180910390f35b61020b60048036038101906102069190612907565b61065d565b6040516102189190612898565b60405180910390f35b6102296108a7565b6040516102369190612976565b60405180910390f35b6102476108cb565b60405161025491906129aa565b60405180910390f35b610277600480360381019061027291906129c5565b610928565b005b610281610a92565b60405161028e91906128ec565b60405180910390f35b61029f610a98565b6040516102ac91906128ec565b60405180910390f35b6102cf60048036038101906102ca9190612a05565b610a9e565b6040516102dc91906128ec565b60405180910390f35b6102ff60048036038101906102fa9190612a32565b610e02565b005b61031b60048036038101906103169190612a05565b6113a6565b60405161032891906128ec565b60405180910390f35b61034b60048036038101906103469190612a05565b6113be565b60405161035891906128ec565b60405180910390f35b61037b60048036038101906103769190612a05565b6113d6565b604051610389929190612a85565b60405180910390f35b61039a61187f565b6040516103a79190612703565b60405180910390f35b6103ca60048036038101906103c5919061283d565b61190d565b6040516103d79190612898565b60405180910390f35b6103e8611a21565b6040516103f591906128c2565b60405180910390f35b61041860048036038101906104139190612b06565b611a47565b005b610434600480360381019061042f91906129c5565b611d40565b60405161044191906128ec565b60405180910390f35b610452611d65565b005b6000805461046190612bd7565b80601f016020809104026020016040519081016040528092919081815260200182805461048d90612bd7565b80156104da5780601f106104af576101008083540402835291602001916104da565b820191906000526020600020905b8154815290600101906020018083116104bd57829003601f168201915b505050505081565b6000806000600860009054906101000a90046dffffffffffffffffffffffffffff166008600e9054906101000a90046dffffffffffffffffffffffffffff166008601c9054906101000a900463ffffffff16925092509250909192565b600081600460003373ffffffffffffffffffffffffffffffffffffffff1673ffffffffffffffffffffffffffffffffffffffff16815260200190815260200160002060008573ffffffffffffffffffffffffffffffffffffffff1673ffffffffffffffffffffffffffffffffffffffff168152602001908152602001600020819055508273ffffffffffffffffffffffffffffffffffffffff163373ffffffffffffffffffffffffffffffffffffffff167f8c5be1e5ebec7d5bd14f71427d1e84f3dd0314c0f7b2291e5b200ac8c7c3b9258460405161061f91906128ec565b60405180910390a36001905092915050565b600660009054906101000a900473ffffffffffffffffffffffffffffffffffffffff1681565b60025481565b600080600460008673ffffffffffffffffffffffffffffffffffffffff1673ffffffffffffffffffffffffffffffffffffffff16815260200190815260200160002060003373ffffffffffffffffffffffffffffffffffffffff1673ffffffffffffffffffffffffffffffffffffffff1681526020019081526020016000205490507fffffffffffffffffffffffffffffffffffffffffffffffffffffffffffffffff81146107935782816107129190612c38565b600460008773ffffffffffffffffffffffffffffffffffffffff1673ffffffffffffffffffffffffffffffffffffffff16815260200190815260200160002060003373ffffffffffffffffffffffffffffffffffffffff1673ffffffffffffffffffffffffffffffffffffffff168152602001908152602001600020819055505b82600360008773ffffffffffffffffffffffffffffffffffffffff1673ffffffffffffffffffffffffffffffffffffffff16815260200190815260200160002060008282546107e29190612c38565b9250508190555082600360008673ffffffffffffffffffffffffffffffffffffffff1673ffffffffffffffffffffffffffffffffffffffff168152602001908152602001600020600082825401925050819055508373ffffffffffffffffffffffffffffffffffffffff168573ffffffffffffffffffffffffffffffffffffffff167fddf252ad1be2c89b69c2b068fc378daa952ba7f163c4a11628f55a4df523b3ef8560405161089391906128ec565b60405180910390a360019150509392505050565b7f000000000000000000000000000000000000000000000000000000000000000081565b60007f00000000000000000000000000000000000000000000000000000000000000004614610901576108fc611f45565b610923565b7f00000000000000000000000000000000000000000000000000000000000000005b905090565b600073ffffffffffffffffffffffffffffffffffffffff16600660009054906101000a900473ffffffffffffffffffffffffffffffffffffffff1673ffffffffffffffffffffffffffffffffffffffff161415806109d55750600073ffffffffffffffffffffffffffffffffffffffff16600760009054906101000a900473ffffffffffffffffffffffffffffffffffffffff1673ffffffffffffffffffffffffffffffffffffffff1614155b15610a0c576040517f0dc149f000000000000000000000000000000000000000000000000000000000815260040160405180910390fd5b81600660006101000a81548173ffffffffffffffffffffffffffffffffffffffff021916908373ffffffffffffffffffffffffffffffffffffffff16021790555080600760006101000a81548173ffffffffffffffffffffffffffffffffffffffff021916908373ffffffffffffffffffffffffffffffffffffffff1602179055505050565b60095481565b600a5481565b6000600b60009054906101000a900460ff1615610af0576040517f08c379a0000000000000000000000000000000000000000000000000000000008152600401610ae790612cde565b60405180910390fd5b6001600b60006101000a81548160ff021916908315150217905550600080610b166104e2565b50915091506000600660009054906101000a900473ffffffffffffffffffffffffffffffffffffffff1673ffffffffffffffffffffffffffffffffffffffff166370a08231306040518263ffffffff1660e01b8152600401610b7891906128c2565b6020604051808303816000875af1158015610b97573d6000803e3d6000fd5b505050506040513d601f19601f82011682018060405250810190610bbb9190612d13565b90506000600760009054906101000a900473ffffffffffffffffffffffffffffffffffffffff1673ffffffffffffffffffffffffffffffffffffffff166370a08231306040518263ffffffff1660e01b8152600401610c1a91906128c2565b6020604051808303816000875af1158015610c39573d6000803e3d6000fd5b505050506040513d601f19601f82011682018060405250810190610c5d9190612d13565b90506000846dffffffffffffffffffffffffffff1683610c7d9190612c38565b90506000846dffffffffffffffffffffffffffff1683610c9d9190612c38565b905060006002541415610cdf576103e8610cc18284610cbc9190612d40565b611fd1565b610ccb9190612c38565b9650610cda60006103e861204b565b610d3c565b610d39866dffffffffffffffffffffffffffff1660025484610d019190612d40565b610d0b9190612dc9565b866dffffffffffffffffffffffffffff1660025484610d2a9190612d40565b610d349190612dc9565b61211b565b96505b60008711610d76576040517fd226f9d400000000000000000000000000000000000000000000000000000000815260040160405180910390fd5b610d80888861204b565b610d8c84848888612134565b8773ffffffffffffffffffffffffffffffffffffffff167f4c209b5fc8ad50758f13e2e1088ba56a560dff690a1c6fef26394f4c03821c4f8383604051610dd4929190612a85565b60405180910390a25050505050506000600b60006101000a81548160ff021916908315150217905550919050565b600b60009054906101000a900460ff1615610e52576040517f08c379a0000000000000000000000000000000000000000000000000000000008152600401610e4990612cde565b60405180910390fd5b6001600b60006101000a81548160ff021916908315150217905550600083148015610e7d5750600082145b15610eb4576040517f42301c2300000000000000000000000000000000000000000000000000000000815260040160405180910390fd5b600080610ebf6104e2565b5091509150816dffffffffffffffffffffffffffff16851180610ef15750806dffffffffffffffffffffffffffff1684115b15610f28576040517fbb55fd2700000000000000000000000000000000000000000000000000000000815260040160405180910390fd5b6000851115610f5f57610f5e600660009054906101000a900473ffffffffffffffffffffffffffffffffffffffff1684876123d8565b5b6000841115610f9657610f95600760009054906101000a900473ffffffffffffffffffffffffffffffffffffffff1684866123d8565b5b6000600660009054906101000a900473ffffffffffffffffffffffffffffffffffffffff1673ffffffffffffffffffffffffffffffffffffffff166370a08231306040518263ffffffff1660e01b8152600401610ff391906128c2565b6020604051808303816000875af1158015611012573d6000803e3d6000fd5b505050506040513d601f19601f820116820180604052508101906110369190612d13565b90506000600760009054906101000a900473ffffffffffffffffffffffffffffffffffffffff1673ffffffffffffffffffffffffffffffffffffffff166370a08231306040518263ffffffff1660e01b815260040161109591906128c2565b6020604051808303816000875af11580156110b4573d6000803e3d6000fd5b505050506040513d601f19601f820116820180604052508101906110d89190612d13565b9050600087600860009054906101000a90046dffffffffffffffffffffffffffff166dffffffffffffffffffffffffffff166111149190612c38565b8311611121576000611165565b87600860009054906101000a90046dffffffffffffffffffffffffffff166dffffffffffffffffffffffffffff166111599190612c38565b836111649190612c38565b5b90506000876008600e9054906101000a90046dffffffffffffffffffffffffffff166dffffffffffffffffffffffffffff166111a19190612c38565b83116111ae5760006111f2565b876008600e9054906101000a90046dffffffffffffffffffffffffffff166dffffffffffffffffffffffffffff166111e69190612c38565b836111f19190612c38565b5b90506000821480156112045750600081145b1561123b576040517f098fb56100000000000000000000000000000000000000000000000000000000815260040160405180910390fd5b600060038361124a9190612d40565b6103e8866112589190612d40565b6112629190612c38565b905060006003836112739190612d40565b6103e8866112819190612d40565b61128b9190612c38565b9050620f4240876dffffffffffffffffffffffffffff16896dffffffffffffffffffffffffffff166112bd9190612d40565b6112c79190612d40565b81836112d39190612d40565b101561130b576040517fbd8bc36400000000000000000000000000000000000000000000000000000000815260040160405180910390fd5b61131786868a8a612134565b8873ffffffffffffffffffffffffffffffffffffffff163373ffffffffffffffffffffffffffffffffffffffff167f2a9237ff5aa599ef4c5ee4b1142b53429d5755e2685fe6288b2e3320202115f58d8d604051611376929190612a85565b60405180910390a350505050505050506000600b60006101000a81548160ff021916908315150217905550505050565b60036020528060005260406000206000915090505481565b60056020528060005260406000206000915090505481565b600080600b60009054906101000a900460ff1615611429576040517f08c379a000000000000000000000000000000000000000000000000000000000815260040161142090612cde565b60405180910390fd5b6001600b60006101000a81548160ff0219169083151502179055506000600660009054906101000a900473ffffffffffffffffffffffffffffffffffffffff1673ffffffffffffffffffffffffffffffffffffffff166370a08231306040518263ffffffff1660e01b81526004016114a191906128c2565b6020604051808303816000875af11580156114c0573d6000803e3d6000fd5b505050506040513d601f19601f820116820180604052508101906114e49190612d13565b90506000600760009054906101000a900473ffffffffffffffffffffffffffffffffffffffff1673ffffffffffffffffffffffffffffffffffffffff166370a08231306040518263ffffffff1660e01b815260040161154391906128c2565b6020604051808303816000875af1158015611562573d6000803e3d6000fd5b505050506040513d601f19601f820116820180604052508101906115869190612d13565b90506000600360003073ffffffffffffffffffffffffffffffffffffffff1673ffffffffffffffffffffffffffffffffffffffff16815260200190815260200160002054905060025483826115db9190612d40565b6115e59190612dc9565b945060025482826115f69190612d40565b6116009190612dc9565b935060008514806116115750600084145b15611648576040517f749383ad00000000000000000000000000000000000000000000000000000000815260040160405180910390fd5b6116523082612540565b61167f600660009054906101000a900473ffffffffffffffffffffffffffffffffffffffff1687876123d8565b6116ac600760009054906101000a900473ffffffffffffffffffffffffffffffffffffffff1687866123d8565b600660009054906101000a900473ffffffffffffffffffffffffffffffffffffffff1673ffffffffffffffffffffffffffffffffffffffff166370a08231306040518263ffffffff1660e01b815260040161170791906128c2565b6020604051808303816000875af1158015611726573d6000803e3d6000fd5b505050506040513d601f19601f8201168201806040525081019061174a9190612d13565b9250600760009054906101000a900473ffffffffffffffffffffffffffffffffffffffff1673ffffffffffffffffffffffffffffffffffffffff166370a08231306040518263ffffffff1660e01b81526004016117a791906128c2565b6020604051808303816000875af11580156117c6573d6000803e3d6000fd5b505050506040513d601f19601f820116820180604052508101906117ea9190612d13565b91506000806117f76104e2565b509150915061180885858484612134565b3373ffffffffffffffffffffffffffffffffffffffff167fdccd412f0b1252819cb1fd330b93224ca42612892bb3f4f789976e6d8193649688888b60405161185293929190612dfa565b60405180910390a250505050506000600b60006101000a81548160ff021916908315150217905550915091565b6001805461188c90612bd7565b80601f01602080910402602001604051908101604052809291908181526020018280546118b890612bd7565b80156119055780601f106118da57610100808354040283529160200191611905565b820191906000526020600020905b8154815290600101906020018083116118e857829003601f168201915b505050505081565b600081600360003373ffffffffffffffffffffffffffffffffffffffff1673ffffffffffffffffffffffffffffffffffffffff168152602001908152602001600020600082825461195e9190612c38565b9250508190555081600360008573ffffffffffffffffffffffffffffffffffffffff1673ffffffffffffffffffffffffffffffffffffffff168152602001908152602001600020600082825401925050819055508273ffffffffffffffffffffffffffffffffffffffff163373ffffffffffffffffffffffffffffffffffffffff167fddf252ad1be2c89b69c2b068fc378daa952ba7f163c4a11628f55a4df523b3ef84604051611a0f91906128ec565b60405180910390a36001905092915050565b600760009054906101000a900473ffffffffffffffffffffffffffffffffffffffff1681565b42841015611a8a576040517f08c379a0000000000000000000000000000000000000000000000000000000008152600401611a8190612e7d565b60405180910390fd5b60006001611a966108cb565b7f6e71edae12b1b97f4d1f60370fef10105fa2faae0126114a169c64845d6126c98a8a8a600560008f73ffffffffffffffffffffffffffffffffffffffff1673ffffffffffffffffffffffffffffffffffffffff1681526020019081526020016000206000815480929190600101919050558b604051602001611b1e96959493929190612e9d565b60405160208183030381529060405280519060200120604051602001611b45929190612f76565b6040516020818303038152906040528051906020012085858560405160008152602001604052604051611b7b9493929190612fad565b6020604051602081039080840390855afa158015611b9d573d6000803e3d6000fd5b505050602060405103519050600073ffffffffffffffffffffffffffffffffffffffff168173ffffffffffffffffffffffffffffffffffffffff1614158015611c1157508773ffffffffffffffffffffffffffffffffffffffff168173ffffffffffffffffffffffffffffffffffffffff16145b611c50576040517f08c379a0000000000000000000000000000000000000000000000000000000008152600401611c479061303e565b60405180910390fd5b85600460008373ffffffffffffffffffffffffffffffffffffffff1673ffffffffffffffffffffffffffffffffffffffff16815260200190815260200160002060008973ffffffffffffffffffffffffffffffffffffffff1673ffffffffffffffffffffffffffffffffffffffff16815260200190815260200160002081905550508573ffffffffffffffffffffffffffffffffffffffff168773ffffffffffffffffffffffffffffffffffffffff167f8c5be1e5ebec7d5bd14f71427d1e84f3dd0314c0f7b2291e5b200ac8c7c3b92587604051611d2f91906128ec565b60405180910390a350505050505050565b6004602052816000526040600020602052806000526040600020600091509150505481565b600b60009054906101000a900460ff1615611db5576040517f08c379a0000000000000000000000000000000000000000000000000000000008152600401611dac90612cde565b60405180910390fd5b6001600b60006101000a81548160ff021916908315150217905550600080611ddb6104e2565b5091509150611f26600660009054906101000a900473ffffffffffffffffffffffffffffffffffffffff1673ffffffffffffffffffffffffffffffffffffffff166370a08231306040518263ffffffff1660e01b8152600401611e3e91906128c2565b6020604051808303816000875af1158015611e5d573d6000803e3d6000fd5b505050506040513d601f19601f82011682018060405250810190611e819190612d13565b600760009054906101000a900473ffffffffffffffffffffffffffffffffffffffff1673ffffffffffffffffffffffffffffffffffffffff166370a08231306040518263ffffffff1660e01b8152600401611edc91906128c2565b6020604051808303816000875af1158015611efb573d6000803e3d6000fd5b505050506040513d601f19601f82011682018060405250810190611f1f9190612d13565b8484612134565b50506000600b60006101000a81548160ff021916908315150217905550565b60007f8b73c3c69bb8fe3d512ecc4cf759cc79239f7b179b0ffacaa9a75d522b39400f6000604051611f7791906130fd565b60405180910390207fc89efdaa54c0f20c7adf612882df0950f5a951637e0307cdcb4c672f298b8bc64630604051602001611fb6959493929190613114565b60405160208183030381529060405280519060200120905090565b600060038211156120385781905060006001600284611ff09190612dc9565b611ffa9190613167565b90505b818110156120325780915060028182856120179190612dc9565b6120219190613167565b61202b9190612dc9565b9050611ffd565b50612046565b6000821461204557600190505b5b919050565b806002600082825461205d9190613167565b9250508190555080600360008473ffffffffffffffffffffffffffffffffffffffff1673ffffffffffffffffffffffffffffffffffffffff168152602001908152602001600020600082825401925050819055508173ffffffffffffffffffffffffffffffffffffffff16600073ffffffffffffffffffffffffffffffffffffffff167fddf252ad1be2c89b69c2b068fc378daa952ba7f163c4a11628f55a4df523b3ef8360405161210f91906128ec565b60405180910390a35050565b600081831061212a578161212c565b825b905092915050565b6dffffffffffffffffffffffffffff801684118061216157506dffffffffffffffffffffffffffff801683115b15612198576040517f89560ca100000000000000000000000000000000000000000000000000000000815260040160405180910390fd5b60006008601c9054906101000a900463ffffffff164203905060008163ffffffff161180156121d757506000836dffffffffffffffffffffffffffff16115b80156121f357506000826dffffffffffffffffffffffffffff16115b156122d5578063ffffffff166122388461220c85612610565b7bffffffffffffffffffffffffffffffffffffffffffffffffffffffff1661264490919063ffffffff16565b7bffffffffffffffffffffffffffffffffffffffffffffffffffffffff16026009600082825401925050819055508063ffffffff166122a68361227a86612610565b7bffffffffffffffffffffffffffffffffffffffffffffffffffffffff1661264490919063ffffffff16565b7bffffffffffffffffffffffffffffffffffffffffffffffffffffffff1602600a600082825401925050819055505b5083600860006101000a8154816dffffffffffffffffffffffffffff02191690836dffffffffffffffffffffffffffff160217905550826008600e6101000a8154816dffffffffffffffffffffffffffff02191690836dffffffffffffffffffffffffffff160217905550426008601c6101000a81548163ffffffff021916908363ffffffff1602179055507fcf2aa50876cdfbb541206f89af0ee78d44a2abf8d328e37fa4917f982149848a600860009054906101000a90046dffffffffffffffffffffffffffff166008600e9054906101000a90046dffffffffffffffffffffffffffff166040516123ca9291906131f8565b60405180910390a150505050565b6000808473ffffffffffffffffffffffffffffffffffffffff168484604051602401612405929190613221565b6040516020818303038152906040527fa9059cbb000000000000000000000000000000000000000000000000000000007bffffffffffffffffffffffffffffffffffffffffffffffffffffffff19166020820180517bffffffffffffffffffffffffffffffffffffffffffffffffffffffff838183161783525050505060405161248f9190613286565b6000604051808303816000865af19150503d80600081146124cc576040519150601f19603f3d011682016040523d82523d6000602084013e6124d1565b606091505b5091509150811580612502575060008151141580156125015750808060200190518101906124ff91906132c9565b155b5b15612539576040517f90b8ec1800000000000000000000000000000000000000000000000000000000815260040160405180910390fd5b5050505050565b80600360008473ffffffffffffffffffffffffffffffffffffffff1673ffffffffffffffffffffffffffffffffffffffff168152602001908152602001600020600082825461258f9190612c38565b9250508190555080600260008282540392505081905550600073ffffffffffffffffffffffffffffffffffffffff168273ffffffffffffffffffffffffffffffffffffffff167fddf252ad1be2c89b69c2b068fc378daa952ba7f163c4a11628f55a4df523b3ef8360405161260491906128ec565b60405180910390a35050565b60006e010000000000000000000000000000826dffffffffffffffffffffffffffff1661263d919061331e565b9050919050565b6000816dffffffffffffffffffffffffffff16836126629190613374565b905092915050565b600081519050919050565b600082825260208201905092915050565b60005b838110156126a4578082015181840152602081019050612689565b838111156126b3576000848401525b50505050565b6000601f19601f8301169050919050565b60006126d58261266a565b6126df8185612675565b93506126ef818560208601612686565b6126f8816126b9565b840191505092915050565b6000602082019050818103600083015261271d81846126ca565b905092915050565b60006dffffffffffffffffffffffffffff82169050919050565b61274881612725565b82525050565b600063ffffffff82169050919050565b6127678161274e565b82525050565b6000606082019050612782600083018661273f565b61278f602083018561273f565b61279c604083018461275e565b949350505050565b600080fd5b600073ffffffffffffffffffffffffffffffffffffffff82169050919050565b60006127d4826127a9565b9050919050565b6127e4816127c9565b81146127ef57600080fd5b50565b600081359050612801816127db565b92915050565b6000819050919050565b61281a81612807565b811461282557600080fd5b50565b60008135905061283781612811565b92915050565b60008060408385031215612854576128536127a4565b5b6000612862858286016127f2565b925050602061287385828601612828565b9150509250929050565b60008115159050919050565b6128928161287d565b82525050565b60006020820190506128ad6000830184612889565b92915050565b6128bc816127c9565b82525050565b60006020820190506128d760008301846128b3565b92915050565b6128e681612807565b82525050565b600060208201905061290160008301846128dd565b92915050565b6000806000606084860312156129205761291f6127a4565b5b600061292e868287016127f2565b935050602061293f868287016127f2565b925050604061295086828701612828565b9150509250925092565b600060ff82169050919050565b6129708161295a565b82525050565b600060208201905061298b6000830184612967565b92915050565b6000819050919050565b6129a481612991565b82525050565b60006020820190506129bf600083018461299b565b92915050565b600080604083850312156129dc576129db6127a4565b5b60006129ea858286016127f2565b92505060206129fb858286016127f2565b9150509250929050565b600060208284031215612a1b57612a1a6127a4565b5b6000612a29848285016127f2565b91505092915050565b600080600060608486031215612a4b57612a4a6127a4565b5b6000612a5986828701612828565b9350506020612a6a86828701612828565b9250506040612a7b868287016127f2565b9150509250925092565b6000604082019050612a9a60008301856128dd565b612aa760208301846128dd565b9392505050565b612ab78161295a565b8114612ac257600080fd5b50565b600081359050612ad481612aae565b92915050565b612ae381612991565b8114612aee57600080fd5b50565b600081359050612b0081612ada565b92915050565b600080600080600080600060e0888a031215612b2557612b246127a4565b5b6000612b338a828b016127f2565b9750506020612b448a828b016127f2565b9650506040612b558a828b01612828565b9550506060612b668a828b01612828565b9450506080612b778a828b01612ac5565b93505060a0612b888a828b01612af1565b92505060c0612b998a828b01612af1565b91505092959891949750929550565b7f4e487b7100000000000000000000000000000000000000000000000000000000600052602260045260246000fd5b60006002820490506001821680612bef57607f821691505b60208210811415612c0357612c02612ba8565b5b50919050565b7f4e487b7100000000000000000000000000000000000000000000000000000000600052601160045260246000fd5b6000612c4382612807565b9150612c4e83612807565b925082821015612c6157612c60612c09565b5b828203905092915050565b7f4b616a75737761703a20596f752063616e6e6f7420456e74657220696e20746860008201527f6520636f6e747261637400000000000000000000000000000000000000000000602082015250565b6000612cc8602a83612675565b9150612cd382612c6c565b604082019050919050565b60006020820190508181036000830152612cf781612cbb565b9050919050565b600081519050612d0d81612811565b92915050565b600060208284031215612d2957612d286127a4565b5b6000612d3784828501612cfe565b91505092915050565b6000612d4b82612807565b9150612d5683612807565b9250817fffffffffffffffffffffffffffffffffffffffffffffffffffffffffffffffff0483118215151615612d8f57612d8e612c09565b5b828202905092915050565b7f4e487b7100000000000000000000000000000000000000000000000000000000600052601260045260246000fd5b6000612dd482612807565b9150612ddf83612807565b925082612def57612dee612d9a565b5b828204905092915050565b6000606082019050612e0f60008301866128dd565b612e1c60208301856128dd565b612e2960408301846128b3565b949350505050565b7f5045524d49545f444541444c494e455f45585049524544000000000000000000600082015250565b6000612e67601783612675565b9150612e7282612e31565b602082019050919050565b60006020820190508181036000830152612e9681612e5a565b9050919050565b600060c082019050612eb2600083018961299b565b612ebf60208301886128b3565b612ecc60408301876128b3565b612ed960608301866128dd565b612ee660808301856128dd565b612ef360a08301846128dd565b979650505050505050565b600081905092915050565b7f1901000000000000000000000000000000000000000000000000000000000000600082015250565b6000612f3f600283612efe565b9150612f4a82612f09565b600282019050919050565b6000819050919050565b612f70612f6b82612991565b612f55565b82525050565b6000612f8182612f32565b9150612f8d8285612f5f565b602082019150612f9d8284612f5f565b6020820191508190509392505050565b6000608082019050612fc2600083018761299b565b612fcf6020830186612967565b612fdc604083018561299b565b612fe9606083018461299b565b95945050505050565b7f494e56414c49445f5349474e4552000000000000000000000000000000000000600082015250565b6000613028600e83612675565b915061303382612ff2565b602082019050919050565b600060208201905081810360008301526130578161301b565b9050919050565b600081905092915050565b60008190508160005260206000209050919050565b6000815461308b81612bd7565b613095818661305e565b945060018216600081146130b057600181146130c1576130f4565b60ff198316865281860193506130f4565b6130ca85613069565b60005b838110156130ec578154818901526001820191506020810190506130cd565b838801955050505b50505092915050565b6000613109828461307e565b915081905092915050565b600060a082019050613129600083018861299b565b613136602083018761299b565b613143604083018661299b565b61315060608301856128dd565b61315d60808301846128b3565b9695505050505050565b600061317282612807565b915061317d83612807565b9250827fffffffffffffffffffffffffffffffffffffffffffffffffffffffffffffffff038211156131b2576131b1612c09565b5b828201905092915050565b6000819050919050565b60006131e26131dd6131d884612725565b6131bd565b612807565b9050919050565b6131f2816131c7565b82525050565b600060408201905061320d60008301856131e9565b61321a60208301846131e9565b9392505050565b600060408201905061323660008301856128b3565b61324360208301846128dd565b9392505050565b600081519050919050565b60006132608261324a565b61326a818561305e565b935061327a818560208601612686565b80840191505092915050565b60006132928284613255565b915081905092915050565b6132a68161287d565b81146132b157600080fd5b50565b6000815190506132c38161329d565b92915050565b6000602082840312156132df576132de6127a4565b5b60006132ed848285016132b4565b91505092915050565b60007bffffffffffffffffffffffffffffffffffffffffffffffffffffffff82169050919050565b6000613329826132f6565b9150613334836132f6565b9250817bffffffffffffffffffffffffffffffffffffffffffffffffffffffff048311821515161561336957613368612c09565b5b828202905092915050565b600061337f826132f6565b915061338a836132f6565b92508261339a57613399612d9a565b5b82820490509291505056fea2646970667358221220d3a69dd3292acc5d6eb06c1817ccd01508948822b59ddb36cf03f7c1c49eb25064736f6c634300080a0033",
					"opcodes": "PUSH1 0xE0 PUSH1 0x40 MSTORE CALLVALUE DUP1 ISZERO PUSH3 0x11 JUMPI PUSH1 0x0 DUP1 REVERT JUMPDEST POP PUSH1 0x40 MLOAD DUP1 PUSH1 0x40 ADD PUSH1 0x40 MSTORE DUP1 PUSH1 0xD DUP2 MSTORE PUSH1 0x20 ADD PUSH32 0x4B616A7573776170205061697200000000000000000000000000000000000000 DUP2 MSTORE POP PUSH1 0x40 MLOAD DUP1 PUSH1 0x40 ADD PUSH1 0x40 MSTORE DUP1 PUSH1 0x4 DUP2 MSTORE PUSH1 0x20 ADD PUSH32 0x4B414A5500000000000000000000000000000000000000000000000000000000 DUP2 MSTORE POP PUSH1 0x12 DUP3 PUSH1 0x0 SWAP1 DUP1 MLOAD SWAP1 PUSH1 0x20 ADD SWAP1 PUSH3 0x98 SWAP3 SWAP2 SWAP1 PUSH3 0x178 JUMP JUMPDEST POP DUP2 PUSH1 0x1 SWAP1 DUP1 MLOAD SWAP1 PUSH1 0x20 ADD SWAP1 PUSH3 0xB1 SWAP3 SWAP2 SWAP1 PUSH3 0x178 JUMP JUMPDEST POP DUP1 PUSH1 0xFF AND PUSH1 0x80 DUP2 PUSH1 0xFF AND DUP2 MSTORE POP POP CHAINID PUSH1 0xA0 DUP2 DUP2 MSTORE POP POP PUSH3 0xD8 PUSH3 0xE8 PUSH1 0x20 SHL PUSH1 0x20 SHR JUMP JUMPDEST PUSH1 0xC0 DUP2 DUP2 MSTORE POP POP POP POP POP PUSH3 0x429 JUMP JUMPDEST PUSH1 0x0 PUSH32 0x8B73C3C69BB8FE3D512ECC4CF759CC79239F7B179B0FFACAA9A75D522B39400F PUSH1 0x0 PUSH1 0x40 MLOAD PUSH3 0x11C SWAP2 SWAP1 PUSH3 0x338 JUMP JUMPDEST PUSH1 0x40 MLOAD DUP1 SWAP2 SUB SWAP1 KECCAK256 PUSH32 0xC89EFDAA54C0F20C7ADF612882DF0950F5A951637E0307CDCB4C672F298B8BC6 CHAINID ADDRESS PUSH1 0x40 MLOAD PUSH1 0x20 ADD PUSH3 0x15D SWAP6 SWAP5 SWAP4 SWAP3 SWAP2 SWAP1 PUSH3 0x3CC JUMP JUMPDEST PUSH1 0x40 MLOAD PUSH1 0x20 DUP2 DUP4 SUB SUB DUP2 MSTORE SWAP1 PUSH1 0x40 MSTORE DUP1 MLOAD SWAP1 PUSH1 0x20 ADD KECCAK256 SWAP1 POP SWAP1 JUMP JUMPDEST DUP3 DUP1 SLOAD PUSH3 0x186 SWAP1 PUSH3 0x257 JUMP JUMPDEST SWAP1 PUSH1 0x0 MSTORE PUSH1 0x20 PUSH1 0x0 KECCAK256 SWAP1 PUSH1 0x1F ADD PUSH1 0x20 SWAP1 DIV DUP2 ADD SWAP3 DUP3 PUSH3 0x1AA JUMPI PUSH1 0x0 DUP6 SSTORE PUSH3 0x1F6 JUMP JUMPDEST DUP3 PUSH1 0x1F LT PUSH3 0x1C5 JUMPI DUP1 MLOAD PUSH1 0xFF NOT AND DUP4 DUP1 ADD OR DUP6 SSTORE PUSH3 0x1F6 JUMP JUMPDEST DUP3 DUP1 ADD PUSH1 0x1 ADD DUP6 SSTORE DUP3 ISZERO PUSH3 0x1F6 JUMPI SWAP2 DUP3 ADD JUMPDEST DUP3 DUP2 GT ISZERO PUSH3 0x1F5 JUMPI DUP3 MLOAD DUP3 SSTORE SWAP2 PUSH1 0x20 ADD SWAP2 SWAP1 PUSH1 0x1 ADD SWAP1 PUSH3 0x1D8 JUMP JUMPDEST JUMPDEST POP SWAP1 POP PUSH3 0x205 SWAP2 SWAP1 PUSH3 0x209 JUMP JUMPDEST POP SWAP1 JUMP JUMPDEST JUMPDEST DUP1 DUP3 GT ISZERO PUSH3 0x224 JUMPI PUSH1 0x0 DUP2 PUSH1 0x0 SWAP1 SSTORE POP PUSH1 0x1 ADD PUSH3 0x20A JUMP JUMPDEST POP SWAP1 JUMP JUMPDEST PUSH32 0x4E487B7100000000000000000000000000000000000000000000000000000000 PUSH1 0x0 MSTORE PUSH1 0x22 PUSH1 0x4 MSTORE PUSH1 0x24 PUSH1 0x0 REVERT JUMPDEST PUSH1 0x0 PUSH1 0x2 DUP3 DIV SWAP1 POP PUSH1 0x1 DUP3 AND DUP1 PUSH3 0x270 JUMPI PUSH1 0x7F DUP3 AND SWAP2 POP JUMPDEST PUSH1 0x20 DUP3 LT DUP2 EQ ISZERO PUSH3 0x287 JUMPI PUSH3 0x286 PUSH3 0x228 JUMP JUMPDEST JUMPDEST POP SWAP2 SWAP1 POP JUMP JUMPDEST PUSH1 0x0 DUP2 SWAP1 POP SWAP3 SWAP2 POP POP JUMP JUMPDEST PUSH1 0x0 DUP2 SWAP1 POP DUP2 PUSH1 0x0 MSTORE PUSH1 0x20 PUSH1 0x0 KECCAK256 SWAP1 POP SWAP2 SWAP1 POP JUMP JUMPDEST PUSH1 0x0 DUP2 SLOAD PUSH3 0x2BC DUP2 PUSH3 0x257 JUMP JUMPDEST PUSH3 0x2C8 DUP2 DUP7 PUSH3 0x28D JUMP JUMPDEST SWAP5 POP PUSH1 0x1 DUP3 AND PUSH1 0x0 DUP2 EQ PUSH3 0x2E6 JUMPI PUSH1 0x1 DUP2 EQ PUSH3 0x2F8 JUMPI PUSH3 0x32F JUMP JUMPDEST PUSH1 0xFF NOT DUP4 AND DUP7 MSTORE DUP2 DUP7 ADD SWAP4 POP PUSH3 0x32F JUMP JUMPDEST PUSH3 0x303 DUP6 PUSH3 0x298 JUMP JUMPDEST PUSH1 0x0 JUMPDEST DUP4 DUP2 LT ISZERO PUSH3 0x327 JUMPI DUP2 SLOAD DUP2 DUP10 ADD MSTORE PUSH1 0x1 DUP3 ADD SWAP2 POP PUSH1 0x20 DUP2 ADD SWAP1 POP PUSH3 0x306 JUMP JUMPDEST DUP4 DUP9 ADD SWAP6 POP POP POP JUMPDEST POP POP POP SWAP3 SWAP2 POP POP JUMP JUMPDEST PUSH1 0x0 PUSH3 0x346 DUP3 DUP5 PUSH3 0x2AD JUMP JUMPDEST SWAP2 POP DUP2 SWAP1 POP SWAP3 SWAP2 POP POP JUMP JUMPDEST PUSH1 0x0 DUP2 SWAP1 POP SWAP2 SWAP1 POP JUMP JUMPDEST PUSH3 0x366 DUP2 PUSH3 0x351 JUMP JUMPDEST DUP3 MSTORE POP POP JUMP JUMPDEST PUSH1 0x0 DUP2 SWAP1 POP SWAP2 SWAP1 POP JUMP JUMPDEST PUSH3 0x381 DUP2 PUSH3 0x36C JUMP JUMPDEST DUP3 MSTORE POP POP JUMP JUMPDEST PUSH1 0x0 PUSH20 0xFFFFFFFFFFFFFFFFFFFFFFFFFFFFFFFFFFFFFFFF DUP3 AND SWAP1 POP SWAP2 SWAP1 POP JUMP JUMPDEST PUSH1 0x0 PUSH3 0x3B4 DUP3 PUSH3 0x387 JUMP JUMPDEST SWAP1 POP SWAP2 SWAP1 POP JUMP JUMPDEST PUSH3 0x3C6 DUP2 PUSH3 0x3A7 JUMP JUMPDEST DUP3 MSTORE POP POP JUMP JUMPDEST PUSH1 0x0 PUSH1 0xA0 DUP3 ADD SWAP1 POP PUSH3 0x3E3 PUSH1 0x0 DUP4 ADD DUP9 PUSH3 0x35B JUMP JUMPDEST PUSH3 0x3F2 PUSH1 0x20 DUP4 ADD DUP8 PUSH3 0x35B JUMP JUMPDEST PUSH3 0x401 PUSH1 0x40 DUP4 ADD DUP7 PUSH3 0x35B JUMP JUMPDEST PUSH3 0x410 PUSH1 0x60 DUP4 ADD DUP6 PUSH3 0x376 JUMP JUMPDEST PUSH3 0x41F PUSH1 0x80 DUP4 ADD DUP5 PUSH3 0x3BB JUMP JUMPDEST SWAP7 SWAP6 POP POP POP POP POP POP JUMP JUMPDEST PUSH1 0x80 MLOAD PUSH1 0xA0 MLOAD PUSH1 0xC0 MLOAD PUSH2 0x33DB PUSH3 0x459 PUSH1 0x0 CODECOPY PUSH1 0x0 PUSH2 0x903 ADD MSTORE PUSH1 0x0 PUSH2 0x8CF ADD MSTORE PUSH1 0x0 PUSH2 0x8A9 ADD MSTORE PUSH2 0x33DB PUSH1 0x0 RETURN INVALID PUSH1 0x80 PUSH1 0x40 MSTORE CALLVALUE DUP1 ISZERO PUSH2 0x10 JUMPI PUSH1 0x0 DUP1 REVERT JUMPDEST POP PUSH1 0x4 CALLDATASIZE LT PUSH2 0x142 JUMPI PUSH1 0x0 CALLDATALOAD PUSH1 0xE0 SHR DUP1 PUSH4 0x6A627842 GT PUSH2 0xB8 JUMPI DUP1 PUSH4 0x95D89B41 GT PUSH2 0x7C JUMPI DUP1 PUSH4 0x95D89B41 EQ PUSH2 0x392 JUMPI DUP1 PUSH4 0xA9059CBB EQ PUSH2 0x3B0 JUMPI DUP1 PUSH4 0xD21220A7 EQ PUSH2 0x3E0 JUMPI DUP1 PUSH4 0xD505ACCF EQ PUSH2 0x3FE JUMPI DUP1 PUSH4 0xDD62ED3E EQ PUSH2 0x41A JUMPI DUP1 PUSH4 0xFFF6CAE9 EQ PUSH2 0x44A JUMPI PUSH2 0x142 JUMP JUMPDEST DUP1 PUSH4 0x6A627842 EQ PUSH2 0x2B5 JUMPI DUP1 PUSH4 0x6D9A640A EQ PUSH2 0x2E5 JUMPI DUP1 PUSH4 0x70A08231 EQ PUSH2 0x301 JUMPI DUP1 PUSH4 0x7ECEBE00 EQ PUSH2 0x331 JUMPI DUP1 PUSH4 0x89AFCB44 EQ PUSH2 0x361 JUMPI PUSH2 0x142 JUMP JUMPDEST DUP1 PUSH4 0x23B872DD GT PUSH2 0x10A JUMPI DUP1 PUSH4 0x23B872DD EQ PUSH2 0x1F1 JUMPI DUP1 PUSH4 0x313CE567 EQ PUSH2 0x221 JUMPI DUP1 PUSH4 0x3644E515 EQ PUSH2 0x23F JUMPI DUP1 PUSH4 0x485CC955 EQ PUSH2 0x25D JUMPI DUP1 PUSH4 0x5909C0D5 EQ PUSH2 0x279 JUMPI DUP1 PUSH4 0x5A3D5493 EQ PUSH2 0x297 JUMPI PUSH2 0x142 JUMP JUMPDEST DUP1 PUSH4 0x6FDDE03 EQ PUSH2 0x147 JUMPI DUP1 PUSH4 0x902F1AC EQ PUSH2 0x165 JUMPI DUP1 PUSH4 0x95EA7B3 EQ PUSH2 0x185 JUMPI DUP1 PUSH4 0xDFE1681 EQ PUSH2 0x1B5 JUMPI DUP1 PUSH4 0x18160DDD EQ PUSH2 0x1D3 JUMPI JUMPDEST PUSH1 0x0 DUP1 REVERT JUMPDEST PUSH2 0x14F PUSH2 0x454 JUMP JUMPDEST PUSH1 0x40 MLOAD PUSH2 0x15C SWAP2 SWAP1 PUSH2 0x2703 JUMP JUMPDEST PUSH1 0x40 MLOAD DUP1 SWAP2 SUB SWAP1 RETURN JUMPDEST PUSH2 0x16D PUSH2 0x4E2 JUMP JUMPDEST PUSH1 0x40 MLOAD PUSH2 0x17C SWAP4 SWAP3 SWAP2 SWAP1 PUSH2 0x276D JUMP JUMPDEST PUSH1 0x40 MLOAD DUP1 SWAP2 SUB SWAP1 RETURN JUMPDEST PUSH2 0x19F PUSH1 0x4 DUP1 CALLDATASIZE SUB DUP2 ADD SWAP1 PUSH2 0x19A SWAP2 SWAP1 PUSH2 0x283D JUMP JUMPDEST PUSH2 0x53F JUMP JUMPDEST PUSH1 0x40 MLOAD PUSH2 0x1AC SWAP2 SWAP1 PUSH2 0x2898 JUMP JUMPDEST PUSH1 0x40 MLOAD DUP1 SWAP2 SUB SWAP1 RETURN JUMPDEST PUSH2 0x1BD PUSH2 0x631 JUMP JUMPDEST PUSH1 0x40 MLOAD PUSH2 0x1CA SWAP2 SWAP1 PUSH2 0x28C2 JUMP JUMPDEST PUSH1 0x40 MLOAD DUP1 SWAP2 SUB SWAP1 RETURN JUMPDEST PUSH2 0x1DB PUSH2 0x657 JUMP JUMPDEST PUSH1 0x40 MLOAD PUSH2 0x1E8 SWAP2 SWAP1 PUSH2 0x28EC JUMP JUMPDEST PUSH1 0x40 MLOAD DUP1 SWAP2 SUB SWAP1 RETURN JUMPDEST PUSH2 0x20B PUSH1 0x4 DUP1 CALLDATASIZE SUB DUP2 ADD SWAP1 PUSH2 0x206 SWAP2 SWAP1 PUSH2 0x2907 JUMP JUMPDEST PUSH2 0x65D JUMP JUMPDEST PUSH1 0x40 MLOAD PUSH2 0x218 SWAP2 SWAP1 PUSH2 0x2898 JUMP JUMPDEST PUSH1 0x40 MLOAD DUP1 SWAP2 SUB SWAP1 RETURN JUMPDEST PUSH2 0x229 PUSH2 0x8A7 JUMP JUMPDEST PUSH1 0x40 MLOAD PUSH2 0x236 SWAP2 SWAP1 PUSH2 0x2976 JUMP JUMPDEST PUSH1 0x40 MLOAD DUP1 SWAP2 SUB SWAP1 RETURN JUMPDEST PUSH2 0x247 PUSH2 0x8CB JUMP JUMPDEST PUSH1 0x40 MLOAD PUSH2 0x254 SWAP2 SWAP1 PUSH2 0x29AA JUMP JUMPDEST PUSH1 0x40 MLOAD DUP1 SWAP2 SUB SWAP1 RETURN JUMPDEST PUSH2 0x277 PUSH1 0x4 DUP1 CALLDATASIZE SUB DUP2 ADD SWAP1 PUSH2 0x272 SWAP2 SWAP1 PUSH2 0x29C5 JUMP JUMPDEST PUSH2 0x928 JUMP JUMPDEST STOP JUMPDEST PUSH2 0x281 PUSH2 0xA92 JUMP JUMPDEST PUSH1 0x40 MLOAD PUSH2 0x28E SWAP2 SWAP1 PUSH2 0x28EC JUMP JUMPDEST PUSH1 0x40 MLOAD DUP1 SWAP2 SUB SWAP1 RETURN JUMPDEST PUSH2 0x29F PUSH2 0xA98 JUMP JUMPDEST PUSH1 0x40 MLOAD PUSH2 0x2AC SWAP2 SWAP1 PUSH2 0x28EC JUMP JUMPDEST PUSH1 0x40 MLOAD DUP1 SWAP2 SUB SWAP1 RETURN JUMPDEST PUSH2 0x2CF PUSH1 0x4 DUP1 CALLDATASIZE SUB DUP2 ADD SWAP1 PUSH2 0x2CA SWAP2 SWAP1 PUSH2 0x2A05 JUMP JUMPDEST PUSH2 0xA9E JUMP JUMPDEST PUSH1 0x40 MLOAD PUSH2 0x2DC SWAP2 SWAP1 PUSH2 0x28EC JUMP JUMPDEST PUSH1 0x40 MLOAD DUP1 SWAP2 SUB SWAP1 RETURN JUMPDEST PUSH2 0x2FF PUSH1 0x4 DUP1 CALLDATASIZE SUB DUP2 ADD SWAP1 PUSH2 0x2FA SWAP2 SWAP1 PUSH2 0x2A32 JUMP JUMPDEST PUSH2 0xE02 JUMP JUMPDEST STOP JUMPDEST PUSH2 0x31B PUSH1 0x4 DUP1 CALLDATASIZE SUB DUP2 ADD SWAP1 PUSH2 0x316 SWAP2 SWAP1 PUSH2 0x2A05 JUMP JUMPDEST PUSH2 0x13A6 JUMP JUMPDEST PUSH1 0x40 MLOAD PUSH2 0x328 SWAP2 SWAP1 PUSH2 0x28EC JUMP JUMPDEST PUSH1 0x40 MLOAD DUP1 SWAP2 SUB SWAP1 RETURN JUMPDEST PUSH2 0x34B PUSH1 0x4 DUP1 CALLDATASIZE SUB DUP2 ADD SWAP1 PUSH2 0x346 SWAP2 SWAP1 PUSH2 0x2A05 JUMP JUMPDEST PUSH2 0x13BE JUMP JUMPDEST PUSH1 0x40 MLOAD PUSH2 0x358 SWAP2 SWAP1 PUSH2 0x28EC JUMP JUMPDEST PUSH1 0x40 MLOAD DUP1 SWAP2 SUB SWAP1 RETURN JUMPDEST PUSH2 0x37B PUSH1 0x4 DUP1 CALLDATASIZE SUB DUP2 ADD SWAP1 PUSH2 0x376 SWAP2 SWAP1 PUSH2 0x2A05 JUMP JUMPDEST PUSH2 0x13D6 JUMP JUMPDEST PUSH1 0x40 MLOAD PUSH2 0x389 SWAP3 SWAP2 SWAP1 PUSH2 0x2A85 JUMP JUMPDEST PUSH1 0x40 MLOAD DUP1 SWAP2 SUB SWAP1 RETURN JUMPDEST PUSH2 0x39A PUSH2 0x187F JUMP JUMPDEST PUSH1 0x40 MLOAD PUSH2 0x3A7 SWAP2 SWAP1 PUSH2 0x2703 JUMP JUMPDEST PUSH1 0x40 MLOAD DUP1 SWAP2 SUB SWAP1 RETURN JUMPDEST PUSH2 0x3CA PUSH1 0x4 DUP1 CALLDATASIZE SUB DUP2 ADD SWAP1 PUSH2 0x3C5 SWAP2 SWAP1 PUSH2 0x283D JUMP JUMPDEST PUSH2 0x190D JUMP JUMPDEST PUSH1 0x40 MLOAD PUSH2 0x3D7 SWAP2 SWAP1 PUSH2 0x2898 JUMP JUMPDEST PUSH1 0x40 MLOAD DUP1 SWAP2 SUB SWAP1 RETURN JUMPDEST PUSH2 0x3E8 PUSH2 0x1A21 JUMP JUMPDEST PUSH1 0x40 MLOAD PUSH2 0x3F5 SWAP2 SWAP1 PUSH2 0x28C2 JUMP JUMPDEST PUSH1 0x40 MLOAD DUP1 SWAP2 SUB SWAP1 RETURN JUMPDEST PUSH2 0x418 PUSH1 0x4 DUP1 CALLDATASIZE SUB DUP2 ADD SWAP1 PUSH2 0x413 SWAP2 SWAP1 PUSH2 0x2B06 JUMP JUMPDEST PUSH2 0x1A47 JUMP JUMPDEST STOP JUMPDEST PUSH2 0x434 PUSH1 0x4 DUP1 CALLDATASIZE SUB DUP2 ADD SWAP1 PUSH2 0x42F SWAP2 SWAP1 PUSH2 0x29C5 JUMP JUMPDEST PUSH2 0x1D40 JUMP JUMPDEST PUSH1 0x40 MLOAD PUSH2 0x441 SWAP2 SWAP1 PUSH2 0x28EC JUMP JUMPDEST PUSH1 0x40 MLOAD DUP1 SWAP2 SUB SWAP1 RETURN JUMPDEST PUSH2 0x452 PUSH2 0x1D65 JUMP JUMPDEST STOP JUMPDEST PUSH1 0x0 DUP1 SLOAD PUSH2 0x461 SWAP1 PUSH2 0x2BD7 JUMP JUMPDEST DUP1 PUSH1 0x1F ADD PUSH1 0x20 DUP1 SWAP2 DIV MUL PUSH1 0x20 ADD PUSH1 0x40 MLOAD SWAP1 DUP2 ADD PUSH1 0x40 MSTORE DUP1 SWAP3 SWAP2 SWAP1 DUP2 DUP2 MSTORE PUSH1 0x20 ADD DUP3 DUP1 SLOAD PUSH2 0x48D SWAP1 PUSH2 0x2BD7 JUMP JUMPDEST DUP1 ISZERO PUSH2 0x4DA JUMPI DUP1 PUSH1 0x1F LT PUSH2 0x4AF JUMPI PUSH2 0x100 DUP1 DUP4 SLOAD DIV MUL DUP4 MSTORE SWAP2 PUSH1 0x20 ADD SWAP2 PUSH2 0x4DA JUMP JUMPDEST DUP3 ADD SWAP2 SWAP1 PUSH1 0x0 MSTORE PUSH1 0x20 PUSH1 0x0 KECCAK256 SWAP1 JUMPDEST DUP2 SLOAD DUP2 MSTORE SWAP1 PUSH1 0x1 ADD SWAP1 PUSH1 0x20 ADD DUP1 DUP4 GT PUSH2 0x4BD JUMPI DUP3 SWAP1 SUB PUSH1 0x1F AND DUP3 ADD SWAP2 JUMPDEST POP POP POP POP POP DUP2 JUMP JUMPDEST PUSH1 0x0 DUP1 PUSH1 0x0 PUSH1 0x8 PUSH1 0x0 SWAP1 SLOAD SWAP1 PUSH2 0x100 EXP SWAP1 DIV PUSH14 0xFFFFFFFFFFFFFFFFFFFFFFFFFFFF AND PUSH1 0x8 PUSH1 0xE SWAP1 SLOAD SWAP1 PUSH2 0x100 EXP SWAP1 DIV PUSH14 0xFFFFFFFFFFFFFFFFFFFFFFFFFFFF AND PUSH1 0x8 PUSH1 0x1C SWAP1 SLOAD SWAP1 PUSH2 0x100 EXP SWAP1 DIV PUSH4 0xFFFFFFFF AND SWAP3 POP SWAP3 POP SWAP3 POP SWAP1 SWAP2 SWAP3 JUMP JUMPDEST PUSH1 0x0 DUP2 PUSH1 0x4 PUSH1 0x0 CALLER PUSH20 0xFFFFFFFFFFFFFFFFFFFFFFFFFFFFFFFFFFFFFFFF AND PUSH20 0xFFFFFFFFFFFFFFFFFFFFFFFFFFFFFFFFFFFFFFFF AND DUP2 MSTORE PUSH1 0x20 ADD SWAP1 DUP2 MSTORE PUSH1 0x20 ADD PUSH1 0x0 KECCAK256 PUSH1 0x0 DUP6 PUSH20 0xFFFFFFFFFFFFFFFFFFFFFFFFFFFFFFFFFFFFFFFF AND PUSH20 0xFFFFFFFFFFFFFFFFFFFFFFFFFFFFFFFFFFFFFFFF AND DUP2 MSTORE PUSH1 0x20 ADD SWAP1 DUP2 MSTORE PUSH1 0x20 ADD PUSH1 0x0 KECCAK256 DUP2 SWAP1 SSTORE POP DUP3 PUSH20 0xFFFFFFFFFFFFFFFFFFFFFFFFFFFFFFFFFFFFFFFF AND CALLER PUSH20 0xFFFFFFFFFFFFFFFFFFFFFFFFFFFFFFFFFFFFFFFF AND PUSH32 0x8C5BE1E5EBEC7D5BD14F71427D1E84F3DD0314C0F7B2291E5B200AC8C7C3B925 DUP5 PUSH1 0x40 MLOAD PUSH2 0x61F SWAP2 SWAP1 PUSH2 0x28EC JUMP JUMPDEST PUSH1 0x40 MLOAD DUP1 SWAP2 SUB SWAP1 LOG3 PUSH1 0x1 SWAP1 POP SWAP3 SWAP2 POP POP JUMP JUMPDEST PUSH1 0x6 PUSH1 0x0 SWAP1 SLOAD SWAP1 PUSH2 0x100 EXP SWAP1 DIV PUSH20 0xFFFFFFFFFFFFFFFFFFFFFFFFFFFFFFFFFFFFFFFF AND DUP2 JUMP JUMPDEST PUSH1 0x2 SLOAD DUP2 JUMP JUMPDEST PUSH1 0x0 DUP1 PUSH1 0x4 PUSH1 0x0 DUP7 PUSH20 0xFFFFFFFFFFFFFFFFFFFFFFFFFFFFFFFFFFFFFFFF AND PUSH20 0xFFFFFFFFFFFFFFFFFFFFFFFFFFFFFFFFFFFFFFFF AND DUP2 MSTORE PUSH1 0x20 ADD SWAP1 DUP2 MSTORE PUSH1 0x20 ADD PUSH1 0x0 KECCAK256 PUSH1 0x0 CALLER PUSH20 0xFFFFFFFFFFFFFFFFFFFFFFFFFFFFFFFFFFFFFFFF AND PUSH20 0xFFFFFFFFFFFFFFFFFFFFFFFFFFFFFFFFFFFFFFFF AND DUP2 MSTORE PUSH1 0x20 ADD SWAP1 DUP2 MSTORE PUSH1 0x20 ADD PUSH1 0x0 KECCAK256 SLOAD SWAP1 POP PUSH32 0xFFFFFFFFFFFFFFFFFFFFFFFFFFFFFFFFFFFFFFFFFFFFFFFFFFFFFFFFFFFFFFFF DUP2 EQ PUSH2 0x793 JUMPI DUP3 DUP2 PUSH2 0x712 SWAP2 SWAP1 PUSH2 0x2C38 JUMP JUMPDEST PUSH1 0x4 PUSH1 0x0 DUP8 PUSH20 0xFFFFFFFFFFFFFFFFFFFFFFFFFFFFFFFFFFFFFFFF AND PUSH20 0xFFFFFFFFFFFFFFFFFFFFFFFFFFFFFFFFFFFFFFFF AND DUP2 MSTORE PUSH1 0x20 ADD SWAP1 DUP2 MSTORE PUSH1 0x20 ADD PUSH1 0x0 KECCAK256 PUSH1 0x0 CALLER PUSH20 0xFFFFFFFFFFFFFFFFFFFFFFFFFFFFFFFFFFFFFFFF AND PUSH20 0xFFFFFFFFFFFFFFFFFFFFFFFFFFFFFFFFFFFFFFFF AND DUP2 MSTORE PUSH1 0x20 ADD SWAP1 DUP2 MSTORE PUSH1 0x20 ADD PUSH1 0x0 KECCAK256 DUP2 SWAP1 SSTORE POP JUMPDEST DUP3 PUSH1 0x3 PUSH1 0x0 DUP8 PUSH20 0xFFFFFFFFFFFFFFFFFFFFFFFFFFFFFFFFFFFFFFFF AND PUSH20 0xFFFFFFFFFFFFFFFFFFFFFFFFFFFFFFFFFFFFFFFF AND DUP2 MSTORE PUSH1 0x20 ADD SWAP1 DUP2 MSTORE PUSH1 0x20 ADD PUSH1 0x0 KECCAK256 PUSH1 0x0 DUP3 DUP3 SLOAD PUSH2 0x7E2 SWAP2 SWAP1 PUSH2 0x2C38 JUMP JUMPDEST SWAP3 POP POP DUP2 SWAP1 SSTORE POP DUP3 PUSH1 0x3 PUSH1 0x0 DUP7 PUSH20 0xFFFFFFFFFFFFFFFFFFFFFFFFFFFFFFFFFFFFFFFF AND PUSH20 0xFFFFFFFFFFFFFFFFFFFFFFFFFFFFFFFFFFFFFFFF AND DUP2 MSTORE PUSH1 0x20 ADD SWAP1 DUP2 MSTORE PUSH1 0x20 ADD PUSH1 0x0 KECCAK256 PUSH1 0x0 DUP3 DUP3 SLOAD ADD SWAP3 POP POP DUP2 SWAP1 SSTORE POP DUP4 PUSH20 0xFFFFFFFFFFFFFFFFFFFFFFFFFFFFFFFFFFFFFFFF AND DUP6 PUSH20 0xFFFFFFFFFFFFFFFFFFFFFFFFFFFFFFFFFFFFFFFF AND PUSH32 0xDDF252AD1BE2C89B69C2B068FC378DAA952BA7F163C4A11628F55A4DF523B3EF DUP6 PUSH1 0x40 MLOAD PUSH2 0x893 SWAP2 SWAP1 PUSH2 0x28EC JUMP JUMPDEST PUSH1 0x40 MLOAD DUP1 SWAP2 SUB SWAP1 LOG3 PUSH1 0x1 SWAP2 POP POP SWAP4 SWAP3 POP POP POP JUMP JUMPDEST PUSH32 0x0 DUP2 JUMP JUMPDEST PUSH1 0x0 PUSH32 0x0 CHAINID EQ PUSH2 0x901 JUMPI PUSH2 0x8FC PUSH2 0x1F45 JUMP JUMPDEST PUSH2 0x923 JUMP JUMPDEST PUSH32 0x0 JUMPDEST SWAP1 POP SWAP1 JUMP JUMPDEST PUSH1 0x0 PUSH20 0xFFFFFFFFFFFFFFFFFFFFFFFFFFFFFFFFFFFFFFFF AND PUSH1 0x6 PUSH1 0x0 SWAP1 SLOAD SWAP1 PUSH2 0x100 EXP SWAP1 DIV PUSH20 0xFFFFFFFFFFFFFFFFFFFFFFFFFFFFFFFFFFFFFFFF AND PUSH20 0xFFFFFFFFFFFFFFFFFFFFFFFFFFFFFFFFFFFFFFFF AND EQ ISZERO DUP1 PUSH2 0x9D5 JUMPI POP PUSH1 0x0 PUSH20 0xFFFFFFFFFFFFFFFFFFFFFFFFFFFFFFFFFFFFFFFF AND PUSH1 0x7 PUSH1 0x0 SWAP1 SLOAD SWAP1 PUSH2 0x100 EXP SWAP1 DIV PUSH20 0xFFFFFFFFFFFFFFFFFFFFFFFFFFFFFFFFFFFFFFFF AND PUSH20 0xFFFFFFFFFFFFFFFFFFFFFFFFFFFFFFFFFFFFFFFF AND EQ ISZERO JUMPDEST ISZERO PUSH2 0xA0C JUMPI PUSH1 0x40 MLOAD PUSH32 0xDC149F000000000000000000000000000000000000000000000000000000000 DUP2 MSTORE PUSH1 0x4 ADD PUSH1 0x40 MLOAD DUP1 SWAP2 SUB SWAP1 REVERT JUMPDEST DUP2 PUSH1 0x6 PUSH1 0x0 PUSH2 0x100 EXP DUP2 SLOAD DUP2 PUSH20 0xFFFFFFFFFFFFFFFFFFFFFFFFFFFFFFFFFFFFFFFF MUL NOT AND SWAP1 DUP4 PUSH20 0xFFFFFFFFFFFFFFFFFFFFFFFFFFFFFFFFFFFFFFFF AND MUL OR SWAP1 SSTORE POP DUP1 PUSH1 0x7 PUSH1 0x0 PUSH2 0x100 EXP DUP2 SLOAD DUP2 PUSH20 0xFFFFFFFFFFFFFFFFFFFFFFFFFFFFFFFFFFFFFFFF MUL NOT AND SWAP1 DUP4 PUSH20 0xFFFFFFFFFFFFFFFFFFFFFFFFFFFFFFFFFFFFFFFF AND MUL OR SWAP1 SSTORE POP POP POP JUMP JUMPDEST PUSH1 0x9 SLOAD DUP2 JUMP JUMPDEST PUSH1 0xA SLOAD DUP2 JUMP JUMPDEST PUSH1 0x0 PUSH1 0xB PUSH1 0x0 SWAP1 SLOAD SWAP1 PUSH2 0x100 EXP SWAP1 DIV PUSH1 0xFF AND ISZERO PUSH2 0xAF0 JUMPI PUSH1 0x40 MLOAD PUSH32 0x8C379A000000000000000000000000000000000000000000000000000000000 DUP2 MSTORE PUSH1 0x4 ADD PUSH2 0xAE7 SWAP1 PUSH2 0x2CDE JUMP JUMPDEST PUSH1 0x40 MLOAD DUP1 SWAP2 SUB SWAP1 REVERT JUMPDEST PUSH1 0x1 PUSH1 0xB PUSH1 0x0 PUSH2 0x100 EXP DUP2 SLOAD DUP2 PUSH1 0xFF MUL NOT AND SWAP1 DUP4 ISZERO ISZERO MUL OR SWAP1 SSTORE POP PUSH1 0x0 DUP1 PUSH2 0xB16 PUSH2 0x4E2 JUMP JUMPDEST POP SWAP2 POP SWAP2 POP PUSH1 0x0 PUSH1 0x6 PUSH1 0x0 SWAP1 SLOAD SWAP1 PUSH2 0x100 EXP SWAP1 DIV PUSH20 0xFFFFFFFFFFFFFFFFFFFFFFFFFFFFFFFFFFFFFFFF AND PUSH20 0xFFFFFFFFFFFFFFFFFFFFFFFFFFFFFFFFFFFFFFFF AND PUSH4 0x70A08231 ADDRESS PUSH1 0x40 MLOAD DUP3 PUSH4 0xFFFFFFFF AND PUSH1 0xE0 SHL DUP2 MSTORE PUSH1 0x4 ADD PUSH2 0xB78 SWAP2 SWAP1 PUSH2 0x28C2 JUMP JUMPDEST PUSH1 0x20 PUSH1 0x40 MLOAD DUP1 DUP4 SUB DUP2 PUSH1 0x0 DUP8 GAS CALL ISZERO DUP1 ISZERO PUSH2 0xB97 JUMPI RETURNDATASIZE PUSH1 0x0 DUP1 RETURNDATACOPY RETURNDATASIZE PUSH1 0x0 REVERT JUMPDEST POP POP POP POP PUSH1 0x40 MLOAD RETURNDATASIZE PUSH1 0x1F NOT PUSH1 0x1F DUP3 ADD AND DUP3 ADD DUP1 PUSH1 0x40 MSTORE POP DUP2 ADD SWAP1 PUSH2 0xBBB SWAP2 SWAP1 PUSH2 0x2D13 JUMP JUMPDEST SWAP1 POP PUSH1 0x0 PUSH1 0x7 PUSH1 0x0 SWAP1 SLOAD SWAP1 PUSH2 0x100 EXP SWAP1 DIV PUSH20 0xFFFFFFFFFFFFFFFFFFFFFFFFFFFFFFFFFFFFFFFF AND PUSH20 0xFFFFFFFFFFFFFFFFFFFFFFFFFFFFFFFFFFFFFFFF AND PUSH4 0x70A08231 ADDRESS PUSH1 0x40 MLOAD DUP3 PUSH4 0xFFFFFFFF AND PUSH1 0xE0 SHL DUP2 MSTORE PUSH1 0x4 ADD PUSH2 0xC1A SWAP2 SWAP1 PUSH2 0x28C2 JUMP JUMPDEST PUSH1 0x20 PUSH1 0x40 MLOAD DUP1 DUP4 SUB DUP2 PUSH1 0x0 DUP8 GAS CALL ISZERO DUP1 ISZERO PUSH2 0xC39 JUMPI RETURNDATASIZE PUSH1 0x0 DUP1 RETURNDATACOPY RETURNDATASIZE PUSH1 0x0 REVERT JUMPDEST POP POP POP POP PUSH1 0x40 MLOAD RETURNDATASIZE PUSH1 0x1F NOT PUSH1 0x1F DUP3 ADD AND DUP3 ADD DUP1 PUSH1 0x40 MSTORE POP DUP2 ADD SWAP1 PUSH2 0xC5D SWAP2 SWAP1 PUSH2 0x2D13 JUMP JUMPDEST SWAP1 POP PUSH1 0x0 DUP5 PUSH14 0xFFFFFFFFFFFFFFFFFFFFFFFFFFFF AND DUP4 PUSH2 0xC7D SWAP2 SWAP1 PUSH2 0x2C38 JUMP JUMPDEST SWAP1 POP PUSH1 0x0 DUP5 PUSH14 0xFFFFFFFFFFFFFFFFFFFFFFFFFFFF AND DUP4 PUSH2 0xC9D SWAP2 SWAP1 PUSH2 0x2C38 JUMP JUMPDEST SWAP1 POP PUSH1 0x0 PUSH1 0x2 SLOAD EQ ISZERO PUSH2 0xCDF JUMPI PUSH2 0x3E8 PUSH2 0xCC1 DUP3 DUP5 PUSH2 0xCBC SWAP2 SWAP1 PUSH2 0x2D40 JUMP JUMPDEST PUSH2 0x1FD1 JUMP JUMPDEST PUSH2 0xCCB SWAP2 SWAP1 PUSH2 0x2C38 JUMP JUMPDEST SWAP7 POP PUSH2 0xCDA PUSH1 0x0 PUSH2 0x3E8 PUSH2 0x204B JUMP JUMPDEST PUSH2 0xD3C JUMP JUMPDEST PUSH2 0xD39 DUP7 PUSH14 0xFFFFFFFFFFFFFFFFFFFFFFFFFFFF AND PUSH1 0x2 SLOAD DUP5 PUSH2 0xD01 SWAP2 SWAP1 PUSH2 0x2D40 JUMP JUMPDEST PUSH2 0xD0B SWAP2 SWAP1 PUSH2 0x2DC9 JUMP JUMPDEST DUP7 PUSH14 0xFFFFFFFFFFFFFFFFFFFFFFFFFFFF AND PUSH1 0x2 SLOAD DUP5 PUSH2 0xD2A SWAP2 SWAP1 PUSH2 0x2D40 JUMP JUMPDEST PUSH2 0xD34 SWAP2 SWAP1 PUSH2 0x2DC9 JUMP JUMPDEST PUSH2 0x211B JUMP JUMPDEST SWAP7 POP JUMPDEST PUSH1 0x0 DUP8 GT PUSH2 0xD76 JUMPI PUSH1 0x40 MLOAD PUSH32 0xD226F9D400000000000000000000000000000000000000000000000000000000 DUP2 MSTORE PUSH1 0x4 ADD PUSH1 0x40 MLOAD DUP1 SWAP2 SUB SWAP1 REVERT JUMPDEST PUSH2 0xD80 DUP9 DUP9 PUSH2 0x204B JUMP JUMPDEST PUSH2 0xD8C DUP5 DUP5 DUP9 DUP9 PUSH2 0x2134 JUMP JUMPDEST DUP8 PUSH20 0xFFFFFFFFFFFFFFFFFFFFFFFFFFFFFFFFFFFFFFFF AND PUSH32 0x4C209B5FC8AD50758F13E2E1088BA56A560DFF690A1C6FEF26394F4C03821C4F DUP4 DUP4 PUSH1 0x40 MLOAD PUSH2 0xDD4 SWAP3 SWAP2 SWAP1 PUSH2 0x2A85 JUMP JUMPDEST PUSH1 0x40 MLOAD DUP1 SWAP2 SUB SWAP1 LOG2 POP POP POP POP POP POP PUSH1 0x0 PUSH1 0xB PUSH1 0x0 PUSH2 0x100 EXP DUP2 SLOAD DUP2 PUSH1 0xFF MUL NOT AND SWAP1 DUP4 ISZERO ISZERO MUL OR SWAP1 SSTORE POP SWAP2 SWAP1 POP JUMP JUMPDEST PUSH1 0xB PUSH1 0x0 SWAP1 SLOAD SWAP1 PUSH2 0x100 EXP SWAP1 DIV PUSH1 0xFF AND ISZERO PUSH2 0xE52 JUMPI PUSH1 0x40 MLOAD PUSH32 0x8C379A000000000000000000000000000000000000000000000000000000000 DUP2 MSTORE PUSH1 0x4 ADD PUSH2 0xE49 SWAP1 PUSH2 0x2CDE JUMP JUMPDEST PUSH1 0x40 MLOAD DUP1 SWAP2 SUB SWAP1 REVERT JUMPDEST PUSH1 0x1 PUSH1 0xB PUSH1 0x0 PUSH2 0x100 EXP DUP2 SLOAD DUP2 PUSH1 0xFF MUL NOT AND SWAP1 DUP4 ISZERO ISZERO MUL OR SWAP1 SSTORE POP PUSH1 0x0 DUP4 EQ DUP1 ISZERO PUSH2 0xE7D JUMPI POP PUSH1 0x0 DUP3 EQ JUMPDEST ISZERO PUSH2 0xEB4 JUMPI PUSH1 0x40 MLOAD PUSH32 0x42301C2300000000000000000000000000000000000000000000000000000000 DUP2 MSTORE PUSH1 0x4 ADD PUSH1 0x40 MLOAD DUP1 SWAP2 SUB SWAP1 REVERT JUMPDEST PUSH1 0x0 DUP1 PUSH2 0xEBF PUSH2 0x4E2 JUMP JUMPDEST POP SWAP2 POP SWAP2 POP DUP2 PUSH14 0xFFFFFFFFFFFFFFFFFFFFFFFFFFFF AND DUP6 GT DUP1 PUSH2 0xEF1 JUMPI POP DUP1 PUSH14 0xFFFFFFFFFFFFFFFFFFFFFFFFFFFF AND DUP5 GT JUMPDEST ISZERO PUSH2 0xF28 JUMPI PUSH1 0x40 MLOAD PUSH32 0xBB55FD2700000000000000000000000000000000000000000000000000000000 DUP2 MSTORE PUSH1 0x4 ADD PUSH1 0x40 MLOAD DUP1 SWAP2 SUB SWAP1 REVERT JUMPDEST PUSH1 0x0 DUP6 GT ISZERO PUSH2 0xF5F JUMPI PUSH2 0xF5E PUSH1 0x6 PUSH1 0x0 SWAP1 SLOAD SWAP1 PUSH2 0x100 EXP SWAP1 DIV PUSH20 0xFFFFFFFFFFFFFFFFFFFFFFFFFFFFFFFFFFFFFFFF AND DUP5 DUP8 PUSH2 0x23D8 JUMP JUMPDEST JUMPDEST PUSH1 0x0 DUP5 GT ISZERO PUSH2 0xF96 JUMPI PUSH2 0xF95 PUSH1 0x7 PUSH1 0x0 SWAP1 SLOAD SWAP1 PUSH2 0x100 EXP SWAP1 DIV PUSH20 0xFFFFFFFFFFFFFFFFFFFFFFFFFFFFFFFFFFFFFFFF AND DUP5 DUP7 PUSH2 0x23D8 JUMP JUMPDEST JUMPDEST PUSH1 0x0 PUSH1 0x6 PUSH1 0x0 SWAP1 SLOAD SWAP1 PUSH2 0x100 EXP SWAP1 DIV PUSH20 0xFFFFFFFFFFFFFFFFFFFFFFFFFFFFFFFFFFFFFFFF AND PUSH20 0xFFFFFFFFFFFFFFFFFFFFFFFFFFFFFFFFFFFFFFFF AND PUSH4 0x70A08231 ADDRESS PUSH1 0x40 MLOAD DUP3 PUSH4 0xFFFFFFFF AND PUSH1 0xE0 SHL DUP2 MSTORE PUSH1 0x4 ADD PUSH2 0xFF3 SWAP2 SWAP1 PUSH2 0x28C2 JUMP JUMPDEST PUSH1 0x20 PUSH1 0x40 MLOAD DUP1 DUP4 SUB DUP2 PUSH1 0x0 DUP8 GAS CALL ISZERO DUP1 ISZERO PUSH2 0x1012 JUMPI RETURNDATASIZE PUSH1 0x0 DUP1 RETURNDATACOPY RETURNDATASIZE PUSH1 0x0 REVERT JUMPDEST POP POP POP POP PUSH1 0x40 MLOAD RETURNDATASIZE PUSH1 0x1F NOT PUSH1 0x1F DUP3 ADD AND DUP3 ADD DUP1 PUSH1 0x40 MSTORE POP DUP2 ADD SWAP1 PUSH2 0x1036 SWAP2 SWAP1 PUSH2 0x2D13 JUMP JUMPDEST SWAP1 POP PUSH1 0x0 PUSH1 0x7 PUSH1 0x0 SWAP1 SLOAD SWAP1 PUSH2 0x100 EXP SWAP1 DIV PUSH20 0xFFFFFFFFFFFFFFFFFFFFFFFFFFFFFFFFFFFFFFFF AND PUSH20 0xFFFFFFFFFFFFFFFFFFFFFFFFFFFFFFFFFFFFFFFF AND PUSH4 0x70A08231 ADDRESS PUSH1 0x40 MLOAD DUP3 PUSH4 0xFFFFFFFF AND PUSH1 0xE0 SHL DUP2 MSTORE PUSH1 0x4 ADD PUSH2 0x1095 SWAP2 SWAP1 PUSH2 0x28C2 JUMP JUMPDEST PUSH1 0x20 PUSH1 0x40 MLOAD DUP1 DUP4 SUB DUP2 PUSH1 0x0 DUP8 GAS CALL ISZERO DUP1 ISZERO PUSH2 0x10B4 JUMPI RETURNDATASIZE PUSH1 0x0 DUP1 RETURNDATACOPY RETURNDATASIZE PUSH1 0x0 REVERT JUMPDEST POP POP POP POP PUSH1 0x40 MLOAD RETURNDATASIZE PUSH1 0x1F NOT PUSH1 0x1F DUP3 ADD AND DUP3 ADD DUP1 PUSH1 0x40 MSTORE POP DUP2 ADD SWAP1 PUSH2 0x10D8 SWAP2 SWAP1 PUSH2 0x2D13 JUMP JUMPDEST SWAP1 POP PUSH1 0x0 DUP8 PUSH1 0x8 PUSH1 0x0 SWAP1 SLOAD SWAP1 PUSH2 0x100 EXP SWAP1 DIV PUSH14 0xFFFFFFFFFFFFFFFFFFFFFFFFFFFF AND PUSH14 0xFFFFFFFFFFFFFFFFFFFFFFFFFFFF AND PUSH2 0x1114 SWAP2 SWAP1 PUSH2 0x2C38 JUMP JUMPDEST DUP4 GT PUSH2 0x1121 JUMPI PUSH1 0x0 PUSH2 0x1165 JUMP JUMPDEST DUP8 PUSH1 0x8 PUSH1 0x0 SWAP1 SLOAD SWAP1 PUSH2 0x100 EXP SWAP1 DIV PUSH14 0xFFFFFFFFFFFFFFFFFFFFFFFFFFFF AND PUSH14 0xFFFFFFFFFFFFFFFFFFFFFFFFFFFF AND PUSH2 0x1159 SWAP2 SWAP1 PUSH2 0x2C38 JUMP JUMPDEST DUP4 PUSH2 0x1164 SWAP2 SWAP1 PUSH2 0x2C38 JUMP JUMPDEST JUMPDEST SWAP1 POP PUSH1 0x0 DUP8 PUSH1 0x8 PUSH1 0xE SWAP1 SLOAD SWAP1 PUSH2 0x100 EXP SWAP1 DIV PUSH14 0xFFFFFFFFFFFFFFFFFFFFFFFFFFFF AND PUSH14 0xFFFFFFFFFFFFFFFFFFFFFFFFFFFF AND PUSH2 0x11A1 SWAP2 SWAP1 PUSH2 0x2C38 JUMP JUMPDEST DUP4 GT PUSH2 0x11AE JUMPI PUSH1 0x0 PUSH2 0x11F2 JUMP JUMPDEST DUP8 PUSH1 0x8 PUSH1 0xE SWAP1 SLOAD SWAP1 PUSH2 0x100 EXP SWAP1 DIV PUSH14 0xFFFFFFFFFFFFFFFFFFFFFFFFFFFF AND PUSH14 0xFFFFFFFFFFFFFFFFFFFFFFFFFFFF AND PUSH2 0x11E6 SWAP2 SWAP1 PUSH2 0x2C38 JUMP JUMPDEST DUP4 PUSH2 0x11F1 SWAP2 SWAP1 PUSH2 0x2C38 JUMP JUMPDEST JUMPDEST SWAP1 POP PUSH1 0x0 DUP3 EQ DUP1 ISZERO PUSH2 0x1204 JUMPI POP PUSH1 0x0 DUP2 EQ JUMPDEST ISZERO PUSH2 0x123B JUMPI PUSH1 0x40 MLOAD PUSH32 0x98FB56100000000000000000000000000000000000000000000000000000000 DUP2 MSTORE PUSH1 0x4 ADD PUSH1 0x40 MLOAD DUP1 SWAP2 SUB SWAP1 REVERT JUMPDEST PUSH1 0x0 PUSH1 0x3 DUP4 PUSH2 0x124A SWAP2 SWAP1 PUSH2 0x2D40 JUMP JUMPDEST PUSH2 0x3E8 DUP7 PUSH2 0x1258 SWAP2 SWAP1 PUSH2 0x2D40 JUMP JUMPDEST PUSH2 0x1262 SWAP2 SWAP1 PUSH2 0x2C38 JUMP JUMPDEST SWAP1 POP PUSH1 0x0 PUSH1 0x3 DUP4 PUSH2 0x1273 SWAP2 SWAP1 PUSH2 0x2D40 JUMP JUMPDEST PUSH2 0x3E8 DUP7 PUSH2 0x1281 SWAP2 SWAP1 PUSH2 0x2D40 JUMP JUMPDEST PUSH2 0x128B SWAP2 SWAP1 PUSH2 0x2C38 JUMP JUMPDEST SWAP1 POP PUSH3 0xF4240 DUP8 PUSH14 0xFFFFFFFFFFFFFFFFFFFFFFFFFFFF AND DUP10 PUSH14 0xFFFFFFFFFFFFFFFFFFFFFFFFFFFF AND PUSH2 0x12BD SWAP2 SWAP1 PUSH2 0x2D40 JUMP JUMPDEST PUSH2 0x12C7 SWAP2 SWAP1 PUSH2 0x2D40 JUMP JUMPDEST DUP2 DUP4 PUSH2 0x12D3 SWAP2 SWAP1 PUSH2 0x2D40 JUMP JUMPDEST LT ISZERO PUSH2 0x130B JUMPI PUSH1 0x40 MLOAD PUSH32 0xBD8BC36400000000000000000000000000000000000000000000000000000000 DUP2 MSTORE PUSH1 0x4 ADD PUSH1 0x40 MLOAD DUP1 SWAP2 SUB SWAP1 REVERT JUMPDEST PUSH2 0x1317 DUP7 DUP7 DUP11 DUP11 PUSH2 0x2134 JUMP JUMPDEST DUP9 PUSH20 0xFFFFFFFFFFFFFFFFFFFFFFFFFFFFFFFFFFFFFFFF AND CALLER PUSH20 0xFFFFFFFFFFFFFFFFFFFFFFFFFFFFFFFFFFFFFFFF AND PUSH32 0x2A9237FF5AA599EF4C5EE4B1142B53429D5755E2685FE6288B2E3320202115F5 DUP14 DUP14 PUSH1 0x40 MLOAD PUSH2 0x1376 SWAP3 SWAP2 SWAP1 PUSH2 0x2A85 JUMP JUMPDEST PUSH1 0x40 MLOAD DUP1 SWAP2 SUB SWAP1 LOG3 POP POP POP POP POP POP POP POP PUSH1 0x0 PUSH1 0xB PUSH1 0x0 PUSH2 0x100 EXP DUP2 SLOAD DUP2 PUSH1 0xFF MUL NOT AND SWAP1 DUP4 ISZERO ISZERO MUL OR SWAP1 SSTORE POP POP POP POP JUMP JUMPDEST PUSH1 0x3 PUSH1 0x20 MSTORE DUP1 PUSH1 0x0 MSTORE PUSH1 0x40 PUSH1 0x0 KECCAK256 PUSH1 0x0 SWAP2 POP SWAP1 POP SLOAD DUP2 JUMP JUMPDEST PUSH1 0x5 PUSH1 0x20 MSTORE DUP1 PUSH1 0x0 MSTORE PUSH1 0x40 PUSH1 0x0 KECCAK256 PUSH1 0x0 SWAP2 POP SWAP1 POP SLOAD DUP2 JUMP JUMPDEST PUSH1 0x0 DUP1 PUSH1 0xB PUSH1 0x0 SWAP1 SLOAD SWAP1 PUSH2 0x100 EXP SWAP1 DIV PUSH1 0xFF AND ISZERO PUSH2 0x1429 JUMPI PUSH1 0x40 MLOAD PUSH32 0x8C379A000000000000000000000000000000000000000000000000000000000 DUP2 MSTORE PUSH1 0x4 ADD PUSH2 0x1420 SWAP1 PUSH2 0x2CDE JUMP JUMPDEST PUSH1 0x40 MLOAD DUP1 SWAP2 SUB SWAP1 REVERT JUMPDEST PUSH1 0x1 PUSH1 0xB PUSH1 0x0 PUSH2 0x100 EXP DUP2 SLOAD DUP2 PUSH1 0xFF MUL NOT AND SWAP1 DUP4 ISZERO ISZERO MUL OR SWAP1 SSTORE POP PUSH1 0x0 PUSH1 0x6 PUSH1 0x0 SWAP1 SLOAD SWAP1 PUSH2 0x100 EXP SWAP1 DIV PUSH20 0xFFFFFFFFFFFFFFFFFFFFFFFFFFFFFFFFFFFFFFFF AND PUSH20 0xFFFFFFFFFFFFFFFFFFFFFFFFFFFFFFFFFFFFFFFF AND PUSH4 0x70A08231 ADDRESS PUSH1 0x40 MLOAD DUP3 PUSH4 0xFFFFFFFF AND PUSH1 0xE0 SHL DUP2 MSTORE PUSH1 0x4 ADD PUSH2 0x14A1 SWAP2 SWAP1 PUSH2 0x28C2 JUMP JUMPDEST PUSH1 0x20 PUSH1 0x40 MLOAD DUP1 DUP4 SUB DUP2 PUSH1 0x0 DUP8 GAS CALL ISZERO DUP1 ISZERO PUSH2 0x14C0 JUMPI RETURNDATASIZE PUSH1 0x0 DUP1 RETURNDATACOPY RETURNDATASIZE PUSH1 0x0 REVERT JUMPDEST POP POP POP POP PUSH1 0x40 MLOAD RETURNDATASIZE PUSH1 0x1F NOT PUSH1 0x1F DUP3 ADD AND DUP3 ADD DUP1 PUSH1 0x40 MSTORE POP DUP2 ADD SWAP1 PUSH2 0x14E4 SWAP2 SWAP1 PUSH2 0x2D13 JUMP JUMPDEST SWAP1 POP PUSH1 0x0 PUSH1 0x7 PUSH1 0x0 SWAP1 SLOAD SWAP1 PUSH2 0x100 EXP SWAP1 DIV PUSH20 0xFFFFFFFFFFFFFFFFFFFFFFFFFFFFFFFFFFFFFFFF AND PUSH20 0xFFFFFFFFFFFFFFFFFFFFFFFFFFFFFFFFFFFFFFFF AND PUSH4 0x70A08231 ADDRESS PUSH1 0x40 MLOAD DUP3 PUSH4 0xFFFFFFFF AND PUSH1 0xE0 SHL DUP2 MSTORE PUSH1 0x4 ADD PUSH2 0x1543 SWAP2 SWAP1 PUSH2 0x28C2 JUMP JUMPDEST PUSH1 0x20 PUSH1 0x40 MLOAD DUP1 DUP4 SUB DUP2 PUSH1 0x0 DUP8 GAS CALL ISZERO DUP1 ISZERO PUSH2 0x1562 JUMPI RETURNDATASIZE PUSH1 0x0 DUP1 RETURNDATACOPY RETURNDATASIZE PUSH1 0x0 REVERT JUMPDEST POP POP POP POP PUSH1 0x40 MLOAD RETURNDATASIZE PUSH1 0x1F NOT PUSH1 0x1F DUP3 ADD AND DUP3 ADD DUP1 PUSH1 0x40 MSTORE POP DUP2 ADD SWAP1 PUSH2 0x1586 SWAP2 SWAP1 PUSH2 0x2D13 JUMP JUMPDEST SWAP1 POP PUSH1 0x0 PUSH1 0x3 PUSH1 0x0 ADDRESS PUSH20 0xFFFFFFFFFFFFFFFFFFFFFFFFFFFFFFFFFFFFFFFF AND PUSH20 0xFFFFFFFFFFFFFFFFFFFFFFFFFFFFFFFFFFFFFFFF AND DUP2 MSTORE PUSH1 0x20 ADD SWAP1 DUP2 MSTORE PUSH1 0x20 ADD PUSH1 0x0 KECCAK256 SLOAD SWAP1 POP PUSH1 0x2 SLOAD DUP4 DUP3 PUSH2 0x15DB SWAP2 SWAP1 PUSH2 0x2D40 JUMP JUMPDEST PUSH2 0x15E5 SWAP2 SWAP1 PUSH2 0x2DC9 JUMP JUMPDEST SWAP5 POP PUSH1 0x2 SLOAD DUP3 DUP3 PUSH2 0x15F6 SWAP2 SWAP1 PUSH2 0x2D40 JUMP JUMPDEST PUSH2 0x1600 SWAP2 SWAP1 PUSH2 0x2DC9 JUMP JUMPDEST SWAP4 POP PUSH1 0x0 DUP6 EQ DUP1 PUSH2 0x1611 JUMPI POP PUSH1 0x0 DUP5 EQ JUMPDEST ISZERO PUSH2 0x1648 JUMPI PUSH1 0x40 MLOAD PUSH32 0x749383AD00000000000000000000000000000000000000000000000000000000 DUP2 MSTORE PUSH1 0x4 ADD PUSH1 0x40 MLOAD DUP1 SWAP2 SUB SWAP1 REVERT JUMPDEST PUSH2 0x1652 ADDRESS DUP3 PUSH2 0x2540 JUMP JUMPDEST PUSH2 0x167F PUSH1 0x6 PUSH1 0x0 SWAP1 SLOAD SWAP1 PUSH2 0x100 EXP SWAP1 DIV PUSH20 0xFFFFFFFFFFFFFFFFFFFFFFFFFFFFFFFFFFFFFFFF AND DUP8 DUP8 PUSH2 0x23D8 JUMP JUMPDEST PUSH2 0x16AC PUSH1 0x7 PUSH1 0x0 SWAP1 SLOAD SWAP1 PUSH2 0x100 EXP SWAP1 DIV PUSH20 0xFFFFFFFFFFFFFFFFFFFFFFFFFFFFFFFFFFFFFFFF AND DUP8 DUP7 PUSH2 0x23D8 JUMP JUMPDEST PUSH1 0x6 PUSH1 0x0 SWAP1 SLOAD SWAP1 PUSH2 0x100 EXP SWAP1 DIV PUSH20 0xFFFFFFFFFFFFFFFFFFFFFFFFFFFFFFFFFFFFFFFF AND PUSH20 0xFFFFFFFFFFFFFFFFFFFFFFFFFFFFFFFFFFFFFFFF AND PUSH4 0x70A08231 ADDRESS PUSH1 0x40 MLOAD DUP3 PUSH4 0xFFFFFFFF AND PUSH1 0xE0 SHL DUP2 MSTORE PUSH1 0x4 ADD PUSH2 0x1707 SWAP2 SWAP1 PUSH2 0x28C2 JUMP JUMPDEST PUSH1 0x20 PUSH1 0x40 MLOAD DUP1 DUP4 SUB DUP2 PUSH1 0x0 DUP8 GAS CALL ISZERO DUP1 ISZERO PUSH2 0x1726 JUMPI RETURNDATASIZE PUSH1 0x0 DUP1 RETURNDATACOPY RETURNDATASIZE PUSH1 0x0 REVERT JUMPDEST POP POP POP POP PUSH1 0x40 MLOAD RETURNDATASIZE PUSH1 0x1F NOT PUSH1 0x1F DUP3 ADD AND DUP3 ADD DUP1 PUSH1 0x40 MSTORE POP DUP2 ADD SWAP1 PUSH2 0x174A SWAP2 SWAP1 PUSH2 0x2D13 JUMP JUMPDEST SWAP3 POP PUSH1 0x7 PUSH1 0x0 SWAP1 SLOAD SWAP1 PUSH2 0x100 EXP SWAP1 DIV PUSH20 0xFFFFFFFFFFFFFFFFFFFFFFFFFFFFFFFFFFFFFFFF AND PUSH20 0xFFFFFFFFFFFFFFFFFFFFFFFFFFFFFFFFFFFFFFFF AND PUSH4 0x70A08231 ADDRESS PUSH1 0x40 MLOAD DUP3 PUSH4 0xFFFFFFFF AND PUSH1 0xE0 SHL DUP2 MSTORE PUSH1 0x4 ADD PUSH2 0x17A7 SWAP2 SWAP1 PUSH2 0x28C2 JUMP JUMPDEST PUSH1 0x20 PUSH1 0x40 MLOAD DUP1 DUP4 SUB DUP2 PUSH1 0x0 DUP8 GAS CALL ISZERO DUP1 ISZERO PUSH2 0x17C6 JUMPI RETURNDATASIZE PUSH1 0x0 DUP1 RETURNDATACOPY RETURNDATASIZE PUSH1 0x0 REVERT JUMPDEST POP POP POP POP PUSH1 0x40 MLOAD RETURNDATASIZE PUSH1 0x1F NOT PUSH1 0x1F DUP3 ADD AND DUP3 ADD DUP1 PUSH1 0x40 MSTORE POP DUP2 ADD SWAP1 PUSH2 0x17EA SWAP2 SWAP1 PUSH2 0x2D13 JUMP JUMPDEST SWAP2 POP PUSH1 0x0 DUP1 PUSH2 0x17F7 PUSH2 0x4E2 JUMP JUMPDEST POP SWAP2 POP SWAP2 POP PUSH2 0x1808 DUP6 DUP6 DUP5 DUP5 PUSH2 0x2134 JUMP JUMPDEST CALLER PUSH20 0xFFFFFFFFFFFFFFFFFFFFFFFFFFFFFFFFFFFFFFFF AND PUSH32 0xDCCD412F0B1252819CB1FD330B93224CA42612892BB3F4F789976E6D81936496 DUP9 DUP9 DUP12 PUSH1 0x40 MLOAD PUSH2 0x1852 SWAP4 SWAP3 SWAP2 SWAP1 PUSH2 0x2DFA JUMP JUMPDEST PUSH1 0x40 MLOAD DUP1 SWAP2 SUB SWAP1 LOG2 POP POP POP POP POP PUSH1 0x0 PUSH1 0xB PUSH1 0x0 PUSH2 0x100 EXP DUP2 SLOAD DUP2 PUSH1 0xFF MUL NOT AND SWAP1 DUP4 ISZERO ISZERO MUL OR SWAP1 SSTORE POP SWAP2 POP SWAP2 JUMP JUMPDEST PUSH1 0x1 DUP1 SLOAD PUSH2 0x188C SWAP1 PUSH2 0x2BD7 JUMP JUMPDEST DUP1 PUSH1 0x1F ADD PUSH1 0x20 DUP1 SWAP2 DIV MUL PUSH1 0x20 ADD PUSH1 0x40 MLOAD SWAP1 DUP2 ADD PUSH1 0x40 MSTORE DUP1 SWAP3 SWAP2 SWAP1 DUP2 DUP2 MSTORE PUSH1 0x20 ADD DUP3 DUP1 SLOAD PUSH2 0x18B8 SWAP1 PUSH2 0x2BD7 JUMP JUMPDEST DUP1 ISZERO PUSH2 0x1905 JUMPI DUP1 PUSH1 0x1F LT PUSH2 0x18DA JUMPI PUSH2 0x100 DUP1 DUP4 SLOAD DIV MUL DUP4 MSTORE SWAP2 PUSH1 0x20 ADD SWAP2 PUSH2 0x1905 JUMP JUMPDEST DUP3 ADD SWAP2 SWAP1 PUSH1 0x0 MSTORE PUSH1 0x20 PUSH1 0x0 KECCAK256 SWAP1 JUMPDEST DUP2 SLOAD DUP2 MSTORE SWAP1 PUSH1 0x1 ADD SWAP1 PUSH1 0x20 ADD DUP1 DUP4 GT PUSH2 0x18E8 JUMPI DUP3 SWAP1 SUB PUSH1 0x1F AND DUP3 ADD SWAP2 JUMPDEST POP POP POP POP POP DUP2 JUMP JUMPDEST PUSH1 0x0 DUP2 PUSH1 0x3 PUSH1 0x0 CALLER PUSH20 0xFFFFFFFFFFFFFFFFFFFFFFFFFFFFFFFFFFFFFFFF AND PUSH20 0xFFFFFFFFFFFFFFFFFFFFFFFFFFFFFFFFFFFFFFFF AND DUP2 MSTORE PUSH1 0x20 ADD SWAP1 DUP2 MSTORE PUSH1 0x20 ADD PUSH1 0x0 KECCAK256 PUSH1 0x0 DUP3 DUP3 SLOAD PUSH2 0x195E SWAP2 SWAP1 PUSH2 0x2C38 JUMP JUMPDEST SWAP3 POP POP DUP2 SWAP1 SSTORE POP DUP2 PUSH1 0x3 PUSH1 0x0 DUP6 PUSH20 0xFFFFFFFFFFFFFFFFFFFFFFFFFFFFFFFFFFFFFFFF AND PUSH20 0xFFFFFFFFFFFFFFFFFFFFFFFFFFFFFFFFFFFFFFFF AND DUP2 MSTORE PUSH1 0x20 ADD SWAP1 DUP2 MSTORE PUSH1 0x20 ADD PUSH1 0x0 KECCAK256 PUSH1 0x0 DUP3 DUP3 SLOAD ADD SWAP3 POP POP DUP2 SWAP1 SSTORE POP DUP3 PUSH20 0xFFFFFFFFFFFFFFFFFFFFFFFFFFFFFFFFFFFFFFFF AND CALLER PUSH20 0xFFFFFFFFFFFFFFFFFFFFFFFFFFFFFFFFFFFFFFFF AND PUSH32 0xDDF252AD1BE2C89B69C2B068FC378DAA952BA7F163C4A11628F55A4DF523B3EF DUP5 PUSH1 0x40 MLOAD PUSH2 0x1A0F SWAP2 SWAP1 PUSH2 0x28EC JUMP JUMPDEST PUSH1 0x40 MLOAD DUP1 SWAP2 SUB SWAP1 LOG3 PUSH1 0x1 SWAP1 POP SWAP3 SWAP2 POP POP JUMP JUMPDEST PUSH1 0x7 PUSH1 0x0 SWAP1 SLOAD SWAP1 PUSH2 0x100 EXP SWAP1 DIV PUSH20 0xFFFFFFFFFFFFFFFFFFFFFFFFFFFFFFFFFFFFFFFF AND DUP2 JUMP JUMPDEST TIMESTAMP DUP5 LT ISZERO PUSH2 0x1A8A JUMPI PUSH1 0x40 MLOAD PUSH32 0x8C379A000000000000000000000000000000000000000000000000000000000 DUP2 MSTORE PUSH1 0x4 ADD PUSH2 0x1A81 SWAP1 PUSH2 0x2E7D JUMP JUMPDEST PUSH1 0x40 MLOAD DUP1 SWAP2 SUB SWAP1 REVERT JUMPDEST PUSH1 0x0 PUSH1 0x1 PUSH2 0x1A96 PUSH2 0x8CB JUMP JUMPDEST PUSH32 0x6E71EDAE12B1B97F4D1F60370FEF10105FA2FAAE0126114A169C64845D6126C9 DUP11 DUP11 DUP11 PUSH1 0x5 PUSH1 0x0 DUP16 PUSH20 0xFFFFFFFFFFFFFFFFFFFFFFFFFFFFFFFFFFFFFFFF AND PUSH20 0xFFFFFFFFFFFFFFFFFFFFFFFFFFFFFFFFFFFFFFFF AND DUP2 MSTORE PUSH1 0x20 ADD SWAP1 DUP2 MSTORE PUSH1 0x20 ADD PUSH1 0x0 KECCAK256 PUSH1 0x0 DUP2 SLOAD DUP1 SWAP3 SWAP2 SWAP1 PUSH1 0x1 ADD SWAP2 SWAP1 POP SSTORE DUP12 PUSH1 0x40 MLOAD PUSH1 0x20 ADD PUSH2 0x1B1E SWAP7 SWAP6 SWAP5 SWAP4 SWAP3 SWAP2 SWAP1 PUSH2 0x2E9D JUMP JUMPDEST PUSH1 0x40 MLOAD PUSH1 0x20 DUP2 DUP4 SUB SUB DUP2 MSTORE SWAP1 PUSH1 0x40 MSTORE DUP1 MLOAD SWAP1 PUSH1 0x20 ADD KECCAK256 PUSH1 0x40 MLOAD PUSH1 0x20 ADD PUSH2 0x1B45 SWAP3 SWAP2 SWAP1 PUSH2 0x2F76 JUMP JUMPDEST PUSH1 0x40 MLOAD PUSH1 0x20 DUP2 DUP4 SUB SUB DUP2 MSTORE SWAP1 PUSH1 0x40 MSTORE DUP1 MLOAD SWAP1 PUSH1 0x20 ADD KECCAK256 DUP6 DUP6 DUP6 PUSH1 0x40 MLOAD PUSH1 0x0 DUP2 MSTORE PUSH1 0x20 ADD PUSH1 0x40 MSTORE PUSH1 0x40 MLOAD PUSH2 0x1B7B SWAP5 SWAP4 SWAP3 SWAP2 SWAP1 PUSH2 0x2FAD JUMP JUMPDEST PUSH1 0x20 PUSH1 0x40 MLOAD PUSH1 0x20 DUP2 SUB SWAP1 DUP1 DUP5 SUB SWAP1 DUP6 GAS STATICCALL ISZERO DUP1 ISZERO PUSH2 0x1B9D JUMPI RETURNDATASIZE PUSH1 0x0 DUP1 RETURNDATACOPY RETURNDATASIZE PUSH1 0x0 REVERT JUMPDEST POP POP POP PUSH1 0x20 PUSH1 0x40 MLOAD SUB MLOAD SWAP1 POP PUSH1 0x0 PUSH20 0xFFFFFFFFFFFFFFFFFFFFFFFFFFFFFFFFFFFFFFFF AND DUP2 PUSH20 0xFFFFFFFFFFFFFFFFFFFFFFFFFFFFFFFFFFFFFFFF AND EQ ISZERO DUP1 ISZERO PUSH2 0x1C11 JUMPI POP DUP8 PUSH20 0xFFFFFFFFFFFFFFFFFFFFFFFFFFFFFFFFFFFFFFFF AND DUP2 PUSH20 0xFFFFFFFFFFFFFFFFFFFFFFFFFFFFFFFFFFFFFFFF AND EQ JUMPDEST PUSH2 0x1C50 JUMPI PUSH1 0x40 MLOAD PUSH32 0x8C379A000000000000000000000000000000000000000000000000000000000 DUP2 MSTORE PUSH1 0x4 ADD PUSH2 0x1C47 SWAP1 PUSH2 0x303E JUMP JUMPDEST PUSH1 0x40 MLOAD DUP1 SWAP2 SUB SWAP1 REVERT JUMPDEST DUP6 PUSH1 0x4 PUSH1 0x0 DUP4 PUSH20 0xFFFFFFFFFFFFFFFFFFFFFFFFFFFFFFFFFFFFFFFF AND PUSH20 0xFFFFFFFFFFFFFFFFFFFFFFFFFFFFFFFFFFFFFFFF AND DUP2 MSTORE PUSH1 0x20 ADD SWAP1 DUP2 MSTORE PUSH1 0x20 ADD PUSH1 0x0 KECCAK256 PUSH1 0x0 DUP10 PUSH20 0xFFFFFFFFFFFFFFFFFFFFFFFFFFFFFFFFFFFFFFFF AND PUSH20 0xFFFFFFFFFFFFFFFFFFFFFFFFFFFFFFFFFFFFFFFF AND DUP2 MSTORE PUSH1 0x20 ADD SWAP1 DUP2 MSTORE PUSH1 0x20 ADD PUSH1 0x0 KECCAK256 DUP2 SWAP1 SSTORE POP POP DUP6 PUSH20 0xFFFFFFFFFFFFFFFFFFFFFFFFFFFFFFFFFFFFFFFF AND DUP8 PUSH20 0xFFFFFFFFFFFFFFFFFFFFFFFFFFFFFFFFFFFFFFFF AND PUSH32 0x8C5BE1E5EBEC7D5BD14F71427D1E84F3DD0314C0F7B2291E5B200AC8C7C3B925 DUP8 PUSH1 0x40 MLOAD PUSH2 0x1D2F SWAP2 SWAP1 PUSH2 0x28EC JUMP JUMPDEST PUSH1 0x40 MLOAD DUP1 SWAP2 SUB SWAP1 LOG3 POP POP POP POP POP POP POP JUMP JUMPDEST PUSH1 0x4 PUSH1 0x20 MSTORE DUP2 PUSH1 0x0 MSTORE PUSH1 0x40 PUSH1 0x0 KECCAK256 PUSH1 0x20 MSTORE DUP1 PUSH1 0x0 MSTORE PUSH1 0x40 PUSH1 0x0 KECCAK256 PUSH1 0x0 SWAP2 POP SWAP2 POP POP SLOAD DUP2 JUMP JUMPDEST PUSH1 0xB PUSH1 0x0 SWAP1 SLOAD SWAP1 PUSH2 0x100 EXP SWAP1 DIV PUSH1 0xFF AND ISZERO PUSH2 0x1DB5 JUMPI PUSH1 0x40 MLOAD PUSH32 0x8C379A000000000000000000000000000000000000000000000000000000000 DUP2 MSTORE PUSH1 0x4 ADD PUSH2 0x1DAC SWAP1 PUSH2 0x2CDE JUMP JUMPDEST PUSH1 0x40 MLOAD DUP1 SWAP2 SUB SWAP1 REVERT JUMPDEST PUSH1 0x1 PUSH1 0xB PUSH1 0x0 PUSH2 0x100 EXP DUP2 SLOAD DUP2 PUSH1 0xFF MUL NOT AND SWAP1 DUP4 ISZERO ISZERO MUL OR SWAP1 SSTORE POP PUSH1 0x0 DUP1 PUSH2 0x1DDB PUSH2 0x4E2 JUMP JUMPDEST POP SWAP2 POP SWAP2 POP PUSH2 0x1F26 PUSH1 0x6 PUSH1 0x0 SWAP1 SLOAD SWAP1 PUSH2 0x100 EXP SWAP1 DIV PUSH20 0xFFFFFFFFFFFFFFFFFFFFFFFFFFFFFFFFFFFFFFFF AND PUSH20 0xFFFFFFFFFFFFFFFFFFFFFFFFFFFFFFFFFFFFFFFF AND PUSH4 0x70A08231 ADDRESS PUSH1 0x40 MLOAD DUP3 PUSH4 0xFFFFFFFF AND PUSH1 0xE0 SHL DUP2 MSTORE PUSH1 0x4 ADD PUSH2 0x1E3E SWAP2 SWAP1 PUSH2 0x28C2 JUMP JUMPDEST PUSH1 0x20 PUSH1 0x40 MLOAD DUP1 DUP4 SUB DUP2 PUSH1 0x0 DUP8 GAS CALL ISZERO DUP1 ISZERO PUSH2 0x1E5D JUMPI RETURNDATASIZE PUSH1 0x0 DUP1 RETURNDATACOPY RETURNDATASIZE PUSH1 0x0 REVERT JUMPDEST POP POP POP POP PUSH1 0x40 MLOAD RETURNDATASIZE PUSH1 0x1F NOT PUSH1 0x1F DUP3 ADD AND DUP3 ADD DUP1 PUSH1 0x40 MSTORE POP DUP2 ADD SWAP1 PUSH2 0x1E81 SWAP2 SWAP1 PUSH2 0x2D13 JUMP JUMPDEST PUSH1 0x7 PUSH1 0x0 SWAP1 SLOAD SWAP1 PUSH2 0x100 EXP SWAP1 DIV PUSH20 0xFFFFFFFFFFFFFFFFFFFFFFFFFFFFFFFFFFFFFFFF AND PUSH20 0xFFFFFFFFFFFFFFFFFFFFFFFFFFFFFFFFFFFFFFFF AND PUSH4 0x70A08231 ADDRESS PUSH1 0x40 MLOAD DUP3 PUSH4 0xFFFFFFFF AND PUSH1 0xE0 SHL DUP2 MSTORE PUSH1 0x4 ADD PUSH2 0x1EDC SWAP2 SWAP1 PUSH2 0x28C2 JUMP JUMPDEST PUSH1 0x20 PUSH1 0x40 MLOAD DUP1 DUP4 SUB DUP2 PUSH1 0x0 DUP8 GAS CALL ISZERO DUP1 ISZERO PUSH2 0x1EFB JUMPI RETURNDATASIZE PUSH1 0x0 DUP1 RETURNDATACOPY RETURNDATASIZE PUSH1 0x0 REVERT JUMPDEST POP POP POP POP PUSH1 0x40 MLOAD RETURNDATASIZE PUSH1 0x1F NOT PUSH1 0x1F DUP3 ADD AND DUP3 ADD DUP1 PUSH1 0x40 MSTORE POP DUP2 ADD SWAP1 PUSH2 0x1F1F SWAP2 SWAP1 PUSH2 0x2D13 JUMP JUMPDEST DUP5 DUP5 PUSH2 0x2134 JUMP JUMPDEST POP POP PUSH1 0x0 PUSH1 0xB PUSH1 0x0 PUSH2 0x100 EXP DUP2 SLOAD DUP2 PUSH1 0xFF MUL NOT AND SWAP1 DUP4 ISZERO ISZERO MUL OR SWAP1 SSTORE POP JUMP JUMPDEST PUSH1 0x0 PUSH32 0x8B73C3C69BB8FE3D512ECC4CF759CC79239F7B179B0FFACAA9A75D522B39400F PUSH1 0x0 PUSH1 0x40 MLOAD PUSH2 0x1F77 SWAP2 SWAP1 PUSH2 0x30FD JUMP JUMPDEST PUSH1 0x40 MLOAD DUP1 SWAP2 SUB SWAP1 KECCAK256 PUSH32 0xC89EFDAA54C0F20C7ADF612882DF0950F5A951637E0307CDCB4C672F298B8BC6 CHAINID ADDRESS PUSH1 0x40 MLOAD PUSH1 0x20 ADD PUSH2 0x1FB6 SWAP6 SWAP5 SWAP4 SWAP3 SWAP2 SWAP1 PUSH2 0x3114 JUMP JUMPDEST PUSH1 0x40 MLOAD PUSH1 0x20 DUP2 DUP4 SUB SUB DUP2 MSTORE SWAP1 PUSH1 0x40 MSTORE DUP1 MLOAD SWAP1 PUSH1 0x20 ADD KECCAK256 SWAP1 POP SWAP1 JUMP JUMPDEST PUSH1 0x0 PUSH1 0x3 DUP3 GT ISZERO PUSH2 0x2038 JUMPI DUP2 SWAP1 POP PUSH1 0x0 PUSH1 0x1 PUSH1 0x2 DUP5 PUSH2 0x1FF0 SWAP2 SWAP1 PUSH2 0x2DC9 JUMP JUMPDEST PUSH2 0x1FFA SWAP2 SWAP1 PUSH2 0x3167 JUMP JUMPDEST SWAP1 POP JUMPDEST DUP2 DUP2 LT ISZERO PUSH2 0x2032 JUMPI DUP1 SWAP2 POP PUSH1 0x2 DUP2 DUP3 DUP6 PUSH2 0x2017 SWAP2 SWAP1 PUSH2 0x2DC9 JUMP JUMPDEST PUSH2 0x2021 SWAP2 SWAP1 PUSH2 0x3167 JUMP JUMPDEST PUSH2 0x202B SWAP2 SWAP1 PUSH2 0x2DC9 JUMP JUMPDEST SWAP1 POP PUSH2 0x1FFD JUMP JUMPDEST POP PUSH2 0x2046 JUMP JUMPDEST PUSH1 0x0 DUP3 EQ PUSH2 0x2045 JUMPI PUSH1 0x1 SWAP1 POP JUMPDEST JUMPDEST SWAP2 SWAP1 POP JUMP JUMPDEST DUP1 PUSH1 0x2 PUSH1 0x0 DUP3 DUP3 SLOAD PUSH2 0x205D SWAP2 SWAP1 PUSH2 0x3167 JUMP JUMPDEST SWAP3 POP POP DUP2 SWAP1 SSTORE POP DUP1 PUSH1 0x3 PUSH1 0x0 DUP5 PUSH20 0xFFFFFFFFFFFFFFFFFFFFFFFFFFFFFFFFFFFFFFFF AND PUSH20 0xFFFFFFFFFFFFFFFFFFFFFFFFFFFFFFFFFFFFFFFF AND DUP2 MSTORE PUSH1 0x20 ADD SWAP1 DUP2 MSTORE PUSH1 0x20 ADD PUSH1 0x0 KECCAK256 PUSH1 0x0 DUP3 DUP3 SLOAD ADD SWAP3 POP POP DUP2 SWAP1 SSTORE POP DUP2 PUSH20 0xFFFFFFFFFFFFFFFFFFFFFFFFFFFFFFFFFFFFFFFF AND PUSH1 0x0 PUSH20 0xFFFFFFFFFFFFFFFFFFFFFFFFFFFFFFFFFFFFFFFF AND PUSH32 0xDDF252AD1BE2C89B69C2B068FC378DAA952BA7F163C4A11628F55A4DF523B3EF DUP4 PUSH1 0x40 MLOAD PUSH2 0x210F SWAP2 SWAP1 PUSH2 0x28EC JUMP JUMPDEST PUSH1 0x40 MLOAD DUP1 SWAP2 SUB SWAP1 LOG3 POP POP JUMP JUMPDEST PUSH1 0x0 DUP2 DUP4 LT PUSH2 0x212A JUMPI DUP2 PUSH2 0x212C JUMP JUMPDEST DUP3 JUMPDEST SWAP1 POP SWAP3 SWAP2 POP POP JUMP JUMPDEST PUSH14 0xFFFFFFFFFFFFFFFFFFFFFFFFFFFF DUP1 AND DUP5 GT DUP1 PUSH2 0x2161 JUMPI POP PUSH14 0xFFFFFFFFFFFFFFFFFFFFFFFFFFFF DUP1 AND DUP4 GT JUMPDEST ISZERO PUSH2 0x2198 JUMPI PUSH1 0x40 MLOAD PUSH32 0x89560CA100000000000000000000000000000000000000000000000000000000 DUP2 MSTORE PUSH1 0x4 ADD PUSH1 0x40 MLOAD DUP1 SWAP2 SUB SWAP1 REVERT JUMPDEST PUSH1 0x0 PUSH1 0x8 PUSH1 0x1C SWAP1 SLOAD SWAP1 PUSH2 0x100 EXP SWAP1 DIV PUSH4 0xFFFFFFFF AND TIMESTAMP SUB SWAP1 POP PUSH1 0x0 DUP2 PUSH4 0xFFFFFFFF AND GT DUP1 ISZERO PUSH2 0x21D7 JUMPI POP PUSH1 0x0 DUP4 PUSH14 0xFFFFFFFFFFFFFFFFFFFFFFFFFFFF AND GT JUMPDEST DUP1 ISZERO PUSH2 0x21F3 JUMPI POP PUSH1 0x0 DUP3 PUSH14 0xFFFFFFFFFFFFFFFFFFFFFFFFFFFF AND GT JUMPDEST ISZERO PUSH2 0x22D5 JUMPI DUP1 PUSH4 0xFFFFFFFF AND PUSH2 0x2238 DUP5 PUSH2 0x220C DUP6 PUSH2 0x2610 JUMP JUMPDEST PUSH28 0xFFFFFFFFFFFFFFFFFFFFFFFFFFFFFFFFFFFFFFFFFFFFFFFFFFFFFFFF AND PUSH2 0x2644 SWAP1 SWAP2 SWAP1 PUSH4 0xFFFFFFFF AND JUMP JUMPDEST PUSH28 0xFFFFFFFFFFFFFFFFFFFFFFFFFFFFFFFFFFFFFFFFFFFFFFFFFFFFFFFF AND MUL PUSH1 0x9 PUSH1 0x0 DUP3 DUP3 SLOAD ADD SWAP3 POP POP DUP2 SWAP1 SSTORE POP DUP1 PUSH4 0xFFFFFFFF AND PUSH2 0x22A6 DUP4 PUSH2 0x227A DUP7 PUSH2 0x2610 JUMP JUMPDEST PUSH28 0xFFFFFFFFFFFFFFFFFFFFFFFFFFFFFFFFFFFFFFFFFFFFFFFFFFFFFFFF AND PUSH2 0x2644 SWAP1 SWAP2 SWAP1 PUSH4 0xFFFFFFFF AND JUMP JUMPDEST PUSH28 0xFFFFFFFFFFFFFFFFFFFFFFFFFFFFFFFFFFFFFFFFFFFFFFFFFFFFFFFF AND MUL PUSH1 0xA PUSH1 0x0 DUP3 DUP3 SLOAD ADD SWAP3 POP POP DUP2 SWAP1 SSTORE POP JUMPDEST POP DUP4 PUSH1 0x8 PUSH1 0x0 PUSH2 0x100 EXP DUP2 SLOAD DUP2 PUSH14 0xFFFFFFFFFFFFFFFFFFFFFFFFFFFF MUL NOT AND SWAP1 DUP4 PUSH14 0xFFFFFFFFFFFFFFFFFFFFFFFFFFFF AND MUL OR SWAP1 SSTORE POP DUP3 PUSH1 0x8 PUSH1 0xE PUSH2 0x100 EXP DUP2 SLOAD DUP2 PUSH14 0xFFFFFFFFFFFFFFFFFFFFFFFFFFFF MUL NOT AND SWAP1 DUP4 PUSH14 0xFFFFFFFFFFFFFFFFFFFFFFFFFFFF AND MUL OR SWAP1 SSTORE POP TIMESTAMP PUSH1 0x8 PUSH1 0x1C PUSH2 0x100 EXP DUP2 SLOAD DUP2 PUSH4 0xFFFFFFFF MUL NOT AND SWAP1 DUP4 PUSH4 0xFFFFFFFF AND MUL OR SWAP1 SSTORE POP PUSH32 0xCF2AA50876CDFBB541206F89AF0EE78D44A2ABF8D328E37FA4917F982149848A PUSH1 0x8 PUSH1 0x0 SWAP1 SLOAD SWAP1 PUSH2 0x100 EXP SWAP1 DIV PUSH14 0xFFFFFFFFFFFFFFFFFFFFFFFFFFFF AND PUSH1 0x8 PUSH1 0xE SWAP1 SLOAD SWAP1 PUSH2 0x100 EXP SWAP1 DIV PUSH14 0xFFFFFFFFFFFFFFFFFFFFFFFFFFFF AND PUSH1 0x40 MLOAD PUSH2 0x23CA SWAP3 SWAP2 SWAP1 PUSH2 0x31F8 JUMP JUMPDEST PUSH1 0x40 MLOAD DUP1 SWAP2 SUB SWAP1 LOG1 POP POP POP POP JUMP JUMPDEST PUSH1 0x0 DUP1 DUP5 PUSH20 0xFFFFFFFFFFFFFFFFFFFFFFFFFFFFFFFFFFFFFFFF AND DUP5 DUP5 PUSH1 0x40 MLOAD PUSH1 0x24 ADD PUSH2 0x2405 SWAP3 SWAP2 SWAP1 PUSH2 0x3221 JUMP JUMPDEST PUSH1 0x40 MLOAD PUSH1 0x20 DUP2 DUP4 SUB SUB DUP2 MSTORE SWAP1 PUSH1 0x40 MSTORE PUSH32 0xA9059CBB00000000000000000000000000000000000000000000000000000000 PUSH28 0xFFFFFFFFFFFFFFFFFFFFFFFFFFFFFFFFFFFFFFFFFFFFFFFFFFFFFFFF NOT AND PUSH1 0x20 DUP3 ADD DUP1 MLOAD PUSH28 0xFFFFFFFFFFFFFFFFFFFFFFFFFFFFFFFFFFFFFFFFFFFFFFFFFFFFFFFF DUP4 DUP2 DUP4 AND OR DUP4 MSTORE POP POP POP POP PUSH1 0x40 MLOAD PUSH2 0x248F SWAP2 SWAP1 PUSH2 0x3286 JUMP JUMPDEST PUSH1 0x0 PUSH1 0x40 MLOAD DUP1 DUP4 SUB DUP2 PUSH1 0x0 DUP7 GAS CALL SWAP2 POP POP RETURNDATASIZE DUP1 PUSH1 0x0 DUP2 EQ PUSH2 0x24CC JUMPI PUSH1 0x40 MLOAD SWAP2 POP PUSH1 0x1F NOT PUSH1 0x3F RETURNDATASIZE ADD AND DUP3 ADD PUSH1 0x40 MSTORE RETURNDATASIZE DUP3 MSTORE RETURNDATASIZE PUSH1 0x0 PUSH1 0x20 DUP5 ADD RETURNDATACOPY PUSH2 0x24D1 JUMP JUMPDEST PUSH1 0x60 SWAP2 POP JUMPDEST POP SWAP2 POP SWAP2 POP DUP2 ISZERO DUP1 PUSH2 0x2502 JUMPI POP PUSH1 0x0 DUP2 MLOAD EQ ISZERO DUP1 ISZERO PUSH2 0x2501 JUMPI POP DUP1 DUP1 PUSH1 0x20 ADD SWAP1 MLOAD DUP2 ADD SWAP1 PUSH2 0x24FF SWAP2 SWAP1 PUSH2 0x32C9 JUMP JUMPDEST ISZERO JUMPDEST JUMPDEST ISZERO PUSH2 0x2539 JUMPI PUSH1 0x40 MLOAD PUSH32 0x90B8EC1800000000000000000000000000000000000000000000000000000000 DUP2 MSTORE PUSH1 0x4 ADD PUSH1 0x40 MLOAD DUP1 SWAP2 SUB SWAP1 REVERT JUMPDEST POP POP POP POP POP JUMP JUMPDEST DUP1 PUSH1 0x3 PUSH1 0x0 DUP5 PUSH20 0xFFFFFFFFFFFFFFFFFFFFFFFFFFFFFFFFFFFFFFFF AND PUSH20 0xFFFFFFFFFFFFFFFFFFFFFFFFFFFFFFFFFFFFFFFF AND DUP2 MSTORE PUSH1 0x20 ADD SWAP1 DUP2 MSTORE PUSH1 0x20 ADD PUSH1 0x0 KECCAK256 PUSH1 0x0 DUP3 DUP3 SLOAD PUSH2 0x258F SWAP2 SWAP1 PUSH2 0x2C38 JUMP JUMPDEST SWAP3 POP POP DUP2 SWAP1 SSTORE POP DUP1 PUSH1 0x2 PUSH1 0x0 DUP3 DUP3 SLOAD SUB SWAP3 POP POP DUP2 SWAP1 SSTORE POP PUSH1 0x0 PUSH20 0xFFFFFFFFFFFFFFFFFFFFFFFFFFFFFFFFFFFFFFFF AND DUP3 PUSH20 0xFFFFFFFFFFFFFFFFFFFFFFFFFFFFFFFFFFFFFFFF AND PUSH32 0xDDF252AD1BE2C89B69C2B068FC378DAA952BA7F163C4A11628F55A4DF523B3EF DUP4 PUSH1 0x40 MLOAD PUSH2 0x2604 SWAP2 SWAP1 PUSH2 0x28EC JUMP JUMPDEST PUSH1 0x40 MLOAD DUP1 SWAP2 SUB SWAP1 LOG3 POP POP JUMP JUMPDEST PUSH1 0x0 PUSH15 0x10000000000000000000000000000 DUP3 PUSH14 0xFFFFFFFFFFFFFFFFFFFFFFFFFFFF AND PUSH2 0x263D SWAP2 SWAP1 PUSH2 0x331E JUMP JUMPDEST SWAP1 POP SWAP2 SWAP1 POP JUMP JUMPDEST PUSH1 0x0 DUP2 PUSH14 0xFFFFFFFFFFFFFFFFFFFFFFFFFFFF AND DUP4 PUSH2 0x2662 SWAP2 SWAP1 PUSH2 0x3374 JUMP JUMPDEST SWAP1 POP SWAP3 SWAP2 POP POP JUMP JUMPDEST PUSH1 0x0 DUP2 MLOAD SWAP1 POP SWAP2 SWAP1 POP JUMP JUMPDEST PUSH1 0x0 DUP3 DUP3 MSTORE PUSH1 0x20 DUP3 ADD SWAP1 POP SWAP3 SWAP2 POP POP JUMP JUMPDEST PUSH1 0x0 JUMPDEST DUP4 DUP2 LT ISZERO PUSH2 0x26A4 JUMPI DUP1 DUP3 ADD MLOAD DUP2 DUP5 ADD MSTORE PUSH1 0x20 DUP2 ADD SWAP1 POP PUSH2 0x2689 JUMP JUMPDEST DUP4 DUP2 GT ISZERO PUSH2 0x26B3 JUMPI PUSH1 0x0 DUP5 DUP5 ADD MSTORE JUMPDEST POP POP POP POP JUMP JUMPDEST PUSH1 0x0 PUSH1 0x1F NOT PUSH1 0x1F DUP4 ADD AND SWAP1 POP SWAP2 SWAP1 POP JUMP JUMPDEST PUSH1 0x0 PUSH2 0x26D5 DUP3 PUSH2 0x266A JUMP JUMPDEST PUSH2 0x26DF DUP2 DUP6 PUSH2 0x2675 JUMP JUMPDEST SWAP4 POP PUSH2 0x26EF DUP2 DUP6 PUSH1 0x20 DUP7 ADD PUSH2 0x2686 JUMP JUMPDEST PUSH2 0x26F8 DUP2 PUSH2 0x26B9 JUMP JUMPDEST DUP5 ADD SWAP2 POP POP SWAP3 SWAP2 POP POP JUMP JUMPDEST PUSH1 0x0 PUSH1 0x20 DUP3 ADD SWAP1 POP DUP2 DUP2 SUB PUSH1 0x0 DUP4 ADD MSTORE PUSH2 0x271D DUP2 DUP5 PUSH2 0x26CA JUMP JUMPDEST SWAP1 POP SWAP3 SWAP2 POP POP JUMP JUMPDEST PUSH1 0x0 PUSH14 0xFFFFFFFFFFFFFFFFFFFFFFFFFFFF DUP3 AND SWAP1 POP SWAP2 SWAP1 POP JUMP JUMPDEST PUSH2 0x2748 DUP2 PUSH2 0x2725 JUMP JUMPDEST DUP3 MSTORE POP POP JUMP JUMPDEST PUSH1 0x0 PUSH4 0xFFFFFFFF DUP3 AND SWAP1 POP SWAP2 SWAP1 POP JUMP JUMPDEST PUSH2 0x2767 DUP2 PUSH2 0x274E JUMP JUMPDEST DUP3 MSTORE POP POP JUMP JUMPDEST PUSH1 0x0 PUSH1 0x60 DUP3 ADD SWAP1 POP PUSH2 0x2782 PUSH1 0x0 DUP4 ADD DUP7 PUSH2 0x273F JUMP JUMPDEST PUSH2 0x278F PUSH1 0x20 DUP4 ADD DUP6 PUSH2 0x273F JUMP JUMPDEST PUSH2 0x279C PUSH1 0x40 DUP4 ADD DUP5 PUSH2 0x275E JUMP JUMPDEST SWAP5 SWAP4 POP POP POP POP JUMP JUMPDEST PUSH1 0x0 DUP1 REVERT JUMPDEST PUSH1 0x0 PUSH20 0xFFFFFFFFFFFFFFFFFFFFFFFFFFFFFFFFFFFFFFFF DUP3 AND SWAP1 POP SWAP2 SWAP1 POP JUMP JUMPDEST PUSH1 0x0 PUSH2 0x27D4 DUP3 PUSH2 0x27A9 JUMP JUMPDEST SWAP1 POP SWAP2 SWAP1 POP JUMP JUMPDEST PUSH2 0x27E4 DUP2 PUSH2 0x27C9 JUMP JUMPDEST DUP2 EQ PUSH2 0x27EF JUMPI PUSH1 0x0 DUP1 REVERT JUMPDEST POP JUMP JUMPDEST PUSH1 0x0 DUP2 CALLDATALOAD SWAP1 POP PUSH2 0x2801 DUP2 PUSH2 0x27DB JUMP JUMPDEST SWAP3 SWAP2 POP POP JUMP JUMPDEST PUSH1 0x0 DUP2 SWAP1 POP SWAP2 SWAP1 POP JUMP JUMPDEST PUSH2 0x281A DUP2 PUSH2 0x2807 JUMP JUMPDEST DUP2 EQ PUSH2 0x2825 JUMPI PUSH1 0x0 DUP1 REVERT JUMPDEST POP JUMP JUMPDEST PUSH1 0x0 DUP2 CALLDATALOAD SWAP1 POP PUSH2 0x2837 DUP2 PUSH2 0x2811 JUMP JUMPDEST SWAP3 SWAP2 POP POP JUMP JUMPDEST PUSH1 0x0 DUP1 PUSH1 0x40 DUP4 DUP6 SUB SLT ISZERO PUSH2 0x2854 JUMPI PUSH2 0x2853 PUSH2 0x27A4 JUMP JUMPDEST JUMPDEST PUSH1 0x0 PUSH2 0x2862 DUP6 DUP3 DUP7 ADD PUSH2 0x27F2 JUMP JUMPDEST SWAP3 POP POP PUSH1 0x20 PUSH2 0x2873 DUP6 DUP3 DUP7 ADD PUSH2 0x2828 JUMP JUMPDEST SWAP2 POP POP SWAP3 POP SWAP3 SWAP1 POP JUMP JUMPDEST PUSH1 0x0 DUP2 ISZERO ISZERO SWAP1 POP SWAP2 SWAP1 POP JUMP JUMPDEST PUSH2 0x2892 DUP2 PUSH2 0x287D JUMP JUMPDEST DUP3 MSTORE POP POP JUMP JUMPDEST PUSH1 0x0 PUSH1 0x20 DUP3 ADD SWAP1 POP PUSH2 0x28AD PUSH1 0x0 DUP4 ADD DUP5 PUSH2 0x2889 JUMP JUMPDEST SWAP3 SWAP2 POP POP JUMP JUMPDEST PUSH2 0x28BC DUP2 PUSH2 0x27C9 JUMP JUMPDEST DUP3 MSTORE POP POP JUMP JUMPDEST PUSH1 0x0 PUSH1 0x20 DUP3 ADD SWAP1 POP PUSH2 0x28D7 PUSH1 0x0 DUP4 ADD DUP5 PUSH2 0x28B3 JUMP JUMPDEST SWAP3 SWAP2 POP POP JUMP JUMPDEST PUSH2 0x28E6 DUP2 PUSH2 0x2807 JUMP JUMPDEST DUP3 MSTORE POP POP JUMP JUMPDEST PUSH1 0x0 PUSH1 0x20 DUP3 ADD SWAP1 POP PUSH2 0x2901 PUSH1 0x0 DUP4 ADD DUP5 PUSH2 0x28DD JUMP JUMPDEST SWAP3 SWAP2 POP POP JUMP JUMPDEST PUSH1 0x0 DUP1 PUSH1 0x0 PUSH1 0x60 DUP5 DUP7 SUB SLT ISZERO PUSH2 0x2920 JUMPI PUSH2 0x291F PUSH2 0x27A4 JUMP JUMPDEST JUMPDEST PUSH1 0x0 PUSH2 0x292E DUP7 DUP3 DUP8 ADD PUSH2 0x27F2 JUMP JUMPDEST SWAP4 POP POP PUSH1 0x20 PUSH2 0x293F DUP7 DUP3 DUP8 ADD PUSH2 0x27F2 JUMP JUMPDEST SWAP3 POP POP PUSH1 0x40 PUSH2 0x2950 DUP7 DUP3 DUP8 ADD PUSH2 0x2828 JUMP JUMPDEST SWAP2 POP POP SWAP3 POP SWAP3 POP SWAP3 JUMP JUMPDEST PUSH1 0x0 PUSH1 0xFF DUP3 AND SWAP1 POP SWAP2 SWAP1 POP JUMP JUMPDEST PUSH2 0x2970 DUP2 PUSH2 0x295A JUMP JUMPDEST DUP3 MSTORE POP POP JUMP JUMPDEST PUSH1 0x0 PUSH1 0x20 DUP3 ADD SWAP1 POP PUSH2 0x298B PUSH1 0x0 DUP4 ADD DUP5 PUSH2 0x2967 JUMP JUMPDEST SWAP3 SWAP2 POP POP JUMP JUMPDEST PUSH1 0x0 DUP2 SWAP1 POP SWAP2 SWAP1 POP JUMP JUMPDEST PUSH2 0x29A4 DUP2 PUSH2 0x2991 JUMP JUMPDEST DUP3 MSTORE POP POP JUMP JUMPDEST PUSH1 0x0 PUSH1 0x20 DUP3 ADD SWAP1 POP PUSH2 0x29BF PUSH1 0x0 DUP4 ADD DUP5 PUSH2 0x299B JUMP JUMPDEST SWAP3 SWAP2 POP POP JUMP JUMPDEST PUSH1 0x0 DUP1 PUSH1 0x40 DUP4 DUP6 SUB SLT ISZERO PUSH2 0x29DC JUMPI PUSH2 0x29DB PUSH2 0x27A4 JUMP JUMPDEST JUMPDEST PUSH1 0x0 PUSH2 0x29EA DUP6 DUP3 DUP7 ADD PUSH2 0x27F2 JUMP JUMPDEST SWAP3 POP POP PUSH1 0x20 PUSH2 0x29FB DUP6 DUP3 DUP7 ADD PUSH2 0x27F2 JUMP JUMPDEST SWAP2 POP POP SWAP3 POP SWAP3 SWAP1 POP JUMP JUMPDEST PUSH1 0x0 PUSH1 0x20 DUP3 DUP5 SUB SLT ISZERO PUSH2 0x2A1B JUMPI PUSH2 0x2A1A PUSH2 0x27A4 JUMP JUMPDEST JUMPDEST PUSH1 0x0 PUSH2 0x2A29 DUP5 DUP3 DUP6 ADD PUSH2 0x27F2 JUMP JUMPDEST SWAP2 POP POP SWAP3 SWAP2 POP POP JUMP JUMPDEST PUSH1 0x0 DUP1 PUSH1 0x0 PUSH1 0x60 DUP5 DUP7 SUB SLT ISZERO PUSH2 0x2A4B JUMPI PUSH2 0x2A4A PUSH2 0x27A4 JUMP JUMPDEST JUMPDEST PUSH1 0x0 PUSH2 0x2A59 DUP7 DUP3 DUP8 ADD PUSH2 0x2828 JUMP JUMPDEST SWAP4 POP POP PUSH1 0x20 PUSH2 0x2A6A DUP7 DUP3 DUP8 ADD PUSH2 0x2828 JUMP JUMPDEST SWAP3 POP POP PUSH1 0x40 PUSH2 0x2A7B DUP7 DUP3 DUP8 ADD PUSH2 0x27F2 JUMP JUMPDEST SWAP2 POP POP SWAP3 POP SWAP3 POP SWAP3 JUMP JUMPDEST PUSH1 0x0 PUSH1 0x40 DUP3 ADD SWAP1 POP PUSH2 0x2A9A PUSH1 0x0 DUP4 ADD DUP6 PUSH2 0x28DD JUMP JUMPDEST PUSH2 0x2AA7 PUSH1 0x20 DUP4 ADD DUP5 PUSH2 0x28DD JUMP JUMPDEST SWAP4 SWAP3 POP POP POP JUMP JUMPDEST PUSH2 0x2AB7 DUP2 PUSH2 0x295A JUMP JUMPDEST DUP2 EQ PUSH2 0x2AC2 JUMPI PUSH1 0x0 DUP1 REVERT JUMPDEST POP JUMP JUMPDEST PUSH1 0x0 DUP2 CALLDATALOAD SWAP1 POP PUSH2 0x2AD4 DUP2 PUSH2 0x2AAE JUMP JUMPDEST SWAP3 SWAP2 POP POP JUMP JUMPDEST PUSH2 0x2AE3 DUP2 PUSH2 0x2991 JUMP JUMPDEST DUP2 EQ PUSH2 0x2AEE JUMPI PUSH1 0x0 DUP1 REVERT JUMPDEST POP JUMP JUMPDEST PUSH1 0x0 DUP2 CALLDATALOAD SWAP1 POP PUSH2 0x2B00 DUP2 PUSH2 0x2ADA JUMP JUMPDEST SWAP3 SWAP2 POP POP JUMP JUMPDEST PUSH1 0x0 DUP1 PUSH1 0x0 DUP1 PUSH1 0x0 DUP1 PUSH1 0x0 PUSH1 0xE0 DUP9 DUP11 SUB SLT ISZERO PUSH2 0x2B25 JUMPI PUSH2 0x2B24 PUSH2 0x27A4 JUMP JUMPDEST JUMPDEST PUSH1 0x0 PUSH2 0x2B33 DUP11 DUP3 DUP12 ADD PUSH2 0x27F2 JUMP JUMPDEST SWAP8 POP POP PUSH1 0x20 PUSH2 0x2B44 DUP11 DUP3 DUP12 ADD PUSH2 0x27F2 JUMP JUMPDEST SWAP7 POP POP PUSH1 0x40 PUSH2 0x2B55 DUP11 DUP3 DUP12 ADD PUSH2 0x2828 JUMP JUMPDEST SWAP6 POP POP PUSH1 0x60 PUSH2 0x2B66 DUP11 DUP3 DUP12 ADD PUSH2 0x2828 JUMP JUMPDEST SWAP5 POP POP PUSH1 0x80 PUSH2 0x2B77 DUP11 DUP3 DUP12 ADD PUSH2 0x2AC5 JUMP JUMPDEST SWAP4 POP POP PUSH1 0xA0 PUSH2 0x2B88 DUP11 DUP3 DUP12 ADD PUSH2 0x2AF1 JUMP JUMPDEST SWAP3 POP POP PUSH1 0xC0 PUSH2 0x2B99 DUP11 DUP3 DUP12 ADD PUSH2 0x2AF1 JUMP JUMPDEST SWAP2 POP POP SWAP3 SWAP6 SWAP9 SWAP2 SWAP5 SWAP8 POP SWAP3 SWAP6 POP JUMP JUMPDEST PUSH32 0x4E487B7100000000000000000000000000000000000000000000000000000000 PUSH1 0x0 MSTORE PUSH1 0x22 PUSH1 0x4 MSTORE PUSH1 0x24 PUSH1 0x0 REVERT JUMPDEST PUSH1 0x0 PUSH1 0x2 DUP3 DIV SWAP1 POP PUSH1 0x1 DUP3 AND DUP1 PUSH2 0x2BEF JUMPI PUSH1 0x7F DUP3 AND SWAP2 POP JUMPDEST PUSH1 0x20 DUP3 LT DUP2 EQ ISZERO PUSH2 0x2C03 JUMPI PUSH2 0x2C02 PUSH2 0x2BA8 JUMP JUMPDEST JUMPDEST POP SWAP2 SWAP1 POP JUMP JUMPDEST PUSH32 0x4E487B7100000000000000000000000000000000000000000000000000000000 PUSH1 0x0 MSTORE PUSH1 0x11 PUSH1 0x4 MSTORE PUSH1 0x24 PUSH1 0x0 REVERT JUMPDEST PUSH1 0x0 PUSH2 0x2C43 DUP3 PUSH2 0x2807 JUMP JUMPDEST SWAP2 POP PUSH2 0x2C4E DUP4 PUSH2 0x2807 JUMP JUMPDEST SWAP3 POP DUP3 DUP3 LT ISZERO PUSH2 0x2C61 JUMPI PUSH2 0x2C60 PUSH2 0x2C09 JUMP JUMPDEST JUMPDEST DUP3 DUP3 SUB SWAP1 POP SWAP3 SWAP2 POP POP JUMP JUMPDEST PUSH32 0x4B616A75737761703A20596F752063616E6E6F7420456E74657220696E207468 PUSH1 0x0 DUP3 ADD MSTORE PUSH32 0x6520636F6E747261637400000000000000000000000000000000000000000000 PUSH1 0x20 DUP3 ADD MSTORE POP JUMP JUMPDEST PUSH1 0x0 PUSH2 0x2CC8 PUSH1 0x2A DUP4 PUSH2 0x2675 JUMP JUMPDEST SWAP2 POP PUSH2 0x2CD3 DUP3 PUSH2 0x2C6C JUMP JUMPDEST PUSH1 0x40 DUP3 ADD SWAP1 POP SWAP2 SWAP1 POP JUMP JUMPDEST PUSH1 0x0 PUSH1 0x20 DUP3 ADD SWAP1 POP DUP2 DUP2 SUB PUSH1 0x0 DUP4 ADD MSTORE PUSH2 0x2CF7 DUP2 PUSH2 0x2CBB JUMP JUMPDEST SWAP1 POP SWAP2 SWAP1 POP JUMP JUMPDEST PUSH1 0x0 DUP2 MLOAD SWAP1 POP PUSH2 0x2D0D DUP2 PUSH2 0x2811 JUMP JUMPDEST SWAP3 SWAP2 POP POP JUMP JUMPDEST PUSH1 0x0 PUSH1 0x20 DUP3 DUP5 SUB SLT ISZERO PUSH2 0x2D29 JUMPI PUSH2 0x2D28 PUSH2 0x27A4 JUMP JUMPDEST JUMPDEST PUSH1 0x0 PUSH2 0x2D37 DUP5 DUP3 DUP6 ADD PUSH2 0x2CFE JUMP JUMPDEST SWAP2 POP POP SWAP3 SWAP2 POP POP JUMP JUMPDEST PUSH1 0x0 PUSH2 0x2D4B DUP3 PUSH2 0x2807 JUMP JUMPDEST SWAP2 POP PUSH2 0x2D56 DUP4 PUSH2 0x2807 JUMP JUMPDEST SWAP3 POP DUP2 PUSH32 0xFFFFFFFFFFFFFFFFFFFFFFFFFFFFFFFFFFFFFFFFFFFFFFFFFFFFFFFFFFFFFFFF DIV DUP4 GT DUP3 ISZERO ISZERO AND ISZERO PUSH2 0x2D8F JUMPI PUSH2 0x2D8E PUSH2 0x2C09 JUMP JUMPDEST JUMPDEST DUP3 DUP3 MUL SWAP1 POP SWAP3 SWAP2 POP POP JUMP JUMPDEST PUSH32 0x4E487B7100000000000000000000000000000000000000000000000000000000 PUSH1 0x0 MSTORE PUSH1 0x12 PUSH1 0x4 MSTORE PUSH1 0x24 PUSH1 0x0 REVERT JUMPDEST PUSH1 0x0 PUSH2 0x2DD4 DUP3 PUSH2 0x2807 JUMP JUMPDEST SWAP2 POP PUSH2 0x2DDF DUP4 PUSH2 0x2807 JUMP JUMPDEST SWAP3 POP DUP3 PUSH2 0x2DEF JUMPI PUSH2 0x2DEE PUSH2 0x2D9A JUMP JUMPDEST JUMPDEST DUP3 DUP3 DIV SWAP1 POP SWAP3 SWAP2 POP POP JUMP JUMPDEST PUSH1 0x0 PUSH1 0x60 DUP3 ADD SWAP1 POP PUSH2 0x2E0F PUSH1 0x0 DUP4 ADD DUP7 PUSH2 0x28DD JUMP JUMPDEST PUSH2 0x2E1C PUSH1 0x20 DUP4 ADD DUP6 PUSH2 0x28DD JUMP JUMPDEST PUSH2 0x2E29 PUSH1 0x40 DUP4 ADD DUP5 PUSH2 0x28B3 JUMP JUMPDEST SWAP5 SWAP4 POP POP POP POP JUMP JUMPDEST PUSH32 0x5045524D49545F444541444C494E455F45585049524544000000000000000000 PUSH1 0x0 DUP3 ADD MSTORE POP JUMP JUMPDEST PUSH1 0x0 PUSH2 0x2E67 PUSH1 0x17 DUP4 PUSH2 0x2675 JUMP JUMPDEST SWAP2 POP PUSH2 0x2E72 DUP3 PUSH2 0x2E31 JUMP JUMPDEST PUSH1 0x20 DUP3 ADD SWAP1 POP SWAP2 SWAP1 POP JUMP JUMPDEST PUSH1 0x0 PUSH1 0x20 DUP3 ADD SWAP1 POP DUP2 DUP2 SUB PUSH1 0x0 DUP4 ADD MSTORE PUSH2 0x2E96 DUP2 PUSH2 0x2E5A JUMP JUMPDEST SWAP1 POP SWAP2 SWAP1 POP JUMP JUMPDEST PUSH1 0x0 PUSH1 0xC0 DUP3 ADD SWAP1 POP PUSH2 0x2EB2 PUSH1 0x0 DUP4 ADD DUP10 PUSH2 0x299B JUMP JUMPDEST PUSH2 0x2EBF PUSH1 0x20 DUP4 ADD DUP9 PUSH2 0x28B3 JUMP JUMPDEST PUSH2 0x2ECC PUSH1 0x40 DUP4 ADD DUP8 PUSH2 0x28B3 JUMP JUMPDEST PUSH2 0x2ED9 PUSH1 0x60 DUP4 ADD DUP7 PUSH2 0x28DD JUMP JUMPDEST PUSH2 0x2EE6 PUSH1 0x80 DUP4 ADD DUP6 PUSH2 0x28DD JUMP JUMPDEST PUSH2 0x2EF3 PUSH1 0xA0 DUP4 ADD DUP5 PUSH2 0x28DD JUMP JUMPDEST SWAP8 SWAP7 POP POP POP POP POP POP POP JUMP JUMPDEST PUSH1 0x0 DUP2 SWAP1 POP SWAP3 SWAP2 POP POP JUMP JUMPDEST PUSH32 0x1901000000000000000000000000000000000000000000000000000000000000 PUSH1 0x0 DUP3 ADD MSTORE POP JUMP JUMPDEST PUSH1 0x0 PUSH2 0x2F3F PUSH1 0x2 DUP4 PUSH2 0x2EFE JUMP JUMPDEST SWAP2 POP PUSH2 0x2F4A DUP3 PUSH2 0x2F09 JUMP JUMPDEST PUSH1 0x2 DUP3 ADD SWAP1 POP SWAP2 SWAP1 POP JUMP JUMPDEST PUSH1 0x0 DUP2 SWAP1 POP SWAP2 SWAP1 POP JUMP JUMPDEST PUSH2 0x2F70 PUSH2 0x2F6B DUP3 PUSH2 0x2991 JUMP JUMPDEST PUSH2 0x2F55 JUMP JUMPDEST DUP3 MSTORE POP POP JUMP JUMPDEST PUSH1 0x0 PUSH2 0x2F81 DUP3 PUSH2 0x2F32 JUMP JUMPDEST SWAP2 POP PUSH2 0x2F8D DUP3 DUP6 PUSH2 0x2F5F JUMP JUMPDEST PUSH1 0x20 DUP3 ADD SWAP2 POP PUSH2 0x2F9D DUP3 DUP5 PUSH2 0x2F5F JUMP JUMPDEST PUSH1 0x20 DUP3 ADD SWAP2 POP DUP2 SWAP1 POP SWAP4 SWAP3 POP POP POP JUMP JUMPDEST PUSH1 0x0 PUSH1 0x80 DUP3 ADD SWAP1 POP PUSH2 0x2FC2 PUSH1 0x0 DUP4 ADD DUP8 PUSH2 0x299B JUMP JUMPDEST PUSH2 0x2FCF PUSH1 0x20 DUP4 ADD DUP7 PUSH2 0x2967 JUMP JUMPDEST PUSH2 0x2FDC PUSH1 0x40 DUP4 ADD DUP6 PUSH2 0x299B JUMP JUMPDEST PUSH2 0x2FE9 PUSH1 0x60 DUP4 ADD DUP5 PUSH2 0x299B JUMP JUMPDEST SWAP6 SWAP5 POP POP POP POP POP JUMP JUMPDEST PUSH32 0x494E56414C49445F5349474E4552000000000000000000000000000000000000 PUSH1 0x0 DUP3 ADD MSTORE POP JUMP JUMPDEST PUSH1 0x0 PUSH2 0x3028 PUSH1 0xE DUP4 PUSH2 0x2675 JUMP JUMPDEST SWAP2 POP PUSH2 0x3033 DUP3 PUSH2 0x2FF2 JUMP JUMPDEST PUSH1 0x20 DUP3 ADD SWAP1 POP SWAP2 SWAP1 POP JUMP JUMPDEST PUSH1 0x0 PUSH1 0x20 DUP3 ADD SWAP1 POP DUP2 DUP2 SUB PUSH1 0x0 DUP4 ADD MSTORE PUSH2 0x3057 DUP2 PUSH2 0x301B JUMP JUMPDEST SWAP1 POP SWAP2 SWAP1 POP JUMP JUMPDEST PUSH1 0x0 DUP2 SWAP1 POP SWAP3 SWAP2 POP POP JUMP JUMPDEST PUSH1 0x0 DUP2 SWAP1 POP DUP2 PUSH1 0x0 MSTORE PUSH1 0x20 PUSH1 0x0 KECCAK256 SWAP1 POP SWAP2 SWAP1 POP JUMP JUMPDEST PUSH1 0x0 DUP2 SLOAD PUSH2 0x308B DUP2 PUSH2 0x2BD7 JUMP JUMPDEST PUSH2 0x3095 DUP2 DUP7 PUSH2 0x305E JUMP JUMPDEST SWAP5 POP PUSH1 0x1 DUP3 AND PUSH1 0x0 DUP2 EQ PUSH2 0x30B0 JUMPI PUSH1 0x1 DUP2 EQ PUSH2 0x30C1 JUMPI PUSH2 0x30F4 JUMP JUMPDEST PUSH1 0xFF NOT DUP4 AND DUP7 MSTORE DUP2 DUP7 ADD SWAP4 POP PUSH2 0x30F4 JUMP JUMPDEST PUSH2 0x30CA DUP6 PUSH2 0x3069 JUMP JUMPDEST PUSH1 0x0 JUMPDEST DUP4 DUP2 LT ISZERO PUSH2 0x30EC JUMPI DUP2 SLOAD DUP2 DUP10 ADD MSTORE PUSH1 0x1 DUP3 ADD SWAP2 POP PUSH1 0x20 DUP2 ADD SWAP1 POP PUSH2 0x30CD JUMP JUMPDEST DUP4 DUP9 ADD SWAP6 POP POP POP JUMPDEST POP POP POP SWAP3 SWAP2 POP POP JUMP JUMPDEST PUSH1 0x0 PUSH2 0x3109 DUP3 DUP5 PUSH2 0x307E JUMP JUMPDEST SWAP2 POP DUP2 SWAP1 POP SWAP3 SWAP2 POP POP JUMP JUMPDEST PUSH1 0x0 PUSH1 0xA0 DUP3 ADD SWAP1 POP PUSH2 0x3129 PUSH1 0x0 DUP4 ADD DUP9 PUSH2 0x299B JUMP JUMPDEST PUSH2 0x3136 PUSH1 0x20 DUP4 ADD DUP8 PUSH2 0x299B JUMP JUMPDEST PUSH2 0x3143 PUSH1 0x40 DUP4 ADD DUP7 PUSH2 0x299B JUMP JUMPDEST PUSH2 0x3150 PUSH1 0x60 DUP4 ADD DUP6 PUSH2 0x28DD JUMP JUMPDEST PUSH2 0x315D PUSH1 0x80 DUP4 ADD DUP5 PUSH2 0x28B3 JUMP JUMPDEST SWAP7 SWAP6 POP POP POP POP POP POP JUMP JUMPDEST PUSH1 0x0 PUSH2 0x3172 DUP3 PUSH2 0x2807 JUMP JUMPDEST SWAP2 POP PUSH2 0x317D DUP4 PUSH2 0x2807 JUMP JUMPDEST SWAP3 POP DUP3 PUSH32 0xFFFFFFFFFFFFFFFFFFFFFFFFFFFFFFFFFFFFFFFFFFFFFFFFFFFFFFFFFFFFFFFF SUB DUP3 GT ISZERO PUSH2 0x31B2 JUMPI PUSH2 0x31B1 PUSH2 0x2C09 JUMP JUMPDEST JUMPDEST DUP3 DUP3 ADD SWAP1 POP SWAP3 SWAP2 POP POP JUMP JUMPDEST PUSH1 0x0 DUP2 SWAP1 POP SWAP2 SWAP1 POP JUMP JUMPDEST PUSH1 0x0 PUSH2 0x31E2 PUSH2 0x31DD PUSH2 0x31D8 DUP5 PUSH2 0x2725 JUMP JUMPDEST PUSH2 0x31BD JUMP JUMPDEST PUSH2 0x2807 JUMP JUMPDEST SWAP1 POP SWAP2 SWAP1 POP JUMP JUMPDEST PUSH2 0x31F2 DUP2 PUSH2 0x31C7 JUMP JUMPDEST DUP3 MSTORE POP POP JUMP JUMPDEST PUSH1 0x0 PUSH1 0x40 DUP3 ADD SWAP1 POP PUSH2 0x320D PUSH1 0x0 DUP4 ADD DUP6 PUSH2 0x31E9 JUMP JUMPDEST PUSH2 0x321A PUSH1 0x20 DUP4 ADD DUP5 PUSH2 0x31E9 JUMP JUMPDEST SWAP4 SWAP3 POP POP POP JUMP JUMPDEST PUSH1 0x0 PUSH1 0x40 DUP3 ADD SWAP1 POP PUSH2 0x3236 PUSH1 0x0 DUP4 ADD DUP6 PUSH2 0x28B3 JUMP JUMPDEST PUSH2 0x3243 PUSH1 0x20 DUP4 ADD DUP5 PUSH2 0x28DD JUMP JUMPDEST SWAP4 SWAP3 POP POP POP JUMP JUMPDEST PUSH1 0x0 DUP2 MLOAD SWAP1 POP SWAP2 SWAP1 POP JUMP JUMPDEST PUSH1 0x0 PUSH2 0x3260 DUP3 PUSH2 0x324A JUMP JUMPDEST PUSH2 0x326A DUP2 DUP6 PUSH2 0x305E JUMP JUMPDEST SWAP4 POP PUSH2 0x327A DUP2 DUP6 PUSH1 0x20 DUP7 ADD PUSH2 0x2686 JUMP JUMPDEST DUP1 DUP5 ADD SWAP2 POP POP SWAP3 SWAP2 POP POP JUMP JUMPDEST PUSH1 0x0 PUSH2 0x3292 DUP3 DUP5 PUSH2 0x3255 JUMP JUMPDEST SWAP2 POP DUP2 SWAP1 POP SWAP3 SWAP2 POP POP JUMP JUMPDEST PUSH2 0x32A6 DUP2 PUSH2 0x287D JUMP JUMPDEST DUP2 EQ PUSH2 0x32B1 JUMPI PUSH1 0x0 DUP1 REVERT JUMPDEST POP JUMP JUMPDEST PUSH1 0x0 DUP2 MLOAD SWAP1 POP PUSH2 0x32C3 DUP2 PUSH2 0x329D JUMP JUMPDEST SWAP3 SWAP2 POP POP JUMP JUMPDEST PUSH1 0x0 PUSH1 0x20 DUP3 DUP5 SUB SLT ISZERO PUSH2 0x32DF JUMPI PUSH2 0x32DE PUSH2 0x27A4 JUMP JUMPDEST JUMPDEST PUSH1 0x0 PUSH2 0x32ED DUP5 DUP3 DUP6 ADD PUSH2 0x32B4 JUMP JUMPDEST SWAP2 POP POP SWAP3 SWAP2 POP POP JUMP JUMPDEST PUSH1 0x0 PUSH28 0xFFFFFFFFFFFFFFFFFFFFFFFFFFFFFFFFFFFFFFFFFFFFFFFFFFFFFFFF DUP3 AND SWAP1 POP SWAP2 SWAP1 POP JUMP JUMPDEST PUSH1 0x0 PUSH2 0x3329 DUP3 PUSH2 0x32F6 JUMP JUMPDEST SWAP2 POP PUSH2 0x3334 DUP4 PUSH2 0x32F6 JUMP JUMPDEST SWAP3 POP DUP2 PUSH28 0xFFFFFFFFFFFFFFFFFFFFFFFFFFFFFFFFFFFFFFFFFFFFFFFFFFFFFFFF DIV DUP4 GT DUP3 ISZERO ISZERO AND ISZERO PUSH2 0x3369 JUMPI PUSH2 0x3368 PUSH2 0x2C09 JUMP JUMPDEST JUMPDEST DUP3 DUP3 MUL SWAP1 POP SWAP3 SWAP2 POP POP JUMP JUMPDEST PUSH1 0x0 PUSH2 0x337F DUP3 PUSH2 0x32F6 JUMP JUMPDEST SWAP2 POP PUSH2 0x338A DUP4 PUSH2 0x32F6 JUMP JUMPDEST SWAP3 POP DUP3 PUSH2 0x339A JUMPI PUSH2 0x3399 PUSH2 0x2D9A JUMP JUMPDEST JUMPDEST DUP3 DUP3 DIV SWAP1 POP SWAP3 SWAP2 POP POP JUMP INVALID LOG2 PUSH5 0x6970667358 0x22 SLT KECCAK256 0xD3 0xA6 SWAP14 0xD3 0x29 0x2A 0xCC 0x5D PUSH15 0xB06C1817CCD01508948822B59DDB36 0xCF SUB 0xF7 0xC1 0xC4 SWAP15 0xB2 POP PUSH5 0x736F6C6343 STOP ADDMOD EXP STOP CALLER "
				},
				"gasEstimates": {
					"creation": {
						"codeDepositCost": "2655000",
						"executionCost": "infinite",
						"totalCost": "infinite"
					},
					"external": {
						"DOMAIN_SEPARATOR()": "infinite",
						"allowance(address,address)": "infinite",
						"approve(address,uint256)": "infinite",
						"balanceOf(address)": "2881",
						"burn(address)": "infinite",
						"decimals()": "infinite",
						"getReserves()": "infinite",
						"initialize(address,address)": "infinite",
						"mint(address)": "infinite",
						"name()": "infinite",
						"nonces(address)": "2903",
						"permit(address,address,uint256,uint256,uint8,bytes32,bytes32)": "infinite",
						"price0CumulativeLast()": "2540",
						"price1CumulativeLast()": "2562",
						"swap(uint256,uint256,address)": "infinite",
						"symbol()": "infinite",
						"sync()": "infinite",
						"token0()": "2604",
						"token1()": "2580",
						"totalSupply()": "2541",
						"transfer(address,uint256)": "infinite",
						"transferFrom(address,address,uint256)": "infinite"
					},
					"internal": {
						"_safeTransfer(address,address,uint256)": "infinite",
						"_update(uint256,uint256,uint112,uint112)": "infinite"
					}
				},
				"methodIdentifiers": {
					"DOMAIN_SEPARATOR()": "3644e515",
					"allowance(address,address)": "dd62ed3e",
					"approve(address,uint256)": "095ea7b3",
					"balanceOf(address)": "70a08231",
					"burn(address)": "89afcb44",
					"decimals()": "313ce567",
					"getReserves()": "0902f1ac",
					"initialize(address,address)": "485cc955",
					"mint(address)": "6a627842",
					"name()": "06fdde03",
					"nonces(address)": "7ecebe00",
					"permit(address,address,uint256,uint256,uint8,bytes32,bytes32)": "d505accf",
					"price0CumulativeLast()": "5909c0d5",
					"price1CumulativeLast()": "5a3d5493",
					"swap(uint256,uint256,address)": "6d9a640a",
					"symbol()": "95d89b41",
					"sync()": "fff6cae9",
					"token0()": "0dfe1681",
					"token1()": "d21220a7",
					"totalSupply()": "18160ddd",
					"transfer(address,uint256)": "a9059cbb",
					"transferFrom(address,address,uint256)": "23b872dd"
				}
			},
			"storageLayout": {
				"storage": [
					{
						"astId": 20,
						"contract": "contracts/KajuswapPair.sol:KajuswapPair",
						"label": "name",
						"offset": 0,
						"slot": "0",
						"type": "t_string_storage"
					},
					{
						"astId": 22,
						"contract": "contracts/KajuswapPair.sol:KajuswapPair",
						"label": "symbol",
						"offset": 0,
						"slot": "1",
						"type": "t_string_storage"
					},
					{
						"astId": 26,
						"contract": "contracts/KajuswapPair.sol:KajuswapPair",
						"label": "totalSupply",
						"offset": 0,
						"slot": "2",
						"type": "t_uint256"
					},
					{
						"astId": 30,
						"contract": "contracts/KajuswapPair.sol:KajuswapPair",
						"label": "balanceOf",
						"offset": 0,
						"slot": "3",
						"type": "t_mapping(t_address,t_uint256)"
					},
					{
						"astId": 36,
						"contract": "contracts/KajuswapPair.sol:KajuswapPair",
						"label": "allowance",
						"offset": 0,
						"slot": "4",
						"type": "t_mapping(t_address,t_mapping(t_address,t_uint256))"
					},
					{
						"astId": 44,
						"contract": "contracts/KajuswapPair.sol:KajuswapPair",
						"label": "nonces",
						"offset": 0,
						"slot": "5",
						"type": "t_mapping(t_address,t_uint256)"
					},
					{
						"astId": 423,
						"contract": "contracts/KajuswapPair.sol:KajuswapPair",
						"label": "token0",
						"offset": 0,
						"slot": "6",
						"type": "t_address"
					},
					{
						"astId": 425,
						"contract": "contracts/KajuswapPair.sol:KajuswapPair",
						"label": "token1",
						"offset": 0,
						"slot": "7",
						"type": "t_address"
					},
					{
						"astId": 427,
						"contract": "contracts/KajuswapPair.sol:KajuswapPair",
						"label": "reserve0",
						"offset": 0,
						"slot": "8",
						"type": "t_uint112"
					},
					{
						"astId": 429,
						"contract": "contracts/KajuswapPair.sol:KajuswapPair",
						"label": "reserve1",
						"offset": 14,
						"slot": "8",
						"type": "t_uint112"
					},
					{
						"astId": 431,
						"contract": "contracts/KajuswapPair.sol:KajuswapPair",
						"label": "blockTimestampLast",
						"offset": 28,
						"slot": "8",
						"type": "t_uint32"
					},
					{
						"astId": 433,
						"contract": "contracts/KajuswapPair.sol:KajuswapPair",
						"label": "price0CumulativeLast",
						"offset": 0,
						"slot": "9",
						"type": "t_uint256"
					},
					{
						"astId": 435,
						"contract": "contracts/KajuswapPair.sol:KajuswapPair",
						"label": "price1CumulativeLast",
						"offset": 0,
						"slot": "10",
						"type": "t_uint256"
					},
					{
						"astId": 437,
						"contract": "contracts/KajuswapPair.sol:KajuswapPair",
						"label": "isEntered",
						"offset": 0,
						"slot": "11",
						"type": "t_bool"
					}
				],
				"types": {
					"t_address": {
						"encoding": "inplace",
						"label": "address",
						"numberOfBytes": "20"
					},
					"t_bool": {
						"encoding": "inplace",
						"label": "bool",
						"numberOfBytes": "1"
					},
					"t_mapping(t_address,t_mapping(t_address,t_uint256))": {
						"encoding": "mapping",
						"key": "t_address",
						"label": "mapping(address => mapping(address => uint256))",
						"numberOfBytes": "32",
						"value": "t_mapping(t_address,t_uint256)"
					},
					"t_mapping(t_address,t_uint256)": {
						"encoding": "mapping",
						"key": "t_address",
						"label": "mapping(address => uint256)",
						"numberOfBytes": "32",
						"value": "t_uint256"
					},
					"t_string_storage": {
						"encoding": "bytes",
						"label": "string",
						"numberOfBytes": "32"
					},
					"t_uint112": {
						"encoding": "inplace",
						"label": "uint112",
						"numberOfBytes": "14"
					},
					"t_uint256": {
						"encoding": "inplace",
						"label": "uint256",
						"numberOfBytes": "32"
					},
					"t_uint32": {
						"encoding": "inplace",
						"label": "uint32",
						"numberOfBytes": "4"
					}
				}
			},
			"userdoc": {
				"kind": "user",
				"methods": {},
				"version": 1
			}
		}
	}
}