{
	"contracts/KajuswapRouter.sol": {
		"KajuswapRouter": {
			"abi": [
				{
					"inputs": [
						{
							"internalType": "address",
							"name": "factoryAddress",
							"type": "address"
						}
					],
					"stateMutability": "nonpayable",
					"type": "constructor"
				},
				{
					"inputs": [],
					"name": "ExcessiveInputAmount",
					"type": "error"
				},
				{
					"inputs": [],
					"name": "InsufficientAAmount",
					"type": "error"
				},
				{
					"inputs": [],
					"name": "InsufficientBAmount",
					"type": "error"
				},
				{
					"inputs": [],
					"name": "InsufficientOutputAmount",
					"type": "error"
				},
				{
					"inputs": [],
					"name": "SafeTransferFailed",
					"type": "error"
				},
				{
					"inputs": [
						{
							"internalType": "address",
							"name": "tokenA",
							"type": "address"
						},
						{
							"internalType": "address",
							"name": "tokenB",
							"type": "address"
						},
						{
							"internalType": "uint256",
							"name": "amountADesired",
							"type": "uint256"
						},
						{
							"internalType": "uint256",
							"name": "amountBDesired",
							"type": "uint256"
						},
						{
							"internalType": "uint256",
							"name": "amountAMin",
							"type": "uint256"
						},
						{
							"internalType": "uint256",
							"name": "amountBMin",
							"type": "uint256"
						},
						{
							"internalType": "address",
							"name": "to",
							"type": "address"
						}
					],
					"name": "addLiquidity",
					"outputs": [
						{
							"internalType": "uint256",
							"name": "amountA",
							"type": "uint256"
						},
						{
							"internalType": "uint256",
							"name": "amountB",
							"type": "uint256"
						},
						{
							"internalType": "uint256",
							"name": "liquidity",
							"type": "uint256"
						}
					],
					"stateMutability": "nonpayable",
					"type": "function"
				},
				{
					"inputs": [
						{
							"internalType": "uint256",
							"name": "amountOut",
							"type": "uint256"
						},
						{
							"internalType": "uint256",
							"name": "reserveIn",
							"type": "uint256"
						},
						{
							"internalType": "uint256",
							"name": "reserveOut",
							"type": "uint256"
						}
					],
					"name": "getAmountIn",
					"outputs": [
						{
							"internalType": "uint256",
							"name": "amountIn",
							"type": "uint256"
						}
					],
					"stateMutability": "pure",
					"type": "function"
				},
				{
					"inputs": [
						{
							"internalType": "uint256",
							"name": "amountIn",
							"type": "uint256"
						},
						{
							"internalType": "uint256",
							"name": "reserveIn",
							"type": "uint256"
						},
						{
							"internalType": "uint256",
							"name": "reserveOut",
							"type": "uint256"
						}
					],
					"name": "getAmountOut",
					"outputs": [
						{
							"internalType": "uint256",
							"name": "amountOut",
							"type": "uint256"
						}
					],
					"stateMutability": "pure",
					"type": "function"
				},
				{
					"inputs": [
						{
							"internalType": "uint256",
							"name": "amountOut",
							"type": "uint256"
						},
						{
							"internalType": "address[]",
							"name": "path",
							"type": "address[]"
						}
					],
					"name": "getAmountsIn",
					"outputs": [
						{
							"internalType": "uint256[]",
							"name": "amounts",
							"type": "uint256[]"
						}
					],
					"stateMutability": "nonpayable",
					"type": "function"
				},
				{
					"inputs": [
						{
							"internalType": "uint256",
							"name": "amountIn",
							"type": "uint256"
						},
						{
							"internalType": "address[]",
							"name": "path",
							"type": "address[]"
						}
					],
					"name": "getAmountsOut",
					"outputs": [
						{
							"internalType": "uint256[]",
							"name": "amounts",
							"type": "uint256[]"
						}
					],
					"stateMutability": "nonpayable",
					"type": "function"
				},
				{
					"inputs": [
						{
							"internalType": "uint256",
							"name": "amountIn",
							"type": "uint256"
						},
						{
							"internalType": "uint256",
							"name": "reserveIn",
							"type": "uint256"
						},
						{
							"internalType": "uint256",
							"name": "reserveOut",
							"type": "uint256"
						}
					],
					"name": "quote",
					"outputs": [
						{
							"internalType": "uint256",
							"name": "amountOut",
							"type": "uint256"
						}
					],
					"stateMutability": "pure",
					"type": "function"
				},
				{
					"inputs": [
						{
							"internalType": "address",
							"name": "tokenA",
							"type": "address"
						},
						{
							"internalType": "address",
							"name": "tokenB",
							"type": "address"
						},
						{
							"internalType": "uint256",
							"name": "liquidity",
							"type": "uint256"
						},
						{
							"internalType": "uint256",
							"name": "amountAMin",
							"type": "uint256"
						},
						{
							"internalType": "uint256",
							"name": "amountBMin",
							"type": "uint256"
						},
						{
							"internalType": "address",
							"name": "to",
							"type": "address"
						}
					],
					"name": "removeLiquidity",
					"outputs": [
						{
							"internalType": "uint256",
							"name": "amountA",
							"type": "uint256"
						},
						{
							"internalType": "uint256",
							"name": "amountB",
							"type": "uint256"
						}
					],
					"stateMutability": "nonpayable",
					"type": "function"
				},
				{
					"inputs": [
						{
							"internalType": "uint256",
							"name": "amountIn",
							"type": "uint256"
						},
						{
							"internalType": "uint256",
							"name": "amountOutMin",
							"type": "uint256"
						},
						{
							"internalType": "address[]",
							"name": "path",
							"type": "address[]"
						},
						{
							"internalType": "address",
							"name": "to",
							"type": "address"
						}
					],
					"name": "swapExactTokensForTokens",
					"outputs": [
						{
							"internalType": "uint256[]",
							"name": "amounts",
							"type": "uint256[]"
						}
					],
					"stateMutability": "nonpayable",
					"type": "function"
				},
				{
					"inputs": [
						{
							"internalType": "uint256",
							"name": "amountOut",
							"type": "uint256"
						},
						{
							"internalType": "uint256",
							"name": "amountInMax",
							"type": "uint256"
						},
						{
							"internalType": "address[]",
							"name": "path",
							"type": "address[]"
						},
						{
							"internalType": "address",
							"name": "to",
							"type": "address"
						}
					],
					"name": "swapTokensForExactTokens",
					"outputs": [
						{
							"internalType": "uint256[]",
							"name": "amounts",
							"type": "uint256[]"
						}
					],
					"stateMutability": "nonpayable",
					"type": "function"
				}
			],
			"devdoc": {
				"kind": "dev",
				"methods": {},
				"version": 1
			},
			"evm": {
				"assembly": "    /* \"contracts/KajuswapRouter.sol\":185:7671  contract KajuswapRouter {... */\n  mstore(0x40, 0x80)\n    /* \"contracts/KajuswapRouter.sol\":426:523  constructor(address factoryAddress) {... */\n  callvalue\n  dup1\n  iszero\n  tag_1\n  jumpi\n  0x00\n  dup1\n  revert\ntag_1:\n  pop\n  mload(0x40)\n  sub(codesize, bytecodeSize)\n  dup1\n  bytecodeSize\n  dup4\n  codecopy\n  dup2\n  dup2\n  add\n  0x40\n  mstore\n  dup2\n  add\n  swap1\n  tag_2\n  swap2\n  swap1\n  tag_3\n  jump\t// in\ntag_2:\n    /* \"contracts/KajuswapRouter.sol\":500:514  factoryAddress */\n  dup1\n    /* \"contracts/KajuswapRouter.sol\":473:480  factory */\n  0x00\n  dup1\n    /* \"contracts/KajuswapRouter.sol\":473:515  factory = IKajuswapFactory(factoryAddress) */\n  0x0100\n  exp\n  dup2\n  sload\n  dup2\n  0xffffffffffffffffffffffffffffffffffffffff\n  mul\n  not\n  and\n  swap1\n  dup4\n  0xffffffffffffffffffffffffffffffffffffffff\n  and\n  mul\n  or\n  swap1\n  sstore\n  pop\n    /* \"contracts/KajuswapRouter.sol\":426:523  constructor(address factoryAddress) {... */\n  pop\n    /* \"contracts/KajuswapRouter.sol\":185:7671  contract KajuswapRouter {... */\n  jump(tag_6)\n    /* \"#utility.yul\":88:205   */\ntag_8:\n    /* \"#utility.yul\":197:198   */\n  0x00\n    /* \"#utility.yul\":194:195   */\n  dup1\n    /* \"#utility.yul\":187:199   */\n  revert\n    /* \"#utility.yul\":334:460   */\ntag_10:\n    /* \"#utility.yul\":371:378   */\n  0x00\n    /* \"#utility.yul\":411:453   */\n  0xffffffffffffffffffffffffffffffffffffffff\n    /* \"#utility.yul\":404:409   */\n  dup3\n    /* \"#utility.yul\":400:454   */\n  and\n    /* \"#utility.yul\":389:454   */\n  swap1\n  pop\n    /* \"#utility.yul\":334:460   */\n  swap2\n  swap1\n  pop\n  jump\t// out\n    /* \"#utility.yul\":466:562   */\ntag_11:\n    /* \"#utility.yul\":503:510   */\n  0x00\n    /* \"#utility.yul\":532:556   */\n  tag_20\n    /* \"#utility.yul\":550:555   */\n  dup3\n    /* \"#utility.yul\":532:556   */\n  tag_10\n  jump\t// in\ntag_20:\n    /* \"#utility.yul\":521:556   */\n  swap1\n  pop\n    /* \"#utility.yul\":466:562   */\n  swap2\n  swap1\n  pop\n  jump\t// out\n    /* \"#utility.yul\":568:690   */\ntag_12:\n    /* \"#utility.yul\":641:665   */\n  tag_22\n    /* \"#utility.yul\":659:664   */\n  dup2\n    /* \"#utility.yul\":641:665   */\n  tag_11\n  jump\t// in\ntag_22:\n    /* \"#utility.yul\":634:639   */\n  dup2\n    /* \"#utility.yul\":631:666   */\n  eq\n    /* \"#utility.yul\":621:684   */\n  tag_23\n  jumpi\n    /* \"#utility.yul\":680:681   */\n  0x00\n    /* \"#utility.yul\":677:678   */\n  dup1\n    /* \"#utility.yul\":670:682   */\n  revert\n    /* \"#utility.yul\":621:684   */\ntag_23:\n    /* \"#utility.yul\":568:690   */\n  pop\n  jump\t// out\n    /* \"#utility.yul\":696:839   */\ntag_13:\n    /* \"#utility.yul\":753:758   */\n  0x00\n    /* \"#utility.yul\":784:790   */\n  dup2\n    /* \"#utility.yul\":778:791   */\n  mload\n    /* \"#utility.yul\":769:791   */\n  swap1\n  pop\n    /* \"#utility.yul\":800:833   */\n  tag_25\n    /* \"#utility.yul\":827:832   */\n  dup2\n    /* \"#utility.yul\":800:833   */\n  tag_12\n  jump\t// in\ntag_25:\n    /* \"#utility.yul\":696:839   */\n  swap3\n  swap2\n  pop\n  pop\n  jump\t// out\n    /* \"#utility.yul\":845:1196   */\ntag_3:\n    /* \"#utility.yul\":915:921   */\n  0x00\n    /* \"#utility.yul\":964:966   */\n  0x20\n    /* \"#utility.yul\":952:961   */\n  dup3\n    /* \"#utility.yul\":943:950   */\n  dup5\n    /* \"#utility.yul\":939:962   */\n  sub\n    /* \"#utility.yul\":935:967   */\n  slt\n    /* \"#utility.yul\":932:1051   */\n  iszero\n  tag_27\n  jumpi\n    /* \"#utility.yul\":970:1049   */\n  tag_28\n  tag_8\n  jump\t// in\ntag_28:\n    /* \"#utility.yul\":932:1051   */\ntag_27:\n    /* \"#utility.yul\":1090:1091   */\n  0x00\n    /* \"#utility.yul\":1115:1179   */\n  tag_29\n    /* \"#utility.yul\":1171:1178   */\n  dup5\n    /* \"#utility.yul\":1162:1168   */\n  dup3\n    /* \"#utility.yul\":1151:1160   */\n  dup6\n    /* \"#utility.yul\":1147:1169   */\n  add\n    /* \"#utility.yul\":1115:1179   */\n  tag_13\n  jump\t// in\ntag_29:\n    /* \"#utility.yul\":1105:1179   */\n  swap2\n  pop\n    /* \"#utility.yul\":1061:1189   */\n  pop\n    /* \"#utility.yul\":845:1196   */\n  swap3\n  swap2\n  pop\n  pop\n  jump\t// out\n    /* \"contracts/KajuswapRouter.sol\":185:7671  contract KajuswapRouter {... */\ntag_6:\n  dataSize(sub_0)\n  dup1\n  dataOffset(sub_0)\n  0x00\n  codecopy\n  0x00\n  return\nstop\n\nsub_0: assembly {\n        /* \"contracts/KajuswapRouter.sol\":185:7671  contract KajuswapRouter {... */\n      mstore(0x40, 0x80)\n      callvalue\n      dup1\n      iszero\n      tag_1\n      jumpi\n      0x00\n      dup1\n      revert\n    tag_1:\n      pop\n      jumpi(tag_2, lt(calldatasize, 0x04))\n      shr(0xe0, calldataload(0x00))\n      dup1\n      0x85f8c259\n      gt\n      tag_12\n      jumpi\n      dup1\n      0x85f8c259\n      eq\n      tag_7\n      jumpi\n      dup1\n      0xad615dec\n      eq\n      tag_8\n      jumpi\n      dup1\n      0xc0e3ee6b\n      eq\n      tag_9\n      jumpi\n      dup1\n      0xca3d6539\n      eq\n      tag_10\n      jumpi\n      dup1\n      0xd06ca61f\n      eq\n      tag_11\n      jumpi\n      jump(tag_2)\n    tag_12:\n      dup1\n      0x054d50d4\n      eq\n      tag_3\n      jumpi\n      dup1\n      0x1f00ca74\n      eq\n      tag_4\n      jumpi\n      dup1\n      0x42712a67\n      eq\n      tag_5\n      jumpi\n      dup1\n      0x472b43f3\n      eq\n      tag_6\n      jumpi\n    tag_2:\n      0x00\n      dup1\n      revert\n        /* \"contracts/KajuswapRouter.sol\":6729:6969  function getAmountOut(... */\n    tag_3:\n      tag_13\n      0x04\n      dup1\n      calldatasize\n      sub\n      dup2\n      add\n      swap1\n      tag_14\n      swap2\n      swap1\n      tag_15\n      jump\t// in\n    tag_14:\n      tag_16\n      jump\t// in\n    tag_13:\n      mload(0x40)\n      tag_17\n      swap2\n      swap1\n      tag_18\n      jump\t// in\n    tag_17:\n      mload(0x40)\n      dup1\n      swap2\n      sub\n      swap1\n      return\n        /* \"contracts/KajuswapRouter.sol\":7450:7668  function getAmountsIn(uint256 amountOut, address[] memory path)... */\n    tag_4:\n      tag_19\n      0x04\n      dup1\n      calldatasize\n      sub\n      dup2\n      add\n      swap1\n      tag_20\n      swap2\n      swap1\n      tag_21\n      jump\t// in\n    tag_20:\n      tag_22\n      jump\t// in\n    tag_19:\n      mload(0x40)\n      tag_23\n      swap2\n      swap1\n      tag_24\n      jump\t// in\n    tag_23:\n      mload(0x40)\n      dup1\n      swap2\n      sub\n      swap1\n      return\n        /* \"contracts/KajuswapRouter.sol\":2904:3562  function swapTokensForExactTokens(... */\n    tag_5:\n      tag_25\n      0x04\n      dup1\n      calldatasize\n      sub\n      dup2\n      add\n      swap1\n      tag_26\n      swap2\n      swap1\n      tag_27\n      jump\t// in\n    tag_26:\n      tag_28\n      jump\t// in\n    tag_25:\n      mload(0x40)\n      tag_29\n      swap2\n      swap1\n      tag_24\n      jump\t// in\n    tag_29:\n      mload(0x40)\n      dup1\n      swap2\n      sub\n      swap1\n      return\n        /* \"contracts/KajuswapRouter.sol\":2233:2896  function swapExactTokensForTokens(... */\n    tag_6:\n      tag_30\n      0x04\n      dup1\n      calldatasize\n      sub\n      dup2\n      add\n      swap1\n      tag_31\n      swap2\n      swap1\n      tag_27\n      jump\t// in\n    tag_31:\n      tag_32\n      jump\t// in\n    tag_30:\n      mload(0x40)\n      tag_33\n      swap2\n      swap1\n      tag_24\n      jump\t// in\n    tag_33:\n      mload(0x40)\n      dup1\n      swap2\n      sub\n      swap1\n      return\n        /* \"contracts/KajuswapRouter.sol\":6977:7216  function getAmountIn(... */\n    tag_7:\n      tag_34\n      0x04\n      dup1\n      calldatasize\n      sub\n      dup2\n      add\n      swap1\n      tag_35\n      swap2\n      swap1\n      tag_15\n      jump\t// in\n    tag_35:\n      tag_36\n      jump\t// in\n    tag_34:\n      mload(0x40)\n      tag_37\n      swap2\n      swap1\n      tag_18\n      jump\t// in\n    tag_37:\n      mload(0x40)\n      dup1\n      swap2\n      sub\n      swap1\n      return\n        /* \"contracts/KajuswapRouter.sol\":6495:6721  function quote(... */\n    tag_8:\n      tag_38\n      0x04\n      dup1\n      calldatasize\n      sub\n      dup2\n      add\n      swap1\n      tag_39\n      swap2\n      swap1\n      tag_15\n      jump\t// in\n    tag_39:\n      tag_40\n      jump\t// in\n    tag_38:\n      mload(0x40)\n      tag_41\n      swap2\n      swap1\n      tag_18\n      jump\t// in\n    tag_41:\n      mload(0x40)\n      dup1\n      swap2\n      sub\n      swap1\n      return\n        /* \"contracts/KajuswapRouter.sol\":1583:2225  function removeLiquidity(... */\n    tag_9:\n      tag_42\n      0x04\n      dup1\n      calldatasize\n      sub\n      dup2\n      add\n      swap1\n      tag_43\n      swap2\n      swap1\n      tag_44\n      jump\t// in\n    tag_43:\n      tag_45\n      jump\t// in\n    tag_42:\n      mload(0x40)\n      tag_46\n      swap3\n      swap2\n      swap1\n      tag_47\n      jump\t// in\n    tag_46:\n      mload(0x40)\n      dup1\n      swap2\n      sub\n      swap1\n      return\n        /* \"contracts/KajuswapRouter.sol\":531:1575  function addLiquidity(... */\n    tag_10:\n      tag_48\n      0x04\n      dup1\n      calldatasize\n      sub\n      dup2\n      add\n      swap1\n      tag_49\n      swap2\n      swap1\n      tag_50\n      jump\t// in\n    tag_49:\n      tag_51\n      jump\t// in\n    tag_48:\n      mload(0x40)\n      tag_52\n      swap4\n      swap3\n      swap2\n      swap1\n      tag_53\n      jump\t// in\n    tag_52:\n      mload(0x40)\n      dup1\n      swap2\n      sub\n      swap1\n      return\n        /* \"contracts/KajuswapRouter.sol\":7224:7442  function getAmountsOut(uint256 amountIn, address[] memory path)... */\n    tag_11:\n      tag_54\n      0x04\n      dup1\n      calldatasize\n      sub\n      dup2\n      add\n      swap1\n      tag_55\n      swap2\n      swap1\n      tag_21\n      jump\t// in\n    tag_55:\n      tag_56\n      jump\t// in\n    tag_54:\n      mload(0x40)\n      tag_57\n      swap2\n      swap1\n      tag_24\n      jump\t// in\n    tag_57:\n      mload(0x40)\n      dup1\n      swap2\n      sub\n      swap1\n      return\n        /* \"contracts/KajuswapRouter.sol\":6729:6969  function getAmountOut(... */\n    tag_16:\n        /* \"contracts/KajuswapRouter.sol\":6863:6880  uint256 amountOut */\n      0x00\n        /* \"contracts/KajuswapRouter.sol\":6900:6915  KajuswapLibrary */\n      linkerSymbol(\"18693c2782ae7b010cc3bd0449f436a78932852c600971ebfaa34cda17c779df\")\n        /* \"contracts/KajuswapRouter.sol\":6900:6928  KajuswapLibrary.getAmountOut */\n      0x054d50d4\n        /* \"contracts/KajuswapRouter.sol\":6929:6937  amountIn */\n      dup6\n        /* \"contracts/KajuswapRouter.sol\":6939:6948  reserveIn */\n      dup6\n        /* \"contracts/KajuswapRouter.sol\":6950:6960  reserveOut */\n      dup6\n        /* \"contracts/KajuswapRouter.sol\":6900:6961  KajuswapLibrary.getAmountOut(amountIn, reserveIn, reserveOut) */\n      mload(0x40)\n      dup5\n      0xffffffff\n      and\n      0xe0\n      shl\n      dup2\n      mstore\n      0x04\n      add\n      tag_59\n      swap4\n      swap3\n      swap2\n      swap1\n      tag_60\n      jump\t// in\n    tag_59:\n      0x20\n      mload(0x40)\n      dup1\n      dup4\n      sub\n      dup2\n      dup7\n      gas\n      delegatecall\n      iszero\n      dup1\n      iszero\n      tag_62\n      jumpi\n      returndatasize\n      0x00\n      dup1\n      returndatacopy\n      revert(0x00, returndatasize)\n    tag_62:\n      pop\n      pop\n      pop\n      pop\n      mload(0x40)\n      returndatasize\n      not(0x1f)\n      0x1f\n      dup3\n      add\n      and\n      dup3\n      add\n      dup1\n      0x40\n      mstore\n      pop\n      dup2\n      add\n      swap1\n      tag_63\n      swap2\n      swap1\n      tag_64\n      jump\t// in\n    tag_63:\n        /* \"contracts/KajuswapRouter.sol\":6893:6961  return KajuswapLibrary.getAmountOut(amountIn, reserveIn, reserveOut) */\n      swap1\n      pop\n        /* \"contracts/KajuswapRouter.sol\":6729:6969  function getAmountOut(... */\n      swap4\n      swap3\n      pop\n      pop\n      pop\n      jump\t// out\n        /* \"contracts/KajuswapRouter.sol\":7450:7668  function getAmountsIn(uint256 amountOut, address[] memory path)... */\n    tag_22:\n        /* \"contracts/KajuswapRouter.sol\":7548:7572  uint256[] memory amounts */\n      0x60\n        /* \"contracts/KajuswapRouter.sol\":7597:7612  KajuswapLibrary */\n      linkerSymbol(\"18693c2782ae7b010cc3bd0449f436a78932852c600971ebfaa34cda17c779df\")\n        /* \"contracts/KajuswapRouter.sol\":7597:7625  KajuswapLibrary.getAmountsIn */\n      0x192128b2\n        /* \"contracts/KajuswapRouter.sol\":7634:7641  factory */\n      0x00\n      dup1\n      sload\n      swap1\n      0x0100\n      exp\n      swap1\n      div\n      0xffffffffffffffffffffffffffffffffffffffff\n      and\n        /* \"contracts/KajuswapRouter.sol\":7644:7653  amountOut */\n      dup6\n        /* \"contracts/KajuswapRouter.sol\":7655:7659  path */\n      dup6\n        /* \"contracts/KajuswapRouter.sol\":7597:7660  KajuswapLibrary.getAmountsIn(address(factory), amountOut, path) */\n      mload(0x40)\n      dup5\n      0xffffffff\n      and\n      0xe0\n      shl\n      dup2\n      mstore\n      0x04\n      add\n      tag_66\n      swap4\n      swap3\n      swap2\n      swap1\n      tag_67\n      jump\t// in\n    tag_66:\n      0x00\n      mload(0x40)\n      dup1\n      dup4\n      sub\n      dup2\n      dup7\n      gas\n      delegatecall\n      iszero\n      dup1\n      iszero\n      tag_69\n      jumpi\n      returndatasize\n      0x00\n      dup1\n      returndatacopy\n      revert(0x00, returndatasize)\n    tag_69:\n      pop\n      pop\n      pop\n      pop\n      mload(0x40)\n      returndatasize\n      0x00\n      dup3\n      returndatacopy\n      returndatasize\n      not(0x1f)\n      0x1f\n      dup3\n      add\n      and\n      dup3\n      add\n      dup1\n      0x40\n      mstore\n      pop\n      dup2\n      add\n      swap1\n      tag_70\n      swap2\n      swap1\n      tag_71\n      jump\t// in\n    tag_70:\n        /* \"contracts/KajuswapRouter.sol\":7590:7660  return KajuswapLibrary.getAmountsIn(address(factory), amountOut, path) */\n      swap1\n      pop\n        /* \"contracts/KajuswapRouter.sol\":7450:7668  function getAmountsIn(uint256 amountOut, address[] memory path)... */\n      swap3\n      swap2\n      pop\n      pop\n      jump\t// out\n        /* \"contracts/KajuswapRouter.sol\":2904:3562  function swapTokensForExactTokens(... */\n    tag_28:\n        /* \"contracts/KajuswapRouter.sol\":3074:3098  uint256[] memory amounts */\n      0x60\n        /* \"contracts/KajuswapRouter.sol\":3121:3136  KajuswapLibrary */\n      linkerSymbol(\"18693c2782ae7b010cc3bd0449f436a78932852c600971ebfaa34cda17c779df\")\n        /* \"contracts/KajuswapRouter.sol\":3121:3149  KajuswapLibrary.getAmountsIn */\n      0x192128b2\n        /* \"contracts/KajuswapRouter.sol\":3172:3179  factory */\n      0x00\n      dup1\n      sload\n      swap1\n      0x0100\n      exp\n      swap1\n      div\n      0xffffffffffffffffffffffffffffffffffffffff\n      and\n        /* \"contracts/KajuswapRouter.sol\":3195:3204  amountOut */\n      dup9\n        /* \"contracts/KajuswapRouter.sol\":3219:3223  path */\n      dup8\n      dup8\n        /* \"contracts/KajuswapRouter.sol\":3121:3234  KajuswapLibrary.getAmountsIn(... */\n      mload(0x40)\n      dup6\n      0xffffffff\n      and\n      0xe0\n      shl\n      dup2\n      mstore\n      0x04\n      add\n      tag_73\n      swap5\n      swap4\n      swap3\n      swap2\n      swap1\n      tag_74\n      jump\t// in\n    tag_73:\n      0x00\n      mload(0x40)\n      dup1\n      dup4\n      sub\n      dup2\n      dup7\n      gas\n      delegatecall\n      iszero\n      dup1\n      iszero\n      tag_76\n      jumpi\n      returndatasize\n      0x00\n      dup1\n      returndatacopy\n      revert(0x00, returndatasize)\n    tag_76:\n      pop\n      pop\n      pop\n      pop\n      mload(0x40)\n      returndatasize\n      0x00\n      dup3\n      returndatacopy\n      returndatasize\n      not(0x1f)\n      0x1f\n      dup3\n      add\n      and\n      dup3\n      add\n      dup1\n      0x40\n      mstore\n      pop\n      dup2\n      add\n      swap1\n      tag_77\n      swap2\n      swap1\n      tag_71\n      jump\t// in\n    tag_77:\n        /* \"contracts/KajuswapRouter.sol\":3111:3234  amounts = KajuswapLibrary.getAmountsIn(... */\n      swap1\n      pop\n        /* \"contracts/KajuswapRouter.sol\":3279:3290  amountInMax */\n      dup5\n        /* \"contracts/KajuswapRouter.sol\":3249:3256  amounts */\n      dup2\n        /* \"contracts/KajuswapRouter.sol\":3274:3275  1 */\n      0x01\n        /* \"contracts/KajuswapRouter.sol\":3257:3264  amounts */\n      dup4\n        /* \"contracts/KajuswapRouter.sol\":3257:3271  amounts.length */\n      mload\n        /* \"contracts/KajuswapRouter.sol\":3257:3275  amounts.length - 1 */\n      tag_78\n      swap2\n      swap1\n      tag_79\n      jump\t// in\n    tag_78:\n        /* \"contracts/KajuswapRouter.sol\":3249:3276  amounts[amounts.length - 1] */\n      dup2\n      mload\n      dup2\n      lt\n      tag_80\n      jumpi\n      tag_81\n      tag_82\n      jump\t// in\n    tag_81:\n    tag_80:\n      0x20\n      mul\n      0x20\n      add\n      add\n      mload\n        /* \"contracts/KajuswapRouter.sol\":3249:3290  amounts[amounts.length - 1] > amountInMax */\n      gt\n        /* \"contracts/KajuswapRouter.sol\":3245:3334  if (amounts[amounts.length - 1] > amountInMax)... */\n      iszero\n      tag_83\n      jumpi\n        /* \"contracts/KajuswapRouter.sol\":3312:3334  ExcessiveInputAmount() */\n      mload(0x40)\n      0xe1b0da4f00000000000000000000000000000000000000000000000000000000\n      dup2\n      mstore\n      0x04\n      add\n      mload(0x40)\n      dup1\n      swap2\n      sub\n      swap1\n      revert\n        /* \"contracts/KajuswapRouter.sol\":3245:3334  if (amounts[amounts.length - 1] > amountInMax)... */\n    tag_83:\n        /* \"contracts/KajuswapRouter.sol\":3345:3519  _safeTransferFrom(... */\n      tag_84\n        /* \"contracts/KajuswapRouter.sol\":3377:3381  path */\n      dup5\n      dup5\n        /* \"contracts/KajuswapRouter.sol\":3382:3383  0 */\n      0x00\n        /* \"contracts/KajuswapRouter.sol\":3377:3384  path[0] */\n      dup2\n      dup2\n      lt\n      tag_85\n      jumpi\n      tag_86\n      tag_82\n      jump\t// in\n    tag_86:\n    tag_85:\n      swap1\n      pop\n      0x20\n      mul\n      add\n      0x20\n      dup2\n      add\n      swap1\n      tag_87\n      swap2\n      swap1\n      tag_88\n      jump\t// in\n    tag_87:\n        /* \"contracts/KajuswapRouter.sol\":3399:3409  msg.sender */\n      caller\n        /* \"contracts/KajuswapRouter.sol\":3424:3483  KajuswapLibrary.pairFor(address(factory), path[0], path[1]) */\n      tag_89\n        /* \"contracts/KajuswapRouter.sol\":3456:3463  factory */\n      0x00\n      dup1\n      sload\n      swap1\n      0x0100\n      exp\n      swap1\n      div\n      0xffffffffffffffffffffffffffffffffffffffff\n      and\n        /* \"contracts/KajuswapRouter.sol\":3466:3470  path */\n      dup9\n      dup9\n        /* \"contracts/KajuswapRouter.sol\":3471:3472  0 */\n      0x00\n        /* \"contracts/KajuswapRouter.sol\":3466:3473  path[0] */\n      dup2\n      dup2\n      lt\n      tag_90\n      jumpi\n      tag_91\n      tag_82\n      jump\t// in\n    tag_91:\n    tag_90:\n      swap1\n      pop\n      0x20\n      mul\n      add\n      0x20\n      dup2\n      add\n      swap1\n      tag_92\n      swap2\n      swap1\n      tag_88\n      jump\t// in\n    tag_92:\n        /* \"contracts/KajuswapRouter.sol\":3475:3479  path */\n      dup10\n      dup10\n        /* \"contracts/KajuswapRouter.sol\":3480:3481  1 */\n      0x01\n        /* \"contracts/KajuswapRouter.sol\":3475:3482  path[1] */\n      dup2\n      dup2\n      lt\n      tag_93\n      jumpi\n      tag_94\n      tag_82\n      jump\t// in\n    tag_94:\n    tag_93:\n      swap1\n      pop\n      0x20\n      mul\n      add\n      0x20\n      dup2\n      add\n      swap1\n      tag_95\n      swap2\n      swap1\n      tag_88\n      jump\t// in\n    tag_95:\n        /* \"contracts/KajuswapRouter.sol\":3424:3447  KajuswapLibrary.pairFor */\n      tag_96\n        /* \"contracts/KajuswapRouter.sol\":3424:3483  KajuswapLibrary.pairFor(address(factory), path[0], path[1]) */\n      jump\t// in\n    tag_89:\n        /* \"contracts/KajuswapRouter.sol\":3498:3505  amounts */\n      dup5\n        /* \"contracts/KajuswapRouter.sol\":3506:3507  0 */\n      0x00\n        /* \"contracts/KajuswapRouter.sol\":3498:3508  amounts[0] */\n      dup2\n      mload\n      dup2\n      lt\n      tag_97\n      jumpi\n      tag_98\n      tag_82\n      jump\t// in\n    tag_98:\n    tag_97:\n      0x20\n      mul\n      0x20\n      add\n      add\n      mload\n        /* \"contracts/KajuswapRouter.sol\":3345:3362  _safeTransferFrom */\n      tag_99\n        /* \"contracts/KajuswapRouter.sol\":3345:3519  _safeTransferFrom(... */\n      jump\t// in\n    tag_84:\n        /* \"contracts/KajuswapRouter.sol\":3530:3554  _swap(amounts, path, to) */\n      tag_100\n        /* \"contracts/KajuswapRouter.sol\":3536:3543  amounts */\n      dup2\n        /* \"contracts/KajuswapRouter.sol\":3545:3549  path */\n      dup6\n      dup6\n        /* \"contracts/KajuswapRouter.sol\":3530:3554  _swap(amounts, path, to) */\n      dup1\n      dup1\n      0x20\n      mul\n      0x20\n      add\n      mload(0x40)\n      swap1\n      dup2\n      add\n      0x40\n      mstore\n      dup1\n      swap4\n      swap3\n      swap2\n      swap1\n      dup2\n      dup2\n      mstore\n      0x20\n      add\n      dup4\n      dup4\n      0x20\n      mul\n      dup1\n      dup3\n      dup5\n      calldatacopy\n      0x00\n      dup2\n      dup5\n      add\n      mstore\n      not(0x1f)\n      0x1f\n      dup3\n      add\n      and\n      swap1\n      pop\n      dup1\n      dup4\n      add\n      swap3\n      pop\n      pop\n      pop\n      pop\n      pop\n      pop\n      pop\n        /* \"contracts/KajuswapRouter.sol\":3551:3553  to */\n      dup5\n        /* \"contracts/KajuswapRouter.sol\":3530:3535  _swap */\n      tag_101\n        /* \"contracts/KajuswapRouter.sol\":3530:3554  _swap(amounts, path, to) */\n      jump\t// in\n    tag_100:\n        /* \"contracts/KajuswapRouter.sol\":2904:3562  function swapTokensForExactTokens(... */\n      swap6\n      swap5\n      pop\n      pop\n      pop\n      pop\n      pop\n      jump\t// out\n        /* \"contracts/KajuswapRouter.sol\":2233:2896  function swapExactTokensForTokens(... */\n    tag_32:\n        /* \"contracts/KajuswapRouter.sol\":2403:2427  uint256[] memory amounts */\n      0x60\n        /* \"contracts/KajuswapRouter.sol\":2450:2465  KajuswapLibrary */\n      linkerSymbol(\"18693c2782ae7b010cc3bd0449f436a78932852c600971ebfaa34cda17c779df\")\n        /* \"contracts/KajuswapRouter.sol\":2450:2479  KajuswapLibrary.getAmountsOut */\n      0xbb7b9c76\n        /* \"contracts/KajuswapRouter.sol\":2502:2509  factory */\n      0x00\n      dup1\n      sload\n      swap1\n      0x0100\n      exp\n      swap1\n      div\n      0xffffffffffffffffffffffffffffffffffffffff\n      and\n        /* \"contracts/KajuswapRouter.sol\":2525:2533  amountIn */\n      dup9\n        /* \"contracts/KajuswapRouter.sol\":2548:2552  path */\n      dup8\n      dup8\n        /* \"contracts/KajuswapRouter.sol\":2450:2563  KajuswapLibrary.getAmountsOut(... */\n      mload(0x40)\n      dup6\n      0xffffffff\n      and\n      0xe0\n      shl\n      dup2\n      mstore\n      0x04\n      add\n      tag_103\n      swap5\n      swap4\n      swap3\n      swap2\n      swap1\n      tag_74\n      jump\t// in\n    tag_103:\n      0x00\n      mload(0x40)\n      dup1\n      dup4\n      sub\n      dup2\n      dup7\n      gas\n      delegatecall\n      iszero\n      dup1\n      iszero\n      tag_105\n      jumpi\n      returndatasize\n      0x00\n      dup1\n      returndatacopy\n      revert(0x00, returndatasize)\n    tag_105:\n      pop\n      pop\n      pop\n      pop\n      mload(0x40)\n      returndatasize\n      0x00\n      dup3\n      returndatacopy\n      returndatasize\n      not(0x1f)\n      0x1f\n      dup3\n      add\n      and\n      dup3\n      add\n      dup1\n      0x40\n      mstore\n      pop\n      dup2\n      add\n      swap1\n      tag_106\n      swap2\n      swap1\n      tag_71\n      jump\t// in\n    tag_106:\n        /* \"contracts/KajuswapRouter.sol\":2440:2563  amounts = KajuswapLibrary.getAmountsOut(... */\n      swap1\n      pop\n        /* \"contracts/KajuswapRouter.sol\":2608:2620  amountOutMin */\n      dup5\n        /* \"contracts/KajuswapRouter.sol\":2578:2585  amounts */\n      dup2\n        /* \"contracts/KajuswapRouter.sol\":2603:2604  1 */\n      0x01\n        /* \"contracts/KajuswapRouter.sol\":2586:2593  amounts */\n      dup4\n        /* \"contracts/KajuswapRouter.sol\":2586:2600  amounts.length */\n      mload\n        /* \"contracts/KajuswapRouter.sol\":2586:2604  amounts.length - 1 */\n      tag_107\n      swap2\n      swap1\n      tag_79\n      jump\t// in\n    tag_107:\n        /* \"contracts/KajuswapRouter.sol\":2578:2605  amounts[amounts.length - 1] */\n      dup2\n      mload\n      dup2\n      lt\n      tag_108\n      jumpi\n      tag_109\n      tag_82\n      jump\t// in\n    tag_109:\n    tag_108:\n      0x20\n      mul\n      0x20\n      add\n      add\n      mload\n        /* \"contracts/KajuswapRouter.sol\":2578:2620  amounts[amounts.length - 1] < amountOutMin */\n      lt\n        /* \"contracts/KajuswapRouter.sol\":2574:2668  if (amounts[amounts.length - 1] < amountOutMin)... */\n      iszero\n      tag_110\n      jumpi\n        /* \"contracts/KajuswapRouter.sol\":2642:2668  InsufficientOutputAmount() */\n      mload(0x40)\n      0x42301c2300000000000000000000000000000000000000000000000000000000\n      dup2\n      mstore\n      0x04\n      add\n      mload(0x40)\n      dup1\n      swap2\n      sub\n      swap1\n      revert\n        /* \"contracts/KajuswapRouter.sol\":2574:2668  if (amounts[amounts.length - 1] < amountOutMin)... */\n    tag_110:\n        /* \"contracts/KajuswapRouter.sol\":2679:2853  _safeTransferFrom(... */\n      tag_111\n        /* \"contracts/KajuswapRouter.sol\":2711:2715  path */\n      dup5\n      dup5\n        /* \"contracts/KajuswapRouter.sol\":2716:2717  0 */\n      0x00\n        /* \"contracts/KajuswapRouter.sol\":2711:2718  path[0] */\n      dup2\n      dup2\n      lt\n      tag_112\n      jumpi\n      tag_113\n      tag_82\n      jump\t// in\n    tag_113:\n    tag_112:\n      swap1\n      pop\n      0x20\n      mul\n      add\n      0x20\n      dup2\n      add\n      swap1\n      tag_114\n      swap2\n      swap1\n      tag_88\n      jump\t// in\n    tag_114:\n        /* \"contracts/KajuswapRouter.sol\":2733:2743  msg.sender */\n      caller\n        /* \"contracts/KajuswapRouter.sol\":2758:2817  KajuswapLibrary.pairFor(address(factory), path[0], path[1]) */\n      tag_115\n        /* \"contracts/KajuswapRouter.sol\":2790:2797  factory */\n      0x00\n      dup1\n      sload\n      swap1\n      0x0100\n      exp\n      swap1\n      div\n      0xffffffffffffffffffffffffffffffffffffffff\n      and\n        /* \"contracts/KajuswapRouter.sol\":2800:2804  path */\n      dup9\n      dup9\n        /* \"contracts/KajuswapRouter.sol\":2805:2806  0 */\n      0x00\n        /* \"contracts/KajuswapRouter.sol\":2800:2807  path[0] */\n      dup2\n      dup2\n      lt\n      tag_116\n      jumpi\n      tag_117\n      tag_82\n      jump\t// in\n    tag_117:\n    tag_116:\n      swap1\n      pop\n      0x20\n      mul\n      add\n      0x20\n      dup2\n      add\n      swap1\n      tag_118\n      swap2\n      swap1\n      tag_88\n      jump\t// in\n    tag_118:\n        /* \"contracts/KajuswapRouter.sol\":2809:2813  path */\n      dup10\n      dup10\n        /* \"contracts/KajuswapRouter.sol\":2814:2815  1 */\n      0x01\n        /* \"contracts/KajuswapRouter.sol\":2809:2816  path[1] */\n      dup2\n      dup2\n      lt\n      tag_119\n      jumpi\n      tag_120\n      tag_82\n      jump\t// in\n    tag_120:\n    tag_119:\n      swap1\n      pop\n      0x20\n      mul\n      add\n      0x20\n      dup2\n      add\n      swap1\n      tag_121\n      swap2\n      swap1\n      tag_88\n      jump\t// in\n    tag_121:\n        /* \"contracts/KajuswapRouter.sol\":2758:2781  KajuswapLibrary.pairFor */\n      tag_96\n        /* \"contracts/KajuswapRouter.sol\":2758:2817  KajuswapLibrary.pairFor(address(factory), path[0], path[1]) */\n      jump\t// in\n    tag_115:\n        /* \"contracts/KajuswapRouter.sol\":2832:2839  amounts */\n      dup5\n        /* \"contracts/KajuswapRouter.sol\":2840:2841  0 */\n      0x00\n        /* \"contracts/KajuswapRouter.sol\":2832:2842  amounts[0] */\n      dup2\n      mload\n      dup2\n      lt\n      tag_122\n      jumpi\n      tag_123\n      tag_82\n      jump\t// in\n    tag_123:\n    tag_122:\n      0x20\n      mul\n      0x20\n      add\n      add\n      mload\n        /* \"contracts/KajuswapRouter.sol\":2679:2696  _safeTransferFrom */\n      tag_99\n        /* \"contracts/KajuswapRouter.sol\":2679:2853  _safeTransferFrom(... */\n      jump\t// in\n    tag_111:\n        /* \"contracts/KajuswapRouter.sol\":2864:2888  _swap(amounts, path, to) */\n      tag_124\n        /* \"contracts/KajuswapRouter.sol\":2870:2877  amounts */\n      dup2\n        /* \"contracts/KajuswapRouter.sol\":2879:2883  path */\n      dup6\n      dup6\n        /* \"contracts/KajuswapRouter.sol\":2864:2888  _swap(amounts, path, to) */\n      dup1\n      dup1\n      0x20\n      mul\n      0x20\n      add\n      mload(0x40)\n      swap1\n      dup2\n      add\n      0x40\n      mstore\n      dup1\n      swap4\n      swap3\n      swap2\n      swap1\n      dup2\n      dup2\n      mstore\n      0x20\n      add\n      dup4\n      dup4\n      0x20\n      mul\n      dup1\n      dup3\n      dup5\n      calldatacopy\n      0x00\n      dup2\n      dup5\n      add\n      mstore\n      not(0x1f)\n      0x1f\n      dup3\n      add\n      and\n      swap1\n      pop\n      dup1\n      dup4\n      add\n      swap3\n      pop\n      pop\n      pop\n      pop\n      pop\n      pop\n      pop\n        /* \"contracts/KajuswapRouter.sol\":2885:2887  to */\n      dup5\n        /* \"contracts/KajuswapRouter.sol\":2864:2869  _swap */\n      tag_101\n        /* \"contracts/KajuswapRouter.sol\":2864:2888  _swap(amounts, path, to) */\n      jump\t// in\n    tag_124:\n        /* \"contracts/KajuswapRouter.sol\":2233:2896  function swapExactTokensForTokens(... */\n      swap6\n      swap5\n      pop\n      pop\n      pop\n      pop\n      pop\n      jump\t// out\n        /* \"contracts/KajuswapRouter.sol\":6977:7216  function getAmountIn(... */\n    tag_36:\n        /* \"contracts/KajuswapRouter.sol\":7111:7127  uint256 amountIn */\n      0x00\n        /* \"contracts/KajuswapRouter.sol\":7147:7162  KajuswapLibrary */\n      linkerSymbol(\"18693c2782ae7b010cc3bd0449f436a78932852c600971ebfaa34cda17c779df\")\n        /* \"contracts/KajuswapRouter.sol\":7147:7174  KajuswapLibrary.getAmountIn */\n      0x85f8c259\n        /* \"contracts/KajuswapRouter.sol\":7175:7184  amountOut */\n      dup6\n        /* \"contracts/KajuswapRouter.sol\":7186:7195  reserveIn */\n      dup6\n        /* \"contracts/KajuswapRouter.sol\":7197:7207  reserveOut */\n      dup6\n        /* \"contracts/KajuswapRouter.sol\":7147:7208  KajuswapLibrary.getAmountIn(amountOut, reserveIn, reserveOut) */\n      mload(0x40)\n      dup5\n      0xffffffff\n      and\n      0xe0\n      shl\n      dup2\n      mstore\n      0x04\n      add\n      tag_126\n      swap4\n      swap3\n      swap2\n      swap1\n      tag_60\n      jump\t// in\n    tag_126:\n      0x20\n      mload(0x40)\n      dup1\n      dup4\n      sub\n      dup2\n      dup7\n      gas\n      delegatecall\n      iszero\n      dup1\n      iszero\n      tag_128\n      jumpi\n      returndatasize\n      0x00\n      dup1\n      returndatacopy\n      revert(0x00, returndatasize)\n    tag_128:\n      pop\n      pop\n      pop\n      pop\n      mload(0x40)\n      returndatasize\n      not(0x1f)\n      0x1f\n      dup3\n      add\n      and\n      dup3\n      add\n      dup1\n      0x40\n      mstore\n      pop\n      dup2\n      add\n      swap1\n      tag_129\n      swap2\n      swap1\n      tag_64\n      jump\t// in\n    tag_129:\n        /* \"contracts/KajuswapRouter.sol\":7140:7208  return KajuswapLibrary.getAmountIn(amountOut, reserveIn, reserveOut) */\n      swap1\n      pop\n        /* \"contracts/KajuswapRouter.sol\":6977:7216  function getAmountIn(... */\n      swap4\n      swap3\n      pop\n      pop\n      pop\n      jump\t// out\n        /* \"contracts/KajuswapRouter.sol\":6495:6721  function quote(... */\n    tag_40:\n        /* \"contracts/KajuswapRouter.sol\":6622:6639  uint256 amountOut */\n      0x00\n        /* \"contracts/KajuswapRouter.sol\":6659:6674  KajuswapLibrary */\n      linkerSymbol(\"18693c2782ae7b010cc3bd0449f436a78932852c600971ebfaa34cda17c779df\")\n        /* \"contracts/KajuswapRouter.sol\":6659:6680  KajuswapLibrary.quote */\n      0xad615dec\n        /* \"contracts/KajuswapRouter.sol\":6681:6689  amountIn */\n      dup6\n        /* \"contracts/KajuswapRouter.sol\":6691:6700  reserveIn */\n      dup6\n        /* \"contracts/KajuswapRouter.sol\":6702:6712  reserveOut */\n      dup6\n        /* \"contracts/KajuswapRouter.sol\":6659:6713  KajuswapLibrary.quote(amountIn, reserveIn, reserveOut) */\n      mload(0x40)\n      dup5\n      0xffffffff\n      and\n      0xe0\n      shl\n      dup2\n      mstore\n      0x04\n      add\n      tag_131\n      swap4\n      swap3\n      swap2\n      swap1\n      tag_60\n      jump\t// in\n    tag_131:\n      0x20\n      mload(0x40)\n      dup1\n      dup4\n      sub\n      dup2\n      dup7\n      gas\n      delegatecall\n      iszero\n      dup1\n      iszero\n      tag_133\n      jumpi\n      returndatasize\n      0x00\n      dup1\n      returndatacopy\n      revert(0x00, returndatasize)\n    tag_133:\n      pop\n      pop\n      pop\n      pop\n      mload(0x40)\n      returndatasize\n      not(0x1f)\n      0x1f\n      dup3\n      add\n      and\n      dup3\n      add\n      dup1\n      0x40\n      mstore\n      pop\n      dup2\n      add\n      swap1\n      tag_134\n      swap2\n      swap1\n      tag_64\n      jump\t// in\n    tag_134:\n        /* \"contracts/KajuswapRouter.sol\":6652:6713  return KajuswapLibrary.quote(amountIn, reserveIn, reserveOut) */\n      swap1\n      pop\n        /* \"contracts/KajuswapRouter.sol\":6495:6721  function quote(... */\n      swap4\n      swap3\n      pop\n      pop\n      pop\n      jump\t// out\n        /* \"contracts/KajuswapRouter.sol\":1583:2225  function removeLiquidity(... */\n    tag_45:\n        /* \"contracts/KajuswapRouter.sol\":1788:1803  uint256 amountA */\n      0x00\n        /* \"contracts/KajuswapRouter.sol\":1805:1820  uint256 amountB */\n      dup1\n        /* \"contracts/KajuswapRouter.sol\":1833:1845  address pair */\n      0x00\n        /* \"contracts/KajuswapRouter.sol\":1848:1955  KajuswapLibrary.pairFor(... */\n      tag_136\n        /* \"contracts/KajuswapRouter.sol\":1894:1901  factory */\n      0x00\n      dup1\n      sload\n      swap1\n      0x0100\n      exp\n      swap1\n      div\n      0xffffffffffffffffffffffffffffffffffffffff\n      and\n        /* \"contracts/KajuswapRouter.sol\":1917:1923  tokenA */\n      dup11\n        /* \"contracts/KajuswapRouter.sol\":1938:1944  tokenB */\n      dup11\n        /* \"contracts/KajuswapRouter.sol\":1848:1871  KajuswapLibrary.pairFor */\n      tag_96\n        /* \"contracts/KajuswapRouter.sol\":1848:1955  KajuswapLibrary.pairFor(... */\n      jump\t// in\n    tag_136:\n        /* \"contracts/KajuswapRouter.sol\":1833:1955  address pair = KajuswapLibrary.pairFor(... */\n      swap1\n      pop\n        /* \"contracts/KajuswapRouter.sol\":1980:1984  pair */\n      dup1\n        /* \"contracts/KajuswapRouter.sol\":1966:1998  IKajuswapPair(pair).transferFrom */\n      0xffffffffffffffffffffffffffffffffffffffff\n      and\n      0x23b872dd\n        /* \"contracts/KajuswapRouter.sol\":1999:2009  msg.sender */\n      caller\n        /* \"contracts/KajuswapRouter.sol\":2011:2015  pair */\n      dup4\n        /* \"contracts/KajuswapRouter.sol\":2017:2026  liquidity */\n      dup11\n        /* \"contracts/KajuswapRouter.sol\":1966:2027  IKajuswapPair(pair).transferFrom(msg.sender, pair, liquidity) */\n      mload(0x40)\n      dup5\n      0xffffffff\n      and\n      0xe0\n      shl\n      dup2\n      mstore\n      0x04\n      add\n      tag_137\n      swap4\n      swap3\n      swap2\n      swap1\n      tag_138\n      jump\t// in\n    tag_137:\n      0x20\n      mload(0x40)\n      dup1\n      dup4\n      sub\n      dup2\n      0x00\n      dup8\n      gas\n      call\n      iszero\n      dup1\n      iszero\n      tag_140\n      jumpi\n      returndatasize\n      0x00\n      dup1\n      returndatacopy\n      revert(0x00, returndatasize)\n    tag_140:\n      pop\n      pop\n      pop\n      pop\n      mload(0x40)\n      returndatasize\n      not(0x1f)\n      0x1f\n      dup3\n      add\n      and\n      dup3\n      add\n      dup1\n      0x40\n      mstore\n      pop\n      dup2\n      add\n      swap1\n      tag_141\n      swap2\n      swap1\n      tag_142\n      jump\t// in\n    tag_141:\n      pop\n        /* \"contracts/KajuswapRouter.sol\":2073:2077  pair */\n      dup1\n        /* \"contracts/KajuswapRouter.sol\":2059:2083  IKajuswapPair(pair).burn */\n      0xffffffffffffffffffffffffffffffffffffffff\n      and\n      0x89afcb44\n        /* \"contracts/KajuswapRouter.sol\":2084:2086  to */\n      dup6\n        /* \"contracts/KajuswapRouter.sol\":2059:2087  IKajuswapPair(pair).burn(to) */\n      mload(0x40)\n      dup3\n      0xffffffff\n      and\n      0xe0\n      shl\n      dup2\n      mstore\n      0x04\n      add\n      tag_143\n      swap2\n      swap1\n      tag_144\n      jump\t// in\n    tag_143:\n      0x40\n      dup1\n      mload\n      dup1\n      dup4\n      sub\n      dup2\n      0x00\n      dup8\n      gas\n      call\n      iszero\n      dup1\n      iszero\n      tag_146\n      jumpi\n      returndatasize\n      0x00\n      dup1\n      returndatacopy\n      revert(0x00, returndatasize)\n    tag_146:\n      pop\n      pop\n      pop\n      pop\n      mload(0x40)\n      returndatasize\n      not(0x1f)\n      0x1f\n      dup3\n      add\n      and\n      dup3\n      add\n      dup1\n      0x40\n      mstore\n      pop\n      dup2\n      add\n      swap1\n      tag_147\n      swap2\n      swap1\n      tag_148\n      jump\t// in\n    tag_147:\n        /* \"contracts/KajuswapRouter.sol\":2038:2087  (amountA, amountB) = IKajuswapPair(pair).burn(to) */\n      dup1\n      swap4\n      pop\n      dup2\n      swap5\n      pop\n      pop\n      pop\n        /* \"contracts/KajuswapRouter.sol\":2112:2122  amountAMin */\n      dup6\n        /* \"contracts/KajuswapRouter.sol\":2102:2109  amountA */\n      dup4\n        /* \"contracts/KajuswapRouter.sol\":2102:2122  amountA < amountAMin */\n      lt\n        /* \"contracts/KajuswapRouter.sol\":2098:2152  if (amountA < amountAMin) revert InsufficientAAmount() */\n      iszero\n      tag_149\n      jumpi\n        /* \"contracts/KajuswapRouter.sol\":2131:2152  InsufficientAAmount() */\n      mload(0x40)\n      0x8dc525d100000000000000000000000000000000000000000000000000000000\n      dup2\n      mstore\n      0x04\n      add\n      mload(0x40)\n      dup1\n      swap2\n      sub\n      swap1\n      revert\n        /* \"contracts/KajuswapRouter.sol\":2098:2152  if (amountA < amountAMin) revert InsufficientAAmount() */\n    tag_149:\n        /* \"contracts/KajuswapRouter.sol\":2177:2187  amountBMin */\n      dup5\n        /* \"contracts/KajuswapRouter.sol\":2167:2174  amountB */\n      dup3\n        /* \"contracts/KajuswapRouter.sol\":2167:2187  amountB < amountBMin */\n      lt\n        /* \"contracts/KajuswapRouter.sol\":2163:2217  if (amountB < amountBMin) revert InsufficientBAmount() */\n      iszero\n      tag_150\n      jumpi\n        /* \"contracts/KajuswapRouter.sol\":2196:2217  InsufficientBAmount() */\n      mload(0x40)\n      0xef71d09100000000000000000000000000000000000000000000000000000000\n      dup2\n      mstore\n      0x04\n      add\n      mload(0x40)\n      dup1\n      swap2\n      sub\n      swap1\n      revert\n        /* \"contracts/KajuswapRouter.sol\":2163:2217  if (amountB < amountBMin) revert InsufficientBAmount() */\n    tag_150:\n        /* \"contracts/KajuswapRouter.sol\":1822:2225  {... */\n      pop\n        /* \"contracts/KajuswapRouter.sol\":1583:2225  function removeLiquidity(... */\n      swap7\n      pop\n      swap7\n      swap5\n      pop\n      pop\n      pop\n      pop\n      pop\n      jump\t// out\n        /* \"contracts/KajuswapRouter.sol\":531:1575  function addLiquidity(... */\n    tag_51:\n        /* \"contracts/KajuswapRouter.sol\":803:818  uint256 amountA */\n      0x00\n        /* \"contracts/KajuswapRouter.sol\":833:848  uint256 amountB */\n      dup1\n        /* \"contracts/KajuswapRouter.sol\":863:880  uint256 liquidity */\n      0x00\n        /* \"contracts/KajuswapRouter.sol\":953:954  0 */\n      dup1\n        /* \"contracts/KajuswapRouter.sol\":912:955  factory.pairs(tokenA, tokenB) == address(0) */\n      0xffffffffffffffffffffffffffffffffffffffff\n      and\n        /* \"contracts/KajuswapRouter.sol\":912:919  factory */\n      0x00\n      dup1\n      sload\n      swap1\n      0x0100\n      exp\n      swap1\n      div\n      0xffffffffffffffffffffffffffffffffffffffff\n      and\n        /* \"contracts/KajuswapRouter.sol\":912:925  factory.pairs */\n      0xffffffffffffffffffffffffffffffffffffffff\n      and\n      0x69454b86\n        /* \"contracts/KajuswapRouter.sol\":926:932  tokenA */\n      dup13\n        /* \"contracts/KajuswapRouter.sol\":934:940  tokenB */\n      dup13\n        /* \"contracts/KajuswapRouter.sol\":912:941  factory.pairs(tokenA, tokenB) */\n      mload(0x40)\n      dup4\n      0xffffffff\n      and\n      0xe0\n      shl\n      dup2\n      mstore\n      0x04\n      add\n      tag_152\n      swap3\n      swap2\n      swap1\n      tag_153\n      jump\t// in\n    tag_152:\n      0x20\n      mload(0x40)\n      dup1\n      dup4\n      sub\n      dup2\n      dup7\n      gas\n      staticcall\n      iszero\n      dup1\n      iszero\n      tag_155\n      jumpi\n      returndatasize\n      0x00\n      dup1\n      returndatacopy\n      revert(0x00, returndatasize)\n    tag_155:\n      pop\n      pop\n      pop\n      pop\n      mload(0x40)\n      returndatasize\n      not(0x1f)\n      0x1f\n      dup3\n      add\n      and\n      dup3\n      add\n      dup1\n      0x40\n      mstore\n      pop\n      dup2\n      add\n      swap1\n      tag_156\n      swap2\n      swap1\n      tag_157\n      jump\t// in\n    tag_156:\n        /* \"contracts/KajuswapRouter.sol\":912:955  factory.pairs(tokenA, tokenB) == address(0) */\n      0xffffffffffffffffffffffffffffffffffffffff\n      and\n      eq\n        /* \"contracts/KajuswapRouter.sol\":908:1018  if (factory.pairs(tokenA, tokenB) == address(0)) {... */\n      iszero\n      tag_158\n      jumpi\n        /* \"contracts/KajuswapRouter.sol\":972:979  factory */\n      0x00\n      dup1\n      sload\n      swap1\n      0x0100\n      exp\n      swap1\n      div\n      0xffffffffffffffffffffffffffffffffffffffff\n      and\n        /* \"contracts/KajuswapRouter.sol\":972:990  factory.createPair */\n      0xffffffffffffffffffffffffffffffffffffffff\n      and\n      0xc9c65396\n        /* \"contracts/KajuswapRouter.sol\":991:997  tokenA */\n      dup12\n        /* \"contracts/KajuswapRouter.sol\":999:1005  tokenB */\n      dup12\n        /* \"contracts/KajuswapRouter.sol\":972:1006  factory.createPair(tokenA, tokenB) */\n      mload(0x40)\n      dup4\n      0xffffffff\n      and\n      0xe0\n      shl\n      dup2\n      mstore\n      0x04\n      add\n      tag_159\n      swap3\n      swap2\n      swap1\n      tag_153\n      jump\t// in\n    tag_159:\n      0x20\n      mload(0x40)\n      dup1\n      dup4\n      sub\n      dup2\n      0x00\n      dup8\n      gas\n      call\n      iszero\n      dup1\n      iszero\n      tag_161\n      jumpi\n      returndatasize\n      0x00\n      dup1\n      returndatacopy\n      revert(0x00, returndatasize)\n    tag_161:\n      pop\n      pop\n      pop\n      pop\n      mload(0x40)\n      returndatasize\n      not(0x1f)\n      0x1f\n      dup3\n      add\n      and\n      dup3\n      add\n      dup1\n      0x40\n      mstore\n      pop\n      dup2\n      add\n      swap1\n      tag_162\n      swap2\n      swap1\n      tag_157\n      jump\t// in\n    tag_162:\n      pop\n        /* \"contracts/KajuswapRouter.sol\":908:1018  if (factory.pairs(tokenA, tokenB) == address(0)) {... */\n    tag_158:\n        /* \"contracts/KajuswapRouter.sol\":1049:1229  _calculateLiquidity(... */\n      tag_163\n        /* \"contracts/KajuswapRouter.sol\":1083:1089  tokenA */\n      dup11\n        /* \"contracts/KajuswapRouter.sol\":1104:1110  tokenB */\n      dup11\n        /* \"contracts/KajuswapRouter.sol\":1125:1139  amountADesired */\n      dup11\n        /* \"contracts/KajuswapRouter.sol\":1154:1168  amountBDesired */\n      dup11\n        /* \"contracts/KajuswapRouter.sol\":1183:1193  amountAMin */\n      dup11\n        /* \"contracts/KajuswapRouter.sol\":1208:1218  amountBMin */\n      dup11\n        /* \"contracts/KajuswapRouter.sol\":1049:1068  _calculateLiquidity */\n      tag_164\n        /* \"contracts/KajuswapRouter.sol\":1049:1229  _calculateLiquidity(... */\n      jump\t// in\n    tag_163:\n        /* \"contracts/KajuswapRouter.sol\":1028:1229  (amountA, amountB) = _calculateLiquidity(... */\n      dup1\n      swap4\n      pop\n      dup2\n      swap5\n      pop\n      pop\n      pop\n        /* \"contracts/KajuswapRouter.sol\":1240:1259  address pairAddress */\n      0x00\n        /* \"contracts/KajuswapRouter.sol\":1262:1369  KajuswapLibrary.pairFor(... */\n      tag_165\n        /* \"contracts/KajuswapRouter.sol\":1308:1315  factory */\n      0x00\n      dup1\n      sload\n      swap1\n      0x0100\n      exp\n      swap1\n      div\n      0xffffffffffffffffffffffffffffffffffffffff\n      and\n        /* \"contracts/KajuswapRouter.sol\":1331:1337  tokenA */\n      dup13\n        /* \"contracts/KajuswapRouter.sol\":1352:1358  tokenB */\n      dup13\n        /* \"contracts/KajuswapRouter.sol\":1262:1285  KajuswapLibrary.pairFor */\n      tag_96\n        /* \"contracts/KajuswapRouter.sol\":1262:1369  KajuswapLibrary.pairFor(... */\n      jump\t// in\n    tag_165:\n        /* \"contracts/KajuswapRouter.sol\":1240:1369  address pairAddress = KajuswapLibrary.pairFor(... */\n      swap1\n      pop\n        /* \"contracts/KajuswapRouter.sol\":1380:1439  _safeTransferFrom(tokenA, msg.sender, pairAddress, amountA) */\n      tag_166\n        /* \"contracts/KajuswapRouter.sol\":1398:1404  tokenA */\n      dup12\n        /* \"contracts/KajuswapRouter.sol\":1406:1416  msg.sender */\n      caller\n        /* \"contracts/KajuswapRouter.sol\":1418:1429  pairAddress */\n      dup4\n        /* \"contracts/KajuswapRouter.sol\":1431:1438  amountA */\n      dup8\n        /* \"contracts/KajuswapRouter.sol\":1380:1397  _safeTransferFrom */\n      tag_99\n        /* \"contracts/KajuswapRouter.sol\":1380:1439  _safeTransferFrom(tokenA, msg.sender, pairAddress, amountA) */\n      jump\t// in\n    tag_166:\n        /* \"contracts/KajuswapRouter.sol\":1450:1509  _safeTransferFrom(tokenB, msg.sender, pairAddress, amountB) */\n      tag_167\n        /* \"contracts/KajuswapRouter.sol\":1468:1474  tokenB */\n      dup11\n        /* \"contracts/KajuswapRouter.sol\":1476:1486  msg.sender */\n      caller\n        /* \"contracts/KajuswapRouter.sol\":1488:1499  pairAddress */\n      dup4\n        /* \"contracts/KajuswapRouter.sol\":1501:1508  amountB */\n      dup7\n        /* \"contracts/KajuswapRouter.sol\":1450:1467  _safeTransferFrom */\n      tag_99\n        /* \"contracts/KajuswapRouter.sol\":1450:1509  _safeTransferFrom(tokenB, msg.sender, pairAddress, amountB) */\n      jump\t// in\n    tag_167:\n        /* \"contracts/KajuswapRouter.sol\":1546:1557  pairAddress */\n      dup1\n        /* \"contracts/KajuswapRouter.sol\":1532:1563  IKajuswapPair(pairAddress).mint */\n      0xffffffffffffffffffffffffffffffffffffffff\n      and\n      0x6a627842\n        /* \"contracts/KajuswapRouter.sol\":1564:1566  to */\n      dup7\n        /* \"contracts/KajuswapRouter.sol\":1532:1567  IKajuswapPair(pairAddress).mint(to) */\n      mload(0x40)\n      dup3\n      0xffffffff\n      and\n      0xe0\n      shl\n      dup2\n      mstore\n      0x04\n      add\n      tag_168\n      swap2\n      swap1\n      tag_144\n      jump\t// in\n    tag_168:\n      0x20\n      mload(0x40)\n      dup1\n      dup4\n      sub\n      dup2\n      0x00\n      dup8\n      gas\n      call\n      iszero\n      dup1\n      iszero\n      tag_170\n      jumpi\n      returndatasize\n      0x00\n      dup1\n      returndatacopy\n      revert(0x00, returndatasize)\n    tag_170:\n      pop\n      pop\n      pop\n      pop\n      mload(0x40)\n      returndatasize\n      not(0x1f)\n      0x1f\n      dup3\n      add\n      and\n      dup3\n      add\n      dup1\n      0x40\n      mstore\n      pop\n      dup2\n      add\n      swap1\n      tag_171\n      swap2\n      swap1\n      tag_64\n      jump\t// in\n    tag_171:\n        /* \"contracts/KajuswapRouter.sol\":1520:1567  liquidity = IKajuswapPair(pairAddress).mint(to) */\n      swap2\n      pop\n        /* \"contracts/KajuswapRouter.sol\":897:1575  {... */\n      pop\n        /* \"contracts/KajuswapRouter.sol\":531:1575  function addLiquidity(... */\n      swap8\n      pop\n      swap8\n      pop\n      swap8\n      swap5\n      pop\n      pop\n      pop\n      pop\n      pop\n      jump\t// out\n        /* \"contracts/KajuswapRouter.sol\":7224:7442  function getAmountsOut(uint256 amountIn, address[] memory path)... */\n    tag_56:\n        /* \"contracts/KajuswapRouter.sol\":7322:7346  uint256[] memory amounts */\n      0x60\n        /* \"contracts/KajuswapRouter.sol\":7371:7386  KajuswapLibrary */\n      linkerSymbol(\"18693c2782ae7b010cc3bd0449f436a78932852c600971ebfaa34cda17c779df\")\n        /* \"contracts/KajuswapRouter.sol\":7371:7400  KajuswapLibrary.getAmountsOut */\n      0xbb7b9c76\n        /* \"contracts/KajuswapRouter.sol\":7409:7416  factory */\n      0x00\n      dup1\n      sload\n      swap1\n      0x0100\n      exp\n      swap1\n      div\n      0xffffffffffffffffffffffffffffffffffffffff\n      and\n        /* \"contracts/KajuswapRouter.sol\":7419:7427  amountIn */\n      dup6\n        /* \"contracts/KajuswapRouter.sol\":7429:7433  path */\n      dup6\n        /* \"contracts/KajuswapRouter.sol\":7371:7434  KajuswapLibrary.getAmountsOut(address(factory), amountIn, path) */\n      mload(0x40)\n      dup5\n      0xffffffff\n      and\n      0xe0\n      shl\n      dup2\n      mstore\n      0x04\n      add\n      tag_173\n      swap4\n      swap3\n      swap2\n      swap1\n      tag_67\n      jump\t// in\n    tag_173:\n      0x00\n      mload(0x40)\n      dup1\n      dup4\n      sub\n      dup2\n      dup7\n      gas\n      delegatecall\n      iszero\n      dup1\n      iszero\n      tag_175\n      jumpi\n      returndatasize\n      0x00\n      dup1\n      returndatacopy\n      revert(0x00, returndatasize)\n    tag_175:\n      pop\n      pop\n      pop\n      pop\n      mload(0x40)\n      returndatasize\n      0x00\n      dup3\n      returndatacopy\n      returndatasize\n      not(0x1f)\n      0x1f\n      dup3\n      add\n      and\n      dup3\n      add\n      dup1\n      0x40\n      mstore\n      pop\n      dup2\n      add\n      swap1\n      tag_176\n      swap2\n      swap1\n      tag_71\n      jump\t// in\n    tag_176:\n        /* \"contracts/KajuswapRouter.sol\":7364:7434  return KajuswapLibrary.getAmountsOut(address(factory), amountIn, path) */\n      swap1\n      pop\n        /* \"contracts/KajuswapRouter.sol\":7224:7442  function getAmountsOut(uint256 amountIn, address[] memory path)... */\n      swap3\n      swap2\n      pop\n      pop\n      jump\t// out\n        /* \"contracts/KajuswapLibrary.sol\":1282:2235  function pairFor(... */\n    tag_96:\n        /* \"contracts/KajuswapLibrary.sol\":1412:1431  address pairAddress */\n      0x00\n        /* \"contracts/KajuswapLibrary.sol\":1445:1459  address token0 */\n      dup1\n        /* \"contracts/KajuswapLibrary.sol\":1461:1475  address token1 */\n      0x00\n        /* \"contracts/KajuswapLibrary.sol\":1479:1505  sortTokens(tokenA, tokenB) */\n      tag_178\n        /* \"contracts/KajuswapLibrary.sol\":1490:1496  tokenA */\n      dup6\n        /* \"contracts/KajuswapLibrary.sol\":1498:1504  tokenB */\n      dup6\n        /* \"contracts/KajuswapLibrary.sol\":1479:1489  sortTokens */\n      tag_179\n        /* \"contracts/KajuswapLibrary.sol\":1479:1505  sortTokens(tokenA, tokenB) */\n      jump\t// in\n    tag_178:\n        /* \"contracts/KajuswapLibrary.sol\":1444:1505  (address token0, address token1) = sortTokens(tokenA, tokenB) */\n      swap2\n      pop\n      swap2\n      pop\n        /* \"contracts/KajuswapLibrary.sol\":1902:1916  factoryAddress */\n      dup6\n        /* \"contracts/KajuswapLibrary.sol\":1974:1980  token0 */\n      dup3\n        /* \"contracts/KajuswapLibrary.sol\":1982:1988  token1 */\n      dup3\n        /* \"contracts/KajuswapLibrary.sol\":1957:1989  abi.encodePacked(token0, token1) */\n      add(0x20, mload(0x40))\n      tag_180\n      swap3\n      swap2\n      swap1\n      tag_181\n      jump\t// in\n    tag_180:\n      mload(0x40)\n      0x20\n      dup2\n      dup4\n      sub\n      sub\n      dup2\n      mstore\n      swap1\n      0x40\n      mstore\n        /* \"contracts/KajuswapLibrary.sol\":1947:1990  keccak256(abi.encodePacked(token0, token1)) */\n      dup1\n      mload\n      swap1\n      0x20\n      add\n      keccak256\n        /* \"contracts/KajuswapLibrary.sol\":1817:2159  abi.encodePacked(... */\n      add(0x20, mload(0x40))\n      tag_182\n      swap3\n      swap2\n      swap1\n      tag_183\n      jump\t// in\n    tag_182:\n      mload(0x40)\n      0x20\n      dup2\n      dup4\n      sub\n      sub\n      dup2\n      mstore\n      swap1\n      0x40\n      mstore\n        /* \"contracts/KajuswapLibrary.sol\":1781:2182  keccak256(... */\n      dup1\n      mload\n      swap1\n      0x20\n      add\n      keccak256\n        /* \"contracts/KajuswapLibrary.sol\":1751:2201  uint256(... */\n      0x00\n      shr\n        /* \"contracts/KajuswapLibrary.sol\":1689:2227  pairAddress = address(... */\n      swap3\n      pop\n        /* \"contracts/KajuswapLibrary.sol\":1433:2235  {... */\n      pop\n      pop\n        /* \"contracts/KajuswapLibrary.sol\":1282:2235  function pairFor(... */\n      swap4\n      swap3\n      pop\n      pop\n      pop\n      jump\t// out\n        /* \"contracts/KajuswapRouter.sol\":5915:6420  function _safeTransferFrom(... */\n    tag_99:\n        /* \"contracts/KajuswapRouter.sol\":6061:6073  bool success */\n      0x00\n        /* \"contracts/KajuswapRouter.sol\":6075:6092  bytes memory data */\n      dup1\n        /* \"contracts/KajuswapRouter.sol\":6096:6101  token */\n      dup6\n        /* \"contracts/KajuswapRouter.sol\":6096:6106  token.call */\n      0xffffffffffffffffffffffffffffffffffffffff\n      and\n        /* \"contracts/KajuswapRouter.sol\":6221:6225  from */\n      dup6\n        /* \"contracts/KajuswapRouter.sol\":6244:6246  to */\n      dup6\n        /* \"contracts/KajuswapRouter.sol\":6265:6270  value */\n      dup6\n        /* \"contracts/KajuswapRouter.sol\":6121:6285  abi.encodeWithSignature(... */\n      add(0x24, mload(0x40))\n      tag_185\n      swap4\n      swap3\n      swap2\n      swap1\n      tag_138\n      jump\t// in\n    tag_185:\n      mload(0x40)\n      0x20\n      dup2\n      dup4\n      sub\n      sub\n      dup2\n      mstore\n      swap1\n      0x40\n      mstore\n      and(not(0xffffffffffffffffffffffffffffffffffffffffffffffffffffffff), 0x23b872dd00000000000000000000000000000000000000000000000000000000)\n      0x20\n      dup3\n      add\n      dup1\n      mload\n      0xffffffffffffffffffffffffffffffffffffffffffffffffffffffff\n      dup4\n      dup2\n      dup4\n      and\n      or\n      dup4\n      mstore\n      pop\n      pop\n      pop\n      pop\n        /* \"contracts/KajuswapRouter.sol\":6096:6296  token.call(... */\n      mload(0x40)\n      tag_186\n      swap2\n      swap1\n      tag_187\n      jump\t// in\n    tag_186:\n      0x00\n      mload(0x40)\n      dup1\n      dup4\n      sub\n      dup2\n      0x00\n      dup7\n      gas\n      call\n      swap2\n      pop\n      pop\n      returndatasize\n      dup1\n      0x00\n      dup2\n      eq\n      tag_190\n      jumpi\n      mload(0x40)\n      swap2\n      pop\n      and(add(returndatasize, 0x3f), not(0x1f))\n      dup3\n      add\n      0x40\n      mstore\n      returndatasize\n      dup3\n      mstore\n      returndatasize\n      0x00\n      0x20\n      dup5\n      add\n      returndatacopy\n      jump(tag_189)\n    tag_190:\n      0x60\n      swap2\n      pop\n    tag_189:\n      pop\n        /* \"contracts/KajuswapRouter.sol\":6060:6296  (bool success, bytes memory data) = token.call(... */\n      swap2\n      pop\n      swap2\n      pop\n        /* \"contracts/KajuswapRouter.sol\":6312:6319  success */\n      dup2\n        /* \"contracts/KajuswapRouter.sol\":6311:6319  !success */\n      iszero\n        /* \"contracts/KajuswapRouter.sol\":6311:6370  !success || (data.length != 0 && !abi.decode(data, (bool))) */\n      dup1\n      tag_191\n      jumpi\n      pop\n        /* \"contracts/KajuswapRouter.sol\":6339:6340  0 */\n      0x00\n        /* \"contracts/KajuswapRouter.sol\":6324:6328  data */\n      dup2\n        /* \"contracts/KajuswapRouter.sol\":6324:6335  data.length */\n      mload\n        /* \"contracts/KajuswapRouter.sol\":6324:6340  data.length != 0 */\n      eq\n      iszero\n        /* \"contracts/KajuswapRouter.sol\":6324:6369  data.length != 0 && !abi.decode(data, (bool)) */\n      dup1\n      iszero\n      tag_192\n      jumpi\n      pop\n        /* \"contracts/KajuswapRouter.sol\":6356:6360  data */\n      dup1\n        /* \"contracts/KajuswapRouter.sol\":6345:6369  abi.decode(data, (bool)) */\n      dup1\n      0x20\n      add\n      swap1\n      mload\n      dup2\n      add\n      swap1\n      tag_193\n      swap2\n      swap1\n      tag_142\n      jump\t// in\n    tag_193:\n        /* \"contracts/KajuswapRouter.sol\":6344:6369  !abi.decode(data, (bool)) */\n      iszero\n        /* \"contracts/KajuswapRouter.sol\":6324:6369  data.length != 0 && !abi.decode(data, (bool)) */\n    tag_192:\n        /* \"contracts/KajuswapRouter.sol\":6311:6370  !success || (data.length != 0 && !abi.decode(data, (bool))) */\n    tag_191:\n        /* \"contracts/KajuswapRouter.sol\":6307:6412  if (!success || (data.length != 0 && !abi.decode(data, (bool))))... */\n      iszero\n      tag_194\n      jumpi\n        /* \"contracts/KajuswapRouter.sol\":6392:6412  SafeTransferFailed() */\n      mload(0x40)\n      0xfb7f507900000000000000000000000000000000000000000000000000000000\n      dup2\n      mstore\n      0x04\n      add\n      mload(0x40)\n      dup1\n      swap2\n      sub\n      swap1\n      revert\n        /* \"contracts/KajuswapRouter.sol\":6307:6412  if (!success || (data.length != 0 && !abi.decode(data, (bool))))... */\n    tag_194:\n        /* \"contracts/KajuswapRouter.sol\":6049:6420  {... */\n      pop\n      pop\n        /* \"contracts/KajuswapRouter.sol\":5915:6420  function _safeTransferFrom(... */\n      pop\n      pop\n      pop\n      pop\n      jump\t// out\n        /* \"contracts/KajuswapRouter.sol\":3637:4492  function _swap(... */\n    tag_101:\n        /* \"contracts/KajuswapRouter.sol\":3773:3782  uint256 i */\n      0x00\n        /* \"contracts/KajuswapRouter.sol\":3768:4485  for (uint256 i = 0; i < path.length - 1; i++) {... */\n    tag_196:\n        /* \"contracts/KajuswapRouter.sol\":3806:3807  1 */\n      0x01\n        /* \"contracts/KajuswapRouter.sol\":3792:3796  path */\n      dup4\n        /* \"contracts/KajuswapRouter.sol\":3792:3803  path.length */\n      mload\n        /* \"contracts/KajuswapRouter.sol\":3792:3807  path.length - 1 */\n      tag_199\n      swap2\n      swap1\n      tag_79\n      jump\t// in\n    tag_199:\n        /* \"contracts/KajuswapRouter.sol\":3788:3789  i */\n      dup2\n        /* \"contracts/KajuswapRouter.sol\":3788:3807  i < path.length - 1 */\n      lt\n        /* \"contracts/KajuswapRouter.sol\":3768:4485  for (uint256 i = 0; i < path.length - 1; i++) {... */\n      iszero\n      tag_197\n      jumpi\n        /* \"contracts/KajuswapRouter.sol\":3830:3843  address input */\n      0x00\n        /* \"contracts/KajuswapRouter.sol\":3845:3859  address output */\n      dup1\n        /* \"contracts/KajuswapRouter.sol\":3864:3868  path */\n      dup5\n        /* \"contracts/KajuswapRouter.sol\":3869:3870  i */\n      dup4\n        /* \"contracts/KajuswapRouter.sol\":3864:3871  path[i] */\n      dup2\n      mload\n      dup2\n      lt\n      tag_200\n      jumpi\n      tag_201\n      tag_82\n      jump\t// in\n    tag_201:\n    tag_200:\n      0x20\n      mul\n      0x20\n      add\n      add\n      mload\n        /* \"contracts/KajuswapRouter.sol\":3873:3877  path */\n      dup6\n        /* \"contracts/KajuswapRouter.sol\":3882:3883  1 */\n      0x01\n        /* \"contracts/KajuswapRouter.sol\":3878:3879  i */\n      dup6\n        /* \"contracts/KajuswapRouter.sol\":3878:3883  i + 1 */\n      tag_202\n      swap2\n      swap1\n      tag_203\n      jump\t// in\n    tag_202:\n        /* \"contracts/KajuswapRouter.sol\":3873:3884  path[i + 1] */\n      dup2\n      mload\n      dup2\n      lt\n      tag_204\n      jumpi\n      tag_205\n      tag_82\n      jump\t// in\n    tag_205:\n    tag_204:\n      0x20\n      mul\n      0x20\n      add\n      add\n      mload\n        /* \"contracts/KajuswapRouter.sol\":3829:3885  (address input, address output) = (path[i], path[i + 1]) */\n      swap2\n      pop\n      swap2\n      pop\n        /* \"contracts/KajuswapRouter.sol\":3901:3915  address token0 */\n      0x00\n        /* \"contracts/KajuswapRouter.sol\":3921:3962  KajuswapLibrary.sortTokens(input, output) */\n      tag_206\n        /* \"contracts/KajuswapRouter.sol\":3948:3953  input */\n      dup4\n        /* \"contracts/KajuswapRouter.sol\":3955:3961  output */\n      dup4\n        /* \"contracts/KajuswapRouter.sol\":3921:3947  KajuswapLibrary.sortTokens */\n      tag_179\n        /* \"contracts/KajuswapRouter.sol\":3921:3962  KajuswapLibrary.sortTokens(input, output) */\n      jump\t// in\n    tag_206:\n        /* \"contracts/KajuswapRouter.sol\":3900:3962  (address token0, ) = KajuswapLibrary.sortTokens(input, output) */\n      pop\n      swap1\n      pop\n        /* \"contracts/KajuswapRouter.sol\":3977:3994  uint256 amountOut */\n      0x00\n        /* \"contracts/KajuswapRouter.sol\":3997:4004  amounts */\n      dup8\n        /* \"contracts/KajuswapRouter.sol\":4009:4010  1 */\n      0x01\n        /* \"contracts/KajuswapRouter.sol\":4005:4006  i */\n      dup7\n        /* \"contracts/KajuswapRouter.sol\":4005:4010  i + 1 */\n      tag_207\n      swap2\n      swap1\n      tag_203\n      jump\t// in\n    tag_207:\n        /* \"contracts/KajuswapRouter.sol\":3997:4011  amounts[i + 1] */\n      dup2\n      mload\n      dup2\n      lt\n      tag_208\n      jumpi\n      tag_209\n      tag_82\n      jump\t// in\n    tag_209:\n    tag_208:\n      0x20\n      mul\n      0x20\n      add\n      add\n      mload\n        /* \"contracts/KajuswapRouter.sol\":3977:4011  uint256 amountOut = amounts[i + 1] */\n      swap1\n      pop\n        /* \"contracts/KajuswapRouter.sol\":4027:4045  uint256 amount0Out */\n      0x00\n        /* \"contracts/KajuswapRouter.sol\":4047:4065  uint256 amount1Out */\n      dup1\n        /* \"contracts/KajuswapRouter.sol\":4078:4084  token0 */\n      dup4\n        /* \"contracts/KajuswapRouter.sol\":4069:4084  input == token0 */\n      0xffffffffffffffffffffffffffffffffffffffff\n      and\n        /* \"contracts/KajuswapRouter.sol\":4069:4074  input */\n      dup7\n        /* \"contracts/KajuswapRouter.sol\":4069:4084  input == token0 */\n      0xffffffffffffffffffffffffffffffffffffffff\n      and\n      eq\n        /* \"contracts/KajuswapRouter.sol\":4069:4170  input == token0... */\n      tag_210\n      jumpi\n        /* \"contracts/KajuswapRouter.sol\":4148:4157  amountOut */\n      dup3\n        /* \"contracts/KajuswapRouter.sol\":4167:4168  0 */\n      0x00\n        /* \"contracts/KajuswapRouter.sol\":4069:4170  input == token0... */\n      jump(tag_211)\n    tag_210:\n        /* \"contracts/KajuswapRouter.sol\":4113:4114  0 */\n      0x00\n        /* \"contracts/KajuswapRouter.sol\":4117:4126  amountOut */\n      dup4\n        /* \"contracts/KajuswapRouter.sol\":4069:4170  input == token0... */\n    tag_211:\n        /* \"contracts/KajuswapRouter.sol\":4026:4170  (uint256 amount0Out, uint256 amount1Out) = input == token0... */\n      swap2\n      pop\n      swap2\n      pop\n        /* \"contracts/KajuswapRouter.sol\":4185:4195  address to */\n      0x00\n        /* \"contracts/KajuswapRouter.sol\":4216:4217  2 */\n      0x02\n        /* \"contracts/KajuswapRouter.sol\":4202:4206  path */\n      dup11\n        /* \"contracts/KajuswapRouter.sol\":4202:4213  path.length */\n      mload\n        /* \"contracts/KajuswapRouter.sol\":4202:4217  path.length - 2 */\n      tag_212\n      swap2\n      swap1\n      tag_79\n      jump\t// in\n    tag_212:\n        /* \"contracts/KajuswapRouter.sol\":4198:4199  i */\n      dup9\n        /* \"contracts/KajuswapRouter.sol\":4198:4217  i < path.length - 2 */\n      lt\n        /* \"contracts/KajuswapRouter.sol\":4198:4322  i < path.length - 2... */\n      tag_213\n      jumpi\n        /* \"contracts/KajuswapRouter.sol\":4319:4322  to_ */\n      dup9\n        /* \"contracts/KajuswapRouter.sol\":4198:4322  i < path.length - 2... */\n      jump(tag_214)\n    tag_213:\n        /* \"contracts/KajuswapRouter.sol\":4237:4299  KajuswapLibrary.pairFor(address(factory), output, path[i + 2]) */\n      tag_215\n        /* \"contracts/KajuswapRouter.sol\":4269:4276  factory */\n      0x00\n      dup1\n      sload\n      swap1\n      0x0100\n      exp\n      swap1\n      div\n      0xffffffffffffffffffffffffffffffffffffffff\n      and\n        /* \"contracts/KajuswapRouter.sol\":4279:4285  output */\n      dup8\n        /* \"contracts/KajuswapRouter.sol\":4287:4291  path */\n      dup13\n        /* \"contracts/KajuswapRouter.sol\":4296:4297  2 */\n      0x02\n        /* \"contracts/KajuswapRouter.sol\":4292:4293  i */\n      dup13\n        /* \"contracts/KajuswapRouter.sol\":4292:4297  i + 2 */\n      tag_216\n      swap2\n      swap1\n      tag_203\n      jump\t// in\n    tag_216:\n        /* \"contracts/KajuswapRouter.sol\":4287:4298  path[i + 2] */\n      dup2\n      mload\n      dup2\n      lt\n      tag_217\n      jumpi\n      tag_218\n      tag_82\n      jump\t// in\n    tag_218:\n    tag_217:\n      0x20\n      mul\n      0x20\n      add\n      add\n      mload\n        /* \"contracts/KajuswapRouter.sol\":4237:4260  KajuswapLibrary.pairFor */\n      tag_96\n        /* \"contracts/KajuswapRouter.sol\":4237:4299  KajuswapLibrary.pairFor(address(factory), output, path[i + 2]) */\n      jump\t// in\n    tag_215:\n        /* \"contracts/KajuswapRouter.sol\":4198:4322  i < path.length - 2... */\n    tag_214:\n        /* \"contracts/KajuswapRouter.sol\":4185:4322  address to = i < path.length - 2... */\n      swap1\n      pop\n        /* \"contracts/KajuswapRouter.sol\":4369:4425  KajuswapLibrary.pairFor(address(factory), input, output) */\n      tag_219\n        /* \"contracts/KajuswapRouter.sol\":4401:4408  factory */\n      0x00\n      dup1\n      sload\n      swap1\n      0x0100\n      exp\n      swap1\n      div\n      0xffffffffffffffffffffffffffffffffffffffff\n      and\n        /* \"contracts/KajuswapRouter.sol\":4411:4416  input */\n      dup9\n        /* \"contracts/KajuswapRouter.sol\":4418:4424  output */\n      dup9\n        /* \"contracts/KajuswapRouter.sol\":4369:4392  KajuswapLibrary.pairFor */\n      tag_96\n        /* \"contracts/KajuswapRouter.sol\":4369:4425  KajuswapLibrary.pairFor(address(factory), input, output) */\n      jump\t// in\n    tag_219:\n        /* \"contracts/KajuswapRouter.sol\":4337:4445  IKajuswapPair(... */\n      0xffffffffffffffffffffffffffffffffffffffff\n      and\n      0x6d9a640a\n        /* \"contracts/KajuswapRouter.sol\":4446:4456  amount0Out */\n      dup5\n        /* \"contracts/KajuswapRouter.sol\":4458:4468  amount1Out */\n      dup5\n        /* \"contracts/KajuswapRouter.sol\":4470:4472  to */\n      dup5\n        /* \"contracts/KajuswapRouter.sol\":4337:4473  IKajuswapPair(... */\n      mload(0x40)\n      dup5\n      0xffffffff\n      and\n      0xe0\n      shl\n      dup2\n      mstore\n      0x04\n      add\n      tag_220\n      swap4\n      swap3\n      swap2\n      swap1\n      tag_221\n      jump\t// in\n    tag_220:\n      0x00\n      mload(0x40)\n      dup1\n      dup4\n      sub\n      dup2\n      0x00\n      dup8\n      dup1\n      extcodesize\n      iszero\n      dup1\n      iszero\n      tag_222\n      jumpi\n      0x00\n      dup1\n      revert\n    tag_222:\n      pop\n      gas\n      call\n      iszero\n      dup1\n      iszero\n      tag_224\n      jumpi\n      returndatasize\n      0x00\n      dup1\n      returndatacopy\n      revert(0x00, returndatasize)\n    tag_224:\n      pop\n      pop\n      pop\n      pop\n        /* \"contracts/KajuswapRouter.sol\":3814:4485  {... */\n      pop\n      pop\n      pop\n      pop\n      pop\n      pop\n      pop\n        /* \"contracts/KajuswapRouter.sol\":3809:3812  i++ */\n      dup1\n      dup1\n      tag_225\n      swap1\n      tag_226\n      jump\t// in\n    tag_225:\n      swap2\n      pop\n      pop\n        /* \"contracts/KajuswapRouter.sol\":3768:4485  for (uint256 i = 0; i < path.length - 1; i++) {... */\n      jump(tag_196)\n    tag_197:\n      pop\n        /* \"contracts/KajuswapRouter.sol\":3637:4492  function _swap(... */\n      pop\n      pop\n      pop\n      jump\t// out\n        /* \"contracts/KajuswapRouter.sol\":4500:5907  function _calculateLiquidity(... */\n    tag_164:\n        /* \"contracts/KajuswapRouter.sol\":4728:4743  uint256 amountA */\n      0x00\n        /* \"contracts/KajuswapRouter.sol\":4745:4760  uint256 amountB */\n      dup1\n        /* \"contracts/KajuswapRouter.sol\":4774:4790  uint256 reserveA */\n      0x00\n        /* \"contracts/KajuswapRouter.sol\":4792:4808  uint256 reserveB */\n      dup1\n        /* \"contracts/KajuswapRouter.sol\":4812:4827  KajuswapLibrary */\n      linkerSymbol(\"18693c2782ae7b010cc3bd0449f436a78932852c600971ebfaa34cda17c779df\")\n        /* \"contracts/KajuswapRouter.sol\":4812:4839  KajuswapLibrary.getReserves */\n      0x32749461\n        /* \"contracts/KajuswapRouter.sol\":4862:4869  factory */\n      0x00\n      dup1\n      sload\n      swap1\n      0x0100\n      exp\n      swap1\n      div\n      0xffffffffffffffffffffffffffffffffffffffff\n      and\n        /* \"contracts/KajuswapRouter.sol\":4885:4891  tokenA */\n      dup13\n        /* \"contracts/KajuswapRouter.sol\":4906:4912  tokenB */\n      dup13\n        /* \"contracts/KajuswapRouter.sol\":4812:4923  KajuswapLibrary.getReserves(... */\n      mload(0x40)\n      dup5\n      0xffffffff\n      and\n      0xe0\n      shl\n      dup2\n      mstore\n      0x04\n      add\n      tag_228\n      swap4\n      swap3\n      swap2\n      swap1\n      tag_229\n      jump\t// in\n    tag_228:\n      0x40\n      dup1\n      mload\n      dup1\n      dup4\n      sub\n      dup2\n      dup7\n      gas\n      delegatecall\n      iszero\n      dup1\n      iszero\n      tag_231\n      jumpi\n      returndatasize\n      0x00\n      dup1\n      returndatacopy\n      revert(0x00, returndatasize)\n    tag_231:\n      pop\n      pop\n      pop\n      pop\n      mload(0x40)\n      returndatasize\n      not(0x1f)\n      0x1f\n      dup3\n      add\n      and\n      dup3\n      add\n      dup1\n      0x40\n      mstore\n      pop\n      dup2\n      add\n      swap1\n      tag_232\n      swap2\n      swap1\n      tag_148\n      jump\t// in\n    tag_232:\n        /* \"contracts/KajuswapRouter.sol\":4773:4923  (uint256 reserveA, uint256 reserveB) = KajuswapLibrary.getReserves(... */\n      swap2\n      pop\n      swap2\n      pop\n        /* \"contracts/KajuswapRouter.sol\":4952:4953  0 */\n      0x00\n        /* \"contracts/KajuswapRouter.sol\":4940:4948  reserveA */\n      dup3\n        /* \"contracts/KajuswapRouter.sol\":4940:4953  reserveA == 0 */\n      eq\n        /* \"contracts/KajuswapRouter.sol\":4940:4970  reserveA == 0 && reserveB == 0 */\n      dup1\n      iszero\n      tag_233\n      jumpi\n      pop\n        /* \"contracts/KajuswapRouter.sol\":4969:4970  0 */\n      0x00\n        /* \"contracts/KajuswapRouter.sol\":4957:4965  reserveB */\n      dup2\n        /* \"contracts/KajuswapRouter.sol\":4957:4970  reserveB == 0 */\n      eq\n        /* \"contracts/KajuswapRouter.sol\":4940:4970  reserveA == 0 && reserveB == 0 */\n    tag_233:\n        /* \"contracts/KajuswapRouter.sol\":4936:5900  if (reserveA == 0 && reserveB == 0) {... */\n      iszero\n      tag_234\n      jumpi\n        /* \"contracts/KajuswapRouter.sol\":5009:5023  amountADesired */\n      dup8\n        /* \"contracts/KajuswapRouter.sol\":5025:5039  amountBDesired */\n      dup8\n        /* \"contracts/KajuswapRouter.sol\":4987:5040  (amountA, amountB) = (amountADesired, amountBDesired) */\n      dup1\n      swap5\n      pop\n      dup2\n      swap6\n      pop\n      pop\n      pop\n        /* \"contracts/KajuswapRouter.sol\":4936:5900  if (reserveA == 0 && reserveB == 0) {... */\n      jump(tag_235)\n    tag_234:\n        /* \"contracts/KajuswapRouter.sol\":5073:5095  uint256 amountBOptimal */\n      0x00\n        /* \"contracts/KajuswapRouter.sol\":5098:5113  KajuswapLibrary */\n      linkerSymbol(\"18693c2782ae7b010cc3bd0449f436a78932852c600971ebfaa34cda17c779df\")\n        /* \"contracts/KajuswapRouter.sol\":5098:5119  KajuswapLibrary.quote */\n      0xad615dec\n        /* \"contracts/KajuswapRouter.sol\":5138:5152  amountADesired */\n      dup11\n        /* \"contracts/KajuswapRouter.sol\":5171:5179  reserveA */\n      dup6\n        /* \"contracts/KajuswapRouter.sol\":5198:5206  reserveB */\n      dup6\n        /* \"contracts/KajuswapRouter.sol\":5098:5221  KajuswapLibrary.quote(... */\n      mload(0x40)\n      dup5\n      0xffffffff\n      and\n      0xe0\n      shl\n      dup2\n      mstore\n      0x04\n      add\n      tag_236\n      swap4\n      swap3\n      swap2\n      swap1\n      tag_60\n      jump\t// in\n    tag_236:\n      0x20\n      mload(0x40)\n      dup1\n      dup4\n      sub\n      dup2\n      dup7\n      gas\n      delegatecall\n      iszero\n      dup1\n      iszero\n      tag_238\n      jumpi\n      returndatasize\n      0x00\n      dup1\n      returndatacopy\n      revert(0x00, returndatasize)\n    tag_238:\n      pop\n      pop\n      pop\n      pop\n      mload(0x40)\n      returndatasize\n      not(0x1f)\n      0x1f\n      dup3\n      add\n      and\n      dup3\n      add\n      dup1\n      0x40\n      mstore\n      pop\n      dup2\n      add\n      swap1\n      tag_239\n      swap2\n      swap1\n      tag_64\n      jump\t// in\n    tag_239:\n        /* \"contracts/KajuswapRouter.sol\":5073:5221  uint256 amountBOptimal = KajuswapLibrary.quote(... */\n      swap1\n      pop\n        /* \"contracts/KajuswapRouter.sol\":5285:5299  amountBDesired */\n      dup8\n        /* \"contracts/KajuswapRouter.sol\":5267:5281  amountBOptimal */\n      dup2\n        /* \"contracts/KajuswapRouter.sol\":5267:5299  amountBOptimal <= amountBDesired */\n      gt\n        /* \"contracts/KajuswapRouter.sol\":5263:5889  if (amountBOptimal <= amountBDesired) {... */\n      tag_240\n      jumpi\n        /* \"contracts/KajuswapRouter.sol\":5342:5352  amountBMin */\n      dup6\n        /* \"contracts/KajuswapRouter.sol\":5324:5338  amountBOptimal */\n      dup2\n        /* \"contracts/KajuswapRouter.sol\":5324:5352  amountBOptimal <= amountBMin */\n      gt\n        /* \"contracts/KajuswapRouter.sol\":5320:5382  if (amountBOptimal <= amountBMin) revert InsufficientBAmount() */\n      tag_241\n      jumpi\n        /* \"contracts/KajuswapRouter.sol\":5361:5382  InsufficientBAmount() */\n      mload(0x40)\n      0xef71d09100000000000000000000000000000000000000000000000000000000\n      dup2\n      mstore\n      0x04\n      add\n      mload(0x40)\n      dup1\n      swap2\n      sub\n      swap1\n      revert\n        /* \"contracts/KajuswapRouter.sol\":5320:5382  if (amountBOptimal <= amountBMin) revert InsufficientBAmount() */\n    tag_241:\n        /* \"contracts/KajuswapRouter.sol\":5423:5437  amountADesired */\n      dup9\n        /* \"contracts/KajuswapRouter.sol\":5439:5453  amountBOptimal */\n      dup2\n        /* \"contracts/KajuswapRouter.sol\":5401:5454  (amountA, amountB) = (amountADesired, amountBOptimal) */\n      dup1\n      swap6\n      pop\n      dup2\n      swap7\n      pop\n      pop\n      pop\n        /* \"contracts/KajuswapRouter.sol\":5263:5889  if (amountBOptimal <= amountBDesired) {... */\n      jump(tag_242)\n    tag_240:\n        /* \"contracts/KajuswapRouter.sol\":5495:5517  uint256 amountAOptimal */\n      0x00\n        /* \"contracts/KajuswapRouter.sol\":5520:5535  KajuswapLibrary */\n      linkerSymbol(\"18693c2782ae7b010cc3bd0449f436a78932852c600971ebfaa34cda17c779df\")\n        /* \"contracts/KajuswapRouter.sol\":5520:5541  KajuswapLibrary.quote */\n      0xad615dec\n        /* \"contracts/KajuswapRouter.sol\":5564:5578  amountBDesired */\n      dup11\n        /* \"contracts/KajuswapRouter.sol\":5601:5609  reserveB */\n      dup6\n        /* \"contracts/KajuswapRouter.sol\":5632:5640  reserveA */\n      dup8\n        /* \"contracts/KajuswapRouter.sol\":5520:5659  KajuswapLibrary.quote(... */\n      mload(0x40)\n      dup5\n      0xffffffff\n      and\n      0xe0\n      shl\n      dup2\n      mstore\n      0x04\n      add\n      tag_243\n      swap4\n      swap3\n      swap2\n      swap1\n      tag_60\n      jump\t// in\n    tag_243:\n      0x20\n      mload(0x40)\n      dup1\n      dup4\n      sub\n      dup2\n      dup7\n      gas\n      delegatecall\n      iszero\n      dup1\n      iszero\n      tag_245\n      jumpi\n      returndatasize\n      0x00\n      dup1\n      returndatacopy\n      revert(0x00, returndatasize)\n    tag_245:\n      pop\n      pop\n      pop\n      pop\n      mload(0x40)\n      returndatasize\n      not(0x1f)\n      0x1f\n      dup3\n      add\n      and\n      dup3\n      add\n      dup1\n      0x40\n      mstore\n      pop\n      dup2\n      add\n      swap1\n      tag_246\n      swap2\n      swap1\n      tag_64\n      jump\t// in\n    tag_246:\n        /* \"contracts/KajuswapRouter.sol\":5495:5659  uint256 amountAOptimal = KajuswapLibrary.quote(... */\n      swap1\n      pop\n        /* \"contracts/KajuswapRouter.sol\":5703:5717  amountADesired */\n      dup10\n        /* \"contracts/KajuswapRouter.sol\":5685:5699  amountAOptimal */\n      dup2\n        /* \"contracts/KajuswapRouter.sol\":5685:5717  amountAOptimal <= amountADesired */\n      gt\n      iszero\n        /* \"contracts/KajuswapRouter.sol\":5678:5718  assert(amountAOptimal <= amountADesired) */\n      tag_247\n      jumpi\n      tag_248\n      tag_249\n      jump\t// in\n    tag_248:\n    tag_247:\n        /* \"contracts/KajuswapRouter.sol\":5761:5771  amountAMin */\n      dup8\n        /* \"contracts/KajuswapRouter.sol\":5743:5757  amountAOptimal */\n      dup2\n        /* \"contracts/KajuswapRouter.sol\":5743:5771  amountAOptimal <= amountAMin */\n      gt\n        /* \"contracts/KajuswapRouter.sol\":5739:5801  if (amountAOptimal <= amountAMin) revert InsufficientAAmount() */\n      tag_250\n      jumpi\n        /* \"contracts/KajuswapRouter.sol\":5780:5801  InsufficientAAmount() */\n      mload(0x40)\n      0x8dc525d100000000000000000000000000000000000000000000000000000000\n      dup2\n      mstore\n      0x04\n      add\n      mload(0x40)\n      dup1\n      swap2\n      sub\n      swap1\n      revert\n        /* \"contracts/KajuswapRouter.sol\":5739:5801  if (amountAOptimal <= amountAMin) revert InsufficientAAmount() */\n    tag_250:\n        /* \"contracts/KajuswapRouter.sol\":5842:5856  amountAOptimal */\n      dup1\n        /* \"contracts/KajuswapRouter.sol\":5858:5872  amountBDesired */\n      dup10\n        /* \"contracts/KajuswapRouter.sol\":5820:5873  (amountA, amountB) = (amountAOptimal, amountBDesired) */\n      dup1\n      swap7\n      pop\n      dup2\n      swap8\n      pop\n      pop\n      pop\n        /* \"contracts/KajuswapRouter.sol\":5476:5889  {... */\n      pop\n        /* \"contracts/KajuswapRouter.sol\":5263:5889  if (amountBOptimal <= amountBDesired) {... */\n    tag_242:\n        /* \"contracts/KajuswapRouter.sol\":5058:5900  {... */\n      pop\n        /* \"contracts/KajuswapRouter.sol\":4936:5900  if (reserveA == 0 && reserveB == 0) {... */\n    tag_235:\n        /* \"contracts/KajuswapRouter.sol\":4762:5907  {... */\n      pop\n      pop\n        /* \"contracts/KajuswapRouter.sol\":4500:5907  function _calculateLiquidity(... */\n      swap7\n      pop\n      swap7\n      swap5\n      pop\n      pop\n      pop\n      pop\n      pop\n      jump\t// out\n        /* \"contracts/KajuswapLibrary.sol\":2243:2461  function sortTokens(address tokenA, address tokenB)... */\n    tag_179:\n        /* \"contracts/KajuswapLibrary.sol\":2345:2359  address token0 */\n      0x00\n        /* \"contracts/KajuswapLibrary.sol\":2361:2375  address token1 */\n      dup1\n        /* \"contracts/KajuswapLibrary.sol\":2409:2415  tokenB */\n      dup3\n        /* \"contracts/KajuswapLibrary.sol\":2400:2415  tokenA < tokenB */\n      0xffffffffffffffffffffffffffffffffffffffff\n      and\n        /* \"contracts/KajuswapLibrary.sol\":2400:2406  tokenA */\n      dup5\n        /* \"contracts/KajuswapLibrary.sol\":2400:2415  tokenA < tokenB */\n      0xffffffffffffffffffffffffffffffffffffffff\n      and\n      lt\n        /* \"contracts/KajuswapLibrary.sol\":2400:2453  tokenA < tokenB ? (tokenA, tokenB) : (tokenB, tokenA) */\n      tag_252\n      jumpi\n        /* \"contracts/KajuswapLibrary.sol\":2438:2444  tokenB */\n      dup3\n        /* \"contracts/KajuswapLibrary.sol\":2446:2452  tokenA */\n      dup5\n        /* \"contracts/KajuswapLibrary.sol\":2400:2453  tokenA < tokenB ? (tokenA, tokenB) : (tokenB, tokenA) */\n      jump(tag_253)\n    tag_252:\n        /* \"contracts/KajuswapLibrary.sol\":2419:2425  tokenA */\n      dup4\n        /* \"contracts/KajuswapLibrary.sol\":2427:2433  tokenB */\n      dup4\n        /* \"contracts/KajuswapLibrary.sol\":2400:2453  tokenA < tokenB ? (tokenA, tokenB) : (tokenB, tokenA) */\n    tag_253:\n        /* \"contracts/KajuswapLibrary.sol\":2393:2453  return tokenA < tokenB ? (tokenA, tokenB) : (tokenB, tokenA) */\n      swap2\n      pop\n      swap2\n      pop\n        /* \"contracts/KajuswapLibrary.sol\":2243:2461  function sortTokens(address tokenA, address tokenB)... */\n      swap3\n      pop\n      swap3\n      swap1\n      pop\n      jump\t// out\n        /* \"#utility.yul\":7:82   */\n    tag_254:\n        /* \"#utility.yul\":40:46   */\n      0x00\n        /* \"#utility.yul\":73:75   */\n      0x40\n        /* \"#utility.yul\":67:76   */\n      mload\n        /* \"#utility.yul\":57:76   */\n      swap1\n      pop\n        /* \"#utility.yul\":7:82   */\n      swap1\n      jump\t// out\n        /* \"#utility.yul\":88:205   */\n    tag_255:\n        /* \"#utility.yul\":197:198   */\n      0x00\n        /* \"#utility.yul\":194:195   */\n      dup1\n        /* \"#utility.yul\":187:199   */\n      revert\n        /* \"#utility.yul\":211:328   */\n    tag_256:\n        /* \"#utility.yul\":320:321   */\n      0x00\n        /* \"#utility.yul\":317:318   */\n      dup1\n        /* \"#utility.yul\":310:322   */\n      revert\n        /* \"#utility.yul\":334:411   */\n    tag_257:\n        /* \"#utility.yul\":371:378   */\n      0x00\n        /* \"#utility.yul\":400:405   */\n      dup2\n        /* \"#utility.yul\":389:405   */\n      swap1\n      pop\n        /* \"#utility.yul\":334:411   */\n      swap2\n      swap1\n      pop\n      jump\t// out\n        /* \"#utility.yul\":417:539   */\n    tag_258:\n        /* \"#utility.yul\":490:514   */\n      tag_328\n        /* \"#utility.yul\":508:513   */\n      dup2\n        /* \"#utility.yul\":490:514   */\n      tag_257\n      jump\t// in\n    tag_328:\n        /* \"#utility.yul\":483:488   */\n      dup2\n        /* \"#utility.yul\":480:515   */\n      eq\n        /* \"#utility.yul\":470:533   */\n      tag_329\n      jumpi\n        /* \"#utility.yul\":529:530   */\n      0x00\n        /* \"#utility.yul\":526:527   */\n      dup1\n        /* \"#utility.yul\":519:531   */\n      revert\n        /* \"#utility.yul\":470:533   */\n    tag_329:\n        /* \"#utility.yul\":417:539   */\n      pop\n      jump\t// out\n        /* \"#utility.yul\":545:684   */\n    tag_259:\n        /* \"#utility.yul\":591:596   */\n      0x00\n        /* \"#utility.yul\":629:635   */\n      dup2\n        /* \"#utility.yul\":616:636   */\n      calldataload\n        /* \"#utility.yul\":607:636   */\n      swap1\n      pop\n        /* \"#utility.yul\":645:678   */\n      tag_331\n        /* \"#utility.yul\":672:677   */\n      dup2\n        /* \"#utility.yul\":645:678   */\n      tag_258\n      jump\t// in\n    tag_331:\n        /* \"#utility.yul\":545:684   */\n      swap3\n      swap2\n      pop\n      pop\n      jump\t// out\n        /* \"#utility.yul\":690:1309   */\n    tag_15:\n        /* \"#utility.yul\":767:773   */\n      0x00\n        /* \"#utility.yul\":775:781   */\n      dup1\n        /* \"#utility.yul\":783:789   */\n      0x00\n        /* \"#utility.yul\":832:834   */\n      0x60\n        /* \"#utility.yul\":820:829   */\n      dup5\n        /* \"#utility.yul\":811:818   */\n      dup7\n        /* \"#utility.yul\":807:830   */\n      sub\n        /* \"#utility.yul\":803:835   */\n      slt\n        /* \"#utility.yul\":800:919   */\n      iszero\n      tag_333\n      jumpi\n        /* \"#utility.yul\":838:917   */\n      tag_334\n      tag_255\n      jump\t// in\n    tag_334:\n        /* \"#utility.yul\":800:919   */\n    tag_333:\n        /* \"#utility.yul\":958:959   */\n      0x00\n        /* \"#utility.yul\":983:1036   */\n      tag_335\n        /* \"#utility.yul\":1028:1035   */\n      dup7\n        /* \"#utility.yul\":1019:1025   */\n      dup3\n        /* \"#utility.yul\":1008:1017   */\n      dup8\n        /* \"#utility.yul\":1004:1026   */\n      add\n        /* \"#utility.yul\":983:1036   */\n      tag_259\n      jump\t// in\n    tag_335:\n        /* \"#utility.yul\":973:1036   */\n      swap4\n      pop\n        /* \"#utility.yul\":929:1046   */\n      pop\n        /* \"#utility.yul\":1085:1087   */\n      0x20\n        /* \"#utility.yul\":1111:1164   */\n      tag_336\n        /* \"#utility.yul\":1156:1163   */\n      dup7\n        /* \"#utility.yul\":1147:1153   */\n      dup3\n        /* \"#utility.yul\":1136:1145   */\n      dup8\n        /* \"#utility.yul\":1132:1154   */\n      add\n        /* \"#utility.yul\":1111:1164   */\n      tag_259\n      jump\t// in\n    tag_336:\n        /* \"#utility.yul\":1101:1164   */\n      swap3\n      pop\n        /* \"#utility.yul\":1056:1174   */\n      pop\n        /* \"#utility.yul\":1213:1215   */\n      0x40\n        /* \"#utility.yul\":1239:1292   */\n      tag_337\n        /* \"#utility.yul\":1284:1291   */\n      dup7\n        /* \"#utility.yul\":1275:1281   */\n      dup3\n        /* \"#utility.yul\":1264:1273   */\n      dup8\n        /* \"#utility.yul\":1260:1282   */\n      add\n        /* \"#utility.yul\":1239:1292   */\n      tag_259\n      jump\t// in\n    tag_337:\n        /* \"#utility.yul\":1229:1292   */\n      swap2\n      pop\n        /* \"#utility.yul\":1184:1302   */\n      pop\n        /* \"#utility.yul\":690:1309   */\n      swap3\n      pop\n      swap3\n      pop\n      swap3\n      jump\t// out\n        /* \"#utility.yul\":1315:1433   */\n    tag_260:\n        /* \"#utility.yul\":1402:1426   */\n      tag_339\n        /* \"#utility.yul\":1420:1425   */\n      dup2\n        /* \"#utility.yul\":1402:1426   */\n      tag_257\n      jump\t// in\n    tag_339:\n        /* \"#utility.yul\":1397:1400   */\n      dup3\n        /* \"#utility.yul\":1390:1427   */\n      mstore\n        /* \"#utility.yul\":1315:1433   */\n      pop\n      pop\n      jump\t// out\n        /* \"#utility.yul\":1439:1661   */\n    tag_18:\n        /* \"#utility.yul\":1532:1536   */\n      0x00\n        /* \"#utility.yul\":1570:1572   */\n      0x20\n        /* \"#utility.yul\":1559:1568   */\n      dup3\n        /* \"#utility.yul\":1555:1573   */\n      add\n        /* \"#utility.yul\":1547:1573   */\n      swap1\n      pop\n        /* \"#utility.yul\":1583:1654   */\n      tag_341\n        /* \"#utility.yul\":1651:1652   */\n      0x00\n        /* \"#utility.yul\":1640:1649   */\n      dup4\n        /* \"#utility.yul\":1636:1653   */\n      add\n        /* \"#utility.yul\":1627:1633   */\n      dup5\n        /* \"#utility.yul\":1583:1654   */\n      tag_260\n      jump\t// in\n    tag_341:\n        /* \"#utility.yul\":1439:1661   */\n      swap3\n      swap2\n      pop\n      pop\n      jump\t// out\n        /* \"#utility.yul\":1667:1784   */\n    tag_261:\n        /* \"#utility.yul\":1776:1777   */\n      0x00\n        /* \"#utility.yul\":1773:1774   */\n      dup1\n        /* \"#utility.yul\":1766:1778   */\n      revert\n        /* \"#utility.yul\":1790:1892   */\n    tag_262:\n        /* \"#utility.yul\":1831:1837   */\n      0x00\n        /* \"#utility.yul\":1882:1884   */\n      0x1f\n        /* \"#utility.yul\":1878:1885   */\n      not\n        /* \"#utility.yul\":1873:1875   */\n      0x1f\n        /* \"#utility.yul\":1866:1871   */\n      dup4\n        /* \"#utility.yul\":1862:1876   */\n      add\n        /* \"#utility.yul\":1858:1886   */\n      and\n        /* \"#utility.yul\":1848:1886   */\n      swap1\n      pop\n        /* \"#utility.yul\":1790:1892   */\n      swap2\n      swap1\n      pop\n      jump\t// out\n        /* \"#utility.yul\":1898:2078   */\n    tag_263:\n        /* \"#utility.yul\":1946:2023   */\n      0x4e487b7100000000000000000000000000000000000000000000000000000000\n        /* \"#utility.yul\":1943:1944   */\n      0x00\n        /* \"#utility.yul\":1936:2024   */\n      mstore\n        /* \"#utility.yul\":2043:2047   */\n      0x41\n        /* \"#utility.yul\":2040:2041   */\n      0x04\n        /* \"#utility.yul\":2033:2048   */\n      mstore\n        /* \"#utility.yul\":2067:2071   */\n      0x24\n        /* \"#utility.yul\":2064:2065   */\n      0x00\n        /* \"#utility.yul\":2057:2072   */\n      revert\n        /* \"#utility.yul\":2084:2365   */\n    tag_264:\n        /* \"#utility.yul\":2167:2194   */\n      tag_346\n        /* \"#utility.yul\":2189:2193   */\n      dup3\n        /* \"#utility.yul\":2167:2194   */\n      tag_262\n      jump\t// in\n    tag_346:\n        /* \"#utility.yul\":2159:2165   */\n      dup2\n        /* \"#utility.yul\":2155:2195   */\n      add\n        /* \"#utility.yul\":2297:2303   */\n      dup2\n        /* \"#utility.yul\":2285:2295   */\n      dup2\n        /* \"#utility.yul\":2282:2304   */\n      lt\n        /* \"#utility.yul\":2261:2279   */\n      0xffffffffffffffff\n        /* \"#utility.yul\":2249:2259   */\n      dup3\n        /* \"#utility.yul\":2246:2280   */\n      gt\n        /* \"#utility.yul\":2243:2305   */\n      or\n        /* \"#utility.yul\":2240:2328   */\n      iszero\n      tag_347\n      jumpi\n        /* \"#utility.yul\":2308:2326   */\n      tag_348\n      tag_263\n      jump\t// in\n    tag_348:\n        /* \"#utility.yul\":2240:2328   */\n    tag_347:\n        /* \"#utility.yul\":2348:2358   */\n      dup1\n        /* \"#utility.yul\":2344:2346   */\n      0x40\n        /* \"#utility.yul\":2337:2359   */\n      mstore\n        /* \"#utility.yul\":2127:2365   */\n      pop\n        /* \"#utility.yul\":2084:2365   */\n      pop\n      pop\n      jump\t// out\n        /* \"#utility.yul\":2371:2500   */\n    tag_265:\n        /* \"#utility.yul\":2405:2411   */\n      0x00\n        /* \"#utility.yul\":2432:2452   */\n      tag_350\n      tag_254\n      jump\t// in\n    tag_350:\n        /* \"#utility.yul\":2422:2452   */\n      swap1\n      pop\n        /* \"#utility.yul\":2461:2494   */\n      tag_351\n        /* \"#utility.yul\":2489:2493   */\n      dup3\n        /* \"#utility.yul\":2481:2487   */\n      dup3\n        /* \"#utility.yul\":2461:2494   */\n      tag_264\n      jump\t// in\n    tag_351:\n        /* \"#utility.yul\":2371:2500   */\n      swap2\n      swap1\n      pop\n      jump\t// out\n        /* \"#utility.yul\":2506:2817   */\n    tag_266:\n        /* \"#utility.yul\":2583:2587   */\n      0x00\n        /* \"#utility.yul\":2673:2691   */\n      0xffffffffffffffff\n        /* \"#utility.yul\":2665:2671   */\n      dup3\n        /* \"#utility.yul\":2662:2692   */\n      gt\n        /* \"#utility.yul\":2659:2715   */\n      iszero\n      tag_353\n      jumpi\n        /* \"#utility.yul\":2695:2713   */\n      tag_354\n      tag_263\n      jump\t// in\n    tag_354:\n        /* \"#utility.yul\":2659:2715   */\n    tag_353:\n        /* \"#utility.yul\":2745:2749   */\n      0x20\n        /* \"#utility.yul\":2737:2743   */\n      dup3\n        /* \"#utility.yul\":2733:2750   */\n      mul\n        /* \"#utility.yul\":2725:2750   */\n      swap1\n      pop\n        /* \"#utility.yul\":2805:2809   */\n      0x20\n        /* \"#utility.yul\":2799:2803   */\n      dup2\n        /* \"#utility.yul\":2795:2810   */\n      add\n        /* \"#utility.yul\":2787:2810   */\n      swap1\n      pop\n        /* \"#utility.yul\":2506:2817   */\n      swap2\n      swap1\n      pop\n      jump\t// out\n        /* \"#utility.yul\":2823:2940   */\n    tag_267:\n        /* \"#utility.yul\":2932:2933   */\n      0x00\n        /* \"#utility.yul\":2929:2930   */\n      dup1\n        /* \"#utility.yul\":2922:2934   */\n      revert\n        /* \"#utility.yul\":2946:3072   */\n    tag_268:\n        /* \"#utility.yul\":2983:2990   */\n      0x00\n        /* \"#utility.yul\":3023:3065   */\n      0xffffffffffffffffffffffffffffffffffffffff\n        /* \"#utility.yul\":3016:3021   */\n      dup3\n        /* \"#utility.yul\":3012:3066   */\n      and\n        /* \"#utility.yul\":3001:3066   */\n      swap1\n      pop\n        /* \"#utility.yul\":2946:3072   */\n      swap2\n      swap1\n      pop\n      jump\t// out\n        /* \"#utility.yul\":3078:3174   */\n    tag_269:\n        /* \"#utility.yul\":3115:3122   */\n      0x00\n        /* \"#utility.yul\":3144:3168   */\n      tag_358\n        /* \"#utility.yul\":3162:3167   */\n      dup3\n        /* \"#utility.yul\":3144:3168   */\n      tag_268\n      jump\t// in\n    tag_358:\n        /* \"#utility.yul\":3133:3168   */\n      swap1\n      pop\n        /* \"#utility.yul\":3078:3174   */\n      swap2\n      swap1\n      pop\n      jump\t// out\n        /* \"#utility.yul\":3180:3302   */\n    tag_270:\n        /* \"#utility.yul\":3253:3277   */\n      tag_360\n        /* \"#utility.yul\":3271:3276   */\n      dup2\n        /* \"#utility.yul\":3253:3277   */\n      tag_269\n      jump\t// in\n    tag_360:\n        /* \"#utility.yul\":3246:3251   */\n      dup2\n        /* \"#utility.yul\":3243:3278   */\n      eq\n        /* \"#utility.yul\":3233:3296   */\n      tag_361\n      jumpi\n        /* \"#utility.yul\":3292:3293   */\n      0x00\n        /* \"#utility.yul\":3289:3290   */\n      dup1\n        /* \"#utility.yul\":3282:3294   */\n      revert\n        /* \"#utility.yul\":3233:3296   */\n    tag_361:\n        /* \"#utility.yul\":3180:3302   */\n      pop\n      jump\t// out\n        /* \"#utility.yul\":3308:3447   */\n    tag_271:\n        /* \"#utility.yul\":3354:3359   */\n      0x00\n        /* \"#utility.yul\":3392:3398   */\n      dup2\n        /* \"#utility.yul\":3379:3399   */\n      calldataload\n        /* \"#utility.yul\":3370:3399   */\n      swap1\n      pop\n        /* \"#utility.yul\":3408:3441   */\n      tag_363\n        /* \"#utility.yul\":3435:3440   */\n      dup2\n        /* \"#utility.yul\":3408:3441   */\n      tag_270\n      jump\t// in\n    tag_363:\n        /* \"#utility.yul\":3308:3447   */\n      swap3\n      swap2\n      pop\n      pop\n      jump\t// out\n        /* \"#utility.yul\":3470:4180   */\n    tag_272:\n        /* \"#utility.yul\":3566:3571   */\n      0x00\n        /* \"#utility.yul\":3591:3672   */\n      tag_365\n        /* \"#utility.yul\":3607:3671   */\n      tag_366\n        /* \"#utility.yul\":3664:3670   */\n      dup5\n        /* \"#utility.yul\":3607:3671   */\n      tag_266\n      jump\t// in\n    tag_366:\n        /* \"#utility.yul\":3591:3672   */\n      tag_265\n      jump\t// in\n    tag_365:\n        /* \"#utility.yul\":3582:3672   */\n      swap1\n      pop\n        /* \"#utility.yul\":3692:3697   */\n      dup1\n        /* \"#utility.yul\":3721:3727   */\n      dup4\n        /* \"#utility.yul\":3714:3719   */\n      dup3\n        /* \"#utility.yul\":3707:3728   */\n      mstore\n        /* \"#utility.yul\":3755:3759   */\n      0x20\n        /* \"#utility.yul\":3748:3753   */\n      dup3\n        /* \"#utility.yul\":3744:3760   */\n      add\n        /* \"#utility.yul\":3737:3760   */\n      swap1\n      pop\n        /* \"#utility.yul\":3808:3812   */\n      0x20\n        /* \"#utility.yul\":3800:3806   */\n      dup5\n        /* \"#utility.yul\":3796:3813   */\n      mul\n        /* \"#utility.yul\":3788:3794   */\n      dup4\n        /* \"#utility.yul\":3784:3814   */\n      add\n        /* \"#utility.yul\":3837:3840   */\n      dup6\n        /* \"#utility.yul\":3829:3835   */\n      dup2\n        /* \"#utility.yul\":3826:3841   */\n      gt\n        /* \"#utility.yul\":3823:3945   */\n      iszero\n      tag_367\n      jumpi\n        /* \"#utility.yul\":3856:3935   */\n      tag_368\n      tag_267\n      jump\t// in\n    tag_368:\n        /* \"#utility.yul\":3823:3945   */\n    tag_367:\n        /* \"#utility.yul\":3971:3977   */\n      dup4\n        /* \"#utility.yul\":3954:4174   */\n    tag_369:\n        /* \"#utility.yul\":3988:3994   */\n      dup2\n        /* \"#utility.yul\":3983:3986   */\n      dup2\n        /* \"#utility.yul\":3980:3995   */\n      lt\n        /* \"#utility.yul\":3954:4174   */\n      iszero\n      tag_371\n      jumpi\n        /* \"#utility.yul\":4063:4066   */\n      dup1\n        /* \"#utility.yul\":4092:4129   */\n      tag_372\n        /* \"#utility.yul\":4125:4128   */\n      dup9\n        /* \"#utility.yul\":4113:4123   */\n      dup3\n        /* \"#utility.yul\":4092:4129   */\n      tag_271\n      jump\t// in\n    tag_372:\n        /* \"#utility.yul\":4087:4090   */\n      dup5\n        /* \"#utility.yul\":4080:4130   */\n      mstore\n        /* \"#utility.yul\":4159:4163   */\n      0x20\n        /* \"#utility.yul\":4154:4157   */\n      dup5\n        /* \"#utility.yul\":4150:4164   */\n      add\n        /* \"#utility.yul\":4143:4164   */\n      swap4\n      pop\n        /* \"#utility.yul\":4030:4174   */\n      pop\n        /* \"#utility.yul\":4014:4018   */\n      0x20\n        /* \"#utility.yul\":4009:4012   */\n      dup2\n        /* \"#utility.yul\":4005:4019   */\n      add\n        /* \"#utility.yul\":3998:4019   */\n      swap1\n      pop\n        /* \"#utility.yul\":3954:4174   */\n      jump(tag_369)\n    tag_371:\n        /* \"#utility.yul\":3958:3979   */\n      pop\n        /* \"#utility.yul\":3572:4180   */\n      pop\n      pop\n        /* \"#utility.yul\":3470:4180   */\n      swap4\n      swap3\n      pop\n      pop\n      pop\n      jump\t// out\n        /* \"#utility.yul\":4203:4573   */\n    tag_273:\n        /* \"#utility.yul\":4274:4279   */\n      0x00\n        /* \"#utility.yul\":4323:4326   */\n      dup3\n        /* \"#utility.yul\":4316:4320   */\n      0x1f\n        /* \"#utility.yul\":4308:4314   */\n      dup4\n        /* \"#utility.yul\":4304:4321   */\n      add\n        /* \"#utility.yul\":4300:4327   */\n      slt\n        /* \"#utility.yul\":4290:4412   */\n      tag_374\n      jumpi\n        /* \"#utility.yul\":4331:4410   */\n      tag_375\n      tag_261\n      jump\t// in\n    tag_375:\n        /* \"#utility.yul\":4290:4412   */\n    tag_374:\n        /* \"#utility.yul\":4448:4454   */\n      dup2\n        /* \"#utility.yul\":4435:4455   */\n      calldataload\n        /* \"#utility.yul\":4473:4567   */\n      tag_376\n        /* \"#utility.yul\":4563:4566   */\n      dup5\n        /* \"#utility.yul\":4555:4561   */\n      dup3\n        /* \"#utility.yul\":4548:4552   */\n      0x20\n        /* \"#utility.yul\":4540:4546   */\n      dup7\n        /* \"#utility.yul\":4536:4553   */\n      add\n        /* \"#utility.yul\":4473:4567   */\n      tag_272\n      jump\t// in\n    tag_376:\n        /* \"#utility.yul\":4464:4567   */\n      swap2\n      pop\n        /* \"#utility.yul\":4280:4573   */\n      pop\n        /* \"#utility.yul\":4203:4573   */\n      swap3\n      swap2\n      pop\n      pop\n      jump\t// out\n        /* \"#utility.yul\":4579:5263   */\n    tag_21:\n        /* \"#utility.yul\":4672:4678   */\n      0x00\n        /* \"#utility.yul\":4680:4686   */\n      dup1\n        /* \"#utility.yul\":4729:4731   */\n      0x40\n        /* \"#utility.yul\":4717:4726   */\n      dup4\n        /* \"#utility.yul\":4708:4715   */\n      dup6\n        /* \"#utility.yul\":4704:4727   */\n      sub\n        /* \"#utility.yul\":4700:4732   */\n      slt\n        /* \"#utility.yul\":4697:4816   */\n      iszero\n      tag_378\n      jumpi\n        /* \"#utility.yul\":4735:4814   */\n      tag_379\n      tag_255\n      jump\t// in\n    tag_379:\n        /* \"#utility.yul\":4697:4816   */\n    tag_378:\n        /* \"#utility.yul\":4855:4856   */\n      0x00\n        /* \"#utility.yul\":4880:4933   */\n      tag_380\n        /* \"#utility.yul\":4925:4932   */\n      dup6\n        /* \"#utility.yul\":4916:4922   */\n      dup3\n        /* \"#utility.yul\":4905:4914   */\n      dup7\n        /* \"#utility.yul\":4901:4923   */\n      add\n        /* \"#utility.yul\":4880:4933   */\n      tag_259\n      jump\t// in\n    tag_380:\n        /* \"#utility.yul\":4870:4933   */\n      swap3\n      pop\n        /* \"#utility.yul\":4826:4943   */\n      pop\n        /* \"#utility.yul\":5010:5012   */\n      0x20\n        /* \"#utility.yul\":4999:5008   */\n      dup4\n        /* \"#utility.yul\":4995:5013   */\n      add\n        /* \"#utility.yul\":4982:5014   */\n      calldataload\n        /* \"#utility.yul\":5041:5059   */\n      0xffffffffffffffff\n        /* \"#utility.yul\":5033:5039   */\n      dup2\n        /* \"#utility.yul\":5030:5060   */\n      gt\n        /* \"#utility.yul\":5027:5144   */\n      iszero\n      tag_381\n      jumpi\n        /* \"#utility.yul\":5063:5142   */\n      tag_382\n      tag_256\n      jump\t// in\n    tag_382:\n        /* \"#utility.yul\":5027:5144   */\n    tag_381:\n        /* \"#utility.yul\":5168:5246   */\n      tag_383\n        /* \"#utility.yul\":5238:5245   */\n      dup6\n        /* \"#utility.yul\":5229:5235   */\n      dup3\n        /* \"#utility.yul\":5218:5227   */\n      dup7\n        /* \"#utility.yul\":5214:5236   */\n      add\n        /* \"#utility.yul\":5168:5246   */\n      tag_273\n      jump\t// in\n    tag_383:\n        /* \"#utility.yul\":5158:5246   */\n      swap2\n      pop\n        /* \"#utility.yul\":4953:5256   */\n      pop\n        /* \"#utility.yul\":4579:5263   */\n      swap3\n      pop\n      swap3\n      swap1\n      pop\n      jump\t// out\n        /* \"#utility.yul\":5269:5383   */\n    tag_274:\n        /* \"#utility.yul\":5336:5342   */\n      0x00\n        /* \"#utility.yul\":5370:5375   */\n      dup2\n        /* \"#utility.yul\":5364:5376   */\n      mload\n        /* \"#utility.yul\":5354:5376   */\n      swap1\n      pop\n        /* \"#utility.yul\":5269:5383   */\n      swap2\n      swap1\n      pop\n      jump\t// out\n        /* \"#utility.yul\":5389:5573   */\n    tag_275:\n        /* \"#utility.yul\":5488:5499   */\n      0x00\n        /* \"#utility.yul\":5522:5528   */\n      dup3\n        /* \"#utility.yul\":5517:5520   */\n      dup3\n        /* \"#utility.yul\":5510:5529   */\n      mstore\n        /* \"#utility.yul\":5562:5566   */\n      0x20\n        /* \"#utility.yul\":5557:5560   */\n      dup3\n        /* \"#utility.yul\":5553:5567   */\n      add\n        /* \"#utility.yul\":5538:5567   */\n      swap1\n      pop\n        /* \"#utility.yul\":5389:5573   */\n      swap3\n      swap2\n      pop\n      pop\n      jump\t// out\n        /* \"#utility.yul\":5579:5711   */\n    tag_276:\n        /* \"#utility.yul\":5646:5650   */\n      0x00\n        /* \"#utility.yul\":5669:5672   */\n      dup2\n        /* \"#utility.yul\":5661:5672   */\n      swap1\n      pop\n        /* \"#utility.yul\":5699:5703   */\n      0x20\n        /* \"#utility.yul\":5694:5697   */\n      dup3\n        /* \"#utility.yul\":5690:5704   */\n      add\n        /* \"#utility.yul\":5682:5704   */\n      swap1\n      pop\n        /* \"#utility.yul\":5579:5711   */\n      swap2\n      swap1\n      pop\n      jump\t// out\n        /* \"#utility.yul\":5717:5825   */\n    tag_277:\n        /* \"#utility.yul\":5794:5818   */\n      tag_388\n        /* \"#utility.yul\":5812:5817   */\n      dup2\n        /* \"#utility.yul\":5794:5818   */\n      tag_257\n      jump\t// in\n    tag_388:\n        /* \"#utility.yul\":5789:5792   */\n      dup3\n        /* \"#utility.yul\":5782:5819   */\n      mstore\n        /* \"#utility.yul\":5717:5825   */\n      pop\n      pop\n      jump\t// out\n        /* \"#utility.yul\":5831:6010   */\n    tag_278:\n        /* \"#utility.yul\":5900:5910   */\n      0x00\n        /* \"#utility.yul\":5921:5967   */\n      tag_390\n        /* \"#utility.yul\":5963:5966   */\n      dup4\n        /* \"#utility.yul\":5955:5961   */\n      dup4\n        /* \"#utility.yul\":5921:5967   */\n      tag_277\n      jump\t// in\n    tag_390:\n        /* \"#utility.yul\":5999:6003   */\n      0x20\n        /* \"#utility.yul\":5994:5997   */\n      dup4\n        /* \"#utility.yul\":5990:6004   */\n      add\n        /* \"#utility.yul\":5976:6004   */\n      swap1\n      pop\n        /* \"#utility.yul\":5831:6010   */\n      swap3\n      swap2\n      pop\n      pop\n      jump\t// out\n        /* \"#utility.yul\":6016:6129   */\n    tag_279:\n        /* \"#utility.yul\":6086:6090   */\n      0x00\n        /* \"#utility.yul\":6118:6122   */\n      0x20\n        /* \"#utility.yul\":6113:6116   */\n      dup3\n        /* \"#utility.yul\":6109:6123   */\n      add\n        /* \"#utility.yul\":6101:6123   */\n      swap1\n      pop\n        /* \"#utility.yul\":6016:6129   */\n      swap2\n      swap1\n      pop\n      jump\t// out\n        /* \"#utility.yul\":6165:6897   */\n    tag_280:\n        /* \"#utility.yul\":6284:6287   */\n      0x00\n        /* \"#utility.yul\":6313:6367   */\n      tag_393\n        /* \"#utility.yul\":6361:6366   */\n      dup3\n        /* \"#utility.yul\":6313:6367   */\n      tag_274\n      jump\t// in\n    tag_393:\n        /* \"#utility.yul\":6383:6469   */\n      tag_394\n        /* \"#utility.yul\":6462:6468   */\n      dup2\n        /* \"#utility.yul\":6457:6460   */\n      dup6\n        /* \"#utility.yul\":6383:6469   */\n      tag_275\n      jump\t// in\n    tag_394:\n        /* \"#utility.yul\":6376:6469   */\n      swap4\n      pop\n        /* \"#utility.yul\":6493:6549   */\n      tag_395\n        /* \"#utility.yul\":6543:6548   */\n      dup4\n        /* \"#utility.yul\":6493:6549   */\n      tag_276\n      jump\t// in\n    tag_395:\n        /* \"#utility.yul\":6572:6579   */\n      dup1\n        /* \"#utility.yul\":6603:6604   */\n      0x00\n        /* \"#utility.yul\":6588:6872   */\n    tag_396:\n        /* \"#utility.yul\":6613:6619   */\n      dup4\n        /* \"#utility.yul\":6610:6611   */\n      dup2\n        /* \"#utility.yul\":6607:6620   */\n      lt\n        /* \"#utility.yul\":6588:6872   */\n      iszero\n      tag_398\n      jumpi\n        /* \"#utility.yul\":6689:6695   */\n      dup2\n        /* \"#utility.yul\":6683:6696   */\n      mload\n        /* \"#utility.yul\":6716:6779   */\n      tag_399\n        /* \"#utility.yul\":6775:6778   */\n      dup9\n        /* \"#utility.yul\":6760:6773   */\n      dup3\n        /* \"#utility.yul\":6716:6779   */\n      tag_278\n      jump\t// in\n    tag_399:\n        /* \"#utility.yul\":6709:6779   */\n      swap8\n      pop\n        /* \"#utility.yul\":6802:6862   */\n      tag_400\n        /* \"#utility.yul\":6855:6861   */\n      dup4\n        /* \"#utility.yul\":6802:6862   */\n      tag_279\n      jump\t// in\n    tag_400:\n        /* \"#utility.yul\":6792:6862   */\n      swap3\n      pop\n        /* \"#utility.yul\":6648:6872   */\n      pop\n        /* \"#utility.yul\":6635:6636   */\n      0x01\n        /* \"#utility.yul\":6632:6633   */\n      dup2\n        /* \"#utility.yul\":6628:6637   */\n      add\n        /* \"#utility.yul\":6623:6637   */\n      swap1\n      pop\n        /* \"#utility.yul\":6588:6872   */\n      jump(tag_396)\n    tag_398:\n        /* \"#utility.yul\":6592:6606   */\n      pop\n        /* \"#utility.yul\":6888:6891   */\n      dup6\n        /* \"#utility.yul\":6881:6891   */\n      swap4\n      pop\n        /* \"#utility.yul\":6289:6897   */\n      pop\n      pop\n      pop\n        /* \"#utility.yul\":6165:6897   */\n      swap3\n      swap2\n      pop\n      pop\n      jump\t// out\n        /* \"#utility.yul\":6903:7276   */\n    tag_24:\n        /* \"#utility.yul\":7046:7050   */\n      0x00\n        /* \"#utility.yul\":7084:7086   */\n      0x20\n        /* \"#utility.yul\":7073:7082   */\n      dup3\n        /* \"#utility.yul\":7069:7087   */\n      add\n        /* \"#utility.yul\":7061:7087   */\n      swap1\n      pop\n        /* \"#utility.yul\":7133:7142   */\n      dup2\n        /* \"#utility.yul\":7127:7131   */\n      dup2\n        /* \"#utility.yul\":7123:7143   */\n      sub\n        /* \"#utility.yul\":7119:7120   */\n      0x00\n        /* \"#utility.yul\":7108:7117   */\n      dup4\n        /* \"#utility.yul\":7104:7121   */\n      add\n        /* \"#utility.yul\":7097:7144   */\n      mstore\n        /* \"#utility.yul\":7161:7269   */\n      tag_402\n        /* \"#utility.yul\":7264:7268   */\n      dup2\n        /* \"#utility.yul\":7255:7261   */\n      dup5\n        /* \"#utility.yul\":7161:7269   */\n      tag_280\n      jump\t// in\n    tag_402:\n        /* \"#utility.yul\":7153:7269   */\n      swap1\n      pop\n        /* \"#utility.yul\":6903:7276   */\n      swap3\n      swap2\n      pop\n      pop\n      jump\t// out\n        /* \"#utility.yul\":7282:7399   */\n    tag_281:\n        /* \"#utility.yul\":7391:7392   */\n      0x00\n        /* \"#utility.yul\":7388:7389   */\n      dup1\n        /* \"#utility.yul\":7381:7393   */\n      revert\n        /* \"#utility.yul\":7422:7990   */\n    tag_282:\n        /* \"#utility.yul\":7495:7503   */\n      0x00\n        /* \"#utility.yul\":7505:7511   */\n      dup1\n        /* \"#utility.yul\":7555:7558   */\n      dup4\n        /* \"#utility.yul\":7548:7552   */\n      0x1f\n        /* \"#utility.yul\":7540:7546   */\n      dup5\n        /* \"#utility.yul\":7536:7553   */\n      add\n        /* \"#utility.yul\":7532:7559   */\n      slt\n        /* \"#utility.yul\":7522:7644   */\n      tag_405\n      jumpi\n        /* \"#utility.yul\":7563:7642   */\n      tag_406\n      tag_261\n      jump\t// in\n    tag_406:\n        /* \"#utility.yul\":7522:7644   */\n    tag_405:\n        /* \"#utility.yul\":7676:7682   */\n      dup3\n        /* \"#utility.yul\":7663:7683   */\n      calldataload\n        /* \"#utility.yul\":7653:7683   */\n      swap1\n      pop\n        /* \"#utility.yul\":7706:7724   */\n      0xffffffffffffffff\n        /* \"#utility.yul\":7698:7704   */\n      dup2\n        /* \"#utility.yul\":7695:7725   */\n      gt\n        /* \"#utility.yul\":7692:7809   */\n      iszero\n      tag_407\n      jumpi\n        /* \"#utility.yul\":7728:7807   */\n      tag_408\n      tag_281\n      jump\t// in\n    tag_408:\n        /* \"#utility.yul\":7692:7809   */\n    tag_407:\n        /* \"#utility.yul\":7842:7846   */\n      0x20\n        /* \"#utility.yul\":7834:7840   */\n      dup4\n        /* \"#utility.yul\":7830:7847   */\n      add\n        /* \"#utility.yul\":7818:7847   */\n      swap2\n      pop\n        /* \"#utility.yul\":7896:7899   */\n      dup4\n        /* \"#utility.yul\":7888:7892   */\n      0x20\n        /* \"#utility.yul\":7880:7886   */\n      dup3\n        /* \"#utility.yul\":7876:7893   */\n      mul\n        /* \"#utility.yul\":7866:7874   */\n      dup4\n        /* \"#utility.yul\":7862:7894   */\n      add\n        /* \"#utility.yul\":7859:7900   */\n      gt\n        /* \"#utility.yul\":7856:7984   */\n      iszero\n      tag_409\n      jumpi\n        /* \"#utility.yul\":7903:7982   */\n      tag_410\n      tag_267\n      jump\t// in\n    tag_410:\n        /* \"#utility.yul\":7856:7984   */\n    tag_409:\n        /* \"#utility.yul\":7422:7990   */\n      swap3\n      pop\n      swap3\n      swap1\n      pop\n      jump\t// out\n        /* \"#utility.yul\":7996:8991   */\n    tag_27:\n        /* \"#utility.yul\":8109:8115   */\n      0x00\n        /* \"#utility.yul\":8117:8123   */\n      dup1\n        /* \"#utility.yul\":8125:8131   */\n      0x00\n        /* \"#utility.yul\":8133:8139   */\n      dup1\n        /* \"#utility.yul\":8141:8147   */\n      0x00\n        /* \"#utility.yul\":8190:8193   */\n      0x80\n        /* \"#utility.yul\":8178:8187   */\n      dup7\n        /* \"#utility.yul\":8169:8176   */\n      dup9\n        /* \"#utility.yul\":8165:8188   */\n      sub\n        /* \"#utility.yul\":8161:8194   */\n      slt\n        /* \"#utility.yul\":8158:8278   */\n      iszero\n      tag_412\n      jumpi\n        /* \"#utility.yul\":8197:8276   */\n      tag_413\n      tag_255\n      jump\t// in\n    tag_413:\n        /* \"#utility.yul\":8158:8278   */\n    tag_412:\n        /* \"#utility.yul\":8317:8318   */\n      0x00\n        /* \"#utility.yul\":8342:8395   */\n      tag_414\n        /* \"#utility.yul\":8387:8394   */\n      dup9\n        /* \"#utility.yul\":8378:8384   */\n      dup3\n        /* \"#utility.yul\":8367:8376   */\n      dup10\n        /* \"#utility.yul\":8363:8385   */\n      add\n        /* \"#utility.yul\":8342:8395   */\n      tag_259\n      jump\t// in\n    tag_414:\n        /* \"#utility.yul\":8332:8395   */\n      swap6\n      pop\n        /* \"#utility.yul\":8288:8405   */\n      pop\n        /* \"#utility.yul\":8444:8446   */\n      0x20\n        /* \"#utility.yul\":8470:8523   */\n      tag_415\n        /* \"#utility.yul\":8515:8522   */\n      dup9\n        /* \"#utility.yul\":8506:8512   */\n      dup3\n        /* \"#utility.yul\":8495:8504   */\n      dup10\n        /* \"#utility.yul\":8491:8513   */\n      add\n        /* \"#utility.yul\":8470:8523   */\n      tag_259\n      jump\t// in\n    tag_415:\n        /* \"#utility.yul\":8460:8523   */\n      swap5\n      pop\n        /* \"#utility.yul\":8415:8533   */\n      pop\n        /* \"#utility.yul\":8600:8602   */\n      0x40\n        /* \"#utility.yul\":8589:8598   */\n      dup7\n        /* \"#utility.yul\":8585:8603   */\n      add\n        /* \"#utility.yul\":8572:8604   */\n      calldataload\n        /* \"#utility.yul\":8631:8649   */\n      0xffffffffffffffff\n        /* \"#utility.yul\":8623:8629   */\n      dup2\n        /* \"#utility.yul\":8620:8650   */\n      gt\n        /* \"#utility.yul\":8617:8734   */\n      iszero\n      tag_416\n      jumpi\n        /* \"#utility.yul\":8653:8732   */\n      tag_417\n      tag_256\n      jump\t// in\n    tag_417:\n        /* \"#utility.yul\":8617:8734   */\n    tag_416:\n        /* \"#utility.yul\":8766:8846   */\n      tag_418\n        /* \"#utility.yul\":8838:8845   */\n      dup9\n        /* \"#utility.yul\":8829:8835   */\n      dup3\n        /* \"#utility.yul\":8818:8827   */\n      dup10\n        /* \"#utility.yul\":8814:8836   */\n      add\n        /* \"#utility.yul\":8766:8846   */\n      tag_282\n      jump\t// in\n    tag_418:\n        /* \"#utility.yul\":8748:8846   */\n      swap4\n      pop\n      swap4\n      pop\n        /* \"#utility.yul\":8543:8856   */\n      pop\n        /* \"#utility.yul\":8895:8897   */\n      0x60\n        /* \"#utility.yul\":8921:8974   */\n      tag_419\n        /* \"#utility.yul\":8966:8973   */\n      dup9\n        /* \"#utility.yul\":8957:8963   */\n      dup3\n        /* \"#utility.yul\":8946:8955   */\n      dup10\n        /* \"#utility.yul\":8942:8964   */\n      add\n        /* \"#utility.yul\":8921:8974   */\n      tag_271\n      jump\t// in\n    tag_419:\n        /* \"#utility.yul\":8911:8974   */\n      swap2\n      pop\n        /* \"#utility.yul\":8866:8984   */\n      pop\n        /* \"#utility.yul\":7996:8991   */\n      swap3\n      swap6\n      pop\n      swap3\n      swap6\n      swap1\n      swap4\n      pop\n      jump\t// out\n        /* \"#utility.yul\":8997:10054   */\n    tag_44:\n        /* \"#utility.yul\":9101:9107   */\n      0x00\n        /* \"#utility.yul\":9109:9115   */\n      dup1\n        /* \"#utility.yul\":9117:9123   */\n      0x00\n        /* \"#utility.yul\":9125:9131   */\n      dup1\n        /* \"#utility.yul\":9133:9139   */\n      0x00\n        /* \"#utility.yul\":9141:9147   */\n      dup1\n        /* \"#utility.yul\":9190:9193   */\n      0xc0\n        /* \"#utility.yul\":9178:9187   */\n      dup8\n        /* \"#utility.yul\":9169:9176   */\n      dup10\n        /* \"#utility.yul\":9165:9188   */\n      sub\n        /* \"#utility.yul\":9161:9194   */\n      slt\n        /* \"#utility.yul\":9158:9278   */\n      iszero\n      tag_421\n      jumpi\n        /* \"#utility.yul\":9197:9276   */\n      tag_422\n      tag_255\n      jump\t// in\n    tag_422:\n        /* \"#utility.yul\":9158:9278   */\n    tag_421:\n        /* \"#utility.yul\":9317:9318   */\n      0x00\n        /* \"#utility.yul\":9342:9395   */\n      tag_423\n        /* \"#utility.yul\":9387:9394   */\n      dup10\n        /* \"#utility.yul\":9378:9384   */\n      dup3\n        /* \"#utility.yul\":9367:9376   */\n      dup11\n        /* \"#utility.yul\":9363:9385   */\n      add\n        /* \"#utility.yul\":9342:9395   */\n      tag_271\n      jump\t// in\n    tag_423:\n        /* \"#utility.yul\":9332:9395   */\n      swap7\n      pop\n        /* \"#utility.yul\":9288:9405   */\n      pop\n        /* \"#utility.yul\":9444:9446   */\n      0x20\n        /* \"#utility.yul\":9470:9523   */\n      tag_424\n        /* \"#utility.yul\":9515:9522   */\n      dup10\n        /* \"#utility.yul\":9506:9512   */\n      dup3\n        /* \"#utility.yul\":9495:9504   */\n      dup11\n        /* \"#utility.yul\":9491:9513   */\n      add\n        /* \"#utility.yul\":9470:9523   */\n      tag_271\n      jump\t// in\n    tag_424:\n        /* \"#utility.yul\":9460:9523   */\n      swap6\n      pop\n        /* \"#utility.yul\":9415:9533   */\n      pop\n        /* \"#utility.yul\":9572:9574   */\n      0x40\n        /* \"#utility.yul\":9598:9651   */\n      tag_425\n        /* \"#utility.yul\":9643:9650   */\n      dup10\n        /* \"#utility.yul\":9634:9640   */\n      dup3\n        /* \"#utility.yul\":9623:9632   */\n      dup11\n        /* \"#utility.yul\":9619:9641   */\n      add\n        /* \"#utility.yul\":9598:9651   */\n      tag_259\n      jump\t// in\n    tag_425:\n        /* \"#utility.yul\":9588:9651   */\n      swap5\n      pop\n        /* \"#utility.yul\":9543:9661   */\n      pop\n        /* \"#utility.yul\":9700:9702   */\n      0x60\n        /* \"#utility.yul\":9726:9779   */\n      tag_426\n        /* \"#utility.yul\":9771:9778   */\n      dup10\n        /* \"#utility.yul\":9762:9768   */\n      dup3\n        /* \"#utility.yul\":9751:9760   */\n      dup11\n        /* \"#utility.yul\":9747:9769   */\n      add\n        /* \"#utility.yul\":9726:9779   */\n      tag_259\n      jump\t// in\n    tag_426:\n        /* \"#utility.yul\":9716:9779   */\n      swap4\n      pop\n        /* \"#utility.yul\":9671:9789   */\n      pop\n        /* \"#utility.yul\":9828:9831   */\n      0x80\n        /* \"#utility.yul\":9855:9908   */\n      tag_427\n        /* \"#utility.yul\":9900:9907   */\n      dup10\n        /* \"#utility.yul\":9891:9897   */\n      dup3\n        /* \"#utility.yul\":9880:9889   */\n      dup11\n        /* \"#utility.yul\":9876:9898   */\n      add\n        /* \"#utility.yul\":9855:9908   */\n      tag_259\n      jump\t// in\n    tag_427:\n        /* \"#utility.yul\":9845:9908   */\n      swap3\n      pop\n        /* \"#utility.yul\":9799:9918   */\n      pop\n        /* \"#utility.yul\":9957:9960   */\n      0xa0\n        /* \"#utility.yul\":9984:10037   */\n      tag_428\n        /* \"#utility.yul\":10029:10036   */\n      dup10\n        /* \"#utility.yul\":10020:10026   */\n      dup3\n        /* \"#utility.yul\":10009:10018   */\n      dup11\n        /* \"#utility.yul\":10005:10027   */\n      add\n        /* \"#utility.yul\":9984:10037   */\n      tag_271\n      jump\t// in\n    tag_428:\n        /* \"#utility.yul\":9974:10037   */\n      swap2\n      pop\n        /* \"#utility.yul\":9928:10047   */\n      pop\n        /* \"#utility.yul\":8997:10054   */\n      swap3\n      swap6\n      pop\n      swap3\n      swap6\n      pop\n      swap3\n      swap6\n      jump\t// out\n        /* \"#utility.yul\":10060:10392   */\n    tag_47:\n        /* \"#utility.yul\":10181:10185   */\n      0x00\n        /* \"#utility.yul\":10219:10221   */\n      0x40\n        /* \"#utility.yul\":10208:10217   */\n      dup3\n        /* \"#utility.yul\":10204:10222   */\n      add\n        /* \"#utility.yul\":10196:10222   */\n      swap1\n      pop\n        /* \"#utility.yul\":10232:10303   */\n      tag_430\n        /* \"#utility.yul\":10300:10301   */\n      0x00\n        /* \"#utility.yul\":10289:10298   */\n      dup4\n        /* \"#utility.yul\":10285:10302   */\n      add\n        /* \"#utility.yul\":10276:10282   */\n      dup6\n        /* \"#utility.yul\":10232:10303   */\n      tag_260\n      jump\t// in\n    tag_430:\n        /* \"#utility.yul\":10313:10385   */\n      tag_431\n        /* \"#utility.yul\":10381:10383   */\n      0x20\n        /* \"#utility.yul\":10370:10379   */\n      dup4\n        /* \"#utility.yul\":10366:10384   */\n      add\n        /* \"#utility.yul\":10357:10363   */\n      dup5\n        /* \"#utility.yul\":10313:10385   */\n      tag_260\n      jump\t// in\n    tag_431:\n        /* \"#utility.yul\":10060:10392   */\n      swap4\n      swap3\n      pop\n      pop\n      pop\n      jump\t// out\n        /* \"#utility.yul\":10398:11601   */\n    tag_50:\n        /* \"#utility.yul\":10511:10517   */\n      0x00\n        /* \"#utility.yul\":10519:10525   */\n      dup1\n        /* \"#utility.yul\":10527:10533   */\n      0x00\n        /* \"#utility.yul\":10535:10541   */\n      dup1\n        /* \"#utility.yul\":10543:10549   */\n      0x00\n        /* \"#utility.yul\":10551:10557   */\n      dup1\n        /* \"#utility.yul\":10559:10565   */\n      0x00\n        /* \"#utility.yul\":10608:10611   */\n      0xe0\n        /* \"#utility.yul\":10596:10605   */\n      dup9\n        /* \"#utility.yul\":10587:10594   */\n      dup11\n        /* \"#utility.yul\":10583:10606   */\n      sub\n        /* \"#utility.yul\":10579:10612   */\n      slt\n        /* \"#utility.yul\":10576:10696   */\n      iszero\n      tag_433\n      jumpi\n        /* \"#utility.yul\":10615:10694   */\n      tag_434\n      tag_255\n      jump\t// in\n    tag_434:\n        /* \"#utility.yul\":10576:10696   */\n    tag_433:\n        /* \"#utility.yul\":10735:10736   */\n      0x00\n        /* \"#utility.yul\":10760:10813   */\n      tag_435\n        /* \"#utility.yul\":10805:10812   */\n      dup11\n        /* \"#utility.yul\":10796:10802   */\n      dup3\n        /* \"#utility.yul\":10785:10794   */\n      dup12\n        /* \"#utility.yul\":10781:10803   */\n      add\n        /* \"#utility.yul\":10760:10813   */\n      tag_271\n      jump\t// in\n    tag_435:\n        /* \"#utility.yul\":10750:10813   */\n      swap8\n      pop\n        /* \"#utility.yul\":10706:10823   */\n      pop\n        /* \"#utility.yul\":10862:10864   */\n      0x20\n        /* \"#utility.yul\":10888:10941   */\n      tag_436\n        /* \"#utility.yul\":10933:10940   */\n      dup11\n        /* \"#utility.yul\":10924:10930   */\n      dup3\n        /* \"#utility.yul\":10913:10922   */\n      dup12\n        /* \"#utility.yul\":10909:10931   */\n      add\n        /* \"#utility.yul\":10888:10941   */\n      tag_271\n      jump\t// in\n    tag_436:\n        /* \"#utility.yul\":10878:10941   */\n      swap7\n      pop\n        /* \"#utility.yul\":10833:10951   */\n      pop\n        /* \"#utility.yul\":10990:10992   */\n      0x40\n        /* \"#utility.yul\":11016:11069   */\n      tag_437\n        /* \"#utility.yul\":11061:11068   */\n      dup11\n        /* \"#utility.yul\":11052:11058   */\n      dup3\n        /* \"#utility.yul\":11041:11050   */\n      dup12\n        /* \"#utility.yul\":11037:11059   */\n      add\n        /* \"#utility.yul\":11016:11069   */\n      tag_259\n      jump\t// in\n    tag_437:\n        /* \"#utility.yul\":11006:11069   */\n      swap6\n      pop\n        /* \"#utility.yul\":10961:11079   */\n      pop\n        /* \"#utility.yul\":11118:11120   */\n      0x60\n        /* \"#utility.yul\":11144:11197   */\n      tag_438\n        /* \"#utility.yul\":11189:11196   */\n      dup11\n        /* \"#utility.yul\":11180:11186   */\n      dup3\n        /* \"#utility.yul\":11169:11178   */\n      dup12\n        /* \"#utility.yul\":11165:11187   */\n      add\n        /* \"#utility.yul\":11144:11197   */\n      tag_259\n      jump\t// in\n    tag_438:\n        /* \"#utility.yul\":11134:11197   */\n      swap5\n      pop\n        /* \"#utility.yul\":11089:11207   */\n      pop\n        /* \"#utility.yul\":11246:11249   */\n      0x80\n        /* \"#utility.yul\":11273:11326   */\n      tag_439\n        /* \"#utility.yul\":11318:11325   */\n      dup11\n        /* \"#utility.yul\":11309:11315   */\n      dup3\n        /* \"#utility.yul\":11298:11307   */\n      dup12\n        /* \"#utility.yul\":11294:11316   */\n      add\n        /* \"#utility.yul\":11273:11326   */\n      tag_259\n      jump\t// in\n    tag_439:\n        /* \"#utility.yul\":11263:11326   */\n      swap4\n      pop\n        /* \"#utility.yul\":11217:11336   */\n      pop\n        /* \"#utility.yul\":11375:11378   */\n      0xa0\n        /* \"#utility.yul\":11402:11455   */\n      tag_440\n        /* \"#utility.yul\":11447:11454   */\n      dup11\n        /* \"#utility.yul\":11438:11444   */\n      dup3\n        /* \"#utility.yul\":11427:11436   */\n      dup12\n        /* \"#utility.yul\":11423:11445   */\n      add\n        /* \"#utility.yul\":11402:11455   */\n      tag_259\n      jump\t// in\n    tag_440:\n        /* \"#utility.yul\":11392:11455   */\n      swap3\n      pop\n        /* \"#utility.yul\":11346:11465   */\n      pop\n        /* \"#utility.yul\":11504:11507   */\n      0xc0\n        /* \"#utility.yul\":11531:11584   */\n      tag_441\n        /* \"#utility.yul\":11576:11583   */\n      dup11\n        /* \"#utility.yul\":11567:11573   */\n      dup3\n        /* \"#utility.yul\":11556:11565   */\n      dup12\n        /* \"#utility.yul\":11552:11574   */\n      add\n        /* \"#utility.yul\":11531:11584   */\n      tag_271\n      jump\t// in\n    tag_441:\n        /* \"#utility.yul\":11521:11584   */\n      swap2\n      pop\n        /* \"#utility.yul\":11475:11594   */\n      pop\n        /* \"#utility.yul\":10398:11601   */\n      swap3\n      swap6\n      swap9\n      swap2\n      swap5\n      swap8\n      pop\n      swap3\n      swap6\n      pop\n      jump\t// out\n        /* \"#utility.yul\":11607:12049   */\n    tag_53:\n        /* \"#utility.yul\":11756:11760   */\n      0x00\n        /* \"#utility.yul\":11794:11796   */\n      0x60\n        /* \"#utility.yul\":11783:11792   */\n      dup3\n        /* \"#utility.yul\":11779:11797   */\n      add\n        /* \"#utility.yul\":11771:11797   */\n      swap1\n      pop\n        /* \"#utility.yul\":11807:11878   */\n      tag_443\n        /* \"#utility.yul\":11875:11876   */\n      0x00\n        /* \"#utility.yul\":11864:11873   */\n      dup4\n        /* \"#utility.yul\":11860:11877   */\n      add\n        /* \"#utility.yul\":11851:11857   */\n      dup7\n        /* \"#utility.yul\":11807:11878   */\n      tag_260\n      jump\t// in\n    tag_443:\n        /* \"#utility.yul\":11888:11960   */\n      tag_444\n        /* \"#utility.yul\":11956:11958   */\n      0x20\n        /* \"#utility.yul\":11945:11954   */\n      dup4\n        /* \"#utility.yul\":11941:11959   */\n      add\n        /* \"#utility.yul\":11932:11938   */\n      dup6\n        /* \"#utility.yul\":11888:11960   */\n      tag_260\n      jump\t// in\n    tag_444:\n        /* \"#utility.yul\":11970:12042   */\n      tag_445\n        /* \"#utility.yul\":12038:12040   */\n      0x40\n        /* \"#utility.yul\":12027:12036   */\n      dup4\n        /* \"#utility.yul\":12023:12041   */\n      add\n        /* \"#utility.yul\":12014:12020   */\n      dup5\n        /* \"#utility.yul\":11970:12042   */\n      tag_260\n      jump\t// in\n    tag_445:\n        /* \"#utility.yul\":11607:12049   */\n      swap5\n      swap4\n      pop\n      pop\n      pop\n      pop\n      jump\t// out\n        /* \"#utility.yul\":12055:12181   */\n    tag_283:\n        /* \"#utility.yul\":12150:12174   */\n      tag_447\n        /* \"#utility.yul\":12168:12173   */\n      dup2\n        /* \"#utility.yul\":12150:12174   */\n      tag_257\n      jump\t// in\n    tag_447:\n        /* \"#utility.yul\":12145:12148   */\n      dup3\n        /* \"#utility.yul\":12138:12175   */\n      mstore\n        /* \"#utility.yul\":12055:12181   */\n      pop\n      pop\n      jump\t// out\n        /* \"#utility.yul\":12187:12661   */\n    tag_60:\n        /* \"#utility.yul\":12344:12348   */\n      0x00\n        /* \"#utility.yul\":12382:12384   */\n      0x60\n        /* \"#utility.yul\":12371:12380   */\n      dup3\n        /* \"#utility.yul\":12367:12385   */\n      add\n        /* \"#utility.yul\":12359:12385   */\n      swap1\n      pop\n        /* \"#utility.yul\":12395:12474   */\n      tag_449\n        /* \"#utility.yul\":12471:12472   */\n      0x00\n        /* \"#utility.yul\":12460:12469   */\n      dup4\n        /* \"#utility.yul\":12456:12473   */\n      add\n        /* \"#utility.yul\":12447:12453   */\n      dup7\n        /* \"#utility.yul\":12395:12474   */\n      tag_283\n      jump\t// in\n    tag_449:\n        /* \"#utility.yul\":12484:12564   */\n      tag_450\n        /* \"#utility.yul\":12560:12562   */\n      0x20\n        /* \"#utility.yul\":12549:12558   */\n      dup4\n        /* \"#utility.yul\":12545:12563   */\n      add\n        /* \"#utility.yul\":12536:12542   */\n      dup6\n        /* \"#utility.yul\":12484:12564   */\n      tag_283\n      jump\t// in\n    tag_450:\n        /* \"#utility.yul\":12574:12654   */\n      tag_451\n        /* \"#utility.yul\":12650:12652   */\n      0x40\n        /* \"#utility.yul\":12639:12648   */\n      dup4\n        /* \"#utility.yul\":12635:12653   */\n      add\n        /* \"#utility.yul\":12626:12632   */\n      dup5\n        /* \"#utility.yul\":12574:12654   */\n      tag_283\n      jump\t// in\n    tag_451:\n        /* \"#utility.yul\":12187:12661   */\n      swap5\n      swap4\n      pop\n      pop\n      pop\n      pop\n      jump\t// out\n        /* \"#utility.yul\":12667:12810   */\n    tag_284:\n        /* \"#utility.yul\":12724:12729   */\n      0x00\n        /* \"#utility.yul\":12755:12761   */\n      dup2\n        /* \"#utility.yul\":12749:12762   */\n      mload\n        /* \"#utility.yul\":12740:12762   */\n      swap1\n      pop\n        /* \"#utility.yul\":12771:12804   */\n      tag_453\n        /* \"#utility.yul\":12798:12803   */\n      dup2\n        /* \"#utility.yul\":12771:12804   */\n      tag_258\n      jump\t// in\n    tag_453:\n        /* \"#utility.yul\":12667:12810   */\n      swap3\n      swap2\n      pop\n      pop\n      jump\t// out\n        /* \"#utility.yul\":12816:13167   */\n    tag_64:\n        /* \"#utility.yul\":12886:12892   */\n      0x00\n        /* \"#utility.yul\":12935:12937   */\n      0x20\n        /* \"#utility.yul\":12923:12932   */\n      dup3\n        /* \"#utility.yul\":12914:12921   */\n      dup5\n        /* \"#utility.yul\":12910:12933   */\n      sub\n        /* \"#utility.yul\":12906:12938   */\n      slt\n        /* \"#utility.yul\":12903:13022   */\n      iszero\n      tag_455\n      jumpi\n        /* \"#utility.yul\":12941:13020   */\n      tag_456\n      tag_255\n      jump\t// in\n    tag_456:\n        /* \"#utility.yul\":12903:13022   */\n    tag_455:\n        /* \"#utility.yul\":13061:13062   */\n      0x00\n        /* \"#utility.yul\":13086:13150   */\n      tag_457\n        /* \"#utility.yul\":13142:13149   */\n      dup5\n        /* \"#utility.yul\":13133:13139   */\n      dup3\n        /* \"#utility.yul\":13122:13131   */\n      dup6\n        /* \"#utility.yul\":13118:13140   */\n      add\n        /* \"#utility.yul\":13086:13150   */\n      tag_284\n      jump\t// in\n    tag_457:\n        /* \"#utility.yul\":13076:13150   */\n      swap2\n      pop\n        /* \"#utility.yul\":13032:13160   */\n      pop\n        /* \"#utility.yul\":12816:13167   */\n      swap3\n      swap2\n      pop\n      pop\n      jump\t// out\n        /* \"#utility.yul\":13173:13299   */\n    tag_285:\n        /* \"#utility.yul\":13268:13292   */\n      tag_459\n        /* \"#utility.yul\":13286:13291   */\n      dup2\n        /* \"#utility.yul\":13268:13292   */\n      tag_269\n      jump\t// in\n    tag_459:\n        /* \"#utility.yul\":13263:13266   */\n      dup3\n        /* \"#utility.yul\":13256:13293   */\n      mstore\n        /* \"#utility.yul\":13173:13299   */\n      pop\n      pop\n      jump\t// out\n        /* \"#utility.yul\":13305:13419   */\n    tag_286:\n        /* \"#utility.yul\":13372:13378   */\n      0x00\n        /* \"#utility.yul\":13406:13411   */\n      dup2\n        /* \"#utility.yul\":13400:13412   */\n      mload\n        /* \"#utility.yul\":13390:13412   */\n      swap1\n      pop\n        /* \"#utility.yul\":13305:13419   */\n      swap2\n      swap1\n      pop\n      jump\t// out\n        /* \"#utility.yul\":13425:13617   */\n    tag_287:\n        /* \"#utility.yul\":13532:13543   */\n      0x00\n        /* \"#utility.yul\":13566:13572   */\n      dup3\n        /* \"#utility.yul\":13561:13564   */\n      dup3\n        /* \"#utility.yul\":13554:13573   */\n      mstore\n        /* \"#utility.yul\":13606:13610   */\n      0x20\n        /* \"#utility.yul\":13601:13604   */\n      dup3\n        /* \"#utility.yul\":13597:13611   */\n      add\n        /* \"#utility.yul\":13582:13611   */\n      swap1\n      pop\n        /* \"#utility.yul\":13425:13617   */\n      swap3\n      swap2\n      pop\n      pop\n      jump\t// out\n        /* \"#utility.yul\":13623:13755   */\n    tag_288:\n        /* \"#utility.yul\":13690:13694   */\n      0x00\n        /* \"#utility.yul\":13713:13716   */\n      dup2\n        /* \"#utility.yul\":13705:13716   */\n      swap1\n      pop\n        /* \"#utility.yul\":13743:13747   */\n      0x20\n        /* \"#utility.yul\":13738:13741   */\n      dup3\n        /* \"#utility.yul\":13734:13748   */\n      add\n        /* \"#utility.yul\":13726:13748   */\n      swap1\n      pop\n        /* \"#utility.yul\":13623:13755   */\n      swap2\n      swap1\n      pop\n      jump\t// out\n        /* \"#utility.yul\":13761:13877   */\n    tag_289:\n        /* \"#utility.yul\":13846:13870   */\n      tag_464\n        /* \"#utility.yul\":13864:13869   */\n      dup2\n        /* \"#utility.yul\":13846:13870   */\n      tag_269\n      jump\t// in\n    tag_464:\n        /* \"#utility.yul\":13841:13844   */\n      dup3\n        /* \"#utility.yul\":13834:13871   */\n      mstore\n        /* \"#utility.yul\":13761:13877   */\n      pop\n      pop\n      jump\t// out\n        /* \"#utility.yul\":13883:14078   */\n    tag_290:\n        /* \"#utility.yul\":13960:13970   */\n      0x00\n        /* \"#utility.yul\":13981:14035   */\n      tag_466\n        /* \"#utility.yul\":14031:14034   */\n      dup4\n        /* \"#utility.yul\":14023:14029   */\n      dup4\n        /* \"#utility.yul\":13981:14035   */\n      tag_289\n      jump\t// in\n    tag_466:\n        /* \"#utility.yul\":14067:14071   */\n      0x20\n        /* \"#utility.yul\":14062:14065   */\n      dup4\n        /* \"#utility.yul\":14058:14072   */\n      add\n        /* \"#utility.yul\":14044:14072   */\n      swap1\n      pop\n        /* \"#utility.yul\":13883:14078   */\n      swap3\n      swap2\n      pop\n      pop\n      jump\t// out\n        /* \"#utility.yul\":14084:14197   */\n    tag_291:\n        /* \"#utility.yul\":14154:14158   */\n      0x00\n        /* \"#utility.yul\":14186:14190   */\n      0x20\n        /* \"#utility.yul\":14181:14184   */\n      dup3\n        /* \"#utility.yul\":14177:14191   */\n      add\n        /* \"#utility.yul\":14169:14191   */\n      swap1\n      pop\n        /* \"#utility.yul\":14084:14197   */\n      swap2\n      swap1\n      pop\n      jump\t// out\n        /* \"#utility.yul\":14233:14989   */\n    tag_292:\n        /* \"#utility.yul\":14360:14363   */\n      0x00\n        /* \"#utility.yul\":14389:14443   */\n      tag_469\n        /* \"#utility.yul\":14437:14442   */\n      dup3\n        /* \"#utility.yul\":14389:14443   */\n      tag_286\n      jump\t// in\n    tag_469:\n        /* \"#utility.yul\":14459:14553   */\n      tag_470\n        /* \"#utility.yul\":14546:14552   */\n      dup2\n        /* \"#utility.yul\":14541:14544   */\n      dup6\n        /* \"#utility.yul\":14459:14553   */\n      tag_287\n      jump\t// in\n    tag_470:\n        /* \"#utility.yul\":14452:14553   */\n      swap4\n      pop\n        /* \"#utility.yul\":14577:14633   */\n      tag_471\n        /* \"#utility.yul\":14627:14632   */\n      dup4\n        /* \"#utility.yul\":14577:14633   */\n      tag_288\n      jump\t// in\n    tag_471:\n        /* \"#utility.yul\":14656:14663   */\n      dup1\n        /* \"#utility.yul\":14687:14688   */\n      0x00\n        /* \"#utility.yul\":14672:14964   */\n    tag_472:\n        /* \"#utility.yul\":14697:14703   */\n      dup4\n        /* \"#utility.yul\":14694:14695   */\n      dup2\n        /* \"#utility.yul\":14691:14704   */\n      lt\n        /* \"#utility.yul\":14672:14964   */\n      iszero\n      tag_474\n      jumpi\n        /* \"#utility.yul\":14773:14779   */\n      dup2\n        /* \"#utility.yul\":14767:14780   */\n      mload\n        /* \"#utility.yul\":14800:14871   */\n      tag_475\n        /* \"#utility.yul\":14867:14870   */\n      dup9\n        /* \"#utility.yul\":14852:14865   */\n      dup3\n        /* \"#utility.yul\":14800:14871   */\n      tag_290\n      jump\t// in\n    tag_475:\n        /* \"#utility.yul\":14793:14871   */\n      swap8\n      pop\n        /* \"#utility.yul\":14894:14954   */\n      tag_476\n        /* \"#utility.yul\":14947:14953   */\n      dup4\n        /* \"#utility.yul\":14894:14954   */\n      tag_291\n      jump\t// in\n    tag_476:\n        /* \"#utility.yul\":14884:14954   */\n      swap3\n      pop\n        /* \"#utility.yul\":14732:14964   */\n      pop\n        /* \"#utility.yul\":14719:14720   */\n      0x01\n        /* \"#utility.yul\":14716:14717   */\n      dup2\n        /* \"#utility.yul\":14712:14721   */\n      add\n        /* \"#utility.yul\":14707:14721   */\n      swap1\n      pop\n        /* \"#utility.yul\":14672:14964   */\n      jump(tag_472)\n    tag_474:\n        /* \"#utility.yul\":14676:14690   */\n      pop\n        /* \"#utility.yul\":14980:14983   */\n      dup6\n        /* \"#utility.yul\":14973:14983   */\n      swap4\n      pop\n        /* \"#utility.yul\":14365:14989   */\n      pop\n      pop\n      pop\n        /* \"#utility.yul\":14233:14989   */\n      swap3\n      swap2\n      pop\n      pop\n      jump\t// out\n        /* \"#utility.yul\":14995:15620   */\n    tag_67:\n        /* \"#utility.yul\":15202:15206   */\n      0x00\n        /* \"#utility.yul\":15240:15242   */\n      0x60\n        /* \"#utility.yul\":15229:15238   */\n      dup3\n        /* \"#utility.yul\":15225:15243   */\n      add\n        /* \"#utility.yul\":15217:15243   */\n      swap1\n      pop\n        /* \"#utility.yul\":15253:15332   */\n      tag_478\n        /* \"#utility.yul\":15329:15330   */\n      0x00\n        /* \"#utility.yul\":15318:15327   */\n      dup4\n        /* \"#utility.yul\":15314:15331   */\n      add\n        /* \"#utility.yul\":15305:15311   */\n      dup7\n        /* \"#utility.yul\":15253:15332   */\n      tag_285\n      jump\t// in\n    tag_478:\n        /* \"#utility.yul\":15342:15422   */\n      tag_479\n        /* \"#utility.yul\":15418:15420   */\n      0x20\n        /* \"#utility.yul\":15407:15416   */\n      dup4\n        /* \"#utility.yul\":15403:15421   */\n      add\n        /* \"#utility.yul\":15394:15400   */\n      dup6\n        /* \"#utility.yul\":15342:15422   */\n      tag_283\n      jump\t// in\n    tag_479:\n        /* \"#utility.yul\":15469:15478   */\n      dup2\n        /* \"#utility.yul\":15463:15467   */\n      dup2\n        /* \"#utility.yul\":15459:15479   */\n      sub\n        /* \"#utility.yul\":15454:15456   */\n      0x40\n        /* \"#utility.yul\":15443:15452   */\n      dup4\n        /* \"#utility.yul\":15439:15457   */\n      add\n        /* \"#utility.yul\":15432:15480   */\n      mstore\n        /* \"#utility.yul\":15497:15613   */\n      tag_480\n        /* \"#utility.yul\":15608:15612   */\n      dup2\n        /* \"#utility.yul\":15599:15605   */\n      dup5\n        /* \"#utility.yul\":15497:15613   */\n      tag_292\n      jump\t// in\n    tag_480:\n        /* \"#utility.yul\":15489:15613   */\n      swap1\n      pop\n        /* \"#utility.yul\":14995:15620   */\n      swap5\n      swap4\n      pop\n      pop\n      pop\n      pop\n      jump\t// out\n        /* \"#utility.yul\":15626:15937   */\n    tag_293:\n        /* \"#utility.yul\":15703:15707   */\n      0x00\n        /* \"#utility.yul\":15793:15811   */\n      0xffffffffffffffff\n        /* \"#utility.yul\":15785:15791   */\n      dup3\n        /* \"#utility.yul\":15782:15812   */\n      gt\n        /* \"#utility.yul\":15779:15835   */\n      iszero\n      tag_482\n      jumpi\n        /* \"#utility.yul\":15815:15833   */\n      tag_483\n      tag_263\n      jump\t// in\n    tag_483:\n        /* \"#utility.yul\":15779:15835   */\n    tag_482:\n        /* \"#utility.yul\":15865:15869   */\n      0x20\n        /* \"#utility.yul\":15857:15863   */\n      dup3\n        /* \"#utility.yul\":15853:15870   */\n      mul\n        /* \"#utility.yul\":15845:15870   */\n      swap1\n      pop\n        /* \"#utility.yul\":15925:15929   */\n      0x20\n        /* \"#utility.yul\":15919:15923   */\n      dup2\n        /* \"#utility.yul\":15915:15930   */\n      add\n        /* \"#utility.yul\":15907:15930   */\n      swap1\n      pop\n        /* \"#utility.yul\":15626:15937   */\n      swap2\n      swap1\n      pop\n      jump\t// out\n        /* \"#utility.yul\":15960:16692   */\n    tag_294:\n        /* \"#utility.yul\":16067:16072   */\n      0x00\n        /* \"#utility.yul\":16092:16173   */\n      tag_485\n        /* \"#utility.yul\":16108:16172   */\n      tag_486\n        /* \"#utility.yul\":16165:16171   */\n      dup5\n        /* \"#utility.yul\":16108:16172   */\n      tag_293\n      jump\t// in\n    tag_486:\n        /* \"#utility.yul\":16092:16173   */\n      tag_265\n      jump\t// in\n    tag_485:\n        /* \"#utility.yul\":16083:16173   */\n      swap1\n      pop\n        /* \"#utility.yul\":16193:16198   */\n      dup1\n        /* \"#utility.yul\":16222:16228   */\n      dup4\n        /* \"#utility.yul\":16215:16220   */\n      dup3\n        /* \"#utility.yul\":16208:16229   */\n      mstore\n        /* \"#utility.yul\":16256:16260   */\n      0x20\n        /* \"#utility.yul\":16249:16254   */\n      dup3\n        /* \"#utility.yul\":16245:16261   */\n      add\n        /* \"#utility.yul\":16238:16261   */\n      swap1\n      pop\n        /* \"#utility.yul\":16309:16313   */\n      0x20\n        /* \"#utility.yul\":16301:16307   */\n      dup5\n        /* \"#utility.yul\":16297:16314   */\n      mul\n        /* \"#utility.yul\":16289:16295   */\n      dup4\n        /* \"#utility.yul\":16285:16315   */\n      add\n        /* \"#utility.yul\":16338:16341   */\n      dup6\n        /* \"#utility.yul\":16330:16336   */\n      dup2\n        /* \"#utility.yul\":16327:16342   */\n      gt\n        /* \"#utility.yul\":16324:16446   */\n      iszero\n      tag_487\n      jumpi\n        /* \"#utility.yul\":16357:16436   */\n      tag_488\n      tag_267\n      jump\t// in\n    tag_488:\n        /* \"#utility.yul\":16324:16446   */\n    tag_487:\n        /* \"#utility.yul\":16472:16478   */\n      dup4\n        /* \"#utility.yul\":16455:16686   */\n    tag_489:\n        /* \"#utility.yul\":16489:16495   */\n      dup2\n        /* \"#utility.yul\":16484:16487   */\n      dup2\n        /* \"#utility.yul\":16481:16496   */\n      lt\n        /* \"#utility.yul\":16455:16686   */\n      iszero\n      tag_491\n      jumpi\n        /* \"#utility.yul\":16564:16567   */\n      dup1\n        /* \"#utility.yul\":16593:16641   */\n      tag_492\n        /* \"#utility.yul\":16637:16640   */\n      dup9\n        /* \"#utility.yul\":16625:16635   */\n      dup3\n        /* \"#utility.yul\":16593:16641   */\n      tag_284\n      jump\t// in\n    tag_492:\n        /* \"#utility.yul\":16588:16591   */\n      dup5\n        /* \"#utility.yul\":16581:16642   */\n      mstore\n        /* \"#utility.yul\":16671:16675   */\n      0x20\n        /* \"#utility.yul\":16666:16669   */\n      dup5\n        /* \"#utility.yul\":16662:16676   */\n      add\n        /* \"#utility.yul\":16655:16676   */\n      swap4\n      pop\n        /* \"#utility.yul\":16531:16686   */\n      pop\n        /* \"#utility.yul\":16515:16519   */\n      0x20\n        /* \"#utility.yul\":16510:16513   */\n      dup2\n        /* \"#utility.yul\":16506:16520   */\n      add\n        /* \"#utility.yul\":16499:16520   */\n      swap1\n      pop\n        /* \"#utility.yul\":16455:16686   */\n      jump(tag_489)\n    tag_491:\n        /* \"#utility.yul\":16459:16480   */\n      pop\n        /* \"#utility.yul\":16073:16692   */\n      pop\n      pop\n        /* \"#utility.yul\":15960:16692   */\n      swap4\n      swap3\n      pop\n      pop\n      pop\n      jump\t// out\n        /* \"#utility.yul\":16715:17100   */\n    tag_295:\n        /* \"#utility.yul\":16797:16802   */\n      0x00\n        /* \"#utility.yul\":16846:16849   */\n      dup3\n        /* \"#utility.yul\":16839:16843   */\n      0x1f\n        /* \"#utility.yul\":16831:16837   */\n      dup4\n        /* \"#utility.yul\":16827:16844   */\n      add\n        /* \"#utility.yul\":16823:16850   */\n      slt\n        /* \"#utility.yul\":16813:16935   */\n      tag_494\n      jumpi\n        /* \"#utility.yul\":16854:16933   */\n      tag_495\n      tag_261\n      jump\t// in\n    tag_495:\n        /* \"#utility.yul\":16813:16935   */\n    tag_494:\n        /* \"#utility.yul\":16964:16970   */\n      dup2\n        /* \"#utility.yul\":16958:16971   */\n      mload\n        /* \"#utility.yul\":16989:17094   */\n      tag_496\n        /* \"#utility.yul\":17090:17093   */\n      dup5\n        /* \"#utility.yul\":17082:17088   */\n      dup3\n        /* \"#utility.yul\":17075:17079   */\n      0x20\n        /* \"#utility.yul\":17067:17073   */\n      dup7\n        /* \"#utility.yul\":17063:17080   */\n      add\n        /* \"#utility.yul\":16989:17094   */\n      tag_294\n      jump\t// in\n    tag_496:\n        /* \"#utility.yul\":16980:17094   */\n      swap2\n      pop\n        /* \"#utility.yul\":16803:17100   */\n      pop\n        /* \"#utility.yul\":16715:17100   */\n      swap3\n      swap2\n      pop\n      pop\n      jump\t// out\n        /* \"#utility.yul\":17106:17660   */\n    tag_71:\n        /* \"#utility.yul\":17201:17207   */\n      0x00\n        /* \"#utility.yul\":17250:17252   */\n      0x20\n        /* \"#utility.yul\":17238:17247   */\n      dup3\n        /* \"#utility.yul\":17229:17236   */\n      dup5\n        /* \"#utility.yul\":17225:17248   */\n      sub\n        /* \"#utility.yul\":17221:17253   */\n      slt\n        /* \"#utility.yul\":17218:17337   */\n      iszero\n      tag_498\n      jumpi\n        /* \"#utility.yul\":17256:17335   */\n      tag_499\n      tag_255\n      jump\t// in\n    tag_499:\n        /* \"#utility.yul\":17218:17337   */\n    tag_498:\n        /* \"#utility.yul\":17397:17398   */\n      0x00\n        /* \"#utility.yul\":17386:17395   */\n      dup3\n        /* \"#utility.yul\":17382:17399   */\n      add\n        /* \"#utility.yul\":17376:17400   */\n      mload\n        /* \"#utility.yul\":17427:17445   */\n      0xffffffffffffffff\n        /* \"#utility.yul\":17419:17425   */\n      dup2\n        /* \"#utility.yul\":17416:17446   */\n      gt\n        /* \"#utility.yul\":17413:17530   */\n      iszero\n      tag_500\n      jumpi\n        /* \"#utility.yul\":17449:17528   */\n      tag_501\n      tag_256\n      jump\t// in\n    tag_501:\n        /* \"#utility.yul\":17413:17530   */\n    tag_500:\n        /* \"#utility.yul\":17554:17643   */\n      tag_502\n        /* \"#utility.yul\":17635:17642   */\n      dup5\n        /* \"#utility.yul\":17626:17632   */\n      dup3\n        /* \"#utility.yul\":17615:17624   */\n      dup6\n        /* \"#utility.yul\":17611:17633   */\n      add\n        /* \"#utility.yul\":17554:17643   */\n      tag_295\n      jump\t// in\n    tag_502:\n        /* \"#utility.yul\":17544:17643   */\n      swap2\n      pop\n        /* \"#utility.yul\":17347:17653   */\n      pop\n        /* \"#utility.yul\":17106:17660   */\n      swap3\n      swap2\n      pop\n      pop\n      jump\t// out\n        /* \"#utility.yul\":17666:17768   */\n    tag_296:\n        /* \"#utility.yul\":17735:17739   */\n      0x00\n        /* \"#utility.yul\":17758:17761   */\n      dup2\n        /* \"#utility.yul\":17750:17761   */\n      swap1\n      pop\n        /* \"#utility.yul\":17666:17768   */\n      swap2\n      swap1\n      pop\n      jump\t// out\n        /* \"#utility.yul\":17774:17896   */\n    tag_297:\n        /* \"#utility.yul\":17826:17831   */\n      0x00\n        /* \"#utility.yul\":17851:17890   */\n      tag_505\n        /* \"#utility.yul\":17886:17888   */\n      0x20\n        /* \"#utility.yul\":17881:17884   */\n      dup5\n        /* \"#utility.yul\":17877:17889   */\n      add\n        /* \"#utility.yul\":17872:17875   */\n      dup5\n        /* \"#utility.yul\":17851:17890   */\n      tag_271\n      jump\t// in\n    tag_505:\n        /* \"#utility.yul\":17842:17890   */\n      swap1\n      pop\n        /* \"#utility.yul\":17774:17896   */\n      swap3\n      swap2\n      pop\n      pop\n      jump\t// out\n        /* \"#utility.yul\":17902:18017   */\n    tag_298:\n        /* \"#utility.yul\":17974:17978   */\n      0x00\n        /* \"#utility.yul\":18006:18010   */\n      0x20\n        /* \"#utility.yul\":18001:18004   */\n      dup3\n        /* \"#utility.yul\":17997:18011   */\n      add\n        /* \"#utility.yul\":17989:18011   */\n      swap1\n      pop\n        /* \"#utility.yul\":17902:18017   */\n      swap2\n      swap1\n      pop\n      jump\t// out\n        /* \"#utility.yul\":18053:18776   */\n    tag_299:\n        /* \"#utility.yul\":18190:18193   */\n      0x00\n        /* \"#utility.yul\":18213:18307   */\n      tag_508\n        /* \"#utility.yul\":18300:18306   */\n      dup4\n        /* \"#utility.yul\":18295:18298   */\n      dup6\n        /* \"#utility.yul\":18213:18307   */\n      tag_287\n      jump\t// in\n    tag_508:\n        /* \"#utility.yul\":18206:18307   */\n      swap4\n      pop\n        /* \"#utility.yul\":18331:18389   */\n      tag_509\n        /* \"#utility.yul\":18383:18388   */\n      dup3\n        /* \"#utility.yul\":18331:18389   */\n      tag_296\n      jump\t// in\n    tag_509:\n        /* \"#utility.yul\":18412:18419   */\n      dup1\n        /* \"#utility.yul\":18443:18444   */\n      0x00\n        /* \"#utility.yul\":18428:18751   */\n    tag_510:\n        /* \"#utility.yul\":18453:18459   */\n      dup6\n        /* \"#utility.yul\":18450:18451   */\n      dup2\n        /* \"#utility.yul\":18447:18460   */\n      lt\n        /* \"#utility.yul\":18428:18751   */\n      iszero\n      tag_512\n      jumpi\n        /* \"#utility.yul\":18523:18565   */\n      tag_513\n        /* \"#utility.yul\":18558:18564   */\n      dup3\n        /* \"#utility.yul\":18549:18556   */\n      dup5\n        /* \"#utility.yul\":18523:18565   */\n      tag_297\n      jump\t// in\n    tag_513:\n        /* \"#utility.yul\":18585:18656   */\n      tag_514\n        /* \"#utility.yul\":18652:18655   */\n      dup9\n        /* \"#utility.yul\":18637:18650   */\n      dup3\n        /* \"#utility.yul\":18585:18656   */\n      tag_290\n      jump\t// in\n    tag_514:\n        /* \"#utility.yul\":18578:18656   */\n      swap8\n      pop\n        /* \"#utility.yul\":18679:18741   */\n      tag_515\n        /* \"#utility.yul\":18734:18740   */\n      dup4\n        /* \"#utility.yul\":18679:18741   */\n      tag_298\n      jump\t// in\n    tag_515:\n        /* \"#utility.yul\":18669:18741   */\n      swap3\n      pop\n        /* \"#utility.yul\":18488:18751   */\n      pop\n        /* \"#utility.yul\":18475:18476   */\n      0x01\n        /* \"#utility.yul\":18472:18473   */\n      dup2\n        /* \"#utility.yul\":18468:18477   */\n      add\n        /* \"#utility.yul\":18463:18477   */\n      swap1\n      pop\n        /* \"#utility.yul\":18428:18751   */\n      jump(tag_510)\n    tag_512:\n        /* \"#utility.yul\":18432:18446   */\n      pop\n        /* \"#utility.yul\":18767:18770   */\n      dup6\n        /* \"#utility.yul\":18760:18770   */\n      swap3\n      pop\n        /* \"#utility.yul\":18195:18776   */\n      pop\n      pop\n        /* \"#utility.yul\":18053:18776   */\n      swap4\n      swap3\n      pop\n      pop\n      pop\n      jump\t// out\n        /* \"#utility.yul\":18782:19427   */\n    tag_74:\n        /* \"#utility.yul\":18999:19003   */\n      0x00\n        /* \"#utility.yul\":19037:19039   */\n      0x60\n        /* \"#utility.yul\":19026:19035   */\n      dup3\n        /* \"#utility.yul\":19022:19040   */\n      add\n        /* \"#utility.yul\":19014:19040   */\n      swap1\n      pop\n        /* \"#utility.yul\":19050:19129   */\n      tag_517\n        /* \"#utility.yul\":19126:19127   */\n      0x00\n        /* \"#utility.yul\":19115:19124   */\n      dup4\n        /* \"#utility.yul\":19111:19128   */\n      add\n        /* \"#utility.yul\":19102:19108   */\n      dup8\n        /* \"#utility.yul\":19050:19129   */\n      tag_285\n      jump\t// in\n    tag_517:\n        /* \"#utility.yul\":19139:19219   */\n      tag_518\n        /* \"#utility.yul\":19215:19217   */\n      0x20\n        /* \"#utility.yul\":19204:19213   */\n      dup4\n        /* \"#utility.yul\":19200:19218   */\n      add\n        /* \"#utility.yul\":19191:19197   */\n      dup7\n        /* \"#utility.yul\":19139:19219   */\n      tag_283\n      jump\t// in\n    tag_518:\n        /* \"#utility.yul\":19266:19275   */\n      dup2\n        /* \"#utility.yul\":19260:19264   */\n      dup2\n        /* \"#utility.yul\":19256:19276   */\n      sub\n        /* \"#utility.yul\":19251:19253   */\n      0x40\n        /* \"#utility.yul\":19240:19249   */\n      dup4\n        /* \"#utility.yul\":19236:19254   */\n      add\n        /* \"#utility.yul\":19229:19277   */\n      mstore\n        /* \"#utility.yul\":19294:19420   */\n      tag_519\n        /* \"#utility.yul\":19415:19419   */\n      dup2\n        /* \"#utility.yul\":19406:19412   */\n      dup5\n        /* \"#utility.yul\":19398:19404   */\n      dup7\n        /* \"#utility.yul\":19294:19420   */\n      tag_299\n      jump\t// in\n    tag_519:\n        /* \"#utility.yul\":19286:19420   */\n      swap1\n      pop\n        /* \"#utility.yul\":18782:19427   */\n      swap6\n      swap5\n      pop\n      pop\n      pop\n      pop\n      pop\n      jump\t// out\n        /* \"#utility.yul\":19433:19613   */\n    tag_300:\n        /* \"#utility.yul\":19481:19558   */\n      0x4e487b7100000000000000000000000000000000000000000000000000000000\n        /* \"#utility.yul\":19478:19479   */\n      0x00\n        /* \"#utility.yul\":19471:19559   */\n      mstore\n        /* \"#utility.yul\":19578:19582   */\n      0x11\n        /* \"#utility.yul\":19575:19576   */\n      0x04\n        /* \"#utility.yul\":19568:19583   */\n      mstore\n        /* \"#utility.yul\":19602:19606   */\n      0x24\n        /* \"#utility.yul\":19599:19600   */\n      0x00\n        /* \"#utility.yul\":19592:19607   */\n      revert\n        /* \"#utility.yul\":19619:19810   */\n    tag_79:\n        /* \"#utility.yul\":19659:19663   */\n      0x00\n        /* \"#utility.yul\":19679:19699   */\n      tag_522\n        /* \"#utility.yul\":19697:19698   */\n      dup3\n        /* \"#utility.yul\":19679:19699   */\n      tag_257\n      jump\t// in\n    tag_522:\n        /* \"#utility.yul\":19674:19699   */\n      swap2\n      pop\n        /* \"#utility.yul\":19713:19733   */\n      tag_523\n        /* \"#utility.yul\":19731:19732   */\n      dup4\n        /* \"#utility.yul\":19713:19733   */\n      tag_257\n      jump\t// in\n    tag_523:\n        /* \"#utility.yul\":19708:19733   */\n      swap3\n      pop\n        /* \"#utility.yul\":19752:19753   */\n      dup3\n        /* \"#utility.yul\":19749:19750   */\n      dup3\n        /* \"#utility.yul\":19746:19754   */\n      lt\n        /* \"#utility.yul\":19743:19777   */\n      iszero\n      tag_524\n      jumpi\n        /* \"#utility.yul\":19757:19775   */\n      tag_525\n      tag_300\n      jump\t// in\n    tag_525:\n        /* \"#utility.yul\":19743:19777   */\n    tag_524:\n        /* \"#utility.yul\":19802:19803   */\n      dup3\n        /* \"#utility.yul\":19799:19800   */\n      dup3\n        /* \"#utility.yul\":19795:19804   */\n      sub\n        /* \"#utility.yul\":19787:19804   */\n      swap1\n      pop\n        /* \"#utility.yul\":19619:19810   */\n      swap3\n      swap2\n      pop\n      pop\n      jump\t// out\n        /* \"#utility.yul\":19816:19996   */\n    tag_82:\n        /* \"#utility.yul\":19864:19941   */\n      0x4e487b7100000000000000000000000000000000000000000000000000000000\n        /* \"#utility.yul\":19861:19862   */\n      0x00\n        /* \"#utility.yul\":19854:19942   */\n      mstore\n        /* \"#utility.yul\":19961:19965   */\n      0x32\n        /* \"#utility.yul\":19958:19959   */\n      0x04\n        /* \"#utility.yul\":19951:19966   */\n      mstore\n        /* \"#utility.yul\":19985:19989   */\n      0x24\n        /* \"#utility.yul\":19982:19983   */\n      0x00\n        /* \"#utility.yul\":19975:19990   */\n      revert\n        /* \"#utility.yul\":20002:20331   */\n    tag_88:\n        /* \"#utility.yul\":20061:20067   */\n      0x00\n        /* \"#utility.yul\":20110:20112   */\n      0x20\n        /* \"#utility.yul\":20098:20107   */\n      dup3\n        /* \"#utility.yul\":20089:20096   */\n      dup5\n        /* \"#utility.yul\":20085:20108   */\n      sub\n        /* \"#utility.yul\":20081:20113   */\n      slt\n        /* \"#utility.yul\":20078:20197   */\n      iszero\n      tag_528\n      jumpi\n        /* \"#utility.yul\":20116:20195   */\n      tag_529\n      tag_255\n      jump\t// in\n    tag_529:\n        /* \"#utility.yul\":20078:20197   */\n    tag_528:\n        /* \"#utility.yul\":20236:20237   */\n      0x00\n        /* \"#utility.yul\":20261:20314   */\n      tag_530\n        /* \"#utility.yul\":20306:20313   */\n      dup5\n        /* \"#utility.yul\":20297:20303   */\n      dup3\n        /* \"#utility.yul\":20286:20295   */\n      dup6\n        /* \"#utility.yul\":20282:20304   */\n      add\n        /* \"#utility.yul\":20261:20314   */\n      tag_271\n      jump\t// in\n    tag_530:\n        /* \"#utility.yul\":20251:20314   */\n      swap2\n      pop\n        /* \"#utility.yul\":20207:20324   */\n      pop\n        /* \"#utility.yul\":20002:20331   */\n      swap3\n      swap2\n      pop\n      pop\n      jump\t// out\n        /* \"#utility.yul\":20337:20455   */\n    tag_301:\n        /* \"#utility.yul\":20424:20448   */\n      tag_532\n        /* \"#utility.yul\":20442:20447   */\n      dup2\n        /* \"#utility.yul\":20424:20448   */\n      tag_269\n      jump\t// in\n    tag_532:\n        /* \"#utility.yul\":20419:20422   */\n      dup3\n        /* \"#utility.yul\":20412:20449   */\n      mstore\n        /* \"#utility.yul\":20337:20455   */\n      pop\n      pop\n      jump\t// out\n        /* \"#utility.yul\":20461:20903   */\n    tag_138:\n        /* \"#utility.yul\":20610:20614   */\n      0x00\n        /* \"#utility.yul\":20648:20650   */\n      0x60\n        /* \"#utility.yul\":20637:20646   */\n      dup3\n        /* \"#utility.yul\":20633:20651   */\n      add\n        /* \"#utility.yul\":20625:20651   */\n      swap1\n      pop\n        /* \"#utility.yul\":20661:20732   */\n      tag_534\n        /* \"#utility.yul\":20729:20730   */\n      0x00\n        /* \"#utility.yul\":20718:20727   */\n      dup4\n        /* \"#utility.yul\":20714:20731   */\n      add\n        /* \"#utility.yul\":20705:20711   */\n      dup7\n        /* \"#utility.yul\":20661:20732   */\n      tag_301\n      jump\t// in\n    tag_534:\n        /* \"#utility.yul\":20742:20814   */\n      tag_535\n        /* \"#utility.yul\":20810:20812   */\n      0x20\n        /* \"#utility.yul\":20799:20808   */\n      dup4\n        /* \"#utility.yul\":20795:20813   */\n      add\n        /* \"#utility.yul\":20786:20792   */\n      dup6\n        /* \"#utility.yul\":20742:20814   */\n      tag_301\n      jump\t// in\n    tag_535:\n        /* \"#utility.yul\":20824:20896   */\n      tag_536\n        /* \"#utility.yul\":20892:20894   */\n      0x40\n        /* \"#utility.yul\":20881:20890   */\n      dup4\n        /* \"#utility.yul\":20877:20895   */\n      add\n        /* \"#utility.yul\":20868:20874   */\n      dup5\n        /* \"#utility.yul\":20824:20896   */\n      tag_260\n      jump\t// in\n    tag_536:\n        /* \"#utility.yul\":20461:20903   */\n      swap5\n      swap4\n      pop\n      pop\n      pop\n      pop\n      jump\t// out\n        /* \"#utility.yul\":20909:20999   */\n    tag_302:\n        /* \"#utility.yul\":20943:20950   */\n      0x00\n        /* \"#utility.yul\":20986:20991   */\n      dup2\n        /* \"#utility.yul\":20979:20992   */\n      iszero\n        /* \"#utility.yul\":20972:20993   */\n      iszero\n        /* \"#utility.yul\":20961:20993   */\n      swap1\n      pop\n        /* \"#utility.yul\":20909:20999   */\n      swap2\n      swap1\n      pop\n      jump\t// out\n        /* \"#utility.yul\":21005:21121   */\n    tag_303:\n        /* \"#utility.yul\":21075:21096   */\n      tag_539\n        /* \"#utility.yul\":21090:21095   */\n      dup2\n        /* \"#utility.yul\":21075:21096   */\n      tag_302\n      jump\t// in\n    tag_539:\n        /* \"#utility.yul\":21068:21073   */\n      dup2\n        /* \"#utility.yul\":21065:21097   */\n      eq\n        /* \"#utility.yul\":21055:21115   */\n      tag_540\n      jumpi\n        /* \"#utility.yul\":21111:21112   */\n      0x00\n        /* \"#utility.yul\":21108:21109   */\n      dup1\n        /* \"#utility.yul\":21101:21113   */\n      revert\n        /* \"#utility.yul\":21055:21115   */\n    tag_540:\n        /* \"#utility.yul\":21005:21121   */\n      pop\n      jump\t// out\n        /* \"#utility.yul\":21127:21264   */\n    tag_304:\n        /* \"#utility.yul\":21181:21186   */\n      0x00\n        /* \"#utility.yul\":21212:21218   */\n      dup2\n        /* \"#utility.yul\":21206:21219   */\n      mload\n        /* \"#utility.yul\":21197:21219   */\n      swap1\n      pop\n        /* \"#utility.yul\":21228:21258   */\n      tag_542\n        /* \"#utility.yul\":21252:21257   */\n      dup2\n        /* \"#utility.yul\":21228:21258   */\n      tag_303\n      jump\t// in\n    tag_542:\n        /* \"#utility.yul\":21127:21264   */\n      swap3\n      swap2\n      pop\n      pop\n      jump\t// out\n        /* \"#utility.yul\":21270:21615   */\n    tag_142:\n        /* \"#utility.yul\":21337:21343   */\n      0x00\n        /* \"#utility.yul\":21386:21388   */\n      0x20\n        /* \"#utility.yul\":21374:21383   */\n      dup3\n        /* \"#utility.yul\":21365:21372   */\n      dup5\n        /* \"#utility.yul\":21361:21384   */\n      sub\n        /* \"#utility.yul\":21357:21389   */\n      slt\n        /* \"#utility.yul\":21354:21473   */\n      iszero\n      tag_544\n      jumpi\n        /* \"#utility.yul\":21392:21471   */\n      tag_545\n      tag_255\n      jump\t// in\n    tag_545:\n        /* \"#utility.yul\":21354:21473   */\n    tag_544:\n        /* \"#utility.yul\":21512:21513   */\n      0x00\n        /* \"#utility.yul\":21537:21598   */\n      tag_546\n        /* \"#utility.yul\":21590:21597   */\n      dup5\n        /* \"#utility.yul\":21581:21587   */\n      dup3\n        /* \"#utility.yul\":21570:21579   */\n      dup6\n        /* \"#utility.yul\":21566:21588   */\n      add\n        /* \"#utility.yul\":21537:21598   */\n      tag_304\n      jump\t// in\n    tag_546:\n        /* \"#utility.yul\":21527:21598   */\n      swap2\n      pop\n        /* \"#utility.yul\":21483:21608   */\n      pop\n        /* \"#utility.yul\":21270:21615   */\n      swap3\n      swap2\n      pop\n      pop\n      jump\t// out\n        /* \"#utility.yul\":21621:21843   */\n    tag_144:\n        /* \"#utility.yul\":21714:21718   */\n      0x00\n        /* \"#utility.yul\":21752:21754   */\n      0x20\n        /* \"#utility.yul\":21741:21750   */\n      dup3\n        /* \"#utility.yul\":21737:21755   */\n      add\n        /* \"#utility.yul\":21729:21755   */\n      swap1\n      pop\n        /* \"#utility.yul\":21765:21836   */\n      tag_548\n        /* \"#utility.yul\":21833:21834   */\n      0x00\n        /* \"#utility.yul\":21822:21831   */\n      dup4\n        /* \"#utility.yul\":21818:21835   */\n      add\n        /* \"#utility.yul\":21809:21815   */\n      dup5\n        /* \"#utility.yul\":21765:21836   */\n      tag_301\n      jump\t// in\n    tag_548:\n        /* \"#utility.yul\":21621:21843   */\n      swap3\n      swap2\n      pop\n      pop\n      jump\t// out\n        /* \"#utility.yul\":21849:22356   */\n    tag_148:\n        /* \"#utility.yul\":21928:21934   */\n      0x00\n        /* \"#utility.yul\":21936:21942   */\n      dup1\n        /* \"#utility.yul\":21985:21987   */\n      0x40\n        /* \"#utility.yul\":21973:21982   */\n      dup4\n        /* \"#utility.yul\":21964:21971   */\n      dup6\n        /* \"#utility.yul\":21960:21983   */\n      sub\n        /* \"#utility.yul\":21956:21988   */\n      slt\n        /* \"#utility.yul\":21953:22072   */\n      iszero\n      tag_550\n      jumpi\n        /* \"#utility.yul\":21991:22070   */\n      tag_551\n      tag_255\n      jump\t// in\n    tag_551:\n        /* \"#utility.yul\":21953:22072   */\n    tag_550:\n        /* \"#utility.yul\":22111:22112   */\n      0x00\n        /* \"#utility.yul\":22136:22200   */\n      tag_552\n        /* \"#utility.yul\":22192:22199   */\n      dup6\n        /* \"#utility.yul\":22183:22189   */\n      dup3\n        /* \"#utility.yul\":22172:22181   */\n      dup7\n        /* \"#utility.yul\":22168:22190   */\n      add\n        /* \"#utility.yul\":22136:22200   */\n      tag_284\n      jump\t// in\n    tag_552:\n        /* \"#utility.yul\":22126:22200   */\n      swap3\n      pop\n        /* \"#utility.yul\":22082:22210   */\n      pop\n        /* \"#utility.yul\":22249:22251   */\n      0x20\n        /* \"#utility.yul\":22275:22339   */\n      tag_553\n        /* \"#utility.yul\":22331:22338   */\n      dup6\n        /* \"#utility.yul\":22322:22328   */\n      dup3\n        /* \"#utility.yul\":22311:22320   */\n      dup7\n        /* \"#utility.yul\":22307:22329   */\n      add\n        /* \"#utility.yul\":22275:22339   */\n      tag_284\n      jump\t// in\n    tag_553:\n        /* \"#utility.yul\":22265:22339   */\n      swap2\n      pop\n        /* \"#utility.yul\":22220:22349   */\n      pop\n        /* \"#utility.yul\":21849:22356   */\n      swap3\n      pop\n      swap3\n      swap1\n      pop\n      jump\t// out\n        /* \"#utility.yul\":22362:22694   */\n    tag_153:\n        /* \"#utility.yul\":22483:22487   */\n      0x00\n        /* \"#utility.yul\":22521:22523   */\n      0x40\n        /* \"#utility.yul\":22510:22519   */\n      dup3\n        /* \"#utility.yul\":22506:22524   */\n      add\n        /* \"#utility.yul\":22498:22524   */\n      swap1\n      pop\n        /* \"#utility.yul\":22534:22605   */\n      tag_555\n        /* \"#utility.yul\":22602:22603   */\n      0x00\n        /* \"#utility.yul\":22591:22600   */\n      dup4\n        /* \"#utility.yul\":22587:22604   */\n      add\n        /* \"#utility.yul\":22578:22584   */\n      dup6\n        /* \"#utility.yul\":22534:22605   */\n      tag_301\n      jump\t// in\n    tag_555:\n        /* \"#utility.yul\":22615:22687   */\n      tag_556\n        /* \"#utility.yul\":22683:22685   */\n      0x20\n        /* \"#utility.yul\":22672:22681   */\n      dup4\n        /* \"#utility.yul\":22668:22686   */\n      add\n        /* \"#utility.yul\":22659:22665   */\n      dup5\n        /* \"#utility.yul\":22615:22687   */\n      tag_301\n      jump\t// in\n    tag_556:\n        /* \"#utility.yul\":22362:22694   */\n      swap4\n      swap3\n      pop\n      pop\n      pop\n      jump\t// out\n        /* \"#utility.yul\":22700:22843   */\n    tag_305:\n        /* \"#utility.yul\":22757:22762   */\n      0x00\n        /* \"#utility.yul\":22788:22794   */\n      dup2\n        /* \"#utility.yul\":22782:22795   */\n      mload\n        /* \"#utility.yul\":22773:22795   */\n      swap1\n      pop\n        /* \"#utility.yul\":22804:22837   */\n      tag_558\n        /* \"#utility.yul\":22831:22836   */\n      dup2\n        /* \"#utility.yul\":22804:22837   */\n      tag_270\n      jump\t// in\n    tag_558:\n        /* \"#utility.yul\":22700:22843   */\n      swap3\n      swap2\n      pop\n      pop\n      jump\t// out\n        /* \"#utility.yul\":22849:23200   */\n    tag_157:\n        /* \"#utility.yul\":22919:22925   */\n      0x00\n        /* \"#utility.yul\":22968:22970   */\n      0x20\n        /* \"#utility.yul\":22956:22965   */\n      dup3\n        /* \"#utility.yul\":22947:22954   */\n      dup5\n        /* \"#utility.yul\":22943:22966   */\n      sub\n        /* \"#utility.yul\":22939:22971   */\n      slt\n        /* \"#utility.yul\":22936:23055   */\n      iszero\n      tag_560\n      jumpi\n        /* \"#utility.yul\":22974:23053   */\n      tag_561\n      tag_255\n      jump\t// in\n    tag_561:\n        /* \"#utility.yul\":22936:23055   */\n    tag_560:\n        /* \"#utility.yul\":23094:23095   */\n      0x00\n        /* \"#utility.yul\":23119:23183   */\n      tag_562\n        /* \"#utility.yul\":23175:23182   */\n      dup5\n        /* \"#utility.yul\":23166:23172   */\n      dup3\n        /* \"#utility.yul\":23155:23164   */\n      dup6\n        /* \"#utility.yul\":23151:23173   */\n      add\n        /* \"#utility.yul\":23119:23183   */\n      tag_305\n      jump\t// in\n    tag_562:\n        /* \"#utility.yul\":23109:23183   */\n      swap2\n      pop\n        /* \"#utility.yul\":23065:23193   */\n      pop\n        /* \"#utility.yul\":22849:23200   */\n      swap3\n      swap2\n      pop\n      pop\n      jump\t// out\n        /* \"#utility.yul\":23206:23300   */\n    tag_306:\n        /* \"#utility.yul\":23239:23247   */\n      0x00\n        /* \"#utility.yul\":23287:23292   */\n      dup2\n        /* \"#utility.yul\":23283:23285   */\n      0x60\n        /* \"#utility.yul\":23279:23293   */\n      shl\n        /* \"#utility.yul\":23258:23293   */\n      swap1\n      pop\n        /* \"#utility.yul\":23206:23300   */\n      swap2\n      swap1\n      pop\n      jump\t// out\n        /* \"#utility.yul\":23306:23400   */\n    tag_307:\n        /* \"#utility.yul\":23345:23352   */\n      0x00\n        /* \"#utility.yul\":23374:23394   */\n      tag_565\n        /* \"#utility.yul\":23388:23393   */\n      dup3\n        /* \"#utility.yul\":23374:23394   */\n      tag_306\n      jump\t// in\n    tag_565:\n        /* \"#utility.yul\":23363:23394   */\n      swap1\n      pop\n        /* \"#utility.yul\":23306:23400   */\n      swap2\n      swap1\n      pop\n      jump\t// out\n        /* \"#utility.yul\":23406:23506   */\n    tag_308:\n        /* \"#utility.yul\":23445:23452   */\n      0x00\n        /* \"#utility.yul\":23474:23500   */\n      tag_567\n        /* \"#utility.yul\":23494:23499   */\n      dup3\n        /* \"#utility.yul\":23474:23500   */\n      tag_307\n      jump\t// in\n    tag_567:\n        /* \"#utility.yul\":23463:23500   */\n      swap1\n      pop\n        /* \"#utility.yul\":23406:23506   */\n      swap2\n      swap1\n      pop\n      jump\t// out\n        /* \"#utility.yul\":23512:23669   */\n    tag_309:\n        /* \"#utility.yul\":23617:23662   */\n      tag_569\n        /* \"#utility.yul\":23637:23661   */\n      tag_570\n        /* \"#utility.yul\":23655:23660   */\n      dup3\n        /* \"#utility.yul\":23637:23661   */\n      tag_269\n      jump\t// in\n    tag_570:\n        /* \"#utility.yul\":23617:23662   */\n      tag_308\n      jump\t// in\n    tag_569:\n        /* \"#utility.yul\":23612:23615   */\n      dup3\n        /* \"#utility.yul\":23605:23663   */\n      mstore\n        /* \"#utility.yul\":23512:23669   */\n      pop\n      pop\n      jump\t// out\n        /* \"#utility.yul\":23675:24072   */\n    tag_181:\n        /* \"#utility.yul\":23815:23818   */\n      0x00\n        /* \"#utility.yul\":23830:23905   */\n      tag_572\n        /* \"#utility.yul\":23901:23904   */\n      dup3\n        /* \"#utility.yul\":23892:23898   */\n      dup6\n        /* \"#utility.yul\":23830:23905   */\n      tag_309\n      jump\t// in\n    tag_572:\n        /* \"#utility.yul\":23930:23932   */\n      0x14\n        /* \"#utility.yul\":23925:23928   */\n      dup3\n        /* \"#utility.yul\":23921:23933   */\n      add\n        /* \"#utility.yul\":23914:23933   */\n      swap2\n      pop\n        /* \"#utility.yul\":23943:24018   */\n      tag_573\n        /* \"#utility.yul\":24014:24017   */\n      dup3\n        /* \"#utility.yul\":24005:24011   */\n      dup5\n        /* \"#utility.yul\":23943:24018   */\n      tag_309\n      jump\t// in\n    tag_573:\n        /* \"#utility.yul\":24043:24045   */\n      0x14\n        /* \"#utility.yul\":24038:24041   */\n      dup3\n        /* \"#utility.yul\":24034:24046   */\n      add\n        /* \"#utility.yul\":24027:24046   */\n      swap2\n      pop\n        /* \"#utility.yul\":24063:24066   */\n      dup2\n        /* \"#utility.yul\":24056:24066   */\n      swap1\n      pop\n        /* \"#utility.yul\":23675:24072   */\n      swap4\n      swap3\n      pop\n      pop\n      pop\n      jump\t// out\n        /* \"#utility.yul\":24078:24226   */\n    tag_310:\n        /* \"#utility.yul\":24180:24191   */\n      0x00\n        /* \"#utility.yul\":24217:24220   */\n      dup2\n        /* \"#utility.yul\":24202:24220   */\n      swap1\n      pop\n        /* \"#utility.yul\":24078:24226   */\n      swap3\n      swap2\n      pop\n      pop\n      jump\t// out\n        /* \"#utility.yul\":24232:24446   */\n    tag_311:\n        /* \"#utility.yul\":24372:24438   */\n      0xff00000000000000000000000000000000000000000000000000000000000000\n        /* \"#utility.yul\":24368:24369   */\n      0x00\n        /* \"#utility.yul\":24360:24366   */\n      dup3\n        /* \"#utility.yul\":24356:24370   */\n      add\n        /* \"#utility.yul\":24349:24439   */\n      mstore\n        /* \"#utility.yul\":24232:24446   */\n      pop\n      jump\t// out\n        /* \"#utility.yul\":24452:24852   */\n    tag_312:\n        /* \"#utility.yul\":24612:24615   */\n      0x00\n        /* \"#utility.yul\":24633:24717   */\n      tag_577\n        /* \"#utility.yul\":24715:24716   */\n      0x01\n        /* \"#utility.yul\":24710:24713   */\n      dup4\n        /* \"#utility.yul\":24633:24717   */\n      tag_310\n      jump\t// in\n    tag_577:\n        /* \"#utility.yul\":24626:24717   */\n      swap2\n      pop\n        /* \"#utility.yul\":24726:24819   */\n      tag_578\n        /* \"#utility.yul\":24815:24818   */\n      dup3\n        /* \"#utility.yul\":24726:24819   */\n      tag_311\n      jump\t// in\n    tag_578:\n        /* \"#utility.yul\":24844:24845   */\n      0x01\n        /* \"#utility.yul\":24839:24842   */\n      dup3\n        /* \"#utility.yul\":24835:24846   */\n      add\n        /* \"#utility.yul\":24828:24846   */\n      swap1\n      pop\n        /* \"#utility.yul\":24452:24852   */\n      swap2\n      swap1\n      pop\n      jump\t// out\n        /* \"#utility.yul\":24858:24935   */\n    tag_313:\n        /* \"#utility.yul\":24895:24902   */\n      0x00\n        /* \"#utility.yul\":24924:24929   */\n      dup2\n        /* \"#utility.yul\":24913:24929   */\n      swap1\n      pop\n        /* \"#utility.yul\":24858:24935   */\n      swap2\n      swap1\n      pop\n      jump\t// out\n        /* \"#utility.yul\":24941:25020   */\n    tag_314:\n        /* \"#utility.yul\":24980:24987   */\n      0x00\n        /* \"#utility.yul\":25009:25014   */\n      dup2\n        /* \"#utility.yul\":24998:25014   */\n      swap1\n      pop\n        /* \"#utility.yul\":24941:25020   */\n      swap2\n      swap1\n      pop\n      jump\t// out\n        /* \"#utility.yul\":25026:25183   */\n    tag_315:\n        /* \"#utility.yul\":25131:25176   */\n      tag_582\n        /* \"#utility.yul\":25151:25175   */\n      tag_583\n        /* \"#utility.yul\":25169:25174   */\n      dup3\n        /* \"#utility.yul\":25151:25175   */\n      tag_313\n      jump\t// in\n    tag_583:\n        /* \"#utility.yul\":25131:25176   */\n      tag_314\n      jump\t// in\n    tag_582:\n        /* \"#utility.yul\":25126:25129   */\n      dup3\n        /* \"#utility.yul\":25119:25177   */\n      mstore\n        /* \"#utility.yul\":25026:25183   */\n      pop\n      pop\n      jump\t// out\n        /* \"#utility.yul\":25189:25403   */\n    tag_316:\n        /* \"#utility.yul\":25329:25395   */\n      0xab66b891387a046b7fefca26f19f061e1ced0309d8009fc43808c517eaec6917\n        /* \"#utility.yul\":25325:25326   */\n      0x00\n        /* \"#utility.yul\":25317:25323   */\n      dup3\n        /* \"#utility.yul\":25313:25327   */\n      add\n        /* \"#utility.yul\":25306:25396   */\n      mstore\n        /* \"#utility.yul\":25189:25403   */\n      pop\n      jump\t// out\n        /* \"#utility.yul\":25409:25811   */\n    tag_317:\n        /* \"#utility.yul\":25569:25572   */\n      0x00\n        /* \"#utility.yul\":25590:25675   */\n      tag_586\n        /* \"#utility.yul\":25672:25674   */\n      0x20\n        /* \"#utility.yul\":25667:25670   */\n      dup4\n        /* \"#utility.yul\":25590:25675   */\n      tag_310\n      jump\t// in\n    tag_586:\n        /* \"#utility.yul\":25583:25675   */\n      swap2\n      pop\n        /* \"#utility.yul\":25684:25777   */\n      tag_587\n        /* \"#utility.yul\":25773:25776   */\n      dup3\n        /* \"#utility.yul\":25684:25777   */\n      tag_316\n      jump\t// in\n    tag_587:\n        /* \"#utility.yul\":25802:25804   */\n      0x20\n        /* \"#utility.yul\":25797:25800   */\n      dup3\n        /* \"#utility.yul\":25793:25805   */\n      add\n        /* \"#utility.yul\":25786:25805   */\n      swap1\n      pop\n        /* \"#utility.yul\":25409:25811   */\n      swap2\n      swap1\n      pop\n      jump\t// out\n        /* \"#utility.yul\":25817:26746   */\n    tag_183:\n        /* \"#utility.yul\":26159:26162   */\n      0x00\n        /* \"#utility.yul\":26181:26329   */\n      tag_589\n        /* \"#utility.yul\":26325:26328   */\n      dup3\n        /* \"#utility.yul\":26181:26329   */\n      tag_312\n      jump\t// in\n    tag_589:\n        /* \"#utility.yul\":26174:26329   */\n      swap2\n      pop\n        /* \"#utility.yul\":26339:26414   */\n      tag_590\n        /* \"#utility.yul\":26410:26413   */\n      dup3\n        /* \"#utility.yul\":26401:26407   */\n      dup6\n        /* \"#utility.yul\":26339:26414   */\n      tag_309\n      jump\t// in\n    tag_590:\n        /* \"#utility.yul\":26439:26441   */\n      0x14\n        /* \"#utility.yul\":26434:26437   */\n      dup3\n        /* \"#utility.yul\":26430:26442   */\n      add\n        /* \"#utility.yul\":26423:26442   */\n      swap2\n      pop\n        /* \"#utility.yul\":26452:26527   */\n      tag_591\n        /* \"#utility.yul\":26523:26526   */\n      dup3\n        /* \"#utility.yul\":26514:26520   */\n      dup5\n        /* \"#utility.yul\":26452:26527   */\n      tag_315\n      jump\t// in\n    tag_591:\n        /* \"#utility.yul\":26552:26554   */\n      0x20\n        /* \"#utility.yul\":26547:26550   */\n      dup3\n        /* \"#utility.yul\":26543:26555   */\n      add\n        /* \"#utility.yul\":26536:26555   */\n      swap2\n      pop\n        /* \"#utility.yul\":26572:26720   */\n      tag_592\n        /* \"#utility.yul\":26716:26719   */\n      dup3\n        /* \"#utility.yul\":26572:26720   */\n      tag_317\n      jump\t// in\n    tag_592:\n        /* \"#utility.yul\":26565:26720   */\n      swap2\n      pop\n        /* \"#utility.yul\":26737:26740   */\n      dup2\n        /* \"#utility.yul\":26730:26740   */\n      swap1\n      pop\n        /* \"#utility.yul\":25817:26746   */\n      swap4\n      swap3\n      pop\n      pop\n      pop\n      jump\t// out\n        /* \"#utility.yul\":26752:26850   */\n    tag_318:\n        /* \"#utility.yul\":26803:26809   */\n      0x00\n        /* \"#utility.yul\":26837:26842   */\n      dup2\n        /* \"#utility.yul\":26831:26843   */\n      mload\n        /* \"#utility.yul\":26821:26843   */\n      swap1\n      pop\n        /* \"#utility.yul\":26752:26850   */\n      swap2\n      swap1\n      pop\n      jump\t// out\n        /* \"#utility.yul\":26856:27003   */\n    tag_319:\n        /* \"#utility.yul\":26957:26968   */\n      0x00\n        /* \"#utility.yul\":26994:26997   */\n      dup2\n        /* \"#utility.yul\":26979:26997   */\n      swap1\n      pop\n        /* \"#utility.yul\":26856:27003   */\n      swap3\n      swap2\n      pop\n      pop\n      jump\t// out\n        /* \"#utility.yul\":27009:27316   */\n    tag_320:\n        /* \"#utility.yul\":27077:27078   */\n      0x00\n        /* \"#utility.yul\":27087:27200   */\n    tag_596:\n        /* \"#utility.yul\":27101:27107   */\n      dup4\n        /* \"#utility.yul\":27098:27099   */\n      dup2\n        /* \"#utility.yul\":27095:27108   */\n      lt\n        /* \"#utility.yul\":27087:27200   */\n      iszero\n      tag_598\n      jumpi\n        /* \"#utility.yul\":27186:27187   */\n      dup1\n        /* \"#utility.yul\":27181:27184   */\n      dup3\n        /* \"#utility.yul\":27177:27188   */\n      add\n        /* \"#utility.yul\":27171:27189   */\n      mload\n        /* \"#utility.yul\":27167:27168   */\n      dup2\n        /* \"#utility.yul\":27162:27165   */\n      dup5\n        /* \"#utility.yul\":27158:27169   */\n      add\n        /* \"#utility.yul\":27151:27190   */\n      mstore\n        /* \"#utility.yul\":27123:27125   */\n      0x20\n        /* \"#utility.yul\":27120:27121   */\n      dup2\n        /* \"#utility.yul\":27116:27126   */\n      add\n        /* \"#utility.yul\":27111:27126   */\n      swap1\n      pop\n        /* \"#utility.yul\":27087:27200   */\n      jump(tag_596)\n    tag_598:\n        /* \"#utility.yul\":27218:27224   */\n      dup4\n        /* \"#utility.yul\":27215:27216   */\n      dup2\n        /* \"#utility.yul\":27212:27225   */\n      gt\n        /* \"#utility.yul\":27209:27310   */\n      iszero\n      tag_599\n      jumpi\n        /* \"#utility.yul\":27298:27299   */\n      0x00\n        /* \"#utility.yul\":27289:27295   */\n      dup5\n        /* \"#utility.yul\":27284:27287   */\n      dup5\n        /* \"#utility.yul\":27280:27296   */\n      add\n        /* \"#utility.yul\":27273:27300   */\n      mstore\n        /* \"#utility.yul\":27209:27310   */\n    tag_599:\n        /* \"#utility.yul\":27058:27316   */\n      pop\n        /* \"#utility.yul\":27009:27316   */\n      pop\n      pop\n      pop\n      jump\t// out\n        /* \"#utility.yul\":27322:27695   */\n    tag_321:\n        /* \"#utility.yul\":27426:27429   */\n      0x00\n        /* \"#utility.yul\":27454:27492   */\n      tag_601\n        /* \"#utility.yul\":27486:27491   */\n      dup3\n        /* \"#utility.yul\":27454:27492   */\n      tag_318\n      jump\t// in\n    tag_601:\n        /* \"#utility.yul\":27508:27596   */\n      tag_602\n        /* \"#utility.yul\":27589:27595   */\n      dup2\n        /* \"#utility.yul\":27584:27587   */\n      dup6\n        /* \"#utility.yul\":27508:27596   */\n      tag_319\n      jump\t// in\n    tag_602:\n        /* \"#utility.yul\":27501:27596   */\n      swap4\n      pop\n        /* \"#utility.yul\":27605:27657   */\n      tag_603\n        /* \"#utility.yul\":27650:27656   */\n      dup2\n        /* \"#utility.yul\":27645:27648   */\n      dup6\n        /* \"#utility.yul\":27638:27642   */\n      0x20\n        /* \"#utility.yul\":27631:27636   */\n      dup7\n        /* \"#utility.yul\":27627:27643   */\n      add\n        /* \"#utility.yul\":27605:27657   */\n      tag_320\n      jump\t// in\n    tag_603:\n        /* \"#utility.yul\":27682:27688   */\n      dup1\n        /* \"#utility.yul\":27677:27680   */\n      dup5\n        /* \"#utility.yul\":27673:27689   */\n      add\n        /* \"#utility.yul\":27666:27689   */\n      swap2\n      pop\n        /* \"#utility.yul\":27430:27695   */\n      pop\n        /* \"#utility.yul\":27322:27695   */\n      swap3\n      swap2\n      pop\n      pop\n      jump\t// out\n        /* \"#utility.yul\":27701:27972   */\n    tag_187:\n        /* \"#utility.yul\":27831:27834   */\n      0x00\n        /* \"#utility.yul\":27853:27946   */\n      tag_605\n        /* \"#utility.yul\":27942:27945   */\n      dup3\n        /* \"#utility.yul\":27933:27939   */\n      dup5\n        /* \"#utility.yul\":27853:27946   */\n      tag_321\n      jump\t// in\n    tag_605:\n        /* \"#utility.yul\":27846:27946   */\n      swap2\n      pop\n        /* \"#utility.yul\":27963:27966   */\n      dup2\n        /* \"#utility.yul\":27956:27966   */\n      swap1\n      pop\n        /* \"#utility.yul\":27701:27972   */\n      swap3\n      swap2\n      pop\n      pop\n      jump\t// out\n        /* \"#utility.yul\":27978:28283   */\n    tag_203:\n        /* \"#utility.yul\":28018:28021   */\n      0x00\n        /* \"#utility.yul\":28037:28057   */\n      tag_607\n        /* \"#utility.yul\":28055:28056   */\n      dup3\n        /* \"#utility.yul\":28037:28057   */\n      tag_257\n      jump\t// in\n    tag_607:\n        /* \"#utility.yul\":28032:28057   */\n      swap2\n      pop\n        /* \"#utility.yul\":28071:28091   */\n      tag_608\n        /* \"#utility.yul\":28089:28090   */\n      dup4\n        /* \"#utility.yul\":28071:28091   */\n      tag_257\n      jump\t// in\n    tag_608:\n        /* \"#utility.yul\":28066:28091   */\n      swap3\n      pop\n        /* \"#utility.yul\":28225:28226   */\n      dup3\n        /* \"#utility.yul\":28157:28223   */\n      0xffffffffffffffffffffffffffffffffffffffffffffffffffffffffffffffff\n        /* \"#utility.yul\":28153:28227   */\n      sub\n        /* \"#utility.yul\":28150:28151   */\n      dup3\n        /* \"#utility.yul\":28147:28228   */\n      gt\n        /* \"#utility.yul\":28144:28251   */\n      iszero\n      tag_609\n      jumpi\n        /* \"#utility.yul\":28231:28249   */\n      tag_610\n      tag_300\n      jump\t// in\n    tag_610:\n        /* \"#utility.yul\":28144:28251   */\n    tag_609:\n        /* \"#utility.yul\":28275:28276   */\n      dup3\n        /* \"#utility.yul\":28272:28273   */\n      dup3\n        /* \"#utility.yul\":28268:28277   */\n      add\n        /* \"#utility.yul\":28261:28277   */\n      swap1\n      pop\n        /* \"#utility.yul\":27978:28283   */\n      swap3\n      swap2\n      pop\n      pop\n      jump\t// out\n        /* \"#utility.yul\":28289:28731   */\n    tag_221:\n        /* \"#utility.yul\":28438:28442   */\n      0x00\n        /* \"#utility.yul\":28476:28478   */\n      0x60\n        /* \"#utility.yul\":28465:28474   */\n      dup3\n        /* \"#utility.yul\":28461:28479   */\n      add\n        /* \"#utility.yul\":28453:28479   */\n      swap1\n      pop\n        /* \"#utility.yul\":28489:28560   */\n      tag_612\n        /* \"#utility.yul\":28557:28558   */\n      0x00\n        /* \"#utility.yul\":28546:28555   */\n      dup4\n        /* \"#utility.yul\":28542:28559   */\n      add\n        /* \"#utility.yul\":28533:28539   */\n      dup7\n        /* \"#utility.yul\":28489:28560   */\n      tag_260\n      jump\t// in\n    tag_612:\n        /* \"#utility.yul\":28570:28642   */\n      tag_613\n        /* \"#utility.yul\":28638:28640   */\n      0x20\n        /* \"#utility.yul\":28627:28636   */\n      dup4\n        /* \"#utility.yul\":28623:28641   */\n      add\n        /* \"#utility.yul\":28614:28620   */\n      dup6\n        /* \"#utility.yul\":28570:28642   */\n      tag_260\n      jump\t// in\n    tag_613:\n        /* \"#utility.yul\":28652:28724   */\n      tag_614\n        /* \"#utility.yul\":28720:28722   */\n      0x40\n        /* \"#utility.yul\":28709:28718   */\n      dup4\n        /* \"#utility.yul\":28705:28723   */\n      add\n        /* \"#utility.yul\":28696:28702   */\n      dup5\n        /* \"#utility.yul\":28652:28724   */\n      tag_301\n      jump\t// in\n    tag_614:\n        /* \"#utility.yul\":28289:28731   */\n      swap5\n      swap4\n      pop\n      pop\n      pop\n      pop\n      jump\t// out\n        /* \"#utility.yul\":28737:28970   */\n    tag_226:\n        /* \"#utility.yul\":28776:28779   */\n      0x00\n        /* \"#utility.yul\":28799:28823   */\n      tag_616\n        /* \"#utility.yul\":28817:28822   */\n      dup3\n        /* \"#utility.yul\":28799:28823   */\n      tag_257\n      jump\t// in\n    tag_616:\n        /* \"#utility.yul\":28790:28823   */\n      swap2\n      pop\n        /* \"#utility.yul\":28845:28911   */\n      0xffffffffffffffffffffffffffffffffffffffffffffffffffffffffffffffff\n        /* \"#utility.yul\":28838:28843   */\n      dup3\n        /* \"#utility.yul\":28835:28912   */\n      eq\n        /* \"#utility.yul\":28832:28935   */\n      iszero\n      tag_617\n      jumpi\n        /* \"#utility.yul\":28915:28933   */\n      tag_618\n      tag_300\n      jump\t// in\n    tag_618:\n        /* \"#utility.yul\":28832:28935   */\n    tag_617:\n        /* \"#utility.yul\":28962:28963   */\n      0x01\n        /* \"#utility.yul\":28955:28960   */\n      dup3\n        /* \"#utility.yul\":28951:28964   */\n      add\n        /* \"#utility.yul\":28944:28964   */\n      swap1\n      pop\n        /* \"#utility.yul\":28737:28970   */\n      swap2\n      swap1\n      pop\n      jump\t// out\n        /* \"#utility.yul\":28976:29450   */\n    tag_229:\n        /* \"#utility.yul\":29133:29137   */\n      0x00\n        /* \"#utility.yul\":29171:29173   */\n      0x60\n        /* \"#utility.yul\":29160:29169   */\n      dup3\n        /* \"#utility.yul\":29156:29174   */\n      add\n        /* \"#utility.yul\":29148:29174   */\n      swap1\n      pop\n        /* \"#utility.yul\":29184:29263   */\n      tag_620\n        /* \"#utility.yul\":29260:29261   */\n      0x00\n        /* \"#utility.yul\":29249:29258   */\n      dup4\n        /* \"#utility.yul\":29245:29262   */\n      add\n        /* \"#utility.yul\":29236:29242   */\n      dup7\n        /* \"#utility.yul\":29184:29263   */\n      tag_285\n      jump\t// in\n    tag_620:\n        /* \"#utility.yul\":29273:29353   */\n      tag_621\n        /* \"#utility.yul\":29349:29351   */\n      0x20\n        /* \"#utility.yul\":29338:29347   */\n      dup4\n        /* \"#utility.yul\":29334:29352   */\n      add\n        /* \"#utility.yul\":29325:29331   */\n      dup6\n        /* \"#utility.yul\":29273:29353   */\n      tag_285\n      jump\t// in\n    tag_621:\n        /* \"#utility.yul\":29363:29443   */\n      tag_622\n        /* \"#utility.yul\":29439:29441   */\n      0x40\n        /* \"#utility.yul\":29428:29437   */\n      dup4\n        /* \"#utility.yul\":29424:29442   */\n      add\n        /* \"#utility.yul\":29415:29421   */\n      dup5\n        /* \"#utility.yul\":29363:29443   */\n      tag_285\n      jump\t// in\n    tag_622:\n        /* \"#utility.yul\":28976:29450   */\n      swap5\n      swap4\n      pop\n      pop\n      pop\n      pop\n      jump\t// out\n        /* \"#utility.yul\":29456:29636   */\n    tag_249:\n        /* \"#utility.yul\":29504:29581   */\n      0x4e487b7100000000000000000000000000000000000000000000000000000000\n        /* \"#utility.yul\":29501:29502   */\n      0x00\n        /* \"#utility.yul\":29494:29582   */\n      mstore\n        /* \"#utility.yul\":29601:29605   */\n      0x01\n        /* \"#utility.yul\":29598:29599   */\n      0x04\n        /* \"#utility.yul\":29591:29606   */\n      mstore\n        /* \"#utility.yul\":29625:29629   */\n      0x24\n        /* \"#utility.yul\":29622:29623   */\n      0x00\n        /* \"#utility.yul\":29615:29630   */\n      revert\n\n    auxdata: 0xa2646970667358221220456f3956a3d7c7e55e887153868d37962fcbe4d19d71f9d6fd7519b99fe8407364736f6c634300080a0033\n}\n",
				"bytecode": {
					"linkReferences": {
						"contracts/KajuswapLibrary.sol": {
							"KajuswapLibrary": [
								{
									"length": 20,
									"start": 889
								},
								{
									"length": 20,
									"start": 1024
								},
								{
									"length": 20,
									"start": 1195
								},
								{
									"length": 20,
									"start": 1745
								},
								{
									"length": 20,
									"start": 2295
								},
								{
									"length": 20,
									"start": 2430
								},
								{
									"length": 20,
									"start": 3608
								},
								{
									"length": 20,
									"start": 4782
								},
								{
									"length": 20,
									"start": 4979
								},
								{
									"length": 20,
									"start": 5186
								}
							]
						}
					},
					"object": "60806040523480156200001157600080fd5b50604051620024bb380380620024bb8339818101604052810190620000379190620000e8565b806000806101000a81548173ffffffffffffffffffffffffffffffffffffffff021916908373ffffffffffffffffffffffffffffffffffffffff160217905550506200011a565b600080fd5b600073ffffffffffffffffffffffffffffffffffffffff82169050919050565b6000620000b08262000083565b9050919050565b620000c281620000a3565b8114620000ce57600080fd5b50565b600081519050620000e281620000b7565b92915050565b6000602082840312156200010157620001006200007e565b5b60006200011184828501620000d1565b91505092915050565b612391806200012a6000396000f3fe608060405234801561001057600080fd5b50600436106100935760003560e01c806385f8c2591161006657806385f8c25914610158578063ad615dec14610188578063c0e3ee6b146101b8578063ca3d6539146101e9578063d06ca61f1461021b57610093565b8063054d50d4146100985780631f00ca74146100c857806342712a67146100f8578063472b43f314610128575b600080fd5b6100b260048036038101906100ad919061148e565b61024b565b6040516100bf91906114f0565b60405180910390f35b6100e260048036038101906100dd91906116c2565b6102d2565b6040516100ef91906117dc565b60405180910390f35b610112600480360381019061010d9190611859565b61037d565b60405161011f91906117dc565b60405180910390f35b610142600480360381019061013d9190611859565b6105a3565b60405161014f91906117dc565b60405180910390f35b610172600480360381019061016d919061148e565b6107c9565b60405161017f91906114f0565b60405180910390f35b6101a2600480360381019061019d919061148e565b610850565b6040516101af91906114f0565b60405180910390f35b6101d260048036038101906101cd91906118e1565b6108d7565b6040516101e092919061196e565b60405180910390f35b61020360048036038101906101fe9190611997565b610a8d565b60405161021293929190611a39565b60405180910390f35b610235600480360381019061023091906116c2565b610cea565b60405161024291906117dc565b60405180910390f35b600073__$18693c2782ae7b010cc3bd0449f436a789$__63054d50d48585856040518463ffffffff1660e01b815260040161028893929190611a7f565b602060405180830381865af41580156102a5573d6000803e3d6000fd5b505050506040513d601f19601f820116820180604052508101906102c99190611acb565b90509392505050565b606073__$18693c2782ae7b010cc3bd0449f436a789$__63192128b260008054906101000a900473ffffffffffffffffffffffffffffffffffffffff1685856040518463ffffffff1660e01b815260040161032f93929190611bc5565b600060405180830381865af415801561034c573d6000803e3d6000fd5b505050506040513d6000823e3d601f19601f820116820180604052508101906103759190611cc6565b905092915050565b606073__$18693c2782ae7b010cc3bd0449f436a789$__63192128b260008054906101000a900473ffffffffffffffffffffffffffffffffffffffff168887876040518563ffffffff1660e01b81526004016103dc9493929190611d9a565b600060405180830381865af41580156103f9573d6000803e3d6000fd5b505050506040513d6000823e3d601f19601f820116820180604052508101906104229190611cc6565b90508481600183516104349190611e09565b8151811061044557610444611e3d565b5b60200260200101511115610485576040517fe1b0da4f00000000000000000000000000000000000000000000000000000000815260040160405180910390fd5b61054e8484600081811061049c5761049b611e3d565b5b90506020020160208101906104b19190611e6c565b3361052d60008054906101000a900473ffffffffffffffffffffffffffffffffffffffff16888860008181106104ea576104e9611e3d565b5b90506020020160208101906104ff9190611e6c565b8989600181811061051357610512611e3d565b5b90506020020160208101906105289190611e6c565b610d95565b8460008151811061054157610540611e3d565b5b6020026020010151610e07565b61059a81858580806020026020016040519081016040528093929190818152602001838360200280828437600081840152601f19601f8201169050808301925050505050505084610f72565b95945050505050565b606073__$18693c2782ae7b010cc3bd0449f436a789$__63bb7b9c7660008054906101000a900473ffffffffffffffffffffffffffffffffffffffff168887876040518563ffffffff1660e01b81526004016106029493929190611d9a565b600060405180830381865af415801561061f573d6000803e3d6000fd5b505050506040513d6000823e3d601f19601f820116820180604052508101906106489190611cc6565b905084816001835161065a9190611e09565b8151811061066b5761066a611e3d565b5b602002602001015110156106ab576040517f42301c2300000000000000000000000000000000000000000000000000000000815260040160405180910390fd5b610774848460008181106106c2576106c1611e3d565b5b90506020020160208101906106d79190611e6c565b3361075360008054906101000a900473ffffffffffffffffffffffffffffffffffffffff16888860008181106107105761070f611e3d565b5b90506020020160208101906107259190611e6c565b8989600181811061073957610738611e3d565b5b905060200201602081019061074e9190611e6c565b610d95565b8460008151811061076757610766611e3d565b5b6020026020010151610e07565b6107c081858580806020026020016040519081016040528093929190818152602001838360200280828437600081840152601f19601f8201169050808301925050505050505084610f72565b95945050505050565b600073__$18693c2782ae7b010cc3bd0449f436a789$__6385f8c2598585856040518463ffffffff1660e01b815260040161080693929190611a7f565b602060405180830381865af4158015610823573d6000803e3d6000fd5b505050506040513d601f19601f820116820180604052508101906108479190611acb565b90509392505050565b600073__$18693c2782ae7b010cc3bd0449f436a789$__63ad615dec8585856040518463ffffffff1660e01b815260040161088d93929190611a7f565b602060405180830381865af41580156108aa573d6000803e3d6000fd5b505050506040513d601f19601f820116820180604052508101906108ce9190611acb565b90509392505050565b600080600061090760008054906101000a900473ffffffffffffffffffffffffffffffffffffffff168a8a610d95565b90508073ffffffffffffffffffffffffffffffffffffffff166323b872dd33838a6040518463ffffffff1660e01b815260040161094693929190611ea8565b6020604051808303816000875af1158015610965573d6000803e3d6000fd5b505050506040513d601f19601f820116820180604052508101906109899190611f17565b508073ffffffffffffffffffffffffffffffffffffffff166389afcb44856040518263ffffffff1660e01b81526004016109c39190611f44565b60408051808303816000875af11580156109e1573d6000803e3d6000fd5b505050506040513d601f19601f82011682018060405250810190610a059190611f5f565b809350819450505085831015610a47576040517f8dc525d100000000000000000000000000000000000000000000000000000000815260040160405180910390fd5b84821015610a81576040517fef71d09100000000000000000000000000000000000000000000000000000000815260040160405180910390fd5b50965096945050505050565b60008060008073ffffffffffffffffffffffffffffffffffffffff1660008054906101000a900473ffffffffffffffffffffffffffffffffffffffff1673ffffffffffffffffffffffffffffffffffffffff166369454b868c8c6040518363ffffffff1660e01b8152600401610b04929190611f9f565b602060405180830381865afa158015610b21573d6000803e3d6000fd5b505050506040513d601f19601f82011682018060405250810190610b459190611fdd565b73ffffffffffffffffffffffffffffffffffffffff161415610c015760008054906101000a900473ffffffffffffffffffffffffffffffffffffffff1673ffffffffffffffffffffffffffffffffffffffff1663c9c653968b8b6040518363ffffffff1660e01b8152600401610bbc929190611f9f565b6020604051808303816000875af1158015610bdb573d6000803e3d6000fd5b505050506040513d601f19601f82011682018060405250810190610bff9190611fdd565b505b610c0f8a8a8a8a8a8a61117c565b80935081945050506000610c4460008054906101000a900473ffffffffffffffffffffffffffffffffffffffff168c8c610d95565b9050610c528b338387610e07565b610c5e8a338386610e07565b8073ffffffffffffffffffffffffffffffffffffffff16636a627842866040518263ffffffff1660e01b8152600401610c979190611f44565b6020604051808303816000875af1158015610cb6573d6000803e3d6000fd5b505050506040513d601f19601f82011682018060405250810190610cda9190611acb565b9150509750975097945050505050565b606073__$18693c2782ae7b010cc3bd0449f436a789$__63bb7b9c7660008054906101000a900473ffffffffffffffffffffffffffffffffffffffff1685856040518463ffffffff1660e01b8152600401610d4793929190611bc5565b600060405180830381865af4158015610d64573d6000803e3d6000fd5b505050506040513d6000823e3d601f19601f82011682018060405250810190610d8d9190611cc6565b905092915050565b6000806000610da485856113f9565b91509150858282604051602001610dbc929190612052565b60405160208183030381529060405280519060200120604051602001610de392919061214c565b6040516020818303038152906040528051906020012060001c925050509392505050565b6000808573ffffffffffffffffffffffffffffffffffffffff16858585604051602401610e3693929190611ea8565b6040516020818303038152906040527f23b872dd000000000000000000000000000000000000000000000000000000007bffffffffffffffffffffffffffffffffffffffffffffffffffffffff19166020820180517bffffffffffffffffffffffffffffffffffffffffffffffffffffffff8381831617835250505050604051610ec09190612208565b6000604051808303816000865af19150503d8060008114610efd576040519150601f19603f3d011682016040523d82523d6000602084013e610f02565b606091505b5091509150811580610f3357506000815114158015610f32575080806020019051810190610f309190611f17565b155b5b15610f6a576040517ffb7f507900000000000000000000000000000000000000000000000000000000815260040160405180910390fd5b505050505050565b60005b60018351610f839190611e09565b81101561117657600080848381518110610fa057610f9f611e3d565b5b602002602001015185600185610fb6919061221f565b81518110610fc757610fc6611e3d565b5b6020026020010151915091506000610fdf83836113f9565b509050600087600186610ff2919061221f565b8151811061100357611002611e3d565b5b602002602001015190506000808373ffffffffffffffffffffffffffffffffffffffff168673ffffffffffffffffffffffffffffffffffffffff161461104b5782600061104f565b6000835b91509150600060028a516110639190611e09565b881061106f57886110c1565b6110c060008054906101000a900473ffffffffffffffffffffffffffffffffffffffff16878c60028c6110a2919061221f565b815181106110b3576110b2611e3d565b5b6020026020010151610d95565b5b90506110ee60008054906101000a900473ffffffffffffffffffffffffffffffffffffffff168888610d95565b73ffffffffffffffffffffffffffffffffffffffff16636d9a640a8484846040518463ffffffff1660e01b815260040161112a93929190612275565b600060405180830381600087803b15801561114457600080fd5b505af1158015611158573d6000803e3d6000fd5b5050505050505050505050808061116e906122ac565b915050610f75565b50505050565b60008060008073__$18693c2782ae7b010cc3bd0449f436a789$__633274946160008054906101000a900473ffffffffffffffffffffffffffffffffffffffff168c8c6040518463ffffffff1660e01b81526004016111dd939291906122f5565b6040805180830381865af41580156111f9573d6000803e3d6000fd5b505050506040513d601f19601f8201168201806040525081019061121d9190611f5f565b915091506000821480156112315750600081145b1561124557878780945081955050506113ec565b600073__$18693c2782ae7b010cc3bd0449f436a789$__63ad615dec8a85856040518463ffffffff1660e01b815260040161128293929190611a7f565b602060405180830381865af415801561129f573d6000803e3d6000fd5b505050506040513d601f19601f820116820180604052508101906112c39190611acb565b905087811161131457858111611305576040517fef71d09100000000000000000000000000000000000000000000000000000000815260040160405180910390fd5b888180955081965050506113ea565b600073__$18693c2782ae7b010cc3bd0449f436a789$__63ad615dec8a85876040518463ffffffff1660e01b815260040161135193929190611a7f565b602060405180830381865af415801561136e573d6000803e3d6000fd5b505050506040513d601f19601f820116820180604052508101906113929190611acb565b9050898111156113a5576113a461232c565b5b8781116113de576040517f8dc525d100000000000000000000000000000000000000000000000000000000815260040160405180910390fd5b80898096508197505050505b505b5050965096945050505050565b6000808273ffffffffffffffffffffffffffffffffffffffff168473ffffffffffffffffffffffffffffffffffffffff1610611436578284611439565b83835b915091509250929050565b6000604051905090565b600080fd5b600080fd5b6000819050919050565b61146b81611458565b811461147657600080fd5b50565b60008135905061148881611462565b92915050565b6000806000606084860312156114a7576114a661144e565b5b60006114b586828701611479565b93505060206114c686828701611479565b92505060406114d786828701611479565b9150509250925092565b6114ea81611458565b82525050565b600060208201905061150560008301846114e1565b92915050565b600080fd5b6000601f19601f8301169050919050565b7f4e487b7100000000000000000000000000000000000000000000000000000000600052604160045260246000fd5b61155982611510565b810181811067ffffffffffffffff8211171561157857611577611521565b5b80604052505050565b600061158b611444565b90506115978282611550565b919050565b600067ffffffffffffffff8211156115b7576115b6611521565b5b602082029050602081019050919050565b600080fd5b600073ffffffffffffffffffffffffffffffffffffffff82169050919050565b60006115f8826115cd565b9050919050565b611608816115ed565b811461161357600080fd5b50565b600081359050611625816115ff565b92915050565b600061163e6116398461159c565b611581565b90508083825260208201905060208402830185811115611661576116606115c8565b5b835b8181101561168a57806116768882611616565b845260208401935050602081019050611663565b5050509392505050565b600082601f8301126116a9576116a861150b565b5b81356116b984826020860161162b565b91505092915050565b600080604083850312156116d9576116d861144e565b5b60006116e785828601611479565b925050602083013567ffffffffffffffff81111561170857611707611453565b5b61171485828601611694565b9150509250929050565b600081519050919050565b600082825260208201905092915050565b6000819050602082019050919050565b61175381611458565b82525050565b6000611765838361174a565b60208301905092915050565b6000602082019050919050565b60006117898261171e565b6117938185611729565b935061179e8361173a565b8060005b838110156117cf5781516117b68882611759565b97506117c183611771565b9250506001810190506117a2565b5085935050505092915050565b600060208201905081810360008301526117f6818461177e565b905092915050565b600080fd5b60008083601f8401126118195761181861150b565b5b8235905067ffffffffffffffff811115611836576118356117fe565b5b602083019150836020820283011115611852576118516115c8565b5b9250929050565b6000806000806000608086880312156118755761187461144e565b5b600061188388828901611479565b955050602061189488828901611479565b945050604086013567ffffffffffffffff8111156118b5576118b4611453565b5b6118c188828901611803565b935093505060606118d488828901611616565b9150509295509295909350565b60008060008060008060c087890312156118fe576118fd61144e565b5b600061190c89828a01611616565b965050602061191d89828a01611616565b955050604061192e89828a01611479565b945050606061193f89828a01611479565b935050608061195089828a01611479565b92505060a061196189828a01611616565b9150509295509295509295565b600060408201905061198360008301856114e1565b61199060208301846114e1565b9392505050565b600080600080600080600060e0888a0312156119b6576119b561144e565b5b60006119c48a828b01611616565b97505060206119d58a828b01611616565b96505060406119e68a828b01611479565b95505060606119f78a828b01611479565b9450506080611a088a828b01611479565b93505060a0611a198a828b01611479565b92505060c0611a2a8a828b01611616565b91505092959891949750929550565b6000606082019050611a4e60008301866114e1565b611a5b60208301856114e1565b611a6860408301846114e1565b949350505050565b611a7981611458565b82525050565b6000606082019050611a946000830186611a70565b611aa16020830185611a70565b611aae6040830184611a70565b949350505050565b600081519050611ac581611462565b92915050565b600060208284031215611ae157611ae061144e565b5b6000611aef84828501611ab6565b91505092915050565b611b01816115ed565b82525050565b600081519050919050565b600082825260208201905092915050565b6000819050602082019050919050565b611b3c816115ed565b82525050565b6000611b4e8383611b33565b60208301905092915050565b6000602082019050919050565b6000611b7282611b07565b611b7c8185611b12565b9350611b8783611b23565b8060005b83811015611bb8578151611b9f8882611b42565b9750611baa83611b5a565b925050600181019050611b8b565b5085935050505092915050565b6000606082019050611bda6000830186611af8565b611be76020830185611a70565b8181036040830152611bf98184611b67565b9050949350505050565b600067ffffffffffffffff821115611c1e57611c1d611521565b5b602082029050602081019050919050565b6000611c42611c3d84611c03565b611581565b90508083825260208201905060208402830185811115611c6557611c646115c8565b5b835b81811015611c8e5780611c7a8882611ab6565b845260208401935050602081019050611c67565b5050509392505050565b600082601f830112611cad57611cac61150b565b5b8151611cbd848260208601611c2f565b91505092915050565b600060208284031215611cdc57611cdb61144e565b5b600082015167ffffffffffffffff811115611cfa57611cf9611453565b5b611d0684828501611c98565b91505092915050565b6000819050919050565b6000611d286020840184611616565b905092915050565b6000602082019050919050565b6000611d498385611b12565b9350611d5482611d0f565b8060005b85811015611d8d57611d6a8284611d19565b611d748882611b42565b9750611d7f83611d30565b925050600181019050611d58565b5085925050509392505050565b6000606082019050611daf6000830187611af8565b611dbc6020830186611a70565b8181036040830152611dcf818486611d3d565b905095945050505050565b7f4e487b7100000000000000000000000000000000000000000000000000000000600052601160045260246000fd5b6000611e1482611458565b9150611e1f83611458565b925082821015611e3257611e31611dda565b5b828203905092915050565b7f4e487b7100000000000000000000000000000000000000000000000000000000600052603260045260246000fd5b600060208284031215611e8257611e8161144e565b5b6000611e9084828501611616565b91505092915050565b611ea2816115ed565b82525050565b6000606082019050611ebd6000830186611e99565b611eca6020830185611e99565b611ed760408301846114e1565b949350505050565b60008115159050919050565b611ef481611edf565b8114611eff57600080fd5b50565b600081519050611f1181611eeb565b92915050565b600060208284031215611f2d57611f2c61144e565b5b6000611f3b84828501611f02565b91505092915050565b6000602082019050611f596000830184611e99565b92915050565b60008060408385031215611f7657611f7561144e565b5b6000611f8485828601611ab6565b9250506020611f9585828601611ab6565b9150509250929050565b6000604082019050611fb46000830185611e99565b611fc16020830184611e99565b9392505050565b600081519050611fd7816115ff565b92915050565b600060208284031215611ff357611ff261144e565b5b600061200184828501611fc8565b91505092915050565b60008160601b9050919050565b60006120228261200a565b9050919050565b600061203482612017565b9050919050565b61204c612047826115ed565b612029565b82525050565b600061205e828561203b565b60148201915061206e828461203b565b6014820191508190509392505050565b600081905092915050565b7fff00000000000000000000000000000000000000000000000000000000000000600082015250565b60006120bf60018361207e565b91506120ca82612089565b600182019050919050565b6000819050919050565b6000819050919050565b6120fa6120f5826120d5565b6120df565b82525050565b7fab66b891387a046b7fefca26f19f061e1ced0309d8009fc43808c517eaec6917600082015250565b600061213660208361207e565b915061214182612100565b602082019050919050565b6000612157826120b2565b9150612163828561203b565b60148201915061217382846120e9565b60208201915061218282612129565b91508190509392505050565b600081519050919050565b600081905092915050565b60005b838110156121c25780820151818401526020810190506121a7565b838111156121d1576000848401525b50505050565b60006121e28261218e565b6121ec8185612199565b93506121fc8185602086016121a4565b80840191505092915050565b600061221482846121d7565b915081905092915050565b600061222a82611458565b915061223583611458565b9250827fffffffffffffffffffffffffffffffffffffffffffffffffffffffffffffffff0382111561226a57612269611dda565b5b828201905092915050565b600060608201905061228a60008301866114e1565b61229760208301856114e1565b6122a46040830184611e99565b949350505050565b60006122b782611458565b91507fffffffffffffffffffffffffffffffffffffffffffffffffffffffffffffffff8214156122ea576122e9611dda565b5b600182019050919050565b600060608201905061230a6000830186611af8565b6123176020830185611af8565b6123246040830184611af8565b949350505050565b7f4e487b7100000000000000000000000000000000000000000000000000000000600052600160045260246000fdfea2646970667358221220456f3956a3d7c7e55e887153868d37962fcbe4d19d71f9d6fd7519b99fe8407364736f6c634300080a0033",
					"opcodes": "PUSH1 0x80 PUSH1 0x40 MSTORE CALLVALUE DUP1 ISZERO PUSH3 0x11 JUMPI PUSH1 0x0 DUP1 REVERT JUMPDEST POP PUSH1 0x40 MLOAD PUSH3 0x24BB CODESIZE SUB DUP1 PUSH3 0x24BB DUP4 CODECOPY DUP2 DUP2 ADD PUSH1 0x40 MSTORE DUP2 ADD SWAP1 PUSH3 0x37 SWAP2 SWAP1 PUSH3 0xE8 JUMP JUMPDEST DUP1 PUSH1 0x0 DUP1 PUSH2 0x100 EXP DUP2 SLOAD DUP2 PUSH20 0xFFFFFFFFFFFFFFFFFFFFFFFFFFFFFFFFFFFFFFFF MUL NOT AND SWAP1 DUP4 PUSH20 0xFFFFFFFFFFFFFFFFFFFFFFFFFFFFFFFFFFFFFFFF AND MUL OR SWAP1 SSTORE POP POP PUSH3 0x11A JUMP JUMPDEST PUSH1 0x0 DUP1 REVERT JUMPDEST PUSH1 0x0 PUSH20 0xFFFFFFFFFFFFFFFFFFFFFFFFFFFFFFFFFFFFFFFF DUP3 AND SWAP1 POP SWAP2 SWAP1 POP JUMP JUMPDEST PUSH1 0x0 PUSH3 0xB0 DUP3 PUSH3 0x83 JUMP JUMPDEST SWAP1 POP SWAP2 SWAP1 POP JUMP JUMPDEST PUSH3 0xC2 DUP2 PUSH3 0xA3 JUMP JUMPDEST DUP2 EQ PUSH3 0xCE JUMPI PUSH1 0x0 DUP1 REVERT JUMPDEST POP JUMP JUMPDEST PUSH1 0x0 DUP2 MLOAD SWAP1 POP PUSH3 0xE2 DUP2 PUSH3 0xB7 JUMP JUMPDEST SWAP3 SWAP2 POP POP JUMP JUMPDEST PUSH1 0x0 PUSH1 0x20 DUP3 DUP5 SUB SLT ISZERO PUSH3 0x101 JUMPI PUSH3 0x100 PUSH3 0x7E JUMP JUMPDEST JUMPDEST PUSH1 0x0 PUSH3 0x111 DUP5 DUP3 DUP6 ADD PUSH3 0xD1 JUMP JUMPDEST SWAP2 POP POP SWAP3 SWAP2 POP POP JUMP JUMPDEST PUSH2 0x2391 DUP1 PUSH3 0x12A PUSH1 0x0 CODECOPY PUSH1 0x0 RETURN INVALID PUSH1 0x80 PUSH1 0x40 MSTORE CALLVALUE DUP1 ISZERO PUSH2 0x10 JUMPI PUSH1 0x0 DUP1 REVERT JUMPDEST POP PUSH1 0x4 CALLDATASIZE LT PUSH2 0x93 JUMPI PUSH1 0x0 CALLDATALOAD PUSH1 0xE0 SHR DUP1 PUSH4 0x85F8C259 GT PUSH2 0x66 JUMPI DUP1 PUSH4 0x85F8C259 EQ PUSH2 0x158 JUMPI DUP1 PUSH4 0xAD615DEC EQ PUSH2 0x188 JUMPI DUP1 PUSH4 0xC0E3EE6B EQ PUSH2 0x1B8 JUMPI DUP1 PUSH4 0xCA3D6539 EQ PUSH2 0x1E9 JUMPI DUP1 PUSH4 0xD06CA61F EQ PUSH2 0x21B JUMPI PUSH2 0x93 JUMP JUMPDEST DUP1 PUSH4 0x54D50D4 EQ PUSH2 0x98 JUMPI DUP1 PUSH4 0x1F00CA74 EQ PUSH2 0xC8 JUMPI DUP1 PUSH4 0x42712A67 EQ PUSH2 0xF8 JUMPI DUP1 PUSH4 0x472B43F3 EQ PUSH2 0x128 JUMPI JUMPDEST PUSH1 0x0 DUP1 REVERT JUMPDEST PUSH2 0xB2 PUSH1 0x4 DUP1 CALLDATASIZE SUB DUP2 ADD SWAP1 PUSH2 0xAD SWAP2 SWAP1 PUSH2 0x148E JUMP JUMPDEST PUSH2 0x24B JUMP JUMPDEST PUSH1 0x40 MLOAD PUSH2 0xBF SWAP2 SWAP1 PUSH2 0x14F0 JUMP JUMPDEST PUSH1 0x40 MLOAD DUP1 SWAP2 SUB SWAP1 RETURN JUMPDEST PUSH2 0xE2 PUSH1 0x4 DUP1 CALLDATASIZE SUB DUP2 ADD SWAP1 PUSH2 0xDD SWAP2 SWAP1 PUSH2 0x16C2 JUMP JUMPDEST PUSH2 0x2D2 JUMP JUMPDEST PUSH1 0x40 MLOAD PUSH2 0xEF SWAP2 SWAP1 PUSH2 0x17DC JUMP JUMPDEST PUSH1 0x40 MLOAD DUP1 SWAP2 SUB SWAP1 RETURN JUMPDEST PUSH2 0x112 PUSH1 0x4 DUP1 CALLDATASIZE SUB DUP2 ADD SWAP1 PUSH2 0x10D SWAP2 SWAP1 PUSH2 0x1859 JUMP JUMPDEST PUSH2 0x37D JUMP JUMPDEST PUSH1 0x40 MLOAD PUSH2 0x11F SWAP2 SWAP1 PUSH2 0x17DC JUMP JUMPDEST PUSH1 0x40 MLOAD DUP1 SWAP2 SUB SWAP1 RETURN JUMPDEST PUSH2 0x142 PUSH1 0x4 DUP1 CALLDATASIZE SUB DUP2 ADD SWAP1 PUSH2 0x13D SWAP2 SWAP1 PUSH2 0x1859 JUMP JUMPDEST PUSH2 0x5A3 JUMP JUMPDEST PUSH1 0x40 MLOAD PUSH2 0x14F SWAP2 SWAP1 PUSH2 0x17DC JUMP JUMPDEST PUSH1 0x40 MLOAD DUP1 SWAP2 SUB SWAP1 RETURN JUMPDEST PUSH2 0x172 PUSH1 0x4 DUP1 CALLDATASIZE SUB DUP2 ADD SWAP1 PUSH2 0x16D SWAP2 SWAP1 PUSH2 0x148E JUMP JUMPDEST PUSH2 0x7C9 JUMP JUMPDEST PUSH1 0x40 MLOAD PUSH2 0x17F SWAP2 SWAP1 PUSH2 0x14F0 JUMP JUMPDEST PUSH1 0x40 MLOAD DUP1 SWAP2 SUB SWAP1 RETURN JUMPDEST PUSH2 0x1A2 PUSH1 0x4 DUP1 CALLDATASIZE SUB DUP2 ADD SWAP1 PUSH2 0x19D SWAP2 SWAP1 PUSH2 0x148E JUMP JUMPDEST PUSH2 0x850 JUMP JUMPDEST PUSH1 0x40 MLOAD PUSH2 0x1AF SWAP2 SWAP1 PUSH2 0x14F0 JUMP JUMPDEST PUSH1 0x40 MLOAD DUP1 SWAP2 SUB SWAP1 RETURN JUMPDEST PUSH2 0x1D2 PUSH1 0x4 DUP1 CALLDATASIZE SUB DUP2 ADD SWAP1 PUSH2 0x1CD SWAP2 SWAP1 PUSH2 0x18E1 JUMP JUMPDEST PUSH2 0x8D7 JUMP JUMPDEST PUSH1 0x40 MLOAD PUSH2 0x1E0 SWAP3 SWAP2 SWAP1 PUSH2 0x196E JUMP JUMPDEST PUSH1 0x40 MLOAD DUP1 SWAP2 SUB SWAP1 RETURN JUMPDEST PUSH2 0x203 PUSH1 0x4 DUP1 CALLDATASIZE SUB DUP2 ADD SWAP1 PUSH2 0x1FE SWAP2 SWAP1 PUSH2 0x1997 JUMP JUMPDEST PUSH2 0xA8D JUMP JUMPDEST PUSH1 0x40 MLOAD PUSH2 0x212 SWAP4 SWAP3 SWAP2 SWAP1 PUSH2 0x1A39 JUMP JUMPDEST PUSH1 0x40 MLOAD DUP1 SWAP2 SUB SWAP1 RETURN JUMPDEST PUSH2 0x235 PUSH1 0x4 DUP1 CALLDATASIZE SUB DUP2 ADD SWAP1 PUSH2 0x230 SWAP2 SWAP1 PUSH2 0x16C2 JUMP JUMPDEST PUSH2 0xCEA JUMP JUMPDEST PUSH1 0x40 MLOAD PUSH2 0x242 SWAP2 SWAP1 PUSH2 0x17DC JUMP JUMPDEST PUSH1 0x40 MLOAD DUP1 SWAP2 SUB SWAP1 RETURN JUMPDEST PUSH1 0x0 PUSH20 0x0 PUSH4 0x54D50D4 DUP6 DUP6 DUP6 PUSH1 0x40 MLOAD DUP5 PUSH4 0xFFFFFFFF AND PUSH1 0xE0 SHL DUP2 MSTORE PUSH1 0x4 ADD PUSH2 0x288 SWAP4 SWAP3 SWAP2 SWAP1 PUSH2 0x1A7F JUMP JUMPDEST PUSH1 0x20 PUSH1 0x40 MLOAD DUP1 DUP4 SUB DUP2 DUP7 GAS DELEGATECALL ISZERO DUP1 ISZERO PUSH2 0x2A5 JUMPI RETURNDATASIZE PUSH1 0x0 DUP1 RETURNDATACOPY RETURNDATASIZE PUSH1 0x0 REVERT JUMPDEST POP POP POP POP PUSH1 0x40 MLOAD RETURNDATASIZE PUSH1 0x1F NOT PUSH1 0x1F DUP3 ADD AND DUP3 ADD DUP1 PUSH1 0x40 MSTORE POP DUP2 ADD SWAP1 PUSH2 0x2C9 SWAP2 SWAP1 PUSH2 0x1ACB JUMP JUMPDEST SWAP1 POP SWAP4 SWAP3 POP POP POP JUMP JUMPDEST PUSH1 0x60 PUSH20 0x0 PUSH4 0x192128B2 PUSH1 0x0 DUP1 SLOAD SWAP1 PUSH2 0x100 EXP SWAP1 DIV PUSH20 0xFFFFFFFFFFFFFFFFFFFFFFFFFFFFFFFFFFFFFFFF AND DUP6 DUP6 PUSH1 0x40 MLOAD DUP5 PUSH4 0xFFFFFFFF AND PUSH1 0xE0 SHL DUP2 MSTORE PUSH1 0x4 ADD PUSH2 0x32F SWAP4 SWAP3 SWAP2 SWAP1 PUSH2 0x1BC5 JUMP JUMPDEST PUSH1 0x0 PUSH1 0x40 MLOAD DUP1 DUP4 SUB DUP2 DUP7 GAS DELEGATECALL ISZERO DUP1 ISZERO PUSH2 0x34C JUMPI RETURNDATASIZE PUSH1 0x0 DUP1 RETURNDATACOPY RETURNDATASIZE PUSH1 0x0 REVERT JUMPDEST POP POP POP POP PUSH1 0x40 MLOAD RETURNDATASIZE PUSH1 0x0 DUP3 RETURNDATACOPY RETURNDATASIZE PUSH1 0x1F NOT PUSH1 0x1F DUP3 ADD AND DUP3 ADD DUP1 PUSH1 0x40 MSTORE POP DUP2 ADD SWAP1 PUSH2 0x375 SWAP2 SWAP1 PUSH2 0x1CC6 JUMP JUMPDEST SWAP1 POP SWAP3 SWAP2 POP POP JUMP JUMPDEST PUSH1 0x60 PUSH20 0x0 PUSH4 0x192128B2 PUSH1 0x0 DUP1 SLOAD SWAP1 PUSH2 0x100 EXP SWAP1 DIV PUSH20 0xFFFFFFFFFFFFFFFFFFFFFFFFFFFFFFFFFFFFFFFF AND DUP9 DUP8 DUP8 PUSH1 0x40 MLOAD DUP6 PUSH4 0xFFFFFFFF AND PUSH1 0xE0 SHL DUP2 MSTORE PUSH1 0x4 ADD PUSH2 0x3DC SWAP5 SWAP4 SWAP3 SWAP2 SWAP1 PUSH2 0x1D9A JUMP JUMPDEST PUSH1 0x0 PUSH1 0x40 MLOAD DUP1 DUP4 SUB DUP2 DUP7 GAS DELEGATECALL ISZERO DUP1 ISZERO PUSH2 0x3F9 JUMPI RETURNDATASIZE PUSH1 0x0 DUP1 RETURNDATACOPY RETURNDATASIZE PUSH1 0x0 REVERT JUMPDEST POP POP POP POP PUSH1 0x40 MLOAD RETURNDATASIZE PUSH1 0x0 DUP3 RETURNDATACOPY RETURNDATASIZE PUSH1 0x1F NOT PUSH1 0x1F DUP3 ADD AND DUP3 ADD DUP1 PUSH1 0x40 MSTORE POP DUP2 ADD SWAP1 PUSH2 0x422 SWAP2 SWAP1 PUSH2 0x1CC6 JUMP JUMPDEST SWAP1 POP DUP5 DUP2 PUSH1 0x1 DUP4 MLOAD PUSH2 0x434 SWAP2 SWAP1 PUSH2 0x1E09 JUMP JUMPDEST DUP2 MLOAD DUP2 LT PUSH2 0x445 JUMPI PUSH2 0x444 PUSH2 0x1E3D JUMP JUMPDEST JUMPDEST PUSH1 0x20 MUL PUSH1 0x20 ADD ADD MLOAD GT ISZERO PUSH2 0x485 JUMPI PUSH1 0x40 MLOAD PUSH32 0xE1B0DA4F00000000000000000000000000000000000000000000000000000000 DUP2 MSTORE PUSH1 0x4 ADD PUSH1 0x40 MLOAD DUP1 SWAP2 SUB SWAP1 REVERT JUMPDEST PUSH2 0x54E DUP5 DUP5 PUSH1 0x0 DUP2 DUP2 LT PUSH2 0x49C JUMPI PUSH2 0x49B PUSH2 0x1E3D JUMP JUMPDEST JUMPDEST SWAP1 POP PUSH1 0x20 MUL ADD PUSH1 0x20 DUP2 ADD SWAP1 PUSH2 0x4B1 SWAP2 SWAP1 PUSH2 0x1E6C JUMP JUMPDEST CALLER PUSH2 0x52D PUSH1 0x0 DUP1 SLOAD SWAP1 PUSH2 0x100 EXP SWAP1 DIV PUSH20 0xFFFFFFFFFFFFFFFFFFFFFFFFFFFFFFFFFFFFFFFF AND DUP9 DUP9 PUSH1 0x0 DUP2 DUP2 LT PUSH2 0x4EA JUMPI PUSH2 0x4E9 PUSH2 0x1E3D JUMP JUMPDEST JUMPDEST SWAP1 POP PUSH1 0x20 MUL ADD PUSH1 0x20 DUP2 ADD SWAP1 PUSH2 0x4FF SWAP2 SWAP1 PUSH2 0x1E6C JUMP JUMPDEST DUP10 DUP10 PUSH1 0x1 DUP2 DUP2 LT PUSH2 0x513 JUMPI PUSH2 0x512 PUSH2 0x1E3D JUMP JUMPDEST JUMPDEST SWAP1 POP PUSH1 0x20 MUL ADD PUSH1 0x20 DUP2 ADD SWAP1 PUSH2 0x528 SWAP2 SWAP1 PUSH2 0x1E6C JUMP JUMPDEST PUSH2 0xD95 JUMP JUMPDEST DUP5 PUSH1 0x0 DUP2 MLOAD DUP2 LT PUSH2 0x541 JUMPI PUSH2 0x540 PUSH2 0x1E3D JUMP JUMPDEST JUMPDEST PUSH1 0x20 MUL PUSH1 0x20 ADD ADD MLOAD PUSH2 0xE07 JUMP JUMPDEST PUSH2 0x59A DUP2 DUP6 DUP6 DUP1 DUP1 PUSH1 0x20 MUL PUSH1 0x20 ADD PUSH1 0x40 MLOAD SWAP1 DUP2 ADD PUSH1 0x40 MSTORE DUP1 SWAP4 SWAP3 SWAP2 SWAP1 DUP2 DUP2 MSTORE PUSH1 0x20 ADD DUP4 DUP4 PUSH1 0x20 MUL DUP1 DUP3 DUP5 CALLDATACOPY PUSH1 0x0 DUP2 DUP5 ADD MSTORE PUSH1 0x1F NOT PUSH1 0x1F DUP3 ADD AND SWAP1 POP DUP1 DUP4 ADD SWAP3 POP POP POP POP POP POP POP DUP5 PUSH2 0xF72 JUMP JUMPDEST SWAP6 SWAP5 POP POP POP POP POP JUMP JUMPDEST PUSH1 0x60 PUSH20 0x0 PUSH4 0xBB7B9C76 PUSH1 0x0 DUP1 SLOAD SWAP1 PUSH2 0x100 EXP SWAP1 DIV PUSH20 0xFFFFFFFFFFFFFFFFFFFFFFFFFFFFFFFFFFFFFFFF AND DUP9 DUP8 DUP8 PUSH1 0x40 MLOAD DUP6 PUSH4 0xFFFFFFFF AND PUSH1 0xE0 SHL DUP2 MSTORE PUSH1 0x4 ADD PUSH2 0x602 SWAP5 SWAP4 SWAP3 SWAP2 SWAP1 PUSH2 0x1D9A JUMP JUMPDEST PUSH1 0x0 PUSH1 0x40 MLOAD DUP1 DUP4 SUB DUP2 DUP7 GAS DELEGATECALL ISZERO DUP1 ISZERO PUSH2 0x61F JUMPI RETURNDATASIZE PUSH1 0x0 DUP1 RETURNDATACOPY RETURNDATASIZE PUSH1 0x0 REVERT JUMPDEST POP POP POP POP PUSH1 0x40 MLOAD RETURNDATASIZE PUSH1 0x0 DUP3 RETURNDATACOPY RETURNDATASIZE PUSH1 0x1F NOT PUSH1 0x1F DUP3 ADD AND DUP3 ADD DUP1 PUSH1 0x40 MSTORE POP DUP2 ADD SWAP1 PUSH2 0x648 SWAP2 SWAP1 PUSH2 0x1CC6 JUMP JUMPDEST SWAP1 POP DUP5 DUP2 PUSH1 0x1 DUP4 MLOAD PUSH2 0x65A SWAP2 SWAP1 PUSH2 0x1E09 JUMP JUMPDEST DUP2 MLOAD DUP2 LT PUSH2 0x66B JUMPI PUSH2 0x66A PUSH2 0x1E3D JUMP JUMPDEST JUMPDEST PUSH1 0x20 MUL PUSH1 0x20 ADD ADD MLOAD LT ISZERO PUSH2 0x6AB JUMPI PUSH1 0x40 MLOAD PUSH32 0x42301C2300000000000000000000000000000000000000000000000000000000 DUP2 MSTORE PUSH1 0x4 ADD PUSH1 0x40 MLOAD DUP1 SWAP2 SUB SWAP1 REVERT JUMPDEST PUSH2 0x774 DUP5 DUP5 PUSH1 0x0 DUP2 DUP2 LT PUSH2 0x6C2 JUMPI PUSH2 0x6C1 PUSH2 0x1E3D JUMP JUMPDEST JUMPDEST SWAP1 POP PUSH1 0x20 MUL ADD PUSH1 0x20 DUP2 ADD SWAP1 PUSH2 0x6D7 SWAP2 SWAP1 PUSH2 0x1E6C JUMP JUMPDEST CALLER PUSH2 0x753 PUSH1 0x0 DUP1 SLOAD SWAP1 PUSH2 0x100 EXP SWAP1 DIV PUSH20 0xFFFFFFFFFFFFFFFFFFFFFFFFFFFFFFFFFFFFFFFF AND DUP9 DUP9 PUSH1 0x0 DUP2 DUP2 LT PUSH2 0x710 JUMPI PUSH2 0x70F PUSH2 0x1E3D JUMP JUMPDEST JUMPDEST SWAP1 POP PUSH1 0x20 MUL ADD PUSH1 0x20 DUP2 ADD SWAP1 PUSH2 0x725 SWAP2 SWAP1 PUSH2 0x1E6C JUMP JUMPDEST DUP10 DUP10 PUSH1 0x1 DUP2 DUP2 LT PUSH2 0x739 JUMPI PUSH2 0x738 PUSH2 0x1E3D JUMP JUMPDEST JUMPDEST SWAP1 POP PUSH1 0x20 MUL ADD PUSH1 0x20 DUP2 ADD SWAP1 PUSH2 0x74E SWAP2 SWAP1 PUSH2 0x1E6C JUMP JUMPDEST PUSH2 0xD95 JUMP JUMPDEST DUP5 PUSH1 0x0 DUP2 MLOAD DUP2 LT PUSH2 0x767 JUMPI PUSH2 0x766 PUSH2 0x1E3D JUMP JUMPDEST JUMPDEST PUSH1 0x20 MUL PUSH1 0x20 ADD ADD MLOAD PUSH2 0xE07 JUMP JUMPDEST PUSH2 0x7C0 DUP2 DUP6 DUP6 DUP1 DUP1 PUSH1 0x20 MUL PUSH1 0x20 ADD PUSH1 0x40 MLOAD SWAP1 DUP2 ADD PUSH1 0x40 MSTORE DUP1 SWAP4 SWAP3 SWAP2 SWAP1 DUP2 DUP2 MSTORE PUSH1 0x20 ADD DUP4 DUP4 PUSH1 0x20 MUL DUP1 DUP3 DUP5 CALLDATACOPY PUSH1 0x0 DUP2 DUP5 ADD MSTORE PUSH1 0x1F NOT PUSH1 0x1F DUP3 ADD AND SWAP1 POP DUP1 DUP4 ADD SWAP3 POP POP POP POP POP POP POP DUP5 PUSH2 0xF72 JUMP JUMPDEST SWAP6 SWAP5 POP POP POP POP POP JUMP JUMPDEST PUSH1 0x0 PUSH20 0x0 PUSH4 0x85F8C259 DUP6 DUP6 DUP6 PUSH1 0x40 MLOAD DUP5 PUSH4 0xFFFFFFFF AND PUSH1 0xE0 SHL DUP2 MSTORE PUSH1 0x4 ADD PUSH2 0x806 SWAP4 SWAP3 SWAP2 SWAP1 PUSH2 0x1A7F JUMP JUMPDEST PUSH1 0x20 PUSH1 0x40 MLOAD DUP1 DUP4 SUB DUP2 DUP7 GAS DELEGATECALL ISZERO DUP1 ISZERO PUSH2 0x823 JUMPI RETURNDATASIZE PUSH1 0x0 DUP1 RETURNDATACOPY RETURNDATASIZE PUSH1 0x0 REVERT JUMPDEST POP POP POP POP PUSH1 0x40 MLOAD RETURNDATASIZE PUSH1 0x1F NOT PUSH1 0x1F DUP3 ADD AND DUP3 ADD DUP1 PUSH1 0x40 MSTORE POP DUP2 ADD SWAP1 PUSH2 0x847 SWAP2 SWAP1 PUSH2 0x1ACB JUMP JUMPDEST SWAP1 POP SWAP4 SWAP3 POP POP POP JUMP JUMPDEST PUSH1 0x0 PUSH20 0x0 PUSH4 0xAD615DEC DUP6 DUP6 DUP6 PUSH1 0x40 MLOAD DUP5 PUSH4 0xFFFFFFFF AND PUSH1 0xE0 SHL DUP2 MSTORE PUSH1 0x4 ADD PUSH2 0x88D SWAP4 SWAP3 SWAP2 SWAP1 PUSH2 0x1A7F JUMP JUMPDEST PUSH1 0x20 PUSH1 0x40 MLOAD DUP1 DUP4 SUB DUP2 DUP7 GAS DELEGATECALL ISZERO DUP1 ISZERO PUSH2 0x8AA JUMPI RETURNDATASIZE PUSH1 0x0 DUP1 RETURNDATACOPY RETURNDATASIZE PUSH1 0x0 REVERT JUMPDEST POP POP POP POP PUSH1 0x40 MLOAD RETURNDATASIZE PUSH1 0x1F NOT PUSH1 0x1F DUP3 ADD AND DUP3 ADD DUP1 PUSH1 0x40 MSTORE POP DUP2 ADD SWAP1 PUSH2 0x8CE SWAP2 SWAP1 PUSH2 0x1ACB JUMP JUMPDEST SWAP1 POP SWAP4 SWAP3 POP POP POP JUMP JUMPDEST PUSH1 0x0 DUP1 PUSH1 0x0 PUSH2 0x907 PUSH1 0x0 DUP1 SLOAD SWAP1 PUSH2 0x100 EXP SWAP1 DIV PUSH20 0xFFFFFFFFFFFFFFFFFFFFFFFFFFFFFFFFFFFFFFFF AND DUP11 DUP11 PUSH2 0xD95 JUMP JUMPDEST SWAP1 POP DUP1 PUSH20 0xFFFFFFFFFFFFFFFFFFFFFFFFFFFFFFFFFFFFFFFF AND PUSH4 0x23B872DD CALLER DUP4 DUP11 PUSH1 0x40 MLOAD DUP5 PUSH4 0xFFFFFFFF AND PUSH1 0xE0 SHL DUP2 MSTORE PUSH1 0x4 ADD PUSH2 0x946 SWAP4 SWAP3 SWAP2 SWAP1 PUSH2 0x1EA8 JUMP JUMPDEST PUSH1 0x20 PUSH1 0x40 MLOAD DUP1 DUP4 SUB DUP2 PUSH1 0x0 DUP8 GAS CALL ISZERO DUP1 ISZERO PUSH2 0x965 JUMPI RETURNDATASIZE PUSH1 0x0 DUP1 RETURNDATACOPY RETURNDATASIZE PUSH1 0x0 REVERT JUMPDEST POP POP POP POP PUSH1 0x40 MLOAD RETURNDATASIZE PUSH1 0x1F NOT PUSH1 0x1F DUP3 ADD AND DUP3 ADD DUP1 PUSH1 0x40 MSTORE POP DUP2 ADD SWAP1 PUSH2 0x989 SWAP2 SWAP1 PUSH2 0x1F17 JUMP JUMPDEST POP DUP1 PUSH20 0xFFFFFFFFFFFFFFFFFFFFFFFFFFFFFFFFFFFFFFFF AND PUSH4 0x89AFCB44 DUP6 PUSH1 0x40 MLOAD DUP3 PUSH4 0xFFFFFFFF AND PUSH1 0xE0 SHL DUP2 MSTORE PUSH1 0x4 ADD PUSH2 0x9C3 SWAP2 SWAP1 PUSH2 0x1F44 JUMP JUMPDEST PUSH1 0x40 DUP1 MLOAD DUP1 DUP4 SUB DUP2 PUSH1 0x0 DUP8 GAS CALL ISZERO DUP1 ISZERO PUSH2 0x9E1 JUMPI RETURNDATASIZE PUSH1 0x0 DUP1 RETURNDATACOPY RETURNDATASIZE PUSH1 0x0 REVERT JUMPDEST POP POP POP POP PUSH1 0x40 MLOAD RETURNDATASIZE PUSH1 0x1F NOT PUSH1 0x1F DUP3 ADD AND DUP3 ADD DUP1 PUSH1 0x40 MSTORE POP DUP2 ADD SWAP1 PUSH2 0xA05 SWAP2 SWAP1 PUSH2 0x1F5F JUMP JUMPDEST DUP1 SWAP4 POP DUP2 SWAP5 POP POP POP DUP6 DUP4 LT ISZERO PUSH2 0xA47 JUMPI PUSH1 0x40 MLOAD PUSH32 0x8DC525D100000000000000000000000000000000000000000000000000000000 DUP2 MSTORE PUSH1 0x4 ADD PUSH1 0x40 MLOAD DUP1 SWAP2 SUB SWAP1 REVERT JUMPDEST DUP5 DUP3 LT ISZERO PUSH2 0xA81 JUMPI PUSH1 0x40 MLOAD PUSH32 0xEF71D09100000000000000000000000000000000000000000000000000000000 DUP2 MSTORE PUSH1 0x4 ADD PUSH1 0x40 MLOAD DUP1 SWAP2 SUB SWAP1 REVERT JUMPDEST POP SWAP7 POP SWAP7 SWAP5 POP POP POP POP POP JUMP JUMPDEST PUSH1 0x0 DUP1 PUSH1 0x0 DUP1 PUSH20 0xFFFFFFFFFFFFFFFFFFFFFFFFFFFFFFFFFFFFFFFF AND PUSH1 0x0 DUP1 SLOAD SWAP1 PUSH2 0x100 EXP SWAP1 DIV PUSH20 0xFFFFFFFFFFFFFFFFFFFFFFFFFFFFFFFFFFFFFFFF AND PUSH20 0xFFFFFFFFFFFFFFFFFFFFFFFFFFFFFFFFFFFFFFFF AND PUSH4 0x69454B86 DUP13 DUP13 PUSH1 0x40 MLOAD DUP4 PUSH4 0xFFFFFFFF AND PUSH1 0xE0 SHL DUP2 MSTORE PUSH1 0x4 ADD PUSH2 0xB04 SWAP3 SWAP2 SWAP1 PUSH2 0x1F9F JUMP JUMPDEST PUSH1 0x20 PUSH1 0x40 MLOAD DUP1 DUP4 SUB DUP2 DUP7 GAS STATICCALL ISZERO DUP1 ISZERO PUSH2 0xB21 JUMPI RETURNDATASIZE PUSH1 0x0 DUP1 RETURNDATACOPY RETURNDATASIZE PUSH1 0x0 REVERT JUMPDEST POP POP POP POP PUSH1 0x40 MLOAD RETURNDATASIZE PUSH1 0x1F NOT PUSH1 0x1F DUP3 ADD AND DUP3 ADD DUP1 PUSH1 0x40 MSTORE POP DUP2 ADD SWAP1 PUSH2 0xB45 SWAP2 SWAP1 PUSH2 0x1FDD JUMP JUMPDEST PUSH20 0xFFFFFFFFFFFFFFFFFFFFFFFFFFFFFFFFFFFFFFFF AND EQ ISZERO PUSH2 0xC01 JUMPI PUSH1 0x0 DUP1 SLOAD SWAP1 PUSH2 0x100 EXP SWAP1 DIV PUSH20 0xFFFFFFFFFFFFFFFFFFFFFFFFFFFFFFFFFFFFFFFF AND PUSH20 0xFFFFFFFFFFFFFFFFFFFFFFFFFFFFFFFFFFFFFFFF AND PUSH4 0xC9C65396 DUP12 DUP12 PUSH1 0x40 MLOAD DUP4 PUSH4 0xFFFFFFFF AND PUSH1 0xE0 SHL DUP2 MSTORE PUSH1 0x4 ADD PUSH2 0xBBC SWAP3 SWAP2 SWAP1 PUSH2 0x1F9F JUMP JUMPDEST PUSH1 0x20 PUSH1 0x40 MLOAD DUP1 DUP4 SUB DUP2 PUSH1 0x0 DUP8 GAS CALL ISZERO DUP1 ISZERO PUSH2 0xBDB JUMPI RETURNDATASIZE PUSH1 0x0 DUP1 RETURNDATACOPY RETURNDATASIZE PUSH1 0x0 REVERT JUMPDEST POP POP POP POP PUSH1 0x40 MLOAD RETURNDATASIZE PUSH1 0x1F NOT PUSH1 0x1F DUP3 ADD AND DUP3 ADD DUP1 PUSH1 0x40 MSTORE POP DUP2 ADD SWAP1 PUSH2 0xBFF SWAP2 SWAP1 PUSH2 0x1FDD JUMP JUMPDEST POP JUMPDEST PUSH2 0xC0F DUP11 DUP11 DUP11 DUP11 DUP11 DUP11 PUSH2 0x117C JUMP JUMPDEST DUP1 SWAP4 POP DUP2 SWAP5 POP POP POP PUSH1 0x0 PUSH2 0xC44 PUSH1 0x0 DUP1 SLOAD SWAP1 PUSH2 0x100 EXP SWAP1 DIV PUSH20 0xFFFFFFFFFFFFFFFFFFFFFFFFFFFFFFFFFFFFFFFF AND DUP13 DUP13 PUSH2 0xD95 JUMP JUMPDEST SWAP1 POP PUSH2 0xC52 DUP12 CALLER DUP4 DUP8 PUSH2 0xE07 JUMP JUMPDEST PUSH2 0xC5E DUP11 CALLER DUP4 DUP7 PUSH2 0xE07 JUMP JUMPDEST DUP1 PUSH20 0xFFFFFFFFFFFFFFFFFFFFFFFFFFFFFFFFFFFFFFFF AND PUSH4 0x6A627842 DUP7 PUSH1 0x40 MLOAD DUP3 PUSH4 0xFFFFFFFF AND PUSH1 0xE0 SHL DUP2 MSTORE PUSH1 0x4 ADD PUSH2 0xC97 SWAP2 SWAP1 PUSH2 0x1F44 JUMP JUMPDEST PUSH1 0x20 PUSH1 0x40 MLOAD DUP1 DUP4 SUB DUP2 PUSH1 0x0 DUP8 GAS CALL ISZERO DUP1 ISZERO PUSH2 0xCB6 JUMPI RETURNDATASIZE PUSH1 0x0 DUP1 RETURNDATACOPY RETURNDATASIZE PUSH1 0x0 REVERT JUMPDEST POP POP POP POP PUSH1 0x40 MLOAD RETURNDATASIZE PUSH1 0x1F NOT PUSH1 0x1F DUP3 ADD AND DUP3 ADD DUP1 PUSH1 0x40 MSTORE POP DUP2 ADD SWAP1 PUSH2 0xCDA SWAP2 SWAP1 PUSH2 0x1ACB JUMP JUMPDEST SWAP2 POP POP SWAP8 POP SWAP8 POP SWAP8 SWAP5 POP POP POP POP POP JUMP JUMPDEST PUSH1 0x60 PUSH20 0x0 PUSH4 0xBB7B9C76 PUSH1 0x0 DUP1 SLOAD SWAP1 PUSH2 0x100 EXP SWAP1 DIV PUSH20 0xFFFFFFFFFFFFFFFFFFFFFFFFFFFFFFFFFFFFFFFF AND DUP6 DUP6 PUSH1 0x40 MLOAD DUP5 PUSH4 0xFFFFFFFF AND PUSH1 0xE0 SHL DUP2 MSTORE PUSH1 0x4 ADD PUSH2 0xD47 SWAP4 SWAP3 SWAP2 SWAP1 PUSH2 0x1BC5 JUMP JUMPDEST PUSH1 0x0 PUSH1 0x40 MLOAD DUP1 DUP4 SUB DUP2 DUP7 GAS DELEGATECALL ISZERO DUP1 ISZERO PUSH2 0xD64 JUMPI RETURNDATASIZE PUSH1 0x0 DUP1 RETURNDATACOPY RETURNDATASIZE PUSH1 0x0 REVERT JUMPDEST POP POP POP POP PUSH1 0x40 MLOAD RETURNDATASIZE PUSH1 0x0 DUP3 RETURNDATACOPY RETURNDATASIZE PUSH1 0x1F NOT PUSH1 0x1F DUP3 ADD AND DUP3 ADD DUP1 PUSH1 0x40 MSTORE POP DUP2 ADD SWAP1 PUSH2 0xD8D SWAP2 SWAP1 PUSH2 0x1CC6 JUMP JUMPDEST SWAP1 POP SWAP3 SWAP2 POP POP JUMP JUMPDEST PUSH1 0x0 DUP1 PUSH1 0x0 PUSH2 0xDA4 DUP6 DUP6 PUSH2 0x13F9 JUMP JUMPDEST SWAP2 POP SWAP2 POP DUP6 DUP3 DUP3 PUSH1 0x40 MLOAD PUSH1 0x20 ADD PUSH2 0xDBC SWAP3 SWAP2 SWAP1 PUSH2 0x2052 JUMP JUMPDEST PUSH1 0x40 MLOAD PUSH1 0x20 DUP2 DUP4 SUB SUB DUP2 MSTORE SWAP1 PUSH1 0x40 MSTORE DUP1 MLOAD SWAP1 PUSH1 0x20 ADD KECCAK256 PUSH1 0x40 MLOAD PUSH1 0x20 ADD PUSH2 0xDE3 SWAP3 SWAP2 SWAP1 PUSH2 0x214C JUMP JUMPDEST PUSH1 0x40 MLOAD PUSH1 0x20 DUP2 DUP4 SUB SUB DUP2 MSTORE SWAP1 PUSH1 0x40 MSTORE DUP1 MLOAD SWAP1 PUSH1 0x20 ADD KECCAK256 PUSH1 0x0 SHR SWAP3 POP POP POP SWAP4 SWAP3 POP POP POP JUMP JUMPDEST PUSH1 0x0 DUP1 DUP6 PUSH20 0xFFFFFFFFFFFFFFFFFFFFFFFFFFFFFFFFFFFFFFFF AND DUP6 DUP6 DUP6 PUSH1 0x40 MLOAD PUSH1 0x24 ADD PUSH2 0xE36 SWAP4 SWAP3 SWAP2 SWAP1 PUSH2 0x1EA8 JUMP JUMPDEST PUSH1 0x40 MLOAD PUSH1 0x20 DUP2 DUP4 SUB SUB DUP2 MSTORE SWAP1 PUSH1 0x40 MSTORE PUSH32 0x23B872DD00000000000000000000000000000000000000000000000000000000 PUSH28 0xFFFFFFFFFFFFFFFFFFFFFFFFFFFFFFFFFFFFFFFFFFFFFFFFFFFFFFFF NOT AND PUSH1 0x20 DUP3 ADD DUP1 MLOAD PUSH28 0xFFFFFFFFFFFFFFFFFFFFFFFFFFFFFFFFFFFFFFFFFFFFFFFFFFFFFFFF DUP4 DUP2 DUP4 AND OR DUP4 MSTORE POP POP POP POP PUSH1 0x40 MLOAD PUSH2 0xEC0 SWAP2 SWAP1 PUSH2 0x2208 JUMP JUMPDEST PUSH1 0x0 PUSH1 0x40 MLOAD DUP1 DUP4 SUB DUP2 PUSH1 0x0 DUP7 GAS CALL SWAP2 POP POP RETURNDATASIZE DUP1 PUSH1 0x0 DUP2 EQ PUSH2 0xEFD JUMPI PUSH1 0x40 MLOAD SWAP2 POP PUSH1 0x1F NOT PUSH1 0x3F RETURNDATASIZE ADD AND DUP3 ADD PUSH1 0x40 MSTORE RETURNDATASIZE DUP3 MSTORE RETURNDATASIZE PUSH1 0x0 PUSH1 0x20 DUP5 ADD RETURNDATACOPY PUSH2 0xF02 JUMP JUMPDEST PUSH1 0x60 SWAP2 POP JUMPDEST POP SWAP2 POP SWAP2 POP DUP2 ISZERO DUP1 PUSH2 0xF33 JUMPI POP PUSH1 0x0 DUP2 MLOAD EQ ISZERO DUP1 ISZERO PUSH2 0xF32 JUMPI POP DUP1 DUP1 PUSH1 0x20 ADD SWAP1 MLOAD DUP2 ADD SWAP1 PUSH2 0xF30 SWAP2 SWAP1 PUSH2 0x1F17 JUMP JUMPDEST ISZERO JUMPDEST JUMPDEST ISZERO PUSH2 0xF6A JUMPI PUSH1 0x40 MLOAD PUSH32 0xFB7F507900000000000000000000000000000000000000000000000000000000 DUP2 MSTORE PUSH1 0x4 ADD PUSH1 0x40 MLOAD DUP1 SWAP2 SUB SWAP1 REVERT JUMPDEST POP POP POP POP POP POP JUMP JUMPDEST PUSH1 0x0 JUMPDEST PUSH1 0x1 DUP4 MLOAD PUSH2 0xF83 SWAP2 SWAP1 PUSH2 0x1E09 JUMP JUMPDEST DUP2 LT ISZERO PUSH2 0x1176 JUMPI PUSH1 0x0 DUP1 DUP5 DUP4 DUP2 MLOAD DUP2 LT PUSH2 0xFA0 JUMPI PUSH2 0xF9F PUSH2 0x1E3D JUMP JUMPDEST JUMPDEST PUSH1 0x20 MUL PUSH1 0x20 ADD ADD MLOAD DUP6 PUSH1 0x1 DUP6 PUSH2 0xFB6 SWAP2 SWAP1 PUSH2 0x221F JUMP JUMPDEST DUP2 MLOAD DUP2 LT PUSH2 0xFC7 JUMPI PUSH2 0xFC6 PUSH2 0x1E3D JUMP JUMPDEST JUMPDEST PUSH1 0x20 MUL PUSH1 0x20 ADD ADD MLOAD SWAP2 POP SWAP2 POP PUSH1 0x0 PUSH2 0xFDF DUP4 DUP4 PUSH2 0x13F9 JUMP JUMPDEST POP SWAP1 POP PUSH1 0x0 DUP8 PUSH1 0x1 DUP7 PUSH2 0xFF2 SWAP2 SWAP1 PUSH2 0x221F JUMP JUMPDEST DUP2 MLOAD DUP2 LT PUSH2 0x1003 JUMPI PUSH2 0x1002 PUSH2 0x1E3D JUMP JUMPDEST JUMPDEST PUSH1 0x20 MUL PUSH1 0x20 ADD ADD MLOAD SWAP1 POP PUSH1 0x0 DUP1 DUP4 PUSH20 0xFFFFFFFFFFFFFFFFFFFFFFFFFFFFFFFFFFFFFFFF AND DUP7 PUSH20 0xFFFFFFFFFFFFFFFFFFFFFFFFFFFFFFFFFFFFFFFF AND EQ PUSH2 0x104B JUMPI DUP3 PUSH1 0x0 PUSH2 0x104F JUMP JUMPDEST PUSH1 0x0 DUP4 JUMPDEST SWAP2 POP SWAP2 POP PUSH1 0x0 PUSH1 0x2 DUP11 MLOAD PUSH2 0x1063 SWAP2 SWAP1 PUSH2 0x1E09 JUMP JUMPDEST DUP9 LT PUSH2 0x106F JUMPI DUP9 PUSH2 0x10C1 JUMP JUMPDEST PUSH2 0x10C0 PUSH1 0x0 DUP1 SLOAD SWAP1 PUSH2 0x100 EXP SWAP1 DIV PUSH20 0xFFFFFFFFFFFFFFFFFFFFFFFFFFFFFFFFFFFFFFFF AND DUP8 DUP13 PUSH1 0x2 DUP13 PUSH2 0x10A2 SWAP2 SWAP1 PUSH2 0x221F JUMP JUMPDEST DUP2 MLOAD DUP2 LT PUSH2 0x10B3 JUMPI PUSH2 0x10B2 PUSH2 0x1E3D JUMP JUMPDEST JUMPDEST PUSH1 0x20 MUL PUSH1 0x20 ADD ADD MLOAD PUSH2 0xD95 JUMP JUMPDEST JUMPDEST SWAP1 POP PUSH2 0x10EE PUSH1 0x0 DUP1 SLOAD SWAP1 PUSH2 0x100 EXP SWAP1 DIV PUSH20 0xFFFFFFFFFFFFFFFFFFFFFFFFFFFFFFFFFFFFFFFF AND DUP9 DUP9 PUSH2 0xD95 JUMP JUMPDEST PUSH20 0xFFFFFFFFFFFFFFFFFFFFFFFFFFFFFFFFFFFFFFFF AND PUSH4 0x6D9A640A DUP5 DUP5 DUP5 PUSH1 0x40 MLOAD DUP5 PUSH4 0xFFFFFFFF AND PUSH1 0xE0 SHL DUP2 MSTORE PUSH1 0x4 ADD PUSH2 0x112A SWAP4 SWAP3 SWAP2 SWAP1 PUSH2 0x2275 JUMP JUMPDEST PUSH1 0x0 PUSH1 0x40 MLOAD DUP1 DUP4 SUB DUP2 PUSH1 0x0 DUP8 DUP1 EXTCODESIZE ISZERO DUP1 ISZERO PUSH2 0x1144 JUMPI PUSH1 0x0 DUP1 REVERT JUMPDEST POP GAS CALL ISZERO DUP1 ISZERO PUSH2 0x1158 JUMPI RETURNDATASIZE PUSH1 0x0 DUP1 RETURNDATACOPY RETURNDATASIZE PUSH1 0x0 REVERT JUMPDEST POP POP POP POP POP POP POP POP POP POP POP DUP1 DUP1 PUSH2 0x116E SWAP1 PUSH2 0x22AC JUMP JUMPDEST SWAP2 POP POP PUSH2 0xF75 JUMP JUMPDEST POP POP POP POP JUMP JUMPDEST PUSH1 0x0 DUP1 PUSH1 0x0 DUP1 PUSH20 0x0 PUSH4 0x32749461 PUSH1 0x0 DUP1 SLOAD SWAP1 PUSH2 0x100 EXP SWAP1 DIV PUSH20 0xFFFFFFFFFFFFFFFFFFFFFFFFFFFFFFFFFFFFFFFF AND DUP13 DUP13 PUSH1 0x40 MLOAD DUP5 PUSH4 0xFFFFFFFF AND PUSH1 0xE0 SHL DUP2 MSTORE PUSH1 0x4 ADD PUSH2 0x11DD SWAP4 SWAP3 SWAP2 SWAP1 PUSH2 0x22F5 JUMP JUMPDEST PUSH1 0x40 DUP1 MLOAD DUP1 DUP4 SUB DUP2 DUP7 GAS DELEGATECALL ISZERO DUP1 ISZERO PUSH2 0x11F9 JUMPI RETURNDATASIZE PUSH1 0x0 DUP1 RETURNDATACOPY RETURNDATASIZE PUSH1 0x0 REVERT JUMPDEST POP POP POP POP PUSH1 0x40 MLOAD RETURNDATASIZE PUSH1 0x1F NOT PUSH1 0x1F DUP3 ADD AND DUP3 ADD DUP1 PUSH1 0x40 MSTORE POP DUP2 ADD SWAP1 PUSH2 0x121D SWAP2 SWAP1 PUSH2 0x1F5F JUMP JUMPDEST SWAP2 POP SWAP2 POP PUSH1 0x0 DUP3 EQ DUP1 ISZERO PUSH2 0x1231 JUMPI POP PUSH1 0x0 DUP2 EQ JUMPDEST ISZERO PUSH2 0x1245 JUMPI DUP8 DUP8 DUP1 SWAP5 POP DUP2 SWAP6 POP POP POP PUSH2 0x13EC JUMP JUMPDEST PUSH1 0x0 PUSH20 0x0 PUSH4 0xAD615DEC DUP11 DUP6 DUP6 PUSH1 0x40 MLOAD DUP5 PUSH4 0xFFFFFFFF AND PUSH1 0xE0 SHL DUP2 MSTORE PUSH1 0x4 ADD PUSH2 0x1282 SWAP4 SWAP3 SWAP2 SWAP1 PUSH2 0x1A7F JUMP JUMPDEST PUSH1 0x20 PUSH1 0x40 MLOAD DUP1 DUP4 SUB DUP2 DUP7 GAS DELEGATECALL ISZERO DUP1 ISZERO PUSH2 0x129F JUMPI RETURNDATASIZE PUSH1 0x0 DUP1 RETURNDATACOPY RETURNDATASIZE PUSH1 0x0 REVERT JUMPDEST POP POP POP POP PUSH1 0x40 MLOAD RETURNDATASIZE PUSH1 0x1F NOT PUSH1 0x1F DUP3 ADD AND DUP3 ADD DUP1 PUSH1 0x40 MSTORE POP DUP2 ADD SWAP1 PUSH2 0x12C3 SWAP2 SWAP1 PUSH2 0x1ACB JUMP JUMPDEST SWAP1 POP DUP8 DUP2 GT PUSH2 0x1314 JUMPI DUP6 DUP2 GT PUSH2 0x1305 JUMPI PUSH1 0x40 MLOAD PUSH32 0xEF71D09100000000000000000000000000000000000000000000000000000000 DUP2 MSTORE PUSH1 0x4 ADD PUSH1 0x40 MLOAD DUP1 SWAP2 SUB SWAP1 REVERT JUMPDEST DUP9 DUP2 DUP1 SWAP6 POP DUP2 SWAP7 POP POP POP PUSH2 0x13EA JUMP JUMPDEST PUSH1 0x0 PUSH20 0x0 PUSH4 0xAD615DEC DUP11 DUP6 DUP8 PUSH1 0x40 MLOAD DUP5 PUSH4 0xFFFFFFFF AND PUSH1 0xE0 SHL DUP2 MSTORE PUSH1 0x4 ADD PUSH2 0x1351 SWAP4 SWAP3 SWAP2 SWAP1 PUSH2 0x1A7F JUMP JUMPDEST PUSH1 0x20 PUSH1 0x40 MLOAD DUP1 DUP4 SUB DUP2 DUP7 GAS DELEGATECALL ISZERO DUP1 ISZERO PUSH2 0x136E JUMPI RETURNDATASIZE PUSH1 0x0 DUP1 RETURNDATACOPY RETURNDATASIZE PUSH1 0x0 REVERT JUMPDEST POP POP POP POP PUSH1 0x40 MLOAD RETURNDATASIZE PUSH1 0x1F NOT PUSH1 0x1F DUP3 ADD AND DUP3 ADD DUP1 PUSH1 0x40 MSTORE POP DUP2 ADD SWAP1 PUSH2 0x1392 SWAP2 SWAP1 PUSH2 0x1ACB JUMP JUMPDEST SWAP1 POP DUP10 DUP2 GT ISZERO PUSH2 0x13A5 JUMPI PUSH2 0x13A4 PUSH2 0x232C JUMP JUMPDEST JUMPDEST DUP8 DUP2 GT PUSH2 0x13DE JUMPI PUSH1 0x40 MLOAD PUSH32 0x8DC525D100000000000000000000000000000000000000000000000000000000 DUP2 MSTORE PUSH1 0x4 ADD PUSH1 0x40 MLOAD DUP1 SWAP2 SUB SWAP1 REVERT JUMPDEST DUP1 DUP10 DUP1 SWAP7 POP DUP2 SWAP8 POP POP POP POP JUMPDEST POP JUMPDEST POP POP SWAP7 POP SWAP7 SWAP5 POP POP POP POP POP JUMP JUMPDEST PUSH1 0x0 DUP1 DUP3 PUSH20 0xFFFFFFFFFFFFFFFFFFFFFFFFFFFFFFFFFFFFFFFF AND DUP5 PUSH20 0xFFFFFFFFFFFFFFFFFFFFFFFFFFFFFFFFFFFFFFFF AND LT PUSH2 0x1436 JUMPI DUP3 DUP5 PUSH2 0x1439 JUMP JUMPDEST DUP4 DUP4 JUMPDEST SWAP2 POP SWAP2 POP SWAP3 POP SWAP3 SWAP1 POP JUMP JUMPDEST PUSH1 0x0 PUSH1 0x40 MLOAD SWAP1 POP SWAP1 JUMP JUMPDEST PUSH1 0x0 DUP1 REVERT JUMPDEST PUSH1 0x0 DUP1 REVERT JUMPDEST PUSH1 0x0 DUP2 SWAP1 POP SWAP2 SWAP1 POP JUMP JUMPDEST PUSH2 0x146B DUP2 PUSH2 0x1458 JUMP JUMPDEST DUP2 EQ PUSH2 0x1476 JUMPI PUSH1 0x0 DUP1 REVERT JUMPDEST POP JUMP JUMPDEST PUSH1 0x0 DUP2 CALLDATALOAD SWAP1 POP PUSH2 0x1488 DUP2 PUSH2 0x1462 JUMP JUMPDEST SWAP3 SWAP2 POP POP JUMP JUMPDEST PUSH1 0x0 DUP1 PUSH1 0x0 PUSH1 0x60 DUP5 DUP7 SUB SLT ISZERO PUSH2 0x14A7 JUMPI PUSH2 0x14A6 PUSH2 0x144E JUMP JUMPDEST JUMPDEST PUSH1 0x0 PUSH2 0x14B5 DUP7 DUP3 DUP8 ADD PUSH2 0x1479 JUMP JUMPDEST SWAP4 POP POP PUSH1 0x20 PUSH2 0x14C6 DUP7 DUP3 DUP8 ADD PUSH2 0x1479 JUMP JUMPDEST SWAP3 POP POP PUSH1 0x40 PUSH2 0x14D7 DUP7 DUP3 DUP8 ADD PUSH2 0x1479 JUMP JUMPDEST SWAP2 POP POP SWAP3 POP SWAP3 POP SWAP3 JUMP JUMPDEST PUSH2 0x14EA DUP2 PUSH2 0x1458 JUMP JUMPDEST DUP3 MSTORE POP POP JUMP JUMPDEST PUSH1 0x0 PUSH1 0x20 DUP3 ADD SWAP1 POP PUSH2 0x1505 PUSH1 0x0 DUP4 ADD DUP5 PUSH2 0x14E1 JUMP JUMPDEST SWAP3 SWAP2 POP POP JUMP JUMPDEST PUSH1 0x0 DUP1 REVERT JUMPDEST PUSH1 0x0 PUSH1 0x1F NOT PUSH1 0x1F DUP4 ADD AND SWAP1 POP SWAP2 SWAP1 POP JUMP JUMPDEST PUSH32 0x4E487B7100000000000000000000000000000000000000000000000000000000 PUSH1 0x0 MSTORE PUSH1 0x41 PUSH1 0x4 MSTORE PUSH1 0x24 PUSH1 0x0 REVERT JUMPDEST PUSH2 0x1559 DUP3 PUSH2 0x1510 JUMP JUMPDEST DUP2 ADD DUP2 DUP2 LT PUSH8 0xFFFFFFFFFFFFFFFF DUP3 GT OR ISZERO PUSH2 0x1578 JUMPI PUSH2 0x1577 PUSH2 0x1521 JUMP JUMPDEST JUMPDEST DUP1 PUSH1 0x40 MSTORE POP POP POP JUMP JUMPDEST PUSH1 0x0 PUSH2 0x158B PUSH2 0x1444 JUMP JUMPDEST SWAP1 POP PUSH2 0x1597 DUP3 DUP3 PUSH2 0x1550 JUMP JUMPDEST SWAP2 SWAP1 POP JUMP JUMPDEST PUSH1 0x0 PUSH8 0xFFFFFFFFFFFFFFFF DUP3 GT ISZERO PUSH2 0x15B7 JUMPI PUSH2 0x15B6 PUSH2 0x1521 JUMP JUMPDEST JUMPDEST PUSH1 0x20 DUP3 MUL SWAP1 POP PUSH1 0x20 DUP2 ADD SWAP1 POP SWAP2 SWAP1 POP JUMP JUMPDEST PUSH1 0x0 DUP1 REVERT JUMPDEST PUSH1 0x0 PUSH20 0xFFFFFFFFFFFFFFFFFFFFFFFFFFFFFFFFFFFFFFFF DUP3 AND SWAP1 POP SWAP2 SWAP1 POP JUMP JUMPDEST PUSH1 0x0 PUSH2 0x15F8 DUP3 PUSH2 0x15CD JUMP JUMPDEST SWAP1 POP SWAP2 SWAP1 POP JUMP JUMPDEST PUSH2 0x1608 DUP2 PUSH2 0x15ED JUMP JUMPDEST DUP2 EQ PUSH2 0x1613 JUMPI PUSH1 0x0 DUP1 REVERT JUMPDEST POP JUMP JUMPDEST PUSH1 0x0 DUP2 CALLDATALOAD SWAP1 POP PUSH2 0x1625 DUP2 PUSH2 0x15FF JUMP JUMPDEST SWAP3 SWAP2 POP POP JUMP JUMPDEST PUSH1 0x0 PUSH2 0x163E PUSH2 0x1639 DUP5 PUSH2 0x159C JUMP JUMPDEST PUSH2 0x1581 JUMP JUMPDEST SWAP1 POP DUP1 DUP4 DUP3 MSTORE PUSH1 0x20 DUP3 ADD SWAP1 POP PUSH1 0x20 DUP5 MUL DUP4 ADD DUP6 DUP2 GT ISZERO PUSH2 0x1661 JUMPI PUSH2 0x1660 PUSH2 0x15C8 JUMP JUMPDEST JUMPDEST DUP4 JUMPDEST DUP2 DUP2 LT ISZERO PUSH2 0x168A JUMPI DUP1 PUSH2 0x1676 DUP9 DUP3 PUSH2 0x1616 JUMP JUMPDEST DUP5 MSTORE PUSH1 0x20 DUP5 ADD SWAP4 POP POP PUSH1 0x20 DUP2 ADD SWAP1 POP PUSH2 0x1663 JUMP JUMPDEST POP POP POP SWAP4 SWAP3 POP POP POP JUMP JUMPDEST PUSH1 0x0 DUP3 PUSH1 0x1F DUP4 ADD SLT PUSH2 0x16A9 JUMPI PUSH2 0x16A8 PUSH2 0x150B JUMP JUMPDEST JUMPDEST DUP2 CALLDATALOAD PUSH2 0x16B9 DUP5 DUP3 PUSH1 0x20 DUP7 ADD PUSH2 0x162B JUMP JUMPDEST SWAP2 POP POP SWAP3 SWAP2 POP POP JUMP JUMPDEST PUSH1 0x0 DUP1 PUSH1 0x40 DUP4 DUP6 SUB SLT ISZERO PUSH2 0x16D9 JUMPI PUSH2 0x16D8 PUSH2 0x144E JUMP JUMPDEST JUMPDEST PUSH1 0x0 PUSH2 0x16E7 DUP6 DUP3 DUP7 ADD PUSH2 0x1479 JUMP JUMPDEST SWAP3 POP POP PUSH1 0x20 DUP4 ADD CALLDATALOAD PUSH8 0xFFFFFFFFFFFFFFFF DUP2 GT ISZERO PUSH2 0x1708 JUMPI PUSH2 0x1707 PUSH2 0x1453 JUMP JUMPDEST JUMPDEST PUSH2 0x1714 DUP6 DUP3 DUP7 ADD PUSH2 0x1694 JUMP JUMPDEST SWAP2 POP POP SWAP3 POP SWAP3 SWAP1 POP JUMP JUMPDEST PUSH1 0x0 DUP2 MLOAD SWAP1 POP SWAP2 SWAP1 POP JUMP JUMPDEST PUSH1 0x0 DUP3 DUP3 MSTORE PUSH1 0x20 DUP3 ADD SWAP1 POP SWAP3 SWAP2 POP POP JUMP JUMPDEST PUSH1 0x0 DUP2 SWAP1 POP PUSH1 0x20 DUP3 ADD SWAP1 POP SWAP2 SWAP1 POP JUMP JUMPDEST PUSH2 0x1753 DUP2 PUSH2 0x1458 JUMP JUMPDEST DUP3 MSTORE POP POP JUMP JUMPDEST PUSH1 0x0 PUSH2 0x1765 DUP4 DUP4 PUSH2 0x174A JUMP JUMPDEST PUSH1 0x20 DUP4 ADD SWAP1 POP SWAP3 SWAP2 POP POP JUMP JUMPDEST PUSH1 0x0 PUSH1 0x20 DUP3 ADD SWAP1 POP SWAP2 SWAP1 POP JUMP JUMPDEST PUSH1 0x0 PUSH2 0x1789 DUP3 PUSH2 0x171E JUMP JUMPDEST PUSH2 0x1793 DUP2 DUP6 PUSH2 0x1729 JUMP JUMPDEST SWAP4 POP PUSH2 0x179E DUP4 PUSH2 0x173A JUMP JUMPDEST DUP1 PUSH1 0x0 JUMPDEST DUP4 DUP2 LT ISZERO PUSH2 0x17CF JUMPI DUP2 MLOAD PUSH2 0x17B6 DUP9 DUP3 PUSH2 0x1759 JUMP JUMPDEST SWAP8 POP PUSH2 0x17C1 DUP4 PUSH2 0x1771 JUMP JUMPDEST SWAP3 POP POP PUSH1 0x1 DUP2 ADD SWAP1 POP PUSH2 0x17A2 JUMP JUMPDEST POP DUP6 SWAP4 POP POP POP POP SWAP3 SWAP2 POP POP JUMP JUMPDEST PUSH1 0x0 PUSH1 0x20 DUP3 ADD SWAP1 POP DUP2 DUP2 SUB PUSH1 0x0 DUP4 ADD MSTORE PUSH2 0x17F6 DUP2 DUP5 PUSH2 0x177E JUMP JUMPDEST SWAP1 POP SWAP3 SWAP2 POP POP JUMP JUMPDEST PUSH1 0x0 DUP1 REVERT JUMPDEST PUSH1 0x0 DUP1 DUP4 PUSH1 0x1F DUP5 ADD SLT PUSH2 0x1819 JUMPI PUSH2 0x1818 PUSH2 0x150B JUMP JUMPDEST JUMPDEST DUP3 CALLDATALOAD SWAP1 POP PUSH8 0xFFFFFFFFFFFFFFFF DUP2 GT ISZERO PUSH2 0x1836 JUMPI PUSH2 0x1835 PUSH2 0x17FE JUMP JUMPDEST JUMPDEST PUSH1 0x20 DUP4 ADD SWAP2 POP DUP4 PUSH1 0x20 DUP3 MUL DUP4 ADD GT ISZERO PUSH2 0x1852 JUMPI PUSH2 0x1851 PUSH2 0x15C8 JUMP JUMPDEST JUMPDEST SWAP3 POP SWAP3 SWAP1 POP JUMP JUMPDEST PUSH1 0x0 DUP1 PUSH1 0x0 DUP1 PUSH1 0x0 PUSH1 0x80 DUP7 DUP9 SUB SLT ISZERO PUSH2 0x1875 JUMPI PUSH2 0x1874 PUSH2 0x144E JUMP JUMPDEST JUMPDEST PUSH1 0x0 PUSH2 0x1883 DUP9 DUP3 DUP10 ADD PUSH2 0x1479 JUMP JUMPDEST SWAP6 POP POP PUSH1 0x20 PUSH2 0x1894 DUP9 DUP3 DUP10 ADD PUSH2 0x1479 JUMP JUMPDEST SWAP5 POP POP PUSH1 0x40 DUP7 ADD CALLDATALOAD PUSH8 0xFFFFFFFFFFFFFFFF DUP2 GT ISZERO PUSH2 0x18B5 JUMPI PUSH2 0x18B4 PUSH2 0x1453 JUMP JUMPDEST JUMPDEST PUSH2 0x18C1 DUP9 DUP3 DUP10 ADD PUSH2 0x1803 JUMP JUMPDEST SWAP4 POP SWAP4 POP POP PUSH1 0x60 PUSH2 0x18D4 DUP9 DUP3 DUP10 ADD PUSH2 0x1616 JUMP JUMPDEST SWAP2 POP POP SWAP3 SWAP6 POP SWAP3 SWAP6 SWAP1 SWAP4 POP JUMP JUMPDEST PUSH1 0x0 DUP1 PUSH1 0x0 DUP1 PUSH1 0x0 DUP1 PUSH1 0xC0 DUP8 DUP10 SUB SLT ISZERO PUSH2 0x18FE JUMPI PUSH2 0x18FD PUSH2 0x144E JUMP JUMPDEST JUMPDEST PUSH1 0x0 PUSH2 0x190C DUP10 DUP3 DUP11 ADD PUSH2 0x1616 JUMP JUMPDEST SWAP7 POP POP PUSH1 0x20 PUSH2 0x191D DUP10 DUP3 DUP11 ADD PUSH2 0x1616 JUMP JUMPDEST SWAP6 POP POP PUSH1 0x40 PUSH2 0x192E DUP10 DUP3 DUP11 ADD PUSH2 0x1479 JUMP JUMPDEST SWAP5 POP POP PUSH1 0x60 PUSH2 0x193F DUP10 DUP3 DUP11 ADD PUSH2 0x1479 JUMP JUMPDEST SWAP4 POP POP PUSH1 0x80 PUSH2 0x1950 DUP10 DUP3 DUP11 ADD PUSH2 0x1479 JUMP JUMPDEST SWAP3 POP POP PUSH1 0xA0 PUSH2 0x1961 DUP10 DUP3 DUP11 ADD PUSH2 0x1616 JUMP JUMPDEST SWAP2 POP POP SWAP3 SWAP6 POP SWAP3 SWAP6 POP SWAP3 SWAP6 JUMP JUMPDEST PUSH1 0x0 PUSH1 0x40 DUP3 ADD SWAP1 POP PUSH2 0x1983 PUSH1 0x0 DUP4 ADD DUP6 PUSH2 0x14E1 JUMP JUMPDEST PUSH2 0x1990 PUSH1 0x20 DUP4 ADD DUP5 PUSH2 0x14E1 JUMP JUMPDEST SWAP4 SWAP3 POP POP POP JUMP JUMPDEST PUSH1 0x0 DUP1 PUSH1 0x0 DUP1 PUSH1 0x0 DUP1 PUSH1 0x0 PUSH1 0xE0 DUP9 DUP11 SUB SLT ISZERO PUSH2 0x19B6 JUMPI PUSH2 0x19B5 PUSH2 0x144E JUMP JUMPDEST JUMPDEST PUSH1 0x0 PUSH2 0x19C4 DUP11 DUP3 DUP12 ADD PUSH2 0x1616 JUMP JUMPDEST SWAP8 POP POP PUSH1 0x20 PUSH2 0x19D5 DUP11 DUP3 DUP12 ADD PUSH2 0x1616 JUMP JUMPDEST SWAP7 POP POP PUSH1 0x40 PUSH2 0x19E6 DUP11 DUP3 DUP12 ADD PUSH2 0x1479 JUMP JUMPDEST SWAP6 POP POP PUSH1 0x60 PUSH2 0x19F7 DUP11 DUP3 DUP12 ADD PUSH2 0x1479 JUMP JUMPDEST SWAP5 POP POP PUSH1 0x80 PUSH2 0x1A08 DUP11 DUP3 DUP12 ADD PUSH2 0x1479 JUMP JUMPDEST SWAP4 POP POP PUSH1 0xA0 PUSH2 0x1A19 DUP11 DUP3 DUP12 ADD PUSH2 0x1479 JUMP JUMPDEST SWAP3 POP POP PUSH1 0xC0 PUSH2 0x1A2A DUP11 DUP3 DUP12 ADD PUSH2 0x1616 JUMP JUMPDEST SWAP2 POP POP SWAP3 SWAP6 SWAP9 SWAP2 SWAP5 SWAP8 POP SWAP3 SWAP6 POP JUMP JUMPDEST PUSH1 0x0 PUSH1 0x60 DUP3 ADD SWAP1 POP PUSH2 0x1A4E PUSH1 0x0 DUP4 ADD DUP7 PUSH2 0x14E1 JUMP JUMPDEST PUSH2 0x1A5B PUSH1 0x20 DUP4 ADD DUP6 PUSH2 0x14E1 JUMP JUMPDEST PUSH2 0x1A68 PUSH1 0x40 DUP4 ADD DUP5 PUSH2 0x14E1 JUMP JUMPDEST SWAP5 SWAP4 POP POP POP POP JUMP JUMPDEST PUSH2 0x1A79 DUP2 PUSH2 0x1458 JUMP JUMPDEST DUP3 MSTORE POP POP JUMP JUMPDEST PUSH1 0x0 PUSH1 0x60 DUP3 ADD SWAP1 POP PUSH2 0x1A94 PUSH1 0x0 DUP4 ADD DUP7 PUSH2 0x1A70 JUMP JUMPDEST PUSH2 0x1AA1 PUSH1 0x20 DUP4 ADD DUP6 PUSH2 0x1A70 JUMP JUMPDEST PUSH2 0x1AAE PUSH1 0x40 DUP4 ADD DUP5 PUSH2 0x1A70 JUMP JUMPDEST SWAP5 SWAP4 POP POP POP POP JUMP JUMPDEST PUSH1 0x0 DUP2 MLOAD SWAP1 POP PUSH2 0x1AC5 DUP2 PUSH2 0x1462 JUMP JUMPDEST SWAP3 SWAP2 POP POP JUMP JUMPDEST PUSH1 0x0 PUSH1 0x20 DUP3 DUP5 SUB SLT ISZERO PUSH2 0x1AE1 JUMPI PUSH2 0x1AE0 PUSH2 0x144E JUMP JUMPDEST JUMPDEST PUSH1 0x0 PUSH2 0x1AEF DUP5 DUP3 DUP6 ADD PUSH2 0x1AB6 JUMP JUMPDEST SWAP2 POP POP SWAP3 SWAP2 POP POP JUMP JUMPDEST PUSH2 0x1B01 DUP2 PUSH2 0x15ED JUMP JUMPDEST DUP3 MSTORE POP POP JUMP JUMPDEST PUSH1 0x0 DUP2 MLOAD SWAP1 POP SWAP2 SWAP1 POP JUMP JUMPDEST PUSH1 0x0 DUP3 DUP3 MSTORE PUSH1 0x20 DUP3 ADD SWAP1 POP SWAP3 SWAP2 POP POP JUMP JUMPDEST PUSH1 0x0 DUP2 SWAP1 POP PUSH1 0x20 DUP3 ADD SWAP1 POP SWAP2 SWAP1 POP JUMP JUMPDEST PUSH2 0x1B3C DUP2 PUSH2 0x15ED JUMP JUMPDEST DUP3 MSTORE POP POP JUMP JUMPDEST PUSH1 0x0 PUSH2 0x1B4E DUP4 DUP4 PUSH2 0x1B33 JUMP JUMPDEST PUSH1 0x20 DUP4 ADD SWAP1 POP SWAP3 SWAP2 POP POP JUMP JUMPDEST PUSH1 0x0 PUSH1 0x20 DUP3 ADD SWAP1 POP SWAP2 SWAP1 POP JUMP JUMPDEST PUSH1 0x0 PUSH2 0x1B72 DUP3 PUSH2 0x1B07 JUMP JUMPDEST PUSH2 0x1B7C DUP2 DUP6 PUSH2 0x1B12 JUMP JUMPDEST SWAP4 POP PUSH2 0x1B87 DUP4 PUSH2 0x1B23 JUMP JUMPDEST DUP1 PUSH1 0x0 JUMPDEST DUP4 DUP2 LT ISZERO PUSH2 0x1BB8 JUMPI DUP2 MLOAD PUSH2 0x1B9F DUP9 DUP3 PUSH2 0x1B42 JUMP JUMPDEST SWAP8 POP PUSH2 0x1BAA DUP4 PUSH2 0x1B5A JUMP JUMPDEST SWAP3 POP POP PUSH1 0x1 DUP2 ADD SWAP1 POP PUSH2 0x1B8B JUMP JUMPDEST POP DUP6 SWAP4 POP POP POP POP SWAP3 SWAP2 POP POP JUMP JUMPDEST PUSH1 0x0 PUSH1 0x60 DUP3 ADD SWAP1 POP PUSH2 0x1BDA PUSH1 0x0 DUP4 ADD DUP7 PUSH2 0x1AF8 JUMP JUMPDEST PUSH2 0x1BE7 PUSH1 0x20 DUP4 ADD DUP6 PUSH2 0x1A70 JUMP JUMPDEST DUP2 DUP2 SUB PUSH1 0x40 DUP4 ADD MSTORE PUSH2 0x1BF9 DUP2 DUP5 PUSH2 0x1B67 JUMP JUMPDEST SWAP1 POP SWAP5 SWAP4 POP POP POP POP JUMP JUMPDEST PUSH1 0x0 PUSH8 0xFFFFFFFFFFFFFFFF DUP3 GT ISZERO PUSH2 0x1C1E JUMPI PUSH2 0x1C1D PUSH2 0x1521 JUMP JUMPDEST JUMPDEST PUSH1 0x20 DUP3 MUL SWAP1 POP PUSH1 0x20 DUP2 ADD SWAP1 POP SWAP2 SWAP1 POP JUMP JUMPDEST PUSH1 0x0 PUSH2 0x1C42 PUSH2 0x1C3D DUP5 PUSH2 0x1C03 JUMP JUMPDEST PUSH2 0x1581 JUMP JUMPDEST SWAP1 POP DUP1 DUP4 DUP3 MSTORE PUSH1 0x20 DUP3 ADD SWAP1 POP PUSH1 0x20 DUP5 MUL DUP4 ADD DUP6 DUP2 GT ISZERO PUSH2 0x1C65 JUMPI PUSH2 0x1C64 PUSH2 0x15C8 JUMP JUMPDEST JUMPDEST DUP4 JUMPDEST DUP2 DUP2 LT ISZERO PUSH2 0x1C8E JUMPI DUP1 PUSH2 0x1C7A DUP9 DUP3 PUSH2 0x1AB6 JUMP JUMPDEST DUP5 MSTORE PUSH1 0x20 DUP5 ADD SWAP4 POP POP PUSH1 0x20 DUP2 ADD SWAP1 POP PUSH2 0x1C67 JUMP JUMPDEST POP POP POP SWAP4 SWAP3 POP POP POP JUMP JUMPDEST PUSH1 0x0 DUP3 PUSH1 0x1F DUP4 ADD SLT PUSH2 0x1CAD JUMPI PUSH2 0x1CAC PUSH2 0x150B JUMP JUMPDEST JUMPDEST DUP2 MLOAD PUSH2 0x1CBD DUP5 DUP3 PUSH1 0x20 DUP7 ADD PUSH2 0x1C2F JUMP JUMPDEST SWAP2 POP POP SWAP3 SWAP2 POP POP JUMP JUMPDEST PUSH1 0x0 PUSH1 0x20 DUP3 DUP5 SUB SLT ISZERO PUSH2 0x1CDC JUMPI PUSH2 0x1CDB PUSH2 0x144E JUMP JUMPDEST JUMPDEST PUSH1 0x0 DUP3 ADD MLOAD PUSH8 0xFFFFFFFFFFFFFFFF DUP2 GT ISZERO PUSH2 0x1CFA JUMPI PUSH2 0x1CF9 PUSH2 0x1453 JUMP JUMPDEST JUMPDEST PUSH2 0x1D06 DUP5 DUP3 DUP6 ADD PUSH2 0x1C98 JUMP JUMPDEST SWAP2 POP POP SWAP3 SWAP2 POP POP JUMP JUMPDEST PUSH1 0x0 DUP2 SWAP1 POP SWAP2 SWAP1 POP JUMP JUMPDEST PUSH1 0x0 PUSH2 0x1D28 PUSH1 0x20 DUP5 ADD DUP5 PUSH2 0x1616 JUMP JUMPDEST SWAP1 POP SWAP3 SWAP2 POP POP JUMP JUMPDEST PUSH1 0x0 PUSH1 0x20 DUP3 ADD SWAP1 POP SWAP2 SWAP1 POP JUMP JUMPDEST PUSH1 0x0 PUSH2 0x1D49 DUP4 DUP6 PUSH2 0x1B12 JUMP JUMPDEST SWAP4 POP PUSH2 0x1D54 DUP3 PUSH2 0x1D0F JUMP JUMPDEST DUP1 PUSH1 0x0 JUMPDEST DUP6 DUP2 LT ISZERO PUSH2 0x1D8D JUMPI PUSH2 0x1D6A DUP3 DUP5 PUSH2 0x1D19 JUMP JUMPDEST PUSH2 0x1D74 DUP9 DUP3 PUSH2 0x1B42 JUMP JUMPDEST SWAP8 POP PUSH2 0x1D7F DUP4 PUSH2 0x1D30 JUMP JUMPDEST SWAP3 POP POP PUSH1 0x1 DUP2 ADD SWAP1 POP PUSH2 0x1D58 JUMP JUMPDEST POP DUP6 SWAP3 POP POP POP SWAP4 SWAP3 POP POP POP JUMP JUMPDEST PUSH1 0x0 PUSH1 0x60 DUP3 ADD SWAP1 POP PUSH2 0x1DAF PUSH1 0x0 DUP4 ADD DUP8 PUSH2 0x1AF8 JUMP JUMPDEST PUSH2 0x1DBC PUSH1 0x20 DUP4 ADD DUP7 PUSH2 0x1A70 JUMP JUMPDEST DUP2 DUP2 SUB PUSH1 0x40 DUP4 ADD MSTORE PUSH2 0x1DCF DUP2 DUP5 DUP7 PUSH2 0x1D3D JUMP JUMPDEST SWAP1 POP SWAP6 SWAP5 POP POP POP POP POP JUMP JUMPDEST PUSH32 0x4E487B7100000000000000000000000000000000000000000000000000000000 PUSH1 0x0 MSTORE PUSH1 0x11 PUSH1 0x4 MSTORE PUSH1 0x24 PUSH1 0x0 REVERT JUMPDEST PUSH1 0x0 PUSH2 0x1E14 DUP3 PUSH2 0x1458 JUMP JUMPDEST SWAP2 POP PUSH2 0x1E1F DUP4 PUSH2 0x1458 JUMP JUMPDEST SWAP3 POP DUP3 DUP3 LT ISZERO PUSH2 0x1E32 JUMPI PUSH2 0x1E31 PUSH2 0x1DDA JUMP JUMPDEST JUMPDEST DUP3 DUP3 SUB SWAP1 POP SWAP3 SWAP2 POP POP JUMP JUMPDEST PUSH32 0x4E487B7100000000000000000000000000000000000000000000000000000000 PUSH1 0x0 MSTORE PUSH1 0x32 PUSH1 0x4 MSTORE PUSH1 0x24 PUSH1 0x0 REVERT JUMPDEST PUSH1 0x0 PUSH1 0x20 DUP3 DUP5 SUB SLT ISZERO PUSH2 0x1E82 JUMPI PUSH2 0x1E81 PUSH2 0x144E JUMP JUMPDEST JUMPDEST PUSH1 0x0 PUSH2 0x1E90 DUP5 DUP3 DUP6 ADD PUSH2 0x1616 JUMP JUMPDEST SWAP2 POP POP SWAP3 SWAP2 POP POP JUMP JUMPDEST PUSH2 0x1EA2 DUP2 PUSH2 0x15ED JUMP JUMPDEST DUP3 MSTORE POP POP JUMP JUMPDEST PUSH1 0x0 PUSH1 0x60 DUP3 ADD SWAP1 POP PUSH2 0x1EBD PUSH1 0x0 DUP4 ADD DUP7 PUSH2 0x1E99 JUMP JUMPDEST PUSH2 0x1ECA PUSH1 0x20 DUP4 ADD DUP6 PUSH2 0x1E99 JUMP JUMPDEST PUSH2 0x1ED7 PUSH1 0x40 DUP4 ADD DUP5 PUSH2 0x14E1 JUMP JUMPDEST SWAP5 SWAP4 POP POP POP POP JUMP JUMPDEST PUSH1 0x0 DUP2 ISZERO ISZERO SWAP1 POP SWAP2 SWAP1 POP JUMP JUMPDEST PUSH2 0x1EF4 DUP2 PUSH2 0x1EDF JUMP JUMPDEST DUP2 EQ PUSH2 0x1EFF JUMPI PUSH1 0x0 DUP1 REVERT JUMPDEST POP JUMP JUMPDEST PUSH1 0x0 DUP2 MLOAD SWAP1 POP PUSH2 0x1F11 DUP2 PUSH2 0x1EEB JUMP JUMPDEST SWAP3 SWAP2 POP POP JUMP JUMPDEST PUSH1 0x0 PUSH1 0x20 DUP3 DUP5 SUB SLT ISZERO PUSH2 0x1F2D JUMPI PUSH2 0x1F2C PUSH2 0x144E JUMP JUMPDEST JUMPDEST PUSH1 0x0 PUSH2 0x1F3B DUP5 DUP3 DUP6 ADD PUSH2 0x1F02 JUMP JUMPDEST SWAP2 POP POP SWAP3 SWAP2 POP POP JUMP JUMPDEST PUSH1 0x0 PUSH1 0x20 DUP3 ADD SWAP1 POP PUSH2 0x1F59 PUSH1 0x0 DUP4 ADD DUP5 PUSH2 0x1E99 JUMP JUMPDEST SWAP3 SWAP2 POP POP JUMP JUMPDEST PUSH1 0x0 DUP1 PUSH1 0x40 DUP4 DUP6 SUB SLT ISZERO PUSH2 0x1F76 JUMPI PUSH2 0x1F75 PUSH2 0x144E JUMP JUMPDEST JUMPDEST PUSH1 0x0 PUSH2 0x1F84 DUP6 DUP3 DUP7 ADD PUSH2 0x1AB6 JUMP JUMPDEST SWAP3 POP POP PUSH1 0x20 PUSH2 0x1F95 DUP6 DUP3 DUP7 ADD PUSH2 0x1AB6 JUMP JUMPDEST SWAP2 POP POP SWAP3 POP SWAP3 SWAP1 POP JUMP JUMPDEST PUSH1 0x0 PUSH1 0x40 DUP3 ADD SWAP1 POP PUSH2 0x1FB4 PUSH1 0x0 DUP4 ADD DUP6 PUSH2 0x1E99 JUMP JUMPDEST PUSH2 0x1FC1 PUSH1 0x20 DUP4 ADD DUP5 PUSH2 0x1E99 JUMP JUMPDEST SWAP4 SWAP3 POP POP POP JUMP JUMPDEST PUSH1 0x0 DUP2 MLOAD SWAP1 POP PUSH2 0x1FD7 DUP2 PUSH2 0x15FF JUMP JUMPDEST SWAP3 SWAP2 POP POP JUMP JUMPDEST PUSH1 0x0 PUSH1 0x20 DUP3 DUP5 SUB SLT ISZERO PUSH2 0x1FF3 JUMPI PUSH2 0x1FF2 PUSH2 0x144E JUMP JUMPDEST JUMPDEST PUSH1 0x0 PUSH2 0x2001 DUP5 DUP3 DUP6 ADD PUSH2 0x1FC8 JUMP JUMPDEST SWAP2 POP POP SWAP3 SWAP2 POP POP JUMP JUMPDEST PUSH1 0x0 DUP2 PUSH1 0x60 SHL SWAP1 POP SWAP2 SWAP1 POP JUMP JUMPDEST PUSH1 0x0 PUSH2 0x2022 DUP3 PUSH2 0x200A JUMP JUMPDEST SWAP1 POP SWAP2 SWAP1 POP JUMP JUMPDEST PUSH1 0x0 PUSH2 0x2034 DUP3 PUSH2 0x2017 JUMP JUMPDEST SWAP1 POP SWAP2 SWAP1 POP JUMP JUMPDEST PUSH2 0x204C PUSH2 0x2047 DUP3 PUSH2 0x15ED JUMP JUMPDEST PUSH2 0x2029 JUMP JUMPDEST DUP3 MSTORE POP POP JUMP JUMPDEST PUSH1 0x0 PUSH2 0x205E DUP3 DUP6 PUSH2 0x203B JUMP JUMPDEST PUSH1 0x14 DUP3 ADD SWAP2 POP PUSH2 0x206E DUP3 DUP5 PUSH2 0x203B JUMP JUMPDEST PUSH1 0x14 DUP3 ADD SWAP2 POP DUP2 SWAP1 POP SWAP4 SWAP3 POP POP POP JUMP JUMPDEST PUSH1 0x0 DUP2 SWAP1 POP SWAP3 SWAP2 POP POP JUMP JUMPDEST PUSH32 0xFF00000000000000000000000000000000000000000000000000000000000000 PUSH1 0x0 DUP3 ADD MSTORE POP JUMP JUMPDEST PUSH1 0x0 PUSH2 0x20BF PUSH1 0x1 DUP4 PUSH2 0x207E JUMP JUMPDEST SWAP2 POP PUSH2 0x20CA DUP3 PUSH2 0x2089 JUMP JUMPDEST PUSH1 0x1 DUP3 ADD SWAP1 POP SWAP2 SWAP1 POP JUMP JUMPDEST PUSH1 0x0 DUP2 SWAP1 POP SWAP2 SWAP1 POP JUMP JUMPDEST PUSH1 0x0 DUP2 SWAP1 POP SWAP2 SWAP1 POP JUMP JUMPDEST PUSH2 0x20FA PUSH2 0x20F5 DUP3 PUSH2 0x20D5 JUMP JUMPDEST PUSH2 0x20DF JUMP JUMPDEST DUP3 MSTORE POP POP JUMP JUMPDEST PUSH32 0xAB66B891387A046B7FEFCA26F19F061E1CED0309D8009FC43808C517EAEC6917 PUSH1 0x0 DUP3 ADD MSTORE POP JUMP JUMPDEST PUSH1 0x0 PUSH2 0x2136 PUSH1 0x20 DUP4 PUSH2 0x207E JUMP JUMPDEST SWAP2 POP PUSH2 0x2141 DUP3 PUSH2 0x2100 JUMP JUMPDEST PUSH1 0x20 DUP3 ADD SWAP1 POP SWAP2 SWAP1 POP JUMP JUMPDEST PUSH1 0x0 PUSH2 0x2157 DUP3 PUSH2 0x20B2 JUMP JUMPDEST SWAP2 POP PUSH2 0x2163 DUP3 DUP6 PUSH2 0x203B JUMP JUMPDEST PUSH1 0x14 DUP3 ADD SWAP2 POP PUSH2 0x2173 DUP3 DUP5 PUSH2 0x20E9 JUMP JUMPDEST PUSH1 0x20 DUP3 ADD SWAP2 POP PUSH2 0x2182 DUP3 PUSH2 0x2129 JUMP JUMPDEST SWAP2 POP DUP2 SWAP1 POP SWAP4 SWAP3 POP POP POP JUMP JUMPDEST PUSH1 0x0 DUP2 MLOAD SWAP1 POP SWAP2 SWAP1 POP JUMP JUMPDEST PUSH1 0x0 DUP2 SWAP1 POP SWAP3 SWAP2 POP POP JUMP JUMPDEST PUSH1 0x0 JUMPDEST DUP4 DUP2 LT ISZERO PUSH2 0x21C2 JUMPI DUP1 DUP3 ADD MLOAD DUP2 DUP5 ADD MSTORE PUSH1 0x20 DUP2 ADD SWAP1 POP PUSH2 0x21A7 JUMP JUMPDEST DUP4 DUP2 GT ISZERO PUSH2 0x21D1 JUMPI PUSH1 0x0 DUP5 DUP5 ADD MSTORE JUMPDEST POP POP POP POP JUMP JUMPDEST PUSH1 0x0 PUSH2 0x21E2 DUP3 PUSH2 0x218E JUMP JUMPDEST PUSH2 0x21EC DUP2 DUP6 PUSH2 0x2199 JUMP JUMPDEST SWAP4 POP PUSH2 0x21FC DUP2 DUP6 PUSH1 0x20 DUP7 ADD PUSH2 0x21A4 JUMP JUMPDEST DUP1 DUP5 ADD SWAP2 POP POP SWAP3 SWAP2 POP POP JUMP JUMPDEST PUSH1 0x0 PUSH2 0x2214 DUP3 DUP5 PUSH2 0x21D7 JUMP JUMPDEST SWAP2 POP DUP2 SWAP1 POP SWAP3 SWAP2 POP POP JUMP JUMPDEST PUSH1 0x0 PUSH2 0x222A DUP3 PUSH2 0x1458 JUMP JUMPDEST SWAP2 POP PUSH2 0x2235 DUP4 PUSH2 0x1458 JUMP JUMPDEST SWAP3 POP DUP3 PUSH32 0xFFFFFFFFFFFFFFFFFFFFFFFFFFFFFFFFFFFFFFFFFFFFFFFFFFFFFFFFFFFFFFFF SUB DUP3 GT ISZERO PUSH2 0x226A JUMPI PUSH2 0x2269 PUSH2 0x1DDA JUMP JUMPDEST JUMPDEST DUP3 DUP3 ADD SWAP1 POP SWAP3 SWAP2 POP POP JUMP JUMPDEST PUSH1 0x0 PUSH1 0x60 DUP3 ADD SWAP1 POP PUSH2 0x228A PUSH1 0x0 DUP4 ADD DUP7 PUSH2 0x14E1 JUMP JUMPDEST PUSH2 0x2297 PUSH1 0x20 DUP4 ADD DUP6 PUSH2 0x14E1 JUMP JUMPDEST PUSH2 0x22A4 PUSH1 0x40 DUP4 ADD DUP5 PUSH2 0x1E99 JUMP JUMPDEST SWAP5 SWAP4 POP POP POP POP JUMP JUMPDEST PUSH1 0x0 PUSH2 0x22B7 DUP3 PUSH2 0x1458 JUMP JUMPDEST SWAP2 POP PUSH32 0xFFFFFFFFFFFFFFFFFFFFFFFFFFFFFFFFFFFFFFFFFFFFFFFFFFFFFFFFFFFFFFFF DUP3 EQ ISZERO PUSH2 0x22EA JUMPI PUSH2 0x22E9 PUSH2 0x1DDA JUMP JUMPDEST JUMPDEST PUSH1 0x1 DUP3 ADD SWAP1 POP SWAP2 SWAP1 POP JUMP JUMPDEST PUSH1 0x0 PUSH1 0x60 DUP3 ADD SWAP1 POP PUSH2 0x230A PUSH1 0x0 DUP4 ADD DUP7 PUSH2 0x1AF8 JUMP JUMPDEST PUSH2 0x2317 PUSH1 0x20 DUP4 ADD DUP6 PUSH2 0x1AF8 JUMP JUMPDEST PUSH2 0x2324 PUSH1 0x40 DUP4 ADD DUP5 PUSH2 0x1AF8 JUMP JUMPDEST SWAP5 SWAP4 POP POP POP POP JUMP JUMPDEST PUSH32 0x4E487B7100000000000000000000000000000000000000000000000000000000 PUSH1 0x0 MSTORE PUSH1 0x1 PUSH1 0x4 MSTORE PUSH1 0x24 PUSH1 0x0 REVERT INVALID LOG2 PUSH5 0x6970667358 0x22 SLT KECCAK256 GASLIMIT PUSH16 0x3956A3D7C7E55E887153868D37962FCB 0xE4 0xD1 SWAP14 PUSH18 0xF9D6FD7519B99FE8407364736F6C63430008 EXP STOP CALLER "
				},
				"gasEstimates": {
					"creation": {
						"codeDepositCost": "1821000",
						"executionCost": "infinite",
						"totalCost": "infinite"
					},
					"external": {
						"addLiquidity(address,address,uint256,uint256,uint256,uint256,address)": "infinite",
						"getAmountIn(uint256,uint256,uint256)": "infinite",
						"getAmountOut(uint256,uint256,uint256)": "infinite",
						"getAmountsIn(uint256,address[])": "infinite",
						"getAmountsOut(uint256,address[])": "infinite",
						"quote(uint256,uint256,uint256)": "infinite",
						"removeLiquidity(address,address,uint256,uint256,uint256,address)": "infinite",
						"swapExactTokensForTokens(uint256,uint256,address[],address)": "infinite",
						"swapTokensForExactTokens(uint256,uint256,address[],address)": "infinite"
					},
					"internal": {
						"_calculateLiquidity(address,address,uint256,uint256,uint256,uint256)": "infinite",
						"_safeTransferFrom(address,address,address,uint256)": "infinite",
						"_swap(uint256[] memory,address[] memory,address)": "infinite"
					}
				},
				"methodIdentifiers": {
					"addLiquidity(address,address,uint256,uint256,uint256,uint256,address)": "ca3d6539",
					"getAmountIn(uint256,uint256,uint256)": "85f8c259",
					"getAmountOut(uint256,uint256,uint256)": "054d50d4",
					"getAmountsIn(uint256,address[])": "1f00ca74",
					"getAmountsOut(uint256,address[])": "d06ca61f",
					"quote(uint256,uint256,uint256)": "ad615dec",
					"removeLiquidity(address,address,uint256,uint256,uint256,address)": "c0e3ee6b",
					"swapExactTokensForTokens(uint256,uint256,address[],address)": "472b43f3",
					"swapTokensForExactTokens(uint256,uint256,address[],address)": "42712a67"
				}
			},
			"storageLayout": {
				"storage": [
					{
						"astId": 474,
						"contract": "contracts/KajuswapRouter.sol:KajuswapRouter",
						"label": "factory",
						"offset": 0,
						"slot": "0",
						"type": "t_contract(IKajuswapFactory)1188"
					}
				],
				"types": {
					"t_contract(IKajuswapFactory)1188": {
						"encoding": "inplace",
						"label": "contract IKajuswapFactory",
						"numberOfBytes": "20"
					}
				}
			},
			"userdoc": {
				"kind": "user",
				"methods": {},
				"version": 1
			}
		}
	}
}