{
	"contracts/KajuswapRouter.sol": {
		"KajuswapRouter": {
			"abi": [
				{
					"inputs": [
						{
							"internalType": "address",
							"name": "factoryAddress",
							"type": "address"
						}
					],
					"stateMutability": "nonpayable",
					"type": "constructor"
				},
				{
					"inputs": [],
					"name": "A",
					"outputs": [
						{
							"internalType": "address",
							"name": "",
							"type": "address"
						}
					],
					"stateMutability": "view",
					"type": "function"
				},
				{
					"inputs": [],
					"name": "B",
					"outputs": [
						{
							"internalType": "address",
							"name": "",
							"type": "address"
						}
					],
					"stateMutability": "view",
					"type": "function"
				},
				{
					"inputs": [],
					"name": "PA",
					"outputs": [
						{
							"internalType": "address",
							"name": "",
							"type": "address"
						}
					],
					"stateMutability": "view",
					"type": "function"
				},
				{
					"inputs": [
						{
							"internalType": "address",
							"name": "tokenA",
							"type": "address"
						},
						{
							"internalType": "address",
							"name": "tokenB",
							"type": "address"
						},
						{
							"internalType": "uint256",
							"name": "amountADesired",
							"type": "uint256"
						},
						{
							"internalType": "uint256",
							"name": "amountBDesired",
							"type": "uint256"
						},
						{
							"internalType": "uint256",
							"name": "amountAMin",
							"type": "uint256"
						},
						{
							"internalType": "uint256",
							"name": "amountBMin",
							"type": "uint256"
						},
						{
							"internalType": "address",
							"name": "to",
							"type": "address"
						}
					],
					"name": "addLiquidity",
					"outputs": [
						{
							"internalType": "uint256",
							"name": "amountA",
							"type": "uint256"
						},
						{
							"internalType": "uint256",
							"name": "amountB",
							"type": "uint256"
						},
						{
							"internalType": "uint256",
							"name": "liquidity",
							"type": "uint256"
						}
					],
					"stateMutability": "nonpayable",
					"type": "function"
				},
				{
					"inputs": [
						{
							"internalType": "uint256",
							"name": "amountOut",
							"type": "uint256"
						},
						{
							"internalType": "uint256",
							"name": "reserveIn",
							"type": "uint256"
						},
						{
							"internalType": "uint256",
							"name": "reserveOut",
							"type": "uint256"
						}
					],
					"name": "getAmountIn",
					"outputs": [
						{
							"internalType": "uint256",
							"name": "amountIn",
							"type": "uint256"
						}
					],
					"stateMutability": "pure",
					"type": "function"
				},
				{
					"inputs": [
						{
							"internalType": "uint256",
							"name": "amountIn",
							"type": "uint256"
						},
						{
							"internalType": "uint256",
							"name": "reserveIn",
							"type": "uint256"
						},
						{
							"internalType": "uint256",
							"name": "reserveOut",
							"type": "uint256"
						}
					],
					"name": "getAmountOut",
					"outputs": [
						{
							"internalType": "uint256",
							"name": "amountOut",
							"type": "uint256"
						}
					],
					"stateMutability": "pure",
					"type": "function"
				},
				{
					"inputs": [
						{
							"internalType": "uint256",
							"name": "amountOut",
							"type": "uint256"
						},
						{
							"internalType": "address[]",
							"name": "path",
							"type": "address[]"
						}
					],
					"name": "getAmountsIn",
					"outputs": [
						{
							"internalType": "uint256[]",
							"name": "amounts",
							"type": "uint256[]"
						}
					],
					"stateMutability": "nonpayable",
					"type": "function"
				},
				{
					"inputs": [
						{
							"internalType": "uint256",
							"name": "amountIn",
							"type": "uint256"
						},
						{
							"internalType": "address[]",
							"name": "path",
							"type": "address[]"
						}
					],
					"name": "getAmountsOut",
					"outputs": [
						{
							"internalType": "uint256[]",
							"name": "amounts",
							"type": "uint256[]"
						}
					],
					"stateMutability": "nonpayable",
					"type": "function"
				},
				{
					"inputs": [
						{
							"internalType": "uint256",
							"name": "amountIn",
							"type": "uint256"
						},
						{
							"internalType": "uint256",
							"name": "reserveIn",
							"type": "uint256"
						},
						{
							"internalType": "uint256",
							"name": "reserveOut",
							"type": "uint256"
						}
					],
					"name": "quote",
					"outputs": [
						{
							"internalType": "uint256",
							"name": "amountOut",
							"type": "uint256"
						}
					],
					"stateMutability": "pure",
					"type": "function"
				},
				{
					"inputs": [
						{
							"internalType": "address",
							"name": "tokenA",
							"type": "address"
						},
						{
							"internalType": "address",
							"name": "tokenB",
							"type": "address"
						},
						{
							"internalType": "uint256",
							"name": "liquidity",
							"type": "uint256"
						},
						{
							"internalType": "uint256",
							"name": "amountAMin",
							"type": "uint256"
						},
						{
							"internalType": "uint256",
							"name": "amountBMin",
							"type": "uint256"
						},
						{
							"internalType": "address",
							"name": "to",
							"type": "address"
						}
					],
					"name": "removeLiquidity",
					"outputs": [
						{
							"internalType": "uint256",
							"name": "amountA",
							"type": "uint256"
						},
						{
							"internalType": "uint256",
							"name": "amountB",
							"type": "uint256"
						}
					],
					"stateMutability": "nonpayable",
					"type": "function"
				},
				{
					"inputs": [
						{
							"internalType": "uint256",
							"name": "amountIn",
							"type": "uint256"
						},
						{
							"internalType": "uint256",
							"name": "amountOutMin",
							"type": "uint256"
						},
						{
							"internalType": "address[]",
							"name": "path",
							"type": "address[]"
						},
						{
							"internalType": "address",
							"name": "to",
							"type": "address"
						}
					],
					"name": "swapExactTokensForTokens",
					"outputs": [
						{
							"internalType": "uint256[]",
							"name": "amounts",
							"type": "uint256[]"
						}
					],
					"stateMutability": "nonpayable",
					"type": "function"
				},
				{
					"inputs": [
						{
							"internalType": "uint256",
							"name": "amountOut",
							"type": "uint256"
						},
						{
							"internalType": "uint256",
							"name": "amountInMax",
							"type": "uint256"
						},
						{
							"internalType": "address[]",
							"name": "path",
							"type": "address[]"
						},
						{
							"internalType": "address",
							"name": "to",
							"type": "address"
						}
					],
					"name": "swapTokensForExactTokens",
					"outputs": [
						{
							"internalType": "uint256[]",
							"name": "amounts",
							"type": "uint256[]"
						}
					],
					"stateMutability": "nonpayable",
					"type": "function"
				}
			],
			"devdoc": {
				"kind": "dev",
				"methods": {},
				"version": 1
			},
			"evm": {
				"assembly": "    /* \"contracts/KajuswapRouter.sol\":185:8565  contract KajuswapRouter {... */\n  mstore(0x40, 0x80)\n    /* \"contracts/KajuswapRouter.sol\":578:675  constructor(address factoryAddress) {... */\n  callvalue\n  dup1\n  iszero\n  tag_1\n  jumpi\n  0x00\n  dup1\n  revert\ntag_1:\n  pop\n  mload(0x40)\n  sub(codesize, bytecodeSize)\n  dup1\n  bytecodeSize\n  dup4\n  codecopy\n  dup2\n  dup2\n  add\n  0x40\n  mstore\n  dup2\n  add\n  swap1\n  tag_2\n  swap2\n  swap1\n  tag_3\n  jump\t// in\ntag_2:\n    /* \"contracts/KajuswapRouter.sol\":652:666  factoryAddress */\n  dup1\n    /* \"contracts/KajuswapRouter.sol\":625:632  factory */\n  0x00\n  dup1\n    /* \"contracts/KajuswapRouter.sol\":625:667  factory = IKajuswapFactory(factoryAddress) */\n  0x0100\n  exp\n  dup2\n  sload\n  dup2\n  0xffffffffffffffffffffffffffffffffffffffff\n  mul\n  not\n  and\n  swap1\n  dup4\n  0xffffffffffffffffffffffffffffffffffffffff\n  and\n  mul\n  or\n  swap1\n  sstore\n  pop\n    /* \"contracts/KajuswapRouter.sol\":578:675  constructor(address factoryAddress) {... */\n  pop\n    /* \"contracts/KajuswapRouter.sol\":185:8565  contract KajuswapRouter {... */\n  jump(tag_6)\n    /* \"#utility.yul\":88:205   */\ntag_8:\n    /* \"#utility.yul\":197:198   */\n  0x00\n    /* \"#utility.yul\":194:195   */\n  dup1\n    /* \"#utility.yul\":187:199   */\n  revert\n    /* \"#utility.yul\":334:460   */\ntag_10:\n    /* \"#utility.yul\":371:378   */\n  0x00\n    /* \"#utility.yul\":411:453   */\n  0xffffffffffffffffffffffffffffffffffffffff\n    /* \"#utility.yul\":404:409   */\n  dup3\n    /* \"#utility.yul\":400:454   */\n  and\n    /* \"#utility.yul\":389:454   */\n  swap1\n  pop\n    /* \"#utility.yul\":334:460   */\n  swap2\n  swap1\n  pop\n  jump\t// out\n    /* \"#utility.yul\":466:562   */\ntag_11:\n    /* \"#utility.yul\":503:510   */\n  0x00\n    /* \"#utility.yul\":532:556   */\n  tag_20\n    /* \"#utility.yul\":550:555   */\n  dup3\n    /* \"#utility.yul\":532:556   */\n  tag_10\n  jump\t// in\ntag_20:\n    /* \"#utility.yul\":521:556   */\n  swap1\n  pop\n    /* \"#utility.yul\":466:562   */\n  swap2\n  swap1\n  pop\n  jump\t// out\n    /* \"#utility.yul\":568:690   */\ntag_12:\n    /* \"#utility.yul\":641:665   */\n  tag_22\n    /* \"#utility.yul\":659:664   */\n  dup2\n    /* \"#utility.yul\":641:665   */\n  tag_11\n  jump\t// in\ntag_22:\n    /* \"#utility.yul\":634:639   */\n  dup2\n    /* \"#utility.yul\":631:666   */\n  eq\n    /* \"#utility.yul\":621:684   */\n  tag_23\n  jumpi\n    /* \"#utility.yul\":680:681   */\n  0x00\n    /* \"#utility.yul\":677:678   */\n  dup1\n    /* \"#utility.yul\":670:682   */\n  revert\n    /* \"#utility.yul\":621:684   */\ntag_23:\n    /* \"#utility.yul\":568:690   */\n  pop\n  jump\t// out\n    /* \"#utility.yul\":696:839   */\ntag_13:\n    /* \"#utility.yul\":753:758   */\n  0x00\n    /* \"#utility.yul\":784:790   */\n  dup2\n    /* \"#utility.yul\":778:791   */\n  mload\n    /* \"#utility.yul\":769:791   */\n  swap1\n  pop\n    /* \"#utility.yul\":800:833   */\n  tag_25\n    /* \"#utility.yul\":827:832   */\n  dup2\n    /* \"#utility.yul\":800:833   */\n  tag_12\n  jump\t// in\ntag_25:\n    /* \"#utility.yul\":696:839   */\n  swap3\n  swap2\n  pop\n  pop\n  jump\t// out\n    /* \"#utility.yul\":845:1196   */\ntag_3:\n    /* \"#utility.yul\":915:921   */\n  0x00\n    /* \"#utility.yul\":964:966   */\n  0x20\n    /* \"#utility.yul\":952:961   */\n  dup3\n    /* \"#utility.yul\":943:950   */\n  dup5\n    /* \"#utility.yul\":939:962   */\n  sub\n    /* \"#utility.yul\":935:967   */\n  slt\n    /* \"#utility.yul\":932:1051   */\n  iszero\n  tag_27\n  jumpi\n    /* \"#utility.yul\":970:1049   */\n  tag_28\n  tag_8\n  jump\t// in\ntag_28:\n    /* \"#utility.yul\":932:1051   */\ntag_27:\n    /* \"#utility.yul\":1090:1091   */\n  0x00\n    /* \"#utility.yul\":1115:1179   */\n  tag_29\n    /* \"#utility.yul\":1171:1178   */\n  dup5\n    /* \"#utility.yul\":1162:1168   */\n  dup3\n    /* \"#utility.yul\":1151:1160   */\n  dup6\n    /* \"#utility.yul\":1147:1169   */\n  add\n    /* \"#utility.yul\":1115:1179   */\n  tag_13\n  jump\t// in\ntag_29:\n    /* \"#utility.yul\":1105:1179   */\n  swap2\n  pop\n    /* \"#utility.yul\":1061:1189   */\n  pop\n    /* \"#utility.yul\":845:1196   */\n  swap3\n  swap2\n  pop\n  pop\n  jump\t// out\n    /* \"contracts/KajuswapRouter.sol\":185:8565  contract KajuswapRouter {... */\ntag_6:\n  dataSize(sub_0)\n  dup1\n  dataOffset(sub_0)\n  0x00\n  codecopy\n  0x00\n  return\nstop\n\nsub_0: assembly {\n        /* \"contracts/KajuswapRouter.sol\":185:8565  contract KajuswapRouter {... */\n      mstore(0x40, 0x80)\n      callvalue\n      dup1\n      iszero\n      tag_1\n      jumpi\n      0x00\n      dup1\n      revert\n    tag_1:\n      pop\n      jumpi(tag_2, lt(calldatasize, 0x04))\n      shr(0xe0, calldataload(0x00))\n      dup1\n      0x85f8c259\n      gt\n      tag_15\n      jumpi\n      dup1\n      0x85f8c259\n      eq\n      tag_9\n      jumpi\n      dup1\n      0xad615dec\n      eq\n      tag_10\n      jumpi\n      dup1\n      0xc0e3ee6b\n      eq\n      tag_11\n      jumpi\n      dup1\n      0xca3d6539\n      eq\n      tag_12\n      jumpi\n      dup1\n      0xd06ca61f\n      eq\n      tag_13\n      jumpi\n      dup1\n      0xf446c1d0\n      eq\n      tag_14\n      jumpi\n      jump(tag_2)\n    tag_15:\n      dup1\n      0x054d50d4\n      eq\n      tag_3\n      jumpi\n      dup1\n      0x1f00ca74\n      eq\n      tag_4\n      jumpi\n      dup1\n      0x32e7c5bf\n      eq\n      tag_5\n      jumpi\n      dup1\n      0x42712a67\n      eq\n      tag_6\n      jumpi\n      dup1\n      0x472b43f3\n      eq\n      tag_7\n      jumpi\n      dup1\n      0x8434d01a\n      eq\n      tag_8\n      jumpi\n    tag_2:\n      0x00\n      dup1\n      revert\n        /* \"contracts/KajuswapRouter.sol\":7623:7863  function getAmountOut(... */\n    tag_3:\n      tag_16\n      0x04\n      dup1\n      calldatasize\n      sub\n      dup2\n      add\n      swap1\n      tag_17\n      swap2\n      swap1\n      tag_18\n      jump\t// in\n    tag_17:\n      tag_19\n      jump\t// in\n    tag_16:\n      mload(0x40)\n      tag_20\n      swap2\n      swap1\n      tag_21\n      jump\t// in\n    tag_20:\n      mload(0x40)\n      dup1\n      swap2\n      sub\n      swap1\n      return\n        /* \"contracts/KajuswapRouter.sol\":8344:8562  function getAmountsIn(uint256 amountOut, address[] memory path)... */\n    tag_4:\n      tag_22\n      0x04\n      dup1\n      calldatasize\n      sub\n      dup2\n      add\n      swap1\n      tag_23\n      swap2\n      swap1\n      tag_24\n      jump\t// in\n    tag_23:\n      tag_25\n      jump\t// in\n    tag_22:\n      mload(0x40)\n      tag_26\n      swap2\n      swap1\n      tag_27\n      jump\t// in\n    tag_26:\n      mload(0x40)\n      dup1\n      swap2\n      sub\n      swap1\n      return\n        /* \"contracts/KajuswapRouter.sol\":553:569  address public B */\n    tag_5:\n      tag_28\n      tag_29\n      jump\t// in\n    tag_28:\n      mload(0x40)\n      tag_30\n      swap2\n      swap1\n      tag_31\n      jump\t// in\n    tag_30:\n      mload(0x40)\n      dup1\n      swap2\n      sub\n      swap1\n      return\n        /* \"contracts/KajuswapRouter.sol\":3433:4181  function swapTokensForExactTokens(... */\n    tag_6:\n      tag_32\n      0x04\n      dup1\n      calldatasize\n      sub\n      dup2\n      add\n      swap1\n      tag_33\n      swap2\n      swap1\n      tag_34\n      jump\t// in\n    tag_33:\n      tag_35\n      jump\t// in\n    tag_32:\n      mload(0x40)\n      tag_36\n      swap2\n      swap1\n      tag_27\n      jump\t// in\n    tag_36:\n      mload(0x40)\n      dup1\n      swap2\n      sub\n      swap1\n      return\n        /* \"contracts/KajuswapRouter.sol\":2646:3425  function swapExactTokensForTokens(... */\n    tag_7:\n      tag_37\n      0x04\n      dup1\n      calldatasize\n      sub\n      dup2\n      add\n      swap1\n      tag_38\n      swap2\n      swap1\n      tag_34\n      jump\t// in\n    tag_38:\n      tag_39\n      jump\t// in\n    tag_37:\n      mload(0x40)\n      tag_40\n      swap2\n      swap1\n      tag_27\n      jump\t// in\n    tag_40:\n      mload(0x40)\n      dup1\n      swap2\n      sub\n      swap1\n      return\n        /* \"contracts/KajuswapRouter.sol\":506:523  address public PA */\n    tag_8:\n      tag_41\n      tag_42\n      jump\t// in\n    tag_41:\n      mload(0x40)\n      tag_43\n      swap2\n      swap1\n      tag_31\n      jump\t// in\n    tag_43:\n      mload(0x40)\n      dup1\n      swap2\n      sub\n      swap1\n      return\n        /* \"contracts/KajuswapRouter.sol\":7871:8110  function getAmountIn(... */\n    tag_9:\n      tag_44\n      0x04\n      dup1\n      calldatasize\n      sub\n      dup2\n      add\n      swap1\n      tag_45\n      swap2\n      swap1\n      tag_18\n      jump\t// in\n    tag_45:\n      tag_46\n      jump\t// in\n    tag_44:\n      mload(0x40)\n      tag_47\n      swap2\n      swap1\n      tag_21\n      jump\t// in\n    tag_47:\n      mload(0x40)\n      dup1\n      swap2\n      sub\n      swap1\n      return\n        /* \"contracts/KajuswapRouter.sol\":7389:7615  function quote(... */\n    tag_10:\n      tag_48\n      0x04\n      dup1\n      calldatasize\n      sub\n      dup2\n      add\n      swap1\n      tag_49\n      swap2\n      swap1\n      tag_18\n      jump\t// in\n    tag_49:\n      tag_50\n      jump\t// in\n    tag_48:\n      mload(0x40)\n      tag_51\n      swap2\n      swap1\n      tag_21\n      jump\t// in\n    tag_51:\n      mload(0x40)\n      dup1\n      swap2\n      sub\n      swap1\n      return\n        /* \"contracts/KajuswapRouter.sol\":1784:2638  function removeLiquidity(... */\n    tag_11:\n      tag_52\n      0x04\n      dup1\n      calldatasize\n      sub\n      dup2\n      add\n      swap1\n      tag_53\n      swap2\n      swap1\n      tag_54\n      jump\t// in\n    tag_53:\n      tag_55\n      jump\t// in\n    tag_52:\n      mload(0x40)\n      tag_56\n      swap3\n      swap2\n      swap1\n      tag_57\n      jump\t// in\n    tag_56:\n      mload(0x40)\n      dup1\n      swap2\n      sub\n      swap1\n      return\n        /* \"contracts/KajuswapRouter.sol\":683:1776  function addLiquidity(... */\n    tag_12:\n      tag_58\n      0x04\n      dup1\n      calldatasize\n      sub\n      dup2\n      add\n      swap1\n      tag_59\n      swap2\n      swap1\n      tag_60\n      jump\t// in\n    tag_59:\n      tag_61\n      jump\t// in\n    tag_58:\n      mload(0x40)\n      tag_62\n      swap4\n      swap3\n      swap2\n      swap1\n      tag_63\n      jump\t// in\n    tag_62:\n      mload(0x40)\n      dup1\n      swap2\n      sub\n      swap1\n      return\n        /* \"contracts/KajuswapRouter.sol\":8118:8336  function getAmountsOut(uint256 amountIn, address[] memory path)... */\n    tag_13:\n      tag_64\n      0x04\n      dup1\n      calldatasize\n      sub\n      dup2\n      add\n      swap1\n      tag_65\n      swap2\n      swap1\n      tag_24\n      jump\t// in\n    tag_65:\n      tag_66\n      jump\t// in\n    tag_64:\n      mload(0x40)\n      tag_67\n      swap2\n      swap1\n      tag_27\n      jump\t// in\n    tag_67:\n      mload(0x40)\n      dup1\n      swap2\n      sub\n      swap1\n      return\n        /* \"contracts/KajuswapRouter.sol\":530:546  address public A */\n    tag_14:\n      tag_68\n      tag_69\n      jump\t// in\n    tag_68:\n      mload(0x40)\n      tag_70\n      swap2\n      swap1\n      tag_31\n      jump\t// in\n    tag_70:\n      mload(0x40)\n      dup1\n      swap2\n      sub\n      swap1\n      return\n        /* \"contracts/KajuswapRouter.sol\":7623:7863  function getAmountOut(... */\n    tag_19:\n        /* \"contracts/KajuswapRouter.sol\":7757:7774  uint256 amountOut */\n      0x00\n        /* \"contracts/KajuswapRouter.sol\":7794:7809  KajuswapLibrary */\n      linkerSymbol(\"18693c2782ae7b010cc3bd0449f436a78932852c600971ebfaa34cda17c779df\")\n        /* \"contracts/KajuswapRouter.sol\":7794:7822  KajuswapLibrary.getAmountOut */\n      0x054d50d4\n        /* \"contracts/KajuswapRouter.sol\":7823:7831  amountIn */\n      dup6\n        /* \"contracts/KajuswapRouter.sol\":7833:7842  reserveIn */\n      dup6\n        /* \"contracts/KajuswapRouter.sol\":7844:7854  reserveOut */\n      dup6\n        /* \"contracts/KajuswapRouter.sol\":7794:7855  KajuswapLibrary.getAmountOut(amountIn, reserveIn, reserveOut) */\n      mload(0x40)\n      dup5\n      0xffffffff\n      and\n      0xe0\n      shl\n      dup2\n      mstore\n      0x04\n      add\n      tag_72\n      swap4\n      swap3\n      swap2\n      swap1\n      tag_73\n      jump\t// in\n    tag_72:\n      0x20\n      mload(0x40)\n      dup1\n      dup4\n      sub\n      dup2\n      dup7\n      gas\n      delegatecall\n      iszero\n      dup1\n      iszero\n      tag_75\n      jumpi\n      returndatasize\n      0x00\n      dup1\n      returndatacopy\n      revert(0x00, returndatasize)\n    tag_75:\n      pop\n      pop\n      pop\n      pop\n      mload(0x40)\n      returndatasize\n      not(0x1f)\n      0x1f\n      dup3\n      add\n      and\n      dup3\n      add\n      dup1\n      0x40\n      mstore\n      pop\n      dup2\n      add\n      swap1\n      tag_76\n      swap2\n      swap1\n      tag_77\n      jump\t// in\n    tag_76:\n        /* \"contracts/KajuswapRouter.sol\":7787:7855  return KajuswapLibrary.getAmountOut(amountIn, reserveIn, reserveOut) */\n      swap1\n      pop\n        /* \"contracts/KajuswapRouter.sol\":7623:7863  function getAmountOut(... */\n      swap4\n      swap3\n      pop\n      pop\n      pop\n      jump\t// out\n        /* \"contracts/KajuswapRouter.sol\":8344:8562  function getAmountsIn(uint256 amountOut, address[] memory path)... */\n    tag_25:\n        /* \"contracts/KajuswapRouter.sol\":8442:8466  uint256[] memory amounts */\n      0x60\n        /* \"contracts/KajuswapRouter.sol\":8491:8506  KajuswapLibrary */\n      linkerSymbol(\"18693c2782ae7b010cc3bd0449f436a78932852c600971ebfaa34cda17c779df\")\n        /* \"contracts/KajuswapRouter.sol\":8491:8519  KajuswapLibrary.getAmountsIn */\n      0x192128b2\n        /* \"contracts/KajuswapRouter.sol\":8528:8535  factory */\n      0x00\n      dup1\n      sload\n      swap1\n      0x0100\n      exp\n      swap1\n      div\n      0xffffffffffffffffffffffffffffffffffffffff\n      and\n        /* \"contracts/KajuswapRouter.sol\":8538:8547  amountOut */\n      dup6\n        /* \"contracts/KajuswapRouter.sol\":8549:8553  path */\n      dup6\n        /* \"contracts/KajuswapRouter.sol\":8491:8554  KajuswapLibrary.getAmountsIn(address(factory), amountOut, path) */\n      mload(0x40)\n      dup5\n      0xffffffff\n      and\n      0xe0\n      shl\n      dup2\n      mstore\n      0x04\n      add\n      tag_79\n      swap4\n      swap3\n      swap2\n      swap1\n      tag_80\n      jump\t// in\n    tag_79:\n      0x00\n      mload(0x40)\n      dup1\n      dup4\n      sub\n      dup2\n      dup7\n      gas\n      delegatecall\n      iszero\n      dup1\n      iszero\n      tag_82\n      jumpi\n      returndatasize\n      0x00\n      dup1\n      returndatacopy\n      revert(0x00, returndatasize)\n    tag_82:\n      pop\n      pop\n      pop\n      pop\n      mload(0x40)\n      returndatasize\n      0x00\n      dup3\n      returndatacopy\n      returndatasize\n      not(0x1f)\n      0x1f\n      dup3\n      add\n      and\n      dup3\n      add\n      dup1\n      0x40\n      mstore\n      pop\n      dup2\n      add\n      swap1\n      tag_83\n      swap2\n      swap1\n      tag_84\n      jump\t// in\n    tag_83:\n        /* \"contracts/KajuswapRouter.sol\":8484:8554  return KajuswapLibrary.getAmountsIn(address(factory), amountOut, path) */\n      swap1\n      pop\n        /* \"contracts/KajuswapRouter.sol\":8344:8562  function getAmountsIn(uint256 amountOut, address[] memory path)... */\n      swap3\n      swap2\n      pop\n      pop\n      jump\t// out\n        /* \"contracts/KajuswapRouter.sol\":553:569  address public B */\n    tag_29:\n      0x03\n      0x00\n      swap1\n      sload\n      swap1\n      0x0100\n      exp\n      swap1\n      div\n      0xffffffffffffffffffffffffffffffffffffffff\n      and\n      dup2\n      jump\t// out\n        /* \"contracts/KajuswapRouter.sol\":3433:4181  function swapTokensForExactTokens(... */\n    tag_35:\n        /* \"contracts/KajuswapRouter.sol\":3603:3627  uint256[] memory amounts */\n      0x60\n        /* \"contracts/KajuswapRouter.sol\":3650:3665  KajuswapLibrary */\n      linkerSymbol(\"18693c2782ae7b010cc3bd0449f436a78932852c600971ebfaa34cda17c779df\")\n        /* \"contracts/KajuswapRouter.sol\":3650:3678  KajuswapLibrary.getAmountsIn */\n      0x192128b2\n        /* \"contracts/KajuswapRouter.sol\":3701:3708  factory */\n      0x00\n      dup1\n      sload\n      swap1\n      0x0100\n      exp\n      swap1\n      div\n      0xffffffffffffffffffffffffffffffffffffffff\n      and\n        /* \"contracts/KajuswapRouter.sol\":3724:3733  amountOut */\n      dup9\n        /* \"contracts/KajuswapRouter.sol\":3748:3752  path */\n      dup8\n      dup8\n        /* \"contracts/KajuswapRouter.sol\":3650:3763  KajuswapLibrary.getAmountsIn(... */\n      mload(0x40)\n      dup6\n      0xffffffff\n      and\n      0xe0\n      shl\n      dup2\n      mstore\n      0x04\n      add\n      tag_86\n      swap5\n      swap4\n      swap3\n      swap2\n      swap1\n      tag_87\n      jump\t// in\n    tag_86:\n      0x00\n      mload(0x40)\n      dup1\n      dup4\n      sub\n      dup2\n      dup7\n      gas\n      delegatecall\n      iszero\n      dup1\n      iszero\n      tag_89\n      jumpi\n      returndatasize\n      0x00\n      dup1\n      returndatacopy\n      revert(0x00, returndatasize)\n    tag_89:\n      pop\n      pop\n      pop\n      pop\n      mload(0x40)\n      returndatasize\n      0x00\n      dup3\n      returndatacopy\n      returndatasize\n      not(0x1f)\n      0x1f\n      dup3\n      add\n      and\n      dup3\n      add\n      dup1\n      0x40\n      mstore\n      pop\n      dup2\n      add\n      swap1\n      tag_90\n      swap2\n      swap1\n      tag_84\n      jump\t// in\n    tag_90:\n        /* \"contracts/KajuswapRouter.sol\":3640:3763  amounts = KajuswapLibrary.getAmountsIn(... */\n      swap1\n      pop\n        /* \"contracts/KajuswapRouter.sol\":3924:3935  amountInMax */\n      dup5\n        /* \"contracts/KajuswapRouter.sol\":3910:3917  amounts */\n      dup2\n        /* \"contracts/KajuswapRouter.sol\":3918:3919  0 */\n      0x00\n        /* \"contracts/KajuswapRouter.sol\":3910:3920  amounts[0] */\n      dup2\n      mload\n      dup2\n      lt\n      tag_91\n      jumpi\n      tag_92\n      tag_93\n      jump\t// in\n    tag_92:\n    tag_91:\n      0x20\n      mul\n      0x20\n      add\n      add\n      mload\n        /* \"contracts/KajuswapRouter.sol\":3910:3935  amounts[0] <= amountInMax */\n      gt\n      iszero\n        /* \"contracts/KajuswapRouter.sol\":3902:3978  require(amounts[0] <= amountInMax, \"KajuswapRouter: EXCESSIVE_INPUT_AMOUNT\") */\n      tag_94\n      jumpi\n      mload(0x40)\n      0x08c379a000000000000000000000000000000000000000000000000000000000\n      dup2\n      mstore\n      0x04\n      add\n      tag_95\n      swap1\n      tag_96\n      jump\t// in\n    tag_95:\n      mload(0x40)\n      dup1\n      swap2\n      sub\n      swap1\n      revert\n    tag_94:\n        /* \"contracts/KajuswapRouter.sol\":3989:4138  _safeTransferFrom(... */\n      tag_97\n        /* \"contracts/KajuswapRouter.sol\":4021:4025  path */\n      dup5\n      dup5\n        /* \"contracts/KajuswapRouter.sol\":4026:4027  0 */\n      0x00\n        /* \"contracts/KajuswapRouter.sol\":4021:4028  path[0] */\n      dup2\n      dup2\n      lt\n      tag_98\n      jumpi\n      tag_99\n      tag_93\n      jump\t// in\n    tag_99:\n    tag_98:\n      swap1\n      pop\n      0x20\n      mul\n      add\n      0x20\n      dup2\n      add\n      swap1\n      tag_100\n      swap2\n      swap1\n      tag_101\n      jump\t// in\n    tag_100:\n        /* \"contracts/KajuswapRouter.sol\":4043:4102  KajuswapLibrary.pairFor(address(factory), path[0], path[1]) */\n      tag_102\n        /* \"contracts/KajuswapRouter.sol\":4075:4082  factory */\n      0x00\n      dup1\n      sload\n      swap1\n      0x0100\n      exp\n      swap1\n      div\n      0xffffffffffffffffffffffffffffffffffffffff\n      and\n        /* \"contracts/KajuswapRouter.sol\":4085:4089  path */\n      dup8\n      dup8\n        /* \"contracts/KajuswapRouter.sol\":4090:4091  0 */\n      0x00\n        /* \"contracts/KajuswapRouter.sol\":4085:4092  path[0] */\n      dup2\n      dup2\n      lt\n      tag_103\n      jumpi\n      tag_104\n      tag_93\n      jump\t// in\n    tag_104:\n    tag_103:\n      swap1\n      pop\n      0x20\n      mul\n      add\n      0x20\n      dup2\n      add\n      swap1\n      tag_105\n      swap2\n      swap1\n      tag_101\n      jump\t// in\n    tag_105:\n        /* \"contracts/KajuswapRouter.sol\":4094:4098  path */\n      dup9\n      dup9\n        /* \"contracts/KajuswapRouter.sol\":4099:4100  1 */\n      0x01\n        /* \"contracts/KajuswapRouter.sol\":4094:4101  path[1] */\n      dup2\n      dup2\n      lt\n      tag_106\n      jumpi\n      tag_107\n      tag_93\n      jump\t// in\n    tag_107:\n    tag_106:\n      swap1\n      pop\n      0x20\n      mul\n      add\n      0x20\n      dup2\n      add\n      swap1\n      tag_108\n      swap2\n      swap1\n      tag_101\n      jump\t// in\n    tag_108:\n        /* \"contracts/KajuswapRouter.sol\":4043:4066  KajuswapLibrary.pairFor */\n      tag_109\n        /* \"contracts/KajuswapRouter.sol\":4043:4102  KajuswapLibrary.pairFor(address(factory), path[0], path[1]) */\n      jump\t// in\n    tag_102:\n        /* \"contracts/KajuswapRouter.sol\":4117:4124  amounts */\n      dup4\n        /* \"contracts/KajuswapRouter.sol\":4125:4126  0 */\n      0x00\n        /* \"contracts/KajuswapRouter.sol\":4117:4127  amounts[0] */\n      dup2\n      mload\n      dup2\n      lt\n      tag_110\n      jumpi\n      tag_111\n      tag_93\n      jump\t// in\n    tag_111:\n    tag_110:\n      0x20\n      mul\n      0x20\n      add\n      add\n      mload\n        /* \"contracts/KajuswapRouter.sol\":3989:4006  _safeTransferFrom */\n      tag_112\n        /* \"contracts/KajuswapRouter.sol\":3989:4138  _safeTransferFrom(... */\n      jump\t// in\n    tag_97:\n        /* \"contracts/KajuswapRouter.sol\":4149:4173  _swap(amounts, path, to) */\n      tag_113\n        /* \"contracts/KajuswapRouter.sol\":4155:4162  amounts */\n      dup2\n        /* \"contracts/KajuswapRouter.sol\":4164:4168  path */\n      dup6\n      dup6\n        /* \"contracts/KajuswapRouter.sol\":4149:4173  _swap(amounts, path, to) */\n      dup1\n      dup1\n      0x20\n      mul\n      0x20\n      add\n      mload(0x40)\n      swap1\n      dup2\n      add\n      0x40\n      mstore\n      dup1\n      swap4\n      swap3\n      swap2\n      swap1\n      dup2\n      dup2\n      mstore\n      0x20\n      add\n      dup4\n      dup4\n      0x20\n      mul\n      dup1\n      dup3\n      dup5\n      calldatacopy\n      0x00\n      dup2\n      dup5\n      add\n      mstore\n      not(0x1f)\n      0x1f\n      dup3\n      add\n      and\n      swap1\n      pop\n      dup1\n      dup4\n      add\n      swap3\n      pop\n      pop\n      pop\n      pop\n      pop\n      pop\n      pop\n        /* \"contracts/KajuswapRouter.sol\":4170:4172  to */\n      dup5\n        /* \"contracts/KajuswapRouter.sol\":4149:4154  _swap */\n      tag_114\n        /* \"contracts/KajuswapRouter.sol\":4149:4173  _swap(amounts, path, to) */\n      jump\t// in\n    tag_113:\n        /* \"contracts/KajuswapRouter.sol\":3433:4181  function swapTokensForExactTokens(... */\n      swap6\n      swap5\n      pop\n      pop\n      pop\n      pop\n      pop\n      jump\t// out\n        /* \"contracts/KajuswapRouter.sol\":2646:3425  function swapExactTokensForTokens(... */\n    tag_39:\n        /* \"contracts/KajuswapRouter.sol\":2816:2840  uint256[] memory amounts */\n      0x60\n        /* \"contracts/KajuswapRouter.sol\":2863:2878  KajuswapLibrary */\n      linkerSymbol(\"18693c2782ae7b010cc3bd0449f436a78932852c600971ebfaa34cda17c779df\")\n        /* \"contracts/KajuswapRouter.sol\":2863:2892  KajuswapLibrary.getAmountsOut */\n      0xbb7b9c76\n        /* \"contracts/KajuswapRouter.sol\":2915:2922  factory */\n      0x00\n      dup1\n      sload\n      swap1\n      0x0100\n      exp\n      swap1\n      div\n      0xffffffffffffffffffffffffffffffffffffffff\n      and\n        /* \"contracts/KajuswapRouter.sol\":2938:2946  amountIn */\n      dup9\n        /* \"contracts/KajuswapRouter.sol\":2961:2965  path */\n      dup8\n      dup8\n        /* \"contracts/KajuswapRouter.sol\":2863:2976  KajuswapLibrary.getAmountsOut(... */\n      mload(0x40)\n      dup6\n      0xffffffff\n      and\n      0xe0\n      shl\n      dup2\n      mstore\n      0x04\n      add\n      tag_116\n      swap5\n      swap4\n      swap3\n      swap2\n      swap1\n      tag_87\n      jump\t// in\n    tag_116:\n      0x00\n      mload(0x40)\n      dup1\n      dup4\n      sub\n      dup2\n      dup7\n      gas\n      delegatecall\n      iszero\n      dup1\n      iszero\n      tag_118\n      jumpi\n      returndatasize\n      0x00\n      dup1\n      returndatacopy\n      revert(0x00, returndatasize)\n    tag_118:\n      pop\n      pop\n      pop\n      pop\n      mload(0x40)\n      returndatasize\n      0x00\n      dup3\n      returndatacopy\n      returndatasize\n      not(0x1f)\n      0x1f\n      dup3\n      add\n      and\n      dup3\n      add\n      dup1\n      0x40\n      mstore\n      pop\n      dup2\n      add\n      swap1\n      tag_119\n      swap2\n      swap1\n      tag_84\n      jump\t// in\n    tag_119:\n        /* \"contracts/KajuswapRouter.sol\":2853:2976  amounts = KajuswapLibrary.getAmountsOut(... */\n      swap1\n      pop\n        /* \"contracts/KajuswapRouter.sol\":3163:3175  amountOutMin */\n      dup5\n        /* \"contracts/KajuswapRouter.sol\":3132:3139  amounts */\n      dup2\n        /* \"contracts/KajuswapRouter.sol\":3157:3158  1 */\n      0x01\n        /* \"contracts/KajuswapRouter.sol\":3140:3147  amounts */\n      dup4\n        /* \"contracts/KajuswapRouter.sol\":3140:3154  amounts.length */\n      mload\n        /* \"contracts/KajuswapRouter.sol\":3140:3158  amounts.length - 1 */\n      tag_120\n      swap2\n      swap1\n      tag_121\n      jump\t// in\n    tag_120:\n        /* \"contracts/KajuswapRouter.sol\":3132:3159  amounts[amounts.length - 1] */\n      dup2\n      mload\n      dup2\n      lt\n      tag_122\n      jumpi\n      tag_123\n      tag_93\n      jump\t// in\n    tag_123:\n    tag_122:\n      0x20\n      mul\n      0x20\n      add\n      add\n      mload\n        /* \"contracts/KajuswapRouter.sol\":3132:3175  amounts[amounts.length - 1] >= amountOutMin */\n      lt\n      iszero\n        /* \"contracts/KajuswapRouter.sol\":3124:3222  require(amounts[amounts.length - 1] >= amountOutMin, \"KajuswapRouter: INSUFFICIENT_OUTPUT_AMOUNT\") */\n      tag_124\n      jumpi\n      mload(0x40)\n      0x08c379a000000000000000000000000000000000000000000000000000000000\n      dup2\n      mstore\n      0x04\n      add\n      tag_125\n      swap1\n      tag_126\n      jump\t// in\n    tag_125:\n      mload(0x40)\n      dup1\n      swap2\n      sub\n      swap1\n      revert\n    tag_124:\n        /* \"contracts/KajuswapRouter.sol\":3233:3382  _safeTransferFrom(... */\n      tag_127\n        /* \"contracts/KajuswapRouter.sol\":3265:3269  path */\n      dup5\n      dup5\n        /* \"contracts/KajuswapRouter.sol\":3270:3271  0 */\n      0x00\n        /* \"contracts/KajuswapRouter.sol\":3265:3272  path[0] */\n      dup2\n      dup2\n      lt\n      tag_128\n      jumpi\n      tag_129\n      tag_93\n      jump\t// in\n    tag_129:\n    tag_128:\n      swap1\n      pop\n      0x20\n      mul\n      add\n      0x20\n      dup2\n      add\n      swap1\n      tag_130\n      swap2\n      swap1\n      tag_101\n      jump\t// in\n    tag_130:\n        /* \"contracts/KajuswapRouter.sol\":3287:3346  KajuswapLibrary.pairFor(address(factory), path[0], path[1]) */\n      tag_131\n        /* \"contracts/KajuswapRouter.sol\":3319:3326  factory */\n      0x00\n      dup1\n      sload\n      swap1\n      0x0100\n      exp\n      swap1\n      div\n      0xffffffffffffffffffffffffffffffffffffffff\n      and\n        /* \"contracts/KajuswapRouter.sol\":3329:3333  path */\n      dup8\n      dup8\n        /* \"contracts/KajuswapRouter.sol\":3334:3335  0 */\n      0x00\n        /* \"contracts/KajuswapRouter.sol\":3329:3336  path[0] */\n      dup2\n      dup2\n      lt\n      tag_132\n      jumpi\n      tag_133\n      tag_93\n      jump\t// in\n    tag_133:\n    tag_132:\n      swap1\n      pop\n      0x20\n      mul\n      add\n      0x20\n      dup2\n      add\n      swap1\n      tag_134\n      swap2\n      swap1\n      tag_101\n      jump\t// in\n    tag_134:\n        /* \"contracts/KajuswapRouter.sol\":3338:3342  path */\n      dup9\n      dup9\n        /* \"contracts/KajuswapRouter.sol\":3343:3344  1 */\n      0x01\n        /* \"contracts/KajuswapRouter.sol\":3338:3345  path[1] */\n      dup2\n      dup2\n      lt\n      tag_135\n      jumpi\n      tag_136\n      tag_93\n      jump\t// in\n    tag_136:\n    tag_135:\n      swap1\n      pop\n      0x20\n      mul\n      add\n      0x20\n      dup2\n      add\n      swap1\n      tag_137\n      swap2\n      swap1\n      tag_101\n      jump\t// in\n    tag_137:\n        /* \"contracts/KajuswapRouter.sol\":3287:3310  KajuswapLibrary.pairFor */\n      tag_109\n        /* \"contracts/KajuswapRouter.sol\":3287:3346  KajuswapLibrary.pairFor(address(factory), path[0], path[1]) */\n      jump\t// in\n    tag_131:\n        /* \"contracts/KajuswapRouter.sol\":3361:3368  amounts */\n      dup4\n        /* \"contracts/KajuswapRouter.sol\":3369:3370  0 */\n      0x00\n        /* \"contracts/KajuswapRouter.sol\":3361:3371  amounts[0] */\n      dup2\n      mload\n      dup2\n      lt\n      tag_138\n      jumpi\n      tag_139\n      tag_93\n      jump\t// in\n    tag_139:\n    tag_138:\n      0x20\n      mul\n      0x20\n      add\n      add\n      mload\n        /* \"contracts/KajuswapRouter.sol\":3233:3250  _safeTransferFrom */\n      tag_112\n        /* \"contracts/KajuswapRouter.sol\":3233:3382  _safeTransferFrom(... */\n      jump\t// in\n    tag_127:\n        /* \"contracts/KajuswapRouter.sol\":3393:3417  _swap(amounts, path, to) */\n      tag_140\n        /* \"contracts/KajuswapRouter.sol\":3399:3406  amounts */\n      dup2\n        /* \"contracts/KajuswapRouter.sol\":3408:3412  path */\n      dup6\n      dup6\n        /* \"contracts/KajuswapRouter.sol\":3393:3417  _swap(amounts, path, to) */\n      dup1\n      dup1\n      0x20\n      mul\n      0x20\n      add\n      mload(0x40)\n      swap1\n      dup2\n      add\n      0x40\n      mstore\n      dup1\n      swap4\n      swap3\n      swap2\n      swap1\n      dup2\n      dup2\n      mstore\n      0x20\n      add\n      dup4\n      dup4\n      0x20\n      mul\n      dup1\n      dup3\n      dup5\n      calldatacopy\n      0x00\n      dup2\n      dup5\n      add\n      mstore\n      not(0x1f)\n      0x1f\n      dup3\n      add\n      and\n      swap1\n      pop\n      dup1\n      dup4\n      add\n      swap3\n      pop\n      pop\n      pop\n      pop\n      pop\n      pop\n      pop\n        /* \"contracts/KajuswapRouter.sol\":3414:3416  to */\n      dup5\n        /* \"contracts/KajuswapRouter.sol\":3393:3398  _swap */\n      tag_114\n        /* \"contracts/KajuswapRouter.sol\":3393:3417  _swap(amounts, path, to) */\n      jump\t// in\n    tag_140:\n        /* \"contracts/KajuswapRouter.sol\":2646:3425  function swapExactTokensForTokens(... */\n      swap6\n      swap5\n      pop\n      pop\n      pop\n      pop\n      pop\n      jump\t// out\n        /* \"contracts/KajuswapRouter.sol\":506:523  address public PA */\n    tag_42:\n      0x01\n      0x00\n      swap1\n      sload\n      swap1\n      0x0100\n      exp\n      swap1\n      div\n      0xffffffffffffffffffffffffffffffffffffffff\n      and\n      dup2\n      jump\t// out\n        /* \"contracts/KajuswapRouter.sol\":7871:8110  function getAmountIn(... */\n    tag_46:\n        /* \"contracts/KajuswapRouter.sol\":8005:8021  uint256 amountIn */\n      0x00\n        /* \"contracts/KajuswapRouter.sol\":8041:8056  KajuswapLibrary */\n      linkerSymbol(\"18693c2782ae7b010cc3bd0449f436a78932852c600971ebfaa34cda17c779df\")\n        /* \"contracts/KajuswapRouter.sol\":8041:8068  KajuswapLibrary.getAmountIn */\n      0x85f8c259\n        /* \"contracts/KajuswapRouter.sol\":8069:8078  amountOut */\n      dup6\n        /* \"contracts/KajuswapRouter.sol\":8080:8089  reserveIn */\n      dup6\n        /* \"contracts/KajuswapRouter.sol\":8091:8101  reserveOut */\n      dup6\n        /* \"contracts/KajuswapRouter.sol\":8041:8102  KajuswapLibrary.getAmountIn(amountOut, reserveIn, reserveOut) */\n      mload(0x40)\n      dup5\n      0xffffffff\n      and\n      0xe0\n      shl\n      dup2\n      mstore\n      0x04\n      add\n      tag_142\n      swap4\n      swap3\n      swap2\n      swap1\n      tag_73\n      jump\t// in\n    tag_142:\n      0x20\n      mload(0x40)\n      dup1\n      dup4\n      sub\n      dup2\n      dup7\n      gas\n      delegatecall\n      iszero\n      dup1\n      iszero\n      tag_144\n      jumpi\n      returndatasize\n      0x00\n      dup1\n      returndatacopy\n      revert(0x00, returndatasize)\n    tag_144:\n      pop\n      pop\n      pop\n      pop\n      mload(0x40)\n      returndatasize\n      not(0x1f)\n      0x1f\n      dup3\n      add\n      and\n      dup3\n      add\n      dup1\n      0x40\n      mstore\n      pop\n      dup2\n      add\n      swap1\n      tag_145\n      swap2\n      swap1\n      tag_77\n      jump\t// in\n    tag_145:\n        /* \"contracts/KajuswapRouter.sol\":8034:8102  return KajuswapLibrary.getAmountIn(amountOut, reserveIn, reserveOut) */\n      swap1\n      pop\n        /* \"contracts/KajuswapRouter.sol\":7871:8110  function getAmountIn(... */\n      swap4\n      swap3\n      pop\n      pop\n      pop\n      jump\t// out\n        /* \"contracts/KajuswapRouter.sol\":7389:7615  function quote(... */\n    tag_50:\n        /* \"contracts/KajuswapRouter.sol\":7516:7533  uint256 amountOut */\n      0x00\n        /* \"contracts/KajuswapRouter.sol\":7553:7568  KajuswapLibrary */\n      linkerSymbol(\"18693c2782ae7b010cc3bd0449f436a78932852c600971ebfaa34cda17c779df\")\n        /* \"contracts/KajuswapRouter.sol\":7553:7574  KajuswapLibrary.quote */\n      0xad615dec\n        /* \"contracts/KajuswapRouter.sol\":7575:7583  amountIn */\n      dup6\n        /* \"contracts/KajuswapRouter.sol\":7585:7594  reserveIn */\n      dup6\n        /* \"contracts/KajuswapRouter.sol\":7596:7606  reserveOut */\n      dup6\n        /* \"contracts/KajuswapRouter.sol\":7553:7607  KajuswapLibrary.quote(amountIn, reserveIn, reserveOut) */\n      mload(0x40)\n      dup5\n      0xffffffff\n      and\n      0xe0\n      shl\n      dup2\n      mstore\n      0x04\n      add\n      tag_147\n      swap4\n      swap3\n      swap2\n      swap1\n      tag_73\n      jump\t// in\n    tag_147:\n      0x20\n      mload(0x40)\n      dup1\n      dup4\n      sub\n      dup2\n      dup7\n      gas\n      delegatecall\n      iszero\n      dup1\n      iszero\n      tag_149\n      jumpi\n      returndatasize\n      0x00\n      dup1\n      returndatacopy\n      revert(0x00, returndatasize)\n    tag_149:\n      pop\n      pop\n      pop\n      pop\n      mload(0x40)\n      returndatasize\n      not(0x1f)\n      0x1f\n      dup3\n      add\n      and\n      dup3\n      add\n      dup1\n      0x40\n      mstore\n      pop\n      dup2\n      add\n      swap1\n      tag_150\n      swap2\n      swap1\n      tag_77\n      jump\t// in\n    tag_150:\n        /* \"contracts/KajuswapRouter.sol\":7546:7607  return KajuswapLibrary.quote(amountIn, reserveIn, reserveOut) */\n      swap1\n      pop\n        /* \"contracts/KajuswapRouter.sol\":7389:7615  function quote(... */\n      swap4\n      swap3\n      pop\n      pop\n      pop\n      jump\t// out\n        /* \"contracts/KajuswapRouter.sol\":1784:2638  function removeLiquidity(... */\n    tag_55:\n        /* \"contracts/KajuswapRouter.sol\":1989:2004  uint256 amountA */\n      0x00\n        /* \"contracts/KajuswapRouter.sol\":2006:2021  uint256 amountB */\n      dup1\n        /* \"contracts/KajuswapRouter.sol\":2034:2046  address pair */\n      0x00\n        /* \"contracts/KajuswapRouter.sol\":2049:2156  KajuswapLibrary.pairFor(... */\n      tag_152\n        /* \"contracts/KajuswapRouter.sol\":2095:2102  factory */\n      0x00\n      dup1\n      sload\n      swap1\n      0x0100\n      exp\n      swap1\n      div\n      0xffffffffffffffffffffffffffffffffffffffff\n      and\n        /* \"contracts/KajuswapRouter.sol\":2118:2124  tokenA */\n      dup11\n        /* \"contracts/KajuswapRouter.sol\":2139:2145  tokenB */\n      dup11\n        /* \"contracts/KajuswapRouter.sol\":2049:2072  KajuswapLibrary.pairFor */\n      tag_109\n        /* \"contracts/KajuswapRouter.sol\":2049:2156  KajuswapLibrary.pairFor(... */\n      jump\t// in\n    tag_152:\n        /* \"contracts/KajuswapRouter.sol\":2034:2156  address pair = KajuswapLibrary.pairFor(... */\n      swap1\n      pop\n        /* \"contracts/KajuswapRouter.sol\":2181:2185  pair */\n      dup1\n        /* \"contracts/KajuswapRouter.sol\":2167:2199  IKajuswapPair(pair).transferFrom */\n      0xffffffffffffffffffffffffffffffffffffffff\n      and\n      0x23b872dd\n        /* \"contracts/KajuswapRouter.sol\":2200:2210  msg.sender */\n      caller\n        /* \"contracts/KajuswapRouter.sol\":2212:2216  pair */\n      dup4\n        /* \"contracts/KajuswapRouter.sol\":2218:2227  liquidity */\n      dup11\n        /* \"contracts/KajuswapRouter.sol\":2167:2228  IKajuswapPair(pair).transferFrom(msg.sender, pair, liquidity) */\n      mload(0x40)\n      dup5\n      0xffffffff\n      and\n      0xe0\n      shl\n      dup2\n      mstore\n      0x04\n      add\n      tag_153\n      swap4\n      swap3\n      swap2\n      swap1\n      tag_154\n      jump\t// in\n    tag_153:\n      0x20\n      mload(0x40)\n      dup1\n      dup4\n      sub\n      dup2\n      0x00\n      dup8\n      gas\n      call\n      iszero\n      dup1\n      iszero\n      tag_156\n      jumpi\n      returndatasize\n      0x00\n      dup1\n      returndatacopy\n      revert(0x00, returndatasize)\n    tag_156:\n      pop\n      pop\n      pop\n      pop\n      mload(0x40)\n      returndatasize\n      not(0x1f)\n      0x1f\n      dup3\n      add\n      and\n      dup3\n      add\n      dup1\n      0x40\n      mstore\n      pop\n      dup2\n      add\n      swap1\n      tag_157\n      swap2\n      swap1\n      tag_158\n      jump\t// in\n    tag_157:\n      pop\n        /* \"contracts/KajuswapRouter.sol\":2274:2278  pair */\n      dup1\n        /* \"contracts/KajuswapRouter.sol\":2260:2284  IKajuswapPair(pair).burn */\n      0xffffffffffffffffffffffffffffffffffffffff\n      and\n      0x89afcb44\n        /* \"contracts/KajuswapRouter.sol\":2285:2287  to */\n      dup6\n        /* \"contracts/KajuswapRouter.sol\":2260:2288  IKajuswapPair(pair).burn(to) */\n      mload(0x40)\n      dup3\n      0xffffffff\n      and\n      0xe0\n      shl\n      dup2\n      mstore\n      0x04\n      add\n      tag_159\n      swap2\n      swap1\n      tag_31\n      jump\t// in\n    tag_159:\n      0x40\n      dup1\n      mload\n      dup1\n      dup4\n      sub\n      dup2\n      0x00\n      dup8\n      gas\n      call\n      iszero\n      dup1\n      iszero\n      tag_161\n      jumpi\n      returndatasize\n      0x00\n      dup1\n      returndatacopy\n      revert(0x00, returndatasize)\n    tag_161:\n      pop\n      pop\n      pop\n      pop\n      mload(0x40)\n      returndatasize\n      not(0x1f)\n      0x1f\n      dup3\n      add\n      and\n      dup3\n      add\n      dup1\n      0x40\n      mstore\n      pop\n      dup2\n      add\n      swap1\n      tag_162\n      swap2\n      swap1\n      tag_163\n      jump\t// in\n    tag_162:\n        /* \"contracts/KajuswapRouter.sol\":2239:2288  (amountA, amountB) = IKajuswapPair(pair).burn(to) */\n      dup1\n      swap4\n      pop\n      dup2\n      swap5\n      pop\n      pop\n      pop\n        /* \"contracts/KajuswapRouter.sol\":2496:2506  amountAMin */\n      dup6\n        /* \"contracts/KajuswapRouter.sol\":2485:2492  amountA */\n      dup4\n        /* \"contracts/KajuswapRouter.sol\":2485:2506  amountA >= amountAMin */\n      lt\n      iszero\n        /* \"contracts/KajuswapRouter.sol\":2477:2548  require(amountA >= amountAMin, \"KajuswapRouter: INSUFFICIENT_A_AMOUNT\") */\n      tag_164\n      jumpi\n      mload(0x40)\n      0x08c379a000000000000000000000000000000000000000000000000000000000\n      dup2\n      mstore\n      0x04\n      add\n      tag_165\n      swap1\n      tag_166\n      jump\t// in\n    tag_165:\n      mload(0x40)\n      dup1\n      swap2\n      sub\n      swap1\n      revert\n    tag_164:\n        /* \"contracts/KajuswapRouter.sol\":2578:2588  amountBMin */\n      dup5\n        /* \"contracts/KajuswapRouter.sol\":2567:2574  amountB */\n      dup3\n        /* \"contracts/KajuswapRouter.sol\":2567:2588  amountB >= amountBMin */\n      lt\n      iszero\n        /* \"contracts/KajuswapRouter.sol\":2559:2630  require(amountB >= amountBMin, \"KajuswapRouter: INSUFFICIENT_B_AMOUNT\") */\n      tag_167\n      jumpi\n      mload(0x40)\n      0x08c379a000000000000000000000000000000000000000000000000000000000\n      dup2\n      mstore\n      0x04\n      add\n      tag_168\n      swap1\n      tag_169\n      jump\t// in\n    tag_168:\n      mload(0x40)\n      dup1\n      swap2\n      sub\n      swap1\n      revert\n    tag_167:\n        /* \"contracts/KajuswapRouter.sol\":2023:2638  {... */\n      pop\n        /* \"contracts/KajuswapRouter.sol\":1784:2638  function removeLiquidity(... */\n      swap7\n      pop\n      swap7\n      swap5\n      pop\n      pop\n      pop\n      pop\n      pop\n      jump\t// out\n        /* \"contracts/KajuswapRouter.sol\":683:1776  function addLiquidity(... */\n    tag_61:\n        /* \"contracts/KajuswapRouter.sol\":955:970  uint256 amountA */\n      0x00\n        /* \"contracts/KajuswapRouter.sol\":985:1000  uint256 amountB */\n      dup1\n        /* \"contracts/KajuswapRouter.sol\":1015:1032  uint256 liquidity */\n      0x00\n        /* \"contracts/KajuswapRouter.sol\":1105:1106  0 */\n      dup1\n        /* \"contracts/KajuswapRouter.sol\":1064:1107  factory.pairs(tokenA, tokenB) == address(0) */\n      0xffffffffffffffffffffffffffffffffffffffff\n      and\n        /* \"contracts/KajuswapRouter.sol\":1064:1071  factory */\n      0x00\n      dup1\n      sload\n      swap1\n      0x0100\n      exp\n      swap1\n      div\n      0xffffffffffffffffffffffffffffffffffffffff\n      and\n        /* \"contracts/KajuswapRouter.sol\":1064:1077  factory.pairs */\n      0xffffffffffffffffffffffffffffffffffffffff\n      and\n      0x69454b86\n        /* \"contracts/KajuswapRouter.sol\":1078:1084  tokenA */\n      dup13\n        /* \"contracts/KajuswapRouter.sol\":1086:1092  tokenB */\n      dup13\n        /* \"contracts/KajuswapRouter.sol\":1064:1093  factory.pairs(tokenA, tokenB) */\n      mload(0x40)\n      dup4\n      0xffffffff\n      and\n      0xe0\n      shl\n      dup2\n      mstore\n      0x04\n      add\n      tag_171\n      swap3\n      swap2\n      swap1\n      tag_172\n      jump\t// in\n    tag_171:\n      0x20\n      mload(0x40)\n      dup1\n      dup4\n      sub\n      dup2\n      dup7\n      gas\n      staticcall\n      iszero\n      dup1\n      iszero\n      tag_174\n      jumpi\n      returndatasize\n      0x00\n      dup1\n      returndatacopy\n      revert(0x00, returndatasize)\n    tag_174:\n      pop\n      pop\n      pop\n      pop\n      mload(0x40)\n      returndatasize\n      not(0x1f)\n      0x1f\n      dup3\n      add\n      and\n      dup3\n      add\n      dup1\n      0x40\n      mstore\n      pop\n      dup2\n      add\n      swap1\n      tag_175\n      swap2\n      swap1\n      tag_176\n      jump\t// in\n    tag_175:\n        /* \"contracts/KajuswapRouter.sol\":1064:1107  factory.pairs(tokenA, tokenB) == address(0) */\n      0xffffffffffffffffffffffffffffffffffffffff\n      and\n      sub\n        /* \"contracts/KajuswapRouter.sol\":1060:1170  if (factory.pairs(tokenA, tokenB) == address(0)) {... */\n      tag_177\n      jumpi\n        /* \"contracts/KajuswapRouter.sol\":1124:1131  factory */\n      0x00\n      dup1\n      sload\n      swap1\n      0x0100\n      exp\n      swap1\n      div\n      0xffffffffffffffffffffffffffffffffffffffff\n      and\n        /* \"contracts/KajuswapRouter.sol\":1124:1142  factory.createPair */\n      0xffffffffffffffffffffffffffffffffffffffff\n      and\n      0xc9c65396\n        /* \"contracts/KajuswapRouter.sol\":1143:1149  tokenA */\n      dup12\n        /* \"contracts/KajuswapRouter.sol\":1151:1157  tokenB */\n      dup12\n        /* \"contracts/KajuswapRouter.sol\":1124:1158  factory.createPair(tokenA, tokenB) */\n      mload(0x40)\n      dup4\n      0xffffffff\n      and\n      0xe0\n      shl\n      dup2\n      mstore\n      0x04\n      add\n      tag_178\n      swap3\n      swap2\n      swap1\n      tag_172\n      jump\t// in\n    tag_178:\n      0x20\n      mload(0x40)\n      dup1\n      dup4\n      sub\n      dup2\n      0x00\n      dup8\n      gas\n      call\n      iszero\n      dup1\n      iszero\n      tag_180\n      jumpi\n      returndatasize\n      0x00\n      dup1\n      returndatacopy\n      revert(0x00, returndatasize)\n    tag_180:\n      pop\n      pop\n      pop\n      pop\n      mload(0x40)\n      returndatasize\n      not(0x1f)\n      0x1f\n      dup3\n      add\n      and\n      dup3\n      add\n      dup1\n      0x40\n      mstore\n      pop\n      dup2\n      add\n      swap1\n      tag_181\n      swap2\n      swap1\n      tag_176\n      jump\t// in\n    tag_181:\n      pop\n        /* \"contracts/KajuswapRouter.sol\":1060:1170  if (factory.pairs(tokenA, tokenB) == address(0)) {... */\n    tag_177:\n        /* \"contracts/KajuswapRouter.sol\":1201:1381  _calculateLiquidity(... */\n      tag_182\n        /* \"contracts/KajuswapRouter.sol\":1235:1241  tokenA */\n      dup11\n        /* \"contracts/KajuswapRouter.sol\":1256:1262  tokenB */\n      dup11\n        /* \"contracts/KajuswapRouter.sol\":1277:1291  amountADesired */\n      dup11\n        /* \"contracts/KajuswapRouter.sol\":1306:1320  amountBDesired */\n      dup11\n        /* \"contracts/KajuswapRouter.sol\":1335:1345  amountAMin */\n      dup11\n        /* \"contracts/KajuswapRouter.sol\":1360:1370  amountBMin */\n      dup11\n        /* \"contracts/KajuswapRouter.sol\":1201:1220  _calculateLiquidity */\n      tag_183\n        /* \"contracts/KajuswapRouter.sol\":1201:1381  _calculateLiquidity(... */\n      jump\t// in\n    tag_182:\n        /* \"contracts/KajuswapRouter.sol\":1180:1381  (amountA, amountB) = _calculateLiquidity(... */\n      dup1\n      swap4\n      pop\n      dup2\n      swap5\n      pop\n      pop\n      pop\n        /* \"contracts/KajuswapRouter.sol\":1392:1411  address pairAddress */\n      0x00\n        /* \"contracts/KajuswapRouter.sol\":1414:1521  KajuswapLibrary.pairFor(... */\n      tag_184\n        /* \"contracts/KajuswapRouter.sol\":1460:1467  factory */\n      0x00\n      dup1\n      sload\n      swap1\n      0x0100\n      exp\n      swap1\n      div\n      0xffffffffffffffffffffffffffffffffffffffff\n      and\n        /* \"contracts/KajuswapRouter.sol\":1483:1489  tokenA */\n      dup13\n        /* \"contracts/KajuswapRouter.sol\":1504:1510  tokenB */\n      dup13\n        /* \"contracts/KajuswapRouter.sol\":1414:1437  KajuswapLibrary.pairFor */\n      tag_109\n        /* \"contracts/KajuswapRouter.sol\":1414:1521  KajuswapLibrary.pairFor(... */\n      jump\t// in\n    tag_184:\n        /* \"contracts/KajuswapRouter.sol\":1392:1521  address pairAddress = KajuswapLibrary.pairFor(... */\n      swap1\n      pop\n        /* \"contracts/KajuswapRouter.sol\":1539:1550  pairAddress */\n      dup1\n        /* \"contracts/KajuswapRouter.sol\":1534:1536  PA */\n      0x01\n      0x00\n        /* \"contracts/KajuswapRouter.sol\":1534:1550  PA = pairAddress */\n      0x0100\n      exp\n      dup2\n      sload\n      dup2\n      0xffffffffffffffffffffffffffffffffffffffff\n      mul\n      not\n      and\n      swap1\n      dup4\n      0xffffffffffffffffffffffffffffffffffffffff\n      and\n      mul\n      or\n      swap1\n      sstore\n      pop\n        /* \"contracts/KajuswapRouter.sol\":1565:1571  tokenA */\n      dup11\n        /* \"contracts/KajuswapRouter.sol\":1561:1562  A */\n      0x02\n      0x00\n        /* \"contracts/KajuswapRouter.sol\":1561:1571  A = tokenA */\n      0x0100\n      exp\n      dup2\n      sload\n      dup2\n      0xffffffffffffffffffffffffffffffffffffffff\n      mul\n      not\n      and\n      swap1\n      dup4\n      0xffffffffffffffffffffffffffffffffffffffff\n      and\n      mul\n      or\n      swap1\n      sstore\n      pop\n        /* \"contracts/KajuswapRouter.sol\":1586:1592  tokenB */\n      dup10\n        /* \"contracts/KajuswapRouter.sol\":1582:1583  B */\n      0x03\n      0x00\n        /* \"contracts/KajuswapRouter.sol\":1582:1592  B = tokenB */\n      0x0100\n      exp\n      dup2\n      sload\n      dup2\n      0xffffffffffffffffffffffffffffffffffffffff\n      mul\n      not\n      and\n      swap1\n      dup4\n      0xffffffffffffffffffffffffffffffffffffffff\n      and\n      mul\n      or\n      swap1\n      sstore\n      pop\n        /* \"contracts/KajuswapRouter.sol\":1605:1652  _safeTransferFrom(tokenA, pairAddress, amountA) */\n      tag_185\n        /* \"contracts/KajuswapRouter.sol\":1623:1629  tokenA */\n      dup12\n        /* \"contracts/KajuswapRouter.sol\":1631:1642  pairAddress */\n      dup3\n        /* \"contracts/KajuswapRouter.sol\":1644:1651  amountA */\n      dup7\n        /* \"contracts/KajuswapRouter.sol\":1605:1622  _safeTransferFrom */\n      tag_112\n        /* \"contracts/KajuswapRouter.sol\":1605:1652  _safeTransferFrom(tokenA, pairAddress, amountA) */\n      jump\t// in\n    tag_185:\n        /* \"contracts/KajuswapRouter.sol\":1663:1710  _safeTransferFrom(tokenB, pairAddress, amountB) */\n      tag_186\n        /* \"contracts/KajuswapRouter.sol\":1681:1687  tokenB */\n      dup11\n        /* \"contracts/KajuswapRouter.sol\":1689:1700  pairAddress */\n      dup3\n        /* \"contracts/KajuswapRouter.sol\":1702:1709  amountB */\n      dup6\n        /* \"contracts/KajuswapRouter.sol\":1663:1680  _safeTransferFrom */\n      tag_112\n        /* \"contracts/KajuswapRouter.sol\":1663:1710  _safeTransferFrom(tokenB, pairAddress, amountB) */\n      jump\t// in\n    tag_186:\n        /* \"contracts/KajuswapRouter.sol\":1747:1758  pairAddress */\n      dup1\n        /* \"contracts/KajuswapRouter.sol\":1733:1764  IKajuswapPair(pairAddress).mint */\n      0xffffffffffffffffffffffffffffffffffffffff\n      and\n      0x6a627842\n        /* \"contracts/KajuswapRouter.sol\":1765:1767  to */\n      dup7\n        /* \"contracts/KajuswapRouter.sol\":1733:1768  IKajuswapPair(pairAddress).mint(to) */\n      mload(0x40)\n      dup3\n      0xffffffff\n      and\n      0xe0\n      shl\n      dup2\n      mstore\n      0x04\n      add\n      tag_187\n      swap2\n      swap1\n      tag_31\n      jump\t// in\n    tag_187:\n      0x20\n      mload(0x40)\n      dup1\n      dup4\n      sub\n      dup2\n      0x00\n      dup8\n      gas\n      call\n      iszero\n      dup1\n      iszero\n      tag_189\n      jumpi\n      returndatasize\n      0x00\n      dup1\n      returndatacopy\n      revert(0x00, returndatasize)\n    tag_189:\n      pop\n      pop\n      pop\n      pop\n      mload(0x40)\n      returndatasize\n      not(0x1f)\n      0x1f\n      dup3\n      add\n      and\n      dup3\n      add\n      dup1\n      0x40\n      mstore\n      pop\n      dup2\n      add\n      swap1\n      tag_190\n      swap2\n      swap1\n      tag_77\n      jump\t// in\n    tag_190:\n        /* \"contracts/KajuswapRouter.sol\":1721:1768  liquidity = IKajuswapPair(pairAddress).mint(to) */\n      swap2\n      pop\n        /* \"contracts/KajuswapRouter.sol\":1049:1776  {... */\n      pop\n        /* \"contracts/KajuswapRouter.sol\":683:1776  function addLiquidity(... */\n      swap8\n      pop\n      swap8\n      pop\n      swap8\n      swap5\n      pop\n      pop\n      pop\n      pop\n      pop\n      jump\t// out\n        /* \"contracts/KajuswapRouter.sol\":8118:8336  function getAmountsOut(uint256 amountIn, address[] memory path)... */\n    tag_66:\n        /* \"contracts/KajuswapRouter.sol\":8216:8240  uint256[] memory amounts */\n      0x60\n        /* \"contracts/KajuswapRouter.sol\":8265:8280  KajuswapLibrary */\n      linkerSymbol(\"18693c2782ae7b010cc3bd0449f436a78932852c600971ebfaa34cda17c779df\")\n        /* \"contracts/KajuswapRouter.sol\":8265:8294  KajuswapLibrary.getAmountsOut */\n      0xbb7b9c76\n        /* \"contracts/KajuswapRouter.sol\":8303:8310  factory */\n      0x00\n      dup1\n      sload\n      swap1\n      0x0100\n      exp\n      swap1\n      div\n      0xffffffffffffffffffffffffffffffffffffffff\n      and\n        /* \"contracts/KajuswapRouter.sol\":8313:8321  amountIn */\n      dup6\n        /* \"contracts/KajuswapRouter.sol\":8323:8327  path */\n      dup6\n        /* \"contracts/KajuswapRouter.sol\":8265:8328  KajuswapLibrary.getAmountsOut(address(factory), amountIn, path) */\n      mload(0x40)\n      dup5\n      0xffffffff\n      and\n      0xe0\n      shl\n      dup2\n      mstore\n      0x04\n      add\n      tag_192\n      swap4\n      swap3\n      swap2\n      swap1\n      tag_80\n      jump\t// in\n    tag_192:\n      0x00\n      mload(0x40)\n      dup1\n      dup4\n      sub\n      dup2\n      dup7\n      gas\n      delegatecall\n      iszero\n      dup1\n      iszero\n      tag_194\n      jumpi\n      returndatasize\n      0x00\n      dup1\n      returndatacopy\n      revert(0x00, returndatasize)\n    tag_194:\n      pop\n      pop\n      pop\n      pop\n      mload(0x40)\n      returndatasize\n      0x00\n      dup3\n      returndatacopy\n      returndatasize\n      not(0x1f)\n      0x1f\n      dup3\n      add\n      and\n      dup3\n      add\n      dup1\n      0x40\n      mstore\n      pop\n      dup2\n      add\n      swap1\n      tag_195\n      swap2\n      swap1\n      tag_84\n      jump\t// in\n    tag_195:\n        /* \"contracts/KajuswapRouter.sol\":8258:8328  return KajuswapLibrary.getAmountsOut(address(factory), amountIn, path) */\n      swap1\n      pop\n        /* \"contracts/KajuswapRouter.sol\":8118:8336  function getAmountsOut(uint256 amountIn, address[] memory path)... */\n      swap3\n      swap2\n      pop\n      pop\n      jump\t// out\n        /* \"contracts/KajuswapRouter.sol\":530:546  address public A */\n    tag_69:\n      0x02\n      0x00\n      swap1\n      sload\n      swap1\n      0x0100\n      exp\n      swap1\n      div\n      0xffffffffffffffffffffffffffffffffffffffff\n      and\n      dup2\n      jump\t// out\n        /* \"contracts/KajuswapLibrary.sol\":1545:2498  function pairFor(... */\n    tag_109:\n        /* \"contracts/KajuswapLibrary.sol\":1675:1694  address pairAddress */\n      0x00\n        /* \"contracts/KajuswapLibrary.sol\":1708:1722  address token0 */\n      dup1\n        /* \"contracts/KajuswapLibrary.sol\":1724:1738  address token1 */\n      0x00\n        /* \"contracts/KajuswapLibrary.sol\":1742:1768  sortTokens(tokenA, tokenB) */\n      tag_197\n        /* \"contracts/KajuswapLibrary.sol\":1753:1759  tokenA */\n      dup6\n        /* \"contracts/KajuswapLibrary.sol\":1761:1767  tokenB */\n      dup6\n        /* \"contracts/KajuswapLibrary.sol\":1742:1752  sortTokens */\n      tag_198\n        /* \"contracts/KajuswapLibrary.sol\":1742:1768  sortTokens(tokenA, tokenB) */\n      jump\t// in\n    tag_197:\n        /* \"contracts/KajuswapLibrary.sol\":1707:1768  (address token0, address token1) = sortTokens(tokenA, tokenB) */\n      swap2\n      pop\n      swap2\n      pop\n        /* \"contracts/KajuswapLibrary.sol\":2165:2179  factoryAddress */\n      dup6\n        /* \"contracts/KajuswapLibrary.sol\":2237:2243  token0 */\n      dup3\n        /* \"contracts/KajuswapLibrary.sol\":2245:2251  token1 */\n      dup3\n        /* \"contracts/KajuswapLibrary.sol\":2220:2252  abi.encodePacked(token0, token1) */\n      add(0x20, mload(0x40))\n      tag_199\n      swap3\n      swap2\n      swap1\n      tag_200\n      jump\t// in\n    tag_199:\n      mload(0x40)\n      0x20\n      dup2\n      dup4\n      sub\n      sub\n      dup2\n      mstore\n      swap1\n      0x40\n      mstore\n        /* \"contracts/KajuswapLibrary.sol\":2210:2253  keccak256(abi.encodePacked(token0, token1)) */\n      dup1\n      mload\n      swap1\n      0x20\n      add\n      keccak256\n        /* \"contracts/KajuswapLibrary.sol\":2080:2422  abi.encodePacked(... */\n      add(0x20, mload(0x40))\n      tag_201\n      swap3\n      swap2\n      swap1\n      tag_202\n      jump\t// in\n    tag_201:\n      mload(0x40)\n      0x20\n      dup2\n      dup4\n      sub\n      sub\n      dup2\n      mstore\n      swap1\n      0x40\n      mstore\n        /* \"contracts/KajuswapLibrary.sol\":2044:2445  keccak256(... */\n      dup1\n      mload\n      swap1\n      0x20\n      add\n      keccak256\n        /* \"contracts/KajuswapLibrary.sol\":2014:2464  uint256(... */\n      0x00\n      shr\n        /* \"contracts/KajuswapLibrary.sol\":1952:2490  pairAddress = address(... */\n      swap3\n      pop\n        /* \"contracts/KajuswapLibrary.sol\":1696:2498  {... */\n      pop\n      pop\n        /* \"contracts/KajuswapLibrary.sol\":1545:2498  function pairFor(... */\n      swap4\n      swap3\n      pop\n      pop\n      pop\n      jump\t// out\n        /* \"contracts/KajuswapRouter.sol\":6776:7314  function _safeTransferFrom(... */\n    tag_112:\n        /* \"contracts/KajuswapRouter.sol\":6899:6911  bool success */\n      0x00\n        /* \"contracts/KajuswapRouter.sol\":6913:6930  bytes memory data */\n      dup1\n        /* \"contracts/KajuswapRouter.sol\":6934:6939  token */\n      dup5\n        /* \"contracts/KajuswapRouter.sol\":6934:6944  token.call */\n      0xffffffffffffffffffffffffffffffffffffffff\n      and\n        /* \"contracts/KajuswapRouter.sol\":6999:7033  bytes('transfer(address,uint256)') */\n      mload(0x40)\n      dup1\n      0x40\n      add\n      0x40\n      mstore\n      dup1\n      0x19\n      dup2\n      mstore\n      0x20\n      add\n      0x7472616e7366657228616464726573732c75696e743235362900000000000000\n      dup2\n      mstore\n      pop\n        /* \"contracts/KajuswapRouter.sol\":6989:7034  keccak256(bytes('transfer(address,uint256)')) */\n      dup1\n      mload\n      swap1\n      0x20\n      add\n      keccak256\n        /* \"contracts/KajuswapRouter.sol\":7037:7039  to */\n      dup6\n        /* \"contracts/KajuswapRouter.sol\":7041:7046  value */\n      dup6\n        /* \"contracts/KajuswapRouter.sol\":6959:7047  abi.encodeWithSelector(bytes4(keccak256(bytes('transfer(address,uint256)'))), to, value) */\n      add(0x24, mload(0x40))\n      tag_204\n      swap3\n      swap2\n      swap1\n      tag_205\n      jump\t// in\n    tag_204:\n      mload(0x40)\n      0x20\n      dup2\n      dup4\n      sub\n      sub\n      dup2\n      mstore\n      swap1\n      0x40\n      mstore\n      swap1\n      not(0xffffffffffffffffffffffffffffffffffffffffffffffffffffffff)\n      and\n      0x20\n      dup3\n      add\n      dup1\n      mload\n      0xffffffffffffffffffffffffffffffffffffffffffffffffffffffff\n      dup4\n      dup2\n      dup4\n      and\n      or\n      dup4\n      mstore\n      pop\n      pop\n      pop\n      pop\n        /* \"contracts/KajuswapRouter.sol\":6934:7058  token.call(... */\n      mload(0x40)\n      tag_206\n      swap2\n      swap1\n      tag_207\n      jump\t// in\n    tag_206:\n      0x00\n      mload(0x40)\n      dup1\n      dup4\n      sub\n      dup2\n      0x00\n      dup7\n      gas\n      call\n      swap2\n      pop\n      pop\n      returndatasize\n      dup1\n      0x00\n      dup2\n      eq\n      tag_210\n      jumpi\n      mload(0x40)\n      swap2\n      pop\n      and(add(returndatasize, 0x3f), not(0x1f))\n      dup3\n      add\n      0x40\n      mstore\n      returndatasize\n      dup3\n      mstore\n      returndatasize\n      0x00\n      0x20\n      dup5\n      add\n      returndatacopy\n      jump(tag_209)\n    tag_210:\n      0x60\n      swap2\n      pop\n    tag_209:\n      pop\n        /* \"contracts/KajuswapRouter.sol\":6898:7058  (bool success, bytes memory data) = token.call(... */\n      swap2\n      pop\n      swap2\n      pop\n        /* \"contracts/KajuswapRouter.sol\":7219:7226  success */\n      dup2\n        /* \"contracts/KajuswapRouter.sol\":7219:7276  success && (data.length == 0 || abi.decode(data, (bool))) */\n      dup1\n      iszero\n      tag_211\n      jumpi\n      pop\n        /* \"contracts/KajuswapRouter.sol\":7246:7247  0 */\n      0x00\n        /* \"contracts/KajuswapRouter.sol\":7231:7235  data */\n      dup2\n        /* \"contracts/KajuswapRouter.sol\":7231:7242  data.length */\n      mload\n        /* \"contracts/KajuswapRouter.sol\":7231:7247  data.length == 0 */\n      eq\n        /* \"contracts/KajuswapRouter.sol\":7231:7275  data.length == 0 || abi.decode(data, (bool)) */\n      dup1\n      tag_212\n      jumpi\n      pop\n        /* \"contracts/KajuswapRouter.sol\":7262:7266  data */\n      dup1\n        /* \"contracts/KajuswapRouter.sol\":7251:7275  abi.decode(data, (bool)) */\n      dup1\n      0x20\n      add\n      swap1\n      mload\n      dup2\n      add\n      swap1\n      tag_213\n      swap2\n      swap1\n      tag_158\n      jump\t// in\n    tag_213:\n        /* \"contracts/KajuswapRouter.sol\":7231:7275  data.length == 0 || abi.decode(data, (bool)) */\n    tag_212:\n        /* \"contracts/KajuswapRouter.sol\":7219:7276  success && (data.length == 0 || abi.decode(data, (bool))) */\n    tag_211:\n        /* \"contracts/KajuswapRouter.sol\":7211:7306  require(success && (data.length == 0 || abi.decode(data, (bool))), \"Kajuswap: TRANSFER_FAILED\") */\n      tag_214\n      jumpi\n      mload(0x40)\n      0x08c379a000000000000000000000000000000000000000000000000000000000\n      dup2\n      mstore\n      0x04\n      add\n      tag_215\n      swap1\n      tag_216\n      jump\t// in\n    tag_215:\n      mload(0x40)\n      dup1\n      swap2\n      sub\n      swap1\n      revert\n    tag_214:\n        /* \"contracts/KajuswapRouter.sol\":6887:7314  {... */\n      pop\n      pop\n        /* \"contracts/KajuswapRouter.sol\":6776:7314  function _safeTransferFrom(... */\n      pop\n      pop\n      pop\n      jump\t// out\n        /* \"contracts/KajuswapRouter.sol\":4256:5111  function _swap(... */\n    tag_114:\n        /* \"contracts/KajuswapRouter.sol\":4392:4401  uint256 i */\n      0x00\n        /* \"contracts/KajuswapRouter.sol\":4387:5104  for (uint256 i = 0; i < path.length - 1; i++) {... */\n    tag_218:\n        /* \"contracts/KajuswapRouter.sol\":4425:4426  1 */\n      0x01\n        /* \"contracts/KajuswapRouter.sol\":4411:4415  path */\n      dup4\n        /* \"contracts/KajuswapRouter.sol\":4411:4422  path.length */\n      mload\n        /* \"contracts/KajuswapRouter.sol\":4411:4426  path.length - 1 */\n      tag_221\n      swap2\n      swap1\n      tag_121\n      jump\t// in\n    tag_221:\n        /* \"contracts/KajuswapRouter.sol\":4407:4408  i */\n      dup2\n        /* \"contracts/KajuswapRouter.sol\":4407:4426  i < path.length - 1 */\n      lt\n        /* \"contracts/KajuswapRouter.sol\":4387:5104  for (uint256 i = 0; i < path.length - 1; i++) {... */\n      iszero\n      tag_219\n      jumpi\n        /* \"contracts/KajuswapRouter.sol\":4449:4462  address input */\n      0x00\n        /* \"contracts/KajuswapRouter.sol\":4464:4478  address output */\n      dup1\n        /* \"contracts/KajuswapRouter.sol\":4483:4487  path */\n      dup5\n        /* \"contracts/KajuswapRouter.sol\":4488:4489  i */\n      dup4\n        /* \"contracts/KajuswapRouter.sol\":4483:4490  path[i] */\n      dup2\n      mload\n      dup2\n      lt\n      tag_222\n      jumpi\n      tag_223\n      tag_93\n      jump\t// in\n    tag_223:\n    tag_222:\n      0x20\n      mul\n      0x20\n      add\n      add\n      mload\n        /* \"contracts/KajuswapRouter.sol\":4492:4496  path */\n      dup6\n        /* \"contracts/KajuswapRouter.sol\":4501:4502  1 */\n      0x01\n        /* \"contracts/KajuswapRouter.sol\":4497:4498  i */\n      dup6\n        /* \"contracts/KajuswapRouter.sol\":4497:4502  i + 1 */\n      tag_224\n      swap2\n      swap1\n      tag_225\n      jump\t// in\n    tag_224:\n        /* \"contracts/KajuswapRouter.sol\":4492:4503  path[i + 1] */\n      dup2\n      mload\n      dup2\n      lt\n      tag_226\n      jumpi\n      tag_227\n      tag_93\n      jump\t// in\n    tag_227:\n    tag_226:\n      0x20\n      mul\n      0x20\n      add\n      add\n      mload\n        /* \"contracts/KajuswapRouter.sol\":4448:4504  (address input, address output) = (path[i], path[i + 1]) */\n      swap2\n      pop\n      swap2\n      pop\n        /* \"contracts/KajuswapRouter.sol\":4520:4534  address token0 */\n      0x00\n        /* \"contracts/KajuswapRouter.sol\":4540:4581  KajuswapLibrary.sortTokens(input, output) */\n      tag_228\n        /* \"contracts/KajuswapRouter.sol\":4567:4572  input */\n      dup4\n        /* \"contracts/KajuswapRouter.sol\":4574:4580  output */\n      dup4\n        /* \"contracts/KajuswapRouter.sol\":4540:4566  KajuswapLibrary.sortTokens */\n      tag_198\n        /* \"contracts/KajuswapRouter.sol\":4540:4581  KajuswapLibrary.sortTokens(input, output) */\n      jump\t// in\n    tag_228:\n        /* \"contracts/KajuswapRouter.sol\":4519:4581  (address token0, ) = KajuswapLibrary.sortTokens(input, output) */\n      pop\n      swap1\n      pop\n        /* \"contracts/KajuswapRouter.sol\":4596:4613  uint256 amountOut */\n      0x00\n        /* \"contracts/KajuswapRouter.sol\":4616:4623  amounts */\n      dup8\n        /* \"contracts/KajuswapRouter.sol\":4628:4629  1 */\n      0x01\n        /* \"contracts/KajuswapRouter.sol\":4624:4625  i */\n      dup7\n        /* \"contracts/KajuswapRouter.sol\":4624:4629  i + 1 */\n      tag_229\n      swap2\n      swap1\n      tag_225\n      jump\t// in\n    tag_229:\n        /* \"contracts/KajuswapRouter.sol\":4616:4630  amounts[i + 1] */\n      dup2\n      mload\n      dup2\n      lt\n      tag_230\n      jumpi\n      tag_231\n      tag_93\n      jump\t// in\n    tag_231:\n    tag_230:\n      0x20\n      mul\n      0x20\n      add\n      add\n      mload\n        /* \"contracts/KajuswapRouter.sol\":4596:4630  uint256 amountOut = amounts[i + 1] */\n      swap1\n      pop\n        /* \"contracts/KajuswapRouter.sol\":4646:4664  uint256 amount0Out */\n      0x00\n        /* \"contracts/KajuswapRouter.sol\":4666:4684  uint256 amount1Out */\n      dup1\n        /* \"contracts/KajuswapRouter.sol\":4697:4703  token0 */\n      dup4\n        /* \"contracts/KajuswapRouter.sol\":4688:4703  input == token0 */\n      0xffffffffffffffffffffffffffffffffffffffff\n      and\n        /* \"contracts/KajuswapRouter.sol\":4688:4693  input */\n      dup7\n        /* \"contracts/KajuswapRouter.sol\":4688:4703  input == token0 */\n      0xffffffffffffffffffffffffffffffffffffffff\n      and\n      eq\n        /* \"contracts/KajuswapRouter.sol\":4688:4789  input == token0... */\n      tag_232\n      jumpi\n        /* \"contracts/KajuswapRouter.sol\":4767:4776  amountOut */\n      dup3\n        /* \"contracts/KajuswapRouter.sol\":4786:4787  0 */\n      0x00\n        /* \"contracts/KajuswapRouter.sol\":4688:4789  input == token0... */\n      jump(tag_233)\n    tag_232:\n        /* \"contracts/KajuswapRouter.sol\":4732:4733  0 */\n      0x00\n        /* \"contracts/KajuswapRouter.sol\":4736:4745  amountOut */\n      dup4\n        /* \"contracts/KajuswapRouter.sol\":4688:4789  input == token0... */\n    tag_233:\n        /* \"contracts/KajuswapRouter.sol\":4645:4789  (uint256 amount0Out, uint256 amount1Out) = input == token0... */\n      swap2\n      pop\n      swap2\n      pop\n        /* \"contracts/KajuswapRouter.sol\":4804:4814  address to */\n      0x00\n        /* \"contracts/KajuswapRouter.sol\":4835:4836  2 */\n      0x02\n        /* \"contracts/KajuswapRouter.sol\":4821:4825  path */\n      dup11\n        /* \"contracts/KajuswapRouter.sol\":4821:4832  path.length */\n      mload\n        /* \"contracts/KajuswapRouter.sol\":4821:4836  path.length - 2 */\n      tag_234\n      swap2\n      swap1\n      tag_121\n      jump\t// in\n    tag_234:\n        /* \"contracts/KajuswapRouter.sol\":4817:4818  i */\n      dup9\n        /* \"contracts/KajuswapRouter.sol\":4817:4836  i < path.length - 2 */\n      lt\n        /* \"contracts/KajuswapRouter.sol\":4817:4941  i < path.length - 2... */\n      tag_235\n      jumpi\n        /* \"contracts/KajuswapRouter.sol\":4938:4941  to_ */\n      dup9\n        /* \"contracts/KajuswapRouter.sol\":4817:4941  i < path.length - 2... */\n      jump(tag_236)\n    tag_235:\n        /* \"contracts/KajuswapRouter.sol\":4856:4918  KajuswapLibrary.pairFor(address(factory), output, path[i + 2]) */\n      tag_237\n        /* \"contracts/KajuswapRouter.sol\":4888:4895  factory */\n      0x00\n      dup1\n      sload\n      swap1\n      0x0100\n      exp\n      swap1\n      div\n      0xffffffffffffffffffffffffffffffffffffffff\n      and\n        /* \"contracts/KajuswapRouter.sol\":4898:4904  output */\n      dup8\n        /* \"contracts/KajuswapRouter.sol\":4906:4910  path */\n      dup13\n        /* \"contracts/KajuswapRouter.sol\":4915:4916  2 */\n      0x02\n        /* \"contracts/KajuswapRouter.sol\":4911:4912  i */\n      dup13\n        /* \"contracts/KajuswapRouter.sol\":4911:4916  i + 2 */\n      tag_238\n      swap2\n      swap1\n      tag_225\n      jump\t// in\n    tag_238:\n        /* \"contracts/KajuswapRouter.sol\":4906:4917  path[i + 2] */\n      dup2\n      mload\n      dup2\n      lt\n      tag_239\n      jumpi\n      tag_240\n      tag_93\n      jump\t// in\n    tag_240:\n    tag_239:\n      0x20\n      mul\n      0x20\n      add\n      add\n      mload\n        /* \"contracts/KajuswapRouter.sol\":4856:4879  KajuswapLibrary.pairFor */\n      tag_109\n        /* \"contracts/KajuswapRouter.sol\":4856:4918  KajuswapLibrary.pairFor(address(factory), output, path[i + 2]) */\n      jump\t// in\n    tag_237:\n        /* \"contracts/KajuswapRouter.sol\":4817:4941  i < path.length - 2... */\n    tag_236:\n        /* \"contracts/KajuswapRouter.sol\":4804:4941  address to = i < path.length - 2... */\n      swap1\n      pop\n        /* \"contracts/KajuswapRouter.sol\":4988:5044  KajuswapLibrary.pairFor(address(factory), input, output) */\n      tag_241\n        /* \"contracts/KajuswapRouter.sol\":5020:5027  factory */\n      0x00\n      dup1\n      sload\n      swap1\n      0x0100\n      exp\n      swap1\n      div\n      0xffffffffffffffffffffffffffffffffffffffff\n      and\n        /* \"contracts/KajuswapRouter.sol\":5030:5035  input */\n      dup9\n        /* \"contracts/KajuswapRouter.sol\":5037:5043  output */\n      dup9\n        /* \"contracts/KajuswapRouter.sol\":4988:5011  KajuswapLibrary.pairFor */\n      tag_109\n        /* \"contracts/KajuswapRouter.sol\":4988:5044  KajuswapLibrary.pairFor(address(factory), input, output) */\n      jump\t// in\n    tag_241:\n        /* \"contracts/KajuswapRouter.sol\":4956:5064  IKajuswapPair(... */\n      0xffffffffffffffffffffffffffffffffffffffff\n      and\n      0x6d9a640a\n        /* \"contracts/KajuswapRouter.sol\":5065:5075  amount0Out */\n      dup5\n        /* \"contracts/KajuswapRouter.sol\":5077:5087  amount1Out */\n      dup5\n        /* \"contracts/KajuswapRouter.sol\":5089:5091  to */\n      dup5\n        /* \"contracts/KajuswapRouter.sol\":4956:5092  IKajuswapPair(... */\n      mload(0x40)\n      dup5\n      0xffffffff\n      and\n      0xe0\n      shl\n      dup2\n      mstore\n      0x04\n      add\n      tag_242\n      swap4\n      swap3\n      swap2\n      swap1\n      tag_243\n      jump\t// in\n    tag_242:\n      0x00\n      mload(0x40)\n      dup1\n      dup4\n      sub\n      dup2\n      0x00\n      dup8\n      dup1\n      extcodesize\n      iszero\n      dup1\n      iszero\n      tag_244\n      jumpi\n      0x00\n      dup1\n      revert\n    tag_244:\n      pop\n      gas\n      call\n      iszero\n      dup1\n      iszero\n      tag_246\n      jumpi\n      returndatasize\n      0x00\n      dup1\n      returndatacopy\n      revert(0x00, returndatasize)\n    tag_246:\n      pop\n      pop\n      pop\n      pop\n        /* \"contracts/KajuswapRouter.sol\":4433:5104  {... */\n      pop\n      pop\n      pop\n      pop\n      pop\n      pop\n      pop\n        /* \"contracts/KajuswapRouter.sol\":4428:4431  i++ */\n      dup1\n      dup1\n      tag_247\n      swap1\n      tag_248\n      jump\t// in\n    tag_247:\n      swap2\n      pop\n      pop\n        /* \"contracts/KajuswapRouter.sol\":4387:5104  for (uint256 i = 0; i < path.length - 1; i++) {... */\n      jump(tag_218)\n    tag_219:\n      pop\n        /* \"contracts/KajuswapRouter.sol\":4256:5111  function _swap(... */\n      pop\n      pop\n      pop\n      jump\t// out\n        /* \"contracts/KajuswapRouter.sol\":5119:6768  function _calculateLiquidity(... */\n    tag_183:\n        /* \"contracts/KajuswapRouter.sol\":5347:5362  uint256 amountA */\n      0x00\n        /* \"contracts/KajuswapRouter.sol\":5364:5379  uint256 amountB */\n      dup1\n        /* \"contracts/KajuswapRouter.sol\":5393:5409  uint256 reserveA */\n      0x00\n        /* \"contracts/KajuswapRouter.sol\":5411:5427  uint256 reserveB */\n      dup1\n        /* \"contracts/KajuswapRouter.sol\":5431:5446  KajuswapLibrary */\n      linkerSymbol(\"18693c2782ae7b010cc3bd0449f436a78932852c600971ebfaa34cda17c779df\")\n        /* \"contracts/KajuswapRouter.sol\":5431:5458  KajuswapLibrary.getReserves */\n      0x32749461\n        /* \"contracts/KajuswapRouter.sol\":5481:5488  factory */\n      0x00\n      dup1\n      sload\n      swap1\n      0x0100\n      exp\n      swap1\n      div\n      0xffffffffffffffffffffffffffffffffffffffff\n      and\n        /* \"contracts/KajuswapRouter.sol\":5504:5510  tokenA */\n      dup13\n        /* \"contracts/KajuswapRouter.sol\":5525:5531  tokenB */\n      dup13\n        /* \"contracts/KajuswapRouter.sol\":5431:5542  KajuswapLibrary.getReserves(... */\n      mload(0x40)\n      dup5\n      0xffffffff\n      and\n      0xe0\n      shl\n      dup2\n      mstore\n      0x04\n      add\n      tag_250\n      swap4\n      swap3\n      swap2\n      swap1\n      tag_251\n      jump\t// in\n    tag_250:\n      0x40\n      dup1\n      mload\n      dup1\n      dup4\n      sub\n      dup2\n      dup7\n      gas\n      delegatecall\n      iszero\n      dup1\n      iszero\n      tag_253\n      jumpi\n      returndatasize\n      0x00\n      dup1\n      returndatacopy\n      revert(0x00, returndatasize)\n    tag_253:\n      pop\n      pop\n      pop\n      pop\n      mload(0x40)\n      returndatasize\n      not(0x1f)\n      0x1f\n      dup3\n      add\n      and\n      dup3\n      add\n      dup1\n      0x40\n      mstore\n      pop\n      dup2\n      add\n      swap1\n      tag_254\n      swap2\n      swap1\n      tag_163\n      jump\t// in\n    tag_254:\n        /* \"contracts/KajuswapRouter.sol\":5392:5542  (uint256 reserveA, uint256 reserveB) = KajuswapLibrary.getReserves(... */\n      swap2\n      pop\n      swap2\n      pop\n        /* \"contracts/KajuswapRouter.sol\":5571:5572  0 */\n      0x00\n        /* \"contracts/KajuswapRouter.sol\":5559:5567  reserveA */\n      dup3\n        /* \"contracts/KajuswapRouter.sol\":5559:5572  reserveA == 0 */\n      eq\n        /* \"contracts/KajuswapRouter.sol\":5559:5589  reserveA == 0 && reserveB == 0 */\n      dup1\n      iszero\n      tag_255\n      jumpi\n      pop\n        /* \"contracts/KajuswapRouter.sol\":5588:5589  0 */\n      0x00\n        /* \"contracts/KajuswapRouter.sol\":5576:5584  reserveB */\n      dup2\n        /* \"contracts/KajuswapRouter.sol\":5576:5589  reserveB == 0 */\n      eq\n        /* \"contracts/KajuswapRouter.sol\":5559:5589  reserveA == 0 && reserveB == 0 */\n    tag_255:\n        /* \"contracts/KajuswapRouter.sol\":5555:6761  if (reserveA == 0 && reserveB == 0) {... */\n      iszero\n      tag_256\n      jumpi\n        /* \"contracts/KajuswapRouter.sol\":5628:5642  amountADesired */\n      dup8\n        /* \"contracts/KajuswapRouter.sol\":5644:5658  amountBDesired */\n      dup8\n        /* \"contracts/KajuswapRouter.sol\":5606:5659  (amountA, amountB) = (amountADesired, amountBDesired) */\n      dup1\n      swap5\n      pop\n      dup2\n      swap6\n      pop\n      pop\n      pop\n        /* \"contracts/KajuswapRouter.sol\":5555:6761  if (reserveA == 0 && reserveB == 0) {... */\n      jump(tag_257)\n    tag_256:\n        /* \"contracts/KajuswapRouter.sol\":5692:5714  uint256 amountBOptimal */\n      0x00\n        /* \"contracts/KajuswapRouter.sol\":5717:5732  KajuswapLibrary */\n      linkerSymbol(\"18693c2782ae7b010cc3bd0449f436a78932852c600971ebfaa34cda17c779df\")\n        /* \"contracts/KajuswapRouter.sol\":5717:5738  KajuswapLibrary.quote */\n      0xad615dec\n        /* \"contracts/KajuswapRouter.sol\":5757:5771  amountADesired */\n      dup11\n        /* \"contracts/KajuswapRouter.sol\":5790:5798  reserveA */\n      dup6\n        /* \"contracts/KajuswapRouter.sol\":5817:5825  reserveB */\n      dup6\n        /* \"contracts/KajuswapRouter.sol\":5717:5840  KajuswapLibrary.quote(... */\n      mload(0x40)\n      dup5\n      0xffffffff\n      and\n      0xe0\n      shl\n      dup2\n      mstore\n      0x04\n      add\n      tag_258\n      swap4\n      swap3\n      swap2\n      swap1\n      tag_73\n      jump\t// in\n    tag_258:\n      0x20\n      mload(0x40)\n      dup1\n      dup4\n      sub\n      dup2\n      dup7\n      gas\n      delegatecall\n      iszero\n      dup1\n      iszero\n      tag_260\n      jumpi\n      returndatasize\n      0x00\n      dup1\n      returndatacopy\n      revert(0x00, returndatasize)\n    tag_260:\n      pop\n      pop\n      pop\n      pop\n      mload(0x40)\n      returndatasize\n      not(0x1f)\n      0x1f\n      dup3\n      add\n      and\n      dup3\n      add\n      dup1\n      0x40\n      mstore\n      pop\n      dup2\n      add\n      swap1\n      tag_261\n      swap2\n      swap1\n      tag_77\n      jump\t// in\n    tag_261:\n        /* \"contracts/KajuswapRouter.sol\":5692:5840  uint256 amountBOptimal = KajuswapLibrary.quote(... */\n      swap1\n      pop\n        /* \"contracts/KajuswapRouter.sol\":5904:5918  amountBDesired */\n      dup8\n        /* \"contracts/KajuswapRouter.sol\":5886:5900  amountBOptimal */\n      dup2\n        /* \"contracts/KajuswapRouter.sol\":5886:5918  amountBOptimal <= amountBDesired */\n      gt\n        /* \"contracts/KajuswapRouter.sol\":5882:6750  if (amountBOptimal <= amountBDesired) {... */\n      tag_262\n      jumpi\n        /* \"contracts/KajuswapRouter.sol\":6070:6080  amountBMin */\n      dup6\n        /* \"contracts/KajuswapRouter.sol\":6052:6066  amountBOptimal */\n      dup2\n        /* \"contracts/KajuswapRouter.sol\":6052:6080  amountBOptimal >= amountBMin */\n      lt\n      iszero\n        /* \"contracts/KajuswapRouter.sol\":6044:6122  require(amountBOptimal >= amountBMin, \"KajuswapRouter: INSUFFICIENT_B_AMOUNT\") */\n      tag_263\n      jumpi\n      mload(0x40)\n      0x08c379a000000000000000000000000000000000000000000000000000000000\n      dup2\n      mstore\n      0x04\n      add\n      tag_264\n      swap1\n      tag_169\n      jump\t// in\n    tag_264:\n      mload(0x40)\n      dup1\n      swap2\n      sub\n      swap1\n      revert\n    tag_263:\n        /* \"contracts/KajuswapRouter.sol\":6163:6177  amountADesired */\n      dup9\n        /* \"contracts/KajuswapRouter.sol\":6179:6193  amountBOptimal */\n      dup2\n        /* \"contracts/KajuswapRouter.sol\":6141:6194  (amountA, amountB) = (amountADesired, amountBOptimal) */\n      dup1\n      swap6\n      pop\n      dup2\n      swap7\n      pop\n      pop\n      pop\n        /* \"contracts/KajuswapRouter.sol\":5882:6750  if (amountBOptimal <= amountBDesired) {... */\n      jump(tag_265)\n    tag_262:\n        /* \"contracts/KajuswapRouter.sol\":6235:6257  uint256 amountAOptimal */\n      0x00\n        /* \"contracts/KajuswapRouter.sol\":6260:6275  KajuswapLibrary */\n      linkerSymbol(\"18693c2782ae7b010cc3bd0449f436a78932852c600971ebfaa34cda17c779df\")\n        /* \"contracts/KajuswapRouter.sol\":6260:6281  KajuswapLibrary.quote */\n      0xad615dec\n        /* \"contracts/KajuswapRouter.sol\":6304:6318  amountBDesired */\n      dup11\n        /* \"contracts/KajuswapRouter.sol\":6341:6349  reserveB */\n      dup6\n        /* \"contracts/KajuswapRouter.sol\":6372:6380  reserveA */\n      dup8\n        /* \"contracts/KajuswapRouter.sol\":6260:6399  KajuswapLibrary.quote(... */\n      mload(0x40)\n      dup5\n      0xffffffff\n      and\n      0xe0\n      shl\n      dup2\n      mstore\n      0x04\n      add\n      tag_266\n      swap4\n      swap3\n      swap2\n      swap1\n      tag_73\n      jump\t// in\n    tag_266:\n      0x20\n      mload(0x40)\n      dup1\n      dup4\n      sub\n      dup2\n      dup7\n      gas\n      delegatecall\n      iszero\n      dup1\n      iszero\n      tag_268\n      jumpi\n      returndatasize\n      0x00\n      dup1\n      returndatacopy\n      revert(0x00, returndatasize)\n    tag_268:\n      pop\n      pop\n      pop\n      pop\n      mload(0x40)\n      returndatasize\n      not(0x1f)\n      0x1f\n      dup3\n      add\n      and\n      dup3\n      add\n      dup1\n      0x40\n      mstore\n      pop\n      dup2\n      add\n      swap1\n      tag_269\n      swap2\n      swap1\n      tag_77\n      jump\t// in\n    tag_269:\n        /* \"contracts/KajuswapRouter.sol\":6235:6399  uint256 amountAOptimal = KajuswapLibrary.quote(... */\n      swap1\n      pop\n        /* \"contracts/KajuswapRouter.sol\":6443:6457  amountADesired */\n      dup10\n        /* \"contracts/KajuswapRouter.sol\":6425:6439  amountAOptimal */\n      dup2\n        /* \"contracts/KajuswapRouter.sol\":6425:6457  amountAOptimal <= amountADesired */\n      gt\n      iszero\n        /* \"contracts/KajuswapRouter.sol\":6418:6458  assert(amountAOptimal <= amountADesired) */\n      tag_270\n      jumpi\n      tag_271\n      tag_272\n      jump\t// in\n    tag_271:\n    tag_270:\n        /* \"contracts/KajuswapRouter.sol\":6610:6620  amountAMin */\n      dup8\n        /* \"contracts/KajuswapRouter.sol\":6592:6606  amountAOptimal */\n      dup2\n        /* \"contracts/KajuswapRouter.sol\":6592:6620  amountAOptimal >= amountAMin */\n      lt\n      iszero\n        /* \"contracts/KajuswapRouter.sol\":6584:6662  require(amountAOptimal >= amountAMin, \"KajuswapRouter: INSUFFICIENT_A_AMOUNT\") */\n      tag_273\n      jumpi\n      mload(0x40)\n      0x08c379a000000000000000000000000000000000000000000000000000000000\n      dup2\n      mstore\n      0x04\n      add\n      tag_274\n      swap1\n      tag_166\n      jump\t// in\n    tag_274:\n      mload(0x40)\n      dup1\n      swap2\n      sub\n      swap1\n      revert\n    tag_273:\n        /* \"contracts/KajuswapRouter.sol\":6703:6717  amountAOptimal */\n      dup1\n        /* \"contracts/KajuswapRouter.sol\":6719:6733  amountBDesired */\n      dup10\n        /* \"contracts/KajuswapRouter.sol\":6681:6734  (amountA, amountB) = (amountAOptimal, amountBDesired) */\n      dup1\n      swap7\n      pop\n      dup2\n      swap8\n      pop\n      pop\n      pop\n        /* \"contracts/KajuswapRouter.sol\":6216:6750  {... */\n      pop\n        /* \"contracts/KajuswapRouter.sol\":5882:6750  if (amountBOptimal <= amountBDesired) {... */\n    tag_265:\n        /* \"contracts/KajuswapRouter.sol\":5677:6761  {... */\n      pop\n        /* \"contracts/KajuswapRouter.sol\":5555:6761  if (reserveA == 0 && reserveB == 0) {... */\n    tag_257:\n        /* \"contracts/KajuswapRouter.sol\":5381:6768  {... */\n      pop\n      pop\n        /* \"contracts/KajuswapRouter.sol\":5119:6768  function _calculateLiquidity(... */\n      swap7\n      pop\n      swap7\n      swap5\n      pop\n      pop\n      pop\n      pop\n      pop\n      jump\t// out\n        /* \"contracts/KajuswapLibrary.sol\":2506:2724  function sortTokens(address tokenA, address tokenB)... */\n    tag_198:\n        /* \"contracts/KajuswapLibrary.sol\":2608:2622  address token0 */\n      0x00\n        /* \"contracts/KajuswapLibrary.sol\":2624:2638  address token1 */\n      dup1\n        /* \"contracts/KajuswapLibrary.sol\":2672:2678  tokenB */\n      dup3\n        /* \"contracts/KajuswapLibrary.sol\":2663:2678  tokenA < tokenB */\n      0xffffffffffffffffffffffffffffffffffffffff\n      and\n        /* \"contracts/KajuswapLibrary.sol\":2663:2669  tokenA */\n      dup5\n        /* \"contracts/KajuswapLibrary.sol\":2663:2678  tokenA < tokenB */\n      0xffffffffffffffffffffffffffffffffffffffff\n      and\n      lt\n        /* \"contracts/KajuswapLibrary.sol\":2663:2716  tokenA < tokenB ? (tokenA, tokenB) : (tokenB, tokenA) */\n      tag_276\n      jumpi\n        /* \"contracts/KajuswapLibrary.sol\":2701:2707  tokenB */\n      dup3\n        /* \"contracts/KajuswapLibrary.sol\":2709:2715  tokenA */\n      dup5\n        /* \"contracts/KajuswapLibrary.sol\":2663:2716  tokenA < tokenB ? (tokenA, tokenB) : (tokenB, tokenA) */\n      jump(tag_277)\n    tag_276:\n        /* \"contracts/KajuswapLibrary.sol\":2682:2688  tokenA */\n      dup4\n        /* \"contracts/KajuswapLibrary.sol\":2690:2696  tokenB */\n      dup4\n        /* \"contracts/KajuswapLibrary.sol\":2663:2716  tokenA < tokenB ? (tokenA, tokenB) : (tokenB, tokenA) */\n    tag_277:\n        /* \"contracts/KajuswapLibrary.sol\":2656:2716  return tokenA < tokenB ? (tokenA, tokenB) : (tokenB, tokenA) */\n      swap2\n      pop\n      swap2\n      pop\n        /* \"contracts/KajuswapLibrary.sol\":2506:2724  function sortTokens(address tokenA, address tokenB)... */\n      swap3\n      pop\n      swap3\n      swap1\n      pop\n      jump\t// out\n        /* \"#utility.yul\":7:82   */\n    tag_278:\n        /* \"#utility.yul\":40:46   */\n      0x00\n        /* \"#utility.yul\":73:75   */\n      0x40\n        /* \"#utility.yul\":67:76   */\n      mload\n        /* \"#utility.yul\":57:76   */\n      swap1\n      pop\n        /* \"#utility.yul\":7:82   */\n      swap1\n      jump\t// out\n        /* \"#utility.yul\":88:205   */\n    tag_279:\n        /* \"#utility.yul\":197:198   */\n      0x00\n        /* \"#utility.yul\":194:195   */\n      dup1\n        /* \"#utility.yul\":187:199   */\n      revert\n        /* \"#utility.yul\":211:328   */\n    tag_280:\n        /* \"#utility.yul\":320:321   */\n      0x00\n        /* \"#utility.yul\":317:318   */\n      dup1\n        /* \"#utility.yul\":310:322   */\n      revert\n        /* \"#utility.yul\":334:411   */\n    tag_281:\n        /* \"#utility.yul\":371:378   */\n      0x00\n        /* \"#utility.yul\":400:405   */\n      dup2\n        /* \"#utility.yul\":389:405   */\n      swap1\n      pop\n        /* \"#utility.yul\":334:411   */\n      swap2\n      swap1\n      pop\n      jump\t// out\n        /* \"#utility.yul\":417:539   */\n    tag_282:\n        /* \"#utility.yul\":490:514   */\n      tag_363\n        /* \"#utility.yul\":508:513   */\n      dup2\n        /* \"#utility.yul\":490:514   */\n      tag_281\n      jump\t// in\n    tag_363:\n        /* \"#utility.yul\":483:488   */\n      dup2\n        /* \"#utility.yul\":480:515   */\n      eq\n        /* \"#utility.yul\":470:533   */\n      tag_364\n      jumpi\n        /* \"#utility.yul\":529:530   */\n      0x00\n        /* \"#utility.yul\":526:527   */\n      dup1\n        /* \"#utility.yul\":519:531   */\n      revert\n        /* \"#utility.yul\":470:533   */\n    tag_364:\n        /* \"#utility.yul\":417:539   */\n      pop\n      jump\t// out\n        /* \"#utility.yul\":545:684   */\n    tag_283:\n        /* \"#utility.yul\":591:596   */\n      0x00\n        /* \"#utility.yul\":629:635   */\n      dup2\n        /* \"#utility.yul\":616:636   */\n      calldataload\n        /* \"#utility.yul\":607:636   */\n      swap1\n      pop\n        /* \"#utility.yul\":645:678   */\n      tag_366\n        /* \"#utility.yul\":672:677   */\n      dup2\n        /* \"#utility.yul\":645:678   */\n      tag_282\n      jump\t// in\n    tag_366:\n        /* \"#utility.yul\":545:684   */\n      swap3\n      swap2\n      pop\n      pop\n      jump\t// out\n        /* \"#utility.yul\":690:1309   */\n    tag_18:\n        /* \"#utility.yul\":767:773   */\n      0x00\n        /* \"#utility.yul\":775:781   */\n      dup1\n        /* \"#utility.yul\":783:789   */\n      0x00\n        /* \"#utility.yul\":832:834   */\n      0x60\n        /* \"#utility.yul\":820:829   */\n      dup5\n        /* \"#utility.yul\":811:818   */\n      dup7\n        /* \"#utility.yul\":807:830   */\n      sub\n        /* \"#utility.yul\":803:835   */\n      slt\n        /* \"#utility.yul\":800:919   */\n      iszero\n      tag_368\n      jumpi\n        /* \"#utility.yul\":838:917   */\n      tag_369\n      tag_279\n      jump\t// in\n    tag_369:\n        /* \"#utility.yul\":800:919   */\n    tag_368:\n        /* \"#utility.yul\":958:959   */\n      0x00\n        /* \"#utility.yul\":983:1036   */\n      tag_370\n        /* \"#utility.yul\":1028:1035   */\n      dup7\n        /* \"#utility.yul\":1019:1025   */\n      dup3\n        /* \"#utility.yul\":1008:1017   */\n      dup8\n        /* \"#utility.yul\":1004:1026   */\n      add\n        /* \"#utility.yul\":983:1036   */\n      tag_283\n      jump\t// in\n    tag_370:\n        /* \"#utility.yul\":973:1036   */\n      swap4\n      pop\n        /* \"#utility.yul\":929:1046   */\n      pop\n        /* \"#utility.yul\":1085:1087   */\n      0x20\n        /* \"#utility.yul\":1111:1164   */\n      tag_371\n        /* \"#utility.yul\":1156:1163   */\n      dup7\n        /* \"#utility.yul\":1147:1153   */\n      dup3\n        /* \"#utility.yul\":1136:1145   */\n      dup8\n        /* \"#utility.yul\":1132:1154   */\n      add\n        /* \"#utility.yul\":1111:1164   */\n      tag_283\n      jump\t// in\n    tag_371:\n        /* \"#utility.yul\":1101:1164   */\n      swap3\n      pop\n        /* \"#utility.yul\":1056:1174   */\n      pop\n        /* \"#utility.yul\":1213:1215   */\n      0x40\n        /* \"#utility.yul\":1239:1292   */\n      tag_372\n        /* \"#utility.yul\":1284:1291   */\n      dup7\n        /* \"#utility.yul\":1275:1281   */\n      dup3\n        /* \"#utility.yul\":1264:1273   */\n      dup8\n        /* \"#utility.yul\":1260:1282   */\n      add\n        /* \"#utility.yul\":1239:1292   */\n      tag_283\n      jump\t// in\n    tag_372:\n        /* \"#utility.yul\":1229:1292   */\n      swap2\n      pop\n        /* \"#utility.yul\":1184:1302   */\n      pop\n        /* \"#utility.yul\":690:1309   */\n      swap3\n      pop\n      swap3\n      pop\n      swap3\n      jump\t// out\n        /* \"#utility.yul\":1315:1433   */\n    tag_284:\n        /* \"#utility.yul\":1402:1426   */\n      tag_374\n        /* \"#utility.yul\":1420:1425   */\n      dup2\n        /* \"#utility.yul\":1402:1426   */\n      tag_281\n      jump\t// in\n    tag_374:\n        /* \"#utility.yul\":1397:1400   */\n      dup3\n        /* \"#utility.yul\":1390:1427   */\n      mstore\n        /* \"#utility.yul\":1315:1433   */\n      pop\n      pop\n      jump\t// out\n        /* \"#utility.yul\":1439:1661   */\n    tag_21:\n        /* \"#utility.yul\":1532:1536   */\n      0x00\n        /* \"#utility.yul\":1570:1572   */\n      0x20\n        /* \"#utility.yul\":1559:1568   */\n      dup3\n        /* \"#utility.yul\":1555:1573   */\n      add\n        /* \"#utility.yul\":1547:1573   */\n      swap1\n      pop\n        /* \"#utility.yul\":1583:1654   */\n      tag_376\n        /* \"#utility.yul\":1651:1652   */\n      0x00\n        /* \"#utility.yul\":1640:1649   */\n      dup4\n        /* \"#utility.yul\":1636:1653   */\n      add\n        /* \"#utility.yul\":1627:1633   */\n      dup5\n        /* \"#utility.yul\":1583:1654   */\n      tag_284\n      jump\t// in\n    tag_376:\n        /* \"#utility.yul\":1439:1661   */\n      swap3\n      swap2\n      pop\n      pop\n      jump\t// out\n        /* \"#utility.yul\":1667:1784   */\n    tag_285:\n        /* \"#utility.yul\":1776:1777   */\n      0x00\n        /* \"#utility.yul\":1773:1774   */\n      dup1\n        /* \"#utility.yul\":1766:1778   */\n      revert\n        /* \"#utility.yul\":1790:1892   */\n    tag_286:\n        /* \"#utility.yul\":1831:1837   */\n      0x00\n        /* \"#utility.yul\":1882:1884   */\n      0x1f\n        /* \"#utility.yul\":1878:1885   */\n      not\n        /* \"#utility.yul\":1873:1875   */\n      0x1f\n        /* \"#utility.yul\":1866:1871   */\n      dup4\n        /* \"#utility.yul\":1862:1876   */\n      add\n        /* \"#utility.yul\":1858:1886   */\n      and\n        /* \"#utility.yul\":1848:1886   */\n      swap1\n      pop\n        /* \"#utility.yul\":1790:1892   */\n      swap2\n      swap1\n      pop\n      jump\t// out\n        /* \"#utility.yul\":1898:2078   */\n    tag_287:\n        /* \"#utility.yul\":1946:2023   */\n      0x4e487b7100000000000000000000000000000000000000000000000000000000\n        /* \"#utility.yul\":1943:1944   */\n      0x00\n        /* \"#utility.yul\":1936:2024   */\n      mstore\n        /* \"#utility.yul\":2043:2047   */\n      0x41\n        /* \"#utility.yul\":2040:2041   */\n      0x04\n        /* \"#utility.yul\":2033:2048   */\n      mstore\n        /* \"#utility.yul\":2067:2071   */\n      0x24\n        /* \"#utility.yul\":2064:2065   */\n      0x00\n        /* \"#utility.yul\":2057:2072   */\n      revert\n        /* \"#utility.yul\":2084:2365   */\n    tag_288:\n        /* \"#utility.yul\":2167:2194   */\n      tag_381\n        /* \"#utility.yul\":2189:2193   */\n      dup3\n        /* \"#utility.yul\":2167:2194   */\n      tag_286\n      jump\t// in\n    tag_381:\n        /* \"#utility.yul\":2159:2165   */\n      dup2\n        /* \"#utility.yul\":2155:2195   */\n      add\n        /* \"#utility.yul\":2297:2303   */\n      dup2\n        /* \"#utility.yul\":2285:2295   */\n      dup2\n        /* \"#utility.yul\":2282:2304   */\n      lt\n        /* \"#utility.yul\":2261:2279   */\n      0xffffffffffffffff\n        /* \"#utility.yul\":2249:2259   */\n      dup3\n        /* \"#utility.yul\":2246:2280   */\n      gt\n        /* \"#utility.yul\":2243:2305   */\n      or\n        /* \"#utility.yul\":2240:2328   */\n      iszero\n      tag_382\n      jumpi\n        /* \"#utility.yul\":2308:2326   */\n      tag_383\n      tag_287\n      jump\t// in\n    tag_383:\n        /* \"#utility.yul\":2240:2328   */\n    tag_382:\n        /* \"#utility.yul\":2348:2358   */\n      dup1\n        /* \"#utility.yul\":2344:2346   */\n      0x40\n        /* \"#utility.yul\":2337:2359   */\n      mstore\n        /* \"#utility.yul\":2127:2365   */\n      pop\n        /* \"#utility.yul\":2084:2365   */\n      pop\n      pop\n      jump\t// out\n        /* \"#utility.yul\":2371:2500   */\n    tag_289:\n        /* \"#utility.yul\":2405:2411   */\n      0x00\n        /* \"#utility.yul\":2432:2452   */\n      tag_385\n      tag_278\n      jump\t// in\n    tag_385:\n        /* \"#utility.yul\":2422:2452   */\n      swap1\n      pop\n        /* \"#utility.yul\":2461:2494   */\n      tag_386\n        /* \"#utility.yul\":2489:2493   */\n      dup3\n        /* \"#utility.yul\":2481:2487   */\n      dup3\n        /* \"#utility.yul\":2461:2494   */\n      tag_288\n      jump\t// in\n    tag_386:\n        /* \"#utility.yul\":2371:2500   */\n      swap2\n      swap1\n      pop\n      jump\t// out\n        /* \"#utility.yul\":2506:2817   */\n    tag_290:\n        /* \"#utility.yul\":2583:2587   */\n      0x00\n        /* \"#utility.yul\":2673:2691   */\n      0xffffffffffffffff\n        /* \"#utility.yul\":2665:2671   */\n      dup3\n        /* \"#utility.yul\":2662:2692   */\n      gt\n        /* \"#utility.yul\":2659:2715   */\n      iszero\n      tag_388\n      jumpi\n        /* \"#utility.yul\":2695:2713   */\n      tag_389\n      tag_287\n      jump\t// in\n    tag_389:\n        /* \"#utility.yul\":2659:2715   */\n    tag_388:\n        /* \"#utility.yul\":2745:2749   */\n      0x20\n        /* \"#utility.yul\":2737:2743   */\n      dup3\n        /* \"#utility.yul\":2733:2750   */\n      mul\n        /* \"#utility.yul\":2725:2750   */\n      swap1\n      pop\n        /* \"#utility.yul\":2805:2809   */\n      0x20\n        /* \"#utility.yul\":2799:2803   */\n      dup2\n        /* \"#utility.yul\":2795:2810   */\n      add\n        /* \"#utility.yul\":2787:2810   */\n      swap1\n      pop\n        /* \"#utility.yul\":2506:2817   */\n      swap2\n      swap1\n      pop\n      jump\t// out\n        /* \"#utility.yul\":2823:2940   */\n    tag_291:\n        /* \"#utility.yul\":2932:2933   */\n      0x00\n        /* \"#utility.yul\":2929:2930   */\n      dup1\n        /* \"#utility.yul\":2922:2934   */\n      revert\n        /* \"#utility.yul\":2946:3072   */\n    tag_292:\n        /* \"#utility.yul\":2983:2990   */\n      0x00\n        /* \"#utility.yul\":3023:3065   */\n      0xffffffffffffffffffffffffffffffffffffffff\n        /* \"#utility.yul\":3016:3021   */\n      dup3\n        /* \"#utility.yul\":3012:3066   */\n      and\n        /* \"#utility.yul\":3001:3066   */\n      swap1\n      pop\n        /* \"#utility.yul\":2946:3072   */\n      swap2\n      swap1\n      pop\n      jump\t// out\n        /* \"#utility.yul\":3078:3174   */\n    tag_293:\n        /* \"#utility.yul\":3115:3122   */\n      0x00\n        /* \"#utility.yul\":3144:3168   */\n      tag_393\n        /* \"#utility.yul\":3162:3167   */\n      dup3\n        /* \"#utility.yul\":3144:3168   */\n      tag_292\n      jump\t// in\n    tag_393:\n        /* \"#utility.yul\":3133:3168   */\n      swap1\n      pop\n        /* \"#utility.yul\":3078:3174   */\n      swap2\n      swap1\n      pop\n      jump\t// out\n        /* \"#utility.yul\":3180:3302   */\n    tag_294:\n        /* \"#utility.yul\":3253:3277   */\n      tag_395\n        /* \"#utility.yul\":3271:3276   */\n      dup2\n        /* \"#utility.yul\":3253:3277   */\n      tag_293\n      jump\t// in\n    tag_395:\n        /* \"#utility.yul\":3246:3251   */\n      dup2\n        /* \"#utility.yul\":3243:3278   */\n      eq\n        /* \"#utility.yul\":3233:3296   */\n      tag_396\n      jumpi\n        /* \"#utility.yul\":3292:3293   */\n      0x00\n        /* \"#utility.yul\":3289:3290   */\n      dup1\n        /* \"#utility.yul\":3282:3294   */\n      revert\n        /* \"#utility.yul\":3233:3296   */\n    tag_396:\n        /* \"#utility.yul\":3180:3302   */\n      pop\n      jump\t// out\n        /* \"#utility.yul\":3308:3447   */\n    tag_295:\n        /* \"#utility.yul\":3354:3359   */\n      0x00\n        /* \"#utility.yul\":3392:3398   */\n      dup2\n        /* \"#utility.yul\":3379:3399   */\n      calldataload\n        /* \"#utility.yul\":3370:3399   */\n      swap1\n      pop\n        /* \"#utility.yul\":3408:3441   */\n      tag_398\n        /* \"#utility.yul\":3435:3440   */\n      dup2\n        /* \"#utility.yul\":3408:3441   */\n      tag_294\n      jump\t// in\n    tag_398:\n        /* \"#utility.yul\":3308:3447   */\n      swap3\n      swap2\n      pop\n      pop\n      jump\t// out\n        /* \"#utility.yul\":3470:4180   */\n    tag_296:\n        /* \"#utility.yul\":3566:3571   */\n      0x00\n        /* \"#utility.yul\":3591:3672   */\n      tag_400\n        /* \"#utility.yul\":3607:3671   */\n      tag_401\n        /* \"#utility.yul\":3664:3670   */\n      dup5\n        /* \"#utility.yul\":3607:3671   */\n      tag_290\n      jump\t// in\n    tag_401:\n        /* \"#utility.yul\":3591:3672   */\n      tag_289\n      jump\t// in\n    tag_400:\n        /* \"#utility.yul\":3582:3672   */\n      swap1\n      pop\n        /* \"#utility.yul\":3692:3697   */\n      dup1\n        /* \"#utility.yul\":3721:3727   */\n      dup4\n        /* \"#utility.yul\":3714:3719   */\n      dup3\n        /* \"#utility.yul\":3707:3728   */\n      mstore\n        /* \"#utility.yul\":3755:3759   */\n      0x20\n        /* \"#utility.yul\":3748:3753   */\n      dup3\n        /* \"#utility.yul\":3744:3760   */\n      add\n        /* \"#utility.yul\":3737:3760   */\n      swap1\n      pop\n        /* \"#utility.yul\":3808:3812   */\n      0x20\n        /* \"#utility.yul\":3800:3806   */\n      dup5\n        /* \"#utility.yul\":3796:3813   */\n      mul\n        /* \"#utility.yul\":3788:3794   */\n      dup4\n        /* \"#utility.yul\":3784:3814   */\n      add\n        /* \"#utility.yul\":3837:3840   */\n      dup6\n        /* \"#utility.yul\":3829:3835   */\n      dup2\n        /* \"#utility.yul\":3826:3841   */\n      gt\n        /* \"#utility.yul\":3823:3945   */\n      iszero\n      tag_402\n      jumpi\n        /* \"#utility.yul\":3856:3935   */\n      tag_403\n      tag_291\n      jump\t// in\n    tag_403:\n        /* \"#utility.yul\":3823:3945   */\n    tag_402:\n        /* \"#utility.yul\":3971:3977   */\n      dup4\n        /* \"#utility.yul\":3954:4174   */\n    tag_404:\n        /* \"#utility.yul\":3988:3994   */\n      dup2\n        /* \"#utility.yul\":3983:3986   */\n      dup2\n        /* \"#utility.yul\":3980:3995   */\n      lt\n        /* \"#utility.yul\":3954:4174   */\n      iszero\n      tag_406\n      jumpi\n        /* \"#utility.yul\":4063:4066   */\n      dup1\n        /* \"#utility.yul\":4092:4129   */\n      tag_407\n        /* \"#utility.yul\":4125:4128   */\n      dup9\n        /* \"#utility.yul\":4113:4123   */\n      dup3\n        /* \"#utility.yul\":4092:4129   */\n      tag_295\n      jump\t// in\n    tag_407:\n        /* \"#utility.yul\":4087:4090   */\n      dup5\n        /* \"#utility.yul\":4080:4130   */\n      mstore\n        /* \"#utility.yul\":4159:4163   */\n      0x20\n        /* \"#utility.yul\":4154:4157   */\n      dup5\n        /* \"#utility.yul\":4150:4164   */\n      add\n        /* \"#utility.yul\":4143:4164   */\n      swap4\n      pop\n        /* \"#utility.yul\":4030:4174   */\n      pop\n        /* \"#utility.yul\":4014:4018   */\n      0x20\n        /* \"#utility.yul\":4009:4012   */\n      dup2\n        /* \"#utility.yul\":4005:4019   */\n      add\n        /* \"#utility.yul\":3998:4019   */\n      swap1\n      pop\n        /* \"#utility.yul\":3954:4174   */\n      jump(tag_404)\n    tag_406:\n        /* \"#utility.yul\":3958:3979   */\n      pop\n        /* \"#utility.yul\":3572:4180   */\n      pop\n      pop\n        /* \"#utility.yul\":3470:4180   */\n      swap4\n      swap3\n      pop\n      pop\n      pop\n      jump\t// out\n        /* \"#utility.yul\":4203:4573   */\n    tag_297:\n        /* \"#utility.yul\":4274:4279   */\n      0x00\n        /* \"#utility.yul\":4323:4326   */\n      dup3\n        /* \"#utility.yul\":4316:4320   */\n      0x1f\n        /* \"#utility.yul\":4308:4314   */\n      dup4\n        /* \"#utility.yul\":4304:4321   */\n      add\n        /* \"#utility.yul\":4300:4327   */\n      slt\n        /* \"#utility.yul\":4290:4412   */\n      tag_409\n      jumpi\n        /* \"#utility.yul\":4331:4410   */\n      tag_410\n      tag_285\n      jump\t// in\n    tag_410:\n        /* \"#utility.yul\":4290:4412   */\n    tag_409:\n        /* \"#utility.yul\":4448:4454   */\n      dup2\n        /* \"#utility.yul\":4435:4455   */\n      calldataload\n        /* \"#utility.yul\":4473:4567   */\n      tag_411\n        /* \"#utility.yul\":4563:4566   */\n      dup5\n        /* \"#utility.yul\":4555:4561   */\n      dup3\n        /* \"#utility.yul\":4548:4552   */\n      0x20\n        /* \"#utility.yul\":4540:4546   */\n      dup7\n        /* \"#utility.yul\":4536:4553   */\n      add\n        /* \"#utility.yul\":4473:4567   */\n      tag_296\n      jump\t// in\n    tag_411:\n        /* \"#utility.yul\":4464:4567   */\n      swap2\n      pop\n        /* \"#utility.yul\":4280:4573   */\n      pop\n        /* \"#utility.yul\":4203:4573   */\n      swap3\n      swap2\n      pop\n      pop\n      jump\t// out\n        /* \"#utility.yul\":4579:5263   */\n    tag_24:\n        /* \"#utility.yul\":4672:4678   */\n      0x00\n        /* \"#utility.yul\":4680:4686   */\n      dup1\n        /* \"#utility.yul\":4729:4731   */\n      0x40\n        /* \"#utility.yul\":4717:4726   */\n      dup4\n        /* \"#utility.yul\":4708:4715   */\n      dup6\n        /* \"#utility.yul\":4704:4727   */\n      sub\n        /* \"#utility.yul\":4700:4732   */\n      slt\n        /* \"#utility.yul\":4697:4816   */\n      iszero\n      tag_413\n      jumpi\n        /* \"#utility.yul\":4735:4814   */\n      tag_414\n      tag_279\n      jump\t// in\n    tag_414:\n        /* \"#utility.yul\":4697:4816   */\n    tag_413:\n        /* \"#utility.yul\":4855:4856   */\n      0x00\n        /* \"#utility.yul\":4880:4933   */\n      tag_415\n        /* \"#utility.yul\":4925:4932   */\n      dup6\n        /* \"#utility.yul\":4916:4922   */\n      dup3\n        /* \"#utility.yul\":4905:4914   */\n      dup7\n        /* \"#utility.yul\":4901:4923   */\n      add\n        /* \"#utility.yul\":4880:4933   */\n      tag_283\n      jump\t// in\n    tag_415:\n        /* \"#utility.yul\":4870:4933   */\n      swap3\n      pop\n        /* \"#utility.yul\":4826:4943   */\n      pop\n        /* \"#utility.yul\":5010:5012   */\n      0x20\n        /* \"#utility.yul\":4999:5008   */\n      dup4\n        /* \"#utility.yul\":4995:5013   */\n      add\n        /* \"#utility.yul\":4982:5014   */\n      calldataload\n        /* \"#utility.yul\":5041:5059   */\n      0xffffffffffffffff\n        /* \"#utility.yul\":5033:5039   */\n      dup2\n        /* \"#utility.yul\":5030:5060   */\n      gt\n        /* \"#utility.yul\":5027:5144   */\n      iszero\n      tag_416\n      jumpi\n        /* \"#utility.yul\":5063:5142   */\n      tag_417\n      tag_280\n      jump\t// in\n    tag_417:\n        /* \"#utility.yul\":5027:5144   */\n    tag_416:\n        /* \"#utility.yul\":5168:5246   */\n      tag_418\n        /* \"#utility.yul\":5238:5245   */\n      dup6\n        /* \"#utility.yul\":5229:5235   */\n      dup3\n        /* \"#utility.yul\":5218:5227   */\n      dup7\n        /* \"#utility.yul\":5214:5236   */\n      add\n        /* \"#utility.yul\":5168:5246   */\n      tag_297\n      jump\t// in\n    tag_418:\n        /* \"#utility.yul\":5158:5246   */\n      swap2\n      pop\n        /* \"#utility.yul\":4953:5256   */\n      pop\n        /* \"#utility.yul\":4579:5263   */\n      swap3\n      pop\n      swap3\n      swap1\n      pop\n      jump\t// out\n        /* \"#utility.yul\":5269:5383   */\n    tag_298:\n        /* \"#utility.yul\":5336:5342   */\n      0x00\n        /* \"#utility.yul\":5370:5375   */\n      dup2\n        /* \"#utility.yul\":5364:5376   */\n      mload\n        /* \"#utility.yul\":5354:5376   */\n      swap1\n      pop\n        /* \"#utility.yul\":5269:5383   */\n      swap2\n      swap1\n      pop\n      jump\t// out\n        /* \"#utility.yul\":5389:5573   */\n    tag_299:\n        /* \"#utility.yul\":5488:5499   */\n      0x00\n        /* \"#utility.yul\":5522:5528   */\n      dup3\n        /* \"#utility.yul\":5517:5520   */\n      dup3\n        /* \"#utility.yul\":5510:5529   */\n      mstore\n        /* \"#utility.yul\":5562:5566   */\n      0x20\n        /* \"#utility.yul\":5557:5560   */\n      dup3\n        /* \"#utility.yul\":5553:5567   */\n      add\n        /* \"#utility.yul\":5538:5567   */\n      swap1\n      pop\n        /* \"#utility.yul\":5389:5573   */\n      swap3\n      swap2\n      pop\n      pop\n      jump\t// out\n        /* \"#utility.yul\":5579:5711   */\n    tag_300:\n        /* \"#utility.yul\":5646:5650   */\n      0x00\n        /* \"#utility.yul\":5669:5672   */\n      dup2\n        /* \"#utility.yul\":5661:5672   */\n      swap1\n      pop\n        /* \"#utility.yul\":5699:5703   */\n      0x20\n        /* \"#utility.yul\":5694:5697   */\n      dup3\n        /* \"#utility.yul\":5690:5704   */\n      add\n        /* \"#utility.yul\":5682:5704   */\n      swap1\n      pop\n        /* \"#utility.yul\":5579:5711   */\n      swap2\n      swap1\n      pop\n      jump\t// out\n        /* \"#utility.yul\":5717:5825   */\n    tag_301:\n        /* \"#utility.yul\":5794:5818   */\n      tag_423\n        /* \"#utility.yul\":5812:5817   */\n      dup2\n        /* \"#utility.yul\":5794:5818   */\n      tag_281\n      jump\t// in\n    tag_423:\n        /* \"#utility.yul\":5789:5792   */\n      dup3\n        /* \"#utility.yul\":5782:5819   */\n      mstore\n        /* \"#utility.yul\":5717:5825   */\n      pop\n      pop\n      jump\t// out\n        /* \"#utility.yul\":5831:6010   */\n    tag_302:\n        /* \"#utility.yul\":5900:5910   */\n      0x00\n        /* \"#utility.yul\":5921:5967   */\n      tag_425\n        /* \"#utility.yul\":5963:5966   */\n      dup4\n        /* \"#utility.yul\":5955:5961   */\n      dup4\n        /* \"#utility.yul\":5921:5967   */\n      tag_301\n      jump\t// in\n    tag_425:\n        /* \"#utility.yul\":5999:6003   */\n      0x20\n        /* \"#utility.yul\":5994:5997   */\n      dup4\n        /* \"#utility.yul\":5990:6004   */\n      add\n        /* \"#utility.yul\":5976:6004   */\n      swap1\n      pop\n        /* \"#utility.yul\":5831:6010   */\n      swap3\n      swap2\n      pop\n      pop\n      jump\t// out\n        /* \"#utility.yul\":6016:6129   */\n    tag_303:\n        /* \"#utility.yul\":6086:6090   */\n      0x00\n        /* \"#utility.yul\":6118:6122   */\n      0x20\n        /* \"#utility.yul\":6113:6116   */\n      dup3\n        /* \"#utility.yul\":6109:6123   */\n      add\n        /* \"#utility.yul\":6101:6123   */\n      swap1\n      pop\n        /* \"#utility.yul\":6016:6129   */\n      swap2\n      swap1\n      pop\n      jump\t// out\n        /* \"#utility.yul\":6165:6897   */\n    tag_304:\n        /* \"#utility.yul\":6284:6287   */\n      0x00\n        /* \"#utility.yul\":6313:6367   */\n      tag_428\n        /* \"#utility.yul\":6361:6366   */\n      dup3\n        /* \"#utility.yul\":6313:6367   */\n      tag_298\n      jump\t// in\n    tag_428:\n        /* \"#utility.yul\":6383:6469   */\n      tag_429\n        /* \"#utility.yul\":6462:6468   */\n      dup2\n        /* \"#utility.yul\":6457:6460   */\n      dup6\n        /* \"#utility.yul\":6383:6469   */\n      tag_299\n      jump\t// in\n    tag_429:\n        /* \"#utility.yul\":6376:6469   */\n      swap4\n      pop\n        /* \"#utility.yul\":6493:6549   */\n      tag_430\n        /* \"#utility.yul\":6543:6548   */\n      dup4\n        /* \"#utility.yul\":6493:6549   */\n      tag_300\n      jump\t// in\n    tag_430:\n        /* \"#utility.yul\":6572:6579   */\n      dup1\n        /* \"#utility.yul\":6603:6604   */\n      0x00\n        /* \"#utility.yul\":6588:6872   */\n    tag_431:\n        /* \"#utility.yul\":6613:6619   */\n      dup4\n        /* \"#utility.yul\":6610:6611   */\n      dup2\n        /* \"#utility.yul\":6607:6620   */\n      lt\n        /* \"#utility.yul\":6588:6872   */\n      iszero\n      tag_433\n      jumpi\n        /* \"#utility.yul\":6689:6695   */\n      dup2\n        /* \"#utility.yul\":6683:6696   */\n      mload\n        /* \"#utility.yul\":6716:6779   */\n      tag_434\n        /* \"#utility.yul\":6775:6778   */\n      dup9\n        /* \"#utility.yul\":6760:6773   */\n      dup3\n        /* \"#utility.yul\":6716:6779   */\n      tag_302\n      jump\t// in\n    tag_434:\n        /* \"#utility.yul\":6709:6779   */\n      swap8\n      pop\n        /* \"#utility.yul\":6802:6862   */\n      tag_435\n        /* \"#utility.yul\":6855:6861   */\n      dup4\n        /* \"#utility.yul\":6802:6862   */\n      tag_303\n      jump\t// in\n    tag_435:\n        /* \"#utility.yul\":6792:6862   */\n      swap3\n      pop\n        /* \"#utility.yul\":6648:6872   */\n      pop\n        /* \"#utility.yul\":6635:6636   */\n      0x01\n        /* \"#utility.yul\":6632:6633   */\n      dup2\n        /* \"#utility.yul\":6628:6637   */\n      add\n        /* \"#utility.yul\":6623:6637   */\n      swap1\n      pop\n        /* \"#utility.yul\":6588:6872   */\n      jump(tag_431)\n    tag_433:\n        /* \"#utility.yul\":6592:6606   */\n      pop\n        /* \"#utility.yul\":6888:6891   */\n      dup6\n        /* \"#utility.yul\":6881:6891   */\n      swap4\n      pop\n        /* \"#utility.yul\":6289:6897   */\n      pop\n      pop\n      pop\n        /* \"#utility.yul\":6165:6897   */\n      swap3\n      swap2\n      pop\n      pop\n      jump\t// out\n        /* \"#utility.yul\":6903:7276   */\n    tag_27:\n        /* \"#utility.yul\":7046:7050   */\n      0x00\n        /* \"#utility.yul\":7084:7086   */\n      0x20\n        /* \"#utility.yul\":7073:7082   */\n      dup3\n        /* \"#utility.yul\":7069:7087   */\n      add\n        /* \"#utility.yul\":7061:7087   */\n      swap1\n      pop\n        /* \"#utility.yul\":7133:7142   */\n      dup2\n        /* \"#utility.yul\":7127:7131   */\n      dup2\n        /* \"#utility.yul\":7123:7143   */\n      sub\n        /* \"#utility.yul\":7119:7120   */\n      0x00\n        /* \"#utility.yul\":7108:7117   */\n      dup4\n        /* \"#utility.yul\":7104:7121   */\n      add\n        /* \"#utility.yul\":7097:7144   */\n      mstore\n        /* \"#utility.yul\":7161:7269   */\n      tag_437\n        /* \"#utility.yul\":7264:7268   */\n      dup2\n        /* \"#utility.yul\":7255:7261   */\n      dup5\n        /* \"#utility.yul\":7161:7269   */\n      tag_304\n      jump\t// in\n    tag_437:\n        /* \"#utility.yul\":7153:7269   */\n      swap1\n      pop\n        /* \"#utility.yul\":6903:7276   */\n      swap3\n      swap2\n      pop\n      pop\n      jump\t// out\n        /* \"#utility.yul\":7282:7400   */\n    tag_305:\n        /* \"#utility.yul\":7369:7393   */\n      tag_439\n        /* \"#utility.yul\":7387:7392   */\n      dup2\n        /* \"#utility.yul\":7369:7393   */\n      tag_293\n      jump\t// in\n    tag_439:\n        /* \"#utility.yul\":7364:7367   */\n      dup3\n        /* \"#utility.yul\":7357:7394   */\n      mstore\n        /* \"#utility.yul\":7282:7400   */\n      pop\n      pop\n      jump\t// out\n        /* \"#utility.yul\":7406:7628   */\n    tag_31:\n        /* \"#utility.yul\":7499:7503   */\n      0x00\n        /* \"#utility.yul\":7537:7539   */\n      0x20\n        /* \"#utility.yul\":7526:7535   */\n      dup3\n        /* \"#utility.yul\":7522:7540   */\n      add\n        /* \"#utility.yul\":7514:7540   */\n      swap1\n      pop\n        /* \"#utility.yul\":7550:7621   */\n      tag_441\n        /* \"#utility.yul\":7618:7619   */\n      0x00\n        /* \"#utility.yul\":7607:7616   */\n      dup4\n        /* \"#utility.yul\":7603:7620   */\n      add\n        /* \"#utility.yul\":7594:7600   */\n      dup5\n        /* \"#utility.yul\":7550:7621   */\n      tag_305\n      jump\t// in\n    tag_441:\n        /* \"#utility.yul\":7406:7628   */\n      swap3\n      swap2\n      pop\n      pop\n      jump\t// out\n        /* \"#utility.yul\":7634:7751   */\n    tag_306:\n        /* \"#utility.yul\":7743:7744   */\n      0x00\n        /* \"#utility.yul\":7740:7741   */\n      dup1\n        /* \"#utility.yul\":7733:7745   */\n      revert\n        /* \"#utility.yul\":7774:8342   */\n    tag_307:\n        /* \"#utility.yul\":7847:7855   */\n      0x00\n        /* \"#utility.yul\":7857:7863   */\n      dup1\n        /* \"#utility.yul\":7907:7910   */\n      dup4\n        /* \"#utility.yul\":7900:7904   */\n      0x1f\n        /* \"#utility.yul\":7892:7898   */\n      dup5\n        /* \"#utility.yul\":7888:7905   */\n      add\n        /* \"#utility.yul\":7884:7911   */\n      slt\n        /* \"#utility.yul\":7874:7996   */\n      tag_444\n      jumpi\n        /* \"#utility.yul\":7915:7994   */\n      tag_445\n      tag_285\n      jump\t// in\n    tag_445:\n        /* \"#utility.yul\":7874:7996   */\n    tag_444:\n        /* \"#utility.yul\":8028:8034   */\n      dup3\n        /* \"#utility.yul\":8015:8035   */\n      calldataload\n        /* \"#utility.yul\":8005:8035   */\n      swap1\n      pop\n        /* \"#utility.yul\":8058:8076   */\n      0xffffffffffffffff\n        /* \"#utility.yul\":8050:8056   */\n      dup2\n        /* \"#utility.yul\":8047:8077   */\n      gt\n        /* \"#utility.yul\":8044:8161   */\n      iszero\n      tag_446\n      jumpi\n        /* \"#utility.yul\":8080:8159   */\n      tag_447\n      tag_306\n      jump\t// in\n    tag_447:\n        /* \"#utility.yul\":8044:8161   */\n    tag_446:\n        /* \"#utility.yul\":8194:8198   */\n      0x20\n        /* \"#utility.yul\":8186:8192   */\n      dup4\n        /* \"#utility.yul\":8182:8199   */\n      add\n        /* \"#utility.yul\":8170:8199   */\n      swap2\n      pop\n        /* \"#utility.yul\":8248:8251   */\n      dup4\n        /* \"#utility.yul\":8240:8244   */\n      0x20\n        /* \"#utility.yul\":8232:8238   */\n      dup3\n        /* \"#utility.yul\":8228:8245   */\n      mul\n        /* \"#utility.yul\":8218:8226   */\n      dup4\n        /* \"#utility.yul\":8214:8246   */\n      add\n        /* \"#utility.yul\":8211:8252   */\n      gt\n        /* \"#utility.yul\":8208:8336   */\n      iszero\n      tag_448\n      jumpi\n        /* \"#utility.yul\":8255:8334   */\n      tag_449\n      tag_291\n      jump\t// in\n    tag_449:\n        /* \"#utility.yul\":8208:8336   */\n    tag_448:\n        /* \"#utility.yul\":7774:8342   */\n      swap3\n      pop\n      swap3\n      swap1\n      pop\n      jump\t// out\n        /* \"#utility.yul\":8348:9343   */\n    tag_34:\n        /* \"#utility.yul\":8461:8467   */\n      0x00\n        /* \"#utility.yul\":8469:8475   */\n      dup1\n        /* \"#utility.yul\":8477:8483   */\n      0x00\n        /* \"#utility.yul\":8485:8491   */\n      dup1\n        /* \"#utility.yul\":8493:8499   */\n      0x00\n        /* \"#utility.yul\":8542:8545   */\n      0x80\n        /* \"#utility.yul\":8530:8539   */\n      dup7\n        /* \"#utility.yul\":8521:8528   */\n      dup9\n        /* \"#utility.yul\":8517:8540   */\n      sub\n        /* \"#utility.yul\":8513:8546   */\n      slt\n        /* \"#utility.yul\":8510:8630   */\n      iszero\n      tag_451\n      jumpi\n        /* \"#utility.yul\":8549:8628   */\n      tag_452\n      tag_279\n      jump\t// in\n    tag_452:\n        /* \"#utility.yul\":8510:8630   */\n    tag_451:\n        /* \"#utility.yul\":8669:8670   */\n      0x00\n        /* \"#utility.yul\":8694:8747   */\n      tag_453\n        /* \"#utility.yul\":8739:8746   */\n      dup9\n        /* \"#utility.yul\":8730:8736   */\n      dup3\n        /* \"#utility.yul\":8719:8728   */\n      dup10\n        /* \"#utility.yul\":8715:8737   */\n      add\n        /* \"#utility.yul\":8694:8747   */\n      tag_283\n      jump\t// in\n    tag_453:\n        /* \"#utility.yul\":8684:8747   */\n      swap6\n      pop\n        /* \"#utility.yul\":8640:8757   */\n      pop\n        /* \"#utility.yul\":8796:8798   */\n      0x20\n        /* \"#utility.yul\":8822:8875   */\n      tag_454\n        /* \"#utility.yul\":8867:8874   */\n      dup9\n        /* \"#utility.yul\":8858:8864   */\n      dup3\n        /* \"#utility.yul\":8847:8856   */\n      dup10\n        /* \"#utility.yul\":8843:8865   */\n      add\n        /* \"#utility.yul\":8822:8875   */\n      tag_283\n      jump\t// in\n    tag_454:\n        /* \"#utility.yul\":8812:8875   */\n      swap5\n      pop\n        /* \"#utility.yul\":8767:8885   */\n      pop\n        /* \"#utility.yul\":8952:8954   */\n      0x40\n        /* \"#utility.yul\":8941:8950   */\n      dup7\n        /* \"#utility.yul\":8937:8955   */\n      add\n        /* \"#utility.yul\":8924:8956   */\n      calldataload\n        /* \"#utility.yul\":8983:9001   */\n      0xffffffffffffffff\n        /* \"#utility.yul\":8975:8981   */\n      dup2\n        /* \"#utility.yul\":8972:9002   */\n      gt\n        /* \"#utility.yul\":8969:9086   */\n      iszero\n      tag_455\n      jumpi\n        /* \"#utility.yul\":9005:9084   */\n      tag_456\n      tag_280\n      jump\t// in\n    tag_456:\n        /* \"#utility.yul\":8969:9086   */\n    tag_455:\n        /* \"#utility.yul\":9118:9198   */\n      tag_457\n        /* \"#utility.yul\":9190:9197   */\n      dup9\n        /* \"#utility.yul\":9181:9187   */\n      dup3\n        /* \"#utility.yul\":9170:9179   */\n      dup10\n        /* \"#utility.yul\":9166:9188   */\n      add\n        /* \"#utility.yul\":9118:9198   */\n      tag_307\n      jump\t// in\n    tag_457:\n        /* \"#utility.yul\":9100:9198   */\n      swap4\n      pop\n      swap4\n      pop\n        /* \"#utility.yul\":8895:9208   */\n      pop\n        /* \"#utility.yul\":9247:9249   */\n      0x60\n        /* \"#utility.yul\":9273:9326   */\n      tag_458\n        /* \"#utility.yul\":9318:9325   */\n      dup9\n        /* \"#utility.yul\":9309:9315   */\n      dup3\n        /* \"#utility.yul\":9298:9307   */\n      dup10\n        /* \"#utility.yul\":9294:9316   */\n      add\n        /* \"#utility.yul\":9273:9326   */\n      tag_295\n      jump\t// in\n    tag_458:\n        /* \"#utility.yul\":9263:9326   */\n      swap2\n      pop\n        /* \"#utility.yul\":9218:9336   */\n      pop\n        /* \"#utility.yul\":8348:9343   */\n      swap3\n      swap6\n      pop\n      swap3\n      swap6\n      swap1\n      swap4\n      pop\n      jump\t// out\n        /* \"#utility.yul\":9349:10406   */\n    tag_54:\n        /* \"#utility.yul\":9453:9459   */\n      0x00\n        /* \"#utility.yul\":9461:9467   */\n      dup1\n        /* \"#utility.yul\":9469:9475   */\n      0x00\n        /* \"#utility.yul\":9477:9483   */\n      dup1\n        /* \"#utility.yul\":9485:9491   */\n      0x00\n        /* \"#utility.yul\":9493:9499   */\n      dup1\n        /* \"#utility.yul\":9542:9545   */\n      0xc0\n        /* \"#utility.yul\":9530:9539   */\n      dup8\n        /* \"#utility.yul\":9521:9528   */\n      dup10\n        /* \"#utility.yul\":9517:9540   */\n      sub\n        /* \"#utility.yul\":9513:9546   */\n      slt\n        /* \"#utility.yul\":9510:9630   */\n      iszero\n      tag_460\n      jumpi\n        /* \"#utility.yul\":9549:9628   */\n      tag_461\n      tag_279\n      jump\t// in\n    tag_461:\n        /* \"#utility.yul\":9510:9630   */\n    tag_460:\n        /* \"#utility.yul\":9669:9670   */\n      0x00\n        /* \"#utility.yul\":9694:9747   */\n      tag_462\n        /* \"#utility.yul\":9739:9746   */\n      dup10\n        /* \"#utility.yul\":9730:9736   */\n      dup3\n        /* \"#utility.yul\":9719:9728   */\n      dup11\n        /* \"#utility.yul\":9715:9737   */\n      add\n        /* \"#utility.yul\":9694:9747   */\n      tag_295\n      jump\t// in\n    tag_462:\n        /* \"#utility.yul\":9684:9747   */\n      swap7\n      pop\n        /* \"#utility.yul\":9640:9757   */\n      pop\n        /* \"#utility.yul\":9796:9798   */\n      0x20\n        /* \"#utility.yul\":9822:9875   */\n      tag_463\n        /* \"#utility.yul\":9867:9874   */\n      dup10\n        /* \"#utility.yul\":9858:9864   */\n      dup3\n        /* \"#utility.yul\":9847:9856   */\n      dup11\n        /* \"#utility.yul\":9843:9865   */\n      add\n        /* \"#utility.yul\":9822:9875   */\n      tag_295\n      jump\t// in\n    tag_463:\n        /* \"#utility.yul\":9812:9875   */\n      swap6\n      pop\n        /* \"#utility.yul\":9767:9885   */\n      pop\n        /* \"#utility.yul\":9924:9926   */\n      0x40\n        /* \"#utility.yul\":9950:10003   */\n      tag_464\n        /* \"#utility.yul\":9995:10002   */\n      dup10\n        /* \"#utility.yul\":9986:9992   */\n      dup3\n        /* \"#utility.yul\":9975:9984   */\n      dup11\n        /* \"#utility.yul\":9971:9993   */\n      add\n        /* \"#utility.yul\":9950:10003   */\n      tag_283\n      jump\t// in\n    tag_464:\n        /* \"#utility.yul\":9940:10003   */\n      swap5\n      pop\n        /* \"#utility.yul\":9895:10013   */\n      pop\n        /* \"#utility.yul\":10052:10054   */\n      0x60\n        /* \"#utility.yul\":10078:10131   */\n      tag_465\n        /* \"#utility.yul\":10123:10130   */\n      dup10\n        /* \"#utility.yul\":10114:10120   */\n      dup3\n        /* \"#utility.yul\":10103:10112   */\n      dup11\n        /* \"#utility.yul\":10099:10121   */\n      add\n        /* \"#utility.yul\":10078:10131   */\n      tag_283\n      jump\t// in\n    tag_465:\n        /* \"#utility.yul\":10068:10131   */\n      swap4\n      pop\n        /* \"#utility.yul\":10023:10141   */\n      pop\n        /* \"#utility.yul\":10180:10183   */\n      0x80\n        /* \"#utility.yul\":10207:10260   */\n      tag_466\n        /* \"#utility.yul\":10252:10259   */\n      dup10\n        /* \"#utility.yul\":10243:10249   */\n      dup3\n        /* \"#utility.yul\":10232:10241   */\n      dup11\n        /* \"#utility.yul\":10228:10250   */\n      add\n        /* \"#utility.yul\":10207:10260   */\n      tag_283\n      jump\t// in\n    tag_466:\n        /* \"#utility.yul\":10197:10260   */\n      swap3\n      pop\n        /* \"#utility.yul\":10151:10270   */\n      pop\n        /* \"#utility.yul\":10309:10312   */\n      0xa0\n        /* \"#utility.yul\":10336:10389   */\n      tag_467\n        /* \"#utility.yul\":10381:10388   */\n      dup10\n        /* \"#utility.yul\":10372:10378   */\n      dup3\n        /* \"#utility.yul\":10361:10370   */\n      dup11\n        /* \"#utility.yul\":10357:10379   */\n      add\n        /* \"#utility.yul\":10336:10389   */\n      tag_295\n      jump\t// in\n    tag_467:\n        /* \"#utility.yul\":10326:10389   */\n      swap2\n      pop\n        /* \"#utility.yul\":10280:10399   */\n      pop\n        /* \"#utility.yul\":9349:10406   */\n      swap3\n      swap6\n      pop\n      swap3\n      swap6\n      pop\n      swap3\n      swap6\n      jump\t// out\n        /* \"#utility.yul\":10412:10744   */\n    tag_57:\n        /* \"#utility.yul\":10533:10537   */\n      0x00\n        /* \"#utility.yul\":10571:10573   */\n      0x40\n        /* \"#utility.yul\":10560:10569   */\n      dup3\n        /* \"#utility.yul\":10556:10574   */\n      add\n        /* \"#utility.yul\":10548:10574   */\n      swap1\n      pop\n        /* \"#utility.yul\":10584:10655   */\n      tag_469\n        /* \"#utility.yul\":10652:10653   */\n      0x00\n        /* \"#utility.yul\":10641:10650   */\n      dup4\n        /* \"#utility.yul\":10637:10654   */\n      add\n        /* \"#utility.yul\":10628:10634   */\n      dup6\n        /* \"#utility.yul\":10584:10655   */\n      tag_284\n      jump\t// in\n    tag_469:\n        /* \"#utility.yul\":10665:10737   */\n      tag_470\n        /* \"#utility.yul\":10733:10735   */\n      0x20\n        /* \"#utility.yul\":10722:10731   */\n      dup4\n        /* \"#utility.yul\":10718:10736   */\n      add\n        /* \"#utility.yul\":10709:10715   */\n      dup5\n        /* \"#utility.yul\":10665:10737   */\n      tag_284\n      jump\t// in\n    tag_470:\n        /* \"#utility.yul\":10412:10744   */\n      swap4\n      swap3\n      pop\n      pop\n      pop\n      jump\t// out\n        /* \"#utility.yul\":10750:11953   */\n    tag_60:\n        /* \"#utility.yul\":10863:10869   */\n      0x00\n        /* \"#utility.yul\":10871:10877   */\n      dup1\n        /* \"#utility.yul\":10879:10885   */\n      0x00\n        /* \"#utility.yul\":10887:10893   */\n      dup1\n        /* \"#utility.yul\":10895:10901   */\n      0x00\n        /* \"#utility.yul\":10903:10909   */\n      dup1\n        /* \"#utility.yul\":10911:10917   */\n      0x00\n        /* \"#utility.yul\":10960:10963   */\n      0xe0\n        /* \"#utility.yul\":10948:10957   */\n      dup9\n        /* \"#utility.yul\":10939:10946   */\n      dup11\n        /* \"#utility.yul\":10935:10958   */\n      sub\n        /* \"#utility.yul\":10931:10964   */\n      slt\n        /* \"#utility.yul\":10928:11048   */\n      iszero\n      tag_472\n      jumpi\n        /* \"#utility.yul\":10967:11046   */\n      tag_473\n      tag_279\n      jump\t// in\n    tag_473:\n        /* \"#utility.yul\":10928:11048   */\n    tag_472:\n        /* \"#utility.yul\":11087:11088   */\n      0x00\n        /* \"#utility.yul\":11112:11165   */\n      tag_474\n        /* \"#utility.yul\":11157:11164   */\n      dup11\n        /* \"#utility.yul\":11148:11154   */\n      dup3\n        /* \"#utility.yul\":11137:11146   */\n      dup12\n        /* \"#utility.yul\":11133:11155   */\n      add\n        /* \"#utility.yul\":11112:11165   */\n      tag_295\n      jump\t// in\n    tag_474:\n        /* \"#utility.yul\":11102:11165   */\n      swap8\n      pop\n        /* \"#utility.yul\":11058:11175   */\n      pop\n        /* \"#utility.yul\":11214:11216   */\n      0x20\n        /* \"#utility.yul\":11240:11293   */\n      tag_475\n        /* \"#utility.yul\":11285:11292   */\n      dup11\n        /* \"#utility.yul\":11276:11282   */\n      dup3\n        /* \"#utility.yul\":11265:11274   */\n      dup12\n        /* \"#utility.yul\":11261:11283   */\n      add\n        /* \"#utility.yul\":11240:11293   */\n      tag_295\n      jump\t// in\n    tag_475:\n        /* \"#utility.yul\":11230:11293   */\n      swap7\n      pop\n        /* \"#utility.yul\":11185:11303   */\n      pop\n        /* \"#utility.yul\":11342:11344   */\n      0x40\n        /* \"#utility.yul\":11368:11421   */\n      tag_476\n        /* \"#utility.yul\":11413:11420   */\n      dup11\n        /* \"#utility.yul\":11404:11410   */\n      dup3\n        /* \"#utility.yul\":11393:11402   */\n      dup12\n        /* \"#utility.yul\":11389:11411   */\n      add\n        /* \"#utility.yul\":11368:11421   */\n      tag_283\n      jump\t// in\n    tag_476:\n        /* \"#utility.yul\":11358:11421   */\n      swap6\n      pop\n        /* \"#utility.yul\":11313:11431   */\n      pop\n        /* \"#utility.yul\":11470:11472   */\n      0x60\n        /* \"#utility.yul\":11496:11549   */\n      tag_477\n        /* \"#utility.yul\":11541:11548   */\n      dup11\n        /* \"#utility.yul\":11532:11538   */\n      dup3\n        /* \"#utility.yul\":11521:11530   */\n      dup12\n        /* \"#utility.yul\":11517:11539   */\n      add\n        /* \"#utility.yul\":11496:11549   */\n      tag_283\n      jump\t// in\n    tag_477:\n        /* \"#utility.yul\":11486:11549   */\n      swap5\n      pop\n        /* \"#utility.yul\":11441:11559   */\n      pop\n        /* \"#utility.yul\":11598:11601   */\n      0x80\n        /* \"#utility.yul\":11625:11678   */\n      tag_478\n        /* \"#utility.yul\":11670:11677   */\n      dup11\n        /* \"#utility.yul\":11661:11667   */\n      dup3\n        /* \"#utility.yul\":11650:11659   */\n      dup12\n        /* \"#utility.yul\":11646:11668   */\n      add\n        /* \"#utility.yul\":11625:11678   */\n      tag_283\n      jump\t// in\n    tag_478:\n        /* \"#utility.yul\":11615:11678   */\n      swap4\n      pop\n        /* \"#utility.yul\":11569:11688   */\n      pop\n        /* \"#utility.yul\":11727:11730   */\n      0xa0\n        /* \"#utility.yul\":11754:11807   */\n      tag_479\n        /* \"#utility.yul\":11799:11806   */\n      dup11\n        /* \"#utility.yul\":11790:11796   */\n      dup3\n        /* \"#utility.yul\":11779:11788   */\n      dup12\n        /* \"#utility.yul\":11775:11797   */\n      add\n        /* \"#utility.yul\":11754:11807   */\n      tag_283\n      jump\t// in\n    tag_479:\n        /* \"#utility.yul\":11744:11807   */\n      swap3\n      pop\n        /* \"#utility.yul\":11698:11817   */\n      pop\n        /* \"#utility.yul\":11856:11859   */\n      0xc0\n        /* \"#utility.yul\":11883:11936   */\n      tag_480\n        /* \"#utility.yul\":11928:11935   */\n      dup11\n        /* \"#utility.yul\":11919:11925   */\n      dup3\n        /* \"#utility.yul\":11908:11917   */\n      dup12\n        /* \"#utility.yul\":11904:11926   */\n      add\n        /* \"#utility.yul\":11883:11936   */\n      tag_295\n      jump\t// in\n    tag_480:\n        /* \"#utility.yul\":11873:11936   */\n      swap2\n      pop\n        /* \"#utility.yul\":11827:11946   */\n      pop\n        /* \"#utility.yul\":10750:11953   */\n      swap3\n      swap6\n      swap9\n      swap2\n      swap5\n      swap8\n      pop\n      swap3\n      swap6\n      pop\n      jump\t// out\n        /* \"#utility.yul\":11959:12401   */\n    tag_63:\n        /* \"#utility.yul\":12108:12112   */\n      0x00\n        /* \"#utility.yul\":12146:12148   */\n      0x60\n        /* \"#utility.yul\":12135:12144   */\n      dup3\n        /* \"#utility.yul\":12131:12149   */\n      add\n        /* \"#utility.yul\":12123:12149   */\n      swap1\n      pop\n        /* \"#utility.yul\":12159:12230   */\n      tag_482\n        /* \"#utility.yul\":12227:12228   */\n      0x00\n        /* \"#utility.yul\":12216:12225   */\n      dup4\n        /* \"#utility.yul\":12212:12229   */\n      add\n        /* \"#utility.yul\":12203:12209   */\n      dup7\n        /* \"#utility.yul\":12159:12230   */\n      tag_284\n      jump\t// in\n    tag_482:\n        /* \"#utility.yul\":12240:12312   */\n      tag_483\n        /* \"#utility.yul\":12308:12310   */\n      0x20\n        /* \"#utility.yul\":12297:12306   */\n      dup4\n        /* \"#utility.yul\":12293:12311   */\n      add\n        /* \"#utility.yul\":12284:12290   */\n      dup6\n        /* \"#utility.yul\":12240:12312   */\n      tag_284\n      jump\t// in\n    tag_483:\n        /* \"#utility.yul\":12322:12394   */\n      tag_484\n        /* \"#utility.yul\":12390:12392   */\n      0x40\n        /* \"#utility.yul\":12379:12388   */\n      dup4\n        /* \"#utility.yul\":12375:12393   */\n      add\n        /* \"#utility.yul\":12366:12372   */\n      dup5\n        /* \"#utility.yul\":12322:12394   */\n      tag_284\n      jump\t// in\n    tag_484:\n        /* \"#utility.yul\":11959:12401   */\n      swap5\n      swap4\n      pop\n      pop\n      pop\n      pop\n      jump\t// out\n        /* \"#utility.yul\":12407:12533   */\n    tag_308:\n        /* \"#utility.yul\":12502:12526   */\n      tag_486\n        /* \"#utility.yul\":12520:12525   */\n      dup2\n        /* \"#utility.yul\":12502:12526   */\n      tag_281\n      jump\t// in\n    tag_486:\n        /* \"#utility.yul\":12497:12500   */\n      dup3\n        /* \"#utility.yul\":12490:12527   */\n      mstore\n        /* \"#utility.yul\":12407:12533   */\n      pop\n      pop\n      jump\t// out\n        /* \"#utility.yul\":12539:13013   */\n    tag_73:\n        /* \"#utility.yul\":12696:12700   */\n      0x00\n        /* \"#utility.yul\":12734:12736   */\n      0x60\n        /* \"#utility.yul\":12723:12732   */\n      dup3\n        /* \"#utility.yul\":12719:12737   */\n      add\n        /* \"#utility.yul\":12711:12737   */\n      swap1\n      pop\n        /* \"#utility.yul\":12747:12826   */\n      tag_488\n        /* \"#utility.yul\":12823:12824   */\n      0x00\n        /* \"#utility.yul\":12812:12821   */\n      dup4\n        /* \"#utility.yul\":12808:12825   */\n      add\n        /* \"#utility.yul\":12799:12805   */\n      dup7\n        /* \"#utility.yul\":12747:12826   */\n      tag_308\n      jump\t// in\n    tag_488:\n        /* \"#utility.yul\":12836:12916   */\n      tag_489\n        /* \"#utility.yul\":12912:12914   */\n      0x20\n        /* \"#utility.yul\":12901:12910   */\n      dup4\n        /* \"#utility.yul\":12897:12915   */\n      add\n        /* \"#utility.yul\":12888:12894   */\n      dup6\n        /* \"#utility.yul\":12836:12916   */\n      tag_308\n      jump\t// in\n    tag_489:\n        /* \"#utility.yul\":12926:13006   */\n      tag_490\n        /* \"#utility.yul\":13002:13004   */\n      0x40\n        /* \"#utility.yul\":12991:13000   */\n      dup4\n        /* \"#utility.yul\":12987:13005   */\n      add\n        /* \"#utility.yul\":12978:12984   */\n      dup5\n        /* \"#utility.yul\":12926:13006   */\n      tag_308\n      jump\t// in\n    tag_490:\n        /* \"#utility.yul\":12539:13013   */\n      swap5\n      swap4\n      pop\n      pop\n      pop\n      pop\n      jump\t// out\n        /* \"#utility.yul\":13019:13162   */\n    tag_309:\n        /* \"#utility.yul\":13076:13081   */\n      0x00\n        /* \"#utility.yul\":13107:13113   */\n      dup2\n        /* \"#utility.yul\":13101:13114   */\n      mload\n        /* \"#utility.yul\":13092:13114   */\n      swap1\n      pop\n        /* \"#utility.yul\":13123:13156   */\n      tag_492\n        /* \"#utility.yul\":13150:13155   */\n      dup2\n        /* \"#utility.yul\":13123:13156   */\n      tag_282\n      jump\t// in\n    tag_492:\n        /* \"#utility.yul\":13019:13162   */\n      swap3\n      swap2\n      pop\n      pop\n      jump\t// out\n        /* \"#utility.yul\":13168:13519   */\n    tag_77:\n        /* \"#utility.yul\":13238:13244   */\n      0x00\n        /* \"#utility.yul\":13287:13289   */\n      0x20\n        /* \"#utility.yul\":13275:13284   */\n      dup3\n        /* \"#utility.yul\":13266:13273   */\n      dup5\n        /* \"#utility.yul\":13262:13285   */\n      sub\n        /* \"#utility.yul\":13258:13290   */\n      slt\n        /* \"#utility.yul\":13255:13374   */\n      iszero\n      tag_494\n      jumpi\n        /* \"#utility.yul\":13293:13372   */\n      tag_495\n      tag_279\n      jump\t// in\n    tag_495:\n        /* \"#utility.yul\":13255:13374   */\n    tag_494:\n        /* \"#utility.yul\":13413:13414   */\n      0x00\n        /* \"#utility.yul\":13438:13502   */\n      tag_496\n        /* \"#utility.yul\":13494:13501   */\n      dup5\n        /* \"#utility.yul\":13485:13491   */\n      dup3\n        /* \"#utility.yul\":13474:13483   */\n      dup6\n        /* \"#utility.yul\":13470:13492   */\n      add\n        /* \"#utility.yul\":13438:13502   */\n      tag_309\n      jump\t// in\n    tag_496:\n        /* \"#utility.yul\":13428:13502   */\n      swap2\n      pop\n        /* \"#utility.yul\":13384:13512   */\n      pop\n        /* \"#utility.yul\":13168:13519   */\n      swap3\n      swap2\n      pop\n      pop\n      jump\t// out\n        /* \"#utility.yul\":13525:13651   */\n    tag_310:\n        /* \"#utility.yul\":13620:13644   */\n      tag_498\n        /* \"#utility.yul\":13638:13643   */\n      dup2\n        /* \"#utility.yul\":13620:13644   */\n      tag_293\n      jump\t// in\n    tag_498:\n        /* \"#utility.yul\":13615:13618   */\n      dup3\n        /* \"#utility.yul\":13608:13645   */\n      mstore\n        /* \"#utility.yul\":13525:13651   */\n      pop\n      pop\n      jump\t// out\n        /* \"#utility.yul\":13657:13771   */\n    tag_311:\n        /* \"#utility.yul\":13724:13730   */\n      0x00\n        /* \"#utility.yul\":13758:13763   */\n      dup2\n        /* \"#utility.yul\":13752:13764   */\n      mload\n        /* \"#utility.yul\":13742:13764   */\n      swap1\n      pop\n        /* \"#utility.yul\":13657:13771   */\n      swap2\n      swap1\n      pop\n      jump\t// out\n        /* \"#utility.yul\":13777:13969   */\n    tag_312:\n        /* \"#utility.yul\":13884:13895   */\n      0x00\n        /* \"#utility.yul\":13918:13924   */\n      dup3\n        /* \"#utility.yul\":13913:13916   */\n      dup3\n        /* \"#utility.yul\":13906:13925   */\n      mstore\n        /* \"#utility.yul\":13958:13962   */\n      0x20\n        /* \"#utility.yul\":13953:13956   */\n      dup3\n        /* \"#utility.yul\":13949:13963   */\n      add\n        /* \"#utility.yul\":13934:13963   */\n      swap1\n      pop\n        /* \"#utility.yul\":13777:13969   */\n      swap3\n      swap2\n      pop\n      pop\n      jump\t// out\n        /* \"#utility.yul\":13975:14107   */\n    tag_313:\n        /* \"#utility.yul\":14042:14046   */\n      0x00\n        /* \"#utility.yul\":14065:14068   */\n      dup2\n        /* \"#utility.yul\":14057:14068   */\n      swap1\n      pop\n        /* \"#utility.yul\":14095:14099   */\n      0x20\n        /* \"#utility.yul\":14090:14093   */\n      dup3\n        /* \"#utility.yul\":14086:14100   */\n      add\n        /* \"#utility.yul\":14078:14100   */\n      swap1\n      pop\n        /* \"#utility.yul\":13975:14107   */\n      swap2\n      swap1\n      pop\n      jump\t// out\n        /* \"#utility.yul\":14113:14229   */\n    tag_314:\n        /* \"#utility.yul\":14198:14222   */\n      tag_503\n        /* \"#utility.yul\":14216:14221   */\n      dup2\n        /* \"#utility.yul\":14198:14222   */\n      tag_293\n      jump\t// in\n    tag_503:\n        /* \"#utility.yul\":14193:14196   */\n      dup3\n        /* \"#utility.yul\":14186:14223   */\n      mstore\n        /* \"#utility.yul\":14113:14229   */\n      pop\n      pop\n      jump\t// out\n        /* \"#utility.yul\":14235:14430   */\n    tag_315:\n        /* \"#utility.yul\":14312:14322   */\n      0x00\n        /* \"#utility.yul\":14333:14387   */\n      tag_505\n        /* \"#utility.yul\":14383:14386   */\n      dup4\n        /* \"#utility.yul\":14375:14381   */\n      dup4\n        /* \"#utility.yul\":14333:14387   */\n      tag_314\n      jump\t// in\n    tag_505:\n        /* \"#utility.yul\":14419:14423   */\n      0x20\n        /* \"#utility.yul\":14414:14417   */\n      dup4\n        /* \"#utility.yul\":14410:14424   */\n      add\n        /* \"#utility.yul\":14396:14424   */\n      swap1\n      pop\n        /* \"#utility.yul\":14235:14430   */\n      swap3\n      swap2\n      pop\n      pop\n      jump\t// out\n        /* \"#utility.yul\":14436:14549   */\n    tag_316:\n        /* \"#utility.yul\":14506:14510   */\n      0x00\n        /* \"#utility.yul\":14538:14542   */\n      0x20\n        /* \"#utility.yul\":14533:14536   */\n      dup3\n        /* \"#utility.yul\":14529:14543   */\n      add\n        /* \"#utility.yul\":14521:14543   */\n      swap1\n      pop\n        /* \"#utility.yul\":14436:14549   */\n      swap2\n      swap1\n      pop\n      jump\t// out\n        /* \"#utility.yul\":14585:15341   */\n    tag_317:\n        /* \"#utility.yul\":14712:14715   */\n      0x00\n        /* \"#utility.yul\":14741:14795   */\n      tag_508\n        /* \"#utility.yul\":14789:14794   */\n      dup3\n        /* \"#utility.yul\":14741:14795   */\n      tag_311\n      jump\t// in\n    tag_508:\n        /* \"#utility.yul\":14811:14905   */\n      tag_509\n        /* \"#utility.yul\":14898:14904   */\n      dup2\n        /* \"#utility.yul\":14893:14896   */\n      dup6\n        /* \"#utility.yul\":14811:14905   */\n      tag_312\n      jump\t// in\n    tag_509:\n        /* \"#utility.yul\":14804:14905   */\n      swap4\n      pop\n        /* \"#utility.yul\":14929:14985   */\n      tag_510\n        /* \"#utility.yul\":14979:14984   */\n      dup4\n        /* \"#utility.yul\":14929:14985   */\n      tag_313\n      jump\t// in\n    tag_510:\n        /* \"#utility.yul\":15008:15015   */\n      dup1\n        /* \"#utility.yul\":15039:15040   */\n      0x00\n        /* \"#utility.yul\":15024:15316   */\n    tag_511:\n        /* \"#utility.yul\":15049:15055   */\n      dup4\n        /* \"#utility.yul\":15046:15047   */\n      dup2\n        /* \"#utility.yul\":15043:15056   */\n      lt\n        /* \"#utility.yul\":15024:15316   */\n      iszero\n      tag_513\n      jumpi\n        /* \"#utility.yul\":15125:15131   */\n      dup2\n        /* \"#utility.yul\":15119:15132   */\n      mload\n        /* \"#utility.yul\":15152:15223   */\n      tag_514\n        /* \"#utility.yul\":15219:15222   */\n      dup9\n        /* \"#utility.yul\":15204:15217   */\n      dup3\n        /* \"#utility.yul\":15152:15223   */\n      tag_315\n      jump\t// in\n    tag_514:\n        /* \"#utility.yul\":15145:15223   */\n      swap8\n      pop\n        /* \"#utility.yul\":15246:15306   */\n      tag_515\n        /* \"#utility.yul\":15299:15305   */\n      dup4\n        /* \"#utility.yul\":15246:15306   */\n      tag_316\n      jump\t// in\n    tag_515:\n        /* \"#utility.yul\":15236:15306   */\n      swap3\n      pop\n        /* \"#utility.yul\":15084:15316   */\n      pop\n        /* \"#utility.yul\":15071:15072   */\n      0x01\n        /* \"#utility.yul\":15068:15069   */\n      dup2\n        /* \"#utility.yul\":15064:15073   */\n      add\n        /* \"#utility.yul\":15059:15073   */\n      swap1\n      pop\n        /* \"#utility.yul\":15024:15316   */\n      jump(tag_511)\n    tag_513:\n        /* \"#utility.yul\":15028:15042   */\n      pop\n        /* \"#utility.yul\":15332:15335   */\n      dup6\n        /* \"#utility.yul\":15325:15335   */\n      swap4\n      pop\n        /* \"#utility.yul\":14717:15341   */\n      pop\n      pop\n      pop\n        /* \"#utility.yul\":14585:15341   */\n      swap3\n      swap2\n      pop\n      pop\n      jump\t// out\n        /* \"#utility.yul\":15347:15972   */\n    tag_80:\n        /* \"#utility.yul\":15554:15558   */\n      0x00\n        /* \"#utility.yul\":15592:15594   */\n      0x60\n        /* \"#utility.yul\":15581:15590   */\n      dup3\n        /* \"#utility.yul\":15577:15595   */\n      add\n        /* \"#utility.yul\":15569:15595   */\n      swap1\n      pop\n        /* \"#utility.yul\":15605:15684   */\n      tag_517\n        /* \"#utility.yul\":15681:15682   */\n      0x00\n        /* \"#utility.yul\":15670:15679   */\n      dup4\n        /* \"#utility.yul\":15666:15683   */\n      add\n        /* \"#utility.yul\":15657:15663   */\n      dup7\n        /* \"#utility.yul\":15605:15684   */\n      tag_310\n      jump\t// in\n    tag_517:\n        /* \"#utility.yul\":15694:15774   */\n      tag_518\n        /* \"#utility.yul\":15770:15772   */\n      0x20\n        /* \"#utility.yul\":15759:15768   */\n      dup4\n        /* \"#utility.yul\":15755:15773   */\n      add\n        /* \"#utility.yul\":15746:15752   */\n      dup6\n        /* \"#utility.yul\":15694:15774   */\n      tag_308\n      jump\t// in\n    tag_518:\n        /* \"#utility.yul\":15821:15830   */\n      dup2\n        /* \"#utility.yul\":15815:15819   */\n      dup2\n        /* \"#utility.yul\":15811:15831   */\n      sub\n        /* \"#utility.yul\":15806:15808   */\n      0x40\n        /* \"#utility.yul\":15795:15804   */\n      dup4\n        /* \"#utility.yul\":15791:15809   */\n      add\n        /* \"#utility.yul\":15784:15832   */\n      mstore\n        /* \"#utility.yul\":15849:15965   */\n      tag_519\n        /* \"#utility.yul\":15960:15964   */\n      dup2\n        /* \"#utility.yul\":15951:15957   */\n      dup5\n        /* \"#utility.yul\":15849:15965   */\n      tag_317\n      jump\t// in\n    tag_519:\n        /* \"#utility.yul\":15841:15965   */\n      swap1\n      pop\n        /* \"#utility.yul\":15347:15972   */\n      swap5\n      swap4\n      pop\n      pop\n      pop\n      pop\n      jump\t// out\n        /* \"#utility.yul\":15978:16289   */\n    tag_318:\n        /* \"#utility.yul\":16055:16059   */\n      0x00\n        /* \"#utility.yul\":16145:16163   */\n      0xffffffffffffffff\n        /* \"#utility.yul\":16137:16143   */\n      dup3\n        /* \"#utility.yul\":16134:16164   */\n      gt\n        /* \"#utility.yul\":16131:16187   */\n      iszero\n      tag_521\n      jumpi\n        /* \"#utility.yul\":16167:16185   */\n      tag_522\n      tag_287\n      jump\t// in\n    tag_522:\n        /* \"#utility.yul\":16131:16187   */\n    tag_521:\n        /* \"#utility.yul\":16217:16221   */\n      0x20\n        /* \"#utility.yul\":16209:16215   */\n      dup3\n        /* \"#utility.yul\":16205:16222   */\n      mul\n        /* \"#utility.yul\":16197:16222   */\n      swap1\n      pop\n        /* \"#utility.yul\":16277:16281   */\n      0x20\n        /* \"#utility.yul\":16271:16275   */\n      dup2\n        /* \"#utility.yul\":16267:16282   */\n      add\n        /* \"#utility.yul\":16259:16282   */\n      swap1\n      pop\n        /* \"#utility.yul\":15978:16289   */\n      swap2\n      swap1\n      pop\n      jump\t// out\n        /* \"#utility.yul\":16312:17044   */\n    tag_319:\n        /* \"#utility.yul\":16419:16424   */\n      0x00\n        /* \"#utility.yul\":16444:16525   */\n      tag_524\n        /* \"#utility.yul\":16460:16524   */\n      tag_525\n        /* \"#utility.yul\":16517:16523   */\n      dup5\n        /* \"#utility.yul\":16460:16524   */\n      tag_318\n      jump\t// in\n    tag_525:\n        /* \"#utility.yul\":16444:16525   */\n      tag_289\n      jump\t// in\n    tag_524:\n        /* \"#utility.yul\":16435:16525   */\n      swap1\n      pop\n        /* \"#utility.yul\":16545:16550   */\n      dup1\n        /* \"#utility.yul\":16574:16580   */\n      dup4\n        /* \"#utility.yul\":16567:16572   */\n      dup3\n        /* \"#utility.yul\":16560:16581   */\n      mstore\n        /* \"#utility.yul\":16608:16612   */\n      0x20\n        /* \"#utility.yul\":16601:16606   */\n      dup3\n        /* \"#utility.yul\":16597:16613   */\n      add\n        /* \"#utility.yul\":16590:16613   */\n      swap1\n      pop\n        /* \"#utility.yul\":16661:16665   */\n      0x20\n        /* \"#utility.yul\":16653:16659   */\n      dup5\n        /* \"#utility.yul\":16649:16666   */\n      mul\n        /* \"#utility.yul\":16641:16647   */\n      dup4\n        /* \"#utility.yul\":16637:16667   */\n      add\n        /* \"#utility.yul\":16690:16693   */\n      dup6\n        /* \"#utility.yul\":16682:16688   */\n      dup2\n        /* \"#utility.yul\":16679:16694   */\n      gt\n        /* \"#utility.yul\":16676:16798   */\n      iszero\n      tag_526\n      jumpi\n        /* \"#utility.yul\":16709:16788   */\n      tag_527\n      tag_291\n      jump\t// in\n    tag_527:\n        /* \"#utility.yul\":16676:16798   */\n    tag_526:\n        /* \"#utility.yul\":16824:16830   */\n      dup4\n        /* \"#utility.yul\":16807:17038   */\n    tag_528:\n        /* \"#utility.yul\":16841:16847   */\n      dup2\n        /* \"#utility.yul\":16836:16839   */\n      dup2\n        /* \"#utility.yul\":16833:16848   */\n      lt\n        /* \"#utility.yul\":16807:17038   */\n      iszero\n      tag_530\n      jumpi\n        /* \"#utility.yul\":16916:16919   */\n      dup1\n        /* \"#utility.yul\":16945:16993   */\n      tag_531\n        /* \"#utility.yul\":16989:16992   */\n      dup9\n        /* \"#utility.yul\":16977:16987   */\n      dup3\n        /* \"#utility.yul\":16945:16993   */\n      tag_309\n      jump\t// in\n    tag_531:\n        /* \"#utility.yul\":16940:16943   */\n      dup5\n        /* \"#utility.yul\":16933:16994   */\n      mstore\n        /* \"#utility.yul\":17023:17027   */\n      0x20\n        /* \"#utility.yul\":17018:17021   */\n      dup5\n        /* \"#utility.yul\":17014:17028   */\n      add\n        /* \"#utility.yul\":17007:17028   */\n      swap4\n      pop\n        /* \"#utility.yul\":16883:17038   */\n      pop\n        /* \"#utility.yul\":16867:16871   */\n      0x20\n        /* \"#utility.yul\":16862:16865   */\n      dup2\n        /* \"#utility.yul\":16858:16872   */\n      add\n        /* \"#utility.yul\":16851:16872   */\n      swap1\n      pop\n        /* \"#utility.yul\":16807:17038   */\n      jump(tag_528)\n    tag_530:\n        /* \"#utility.yul\":16811:16832   */\n      pop\n        /* \"#utility.yul\":16425:17044   */\n      pop\n      pop\n        /* \"#utility.yul\":16312:17044   */\n      swap4\n      swap3\n      pop\n      pop\n      pop\n      jump\t// out\n        /* \"#utility.yul\":17067:17452   */\n    tag_320:\n        /* \"#utility.yul\":17149:17154   */\n      0x00\n        /* \"#utility.yul\":17198:17201   */\n      dup3\n        /* \"#utility.yul\":17191:17195   */\n      0x1f\n        /* \"#utility.yul\":17183:17189   */\n      dup4\n        /* \"#utility.yul\":17179:17196   */\n      add\n        /* \"#utility.yul\":17175:17202   */\n      slt\n        /* \"#utility.yul\":17165:17287   */\n      tag_533\n      jumpi\n        /* \"#utility.yul\":17206:17285   */\n      tag_534\n      tag_285\n      jump\t// in\n    tag_534:\n        /* \"#utility.yul\":17165:17287   */\n    tag_533:\n        /* \"#utility.yul\":17316:17322   */\n      dup2\n        /* \"#utility.yul\":17310:17323   */\n      mload\n        /* \"#utility.yul\":17341:17446   */\n      tag_535\n        /* \"#utility.yul\":17442:17445   */\n      dup5\n        /* \"#utility.yul\":17434:17440   */\n      dup3\n        /* \"#utility.yul\":17427:17431   */\n      0x20\n        /* \"#utility.yul\":17419:17425   */\n      dup7\n        /* \"#utility.yul\":17415:17432   */\n      add\n        /* \"#utility.yul\":17341:17446   */\n      tag_319\n      jump\t// in\n    tag_535:\n        /* \"#utility.yul\":17332:17446   */\n      swap2\n      pop\n        /* \"#utility.yul\":17155:17452   */\n      pop\n        /* \"#utility.yul\":17067:17452   */\n      swap3\n      swap2\n      pop\n      pop\n      jump\t// out\n        /* \"#utility.yul\":17458:18012   */\n    tag_84:\n        /* \"#utility.yul\":17553:17559   */\n      0x00\n        /* \"#utility.yul\":17602:17604   */\n      0x20\n        /* \"#utility.yul\":17590:17599   */\n      dup3\n        /* \"#utility.yul\":17581:17588   */\n      dup5\n        /* \"#utility.yul\":17577:17600   */\n      sub\n        /* \"#utility.yul\":17573:17605   */\n      slt\n        /* \"#utility.yul\":17570:17689   */\n      iszero\n      tag_537\n      jumpi\n        /* \"#utility.yul\":17608:17687   */\n      tag_538\n      tag_279\n      jump\t// in\n    tag_538:\n        /* \"#utility.yul\":17570:17689   */\n    tag_537:\n        /* \"#utility.yul\":17749:17750   */\n      0x00\n        /* \"#utility.yul\":17738:17747   */\n      dup3\n        /* \"#utility.yul\":17734:17751   */\n      add\n        /* \"#utility.yul\":17728:17752   */\n      mload\n        /* \"#utility.yul\":17779:17797   */\n      0xffffffffffffffff\n        /* \"#utility.yul\":17771:17777   */\n      dup2\n        /* \"#utility.yul\":17768:17798   */\n      gt\n        /* \"#utility.yul\":17765:17882   */\n      iszero\n      tag_539\n      jumpi\n        /* \"#utility.yul\":17801:17880   */\n      tag_540\n      tag_280\n      jump\t// in\n    tag_540:\n        /* \"#utility.yul\":17765:17882   */\n    tag_539:\n        /* \"#utility.yul\":17906:17995   */\n      tag_541\n        /* \"#utility.yul\":17987:17994   */\n      dup5\n        /* \"#utility.yul\":17978:17984   */\n      dup3\n        /* \"#utility.yul\":17967:17976   */\n      dup6\n        /* \"#utility.yul\":17963:17985   */\n      add\n        /* \"#utility.yul\":17906:17995   */\n      tag_320\n      jump\t// in\n    tag_541:\n        /* \"#utility.yul\":17896:17995   */\n      swap2\n      pop\n        /* \"#utility.yul\":17699:18005   */\n      pop\n        /* \"#utility.yul\":17458:18012   */\n      swap3\n      swap2\n      pop\n      pop\n      jump\t// out\n        /* \"#utility.yul\":18018:18120   */\n    tag_321:\n        /* \"#utility.yul\":18087:18091   */\n      0x00\n        /* \"#utility.yul\":18110:18113   */\n      dup2\n        /* \"#utility.yul\":18102:18113   */\n      swap1\n      pop\n        /* \"#utility.yul\":18018:18120   */\n      swap2\n      swap1\n      pop\n      jump\t// out\n        /* \"#utility.yul\":18126:18248   */\n    tag_322:\n        /* \"#utility.yul\":18178:18183   */\n      0x00\n        /* \"#utility.yul\":18203:18242   */\n      tag_544\n        /* \"#utility.yul\":18238:18240   */\n      0x20\n        /* \"#utility.yul\":18233:18236   */\n      dup5\n        /* \"#utility.yul\":18229:18241   */\n      add\n        /* \"#utility.yul\":18224:18227   */\n      dup5\n        /* \"#utility.yul\":18203:18242   */\n      tag_295\n      jump\t// in\n    tag_544:\n        /* \"#utility.yul\":18194:18242   */\n      swap1\n      pop\n        /* \"#utility.yul\":18126:18248   */\n      swap3\n      swap2\n      pop\n      pop\n      jump\t// out\n        /* \"#utility.yul\":18254:18369   */\n    tag_323:\n        /* \"#utility.yul\":18326:18330   */\n      0x00\n        /* \"#utility.yul\":18358:18362   */\n      0x20\n        /* \"#utility.yul\":18353:18356   */\n      dup3\n        /* \"#utility.yul\":18349:18363   */\n      add\n        /* \"#utility.yul\":18341:18363   */\n      swap1\n      pop\n        /* \"#utility.yul\":18254:18369   */\n      swap2\n      swap1\n      pop\n      jump\t// out\n        /* \"#utility.yul\":18405:19128   */\n    tag_324:\n        /* \"#utility.yul\":18542:18545   */\n      0x00\n        /* \"#utility.yul\":18565:18659   */\n      tag_547\n        /* \"#utility.yul\":18652:18658   */\n      dup4\n        /* \"#utility.yul\":18647:18650   */\n      dup6\n        /* \"#utility.yul\":18565:18659   */\n      tag_312\n      jump\t// in\n    tag_547:\n        /* \"#utility.yul\":18558:18659   */\n      swap4\n      pop\n        /* \"#utility.yul\":18683:18741   */\n      tag_548\n        /* \"#utility.yul\":18735:18740   */\n      dup3\n        /* \"#utility.yul\":18683:18741   */\n      tag_321\n      jump\t// in\n    tag_548:\n        /* \"#utility.yul\":18764:18771   */\n      dup1\n        /* \"#utility.yul\":18795:18796   */\n      0x00\n        /* \"#utility.yul\":18780:19103   */\n    tag_549:\n        /* \"#utility.yul\":18805:18811   */\n      dup6\n        /* \"#utility.yul\":18802:18803   */\n      dup2\n        /* \"#utility.yul\":18799:18812   */\n      lt\n        /* \"#utility.yul\":18780:19103   */\n      iszero\n      tag_551\n      jumpi\n        /* \"#utility.yul\":18875:18917   */\n      tag_552\n        /* \"#utility.yul\":18910:18916   */\n      dup3\n        /* \"#utility.yul\":18901:18908   */\n      dup5\n        /* \"#utility.yul\":18875:18917   */\n      tag_322\n      jump\t// in\n    tag_552:\n        /* \"#utility.yul\":18937:19008   */\n      tag_553\n        /* \"#utility.yul\":19004:19007   */\n      dup9\n        /* \"#utility.yul\":18989:19002   */\n      dup3\n        /* \"#utility.yul\":18937:19008   */\n      tag_315\n      jump\t// in\n    tag_553:\n        /* \"#utility.yul\":18930:19008   */\n      swap8\n      pop\n        /* \"#utility.yul\":19031:19093   */\n      tag_554\n        /* \"#utility.yul\":19086:19092   */\n      dup4\n        /* \"#utility.yul\":19031:19093   */\n      tag_323\n      jump\t// in\n    tag_554:\n        /* \"#utility.yul\":19021:19093   */\n      swap3\n      pop\n        /* \"#utility.yul\":18840:19103   */\n      pop\n        /* \"#utility.yul\":18827:18828   */\n      0x01\n        /* \"#utility.yul\":18824:18825   */\n      dup2\n        /* \"#utility.yul\":18820:18829   */\n      add\n        /* \"#utility.yul\":18815:18829   */\n      swap1\n      pop\n        /* \"#utility.yul\":18780:19103   */\n      jump(tag_549)\n    tag_551:\n        /* \"#utility.yul\":18784:18798   */\n      pop\n        /* \"#utility.yul\":19119:19122   */\n      dup6\n        /* \"#utility.yul\":19112:19122   */\n      swap3\n      pop\n        /* \"#utility.yul\":18547:19128   */\n      pop\n      pop\n        /* \"#utility.yul\":18405:19128   */\n      swap4\n      swap3\n      pop\n      pop\n      pop\n      jump\t// out\n        /* \"#utility.yul\":19134:19779   */\n    tag_87:\n        /* \"#utility.yul\":19351:19355   */\n      0x00\n        /* \"#utility.yul\":19389:19391   */\n      0x60\n        /* \"#utility.yul\":19378:19387   */\n      dup3\n        /* \"#utility.yul\":19374:19392   */\n      add\n        /* \"#utility.yul\":19366:19392   */\n      swap1\n      pop\n        /* \"#utility.yul\":19402:19481   */\n      tag_556\n        /* \"#utility.yul\":19478:19479   */\n      0x00\n        /* \"#utility.yul\":19467:19476   */\n      dup4\n        /* \"#utility.yul\":19463:19480   */\n      add\n        /* \"#utility.yul\":19454:19460   */\n      dup8\n        /* \"#utility.yul\":19402:19481   */\n      tag_310\n      jump\t// in\n    tag_556:\n        /* \"#utility.yul\":19491:19571   */\n      tag_557\n        /* \"#utility.yul\":19567:19569   */\n      0x20\n        /* \"#utility.yul\":19556:19565   */\n      dup4\n        /* \"#utility.yul\":19552:19570   */\n      add\n        /* \"#utility.yul\":19543:19549   */\n      dup7\n        /* \"#utility.yul\":19491:19571   */\n      tag_308\n      jump\t// in\n    tag_557:\n        /* \"#utility.yul\":19618:19627   */\n      dup2\n        /* \"#utility.yul\":19612:19616   */\n      dup2\n        /* \"#utility.yul\":19608:19628   */\n      sub\n        /* \"#utility.yul\":19603:19605   */\n      0x40\n        /* \"#utility.yul\":19592:19601   */\n      dup4\n        /* \"#utility.yul\":19588:19606   */\n      add\n        /* \"#utility.yul\":19581:19629   */\n      mstore\n        /* \"#utility.yul\":19646:19772   */\n      tag_558\n        /* \"#utility.yul\":19767:19771   */\n      dup2\n        /* \"#utility.yul\":19758:19764   */\n      dup5\n        /* \"#utility.yul\":19750:19756   */\n      dup7\n        /* \"#utility.yul\":19646:19772   */\n      tag_324\n      jump\t// in\n    tag_558:\n        /* \"#utility.yul\":19638:19772   */\n      swap1\n      pop\n        /* \"#utility.yul\":19134:19779   */\n      swap6\n      swap5\n      pop\n      pop\n      pop\n      pop\n      pop\n      jump\t// out\n        /* \"#utility.yul\":19785:19965   */\n    tag_93:\n        /* \"#utility.yul\":19833:19910   */\n      0x4e487b7100000000000000000000000000000000000000000000000000000000\n        /* \"#utility.yul\":19830:19831   */\n      0x00\n        /* \"#utility.yul\":19823:19911   */\n      mstore\n        /* \"#utility.yul\":19930:19934   */\n      0x32\n        /* \"#utility.yul\":19927:19928   */\n      0x04\n        /* \"#utility.yul\":19920:19935   */\n      mstore\n        /* \"#utility.yul\":19954:19958   */\n      0x24\n        /* \"#utility.yul\":19951:19952   */\n      0x00\n        /* \"#utility.yul\":19944:19959   */\n      revert\n        /* \"#utility.yul\":19971:20140   */\n    tag_325:\n        /* \"#utility.yul\":20055:20066   */\n      0x00\n        /* \"#utility.yul\":20089:20095   */\n      dup3\n        /* \"#utility.yul\":20084:20087   */\n      dup3\n        /* \"#utility.yul\":20077:20096   */\n      mstore\n        /* \"#utility.yul\":20129:20133   */\n      0x20\n        /* \"#utility.yul\":20124:20127   */\n      dup3\n        /* \"#utility.yul\":20120:20134   */\n      add\n        /* \"#utility.yul\":20105:20134   */\n      swap1\n      pop\n        /* \"#utility.yul\":19971:20140   */\n      swap3\n      swap2\n      pop\n      pop\n      jump\t// out\n        /* \"#utility.yul\":20146:20371   */\n    tag_326:\n        /* \"#utility.yul\":20286:20320   */\n      0x4b616a7573776170526f757465723a204558434553534956455f494e5055545f\n        /* \"#utility.yul\":20282:20283   */\n      0x00\n        /* \"#utility.yul\":20274:20280   */\n      dup3\n        /* \"#utility.yul\":20270:20284   */\n      add\n        /* \"#utility.yul\":20263:20321   */\n      mstore\n        /* \"#utility.yul\":20355:20363   */\n      0x414d4f554e540000000000000000000000000000000000000000000000000000\n        /* \"#utility.yul\":20350:20352   */\n      0x20\n        /* \"#utility.yul\":20342:20348   */\n      dup3\n        /* \"#utility.yul\":20338:20353   */\n      add\n        /* \"#utility.yul\":20331:20364   */\n      mstore\n        /* \"#utility.yul\":20146:20371   */\n      pop\n      jump\t// out\n        /* \"#utility.yul\":20377:20743   */\n    tag_327:\n        /* \"#utility.yul\":20519:20522   */\n      0x00\n        /* \"#utility.yul\":20540:20607   */\n      tag_563\n        /* \"#utility.yul\":20604:20606   */\n      0x26\n        /* \"#utility.yul\":20599:20602   */\n      dup4\n        /* \"#utility.yul\":20540:20607   */\n      tag_325\n      jump\t// in\n    tag_563:\n        /* \"#utility.yul\":20533:20607   */\n      swap2\n      pop\n        /* \"#utility.yul\":20616:20709   */\n      tag_564\n        /* \"#utility.yul\":20705:20708   */\n      dup3\n        /* \"#utility.yul\":20616:20709   */\n      tag_326\n      jump\t// in\n    tag_564:\n        /* \"#utility.yul\":20734:20736   */\n      0x40\n        /* \"#utility.yul\":20729:20732   */\n      dup3\n        /* \"#utility.yul\":20725:20737   */\n      add\n        /* \"#utility.yul\":20718:20737   */\n      swap1\n      pop\n        /* \"#utility.yul\":20377:20743   */\n      swap2\n      swap1\n      pop\n      jump\t// out\n        /* \"#utility.yul\":20749:21168   */\n    tag_96:\n        /* \"#utility.yul\":20915:20919   */\n      0x00\n        /* \"#utility.yul\":20953:20955   */\n      0x20\n        /* \"#utility.yul\":20942:20951   */\n      dup3\n        /* \"#utility.yul\":20938:20956   */\n      add\n        /* \"#utility.yul\":20930:20956   */\n      swap1\n      pop\n        /* \"#utility.yul\":21002:21011   */\n      dup2\n        /* \"#utility.yul\":20996:21000   */\n      dup2\n        /* \"#utility.yul\":20992:21012   */\n      sub\n        /* \"#utility.yul\":20988:20989   */\n      0x00\n        /* \"#utility.yul\":20977:20986   */\n      dup4\n        /* \"#utility.yul\":20973:20990   */\n      add\n        /* \"#utility.yul\":20966:21013   */\n      mstore\n        /* \"#utility.yul\":21030:21161   */\n      tag_566\n        /* \"#utility.yul\":21156:21160   */\n      dup2\n        /* \"#utility.yul\":21030:21161   */\n      tag_327\n      jump\t// in\n    tag_566:\n        /* \"#utility.yul\":21022:21161   */\n      swap1\n      pop\n        /* \"#utility.yul\":20749:21168   */\n      swap2\n      swap1\n      pop\n      jump\t// out\n        /* \"#utility.yul\":21174:21503   */\n    tag_101:\n        /* \"#utility.yul\":21233:21239   */\n      0x00\n        /* \"#utility.yul\":21282:21284   */\n      0x20\n        /* \"#utility.yul\":21270:21279   */\n      dup3\n        /* \"#utility.yul\":21261:21268   */\n      dup5\n        /* \"#utility.yul\":21257:21280   */\n      sub\n        /* \"#utility.yul\":21253:21285   */\n      slt\n        /* \"#utility.yul\":21250:21369   */\n      iszero\n      tag_568\n      jumpi\n        /* \"#utility.yul\":21288:21367   */\n      tag_569\n      tag_279\n      jump\t// in\n    tag_569:\n        /* \"#utility.yul\":21250:21369   */\n    tag_568:\n        /* \"#utility.yul\":21408:21409   */\n      0x00\n        /* \"#utility.yul\":21433:21486   */\n      tag_570\n        /* \"#utility.yul\":21478:21485   */\n      dup5\n        /* \"#utility.yul\":21469:21475   */\n      dup3\n        /* \"#utility.yul\":21458:21467   */\n      dup6\n        /* \"#utility.yul\":21454:21476   */\n      add\n        /* \"#utility.yul\":21433:21486   */\n      tag_295\n      jump\t// in\n    tag_570:\n        /* \"#utility.yul\":21423:21486   */\n      swap2\n      pop\n        /* \"#utility.yul\":21379:21496   */\n      pop\n        /* \"#utility.yul\":21174:21503   */\n      swap3\n      swap2\n      pop\n      pop\n      jump\t// out\n        /* \"#utility.yul\":21509:21689   */\n    tag_328:\n        /* \"#utility.yul\":21557:21634   */\n      0x4e487b7100000000000000000000000000000000000000000000000000000000\n        /* \"#utility.yul\":21554:21555   */\n      0x00\n        /* \"#utility.yul\":21547:21635   */\n      mstore\n        /* \"#utility.yul\":21654:21658   */\n      0x11\n        /* \"#utility.yul\":21651:21652   */\n      0x04\n        /* \"#utility.yul\":21644:21659   */\n      mstore\n        /* \"#utility.yul\":21678:21682   */\n      0x24\n        /* \"#utility.yul\":21675:21676   */\n      0x00\n        /* \"#utility.yul\":21668:21683   */\n      revert\n        /* \"#utility.yul\":21695:21886   */\n    tag_121:\n        /* \"#utility.yul\":21735:21739   */\n      0x00\n        /* \"#utility.yul\":21755:21775   */\n      tag_573\n        /* \"#utility.yul\":21773:21774   */\n      dup3\n        /* \"#utility.yul\":21755:21775   */\n      tag_281\n      jump\t// in\n    tag_573:\n        /* \"#utility.yul\":21750:21775   */\n      swap2\n      pop\n        /* \"#utility.yul\":21789:21809   */\n      tag_574\n        /* \"#utility.yul\":21807:21808   */\n      dup4\n        /* \"#utility.yul\":21789:21809   */\n      tag_281\n      jump\t// in\n    tag_574:\n        /* \"#utility.yul\":21784:21809   */\n      swap3\n      pop\n        /* \"#utility.yul\":21828:21829   */\n      dup3\n        /* \"#utility.yul\":21825:21826   */\n      dup3\n        /* \"#utility.yul\":21822:21830   */\n      lt\n        /* \"#utility.yul\":21819:21853   */\n      iszero\n      tag_575\n      jumpi\n        /* \"#utility.yul\":21833:21851   */\n      tag_576\n      tag_328\n      jump\t// in\n    tag_576:\n        /* \"#utility.yul\":21819:21853   */\n    tag_575:\n        /* \"#utility.yul\":21878:21879   */\n      dup3\n        /* \"#utility.yul\":21875:21876   */\n      dup3\n        /* \"#utility.yul\":21871:21880   */\n      sub\n        /* \"#utility.yul\":21863:21880   */\n      swap1\n      pop\n        /* \"#utility.yul\":21695:21886   */\n      swap3\n      swap2\n      pop\n      pop\n      jump\t// out\n        /* \"#utility.yul\":21892:22121   */\n    tag_329:\n        /* \"#utility.yul\":22032:22066   */\n      0x4b616a7573776170526f757465723a20494e53554646494349454e545f4f5554\n        /* \"#utility.yul\":22028:22029   */\n      0x00\n        /* \"#utility.yul\":22020:22026   */\n      dup3\n        /* \"#utility.yul\":22016:22030   */\n      add\n        /* \"#utility.yul\":22009:22067   */\n      mstore\n        /* \"#utility.yul\":22101:22113   */\n      0x5055545f414d4f554e5400000000000000000000000000000000000000000000\n        /* \"#utility.yul\":22096:22098   */\n      0x20\n        /* \"#utility.yul\":22088:22094   */\n      dup3\n        /* \"#utility.yul\":22084:22099   */\n      add\n        /* \"#utility.yul\":22077:22114   */\n      mstore\n        /* \"#utility.yul\":21892:22121   */\n      pop\n      jump\t// out\n        /* \"#utility.yul\":22127:22493   */\n    tag_330:\n        /* \"#utility.yul\":22269:22272   */\n      0x00\n        /* \"#utility.yul\":22290:22357   */\n      tag_579\n        /* \"#utility.yul\":22354:22356   */\n      0x2a\n        /* \"#utility.yul\":22349:22352   */\n      dup4\n        /* \"#utility.yul\":22290:22357   */\n      tag_325\n      jump\t// in\n    tag_579:\n        /* \"#utility.yul\":22283:22357   */\n      swap2\n      pop\n        /* \"#utility.yul\":22366:22459   */\n      tag_580\n        /* \"#utility.yul\":22455:22458   */\n      dup3\n        /* \"#utility.yul\":22366:22459   */\n      tag_329\n      jump\t// in\n    tag_580:\n        /* \"#utility.yul\":22484:22486   */\n      0x40\n        /* \"#utility.yul\":22479:22482   */\n      dup3\n        /* \"#utility.yul\":22475:22487   */\n      add\n        /* \"#utility.yul\":22468:22487   */\n      swap1\n      pop\n        /* \"#utility.yul\":22127:22493   */\n      swap2\n      swap1\n      pop\n      jump\t// out\n        /* \"#utility.yul\":22499:22918   */\n    tag_126:\n        /* \"#utility.yul\":22665:22669   */\n      0x00\n        /* \"#utility.yul\":22703:22705   */\n      0x20\n        /* \"#utility.yul\":22692:22701   */\n      dup3\n        /* \"#utility.yul\":22688:22706   */\n      add\n        /* \"#utility.yul\":22680:22706   */\n      swap1\n      pop\n        /* \"#utility.yul\":22752:22761   */\n      dup2\n        /* \"#utility.yul\":22746:22750   */\n      dup2\n        /* \"#utility.yul\":22742:22762   */\n      sub\n        /* \"#utility.yul\":22738:22739   */\n      0x00\n        /* \"#utility.yul\":22727:22736   */\n      dup4\n        /* \"#utility.yul\":22723:22740   */\n      add\n        /* \"#utility.yul\":22716:22763   */\n      mstore\n        /* \"#utility.yul\":22780:22911   */\n      tag_582\n        /* \"#utility.yul\":22906:22910   */\n      dup2\n        /* \"#utility.yul\":22780:22911   */\n      tag_330\n      jump\t// in\n    tag_582:\n        /* \"#utility.yul\":22772:22911   */\n      swap1\n      pop\n        /* \"#utility.yul\":22499:22918   */\n      swap2\n      swap1\n      pop\n      jump\t// out\n        /* \"#utility.yul\":22924:23366   */\n    tag_154:\n        /* \"#utility.yul\":23073:23077   */\n      0x00\n        /* \"#utility.yul\":23111:23113   */\n      0x60\n        /* \"#utility.yul\":23100:23109   */\n      dup3\n        /* \"#utility.yul\":23096:23114   */\n      add\n        /* \"#utility.yul\":23088:23114   */\n      swap1\n      pop\n        /* \"#utility.yul\":23124:23195   */\n      tag_584\n        /* \"#utility.yul\":23192:23193   */\n      0x00\n        /* \"#utility.yul\":23181:23190   */\n      dup4\n        /* \"#utility.yul\":23177:23194   */\n      add\n        /* \"#utility.yul\":23168:23174   */\n      dup7\n        /* \"#utility.yul\":23124:23195   */\n      tag_305\n      jump\t// in\n    tag_584:\n        /* \"#utility.yul\":23205:23277   */\n      tag_585\n        /* \"#utility.yul\":23273:23275   */\n      0x20\n        /* \"#utility.yul\":23262:23271   */\n      dup4\n        /* \"#utility.yul\":23258:23276   */\n      add\n        /* \"#utility.yul\":23249:23255   */\n      dup6\n        /* \"#utility.yul\":23205:23277   */\n      tag_305\n      jump\t// in\n    tag_585:\n        /* \"#utility.yul\":23287:23359   */\n      tag_586\n        /* \"#utility.yul\":23355:23357   */\n      0x40\n        /* \"#utility.yul\":23344:23353   */\n      dup4\n        /* \"#utility.yul\":23340:23358   */\n      add\n        /* \"#utility.yul\":23331:23337   */\n      dup5\n        /* \"#utility.yul\":23287:23359   */\n      tag_284\n      jump\t// in\n    tag_586:\n        /* \"#utility.yul\":22924:23366   */\n      swap5\n      swap4\n      pop\n      pop\n      pop\n      pop\n      jump\t// out\n        /* \"#utility.yul\":23372:23462   */\n    tag_331:\n        /* \"#utility.yul\":23406:23413   */\n      0x00\n        /* \"#utility.yul\":23449:23454   */\n      dup2\n        /* \"#utility.yul\":23442:23455   */\n      iszero\n        /* \"#utility.yul\":23435:23456   */\n      iszero\n        /* \"#utility.yul\":23424:23456   */\n      swap1\n      pop\n        /* \"#utility.yul\":23372:23462   */\n      swap2\n      swap1\n      pop\n      jump\t// out\n        /* \"#utility.yul\":23468:23584   */\n    tag_332:\n        /* \"#utility.yul\":23538:23559   */\n      tag_589\n        /* \"#utility.yul\":23553:23558   */\n      dup2\n        /* \"#utility.yul\":23538:23559   */\n      tag_331\n      jump\t// in\n    tag_589:\n        /* \"#utility.yul\":23531:23536   */\n      dup2\n        /* \"#utility.yul\":23528:23560   */\n      eq\n        /* \"#utility.yul\":23518:23578   */\n      tag_590\n      jumpi\n        /* \"#utility.yul\":23574:23575   */\n      0x00\n        /* \"#utility.yul\":23571:23572   */\n      dup1\n        /* \"#utility.yul\":23564:23576   */\n      revert\n        /* \"#utility.yul\":23518:23578   */\n    tag_590:\n        /* \"#utility.yul\":23468:23584   */\n      pop\n      jump\t// out\n        /* \"#utility.yul\":23590:23727   */\n    tag_333:\n        /* \"#utility.yul\":23644:23649   */\n      0x00\n        /* \"#utility.yul\":23675:23681   */\n      dup2\n        /* \"#utility.yul\":23669:23682   */\n      mload\n        /* \"#utility.yul\":23660:23682   */\n      swap1\n      pop\n        /* \"#utility.yul\":23691:23721   */\n      tag_592\n        /* \"#utility.yul\":23715:23720   */\n      dup2\n        /* \"#utility.yul\":23691:23721   */\n      tag_332\n      jump\t// in\n    tag_592:\n        /* \"#utility.yul\":23590:23727   */\n      swap3\n      swap2\n      pop\n      pop\n      jump\t// out\n        /* \"#utility.yul\":23733:24078   */\n    tag_158:\n        /* \"#utility.yul\":23800:23806   */\n      0x00\n        /* \"#utility.yul\":23849:23851   */\n      0x20\n        /* \"#utility.yul\":23837:23846   */\n      dup3\n        /* \"#utility.yul\":23828:23835   */\n      dup5\n        /* \"#utility.yul\":23824:23847   */\n      sub\n        /* \"#utility.yul\":23820:23852   */\n      slt\n        /* \"#utility.yul\":23817:23936   */\n      iszero\n      tag_594\n      jumpi\n        /* \"#utility.yul\":23855:23934   */\n      tag_595\n      tag_279\n      jump\t// in\n    tag_595:\n        /* \"#utility.yul\":23817:23936   */\n    tag_594:\n        /* \"#utility.yul\":23975:23976   */\n      0x00\n        /* \"#utility.yul\":24000:24061   */\n      tag_596\n        /* \"#utility.yul\":24053:24060   */\n      dup5\n        /* \"#utility.yul\":24044:24050   */\n      dup3\n        /* \"#utility.yul\":24033:24042   */\n      dup6\n        /* \"#utility.yul\":24029:24051   */\n      add\n        /* \"#utility.yul\":24000:24061   */\n      tag_333\n      jump\t// in\n    tag_596:\n        /* \"#utility.yul\":23990:24061   */\n      swap2\n      pop\n        /* \"#utility.yul\":23946:24071   */\n      pop\n        /* \"#utility.yul\":23733:24078   */\n      swap3\n      swap2\n      pop\n      pop\n      jump\t// out\n        /* \"#utility.yul\":24084:24591   */\n    tag_163:\n        /* \"#utility.yul\":24163:24169   */\n      0x00\n        /* \"#utility.yul\":24171:24177   */\n      dup1\n        /* \"#utility.yul\":24220:24222   */\n      0x40\n        /* \"#utility.yul\":24208:24217   */\n      dup4\n        /* \"#utility.yul\":24199:24206   */\n      dup6\n        /* \"#utility.yul\":24195:24218   */\n      sub\n        /* \"#utility.yul\":24191:24223   */\n      slt\n        /* \"#utility.yul\":24188:24307   */\n      iszero\n      tag_598\n      jumpi\n        /* \"#utility.yul\":24226:24305   */\n      tag_599\n      tag_279\n      jump\t// in\n    tag_599:\n        /* \"#utility.yul\":24188:24307   */\n    tag_598:\n        /* \"#utility.yul\":24346:24347   */\n      0x00\n        /* \"#utility.yul\":24371:24435   */\n      tag_600\n        /* \"#utility.yul\":24427:24434   */\n      dup6\n        /* \"#utility.yul\":24418:24424   */\n      dup3\n        /* \"#utility.yul\":24407:24416   */\n      dup7\n        /* \"#utility.yul\":24403:24425   */\n      add\n        /* \"#utility.yul\":24371:24435   */\n      tag_309\n      jump\t// in\n    tag_600:\n        /* \"#utility.yul\":24361:24435   */\n      swap3\n      pop\n        /* \"#utility.yul\":24317:24445   */\n      pop\n        /* \"#utility.yul\":24484:24486   */\n      0x20\n        /* \"#utility.yul\":24510:24574   */\n      tag_601\n        /* \"#utility.yul\":24566:24573   */\n      dup6\n        /* \"#utility.yul\":24557:24563   */\n      dup3\n        /* \"#utility.yul\":24546:24555   */\n      dup7\n        /* \"#utility.yul\":24542:24564   */\n      add\n        /* \"#utility.yul\":24510:24574   */\n      tag_309\n      jump\t// in\n    tag_601:\n        /* \"#utility.yul\":24500:24574   */\n      swap2\n      pop\n        /* \"#utility.yul\":24455:24584   */\n      pop\n        /* \"#utility.yul\":24084:24591   */\n      swap3\n      pop\n      swap3\n      swap1\n      pop\n      jump\t// out\n        /* \"#utility.yul\":24597:24821   */\n    tag_334:\n        /* \"#utility.yul\":24737:24771   */\n      0x4b616a7573776170526f757465723a20494e53554646494349454e545f415f41\n        /* \"#utility.yul\":24733:24734   */\n      0x00\n        /* \"#utility.yul\":24725:24731   */\n      dup3\n        /* \"#utility.yul\":24721:24735   */\n      add\n        /* \"#utility.yul\":24714:24772   */\n      mstore\n        /* \"#utility.yul\":24806:24813   */\n      0x4d4f554e54000000000000000000000000000000000000000000000000000000\n        /* \"#utility.yul\":24801:24803   */\n      0x20\n        /* \"#utility.yul\":24793:24799   */\n      dup3\n        /* \"#utility.yul\":24789:24804   */\n      add\n        /* \"#utility.yul\":24782:24814   */\n      mstore\n        /* \"#utility.yul\":24597:24821   */\n      pop\n      jump\t// out\n        /* \"#utility.yul\":24827:25193   */\n    tag_335:\n        /* \"#utility.yul\":24969:24972   */\n      0x00\n        /* \"#utility.yul\":24990:25057   */\n      tag_604\n        /* \"#utility.yul\":25054:25056   */\n      0x25\n        /* \"#utility.yul\":25049:25052   */\n      dup4\n        /* \"#utility.yul\":24990:25057   */\n      tag_325\n      jump\t// in\n    tag_604:\n        /* \"#utility.yul\":24983:25057   */\n      swap2\n      pop\n        /* \"#utility.yul\":25066:25159   */\n      tag_605\n        /* \"#utility.yul\":25155:25158   */\n      dup3\n        /* \"#utility.yul\":25066:25159   */\n      tag_334\n      jump\t// in\n    tag_605:\n        /* \"#utility.yul\":25184:25186   */\n      0x40\n        /* \"#utility.yul\":25179:25182   */\n      dup3\n        /* \"#utility.yul\":25175:25187   */\n      add\n        /* \"#utility.yul\":25168:25187   */\n      swap1\n      pop\n        /* \"#utility.yul\":24827:25193   */\n      swap2\n      swap1\n      pop\n      jump\t// out\n        /* \"#utility.yul\":25199:25618   */\n    tag_166:\n        /* \"#utility.yul\":25365:25369   */\n      0x00\n        /* \"#utility.yul\":25403:25405   */\n      0x20\n        /* \"#utility.yul\":25392:25401   */\n      dup3\n        /* \"#utility.yul\":25388:25406   */\n      add\n        /* \"#utility.yul\":25380:25406   */\n      swap1\n      pop\n        /* \"#utility.yul\":25452:25461   */\n      dup2\n        /* \"#utility.yul\":25446:25450   */\n      dup2\n        /* \"#utility.yul\":25442:25462   */\n      sub\n        /* \"#utility.yul\":25438:25439   */\n      0x00\n        /* \"#utility.yul\":25427:25436   */\n      dup4\n        /* \"#utility.yul\":25423:25440   */\n      add\n        /* \"#utility.yul\":25416:25463   */\n      mstore\n        /* \"#utility.yul\":25480:25611   */\n      tag_607\n        /* \"#utility.yul\":25606:25610   */\n      dup2\n        /* \"#utility.yul\":25480:25611   */\n      tag_335\n      jump\t// in\n    tag_607:\n        /* \"#utility.yul\":25472:25611   */\n      swap1\n      pop\n        /* \"#utility.yul\":25199:25618   */\n      swap2\n      swap1\n      pop\n      jump\t// out\n        /* \"#utility.yul\":25624:25848   */\n    tag_336:\n        /* \"#utility.yul\":25764:25798   */\n      0x4b616a7573776170526f757465723a20494e53554646494349454e545f425f41\n        /* \"#utility.yul\":25760:25761   */\n      0x00\n        /* \"#utility.yul\":25752:25758   */\n      dup3\n        /* \"#utility.yul\":25748:25762   */\n      add\n        /* \"#utility.yul\":25741:25799   */\n      mstore\n        /* \"#utility.yul\":25833:25840   */\n      0x4d4f554e54000000000000000000000000000000000000000000000000000000\n        /* \"#utility.yul\":25828:25830   */\n      0x20\n        /* \"#utility.yul\":25820:25826   */\n      dup3\n        /* \"#utility.yul\":25816:25831   */\n      add\n        /* \"#utility.yul\":25809:25841   */\n      mstore\n        /* \"#utility.yul\":25624:25848   */\n      pop\n      jump\t// out\n        /* \"#utility.yul\":25854:26220   */\n    tag_337:\n        /* \"#utility.yul\":25996:25999   */\n      0x00\n        /* \"#utility.yul\":26017:26084   */\n      tag_610\n        /* \"#utility.yul\":26081:26083   */\n      0x25\n        /* \"#utility.yul\":26076:26079   */\n      dup4\n        /* \"#utility.yul\":26017:26084   */\n      tag_325\n      jump\t// in\n    tag_610:\n        /* \"#utility.yul\":26010:26084   */\n      swap2\n      pop\n        /* \"#utility.yul\":26093:26186   */\n      tag_611\n        /* \"#utility.yul\":26182:26185   */\n      dup3\n        /* \"#utility.yul\":26093:26186   */\n      tag_336\n      jump\t// in\n    tag_611:\n        /* \"#utility.yul\":26211:26213   */\n      0x40\n        /* \"#utility.yul\":26206:26209   */\n      dup3\n        /* \"#utility.yul\":26202:26214   */\n      add\n        /* \"#utility.yul\":26195:26214   */\n      swap1\n      pop\n        /* \"#utility.yul\":25854:26220   */\n      swap2\n      swap1\n      pop\n      jump\t// out\n        /* \"#utility.yul\":26226:26645   */\n    tag_169:\n        /* \"#utility.yul\":26392:26396   */\n      0x00\n        /* \"#utility.yul\":26430:26432   */\n      0x20\n        /* \"#utility.yul\":26419:26428   */\n      dup3\n        /* \"#utility.yul\":26415:26433   */\n      add\n        /* \"#utility.yul\":26407:26433   */\n      swap1\n      pop\n        /* \"#utility.yul\":26479:26488   */\n      dup2\n        /* \"#utility.yul\":26473:26477   */\n      dup2\n        /* \"#utility.yul\":26469:26489   */\n      sub\n        /* \"#utility.yul\":26465:26466   */\n      0x00\n        /* \"#utility.yul\":26454:26463   */\n      dup4\n        /* \"#utility.yul\":26450:26467   */\n      add\n        /* \"#utility.yul\":26443:26490   */\n      mstore\n        /* \"#utility.yul\":26507:26638   */\n      tag_613\n        /* \"#utility.yul\":26633:26637   */\n      dup2\n        /* \"#utility.yul\":26507:26638   */\n      tag_337\n      jump\t// in\n    tag_613:\n        /* \"#utility.yul\":26499:26638   */\n      swap1\n      pop\n        /* \"#utility.yul\":26226:26645   */\n      swap2\n      swap1\n      pop\n      jump\t// out\n        /* \"#utility.yul\":26651:26983   */\n    tag_172:\n        /* \"#utility.yul\":26772:26776   */\n      0x00\n        /* \"#utility.yul\":26810:26812   */\n      0x40\n        /* \"#utility.yul\":26799:26808   */\n      dup3\n        /* \"#utility.yul\":26795:26813   */\n      add\n        /* \"#utility.yul\":26787:26813   */\n      swap1\n      pop\n        /* \"#utility.yul\":26823:26894   */\n      tag_615\n        /* \"#utility.yul\":26891:26892   */\n      0x00\n        /* \"#utility.yul\":26880:26889   */\n      dup4\n        /* \"#utility.yul\":26876:26893   */\n      add\n        /* \"#utility.yul\":26867:26873   */\n      dup6\n        /* \"#utility.yul\":26823:26894   */\n      tag_305\n      jump\t// in\n    tag_615:\n        /* \"#utility.yul\":26904:26976   */\n      tag_616\n        /* \"#utility.yul\":26972:26974   */\n      0x20\n        /* \"#utility.yul\":26961:26970   */\n      dup4\n        /* \"#utility.yul\":26957:26975   */\n      add\n        /* \"#utility.yul\":26948:26954   */\n      dup5\n        /* \"#utility.yul\":26904:26976   */\n      tag_305\n      jump\t// in\n    tag_616:\n        /* \"#utility.yul\":26651:26983   */\n      swap4\n      swap3\n      pop\n      pop\n      pop\n      jump\t// out\n        /* \"#utility.yul\":26989:27132   */\n    tag_338:\n        /* \"#utility.yul\":27046:27051   */\n      0x00\n        /* \"#utility.yul\":27077:27083   */\n      dup2\n        /* \"#utility.yul\":27071:27084   */\n      mload\n        /* \"#utility.yul\":27062:27084   */\n      swap1\n      pop\n        /* \"#utility.yul\":27093:27126   */\n      tag_618\n        /* \"#utility.yul\":27120:27125   */\n      dup2\n        /* \"#utility.yul\":27093:27126   */\n      tag_294\n      jump\t// in\n    tag_618:\n        /* \"#utility.yul\":26989:27132   */\n      swap3\n      swap2\n      pop\n      pop\n      jump\t// out\n        /* \"#utility.yul\":27138:27489   */\n    tag_176:\n        /* \"#utility.yul\":27208:27214   */\n      0x00\n        /* \"#utility.yul\":27257:27259   */\n      0x20\n        /* \"#utility.yul\":27245:27254   */\n      dup3\n        /* \"#utility.yul\":27236:27243   */\n      dup5\n        /* \"#utility.yul\":27232:27255   */\n      sub\n        /* \"#utility.yul\":27228:27260   */\n      slt\n        /* \"#utility.yul\":27225:27344   */\n      iszero\n      tag_620\n      jumpi\n        /* \"#utility.yul\":27263:27342   */\n      tag_621\n      tag_279\n      jump\t// in\n    tag_621:\n        /* \"#utility.yul\":27225:27344   */\n    tag_620:\n        /* \"#utility.yul\":27383:27384   */\n      0x00\n        /* \"#utility.yul\":27408:27472   */\n      tag_622\n        /* \"#utility.yul\":27464:27471   */\n      dup5\n        /* \"#utility.yul\":27455:27461   */\n      dup3\n        /* \"#utility.yul\":27444:27453   */\n      dup6\n        /* \"#utility.yul\":27440:27462   */\n      add\n        /* \"#utility.yul\":27408:27472   */\n      tag_338\n      jump\t// in\n    tag_622:\n        /* \"#utility.yul\":27398:27472   */\n      swap2\n      pop\n        /* \"#utility.yul\":27354:27482   */\n      pop\n        /* \"#utility.yul\":27138:27489   */\n      swap3\n      swap2\n      pop\n      pop\n      jump\t// out\n        /* \"#utility.yul\":27495:27589   */\n    tag_339:\n        /* \"#utility.yul\":27528:27536   */\n      0x00\n        /* \"#utility.yul\":27576:27581   */\n      dup2\n        /* \"#utility.yul\":27572:27574   */\n      0x60\n        /* \"#utility.yul\":27568:27582   */\n      shl\n        /* \"#utility.yul\":27547:27582   */\n      swap1\n      pop\n        /* \"#utility.yul\":27495:27589   */\n      swap2\n      swap1\n      pop\n      jump\t// out\n        /* \"#utility.yul\":27595:27689   */\n    tag_340:\n        /* \"#utility.yul\":27634:27641   */\n      0x00\n        /* \"#utility.yul\":27663:27683   */\n      tag_625\n        /* \"#utility.yul\":27677:27682   */\n      dup3\n        /* \"#utility.yul\":27663:27683   */\n      tag_339\n      jump\t// in\n    tag_625:\n        /* \"#utility.yul\":27652:27683   */\n      swap1\n      pop\n        /* \"#utility.yul\":27595:27689   */\n      swap2\n      swap1\n      pop\n      jump\t// out\n        /* \"#utility.yul\":27695:27795   */\n    tag_341:\n        /* \"#utility.yul\":27734:27741   */\n      0x00\n        /* \"#utility.yul\":27763:27789   */\n      tag_627\n        /* \"#utility.yul\":27783:27788   */\n      dup3\n        /* \"#utility.yul\":27763:27789   */\n      tag_340\n      jump\t// in\n    tag_627:\n        /* \"#utility.yul\":27752:27789   */\n      swap1\n      pop\n        /* \"#utility.yul\":27695:27795   */\n      swap2\n      swap1\n      pop\n      jump\t// out\n        /* \"#utility.yul\":27801:27958   */\n    tag_342:\n        /* \"#utility.yul\":27906:27951   */\n      tag_629\n        /* \"#utility.yul\":27926:27950   */\n      tag_630\n        /* \"#utility.yul\":27944:27949   */\n      dup3\n        /* \"#utility.yul\":27926:27950   */\n      tag_293\n      jump\t// in\n    tag_630:\n        /* \"#utility.yul\":27906:27951   */\n      tag_341\n      jump\t// in\n    tag_629:\n        /* \"#utility.yul\":27901:27904   */\n      dup3\n        /* \"#utility.yul\":27894:27952   */\n      mstore\n        /* \"#utility.yul\":27801:27958   */\n      pop\n      pop\n      jump\t// out\n        /* \"#utility.yul\":27964:28361   */\n    tag_200:\n        /* \"#utility.yul\":28104:28107   */\n      0x00\n        /* \"#utility.yul\":28119:28194   */\n      tag_632\n        /* \"#utility.yul\":28190:28193   */\n      dup3\n        /* \"#utility.yul\":28181:28187   */\n      dup6\n        /* \"#utility.yul\":28119:28194   */\n      tag_342\n      jump\t// in\n    tag_632:\n        /* \"#utility.yul\":28219:28221   */\n      0x14\n        /* \"#utility.yul\":28214:28217   */\n      dup3\n        /* \"#utility.yul\":28210:28222   */\n      add\n        /* \"#utility.yul\":28203:28222   */\n      swap2\n      pop\n        /* \"#utility.yul\":28232:28307   */\n      tag_633\n        /* \"#utility.yul\":28303:28306   */\n      dup3\n        /* \"#utility.yul\":28294:28300   */\n      dup5\n        /* \"#utility.yul\":28232:28307   */\n      tag_342\n      jump\t// in\n    tag_633:\n        /* \"#utility.yul\":28332:28334   */\n      0x14\n        /* \"#utility.yul\":28327:28330   */\n      dup3\n        /* \"#utility.yul\":28323:28335   */\n      add\n        /* \"#utility.yul\":28316:28335   */\n      swap2\n      pop\n        /* \"#utility.yul\":28352:28355   */\n      dup2\n        /* \"#utility.yul\":28345:28355   */\n      swap1\n      pop\n        /* \"#utility.yul\":27964:28361   */\n      swap4\n      swap3\n      pop\n      pop\n      pop\n      jump\t// out\n        /* \"#utility.yul\":28367:28515   */\n    tag_343:\n        /* \"#utility.yul\":28469:28480   */\n      0x00\n        /* \"#utility.yul\":28506:28509   */\n      dup2\n        /* \"#utility.yul\":28491:28509   */\n      swap1\n      pop\n        /* \"#utility.yul\":28367:28515   */\n      swap3\n      swap2\n      pop\n      pop\n      jump\t// out\n        /* \"#utility.yul\":28521:28735   */\n    tag_344:\n        /* \"#utility.yul\":28661:28727   */\n      0xff00000000000000000000000000000000000000000000000000000000000000\n        /* \"#utility.yul\":28657:28658   */\n      0x00\n        /* \"#utility.yul\":28649:28655   */\n      dup3\n        /* \"#utility.yul\":28645:28659   */\n      add\n        /* \"#utility.yul\":28638:28728   */\n      mstore\n        /* \"#utility.yul\":28521:28735   */\n      pop\n      jump\t// out\n        /* \"#utility.yul\":28741:29141   */\n    tag_345:\n        /* \"#utility.yul\":28901:28904   */\n      0x00\n        /* \"#utility.yul\":28922:29006   */\n      tag_637\n        /* \"#utility.yul\":29004:29005   */\n      0x01\n        /* \"#utility.yul\":28999:29002   */\n      dup4\n        /* \"#utility.yul\":28922:29006   */\n      tag_343\n      jump\t// in\n    tag_637:\n        /* \"#utility.yul\":28915:29006   */\n      swap2\n      pop\n        /* \"#utility.yul\":29015:29108   */\n      tag_638\n        /* \"#utility.yul\":29104:29107   */\n      dup3\n        /* \"#utility.yul\":29015:29108   */\n      tag_344\n      jump\t// in\n    tag_638:\n        /* \"#utility.yul\":29133:29134   */\n      0x01\n        /* \"#utility.yul\":29128:29131   */\n      dup3\n        /* \"#utility.yul\":29124:29135   */\n      add\n        /* \"#utility.yul\":29117:29135   */\n      swap1\n      pop\n        /* \"#utility.yul\":28741:29141   */\n      swap2\n      swap1\n      pop\n      jump\t// out\n        /* \"#utility.yul\":29147:29224   */\n    tag_346:\n        /* \"#utility.yul\":29184:29191   */\n      0x00\n        /* \"#utility.yul\":29213:29218   */\n      dup2\n        /* \"#utility.yul\":29202:29218   */\n      swap1\n      pop\n        /* \"#utility.yul\":29147:29224   */\n      swap2\n      swap1\n      pop\n      jump\t// out\n        /* \"#utility.yul\":29230:29309   */\n    tag_347:\n        /* \"#utility.yul\":29269:29276   */\n      0x00\n        /* \"#utility.yul\":29298:29303   */\n      dup2\n        /* \"#utility.yul\":29287:29303   */\n      swap1\n      pop\n        /* \"#utility.yul\":29230:29309   */\n      swap2\n      swap1\n      pop\n      jump\t// out\n        /* \"#utility.yul\":29315:29472   */\n    tag_348:\n        /* \"#utility.yul\":29420:29465   */\n      tag_642\n        /* \"#utility.yul\":29440:29464   */\n      tag_643\n        /* \"#utility.yul\":29458:29463   */\n      dup3\n        /* \"#utility.yul\":29440:29464   */\n      tag_346\n      jump\t// in\n    tag_643:\n        /* \"#utility.yul\":29420:29465   */\n      tag_347\n      jump\t// in\n    tag_642:\n        /* \"#utility.yul\":29415:29418   */\n      dup3\n        /* \"#utility.yul\":29408:29466   */\n      mstore\n        /* \"#utility.yul\":29315:29472   */\n      pop\n      pop\n      jump\t// out\n        /* \"#utility.yul\":29478:29692   */\n    tag_349:\n        /* \"#utility.yul\":29618:29684   */\n      0xb68fbba50ceb1571c8d495ec425ba3b90ece4d1440852fd428fdd1439ca5a1d8\n        /* \"#utility.yul\":29614:29615   */\n      0x00\n        /* \"#utility.yul\":29606:29612   */\n      dup3\n        /* \"#utility.yul\":29602:29616   */\n      add\n        /* \"#utility.yul\":29595:29685   */\n      mstore\n        /* \"#utility.yul\":29478:29692   */\n      pop\n      jump\t// out\n        /* \"#utility.yul\":29698:30100   */\n    tag_350:\n        /* \"#utility.yul\":29858:29861   */\n      0x00\n        /* \"#utility.yul\":29879:29964   */\n      tag_646\n        /* \"#utility.yul\":29961:29963   */\n      0x20\n        /* \"#utility.yul\":29956:29959   */\n      dup4\n        /* \"#utility.yul\":29879:29964   */\n      tag_343\n      jump\t// in\n    tag_646:\n        /* \"#utility.yul\":29872:29964   */\n      swap2\n      pop\n        /* \"#utility.yul\":29973:30066   */\n      tag_647\n        /* \"#utility.yul\":30062:30065   */\n      dup3\n        /* \"#utility.yul\":29973:30066   */\n      tag_349\n      jump\t// in\n    tag_647:\n        /* \"#utility.yul\":30091:30093   */\n      0x20\n        /* \"#utility.yul\":30086:30089   */\n      dup3\n        /* \"#utility.yul\":30082:30094   */\n      add\n        /* \"#utility.yul\":30075:30094   */\n      swap1\n      pop\n        /* \"#utility.yul\":29698:30100   */\n      swap2\n      swap1\n      pop\n      jump\t// out\n        /* \"#utility.yul\":30106:31035   */\n    tag_202:\n        /* \"#utility.yul\":30448:30451   */\n      0x00\n        /* \"#utility.yul\":30470:30618   */\n      tag_649\n        /* \"#utility.yul\":30614:30617   */\n      dup3\n        /* \"#utility.yul\":30470:30618   */\n      tag_345\n      jump\t// in\n    tag_649:\n        /* \"#utility.yul\":30463:30618   */\n      swap2\n      pop\n        /* \"#utility.yul\":30628:30703   */\n      tag_650\n        /* \"#utility.yul\":30699:30702   */\n      dup3\n        /* \"#utility.yul\":30690:30696   */\n      dup6\n        /* \"#utility.yul\":30628:30703   */\n      tag_342\n      jump\t// in\n    tag_650:\n        /* \"#utility.yul\":30728:30730   */\n      0x14\n        /* \"#utility.yul\":30723:30726   */\n      dup3\n        /* \"#utility.yul\":30719:30731   */\n      add\n        /* \"#utility.yul\":30712:30731   */\n      swap2\n      pop\n        /* \"#utility.yul\":30741:30816   */\n      tag_651\n        /* \"#utility.yul\":30812:30815   */\n      dup3\n        /* \"#utility.yul\":30803:30809   */\n      dup5\n        /* \"#utility.yul\":30741:30816   */\n      tag_348\n      jump\t// in\n    tag_651:\n        /* \"#utility.yul\":30841:30843   */\n      0x20\n        /* \"#utility.yul\":30836:30839   */\n      dup3\n        /* \"#utility.yul\":30832:30844   */\n      add\n        /* \"#utility.yul\":30825:30844   */\n      swap2\n      pop\n        /* \"#utility.yul\":30861:31009   */\n      tag_652\n        /* \"#utility.yul\":31005:31008   */\n      dup3\n        /* \"#utility.yul\":30861:31009   */\n      tag_350\n      jump\t// in\n    tag_652:\n        /* \"#utility.yul\":30854:31009   */\n      swap2\n      pop\n        /* \"#utility.yul\":31026:31029   */\n      dup2\n        /* \"#utility.yul\":31019:31029   */\n      swap1\n      pop\n        /* \"#utility.yul\":30106:31035   */\n      swap4\n      swap3\n      pop\n      pop\n      pop\n      jump\t// out\n        /* \"#utility.yul\":31041:31373   */\n    tag_205:\n        /* \"#utility.yul\":31162:31166   */\n      0x00\n        /* \"#utility.yul\":31200:31202   */\n      0x40\n        /* \"#utility.yul\":31189:31198   */\n      dup3\n        /* \"#utility.yul\":31185:31203   */\n      add\n        /* \"#utility.yul\":31177:31203   */\n      swap1\n      pop\n        /* \"#utility.yul\":31213:31284   */\n      tag_654\n        /* \"#utility.yul\":31281:31282   */\n      0x00\n        /* \"#utility.yul\":31270:31279   */\n      dup4\n        /* \"#utility.yul\":31266:31283   */\n      add\n        /* \"#utility.yul\":31257:31263   */\n      dup6\n        /* \"#utility.yul\":31213:31284   */\n      tag_305\n      jump\t// in\n    tag_654:\n        /* \"#utility.yul\":31294:31366   */\n      tag_655\n        /* \"#utility.yul\":31362:31364   */\n      0x20\n        /* \"#utility.yul\":31351:31360   */\n      dup4\n        /* \"#utility.yul\":31347:31365   */\n      add\n        /* \"#utility.yul\":31338:31344   */\n      dup5\n        /* \"#utility.yul\":31294:31366   */\n      tag_284\n      jump\t// in\n    tag_655:\n        /* \"#utility.yul\":31041:31373   */\n      swap4\n      swap3\n      pop\n      pop\n      pop\n      jump\t// out\n        /* \"#utility.yul\":31379:31477   */\n    tag_351:\n        /* \"#utility.yul\":31430:31436   */\n      0x00\n        /* \"#utility.yul\":31464:31469   */\n      dup2\n        /* \"#utility.yul\":31458:31470   */\n      mload\n        /* \"#utility.yul\":31448:31470   */\n      swap1\n      pop\n        /* \"#utility.yul\":31379:31477   */\n      swap2\n      swap1\n      pop\n      jump\t// out\n        /* \"#utility.yul\":31483:31630   */\n    tag_352:\n        /* \"#utility.yul\":31584:31595   */\n      0x00\n        /* \"#utility.yul\":31621:31624   */\n      dup2\n        /* \"#utility.yul\":31606:31624   */\n      swap1\n      pop\n        /* \"#utility.yul\":31483:31630   */\n      swap3\n      swap2\n      pop\n      pop\n      jump\t// out\n        /* \"#utility.yul\":31636:31943   */\n    tag_353:\n        /* \"#utility.yul\":31704:31705   */\n      0x00\n        /* \"#utility.yul\":31714:31827   */\n    tag_659:\n        /* \"#utility.yul\":31728:31734   */\n      dup4\n        /* \"#utility.yul\":31725:31726   */\n      dup2\n        /* \"#utility.yul\":31722:31735   */\n      lt\n        /* \"#utility.yul\":31714:31827   */\n      iszero\n      tag_661\n      jumpi\n        /* \"#utility.yul\":31813:31814   */\n      dup1\n        /* \"#utility.yul\":31808:31811   */\n      dup3\n        /* \"#utility.yul\":31804:31815   */\n      add\n        /* \"#utility.yul\":31798:31816   */\n      mload\n        /* \"#utility.yul\":31794:31795   */\n      dup2\n        /* \"#utility.yul\":31789:31792   */\n      dup5\n        /* \"#utility.yul\":31785:31796   */\n      add\n        /* \"#utility.yul\":31778:31817   */\n      mstore\n        /* \"#utility.yul\":31750:31752   */\n      0x20\n        /* \"#utility.yul\":31747:31748   */\n      dup2\n        /* \"#utility.yul\":31743:31753   */\n      add\n        /* \"#utility.yul\":31738:31753   */\n      swap1\n      pop\n        /* \"#utility.yul\":31714:31827   */\n      jump(tag_659)\n    tag_661:\n        /* \"#utility.yul\":31845:31851   */\n      dup4\n        /* \"#utility.yul\":31842:31843   */\n      dup2\n        /* \"#utility.yul\":31839:31852   */\n      gt\n        /* \"#utility.yul\":31836:31937   */\n      iszero\n      tag_662\n      jumpi\n        /* \"#utility.yul\":31925:31926   */\n      0x00\n        /* \"#utility.yul\":31916:31922   */\n      dup5\n        /* \"#utility.yul\":31911:31914   */\n      dup5\n        /* \"#utility.yul\":31907:31923   */\n      add\n        /* \"#utility.yul\":31900:31927   */\n      mstore\n        /* \"#utility.yul\":31836:31937   */\n    tag_662:\n        /* \"#utility.yul\":31685:31943   */\n      pop\n        /* \"#utility.yul\":31636:31943   */\n      pop\n      pop\n      pop\n      jump\t// out\n        /* \"#utility.yul\":31949:32322   */\n    tag_354:\n        /* \"#utility.yul\":32053:32056   */\n      0x00\n        /* \"#utility.yul\":32081:32119   */\n      tag_664\n        /* \"#utility.yul\":32113:32118   */\n      dup3\n        /* \"#utility.yul\":32081:32119   */\n      tag_351\n      jump\t// in\n    tag_664:\n        /* \"#utility.yul\":32135:32223   */\n      tag_665\n        /* \"#utility.yul\":32216:32222   */\n      dup2\n        /* \"#utility.yul\":32211:32214   */\n      dup6\n        /* \"#utility.yul\":32135:32223   */\n      tag_352\n      jump\t// in\n    tag_665:\n        /* \"#utility.yul\":32128:32223   */\n      swap4\n      pop\n        /* \"#utility.yul\":32232:32284   */\n      tag_666\n        /* \"#utility.yul\":32277:32283   */\n      dup2\n        /* \"#utility.yul\":32272:32275   */\n      dup6\n        /* \"#utility.yul\":32265:32269   */\n      0x20\n        /* \"#utility.yul\":32258:32263   */\n      dup7\n        /* \"#utility.yul\":32254:32270   */\n      add\n        /* \"#utility.yul\":32232:32284   */\n      tag_353\n      jump\t// in\n    tag_666:\n        /* \"#utility.yul\":32309:32315   */\n      dup1\n        /* \"#utility.yul\":32304:32307   */\n      dup5\n        /* \"#utility.yul\":32300:32316   */\n      add\n        /* \"#utility.yul\":32293:32316   */\n      swap2\n      pop\n        /* \"#utility.yul\":32057:32322   */\n      pop\n        /* \"#utility.yul\":31949:32322   */\n      swap3\n      swap2\n      pop\n      pop\n      jump\t// out\n        /* \"#utility.yul\":32328:32599   */\n    tag_207:\n        /* \"#utility.yul\":32458:32461   */\n      0x00\n        /* \"#utility.yul\":32480:32573   */\n      tag_668\n        /* \"#utility.yul\":32569:32572   */\n      dup3\n        /* \"#utility.yul\":32560:32566   */\n      dup5\n        /* \"#utility.yul\":32480:32573   */\n      tag_354\n      jump\t// in\n    tag_668:\n        /* \"#utility.yul\":32473:32573   */\n      swap2\n      pop\n        /* \"#utility.yul\":32590:32593   */\n      dup2\n        /* \"#utility.yul\":32583:32593   */\n      swap1\n      pop\n        /* \"#utility.yul\":32328:32599   */\n      swap3\n      swap2\n      pop\n      pop\n      jump\t// out\n        /* \"#utility.yul\":32605:32780   */\n    tag_355:\n        /* \"#utility.yul\":32745:32772   */\n      0x4b616a75737761703a205452414e534645525f4641494c454400000000000000\n        /* \"#utility.yul\":32741:32742   */\n      0x00\n        /* \"#utility.yul\":32733:32739   */\n      dup3\n        /* \"#utility.yul\":32729:32743   */\n      add\n        /* \"#utility.yul\":32722:32773   */\n      mstore\n        /* \"#utility.yul\":32605:32780   */\n      pop\n      jump\t// out\n        /* \"#utility.yul\":32786:33152   */\n    tag_356:\n        /* \"#utility.yul\":32928:32931   */\n      0x00\n        /* \"#utility.yul\":32949:33016   */\n      tag_671\n        /* \"#utility.yul\":33013:33015   */\n      0x19\n        /* \"#utility.yul\":33008:33011   */\n      dup4\n        /* \"#utility.yul\":32949:33016   */\n      tag_325\n      jump\t// in\n    tag_671:\n        /* \"#utility.yul\":32942:33016   */\n      swap2\n      pop\n        /* \"#utility.yul\":33025:33118   */\n      tag_672\n        /* \"#utility.yul\":33114:33117   */\n      dup3\n        /* \"#utility.yul\":33025:33118   */\n      tag_355\n      jump\t// in\n    tag_672:\n        /* \"#utility.yul\":33143:33145   */\n      0x20\n        /* \"#utility.yul\":33138:33141   */\n      dup3\n        /* \"#utility.yul\":33134:33146   */\n      add\n        /* \"#utility.yul\":33127:33146   */\n      swap1\n      pop\n        /* \"#utility.yul\":32786:33152   */\n      swap2\n      swap1\n      pop\n      jump\t// out\n        /* \"#utility.yul\":33158:33577   */\n    tag_216:\n        /* \"#utility.yul\":33324:33328   */\n      0x00\n        /* \"#utility.yul\":33362:33364   */\n      0x20\n        /* \"#utility.yul\":33351:33360   */\n      dup3\n        /* \"#utility.yul\":33347:33365   */\n      add\n        /* \"#utility.yul\":33339:33365   */\n      swap1\n      pop\n        /* \"#utility.yul\":33411:33420   */\n      dup2\n        /* \"#utility.yul\":33405:33409   */\n      dup2\n        /* \"#utility.yul\":33401:33421   */\n      sub\n        /* \"#utility.yul\":33397:33398   */\n      0x00\n        /* \"#utility.yul\":33386:33395   */\n      dup4\n        /* \"#utility.yul\":33382:33399   */\n      add\n        /* \"#utility.yul\":33375:33422   */\n      mstore\n        /* \"#utility.yul\":33439:33570   */\n      tag_674\n        /* \"#utility.yul\":33565:33569   */\n      dup2\n        /* \"#utility.yul\":33439:33570   */\n      tag_356\n      jump\t// in\n    tag_674:\n        /* \"#utility.yul\":33431:33570   */\n      swap1\n      pop\n        /* \"#utility.yul\":33158:33577   */\n      swap2\n      swap1\n      pop\n      jump\t// out\n        /* \"#utility.yul\":33583:33888   */\n    tag_225:\n        /* \"#utility.yul\":33623:33626   */\n      0x00\n        /* \"#utility.yul\":33642:33662   */\n      tag_676\n        /* \"#utility.yul\":33660:33661   */\n      dup3\n        /* \"#utility.yul\":33642:33662   */\n      tag_281\n      jump\t// in\n    tag_676:\n        /* \"#utility.yul\":33637:33662   */\n      swap2\n      pop\n        /* \"#utility.yul\":33676:33696   */\n      tag_677\n        /* \"#utility.yul\":33694:33695   */\n      dup4\n        /* \"#utility.yul\":33676:33696   */\n      tag_281\n      jump\t// in\n    tag_677:\n        /* \"#utility.yul\":33671:33696   */\n      swap3\n      pop\n        /* \"#utility.yul\":33830:33831   */\n      dup3\n        /* \"#utility.yul\":33762:33828   */\n      0xffffffffffffffffffffffffffffffffffffffffffffffffffffffffffffffff\n        /* \"#utility.yul\":33758:33832   */\n      sub\n        /* \"#utility.yul\":33755:33756   */\n      dup3\n        /* \"#utility.yul\":33752:33833   */\n      gt\n        /* \"#utility.yul\":33749:33856   */\n      iszero\n      tag_678\n      jumpi\n        /* \"#utility.yul\":33836:33854   */\n      tag_679\n      tag_328\n      jump\t// in\n    tag_679:\n        /* \"#utility.yul\":33749:33856   */\n    tag_678:\n        /* \"#utility.yul\":33880:33881   */\n      dup3\n        /* \"#utility.yul\":33877:33878   */\n      dup3\n        /* \"#utility.yul\":33873:33882   */\n      add\n        /* \"#utility.yul\":33866:33882   */\n      swap1\n      pop\n        /* \"#utility.yul\":33583:33888   */\n      swap3\n      swap2\n      pop\n      pop\n      jump\t// out\n        /* \"#utility.yul\":33894:34336   */\n    tag_243:\n        /* \"#utility.yul\":34043:34047   */\n      0x00\n        /* \"#utility.yul\":34081:34083   */\n      0x60\n        /* \"#utility.yul\":34070:34079   */\n      dup3\n        /* \"#utility.yul\":34066:34084   */\n      add\n        /* \"#utility.yul\":34058:34084   */\n      swap1\n      pop\n        /* \"#utility.yul\":34094:34165   */\n      tag_681\n        /* \"#utility.yul\":34162:34163   */\n      0x00\n        /* \"#utility.yul\":34151:34160   */\n      dup4\n        /* \"#utility.yul\":34147:34164   */\n      add\n        /* \"#utility.yul\":34138:34144   */\n      dup7\n        /* \"#utility.yul\":34094:34165   */\n      tag_284\n      jump\t// in\n    tag_681:\n        /* \"#utility.yul\":34175:34247   */\n      tag_682\n        /* \"#utility.yul\":34243:34245   */\n      0x20\n        /* \"#utility.yul\":34232:34241   */\n      dup4\n        /* \"#utility.yul\":34228:34246   */\n      add\n        /* \"#utility.yul\":34219:34225   */\n      dup6\n        /* \"#utility.yul\":34175:34247   */\n      tag_284\n      jump\t// in\n    tag_682:\n        /* \"#utility.yul\":34257:34329   */\n      tag_683\n        /* \"#utility.yul\":34325:34327   */\n      0x40\n        /* \"#utility.yul\":34314:34323   */\n      dup4\n        /* \"#utility.yul\":34310:34328   */\n      add\n        /* \"#utility.yul\":34301:34307   */\n      dup5\n        /* \"#utility.yul\":34257:34329   */\n      tag_305\n      jump\t// in\n    tag_683:\n        /* \"#utility.yul\":33894:34336   */\n      swap5\n      swap4\n      pop\n      pop\n      pop\n      pop\n      jump\t// out\n        /* \"#utility.yul\":34342:34575   */\n    tag_248:\n        /* \"#utility.yul\":34381:34384   */\n      0x00\n        /* \"#utility.yul\":34404:34428   */\n      tag_685\n        /* \"#utility.yul\":34422:34427   */\n      dup3\n        /* \"#utility.yul\":34404:34428   */\n      tag_281\n      jump\t// in\n    tag_685:\n        /* \"#utility.yul\":34395:34428   */\n      swap2\n      pop\n        /* \"#utility.yul\":34450:34516   */\n      0xffffffffffffffffffffffffffffffffffffffffffffffffffffffffffffffff\n        /* \"#utility.yul\":34443:34448   */\n      dup3\n        /* \"#utility.yul\":34440:34517   */\n      sub\n        /* \"#utility.yul\":34437:34540   */\n      tag_686\n      jumpi\n        /* \"#utility.yul\":34520:34538   */\n      tag_687\n      tag_328\n      jump\t// in\n    tag_687:\n        /* \"#utility.yul\":34437:34540   */\n    tag_686:\n        /* \"#utility.yul\":34567:34568   */\n      0x01\n        /* \"#utility.yul\":34560:34565   */\n      dup3\n        /* \"#utility.yul\":34556:34569   */\n      add\n        /* \"#utility.yul\":34549:34569   */\n      swap1\n      pop\n        /* \"#utility.yul\":34342:34575   */\n      swap2\n      swap1\n      pop\n      jump\t// out\n        /* \"#utility.yul\":34581:35055   */\n    tag_251:\n        /* \"#utility.yul\":34738:34742   */\n      0x00\n        /* \"#utility.yul\":34776:34778   */\n      0x60\n        /* \"#utility.yul\":34765:34774   */\n      dup3\n        /* \"#utility.yul\":34761:34779   */\n      add\n        /* \"#utility.yul\":34753:34779   */\n      swap1\n      pop\n        /* \"#utility.yul\":34789:34868   */\n      tag_689\n        /* \"#utility.yul\":34865:34866   */\n      0x00\n        /* \"#utility.yul\":34854:34863   */\n      dup4\n        /* \"#utility.yul\":34850:34867   */\n      add\n        /* \"#utility.yul\":34841:34847   */\n      dup7\n        /* \"#utility.yul\":34789:34868   */\n      tag_310\n      jump\t// in\n    tag_689:\n        /* \"#utility.yul\":34878:34958   */\n      tag_690\n        /* \"#utility.yul\":34954:34956   */\n      0x20\n        /* \"#utility.yul\":34943:34952   */\n      dup4\n        /* \"#utility.yul\":34939:34957   */\n      add\n        /* \"#utility.yul\":34930:34936   */\n      dup6\n        /* \"#utility.yul\":34878:34958   */\n      tag_310\n      jump\t// in\n    tag_690:\n        /* \"#utility.yul\":34968:35048   */\n      tag_691\n        /* \"#utility.yul\":35044:35046   */\n      0x40\n        /* \"#utility.yul\":35033:35042   */\n      dup4\n        /* \"#utility.yul\":35029:35047   */\n      add\n        /* \"#utility.yul\":35020:35026   */\n      dup5\n        /* \"#utility.yul\":34968:35048   */\n      tag_310\n      jump\t// in\n    tag_691:\n        /* \"#utility.yul\":34581:35055   */\n      swap5\n      swap4\n      pop\n      pop\n      pop\n      pop\n      jump\t// out\n        /* \"#utility.yul\":35061:35241   */\n    tag_272:\n        /* \"#utility.yul\":35109:35186   */\n      0x4e487b7100000000000000000000000000000000000000000000000000000000\n        /* \"#utility.yul\":35106:35107   */\n      0x00\n        /* \"#utility.yul\":35099:35187   */\n      mstore\n        /* \"#utility.yul\":35206:35210   */\n      0x01\n        /* \"#utility.yul\":35203:35204   */\n      0x04\n        /* \"#utility.yul\":35196:35211   */\n      mstore\n        /* \"#utility.yul\":35230:35234   */\n      0x24\n        /* \"#utility.yul\":35227:35228   */\n      0x00\n        /* \"#utility.yul\":35220:35235   */\n      revert\n\n    auxdata: 0xa26469706673582212204b70a14f0e50f73707f93093a6a04e06412aafb331180d30c3efeb62dbc0cd5464736f6c634300080f0033\n}\n",
				"bytecode": {
					"linkReferences": {
						"contracts/KajuswapLibrary.sol": {
							"KajuswapLibrary": [
								{
									"length": 20,
									"start": 1012
								},
								{
									"length": 20,
									"start": 1147
								},
								{
									"length": 20,
									"start": 1356
								},
								{
									"length": 20,
									"start": 1902
								},
								{
									"length": 20,
									"start": 2498
								},
								{
									"length": 20,
									"start": 2633
								},
								{
									"length": 20,
									"start": 4021
								},
								{
									"length": 20,
									"start": 5264
								},
								{
									"length": 20,
									"start": 5461
								},
								{
									"length": 20,
									"start": 5678
								}
							]
						}
					},
					"object": "60806040523480156200001157600080fd5b506040516200299e3803806200299e8339818101604052810190620000379190620000e8565b806000806101000a81548173ffffffffffffffffffffffffffffffffffffffff021916908373ffffffffffffffffffffffffffffffffffffffff160217905550506200011a565b600080fd5b600073ffffffffffffffffffffffffffffffffffffffff82169050919050565b6000620000b08262000083565b9050919050565b620000c281620000a3565b8114620000ce57600080fd5b50565b600081519050620000e281620000b7565b92915050565b6000602082840312156200010157620001006200007e565b5b60006200011184828501620000d1565b91505092915050565b612874806200012a6000396000f3fe608060405234801561001057600080fd5b50600436106100b45760003560e01c806385f8c2591161007157806385f8c259146101b5578063ad615dec146101e5578063c0e3ee6b14610215578063ca3d653914610246578063d06ca61f14610278578063f446c1d0146102a8576100b4565b8063054d50d4146100b95780631f00ca74146100e957806332e7c5bf1461011957806342712a6714610137578063472b43f3146101675780638434d01a14610197575b600080fd5b6100d360048036038101906100ce9190611684565b6102c6565b6040516100e091906116e6565b60405180910390f35b61010360048036038101906100fe91906118b8565b61034d565b60405161011091906119d2565b60405180910390f35b6101216103f8565b60405161012e9190611a03565b60405180910390f35b610151600480360381019061014c9190611a79565b61041e565b60405161015e91906119d2565b60405180910390f35b610181600480360381019061017c9190611a79565b610640565b60405161018e91906119d2565b60405180910390f35b61019f61086e565b6040516101ac9190611a03565b60405180910390f35b6101cf60048036038101906101ca9190611684565b610894565b6040516101dc91906116e6565b60405180910390f35b6101ff60048036038101906101fa9190611684565b61091b565b60405161020c91906116e6565b60405180910390f35b61022f600480360381019061022a9190611b01565b6109a2565b60405161023d929190611b8e565b60405180910390f35b610260600480360381019061025b9190611bb7565b610b6a565b60405161026f93929190611c59565b60405180910390f35b610292600480360381019061028d91906118b8565b610e87565b60405161029f91906119d2565b60405180910390f35b6102b0610f32565b6040516102bd9190611a03565b60405180910390f35b600073__$18693c2782ae7b010cc3bd0449f436a789$__63054d50d48585856040518463ffffffff1660e01b815260040161030393929190611c9f565b602060405180830381865af4158015610320573d6000803e3d6000fd5b505050506040513d601f19601f820116820180604052508101906103449190611ceb565b90509392505050565b606073__$18693c2782ae7b010cc3bd0449f436a789$__63192128b260008054906101000a900473ffffffffffffffffffffffffffffffffffffffff1685856040518463ffffffff1660e01b81526004016103aa93929190611de5565b600060405180830381865af41580156103c7573d6000803e3d6000fd5b505050506040513d6000823e3d601f19601f820116820180604052508101906103f09190611ee6565b905092915050565b600360009054906101000a900473ffffffffffffffffffffffffffffffffffffffff1681565b606073__$18693c2782ae7b010cc3bd0449f436a789$__63192128b260008054906101000a900473ffffffffffffffffffffffffffffffffffffffff168887876040518563ffffffff1660e01b815260040161047d9493929190611fba565b600060405180830381865af415801561049a573d6000803e3d6000fd5b505050506040513d6000823e3d601f19601f820116820180604052508101906104c39190611ee6565b905084816000815181106104da576104d9611ffa565b5b60200260200101511115610523576040517f08c379a000000000000000000000000000000000000000000000000000000000815260040161051a906120ac565b60405180910390fd5b6105eb8484600081811061053a57610539611ffa565b5b905060200201602081019061054f91906120cc565b6105ca60008054906101000a900473ffffffffffffffffffffffffffffffffffffffff168787600081811061058757610586611ffa565b5b905060200201602081019061059c91906120cc565b888860018181106105b0576105af611ffa565b5b90506020020160208101906105c591906120cc565b610f58565b836000815181106105de576105dd611ffa565b5b6020026020010151610fca565b61063781858580806020026020016040519081016040528093929190818152602001838360200280828437600081840152601f19601f8201169050808301925050505050505084611154565b95945050505050565b606073__$18693c2782ae7b010cc3bd0449f436a789$__63bb7b9c7660008054906101000a900473ffffffffffffffffffffffffffffffffffffffff168887876040518563ffffffff1660e01b815260040161069f9493929190611fba565b600060405180830381865af41580156106bc573d6000803e3d6000fd5b505050506040513d6000823e3d601f19601f820116820180604052508101906106e59190611ee6565b90508481600183516106f79190612128565b8151811061070857610707611ffa565b5b60200260200101511015610751576040517f08c379a0000000000000000000000000000000000000000000000000000000008152600401610748906121ce565b60405180910390fd5b6108198484600081811061076857610767611ffa565b5b905060200201602081019061077d91906120cc565b6107f860008054906101000a900473ffffffffffffffffffffffffffffffffffffffff16878760008181106107b5576107b4611ffa565b5b90506020020160208101906107ca91906120cc565b888860018181106107de576107dd611ffa565b5b90506020020160208101906107f391906120cc565b610f58565b8360008151811061080c5761080b611ffa565b5b6020026020010151610fca565b61086581858580806020026020016040519081016040528093929190818152602001838360200280828437600081840152601f19601f8201169050808301925050505050505084611154565b95945050505050565b600160009054906101000a900473ffffffffffffffffffffffffffffffffffffffff1681565b600073__$18693c2782ae7b010cc3bd0449f436a789$__6385f8c2598585856040518463ffffffff1660e01b81526004016108d193929190611c9f565b602060405180830381865af41580156108ee573d6000803e3d6000fd5b505050506040513d601f19601f820116820180604052508101906109129190611ceb565b90509392505050565b600073__$18693c2782ae7b010cc3bd0449f436a789$__63ad615dec8585856040518463ffffffff1660e01b815260040161095893929190611c9f565b602060405180830381865af4158015610975573d6000803e3d6000fd5b505050506040513d601f19601f820116820180604052508101906109999190611ceb565b90509392505050565b60008060006109d260008054906101000a900473ffffffffffffffffffffffffffffffffffffffff168a8a610f58565b90508073ffffffffffffffffffffffffffffffffffffffff166323b872dd33838a6040518463ffffffff1660e01b8152600401610a11939291906121ee565b6020604051808303816000875af1158015610a30573d6000803e3d6000fd5b505050506040513d601f19601f82011682018060405250810190610a54919061225d565b508073ffffffffffffffffffffffffffffffffffffffff166389afcb44856040518263ffffffff1660e01b8152600401610a8e9190611a03565b60408051808303816000875af1158015610aac573d6000803e3d6000fd5b505050506040513d601f19601f82011682018060405250810190610ad0919061228a565b809350819450505085831015610b1b576040517f08c379a0000000000000000000000000000000000000000000000000000000008152600401610b129061233c565b60405180910390fd5b84821015610b5e576040517f08c379a0000000000000000000000000000000000000000000000000000000008152600401610b55906123ce565b60405180910390fd5b50965096945050505050565b60008060008073ffffffffffffffffffffffffffffffffffffffff1660008054906101000a900473ffffffffffffffffffffffffffffffffffffffff1673ffffffffffffffffffffffffffffffffffffffff166369454b868c8c6040518363ffffffff1660e01b8152600401610be19291906123ee565b602060405180830381865afa158015610bfe573d6000803e3d6000fd5b505050506040513d601f19601f82011682018060405250810190610c22919061242c565b73ffffffffffffffffffffffffffffffffffffffff1603610cdd5760008054906101000a900473ffffffffffffffffffffffffffffffffffffffff1673ffffffffffffffffffffffffffffffffffffffff1663c9c653968b8b6040518363ffffffff1660e01b8152600401610c989291906123ee565b6020604051808303816000875af1158015610cb7573d6000803e3d6000fd5b505050506040513d601f19601f82011682018060405250810190610cdb919061242c565b505b610ceb8a8a8a8a8a8a61135e565b80935081945050506000610d2060008054906101000a900473ffffffffffffffffffffffffffffffffffffffff168c8c610f58565b905080600160006101000a81548173ffffffffffffffffffffffffffffffffffffffff021916908373ffffffffffffffffffffffffffffffffffffffff1602179055508a600260006101000a81548173ffffffffffffffffffffffffffffffffffffffff021916908373ffffffffffffffffffffffffffffffffffffffff16021790555089600360006101000a81548173ffffffffffffffffffffffffffffffffffffffff021916908373ffffffffffffffffffffffffffffffffffffffff160217905550610df08b8286610fca565b610dfb8a8285610fca565b8073ffffffffffffffffffffffffffffffffffffffff16636a627842866040518263ffffffff1660e01b8152600401610e349190611a03565b6020604051808303816000875af1158015610e53573d6000803e3d6000fd5b505050506040513d601f19601f82011682018060405250810190610e779190611ceb565b9150509750975097945050505050565b606073__$18693c2782ae7b010cc3bd0449f436a789$__63bb7b9c7660008054906101000a900473ffffffffffffffffffffffffffffffffffffffff1685856040518463ffffffff1660e01b8152600401610ee493929190611de5565b600060405180830381865af4158015610f01573d6000803e3d6000fd5b505050506040513d6000823e3d601f19601f82011682018060405250810190610f2a9190611ee6565b905092915050565b600260009054906101000a900473ffffffffffffffffffffffffffffffffffffffff1681565b6000806000610f6785856115ef565b91509150858282604051602001610f7f9291906124a1565b60405160208183030381529060405280519060200120604051602001610fa692919061259b565b6040516020818303038152906040528051906020012060001c925050509392505050565b6000808473ffffffffffffffffffffffffffffffffffffffff166040518060400160405280601981526020017f7472616e7366657228616464726573732c75696e7432353629000000000000008152508051906020012085856040516024016110349291906125dd565b604051602081830303815290604052907bffffffffffffffffffffffffffffffffffffffffffffffffffffffff19166020820180517bffffffffffffffffffffffffffffffffffffffffffffffffffffffff838183161783525050505060405161109e9190612680565b6000604051808303816000865af19150503d80600081146110db576040519150601f19603f3d011682016040523d82523d6000602084013e6110e0565b606091505b509150915081801561110e575060008151148061110d57508080602001905181019061110c919061225d565b5b5b61114d576040517f08c379a0000000000000000000000000000000000000000000000000000000008152600401611144906126e3565b60405180910390fd5b5050505050565b60005b600183516111659190612128565b8110156113585760008084838151811061118257611181611ffa565b5b6020026020010151856001856111989190612703565b815181106111a9576111a8611ffa565b5b60200260200101519150915060006111c183836115ef565b5090506000876001866111d49190612703565b815181106111e5576111e4611ffa565b5b602002602001015190506000808373ffffffffffffffffffffffffffffffffffffffff168673ffffffffffffffffffffffffffffffffffffffff161461122d57826000611231565b6000835b91509150600060028a516112459190612128565b881061125157886112a3565b6112a260008054906101000a900473ffffffffffffffffffffffffffffffffffffffff16878c60028c6112849190612703565b8151811061129557611294611ffa565b5b6020026020010151610f58565b5b90506112d060008054906101000a900473ffffffffffffffffffffffffffffffffffffffff168888610f58565b73ffffffffffffffffffffffffffffffffffffffff16636d9a640a8484846040518463ffffffff1660e01b815260040161130c93929190612759565b600060405180830381600087803b15801561132657600080fd5b505af115801561133a573d6000803e3d6000fd5b5050505050505050505050808061135090612790565b915050611157565b50505050565b60008060008073__$18693c2782ae7b010cc3bd0449f436a789$__633274946160008054906101000a900473ffffffffffffffffffffffffffffffffffffffff168c8c6040518463ffffffff1660e01b81526004016113bf939291906127d8565b6040805180830381865af41580156113db573d6000803e3d6000fd5b505050506040513d601f19601f820116820180604052508101906113ff919061228a565b915091506000821480156114135750600081145b1561142757878780945081955050506115e2565b600073__$18693c2782ae7b010cc3bd0449f436a789$__63ad615dec8a85856040518463ffffffff1660e01b815260040161146493929190611c9f565b602060405180830381865af4158015611481573d6000803e3d6000fd5b505050506040513d601f19601f820116820180604052508101906114a59190611ceb565b905087811161150057858110156114f1576040517f08c379a00000000000000000000000000000000000000000000000000000000081526004016114e8906123ce565b60405180910390fd5b888180955081965050506115e0565b600073__$18693c2782ae7b010cc3bd0449f436a789$__63ad615dec8a85876040518463ffffffff1660e01b815260040161153d93929190611c9f565b602060405180830381865af415801561155a573d6000803e3d6000fd5b505050506040513d601f19601f8201168201806040525081019061157e9190611ceb565b9050898111156115915761159061280f565b5b878110156115d4576040517f08c379a00000000000000000000000000000000000000000000000000000000081526004016115cb9061233c565b60405180910390fd5b80898096508197505050505b505b5050965096945050505050565b6000808273ffffffffffffffffffffffffffffffffffffffff168473ffffffffffffffffffffffffffffffffffffffff161061162c57828461162f565b83835b915091509250929050565b6000604051905090565b600080fd5b600080fd5b6000819050919050565b6116618161164e565b811461166c57600080fd5b50565b60008135905061167e81611658565b92915050565b60008060006060848603121561169d5761169c611644565b5b60006116ab8682870161166f565b93505060206116bc8682870161166f565b92505060406116cd8682870161166f565b9150509250925092565b6116e08161164e565b82525050565b60006020820190506116fb60008301846116d7565b92915050565b600080fd5b6000601f19601f8301169050919050565b7f4e487b7100000000000000000000000000000000000000000000000000000000600052604160045260246000fd5b61174f82611706565b810181811067ffffffffffffffff8211171561176e5761176d611717565b5b80604052505050565b600061178161163a565b905061178d8282611746565b919050565b600067ffffffffffffffff8211156117ad576117ac611717565b5b602082029050602081019050919050565b600080fd5b600073ffffffffffffffffffffffffffffffffffffffff82169050919050565b60006117ee826117c3565b9050919050565b6117fe816117e3565b811461180957600080fd5b50565b60008135905061181b816117f5565b92915050565b600061183461182f84611792565b611777565b90508083825260208201905060208402830185811115611857576118566117be565b5b835b81811015611880578061186c888261180c565b845260208401935050602081019050611859565b5050509392505050565b600082601f83011261189f5761189e611701565b5b81356118af848260208601611821565b91505092915050565b600080604083850312156118cf576118ce611644565b5b60006118dd8582860161166f565b925050602083013567ffffffffffffffff8111156118fe576118fd611649565b5b61190a8582860161188a565b9150509250929050565b600081519050919050565b600082825260208201905092915050565b6000819050602082019050919050565b6119498161164e565b82525050565b600061195b8383611940565b60208301905092915050565b6000602082019050919050565b600061197f82611914565b611989818561191f565b935061199483611930565b8060005b838110156119c55781516119ac888261194f565b97506119b783611967565b925050600181019050611998565b5085935050505092915050565b600060208201905081810360008301526119ec8184611974565b905092915050565b6119fd816117e3565b82525050565b6000602082019050611a1860008301846119f4565b92915050565b600080fd5b60008083601f840112611a3957611a38611701565b5b8235905067ffffffffffffffff811115611a5657611a55611a1e565b5b602083019150836020820283011115611a7257611a716117be565b5b9250929050565b600080600080600060808688031215611a9557611a94611644565b5b6000611aa38882890161166f565b9550506020611ab48882890161166f565b945050604086013567ffffffffffffffff811115611ad557611ad4611649565b5b611ae188828901611a23565b93509350506060611af48882890161180c565b9150509295509295909350565b60008060008060008060c08789031215611b1e57611b1d611644565b5b6000611b2c89828a0161180c565b9650506020611b3d89828a0161180c565b9550506040611b4e89828a0161166f565b9450506060611b5f89828a0161166f565b9350506080611b7089828a0161166f565b92505060a0611b8189828a0161180c565b9150509295509295509295565b6000604082019050611ba360008301856116d7565b611bb060208301846116d7565b9392505050565b600080600080600080600060e0888a031215611bd657611bd5611644565b5b6000611be48a828b0161180c565b9750506020611bf58a828b0161180c565b9650506040611c068a828b0161166f565b9550506060611c178a828b0161166f565b9450506080611c288a828b0161166f565b93505060a0611c398a828b0161166f565b92505060c0611c4a8a828b0161180c565b91505092959891949750929550565b6000606082019050611c6e60008301866116d7565b611c7b60208301856116d7565b611c8860408301846116d7565b949350505050565b611c998161164e565b82525050565b6000606082019050611cb46000830186611c90565b611cc16020830185611c90565b611cce6040830184611c90565b949350505050565b600081519050611ce581611658565b92915050565b600060208284031215611d0157611d00611644565b5b6000611d0f84828501611cd6565b91505092915050565b611d21816117e3565b82525050565b600081519050919050565b600082825260208201905092915050565b6000819050602082019050919050565b611d5c816117e3565b82525050565b6000611d6e8383611d53565b60208301905092915050565b6000602082019050919050565b6000611d9282611d27565b611d9c8185611d32565b9350611da783611d43565b8060005b83811015611dd8578151611dbf8882611d62565b9750611dca83611d7a565b925050600181019050611dab565b5085935050505092915050565b6000606082019050611dfa6000830186611d18565b611e076020830185611c90565b8181036040830152611e198184611d87565b9050949350505050565b600067ffffffffffffffff821115611e3e57611e3d611717565b5b602082029050602081019050919050565b6000611e62611e5d84611e23565b611777565b90508083825260208201905060208402830185811115611e8557611e846117be565b5b835b81811015611eae5780611e9a8882611cd6565b845260208401935050602081019050611e87565b5050509392505050565b600082601f830112611ecd57611ecc611701565b5b8151611edd848260208601611e4f565b91505092915050565b600060208284031215611efc57611efb611644565b5b600082015167ffffffffffffffff811115611f1a57611f19611649565b5b611f2684828501611eb8565b91505092915050565b6000819050919050565b6000611f48602084018461180c565b905092915050565b6000602082019050919050565b6000611f698385611d32565b9350611f7482611f2f565b8060005b85811015611fad57611f8a8284611f39565b611f948882611d62565b9750611f9f83611f50565b925050600181019050611f78565b5085925050509392505050565b6000606082019050611fcf6000830187611d18565b611fdc6020830186611c90565b8181036040830152611fef818486611f5d565b905095945050505050565b7f4e487b7100000000000000000000000000000000000000000000000000000000600052603260045260246000fd5b600082825260208201905092915050565b7f4b616a7573776170526f757465723a204558434553534956455f494e5055545f60008201527f414d4f554e540000000000000000000000000000000000000000000000000000602082015250565b6000612096602683612029565b91506120a18261203a565b604082019050919050565b600060208201905081810360008301526120c581612089565b9050919050565b6000602082840312156120e2576120e1611644565b5b60006120f08482850161180c565b91505092915050565b7f4e487b7100000000000000000000000000000000000000000000000000000000600052601160045260246000fd5b60006121338261164e565b915061213e8361164e565b925082821015612151576121506120f9565b5b828203905092915050565b7f4b616a7573776170526f757465723a20494e53554646494349454e545f4f555460008201527f5055545f414d4f554e5400000000000000000000000000000000000000000000602082015250565b60006121b8602a83612029565b91506121c38261215c565b604082019050919050565b600060208201905081810360008301526121e7816121ab565b9050919050565b600060608201905061220360008301866119f4565b61221060208301856119f4565b61221d60408301846116d7565b949350505050565b60008115159050919050565b61223a81612225565b811461224557600080fd5b50565b60008151905061225781612231565b92915050565b60006020828403121561227357612272611644565b5b600061228184828501612248565b91505092915050565b600080604083850312156122a1576122a0611644565b5b60006122af85828601611cd6565b92505060206122c085828601611cd6565b9150509250929050565b7f4b616a7573776170526f757465723a20494e53554646494349454e545f415f4160008201527f4d4f554e54000000000000000000000000000000000000000000000000000000602082015250565b6000612326602583612029565b9150612331826122ca565b604082019050919050565b6000602082019050818103600083015261235581612319565b9050919050565b7f4b616a7573776170526f757465723a20494e53554646494349454e545f425f4160008201527f4d4f554e54000000000000000000000000000000000000000000000000000000602082015250565b60006123b8602583612029565b91506123c38261235c565b604082019050919050565b600060208201905081810360008301526123e7816123ab565b9050919050565b600060408201905061240360008301856119f4565b61241060208301846119f4565b9392505050565b600081519050612426816117f5565b92915050565b60006020828403121561244257612441611644565b5b600061245084828501612417565b91505092915050565b60008160601b9050919050565b600061247182612459565b9050919050565b600061248382612466565b9050919050565b61249b612496826117e3565b612478565b82525050565b60006124ad828561248a565b6014820191506124bd828461248a565b6014820191508190509392505050565b600081905092915050565b7fff00000000000000000000000000000000000000000000000000000000000000600082015250565b600061250e6001836124cd565b9150612519826124d8565b600182019050919050565b6000819050919050565b6000819050919050565b61254961254482612524565b61252e565b82525050565b7fb68fbba50ceb1571c8d495ec425ba3b90ece4d1440852fd428fdd1439ca5a1d8600082015250565b60006125856020836124cd565b91506125908261254f565b602082019050919050565b60006125a682612501565b91506125b2828561248a565b6014820191506125c28284612538565b6020820191506125d182612578565b91508190509392505050565b60006040820190506125f260008301856119f4565b6125ff60208301846116d7565b9392505050565b600081519050919050565b600081905092915050565b60005b8381101561263a57808201518184015260208101905061261f565b83811115612649576000848401525b50505050565b600061265a82612606565b6126648185612611565b935061267481856020860161261c565b80840191505092915050565b600061268c828461264f565b915081905092915050565b7f4b616a75737761703a205452414e534645525f4641494c454400000000000000600082015250565b60006126cd601983612029565b91506126d882612697565b602082019050919050565b600060208201905081810360008301526126fc816126c0565b9050919050565b600061270e8261164e565b91506127198361164e565b9250827fffffffffffffffffffffffffffffffffffffffffffffffffffffffffffffffff0382111561274e5761274d6120f9565b5b828201905092915050565b600060608201905061276e60008301866116d7565b61277b60208301856116d7565b61278860408301846119f4565b949350505050565b600061279b8261164e565b91507fffffffffffffffffffffffffffffffffffffffffffffffffffffffffffffffff82036127cd576127cc6120f9565b5b600182019050919050565b60006060820190506127ed6000830186611d18565b6127fa6020830185611d18565b6128076040830184611d18565b949350505050565b7f4e487b7100000000000000000000000000000000000000000000000000000000600052600160045260246000fdfea26469706673582212204b70a14f0e50f73707f93093a6a04e06412aafb331180d30c3efeb62dbc0cd5464736f6c634300080f0033",
					"opcodes": "PUSH1 0x80 PUSH1 0x40 MSTORE CALLVALUE DUP1 ISZERO PUSH3 0x11 JUMPI PUSH1 0x0 DUP1 REVERT JUMPDEST POP PUSH1 0x40 MLOAD PUSH3 0x299E CODESIZE SUB DUP1 PUSH3 0x299E DUP4 CODECOPY DUP2 DUP2 ADD PUSH1 0x40 MSTORE DUP2 ADD SWAP1 PUSH3 0x37 SWAP2 SWAP1 PUSH3 0xE8 JUMP JUMPDEST DUP1 PUSH1 0x0 DUP1 PUSH2 0x100 EXP DUP2 SLOAD DUP2 PUSH20 0xFFFFFFFFFFFFFFFFFFFFFFFFFFFFFFFFFFFFFFFF MUL NOT AND SWAP1 DUP4 PUSH20 0xFFFFFFFFFFFFFFFFFFFFFFFFFFFFFFFFFFFFFFFF AND MUL OR SWAP1 SSTORE POP POP PUSH3 0x11A JUMP JUMPDEST PUSH1 0x0 DUP1 REVERT JUMPDEST PUSH1 0x0 PUSH20 0xFFFFFFFFFFFFFFFFFFFFFFFFFFFFFFFFFFFFFFFF DUP3 AND SWAP1 POP SWAP2 SWAP1 POP JUMP JUMPDEST PUSH1 0x0 PUSH3 0xB0 DUP3 PUSH3 0x83 JUMP JUMPDEST SWAP1 POP SWAP2 SWAP1 POP JUMP JUMPDEST PUSH3 0xC2 DUP2 PUSH3 0xA3 JUMP JUMPDEST DUP2 EQ PUSH3 0xCE JUMPI PUSH1 0x0 DUP1 REVERT JUMPDEST POP JUMP JUMPDEST PUSH1 0x0 DUP2 MLOAD SWAP1 POP PUSH3 0xE2 DUP2 PUSH3 0xB7 JUMP JUMPDEST SWAP3 SWAP2 POP POP JUMP JUMPDEST PUSH1 0x0 PUSH1 0x20 DUP3 DUP5 SUB SLT ISZERO PUSH3 0x101 JUMPI PUSH3 0x100 PUSH3 0x7E JUMP JUMPDEST JUMPDEST PUSH1 0x0 PUSH3 0x111 DUP5 DUP3 DUP6 ADD PUSH3 0xD1 JUMP JUMPDEST SWAP2 POP POP SWAP3 SWAP2 POP POP JUMP JUMPDEST PUSH2 0x2874 DUP1 PUSH3 0x12A PUSH1 0x0 CODECOPY PUSH1 0x0 RETURN INVALID PUSH1 0x80 PUSH1 0x40 MSTORE CALLVALUE DUP1 ISZERO PUSH2 0x10 JUMPI PUSH1 0x0 DUP1 REVERT JUMPDEST POP PUSH1 0x4 CALLDATASIZE LT PUSH2 0xB4 JUMPI PUSH1 0x0 CALLDATALOAD PUSH1 0xE0 SHR DUP1 PUSH4 0x85F8C259 GT PUSH2 0x71 JUMPI DUP1 PUSH4 0x85F8C259 EQ PUSH2 0x1B5 JUMPI DUP1 PUSH4 0xAD615DEC EQ PUSH2 0x1E5 JUMPI DUP1 PUSH4 0xC0E3EE6B EQ PUSH2 0x215 JUMPI DUP1 PUSH4 0xCA3D6539 EQ PUSH2 0x246 JUMPI DUP1 PUSH4 0xD06CA61F EQ PUSH2 0x278 JUMPI DUP1 PUSH4 0xF446C1D0 EQ PUSH2 0x2A8 JUMPI PUSH2 0xB4 JUMP JUMPDEST DUP1 PUSH4 0x54D50D4 EQ PUSH2 0xB9 JUMPI DUP1 PUSH4 0x1F00CA74 EQ PUSH2 0xE9 JUMPI DUP1 PUSH4 0x32E7C5BF EQ PUSH2 0x119 JUMPI DUP1 PUSH4 0x42712A67 EQ PUSH2 0x137 JUMPI DUP1 PUSH4 0x472B43F3 EQ PUSH2 0x167 JUMPI DUP1 PUSH4 0x8434D01A EQ PUSH2 0x197 JUMPI JUMPDEST PUSH1 0x0 DUP1 REVERT JUMPDEST PUSH2 0xD3 PUSH1 0x4 DUP1 CALLDATASIZE SUB DUP2 ADD SWAP1 PUSH2 0xCE SWAP2 SWAP1 PUSH2 0x1684 JUMP JUMPDEST PUSH2 0x2C6 JUMP JUMPDEST PUSH1 0x40 MLOAD PUSH2 0xE0 SWAP2 SWAP1 PUSH2 0x16E6 JUMP JUMPDEST PUSH1 0x40 MLOAD DUP1 SWAP2 SUB SWAP1 RETURN JUMPDEST PUSH2 0x103 PUSH1 0x4 DUP1 CALLDATASIZE SUB DUP2 ADD SWAP1 PUSH2 0xFE SWAP2 SWAP1 PUSH2 0x18B8 JUMP JUMPDEST PUSH2 0x34D JUMP JUMPDEST PUSH1 0x40 MLOAD PUSH2 0x110 SWAP2 SWAP1 PUSH2 0x19D2 JUMP JUMPDEST PUSH1 0x40 MLOAD DUP1 SWAP2 SUB SWAP1 RETURN JUMPDEST PUSH2 0x121 PUSH2 0x3F8 JUMP JUMPDEST PUSH1 0x40 MLOAD PUSH2 0x12E SWAP2 SWAP1 PUSH2 0x1A03 JUMP JUMPDEST PUSH1 0x40 MLOAD DUP1 SWAP2 SUB SWAP1 RETURN JUMPDEST PUSH2 0x151 PUSH1 0x4 DUP1 CALLDATASIZE SUB DUP2 ADD SWAP1 PUSH2 0x14C SWAP2 SWAP1 PUSH2 0x1A79 JUMP JUMPDEST PUSH2 0x41E JUMP JUMPDEST PUSH1 0x40 MLOAD PUSH2 0x15E SWAP2 SWAP1 PUSH2 0x19D2 JUMP JUMPDEST PUSH1 0x40 MLOAD DUP1 SWAP2 SUB SWAP1 RETURN JUMPDEST PUSH2 0x181 PUSH1 0x4 DUP1 CALLDATASIZE SUB DUP2 ADD SWAP1 PUSH2 0x17C SWAP2 SWAP1 PUSH2 0x1A79 JUMP JUMPDEST PUSH2 0x640 JUMP JUMPDEST PUSH1 0x40 MLOAD PUSH2 0x18E SWAP2 SWAP1 PUSH2 0x19D2 JUMP JUMPDEST PUSH1 0x40 MLOAD DUP1 SWAP2 SUB SWAP1 RETURN JUMPDEST PUSH2 0x19F PUSH2 0x86E JUMP JUMPDEST PUSH1 0x40 MLOAD PUSH2 0x1AC SWAP2 SWAP1 PUSH2 0x1A03 JUMP JUMPDEST PUSH1 0x40 MLOAD DUP1 SWAP2 SUB SWAP1 RETURN JUMPDEST PUSH2 0x1CF PUSH1 0x4 DUP1 CALLDATASIZE SUB DUP2 ADD SWAP1 PUSH2 0x1CA SWAP2 SWAP1 PUSH2 0x1684 JUMP JUMPDEST PUSH2 0x894 JUMP JUMPDEST PUSH1 0x40 MLOAD PUSH2 0x1DC SWAP2 SWAP1 PUSH2 0x16E6 JUMP JUMPDEST PUSH1 0x40 MLOAD DUP1 SWAP2 SUB SWAP1 RETURN JUMPDEST PUSH2 0x1FF PUSH1 0x4 DUP1 CALLDATASIZE SUB DUP2 ADD SWAP1 PUSH2 0x1FA SWAP2 SWAP1 PUSH2 0x1684 JUMP JUMPDEST PUSH2 0x91B JUMP JUMPDEST PUSH1 0x40 MLOAD PUSH2 0x20C SWAP2 SWAP1 PUSH2 0x16E6 JUMP JUMPDEST PUSH1 0x40 MLOAD DUP1 SWAP2 SUB SWAP1 RETURN JUMPDEST PUSH2 0x22F PUSH1 0x4 DUP1 CALLDATASIZE SUB DUP2 ADD SWAP1 PUSH2 0x22A SWAP2 SWAP1 PUSH2 0x1B01 JUMP JUMPDEST PUSH2 0x9A2 JUMP JUMPDEST PUSH1 0x40 MLOAD PUSH2 0x23D SWAP3 SWAP2 SWAP1 PUSH2 0x1B8E JUMP JUMPDEST PUSH1 0x40 MLOAD DUP1 SWAP2 SUB SWAP1 RETURN JUMPDEST PUSH2 0x260 PUSH1 0x4 DUP1 CALLDATASIZE SUB DUP2 ADD SWAP1 PUSH2 0x25B SWAP2 SWAP1 PUSH2 0x1BB7 JUMP JUMPDEST PUSH2 0xB6A JUMP JUMPDEST PUSH1 0x40 MLOAD PUSH2 0x26F SWAP4 SWAP3 SWAP2 SWAP1 PUSH2 0x1C59 JUMP JUMPDEST PUSH1 0x40 MLOAD DUP1 SWAP2 SUB SWAP1 RETURN JUMPDEST PUSH2 0x292 PUSH1 0x4 DUP1 CALLDATASIZE SUB DUP2 ADD SWAP1 PUSH2 0x28D SWAP2 SWAP1 PUSH2 0x18B8 JUMP JUMPDEST PUSH2 0xE87 JUMP JUMPDEST PUSH1 0x40 MLOAD PUSH2 0x29F SWAP2 SWAP1 PUSH2 0x19D2 JUMP JUMPDEST PUSH1 0x40 MLOAD DUP1 SWAP2 SUB SWAP1 RETURN JUMPDEST PUSH2 0x2B0 PUSH2 0xF32 JUMP JUMPDEST PUSH1 0x40 MLOAD PUSH2 0x2BD SWAP2 SWAP1 PUSH2 0x1A03 JUMP JUMPDEST PUSH1 0x40 MLOAD DUP1 SWAP2 SUB SWAP1 RETURN JUMPDEST PUSH1 0x0 PUSH20 0x0 PUSH4 0x54D50D4 DUP6 DUP6 DUP6 PUSH1 0x40 MLOAD DUP5 PUSH4 0xFFFFFFFF AND PUSH1 0xE0 SHL DUP2 MSTORE PUSH1 0x4 ADD PUSH2 0x303 SWAP4 SWAP3 SWAP2 SWAP1 PUSH2 0x1C9F JUMP JUMPDEST PUSH1 0x20 PUSH1 0x40 MLOAD DUP1 DUP4 SUB DUP2 DUP7 GAS DELEGATECALL ISZERO DUP1 ISZERO PUSH2 0x320 JUMPI RETURNDATASIZE PUSH1 0x0 DUP1 RETURNDATACOPY RETURNDATASIZE PUSH1 0x0 REVERT JUMPDEST POP POP POP POP PUSH1 0x40 MLOAD RETURNDATASIZE PUSH1 0x1F NOT PUSH1 0x1F DUP3 ADD AND DUP3 ADD DUP1 PUSH1 0x40 MSTORE POP DUP2 ADD SWAP1 PUSH2 0x344 SWAP2 SWAP1 PUSH2 0x1CEB JUMP JUMPDEST SWAP1 POP SWAP4 SWAP3 POP POP POP JUMP JUMPDEST PUSH1 0x60 PUSH20 0x0 PUSH4 0x192128B2 PUSH1 0x0 DUP1 SLOAD SWAP1 PUSH2 0x100 EXP SWAP1 DIV PUSH20 0xFFFFFFFFFFFFFFFFFFFFFFFFFFFFFFFFFFFFFFFF AND DUP6 DUP6 PUSH1 0x40 MLOAD DUP5 PUSH4 0xFFFFFFFF AND PUSH1 0xE0 SHL DUP2 MSTORE PUSH1 0x4 ADD PUSH2 0x3AA SWAP4 SWAP3 SWAP2 SWAP1 PUSH2 0x1DE5 JUMP JUMPDEST PUSH1 0x0 PUSH1 0x40 MLOAD DUP1 DUP4 SUB DUP2 DUP7 GAS DELEGATECALL ISZERO DUP1 ISZERO PUSH2 0x3C7 JUMPI RETURNDATASIZE PUSH1 0x0 DUP1 RETURNDATACOPY RETURNDATASIZE PUSH1 0x0 REVERT JUMPDEST POP POP POP POP PUSH1 0x40 MLOAD RETURNDATASIZE PUSH1 0x0 DUP3 RETURNDATACOPY RETURNDATASIZE PUSH1 0x1F NOT PUSH1 0x1F DUP3 ADD AND DUP3 ADD DUP1 PUSH1 0x40 MSTORE POP DUP2 ADD SWAP1 PUSH2 0x3F0 SWAP2 SWAP1 PUSH2 0x1EE6 JUMP JUMPDEST SWAP1 POP SWAP3 SWAP2 POP POP JUMP JUMPDEST PUSH1 0x3 PUSH1 0x0 SWAP1 SLOAD SWAP1 PUSH2 0x100 EXP SWAP1 DIV PUSH20 0xFFFFFFFFFFFFFFFFFFFFFFFFFFFFFFFFFFFFFFFF AND DUP2 JUMP JUMPDEST PUSH1 0x60 PUSH20 0x0 PUSH4 0x192128B2 PUSH1 0x0 DUP1 SLOAD SWAP1 PUSH2 0x100 EXP SWAP1 DIV PUSH20 0xFFFFFFFFFFFFFFFFFFFFFFFFFFFFFFFFFFFFFFFF AND DUP9 DUP8 DUP8 PUSH1 0x40 MLOAD DUP6 PUSH4 0xFFFFFFFF AND PUSH1 0xE0 SHL DUP2 MSTORE PUSH1 0x4 ADD PUSH2 0x47D SWAP5 SWAP4 SWAP3 SWAP2 SWAP1 PUSH2 0x1FBA JUMP JUMPDEST PUSH1 0x0 PUSH1 0x40 MLOAD DUP1 DUP4 SUB DUP2 DUP7 GAS DELEGATECALL ISZERO DUP1 ISZERO PUSH2 0x49A JUMPI RETURNDATASIZE PUSH1 0x0 DUP1 RETURNDATACOPY RETURNDATASIZE PUSH1 0x0 REVERT JUMPDEST POP POP POP POP PUSH1 0x40 MLOAD RETURNDATASIZE PUSH1 0x0 DUP3 RETURNDATACOPY RETURNDATASIZE PUSH1 0x1F NOT PUSH1 0x1F DUP3 ADD AND DUP3 ADD DUP1 PUSH1 0x40 MSTORE POP DUP2 ADD SWAP1 PUSH2 0x4C3 SWAP2 SWAP1 PUSH2 0x1EE6 JUMP JUMPDEST SWAP1 POP DUP5 DUP2 PUSH1 0x0 DUP2 MLOAD DUP2 LT PUSH2 0x4DA JUMPI PUSH2 0x4D9 PUSH2 0x1FFA JUMP JUMPDEST JUMPDEST PUSH1 0x20 MUL PUSH1 0x20 ADD ADD MLOAD GT ISZERO PUSH2 0x523 JUMPI PUSH1 0x40 MLOAD PUSH32 0x8C379A000000000000000000000000000000000000000000000000000000000 DUP2 MSTORE PUSH1 0x4 ADD PUSH2 0x51A SWAP1 PUSH2 0x20AC JUMP JUMPDEST PUSH1 0x40 MLOAD DUP1 SWAP2 SUB SWAP1 REVERT JUMPDEST PUSH2 0x5EB DUP5 DUP5 PUSH1 0x0 DUP2 DUP2 LT PUSH2 0x53A JUMPI PUSH2 0x539 PUSH2 0x1FFA JUMP JUMPDEST JUMPDEST SWAP1 POP PUSH1 0x20 MUL ADD PUSH1 0x20 DUP2 ADD SWAP1 PUSH2 0x54F SWAP2 SWAP1 PUSH2 0x20CC JUMP JUMPDEST PUSH2 0x5CA PUSH1 0x0 DUP1 SLOAD SWAP1 PUSH2 0x100 EXP SWAP1 DIV PUSH20 0xFFFFFFFFFFFFFFFFFFFFFFFFFFFFFFFFFFFFFFFF AND DUP8 DUP8 PUSH1 0x0 DUP2 DUP2 LT PUSH2 0x587 JUMPI PUSH2 0x586 PUSH2 0x1FFA JUMP JUMPDEST JUMPDEST SWAP1 POP PUSH1 0x20 MUL ADD PUSH1 0x20 DUP2 ADD SWAP1 PUSH2 0x59C SWAP2 SWAP1 PUSH2 0x20CC JUMP JUMPDEST DUP9 DUP9 PUSH1 0x1 DUP2 DUP2 LT PUSH2 0x5B0 JUMPI PUSH2 0x5AF PUSH2 0x1FFA JUMP JUMPDEST JUMPDEST SWAP1 POP PUSH1 0x20 MUL ADD PUSH1 0x20 DUP2 ADD SWAP1 PUSH2 0x5C5 SWAP2 SWAP1 PUSH2 0x20CC JUMP JUMPDEST PUSH2 0xF58 JUMP JUMPDEST DUP4 PUSH1 0x0 DUP2 MLOAD DUP2 LT PUSH2 0x5DE JUMPI PUSH2 0x5DD PUSH2 0x1FFA JUMP JUMPDEST JUMPDEST PUSH1 0x20 MUL PUSH1 0x20 ADD ADD MLOAD PUSH2 0xFCA JUMP JUMPDEST PUSH2 0x637 DUP2 DUP6 DUP6 DUP1 DUP1 PUSH1 0x20 MUL PUSH1 0x20 ADD PUSH1 0x40 MLOAD SWAP1 DUP2 ADD PUSH1 0x40 MSTORE DUP1 SWAP4 SWAP3 SWAP2 SWAP1 DUP2 DUP2 MSTORE PUSH1 0x20 ADD DUP4 DUP4 PUSH1 0x20 MUL DUP1 DUP3 DUP5 CALLDATACOPY PUSH1 0x0 DUP2 DUP5 ADD MSTORE PUSH1 0x1F NOT PUSH1 0x1F DUP3 ADD AND SWAP1 POP DUP1 DUP4 ADD SWAP3 POP POP POP POP POP POP POP DUP5 PUSH2 0x1154 JUMP JUMPDEST SWAP6 SWAP5 POP POP POP POP POP JUMP JUMPDEST PUSH1 0x60 PUSH20 0x0 PUSH4 0xBB7B9C76 PUSH1 0x0 DUP1 SLOAD SWAP1 PUSH2 0x100 EXP SWAP1 DIV PUSH20 0xFFFFFFFFFFFFFFFFFFFFFFFFFFFFFFFFFFFFFFFF AND DUP9 DUP8 DUP8 PUSH1 0x40 MLOAD DUP6 PUSH4 0xFFFFFFFF AND PUSH1 0xE0 SHL DUP2 MSTORE PUSH1 0x4 ADD PUSH2 0x69F SWAP5 SWAP4 SWAP3 SWAP2 SWAP1 PUSH2 0x1FBA JUMP JUMPDEST PUSH1 0x0 PUSH1 0x40 MLOAD DUP1 DUP4 SUB DUP2 DUP7 GAS DELEGATECALL ISZERO DUP1 ISZERO PUSH2 0x6BC JUMPI RETURNDATASIZE PUSH1 0x0 DUP1 RETURNDATACOPY RETURNDATASIZE PUSH1 0x0 REVERT JUMPDEST POP POP POP POP PUSH1 0x40 MLOAD RETURNDATASIZE PUSH1 0x0 DUP3 RETURNDATACOPY RETURNDATASIZE PUSH1 0x1F NOT PUSH1 0x1F DUP3 ADD AND DUP3 ADD DUP1 PUSH1 0x40 MSTORE POP DUP2 ADD SWAP1 PUSH2 0x6E5 SWAP2 SWAP1 PUSH2 0x1EE6 JUMP JUMPDEST SWAP1 POP DUP5 DUP2 PUSH1 0x1 DUP4 MLOAD PUSH2 0x6F7 SWAP2 SWAP1 PUSH2 0x2128 JUMP JUMPDEST DUP2 MLOAD DUP2 LT PUSH2 0x708 JUMPI PUSH2 0x707 PUSH2 0x1FFA JUMP JUMPDEST JUMPDEST PUSH1 0x20 MUL PUSH1 0x20 ADD ADD MLOAD LT ISZERO PUSH2 0x751 JUMPI PUSH1 0x40 MLOAD PUSH32 0x8C379A000000000000000000000000000000000000000000000000000000000 DUP2 MSTORE PUSH1 0x4 ADD PUSH2 0x748 SWAP1 PUSH2 0x21CE JUMP JUMPDEST PUSH1 0x40 MLOAD DUP1 SWAP2 SUB SWAP1 REVERT JUMPDEST PUSH2 0x819 DUP5 DUP5 PUSH1 0x0 DUP2 DUP2 LT PUSH2 0x768 JUMPI PUSH2 0x767 PUSH2 0x1FFA JUMP JUMPDEST JUMPDEST SWAP1 POP PUSH1 0x20 MUL ADD PUSH1 0x20 DUP2 ADD SWAP1 PUSH2 0x77D SWAP2 SWAP1 PUSH2 0x20CC JUMP JUMPDEST PUSH2 0x7F8 PUSH1 0x0 DUP1 SLOAD SWAP1 PUSH2 0x100 EXP SWAP1 DIV PUSH20 0xFFFFFFFFFFFFFFFFFFFFFFFFFFFFFFFFFFFFFFFF AND DUP8 DUP8 PUSH1 0x0 DUP2 DUP2 LT PUSH2 0x7B5 JUMPI PUSH2 0x7B4 PUSH2 0x1FFA JUMP JUMPDEST JUMPDEST SWAP1 POP PUSH1 0x20 MUL ADD PUSH1 0x20 DUP2 ADD SWAP1 PUSH2 0x7CA SWAP2 SWAP1 PUSH2 0x20CC JUMP JUMPDEST DUP9 DUP9 PUSH1 0x1 DUP2 DUP2 LT PUSH2 0x7DE JUMPI PUSH2 0x7DD PUSH2 0x1FFA JUMP JUMPDEST JUMPDEST SWAP1 POP PUSH1 0x20 MUL ADD PUSH1 0x20 DUP2 ADD SWAP1 PUSH2 0x7F3 SWAP2 SWAP1 PUSH2 0x20CC JUMP JUMPDEST PUSH2 0xF58 JUMP JUMPDEST DUP4 PUSH1 0x0 DUP2 MLOAD DUP2 LT PUSH2 0x80C JUMPI PUSH2 0x80B PUSH2 0x1FFA JUMP JUMPDEST JUMPDEST PUSH1 0x20 MUL PUSH1 0x20 ADD ADD MLOAD PUSH2 0xFCA JUMP JUMPDEST PUSH2 0x865 DUP2 DUP6 DUP6 DUP1 DUP1 PUSH1 0x20 MUL PUSH1 0x20 ADD PUSH1 0x40 MLOAD SWAP1 DUP2 ADD PUSH1 0x40 MSTORE DUP1 SWAP4 SWAP3 SWAP2 SWAP1 DUP2 DUP2 MSTORE PUSH1 0x20 ADD DUP4 DUP4 PUSH1 0x20 MUL DUP1 DUP3 DUP5 CALLDATACOPY PUSH1 0x0 DUP2 DUP5 ADD MSTORE PUSH1 0x1F NOT PUSH1 0x1F DUP3 ADD AND SWAP1 POP DUP1 DUP4 ADD SWAP3 POP POP POP POP POP POP POP DUP5 PUSH2 0x1154 JUMP JUMPDEST SWAP6 SWAP5 POP POP POP POP POP JUMP JUMPDEST PUSH1 0x1 PUSH1 0x0 SWAP1 SLOAD SWAP1 PUSH2 0x100 EXP SWAP1 DIV PUSH20 0xFFFFFFFFFFFFFFFFFFFFFFFFFFFFFFFFFFFFFFFF AND DUP2 JUMP JUMPDEST PUSH1 0x0 PUSH20 0x0 PUSH4 0x85F8C259 DUP6 DUP6 DUP6 PUSH1 0x40 MLOAD DUP5 PUSH4 0xFFFFFFFF AND PUSH1 0xE0 SHL DUP2 MSTORE PUSH1 0x4 ADD PUSH2 0x8D1 SWAP4 SWAP3 SWAP2 SWAP1 PUSH2 0x1C9F JUMP JUMPDEST PUSH1 0x20 PUSH1 0x40 MLOAD DUP1 DUP4 SUB DUP2 DUP7 GAS DELEGATECALL ISZERO DUP1 ISZERO PUSH2 0x8EE JUMPI RETURNDATASIZE PUSH1 0x0 DUP1 RETURNDATACOPY RETURNDATASIZE PUSH1 0x0 REVERT JUMPDEST POP POP POP POP PUSH1 0x40 MLOAD RETURNDATASIZE PUSH1 0x1F NOT PUSH1 0x1F DUP3 ADD AND DUP3 ADD DUP1 PUSH1 0x40 MSTORE POP DUP2 ADD SWAP1 PUSH2 0x912 SWAP2 SWAP1 PUSH2 0x1CEB JUMP JUMPDEST SWAP1 POP SWAP4 SWAP3 POP POP POP JUMP JUMPDEST PUSH1 0x0 PUSH20 0x0 PUSH4 0xAD615DEC DUP6 DUP6 DUP6 PUSH1 0x40 MLOAD DUP5 PUSH4 0xFFFFFFFF AND PUSH1 0xE0 SHL DUP2 MSTORE PUSH1 0x4 ADD PUSH2 0x958 SWAP4 SWAP3 SWAP2 SWAP1 PUSH2 0x1C9F JUMP JUMPDEST PUSH1 0x20 PUSH1 0x40 MLOAD DUP1 DUP4 SUB DUP2 DUP7 GAS DELEGATECALL ISZERO DUP1 ISZERO PUSH2 0x975 JUMPI RETURNDATASIZE PUSH1 0x0 DUP1 RETURNDATACOPY RETURNDATASIZE PUSH1 0x0 REVERT JUMPDEST POP POP POP POP PUSH1 0x40 MLOAD RETURNDATASIZE PUSH1 0x1F NOT PUSH1 0x1F DUP3 ADD AND DUP3 ADD DUP1 PUSH1 0x40 MSTORE POP DUP2 ADD SWAP1 PUSH2 0x999 SWAP2 SWAP1 PUSH2 0x1CEB JUMP JUMPDEST SWAP1 POP SWAP4 SWAP3 POP POP POP JUMP JUMPDEST PUSH1 0x0 DUP1 PUSH1 0x0 PUSH2 0x9D2 PUSH1 0x0 DUP1 SLOAD SWAP1 PUSH2 0x100 EXP SWAP1 DIV PUSH20 0xFFFFFFFFFFFFFFFFFFFFFFFFFFFFFFFFFFFFFFFF AND DUP11 DUP11 PUSH2 0xF58 JUMP JUMPDEST SWAP1 POP DUP1 PUSH20 0xFFFFFFFFFFFFFFFFFFFFFFFFFFFFFFFFFFFFFFFF AND PUSH4 0x23B872DD CALLER DUP4 DUP11 PUSH1 0x40 MLOAD DUP5 PUSH4 0xFFFFFFFF AND PUSH1 0xE0 SHL DUP2 MSTORE PUSH1 0x4 ADD PUSH2 0xA11 SWAP4 SWAP3 SWAP2 SWAP1 PUSH2 0x21EE JUMP JUMPDEST PUSH1 0x20 PUSH1 0x40 MLOAD DUP1 DUP4 SUB DUP2 PUSH1 0x0 DUP8 GAS CALL ISZERO DUP1 ISZERO PUSH2 0xA30 JUMPI RETURNDATASIZE PUSH1 0x0 DUP1 RETURNDATACOPY RETURNDATASIZE PUSH1 0x0 REVERT JUMPDEST POP POP POP POP PUSH1 0x40 MLOAD RETURNDATASIZE PUSH1 0x1F NOT PUSH1 0x1F DUP3 ADD AND DUP3 ADD DUP1 PUSH1 0x40 MSTORE POP DUP2 ADD SWAP1 PUSH2 0xA54 SWAP2 SWAP1 PUSH2 0x225D JUMP JUMPDEST POP DUP1 PUSH20 0xFFFFFFFFFFFFFFFFFFFFFFFFFFFFFFFFFFFFFFFF AND PUSH4 0x89AFCB44 DUP6 PUSH1 0x40 MLOAD DUP3 PUSH4 0xFFFFFFFF AND PUSH1 0xE0 SHL DUP2 MSTORE PUSH1 0x4 ADD PUSH2 0xA8E SWAP2 SWAP1 PUSH2 0x1A03 JUMP JUMPDEST PUSH1 0x40 DUP1 MLOAD DUP1 DUP4 SUB DUP2 PUSH1 0x0 DUP8 GAS CALL ISZERO DUP1 ISZERO PUSH2 0xAAC JUMPI RETURNDATASIZE PUSH1 0x0 DUP1 RETURNDATACOPY RETURNDATASIZE PUSH1 0x0 REVERT JUMPDEST POP POP POP POP PUSH1 0x40 MLOAD RETURNDATASIZE PUSH1 0x1F NOT PUSH1 0x1F DUP3 ADD AND DUP3 ADD DUP1 PUSH1 0x40 MSTORE POP DUP2 ADD SWAP1 PUSH2 0xAD0 SWAP2 SWAP1 PUSH2 0x228A JUMP JUMPDEST DUP1 SWAP4 POP DUP2 SWAP5 POP POP POP DUP6 DUP4 LT ISZERO PUSH2 0xB1B JUMPI PUSH1 0x40 MLOAD PUSH32 0x8C379A000000000000000000000000000000000000000000000000000000000 DUP2 MSTORE PUSH1 0x4 ADD PUSH2 0xB12 SWAP1 PUSH2 0x233C JUMP JUMPDEST PUSH1 0x40 MLOAD DUP1 SWAP2 SUB SWAP1 REVERT JUMPDEST DUP5 DUP3 LT ISZERO PUSH2 0xB5E JUMPI PUSH1 0x40 MLOAD PUSH32 0x8C379A000000000000000000000000000000000000000000000000000000000 DUP2 MSTORE PUSH1 0x4 ADD PUSH2 0xB55 SWAP1 PUSH2 0x23CE JUMP JUMPDEST PUSH1 0x40 MLOAD DUP1 SWAP2 SUB SWAP1 REVERT JUMPDEST POP SWAP7 POP SWAP7 SWAP5 POP POP POP POP POP JUMP JUMPDEST PUSH1 0x0 DUP1 PUSH1 0x0 DUP1 PUSH20 0xFFFFFFFFFFFFFFFFFFFFFFFFFFFFFFFFFFFFFFFF AND PUSH1 0x0 DUP1 SLOAD SWAP1 PUSH2 0x100 EXP SWAP1 DIV PUSH20 0xFFFFFFFFFFFFFFFFFFFFFFFFFFFFFFFFFFFFFFFF AND PUSH20 0xFFFFFFFFFFFFFFFFFFFFFFFFFFFFFFFFFFFFFFFF AND PUSH4 0x69454B86 DUP13 DUP13 PUSH1 0x40 MLOAD DUP4 PUSH4 0xFFFFFFFF AND PUSH1 0xE0 SHL DUP2 MSTORE PUSH1 0x4 ADD PUSH2 0xBE1 SWAP3 SWAP2 SWAP1 PUSH2 0x23EE JUMP JUMPDEST PUSH1 0x20 PUSH1 0x40 MLOAD DUP1 DUP4 SUB DUP2 DUP7 GAS STATICCALL ISZERO DUP1 ISZERO PUSH2 0xBFE JUMPI RETURNDATASIZE PUSH1 0x0 DUP1 RETURNDATACOPY RETURNDATASIZE PUSH1 0x0 REVERT JUMPDEST POP POP POP POP PUSH1 0x40 MLOAD RETURNDATASIZE PUSH1 0x1F NOT PUSH1 0x1F DUP3 ADD AND DUP3 ADD DUP1 PUSH1 0x40 MSTORE POP DUP2 ADD SWAP1 PUSH2 0xC22 SWAP2 SWAP1 PUSH2 0x242C JUMP JUMPDEST PUSH20 0xFFFFFFFFFFFFFFFFFFFFFFFFFFFFFFFFFFFFFFFF AND SUB PUSH2 0xCDD JUMPI PUSH1 0x0 DUP1 SLOAD SWAP1 PUSH2 0x100 EXP SWAP1 DIV PUSH20 0xFFFFFFFFFFFFFFFFFFFFFFFFFFFFFFFFFFFFFFFF AND PUSH20 0xFFFFFFFFFFFFFFFFFFFFFFFFFFFFFFFFFFFFFFFF AND PUSH4 0xC9C65396 DUP12 DUP12 PUSH1 0x40 MLOAD DUP4 PUSH4 0xFFFFFFFF AND PUSH1 0xE0 SHL DUP2 MSTORE PUSH1 0x4 ADD PUSH2 0xC98 SWAP3 SWAP2 SWAP1 PUSH2 0x23EE JUMP JUMPDEST PUSH1 0x20 PUSH1 0x40 MLOAD DUP1 DUP4 SUB DUP2 PUSH1 0x0 DUP8 GAS CALL ISZERO DUP1 ISZERO PUSH2 0xCB7 JUMPI RETURNDATASIZE PUSH1 0x0 DUP1 RETURNDATACOPY RETURNDATASIZE PUSH1 0x0 REVERT JUMPDEST POP POP POP POP PUSH1 0x40 MLOAD RETURNDATASIZE PUSH1 0x1F NOT PUSH1 0x1F DUP3 ADD AND DUP3 ADD DUP1 PUSH1 0x40 MSTORE POP DUP2 ADD SWAP1 PUSH2 0xCDB SWAP2 SWAP1 PUSH2 0x242C JUMP JUMPDEST POP JUMPDEST PUSH2 0xCEB DUP11 DUP11 DUP11 DUP11 DUP11 DUP11 PUSH2 0x135E JUMP JUMPDEST DUP1 SWAP4 POP DUP2 SWAP5 POP POP POP PUSH1 0x0 PUSH2 0xD20 PUSH1 0x0 DUP1 SLOAD SWAP1 PUSH2 0x100 EXP SWAP1 DIV PUSH20 0xFFFFFFFFFFFFFFFFFFFFFFFFFFFFFFFFFFFFFFFF AND DUP13 DUP13 PUSH2 0xF58 JUMP JUMPDEST SWAP1 POP DUP1 PUSH1 0x1 PUSH1 0x0 PUSH2 0x100 EXP DUP2 SLOAD DUP2 PUSH20 0xFFFFFFFFFFFFFFFFFFFFFFFFFFFFFFFFFFFFFFFF MUL NOT AND SWAP1 DUP4 PUSH20 0xFFFFFFFFFFFFFFFFFFFFFFFFFFFFFFFFFFFFFFFF AND MUL OR SWAP1 SSTORE POP DUP11 PUSH1 0x2 PUSH1 0x0 PUSH2 0x100 EXP DUP2 SLOAD DUP2 PUSH20 0xFFFFFFFFFFFFFFFFFFFFFFFFFFFFFFFFFFFFFFFF MUL NOT AND SWAP1 DUP4 PUSH20 0xFFFFFFFFFFFFFFFFFFFFFFFFFFFFFFFFFFFFFFFF AND MUL OR SWAP1 SSTORE POP DUP10 PUSH1 0x3 PUSH1 0x0 PUSH2 0x100 EXP DUP2 SLOAD DUP2 PUSH20 0xFFFFFFFFFFFFFFFFFFFFFFFFFFFFFFFFFFFFFFFF MUL NOT AND SWAP1 DUP4 PUSH20 0xFFFFFFFFFFFFFFFFFFFFFFFFFFFFFFFFFFFFFFFF AND MUL OR SWAP1 SSTORE POP PUSH2 0xDF0 DUP12 DUP3 DUP7 PUSH2 0xFCA JUMP JUMPDEST PUSH2 0xDFB DUP11 DUP3 DUP6 PUSH2 0xFCA JUMP JUMPDEST DUP1 PUSH20 0xFFFFFFFFFFFFFFFFFFFFFFFFFFFFFFFFFFFFFFFF AND PUSH4 0x6A627842 DUP7 PUSH1 0x40 MLOAD DUP3 PUSH4 0xFFFFFFFF AND PUSH1 0xE0 SHL DUP2 MSTORE PUSH1 0x4 ADD PUSH2 0xE34 SWAP2 SWAP1 PUSH2 0x1A03 JUMP JUMPDEST PUSH1 0x20 PUSH1 0x40 MLOAD DUP1 DUP4 SUB DUP2 PUSH1 0x0 DUP8 GAS CALL ISZERO DUP1 ISZERO PUSH2 0xE53 JUMPI RETURNDATASIZE PUSH1 0x0 DUP1 RETURNDATACOPY RETURNDATASIZE PUSH1 0x0 REVERT JUMPDEST POP POP POP POP PUSH1 0x40 MLOAD RETURNDATASIZE PUSH1 0x1F NOT PUSH1 0x1F DUP3 ADD AND DUP3 ADD DUP1 PUSH1 0x40 MSTORE POP DUP2 ADD SWAP1 PUSH2 0xE77 SWAP2 SWAP1 PUSH2 0x1CEB JUMP JUMPDEST SWAP2 POP POP SWAP8 POP SWAP8 POP SWAP8 SWAP5 POP POP POP POP POP JUMP JUMPDEST PUSH1 0x60 PUSH20 0x0 PUSH4 0xBB7B9C76 PUSH1 0x0 DUP1 SLOAD SWAP1 PUSH2 0x100 EXP SWAP1 DIV PUSH20 0xFFFFFFFFFFFFFFFFFFFFFFFFFFFFFFFFFFFFFFFF AND DUP6 DUP6 PUSH1 0x40 MLOAD DUP5 PUSH4 0xFFFFFFFF AND PUSH1 0xE0 SHL DUP2 MSTORE PUSH1 0x4 ADD PUSH2 0xEE4 SWAP4 SWAP3 SWAP2 SWAP1 PUSH2 0x1DE5 JUMP JUMPDEST PUSH1 0x0 PUSH1 0x40 MLOAD DUP1 DUP4 SUB DUP2 DUP7 GAS DELEGATECALL ISZERO DUP1 ISZERO PUSH2 0xF01 JUMPI RETURNDATASIZE PUSH1 0x0 DUP1 RETURNDATACOPY RETURNDATASIZE PUSH1 0x0 REVERT JUMPDEST POP POP POP POP PUSH1 0x40 MLOAD RETURNDATASIZE PUSH1 0x0 DUP3 RETURNDATACOPY RETURNDATASIZE PUSH1 0x1F NOT PUSH1 0x1F DUP3 ADD AND DUP3 ADD DUP1 PUSH1 0x40 MSTORE POP DUP2 ADD SWAP1 PUSH2 0xF2A SWAP2 SWAP1 PUSH2 0x1EE6 JUMP JUMPDEST SWAP1 POP SWAP3 SWAP2 POP POP JUMP JUMPDEST PUSH1 0x2 PUSH1 0x0 SWAP1 SLOAD SWAP1 PUSH2 0x100 EXP SWAP1 DIV PUSH20 0xFFFFFFFFFFFFFFFFFFFFFFFFFFFFFFFFFFFFFFFF AND DUP2 JUMP JUMPDEST PUSH1 0x0 DUP1 PUSH1 0x0 PUSH2 0xF67 DUP6 DUP6 PUSH2 0x15EF JUMP JUMPDEST SWAP2 POP SWAP2 POP DUP6 DUP3 DUP3 PUSH1 0x40 MLOAD PUSH1 0x20 ADD PUSH2 0xF7F SWAP3 SWAP2 SWAP1 PUSH2 0x24A1 JUMP JUMPDEST PUSH1 0x40 MLOAD PUSH1 0x20 DUP2 DUP4 SUB SUB DUP2 MSTORE SWAP1 PUSH1 0x40 MSTORE DUP1 MLOAD SWAP1 PUSH1 0x20 ADD KECCAK256 PUSH1 0x40 MLOAD PUSH1 0x20 ADD PUSH2 0xFA6 SWAP3 SWAP2 SWAP1 PUSH2 0x259B JUMP JUMPDEST PUSH1 0x40 MLOAD PUSH1 0x20 DUP2 DUP4 SUB SUB DUP2 MSTORE SWAP1 PUSH1 0x40 MSTORE DUP1 MLOAD SWAP1 PUSH1 0x20 ADD KECCAK256 PUSH1 0x0 SHR SWAP3 POP POP POP SWAP4 SWAP3 POP POP POP JUMP JUMPDEST PUSH1 0x0 DUP1 DUP5 PUSH20 0xFFFFFFFFFFFFFFFFFFFFFFFFFFFFFFFFFFFFFFFF AND PUSH1 0x40 MLOAD DUP1 PUSH1 0x40 ADD PUSH1 0x40 MSTORE DUP1 PUSH1 0x19 DUP2 MSTORE PUSH1 0x20 ADD PUSH32 0x7472616E7366657228616464726573732C75696E743235362900000000000000 DUP2 MSTORE POP DUP1 MLOAD SWAP1 PUSH1 0x20 ADD KECCAK256 DUP6 DUP6 PUSH1 0x40 MLOAD PUSH1 0x24 ADD PUSH2 0x1034 SWAP3 SWAP2 SWAP1 PUSH2 0x25DD JUMP JUMPDEST PUSH1 0x40 MLOAD PUSH1 0x20 DUP2 DUP4 SUB SUB DUP2 MSTORE SWAP1 PUSH1 0x40 MSTORE SWAP1 PUSH28 0xFFFFFFFFFFFFFFFFFFFFFFFFFFFFFFFFFFFFFFFFFFFFFFFFFFFFFFFF NOT AND PUSH1 0x20 DUP3 ADD DUP1 MLOAD PUSH28 0xFFFFFFFFFFFFFFFFFFFFFFFFFFFFFFFFFFFFFFFFFFFFFFFFFFFFFFFF DUP4 DUP2 DUP4 AND OR DUP4 MSTORE POP POP POP POP PUSH1 0x40 MLOAD PUSH2 0x109E SWAP2 SWAP1 PUSH2 0x2680 JUMP JUMPDEST PUSH1 0x0 PUSH1 0x40 MLOAD DUP1 DUP4 SUB DUP2 PUSH1 0x0 DUP7 GAS CALL SWAP2 POP POP RETURNDATASIZE DUP1 PUSH1 0x0 DUP2 EQ PUSH2 0x10DB JUMPI PUSH1 0x40 MLOAD SWAP2 POP PUSH1 0x1F NOT PUSH1 0x3F RETURNDATASIZE ADD AND DUP3 ADD PUSH1 0x40 MSTORE RETURNDATASIZE DUP3 MSTORE RETURNDATASIZE PUSH1 0x0 PUSH1 0x20 DUP5 ADD RETURNDATACOPY PUSH2 0x10E0 JUMP JUMPDEST PUSH1 0x60 SWAP2 POP JUMPDEST POP SWAP2 POP SWAP2 POP DUP2 DUP1 ISZERO PUSH2 0x110E JUMPI POP PUSH1 0x0 DUP2 MLOAD EQ DUP1 PUSH2 0x110D JUMPI POP DUP1 DUP1 PUSH1 0x20 ADD SWAP1 MLOAD DUP2 ADD SWAP1 PUSH2 0x110C SWAP2 SWAP1 PUSH2 0x225D JUMP JUMPDEST JUMPDEST JUMPDEST PUSH2 0x114D JUMPI PUSH1 0x40 MLOAD PUSH32 0x8C379A000000000000000000000000000000000000000000000000000000000 DUP2 MSTORE PUSH1 0x4 ADD PUSH2 0x1144 SWAP1 PUSH2 0x26E3 JUMP JUMPDEST PUSH1 0x40 MLOAD DUP1 SWAP2 SUB SWAP1 REVERT JUMPDEST POP POP POP POP POP JUMP JUMPDEST PUSH1 0x0 JUMPDEST PUSH1 0x1 DUP4 MLOAD PUSH2 0x1165 SWAP2 SWAP1 PUSH2 0x2128 JUMP JUMPDEST DUP2 LT ISZERO PUSH2 0x1358 JUMPI PUSH1 0x0 DUP1 DUP5 DUP4 DUP2 MLOAD DUP2 LT PUSH2 0x1182 JUMPI PUSH2 0x1181 PUSH2 0x1FFA JUMP JUMPDEST JUMPDEST PUSH1 0x20 MUL PUSH1 0x20 ADD ADD MLOAD DUP6 PUSH1 0x1 DUP6 PUSH2 0x1198 SWAP2 SWAP1 PUSH2 0x2703 JUMP JUMPDEST DUP2 MLOAD DUP2 LT PUSH2 0x11A9 JUMPI PUSH2 0x11A8 PUSH2 0x1FFA JUMP JUMPDEST JUMPDEST PUSH1 0x20 MUL PUSH1 0x20 ADD ADD MLOAD SWAP2 POP SWAP2 POP PUSH1 0x0 PUSH2 0x11C1 DUP4 DUP4 PUSH2 0x15EF JUMP JUMPDEST POP SWAP1 POP PUSH1 0x0 DUP8 PUSH1 0x1 DUP7 PUSH2 0x11D4 SWAP2 SWAP1 PUSH2 0x2703 JUMP JUMPDEST DUP2 MLOAD DUP2 LT PUSH2 0x11E5 JUMPI PUSH2 0x11E4 PUSH2 0x1FFA JUMP JUMPDEST JUMPDEST PUSH1 0x20 MUL PUSH1 0x20 ADD ADD MLOAD SWAP1 POP PUSH1 0x0 DUP1 DUP4 PUSH20 0xFFFFFFFFFFFFFFFFFFFFFFFFFFFFFFFFFFFFFFFF AND DUP7 PUSH20 0xFFFFFFFFFFFFFFFFFFFFFFFFFFFFFFFFFFFFFFFF AND EQ PUSH2 0x122D JUMPI DUP3 PUSH1 0x0 PUSH2 0x1231 JUMP JUMPDEST PUSH1 0x0 DUP4 JUMPDEST SWAP2 POP SWAP2 POP PUSH1 0x0 PUSH1 0x2 DUP11 MLOAD PUSH2 0x1245 SWAP2 SWAP1 PUSH2 0x2128 JUMP JUMPDEST DUP9 LT PUSH2 0x1251 JUMPI DUP9 PUSH2 0x12A3 JUMP JUMPDEST PUSH2 0x12A2 PUSH1 0x0 DUP1 SLOAD SWAP1 PUSH2 0x100 EXP SWAP1 DIV PUSH20 0xFFFFFFFFFFFFFFFFFFFFFFFFFFFFFFFFFFFFFFFF AND DUP8 DUP13 PUSH1 0x2 DUP13 PUSH2 0x1284 SWAP2 SWAP1 PUSH2 0x2703 JUMP JUMPDEST DUP2 MLOAD DUP2 LT PUSH2 0x1295 JUMPI PUSH2 0x1294 PUSH2 0x1FFA JUMP JUMPDEST JUMPDEST PUSH1 0x20 MUL PUSH1 0x20 ADD ADD MLOAD PUSH2 0xF58 JUMP JUMPDEST JUMPDEST SWAP1 POP PUSH2 0x12D0 PUSH1 0x0 DUP1 SLOAD SWAP1 PUSH2 0x100 EXP SWAP1 DIV PUSH20 0xFFFFFFFFFFFFFFFFFFFFFFFFFFFFFFFFFFFFFFFF AND DUP9 DUP9 PUSH2 0xF58 JUMP JUMPDEST PUSH20 0xFFFFFFFFFFFFFFFFFFFFFFFFFFFFFFFFFFFFFFFF AND PUSH4 0x6D9A640A DUP5 DUP5 DUP5 PUSH1 0x40 MLOAD DUP5 PUSH4 0xFFFFFFFF AND PUSH1 0xE0 SHL DUP2 MSTORE PUSH1 0x4 ADD PUSH2 0x130C SWAP4 SWAP3 SWAP2 SWAP1 PUSH2 0x2759 JUMP JUMPDEST PUSH1 0x0 PUSH1 0x40 MLOAD DUP1 DUP4 SUB DUP2 PUSH1 0x0 DUP8 DUP1 EXTCODESIZE ISZERO DUP1 ISZERO PUSH2 0x1326 JUMPI PUSH1 0x0 DUP1 REVERT JUMPDEST POP GAS CALL ISZERO DUP1 ISZERO PUSH2 0x133A JUMPI RETURNDATASIZE PUSH1 0x0 DUP1 RETURNDATACOPY RETURNDATASIZE PUSH1 0x0 REVERT JUMPDEST POP POP POP POP POP POP POP POP POP POP POP DUP1 DUP1 PUSH2 0x1350 SWAP1 PUSH2 0x2790 JUMP JUMPDEST SWAP2 POP POP PUSH2 0x1157 JUMP JUMPDEST POP POP POP POP JUMP JUMPDEST PUSH1 0x0 DUP1 PUSH1 0x0 DUP1 PUSH20 0x0 PUSH4 0x32749461 PUSH1 0x0 DUP1 SLOAD SWAP1 PUSH2 0x100 EXP SWAP1 DIV PUSH20 0xFFFFFFFFFFFFFFFFFFFFFFFFFFFFFFFFFFFFFFFF AND DUP13 DUP13 PUSH1 0x40 MLOAD DUP5 PUSH4 0xFFFFFFFF AND PUSH1 0xE0 SHL DUP2 MSTORE PUSH1 0x4 ADD PUSH2 0x13BF SWAP4 SWAP3 SWAP2 SWAP1 PUSH2 0x27D8 JUMP JUMPDEST PUSH1 0x40 DUP1 MLOAD DUP1 DUP4 SUB DUP2 DUP7 GAS DELEGATECALL ISZERO DUP1 ISZERO PUSH2 0x13DB JUMPI RETURNDATASIZE PUSH1 0x0 DUP1 RETURNDATACOPY RETURNDATASIZE PUSH1 0x0 REVERT JUMPDEST POP POP POP POP PUSH1 0x40 MLOAD RETURNDATASIZE PUSH1 0x1F NOT PUSH1 0x1F DUP3 ADD AND DUP3 ADD DUP1 PUSH1 0x40 MSTORE POP DUP2 ADD SWAP1 PUSH2 0x13FF SWAP2 SWAP1 PUSH2 0x228A JUMP JUMPDEST SWAP2 POP SWAP2 POP PUSH1 0x0 DUP3 EQ DUP1 ISZERO PUSH2 0x1413 JUMPI POP PUSH1 0x0 DUP2 EQ JUMPDEST ISZERO PUSH2 0x1427 JUMPI DUP8 DUP8 DUP1 SWAP5 POP DUP2 SWAP6 POP POP POP PUSH2 0x15E2 JUMP JUMPDEST PUSH1 0x0 PUSH20 0x0 PUSH4 0xAD615DEC DUP11 DUP6 DUP6 PUSH1 0x40 MLOAD DUP5 PUSH4 0xFFFFFFFF AND PUSH1 0xE0 SHL DUP2 MSTORE PUSH1 0x4 ADD PUSH2 0x1464 SWAP4 SWAP3 SWAP2 SWAP1 PUSH2 0x1C9F JUMP JUMPDEST PUSH1 0x20 PUSH1 0x40 MLOAD DUP1 DUP4 SUB DUP2 DUP7 GAS DELEGATECALL ISZERO DUP1 ISZERO PUSH2 0x1481 JUMPI RETURNDATASIZE PUSH1 0x0 DUP1 RETURNDATACOPY RETURNDATASIZE PUSH1 0x0 REVERT JUMPDEST POP POP POP POP PUSH1 0x40 MLOAD RETURNDATASIZE PUSH1 0x1F NOT PUSH1 0x1F DUP3 ADD AND DUP3 ADD DUP1 PUSH1 0x40 MSTORE POP DUP2 ADD SWAP1 PUSH2 0x14A5 SWAP2 SWAP1 PUSH2 0x1CEB JUMP JUMPDEST SWAP1 POP DUP8 DUP2 GT PUSH2 0x1500 JUMPI DUP6 DUP2 LT ISZERO PUSH2 0x14F1 JUMPI PUSH1 0x40 MLOAD PUSH32 0x8C379A000000000000000000000000000000000000000000000000000000000 DUP2 MSTORE PUSH1 0x4 ADD PUSH2 0x14E8 SWAP1 PUSH2 0x23CE JUMP JUMPDEST PUSH1 0x40 MLOAD DUP1 SWAP2 SUB SWAP1 REVERT JUMPDEST DUP9 DUP2 DUP1 SWAP6 POP DUP2 SWAP7 POP POP POP PUSH2 0x15E0 JUMP JUMPDEST PUSH1 0x0 PUSH20 0x0 PUSH4 0xAD615DEC DUP11 DUP6 DUP8 PUSH1 0x40 MLOAD DUP5 PUSH4 0xFFFFFFFF AND PUSH1 0xE0 SHL DUP2 MSTORE PUSH1 0x4 ADD PUSH2 0x153D SWAP4 SWAP3 SWAP2 SWAP1 PUSH2 0x1C9F JUMP JUMPDEST PUSH1 0x20 PUSH1 0x40 MLOAD DUP1 DUP4 SUB DUP2 DUP7 GAS DELEGATECALL ISZERO DUP1 ISZERO PUSH2 0x155A JUMPI RETURNDATASIZE PUSH1 0x0 DUP1 RETURNDATACOPY RETURNDATASIZE PUSH1 0x0 REVERT JUMPDEST POP POP POP POP PUSH1 0x40 MLOAD RETURNDATASIZE PUSH1 0x1F NOT PUSH1 0x1F DUP3 ADD AND DUP3 ADD DUP1 PUSH1 0x40 MSTORE POP DUP2 ADD SWAP1 PUSH2 0x157E SWAP2 SWAP1 PUSH2 0x1CEB JUMP JUMPDEST SWAP1 POP DUP10 DUP2 GT ISZERO PUSH2 0x1591 JUMPI PUSH2 0x1590 PUSH2 0x280F JUMP JUMPDEST JUMPDEST DUP8 DUP2 LT ISZERO PUSH2 0x15D4 JUMPI PUSH1 0x40 MLOAD PUSH32 0x8C379A000000000000000000000000000000000000000000000000000000000 DUP2 MSTORE PUSH1 0x4 ADD PUSH2 0x15CB SWAP1 PUSH2 0x233C JUMP JUMPDEST PUSH1 0x40 MLOAD DUP1 SWAP2 SUB SWAP1 REVERT JUMPDEST DUP1 DUP10 DUP1 SWAP7 POP DUP2 SWAP8 POP POP POP POP JUMPDEST POP JUMPDEST POP POP SWAP7 POP SWAP7 SWAP5 POP POP POP POP POP JUMP JUMPDEST PUSH1 0x0 DUP1 DUP3 PUSH20 0xFFFFFFFFFFFFFFFFFFFFFFFFFFFFFFFFFFFFFFFF AND DUP5 PUSH20 0xFFFFFFFFFFFFFFFFFFFFFFFFFFFFFFFFFFFFFFFF AND LT PUSH2 0x162C JUMPI DUP3 DUP5 PUSH2 0x162F JUMP JUMPDEST DUP4 DUP4 JUMPDEST SWAP2 POP SWAP2 POP SWAP3 POP SWAP3 SWAP1 POP JUMP JUMPDEST PUSH1 0x0 PUSH1 0x40 MLOAD SWAP1 POP SWAP1 JUMP JUMPDEST PUSH1 0x0 DUP1 REVERT JUMPDEST PUSH1 0x0 DUP1 REVERT JUMPDEST PUSH1 0x0 DUP2 SWAP1 POP SWAP2 SWAP1 POP JUMP JUMPDEST PUSH2 0x1661 DUP2 PUSH2 0x164E JUMP JUMPDEST DUP2 EQ PUSH2 0x166C JUMPI PUSH1 0x0 DUP1 REVERT JUMPDEST POP JUMP JUMPDEST PUSH1 0x0 DUP2 CALLDATALOAD SWAP1 POP PUSH2 0x167E DUP2 PUSH2 0x1658 JUMP JUMPDEST SWAP3 SWAP2 POP POP JUMP JUMPDEST PUSH1 0x0 DUP1 PUSH1 0x0 PUSH1 0x60 DUP5 DUP7 SUB SLT ISZERO PUSH2 0x169D JUMPI PUSH2 0x169C PUSH2 0x1644 JUMP JUMPDEST JUMPDEST PUSH1 0x0 PUSH2 0x16AB DUP7 DUP3 DUP8 ADD PUSH2 0x166F JUMP JUMPDEST SWAP4 POP POP PUSH1 0x20 PUSH2 0x16BC DUP7 DUP3 DUP8 ADD PUSH2 0x166F JUMP JUMPDEST SWAP3 POP POP PUSH1 0x40 PUSH2 0x16CD DUP7 DUP3 DUP8 ADD PUSH2 0x166F JUMP JUMPDEST SWAP2 POP POP SWAP3 POP SWAP3 POP SWAP3 JUMP JUMPDEST PUSH2 0x16E0 DUP2 PUSH2 0x164E JUMP JUMPDEST DUP3 MSTORE POP POP JUMP JUMPDEST PUSH1 0x0 PUSH1 0x20 DUP3 ADD SWAP1 POP PUSH2 0x16FB PUSH1 0x0 DUP4 ADD DUP5 PUSH2 0x16D7 JUMP JUMPDEST SWAP3 SWAP2 POP POP JUMP JUMPDEST PUSH1 0x0 DUP1 REVERT JUMPDEST PUSH1 0x0 PUSH1 0x1F NOT PUSH1 0x1F DUP4 ADD AND SWAP1 POP SWAP2 SWAP1 POP JUMP JUMPDEST PUSH32 0x4E487B7100000000000000000000000000000000000000000000000000000000 PUSH1 0x0 MSTORE PUSH1 0x41 PUSH1 0x4 MSTORE PUSH1 0x24 PUSH1 0x0 REVERT JUMPDEST PUSH2 0x174F DUP3 PUSH2 0x1706 JUMP JUMPDEST DUP2 ADD DUP2 DUP2 LT PUSH8 0xFFFFFFFFFFFFFFFF DUP3 GT OR ISZERO PUSH2 0x176E JUMPI PUSH2 0x176D PUSH2 0x1717 JUMP JUMPDEST JUMPDEST DUP1 PUSH1 0x40 MSTORE POP POP POP JUMP JUMPDEST PUSH1 0x0 PUSH2 0x1781 PUSH2 0x163A JUMP JUMPDEST SWAP1 POP PUSH2 0x178D DUP3 DUP3 PUSH2 0x1746 JUMP JUMPDEST SWAP2 SWAP1 POP JUMP JUMPDEST PUSH1 0x0 PUSH8 0xFFFFFFFFFFFFFFFF DUP3 GT ISZERO PUSH2 0x17AD JUMPI PUSH2 0x17AC PUSH2 0x1717 JUMP JUMPDEST JUMPDEST PUSH1 0x20 DUP3 MUL SWAP1 POP PUSH1 0x20 DUP2 ADD SWAP1 POP SWAP2 SWAP1 POP JUMP JUMPDEST PUSH1 0x0 DUP1 REVERT JUMPDEST PUSH1 0x0 PUSH20 0xFFFFFFFFFFFFFFFFFFFFFFFFFFFFFFFFFFFFFFFF DUP3 AND SWAP1 POP SWAP2 SWAP1 POP JUMP JUMPDEST PUSH1 0x0 PUSH2 0x17EE DUP3 PUSH2 0x17C3 JUMP JUMPDEST SWAP1 POP SWAP2 SWAP1 POP JUMP JUMPDEST PUSH2 0x17FE DUP2 PUSH2 0x17E3 JUMP JUMPDEST DUP2 EQ PUSH2 0x1809 JUMPI PUSH1 0x0 DUP1 REVERT JUMPDEST POP JUMP JUMPDEST PUSH1 0x0 DUP2 CALLDATALOAD SWAP1 POP PUSH2 0x181B DUP2 PUSH2 0x17F5 JUMP JUMPDEST SWAP3 SWAP2 POP POP JUMP JUMPDEST PUSH1 0x0 PUSH2 0x1834 PUSH2 0x182F DUP5 PUSH2 0x1792 JUMP JUMPDEST PUSH2 0x1777 JUMP JUMPDEST SWAP1 POP DUP1 DUP4 DUP3 MSTORE PUSH1 0x20 DUP3 ADD SWAP1 POP PUSH1 0x20 DUP5 MUL DUP4 ADD DUP6 DUP2 GT ISZERO PUSH2 0x1857 JUMPI PUSH2 0x1856 PUSH2 0x17BE JUMP JUMPDEST JUMPDEST DUP4 JUMPDEST DUP2 DUP2 LT ISZERO PUSH2 0x1880 JUMPI DUP1 PUSH2 0x186C DUP9 DUP3 PUSH2 0x180C JUMP JUMPDEST DUP5 MSTORE PUSH1 0x20 DUP5 ADD SWAP4 POP POP PUSH1 0x20 DUP2 ADD SWAP1 POP PUSH2 0x1859 JUMP JUMPDEST POP POP POP SWAP4 SWAP3 POP POP POP JUMP JUMPDEST PUSH1 0x0 DUP3 PUSH1 0x1F DUP4 ADD SLT PUSH2 0x189F JUMPI PUSH2 0x189E PUSH2 0x1701 JUMP JUMPDEST JUMPDEST DUP2 CALLDATALOAD PUSH2 0x18AF DUP5 DUP3 PUSH1 0x20 DUP7 ADD PUSH2 0x1821 JUMP JUMPDEST SWAP2 POP POP SWAP3 SWAP2 POP POP JUMP JUMPDEST PUSH1 0x0 DUP1 PUSH1 0x40 DUP4 DUP6 SUB SLT ISZERO PUSH2 0x18CF JUMPI PUSH2 0x18CE PUSH2 0x1644 JUMP JUMPDEST JUMPDEST PUSH1 0x0 PUSH2 0x18DD DUP6 DUP3 DUP7 ADD PUSH2 0x166F JUMP JUMPDEST SWAP3 POP POP PUSH1 0x20 DUP4 ADD CALLDATALOAD PUSH8 0xFFFFFFFFFFFFFFFF DUP2 GT ISZERO PUSH2 0x18FE JUMPI PUSH2 0x18FD PUSH2 0x1649 JUMP JUMPDEST JUMPDEST PUSH2 0x190A DUP6 DUP3 DUP7 ADD PUSH2 0x188A JUMP JUMPDEST SWAP2 POP POP SWAP3 POP SWAP3 SWAP1 POP JUMP JUMPDEST PUSH1 0x0 DUP2 MLOAD SWAP1 POP SWAP2 SWAP1 POP JUMP JUMPDEST PUSH1 0x0 DUP3 DUP3 MSTORE PUSH1 0x20 DUP3 ADD SWAP1 POP SWAP3 SWAP2 POP POP JUMP JUMPDEST PUSH1 0x0 DUP2 SWAP1 POP PUSH1 0x20 DUP3 ADD SWAP1 POP SWAP2 SWAP1 POP JUMP JUMPDEST PUSH2 0x1949 DUP2 PUSH2 0x164E JUMP JUMPDEST DUP3 MSTORE POP POP JUMP JUMPDEST PUSH1 0x0 PUSH2 0x195B DUP4 DUP4 PUSH2 0x1940 JUMP JUMPDEST PUSH1 0x20 DUP4 ADD SWAP1 POP SWAP3 SWAP2 POP POP JUMP JUMPDEST PUSH1 0x0 PUSH1 0x20 DUP3 ADD SWAP1 POP SWAP2 SWAP1 POP JUMP JUMPDEST PUSH1 0x0 PUSH2 0x197F DUP3 PUSH2 0x1914 JUMP JUMPDEST PUSH2 0x1989 DUP2 DUP6 PUSH2 0x191F JUMP JUMPDEST SWAP4 POP PUSH2 0x1994 DUP4 PUSH2 0x1930 JUMP JUMPDEST DUP1 PUSH1 0x0 JUMPDEST DUP4 DUP2 LT ISZERO PUSH2 0x19C5 JUMPI DUP2 MLOAD PUSH2 0x19AC DUP9 DUP3 PUSH2 0x194F JUMP JUMPDEST SWAP8 POP PUSH2 0x19B7 DUP4 PUSH2 0x1967 JUMP JUMPDEST SWAP3 POP POP PUSH1 0x1 DUP2 ADD SWAP1 POP PUSH2 0x1998 JUMP JUMPDEST POP DUP6 SWAP4 POP POP POP POP SWAP3 SWAP2 POP POP JUMP JUMPDEST PUSH1 0x0 PUSH1 0x20 DUP3 ADD SWAP1 POP DUP2 DUP2 SUB PUSH1 0x0 DUP4 ADD MSTORE PUSH2 0x19EC DUP2 DUP5 PUSH2 0x1974 JUMP JUMPDEST SWAP1 POP SWAP3 SWAP2 POP POP JUMP JUMPDEST PUSH2 0x19FD DUP2 PUSH2 0x17E3 JUMP JUMPDEST DUP3 MSTORE POP POP JUMP JUMPDEST PUSH1 0x0 PUSH1 0x20 DUP3 ADD SWAP1 POP PUSH2 0x1A18 PUSH1 0x0 DUP4 ADD DUP5 PUSH2 0x19F4 JUMP JUMPDEST SWAP3 SWAP2 POP POP JUMP JUMPDEST PUSH1 0x0 DUP1 REVERT JUMPDEST PUSH1 0x0 DUP1 DUP4 PUSH1 0x1F DUP5 ADD SLT PUSH2 0x1A39 JUMPI PUSH2 0x1A38 PUSH2 0x1701 JUMP JUMPDEST JUMPDEST DUP3 CALLDATALOAD SWAP1 POP PUSH8 0xFFFFFFFFFFFFFFFF DUP2 GT ISZERO PUSH2 0x1A56 JUMPI PUSH2 0x1A55 PUSH2 0x1A1E JUMP JUMPDEST JUMPDEST PUSH1 0x20 DUP4 ADD SWAP2 POP DUP4 PUSH1 0x20 DUP3 MUL DUP4 ADD GT ISZERO PUSH2 0x1A72 JUMPI PUSH2 0x1A71 PUSH2 0x17BE JUMP JUMPDEST JUMPDEST SWAP3 POP SWAP3 SWAP1 POP JUMP JUMPDEST PUSH1 0x0 DUP1 PUSH1 0x0 DUP1 PUSH1 0x0 PUSH1 0x80 DUP7 DUP9 SUB SLT ISZERO PUSH2 0x1A95 JUMPI PUSH2 0x1A94 PUSH2 0x1644 JUMP JUMPDEST JUMPDEST PUSH1 0x0 PUSH2 0x1AA3 DUP9 DUP3 DUP10 ADD PUSH2 0x166F JUMP JUMPDEST SWAP6 POP POP PUSH1 0x20 PUSH2 0x1AB4 DUP9 DUP3 DUP10 ADD PUSH2 0x166F JUMP JUMPDEST SWAP5 POP POP PUSH1 0x40 DUP7 ADD CALLDATALOAD PUSH8 0xFFFFFFFFFFFFFFFF DUP2 GT ISZERO PUSH2 0x1AD5 JUMPI PUSH2 0x1AD4 PUSH2 0x1649 JUMP JUMPDEST JUMPDEST PUSH2 0x1AE1 DUP9 DUP3 DUP10 ADD PUSH2 0x1A23 JUMP JUMPDEST SWAP4 POP SWAP4 POP POP PUSH1 0x60 PUSH2 0x1AF4 DUP9 DUP3 DUP10 ADD PUSH2 0x180C JUMP JUMPDEST SWAP2 POP POP SWAP3 SWAP6 POP SWAP3 SWAP6 SWAP1 SWAP4 POP JUMP JUMPDEST PUSH1 0x0 DUP1 PUSH1 0x0 DUP1 PUSH1 0x0 DUP1 PUSH1 0xC0 DUP8 DUP10 SUB SLT ISZERO PUSH2 0x1B1E JUMPI PUSH2 0x1B1D PUSH2 0x1644 JUMP JUMPDEST JUMPDEST PUSH1 0x0 PUSH2 0x1B2C DUP10 DUP3 DUP11 ADD PUSH2 0x180C JUMP JUMPDEST SWAP7 POP POP PUSH1 0x20 PUSH2 0x1B3D DUP10 DUP3 DUP11 ADD PUSH2 0x180C JUMP JUMPDEST SWAP6 POP POP PUSH1 0x40 PUSH2 0x1B4E DUP10 DUP3 DUP11 ADD PUSH2 0x166F JUMP JUMPDEST SWAP5 POP POP PUSH1 0x60 PUSH2 0x1B5F DUP10 DUP3 DUP11 ADD PUSH2 0x166F JUMP JUMPDEST SWAP4 POP POP PUSH1 0x80 PUSH2 0x1B70 DUP10 DUP3 DUP11 ADD PUSH2 0x166F JUMP JUMPDEST SWAP3 POP POP PUSH1 0xA0 PUSH2 0x1B81 DUP10 DUP3 DUP11 ADD PUSH2 0x180C JUMP JUMPDEST SWAP2 POP POP SWAP3 SWAP6 POP SWAP3 SWAP6 POP SWAP3 SWAP6 JUMP JUMPDEST PUSH1 0x0 PUSH1 0x40 DUP3 ADD SWAP1 POP PUSH2 0x1BA3 PUSH1 0x0 DUP4 ADD DUP6 PUSH2 0x16D7 JUMP JUMPDEST PUSH2 0x1BB0 PUSH1 0x20 DUP4 ADD DUP5 PUSH2 0x16D7 JUMP JUMPDEST SWAP4 SWAP3 POP POP POP JUMP JUMPDEST PUSH1 0x0 DUP1 PUSH1 0x0 DUP1 PUSH1 0x0 DUP1 PUSH1 0x0 PUSH1 0xE0 DUP9 DUP11 SUB SLT ISZERO PUSH2 0x1BD6 JUMPI PUSH2 0x1BD5 PUSH2 0x1644 JUMP JUMPDEST JUMPDEST PUSH1 0x0 PUSH2 0x1BE4 DUP11 DUP3 DUP12 ADD PUSH2 0x180C JUMP JUMPDEST SWAP8 POP POP PUSH1 0x20 PUSH2 0x1BF5 DUP11 DUP3 DUP12 ADD PUSH2 0x180C JUMP JUMPDEST SWAP7 POP POP PUSH1 0x40 PUSH2 0x1C06 DUP11 DUP3 DUP12 ADD PUSH2 0x166F JUMP JUMPDEST SWAP6 POP POP PUSH1 0x60 PUSH2 0x1C17 DUP11 DUP3 DUP12 ADD PUSH2 0x166F JUMP JUMPDEST SWAP5 POP POP PUSH1 0x80 PUSH2 0x1C28 DUP11 DUP3 DUP12 ADD PUSH2 0x166F JUMP JUMPDEST SWAP4 POP POP PUSH1 0xA0 PUSH2 0x1C39 DUP11 DUP3 DUP12 ADD PUSH2 0x166F JUMP JUMPDEST SWAP3 POP POP PUSH1 0xC0 PUSH2 0x1C4A DUP11 DUP3 DUP12 ADD PUSH2 0x180C JUMP JUMPDEST SWAP2 POP POP SWAP3 SWAP6 SWAP9 SWAP2 SWAP5 SWAP8 POP SWAP3 SWAP6 POP JUMP JUMPDEST PUSH1 0x0 PUSH1 0x60 DUP3 ADD SWAP1 POP PUSH2 0x1C6E PUSH1 0x0 DUP4 ADD DUP7 PUSH2 0x16D7 JUMP JUMPDEST PUSH2 0x1C7B PUSH1 0x20 DUP4 ADD DUP6 PUSH2 0x16D7 JUMP JUMPDEST PUSH2 0x1C88 PUSH1 0x40 DUP4 ADD DUP5 PUSH2 0x16D7 JUMP JUMPDEST SWAP5 SWAP4 POP POP POP POP JUMP JUMPDEST PUSH2 0x1C99 DUP2 PUSH2 0x164E JUMP JUMPDEST DUP3 MSTORE POP POP JUMP JUMPDEST PUSH1 0x0 PUSH1 0x60 DUP3 ADD SWAP1 POP PUSH2 0x1CB4 PUSH1 0x0 DUP4 ADD DUP7 PUSH2 0x1C90 JUMP JUMPDEST PUSH2 0x1CC1 PUSH1 0x20 DUP4 ADD DUP6 PUSH2 0x1C90 JUMP JUMPDEST PUSH2 0x1CCE PUSH1 0x40 DUP4 ADD DUP5 PUSH2 0x1C90 JUMP JUMPDEST SWAP5 SWAP4 POP POP POP POP JUMP JUMPDEST PUSH1 0x0 DUP2 MLOAD SWAP1 POP PUSH2 0x1CE5 DUP2 PUSH2 0x1658 JUMP JUMPDEST SWAP3 SWAP2 POP POP JUMP JUMPDEST PUSH1 0x0 PUSH1 0x20 DUP3 DUP5 SUB SLT ISZERO PUSH2 0x1D01 JUMPI PUSH2 0x1D00 PUSH2 0x1644 JUMP JUMPDEST JUMPDEST PUSH1 0x0 PUSH2 0x1D0F DUP5 DUP3 DUP6 ADD PUSH2 0x1CD6 JUMP JUMPDEST SWAP2 POP POP SWAP3 SWAP2 POP POP JUMP JUMPDEST PUSH2 0x1D21 DUP2 PUSH2 0x17E3 JUMP JUMPDEST DUP3 MSTORE POP POP JUMP JUMPDEST PUSH1 0x0 DUP2 MLOAD SWAP1 POP SWAP2 SWAP1 POP JUMP JUMPDEST PUSH1 0x0 DUP3 DUP3 MSTORE PUSH1 0x20 DUP3 ADD SWAP1 POP SWAP3 SWAP2 POP POP JUMP JUMPDEST PUSH1 0x0 DUP2 SWAP1 POP PUSH1 0x20 DUP3 ADD SWAP1 POP SWAP2 SWAP1 POP JUMP JUMPDEST PUSH2 0x1D5C DUP2 PUSH2 0x17E3 JUMP JUMPDEST DUP3 MSTORE POP POP JUMP JUMPDEST PUSH1 0x0 PUSH2 0x1D6E DUP4 DUP4 PUSH2 0x1D53 JUMP JUMPDEST PUSH1 0x20 DUP4 ADD SWAP1 POP SWAP3 SWAP2 POP POP JUMP JUMPDEST PUSH1 0x0 PUSH1 0x20 DUP3 ADD SWAP1 POP SWAP2 SWAP1 POP JUMP JUMPDEST PUSH1 0x0 PUSH2 0x1D92 DUP3 PUSH2 0x1D27 JUMP JUMPDEST PUSH2 0x1D9C DUP2 DUP6 PUSH2 0x1D32 JUMP JUMPDEST SWAP4 POP PUSH2 0x1DA7 DUP4 PUSH2 0x1D43 JUMP JUMPDEST DUP1 PUSH1 0x0 JUMPDEST DUP4 DUP2 LT ISZERO PUSH2 0x1DD8 JUMPI DUP2 MLOAD PUSH2 0x1DBF DUP9 DUP3 PUSH2 0x1D62 JUMP JUMPDEST SWAP8 POP PUSH2 0x1DCA DUP4 PUSH2 0x1D7A JUMP JUMPDEST SWAP3 POP POP PUSH1 0x1 DUP2 ADD SWAP1 POP PUSH2 0x1DAB JUMP JUMPDEST POP DUP6 SWAP4 POP POP POP POP SWAP3 SWAP2 POP POP JUMP JUMPDEST PUSH1 0x0 PUSH1 0x60 DUP3 ADD SWAP1 POP PUSH2 0x1DFA PUSH1 0x0 DUP4 ADD DUP7 PUSH2 0x1D18 JUMP JUMPDEST PUSH2 0x1E07 PUSH1 0x20 DUP4 ADD DUP6 PUSH2 0x1C90 JUMP JUMPDEST DUP2 DUP2 SUB PUSH1 0x40 DUP4 ADD MSTORE PUSH2 0x1E19 DUP2 DUP5 PUSH2 0x1D87 JUMP JUMPDEST SWAP1 POP SWAP5 SWAP4 POP POP POP POP JUMP JUMPDEST PUSH1 0x0 PUSH8 0xFFFFFFFFFFFFFFFF DUP3 GT ISZERO PUSH2 0x1E3E JUMPI PUSH2 0x1E3D PUSH2 0x1717 JUMP JUMPDEST JUMPDEST PUSH1 0x20 DUP3 MUL SWAP1 POP PUSH1 0x20 DUP2 ADD SWAP1 POP SWAP2 SWAP1 POP JUMP JUMPDEST PUSH1 0x0 PUSH2 0x1E62 PUSH2 0x1E5D DUP5 PUSH2 0x1E23 JUMP JUMPDEST PUSH2 0x1777 JUMP JUMPDEST SWAP1 POP DUP1 DUP4 DUP3 MSTORE PUSH1 0x20 DUP3 ADD SWAP1 POP PUSH1 0x20 DUP5 MUL DUP4 ADD DUP6 DUP2 GT ISZERO PUSH2 0x1E85 JUMPI PUSH2 0x1E84 PUSH2 0x17BE JUMP JUMPDEST JUMPDEST DUP4 JUMPDEST DUP2 DUP2 LT ISZERO PUSH2 0x1EAE JUMPI DUP1 PUSH2 0x1E9A DUP9 DUP3 PUSH2 0x1CD6 JUMP JUMPDEST DUP5 MSTORE PUSH1 0x20 DUP5 ADD SWAP4 POP POP PUSH1 0x20 DUP2 ADD SWAP1 POP PUSH2 0x1E87 JUMP JUMPDEST POP POP POP SWAP4 SWAP3 POP POP POP JUMP JUMPDEST PUSH1 0x0 DUP3 PUSH1 0x1F DUP4 ADD SLT PUSH2 0x1ECD JUMPI PUSH2 0x1ECC PUSH2 0x1701 JUMP JUMPDEST JUMPDEST DUP2 MLOAD PUSH2 0x1EDD DUP5 DUP3 PUSH1 0x20 DUP7 ADD PUSH2 0x1E4F JUMP JUMPDEST SWAP2 POP POP SWAP3 SWAP2 POP POP JUMP JUMPDEST PUSH1 0x0 PUSH1 0x20 DUP3 DUP5 SUB SLT ISZERO PUSH2 0x1EFC JUMPI PUSH2 0x1EFB PUSH2 0x1644 JUMP JUMPDEST JUMPDEST PUSH1 0x0 DUP3 ADD MLOAD PUSH8 0xFFFFFFFFFFFFFFFF DUP2 GT ISZERO PUSH2 0x1F1A JUMPI PUSH2 0x1F19 PUSH2 0x1649 JUMP JUMPDEST JUMPDEST PUSH2 0x1F26 DUP5 DUP3 DUP6 ADD PUSH2 0x1EB8 JUMP JUMPDEST SWAP2 POP POP SWAP3 SWAP2 POP POP JUMP JUMPDEST PUSH1 0x0 DUP2 SWAP1 POP SWAP2 SWAP1 POP JUMP JUMPDEST PUSH1 0x0 PUSH2 0x1F48 PUSH1 0x20 DUP5 ADD DUP5 PUSH2 0x180C JUMP JUMPDEST SWAP1 POP SWAP3 SWAP2 POP POP JUMP JUMPDEST PUSH1 0x0 PUSH1 0x20 DUP3 ADD SWAP1 POP SWAP2 SWAP1 POP JUMP JUMPDEST PUSH1 0x0 PUSH2 0x1F69 DUP4 DUP6 PUSH2 0x1D32 JUMP JUMPDEST SWAP4 POP PUSH2 0x1F74 DUP3 PUSH2 0x1F2F JUMP JUMPDEST DUP1 PUSH1 0x0 JUMPDEST DUP6 DUP2 LT ISZERO PUSH2 0x1FAD JUMPI PUSH2 0x1F8A DUP3 DUP5 PUSH2 0x1F39 JUMP JUMPDEST PUSH2 0x1F94 DUP9 DUP3 PUSH2 0x1D62 JUMP JUMPDEST SWAP8 POP PUSH2 0x1F9F DUP4 PUSH2 0x1F50 JUMP JUMPDEST SWAP3 POP POP PUSH1 0x1 DUP2 ADD SWAP1 POP PUSH2 0x1F78 JUMP JUMPDEST POP DUP6 SWAP3 POP POP POP SWAP4 SWAP3 POP POP POP JUMP JUMPDEST PUSH1 0x0 PUSH1 0x60 DUP3 ADD SWAP1 POP PUSH2 0x1FCF PUSH1 0x0 DUP4 ADD DUP8 PUSH2 0x1D18 JUMP JUMPDEST PUSH2 0x1FDC PUSH1 0x20 DUP4 ADD DUP7 PUSH2 0x1C90 JUMP JUMPDEST DUP2 DUP2 SUB PUSH1 0x40 DUP4 ADD MSTORE PUSH2 0x1FEF DUP2 DUP5 DUP7 PUSH2 0x1F5D JUMP JUMPDEST SWAP1 POP SWAP6 SWAP5 POP POP POP POP POP JUMP JUMPDEST PUSH32 0x4E487B7100000000000000000000000000000000000000000000000000000000 PUSH1 0x0 MSTORE PUSH1 0x32 PUSH1 0x4 MSTORE PUSH1 0x24 PUSH1 0x0 REVERT JUMPDEST PUSH1 0x0 DUP3 DUP3 MSTORE PUSH1 0x20 DUP3 ADD SWAP1 POP SWAP3 SWAP2 POP POP JUMP JUMPDEST PUSH32 0x4B616A7573776170526F757465723A204558434553534956455F494E5055545F PUSH1 0x0 DUP3 ADD MSTORE PUSH32 0x414D4F554E540000000000000000000000000000000000000000000000000000 PUSH1 0x20 DUP3 ADD MSTORE POP JUMP JUMPDEST PUSH1 0x0 PUSH2 0x2096 PUSH1 0x26 DUP4 PUSH2 0x2029 JUMP JUMPDEST SWAP2 POP PUSH2 0x20A1 DUP3 PUSH2 0x203A JUMP JUMPDEST PUSH1 0x40 DUP3 ADD SWAP1 POP SWAP2 SWAP1 POP JUMP JUMPDEST PUSH1 0x0 PUSH1 0x20 DUP3 ADD SWAP1 POP DUP2 DUP2 SUB PUSH1 0x0 DUP4 ADD MSTORE PUSH2 0x20C5 DUP2 PUSH2 0x2089 JUMP JUMPDEST SWAP1 POP SWAP2 SWAP1 POP JUMP JUMPDEST PUSH1 0x0 PUSH1 0x20 DUP3 DUP5 SUB SLT ISZERO PUSH2 0x20E2 JUMPI PUSH2 0x20E1 PUSH2 0x1644 JUMP JUMPDEST JUMPDEST PUSH1 0x0 PUSH2 0x20F0 DUP5 DUP3 DUP6 ADD PUSH2 0x180C JUMP JUMPDEST SWAP2 POP POP SWAP3 SWAP2 POP POP JUMP JUMPDEST PUSH32 0x4E487B7100000000000000000000000000000000000000000000000000000000 PUSH1 0x0 MSTORE PUSH1 0x11 PUSH1 0x4 MSTORE PUSH1 0x24 PUSH1 0x0 REVERT JUMPDEST PUSH1 0x0 PUSH2 0x2133 DUP3 PUSH2 0x164E JUMP JUMPDEST SWAP2 POP PUSH2 0x213E DUP4 PUSH2 0x164E JUMP JUMPDEST SWAP3 POP DUP3 DUP3 LT ISZERO PUSH2 0x2151 JUMPI PUSH2 0x2150 PUSH2 0x20F9 JUMP JUMPDEST JUMPDEST DUP3 DUP3 SUB SWAP1 POP SWAP3 SWAP2 POP POP JUMP JUMPDEST PUSH32 0x4B616A7573776170526F757465723A20494E53554646494349454E545F4F5554 PUSH1 0x0 DUP3 ADD MSTORE PUSH32 0x5055545F414D4F554E5400000000000000000000000000000000000000000000 PUSH1 0x20 DUP3 ADD MSTORE POP JUMP JUMPDEST PUSH1 0x0 PUSH2 0x21B8 PUSH1 0x2A DUP4 PUSH2 0x2029 JUMP JUMPDEST SWAP2 POP PUSH2 0x21C3 DUP3 PUSH2 0x215C JUMP JUMPDEST PUSH1 0x40 DUP3 ADD SWAP1 POP SWAP2 SWAP1 POP JUMP JUMPDEST PUSH1 0x0 PUSH1 0x20 DUP3 ADD SWAP1 POP DUP2 DUP2 SUB PUSH1 0x0 DUP4 ADD MSTORE PUSH2 0x21E7 DUP2 PUSH2 0x21AB JUMP JUMPDEST SWAP1 POP SWAP2 SWAP1 POP JUMP JUMPDEST PUSH1 0x0 PUSH1 0x60 DUP3 ADD SWAP1 POP PUSH2 0x2203 PUSH1 0x0 DUP4 ADD DUP7 PUSH2 0x19F4 JUMP JUMPDEST PUSH2 0x2210 PUSH1 0x20 DUP4 ADD DUP6 PUSH2 0x19F4 JUMP JUMPDEST PUSH2 0x221D PUSH1 0x40 DUP4 ADD DUP5 PUSH2 0x16D7 JUMP JUMPDEST SWAP5 SWAP4 POP POP POP POP JUMP JUMPDEST PUSH1 0x0 DUP2 ISZERO ISZERO SWAP1 POP SWAP2 SWAP1 POP JUMP JUMPDEST PUSH2 0x223A DUP2 PUSH2 0x2225 JUMP JUMPDEST DUP2 EQ PUSH2 0x2245 JUMPI PUSH1 0x0 DUP1 REVERT JUMPDEST POP JUMP JUMPDEST PUSH1 0x0 DUP2 MLOAD SWAP1 POP PUSH2 0x2257 DUP2 PUSH2 0x2231 JUMP JUMPDEST SWAP3 SWAP2 POP POP JUMP JUMPDEST PUSH1 0x0 PUSH1 0x20 DUP3 DUP5 SUB SLT ISZERO PUSH2 0x2273 JUMPI PUSH2 0x2272 PUSH2 0x1644 JUMP JUMPDEST JUMPDEST PUSH1 0x0 PUSH2 0x2281 DUP5 DUP3 DUP6 ADD PUSH2 0x2248 JUMP JUMPDEST SWAP2 POP POP SWAP3 SWAP2 POP POP JUMP JUMPDEST PUSH1 0x0 DUP1 PUSH1 0x40 DUP4 DUP6 SUB SLT ISZERO PUSH2 0x22A1 JUMPI PUSH2 0x22A0 PUSH2 0x1644 JUMP JUMPDEST JUMPDEST PUSH1 0x0 PUSH2 0x22AF DUP6 DUP3 DUP7 ADD PUSH2 0x1CD6 JUMP JUMPDEST SWAP3 POP POP PUSH1 0x20 PUSH2 0x22C0 DUP6 DUP3 DUP7 ADD PUSH2 0x1CD6 JUMP JUMPDEST SWAP2 POP POP SWAP3 POP SWAP3 SWAP1 POP JUMP JUMPDEST PUSH32 0x4B616A7573776170526F757465723A20494E53554646494349454E545F415F41 PUSH1 0x0 DUP3 ADD MSTORE PUSH32 0x4D4F554E54000000000000000000000000000000000000000000000000000000 PUSH1 0x20 DUP3 ADD MSTORE POP JUMP JUMPDEST PUSH1 0x0 PUSH2 0x2326 PUSH1 0x25 DUP4 PUSH2 0x2029 JUMP JUMPDEST SWAP2 POP PUSH2 0x2331 DUP3 PUSH2 0x22CA JUMP JUMPDEST PUSH1 0x40 DUP3 ADD SWAP1 POP SWAP2 SWAP1 POP JUMP JUMPDEST PUSH1 0x0 PUSH1 0x20 DUP3 ADD SWAP1 POP DUP2 DUP2 SUB PUSH1 0x0 DUP4 ADD MSTORE PUSH2 0x2355 DUP2 PUSH2 0x2319 JUMP JUMPDEST SWAP1 POP SWAP2 SWAP1 POP JUMP JUMPDEST PUSH32 0x4B616A7573776170526F757465723A20494E53554646494349454E545F425F41 PUSH1 0x0 DUP3 ADD MSTORE PUSH32 0x4D4F554E54000000000000000000000000000000000000000000000000000000 PUSH1 0x20 DUP3 ADD MSTORE POP JUMP JUMPDEST PUSH1 0x0 PUSH2 0x23B8 PUSH1 0x25 DUP4 PUSH2 0x2029 JUMP JUMPDEST SWAP2 POP PUSH2 0x23C3 DUP3 PUSH2 0x235C JUMP JUMPDEST PUSH1 0x40 DUP3 ADD SWAP1 POP SWAP2 SWAP1 POP JUMP JUMPDEST PUSH1 0x0 PUSH1 0x20 DUP3 ADD SWAP1 POP DUP2 DUP2 SUB PUSH1 0x0 DUP4 ADD MSTORE PUSH2 0x23E7 DUP2 PUSH2 0x23AB JUMP JUMPDEST SWAP1 POP SWAP2 SWAP1 POP JUMP JUMPDEST PUSH1 0x0 PUSH1 0x40 DUP3 ADD SWAP1 POP PUSH2 0x2403 PUSH1 0x0 DUP4 ADD DUP6 PUSH2 0x19F4 JUMP JUMPDEST PUSH2 0x2410 PUSH1 0x20 DUP4 ADD DUP5 PUSH2 0x19F4 JUMP JUMPDEST SWAP4 SWAP3 POP POP POP JUMP JUMPDEST PUSH1 0x0 DUP2 MLOAD SWAP1 POP PUSH2 0x2426 DUP2 PUSH2 0x17F5 JUMP JUMPDEST SWAP3 SWAP2 POP POP JUMP JUMPDEST PUSH1 0x0 PUSH1 0x20 DUP3 DUP5 SUB SLT ISZERO PUSH2 0x2442 JUMPI PUSH2 0x2441 PUSH2 0x1644 JUMP JUMPDEST JUMPDEST PUSH1 0x0 PUSH2 0x2450 DUP5 DUP3 DUP6 ADD PUSH2 0x2417 JUMP JUMPDEST SWAP2 POP POP SWAP3 SWAP2 POP POP JUMP JUMPDEST PUSH1 0x0 DUP2 PUSH1 0x60 SHL SWAP1 POP SWAP2 SWAP1 POP JUMP JUMPDEST PUSH1 0x0 PUSH2 0x2471 DUP3 PUSH2 0x2459 JUMP JUMPDEST SWAP1 POP SWAP2 SWAP1 POP JUMP JUMPDEST PUSH1 0x0 PUSH2 0x2483 DUP3 PUSH2 0x2466 JUMP JUMPDEST SWAP1 POP SWAP2 SWAP1 POP JUMP JUMPDEST PUSH2 0x249B PUSH2 0x2496 DUP3 PUSH2 0x17E3 JUMP JUMPDEST PUSH2 0x2478 JUMP JUMPDEST DUP3 MSTORE POP POP JUMP JUMPDEST PUSH1 0x0 PUSH2 0x24AD DUP3 DUP6 PUSH2 0x248A JUMP JUMPDEST PUSH1 0x14 DUP3 ADD SWAP2 POP PUSH2 0x24BD DUP3 DUP5 PUSH2 0x248A JUMP JUMPDEST PUSH1 0x14 DUP3 ADD SWAP2 POP DUP2 SWAP1 POP SWAP4 SWAP3 POP POP POP JUMP JUMPDEST PUSH1 0x0 DUP2 SWAP1 POP SWAP3 SWAP2 POP POP JUMP JUMPDEST PUSH32 0xFF00000000000000000000000000000000000000000000000000000000000000 PUSH1 0x0 DUP3 ADD MSTORE POP JUMP JUMPDEST PUSH1 0x0 PUSH2 0x250E PUSH1 0x1 DUP4 PUSH2 0x24CD JUMP JUMPDEST SWAP2 POP PUSH2 0x2519 DUP3 PUSH2 0x24D8 JUMP JUMPDEST PUSH1 0x1 DUP3 ADD SWAP1 POP SWAP2 SWAP1 POP JUMP JUMPDEST PUSH1 0x0 DUP2 SWAP1 POP SWAP2 SWAP1 POP JUMP JUMPDEST PUSH1 0x0 DUP2 SWAP1 POP SWAP2 SWAP1 POP JUMP JUMPDEST PUSH2 0x2549 PUSH2 0x2544 DUP3 PUSH2 0x2524 JUMP JUMPDEST PUSH2 0x252E JUMP JUMPDEST DUP3 MSTORE POP POP JUMP JUMPDEST PUSH32 0xB68FBBA50CEB1571C8D495EC425BA3B90ECE4D1440852FD428FDD1439CA5A1D8 PUSH1 0x0 DUP3 ADD MSTORE POP JUMP JUMPDEST PUSH1 0x0 PUSH2 0x2585 PUSH1 0x20 DUP4 PUSH2 0x24CD JUMP JUMPDEST SWAP2 POP PUSH2 0x2590 DUP3 PUSH2 0x254F JUMP JUMPDEST PUSH1 0x20 DUP3 ADD SWAP1 POP SWAP2 SWAP1 POP JUMP JUMPDEST PUSH1 0x0 PUSH2 0x25A6 DUP3 PUSH2 0x2501 JUMP JUMPDEST SWAP2 POP PUSH2 0x25B2 DUP3 DUP6 PUSH2 0x248A JUMP JUMPDEST PUSH1 0x14 DUP3 ADD SWAP2 POP PUSH2 0x25C2 DUP3 DUP5 PUSH2 0x2538 JUMP JUMPDEST PUSH1 0x20 DUP3 ADD SWAP2 POP PUSH2 0x25D1 DUP3 PUSH2 0x2578 JUMP JUMPDEST SWAP2 POP DUP2 SWAP1 POP SWAP4 SWAP3 POP POP POP JUMP JUMPDEST PUSH1 0x0 PUSH1 0x40 DUP3 ADD SWAP1 POP PUSH2 0x25F2 PUSH1 0x0 DUP4 ADD DUP6 PUSH2 0x19F4 JUMP JUMPDEST PUSH2 0x25FF PUSH1 0x20 DUP4 ADD DUP5 PUSH2 0x16D7 JUMP JUMPDEST SWAP4 SWAP3 POP POP POP JUMP JUMPDEST PUSH1 0x0 DUP2 MLOAD SWAP1 POP SWAP2 SWAP1 POP JUMP JUMPDEST PUSH1 0x0 DUP2 SWAP1 POP SWAP3 SWAP2 POP POP JUMP JUMPDEST PUSH1 0x0 JUMPDEST DUP4 DUP2 LT ISZERO PUSH2 0x263A JUMPI DUP1 DUP3 ADD MLOAD DUP2 DUP5 ADD MSTORE PUSH1 0x20 DUP2 ADD SWAP1 POP PUSH2 0x261F JUMP JUMPDEST DUP4 DUP2 GT ISZERO PUSH2 0x2649 JUMPI PUSH1 0x0 DUP5 DUP5 ADD MSTORE JUMPDEST POP POP POP POP JUMP JUMPDEST PUSH1 0x0 PUSH2 0x265A DUP3 PUSH2 0x2606 JUMP JUMPDEST PUSH2 0x2664 DUP2 DUP6 PUSH2 0x2611 JUMP JUMPDEST SWAP4 POP PUSH2 0x2674 DUP2 DUP6 PUSH1 0x20 DUP7 ADD PUSH2 0x261C JUMP JUMPDEST DUP1 DUP5 ADD SWAP2 POP POP SWAP3 SWAP2 POP POP JUMP JUMPDEST PUSH1 0x0 PUSH2 0x268C DUP3 DUP5 PUSH2 0x264F JUMP JUMPDEST SWAP2 POP DUP2 SWAP1 POP SWAP3 SWAP2 POP POP JUMP JUMPDEST PUSH32 0x4B616A75737761703A205452414E534645525F4641494C454400000000000000 PUSH1 0x0 DUP3 ADD MSTORE POP JUMP JUMPDEST PUSH1 0x0 PUSH2 0x26CD PUSH1 0x19 DUP4 PUSH2 0x2029 JUMP JUMPDEST SWAP2 POP PUSH2 0x26D8 DUP3 PUSH2 0x2697 JUMP JUMPDEST PUSH1 0x20 DUP3 ADD SWAP1 POP SWAP2 SWAP1 POP JUMP JUMPDEST PUSH1 0x0 PUSH1 0x20 DUP3 ADD SWAP1 POP DUP2 DUP2 SUB PUSH1 0x0 DUP4 ADD MSTORE PUSH2 0x26FC DUP2 PUSH2 0x26C0 JUMP JUMPDEST SWAP1 POP SWAP2 SWAP1 POP JUMP JUMPDEST PUSH1 0x0 PUSH2 0x270E DUP3 PUSH2 0x164E JUMP JUMPDEST SWAP2 POP PUSH2 0x2719 DUP4 PUSH2 0x164E JUMP JUMPDEST SWAP3 POP DUP3 PUSH32 0xFFFFFFFFFFFFFFFFFFFFFFFFFFFFFFFFFFFFFFFFFFFFFFFFFFFFFFFFFFFFFFFF SUB DUP3 GT ISZERO PUSH2 0x274E JUMPI PUSH2 0x274D PUSH2 0x20F9 JUMP JUMPDEST JUMPDEST DUP3 DUP3 ADD SWAP1 POP SWAP3 SWAP2 POP POP JUMP JUMPDEST PUSH1 0x0 PUSH1 0x60 DUP3 ADD SWAP1 POP PUSH2 0x276E PUSH1 0x0 DUP4 ADD DUP7 PUSH2 0x16D7 JUMP JUMPDEST PUSH2 0x277B PUSH1 0x20 DUP4 ADD DUP6 PUSH2 0x16D7 JUMP JUMPDEST PUSH2 0x2788 PUSH1 0x40 DUP4 ADD DUP5 PUSH2 0x19F4 JUMP JUMPDEST SWAP5 SWAP4 POP POP POP POP JUMP JUMPDEST PUSH1 0x0 PUSH2 0x279B DUP3 PUSH2 0x164E JUMP JUMPDEST SWAP2 POP PUSH32 0xFFFFFFFFFFFFFFFFFFFFFFFFFFFFFFFFFFFFFFFFFFFFFFFFFFFFFFFFFFFFFFFF DUP3 SUB PUSH2 0x27CD JUMPI PUSH2 0x27CC PUSH2 0x20F9 JUMP JUMPDEST JUMPDEST PUSH1 0x1 DUP3 ADD SWAP1 POP SWAP2 SWAP1 POP JUMP JUMPDEST PUSH1 0x0 PUSH1 0x60 DUP3 ADD SWAP1 POP PUSH2 0x27ED PUSH1 0x0 DUP4 ADD DUP7 PUSH2 0x1D18 JUMP JUMPDEST PUSH2 0x27FA PUSH1 0x20 DUP4 ADD DUP6 PUSH2 0x1D18 JUMP JUMPDEST PUSH2 0x2807 PUSH1 0x40 DUP4 ADD DUP5 PUSH2 0x1D18 JUMP JUMPDEST SWAP5 SWAP4 POP POP POP POP JUMP JUMPDEST PUSH32 0x4E487B7100000000000000000000000000000000000000000000000000000000 PUSH1 0x0 MSTORE PUSH1 0x1 PUSH1 0x4 MSTORE PUSH1 0x24 PUSH1 0x0 REVERT INVALID LOG2 PUSH5 0x6970667358 0x22 SLT KECCAK256 0x4B PUSH17 0xA14F0E50F73707F93093A6A04E06412AAF 0xB3 BALANCE XOR 0xD ADDRESS 0xC3 0xEF 0xEB PUSH3 0xDBC0CD SLOAD PUSH5 0x736F6C6343 STOP ADDMOD 0xF STOP CALLER "
				},
				"gasEstimates": {
					"creation": {
						"codeDepositCost": "2071200",
						"executionCost": "infinite",
						"totalCost": "infinite"
					},
					"external": {
						"A()": "2624",
						"B()": "2559",
						"PA()": "2625",
						"addLiquidity(address,address,uint256,uint256,uint256,uint256,address)": "infinite",
						"getAmountIn(uint256,uint256,uint256)": "infinite",
						"getAmountOut(uint256,uint256,uint256)": "infinite",
						"getAmountsIn(uint256,address[])": "infinite",
						"getAmountsOut(uint256,address[])": "infinite",
						"quote(uint256,uint256,uint256)": "infinite",
						"removeLiquidity(address,address,uint256,uint256,uint256,address)": "infinite",
						"swapExactTokensForTokens(uint256,uint256,address[],address)": "infinite",
						"swapTokensForExactTokens(uint256,uint256,address[],address)": "infinite"
					},
					"internal": {
						"_calculateLiquidity(address,address,uint256,uint256,uint256,uint256)": "infinite",
						"_safeTransferFrom(address,address,uint256)": "infinite",
						"_swap(uint256[] memory,address[] memory,address)": "infinite"
					}
				},
				"methodIdentifiers": {
					"A()": "f446c1d0",
					"B()": "32e7c5bf",
					"PA()": "8434d01a",
					"addLiquidity(address,address,uint256,uint256,uint256,uint256,address)": "ca3d6539",
					"getAmountIn(uint256,uint256,uint256)": "85f8c259",
					"getAmountOut(uint256,uint256,uint256)": "054d50d4",
					"getAmountsIn(uint256,address[])": "1f00ca74",
					"getAmountsOut(uint256,address[])": "d06ca61f",
					"quote(uint256,uint256,uint256)": "ad615dec",
					"removeLiquidity(address,address,uint256,uint256,uint256,address)": "c0e3ee6b",
					"swapExactTokensForTokens(uint256,uint256,address[],address)": "472b43f3",
					"swapTokensForExactTokens(uint256,uint256,address[],address)": "42712a67"
				}
			},
			"storageLayout": {
				"storage": [
					{
						"astId": 458,
						"contract": "contracts/KajuswapRouter.sol:KajuswapRouter",
						"label": "factory",
						"offset": 0,
						"slot": "0",
						"type": "t_contract(IKajuswapFactory)1182"
					},
					{
						"astId": 460,
						"contract": "contracts/KajuswapRouter.sol:KajuswapRouter",
						"label": "PA",
						"offset": 0,
						"slot": "1",
						"type": "t_address"
					},
					{
						"astId": 462,
						"contract": "contracts/KajuswapRouter.sol:KajuswapRouter",
						"label": "A",
						"offset": 0,
						"slot": "2",
						"type": "t_address"
					},
					{
						"astId": 464,
						"contract": "contracts/KajuswapRouter.sol:KajuswapRouter",
						"label": "B",
						"offset": 0,
						"slot": "3",
						"type": "t_address"
					}
				],
				"types": {
					"t_address": {
						"encoding": "inplace",
						"label": "address",
						"numberOfBytes": "20"
					},
					"t_contract(IKajuswapFactory)1182": {
						"encoding": "inplace",
						"label": "contract IKajuswapFactory",
						"numberOfBytes": "20"
					}
				}
			},
			"userdoc": {
				"kind": "user",
				"methods": {},
				"version": 1
			}
		}
	}
}