{
	"contracts/KajuswapLibrary.sol": {
		"KajuswapLibrary": {
			"abi": [
				{
					"inputs": [
						{
							"internalType": "uint256",
							"name": "amountOut",
							"type": "uint256"
						},
						{
							"internalType": "uint256",
							"name": "reserveIn",
							"type": "uint256"
						},
						{
							"internalType": "uint256",
							"name": "reserveOut",
							"type": "uint256"
						}
					],
					"name": "getAmountIn",
					"outputs": [
						{
							"internalType": "uint256",
							"name": "",
							"type": "uint256"
						}
					],
					"stateMutability": "pure",
					"type": "function"
				},
				{
					"inputs": [
						{
							"internalType": "uint256",
							"name": "amountIn",
							"type": "uint256"
						},
						{
							"internalType": "uint256",
							"name": "reserveIn",
							"type": "uint256"
						},
						{
							"internalType": "uint256",
							"name": "reserveOut",
							"type": "uint256"
						}
					],
					"name": "getAmountOut",
					"outputs": [
						{
							"internalType": "uint256",
							"name": "",
							"type": "uint256"
						}
					],
					"stateMutability": "pure",
					"type": "function"
				},
				{
					"inputs": [
						{
							"internalType": "uint256",
							"name": "amountIn",
							"type": "uint256"
						},
						{
							"internalType": "uint256",
							"name": "reserveIn",
							"type": "uint256"
						},
						{
							"internalType": "uint256",
							"name": "reserveOut",
							"type": "uint256"
						}
					],
					"name": "quote",
					"outputs": [
						{
							"internalType": "uint256",
							"name": "amountOut",
							"type": "uint256"
						}
					],
					"stateMutability": "pure",
					"type": "function"
				}
			],
			"devdoc": {
				"kind": "dev",
				"methods": {},
				"version": 1
			},
			"evm": {
				"assembly": "    /* \"contracts/KajuswapLibrary.sol\":152:5631  library KajuswapLibrary {... */\n  dataSize(sub_0)\n  dataOffset(sub_0)\n  0x0b\n  dup3\n  dup3\n  dup3\n  codecopy\n  dup1\n  mload\n  0x00\n  byte\n  0x73\n  eq\n  tag_1\n  jumpi\n  mstore(0x00, 0x4e487b7100000000000000000000000000000000000000000000000000000000)\n  mstore(0x04, 0x00)\n  revert(0x00, 0x24)\ntag_1:\n  mstore(0x00, address)\n  0x73\n  dup2\n  mstore8\n  dup3\n  dup2\n  return\nstop\n\nsub_0: assembly {\n        /* \"contracts/KajuswapLibrary.sol\":152:5631  library KajuswapLibrary {... */\n      eq(address, deployTimeAddress())\n      mstore(0x40, 0x80)\n      jumpi(tag_1, lt(calldatasize, 0x04))\n      shr(0xe0, calldataload(0x00))\n      dup1\n      0x054d50d4\n      eq\n      tag_2\n      jumpi\n      dup1\n      0x192128b2\n      eq\n      tag_3\n      jumpi\n      dup1\n      0x32749461\n      eq\n      tag_4\n      jumpi\n      dup1\n      0x85f8c259\n      eq\n      tag_5\n      jumpi\n      dup1\n      0xad615dec\n      eq\n      tag_6\n      jumpi\n      dup1\n      0xbb7b9c76\n      eq\n      tag_7\n      jumpi\n    tag_1:\n      0x00\n      dup1\n      revert\n        /* \"contracts/KajuswapLibrary.sol\":2732:3459  function getAmountOut(... */\n    tag_2:\n      tag_8\n      0x04\n      dup1\n      calldatasize\n      sub\n      dup2\n      add\n      swap1\n      tag_9\n      swap2\n      swap1\n      tag_10\n      jump\t// in\n    tag_9:\n      tag_11\n      jump\t// in\n    tag_8:\n      mload(0x40)\n      tag_12\n      swap2\n      swap1\n      tag_13\n      jump\t// in\n    tag_12:\n      mload(0x40)\n      dup1\n      swap2\n      sub\n      swap1\n      return\n        /* \"contracts/KajuswapLibrary.sol\":4886:5628  function getAmountsIn(... */\n    tag_3:\n      dup2\n      dup1\n      iszero\n      tag_14\n      jumpi\n      0x00\n      dup1\n      revert\n    tag_14:\n      pop\n      tag_15\n      0x04\n      dup1\n      calldatasize\n      sub\n      dup2\n      add\n      swap1\n      tag_16\n      swap2\n      swap1\n      tag_17\n      jump\t// in\n    tag_16:\n      tag_18\n      jump\t// in\n    tag_15:\n      mload(0x40)\n      tag_19\n      swap2\n      swap1\n      tag_20\n      jump\t// in\n    tag_19:\n      mload(0x40)\n      dup1\n      swap2\n      sub\n      swap1\n      return\n        /* \"contracts/KajuswapLibrary.sol\":328:903  function getReserves(... */\n    tag_4:\n      dup2\n      dup1\n      iszero\n      tag_21\n      jumpi\n      0x00\n      dup1\n      revert\n    tag_21:\n      pop\n      tag_22\n      0x04\n      dup1\n      calldatasize\n      sub\n      dup2\n      add\n      swap1\n      tag_23\n      swap2\n      swap1\n      tag_24\n      jump\t// in\n    tag_23:\n      tag_25\n      jump\t// in\n    tag_22:\n      mload(0x40)\n      tag_26\n      swap3\n      swap2\n      swap1\n      tag_27\n      jump\t// in\n    tag_26:\n      mload(0x40)\n      dup1\n      swap2\n      sub\n      swap1\n      return\n        /* \"contracts/KajuswapLibrary.sol\":4200:4878  function getAmountIn(... */\n    tag_5:\n      tag_28\n      0x04\n      dup1\n      calldatasize\n      sub\n      dup2\n      add\n      swap1\n      tag_29\n      swap2\n      swap1\n      tag_10\n      jump\t// in\n    tag_29:\n      tag_30\n      jump\t// in\n    tag_28:\n      mload(0x40)\n      tag_31\n      swap2\n      swap1\n      tag_13\n      jump\t// in\n    tag_31:\n      mload(0x40)\n      dup1\n      swap2\n      sub\n      swap1\n      return\n        /* \"contracts/KajuswapLibrary.sol\":911:1472  function quote(... */\n    tag_6:\n      tag_32\n      0x04\n      dup1\n      calldatasize\n      sub\n      dup2\n      add\n      swap1\n      tag_33\n      swap2\n      swap1\n      tag_10\n      jump\t// in\n    tag_33:\n      tag_34\n      jump\t// in\n    tag_32:\n      mload(0x40)\n      tag_35\n      swap2\n      swap1\n      tag_13\n      jump\t// in\n    tag_35:\n      mload(0x40)\n      dup1\n      swap2\n      sub\n      swap1\n      return\n        /* \"contracts/KajuswapLibrary.sol\":3467:4192  function getAmountsOut(... */\n    tag_7:\n      dup2\n      dup1\n      iszero\n      tag_36\n      jumpi\n      0x00\n      dup1\n      revert\n    tag_36:\n      pop\n      tag_37\n      0x04\n      dup1\n      calldatasize\n      sub\n      dup2\n      add\n      swap1\n      tag_38\n      swap2\n      swap1\n      tag_17\n      jump\t// in\n    tag_38:\n      tag_39\n      jump\t// in\n    tag_37:\n      mload(0x40)\n      tag_40\n      swap2\n      swap1\n      tag_20\n      jump\t// in\n    tag_40:\n      mload(0x40)\n      dup1\n      swap2\n      sub\n      swap1\n      return\n        /* \"contracts/KajuswapLibrary.sol\":2732:3459  function getAmountOut(... */\n    tag_11:\n        /* \"contracts/KajuswapLibrary.sol\":2866:2873  uint256 */\n      0x00\n        /* \"contracts/KajuswapLibrary.sol\":3091:3092  0 */\n      dup1\n        /* \"contracts/KajuswapLibrary.sol\":3080:3088  amountIn */\n      dup5\n        /* \"contracts/KajuswapLibrary.sol\":3080:3092  amountIn > 0 */\n      gt\n        /* \"contracts/KajuswapLibrary.sol\":3072:3133  require(amountIn > 0, \"KajuswapLibrary: INSUFFICIENT_AMOUNT\") */\n      tag_42\n      jumpi\n      mload(0x40)\n      0x08c379a000000000000000000000000000000000000000000000000000000000\n      dup2\n      mstore\n      0x04\n      add\n      tag_43\n      swap1\n      tag_44\n      jump\t// in\n    tag_43:\n      mload(0x40)\n      dup1\n      swap2\n      sub\n      swap1\n      revert\n    tag_42:\n        /* \"contracts/KajuswapLibrary.sol\":3164:3165  0 */\n      0x00\n        /* \"contracts/KajuswapLibrary.sol\":3152:3161  reserveIn */\n      dup4\n        /* \"contracts/KajuswapLibrary.sol\":3152:3165  reserveIn > 0 */\n      gt\n        /* \"contracts/KajuswapLibrary.sol\":3152:3183  reserveIn > 0 && reserveOut > 0 */\n      dup1\n      iszero\n      tag_45\n      jumpi\n      pop\n        /* \"contracts/KajuswapLibrary.sol\":3182:3183  0 */\n      0x00\n        /* \"contracts/KajuswapLibrary.sol\":3169:3179  reserveOut */\n      dup3\n        /* \"contracts/KajuswapLibrary.sol\":3169:3183  reserveOut > 0 */\n      gt\n        /* \"contracts/KajuswapLibrary.sol\":3152:3183  reserveIn > 0 && reserveOut > 0 */\n    tag_45:\n        /* \"contracts/KajuswapLibrary.sol\":3144:3227  require(reserveIn > 0 && reserveOut > 0, \"KajuswapLibrary: INSUFFICIENT_LIQUIDITY\") */\n      tag_46\n      jumpi\n      mload(0x40)\n      0x08c379a000000000000000000000000000000000000000000000000000000000\n      dup2\n      mstore\n      0x04\n      add\n      tag_47\n      swap1\n      tag_48\n      jump\t// in\n    tag_47:\n      mload(0x40)\n      dup1\n      swap2\n      sub\n      swap1\n      revert\n    tag_46:\n        /* \"contracts/KajuswapLibrary.sol\":3240:3263  uint256 amountInWithFee */\n      0x00\n        /* \"contracts/KajuswapLibrary.sol\":3277:3280  997 */\n      0x03e5\n        /* \"contracts/KajuswapLibrary.sol\":3266:3274  amountIn */\n      dup6\n        /* \"contracts/KajuswapLibrary.sol\":3266:3280  amountIn * 997 */\n      tag_49\n      swap2\n      swap1\n      tag_50\n      jump\t// in\n    tag_49:\n        /* \"contracts/KajuswapLibrary.sol\":3240:3280  uint256 amountInWithFee = amountIn * 997 */\n      swap1\n      pop\n        /* \"contracts/KajuswapLibrary.sol\":3291:3308  uint256 numerator */\n      0x00\n        /* \"contracts/KajuswapLibrary.sol\":3329:3339  reserveOut */\n      dup4\n        /* \"contracts/KajuswapLibrary.sol\":3311:3326  amountInWithFee */\n      dup3\n        /* \"contracts/KajuswapLibrary.sol\":3311:3339  amountInWithFee * reserveOut */\n      tag_51\n      swap2\n      swap1\n      tag_50\n      jump\t// in\n    tag_51:\n        /* \"contracts/KajuswapLibrary.sol\":3291:3339  uint256 numerator = amountInWithFee * reserveOut */\n      swap1\n      pop\n        /* \"contracts/KajuswapLibrary.sol\":3350:3369  uint256 denominator */\n      0x00\n        /* \"contracts/KajuswapLibrary.sol\":3393:3408  amountInWithFee */\n      dup3\n        /* \"contracts/KajuswapLibrary.sol\":3385:3389  1000 */\n      0x03e8\n        /* \"contracts/KajuswapLibrary.sol\":3373:3382  reserveIn */\n      dup8\n        /* \"contracts/KajuswapLibrary.sol\":3373:3389  reserveIn * 1000 */\n      tag_52\n      swap2\n      swap1\n      tag_50\n      jump\t// in\n    tag_52:\n        /* \"contracts/KajuswapLibrary.sol\":3372:3408  (reserveIn * 1000) + amountInWithFee */\n      tag_53\n      swap2\n      swap1\n      tag_54\n      jump\t// in\n    tag_53:\n        /* \"contracts/KajuswapLibrary.sol\":3350:3408  uint256 denominator = (reserveIn * 1000) + amountInWithFee */\n      swap1\n      pop\n        /* \"contracts/KajuswapLibrary.sol\":3440:3451  denominator */\n      dup1\n        /* \"contracts/KajuswapLibrary.sol\":3428:3437  numerator */\n      dup3\n        /* \"contracts/KajuswapLibrary.sol\":3428:3451  numerator / denominator */\n      tag_55\n      swap2\n      swap1\n      tag_56\n      jump\t// in\n    tag_55:\n        /* \"contracts/KajuswapLibrary.sol\":3421:3451  return numerator / denominator */\n      swap4\n      pop\n      pop\n      pop\n      pop\n        /* \"contracts/KajuswapLibrary.sol\":2732:3459  function getAmountOut(... */\n      swap4\n      swap3\n      pop\n      pop\n      pop\n      jump\t// out\n        /* \"contracts/KajuswapLibrary.sol\":4886:5628  function getAmountsIn(... */\n    tag_18:\n        /* \"contracts/KajuswapLibrary.sol\":5017:5033  uint256[] memory */\n      0x60\n        /* \"contracts/KajuswapLibrary.sol\":5137:5138  2 */\n      0x02\n        /* \"contracts/KajuswapLibrary.sol\":5122:5126  path */\n      dup3\n        /* \"contracts/KajuswapLibrary.sol\":5122:5133  path.length */\n      mload\n        /* \"contracts/KajuswapLibrary.sol\":5122:5138  path.length >= 2 */\n      lt\n      iszero\n        /* \"contracts/KajuswapLibrary.sol\":5114:5172  require(path.length >= 2, \"KajuswapLibrary: INVALID_PATH\") */\n      tag_58\n      jumpi\n      mload(0x40)\n      0x08c379a000000000000000000000000000000000000000000000000000000000\n      dup2\n      mstore\n      0x04\n      add\n      tag_59\n      swap1\n      tag_60\n      jump\t// in\n    tag_59:\n      mload(0x40)\n      dup1\n      swap2\n      sub\n      swap1\n      revert\n    tag_58:\n        /* \"contracts/KajuswapLibrary.sol\":5183:5207  uint256[] memory amounts */\n      0x00\n        /* \"contracts/KajuswapLibrary.sol\":5224:5228  path */\n      dup3\n        /* \"contracts/KajuswapLibrary.sol\":5224:5235  path.length */\n      mload\n        /* \"contracts/KajuswapLibrary.sol\":5210:5236  new uint256[](path.length) */\n      0xffffffffffffffff\n      dup2\n      gt\n      iszero\n      tag_61\n      jumpi\n      tag_62\n      tag_63\n      jump\t// in\n    tag_62:\n    tag_61:\n      mload(0x40)\n      swap1\n      dup1\n      dup3\n      mstore\n      dup1\n      0x20\n      mul\n      0x20\n      add\n      dup3\n      add\n      0x40\n      mstore\n      dup1\n      iszero\n      tag_64\n      jumpi\n      dup2\n      0x20\n      add\n      0x20\n      dup3\n      mul\n      dup1\n      calldatasize\n      dup4\n      calldatacopy\n      dup1\n      dup3\n      add\n      swap2\n      pop\n      pop\n      swap1\n      pop\n    tag_64:\n      pop\n        /* \"contracts/KajuswapLibrary.sol\":5183:5236  uint256[] memory amounts = new uint256[](path.length) */\n      swap1\n      pop\n        /* \"contracts/KajuswapLibrary.sol\":5277:5286  amountOut */\n      dup4\n        /* \"contracts/KajuswapLibrary.sol\":5247:5254  amounts */\n      dup2\n        /* \"contracts/KajuswapLibrary.sol\":5272:5273  1 */\n      0x01\n        /* \"contracts/KajuswapLibrary.sol\":5255:5262  amounts */\n      dup4\n        /* \"contracts/KajuswapLibrary.sol\":5255:5269  amounts.length */\n      mload\n        /* \"contracts/KajuswapLibrary.sol\":5255:5273  amounts.length - 1 */\n      tag_65\n      swap2\n      swap1\n      tag_66\n      jump\t// in\n    tag_65:\n        /* \"contracts/KajuswapLibrary.sol\":5247:5274  amounts[amounts.length - 1] */\n      dup2\n      mload\n      dup2\n      lt\n      tag_67\n      jumpi\n      tag_68\n      tag_69\n      jump\t// in\n    tag_68:\n    tag_67:\n      0x20\n      mul\n      0x20\n      add\n      add\n        /* \"contracts/KajuswapLibrary.sol\":5247:5286  amounts[amounts.length - 1] = amountOut */\n      dup2\n      dup2\n      mstore\n      pop\n      pop\n        /* \"contracts/KajuswapLibrary.sol\":5304:5313  uint256 i */\n      0x00\n        /* \"contracts/KajuswapLibrary.sol\":5330:5331  1 */\n      0x01\n        /* \"contracts/KajuswapLibrary.sol\":5316:5320  path */\n      dup5\n        /* \"contracts/KajuswapLibrary.sol\":5316:5327  path.length */\n      mload\n        /* \"contracts/KajuswapLibrary.sol\":5316:5331  path.length - 1 */\n      tag_73\n      swap2\n      swap1\n      tag_66\n      jump\t// in\n    tag_73:\n        /* \"contracts/KajuswapLibrary.sol\":5304:5331  uint256 i = path.length - 1 */\n      swap1\n      pop\n        /* \"contracts/KajuswapLibrary.sol\":5299:5594  for (uint256 i = path.length - 1; i > 0; i--) {... */\n    tag_70:\n        /* \"contracts/KajuswapLibrary.sol\":5337:5338  0 */\n      0x00\n        /* \"contracts/KajuswapLibrary.sol\":5333:5334  i */\n      dup2\n        /* \"contracts/KajuswapLibrary.sol\":5333:5338  i > 0 */\n      gt\n        /* \"contracts/KajuswapLibrary.sol\":5299:5594  for (uint256 i = path.length - 1; i > 0; i--) {... */\n      iszero\n      tag_71\n      jumpi\n        /* \"contracts/KajuswapLibrary.sol\":5361:5377  uint256 reserve0 */\n      0x00\n        /* \"contracts/KajuswapLibrary.sol\":5379:5395  uint256 reserve1 */\n      dup1\n        /* \"contracts/KajuswapLibrary.sol\":5399:5507  getReserves(... */\n      tag_74\n        /* \"contracts/KajuswapLibrary.sol\":5429:5436  factory */\n      dup9\n        /* \"contracts/KajuswapLibrary.sol\":5455:5459  path */\n      dup8\n        /* \"contracts/KajuswapLibrary.sol\":5464:5465  1 */\n      0x01\n        /* \"contracts/KajuswapLibrary.sol\":5460:5461  i */\n      dup7\n        /* \"contracts/KajuswapLibrary.sol\":5460:5465  i - 1 */\n      tag_75\n      swap2\n      swap1\n      tag_66\n      jump\t// in\n    tag_75:\n        /* \"contracts/KajuswapLibrary.sol\":5455:5466  path[i - 1] */\n      dup2\n      mload\n      dup2\n      lt\n      tag_76\n      jumpi\n      tag_77\n      tag_69\n      jump\t// in\n    tag_77:\n    tag_76:\n      0x20\n      mul\n      0x20\n      add\n      add\n      mload\n        /* \"contracts/KajuswapLibrary.sol\":5485:5489  path */\n      dup9\n        /* \"contracts/KajuswapLibrary.sol\":5490:5491  i */\n      dup7\n        /* \"contracts/KajuswapLibrary.sol\":5485:5492  path[i] */\n      dup2\n      mload\n      dup2\n      lt\n      tag_78\n      jumpi\n      tag_79\n      tag_69\n      jump\t// in\n    tag_79:\n    tag_78:\n      0x20\n      mul\n      0x20\n      add\n      add\n      mload\n        /* \"contracts/KajuswapLibrary.sol\":5399:5410  getReserves */\n      tag_25\n        /* \"contracts/KajuswapLibrary.sol\":5399:5507  getReserves(... */\n      jump\t// in\n    tag_74:\n        /* \"contracts/KajuswapLibrary.sol\":5360:5507  (uint256 reserve0, uint256 reserve1) = getReserves(... */\n      swap2\n      pop\n      swap2\n      pop\n        /* \"contracts/KajuswapLibrary.sol\":5539:5582  getAmountIn(amounts[i], reserve0, reserve1) */\n      tag_80\n        /* \"contracts/KajuswapLibrary.sol\":5551:5558  amounts */\n      dup5\n        /* \"contracts/KajuswapLibrary.sol\":5559:5560  i */\n      dup5\n        /* \"contracts/KajuswapLibrary.sol\":5551:5561  amounts[i] */\n      dup2\n      mload\n      dup2\n      lt\n      tag_81\n      jumpi\n      tag_82\n      tag_69\n      jump\t// in\n    tag_82:\n    tag_81:\n      0x20\n      mul\n      0x20\n      add\n      add\n      mload\n        /* \"contracts/KajuswapLibrary.sol\":5563:5571  reserve0 */\n      dup4\n        /* \"contracts/KajuswapLibrary.sol\":5573:5581  reserve1 */\n      dup4\n        /* \"contracts/KajuswapLibrary.sol\":5539:5550  getAmountIn */\n      tag_30\n        /* \"contracts/KajuswapLibrary.sol\":5539:5582  getAmountIn(amounts[i], reserve0, reserve1) */\n      jump\t// in\n    tag_80:\n        /* \"contracts/KajuswapLibrary.sol\":5522:5529  amounts */\n      dup5\n        /* \"contracts/KajuswapLibrary.sol\":5534:5535  1 */\n      0x01\n        /* \"contracts/KajuswapLibrary.sol\":5530:5531  i */\n      dup6\n        /* \"contracts/KajuswapLibrary.sol\":5530:5535  i - 1 */\n      tag_83\n      swap2\n      swap1\n      tag_66\n      jump\t// in\n    tag_83:\n        /* \"contracts/KajuswapLibrary.sol\":5522:5536  amounts[i - 1] */\n      dup2\n      mload\n      dup2\n      lt\n      tag_84\n      jumpi\n      tag_85\n      tag_69\n      jump\t// in\n    tag_85:\n    tag_84:\n      0x20\n      mul\n      0x20\n      add\n      add\n        /* \"contracts/KajuswapLibrary.sol\":5522:5582  amounts[i - 1] = getAmountIn(amounts[i], reserve0, reserve1) */\n      dup2\n      dup2\n      mstore\n      pop\n      pop\n        /* \"contracts/KajuswapLibrary.sol\":5345:5594  {... */\n      pop\n      pop\n        /* \"contracts/KajuswapLibrary.sol\":5340:5343  i-- */\n      dup1\n      dup1\n      tag_86\n      swap1\n      tag_87\n      jump\t// in\n    tag_86:\n      swap2\n      pop\n      pop\n        /* \"contracts/KajuswapLibrary.sol\":5299:5594  for (uint256 i = path.length - 1; i > 0; i--) {... */\n      jump(tag_70)\n    tag_71:\n      pop\n        /* \"contracts/KajuswapLibrary.sol\":5613:5620  amounts */\n      dup1\n        /* \"contracts/KajuswapLibrary.sol\":5606:5620  return amounts */\n      swap2\n      pop\n      pop\n        /* \"contracts/KajuswapLibrary.sol\":4886:5628  function getAmountsIn(... */\n      swap4\n      swap3\n      pop\n      pop\n      pop\n      jump\t// out\n        /* \"contracts/KajuswapLibrary.sol\":328:903  function getReserves(... */\n    tag_25:\n        /* \"contracts/KajuswapLibrary.sol\":455:471  uint256 reserveA */\n      0x00\n        /* \"contracts/KajuswapLibrary.sol\":473:489  uint256 reserveB */\n      dup1\n        /* \"contracts/KajuswapLibrary.sol\":503:517  address token0 */\n      0x00\n        /* \"contracts/KajuswapLibrary.sol\":519:533  address token1 */\n      dup1\n        /* \"contracts/KajuswapLibrary.sol\":537:563  sortTokens(tokenA, tokenB) */\n      tag_89\n        /* \"contracts/KajuswapLibrary.sol\":548:554  tokenA */\n      dup7\n        /* \"contracts/KajuswapLibrary.sol\":556:562  tokenB */\n      dup7\n        /* \"contracts/KajuswapLibrary.sol\":537:547  sortTokens */\n      tag_90\n        /* \"contracts/KajuswapLibrary.sol\":537:563  sortTokens(tokenA, tokenB) */\n      jump\t// in\n    tag_89:\n        /* \"contracts/KajuswapLibrary.sol\":502:563  (address token0, address token1) = sortTokens(tokenA, tokenB) */\n      swap2\n      pop\n      swap2\n      pop\n        /* \"contracts/KajuswapLibrary.sol\":641:657  uint256 reserve0 */\n      0x00\n        /* \"contracts/KajuswapLibrary.sol\":659:675  uint256 reserve1 */\n      dup1\n        /* \"contracts/KajuswapLibrary.sol\":709:748  pairFor(factoryAddress, token0, token1) */\n      tag_91\n        /* \"contracts/KajuswapLibrary.sol\":717:731  factoryAddress */\n      dup10\n        /* \"contracts/KajuswapLibrary.sol\":733:739  token0 */\n      dup6\n        /* \"contracts/KajuswapLibrary.sol\":741:747  token1 */\n      dup6\n        /* \"contracts/KajuswapLibrary.sol\":709:716  pairFor */\n      tag_92\n        /* \"contracts/KajuswapLibrary.sol\":709:748  pairFor(factoryAddress, token0, token1) */\n      jump\t// in\n    tag_91:\n        /* \"contracts/KajuswapLibrary.sol\":681:771  IKajuswapPair(... */\n      0xffffffffffffffffffffffffffffffffffffffff\n      and\n      0x0902f1ac\n        /* \"contracts/KajuswapLibrary.sol\":681:773  IKajuswapPair(... */\n      mload(0x40)\n      dup2\n      0xffffffff\n      and\n      0xe0\n      shl\n      dup2\n      mstore\n      0x04\n      add\n      0x60\n      mload(0x40)\n      dup1\n      dup4\n      sub\n      dup2\n      0x00\n      dup8\n      gas\n      call\n      iszero\n      dup1\n      iszero\n      tag_94\n      jumpi\n      returndatasize\n      0x00\n      dup1\n      returndatacopy\n      revert(0x00, returndatasize)\n    tag_94:\n      pop\n      pop\n      pop\n      pop\n      mload(0x40)\n      returndatasize\n      not(0x1f)\n      0x1f\n      dup3\n      add\n      and\n      dup3\n      add\n      dup1\n      0x40\n      mstore\n      pop\n      dup2\n      add\n      swap1\n      tag_95\n      swap2\n      swap1\n      tag_96\n      jump\t// in\n    tag_95:\n        /* \"contracts/KajuswapLibrary.sol\":640:773  (uint256 reserve0, uint256 reserve1, ) = IKajuswapPair(... */\n      pop\n      0xffffffffffffffffffffffffffff\n      and\n      swap2\n      pop\n      0xffffffffffffffffffffffffffff\n      and\n      swap2\n      pop\n        /* \"contracts/KajuswapLibrary.sol\":817:823  token0 */\n      dup4\n        /* \"contracts/KajuswapLibrary.sol\":807:823  tokenA == token0 */\n      0xffffffffffffffffffffffffffffffffffffffff\n      and\n        /* \"contracts/KajuswapLibrary.sol\":807:813  tokenA */\n      dup9\n        /* \"contracts/KajuswapLibrary.sol\":807:823  tokenA == token0 */\n      0xffffffffffffffffffffffffffffffffffffffff\n      and\n      eq\n        /* \"contracts/KajuswapLibrary.sol\":807:895  tokenA == token0... */\n      tag_97\n      jumpi\n        /* \"contracts/KajuswapLibrary.sol\":876:884  reserve1 */\n      dup1\n        /* \"contracts/KajuswapLibrary.sol\":886:894  reserve0 */\n      dup3\n        /* \"contracts/KajuswapLibrary.sol\":807:895  tokenA == token0... */\n      jump(tag_98)\n    tag_97:\n        /* \"contracts/KajuswapLibrary.sol\":840:848  reserve0 */\n      dup2\n        /* \"contracts/KajuswapLibrary.sol\":850:858  reserve1 */\n      dup2\n        /* \"contracts/KajuswapLibrary.sol\":807:895  tokenA == token0... */\n    tag_98:\n        /* \"contracts/KajuswapLibrary.sol\":784:895  (reserveA, reserveB) = tokenA == token0... */\n      dup1\n      swap7\n      pop\n      dup2\n      swap8\n      pop\n      pop\n      pop\n        /* \"contracts/KajuswapLibrary.sol\":491:903  {... */\n      pop\n      pop\n      pop\n      pop\n        /* \"contracts/KajuswapLibrary.sol\":328:903  function getReserves(... */\n      swap4\n      pop\n      swap4\n      swap2\n      pop\n      pop\n      jump\t// out\n        /* \"contracts/KajuswapLibrary.sol\":4200:4878  function getAmountIn(... */\n    tag_30:\n        /* \"contracts/KajuswapLibrary.sol\":4334:4341  uint256 */\n      0x00\n        /* \"contracts/KajuswapLibrary.sol\":4561:4562  0 */\n      dup1\n        /* \"contracts/KajuswapLibrary.sol\":4549:4558  amountOut */\n      dup5\n        /* \"contracts/KajuswapLibrary.sol\":4549:4562  amountOut > 0 */\n      gt\n        /* \"contracts/KajuswapLibrary.sol\":4541:4603  require(amountOut > 0, \"KajuswapLibrary: INSUFFICIENT_AMOUNT\") */\n      tag_100\n      jumpi\n      mload(0x40)\n      0x08c379a000000000000000000000000000000000000000000000000000000000\n      dup2\n      mstore\n      0x04\n      add\n      tag_101\n      swap1\n      tag_44\n      jump\t// in\n    tag_101:\n      mload(0x40)\n      dup1\n      swap2\n      sub\n      swap1\n      revert\n    tag_100:\n        /* \"contracts/KajuswapLibrary.sol\":4634:4635  0 */\n      0x00\n        /* \"contracts/KajuswapLibrary.sol\":4622:4631  reserveIn */\n      dup4\n        /* \"contracts/KajuswapLibrary.sol\":4622:4635  reserveIn > 0 */\n      gt\n        /* \"contracts/KajuswapLibrary.sol\":4622:4653  reserveIn > 0 && reserveOut > 0 */\n      dup1\n      iszero\n      tag_102\n      jumpi\n      pop\n        /* \"contracts/KajuswapLibrary.sol\":4652:4653  0 */\n      0x00\n        /* \"contracts/KajuswapLibrary.sol\":4639:4649  reserveOut */\n      dup3\n        /* \"contracts/KajuswapLibrary.sol\":4639:4653  reserveOut > 0 */\n      gt\n        /* \"contracts/KajuswapLibrary.sol\":4622:4653  reserveIn > 0 && reserveOut > 0 */\n    tag_102:\n        /* \"contracts/KajuswapLibrary.sol\":4614:4697  require(reserveIn > 0 && reserveOut > 0, \"KajuswapLibrary: INSUFFICIENT_LIQUIDITY\") */\n      tag_103\n      jumpi\n      mload(0x40)\n      0x08c379a000000000000000000000000000000000000000000000000000000000\n      dup2\n      mstore\n      0x04\n      add\n      tag_104\n      swap1\n      tag_48\n      jump\t// in\n    tag_104:\n      mload(0x40)\n      dup1\n      swap2\n      sub\n      swap1\n      revert\n    tag_103:\n        /* \"contracts/KajuswapLibrary.sol\":4710:4727  uint256 numerator */\n      0x00\n        /* \"contracts/KajuswapLibrary.sol\":4754:4758  1000 */\n      0x03e8\n        /* \"contracts/KajuswapLibrary.sol\":4742:4751  amountOut */\n      dup6\n        /* \"contracts/KajuswapLibrary.sol\":4730:4739  reserveIn */\n      dup6\n        /* \"contracts/KajuswapLibrary.sol\":4730:4751  reserveIn * amountOut */\n      tag_105\n      swap2\n      swap1\n      tag_50\n      jump\t// in\n    tag_105:\n        /* \"contracts/KajuswapLibrary.sol\":4730:4758  reserveIn * amountOut * 1000 */\n      tag_106\n      swap2\n      swap1\n      tag_50\n      jump\t// in\n    tag_106:\n        /* \"contracts/KajuswapLibrary.sol\":4710:4758  uint256 numerator = reserveIn * amountOut * 1000 */\n      swap1\n      pop\n        /* \"contracts/KajuswapLibrary.sol\":4769:4788  uint256 denominator */\n      0x00\n        /* \"contracts/KajuswapLibrary.sol\":4818:4821  997 */\n      0x03e5\n        /* \"contracts/KajuswapLibrary.sol\":4805:4814  amountOut */\n      dup7\n        /* \"contracts/KajuswapLibrary.sol\":4792:4802  reserveOut */\n      dup6\n        /* \"contracts/KajuswapLibrary.sol\":4792:4814  reserveOut - amountOut */\n      tag_107\n      swap2\n      swap1\n      tag_66\n      jump\t// in\n    tag_107:\n        /* \"contracts/KajuswapLibrary.sol\":4791:4821  (reserveOut - amountOut) * 997 */\n      tag_108\n      swap2\n      swap1\n      tag_50\n      jump\t// in\n    tag_108:\n        /* \"contracts/KajuswapLibrary.sol\":4769:4821  uint256 denominator = (reserveOut - amountOut) * 997 */\n      swap1\n      pop\n        /* \"contracts/KajuswapLibrary.sol\":4869:4870  1 */\n      0x01\n        /* \"contracts/KajuswapLibrary.sol\":4854:4865  denominator */\n      dup2\n        /* \"contracts/KajuswapLibrary.sol\":4842:4851  numerator */\n      dup4\n        /* \"contracts/KajuswapLibrary.sol\":4842:4865  numerator / denominator */\n      tag_109\n      swap2\n      swap1\n      tag_56\n      jump\t// in\n    tag_109:\n        /* \"contracts/KajuswapLibrary.sol\":4841:4870  (numerator / denominator) + 1 */\n      tag_110\n      swap2\n      swap1\n      tag_54\n      jump\t// in\n    tag_110:\n        /* \"contracts/KajuswapLibrary.sol\":4834:4870  return (numerator / denominator) + 1 */\n      swap3\n      pop\n      pop\n      pop\n        /* \"contracts/KajuswapLibrary.sol\":4200:4878  function getAmountIn(... */\n      swap4\n      swap3\n      pop\n      pop\n      pop\n      jump\t// out\n        /* \"contracts/KajuswapLibrary.sol\":911:1472  function quote(... */\n    tag_34:\n        /* \"contracts/KajuswapLibrary.sol\":1038:1055  uint256 amountOut */\n      0x00\n        /* \"contracts/KajuswapLibrary.sol\":1273:1274  0 */\n      dup1\n        /* \"contracts/KajuswapLibrary.sol\":1262:1270  amountIn */\n      dup5\n        /* \"contracts/KajuswapLibrary.sol\":1262:1274  amountIn > 0 */\n      gt\n        /* \"contracts/KajuswapLibrary.sol\":1254:1315  require(amountIn > 0, \"KajuswapLibrary: INSUFFICIENT_AMOUNT\") */\n      tag_112\n      jumpi\n      mload(0x40)\n      0x08c379a000000000000000000000000000000000000000000000000000000000\n      dup2\n      mstore\n      0x04\n      add\n      tag_113\n      swap1\n      tag_44\n      jump\t// in\n    tag_113:\n      mload(0x40)\n      dup1\n      swap2\n      sub\n      swap1\n      revert\n    tag_112:\n        /* \"contracts/KajuswapLibrary.sol\":1346:1347  0 */\n      0x00\n        /* \"contracts/KajuswapLibrary.sol\":1334:1343  reserveIn */\n      dup4\n        /* \"contracts/KajuswapLibrary.sol\":1334:1347  reserveIn > 0 */\n      gt\n        /* \"contracts/KajuswapLibrary.sol\":1334:1365  reserveIn > 0 && reserveOut > 0 */\n      dup1\n      iszero\n      tag_114\n      jumpi\n      pop\n        /* \"contracts/KajuswapLibrary.sol\":1364:1365  0 */\n      0x00\n        /* \"contracts/KajuswapLibrary.sol\":1351:1361  reserveOut */\n      dup3\n        /* \"contracts/KajuswapLibrary.sol\":1351:1365  reserveOut > 0 */\n      gt\n        /* \"contracts/KajuswapLibrary.sol\":1334:1365  reserveIn > 0 && reserveOut > 0 */\n    tag_114:\n        /* \"contracts/KajuswapLibrary.sol\":1326:1409  require(reserveIn > 0 && reserveOut > 0, \"KajuswapLibrary: INSUFFICIENT_LIQUIDITY\") */\n      tag_115\n      jumpi\n      mload(0x40)\n      0x08c379a000000000000000000000000000000000000000000000000000000000\n      dup2\n      mstore\n      0x04\n      add\n      tag_116\n      swap1\n      tag_48\n      jump\t// in\n    tag_116:\n      mload(0x40)\n      dup1\n      swap2\n      sub\n      swap1\n      revert\n    tag_115:\n        /* \"contracts/KajuswapLibrary.sol\":1455:1464  reserveIn */\n      dup3\n        /* \"contracts/KajuswapLibrary.sol\":1441:1451  reserveOut */\n      dup3\n        /* \"contracts/KajuswapLibrary.sol\":1430:1438  amountIn */\n      dup6\n        /* \"contracts/KajuswapLibrary.sol\":1430:1451  amountIn * reserveOut */\n      tag_117\n      swap2\n      swap1\n      tag_50\n      jump\t// in\n    tag_117:\n        /* \"contracts/KajuswapLibrary.sol\":1429:1464  (amountIn * reserveOut) / reserveIn */\n      tag_118\n      swap2\n      swap1\n      tag_56\n      jump\t// in\n    tag_118:\n        /* \"contracts/KajuswapLibrary.sol\":1422:1464  return (amountIn * reserveOut) / reserveIn */\n      swap1\n      pop\n        /* \"contracts/KajuswapLibrary.sol\":911:1472  function quote(... */\n      swap4\n      swap3\n      pop\n      pop\n      pop\n      jump\t// out\n        /* \"contracts/KajuswapLibrary.sol\":3467:4192  function getAmountsOut(... */\n    tag_39:\n        /* \"contracts/KajuswapLibrary.sol\":3598:3614  uint256[] memory */\n      0x60\n        /* \"contracts/KajuswapLibrary.sol\":3718:3719  2 */\n      0x02\n        /* \"contracts/KajuswapLibrary.sol\":3703:3707  path */\n      dup3\n        /* \"contracts/KajuswapLibrary.sol\":3703:3714  path.length */\n      mload\n        /* \"contracts/KajuswapLibrary.sol\":3703:3719  path.length >= 2 */\n      lt\n      iszero\n        /* \"contracts/KajuswapLibrary.sol\":3695:3753  require(path.length >= 2, \"KajuswapLibrary: INVALID_PATH\") */\n      tag_120\n      jumpi\n      mload(0x40)\n      0x08c379a000000000000000000000000000000000000000000000000000000000\n      dup2\n      mstore\n      0x04\n      add\n      tag_121\n      swap1\n      tag_60\n      jump\t// in\n    tag_121:\n      mload(0x40)\n      dup1\n      swap2\n      sub\n      swap1\n      revert\n    tag_120:\n        /* \"contracts/KajuswapLibrary.sol\":3764:3788  uint256[] memory amounts */\n      0x00\n        /* \"contracts/KajuswapLibrary.sol\":3805:3809  path */\n      dup3\n        /* \"contracts/KajuswapLibrary.sol\":3805:3816  path.length */\n      mload\n        /* \"contracts/KajuswapLibrary.sol\":3791:3817  new uint256[](path.length) */\n      0xffffffffffffffff\n      dup2\n      gt\n      iszero\n      tag_122\n      jumpi\n      tag_123\n      tag_63\n      jump\t// in\n    tag_123:\n    tag_122:\n      mload(0x40)\n      swap1\n      dup1\n      dup3\n      mstore\n      dup1\n      0x20\n      mul\n      0x20\n      add\n      dup3\n      add\n      0x40\n      mstore\n      dup1\n      iszero\n      tag_124\n      jumpi\n      dup2\n      0x20\n      add\n      0x20\n      dup3\n      mul\n      dup1\n      calldatasize\n      dup4\n      calldatacopy\n      dup1\n      dup3\n      add\n      swap2\n      pop\n      pop\n      swap1\n      pop\n    tag_124:\n      pop\n        /* \"contracts/KajuswapLibrary.sol\":3764:3817  uint256[] memory amounts = new uint256[](path.length) */\n      swap1\n      pop\n        /* \"contracts/KajuswapLibrary.sol\":3841:3849  amountIn */\n      dup4\n        /* \"contracts/KajuswapLibrary.sol\":3828:3835  amounts */\n      dup2\n        /* \"contracts/KajuswapLibrary.sol\":3836:3837  0 */\n      0x00\n        /* \"contracts/KajuswapLibrary.sol\":3828:3838  amounts[0] */\n      dup2\n      mload\n      dup2\n      lt\n      tag_125\n      jumpi\n      tag_126\n      tag_69\n      jump\t// in\n    tag_126:\n    tag_125:\n      0x20\n      mul\n      0x20\n      add\n      add\n        /* \"contracts/KajuswapLibrary.sol\":3828:3849  amounts[0] = amountIn */\n      dup2\n      dup2\n      mstore\n      pop\n      pop\n        /* \"contracts/KajuswapLibrary.sol\":3867:3876  uint256 i */\n      0x00\n        /* \"contracts/KajuswapLibrary.sol\":3862:4158  for (uint256 i = 0; i < path.length - 1; i++) {... */\n    tag_127:\n        /* \"contracts/KajuswapLibrary.sol\":3900:3901  1 */\n      0x01\n        /* \"contracts/KajuswapLibrary.sol\":3886:3890  path */\n      dup5\n        /* \"contracts/KajuswapLibrary.sol\":3886:3897  path.length */\n      mload\n        /* \"contracts/KajuswapLibrary.sol\":3886:3901  path.length - 1 */\n      tag_130\n      swap2\n      swap1\n      tag_66\n      jump\t// in\n    tag_130:\n        /* \"contracts/KajuswapLibrary.sol\":3882:3883  i */\n      dup2\n        /* \"contracts/KajuswapLibrary.sol\":3882:3901  i < path.length - 1 */\n      lt\n        /* \"contracts/KajuswapLibrary.sol\":3862:4158  for (uint256 i = 0; i < path.length - 1; i++) {... */\n      iszero\n      tag_128\n      jumpi\n        /* \"contracts/KajuswapLibrary.sol\":3924:3940  uint256 reserve0 */\n      0x00\n        /* \"contracts/KajuswapLibrary.sol\":3942:3958  uint256 reserve1 */\n      dup1\n        /* \"contracts/KajuswapLibrary.sol\":3962:4070  getReserves(... */\n      tag_131\n        /* \"contracts/KajuswapLibrary.sol\":3992:3999  factory */\n      dup9\n        /* \"contracts/KajuswapLibrary.sol\":4018:4022  path */\n      dup8\n        /* \"contracts/KajuswapLibrary.sol\":4023:4024  i */\n      dup6\n        /* \"contracts/KajuswapLibrary.sol\":4018:4025  path[i] */\n      dup2\n      mload\n      dup2\n      lt\n      tag_132\n      jumpi\n      tag_133\n      tag_69\n      jump\t// in\n    tag_133:\n    tag_132:\n      0x20\n      mul\n      0x20\n      add\n      add\n      mload\n        /* \"contracts/KajuswapLibrary.sol\":4044:4048  path */\n      dup9\n        /* \"contracts/KajuswapLibrary.sol\":4053:4054  1 */\n      0x01\n        /* \"contracts/KajuswapLibrary.sol\":4049:4050  i */\n      dup8\n        /* \"contracts/KajuswapLibrary.sol\":4049:4054  i + 1 */\n      tag_134\n      swap2\n      swap1\n      tag_54\n      jump\t// in\n    tag_134:\n        /* \"contracts/KajuswapLibrary.sol\":4044:4055  path[i + 1] */\n      dup2\n      mload\n      dup2\n      lt\n      tag_135\n      jumpi\n      tag_136\n      tag_69\n      jump\t// in\n    tag_136:\n    tag_135:\n      0x20\n      mul\n      0x20\n      add\n      add\n      mload\n        /* \"contracts/KajuswapLibrary.sol\":3962:3973  getReserves */\n      tag_25\n        /* \"contracts/KajuswapLibrary.sol\":3962:4070  getReserves(... */\n      jump\t// in\n    tag_131:\n        /* \"contracts/KajuswapLibrary.sol\":3923:4070  (uint256 reserve0, uint256 reserve1) = getReserves(... */\n      swap2\n      pop\n      swap2\n      pop\n        /* \"contracts/KajuswapLibrary.sol\":4102:4146  getAmountOut(amounts[i], reserve0, reserve1) */\n      tag_137\n        /* \"contracts/KajuswapLibrary.sol\":4115:4122  amounts */\n      dup5\n        /* \"contracts/KajuswapLibrary.sol\":4123:4124  i */\n      dup5\n        /* \"contracts/KajuswapLibrary.sol\":4115:4125  amounts[i] */\n      dup2\n      mload\n      dup2\n      lt\n      tag_138\n      jumpi\n      tag_139\n      tag_69\n      jump\t// in\n    tag_139:\n    tag_138:\n      0x20\n      mul\n      0x20\n      add\n      add\n      mload\n        /* \"contracts/KajuswapLibrary.sol\":4127:4135  reserve0 */\n      dup4\n        /* \"contracts/KajuswapLibrary.sol\":4137:4145  reserve1 */\n      dup4\n        /* \"contracts/KajuswapLibrary.sol\":4102:4114  getAmountOut */\n      tag_11\n        /* \"contracts/KajuswapLibrary.sol\":4102:4146  getAmountOut(amounts[i], reserve0, reserve1) */\n      jump\t// in\n    tag_137:\n        /* \"contracts/KajuswapLibrary.sol\":4085:4092  amounts */\n      dup5\n        /* \"contracts/KajuswapLibrary.sol\":4097:4098  1 */\n      0x01\n        /* \"contracts/KajuswapLibrary.sol\":4093:4094  i */\n      dup6\n        /* \"contracts/KajuswapLibrary.sol\":4093:4098  i + 1 */\n      tag_140\n      swap2\n      swap1\n      tag_54\n      jump\t// in\n    tag_140:\n        /* \"contracts/KajuswapLibrary.sol\":4085:4099  amounts[i + 1] */\n      dup2\n      mload\n      dup2\n      lt\n      tag_141\n      jumpi\n      tag_142\n      tag_69\n      jump\t// in\n    tag_142:\n    tag_141:\n      0x20\n      mul\n      0x20\n      add\n      add\n        /* \"contracts/KajuswapLibrary.sol\":4085:4146  amounts[i + 1] = getAmountOut(amounts[i], reserve0, reserve1) */\n      dup2\n      dup2\n      mstore\n      pop\n      pop\n        /* \"contracts/KajuswapLibrary.sol\":3908:4158  {... */\n      pop\n      pop\n        /* \"contracts/KajuswapLibrary.sol\":3903:3906  i++ */\n      dup1\n      dup1\n      tag_143\n      swap1\n      tag_144\n      jump\t// in\n    tag_143:\n      swap2\n      pop\n      pop\n        /* \"contracts/KajuswapLibrary.sol\":3862:4158  for (uint256 i = 0; i < path.length - 1; i++) {... */\n      jump(tag_127)\n    tag_128:\n      pop\n        /* \"contracts/KajuswapLibrary.sol\":4177:4184  amounts */\n      dup1\n        /* \"contracts/KajuswapLibrary.sol\":4170:4184  return amounts */\n      swap2\n      pop\n      pop\n        /* \"contracts/KajuswapLibrary.sol\":3467:4192  function getAmountsOut(... */\n      swap4\n      swap3\n      pop\n      pop\n      pop\n      jump\t// out\n        /* \"contracts/KajuswapLibrary.sol\":2506:2724  function sortTokens(address tokenA, address tokenB)... */\n    tag_90:\n        /* \"contracts/KajuswapLibrary.sol\":2608:2622  address token0 */\n      0x00\n        /* \"contracts/KajuswapLibrary.sol\":2624:2638  address token1 */\n      dup1\n        /* \"contracts/KajuswapLibrary.sol\":2672:2678  tokenB */\n      dup3\n        /* \"contracts/KajuswapLibrary.sol\":2663:2678  tokenA < tokenB */\n      0xffffffffffffffffffffffffffffffffffffffff\n      and\n        /* \"contracts/KajuswapLibrary.sol\":2663:2669  tokenA */\n      dup5\n        /* \"contracts/KajuswapLibrary.sol\":2663:2678  tokenA < tokenB */\n      0xffffffffffffffffffffffffffffffffffffffff\n      and\n      lt\n        /* \"contracts/KajuswapLibrary.sol\":2663:2716  tokenA < tokenB ? (tokenA, tokenB) : (tokenB, tokenA) */\n      tag_146\n      jumpi\n        /* \"contracts/KajuswapLibrary.sol\":2701:2707  tokenB */\n      dup3\n        /* \"contracts/KajuswapLibrary.sol\":2709:2715  tokenA */\n      dup5\n        /* \"contracts/KajuswapLibrary.sol\":2663:2716  tokenA < tokenB ? (tokenA, tokenB) : (tokenB, tokenA) */\n      jump(tag_147)\n    tag_146:\n        /* \"contracts/KajuswapLibrary.sol\":2682:2688  tokenA */\n      dup4\n        /* \"contracts/KajuswapLibrary.sol\":2690:2696  tokenB */\n      dup4\n        /* \"contracts/KajuswapLibrary.sol\":2663:2716  tokenA < tokenB ? (tokenA, tokenB) : (tokenB, tokenA) */\n    tag_147:\n        /* \"contracts/KajuswapLibrary.sol\":2656:2716  return tokenA < tokenB ? (tokenA, tokenB) : (tokenB, tokenA) */\n      swap2\n      pop\n      swap2\n      pop\n        /* \"contracts/KajuswapLibrary.sol\":2506:2724  function sortTokens(address tokenA, address tokenB)... */\n      swap3\n      pop\n      swap3\n      swap1\n      pop\n      jump\t// out\n        /* \"contracts/KajuswapLibrary.sol\":1545:2498  function pairFor(... */\n    tag_92:\n        /* \"contracts/KajuswapLibrary.sol\":1675:1694  address pairAddress */\n      0x00\n        /* \"contracts/KajuswapLibrary.sol\":1708:1722  address token0 */\n      dup1\n        /* \"contracts/KajuswapLibrary.sol\":1724:1738  address token1 */\n      0x00\n        /* \"contracts/KajuswapLibrary.sol\":1742:1768  sortTokens(tokenA, tokenB) */\n      tag_149\n        /* \"contracts/KajuswapLibrary.sol\":1753:1759  tokenA */\n      dup6\n        /* \"contracts/KajuswapLibrary.sol\":1761:1767  tokenB */\n      dup6\n        /* \"contracts/KajuswapLibrary.sol\":1742:1752  sortTokens */\n      tag_90\n        /* \"contracts/KajuswapLibrary.sol\":1742:1768  sortTokens(tokenA, tokenB) */\n      jump\t// in\n    tag_149:\n        /* \"contracts/KajuswapLibrary.sol\":1707:1768  (address token0, address token1) = sortTokens(tokenA, tokenB) */\n      swap2\n      pop\n      swap2\n      pop\n        /* \"contracts/KajuswapLibrary.sol\":2165:2179  factoryAddress */\n      dup6\n        /* \"contracts/KajuswapLibrary.sol\":2237:2243  token0 */\n      dup3\n        /* \"contracts/KajuswapLibrary.sol\":2245:2251  token1 */\n      dup3\n        /* \"contracts/KajuswapLibrary.sol\":2220:2252  abi.encodePacked(token0, token1) */\n      add(0x20, mload(0x40))\n      tag_150\n      swap3\n      swap2\n      swap1\n      tag_151\n      jump\t// in\n    tag_150:\n      mload(0x40)\n      0x20\n      dup2\n      dup4\n      sub\n      sub\n      dup2\n      mstore\n      swap1\n      0x40\n      mstore\n        /* \"contracts/KajuswapLibrary.sol\":2210:2253  keccak256(abi.encodePacked(token0, token1)) */\n      dup1\n      mload\n      swap1\n      0x20\n      add\n      keccak256\n        /* \"contracts/KajuswapLibrary.sol\":2080:2422  abi.encodePacked(... */\n      add(0x20, mload(0x40))\n      tag_152\n      swap3\n      swap2\n      swap1\n      tag_153\n      jump\t// in\n    tag_152:\n      mload(0x40)\n      0x20\n      dup2\n      dup4\n      sub\n      sub\n      dup2\n      mstore\n      swap1\n      0x40\n      mstore\n        /* \"contracts/KajuswapLibrary.sol\":2044:2445  keccak256(... */\n      dup1\n      mload\n      swap1\n      0x20\n      add\n      keccak256\n        /* \"contracts/KajuswapLibrary.sol\":2014:2464  uint256(... */\n      0x00\n      shr\n        /* \"contracts/KajuswapLibrary.sol\":1952:2490  pairAddress = address(... */\n      swap3\n      pop\n        /* \"contracts/KajuswapLibrary.sol\":1696:2498  {... */\n      pop\n      pop\n        /* \"contracts/KajuswapLibrary.sol\":1545:2498  function pairFor(... */\n      swap4\n      swap3\n      pop\n      pop\n      pop\n      jump\t// out\n        /* \"#utility.yul\":7:82   */\n    tag_154:\n        /* \"#utility.yul\":40:46   */\n      0x00\n        /* \"#utility.yul\":73:75   */\n      0x40\n        /* \"#utility.yul\":67:76   */\n      mload\n        /* \"#utility.yul\":57:76   */\n      swap1\n      pop\n        /* \"#utility.yul\":7:82   */\n      swap1\n      jump\t// out\n        /* \"#utility.yul\":88:205   */\n    tag_155:\n        /* \"#utility.yul\":197:198   */\n      0x00\n        /* \"#utility.yul\":194:195   */\n      dup1\n        /* \"#utility.yul\":187:199   */\n      revert\n        /* \"#utility.yul\":211:328   */\n    tag_156:\n        /* \"#utility.yul\":320:321   */\n      0x00\n        /* \"#utility.yul\":317:318   */\n      dup1\n        /* \"#utility.yul\":310:322   */\n      revert\n        /* \"#utility.yul\":334:411   */\n    tag_157:\n        /* \"#utility.yul\":371:378   */\n      0x00\n        /* \"#utility.yul\":400:405   */\n      dup2\n        /* \"#utility.yul\":389:405   */\n      swap1\n      pop\n        /* \"#utility.yul\":334:411   */\n      swap2\n      swap1\n      pop\n      jump\t// out\n        /* \"#utility.yul\":417:539   */\n    tag_158:\n        /* \"#utility.yul\":490:514   */\n      tag_213\n        /* \"#utility.yul\":508:513   */\n      dup2\n        /* \"#utility.yul\":490:514   */\n      tag_157\n      jump\t// in\n    tag_213:\n        /* \"#utility.yul\":483:488   */\n      dup2\n        /* \"#utility.yul\":480:515   */\n      eq\n        /* \"#utility.yul\":470:533   */\n      tag_214\n      jumpi\n        /* \"#utility.yul\":529:530   */\n      0x00\n        /* \"#utility.yul\":526:527   */\n      dup1\n        /* \"#utility.yul\":519:531   */\n      revert\n        /* \"#utility.yul\":470:533   */\n    tag_214:\n        /* \"#utility.yul\":417:539   */\n      pop\n      jump\t// out\n        /* \"#utility.yul\":545:684   */\n    tag_159:\n        /* \"#utility.yul\":591:596   */\n      0x00\n        /* \"#utility.yul\":629:635   */\n      dup2\n        /* \"#utility.yul\":616:636   */\n      calldataload\n        /* \"#utility.yul\":607:636   */\n      swap1\n      pop\n        /* \"#utility.yul\":645:678   */\n      tag_216\n        /* \"#utility.yul\":672:677   */\n      dup2\n        /* \"#utility.yul\":645:678   */\n      tag_158\n      jump\t// in\n    tag_216:\n        /* \"#utility.yul\":545:684   */\n      swap3\n      swap2\n      pop\n      pop\n      jump\t// out\n        /* \"#utility.yul\":690:1309   */\n    tag_10:\n        /* \"#utility.yul\":767:773   */\n      0x00\n        /* \"#utility.yul\":775:781   */\n      dup1\n        /* \"#utility.yul\":783:789   */\n      0x00\n        /* \"#utility.yul\":832:834   */\n      0x60\n        /* \"#utility.yul\":820:829   */\n      dup5\n        /* \"#utility.yul\":811:818   */\n      dup7\n        /* \"#utility.yul\":807:830   */\n      sub\n        /* \"#utility.yul\":803:835   */\n      slt\n        /* \"#utility.yul\":800:919   */\n      iszero\n      tag_218\n      jumpi\n        /* \"#utility.yul\":838:917   */\n      tag_219\n      tag_155\n      jump\t// in\n    tag_219:\n        /* \"#utility.yul\":800:919   */\n    tag_218:\n        /* \"#utility.yul\":958:959   */\n      0x00\n        /* \"#utility.yul\":983:1036   */\n      tag_220\n        /* \"#utility.yul\":1028:1035   */\n      dup7\n        /* \"#utility.yul\":1019:1025   */\n      dup3\n        /* \"#utility.yul\":1008:1017   */\n      dup8\n        /* \"#utility.yul\":1004:1026   */\n      add\n        /* \"#utility.yul\":983:1036   */\n      tag_159\n      jump\t// in\n    tag_220:\n        /* \"#utility.yul\":973:1036   */\n      swap4\n      pop\n        /* \"#utility.yul\":929:1046   */\n      pop\n        /* \"#utility.yul\":1085:1087   */\n      0x20\n        /* \"#utility.yul\":1111:1164   */\n      tag_221\n        /* \"#utility.yul\":1156:1163   */\n      dup7\n        /* \"#utility.yul\":1147:1153   */\n      dup3\n        /* \"#utility.yul\":1136:1145   */\n      dup8\n        /* \"#utility.yul\":1132:1154   */\n      add\n        /* \"#utility.yul\":1111:1164   */\n      tag_159\n      jump\t// in\n    tag_221:\n        /* \"#utility.yul\":1101:1164   */\n      swap3\n      pop\n        /* \"#utility.yul\":1056:1174   */\n      pop\n        /* \"#utility.yul\":1213:1215   */\n      0x40\n        /* \"#utility.yul\":1239:1292   */\n      tag_222\n        /* \"#utility.yul\":1284:1291   */\n      dup7\n        /* \"#utility.yul\":1275:1281   */\n      dup3\n        /* \"#utility.yul\":1264:1273   */\n      dup8\n        /* \"#utility.yul\":1260:1282   */\n      add\n        /* \"#utility.yul\":1239:1292   */\n      tag_159\n      jump\t// in\n    tag_222:\n        /* \"#utility.yul\":1229:1292   */\n      swap2\n      pop\n        /* \"#utility.yul\":1184:1302   */\n      pop\n        /* \"#utility.yul\":690:1309   */\n      swap3\n      pop\n      swap3\n      pop\n      swap3\n      jump\t// out\n        /* \"#utility.yul\":1315:1441   */\n    tag_160:\n        /* \"#utility.yul\":1410:1434   */\n      tag_224\n        /* \"#utility.yul\":1428:1433   */\n      dup2\n        /* \"#utility.yul\":1410:1434   */\n      tag_157\n      jump\t// in\n    tag_224:\n        /* \"#utility.yul\":1405:1408   */\n      dup3\n        /* \"#utility.yul\":1398:1435   */\n      mstore\n        /* \"#utility.yul\":1315:1441   */\n      pop\n      pop\n      jump\t// out\n        /* \"#utility.yul\":1447:1685   */\n    tag_13:\n        /* \"#utility.yul\":1548:1552   */\n      0x00\n        /* \"#utility.yul\":1586:1588   */\n      0x20\n        /* \"#utility.yul\":1575:1584   */\n      dup3\n        /* \"#utility.yul\":1571:1589   */\n      add\n        /* \"#utility.yul\":1563:1589   */\n      swap1\n      pop\n        /* \"#utility.yul\":1599:1678   */\n      tag_226\n        /* \"#utility.yul\":1675:1676   */\n      0x00\n        /* \"#utility.yul\":1664:1673   */\n      dup4\n        /* \"#utility.yul\":1660:1677   */\n      add\n        /* \"#utility.yul\":1651:1657   */\n      dup5\n        /* \"#utility.yul\":1599:1678   */\n      tag_160\n      jump\t// in\n    tag_226:\n        /* \"#utility.yul\":1447:1685   */\n      swap3\n      swap2\n      pop\n      pop\n      jump\t// out\n        /* \"#utility.yul\":1691:1817   */\n    tag_161:\n        /* \"#utility.yul\":1728:1735   */\n      0x00\n        /* \"#utility.yul\":1768:1810   */\n      0xffffffffffffffffffffffffffffffffffffffff\n        /* \"#utility.yul\":1761:1766   */\n      dup3\n        /* \"#utility.yul\":1757:1811   */\n      and\n        /* \"#utility.yul\":1746:1811   */\n      swap1\n      pop\n        /* \"#utility.yul\":1691:1817   */\n      swap2\n      swap1\n      pop\n      jump\t// out\n        /* \"#utility.yul\":1823:1919   */\n    tag_162:\n        /* \"#utility.yul\":1860:1867   */\n      0x00\n        /* \"#utility.yul\":1889:1913   */\n      tag_229\n        /* \"#utility.yul\":1907:1912   */\n      dup3\n        /* \"#utility.yul\":1889:1913   */\n      tag_161\n      jump\t// in\n    tag_229:\n        /* \"#utility.yul\":1878:1913   */\n      swap1\n      pop\n        /* \"#utility.yul\":1823:1919   */\n      swap2\n      swap1\n      pop\n      jump\t// out\n        /* \"#utility.yul\":1925:2047   */\n    tag_163:\n        /* \"#utility.yul\":1998:2022   */\n      tag_231\n        /* \"#utility.yul\":2016:2021   */\n      dup2\n        /* \"#utility.yul\":1998:2022   */\n      tag_162\n      jump\t// in\n    tag_231:\n        /* \"#utility.yul\":1991:1996   */\n      dup2\n        /* \"#utility.yul\":1988:2023   */\n      eq\n        /* \"#utility.yul\":1978:2041   */\n      tag_232\n      jumpi\n        /* \"#utility.yul\":2037:2038   */\n      0x00\n        /* \"#utility.yul\":2034:2035   */\n      dup1\n        /* \"#utility.yul\":2027:2039   */\n      revert\n        /* \"#utility.yul\":1978:2041   */\n    tag_232:\n        /* \"#utility.yul\":1925:2047   */\n      pop\n      jump\t// out\n        /* \"#utility.yul\":2053:2192   */\n    tag_164:\n        /* \"#utility.yul\":2099:2104   */\n      0x00\n        /* \"#utility.yul\":2137:2143   */\n      dup2\n        /* \"#utility.yul\":2124:2144   */\n      calldataload\n        /* \"#utility.yul\":2115:2144   */\n      swap1\n      pop\n        /* \"#utility.yul\":2153:2186   */\n      tag_234\n        /* \"#utility.yul\":2180:2185   */\n      dup2\n        /* \"#utility.yul\":2153:2186   */\n      tag_163\n      jump\t// in\n    tag_234:\n        /* \"#utility.yul\":2053:2192   */\n      swap3\n      swap2\n      pop\n      pop\n      jump\t// out\n        /* \"#utility.yul\":2198:2315   */\n    tag_165:\n        /* \"#utility.yul\":2307:2308   */\n      0x00\n        /* \"#utility.yul\":2304:2305   */\n      dup1\n        /* \"#utility.yul\":2297:2309   */\n      revert\n        /* \"#utility.yul\":2321:2423   */\n    tag_166:\n        /* \"#utility.yul\":2362:2368   */\n      0x00\n        /* \"#utility.yul\":2413:2415   */\n      0x1f\n        /* \"#utility.yul\":2409:2416   */\n      not\n        /* \"#utility.yul\":2404:2406   */\n      0x1f\n        /* \"#utility.yul\":2397:2402   */\n      dup4\n        /* \"#utility.yul\":2393:2407   */\n      add\n        /* \"#utility.yul\":2389:2417   */\n      and\n        /* \"#utility.yul\":2379:2417   */\n      swap1\n      pop\n        /* \"#utility.yul\":2321:2423   */\n      swap2\n      swap1\n      pop\n      jump\t// out\n        /* \"#utility.yul\":2429:2609   */\n    tag_63:\n        /* \"#utility.yul\":2477:2554   */\n      0x4e487b7100000000000000000000000000000000000000000000000000000000\n        /* \"#utility.yul\":2474:2475   */\n      0x00\n        /* \"#utility.yul\":2467:2555   */\n      mstore\n        /* \"#utility.yul\":2574:2578   */\n      0x41\n        /* \"#utility.yul\":2571:2572   */\n      0x04\n        /* \"#utility.yul\":2564:2579   */\n      mstore\n        /* \"#utility.yul\":2598:2602   */\n      0x24\n        /* \"#utility.yul\":2595:2596   */\n      0x00\n        /* \"#utility.yul\":2588:2603   */\n      revert\n        /* \"#utility.yul\":2615:2896   */\n    tag_167:\n        /* \"#utility.yul\":2698:2725   */\n      tag_239\n        /* \"#utility.yul\":2720:2724   */\n      dup3\n        /* \"#utility.yul\":2698:2725   */\n      tag_166\n      jump\t// in\n    tag_239:\n        /* \"#utility.yul\":2690:2696   */\n      dup2\n        /* \"#utility.yul\":2686:2726   */\n      add\n        /* \"#utility.yul\":2828:2834   */\n      dup2\n        /* \"#utility.yul\":2816:2826   */\n      dup2\n        /* \"#utility.yul\":2813:2835   */\n      lt\n        /* \"#utility.yul\":2792:2810   */\n      0xffffffffffffffff\n        /* \"#utility.yul\":2780:2790   */\n      dup3\n        /* \"#utility.yul\":2777:2811   */\n      gt\n        /* \"#utility.yul\":2774:2836   */\n      or\n        /* \"#utility.yul\":2771:2859   */\n      iszero\n      tag_240\n      jumpi\n        /* \"#utility.yul\":2839:2857   */\n      tag_241\n      tag_63\n      jump\t// in\n    tag_241:\n        /* \"#utility.yul\":2771:2859   */\n    tag_240:\n        /* \"#utility.yul\":2879:2889   */\n      dup1\n        /* \"#utility.yul\":2875:2877   */\n      0x40\n        /* \"#utility.yul\":2868:2890   */\n      mstore\n        /* \"#utility.yul\":2658:2896   */\n      pop\n        /* \"#utility.yul\":2615:2896   */\n      pop\n      pop\n      jump\t// out\n        /* \"#utility.yul\":2902:3031   */\n    tag_168:\n        /* \"#utility.yul\":2936:2942   */\n      0x00\n        /* \"#utility.yul\":2963:2983   */\n      tag_243\n      tag_154\n      jump\t// in\n    tag_243:\n        /* \"#utility.yul\":2953:2983   */\n      swap1\n      pop\n        /* \"#utility.yul\":2992:3025   */\n      tag_244\n        /* \"#utility.yul\":3020:3024   */\n      dup3\n        /* \"#utility.yul\":3012:3018   */\n      dup3\n        /* \"#utility.yul\":2992:3025   */\n      tag_167\n      jump\t// in\n    tag_244:\n        /* \"#utility.yul\":2902:3031   */\n      swap2\n      swap1\n      pop\n      jump\t// out\n        /* \"#utility.yul\":3037:3348   */\n    tag_169:\n        /* \"#utility.yul\":3114:3118   */\n      0x00\n        /* \"#utility.yul\":3204:3222   */\n      0xffffffffffffffff\n        /* \"#utility.yul\":3196:3202   */\n      dup3\n        /* \"#utility.yul\":3193:3223   */\n      gt\n        /* \"#utility.yul\":3190:3246   */\n      iszero\n      tag_246\n      jumpi\n        /* \"#utility.yul\":3226:3244   */\n      tag_247\n      tag_63\n      jump\t// in\n    tag_247:\n        /* \"#utility.yul\":3190:3246   */\n    tag_246:\n        /* \"#utility.yul\":3276:3280   */\n      0x20\n        /* \"#utility.yul\":3268:3274   */\n      dup3\n        /* \"#utility.yul\":3264:3281   */\n      mul\n        /* \"#utility.yul\":3256:3281   */\n      swap1\n      pop\n        /* \"#utility.yul\":3336:3340   */\n      0x20\n        /* \"#utility.yul\":3330:3334   */\n      dup2\n        /* \"#utility.yul\":3326:3341   */\n      add\n        /* \"#utility.yul\":3318:3341   */\n      swap1\n      pop\n        /* \"#utility.yul\":3037:3348   */\n      swap2\n      swap1\n      pop\n      jump\t// out\n        /* \"#utility.yul\":3354:3471   */\n    tag_170:\n        /* \"#utility.yul\":3463:3464   */\n      0x00\n        /* \"#utility.yul\":3460:3461   */\n      dup1\n        /* \"#utility.yul\":3453:3465   */\n      revert\n        /* \"#utility.yul\":3494:4204   */\n    tag_171:\n        /* \"#utility.yul\":3590:3595   */\n      0x00\n        /* \"#utility.yul\":3615:3696   */\n      tag_250\n        /* \"#utility.yul\":3631:3695   */\n      tag_251\n        /* \"#utility.yul\":3688:3694   */\n      dup5\n        /* \"#utility.yul\":3631:3695   */\n      tag_169\n      jump\t// in\n    tag_251:\n        /* \"#utility.yul\":3615:3696   */\n      tag_168\n      jump\t// in\n    tag_250:\n        /* \"#utility.yul\":3606:3696   */\n      swap1\n      pop\n        /* \"#utility.yul\":3716:3721   */\n      dup1\n        /* \"#utility.yul\":3745:3751   */\n      dup4\n        /* \"#utility.yul\":3738:3743   */\n      dup3\n        /* \"#utility.yul\":3731:3752   */\n      mstore\n        /* \"#utility.yul\":3779:3783   */\n      0x20\n        /* \"#utility.yul\":3772:3777   */\n      dup3\n        /* \"#utility.yul\":3768:3784   */\n      add\n        /* \"#utility.yul\":3761:3784   */\n      swap1\n      pop\n        /* \"#utility.yul\":3832:3836   */\n      0x20\n        /* \"#utility.yul\":3824:3830   */\n      dup5\n        /* \"#utility.yul\":3820:3837   */\n      mul\n        /* \"#utility.yul\":3812:3818   */\n      dup4\n        /* \"#utility.yul\":3808:3838   */\n      add\n        /* \"#utility.yul\":3861:3864   */\n      dup6\n        /* \"#utility.yul\":3853:3859   */\n      dup2\n        /* \"#utility.yul\":3850:3865   */\n      gt\n        /* \"#utility.yul\":3847:3969   */\n      iszero\n      tag_252\n      jumpi\n        /* \"#utility.yul\":3880:3959   */\n      tag_253\n      tag_170\n      jump\t// in\n    tag_253:\n        /* \"#utility.yul\":3847:3969   */\n    tag_252:\n        /* \"#utility.yul\":3995:4001   */\n      dup4\n        /* \"#utility.yul\":3978:4198   */\n    tag_254:\n        /* \"#utility.yul\":4012:4018   */\n      dup2\n        /* \"#utility.yul\":4007:4010   */\n      dup2\n        /* \"#utility.yul\":4004:4019   */\n      lt\n        /* \"#utility.yul\":3978:4198   */\n      iszero\n      tag_256\n      jumpi\n        /* \"#utility.yul\":4087:4090   */\n      dup1\n        /* \"#utility.yul\":4116:4153   */\n      tag_257\n        /* \"#utility.yul\":4149:4152   */\n      dup9\n        /* \"#utility.yul\":4137:4147   */\n      dup3\n        /* \"#utility.yul\":4116:4153   */\n      tag_164\n      jump\t// in\n    tag_257:\n        /* \"#utility.yul\":4111:4114   */\n      dup5\n        /* \"#utility.yul\":4104:4154   */\n      mstore\n        /* \"#utility.yul\":4183:4187   */\n      0x20\n        /* \"#utility.yul\":4178:4181   */\n      dup5\n        /* \"#utility.yul\":4174:4188   */\n      add\n        /* \"#utility.yul\":4167:4188   */\n      swap4\n      pop\n        /* \"#utility.yul\":4054:4198   */\n      pop\n        /* \"#utility.yul\":4038:4042   */\n      0x20\n        /* \"#utility.yul\":4033:4036   */\n      dup2\n        /* \"#utility.yul\":4029:4043   */\n      add\n        /* \"#utility.yul\":4022:4043   */\n      swap1\n      pop\n        /* \"#utility.yul\":3978:4198   */\n      jump(tag_254)\n    tag_256:\n        /* \"#utility.yul\":3982:4003   */\n      pop\n        /* \"#utility.yul\":3596:4204   */\n      pop\n      pop\n        /* \"#utility.yul\":3494:4204   */\n      swap4\n      swap3\n      pop\n      pop\n      pop\n      jump\t// out\n        /* \"#utility.yul\":4227:4597   */\n    tag_172:\n        /* \"#utility.yul\":4298:4303   */\n      0x00\n        /* \"#utility.yul\":4347:4350   */\n      dup3\n        /* \"#utility.yul\":4340:4344   */\n      0x1f\n        /* \"#utility.yul\":4332:4338   */\n      dup4\n        /* \"#utility.yul\":4328:4345   */\n      add\n        /* \"#utility.yul\":4324:4351   */\n      slt\n        /* \"#utility.yul\":4314:4436   */\n      tag_259\n      jumpi\n        /* \"#utility.yul\":4355:4434   */\n      tag_260\n      tag_165\n      jump\t// in\n    tag_260:\n        /* \"#utility.yul\":4314:4436   */\n    tag_259:\n        /* \"#utility.yul\":4472:4478   */\n      dup2\n        /* \"#utility.yul\":4459:4479   */\n      calldataload\n        /* \"#utility.yul\":4497:4591   */\n      tag_261\n        /* \"#utility.yul\":4587:4590   */\n      dup5\n        /* \"#utility.yul\":4579:4585   */\n      dup3\n        /* \"#utility.yul\":4572:4576   */\n      0x20\n        /* \"#utility.yul\":4564:4570   */\n      dup7\n        /* \"#utility.yul\":4560:4577   */\n      add\n        /* \"#utility.yul\":4497:4591   */\n      tag_171\n      jump\t// in\n    tag_261:\n        /* \"#utility.yul\":4488:4591   */\n      swap2\n      pop\n        /* \"#utility.yul\":4304:4597   */\n      pop\n        /* \"#utility.yul\":4227:4597   */\n      swap3\n      swap2\n      pop\n      pop\n      jump\t// out\n        /* \"#utility.yul\":4603:5432   */\n    tag_17:\n        /* \"#utility.yul\":4705:4711   */\n      0x00\n        /* \"#utility.yul\":4713:4719   */\n      dup1\n        /* \"#utility.yul\":4721:4727   */\n      0x00\n        /* \"#utility.yul\":4770:4772   */\n      0x60\n        /* \"#utility.yul\":4758:4767   */\n      dup5\n        /* \"#utility.yul\":4749:4756   */\n      dup7\n        /* \"#utility.yul\":4745:4768   */\n      sub\n        /* \"#utility.yul\":4741:4773   */\n      slt\n        /* \"#utility.yul\":4738:4857   */\n      iszero\n      tag_263\n      jumpi\n        /* \"#utility.yul\":4776:4855   */\n      tag_264\n      tag_155\n      jump\t// in\n    tag_264:\n        /* \"#utility.yul\":4738:4857   */\n    tag_263:\n        /* \"#utility.yul\":4896:4897   */\n      0x00\n        /* \"#utility.yul\":4921:4974   */\n      tag_265\n        /* \"#utility.yul\":4966:4973   */\n      dup7\n        /* \"#utility.yul\":4957:4963   */\n      dup3\n        /* \"#utility.yul\":4946:4955   */\n      dup8\n        /* \"#utility.yul\":4942:4964   */\n      add\n        /* \"#utility.yul\":4921:4974   */\n      tag_164\n      jump\t// in\n    tag_265:\n        /* \"#utility.yul\":4911:4974   */\n      swap4\n      pop\n        /* \"#utility.yul\":4867:4984   */\n      pop\n        /* \"#utility.yul\":5023:5025   */\n      0x20\n        /* \"#utility.yul\":5049:5102   */\n      tag_266\n        /* \"#utility.yul\":5094:5101   */\n      dup7\n        /* \"#utility.yul\":5085:5091   */\n      dup3\n        /* \"#utility.yul\":5074:5083   */\n      dup8\n        /* \"#utility.yul\":5070:5092   */\n      add\n        /* \"#utility.yul\":5049:5102   */\n      tag_159\n      jump\t// in\n    tag_266:\n        /* \"#utility.yul\":5039:5102   */\n      swap3\n      pop\n        /* \"#utility.yul\":4994:5112   */\n      pop\n        /* \"#utility.yul\":5179:5181   */\n      0x40\n        /* \"#utility.yul\":5168:5177   */\n      dup5\n        /* \"#utility.yul\":5164:5182   */\n      add\n        /* \"#utility.yul\":5151:5183   */\n      calldataload\n        /* \"#utility.yul\":5210:5228   */\n      0xffffffffffffffff\n        /* \"#utility.yul\":5202:5208   */\n      dup2\n        /* \"#utility.yul\":5199:5229   */\n      gt\n        /* \"#utility.yul\":5196:5313   */\n      iszero\n      tag_267\n      jumpi\n        /* \"#utility.yul\":5232:5311   */\n      tag_268\n      tag_156\n      jump\t// in\n    tag_268:\n        /* \"#utility.yul\":5196:5313   */\n    tag_267:\n        /* \"#utility.yul\":5337:5415   */\n      tag_269\n        /* \"#utility.yul\":5407:5414   */\n      dup7\n        /* \"#utility.yul\":5398:5404   */\n      dup3\n        /* \"#utility.yul\":5387:5396   */\n      dup8\n        /* \"#utility.yul\":5383:5405   */\n      add\n        /* \"#utility.yul\":5337:5415   */\n      tag_172\n      jump\t// in\n    tag_269:\n        /* \"#utility.yul\":5327:5415   */\n      swap2\n      pop\n        /* \"#utility.yul\":5122:5425   */\n      pop\n        /* \"#utility.yul\":4603:5432   */\n      swap3\n      pop\n      swap3\n      pop\n      swap3\n      jump\t// out\n        /* \"#utility.yul\":5438:5552   */\n    tag_173:\n        /* \"#utility.yul\":5505:5511   */\n      0x00\n        /* \"#utility.yul\":5539:5544   */\n      dup2\n        /* \"#utility.yul\":5533:5545   */\n      mload\n        /* \"#utility.yul\":5523:5545   */\n      swap1\n      pop\n        /* \"#utility.yul\":5438:5552   */\n      swap2\n      swap1\n      pop\n      jump\t// out\n        /* \"#utility.yul\":5558:5750   */\n    tag_174:\n        /* \"#utility.yul\":5665:5676   */\n      0x00\n        /* \"#utility.yul\":5699:5705   */\n      dup3\n        /* \"#utility.yul\":5694:5697   */\n      dup3\n        /* \"#utility.yul\":5687:5706   */\n      mstore\n        /* \"#utility.yul\":5739:5743   */\n      0x20\n        /* \"#utility.yul\":5734:5737   */\n      dup3\n        /* \"#utility.yul\":5730:5744   */\n      add\n        /* \"#utility.yul\":5715:5744   */\n      swap1\n      pop\n        /* \"#utility.yul\":5558:5750   */\n      swap3\n      swap2\n      pop\n      pop\n      jump\t// out\n        /* \"#utility.yul\":5756:5888   */\n    tag_175:\n        /* \"#utility.yul\":5823:5827   */\n      0x00\n        /* \"#utility.yul\":5846:5849   */\n      dup2\n        /* \"#utility.yul\":5838:5849   */\n      swap1\n      pop\n        /* \"#utility.yul\":5876:5880   */\n      0x20\n        /* \"#utility.yul\":5871:5874   */\n      dup3\n        /* \"#utility.yul\":5867:5881   */\n      add\n        /* \"#utility.yul\":5859:5881   */\n      swap1\n      pop\n        /* \"#utility.yul\":5756:5888   */\n      swap2\n      swap1\n      pop\n      jump\t// out\n        /* \"#utility.yul\":5894:6010   */\n    tag_176:\n        /* \"#utility.yul\":5979:6003   */\n      tag_274\n        /* \"#utility.yul\":5997:6002   */\n      dup2\n        /* \"#utility.yul\":5979:6003   */\n      tag_157\n      jump\t// in\n    tag_274:\n        /* \"#utility.yul\":5974:5977   */\n      dup3\n        /* \"#utility.yul\":5967:6004   */\n      mstore\n        /* \"#utility.yul\":5894:6010   */\n      pop\n      pop\n      jump\t// out\n        /* \"#utility.yul\":6016:6211   */\n    tag_177:\n        /* \"#utility.yul\":6093:6103   */\n      0x00\n        /* \"#utility.yul\":6114:6168   */\n      tag_276\n        /* \"#utility.yul\":6164:6167   */\n      dup4\n        /* \"#utility.yul\":6156:6162   */\n      dup4\n        /* \"#utility.yul\":6114:6168   */\n      tag_176\n      jump\t// in\n    tag_276:\n        /* \"#utility.yul\":6200:6204   */\n      0x20\n        /* \"#utility.yul\":6195:6198   */\n      dup4\n        /* \"#utility.yul\":6191:6205   */\n      add\n        /* \"#utility.yul\":6177:6205   */\n      swap1\n      pop\n        /* \"#utility.yul\":6016:6211   */\n      swap3\n      swap2\n      pop\n      pop\n      jump\t// out\n        /* \"#utility.yul\":6217:6330   */\n    tag_178:\n        /* \"#utility.yul\":6287:6291   */\n      0x00\n        /* \"#utility.yul\":6319:6323   */\n      0x20\n        /* \"#utility.yul\":6314:6317   */\n      dup3\n        /* \"#utility.yul\":6310:6324   */\n      add\n        /* \"#utility.yul\":6302:6324   */\n      swap1\n      pop\n        /* \"#utility.yul\":6217:6330   */\n      swap2\n      swap1\n      pop\n      jump\t// out\n        /* \"#utility.yul\":6366:7122   */\n    tag_179:\n        /* \"#utility.yul\":6493:6496   */\n      0x00\n        /* \"#utility.yul\":6522:6576   */\n      tag_279\n        /* \"#utility.yul\":6570:6575   */\n      dup3\n        /* \"#utility.yul\":6522:6576   */\n      tag_173\n      jump\t// in\n    tag_279:\n        /* \"#utility.yul\":6592:6686   */\n      tag_280\n        /* \"#utility.yul\":6679:6685   */\n      dup2\n        /* \"#utility.yul\":6674:6677   */\n      dup6\n        /* \"#utility.yul\":6592:6686   */\n      tag_174\n      jump\t// in\n    tag_280:\n        /* \"#utility.yul\":6585:6686   */\n      swap4\n      pop\n        /* \"#utility.yul\":6710:6766   */\n      tag_281\n        /* \"#utility.yul\":6760:6765   */\n      dup4\n        /* \"#utility.yul\":6710:6766   */\n      tag_175\n      jump\t// in\n    tag_281:\n        /* \"#utility.yul\":6789:6796   */\n      dup1\n        /* \"#utility.yul\":6820:6821   */\n      0x00\n        /* \"#utility.yul\":6805:7097   */\n    tag_282:\n        /* \"#utility.yul\":6830:6836   */\n      dup4\n        /* \"#utility.yul\":6827:6828   */\n      dup2\n        /* \"#utility.yul\":6824:6837   */\n      lt\n        /* \"#utility.yul\":6805:7097   */\n      iszero\n      tag_284\n      jumpi\n        /* \"#utility.yul\":6906:6912   */\n      dup2\n        /* \"#utility.yul\":6900:6913   */\n      mload\n        /* \"#utility.yul\":6933:7004   */\n      tag_285\n        /* \"#utility.yul\":7000:7003   */\n      dup9\n        /* \"#utility.yul\":6985:6998   */\n      dup3\n        /* \"#utility.yul\":6933:7004   */\n      tag_177\n      jump\t// in\n    tag_285:\n        /* \"#utility.yul\":6926:7004   */\n      swap8\n      pop\n        /* \"#utility.yul\":7027:7087   */\n      tag_286\n        /* \"#utility.yul\":7080:7086   */\n      dup4\n        /* \"#utility.yul\":7027:7087   */\n      tag_178\n      jump\t// in\n    tag_286:\n        /* \"#utility.yul\":7017:7087   */\n      swap3\n      pop\n        /* \"#utility.yul\":6865:7097   */\n      pop\n        /* \"#utility.yul\":6852:6853   */\n      0x01\n        /* \"#utility.yul\":6849:6850   */\n      dup2\n        /* \"#utility.yul\":6845:6854   */\n      add\n        /* \"#utility.yul\":6840:6854   */\n      swap1\n      pop\n        /* \"#utility.yul\":6805:7097   */\n      jump(tag_282)\n    tag_284:\n        /* \"#utility.yul\":6809:6823   */\n      pop\n        /* \"#utility.yul\":7113:7116   */\n      dup6\n        /* \"#utility.yul\":7106:7116   */\n      swap4\n      pop\n        /* \"#utility.yul\":6498:7122   */\n      pop\n      pop\n      pop\n        /* \"#utility.yul\":6366:7122   */\n      swap3\n      swap2\n      pop\n      pop\n      jump\t// out\n        /* \"#utility.yul\":7128:7517   */\n    tag_20:\n        /* \"#utility.yul\":7279:7283   */\n      0x00\n        /* \"#utility.yul\":7317:7319   */\n      0x20\n        /* \"#utility.yul\":7306:7315   */\n      dup3\n        /* \"#utility.yul\":7302:7320   */\n      add\n        /* \"#utility.yul\":7294:7320   */\n      swap1\n      pop\n        /* \"#utility.yul\":7366:7375   */\n      dup2\n        /* \"#utility.yul\":7360:7364   */\n      dup2\n        /* \"#utility.yul\":7356:7376   */\n      sub\n        /* \"#utility.yul\":7352:7353   */\n      0x00\n        /* \"#utility.yul\":7341:7350   */\n      dup4\n        /* \"#utility.yul\":7337:7354   */\n      add\n        /* \"#utility.yul\":7330:7377   */\n      mstore\n        /* \"#utility.yul\":7394:7510   */\n      tag_288\n        /* \"#utility.yul\":7505:7509   */\n      dup2\n        /* \"#utility.yul\":7496:7502   */\n      dup5\n        /* \"#utility.yul\":7394:7510   */\n      tag_179\n      jump\t// in\n    tag_288:\n        /* \"#utility.yul\":7386:7510   */\n      swap1\n      pop\n        /* \"#utility.yul\":7128:7517   */\n      swap3\n      swap2\n      pop\n      pop\n      jump\t// out\n        /* \"#utility.yul\":7523:8142   */\n    tag_24:\n        /* \"#utility.yul\":7600:7606   */\n      0x00\n        /* \"#utility.yul\":7608:7614   */\n      dup1\n        /* \"#utility.yul\":7616:7622   */\n      0x00\n        /* \"#utility.yul\":7665:7667   */\n      0x60\n        /* \"#utility.yul\":7653:7662   */\n      dup5\n        /* \"#utility.yul\":7644:7651   */\n      dup7\n        /* \"#utility.yul\":7640:7663   */\n      sub\n        /* \"#utility.yul\":7636:7668   */\n      slt\n        /* \"#utility.yul\":7633:7752   */\n      iszero\n      tag_290\n      jumpi\n        /* \"#utility.yul\":7671:7750   */\n      tag_291\n      tag_155\n      jump\t// in\n    tag_291:\n        /* \"#utility.yul\":7633:7752   */\n    tag_290:\n        /* \"#utility.yul\":7791:7792   */\n      0x00\n        /* \"#utility.yul\":7816:7869   */\n      tag_292\n        /* \"#utility.yul\":7861:7868   */\n      dup7\n        /* \"#utility.yul\":7852:7858   */\n      dup3\n        /* \"#utility.yul\":7841:7850   */\n      dup8\n        /* \"#utility.yul\":7837:7859   */\n      add\n        /* \"#utility.yul\":7816:7869   */\n      tag_164\n      jump\t// in\n    tag_292:\n        /* \"#utility.yul\":7806:7869   */\n      swap4\n      pop\n        /* \"#utility.yul\":7762:7879   */\n      pop\n        /* \"#utility.yul\":7918:7920   */\n      0x20\n        /* \"#utility.yul\":7944:7997   */\n      tag_293\n        /* \"#utility.yul\":7989:7996   */\n      dup7\n        /* \"#utility.yul\":7980:7986   */\n      dup3\n        /* \"#utility.yul\":7969:7978   */\n      dup8\n        /* \"#utility.yul\":7965:7987   */\n      add\n        /* \"#utility.yul\":7944:7997   */\n      tag_164\n      jump\t// in\n    tag_293:\n        /* \"#utility.yul\":7934:7997   */\n      swap3\n      pop\n        /* \"#utility.yul\":7889:8007   */\n      pop\n        /* \"#utility.yul\":8046:8048   */\n      0x40\n        /* \"#utility.yul\":8072:8125   */\n      tag_294\n        /* \"#utility.yul\":8117:8124   */\n      dup7\n        /* \"#utility.yul\":8108:8114   */\n      dup3\n        /* \"#utility.yul\":8097:8106   */\n      dup8\n        /* \"#utility.yul\":8093:8115   */\n      add\n        /* \"#utility.yul\":8072:8125   */\n      tag_164\n      jump\t// in\n    tag_294:\n        /* \"#utility.yul\":8062:8125   */\n      swap2\n      pop\n        /* \"#utility.yul\":8017:8135   */\n      pop\n        /* \"#utility.yul\":7523:8142   */\n      swap3\n      pop\n      swap3\n      pop\n      swap3\n      jump\t// out\n        /* \"#utility.yul\":8148:8504   */\n    tag_27:\n        /* \"#utility.yul\":8277:8281   */\n      0x00\n        /* \"#utility.yul\":8315:8317   */\n      0x40\n        /* \"#utility.yul\":8304:8313   */\n      dup3\n        /* \"#utility.yul\":8300:8318   */\n      add\n        /* \"#utility.yul\":8292:8318   */\n      swap1\n      pop\n        /* \"#utility.yul\":8328:8407   */\n      tag_296\n        /* \"#utility.yul\":8404:8405   */\n      0x00\n        /* \"#utility.yul\":8393:8402   */\n      dup4\n        /* \"#utility.yul\":8389:8406   */\n      add\n        /* \"#utility.yul\":8380:8386   */\n      dup6\n        /* \"#utility.yul\":8328:8407   */\n      tag_160\n      jump\t// in\n    tag_296:\n        /* \"#utility.yul\":8417:8497   */\n      tag_297\n        /* \"#utility.yul\":8493:8495   */\n      0x20\n        /* \"#utility.yul\":8482:8491   */\n      dup4\n        /* \"#utility.yul\":8478:8496   */\n      add\n        /* \"#utility.yul\":8469:8475   */\n      dup5\n        /* \"#utility.yul\":8417:8497   */\n      tag_160\n      jump\t// in\n    tag_297:\n        /* \"#utility.yul\":8148:8504   */\n      swap4\n      swap3\n      pop\n      pop\n      pop\n      jump\t// out\n        /* \"#utility.yul\":8510:8679   */\n    tag_180:\n        /* \"#utility.yul\":8594:8605   */\n      0x00\n        /* \"#utility.yul\":8628:8634   */\n      dup3\n        /* \"#utility.yul\":8623:8626   */\n      dup3\n        /* \"#utility.yul\":8616:8635   */\n      mstore\n        /* \"#utility.yul\":8668:8672   */\n      0x20\n        /* \"#utility.yul\":8663:8666   */\n      dup3\n        /* \"#utility.yul\":8659:8673   */\n      add\n        /* \"#utility.yul\":8644:8673   */\n      swap1\n      pop\n        /* \"#utility.yul\":8510:8679   */\n      swap3\n      swap2\n      pop\n      pop\n      jump\t// out\n        /* \"#utility.yul\":8685:8908   */\n    tag_181:\n        /* \"#utility.yul\":8825:8859   */\n      0x4b616a75737761704c6962726172793a20494e53554646494349454e545f414d\n        /* \"#utility.yul\":8821:8822   */\n      0x00\n        /* \"#utility.yul\":8813:8819   */\n      dup3\n        /* \"#utility.yul\":8809:8823   */\n      add\n        /* \"#utility.yul\":8802:8860   */\n      mstore\n        /* \"#utility.yul\":8894:8900   */\n      0x4f554e5400000000000000000000000000000000000000000000000000000000\n        /* \"#utility.yul\":8889:8891   */\n      0x20\n        /* \"#utility.yul\":8881:8887   */\n      dup3\n        /* \"#utility.yul\":8877:8892   */\n      add\n        /* \"#utility.yul\":8870:8901   */\n      mstore\n        /* \"#utility.yul\":8685:8908   */\n      pop\n      jump\t// out\n        /* \"#utility.yul\":8914:9280   */\n    tag_182:\n        /* \"#utility.yul\":9056:9059   */\n      0x00\n        /* \"#utility.yul\":9077:9144   */\n      tag_301\n        /* \"#utility.yul\":9141:9143   */\n      0x24\n        /* \"#utility.yul\":9136:9139   */\n      dup4\n        /* \"#utility.yul\":9077:9144   */\n      tag_180\n      jump\t// in\n    tag_301:\n        /* \"#utility.yul\":9070:9144   */\n      swap2\n      pop\n        /* \"#utility.yul\":9153:9246   */\n      tag_302\n        /* \"#utility.yul\":9242:9245   */\n      dup3\n        /* \"#utility.yul\":9153:9246   */\n      tag_181\n      jump\t// in\n    tag_302:\n        /* \"#utility.yul\":9271:9273   */\n      0x40\n        /* \"#utility.yul\":9266:9269   */\n      dup3\n        /* \"#utility.yul\":9262:9274   */\n      add\n        /* \"#utility.yul\":9255:9274   */\n      swap1\n      pop\n        /* \"#utility.yul\":8914:9280   */\n      swap2\n      swap1\n      pop\n      jump\t// out\n        /* \"#utility.yul\":9286:9705   */\n    tag_44:\n        /* \"#utility.yul\":9452:9456   */\n      0x00\n        /* \"#utility.yul\":9490:9492   */\n      0x20\n        /* \"#utility.yul\":9479:9488   */\n      dup3\n        /* \"#utility.yul\":9475:9493   */\n      add\n        /* \"#utility.yul\":9467:9493   */\n      swap1\n      pop\n        /* \"#utility.yul\":9539:9548   */\n      dup2\n        /* \"#utility.yul\":9533:9537   */\n      dup2\n        /* \"#utility.yul\":9529:9549   */\n      sub\n        /* \"#utility.yul\":9525:9526   */\n      0x00\n        /* \"#utility.yul\":9514:9523   */\n      dup4\n        /* \"#utility.yul\":9510:9527   */\n      add\n        /* \"#utility.yul\":9503:9550   */\n      mstore\n        /* \"#utility.yul\":9567:9698   */\n      tag_304\n        /* \"#utility.yul\":9693:9697   */\n      dup2\n        /* \"#utility.yul\":9567:9698   */\n      tag_182\n      jump\t// in\n    tag_304:\n        /* \"#utility.yul\":9559:9698   */\n      swap1\n      pop\n        /* \"#utility.yul\":9286:9705   */\n      swap2\n      swap1\n      pop\n      jump\t// out\n        /* \"#utility.yul\":9711:9937   */\n    tag_183:\n        /* \"#utility.yul\":9851:9885   */\n      0x4b616a75737761704c6962726172793a20494e53554646494349454e545f4c49\n        /* \"#utility.yul\":9847:9848   */\n      0x00\n        /* \"#utility.yul\":9839:9845   */\n      dup3\n        /* \"#utility.yul\":9835:9849   */\n      add\n        /* \"#utility.yul\":9828:9886   */\n      mstore\n        /* \"#utility.yul\":9920:9929   */\n      0x5155494449545900000000000000000000000000000000000000000000000000\n        /* \"#utility.yul\":9915:9917   */\n      0x20\n        /* \"#utility.yul\":9907:9913   */\n      dup3\n        /* \"#utility.yul\":9903:9918   */\n      add\n        /* \"#utility.yul\":9896:9930   */\n      mstore\n        /* \"#utility.yul\":9711:9937   */\n      pop\n      jump\t// out\n        /* \"#utility.yul\":9943:10309   */\n    tag_184:\n        /* \"#utility.yul\":10085:10088   */\n      0x00\n        /* \"#utility.yul\":10106:10173   */\n      tag_307\n        /* \"#utility.yul\":10170:10172   */\n      0x27\n        /* \"#utility.yul\":10165:10168   */\n      dup4\n        /* \"#utility.yul\":10106:10173   */\n      tag_180\n      jump\t// in\n    tag_307:\n        /* \"#utility.yul\":10099:10173   */\n      swap2\n      pop\n        /* \"#utility.yul\":10182:10275   */\n      tag_308\n        /* \"#utility.yul\":10271:10274   */\n      dup3\n        /* \"#utility.yul\":10182:10275   */\n      tag_183\n      jump\t// in\n    tag_308:\n        /* \"#utility.yul\":10300:10302   */\n      0x40\n        /* \"#utility.yul\":10295:10298   */\n      dup3\n        /* \"#utility.yul\":10291:10303   */\n      add\n        /* \"#utility.yul\":10284:10303   */\n      swap1\n      pop\n        /* \"#utility.yul\":9943:10309   */\n      swap2\n      swap1\n      pop\n      jump\t// out\n        /* \"#utility.yul\":10315:10734   */\n    tag_48:\n        /* \"#utility.yul\":10481:10485   */\n      0x00\n        /* \"#utility.yul\":10519:10521   */\n      0x20\n        /* \"#utility.yul\":10508:10517   */\n      dup3\n        /* \"#utility.yul\":10504:10522   */\n      add\n        /* \"#utility.yul\":10496:10522   */\n      swap1\n      pop\n        /* \"#utility.yul\":10568:10577   */\n      dup2\n        /* \"#utility.yul\":10562:10566   */\n      dup2\n        /* \"#utility.yul\":10558:10578   */\n      sub\n        /* \"#utility.yul\":10554:10555   */\n      0x00\n        /* \"#utility.yul\":10543:10552   */\n      dup4\n        /* \"#utility.yul\":10539:10556   */\n      add\n        /* \"#utility.yul\":10532:10579   */\n      mstore\n        /* \"#utility.yul\":10596:10727   */\n      tag_310\n        /* \"#utility.yul\":10722:10726   */\n      dup2\n        /* \"#utility.yul\":10596:10727   */\n      tag_184\n      jump\t// in\n    tag_310:\n        /* \"#utility.yul\":10588:10727   */\n      swap1\n      pop\n        /* \"#utility.yul\":10315:10734   */\n      swap2\n      swap1\n      pop\n      jump\t// out\n        /* \"#utility.yul\":10740:10920   */\n    tag_185:\n        /* \"#utility.yul\":10788:10865   */\n      0x4e487b7100000000000000000000000000000000000000000000000000000000\n        /* \"#utility.yul\":10785:10786   */\n      0x00\n        /* \"#utility.yul\":10778:10866   */\n      mstore\n        /* \"#utility.yul\":10885:10889   */\n      0x11\n        /* \"#utility.yul\":10882:10883   */\n      0x04\n        /* \"#utility.yul\":10875:10890   */\n      mstore\n        /* \"#utility.yul\":10909:10913   */\n      0x24\n        /* \"#utility.yul\":10906:10907   */\n      0x00\n        /* \"#utility.yul\":10899:10914   */\n      revert\n        /* \"#utility.yul\":10926:11274   */\n    tag_50:\n        /* \"#utility.yul\":10966:10973   */\n      0x00\n        /* \"#utility.yul\":10989:11009   */\n      tag_313\n        /* \"#utility.yul\":11007:11008   */\n      dup3\n        /* \"#utility.yul\":10989:11009   */\n      tag_157\n      jump\t// in\n    tag_313:\n        /* \"#utility.yul\":10984:11009   */\n      swap2\n      pop\n        /* \"#utility.yul\":11023:11043   */\n      tag_314\n        /* \"#utility.yul\":11041:11042   */\n      dup4\n        /* \"#utility.yul\":11023:11043   */\n      tag_157\n      jump\t// in\n    tag_314:\n        /* \"#utility.yul\":11018:11043   */\n      swap3\n      pop\n        /* \"#utility.yul\":11211:11212   */\n      dup2\n        /* \"#utility.yul\":11143:11209   */\n      0xffffffffffffffffffffffffffffffffffffffffffffffffffffffffffffffff\n        /* \"#utility.yul\":11139:11213   */\n      div\n        /* \"#utility.yul\":11136:11137   */\n      dup4\n        /* \"#utility.yul\":11133:11214   */\n      gt\n        /* \"#utility.yul\":11128:11129   */\n      dup3\n        /* \"#utility.yul\":11121:11130   */\n      iszero\n        /* \"#utility.yul\":11114:11131   */\n      iszero\n        /* \"#utility.yul\":11110:11215   */\n      and\n        /* \"#utility.yul\":11107:11238   */\n      iszero\n      tag_315\n      jumpi\n        /* \"#utility.yul\":11218:11236   */\n      tag_316\n      tag_185\n      jump\t// in\n    tag_316:\n        /* \"#utility.yul\":11107:11238   */\n    tag_315:\n        /* \"#utility.yul\":11266:11267   */\n      dup3\n        /* \"#utility.yul\":11263:11264   */\n      dup3\n        /* \"#utility.yul\":11259:11268   */\n      mul\n        /* \"#utility.yul\":11248:11268   */\n      swap1\n      pop\n        /* \"#utility.yul\":10926:11274   */\n      swap3\n      swap2\n      pop\n      pop\n      jump\t// out\n        /* \"#utility.yul\":11280:11585   */\n    tag_54:\n        /* \"#utility.yul\":11320:11323   */\n      0x00\n        /* \"#utility.yul\":11339:11359   */\n      tag_318\n        /* \"#utility.yul\":11357:11358   */\n      dup3\n        /* \"#utility.yul\":11339:11359   */\n      tag_157\n      jump\t// in\n    tag_318:\n        /* \"#utility.yul\":11334:11359   */\n      swap2\n      pop\n        /* \"#utility.yul\":11373:11393   */\n      tag_319\n        /* \"#utility.yul\":11391:11392   */\n      dup4\n        /* \"#utility.yul\":11373:11393   */\n      tag_157\n      jump\t// in\n    tag_319:\n        /* \"#utility.yul\":11368:11393   */\n      swap3\n      pop\n        /* \"#utility.yul\":11527:11528   */\n      dup3\n        /* \"#utility.yul\":11459:11525   */\n      0xffffffffffffffffffffffffffffffffffffffffffffffffffffffffffffffff\n        /* \"#utility.yul\":11455:11529   */\n      sub\n        /* \"#utility.yul\":11452:11453   */\n      dup3\n        /* \"#utility.yul\":11449:11530   */\n      gt\n        /* \"#utility.yul\":11446:11553   */\n      iszero\n      tag_320\n      jumpi\n        /* \"#utility.yul\":11533:11551   */\n      tag_321\n      tag_185\n      jump\t// in\n    tag_321:\n        /* \"#utility.yul\":11446:11553   */\n    tag_320:\n        /* \"#utility.yul\":11577:11578   */\n      dup3\n        /* \"#utility.yul\":11574:11575   */\n      dup3\n        /* \"#utility.yul\":11570:11579   */\n      add\n        /* \"#utility.yul\":11563:11579   */\n      swap1\n      pop\n        /* \"#utility.yul\":11280:11585   */\n      swap3\n      swap2\n      pop\n      pop\n      jump\t// out\n        /* \"#utility.yul\":11591:11771   */\n    tag_186:\n        /* \"#utility.yul\":11639:11716   */\n      0x4e487b7100000000000000000000000000000000000000000000000000000000\n        /* \"#utility.yul\":11636:11637   */\n      0x00\n        /* \"#utility.yul\":11629:11717   */\n      mstore\n        /* \"#utility.yul\":11736:11740   */\n      0x12\n        /* \"#utility.yul\":11733:11734   */\n      0x04\n        /* \"#utility.yul\":11726:11741   */\n      mstore\n        /* \"#utility.yul\":11760:11764   */\n      0x24\n        /* \"#utility.yul\":11757:11758   */\n      0x00\n        /* \"#utility.yul\":11750:11765   */\n      revert\n        /* \"#utility.yul\":11777:11962   */\n    tag_56:\n        /* \"#utility.yul\":11817:11818   */\n      0x00\n        /* \"#utility.yul\":11834:11854   */\n      tag_324\n        /* \"#utility.yul\":11852:11853   */\n      dup3\n        /* \"#utility.yul\":11834:11854   */\n      tag_157\n      jump\t// in\n    tag_324:\n        /* \"#utility.yul\":11829:11854   */\n      swap2\n      pop\n        /* \"#utility.yul\":11868:11888   */\n      tag_325\n        /* \"#utility.yul\":11886:11887   */\n      dup4\n        /* \"#utility.yul\":11868:11888   */\n      tag_157\n      jump\t// in\n    tag_325:\n        /* \"#utility.yul\":11863:11888   */\n      swap3\n      pop\n        /* \"#utility.yul\":11907:11908   */\n      dup3\n        /* \"#utility.yul\":11897:11932   */\n      tag_326\n      jumpi\n        /* \"#utility.yul\":11912:11930   */\n      tag_327\n      tag_186\n      jump\t// in\n    tag_327:\n        /* \"#utility.yul\":11897:11932   */\n    tag_326:\n        /* \"#utility.yul\":11954:11955   */\n      dup3\n        /* \"#utility.yul\":11951:11952   */\n      dup3\n        /* \"#utility.yul\":11947:11956   */\n      div\n        /* \"#utility.yul\":11942:11956   */\n      swap1\n      pop\n        /* \"#utility.yul\":11777:11962   */\n      swap3\n      swap2\n      pop\n      pop\n      jump\t// out\n        /* \"#utility.yul\":11968:12147   */\n    tag_187:\n        /* \"#utility.yul\":12108:12139   */\n      0x4b616a75737761704c6962726172793a20494e56414c49445f50415448000000\n        /* \"#utility.yul\":12104:12105   */\n      0x00\n        /* \"#utility.yul\":12096:12102   */\n      dup3\n        /* \"#utility.yul\":12092:12106   */\n      add\n        /* \"#utility.yul\":12085:12140   */\n      mstore\n        /* \"#utility.yul\":11968:12147   */\n      pop\n      jump\t// out\n        /* \"#utility.yul\":12153:12519   */\n    tag_188:\n        /* \"#utility.yul\":12295:12298   */\n      0x00\n        /* \"#utility.yul\":12316:12383   */\n      tag_330\n        /* \"#utility.yul\":12380:12382   */\n      0x1d\n        /* \"#utility.yul\":12375:12378   */\n      dup4\n        /* \"#utility.yul\":12316:12383   */\n      tag_180\n      jump\t// in\n    tag_330:\n        /* \"#utility.yul\":12309:12383   */\n      swap2\n      pop\n        /* \"#utility.yul\":12392:12485   */\n      tag_331\n        /* \"#utility.yul\":12481:12484   */\n      dup3\n        /* \"#utility.yul\":12392:12485   */\n      tag_187\n      jump\t// in\n    tag_331:\n        /* \"#utility.yul\":12510:12512   */\n      0x20\n        /* \"#utility.yul\":12505:12508   */\n      dup3\n        /* \"#utility.yul\":12501:12513   */\n      add\n        /* \"#utility.yul\":12494:12513   */\n      swap1\n      pop\n        /* \"#utility.yul\":12153:12519   */\n      swap2\n      swap1\n      pop\n      jump\t// out\n        /* \"#utility.yul\":12525:12944   */\n    tag_60:\n        /* \"#utility.yul\":12691:12695   */\n      0x00\n        /* \"#utility.yul\":12729:12731   */\n      0x20\n        /* \"#utility.yul\":12718:12727   */\n      dup3\n        /* \"#utility.yul\":12714:12732   */\n      add\n        /* \"#utility.yul\":12706:12732   */\n      swap1\n      pop\n        /* \"#utility.yul\":12778:12787   */\n      dup2\n        /* \"#utility.yul\":12772:12776   */\n      dup2\n        /* \"#utility.yul\":12768:12788   */\n      sub\n        /* \"#utility.yul\":12764:12765   */\n      0x00\n        /* \"#utility.yul\":12753:12762   */\n      dup4\n        /* \"#utility.yul\":12749:12766   */\n      add\n        /* \"#utility.yul\":12742:12789   */\n      mstore\n        /* \"#utility.yul\":12806:12937   */\n      tag_333\n        /* \"#utility.yul\":12932:12936   */\n      dup2\n        /* \"#utility.yul\":12806:12937   */\n      tag_188\n      jump\t// in\n    tag_333:\n        /* \"#utility.yul\":12798:12937   */\n      swap1\n      pop\n        /* \"#utility.yul\":12525:12944   */\n      swap2\n      swap1\n      pop\n      jump\t// out\n        /* \"#utility.yul\":12950:13141   */\n    tag_66:\n        /* \"#utility.yul\":12990:12994   */\n      0x00\n        /* \"#utility.yul\":13010:13030   */\n      tag_335\n        /* \"#utility.yul\":13028:13029   */\n      dup3\n        /* \"#utility.yul\":13010:13030   */\n      tag_157\n      jump\t// in\n    tag_335:\n        /* \"#utility.yul\":13005:13030   */\n      swap2\n      pop\n        /* \"#utility.yul\":13044:13064   */\n      tag_336\n        /* \"#utility.yul\":13062:13063   */\n      dup4\n        /* \"#utility.yul\":13044:13064   */\n      tag_157\n      jump\t// in\n    tag_336:\n        /* \"#utility.yul\":13039:13064   */\n      swap3\n      pop\n        /* \"#utility.yul\":13083:13084   */\n      dup3\n        /* \"#utility.yul\":13080:13081   */\n      dup3\n        /* \"#utility.yul\":13077:13085   */\n      lt\n        /* \"#utility.yul\":13074:13108   */\n      iszero\n      tag_337\n      jumpi\n        /* \"#utility.yul\":13088:13106   */\n      tag_338\n      tag_185\n      jump\t// in\n    tag_338:\n        /* \"#utility.yul\":13074:13108   */\n    tag_337:\n        /* \"#utility.yul\":13133:13134   */\n      dup3\n        /* \"#utility.yul\":13130:13131   */\n      dup3\n        /* \"#utility.yul\":13126:13135   */\n      sub\n        /* \"#utility.yul\":13118:13135   */\n      swap1\n      pop\n        /* \"#utility.yul\":12950:13141   */\n      swap3\n      swap2\n      pop\n      pop\n      jump\t// out\n        /* \"#utility.yul\":13147:13327   */\n    tag_69:\n        /* \"#utility.yul\":13195:13272   */\n      0x4e487b7100000000000000000000000000000000000000000000000000000000\n        /* \"#utility.yul\":13192:13193   */\n      0x00\n        /* \"#utility.yul\":13185:13273   */\n      mstore\n        /* \"#utility.yul\":13292:13296   */\n      0x32\n        /* \"#utility.yul\":13289:13290   */\n      0x04\n        /* \"#utility.yul\":13282:13297   */\n      mstore\n        /* \"#utility.yul\":13316:13320   */\n      0x24\n        /* \"#utility.yul\":13313:13314   */\n      0x00\n        /* \"#utility.yul\":13306:13321   */\n      revert\n        /* \"#utility.yul\":13333:13504   */\n    tag_87:\n        /* \"#utility.yul\":13372:13375   */\n      0x00\n        /* \"#utility.yul\":13395:13419   */\n      tag_341\n        /* \"#utility.yul\":13413:13418   */\n      dup3\n        /* \"#utility.yul\":13395:13419   */\n      tag_157\n      jump\t// in\n    tag_341:\n        /* \"#utility.yul\":13386:13419   */\n      swap2\n      pop\n        /* \"#utility.yul\":13441:13445   */\n      0x00\n        /* \"#utility.yul\":13434:13439   */\n      dup3\n        /* \"#utility.yul\":13431:13446   */\n      sub\n        /* \"#utility.yul\":13428:13469   */\n      tag_342\n      jumpi\n        /* \"#utility.yul\":13449:13467   */\n      tag_343\n      tag_185\n      jump\t// in\n    tag_343:\n        /* \"#utility.yul\":13428:13469   */\n    tag_342:\n        /* \"#utility.yul\":13496:13497   */\n      0x01\n        /* \"#utility.yul\":13489:13494   */\n      dup3\n        /* \"#utility.yul\":13485:13498   */\n      sub\n        /* \"#utility.yul\":13478:13498   */\n      swap1\n      pop\n        /* \"#utility.yul\":13333:13504   */\n      swap2\n      swap1\n      pop\n      jump\t// out\n        /* \"#utility.yul\":13510:13624   */\n    tag_189:\n        /* \"#utility.yul\":13547:13554   */\n      0x00\n        /* \"#utility.yul\":13587:13617   */\n      0xffffffffffffffffffffffffffff\n        /* \"#utility.yul\":13580:13585   */\n      dup3\n        /* \"#utility.yul\":13576:13618   */\n      and\n        /* \"#utility.yul\":13565:13618   */\n      swap1\n      pop\n        /* \"#utility.yul\":13510:13624   */\n      swap2\n      swap1\n      pop\n      jump\t// out\n        /* \"#utility.yul\":13630:13752   */\n    tag_190:\n        /* \"#utility.yul\":13703:13727   */\n      tag_346\n        /* \"#utility.yul\":13721:13726   */\n      dup2\n        /* \"#utility.yul\":13703:13727   */\n      tag_189\n      jump\t// in\n    tag_346:\n        /* \"#utility.yul\":13696:13701   */\n      dup2\n        /* \"#utility.yul\":13693:13728   */\n      eq\n        /* \"#utility.yul\":13683:13746   */\n      tag_347\n      jumpi\n        /* \"#utility.yul\":13742:13743   */\n      0x00\n        /* \"#utility.yul\":13739:13740   */\n      dup1\n        /* \"#utility.yul\":13732:13744   */\n      revert\n        /* \"#utility.yul\":13683:13746   */\n    tag_347:\n        /* \"#utility.yul\":13630:13752   */\n      pop\n      jump\t// out\n        /* \"#utility.yul\":13758:13901   */\n    tag_191:\n        /* \"#utility.yul\":13815:13820   */\n      0x00\n        /* \"#utility.yul\":13846:13852   */\n      dup2\n        /* \"#utility.yul\":13840:13853   */\n      mload\n        /* \"#utility.yul\":13831:13853   */\n      swap1\n      pop\n        /* \"#utility.yul\":13862:13895   */\n      tag_349\n        /* \"#utility.yul\":13889:13894   */\n      dup2\n        /* \"#utility.yul\":13862:13895   */\n      tag_190\n      jump\t// in\n    tag_349:\n        /* \"#utility.yul\":13758:13901   */\n      swap3\n      swap2\n      pop\n      pop\n      jump\t// out\n        /* \"#utility.yul\":13907:14000   */\n    tag_192:\n        /* \"#utility.yul\":13943:13950   */\n      0x00\n        /* \"#utility.yul\":13983:13993   */\n      0xffffffff\n        /* \"#utility.yul\":13976:13981   */\n      dup3\n        /* \"#utility.yul\":13972:13994   */\n      and\n        /* \"#utility.yul\":13961:13994   */\n      swap1\n      pop\n        /* \"#utility.yul\":13907:14000   */\n      swap2\n      swap1\n      pop\n      jump\t// out\n        /* \"#utility.yul\":14006:14126   */\n    tag_193:\n        /* \"#utility.yul\":14078:14101   */\n      tag_352\n        /* \"#utility.yul\":14095:14100   */\n      dup2\n        /* \"#utility.yul\":14078:14101   */\n      tag_192\n      jump\t// in\n    tag_352:\n        /* \"#utility.yul\":14071:14076   */\n      dup2\n        /* \"#utility.yul\":14068:14102   */\n      eq\n        /* \"#utility.yul\":14058:14120   */\n      tag_353\n      jumpi\n        /* \"#utility.yul\":14116:14117   */\n      0x00\n        /* \"#utility.yul\":14113:14114   */\n      dup1\n        /* \"#utility.yul\":14106:14118   */\n      revert\n        /* \"#utility.yul\":14058:14120   */\n    tag_353:\n        /* \"#utility.yul\":14006:14126   */\n      pop\n      jump\t// out\n        /* \"#utility.yul\":14132:14273   */\n    tag_194:\n        /* \"#utility.yul\":14188:14193   */\n      0x00\n        /* \"#utility.yul\":14219:14225   */\n      dup2\n        /* \"#utility.yul\":14213:14226   */\n      mload\n        /* \"#utility.yul\":14204:14226   */\n      swap1\n      pop\n        /* \"#utility.yul\":14235:14267   */\n      tag_355\n        /* \"#utility.yul\":14261:14266   */\n      dup2\n        /* \"#utility.yul\":14235:14267   */\n      tag_193\n      jump\t// in\n    tag_355:\n        /* \"#utility.yul\":14132:14273   */\n      swap3\n      swap2\n      pop\n      pop\n      jump\t// out\n        /* \"#utility.yul\":14279:14940   */\n    tag_96:\n        /* \"#utility.yul\":14366:14372   */\n      0x00\n        /* \"#utility.yul\":14374:14380   */\n      dup1\n        /* \"#utility.yul\":14382:14388   */\n      0x00\n        /* \"#utility.yul\":14431:14433   */\n      0x60\n        /* \"#utility.yul\":14419:14428   */\n      dup5\n        /* \"#utility.yul\":14410:14417   */\n      dup7\n        /* \"#utility.yul\":14406:14429   */\n      sub\n        /* \"#utility.yul\":14402:14434   */\n      slt\n        /* \"#utility.yul\":14399:14518   */\n      iszero\n      tag_357\n      jumpi\n        /* \"#utility.yul\":14437:14516   */\n      tag_358\n      tag_155\n      jump\t// in\n    tag_358:\n        /* \"#utility.yul\":14399:14518   */\n    tag_357:\n        /* \"#utility.yul\":14557:14558   */\n      0x00\n        /* \"#utility.yul\":14582:14646   */\n      tag_359\n        /* \"#utility.yul\":14638:14645   */\n      dup7\n        /* \"#utility.yul\":14629:14635   */\n      dup3\n        /* \"#utility.yul\":14618:14627   */\n      dup8\n        /* \"#utility.yul\":14614:14636   */\n      add\n        /* \"#utility.yul\":14582:14646   */\n      tag_191\n      jump\t// in\n    tag_359:\n        /* \"#utility.yul\":14572:14646   */\n      swap4\n      pop\n        /* \"#utility.yul\":14528:14656   */\n      pop\n        /* \"#utility.yul\":14695:14697   */\n      0x20\n        /* \"#utility.yul\":14721:14785   */\n      tag_360\n        /* \"#utility.yul\":14777:14784   */\n      dup7\n        /* \"#utility.yul\":14768:14774   */\n      dup3\n        /* \"#utility.yul\":14757:14766   */\n      dup8\n        /* \"#utility.yul\":14753:14775   */\n      add\n        /* \"#utility.yul\":14721:14785   */\n      tag_191\n      jump\t// in\n    tag_360:\n        /* \"#utility.yul\":14711:14785   */\n      swap3\n      pop\n        /* \"#utility.yul\":14666:14795   */\n      pop\n        /* \"#utility.yul\":14834:14836   */\n      0x40\n        /* \"#utility.yul\":14860:14923   */\n      tag_361\n        /* \"#utility.yul\":14915:14922   */\n      dup7\n        /* \"#utility.yul\":14906:14912   */\n      dup3\n        /* \"#utility.yul\":14895:14904   */\n      dup8\n        /* \"#utility.yul\":14891:14913   */\n      add\n        /* \"#utility.yul\":14860:14923   */\n      tag_194\n      jump\t// in\n    tag_361:\n        /* \"#utility.yul\":14850:14923   */\n      swap2\n      pop\n        /* \"#utility.yul\":14805:14933   */\n      pop\n        /* \"#utility.yul\":14279:14940   */\n      swap3\n      pop\n      swap3\n      pop\n      swap3\n      jump\t// out\n        /* \"#utility.yul\":14946:15179   */\n    tag_144:\n        /* \"#utility.yul\":14985:14988   */\n      0x00\n        /* \"#utility.yul\":15008:15032   */\n      tag_363\n        /* \"#utility.yul\":15026:15031   */\n      dup3\n        /* \"#utility.yul\":15008:15032   */\n      tag_157\n      jump\t// in\n    tag_363:\n        /* \"#utility.yul\":14999:15032   */\n      swap2\n      pop\n        /* \"#utility.yul\":15054:15120   */\n      0xffffffffffffffffffffffffffffffffffffffffffffffffffffffffffffffff\n        /* \"#utility.yul\":15047:15052   */\n      dup3\n        /* \"#utility.yul\":15044:15121   */\n      sub\n        /* \"#utility.yul\":15041:15144   */\n      tag_364\n      jumpi\n        /* \"#utility.yul\":15124:15142   */\n      tag_365\n      tag_185\n      jump\t// in\n    tag_365:\n        /* \"#utility.yul\":15041:15144   */\n    tag_364:\n        /* \"#utility.yul\":15171:15172   */\n      0x01\n        /* \"#utility.yul\":15164:15169   */\n      dup3\n        /* \"#utility.yul\":15160:15173   */\n      add\n        /* \"#utility.yul\":15153:15173   */\n      swap1\n      pop\n        /* \"#utility.yul\":14946:15179   */\n      swap2\n      swap1\n      pop\n      jump\t// out\n        /* \"#utility.yul\":15185:15279   */\n    tag_195:\n        /* \"#utility.yul\":15218:15226   */\n      0x00\n        /* \"#utility.yul\":15266:15271   */\n      dup2\n        /* \"#utility.yul\":15262:15264   */\n      0x60\n        /* \"#utility.yul\":15258:15272   */\n      shl\n        /* \"#utility.yul\":15237:15272   */\n      swap1\n      pop\n        /* \"#utility.yul\":15185:15279   */\n      swap2\n      swap1\n      pop\n      jump\t// out\n        /* \"#utility.yul\":15285:15379   */\n    tag_196:\n        /* \"#utility.yul\":15324:15331   */\n      0x00\n        /* \"#utility.yul\":15353:15373   */\n      tag_368\n        /* \"#utility.yul\":15367:15372   */\n      dup3\n        /* \"#utility.yul\":15353:15373   */\n      tag_195\n      jump\t// in\n    tag_368:\n        /* \"#utility.yul\":15342:15373   */\n      swap1\n      pop\n        /* \"#utility.yul\":15285:15379   */\n      swap2\n      swap1\n      pop\n      jump\t// out\n        /* \"#utility.yul\":15385:15485   */\n    tag_197:\n        /* \"#utility.yul\":15424:15431   */\n      0x00\n        /* \"#utility.yul\":15453:15479   */\n      tag_370\n        /* \"#utility.yul\":15473:15478   */\n      dup3\n        /* \"#utility.yul\":15453:15479   */\n      tag_196\n      jump\t// in\n    tag_370:\n        /* \"#utility.yul\":15442:15479   */\n      swap1\n      pop\n        /* \"#utility.yul\":15385:15485   */\n      swap2\n      swap1\n      pop\n      jump\t// out\n        /* \"#utility.yul\":15491:15648   */\n    tag_198:\n        /* \"#utility.yul\":15596:15641   */\n      tag_372\n        /* \"#utility.yul\":15616:15640   */\n      tag_373\n        /* \"#utility.yul\":15634:15639   */\n      dup3\n        /* \"#utility.yul\":15616:15640   */\n      tag_162\n      jump\t// in\n    tag_373:\n        /* \"#utility.yul\":15596:15641   */\n      tag_197\n      jump\t// in\n    tag_372:\n        /* \"#utility.yul\":15591:15594   */\n      dup3\n        /* \"#utility.yul\":15584:15642   */\n      mstore\n        /* \"#utility.yul\":15491:15648   */\n      pop\n      pop\n      jump\t// out\n        /* \"#utility.yul\":15654:16051   */\n    tag_151:\n        /* \"#utility.yul\":15794:15797   */\n      0x00\n        /* \"#utility.yul\":15809:15884   */\n      tag_375\n        /* \"#utility.yul\":15880:15883   */\n      dup3\n        /* \"#utility.yul\":15871:15877   */\n      dup6\n        /* \"#utility.yul\":15809:15884   */\n      tag_198\n      jump\t// in\n    tag_375:\n        /* \"#utility.yul\":15909:15911   */\n      0x14\n        /* \"#utility.yul\":15904:15907   */\n      dup3\n        /* \"#utility.yul\":15900:15912   */\n      add\n        /* \"#utility.yul\":15893:15912   */\n      swap2\n      pop\n        /* \"#utility.yul\":15922:15997   */\n      tag_376\n        /* \"#utility.yul\":15993:15996   */\n      dup3\n        /* \"#utility.yul\":15984:15990   */\n      dup5\n        /* \"#utility.yul\":15922:15997   */\n      tag_198\n      jump\t// in\n    tag_376:\n        /* \"#utility.yul\":16022:16024   */\n      0x14\n        /* \"#utility.yul\":16017:16020   */\n      dup3\n        /* \"#utility.yul\":16013:16025   */\n      add\n        /* \"#utility.yul\":16006:16025   */\n      swap2\n      pop\n        /* \"#utility.yul\":16042:16045   */\n      dup2\n        /* \"#utility.yul\":16035:16045   */\n      swap1\n      pop\n        /* \"#utility.yul\":15654:16051   */\n      swap4\n      swap3\n      pop\n      pop\n      pop\n      jump\t// out\n        /* \"#utility.yul\":16057:16205   */\n    tag_199:\n        /* \"#utility.yul\":16159:16170   */\n      0x00\n        /* \"#utility.yul\":16196:16199   */\n      dup2\n        /* \"#utility.yul\":16181:16199   */\n      swap1\n      pop\n        /* \"#utility.yul\":16057:16205   */\n      swap3\n      swap2\n      pop\n      pop\n      jump\t// out\n        /* \"#utility.yul\":16211:16425   */\n    tag_200:\n        /* \"#utility.yul\":16351:16417   */\n      0xff00000000000000000000000000000000000000000000000000000000000000\n        /* \"#utility.yul\":16347:16348   */\n      0x00\n        /* \"#utility.yul\":16339:16345   */\n      dup3\n        /* \"#utility.yul\":16335:16349   */\n      add\n        /* \"#utility.yul\":16328:16418   */\n      mstore\n        /* \"#utility.yul\":16211:16425   */\n      pop\n      jump\t// out\n        /* \"#utility.yul\":16431:16831   */\n    tag_201:\n        /* \"#utility.yul\":16591:16594   */\n      0x00\n        /* \"#utility.yul\":16612:16696   */\n      tag_380\n        /* \"#utility.yul\":16694:16695   */\n      0x01\n        /* \"#utility.yul\":16689:16692   */\n      dup4\n        /* \"#utility.yul\":16612:16696   */\n      tag_199\n      jump\t// in\n    tag_380:\n        /* \"#utility.yul\":16605:16696   */\n      swap2\n      pop\n        /* \"#utility.yul\":16705:16798   */\n      tag_381\n        /* \"#utility.yul\":16794:16797   */\n      dup3\n        /* \"#utility.yul\":16705:16798   */\n      tag_200\n      jump\t// in\n    tag_381:\n        /* \"#utility.yul\":16823:16824   */\n      0x01\n        /* \"#utility.yul\":16818:16821   */\n      dup3\n        /* \"#utility.yul\":16814:16825   */\n      add\n        /* \"#utility.yul\":16807:16825   */\n      swap1\n      pop\n        /* \"#utility.yul\":16431:16831   */\n      swap2\n      swap1\n      pop\n      jump\t// out\n        /* \"#utility.yul\":16837:16914   */\n    tag_202:\n        /* \"#utility.yul\":16874:16881   */\n      0x00\n        /* \"#utility.yul\":16903:16908   */\n      dup2\n        /* \"#utility.yul\":16892:16908   */\n      swap1\n      pop\n        /* \"#utility.yul\":16837:16914   */\n      swap2\n      swap1\n      pop\n      jump\t// out\n        /* \"#utility.yul\":16920:16999   */\n    tag_203:\n        /* \"#utility.yul\":16959:16966   */\n      0x00\n        /* \"#utility.yul\":16988:16993   */\n      dup2\n        /* \"#utility.yul\":16977:16993   */\n      swap1\n      pop\n        /* \"#utility.yul\":16920:16999   */\n      swap2\n      swap1\n      pop\n      jump\t// out\n        /* \"#utility.yul\":17005:17162   */\n    tag_204:\n        /* \"#utility.yul\":17110:17155   */\n      tag_385\n        /* \"#utility.yul\":17130:17154   */\n      tag_386\n        /* \"#utility.yul\":17148:17153   */\n      dup3\n        /* \"#utility.yul\":17130:17154   */\n      tag_202\n      jump\t// in\n    tag_386:\n        /* \"#utility.yul\":17110:17155   */\n      tag_203\n      jump\t// in\n    tag_385:\n        /* \"#utility.yul\":17105:17108   */\n      dup3\n        /* \"#utility.yul\":17098:17156   */\n      mstore\n        /* \"#utility.yul\":17005:17162   */\n      pop\n      pop\n      jump\t// out\n        /* \"#utility.yul\":17168:17382   */\n    tag_205:\n        /* \"#utility.yul\":17308:17374   */\n      0xb68fbba50ceb1571c8d495ec425ba3b90ece4d1440852fd428fdd1439ca5a1d8\n        /* \"#utility.yul\":17304:17305   */\n      0x00\n        /* \"#utility.yul\":17296:17302   */\n      dup3\n        /* \"#utility.yul\":17292:17306   */\n      add\n        /* \"#utility.yul\":17285:17375   */\n      mstore\n        /* \"#utility.yul\":17168:17382   */\n      pop\n      jump\t// out\n        /* \"#utility.yul\":17388:17790   */\n    tag_206:\n        /* \"#utility.yul\":17548:17551   */\n      0x00\n        /* \"#utility.yul\":17569:17654   */\n      tag_389\n        /* \"#utility.yul\":17651:17653   */\n      0x20\n        /* \"#utility.yul\":17646:17649   */\n      dup4\n        /* \"#utility.yul\":17569:17654   */\n      tag_199\n      jump\t// in\n    tag_389:\n        /* \"#utility.yul\":17562:17654   */\n      swap2\n      pop\n        /* \"#utility.yul\":17663:17756   */\n      tag_390\n        /* \"#utility.yul\":17752:17755   */\n      dup3\n        /* \"#utility.yul\":17663:17756   */\n      tag_205\n      jump\t// in\n    tag_390:\n        /* \"#utility.yul\":17781:17783   */\n      0x20\n        /* \"#utility.yul\":17776:17779   */\n      dup3\n        /* \"#utility.yul\":17772:17784   */\n      add\n        /* \"#utility.yul\":17765:17784   */\n      swap1\n      pop\n        /* \"#utility.yul\":17388:17790   */\n      swap2\n      swap1\n      pop\n      jump\t// out\n        /* \"#utility.yul\":17796:18725   */\n    tag_153:\n        /* \"#utility.yul\":18138:18141   */\n      0x00\n        /* \"#utility.yul\":18160:18308   */\n      tag_392\n        /* \"#utility.yul\":18304:18307   */\n      dup3\n        /* \"#utility.yul\":18160:18308   */\n      tag_201\n      jump\t// in\n    tag_392:\n        /* \"#utility.yul\":18153:18308   */\n      swap2\n      pop\n        /* \"#utility.yul\":18318:18393   */\n      tag_393\n        /* \"#utility.yul\":18389:18392   */\n      dup3\n        /* \"#utility.yul\":18380:18386   */\n      dup6\n        /* \"#utility.yul\":18318:18393   */\n      tag_198\n      jump\t// in\n    tag_393:\n        /* \"#utility.yul\":18418:18420   */\n      0x14\n        /* \"#utility.yul\":18413:18416   */\n      dup3\n        /* \"#utility.yul\":18409:18421   */\n      add\n        /* \"#utility.yul\":18402:18421   */\n      swap2\n      pop\n        /* \"#utility.yul\":18431:18506   */\n      tag_394\n        /* \"#utility.yul\":18502:18505   */\n      dup3\n        /* \"#utility.yul\":18493:18499   */\n      dup5\n        /* \"#utility.yul\":18431:18506   */\n      tag_204\n      jump\t// in\n    tag_394:\n        /* \"#utility.yul\":18531:18533   */\n      0x20\n        /* \"#utility.yul\":18526:18529   */\n      dup3\n        /* \"#utility.yul\":18522:18534   */\n      add\n        /* \"#utility.yul\":18515:18534   */\n      swap2\n      pop\n        /* \"#utility.yul\":18551:18699   */\n      tag_395\n        /* \"#utility.yul\":18695:18698   */\n      dup3\n        /* \"#utility.yul\":18551:18699   */\n      tag_206\n      jump\t// in\n    tag_395:\n        /* \"#utility.yul\":18544:18699   */\n      swap2\n      pop\n        /* \"#utility.yul\":18716:18719   */\n      dup2\n        /* \"#utility.yul\":18709:18719   */\n      swap1\n      pop\n        /* \"#utility.yul\":17796:18725   */\n      swap4\n      swap3\n      pop\n      pop\n      pop\n      jump\t// out\n\n    auxdata: 0xa2646970667358221220c444d0bd6510e8084554fe57efa1843f51b60fa9b1dfd4d2667f7db75660a4c464736f6c634300080f0033\n}\n",
				"bytecode": {
					"linkReferences": {},
					"object": "6113c9610053600b82828239805160001a607314610046577f4e487b7100000000000000000000000000000000000000000000000000000000600052600060045260246000fd5b30600052607381538281f3fe730000000000000000000000000000000000000000301460806040526004361061006c5760003560e01c8063054d50d414610071578063192128b2146100a157806332749461146100de57806385f8c2591461011c578063ad615dec1461014c578063bb7b9c761461017c575b600080fd5b61008b60048036038101906100869190610987565b6101b9565b60405161009891906109e9565b60405180910390f35b8180156100ad57600080fd5b506100c860048036038101906100c39190610bbb565b6102a3565b6040516100d59190610ce8565b60405180910390f35b8180156100ea57600080fd5b5061010560048036038101906101009190610d0a565b610444565b604051610113929190610d5d565b60405180910390f35b61013660048036038101906101319190610987565b61054c565b60405161014391906109e9565b60405180910390f35b61016660048036038101906101619190610987565b61063c565b60405161017391906109e9565b60405180910390f35b81801561018857600080fd5b506101a3600480360381019061019e9190610bbb565b6106ef565b6040516101b09190610ce8565b60405180910390f35b60008084116101fd576040517f08c379a00000000000000000000000000000000000000000000000000000000081526004016101f490610e09565b60405180910390fd5b60008311801561020d5750600082115b61024c576040517f08c379a000000000000000000000000000000000000000000000000000000000815260040161024390610e9b565b60405180910390fd5b60006103e58561025c9190610eea565b90506000838261026c9190610eea565b90506000826103e88761027f9190610eea565b6102899190610f44565b905080826102979190610fc9565b93505050509392505050565b60606002825110156102ea576040517f08c379a00000000000000000000000000000000000000000000000000000000081526004016102e190611046565b60405180910390fd5b6000825167ffffffffffffffff81111561030757610306610a78565b5b6040519080825280602002602001820160405280156103355781602001602082028036833780820191505090505b5090508381600183516103489190611066565b815181106103595761035861109a565b5b6020026020010181815250506000600184516103759190611066565b90505b6000811115610438576000806103cf88876001866103969190611066565b815181106103a7576103a661109a565b5b60200260200101518886815181106103c2576103c161109a565b5b6020026020010151610444565b915091506103f88484815181106103e9576103e861109a565b5b6020026020010151838361054c565b846001856104069190611066565b815181106104175761041661109a565b5b60200260200101818152505050508080610430906110c9565b915050610378565b50809150509392505050565b6000806000806104548686610880565b915091506000806104668985856108cb565b73ffffffffffffffffffffffffffffffffffffffff16630902f1ac6040518163ffffffff1660e01b81526004016060604051808303816000875af11580156104b2573d6000803e3d6000fd5b505050506040513d601f19601f820116820180604052508101906104d69190611174565b506dffffffffffffffffffffffffffff1691506dffffffffffffffffffffffffffff1691508373ffffffffffffffffffffffffffffffffffffffff168873ffffffffffffffffffffffffffffffffffffffff1614610535578082610538565b81815b809650819750505050505050935093915050565b6000808411610590576040517f08c379a000000000000000000000000000000000000000000000000000000000815260040161058790610e09565b60405180910390fd5b6000831180156105a05750600082115b6105df576040517f08c379a00000000000000000000000000000000000000000000000000000000081526004016105d690610e9b565b60405180910390fd5b60006103e885856105f09190610eea565b6105fa9190610eea565b905060006103e5868561060d9190611066565b6106179190610eea565b9050600181836106279190610fc9565b6106319190610f44565b925050509392505050565b6000808411610680576040517f08c379a000000000000000000000000000000000000000000000000000000000815260040161067790610e09565b60405180910390fd5b6000831180156106905750600082115b6106cf576040517f08c379a00000000000000000000000000000000000000000000000000000000081526004016106c690610e9b565b60405180910390fd5b8282856106dc9190610eea565b6106e69190610fc9565b90509392505050565b6060600282511015610736576040517f08c379a000000000000000000000000000000000000000000000000000000000815260040161072d90611046565b60405180910390fd5b6000825167ffffffffffffffff81111561075357610752610a78565b5b6040519080825280602002602001820160405280156107815781602001602082028036833780820191505090505b50905083816000815181106107995761079861109a565b5b60200260200101818152505060005b600184516107b69190611066565b8110156108745760008061080b888785815181106107d7576107d661109a565b5b6020026020010151886001876107ed9190610f44565b815181106107fe576107fd61109a565b5b6020026020010151610444565b915091506108348484815181106108255761082461109a565b5b602002602001015183836101b9565b846001856108429190610f44565b815181106108535761085261109a565b5b6020026020010181815250505050808061086c906111c7565b9150506107a8565b50809150509392505050565b6000808273ffffffffffffffffffffffffffffffffffffffff168473ffffffffffffffffffffffffffffffffffffffff16106108bd5782846108c0565b83835b915091509250929050565b60008060006108da8585610880565b915091508582826040516020016108f2929190611257565b60405160208183030381529060405280519060200120604051602001610919929190611351565b6040516020818303038152906040528051906020012060001c925050509392505050565b6000604051905090565b600080fd5b600080fd5b6000819050919050565b61096481610951565b811461096f57600080fd5b50565b6000813590506109818161095b565b92915050565b6000806000606084860312156109a05761099f610947565b5b60006109ae86828701610972565b93505060206109bf86828701610972565b92505060406109d086828701610972565b9150509250925092565b6109e381610951565b82525050565b60006020820190506109fe60008301846109da565b92915050565b600073ffffffffffffffffffffffffffffffffffffffff82169050919050565b6000610a2f82610a04565b9050919050565b610a3f81610a24565b8114610a4a57600080fd5b50565b600081359050610a5c81610a36565b92915050565b600080fd5b6000601f19601f8301169050919050565b7f4e487b7100000000000000000000000000000000000000000000000000000000600052604160045260246000fd5b610ab082610a67565b810181811067ffffffffffffffff82111715610acf57610ace610a78565b5b80604052505050565b6000610ae261093d565b9050610aee8282610aa7565b919050565b600067ffffffffffffffff821115610b0e57610b0d610a78565b5b602082029050602081019050919050565b600080fd5b6000610b37610b3284610af3565b610ad8565b90508083825260208201905060208402830185811115610b5a57610b59610b1f565b5b835b81811015610b835780610b6f8882610a4d565b845260208401935050602081019050610b5c565b5050509392505050565b600082601f830112610ba257610ba1610a62565b5b8135610bb2848260208601610b24565b91505092915050565b600080600060608486031215610bd457610bd3610947565b5b6000610be286828701610a4d565b9350506020610bf386828701610972565b925050604084013567ffffffffffffffff811115610c1457610c1361094c565b5b610c2086828701610b8d565b9150509250925092565b600081519050919050565b600082825260208201905092915050565b6000819050602082019050919050565b610c5f81610951565b82525050565b6000610c718383610c56565b60208301905092915050565b6000602082019050919050565b6000610c9582610c2a565b610c9f8185610c35565b9350610caa83610c46565b8060005b83811015610cdb578151610cc28882610c65565b9750610ccd83610c7d565b925050600181019050610cae565b5085935050505092915050565b60006020820190508181036000830152610d028184610c8a565b905092915050565b600080600060608486031215610d2357610d22610947565b5b6000610d3186828701610a4d565b9350506020610d4286828701610a4d565b9250506040610d5386828701610a4d565b9150509250925092565b6000604082019050610d7260008301856109da565b610d7f60208301846109da565b9392505050565b600082825260208201905092915050565b7f4b616a75737761704c6962726172793a20494e53554646494349454e545f414d60008201527f4f554e5400000000000000000000000000000000000000000000000000000000602082015250565b6000610df3602483610d86565b9150610dfe82610d97565b604082019050919050565b60006020820190508181036000830152610e2281610de6565b9050919050565b7f4b616a75737761704c6962726172793a20494e53554646494349454e545f4c4960008201527f5155494449545900000000000000000000000000000000000000000000000000602082015250565b6000610e85602783610d86565b9150610e9082610e29565b604082019050919050565b60006020820190508181036000830152610eb481610e78565b9050919050565b7f4e487b7100000000000000000000000000000000000000000000000000000000600052601160045260246000fd5b6000610ef582610951565b9150610f0083610951565b9250817fffffffffffffffffffffffffffffffffffffffffffffffffffffffffffffffff0483118215151615610f3957610f38610ebb565b5b828202905092915050565b6000610f4f82610951565b9150610f5a83610951565b9250827fffffffffffffffffffffffffffffffffffffffffffffffffffffffffffffffff03821115610f8f57610f8e610ebb565b5b828201905092915050565b7f4e487b7100000000000000000000000000000000000000000000000000000000600052601260045260246000fd5b6000610fd482610951565b9150610fdf83610951565b925082610fef57610fee610f9a565b5b828204905092915050565b7f4b616a75737761704c6962726172793a20494e56414c49445f50415448000000600082015250565b6000611030601d83610d86565b915061103b82610ffa565b602082019050919050565b6000602082019050818103600083015261105f81611023565b9050919050565b600061107182610951565b915061107c83610951565b92508282101561108f5761108e610ebb565b5b828203905092915050565b7f4e487b7100000000000000000000000000000000000000000000000000000000600052603260045260246000fd5b60006110d482610951565b9150600082036110e7576110e6610ebb565b5b600182039050919050565b60006dffffffffffffffffffffffffffff82169050919050565b611115816110f2565b811461112057600080fd5b50565b6000815190506111328161110c565b92915050565b600063ffffffff82169050919050565b61115181611138565b811461115c57600080fd5b50565b60008151905061116e81611148565b92915050565b60008060006060848603121561118d5761118c610947565b5b600061119b86828701611123565b93505060206111ac86828701611123565b92505060406111bd8682870161115f565b9150509250925092565b60006111d282610951565b91507fffffffffffffffffffffffffffffffffffffffffffffffffffffffffffffffff820361120457611203610ebb565b5b600182019050919050565b60008160601b9050919050565b60006112278261120f565b9050919050565b60006112398261121c565b9050919050565b61125161124c82610a24565b61122e565b82525050565b60006112638285611240565b6014820191506112738284611240565b6014820191508190509392505050565b600081905092915050565b7fff00000000000000000000000000000000000000000000000000000000000000600082015250565b60006112c4600183611283565b91506112cf8261128e565b600182019050919050565b6000819050919050565b6000819050919050565b6112ff6112fa826112da565b6112e4565b82525050565b7fb68fbba50ceb1571c8d495ec425ba3b90ece4d1440852fd428fdd1439ca5a1d8600082015250565b600061133b602083611283565b915061134682611305565b602082019050919050565b600061135c826112b7565b91506113688285611240565b60148201915061137882846112ee565b6020820191506113878261132e565b9150819050939250505056fea2646970667358221220c444d0bd6510e8084554fe57efa1843f51b60fa9b1dfd4d2667f7db75660a4c464736f6c634300080f0033",
					"opcodes": "PUSH2 0x13C9 PUSH2 0x53 PUSH1 0xB DUP3 DUP3 DUP3 CODECOPY DUP1 MLOAD PUSH1 0x0 BYTE PUSH1 0x73 EQ PUSH2 0x46 JUMPI PUSH32 0x4E487B7100000000000000000000000000000000000000000000000000000000 PUSH1 0x0 MSTORE PUSH1 0x0 PUSH1 0x4 MSTORE PUSH1 0x24 PUSH1 0x0 REVERT JUMPDEST ADDRESS PUSH1 0x0 MSTORE PUSH1 0x73 DUP2 MSTORE8 DUP3 DUP2 RETURN INVALID PUSH20 0x0 ADDRESS EQ PUSH1 0x80 PUSH1 0x40 MSTORE PUSH1 0x4 CALLDATASIZE LT PUSH2 0x6C JUMPI PUSH1 0x0 CALLDATALOAD PUSH1 0xE0 SHR DUP1 PUSH4 0x54D50D4 EQ PUSH2 0x71 JUMPI DUP1 PUSH4 0x192128B2 EQ PUSH2 0xA1 JUMPI DUP1 PUSH4 0x32749461 EQ PUSH2 0xDE JUMPI DUP1 PUSH4 0x85F8C259 EQ PUSH2 0x11C JUMPI DUP1 PUSH4 0xAD615DEC EQ PUSH2 0x14C JUMPI DUP1 PUSH4 0xBB7B9C76 EQ PUSH2 0x17C JUMPI JUMPDEST PUSH1 0x0 DUP1 REVERT JUMPDEST PUSH2 0x8B PUSH1 0x4 DUP1 CALLDATASIZE SUB DUP2 ADD SWAP1 PUSH2 0x86 SWAP2 SWAP1 PUSH2 0x987 JUMP JUMPDEST PUSH2 0x1B9 JUMP JUMPDEST PUSH1 0x40 MLOAD PUSH2 0x98 SWAP2 SWAP1 PUSH2 0x9E9 JUMP JUMPDEST PUSH1 0x40 MLOAD DUP1 SWAP2 SUB SWAP1 RETURN JUMPDEST DUP2 DUP1 ISZERO PUSH2 0xAD JUMPI PUSH1 0x0 DUP1 REVERT JUMPDEST POP PUSH2 0xC8 PUSH1 0x4 DUP1 CALLDATASIZE SUB DUP2 ADD SWAP1 PUSH2 0xC3 SWAP2 SWAP1 PUSH2 0xBBB JUMP JUMPDEST PUSH2 0x2A3 JUMP JUMPDEST PUSH1 0x40 MLOAD PUSH2 0xD5 SWAP2 SWAP1 PUSH2 0xCE8 JUMP JUMPDEST PUSH1 0x40 MLOAD DUP1 SWAP2 SUB SWAP1 RETURN JUMPDEST DUP2 DUP1 ISZERO PUSH2 0xEA JUMPI PUSH1 0x0 DUP1 REVERT JUMPDEST POP PUSH2 0x105 PUSH1 0x4 DUP1 CALLDATASIZE SUB DUP2 ADD SWAP1 PUSH2 0x100 SWAP2 SWAP1 PUSH2 0xD0A JUMP JUMPDEST PUSH2 0x444 JUMP JUMPDEST PUSH1 0x40 MLOAD PUSH2 0x113 SWAP3 SWAP2 SWAP1 PUSH2 0xD5D JUMP JUMPDEST PUSH1 0x40 MLOAD DUP1 SWAP2 SUB SWAP1 RETURN JUMPDEST PUSH2 0x136 PUSH1 0x4 DUP1 CALLDATASIZE SUB DUP2 ADD SWAP1 PUSH2 0x131 SWAP2 SWAP1 PUSH2 0x987 JUMP JUMPDEST PUSH2 0x54C JUMP JUMPDEST PUSH1 0x40 MLOAD PUSH2 0x143 SWAP2 SWAP1 PUSH2 0x9E9 JUMP JUMPDEST PUSH1 0x40 MLOAD DUP1 SWAP2 SUB SWAP1 RETURN JUMPDEST PUSH2 0x166 PUSH1 0x4 DUP1 CALLDATASIZE SUB DUP2 ADD SWAP1 PUSH2 0x161 SWAP2 SWAP1 PUSH2 0x987 JUMP JUMPDEST PUSH2 0x63C JUMP JUMPDEST PUSH1 0x40 MLOAD PUSH2 0x173 SWAP2 SWAP1 PUSH2 0x9E9 JUMP JUMPDEST PUSH1 0x40 MLOAD DUP1 SWAP2 SUB SWAP1 RETURN JUMPDEST DUP2 DUP1 ISZERO PUSH2 0x188 JUMPI PUSH1 0x0 DUP1 REVERT JUMPDEST POP PUSH2 0x1A3 PUSH1 0x4 DUP1 CALLDATASIZE SUB DUP2 ADD SWAP1 PUSH2 0x19E SWAP2 SWAP1 PUSH2 0xBBB JUMP JUMPDEST PUSH2 0x6EF JUMP JUMPDEST PUSH1 0x40 MLOAD PUSH2 0x1B0 SWAP2 SWAP1 PUSH2 0xCE8 JUMP JUMPDEST PUSH1 0x40 MLOAD DUP1 SWAP2 SUB SWAP1 RETURN JUMPDEST PUSH1 0x0 DUP1 DUP5 GT PUSH2 0x1FD JUMPI PUSH1 0x40 MLOAD PUSH32 0x8C379A000000000000000000000000000000000000000000000000000000000 DUP2 MSTORE PUSH1 0x4 ADD PUSH2 0x1F4 SWAP1 PUSH2 0xE09 JUMP JUMPDEST PUSH1 0x40 MLOAD DUP1 SWAP2 SUB SWAP1 REVERT JUMPDEST PUSH1 0x0 DUP4 GT DUP1 ISZERO PUSH2 0x20D JUMPI POP PUSH1 0x0 DUP3 GT JUMPDEST PUSH2 0x24C JUMPI PUSH1 0x40 MLOAD PUSH32 0x8C379A000000000000000000000000000000000000000000000000000000000 DUP2 MSTORE PUSH1 0x4 ADD PUSH2 0x243 SWAP1 PUSH2 0xE9B JUMP JUMPDEST PUSH1 0x40 MLOAD DUP1 SWAP2 SUB SWAP1 REVERT JUMPDEST PUSH1 0x0 PUSH2 0x3E5 DUP6 PUSH2 0x25C SWAP2 SWAP1 PUSH2 0xEEA JUMP JUMPDEST SWAP1 POP PUSH1 0x0 DUP4 DUP3 PUSH2 0x26C SWAP2 SWAP1 PUSH2 0xEEA JUMP JUMPDEST SWAP1 POP PUSH1 0x0 DUP3 PUSH2 0x3E8 DUP8 PUSH2 0x27F SWAP2 SWAP1 PUSH2 0xEEA JUMP JUMPDEST PUSH2 0x289 SWAP2 SWAP1 PUSH2 0xF44 JUMP JUMPDEST SWAP1 POP DUP1 DUP3 PUSH2 0x297 SWAP2 SWAP1 PUSH2 0xFC9 JUMP JUMPDEST SWAP4 POP POP POP POP SWAP4 SWAP3 POP POP POP JUMP JUMPDEST PUSH1 0x60 PUSH1 0x2 DUP3 MLOAD LT ISZERO PUSH2 0x2EA JUMPI PUSH1 0x40 MLOAD PUSH32 0x8C379A000000000000000000000000000000000000000000000000000000000 DUP2 MSTORE PUSH1 0x4 ADD PUSH2 0x2E1 SWAP1 PUSH2 0x1046 JUMP JUMPDEST PUSH1 0x40 MLOAD DUP1 SWAP2 SUB SWAP1 REVERT JUMPDEST PUSH1 0x0 DUP3 MLOAD PUSH8 0xFFFFFFFFFFFFFFFF DUP2 GT ISZERO PUSH2 0x307 JUMPI PUSH2 0x306 PUSH2 0xA78 JUMP JUMPDEST JUMPDEST PUSH1 0x40 MLOAD SWAP1 DUP1 DUP3 MSTORE DUP1 PUSH1 0x20 MUL PUSH1 0x20 ADD DUP3 ADD PUSH1 0x40 MSTORE DUP1 ISZERO PUSH2 0x335 JUMPI DUP2 PUSH1 0x20 ADD PUSH1 0x20 DUP3 MUL DUP1 CALLDATASIZE DUP4 CALLDATACOPY DUP1 DUP3 ADD SWAP2 POP POP SWAP1 POP JUMPDEST POP SWAP1 POP DUP4 DUP2 PUSH1 0x1 DUP4 MLOAD PUSH2 0x348 SWAP2 SWAP1 PUSH2 0x1066 JUMP JUMPDEST DUP2 MLOAD DUP2 LT PUSH2 0x359 JUMPI PUSH2 0x358 PUSH2 0x109A JUMP JUMPDEST JUMPDEST PUSH1 0x20 MUL PUSH1 0x20 ADD ADD DUP2 DUP2 MSTORE POP POP PUSH1 0x0 PUSH1 0x1 DUP5 MLOAD PUSH2 0x375 SWAP2 SWAP1 PUSH2 0x1066 JUMP JUMPDEST SWAP1 POP JUMPDEST PUSH1 0x0 DUP2 GT ISZERO PUSH2 0x438 JUMPI PUSH1 0x0 DUP1 PUSH2 0x3CF DUP9 DUP8 PUSH1 0x1 DUP7 PUSH2 0x396 SWAP2 SWAP1 PUSH2 0x1066 JUMP JUMPDEST DUP2 MLOAD DUP2 LT PUSH2 0x3A7 JUMPI PUSH2 0x3A6 PUSH2 0x109A JUMP JUMPDEST JUMPDEST PUSH1 0x20 MUL PUSH1 0x20 ADD ADD MLOAD DUP9 DUP7 DUP2 MLOAD DUP2 LT PUSH2 0x3C2 JUMPI PUSH2 0x3C1 PUSH2 0x109A JUMP JUMPDEST JUMPDEST PUSH1 0x20 MUL PUSH1 0x20 ADD ADD MLOAD PUSH2 0x444 JUMP JUMPDEST SWAP2 POP SWAP2 POP PUSH2 0x3F8 DUP5 DUP5 DUP2 MLOAD DUP2 LT PUSH2 0x3E9 JUMPI PUSH2 0x3E8 PUSH2 0x109A JUMP JUMPDEST JUMPDEST PUSH1 0x20 MUL PUSH1 0x20 ADD ADD MLOAD DUP4 DUP4 PUSH2 0x54C JUMP JUMPDEST DUP5 PUSH1 0x1 DUP6 PUSH2 0x406 SWAP2 SWAP1 PUSH2 0x1066 JUMP JUMPDEST DUP2 MLOAD DUP2 LT PUSH2 0x417 JUMPI PUSH2 0x416 PUSH2 0x109A JUMP JUMPDEST JUMPDEST PUSH1 0x20 MUL PUSH1 0x20 ADD ADD DUP2 DUP2 MSTORE POP POP POP POP DUP1 DUP1 PUSH2 0x430 SWAP1 PUSH2 0x10C9 JUMP JUMPDEST SWAP2 POP POP PUSH2 0x378 JUMP JUMPDEST POP DUP1 SWAP2 POP POP SWAP4 SWAP3 POP POP POP JUMP JUMPDEST PUSH1 0x0 DUP1 PUSH1 0x0 DUP1 PUSH2 0x454 DUP7 DUP7 PUSH2 0x880 JUMP JUMPDEST SWAP2 POP SWAP2 POP PUSH1 0x0 DUP1 PUSH2 0x466 DUP10 DUP6 DUP6 PUSH2 0x8CB JUMP JUMPDEST PUSH20 0xFFFFFFFFFFFFFFFFFFFFFFFFFFFFFFFFFFFFFFFF AND PUSH4 0x902F1AC PUSH1 0x40 MLOAD DUP2 PUSH4 0xFFFFFFFF AND PUSH1 0xE0 SHL DUP2 MSTORE PUSH1 0x4 ADD PUSH1 0x60 PUSH1 0x40 MLOAD DUP1 DUP4 SUB DUP2 PUSH1 0x0 DUP8 GAS CALL ISZERO DUP1 ISZERO PUSH2 0x4B2 JUMPI RETURNDATASIZE PUSH1 0x0 DUP1 RETURNDATACOPY RETURNDATASIZE PUSH1 0x0 REVERT JUMPDEST POP POP POP POP PUSH1 0x40 MLOAD RETURNDATASIZE PUSH1 0x1F NOT PUSH1 0x1F DUP3 ADD AND DUP3 ADD DUP1 PUSH1 0x40 MSTORE POP DUP2 ADD SWAP1 PUSH2 0x4D6 SWAP2 SWAP1 PUSH2 0x1174 JUMP JUMPDEST POP PUSH14 0xFFFFFFFFFFFFFFFFFFFFFFFFFFFF AND SWAP2 POP PUSH14 0xFFFFFFFFFFFFFFFFFFFFFFFFFFFF AND SWAP2 POP DUP4 PUSH20 0xFFFFFFFFFFFFFFFFFFFFFFFFFFFFFFFFFFFFFFFF AND DUP9 PUSH20 0xFFFFFFFFFFFFFFFFFFFFFFFFFFFFFFFFFFFFFFFF AND EQ PUSH2 0x535 JUMPI DUP1 DUP3 PUSH2 0x538 JUMP JUMPDEST DUP2 DUP2 JUMPDEST DUP1 SWAP7 POP DUP2 SWAP8 POP POP POP POP POP POP POP SWAP4 POP SWAP4 SWAP2 POP POP JUMP JUMPDEST PUSH1 0x0 DUP1 DUP5 GT PUSH2 0x590 JUMPI PUSH1 0x40 MLOAD PUSH32 0x8C379A000000000000000000000000000000000000000000000000000000000 DUP2 MSTORE PUSH1 0x4 ADD PUSH2 0x587 SWAP1 PUSH2 0xE09 JUMP JUMPDEST PUSH1 0x40 MLOAD DUP1 SWAP2 SUB SWAP1 REVERT JUMPDEST PUSH1 0x0 DUP4 GT DUP1 ISZERO PUSH2 0x5A0 JUMPI POP PUSH1 0x0 DUP3 GT JUMPDEST PUSH2 0x5DF JUMPI PUSH1 0x40 MLOAD PUSH32 0x8C379A000000000000000000000000000000000000000000000000000000000 DUP2 MSTORE PUSH1 0x4 ADD PUSH2 0x5D6 SWAP1 PUSH2 0xE9B JUMP JUMPDEST PUSH1 0x40 MLOAD DUP1 SWAP2 SUB SWAP1 REVERT JUMPDEST PUSH1 0x0 PUSH2 0x3E8 DUP6 DUP6 PUSH2 0x5F0 SWAP2 SWAP1 PUSH2 0xEEA JUMP JUMPDEST PUSH2 0x5FA SWAP2 SWAP1 PUSH2 0xEEA JUMP JUMPDEST SWAP1 POP PUSH1 0x0 PUSH2 0x3E5 DUP7 DUP6 PUSH2 0x60D SWAP2 SWAP1 PUSH2 0x1066 JUMP JUMPDEST PUSH2 0x617 SWAP2 SWAP1 PUSH2 0xEEA JUMP JUMPDEST SWAP1 POP PUSH1 0x1 DUP2 DUP4 PUSH2 0x627 SWAP2 SWAP1 PUSH2 0xFC9 JUMP JUMPDEST PUSH2 0x631 SWAP2 SWAP1 PUSH2 0xF44 JUMP JUMPDEST SWAP3 POP POP POP SWAP4 SWAP3 POP POP POP JUMP JUMPDEST PUSH1 0x0 DUP1 DUP5 GT PUSH2 0x680 JUMPI PUSH1 0x40 MLOAD PUSH32 0x8C379A000000000000000000000000000000000000000000000000000000000 DUP2 MSTORE PUSH1 0x4 ADD PUSH2 0x677 SWAP1 PUSH2 0xE09 JUMP JUMPDEST PUSH1 0x40 MLOAD DUP1 SWAP2 SUB SWAP1 REVERT JUMPDEST PUSH1 0x0 DUP4 GT DUP1 ISZERO PUSH2 0x690 JUMPI POP PUSH1 0x0 DUP3 GT JUMPDEST PUSH2 0x6CF JUMPI PUSH1 0x40 MLOAD PUSH32 0x8C379A000000000000000000000000000000000000000000000000000000000 DUP2 MSTORE PUSH1 0x4 ADD PUSH2 0x6C6 SWAP1 PUSH2 0xE9B JUMP JUMPDEST PUSH1 0x40 MLOAD DUP1 SWAP2 SUB SWAP1 REVERT JUMPDEST DUP3 DUP3 DUP6 PUSH2 0x6DC SWAP2 SWAP1 PUSH2 0xEEA JUMP JUMPDEST PUSH2 0x6E6 SWAP2 SWAP1 PUSH2 0xFC9 JUMP JUMPDEST SWAP1 POP SWAP4 SWAP3 POP POP POP JUMP JUMPDEST PUSH1 0x60 PUSH1 0x2 DUP3 MLOAD LT ISZERO PUSH2 0x736 JUMPI PUSH1 0x40 MLOAD PUSH32 0x8C379A000000000000000000000000000000000000000000000000000000000 DUP2 MSTORE PUSH1 0x4 ADD PUSH2 0x72D SWAP1 PUSH2 0x1046 JUMP JUMPDEST PUSH1 0x40 MLOAD DUP1 SWAP2 SUB SWAP1 REVERT JUMPDEST PUSH1 0x0 DUP3 MLOAD PUSH8 0xFFFFFFFFFFFFFFFF DUP2 GT ISZERO PUSH2 0x753 JUMPI PUSH2 0x752 PUSH2 0xA78 JUMP JUMPDEST JUMPDEST PUSH1 0x40 MLOAD SWAP1 DUP1 DUP3 MSTORE DUP1 PUSH1 0x20 MUL PUSH1 0x20 ADD DUP3 ADD PUSH1 0x40 MSTORE DUP1 ISZERO PUSH2 0x781 JUMPI DUP2 PUSH1 0x20 ADD PUSH1 0x20 DUP3 MUL DUP1 CALLDATASIZE DUP4 CALLDATACOPY DUP1 DUP3 ADD SWAP2 POP POP SWAP1 POP JUMPDEST POP SWAP1 POP DUP4 DUP2 PUSH1 0x0 DUP2 MLOAD DUP2 LT PUSH2 0x799 JUMPI PUSH2 0x798 PUSH2 0x109A JUMP JUMPDEST JUMPDEST PUSH1 0x20 MUL PUSH1 0x20 ADD ADD DUP2 DUP2 MSTORE POP POP PUSH1 0x0 JUMPDEST PUSH1 0x1 DUP5 MLOAD PUSH2 0x7B6 SWAP2 SWAP1 PUSH2 0x1066 JUMP JUMPDEST DUP2 LT ISZERO PUSH2 0x874 JUMPI PUSH1 0x0 DUP1 PUSH2 0x80B DUP9 DUP8 DUP6 DUP2 MLOAD DUP2 LT PUSH2 0x7D7 JUMPI PUSH2 0x7D6 PUSH2 0x109A JUMP JUMPDEST JUMPDEST PUSH1 0x20 MUL PUSH1 0x20 ADD ADD MLOAD DUP9 PUSH1 0x1 DUP8 PUSH2 0x7ED SWAP2 SWAP1 PUSH2 0xF44 JUMP JUMPDEST DUP2 MLOAD DUP2 LT PUSH2 0x7FE JUMPI PUSH2 0x7FD PUSH2 0x109A JUMP JUMPDEST JUMPDEST PUSH1 0x20 MUL PUSH1 0x20 ADD ADD MLOAD PUSH2 0x444 JUMP JUMPDEST SWAP2 POP SWAP2 POP PUSH2 0x834 DUP5 DUP5 DUP2 MLOAD DUP2 LT PUSH2 0x825 JUMPI PUSH2 0x824 PUSH2 0x109A JUMP JUMPDEST JUMPDEST PUSH1 0x20 MUL PUSH1 0x20 ADD ADD MLOAD DUP4 DUP4 PUSH2 0x1B9 JUMP JUMPDEST DUP5 PUSH1 0x1 DUP6 PUSH2 0x842 SWAP2 SWAP1 PUSH2 0xF44 JUMP JUMPDEST DUP2 MLOAD DUP2 LT PUSH2 0x853 JUMPI PUSH2 0x852 PUSH2 0x109A JUMP JUMPDEST JUMPDEST PUSH1 0x20 MUL PUSH1 0x20 ADD ADD DUP2 DUP2 MSTORE POP POP POP POP DUP1 DUP1 PUSH2 0x86C SWAP1 PUSH2 0x11C7 JUMP JUMPDEST SWAP2 POP POP PUSH2 0x7A8 JUMP JUMPDEST POP DUP1 SWAP2 POP POP SWAP4 SWAP3 POP POP POP JUMP JUMPDEST PUSH1 0x0 DUP1 DUP3 PUSH20 0xFFFFFFFFFFFFFFFFFFFFFFFFFFFFFFFFFFFFFFFF AND DUP5 PUSH20 0xFFFFFFFFFFFFFFFFFFFFFFFFFFFFFFFFFFFFFFFF AND LT PUSH2 0x8BD JUMPI DUP3 DUP5 PUSH2 0x8C0 JUMP JUMPDEST DUP4 DUP4 JUMPDEST SWAP2 POP SWAP2 POP SWAP3 POP SWAP3 SWAP1 POP JUMP JUMPDEST PUSH1 0x0 DUP1 PUSH1 0x0 PUSH2 0x8DA DUP6 DUP6 PUSH2 0x880 JUMP JUMPDEST SWAP2 POP SWAP2 POP DUP6 DUP3 DUP3 PUSH1 0x40 MLOAD PUSH1 0x20 ADD PUSH2 0x8F2 SWAP3 SWAP2 SWAP1 PUSH2 0x1257 JUMP JUMPDEST PUSH1 0x40 MLOAD PUSH1 0x20 DUP2 DUP4 SUB SUB DUP2 MSTORE SWAP1 PUSH1 0x40 MSTORE DUP1 MLOAD SWAP1 PUSH1 0x20 ADD KECCAK256 PUSH1 0x40 MLOAD PUSH1 0x20 ADD PUSH2 0x919 SWAP3 SWAP2 SWAP1 PUSH2 0x1351 JUMP JUMPDEST PUSH1 0x40 MLOAD PUSH1 0x20 DUP2 DUP4 SUB SUB DUP2 MSTORE SWAP1 PUSH1 0x40 MSTORE DUP1 MLOAD SWAP1 PUSH1 0x20 ADD KECCAK256 PUSH1 0x0 SHR SWAP3 POP POP POP SWAP4 SWAP3 POP POP POP JUMP JUMPDEST PUSH1 0x0 PUSH1 0x40 MLOAD SWAP1 POP SWAP1 JUMP JUMPDEST PUSH1 0x0 DUP1 REVERT JUMPDEST PUSH1 0x0 DUP1 REVERT JUMPDEST PUSH1 0x0 DUP2 SWAP1 POP SWAP2 SWAP1 POP JUMP JUMPDEST PUSH2 0x964 DUP2 PUSH2 0x951 JUMP JUMPDEST DUP2 EQ PUSH2 0x96F JUMPI PUSH1 0x0 DUP1 REVERT JUMPDEST POP JUMP JUMPDEST PUSH1 0x0 DUP2 CALLDATALOAD SWAP1 POP PUSH2 0x981 DUP2 PUSH2 0x95B JUMP JUMPDEST SWAP3 SWAP2 POP POP JUMP JUMPDEST PUSH1 0x0 DUP1 PUSH1 0x0 PUSH1 0x60 DUP5 DUP7 SUB SLT ISZERO PUSH2 0x9A0 JUMPI PUSH2 0x99F PUSH2 0x947 JUMP JUMPDEST JUMPDEST PUSH1 0x0 PUSH2 0x9AE DUP7 DUP3 DUP8 ADD PUSH2 0x972 JUMP JUMPDEST SWAP4 POP POP PUSH1 0x20 PUSH2 0x9BF DUP7 DUP3 DUP8 ADD PUSH2 0x972 JUMP JUMPDEST SWAP3 POP POP PUSH1 0x40 PUSH2 0x9D0 DUP7 DUP3 DUP8 ADD PUSH2 0x972 JUMP JUMPDEST SWAP2 POP POP SWAP3 POP SWAP3 POP SWAP3 JUMP JUMPDEST PUSH2 0x9E3 DUP2 PUSH2 0x951 JUMP JUMPDEST DUP3 MSTORE POP POP JUMP JUMPDEST PUSH1 0x0 PUSH1 0x20 DUP3 ADD SWAP1 POP PUSH2 0x9FE PUSH1 0x0 DUP4 ADD DUP5 PUSH2 0x9DA JUMP JUMPDEST SWAP3 SWAP2 POP POP JUMP JUMPDEST PUSH1 0x0 PUSH20 0xFFFFFFFFFFFFFFFFFFFFFFFFFFFFFFFFFFFFFFFF DUP3 AND SWAP1 POP SWAP2 SWAP1 POP JUMP JUMPDEST PUSH1 0x0 PUSH2 0xA2F DUP3 PUSH2 0xA04 JUMP JUMPDEST SWAP1 POP SWAP2 SWAP1 POP JUMP JUMPDEST PUSH2 0xA3F DUP2 PUSH2 0xA24 JUMP JUMPDEST DUP2 EQ PUSH2 0xA4A JUMPI PUSH1 0x0 DUP1 REVERT JUMPDEST POP JUMP JUMPDEST PUSH1 0x0 DUP2 CALLDATALOAD SWAP1 POP PUSH2 0xA5C DUP2 PUSH2 0xA36 JUMP JUMPDEST SWAP3 SWAP2 POP POP JUMP JUMPDEST PUSH1 0x0 DUP1 REVERT JUMPDEST PUSH1 0x0 PUSH1 0x1F NOT PUSH1 0x1F DUP4 ADD AND SWAP1 POP SWAP2 SWAP1 POP JUMP JUMPDEST PUSH32 0x4E487B7100000000000000000000000000000000000000000000000000000000 PUSH1 0x0 MSTORE PUSH1 0x41 PUSH1 0x4 MSTORE PUSH1 0x24 PUSH1 0x0 REVERT JUMPDEST PUSH2 0xAB0 DUP3 PUSH2 0xA67 JUMP JUMPDEST DUP2 ADD DUP2 DUP2 LT PUSH8 0xFFFFFFFFFFFFFFFF DUP3 GT OR ISZERO PUSH2 0xACF JUMPI PUSH2 0xACE PUSH2 0xA78 JUMP JUMPDEST JUMPDEST DUP1 PUSH1 0x40 MSTORE POP POP POP JUMP JUMPDEST PUSH1 0x0 PUSH2 0xAE2 PUSH2 0x93D JUMP JUMPDEST SWAP1 POP PUSH2 0xAEE DUP3 DUP3 PUSH2 0xAA7 JUMP JUMPDEST SWAP2 SWAP1 POP JUMP JUMPDEST PUSH1 0x0 PUSH8 0xFFFFFFFFFFFFFFFF DUP3 GT ISZERO PUSH2 0xB0E JUMPI PUSH2 0xB0D PUSH2 0xA78 JUMP JUMPDEST JUMPDEST PUSH1 0x20 DUP3 MUL SWAP1 POP PUSH1 0x20 DUP2 ADD SWAP1 POP SWAP2 SWAP1 POP JUMP JUMPDEST PUSH1 0x0 DUP1 REVERT JUMPDEST PUSH1 0x0 PUSH2 0xB37 PUSH2 0xB32 DUP5 PUSH2 0xAF3 JUMP JUMPDEST PUSH2 0xAD8 JUMP JUMPDEST SWAP1 POP DUP1 DUP4 DUP3 MSTORE PUSH1 0x20 DUP3 ADD SWAP1 POP PUSH1 0x20 DUP5 MUL DUP4 ADD DUP6 DUP2 GT ISZERO PUSH2 0xB5A JUMPI PUSH2 0xB59 PUSH2 0xB1F JUMP JUMPDEST JUMPDEST DUP4 JUMPDEST DUP2 DUP2 LT ISZERO PUSH2 0xB83 JUMPI DUP1 PUSH2 0xB6F DUP9 DUP3 PUSH2 0xA4D JUMP JUMPDEST DUP5 MSTORE PUSH1 0x20 DUP5 ADD SWAP4 POP POP PUSH1 0x20 DUP2 ADD SWAP1 POP PUSH2 0xB5C JUMP JUMPDEST POP POP POP SWAP4 SWAP3 POP POP POP JUMP JUMPDEST PUSH1 0x0 DUP3 PUSH1 0x1F DUP4 ADD SLT PUSH2 0xBA2 JUMPI PUSH2 0xBA1 PUSH2 0xA62 JUMP JUMPDEST JUMPDEST DUP2 CALLDATALOAD PUSH2 0xBB2 DUP5 DUP3 PUSH1 0x20 DUP7 ADD PUSH2 0xB24 JUMP JUMPDEST SWAP2 POP POP SWAP3 SWAP2 POP POP JUMP JUMPDEST PUSH1 0x0 DUP1 PUSH1 0x0 PUSH1 0x60 DUP5 DUP7 SUB SLT ISZERO PUSH2 0xBD4 JUMPI PUSH2 0xBD3 PUSH2 0x947 JUMP JUMPDEST JUMPDEST PUSH1 0x0 PUSH2 0xBE2 DUP7 DUP3 DUP8 ADD PUSH2 0xA4D JUMP JUMPDEST SWAP4 POP POP PUSH1 0x20 PUSH2 0xBF3 DUP7 DUP3 DUP8 ADD PUSH2 0x972 JUMP JUMPDEST SWAP3 POP POP PUSH1 0x40 DUP5 ADD CALLDATALOAD PUSH8 0xFFFFFFFFFFFFFFFF DUP2 GT ISZERO PUSH2 0xC14 JUMPI PUSH2 0xC13 PUSH2 0x94C JUMP JUMPDEST JUMPDEST PUSH2 0xC20 DUP7 DUP3 DUP8 ADD PUSH2 0xB8D JUMP JUMPDEST SWAP2 POP POP SWAP3 POP SWAP3 POP SWAP3 JUMP JUMPDEST PUSH1 0x0 DUP2 MLOAD SWAP1 POP SWAP2 SWAP1 POP JUMP JUMPDEST PUSH1 0x0 DUP3 DUP3 MSTORE PUSH1 0x20 DUP3 ADD SWAP1 POP SWAP3 SWAP2 POP POP JUMP JUMPDEST PUSH1 0x0 DUP2 SWAP1 POP PUSH1 0x20 DUP3 ADD SWAP1 POP SWAP2 SWAP1 POP JUMP JUMPDEST PUSH2 0xC5F DUP2 PUSH2 0x951 JUMP JUMPDEST DUP3 MSTORE POP POP JUMP JUMPDEST PUSH1 0x0 PUSH2 0xC71 DUP4 DUP4 PUSH2 0xC56 JUMP JUMPDEST PUSH1 0x20 DUP4 ADD SWAP1 POP SWAP3 SWAP2 POP POP JUMP JUMPDEST PUSH1 0x0 PUSH1 0x20 DUP3 ADD SWAP1 POP SWAP2 SWAP1 POP JUMP JUMPDEST PUSH1 0x0 PUSH2 0xC95 DUP3 PUSH2 0xC2A JUMP JUMPDEST PUSH2 0xC9F DUP2 DUP6 PUSH2 0xC35 JUMP JUMPDEST SWAP4 POP PUSH2 0xCAA DUP4 PUSH2 0xC46 JUMP JUMPDEST DUP1 PUSH1 0x0 JUMPDEST DUP4 DUP2 LT ISZERO PUSH2 0xCDB JUMPI DUP2 MLOAD PUSH2 0xCC2 DUP9 DUP3 PUSH2 0xC65 JUMP JUMPDEST SWAP8 POP PUSH2 0xCCD DUP4 PUSH2 0xC7D JUMP JUMPDEST SWAP3 POP POP PUSH1 0x1 DUP2 ADD SWAP1 POP PUSH2 0xCAE JUMP JUMPDEST POP DUP6 SWAP4 POP POP POP POP SWAP3 SWAP2 POP POP JUMP JUMPDEST PUSH1 0x0 PUSH1 0x20 DUP3 ADD SWAP1 POP DUP2 DUP2 SUB PUSH1 0x0 DUP4 ADD MSTORE PUSH2 0xD02 DUP2 DUP5 PUSH2 0xC8A JUMP JUMPDEST SWAP1 POP SWAP3 SWAP2 POP POP JUMP JUMPDEST PUSH1 0x0 DUP1 PUSH1 0x0 PUSH1 0x60 DUP5 DUP7 SUB SLT ISZERO PUSH2 0xD23 JUMPI PUSH2 0xD22 PUSH2 0x947 JUMP JUMPDEST JUMPDEST PUSH1 0x0 PUSH2 0xD31 DUP7 DUP3 DUP8 ADD PUSH2 0xA4D JUMP JUMPDEST SWAP4 POP POP PUSH1 0x20 PUSH2 0xD42 DUP7 DUP3 DUP8 ADD PUSH2 0xA4D JUMP JUMPDEST SWAP3 POP POP PUSH1 0x40 PUSH2 0xD53 DUP7 DUP3 DUP8 ADD PUSH2 0xA4D JUMP JUMPDEST SWAP2 POP POP SWAP3 POP SWAP3 POP SWAP3 JUMP JUMPDEST PUSH1 0x0 PUSH1 0x40 DUP3 ADD SWAP1 POP PUSH2 0xD72 PUSH1 0x0 DUP4 ADD DUP6 PUSH2 0x9DA JUMP JUMPDEST PUSH2 0xD7F PUSH1 0x20 DUP4 ADD DUP5 PUSH2 0x9DA JUMP JUMPDEST SWAP4 SWAP3 POP POP POP JUMP JUMPDEST PUSH1 0x0 DUP3 DUP3 MSTORE PUSH1 0x20 DUP3 ADD SWAP1 POP SWAP3 SWAP2 POP POP JUMP JUMPDEST PUSH32 0x4B616A75737761704C6962726172793A20494E53554646494349454E545F414D PUSH1 0x0 DUP3 ADD MSTORE PUSH32 0x4F554E5400000000000000000000000000000000000000000000000000000000 PUSH1 0x20 DUP3 ADD MSTORE POP JUMP JUMPDEST PUSH1 0x0 PUSH2 0xDF3 PUSH1 0x24 DUP4 PUSH2 0xD86 JUMP JUMPDEST SWAP2 POP PUSH2 0xDFE DUP3 PUSH2 0xD97 JUMP JUMPDEST PUSH1 0x40 DUP3 ADD SWAP1 POP SWAP2 SWAP1 POP JUMP JUMPDEST PUSH1 0x0 PUSH1 0x20 DUP3 ADD SWAP1 POP DUP2 DUP2 SUB PUSH1 0x0 DUP4 ADD MSTORE PUSH2 0xE22 DUP2 PUSH2 0xDE6 JUMP JUMPDEST SWAP1 POP SWAP2 SWAP1 POP JUMP JUMPDEST PUSH32 0x4B616A75737761704C6962726172793A20494E53554646494349454E545F4C49 PUSH1 0x0 DUP3 ADD MSTORE PUSH32 0x5155494449545900000000000000000000000000000000000000000000000000 PUSH1 0x20 DUP3 ADD MSTORE POP JUMP JUMPDEST PUSH1 0x0 PUSH2 0xE85 PUSH1 0x27 DUP4 PUSH2 0xD86 JUMP JUMPDEST SWAP2 POP PUSH2 0xE90 DUP3 PUSH2 0xE29 JUMP JUMPDEST PUSH1 0x40 DUP3 ADD SWAP1 POP SWAP2 SWAP1 POP JUMP JUMPDEST PUSH1 0x0 PUSH1 0x20 DUP3 ADD SWAP1 POP DUP2 DUP2 SUB PUSH1 0x0 DUP4 ADD MSTORE PUSH2 0xEB4 DUP2 PUSH2 0xE78 JUMP JUMPDEST SWAP1 POP SWAP2 SWAP1 POP JUMP JUMPDEST PUSH32 0x4E487B7100000000000000000000000000000000000000000000000000000000 PUSH1 0x0 MSTORE PUSH1 0x11 PUSH1 0x4 MSTORE PUSH1 0x24 PUSH1 0x0 REVERT JUMPDEST PUSH1 0x0 PUSH2 0xEF5 DUP3 PUSH2 0x951 JUMP JUMPDEST SWAP2 POP PUSH2 0xF00 DUP4 PUSH2 0x951 JUMP JUMPDEST SWAP3 POP DUP2 PUSH32 0xFFFFFFFFFFFFFFFFFFFFFFFFFFFFFFFFFFFFFFFFFFFFFFFFFFFFFFFFFFFFFFFF DIV DUP4 GT DUP3 ISZERO ISZERO AND ISZERO PUSH2 0xF39 JUMPI PUSH2 0xF38 PUSH2 0xEBB JUMP JUMPDEST JUMPDEST DUP3 DUP3 MUL SWAP1 POP SWAP3 SWAP2 POP POP JUMP JUMPDEST PUSH1 0x0 PUSH2 0xF4F DUP3 PUSH2 0x951 JUMP JUMPDEST SWAP2 POP PUSH2 0xF5A DUP4 PUSH2 0x951 JUMP JUMPDEST SWAP3 POP DUP3 PUSH32 0xFFFFFFFFFFFFFFFFFFFFFFFFFFFFFFFFFFFFFFFFFFFFFFFFFFFFFFFFFFFFFFFF SUB DUP3 GT ISZERO PUSH2 0xF8F JUMPI PUSH2 0xF8E PUSH2 0xEBB JUMP JUMPDEST JUMPDEST DUP3 DUP3 ADD SWAP1 POP SWAP3 SWAP2 POP POP JUMP JUMPDEST PUSH32 0x4E487B7100000000000000000000000000000000000000000000000000000000 PUSH1 0x0 MSTORE PUSH1 0x12 PUSH1 0x4 MSTORE PUSH1 0x24 PUSH1 0x0 REVERT JUMPDEST PUSH1 0x0 PUSH2 0xFD4 DUP3 PUSH2 0x951 JUMP JUMPDEST SWAP2 POP PUSH2 0xFDF DUP4 PUSH2 0x951 JUMP JUMPDEST SWAP3 POP DUP3 PUSH2 0xFEF JUMPI PUSH2 0xFEE PUSH2 0xF9A JUMP JUMPDEST JUMPDEST DUP3 DUP3 DIV SWAP1 POP SWAP3 SWAP2 POP POP JUMP JUMPDEST PUSH32 0x4B616A75737761704C6962726172793A20494E56414C49445F50415448000000 PUSH1 0x0 DUP3 ADD MSTORE POP JUMP JUMPDEST PUSH1 0x0 PUSH2 0x1030 PUSH1 0x1D DUP4 PUSH2 0xD86 JUMP JUMPDEST SWAP2 POP PUSH2 0x103B DUP3 PUSH2 0xFFA JUMP JUMPDEST PUSH1 0x20 DUP3 ADD SWAP1 POP SWAP2 SWAP1 POP JUMP JUMPDEST PUSH1 0x0 PUSH1 0x20 DUP3 ADD SWAP1 POP DUP2 DUP2 SUB PUSH1 0x0 DUP4 ADD MSTORE PUSH2 0x105F DUP2 PUSH2 0x1023 JUMP JUMPDEST SWAP1 POP SWAP2 SWAP1 POP JUMP JUMPDEST PUSH1 0x0 PUSH2 0x1071 DUP3 PUSH2 0x951 JUMP JUMPDEST SWAP2 POP PUSH2 0x107C DUP4 PUSH2 0x951 JUMP JUMPDEST SWAP3 POP DUP3 DUP3 LT ISZERO PUSH2 0x108F JUMPI PUSH2 0x108E PUSH2 0xEBB JUMP JUMPDEST JUMPDEST DUP3 DUP3 SUB SWAP1 POP SWAP3 SWAP2 POP POP JUMP JUMPDEST PUSH32 0x4E487B7100000000000000000000000000000000000000000000000000000000 PUSH1 0x0 MSTORE PUSH1 0x32 PUSH1 0x4 MSTORE PUSH1 0x24 PUSH1 0x0 REVERT JUMPDEST PUSH1 0x0 PUSH2 0x10D4 DUP3 PUSH2 0x951 JUMP JUMPDEST SWAP2 POP PUSH1 0x0 DUP3 SUB PUSH2 0x10E7 JUMPI PUSH2 0x10E6 PUSH2 0xEBB JUMP JUMPDEST JUMPDEST PUSH1 0x1 DUP3 SUB SWAP1 POP SWAP2 SWAP1 POP JUMP JUMPDEST PUSH1 0x0 PUSH14 0xFFFFFFFFFFFFFFFFFFFFFFFFFFFF DUP3 AND SWAP1 POP SWAP2 SWAP1 POP JUMP JUMPDEST PUSH2 0x1115 DUP2 PUSH2 0x10F2 JUMP JUMPDEST DUP2 EQ PUSH2 0x1120 JUMPI PUSH1 0x0 DUP1 REVERT JUMPDEST POP JUMP JUMPDEST PUSH1 0x0 DUP2 MLOAD SWAP1 POP PUSH2 0x1132 DUP2 PUSH2 0x110C JUMP JUMPDEST SWAP3 SWAP2 POP POP JUMP JUMPDEST PUSH1 0x0 PUSH4 0xFFFFFFFF DUP3 AND SWAP1 POP SWAP2 SWAP1 POP JUMP JUMPDEST PUSH2 0x1151 DUP2 PUSH2 0x1138 JUMP JUMPDEST DUP2 EQ PUSH2 0x115C JUMPI PUSH1 0x0 DUP1 REVERT JUMPDEST POP JUMP JUMPDEST PUSH1 0x0 DUP2 MLOAD SWAP1 POP PUSH2 0x116E DUP2 PUSH2 0x1148 JUMP JUMPDEST SWAP3 SWAP2 POP POP JUMP JUMPDEST PUSH1 0x0 DUP1 PUSH1 0x0 PUSH1 0x60 DUP5 DUP7 SUB SLT ISZERO PUSH2 0x118D JUMPI PUSH2 0x118C PUSH2 0x947 JUMP JUMPDEST JUMPDEST PUSH1 0x0 PUSH2 0x119B DUP7 DUP3 DUP8 ADD PUSH2 0x1123 JUMP JUMPDEST SWAP4 POP POP PUSH1 0x20 PUSH2 0x11AC DUP7 DUP3 DUP8 ADD PUSH2 0x1123 JUMP JUMPDEST SWAP3 POP POP PUSH1 0x40 PUSH2 0x11BD DUP7 DUP3 DUP8 ADD PUSH2 0x115F JUMP JUMPDEST SWAP2 POP POP SWAP3 POP SWAP3 POP SWAP3 JUMP JUMPDEST PUSH1 0x0 PUSH2 0x11D2 DUP3 PUSH2 0x951 JUMP JUMPDEST SWAP2 POP PUSH32 0xFFFFFFFFFFFFFFFFFFFFFFFFFFFFFFFFFFFFFFFFFFFFFFFFFFFFFFFFFFFFFFFF DUP3 SUB PUSH2 0x1204 JUMPI PUSH2 0x1203 PUSH2 0xEBB JUMP JUMPDEST JUMPDEST PUSH1 0x1 DUP3 ADD SWAP1 POP SWAP2 SWAP1 POP JUMP JUMPDEST PUSH1 0x0 DUP2 PUSH1 0x60 SHL SWAP1 POP SWAP2 SWAP1 POP JUMP JUMPDEST PUSH1 0x0 PUSH2 0x1227 DUP3 PUSH2 0x120F JUMP JUMPDEST SWAP1 POP SWAP2 SWAP1 POP JUMP JUMPDEST PUSH1 0x0 PUSH2 0x1239 DUP3 PUSH2 0x121C JUMP JUMPDEST SWAP1 POP SWAP2 SWAP1 POP JUMP JUMPDEST PUSH2 0x1251 PUSH2 0x124C DUP3 PUSH2 0xA24 JUMP JUMPDEST PUSH2 0x122E JUMP JUMPDEST DUP3 MSTORE POP POP JUMP JUMPDEST PUSH1 0x0 PUSH2 0x1263 DUP3 DUP6 PUSH2 0x1240 JUMP JUMPDEST PUSH1 0x14 DUP3 ADD SWAP2 POP PUSH2 0x1273 DUP3 DUP5 PUSH2 0x1240 JUMP JUMPDEST PUSH1 0x14 DUP3 ADD SWAP2 POP DUP2 SWAP1 POP SWAP4 SWAP3 POP POP POP JUMP JUMPDEST PUSH1 0x0 DUP2 SWAP1 POP SWAP3 SWAP2 POP POP JUMP JUMPDEST PUSH32 0xFF00000000000000000000000000000000000000000000000000000000000000 PUSH1 0x0 DUP3 ADD MSTORE POP JUMP JUMPDEST PUSH1 0x0 PUSH2 0x12C4 PUSH1 0x1 DUP4 PUSH2 0x1283 JUMP JUMPDEST SWAP2 POP PUSH2 0x12CF DUP3 PUSH2 0x128E JUMP JUMPDEST PUSH1 0x1 DUP3 ADD SWAP1 POP SWAP2 SWAP1 POP JUMP JUMPDEST PUSH1 0x0 DUP2 SWAP1 POP SWAP2 SWAP1 POP JUMP JUMPDEST PUSH1 0x0 DUP2 SWAP1 POP SWAP2 SWAP1 POP JUMP JUMPDEST PUSH2 0x12FF PUSH2 0x12FA DUP3 PUSH2 0x12DA JUMP JUMPDEST PUSH2 0x12E4 JUMP JUMPDEST DUP3 MSTORE POP POP JUMP JUMPDEST PUSH32 0xB68FBBA50CEB1571C8D495EC425BA3B90ECE4D1440852FD428FDD1439CA5A1D8 PUSH1 0x0 DUP3 ADD MSTORE POP JUMP JUMPDEST PUSH1 0x0 PUSH2 0x133B PUSH1 0x20 DUP4 PUSH2 0x1283 JUMP JUMPDEST SWAP2 POP PUSH2 0x1346 DUP3 PUSH2 0x1305 JUMP JUMPDEST PUSH1 0x20 DUP3 ADD SWAP1 POP SWAP2 SWAP1 POP JUMP JUMPDEST PUSH1 0x0 PUSH2 0x135C DUP3 PUSH2 0x12B7 JUMP JUMPDEST SWAP2 POP PUSH2 0x1368 DUP3 DUP6 PUSH2 0x1240 JUMP JUMPDEST PUSH1 0x14 DUP3 ADD SWAP2 POP PUSH2 0x1378 DUP3 DUP5 PUSH2 0x12EE JUMP JUMPDEST PUSH1 0x20 DUP3 ADD SWAP2 POP PUSH2 0x1387 DUP3 PUSH2 0x132E JUMP JUMPDEST SWAP2 POP DUP2 SWAP1 POP SWAP4 SWAP3 POP POP POP JUMP INVALID LOG2 PUSH5 0x6970667358 0x22 SLT KECCAK256 0xC4 DIFFICULTY 0xD0 0xBD PUSH6 0x10E8084554FE JUMPI 0xEF LOG1 DUP5 EXTCODEHASH MLOAD 0xB6 0xF 0xA9 0xB1 0xDF 0xD4 0xD2 PUSH7 0x7F7DB75660A4C4 PUSH5 0x736F6C6343 STOP ADDMOD 0xF STOP CALLER "
				},
				"gasEstimates": {
					"creation": {
						"codeDepositCost": "1013000",
						"executionCost": "1079",
						"totalCost": "1014079"
					},
					"external": {
						"getAmountIn(uint256,uint256,uint256)": "infinite",
						"getAmountOut(uint256,uint256,uint256)": "infinite",
						"getAmountsIn(address,uint256,address[])": "infinite",
						"getAmountsOut(address,uint256,address[])": "infinite",
						"getReserves(address,address,address)": "infinite",
						"quote(uint256,uint256,uint256)": "infinite"
					},
					"internal": {
						"pairFor(address,address,address)": "infinite",
						"sortTokens(address,address)": "90"
					}
				},
				"methodIdentifiers": {
					"getAmountIn(uint256,uint256,uint256)": "85f8c259",
					"getAmountOut(uint256,uint256,uint256)": "054d50d4",
					"getAmountsIn(address,uint256,address[])": "192128b2",
					"getAmountsOut(address,uint256,address[])": "bb7b9c76",
					"getReserves(address,address,address)": "32749461",
					"quote(uint256,uint256,uint256)": "ad615dec"
				}
			},
			"storageLayout": {
				"storage": [],
				"types": null
			},
			"userdoc": {
				"kind": "user",
				"methods": {},
				"version": 1
			}
		}
	}
}