{
	"contracts/KajuswapRouter.sol": {
		"KajuswapRouter": {
			"abi": [
				{
					"inputs": [
						{
							"internalType": "address",
							"name": "factoryAddress",
							"type": "address"
						}
					],
					"stateMutability": "nonpayable",
					"type": "constructor"
				},
				{
					"inputs": [
						{
							"internalType": "string",
							"name": "error5",
							"type": "string"
						},
						{
							"internalType": "address",
							"name": "PA",
							"type": "address"
						},
						{
							"internalType": "address",
							"name": "A",
							"type": "address"
						}
					],
					"name": "SafeTransferFailed",
					"type": "error"
				},
				{
					"inputs": [],
					"name": "A",
					"outputs": [
						{
							"internalType": "address",
							"name": "",
							"type": "address"
						}
					],
					"stateMutability": "view",
					"type": "function"
				},
				{
					"inputs": [],
					"name": "B",
					"outputs": [
						{
							"internalType": "address",
							"name": "",
							"type": "address"
						}
					],
					"stateMutability": "view",
					"type": "function"
				},
				{
					"inputs": [],
					"name": "PA",
					"outputs": [
						{
							"internalType": "address",
							"name": "",
							"type": "address"
						}
					],
					"stateMutability": "view",
					"type": "function"
				},
				{
					"inputs": [
						{
							"internalType": "address",
							"name": "tokenA",
							"type": "address"
						},
						{
							"internalType": "address",
							"name": "tokenB",
							"type": "address"
						},
						{
							"internalType": "uint256",
							"name": "amountADesired",
							"type": "uint256"
						},
						{
							"internalType": "uint256",
							"name": "amountBDesired",
							"type": "uint256"
						},
						{
							"internalType": "uint256",
							"name": "amountAMin",
							"type": "uint256"
						},
						{
							"internalType": "uint256",
							"name": "amountBMin",
							"type": "uint256"
						},
						{
							"internalType": "address",
							"name": "to",
							"type": "address"
						}
					],
					"name": "addLiquidity",
					"outputs": [
						{
							"internalType": "uint256",
							"name": "amountA",
							"type": "uint256"
						},
						{
							"internalType": "uint256",
							"name": "amountB",
							"type": "uint256"
						},
						{
							"internalType": "uint256",
							"name": "liquidity",
							"type": "uint256"
						}
					],
					"stateMutability": "nonpayable",
					"type": "function"
				},
				{
					"inputs": [
						{
							"internalType": "uint256",
							"name": "amountOut",
							"type": "uint256"
						},
						{
							"internalType": "uint256",
							"name": "reserveIn",
							"type": "uint256"
						},
						{
							"internalType": "uint256",
							"name": "reserveOut",
							"type": "uint256"
						}
					],
					"name": "getAmountIn",
					"outputs": [
						{
							"internalType": "uint256",
							"name": "amountIn",
							"type": "uint256"
						}
					],
					"stateMutability": "pure",
					"type": "function"
				},
				{
					"inputs": [
						{
							"internalType": "uint256",
							"name": "amountIn",
							"type": "uint256"
						},
						{
							"internalType": "uint256",
							"name": "reserveIn",
							"type": "uint256"
						},
						{
							"internalType": "uint256",
							"name": "reserveOut",
							"type": "uint256"
						}
					],
					"name": "getAmountOut",
					"outputs": [
						{
							"internalType": "uint256",
							"name": "amountOut",
							"type": "uint256"
						}
					],
					"stateMutability": "pure",
					"type": "function"
				},
				{
					"inputs": [
						{
							"internalType": "uint256",
							"name": "amountOut",
							"type": "uint256"
						},
						{
							"internalType": "address[]",
							"name": "path",
							"type": "address[]"
						}
					],
					"name": "getAmountsIn",
					"outputs": [
						{
							"internalType": "uint256[]",
							"name": "amounts",
							"type": "uint256[]"
						}
					],
					"stateMutability": "nonpayable",
					"type": "function"
				},
				{
					"inputs": [
						{
							"internalType": "uint256",
							"name": "amountIn",
							"type": "uint256"
						},
						{
							"internalType": "address[]",
							"name": "path",
							"type": "address[]"
						}
					],
					"name": "getAmountsOut",
					"outputs": [
						{
							"internalType": "uint256[]",
							"name": "amounts",
							"type": "uint256[]"
						}
					],
					"stateMutability": "nonpayable",
					"type": "function"
				},
				{
					"inputs": [],
					"name": "giveAddressses",
					"outputs": [
						{
							"internalType": "address",
							"name": "",
							"type": "address"
						},
						{
							"internalType": "address",
							"name": "",
							"type": "address"
						},
						{
							"internalType": "address",
							"name": "",
							"type": "address"
						}
					],
					"stateMutability": "view",
					"type": "function"
				},
				{
					"inputs": [
						{
							"internalType": "uint256",
							"name": "amountIn",
							"type": "uint256"
						},
						{
							"internalType": "uint256",
							"name": "reserveIn",
							"type": "uint256"
						},
						{
							"internalType": "uint256",
							"name": "reserveOut",
							"type": "uint256"
						}
					],
					"name": "quote",
					"outputs": [
						{
							"internalType": "uint256",
							"name": "amountOut",
							"type": "uint256"
						}
					],
					"stateMutability": "pure",
					"type": "function"
				},
				{
					"inputs": [
						{
							"internalType": "address",
							"name": "tokenA",
							"type": "address"
						},
						{
							"internalType": "address",
							"name": "tokenB",
							"type": "address"
						},
						{
							"internalType": "uint256",
							"name": "liquidity",
							"type": "uint256"
						},
						{
							"internalType": "uint256",
							"name": "amountAMin",
							"type": "uint256"
						},
						{
							"internalType": "uint256",
							"name": "amountBMin",
							"type": "uint256"
						},
						{
							"internalType": "address",
							"name": "to",
							"type": "address"
						}
					],
					"name": "removeLiquidity",
					"outputs": [
						{
							"internalType": "uint256",
							"name": "amountA",
							"type": "uint256"
						},
						{
							"internalType": "uint256",
							"name": "amountB",
							"type": "uint256"
						}
					],
					"stateMutability": "nonpayable",
					"type": "function"
				},
				{
					"inputs": [
						{
							"internalType": "uint256",
							"name": "amountIn",
							"type": "uint256"
						},
						{
							"internalType": "uint256",
							"name": "amountOutMin",
							"type": "uint256"
						},
						{
							"internalType": "address[]",
							"name": "path",
							"type": "address[]"
						},
						{
							"internalType": "address",
							"name": "to",
							"type": "address"
						}
					],
					"name": "swapExactTokensForTokens",
					"outputs": [
						{
							"internalType": "uint256[]",
							"name": "amounts",
							"type": "uint256[]"
						}
					],
					"stateMutability": "nonpayable",
					"type": "function"
				},
				{
					"inputs": [
						{
							"internalType": "uint256",
							"name": "amountOut",
							"type": "uint256"
						},
						{
							"internalType": "uint256",
							"name": "amountInMax",
							"type": "uint256"
						},
						{
							"internalType": "address[]",
							"name": "path",
							"type": "address[]"
						},
						{
							"internalType": "address",
							"name": "to",
							"type": "address"
						}
					],
					"name": "swapTokensForExactTokens",
					"outputs": [
						{
							"internalType": "uint256[]",
							"name": "amounts",
							"type": "uint256[]"
						}
					],
					"stateMutability": "nonpayable",
					"type": "function"
				}
			],
			"devdoc": {
				"kind": "dev",
				"methods": {},
				"version": 1
			},
			"evm": {
				"assembly": "    /* \"contracts/KajuswapRouter.sol\":185:8784  contract KajuswapRouter {... */\n  mstore(0x40, 0x80)\n    /* \"contracts/KajuswapRouter.sol\":598:695  constructor(address factoryAddress) {... */\n  callvalue\n  dup1\n  iszero\n  tag_1\n  jumpi\n  0x00\n  dup1\n  revert\ntag_1:\n  pop\n  mload(0x40)\n  sub(codesize, bytecodeSize)\n  dup1\n  bytecodeSize\n  dup4\n  codecopy\n  dup2\n  dup2\n  add\n  0x40\n  mstore\n  dup2\n  add\n  swap1\n  tag_2\n  swap2\n  swap1\n  tag_3\n  jump\t// in\ntag_2:\n    /* \"contracts/KajuswapRouter.sol\":672:686  factoryAddress */\n  dup1\n    /* \"contracts/KajuswapRouter.sol\":645:652  factory */\n  0x00\n  dup1\n    /* \"contracts/KajuswapRouter.sol\":645:687  factory = IKajuswapFactory(factoryAddress) */\n  0x0100\n  exp\n  dup2\n  sload\n  dup2\n  0xffffffffffffffffffffffffffffffffffffffff\n  mul\n  not\n  and\n  swap1\n  dup4\n  0xffffffffffffffffffffffffffffffffffffffff\n  and\n  mul\n  or\n  swap1\n  sstore\n  pop\n    /* \"contracts/KajuswapRouter.sol\":598:695  constructor(address factoryAddress) {... */\n  pop\n    /* \"contracts/KajuswapRouter.sol\":185:8784  contract KajuswapRouter {... */\n  jump(tag_6)\n    /* \"#utility.yul\":88:205   */\ntag_8:\n    /* \"#utility.yul\":197:198   */\n  0x00\n    /* \"#utility.yul\":194:195   */\n  dup1\n    /* \"#utility.yul\":187:199   */\n  revert\n    /* \"#utility.yul\":334:460   */\ntag_10:\n    /* \"#utility.yul\":371:378   */\n  0x00\n    /* \"#utility.yul\":411:453   */\n  0xffffffffffffffffffffffffffffffffffffffff\n    /* \"#utility.yul\":404:409   */\n  dup3\n    /* \"#utility.yul\":400:454   */\n  and\n    /* \"#utility.yul\":389:454   */\n  swap1\n  pop\n    /* \"#utility.yul\":334:460   */\n  swap2\n  swap1\n  pop\n  jump\t// out\n    /* \"#utility.yul\":466:562   */\ntag_11:\n    /* \"#utility.yul\":503:510   */\n  0x00\n    /* \"#utility.yul\":532:556   */\n  tag_20\n    /* \"#utility.yul\":550:555   */\n  dup3\n    /* \"#utility.yul\":532:556   */\n  tag_10\n  jump\t// in\ntag_20:\n    /* \"#utility.yul\":521:556   */\n  swap1\n  pop\n    /* \"#utility.yul\":466:562   */\n  swap2\n  swap1\n  pop\n  jump\t// out\n    /* \"#utility.yul\":568:690   */\ntag_12:\n    /* \"#utility.yul\":641:665   */\n  tag_22\n    /* \"#utility.yul\":659:664   */\n  dup2\n    /* \"#utility.yul\":641:665   */\n  tag_11\n  jump\t// in\ntag_22:\n    /* \"#utility.yul\":634:639   */\n  dup2\n    /* \"#utility.yul\":631:666   */\n  eq\n    /* \"#utility.yul\":621:684   */\n  tag_23\n  jumpi\n    /* \"#utility.yul\":680:681   */\n  0x00\n    /* \"#utility.yul\":677:678   */\n  dup1\n    /* \"#utility.yul\":670:682   */\n  revert\n    /* \"#utility.yul\":621:684   */\ntag_23:\n    /* \"#utility.yul\":568:690   */\n  pop\n  jump\t// out\n    /* \"#utility.yul\":696:839   */\ntag_13:\n    /* \"#utility.yul\":753:758   */\n  0x00\n    /* \"#utility.yul\":784:790   */\n  dup2\n    /* \"#utility.yul\":778:791   */\n  mload\n    /* \"#utility.yul\":769:791   */\n  swap1\n  pop\n    /* \"#utility.yul\":800:833   */\n  tag_25\n    /* \"#utility.yul\":827:832   */\n  dup2\n    /* \"#utility.yul\":800:833   */\n  tag_12\n  jump\t// in\ntag_25:\n    /* \"#utility.yul\":696:839   */\n  swap3\n  swap2\n  pop\n  pop\n  jump\t// out\n    /* \"#utility.yul\":845:1196   */\ntag_3:\n    /* \"#utility.yul\":915:921   */\n  0x00\n    /* \"#utility.yul\":964:966   */\n  0x20\n    /* \"#utility.yul\":952:961   */\n  dup3\n    /* \"#utility.yul\":943:950   */\n  dup5\n    /* \"#utility.yul\":939:962   */\n  sub\n    /* \"#utility.yul\":935:967   */\n  slt\n    /* \"#utility.yul\":932:1051   */\n  iszero\n  tag_27\n  jumpi\n    /* \"#utility.yul\":970:1049   */\n  tag_28\n  tag_8\n  jump\t// in\ntag_28:\n    /* \"#utility.yul\":932:1051   */\ntag_27:\n    /* \"#utility.yul\":1090:1091   */\n  0x00\n    /* \"#utility.yul\":1115:1179   */\n  tag_29\n    /* \"#utility.yul\":1171:1178   */\n  dup5\n    /* \"#utility.yul\":1162:1168   */\n  dup3\n    /* \"#utility.yul\":1151:1160   */\n  dup6\n    /* \"#utility.yul\":1147:1169   */\n  add\n    /* \"#utility.yul\":1115:1179   */\n  tag_13\n  jump\t// in\ntag_29:\n    /* \"#utility.yul\":1105:1179   */\n  swap2\n  pop\n    /* \"#utility.yul\":1061:1189   */\n  pop\n    /* \"#utility.yul\":845:1196   */\n  swap3\n  swap2\n  pop\n  pop\n  jump\t// out\n    /* \"contracts/KajuswapRouter.sol\":185:8784  contract KajuswapRouter {... */\ntag_6:\n  dataSize(sub_0)\n  dup1\n  dataOffset(sub_0)\n  0x00\n  codecopy\n  0x00\n  return\nstop\n\nsub_0: assembly {\n        /* \"contracts/KajuswapRouter.sol\":185:8784  contract KajuswapRouter {... */\n      mstore(0x40, 0x80)\n      callvalue\n      dup1\n      iszero\n      tag_1\n      jumpi\n      0x00\n      dup1\n      revert\n    tag_1:\n      pop\n      jumpi(tag_2, lt(calldatasize, 0x04))\n      shr(0xe0, calldataload(0x00))\n      dup1\n      0x8434d01a\n      gt\n      tag_16\n      jumpi\n      dup1\n      0xc0e3ee6b\n      gt\n      tag_17\n      jumpi\n      dup1\n      0xc0e3ee6b\n      eq\n      tag_12\n      jumpi\n      dup1\n      0xca3d6539\n      eq\n      tag_13\n      jumpi\n      dup1\n      0xd06ca61f\n      eq\n      tag_14\n      jumpi\n      dup1\n      0xf446c1d0\n      eq\n      tag_15\n      jumpi\n      jump(tag_2)\n    tag_17:\n      dup1\n      0x8434d01a\n      eq\n      tag_9\n      jumpi\n      dup1\n      0x85f8c259\n      eq\n      tag_10\n      jumpi\n      dup1\n      0xad615dec\n      eq\n      tag_11\n      jumpi\n      jump(tag_2)\n    tag_16:\n      dup1\n      0x054d50d4\n      eq\n      tag_3\n      jumpi\n      dup1\n      0x1f00ca74\n      eq\n      tag_4\n      jumpi\n      dup1\n      0x26c2b1fb\n      eq\n      tag_5\n      jumpi\n      dup1\n      0x32e7c5bf\n      eq\n      tag_6\n      jumpi\n      dup1\n      0x42712a67\n      eq\n      tag_7\n      jumpi\n      dup1\n      0x472b43f3\n      eq\n      tag_8\n      jumpi\n    tag_2:\n      0x00\n      dup1\n      revert\n        /* \"contracts/KajuswapRouter.sol\":7842:8082  function getAmountOut(... */\n    tag_3:\n      tag_18\n      0x04\n      dup1\n      calldatasize\n      sub\n      dup2\n      add\n      swap1\n      tag_19\n      swap2\n      swap1\n      tag_20\n      jump\t// in\n    tag_19:\n      tag_21\n      jump\t// in\n    tag_18:\n      mload(0x40)\n      tag_22\n      swap2\n      swap1\n      tag_23\n      jump\t// in\n    tag_22:\n      mload(0x40)\n      dup1\n      swap2\n      sub\n      swap1\n      return\n        /* \"contracts/KajuswapRouter.sol\":8563:8781  function getAmountsIn(uint256 amountOut, address[] memory path)... */\n    tag_4:\n      tag_24\n      0x04\n      dup1\n      calldatasize\n      sub\n      dup2\n      add\n      swap1\n      tag_25\n      swap2\n      swap1\n      tag_26\n      jump\t// in\n    tag_25:\n      tag_27\n      jump\t// in\n    tag_24:\n      mload(0x40)\n      tag_28\n      swap2\n      swap1\n      tag_29\n      jump\t// in\n    tag_28:\n      mload(0x40)\n      dup1\n      swap2\n      sub\n      swap1\n      return\n        /* \"contracts/KajuswapRouter.sol\":703:863  function giveAddressses() public view returns (... */\n    tag_5:\n      tag_30\n      tag_31\n      jump\t// in\n    tag_30:\n      mload(0x40)\n      tag_32\n      swap4\n      swap3\n      swap2\n      swap1\n      tag_33\n      jump\t// in\n    tag_32:\n      mload(0x40)\n      dup1\n      swap2\n      sub\n      swap1\n      return\n        /* \"contracts/KajuswapRouter.sol\":573:589  address public B */\n    tag_6:\n      tag_34\n      tag_35\n      jump\t// in\n    tag_34:\n      mload(0x40)\n      tag_36\n      swap2\n      swap1\n      tag_37\n      jump\t// in\n    tag_36:\n      mload(0x40)\n      dup1\n      swap2\n      sub\n      swap1\n      return\n        /* \"contracts/KajuswapRouter.sol\":3629:4377  function swapTokensForExactTokens(... */\n    tag_7:\n      tag_38\n      0x04\n      dup1\n      calldatasize\n      sub\n      dup2\n      add\n      swap1\n      tag_39\n      swap2\n      swap1\n      tag_40\n      jump\t// in\n    tag_39:\n      tag_41\n      jump\t// in\n    tag_38:\n      mload(0x40)\n      tag_42\n      swap2\n      swap1\n      tag_29\n      jump\t// in\n    tag_42:\n      mload(0x40)\n      dup1\n      swap2\n      sub\n      swap1\n      return\n        /* \"contracts/KajuswapRouter.sol\":2842:3621  function swapExactTokensForTokens(... */\n    tag_8:\n      tag_43\n      0x04\n      dup1\n      calldatasize\n      sub\n      dup2\n      add\n      swap1\n      tag_44\n      swap2\n      swap1\n      tag_40\n      jump\t// in\n    tag_44:\n      tag_45\n      jump\t// in\n    tag_43:\n      mload(0x40)\n      tag_46\n      swap2\n      swap1\n      tag_29\n      jump\t// in\n    tag_46:\n      mload(0x40)\n      dup1\n      swap2\n      sub\n      swap1\n      return\n        /* \"contracts/KajuswapRouter.sol\":526:543  address public PA */\n    tag_9:\n      tag_47\n      tag_48\n      jump\t// in\n    tag_47:\n      mload(0x40)\n      tag_49\n      swap2\n      swap1\n      tag_37\n      jump\t// in\n    tag_49:\n      mload(0x40)\n      dup1\n      swap2\n      sub\n      swap1\n      return\n        /* \"contracts/KajuswapRouter.sol\":8090:8329  function getAmountIn(... */\n    tag_10:\n      tag_50\n      0x04\n      dup1\n      calldatasize\n      sub\n      dup2\n      add\n      swap1\n      tag_51\n      swap2\n      swap1\n      tag_20\n      jump\t// in\n    tag_51:\n      tag_52\n      jump\t// in\n    tag_50:\n      mload(0x40)\n      tag_53\n      swap2\n      swap1\n      tag_23\n      jump\t// in\n    tag_53:\n      mload(0x40)\n      dup1\n      swap2\n      sub\n      swap1\n      return\n        /* \"contracts/KajuswapRouter.sol\":7608:7834  function quote(... */\n    tag_11:\n      tag_54\n      0x04\n      dup1\n      calldatasize\n      sub\n      dup2\n      add\n      swap1\n      tag_55\n      swap2\n      swap1\n      tag_20\n      jump\t// in\n    tag_55:\n      tag_56\n      jump\t// in\n    tag_54:\n      mload(0x40)\n      tag_57\n      swap2\n      swap1\n      tag_23\n      jump\t// in\n    tag_57:\n      mload(0x40)\n      dup1\n      swap2\n      sub\n      swap1\n      return\n        /* \"contracts/KajuswapRouter.sol\":1980:2834  function removeLiquidity(... */\n    tag_12:\n      tag_58\n      0x04\n      dup1\n      calldatasize\n      sub\n      dup2\n      add\n      swap1\n      tag_59\n      swap2\n      swap1\n      tag_60\n      jump\t// in\n    tag_59:\n      tag_61\n      jump\t// in\n    tag_58:\n      mload(0x40)\n      tag_62\n      swap3\n      swap2\n      swap1\n      tag_63\n      jump\t// in\n    tag_62:\n      mload(0x40)\n      dup1\n      swap2\n      sub\n      swap1\n      return\n        /* \"contracts/KajuswapRouter.sol\":871:1972  function addLiquidity(... */\n    tag_13:\n      tag_64\n      0x04\n      dup1\n      calldatasize\n      sub\n      dup2\n      add\n      swap1\n      tag_65\n      swap2\n      swap1\n      tag_66\n      jump\t// in\n    tag_65:\n      tag_67\n      jump\t// in\n    tag_64:\n      mload(0x40)\n      tag_68\n      swap4\n      swap3\n      swap2\n      swap1\n      tag_69\n      jump\t// in\n    tag_68:\n      mload(0x40)\n      dup1\n      swap2\n      sub\n      swap1\n      return\n        /* \"contracts/KajuswapRouter.sol\":8337:8555  function getAmountsOut(uint256 amountIn, address[] memory path)... */\n    tag_14:\n      tag_70\n      0x04\n      dup1\n      calldatasize\n      sub\n      dup2\n      add\n      swap1\n      tag_71\n      swap2\n      swap1\n      tag_26\n      jump\t// in\n    tag_71:\n      tag_72\n      jump\t// in\n    tag_70:\n      mload(0x40)\n      tag_73\n      swap2\n      swap1\n      tag_29\n      jump\t// in\n    tag_73:\n      mload(0x40)\n      dup1\n      swap2\n      sub\n      swap1\n      return\n        /* \"contracts/KajuswapRouter.sol\":550:566  address public A */\n    tag_15:\n      tag_74\n      tag_75\n      jump\t// in\n    tag_74:\n      mload(0x40)\n      tag_76\n      swap2\n      swap1\n      tag_37\n      jump\t// in\n    tag_76:\n      mload(0x40)\n      dup1\n      swap2\n      sub\n      swap1\n      return\n        /* \"contracts/KajuswapRouter.sol\":7842:8082  function getAmountOut(... */\n    tag_21:\n        /* \"contracts/KajuswapRouter.sol\":7976:7993  uint256 amountOut */\n      0x00\n        /* \"contracts/KajuswapRouter.sol\":8013:8028  KajuswapLibrary */\n      linkerSymbol(\"18693c2782ae7b010cc3bd0449f436a78932852c600971ebfaa34cda17c779df\")\n        /* \"contracts/KajuswapRouter.sol\":8013:8041  KajuswapLibrary.getAmountOut */\n      0x054d50d4\n        /* \"contracts/KajuswapRouter.sol\":8042:8050  amountIn */\n      dup6\n        /* \"contracts/KajuswapRouter.sol\":8052:8061  reserveIn */\n      dup6\n        /* \"contracts/KajuswapRouter.sol\":8063:8073  reserveOut */\n      dup6\n        /* \"contracts/KajuswapRouter.sol\":8013:8074  KajuswapLibrary.getAmountOut(amountIn, reserveIn, reserveOut) */\n      mload(0x40)\n      dup5\n      0xffffffff\n      and\n      0xe0\n      shl\n      dup2\n      mstore\n      0x04\n      add\n      tag_78\n      swap4\n      swap3\n      swap2\n      swap1\n      tag_79\n      jump\t// in\n    tag_78:\n      0x20\n      mload(0x40)\n      dup1\n      dup4\n      sub\n      dup2\n      dup7\n      gas\n      delegatecall\n      iszero\n      dup1\n      iszero\n      tag_81\n      jumpi\n      returndatasize\n      0x00\n      dup1\n      returndatacopy\n      revert(0x00, returndatasize)\n    tag_81:\n      pop\n      pop\n      pop\n      pop\n      mload(0x40)\n      returndatasize\n      not(0x1f)\n      0x1f\n      dup3\n      add\n      and\n      dup3\n      add\n      dup1\n      0x40\n      mstore\n      pop\n      dup2\n      add\n      swap1\n      tag_82\n      swap2\n      swap1\n      tag_83\n      jump\t// in\n    tag_82:\n        /* \"contracts/KajuswapRouter.sol\":8006:8074  return KajuswapLibrary.getAmountOut(amountIn, reserveIn, reserveOut) */\n      swap1\n      pop\n        /* \"contracts/KajuswapRouter.sol\":7842:8082  function getAmountOut(... */\n      swap4\n      swap3\n      pop\n      pop\n      pop\n      jump\t// out\n        /* \"contracts/KajuswapRouter.sol\":8563:8781  function getAmountsIn(uint256 amountOut, address[] memory path)... */\n    tag_27:\n        /* \"contracts/KajuswapRouter.sol\":8661:8685  uint256[] memory amounts */\n      0x60\n        /* \"contracts/KajuswapRouter.sol\":8710:8725  KajuswapLibrary */\n      linkerSymbol(\"18693c2782ae7b010cc3bd0449f436a78932852c600971ebfaa34cda17c779df\")\n        /* \"contracts/KajuswapRouter.sol\":8710:8738  KajuswapLibrary.getAmountsIn */\n      0x192128b2\n        /* \"contracts/KajuswapRouter.sol\":8747:8754  factory */\n      0x00\n      dup1\n      sload\n      swap1\n      0x0100\n      exp\n      swap1\n      div\n      0xffffffffffffffffffffffffffffffffffffffff\n      and\n        /* \"contracts/KajuswapRouter.sol\":8757:8766  amountOut */\n      dup6\n        /* \"contracts/KajuswapRouter.sol\":8768:8772  path */\n      dup6\n        /* \"contracts/KajuswapRouter.sol\":8710:8773  KajuswapLibrary.getAmountsIn(address(factory), amountOut, path) */\n      mload(0x40)\n      dup5\n      0xffffffff\n      and\n      0xe0\n      shl\n      dup2\n      mstore\n      0x04\n      add\n      tag_85\n      swap4\n      swap3\n      swap2\n      swap1\n      tag_86\n      jump\t// in\n    tag_85:\n      0x00\n      mload(0x40)\n      dup1\n      dup4\n      sub\n      dup2\n      dup7\n      gas\n      delegatecall\n      iszero\n      dup1\n      iszero\n      tag_88\n      jumpi\n      returndatasize\n      0x00\n      dup1\n      returndatacopy\n      revert(0x00, returndatasize)\n    tag_88:\n      pop\n      pop\n      pop\n      pop\n      mload(0x40)\n      returndatasize\n      0x00\n      dup3\n      returndatacopy\n      returndatasize\n      not(0x1f)\n      0x1f\n      dup3\n      add\n      and\n      dup3\n      add\n      dup1\n      0x40\n      mstore\n      pop\n      dup2\n      add\n      swap1\n      tag_89\n      swap2\n      swap1\n      tag_90\n      jump\t// in\n    tag_89:\n        /* \"contracts/KajuswapRouter.sol\":8703:8773  return KajuswapLibrary.getAmountsIn(address(factory), amountOut, path) */\n      swap1\n      pop\n        /* \"contracts/KajuswapRouter.sol\":8563:8781  function getAmountsIn(uint256 amountOut, address[] memory path)... */\n      swap3\n      swap2\n      pop\n      pop\n      jump\t// out\n        /* \"contracts/KajuswapRouter.sol\":703:863  function giveAddressses() public view returns (... */\n    tag_31:\n        /* \"contracts/KajuswapRouter.sol\":764:771  address */\n      0x00\n        /* \"contracts/KajuswapRouter.sol\":786:793  address */\n      dup1\n        /* \"contracts/KajuswapRouter.sol\":808:815  address */\n      0x00\n        /* \"contracts/KajuswapRouter.sol\":846:848  PA */\n      0x01\n      0x00\n      swap1\n      sload\n      swap1\n      0x0100\n      exp\n      swap1\n      div\n      0xffffffffffffffffffffffffffffffffffffffff\n      and\n        /* \"contracts/KajuswapRouter.sol\":850:851  A */\n      0x02\n      0x00\n      swap1\n      sload\n      swap1\n      0x0100\n      exp\n      swap1\n      div\n      0xffffffffffffffffffffffffffffffffffffffff\n      and\n        /* \"contracts/KajuswapRouter.sol\":853:854  B */\n      0x03\n      0x00\n      swap1\n      sload\n      swap1\n      0x0100\n      exp\n      swap1\n      div\n      0xffffffffffffffffffffffffffffffffffffffff\n      and\n        /* \"contracts/KajuswapRouter.sol\":838:855  return (PA, A, B) */\n      swap3\n      pop\n      swap3\n      pop\n      swap3\n      pop\n        /* \"contracts/KajuswapRouter.sol\":703:863  function giveAddressses() public view returns (... */\n      swap1\n      swap2\n      swap3\n      jump\t// out\n        /* \"contracts/KajuswapRouter.sol\":573:589  address public B */\n    tag_35:\n      0x03\n      0x00\n      swap1\n      sload\n      swap1\n      0x0100\n      exp\n      swap1\n      div\n      0xffffffffffffffffffffffffffffffffffffffff\n      and\n      dup2\n      jump\t// out\n        /* \"contracts/KajuswapRouter.sol\":3629:4377  function swapTokensForExactTokens(... */\n    tag_41:\n        /* \"contracts/KajuswapRouter.sol\":3799:3823  uint256[] memory amounts */\n      0x60\n        /* \"contracts/KajuswapRouter.sol\":3846:3861  KajuswapLibrary */\n      linkerSymbol(\"18693c2782ae7b010cc3bd0449f436a78932852c600971ebfaa34cda17c779df\")\n        /* \"contracts/KajuswapRouter.sol\":3846:3874  KajuswapLibrary.getAmountsIn */\n      0x192128b2\n        /* \"contracts/KajuswapRouter.sol\":3897:3904  factory */\n      0x00\n      dup1\n      sload\n      swap1\n      0x0100\n      exp\n      swap1\n      div\n      0xffffffffffffffffffffffffffffffffffffffff\n      and\n        /* \"contracts/KajuswapRouter.sol\":3920:3929  amountOut */\n      dup9\n        /* \"contracts/KajuswapRouter.sol\":3944:3948  path */\n      dup8\n      dup8\n        /* \"contracts/KajuswapRouter.sol\":3846:3959  KajuswapLibrary.getAmountsIn(... */\n      mload(0x40)\n      dup6\n      0xffffffff\n      and\n      0xe0\n      shl\n      dup2\n      mstore\n      0x04\n      add\n      tag_93\n      swap5\n      swap4\n      swap3\n      swap2\n      swap1\n      tag_94\n      jump\t// in\n    tag_93:\n      0x00\n      mload(0x40)\n      dup1\n      dup4\n      sub\n      dup2\n      dup7\n      gas\n      delegatecall\n      iszero\n      dup1\n      iszero\n      tag_96\n      jumpi\n      returndatasize\n      0x00\n      dup1\n      returndatacopy\n      revert(0x00, returndatasize)\n    tag_96:\n      pop\n      pop\n      pop\n      pop\n      mload(0x40)\n      returndatasize\n      0x00\n      dup3\n      returndatacopy\n      returndatasize\n      not(0x1f)\n      0x1f\n      dup3\n      add\n      and\n      dup3\n      add\n      dup1\n      0x40\n      mstore\n      pop\n      dup2\n      add\n      swap1\n      tag_97\n      swap2\n      swap1\n      tag_90\n      jump\t// in\n    tag_97:\n        /* \"contracts/KajuswapRouter.sol\":3836:3959  amounts = KajuswapLibrary.getAmountsIn(... */\n      swap1\n      pop\n        /* \"contracts/KajuswapRouter.sol\":4120:4131  amountInMax */\n      dup5\n        /* \"contracts/KajuswapRouter.sol\":4106:4113  amounts */\n      dup2\n        /* \"contracts/KajuswapRouter.sol\":4114:4115  0 */\n      0x00\n        /* \"contracts/KajuswapRouter.sol\":4106:4116  amounts[0] */\n      dup2\n      mload\n      dup2\n      lt\n      tag_98\n      jumpi\n      tag_99\n      tag_100\n      jump\t// in\n    tag_99:\n    tag_98:\n      0x20\n      mul\n      0x20\n      add\n      add\n      mload\n        /* \"contracts/KajuswapRouter.sol\":4106:4131  amounts[0] <= amountInMax */\n      gt\n      iszero\n        /* \"contracts/KajuswapRouter.sol\":4098:4174  require(amounts[0] <= amountInMax, \"KajuswapRouter: EXCESSIVE_INPUT_AMOUNT\") */\n      tag_101\n      jumpi\n      mload(0x40)\n      0x08c379a000000000000000000000000000000000000000000000000000000000\n      dup2\n      mstore\n      0x04\n      add\n      tag_102\n      swap1\n      tag_103\n      jump\t// in\n    tag_102:\n      mload(0x40)\n      dup1\n      swap2\n      sub\n      swap1\n      revert\n    tag_101:\n        /* \"contracts/KajuswapRouter.sol\":4185:4334  _safeTransferFrom(... */\n      tag_104\n        /* \"contracts/KajuswapRouter.sol\":4217:4221  path */\n      dup5\n      dup5\n        /* \"contracts/KajuswapRouter.sol\":4222:4223  0 */\n      0x00\n        /* \"contracts/KajuswapRouter.sol\":4217:4224  path[0] */\n      dup2\n      dup2\n      lt\n      tag_105\n      jumpi\n      tag_106\n      tag_100\n      jump\t// in\n    tag_106:\n    tag_105:\n      swap1\n      pop\n      0x20\n      mul\n      add\n      0x20\n      dup2\n      add\n      swap1\n      tag_107\n      swap2\n      swap1\n      tag_108\n      jump\t// in\n    tag_107:\n        /* \"contracts/KajuswapRouter.sol\":4239:4298  KajuswapLibrary.pairFor(address(factory), path[0], path[1]) */\n      tag_109\n        /* \"contracts/KajuswapRouter.sol\":4271:4278  factory */\n      0x00\n      dup1\n      sload\n      swap1\n      0x0100\n      exp\n      swap1\n      div\n      0xffffffffffffffffffffffffffffffffffffffff\n      and\n        /* \"contracts/KajuswapRouter.sol\":4281:4285  path */\n      dup8\n      dup8\n        /* \"contracts/KajuswapRouter.sol\":4286:4287  0 */\n      0x00\n        /* \"contracts/KajuswapRouter.sol\":4281:4288  path[0] */\n      dup2\n      dup2\n      lt\n      tag_110\n      jumpi\n      tag_111\n      tag_100\n      jump\t// in\n    tag_111:\n    tag_110:\n      swap1\n      pop\n      0x20\n      mul\n      add\n      0x20\n      dup2\n      add\n      swap1\n      tag_112\n      swap2\n      swap1\n      tag_108\n      jump\t// in\n    tag_112:\n        /* \"contracts/KajuswapRouter.sol\":4290:4294  path */\n      dup9\n      dup9\n        /* \"contracts/KajuswapRouter.sol\":4295:4296  1 */\n      0x01\n        /* \"contracts/KajuswapRouter.sol\":4290:4297  path[1] */\n      dup2\n      dup2\n      lt\n      tag_113\n      jumpi\n      tag_114\n      tag_100\n      jump\t// in\n    tag_114:\n    tag_113:\n      swap1\n      pop\n      0x20\n      mul\n      add\n      0x20\n      dup2\n      add\n      swap1\n      tag_115\n      swap2\n      swap1\n      tag_108\n      jump\t// in\n    tag_115:\n        /* \"contracts/KajuswapRouter.sol\":4239:4262  KajuswapLibrary.pairFor */\n      tag_116\n        /* \"contracts/KajuswapRouter.sol\":4239:4298  KajuswapLibrary.pairFor(address(factory), path[0], path[1]) */\n      jump\t// in\n    tag_109:\n        /* \"contracts/KajuswapRouter.sol\":4313:4320  amounts */\n      dup4\n        /* \"contracts/KajuswapRouter.sol\":4321:4322  0 */\n      0x00\n        /* \"contracts/KajuswapRouter.sol\":4313:4323  amounts[0] */\n      dup2\n      mload\n      dup2\n      lt\n      tag_117\n      jumpi\n      tag_118\n      tag_100\n      jump\t// in\n    tag_118:\n    tag_117:\n      0x20\n      mul\n      0x20\n      add\n      add\n      mload\n        /* \"contracts/KajuswapRouter.sol\":4185:4202  _safeTransferFrom */\n      tag_119\n        /* \"contracts/KajuswapRouter.sol\":4185:4334  _safeTransferFrom(... */\n      jump\t// in\n    tag_104:\n        /* \"contracts/KajuswapRouter.sol\":4345:4369  _swap(amounts, path, to) */\n      tag_120\n        /* \"contracts/KajuswapRouter.sol\":4351:4358  amounts */\n      dup2\n        /* \"contracts/KajuswapRouter.sol\":4360:4364  path */\n      dup6\n      dup6\n        /* \"contracts/KajuswapRouter.sol\":4345:4369  _swap(amounts, path, to) */\n      dup1\n      dup1\n      0x20\n      mul\n      0x20\n      add\n      mload(0x40)\n      swap1\n      dup2\n      add\n      0x40\n      mstore\n      dup1\n      swap4\n      swap3\n      swap2\n      swap1\n      dup2\n      dup2\n      mstore\n      0x20\n      add\n      dup4\n      dup4\n      0x20\n      mul\n      dup1\n      dup3\n      dup5\n      calldatacopy\n      0x00\n      dup2\n      dup5\n      add\n      mstore\n      not(0x1f)\n      0x1f\n      dup3\n      add\n      and\n      swap1\n      pop\n      dup1\n      dup4\n      add\n      swap3\n      pop\n      pop\n      pop\n      pop\n      pop\n      pop\n      pop\n        /* \"contracts/KajuswapRouter.sol\":4366:4368  to */\n      dup5\n        /* \"contracts/KajuswapRouter.sol\":4345:4350  _swap */\n      tag_121\n        /* \"contracts/KajuswapRouter.sol\":4345:4369  _swap(amounts, path, to) */\n      jump\t// in\n    tag_120:\n        /* \"contracts/KajuswapRouter.sol\":3629:4377  function swapTokensForExactTokens(... */\n      swap6\n      swap5\n      pop\n      pop\n      pop\n      pop\n      pop\n      jump\t// out\n        /* \"contracts/KajuswapRouter.sol\":2842:3621  function swapExactTokensForTokens(... */\n    tag_45:\n        /* \"contracts/KajuswapRouter.sol\":3012:3036  uint256[] memory amounts */\n      0x60\n        /* \"contracts/KajuswapRouter.sol\":3059:3074  KajuswapLibrary */\n      linkerSymbol(\"18693c2782ae7b010cc3bd0449f436a78932852c600971ebfaa34cda17c779df\")\n        /* \"contracts/KajuswapRouter.sol\":3059:3088  KajuswapLibrary.getAmountsOut */\n      0xbb7b9c76\n        /* \"contracts/KajuswapRouter.sol\":3111:3118  factory */\n      0x00\n      dup1\n      sload\n      swap1\n      0x0100\n      exp\n      swap1\n      div\n      0xffffffffffffffffffffffffffffffffffffffff\n      and\n        /* \"contracts/KajuswapRouter.sol\":3134:3142  amountIn */\n      dup9\n        /* \"contracts/KajuswapRouter.sol\":3157:3161  path */\n      dup8\n      dup8\n        /* \"contracts/KajuswapRouter.sol\":3059:3172  KajuswapLibrary.getAmountsOut(... */\n      mload(0x40)\n      dup6\n      0xffffffff\n      and\n      0xe0\n      shl\n      dup2\n      mstore\n      0x04\n      add\n      tag_123\n      swap5\n      swap4\n      swap3\n      swap2\n      swap1\n      tag_94\n      jump\t// in\n    tag_123:\n      0x00\n      mload(0x40)\n      dup1\n      dup4\n      sub\n      dup2\n      dup7\n      gas\n      delegatecall\n      iszero\n      dup1\n      iszero\n      tag_125\n      jumpi\n      returndatasize\n      0x00\n      dup1\n      returndatacopy\n      revert(0x00, returndatasize)\n    tag_125:\n      pop\n      pop\n      pop\n      pop\n      mload(0x40)\n      returndatasize\n      0x00\n      dup3\n      returndatacopy\n      returndatasize\n      not(0x1f)\n      0x1f\n      dup3\n      add\n      and\n      dup3\n      add\n      dup1\n      0x40\n      mstore\n      pop\n      dup2\n      add\n      swap1\n      tag_126\n      swap2\n      swap1\n      tag_90\n      jump\t// in\n    tag_126:\n        /* \"contracts/KajuswapRouter.sol\":3049:3172  amounts = KajuswapLibrary.getAmountsOut(... */\n      swap1\n      pop\n        /* \"contracts/KajuswapRouter.sol\":3359:3371  amountOutMin */\n      dup5\n        /* \"contracts/KajuswapRouter.sol\":3328:3335  amounts */\n      dup2\n        /* \"contracts/KajuswapRouter.sol\":3353:3354  1 */\n      0x01\n        /* \"contracts/KajuswapRouter.sol\":3336:3343  amounts */\n      dup4\n        /* \"contracts/KajuswapRouter.sol\":3336:3350  amounts.length */\n      mload\n        /* \"contracts/KajuswapRouter.sol\":3336:3354  amounts.length - 1 */\n      tag_127\n      swap2\n      swap1\n      tag_128\n      jump\t// in\n    tag_127:\n        /* \"contracts/KajuswapRouter.sol\":3328:3355  amounts[amounts.length - 1] */\n      dup2\n      mload\n      dup2\n      lt\n      tag_129\n      jumpi\n      tag_130\n      tag_100\n      jump\t// in\n    tag_130:\n    tag_129:\n      0x20\n      mul\n      0x20\n      add\n      add\n      mload\n        /* \"contracts/KajuswapRouter.sol\":3328:3371  amounts[amounts.length - 1] >= amountOutMin */\n      lt\n      iszero\n        /* \"contracts/KajuswapRouter.sol\":3320:3418  require(amounts[amounts.length - 1] >= amountOutMin, \"KajuswapRouter: INSUFFICIENT_OUTPUT_AMOUNT\") */\n      tag_131\n      jumpi\n      mload(0x40)\n      0x08c379a000000000000000000000000000000000000000000000000000000000\n      dup2\n      mstore\n      0x04\n      add\n      tag_132\n      swap1\n      tag_133\n      jump\t// in\n    tag_132:\n      mload(0x40)\n      dup1\n      swap2\n      sub\n      swap1\n      revert\n    tag_131:\n        /* \"contracts/KajuswapRouter.sol\":3429:3578  _safeTransferFrom(... */\n      tag_134\n        /* \"contracts/KajuswapRouter.sol\":3461:3465  path */\n      dup5\n      dup5\n        /* \"contracts/KajuswapRouter.sol\":3466:3467  0 */\n      0x00\n        /* \"contracts/KajuswapRouter.sol\":3461:3468  path[0] */\n      dup2\n      dup2\n      lt\n      tag_135\n      jumpi\n      tag_136\n      tag_100\n      jump\t// in\n    tag_136:\n    tag_135:\n      swap1\n      pop\n      0x20\n      mul\n      add\n      0x20\n      dup2\n      add\n      swap1\n      tag_137\n      swap2\n      swap1\n      tag_108\n      jump\t// in\n    tag_137:\n        /* \"contracts/KajuswapRouter.sol\":3483:3542  KajuswapLibrary.pairFor(address(factory), path[0], path[1]) */\n      tag_138\n        /* \"contracts/KajuswapRouter.sol\":3515:3522  factory */\n      0x00\n      dup1\n      sload\n      swap1\n      0x0100\n      exp\n      swap1\n      div\n      0xffffffffffffffffffffffffffffffffffffffff\n      and\n        /* \"contracts/KajuswapRouter.sol\":3525:3529  path */\n      dup8\n      dup8\n        /* \"contracts/KajuswapRouter.sol\":3530:3531  0 */\n      0x00\n        /* \"contracts/KajuswapRouter.sol\":3525:3532  path[0] */\n      dup2\n      dup2\n      lt\n      tag_139\n      jumpi\n      tag_140\n      tag_100\n      jump\t// in\n    tag_140:\n    tag_139:\n      swap1\n      pop\n      0x20\n      mul\n      add\n      0x20\n      dup2\n      add\n      swap1\n      tag_141\n      swap2\n      swap1\n      tag_108\n      jump\t// in\n    tag_141:\n        /* \"contracts/KajuswapRouter.sol\":3534:3538  path */\n      dup9\n      dup9\n        /* \"contracts/KajuswapRouter.sol\":3539:3540  1 */\n      0x01\n        /* \"contracts/KajuswapRouter.sol\":3534:3541  path[1] */\n      dup2\n      dup2\n      lt\n      tag_142\n      jumpi\n      tag_143\n      tag_100\n      jump\t// in\n    tag_143:\n    tag_142:\n      swap1\n      pop\n      0x20\n      mul\n      add\n      0x20\n      dup2\n      add\n      swap1\n      tag_144\n      swap2\n      swap1\n      tag_108\n      jump\t// in\n    tag_144:\n        /* \"contracts/KajuswapRouter.sol\":3483:3506  KajuswapLibrary.pairFor */\n      tag_116\n        /* \"contracts/KajuswapRouter.sol\":3483:3542  KajuswapLibrary.pairFor(address(factory), path[0], path[1]) */\n      jump\t// in\n    tag_138:\n        /* \"contracts/KajuswapRouter.sol\":3557:3564  amounts */\n      dup4\n        /* \"contracts/KajuswapRouter.sol\":3565:3566  0 */\n      0x00\n        /* \"contracts/KajuswapRouter.sol\":3557:3567  amounts[0] */\n      dup2\n      mload\n      dup2\n      lt\n      tag_145\n      jumpi\n      tag_146\n      tag_100\n      jump\t// in\n    tag_146:\n    tag_145:\n      0x20\n      mul\n      0x20\n      add\n      add\n      mload\n        /* \"contracts/KajuswapRouter.sol\":3429:3446  _safeTransferFrom */\n      tag_119\n        /* \"contracts/KajuswapRouter.sol\":3429:3578  _safeTransferFrom(... */\n      jump\t// in\n    tag_134:\n        /* \"contracts/KajuswapRouter.sol\":3589:3613  _swap(amounts, path, to) */\n      tag_147\n        /* \"contracts/KajuswapRouter.sol\":3595:3602  amounts */\n      dup2\n        /* \"contracts/KajuswapRouter.sol\":3604:3608  path */\n      dup6\n      dup6\n        /* \"contracts/KajuswapRouter.sol\":3589:3613  _swap(amounts, path, to) */\n      dup1\n      dup1\n      0x20\n      mul\n      0x20\n      add\n      mload(0x40)\n      swap1\n      dup2\n      add\n      0x40\n      mstore\n      dup1\n      swap4\n      swap3\n      swap2\n      swap1\n      dup2\n      dup2\n      mstore\n      0x20\n      add\n      dup4\n      dup4\n      0x20\n      mul\n      dup1\n      dup3\n      dup5\n      calldatacopy\n      0x00\n      dup2\n      dup5\n      add\n      mstore\n      not(0x1f)\n      0x1f\n      dup3\n      add\n      and\n      swap1\n      pop\n      dup1\n      dup4\n      add\n      swap3\n      pop\n      pop\n      pop\n      pop\n      pop\n      pop\n      pop\n        /* \"contracts/KajuswapRouter.sol\":3610:3612  to */\n      dup5\n        /* \"contracts/KajuswapRouter.sol\":3589:3594  _swap */\n      tag_121\n        /* \"contracts/KajuswapRouter.sol\":3589:3613  _swap(amounts, path, to) */\n      jump\t// in\n    tag_147:\n        /* \"contracts/KajuswapRouter.sol\":2842:3621  function swapExactTokensForTokens(... */\n      swap6\n      swap5\n      pop\n      pop\n      pop\n      pop\n      pop\n      jump\t// out\n        /* \"contracts/KajuswapRouter.sol\":526:543  address public PA */\n    tag_48:\n      0x01\n      0x00\n      swap1\n      sload\n      swap1\n      0x0100\n      exp\n      swap1\n      div\n      0xffffffffffffffffffffffffffffffffffffffff\n      and\n      dup2\n      jump\t// out\n        /* \"contracts/KajuswapRouter.sol\":8090:8329  function getAmountIn(... */\n    tag_52:\n        /* \"contracts/KajuswapRouter.sol\":8224:8240  uint256 amountIn */\n      0x00\n        /* \"contracts/KajuswapRouter.sol\":8260:8275  KajuswapLibrary */\n      linkerSymbol(\"18693c2782ae7b010cc3bd0449f436a78932852c600971ebfaa34cda17c779df\")\n        /* \"contracts/KajuswapRouter.sol\":8260:8287  KajuswapLibrary.getAmountIn */\n      0x85f8c259\n        /* \"contracts/KajuswapRouter.sol\":8288:8297  amountOut */\n      dup6\n        /* \"contracts/KajuswapRouter.sol\":8299:8308  reserveIn */\n      dup6\n        /* \"contracts/KajuswapRouter.sol\":8310:8320  reserveOut */\n      dup6\n        /* \"contracts/KajuswapRouter.sol\":8260:8321  KajuswapLibrary.getAmountIn(amountOut, reserveIn, reserveOut) */\n      mload(0x40)\n      dup5\n      0xffffffff\n      and\n      0xe0\n      shl\n      dup2\n      mstore\n      0x04\n      add\n      tag_149\n      swap4\n      swap3\n      swap2\n      swap1\n      tag_79\n      jump\t// in\n    tag_149:\n      0x20\n      mload(0x40)\n      dup1\n      dup4\n      sub\n      dup2\n      dup7\n      gas\n      delegatecall\n      iszero\n      dup1\n      iszero\n      tag_151\n      jumpi\n      returndatasize\n      0x00\n      dup1\n      returndatacopy\n      revert(0x00, returndatasize)\n    tag_151:\n      pop\n      pop\n      pop\n      pop\n      mload(0x40)\n      returndatasize\n      not(0x1f)\n      0x1f\n      dup3\n      add\n      and\n      dup3\n      add\n      dup1\n      0x40\n      mstore\n      pop\n      dup2\n      add\n      swap1\n      tag_152\n      swap2\n      swap1\n      tag_83\n      jump\t// in\n    tag_152:\n        /* \"contracts/KajuswapRouter.sol\":8253:8321  return KajuswapLibrary.getAmountIn(amountOut, reserveIn, reserveOut) */\n      swap1\n      pop\n        /* \"contracts/KajuswapRouter.sol\":8090:8329  function getAmountIn(... */\n      swap4\n      swap3\n      pop\n      pop\n      pop\n      jump\t// out\n        /* \"contracts/KajuswapRouter.sol\":7608:7834  function quote(... */\n    tag_56:\n        /* \"contracts/KajuswapRouter.sol\":7735:7752  uint256 amountOut */\n      0x00\n        /* \"contracts/KajuswapRouter.sol\":7772:7787  KajuswapLibrary */\n      linkerSymbol(\"18693c2782ae7b010cc3bd0449f436a78932852c600971ebfaa34cda17c779df\")\n        /* \"contracts/KajuswapRouter.sol\":7772:7793  KajuswapLibrary.quote */\n      0xad615dec\n        /* \"contracts/KajuswapRouter.sol\":7794:7802  amountIn */\n      dup6\n        /* \"contracts/KajuswapRouter.sol\":7804:7813  reserveIn */\n      dup6\n        /* \"contracts/KajuswapRouter.sol\":7815:7825  reserveOut */\n      dup6\n        /* \"contracts/KajuswapRouter.sol\":7772:7826  KajuswapLibrary.quote(amountIn, reserveIn, reserveOut) */\n      mload(0x40)\n      dup5\n      0xffffffff\n      and\n      0xe0\n      shl\n      dup2\n      mstore\n      0x04\n      add\n      tag_154\n      swap4\n      swap3\n      swap2\n      swap1\n      tag_79\n      jump\t// in\n    tag_154:\n      0x20\n      mload(0x40)\n      dup1\n      dup4\n      sub\n      dup2\n      dup7\n      gas\n      delegatecall\n      iszero\n      dup1\n      iszero\n      tag_156\n      jumpi\n      returndatasize\n      0x00\n      dup1\n      returndatacopy\n      revert(0x00, returndatasize)\n    tag_156:\n      pop\n      pop\n      pop\n      pop\n      mload(0x40)\n      returndatasize\n      not(0x1f)\n      0x1f\n      dup3\n      add\n      and\n      dup3\n      add\n      dup1\n      0x40\n      mstore\n      pop\n      dup2\n      add\n      swap1\n      tag_157\n      swap2\n      swap1\n      tag_83\n      jump\t// in\n    tag_157:\n        /* \"contracts/KajuswapRouter.sol\":7765:7826  return KajuswapLibrary.quote(amountIn, reserveIn, reserveOut) */\n      swap1\n      pop\n        /* \"contracts/KajuswapRouter.sol\":7608:7834  function quote(... */\n      swap4\n      swap3\n      pop\n      pop\n      pop\n      jump\t// out\n        /* \"contracts/KajuswapRouter.sol\":1980:2834  function removeLiquidity(... */\n    tag_61:\n        /* \"contracts/KajuswapRouter.sol\":2185:2200  uint256 amountA */\n      0x00\n        /* \"contracts/KajuswapRouter.sol\":2202:2217  uint256 amountB */\n      dup1\n        /* \"contracts/KajuswapRouter.sol\":2230:2242  address pair */\n      0x00\n        /* \"contracts/KajuswapRouter.sol\":2245:2352  KajuswapLibrary.pairFor(... */\n      tag_159\n        /* \"contracts/KajuswapRouter.sol\":2291:2298  factory */\n      0x00\n      dup1\n      sload\n      swap1\n      0x0100\n      exp\n      swap1\n      div\n      0xffffffffffffffffffffffffffffffffffffffff\n      and\n        /* \"contracts/KajuswapRouter.sol\":2314:2320  tokenA */\n      dup11\n        /* \"contracts/KajuswapRouter.sol\":2335:2341  tokenB */\n      dup11\n        /* \"contracts/KajuswapRouter.sol\":2245:2268  KajuswapLibrary.pairFor */\n      tag_116\n        /* \"contracts/KajuswapRouter.sol\":2245:2352  KajuswapLibrary.pairFor(... */\n      jump\t// in\n    tag_159:\n        /* \"contracts/KajuswapRouter.sol\":2230:2352  address pair = KajuswapLibrary.pairFor(... */\n      swap1\n      pop\n        /* \"contracts/KajuswapRouter.sol\":2377:2381  pair */\n      dup1\n        /* \"contracts/KajuswapRouter.sol\":2363:2395  IKajuswapPair(pair).transferFrom */\n      0xffffffffffffffffffffffffffffffffffffffff\n      and\n      0x23b872dd\n        /* \"contracts/KajuswapRouter.sol\":2396:2406  msg.sender */\n      caller\n        /* \"contracts/KajuswapRouter.sol\":2408:2412  pair */\n      dup4\n        /* \"contracts/KajuswapRouter.sol\":2414:2423  liquidity */\n      dup11\n        /* \"contracts/KajuswapRouter.sol\":2363:2424  IKajuswapPair(pair).transferFrom(msg.sender, pair, liquidity) */\n      mload(0x40)\n      dup5\n      0xffffffff\n      and\n      0xe0\n      shl\n      dup2\n      mstore\n      0x04\n      add\n      tag_160\n      swap4\n      swap3\n      swap2\n      swap1\n      tag_161\n      jump\t// in\n    tag_160:\n      0x20\n      mload(0x40)\n      dup1\n      dup4\n      sub\n      dup2\n      0x00\n      dup8\n      gas\n      call\n      iszero\n      dup1\n      iszero\n      tag_163\n      jumpi\n      returndatasize\n      0x00\n      dup1\n      returndatacopy\n      revert(0x00, returndatasize)\n    tag_163:\n      pop\n      pop\n      pop\n      pop\n      mload(0x40)\n      returndatasize\n      not(0x1f)\n      0x1f\n      dup3\n      add\n      and\n      dup3\n      add\n      dup1\n      0x40\n      mstore\n      pop\n      dup2\n      add\n      swap1\n      tag_164\n      swap2\n      swap1\n      tag_165\n      jump\t// in\n    tag_164:\n      pop\n        /* \"contracts/KajuswapRouter.sol\":2470:2474  pair */\n      dup1\n        /* \"contracts/KajuswapRouter.sol\":2456:2480  IKajuswapPair(pair).burn */\n      0xffffffffffffffffffffffffffffffffffffffff\n      and\n      0x89afcb44\n        /* \"contracts/KajuswapRouter.sol\":2481:2483  to */\n      dup6\n        /* \"contracts/KajuswapRouter.sol\":2456:2484  IKajuswapPair(pair).burn(to) */\n      mload(0x40)\n      dup3\n      0xffffffff\n      and\n      0xe0\n      shl\n      dup2\n      mstore\n      0x04\n      add\n      tag_166\n      swap2\n      swap1\n      tag_37\n      jump\t// in\n    tag_166:\n      0x40\n      dup1\n      mload\n      dup1\n      dup4\n      sub\n      dup2\n      0x00\n      dup8\n      gas\n      call\n      iszero\n      dup1\n      iszero\n      tag_168\n      jumpi\n      returndatasize\n      0x00\n      dup1\n      returndatacopy\n      revert(0x00, returndatasize)\n    tag_168:\n      pop\n      pop\n      pop\n      pop\n      mload(0x40)\n      returndatasize\n      not(0x1f)\n      0x1f\n      dup3\n      add\n      and\n      dup3\n      add\n      dup1\n      0x40\n      mstore\n      pop\n      dup2\n      add\n      swap1\n      tag_169\n      swap2\n      swap1\n      tag_170\n      jump\t// in\n    tag_169:\n        /* \"contracts/KajuswapRouter.sol\":2435:2484  (amountA, amountB) = IKajuswapPair(pair).burn(to) */\n      dup1\n      swap4\n      pop\n      dup2\n      swap5\n      pop\n      pop\n      pop\n        /* \"contracts/KajuswapRouter.sol\":2692:2702  amountAMin */\n      dup6\n        /* \"contracts/KajuswapRouter.sol\":2681:2688  amountA */\n      dup4\n        /* \"contracts/KajuswapRouter.sol\":2681:2702  amountA >= amountAMin */\n      lt\n      iszero\n        /* \"contracts/KajuswapRouter.sol\":2673:2744  require(amountA >= amountAMin, \"KajuswapRouter: INSUFFICIENT_A_AMOUNT\") */\n      tag_171\n      jumpi\n      mload(0x40)\n      0x08c379a000000000000000000000000000000000000000000000000000000000\n      dup2\n      mstore\n      0x04\n      add\n      tag_172\n      swap1\n      tag_173\n      jump\t// in\n    tag_172:\n      mload(0x40)\n      dup1\n      swap2\n      sub\n      swap1\n      revert\n    tag_171:\n        /* \"contracts/KajuswapRouter.sol\":2774:2784  amountBMin */\n      dup5\n        /* \"contracts/KajuswapRouter.sol\":2763:2770  amountB */\n      dup3\n        /* \"contracts/KajuswapRouter.sol\":2763:2784  amountB >= amountBMin */\n      lt\n      iszero\n        /* \"contracts/KajuswapRouter.sol\":2755:2826  require(amountB >= amountBMin, \"KajuswapRouter: INSUFFICIENT_B_AMOUNT\") */\n      tag_174\n      jumpi\n      mload(0x40)\n      0x08c379a000000000000000000000000000000000000000000000000000000000\n      dup2\n      mstore\n      0x04\n      add\n      tag_175\n      swap1\n      tag_176\n      jump\t// in\n    tag_175:\n      mload(0x40)\n      dup1\n      swap2\n      sub\n      swap1\n      revert\n    tag_174:\n        /* \"contracts/KajuswapRouter.sol\":2219:2834  {... */\n      pop\n        /* \"contracts/KajuswapRouter.sol\":1980:2834  function removeLiquidity(... */\n      swap7\n      pop\n      swap7\n      swap5\n      pop\n      pop\n      pop\n      pop\n      pop\n      jump\t// out\n        /* \"contracts/KajuswapRouter.sol\":871:1972  function addLiquidity(... */\n    tag_67:\n        /* \"contracts/KajuswapRouter.sol\":1143:1158  uint256 amountA */\n      0x00\n        /* \"contracts/KajuswapRouter.sol\":1173:1188  uint256 amountB */\n      dup1\n        /* \"contracts/KajuswapRouter.sol\":1203:1220  uint256 liquidity */\n      0x00\n        /* \"contracts/KajuswapRouter.sol\":1293:1294  0 */\n      dup1\n        /* \"contracts/KajuswapRouter.sol\":1252:1295  factory.pairs(tokenA, tokenB) == address(0) */\n      0xffffffffffffffffffffffffffffffffffffffff\n      and\n        /* \"contracts/KajuswapRouter.sol\":1252:1259  factory */\n      0x00\n      dup1\n      sload\n      swap1\n      0x0100\n      exp\n      swap1\n      div\n      0xffffffffffffffffffffffffffffffffffffffff\n      and\n        /* \"contracts/KajuswapRouter.sol\":1252:1265  factory.pairs */\n      0xffffffffffffffffffffffffffffffffffffffff\n      and\n      0x69454b86\n        /* \"contracts/KajuswapRouter.sol\":1266:1272  tokenA */\n      dup13\n        /* \"contracts/KajuswapRouter.sol\":1274:1280  tokenB */\n      dup13\n        /* \"contracts/KajuswapRouter.sol\":1252:1281  factory.pairs(tokenA, tokenB) */\n      mload(0x40)\n      dup4\n      0xffffffff\n      and\n      0xe0\n      shl\n      dup2\n      mstore\n      0x04\n      add\n      tag_178\n      swap3\n      swap2\n      swap1\n      tag_179\n      jump\t// in\n    tag_178:\n      0x20\n      mload(0x40)\n      dup1\n      dup4\n      sub\n      dup2\n      dup7\n      gas\n      staticcall\n      iszero\n      dup1\n      iszero\n      tag_181\n      jumpi\n      returndatasize\n      0x00\n      dup1\n      returndatacopy\n      revert(0x00, returndatasize)\n    tag_181:\n      pop\n      pop\n      pop\n      pop\n      mload(0x40)\n      returndatasize\n      not(0x1f)\n      0x1f\n      dup3\n      add\n      and\n      dup3\n      add\n      dup1\n      0x40\n      mstore\n      pop\n      dup2\n      add\n      swap1\n      tag_182\n      swap2\n      swap1\n      tag_183\n      jump\t// in\n    tag_182:\n        /* \"contracts/KajuswapRouter.sol\":1252:1295  factory.pairs(tokenA, tokenB) == address(0) */\n      0xffffffffffffffffffffffffffffffffffffffff\n      and\n      sub\n        /* \"contracts/KajuswapRouter.sol\":1248:1358  if (factory.pairs(tokenA, tokenB) == address(0)) {... */\n      tag_184\n      jumpi\n        /* \"contracts/KajuswapRouter.sol\":1312:1319  factory */\n      0x00\n      dup1\n      sload\n      swap1\n      0x0100\n      exp\n      swap1\n      div\n      0xffffffffffffffffffffffffffffffffffffffff\n      and\n        /* \"contracts/KajuswapRouter.sol\":1312:1330  factory.createPair */\n      0xffffffffffffffffffffffffffffffffffffffff\n      and\n      0xc9c65396\n        /* \"contracts/KajuswapRouter.sol\":1331:1337  tokenA */\n      dup12\n        /* \"contracts/KajuswapRouter.sol\":1339:1345  tokenB */\n      dup12\n        /* \"contracts/KajuswapRouter.sol\":1312:1346  factory.createPair(tokenA, tokenB) */\n      mload(0x40)\n      dup4\n      0xffffffff\n      and\n      0xe0\n      shl\n      dup2\n      mstore\n      0x04\n      add\n      tag_185\n      swap3\n      swap2\n      swap1\n      tag_179\n      jump\t// in\n    tag_185:\n      0x20\n      mload(0x40)\n      dup1\n      dup4\n      sub\n      dup2\n      0x00\n      dup8\n      gas\n      call\n      iszero\n      dup1\n      iszero\n      tag_187\n      jumpi\n      returndatasize\n      0x00\n      dup1\n      returndatacopy\n      revert(0x00, returndatasize)\n    tag_187:\n      pop\n      pop\n      pop\n      pop\n      mload(0x40)\n      returndatasize\n      not(0x1f)\n      0x1f\n      dup3\n      add\n      and\n      dup3\n      add\n      dup1\n      0x40\n      mstore\n      pop\n      dup2\n      add\n      swap1\n      tag_188\n      swap2\n      swap1\n      tag_183\n      jump\t// in\n    tag_188:\n      pop\n        /* \"contracts/KajuswapRouter.sol\":1248:1358  if (factory.pairs(tokenA, tokenB) == address(0)) {... */\n    tag_184:\n        /* \"contracts/KajuswapRouter.sol\":1389:1569  _calculateLiquidity(... */\n      tag_189\n        /* \"contracts/KajuswapRouter.sol\":1423:1429  tokenA */\n      dup11\n        /* \"contracts/KajuswapRouter.sol\":1444:1450  tokenB */\n      dup11\n        /* \"contracts/KajuswapRouter.sol\":1465:1479  amountADesired */\n      dup11\n        /* \"contracts/KajuswapRouter.sol\":1494:1508  amountBDesired */\n      dup11\n        /* \"contracts/KajuswapRouter.sol\":1523:1533  amountAMin */\n      dup11\n        /* \"contracts/KajuswapRouter.sol\":1548:1558  amountBMin */\n      dup11\n        /* \"contracts/KajuswapRouter.sol\":1389:1408  _calculateLiquidity */\n      tag_190\n        /* \"contracts/KajuswapRouter.sol\":1389:1569  _calculateLiquidity(... */\n      jump\t// in\n    tag_189:\n        /* \"contracts/KajuswapRouter.sol\":1368:1569  (amountA, amountB) = _calculateLiquidity(... */\n      dup1\n      swap4\n      pop\n      dup2\n      swap5\n      pop\n      pop\n      pop\n        /* \"contracts/KajuswapRouter.sol\":1580:1599  address pairAddress */\n      0x00\n        /* \"contracts/KajuswapRouter.sol\":1602:1709  KajuswapLibrary.pairFor(... */\n      tag_191\n        /* \"contracts/KajuswapRouter.sol\":1648:1655  factory */\n      0x00\n      dup1\n      sload\n      swap1\n      0x0100\n      exp\n      swap1\n      div\n      0xffffffffffffffffffffffffffffffffffffffff\n      and\n        /* \"contracts/KajuswapRouter.sol\":1671:1677  tokenA */\n      dup13\n        /* \"contracts/KajuswapRouter.sol\":1692:1698  tokenB */\n      dup13\n        /* \"contracts/KajuswapRouter.sol\":1602:1625  KajuswapLibrary.pairFor */\n      tag_116\n        /* \"contracts/KajuswapRouter.sol\":1602:1709  KajuswapLibrary.pairFor(... */\n      jump\t// in\n    tag_191:\n        /* \"contracts/KajuswapRouter.sol\":1580:1709  address pairAddress = KajuswapLibrary.pairFor(... */\n      swap1\n      pop\n        /* \"contracts/KajuswapRouter.sol\":1727:1738  pairAddress */\n      dup1\n        /* \"contracts/KajuswapRouter.sol\":1722:1724  PA */\n      0x01\n      0x00\n        /* \"contracts/KajuswapRouter.sol\":1722:1738  PA = pairAddress */\n      0x0100\n      exp\n      dup2\n      sload\n      dup2\n      0xffffffffffffffffffffffffffffffffffffffff\n      mul\n      not\n      and\n      swap1\n      dup4\n      0xffffffffffffffffffffffffffffffffffffffff\n      and\n      mul\n      or\n      swap1\n      sstore\n      pop\n        /* \"contracts/KajuswapRouter.sol\":1753:1759  tokenA */\n      dup11\n        /* \"contracts/KajuswapRouter.sol\":1749:1750  A */\n      0x02\n      0x00\n        /* \"contracts/KajuswapRouter.sol\":1749:1759  A = tokenA */\n      0x0100\n      exp\n      dup2\n      sload\n      dup2\n      0xffffffffffffffffffffffffffffffffffffffff\n      mul\n      not\n      and\n      swap1\n      dup4\n      0xffffffffffffffffffffffffffffffffffffffff\n      and\n      mul\n      or\n      swap1\n      sstore\n      pop\n        /* \"contracts/KajuswapRouter.sol\":1774:1780  tokenB */\n      dup10\n        /* \"contracts/KajuswapRouter.sol\":1770:1771  B */\n      0x03\n      0x00\n        /* \"contracts/KajuswapRouter.sol\":1770:1780  B = tokenB */\n      0x0100\n      exp\n      dup2\n      sload\n      dup2\n      0xffffffffffffffffffffffffffffffffffffffff\n      mul\n      not\n      and\n      swap1\n      dup4\n      0xffffffffffffffffffffffffffffffffffffffff\n      and\n      mul\n      or\n      swap1\n      sstore\n      pop\n        /* \"contracts/KajuswapRouter.sol\":1801:1848  _safeTransferFrom(tokenA, pairAddress, amountA) */\n      tag_192\n        /* \"contracts/KajuswapRouter.sol\":1819:1825  tokenA */\n      dup12\n        /* \"contracts/KajuswapRouter.sol\":1827:1838  pairAddress */\n      dup3\n        /* \"contracts/KajuswapRouter.sol\":1840:1847  amountA */\n      dup7\n        /* \"contracts/KajuswapRouter.sol\":1801:1818  _safeTransferFrom */\n      tag_119\n        /* \"contracts/KajuswapRouter.sol\":1801:1848  _safeTransferFrom(tokenA, pairAddress, amountA) */\n      jump\t// in\n    tag_192:\n        /* \"contracts/KajuswapRouter.sol\":1859:1906  _safeTransferFrom(tokenB, pairAddress, amountB) */\n      tag_193\n        /* \"contracts/KajuswapRouter.sol\":1877:1883  tokenB */\n      dup11\n        /* \"contracts/KajuswapRouter.sol\":1885:1896  pairAddress */\n      dup3\n        /* \"contracts/KajuswapRouter.sol\":1898:1905  amountB */\n      dup6\n        /* \"contracts/KajuswapRouter.sol\":1859:1876  _safeTransferFrom */\n      tag_119\n        /* \"contracts/KajuswapRouter.sol\":1859:1906  _safeTransferFrom(tokenB, pairAddress, amountB) */\n      jump\t// in\n    tag_193:\n        /* \"contracts/KajuswapRouter.sol\":1943:1954  pairAddress */\n      dup1\n        /* \"contracts/KajuswapRouter.sol\":1929:1960  IKajuswapPair(pairAddress).mint */\n      0xffffffffffffffffffffffffffffffffffffffff\n      and\n      0x6a627842\n        /* \"contracts/KajuswapRouter.sol\":1961:1963  to */\n      dup7\n        /* \"contracts/KajuswapRouter.sol\":1929:1964  IKajuswapPair(pairAddress).mint(to) */\n      mload(0x40)\n      dup3\n      0xffffffff\n      and\n      0xe0\n      shl\n      dup2\n      mstore\n      0x04\n      add\n      tag_194\n      swap2\n      swap1\n      tag_37\n      jump\t// in\n    tag_194:\n      0x20\n      mload(0x40)\n      dup1\n      dup4\n      sub\n      dup2\n      0x00\n      dup8\n      gas\n      call\n      iszero\n      dup1\n      iszero\n      tag_196\n      jumpi\n      returndatasize\n      0x00\n      dup1\n      returndatacopy\n      revert(0x00, returndatasize)\n    tag_196:\n      pop\n      pop\n      pop\n      pop\n      mload(0x40)\n      returndatasize\n      not(0x1f)\n      0x1f\n      dup3\n      add\n      and\n      dup3\n      add\n      dup1\n      0x40\n      mstore\n      pop\n      dup2\n      add\n      swap1\n      tag_197\n      swap2\n      swap1\n      tag_83\n      jump\t// in\n    tag_197:\n        /* \"contracts/KajuswapRouter.sol\":1917:1964  liquidity = IKajuswapPair(pairAddress).mint(to) */\n      swap2\n      pop\n        /* \"contracts/KajuswapRouter.sol\":1237:1972  {... */\n      pop\n        /* \"contracts/KajuswapRouter.sol\":871:1972  function addLiquidity(... */\n      swap8\n      pop\n      swap8\n      pop\n      swap8\n      swap5\n      pop\n      pop\n      pop\n      pop\n      pop\n      jump\t// out\n        /* \"contracts/KajuswapRouter.sol\":8337:8555  function getAmountsOut(uint256 amountIn, address[] memory path)... */\n    tag_72:\n        /* \"contracts/KajuswapRouter.sol\":8435:8459  uint256[] memory amounts */\n      0x60\n        /* \"contracts/KajuswapRouter.sol\":8484:8499  KajuswapLibrary */\n      linkerSymbol(\"18693c2782ae7b010cc3bd0449f436a78932852c600971ebfaa34cda17c779df\")\n        /* \"contracts/KajuswapRouter.sol\":8484:8513  KajuswapLibrary.getAmountsOut */\n      0xbb7b9c76\n        /* \"contracts/KajuswapRouter.sol\":8522:8529  factory */\n      0x00\n      dup1\n      sload\n      swap1\n      0x0100\n      exp\n      swap1\n      div\n      0xffffffffffffffffffffffffffffffffffffffff\n      and\n        /* \"contracts/KajuswapRouter.sol\":8532:8540  amountIn */\n      dup6\n        /* \"contracts/KajuswapRouter.sol\":8542:8546  path */\n      dup6\n        /* \"contracts/KajuswapRouter.sol\":8484:8547  KajuswapLibrary.getAmountsOut(address(factory), amountIn, path) */\n      mload(0x40)\n      dup5\n      0xffffffff\n      and\n      0xe0\n      shl\n      dup2\n      mstore\n      0x04\n      add\n      tag_199\n      swap4\n      swap3\n      swap2\n      swap1\n      tag_86\n      jump\t// in\n    tag_199:\n      0x00\n      mload(0x40)\n      dup1\n      dup4\n      sub\n      dup2\n      dup7\n      gas\n      delegatecall\n      iszero\n      dup1\n      iszero\n      tag_201\n      jumpi\n      returndatasize\n      0x00\n      dup1\n      returndatacopy\n      revert(0x00, returndatasize)\n    tag_201:\n      pop\n      pop\n      pop\n      pop\n      mload(0x40)\n      returndatasize\n      0x00\n      dup3\n      returndatacopy\n      returndatasize\n      not(0x1f)\n      0x1f\n      dup3\n      add\n      and\n      dup3\n      add\n      dup1\n      0x40\n      mstore\n      pop\n      dup2\n      add\n      swap1\n      tag_202\n      swap2\n      swap1\n      tag_90\n      jump\t// in\n    tag_202:\n        /* \"contracts/KajuswapRouter.sol\":8477:8547  return KajuswapLibrary.getAmountsOut(address(factory), amountIn, path) */\n      swap1\n      pop\n        /* \"contracts/KajuswapRouter.sol\":8337:8555  function getAmountsOut(uint256 amountIn, address[] memory path)... */\n      swap3\n      swap2\n      pop\n      pop\n      jump\t// out\n        /* \"contracts/KajuswapRouter.sol\":550:566  address public A */\n    tag_75:\n      0x02\n      0x00\n      swap1\n      sload\n      swap1\n      0x0100\n      exp\n      swap1\n      div\n      0xffffffffffffffffffffffffffffffffffffffff\n      and\n      dup2\n      jump\t// out\n        /* \"contracts/KajuswapLibrary.sol\":1545:2498  function pairFor(... */\n    tag_116:\n        /* \"contracts/KajuswapLibrary.sol\":1675:1694  address pairAddress */\n      0x00\n        /* \"contracts/KajuswapLibrary.sol\":1708:1722  address token0 */\n      dup1\n        /* \"contracts/KajuswapLibrary.sol\":1724:1738  address token1 */\n      0x00\n        /* \"contracts/KajuswapLibrary.sol\":1742:1768  sortTokens(tokenA, tokenB) */\n      tag_204\n        /* \"contracts/KajuswapLibrary.sol\":1753:1759  tokenA */\n      dup6\n        /* \"contracts/KajuswapLibrary.sol\":1761:1767  tokenB */\n      dup6\n        /* \"contracts/KajuswapLibrary.sol\":1742:1752  sortTokens */\n      tag_205\n        /* \"contracts/KajuswapLibrary.sol\":1742:1768  sortTokens(tokenA, tokenB) */\n      jump\t// in\n    tag_204:\n        /* \"contracts/KajuswapLibrary.sol\":1707:1768  (address token0, address token1) = sortTokens(tokenA, tokenB) */\n      swap2\n      pop\n      swap2\n      pop\n        /* \"contracts/KajuswapLibrary.sol\":2165:2179  factoryAddress */\n      dup6\n        /* \"contracts/KajuswapLibrary.sol\":2237:2243  token0 */\n      dup3\n        /* \"contracts/KajuswapLibrary.sol\":2245:2251  token1 */\n      dup3\n        /* \"contracts/KajuswapLibrary.sol\":2220:2252  abi.encodePacked(token0, token1) */\n      add(0x20, mload(0x40))\n      tag_206\n      swap3\n      swap2\n      swap1\n      tag_207\n      jump\t// in\n    tag_206:\n      mload(0x40)\n      0x20\n      dup2\n      dup4\n      sub\n      sub\n      dup2\n      mstore\n      swap1\n      0x40\n      mstore\n        /* \"contracts/KajuswapLibrary.sol\":2210:2253  keccak256(abi.encodePacked(token0, token1)) */\n      dup1\n      mload\n      swap1\n      0x20\n      add\n      keccak256\n        /* \"contracts/KajuswapLibrary.sol\":2080:2422  abi.encodePacked(... */\n      add(0x20, mload(0x40))\n      tag_208\n      swap3\n      swap2\n      swap1\n      tag_209\n      jump\t// in\n    tag_208:\n      mload(0x40)\n      0x20\n      dup2\n      dup4\n      sub\n      sub\n      dup2\n      mstore\n      swap1\n      0x40\n      mstore\n        /* \"contracts/KajuswapLibrary.sol\":2044:2445  keccak256(... */\n      dup1\n      mload\n      swap1\n      0x20\n      add\n      keccak256\n        /* \"contracts/KajuswapLibrary.sol\":2014:2464  uint256(... */\n      0x00\n      shr\n        /* \"contracts/KajuswapLibrary.sol\":1952:2490  pairAddress = address(... */\n      swap3\n      pop\n        /* \"contracts/KajuswapLibrary.sol\":1696:2498  {... */\n      pop\n      pop\n        /* \"contracts/KajuswapLibrary.sol\":1545:2498  function pairFor(... */\n      swap4\n      swap3\n      pop\n      pop\n      pop\n      jump\t// out\n        /* \"contracts/KajuswapRouter.sol\":6972:7533  function _safeTransferFrom(... */\n    tag_119:\n        /* \"contracts/KajuswapRouter.sol\":7095:7107  bool success */\n      0x00\n        /* \"contracts/KajuswapRouter.sol\":7109:7126  bytes memory data */\n      dup1\n        /* \"contracts/KajuswapRouter.sol\":7130:7135  token */\n      dup5\n        /* \"contracts/KajuswapRouter.sol\":7130:7140  token.call */\n      0xffffffffffffffffffffffffffffffffffffffff\n      and\n        /* \"contracts/KajuswapRouter.sol\":7195:7229  bytes('transfer(address,uint256)') */\n      mload(0x40)\n      dup1\n      0x40\n      add\n      0x40\n      mstore\n      dup1\n      0x19\n      dup2\n      mstore\n      0x20\n      add\n      0x7472616e7366657228616464726573732c75696e743235362900000000000000\n      dup2\n      mstore\n      pop\n        /* \"contracts/KajuswapRouter.sol\":7185:7230  keccak256(bytes('transfer(address,uint256)')) */\n      dup1\n      mload\n      swap1\n      0x20\n      add\n      keccak256\n        /* \"contracts/KajuswapRouter.sol\":7233:7235  to */\n      dup6\n        /* \"contracts/KajuswapRouter.sol\":7237:7242  value */\n      dup6\n        /* \"contracts/KajuswapRouter.sol\":7155:7243  abi.encodeWithSelector(bytes4(keccak256(bytes('transfer(address,uint256)'))), to, value) */\n      add(0x24, mload(0x40))\n      tag_211\n      swap3\n      swap2\n      swap1\n      tag_212\n      jump\t// in\n    tag_211:\n      mload(0x40)\n      0x20\n      dup2\n      dup4\n      sub\n      sub\n      dup2\n      mstore\n      swap1\n      0x40\n      mstore\n      swap1\n      not(0xffffffffffffffffffffffffffffffffffffffffffffffffffffffff)\n      and\n      0x20\n      dup3\n      add\n      dup1\n      mload\n      0xffffffffffffffffffffffffffffffffffffffffffffffffffffffff\n      dup4\n      dup2\n      dup4\n      and\n      or\n      dup4\n      mstore\n      pop\n      pop\n      pop\n      pop\n        /* \"contracts/KajuswapRouter.sol\":7130:7254  token.call(... */\n      mload(0x40)\n      tag_213\n      swap2\n      swap1\n      tag_214\n      jump\t// in\n    tag_213:\n      0x00\n      mload(0x40)\n      dup1\n      dup4\n      sub\n      dup2\n      0x00\n      dup7\n      gas\n      call\n      swap2\n      pop\n      pop\n      returndatasize\n      dup1\n      0x00\n      dup2\n      eq\n      tag_217\n      jumpi\n      mload(0x40)\n      swap2\n      pop\n      and(add(returndatasize, 0x3f), not(0x1f))\n      dup3\n      add\n      0x40\n      mstore\n      returndatasize\n      dup3\n      mstore\n      returndatasize\n      0x00\n      0x20\n      dup5\n      add\n      returndatacopy\n      jump(tag_216)\n    tag_217:\n      0x60\n      swap2\n      pop\n    tag_216:\n      pop\n        /* \"contracts/KajuswapRouter.sol\":7094:7254  (bool success, bytes memory data) = token.call(... */\n      swap2\n      pop\n      swap2\n      pop\n        /* \"contracts/KajuswapRouter.sol\":7270:7277  success */\n      dup2\n        /* \"contracts/KajuswapRouter.sol\":7269:7277  !success */\n      iszero\n        /* \"contracts/KajuswapRouter.sol\":7269:7328  !success || (data.length != 0 && !abi.decode(data, (bool))) */\n      dup1\n      tag_218\n      jumpi\n      pop\n        /* \"contracts/KajuswapRouter.sol\":7297:7298  0 */\n      0x00\n        /* \"contracts/KajuswapRouter.sol\":7282:7286  data */\n      dup2\n        /* \"contracts/KajuswapRouter.sol\":7282:7293  data.length */\n      mload\n        /* \"contracts/KajuswapRouter.sol\":7282:7298  data.length != 0 */\n      eq\n      iszero\n        /* \"contracts/KajuswapRouter.sol\":7282:7327  data.length != 0 && !abi.decode(data, (bool)) */\n      dup1\n      iszero\n      tag_219\n      jumpi\n      pop\n        /* \"contracts/KajuswapRouter.sol\":7314:7318  data */\n      dup1\n        /* \"contracts/KajuswapRouter.sol\":7303:7327  abi.decode(data, (bool)) */\n      dup1\n      0x20\n      add\n      swap1\n      mload\n      dup2\n      add\n      swap1\n      tag_220\n      swap2\n      swap1\n      tag_165\n      jump\t// in\n    tag_220:\n        /* \"contracts/KajuswapRouter.sol\":7302:7327  !abi.decode(data, (bool)) */\n      iszero\n        /* \"contracts/KajuswapRouter.sol\":7282:7327  data.length != 0 && !abi.decode(data, (bool)) */\n    tag_219:\n        /* \"contracts/KajuswapRouter.sol\":7269:7328  !success || (data.length != 0 && !abi.decode(data, (bool))) */\n    tag_218:\n        /* \"contracts/KajuswapRouter.sol\":7265:7416  if (!success || (data.length != 0 && !abi.decode(data, (bool))))... */\n      iszero\n      tag_221\n      jumpi\n        /* \"contracts/KajuswapRouter.sol\":7403:7405  to */\n      dup4\n        /* \"contracts/KajuswapRouter.sol\":7409:7414  token */\n      dup6\n        /* \"contracts/KajuswapRouter.sol\":7350:7416  SafeTransferFailed({error5:\"SafeTransferFailed\",PA : to, A:token}) */\n      mload(0x40)\n      0xc218e9bc00000000000000000000000000000000000000000000000000000000\n      dup2\n      mstore\n      0x04\n      add\n      tag_222\n      swap3\n      swap2\n      swap1\n      tag_223\n      jump\t// in\n    tag_222:\n      mload(0x40)\n      dup1\n      swap2\n      sub\n      swap1\n      revert\n        /* \"contracts/KajuswapRouter.sol\":7265:7416  if (!success || (data.length != 0 && !abi.decode(data, (bool))))... */\n    tag_221:\n        /* \"contracts/KajuswapRouter.sol\":7083:7533  {... */\n      pop\n      pop\n        /* \"contracts/KajuswapRouter.sol\":6972:7533  function _safeTransferFrom(... */\n      pop\n      pop\n      pop\n      jump\t// out\n        /* \"contracts/KajuswapRouter.sol\":4452:5307  function _swap(... */\n    tag_121:\n        /* \"contracts/KajuswapRouter.sol\":4588:4597  uint256 i */\n      0x00\n        /* \"contracts/KajuswapRouter.sol\":4583:5300  for (uint256 i = 0; i < path.length - 1; i++) {... */\n    tag_225:\n        /* \"contracts/KajuswapRouter.sol\":4621:4622  1 */\n      0x01\n        /* \"contracts/KajuswapRouter.sol\":4607:4611  path */\n      dup4\n        /* \"contracts/KajuswapRouter.sol\":4607:4618  path.length */\n      mload\n        /* \"contracts/KajuswapRouter.sol\":4607:4622  path.length - 1 */\n      tag_228\n      swap2\n      swap1\n      tag_128\n      jump\t// in\n    tag_228:\n        /* \"contracts/KajuswapRouter.sol\":4603:4604  i */\n      dup2\n        /* \"contracts/KajuswapRouter.sol\":4603:4622  i < path.length - 1 */\n      lt\n        /* \"contracts/KajuswapRouter.sol\":4583:5300  for (uint256 i = 0; i < path.length - 1; i++) {... */\n      iszero\n      tag_226\n      jumpi\n        /* \"contracts/KajuswapRouter.sol\":4645:4658  address input */\n      0x00\n        /* \"contracts/KajuswapRouter.sol\":4660:4674  address output */\n      dup1\n        /* \"contracts/KajuswapRouter.sol\":4679:4683  path */\n      dup5\n        /* \"contracts/KajuswapRouter.sol\":4684:4685  i */\n      dup4\n        /* \"contracts/KajuswapRouter.sol\":4679:4686  path[i] */\n      dup2\n      mload\n      dup2\n      lt\n      tag_229\n      jumpi\n      tag_230\n      tag_100\n      jump\t// in\n    tag_230:\n    tag_229:\n      0x20\n      mul\n      0x20\n      add\n      add\n      mload\n        /* \"contracts/KajuswapRouter.sol\":4688:4692  path */\n      dup6\n        /* \"contracts/KajuswapRouter.sol\":4697:4698  1 */\n      0x01\n        /* \"contracts/KajuswapRouter.sol\":4693:4694  i */\n      dup6\n        /* \"contracts/KajuswapRouter.sol\":4693:4698  i + 1 */\n      tag_231\n      swap2\n      swap1\n      tag_232\n      jump\t// in\n    tag_231:\n        /* \"contracts/KajuswapRouter.sol\":4688:4699  path[i + 1] */\n      dup2\n      mload\n      dup2\n      lt\n      tag_233\n      jumpi\n      tag_234\n      tag_100\n      jump\t// in\n    tag_234:\n    tag_233:\n      0x20\n      mul\n      0x20\n      add\n      add\n      mload\n        /* \"contracts/KajuswapRouter.sol\":4644:4700  (address input, address output) = (path[i], path[i + 1]) */\n      swap2\n      pop\n      swap2\n      pop\n        /* \"contracts/KajuswapRouter.sol\":4716:4730  address token0 */\n      0x00\n        /* \"contracts/KajuswapRouter.sol\":4736:4777  KajuswapLibrary.sortTokens(input, output) */\n      tag_235\n        /* \"contracts/KajuswapRouter.sol\":4763:4768  input */\n      dup4\n        /* \"contracts/KajuswapRouter.sol\":4770:4776  output */\n      dup4\n        /* \"contracts/KajuswapRouter.sol\":4736:4762  KajuswapLibrary.sortTokens */\n      tag_205\n        /* \"contracts/KajuswapRouter.sol\":4736:4777  KajuswapLibrary.sortTokens(input, output) */\n      jump\t// in\n    tag_235:\n        /* \"contracts/KajuswapRouter.sol\":4715:4777  (address token0, ) = KajuswapLibrary.sortTokens(input, output) */\n      pop\n      swap1\n      pop\n        /* \"contracts/KajuswapRouter.sol\":4792:4809  uint256 amountOut */\n      0x00\n        /* \"contracts/KajuswapRouter.sol\":4812:4819  amounts */\n      dup8\n        /* \"contracts/KajuswapRouter.sol\":4824:4825  1 */\n      0x01\n        /* \"contracts/KajuswapRouter.sol\":4820:4821  i */\n      dup7\n        /* \"contracts/KajuswapRouter.sol\":4820:4825  i + 1 */\n      tag_236\n      swap2\n      swap1\n      tag_232\n      jump\t// in\n    tag_236:\n        /* \"contracts/KajuswapRouter.sol\":4812:4826  amounts[i + 1] */\n      dup2\n      mload\n      dup2\n      lt\n      tag_237\n      jumpi\n      tag_238\n      tag_100\n      jump\t// in\n    tag_238:\n    tag_237:\n      0x20\n      mul\n      0x20\n      add\n      add\n      mload\n        /* \"contracts/KajuswapRouter.sol\":4792:4826  uint256 amountOut = amounts[i + 1] */\n      swap1\n      pop\n        /* \"contracts/KajuswapRouter.sol\":4842:4860  uint256 amount0Out */\n      0x00\n        /* \"contracts/KajuswapRouter.sol\":4862:4880  uint256 amount1Out */\n      dup1\n        /* \"contracts/KajuswapRouter.sol\":4893:4899  token0 */\n      dup4\n        /* \"contracts/KajuswapRouter.sol\":4884:4899  input == token0 */\n      0xffffffffffffffffffffffffffffffffffffffff\n      and\n        /* \"contracts/KajuswapRouter.sol\":4884:4889  input */\n      dup7\n        /* \"contracts/KajuswapRouter.sol\":4884:4899  input == token0 */\n      0xffffffffffffffffffffffffffffffffffffffff\n      and\n      eq\n        /* \"contracts/KajuswapRouter.sol\":4884:4985  input == token0... */\n      tag_239\n      jumpi\n        /* \"contracts/KajuswapRouter.sol\":4963:4972  amountOut */\n      dup3\n        /* \"contracts/KajuswapRouter.sol\":4982:4983  0 */\n      0x00\n        /* \"contracts/KajuswapRouter.sol\":4884:4985  input == token0... */\n      jump(tag_240)\n    tag_239:\n        /* \"contracts/KajuswapRouter.sol\":4928:4929  0 */\n      0x00\n        /* \"contracts/KajuswapRouter.sol\":4932:4941  amountOut */\n      dup4\n        /* \"contracts/KajuswapRouter.sol\":4884:4985  input == token0... */\n    tag_240:\n        /* \"contracts/KajuswapRouter.sol\":4841:4985  (uint256 amount0Out, uint256 amount1Out) = input == token0... */\n      swap2\n      pop\n      swap2\n      pop\n        /* \"contracts/KajuswapRouter.sol\":5000:5010  address to */\n      0x00\n        /* \"contracts/KajuswapRouter.sol\":5031:5032  2 */\n      0x02\n        /* \"contracts/KajuswapRouter.sol\":5017:5021  path */\n      dup11\n        /* \"contracts/KajuswapRouter.sol\":5017:5028  path.length */\n      mload\n        /* \"contracts/KajuswapRouter.sol\":5017:5032  path.length - 2 */\n      tag_241\n      swap2\n      swap1\n      tag_128\n      jump\t// in\n    tag_241:\n        /* \"contracts/KajuswapRouter.sol\":5013:5014  i */\n      dup9\n        /* \"contracts/KajuswapRouter.sol\":5013:5032  i < path.length - 2 */\n      lt\n        /* \"contracts/KajuswapRouter.sol\":5013:5137  i < path.length - 2... */\n      tag_242\n      jumpi\n        /* \"contracts/KajuswapRouter.sol\":5134:5137  to_ */\n      dup9\n        /* \"contracts/KajuswapRouter.sol\":5013:5137  i < path.length - 2... */\n      jump(tag_243)\n    tag_242:\n        /* \"contracts/KajuswapRouter.sol\":5052:5114  KajuswapLibrary.pairFor(address(factory), output, path[i + 2]) */\n      tag_244\n        /* \"contracts/KajuswapRouter.sol\":5084:5091  factory */\n      0x00\n      dup1\n      sload\n      swap1\n      0x0100\n      exp\n      swap1\n      div\n      0xffffffffffffffffffffffffffffffffffffffff\n      and\n        /* \"contracts/KajuswapRouter.sol\":5094:5100  output */\n      dup8\n        /* \"contracts/KajuswapRouter.sol\":5102:5106  path */\n      dup13\n        /* \"contracts/KajuswapRouter.sol\":5111:5112  2 */\n      0x02\n        /* \"contracts/KajuswapRouter.sol\":5107:5108  i */\n      dup13\n        /* \"contracts/KajuswapRouter.sol\":5107:5112  i + 2 */\n      tag_245\n      swap2\n      swap1\n      tag_232\n      jump\t// in\n    tag_245:\n        /* \"contracts/KajuswapRouter.sol\":5102:5113  path[i + 2] */\n      dup2\n      mload\n      dup2\n      lt\n      tag_246\n      jumpi\n      tag_247\n      tag_100\n      jump\t// in\n    tag_247:\n    tag_246:\n      0x20\n      mul\n      0x20\n      add\n      add\n      mload\n        /* \"contracts/KajuswapRouter.sol\":5052:5075  KajuswapLibrary.pairFor */\n      tag_116\n        /* \"contracts/KajuswapRouter.sol\":5052:5114  KajuswapLibrary.pairFor(address(factory), output, path[i + 2]) */\n      jump\t// in\n    tag_244:\n        /* \"contracts/KajuswapRouter.sol\":5013:5137  i < path.length - 2... */\n    tag_243:\n        /* \"contracts/KajuswapRouter.sol\":5000:5137  address to = i < path.length - 2... */\n      swap1\n      pop\n        /* \"contracts/KajuswapRouter.sol\":5184:5240  KajuswapLibrary.pairFor(address(factory), input, output) */\n      tag_248\n        /* \"contracts/KajuswapRouter.sol\":5216:5223  factory */\n      0x00\n      dup1\n      sload\n      swap1\n      0x0100\n      exp\n      swap1\n      div\n      0xffffffffffffffffffffffffffffffffffffffff\n      and\n        /* \"contracts/KajuswapRouter.sol\":5226:5231  input */\n      dup9\n        /* \"contracts/KajuswapRouter.sol\":5233:5239  output */\n      dup9\n        /* \"contracts/KajuswapRouter.sol\":5184:5207  KajuswapLibrary.pairFor */\n      tag_116\n        /* \"contracts/KajuswapRouter.sol\":5184:5240  KajuswapLibrary.pairFor(address(factory), input, output) */\n      jump\t// in\n    tag_248:\n        /* \"contracts/KajuswapRouter.sol\":5152:5260  IKajuswapPair(... */\n      0xffffffffffffffffffffffffffffffffffffffff\n      and\n      0x6d9a640a\n        /* \"contracts/KajuswapRouter.sol\":5261:5271  amount0Out */\n      dup5\n        /* \"contracts/KajuswapRouter.sol\":5273:5283  amount1Out */\n      dup5\n        /* \"contracts/KajuswapRouter.sol\":5285:5287  to */\n      dup5\n        /* \"contracts/KajuswapRouter.sol\":5152:5288  IKajuswapPair(... */\n      mload(0x40)\n      dup5\n      0xffffffff\n      and\n      0xe0\n      shl\n      dup2\n      mstore\n      0x04\n      add\n      tag_249\n      swap4\n      swap3\n      swap2\n      swap1\n      tag_250\n      jump\t// in\n    tag_249:\n      0x00\n      mload(0x40)\n      dup1\n      dup4\n      sub\n      dup2\n      0x00\n      dup8\n      dup1\n      extcodesize\n      iszero\n      dup1\n      iszero\n      tag_251\n      jumpi\n      0x00\n      dup1\n      revert\n    tag_251:\n      pop\n      gas\n      call\n      iszero\n      dup1\n      iszero\n      tag_253\n      jumpi\n      returndatasize\n      0x00\n      dup1\n      returndatacopy\n      revert(0x00, returndatasize)\n    tag_253:\n      pop\n      pop\n      pop\n      pop\n        /* \"contracts/KajuswapRouter.sol\":4629:5300  {... */\n      pop\n      pop\n      pop\n      pop\n      pop\n      pop\n      pop\n        /* \"contracts/KajuswapRouter.sol\":4624:4627  i++ */\n      dup1\n      dup1\n      tag_254\n      swap1\n      tag_255\n      jump\t// in\n    tag_254:\n      swap2\n      pop\n      pop\n        /* \"contracts/KajuswapRouter.sol\":4583:5300  for (uint256 i = 0; i < path.length - 1; i++) {... */\n      jump(tag_225)\n    tag_226:\n      pop\n        /* \"contracts/KajuswapRouter.sol\":4452:5307  function _swap(... */\n      pop\n      pop\n      pop\n      jump\t// out\n        /* \"contracts/KajuswapRouter.sol\":5315:6964  function _calculateLiquidity(... */\n    tag_190:\n        /* \"contracts/KajuswapRouter.sol\":5543:5558  uint256 amountA */\n      0x00\n        /* \"contracts/KajuswapRouter.sol\":5560:5575  uint256 amountB */\n      dup1\n        /* \"contracts/KajuswapRouter.sol\":5589:5605  uint256 reserveA */\n      0x00\n        /* \"contracts/KajuswapRouter.sol\":5607:5623  uint256 reserveB */\n      dup1\n        /* \"contracts/KajuswapRouter.sol\":5627:5642  KajuswapLibrary */\n      linkerSymbol(\"18693c2782ae7b010cc3bd0449f436a78932852c600971ebfaa34cda17c779df\")\n        /* \"contracts/KajuswapRouter.sol\":5627:5654  KajuswapLibrary.getReserves */\n      0x32749461\n        /* \"contracts/KajuswapRouter.sol\":5677:5684  factory */\n      0x00\n      dup1\n      sload\n      swap1\n      0x0100\n      exp\n      swap1\n      div\n      0xffffffffffffffffffffffffffffffffffffffff\n      and\n        /* \"contracts/KajuswapRouter.sol\":5700:5706  tokenA */\n      dup13\n        /* \"contracts/KajuswapRouter.sol\":5721:5727  tokenB */\n      dup13\n        /* \"contracts/KajuswapRouter.sol\":5627:5738  KajuswapLibrary.getReserves(... */\n      mload(0x40)\n      dup5\n      0xffffffff\n      and\n      0xe0\n      shl\n      dup2\n      mstore\n      0x04\n      add\n      tag_257\n      swap4\n      swap3\n      swap2\n      swap1\n      tag_258\n      jump\t// in\n    tag_257:\n      0x40\n      dup1\n      mload\n      dup1\n      dup4\n      sub\n      dup2\n      dup7\n      gas\n      delegatecall\n      iszero\n      dup1\n      iszero\n      tag_260\n      jumpi\n      returndatasize\n      0x00\n      dup1\n      returndatacopy\n      revert(0x00, returndatasize)\n    tag_260:\n      pop\n      pop\n      pop\n      pop\n      mload(0x40)\n      returndatasize\n      not(0x1f)\n      0x1f\n      dup3\n      add\n      and\n      dup3\n      add\n      dup1\n      0x40\n      mstore\n      pop\n      dup2\n      add\n      swap1\n      tag_261\n      swap2\n      swap1\n      tag_170\n      jump\t// in\n    tag_261:\n        /* \"contracts/KajuswapRouter.sol\":5588:5738  (uint256 reserveA, uint256 reserveB) = KajuswapLibrary.getReserves(... */\n      swap2\n      pop\n      swap2\n      pop\n        /* \"contracts/KajuswapRouter.sol\":5767:5768  0 */\n      0x00\n        /* \"contracts/KajuswapRouter.sol\":5755:5763  reserveA */\n      dup3\n        /* \"contracts/KajuswapRouter.sol\":5755:5768  reserveA == 0 */\n      eq\n        /* \"contracts/KajuswapRouter.sol\":5755:5785  reserveA == 0 && reserveB == 0 */\n      dup1\n      iszero\n      tag_262\n      jumpi\n      pop\n        /* \"contracts/KajuswapRouter.sol\":5784:5785  0 */\n      0x00\n        /* \"contracts/KajuswapRouter.sol\":5772:5780  reserveB */\n      dup2\n        /* \"contracts/KajuswapRouter.sol\":5772:5785  reserveB == 0 */\n      eq\n        /* \"contracts/KajuswapRouter.sol\":5755:5785  reserveA == 0 && reserveB == 0 */\n    tag_262:\n        /* \"contracts/KajuswapRouter.sol\":5751:6957  if (reserveA == 0 && reserveB == 0) {... */\n      iszero\n      tag_263\n      jumpi\n        /* \"contracts/KajuswapRouter.sol\":5824:5838  amountADesired */\n      dup8\n        /* \"contracts/KajuswapRouter.sol\":5840:5854  amountBDesired */\n      dup8\n        /* \"contracts/KajuswapRouter.sol\":5802:5855  (amountA, amountB) = (amountADesired, amountBDesired) */\n      dup1\n      swap5\n      pop\n      dup2\n      swap6\n      pop\n      pop\n      pop\n        /* \"contracts/KajuswapRouter.sol\":5751:6957  if (reserveA == 0 && reserveB == 0) {... */\n      jump(tag_264)\n    tag_263:\n        /* \"contracts/KajuswapRouter.sol\":5888:5910  uint256 amountBOptimal */\n      0x00\n        /* \"contracts/KajuswapRouter.sol\":5913:5928  KajuswapLibrary */\n      linkerSymbol(\"18693c2782ae7b010cc3bd0449f436a78932852c600971ebfaa34cda17c779df\")\n        /* \"contracts/KajuswapRouter.sol\":5913:5934  KajuswapLibrary.quote */\n      0xad615dec\n        /* \"contracts/KajuswapRouter.sol\":5953:5967  amountADesired */\n      dup11\n        /* \"contracts/KajuswapRouter.sol\":5986:5994  reserveA */\n      dup6\n        /* \"contracts/KajuswapRouter.sol\":6013:6021  reserveB */\n      dup6\n        /* \"contracts/KajuswapRouter.sol\":5913:6036  KajuswapLibrary.quote(... */\n      mload(0x40)\n      dup5\n      0xffffffff\n      and\n      0xe0\n      shl\n      dup2\n      mstore\n      0x04\n      add\n      tag_265\n      swap4\n      swap3\n      swap2\n      swap1\n      tag_79\n      jump\t// in\n    tag_265:\n      0x20\n      mload(0x40)\n      dup1\n      dup4\n      sub\n      dup2\n      dup7\n      gas\n      delegatecall\n      iszero\n      dup1\n      iszero\n      tag_267\n      jumpi\n      returndatasize\n      0x00\n      dup1\n      returndatacopy\n      revert(0x00, returndatasize)\n    tag_267:\n      pop\n      pop\n      pop\n      pop\n      mload(0x40)\n      returndatasize\n      not(0x1f)\n      0x1f\n      dup3\n      add\n      and\n      dup3\n      add\n      dup1\n      0x40\n      mstore\n      pop\n      dup2\n      add\n      swap1\n      tag_268\n      swap2\n      swap1\n      tag_83\n      jump\t// in\n    tag_268:\n        /* \"contracts/KajuswapRouter.sol\":5888:6036  uint256 amountBOptimal = KajuswapLibrary.quote(... */\n      swap1\n      pop\n        /* \"contracts/KajuswapRouter.sol\":6100:6114  amountBDesired */\n      dup8\n        /* \"contracts/KajuswapRouter.sol\":6082:6096  amountBOptimal */\n      dup2\n        /* \"contracts/KajuswapRouter.sol\":6082:6114  amountBOptimal <= amountBDesired */\n      gt\n        /* \"contracts/KajuswapRouter.sol\":6078:6946  if (amountBOptimal <= amountBDesired) {... */\n      tag_269\n      jumpi\n        /* \"contracts/KajuswapRouter.sol\":6266:6276  amountBMin */\n      dup6\n        /* \"contracts/KajuswapRouter.sol\":6248:6262  amountBOptimal */\n      dup2\n        /* \"contracts/KajuswapRouter.sol\":6248:6276  amountBOptimal >= amountBMin */\n      lt\n      iszero\n        /* \"contracts/KajuswapRouter.sol\":6240:6318  require(amountBOptimal >= amountBMin, \"KajuswapRouter: INSUFFICIENT_B_AMOUNT\") */\n      tag_270\n      jumpi\n      mload(0x40)\n      0x08c379a000000000000000000000000000000000000000000000000000000000\n      dup2\n      mstore\n      0x04\n      add\n      tag_271\n      swap1\n      tag_176\n      jump\t// in\n    tag_271:\n      mload(0x40)\n      dup1\n      swap2\n      sub\n      swap1\n      revert\n    tag_270:\n        /* \"contracts/KajuswapRouter.sol\":6359:6373  amountADesired */\n      dup9\n        /* \"contracts/KajuswapRouter.sol\":6375:6389  amountBOptimal */\n      dup2\n        /* \"contracts/KajuswapRouter.sol\":6337:6390  (amountA, amountB) = (amountADesired, amountBOptimal) */\n      dup1\n      swap6\n      pop\n      dup2\n      swap7\n      pop\n      pop\n      pop\n        /* \"contracts/KajuswapRouter.sol\":6078:6946  if (amountBOptimal <= amountBDesired) {... */\n      jump(tag_272)\n    tag_269:\n        /* \"contracts/KajuswapRouter.sol\":6431:6453  uint256 amountAOptimal */\n      0x00\n        /* \"contracts/KajuswapRouter.sol\":6456:6471  KajuswapLibrary */\n      linkerSymbol(\"18693c2782ae7b010cc3bd0449f436a78932852c600971ebfaa34cda17c779df\")\n        /* \"contracts/KajuswapRouter.sol\":6456:6477  KajuswapLibrary.quote */\n      0xad615dec\n        /* \"contracts/KajuswapRouter.sol\":6500:6514  amountBDesired */\n      dup11\n        /* \"contracts/KajuswapRouter.sol\":6537:6545  reserveB */\n      dup6\n        /* \"contracts/KajuswapRouter.sol\":6568:6576  reserveA */\n      dup8\n        /* \"contracts/KajuswapRouter.sol\":6456:6595  KajuswapLibrary.quote(... */\n      mload(0x40)\n      dup5\n      0xffffffff\n      and\n      0xe0\n      shl\n      dup2\n      mstore\n      0x04\n      add\n      tag_273\n      swap4\n      swap3\n      swap2\n      swap1\n      tag_79\n      jump\t// in\n    tag_273:\n      0x20\n      mload(0x40)\n      dup1\n      dup4\n      sub\n      dup2\n      dup7\n      gas\n      delegatecall\n      iszero\n      dup1\n      iszero\n      tag_275\n      jumpi\n      returndatasize\n      0x00\n      dup1\n      returndatacopy\n      revert(0x00, returndatasize)\n    tag_275:\n      pop\n      pop\n      pop\n      pop\n      mload(0x40)\n      returndatasize\n      not(0x1f)\n      0x1f\n      dup3\n      add\n      and\n      dup3\n      add\n      dup1\n      0x40\n      mstore\n      pop\n      dup2\n      add\n      swap1\n      tag_276\n      swap2\n      swap1\n      tag_83\n      jump\t// in\n    tag_276:\n        /* \"contracts/KajuswapRouter.sol\":6431:6595  uint256 amountAOptimal = KajuswapLibrary.quote(... */\n      swap1\n      pop\n        /* \"contracts/KajuswapRouter.sol\":6639:6653  amountADesired */\n      dup10\n        /* \"contracts/KajuswapRouter.sol\":6621:6635  amountAOptimal */\n      dup2\n        /* \"contracts/KajuswapRouter.sol\":6621:6653  amountAOptimal <= amountADesired */\n      gt\n      iszero\n        /* \"contracts/KajuswapRouter.sol\":6614:6654  assert(amountAOptimal <= amountADesired) */\n      tag_277\n      jumpi\n      tag_278\n      tag_279\n      jump\t// in\n    tag_278:\n    tag_277:\n        /* \"contracts/KajuswapRouter.sol\":6806:6816  amountAMin */\n      dup8\n        /* \"contracts/KajuswapRouter.sol\":6788:6802  amountAOptimal */\n      dup2\n        /* \"contracts/KajuswapRouter.sol\":6788:6816  amountAOptimal >= amountAMin */\n      lt\n      iszero\n        /* \"contracts/KajuswapRouter.sol\":6780:6858  require(amountAOptimal >= amountAMin, \"KajuswapRouter: INSUFFICIENT_A_AMOUNT\") */\n      tag_280\n      jumpi\n      mload(0x40)\n      0x08c379a000000000000000000000000000000000000000000000000000000000\n      dup2\n      mstore\n      0x04\n      add\n      tag_281\n      swap1\n      tag_173\n      jump\t// in\n    tag_281:\n      mload(0x40)\n      dup1\n      swap2\n      sub\n      swap1\n      revert\n    tag_280:\n        /* \"contracts/KajuswapRouter.sol\":6899:6913  amountAOptimal */\n      dup1\n        /* \"contracts/KajuswapRouter.sol\":6915:6929  amountBDesired */\n      dup10\n        /* \"contracts/KajuswapRouter.sol\":6877:6930  (amountA, amountB) = (amountAOptimal, amountBDesired) */\n      dup1\n      swap7\n      pop\n      dup2\n      swap8\n      pop\n      pop\n      pop\n        /* \"contracts/KajuswapRouter.sol\":6412:6946  {... */\n      pop\n        /* \"contracts/KajuswapRouter.sol\":6078:6946  if (amountBOptimal <= amountBDesired) {... */\n    tag_272:\n        /* \"contracts/KajuswapRouter.sol\":5873:6957  {... */\n      pop\n        /* \"contracts/KajuswapRouter.sol\":5751:6957  if (reserveA == 0 && reserveB == 0) {... */\n    tag_264:\n        /* \"contracts/KajuswapRouter.sol\":5577:6964  {... */\n      pop\n      pop\n        /* \"contracts/KajuswapRouter.sol\":5315:6964  function _calculateLiquidity(... */\n      swap7\n      pop\n      swap7\n      swap5\n      pop\n      pop\n      pop\n      pop\n      pop\n      jump\t// out\n        /* \"contracts/KajuswapLibrary.sol\":2506:2724  function sortTokens(address tokenA, address tokenB)... */\n    tag_205:\n        /* \"contracts/KajuswapLibrary.sol\":2608:2622  address token0 */\n      0x00\n        /* \"contracts/KajuswapLibrary.sol\":2624:2638  address token1 */\n      dup1\n        /* \"contracts/KajuswapLibrary.sol\":2672:2678  tokenB */\n      dup3\n        /* \"contracts/KajuswapLibrary.sol\":2663:2678  tokenA < tokenB */\n      0xffffffffffffffffffffffffffffffffffffffff\n      and\n        /* \"contracts/KajuswapLibrary.sol\":2663:2669  tokenA */\n      dup5\n        /* \"contracts/KajuswapLibrary.sol\":2663:2678  tokenA < tokenB */\n      0xffffffffffffffffffffffffffffffffffffffff\n      and\n      lt\n        /* \"contracts/KajuswapLibrary.sol\":2663:2716  tokenA < tokenB ? (tokenA, tokenB) : (tokenB, tokenA) */\n      tag_283\n      jumpi\n        /* \"contracts/KajuswapLibrary.sol\":2701:2707  tokenB */\n      dup3\n        /* \"contracts/KajuswapLibrary.sol\":2709:2715  tokenA */\n      dup5\n        /* \"contracts/KajuswapLibrary.sol\":2663:2716  tokenA < tokenB ? (tokenA, tokenB) : (tokenB, tokenA) */\n      jump(tag_284)\n    tag_283:\n        /* \"contracts/KajuswapLibrary.sol\":2682:2688  tokenA */\n      dup4\n        /* \"contracts/KajuswapLibrary.sol\":2690:2696  tokenB */\n      dup4\n        /* \"contracts/KajuswapLibrary.sol\":2663:2716  tokenA < tokenB ? (tokenA, tokenB) : (tokenB, tokenA) */\n    tag_284:\n        /* \"contracts/KajuswapLibrary.sol\":2656:2716  return tokenA < tokenB ? (tokenA, tokenB) : (tokenB, tokenA) */\n      swap2\n      pop\n      swap2\n      pop\n        /* \"contracts/KajuswapLibrary.sol\":2506:2724  function sortTokens(address tokenA, address tokenB)... */\n      swap3\n      pop\n      swap3\n      swap1\n      pop\n      jump\t// out\n        /* \"#utility.yul\":7:82   */\n    tag_285:\n        /* \"#utility.yul\":40:46   */\n      0x00\n        /* \"#utility.yul\":73:75   */\n      0x40\n        /* \"#utility.yul\":67:76   */\n      mload\n        /* \"#utility.yul\":57:76   */\n      swap1\n      pop\n        /* \"#utility.yul\":7:82   */\n      swap1\n      jump\t// out\n        /* \"#utility.yul\":88:205   */\n    tag_286:\n        /* \"#utility.yul\":197:198   */\n      0x00\n        /* \"#utility.yul\":194:195   */\n      dup1\n        /* \"#utility.yul\":187:199   */\n      revert\n        /* \"#utility.yul\":211:328   */\n    tag_287:\n        /* \"#utility.yul\":320:321   */\n      0x00\n        /* \"#utility.yul\":317:318   */\n      dup1\n        /* \"#utility.yul\":310:322   */\n      revert\n        /* \"#utility.yul\":334:411   */\n    tag_288:\n        /* \"#utility.yul\":371:378   */\n      0x00\n        /* \"#utility.yul\":400:405   */\n      dup2\n        /* \"#utility.yul\":389:405   */\n      swap1\n      pop\n        /* \"#utility.yul\":334:411   */\n      swap2\n      swap1\n      pop\n      jump\t// out\n        /* \"#utility.yul\":417:539   */\n    tag_289:\n        /* \"#utility.yul\":490:514   */\n      tag_370\n        /* \"#utility.yul\":508:513   */\n      dup2\n        /* \"#utility.yul\":490:514   */\n      tag_288\n      jump\t// in\n    tag_370:\n        /* \"#utility.yul\":483:488   */\n      dup2\n        /* \"#utility.yul\":480:515   */\n      eq\n        /* \"#utility.yul\":470:533   */\n      tag_371\n      jumpi\n        /* \"#utility.yul\":529:530   */\n      0x00\n        /* \"#utility.yul\":526:527   */\n      dup1\n        /* \"#utility.yul\":519:531   */\n      revert\n        /* \"#utility.yul\":470:533   */\n    tag_371:\n        /* \"#utility.yul\":417:539   */\n      pop\n      jump\t// out\n        /* \"#utility.yul\":545:684   */\n    tag_290:\n        /* \"#utility.yul\":591:596   */\n      0x00\n        /* \"#utility.yul\":629:635   */\n      dup2\n        /* \"#utility.yul\":616:636   */\n      calldataload\n        /* \"#utility.yul\":607:636   */\n      swap1\n      pop\n        /* \"#utility.yul\":645:678   */\n      tag_373\n        /* \"#utility.yul\":672:677   */\n      dup2\n        /* \"#utility.yul\":645:678   */\n      tag_289\n      jump\t// in\n    tag_373:\n        /* \"#utility.yul\":545:684   */\n      swap3\n      swap2\n      pop\n      pop\n      jump\t// out\n        /* \"#utility.yul\":690:1309   */\n    tag_20:\n        /* \"#utility.yul\":767:773   */\n      0x00\n        /* \"#utility.yul\":775:781   */\n      dup1\n        /* \"#utility.yul\":783:789   */\n      0x00\n        /* \"#utility.yul\":832:834   */\n      0x60\n        /* \"#utility.yul\":820:829   */\n      dup5\n        /* \"#utility.yul\":811:818   */\n      dup7\n        /* \"#utility.yul\":807:830   */\n      sub\n        /* \"#utility.yul\":803:835   */\n      slt\n        /* \"#utility.yul\":800:919   */\n      iszero\n      tag_375\n      jumpi\n        /* \"#utility.yul\":838:917   */\n      tag_376\n      tag_286\n      jump\t// in\n    tag_376:\n        /* \"#utility.yul\":800:919   */\n    tag_375:\n        /* \"#utility.yul\":958:959   */\n      0x00\n        /* \"#utility.yul\":983:1036   */\n      tag_377\n        /* \"#utility.yul\":1028:1035   */\n      dup7\n        /* \"#utility.yul\":1019:1025   */\n      dup3\n        /* \"#utility.yul\":1008:1017   */\n      dup8\n        /* \"#utility.yul\":1004:1026   */\n      add\n        /* \"#utility.yul\":983:1036   */\n      tag_290\n      jump\t// in\n    tag_377:\n        /* \"#utility.yul\":973:1036   */\n      swap4\n      pop\n        /* \"#utility.yul\":929:1046   */\n      pop\n        /* \"#utility.yul\":1085:1087   */\n      0x20\n        /* \"#utility.yul\":1111:1164   */\n      tag_378\n        /* \"#utility.yul\":1156:1163   */\n      dup7\n        /* \"#utility.yul\":1147:1153   */\n      dup3\n        /* \"#utility.yul\":1136:1145   */\n      dup8\n        /* \"#utility.yul\":1132:1154   */\n      add\n        /* \"#utility.yul\":1111:1164   */\n      tag_290\n      jump\t// in\n    tag_378:\n        /* \"#utility.yul\":1101:1164   */\n      swap3\n      pop\n        /* \"#utility.yul\":1056:1174   */\n      pop\n        /* \"#utility.yul\":1213:1215   */\n      0x40\n        /* \"#utility.yul\":1239:1292   */\n      tag_379\n        /* \"#utility.yul\":1284:1291   */\n      dup7\n        /* \"#utility.yul\":1275:1281   */\n      dup3\n        /* \"#utility.yul\":1264:1273   */\n      dup8\n        /* \"#utility.yul\":1260:1282   */\n      add\n        /* \"#utility.yul\":1239:1292   */\n      tag_290\n      jump\t// in\n    tag_379:\n        /* \"#utility.yul\":1229:1292   */\n      swap2\n      pop\n        /* \"#utility.yul\":1184:1302   */\n      pop\n        /* \"#utility.yul\":690:1309   */\n      swap3\n      pop\n      swap3\n      pop\n      swap3\n      jump\t// out\n        /* \"#utility.yul\":1315:1433   */\n    tag_291:\n        /* \"#utility.yul\":1402:1426   */\n      tag_381\n        /* \"#utility.yul\":1420:1425   */\n      dup2\n        /* \"#utility.yul\":1402:1426   */\n      tag_288\n      jump\t// in\n    tag_381:\n        /* \"#utility.yul\":1397:1400   */\n      dup3\n        /* \"#utility.yul\":1390:1427   */\n      mstore\n        /* \"#utility.yul\":1315:1433   */\n      pop\n      pop\n      jump\t// out\n        /* \"#utility.yul\":1439:1661   */\n    tag_23:\n        /* \"#utility.yul\":1532:1536   */\n      0x00\n        /* \"#utility.yul\":1570:1572   */\n      0x20\n        /* \"#utility.yul\":1559:1568   */\n      dup3\n        /* \"#utility.yul\":1555:1573   */\n      add\n        /* \"#utility.yul\":1547:1573   */\n      swap1\n      pop\n        /* \"#utility.yul\":1583:1654   */\n      tag_383\n        /* \"#utility.yul\":1651:1652   */\n      0x00\n        /* \"#utility.yul\":1640:1649   */\n      dup4\n        /* \"#utility.yul\":1636:1653   */\n      add\n        /* \"#utility.yul\":1627:1633   */\n      dup5\n        /* \"#utility.yul\":1583:1654   */\n      tag_291\n      jump\t// in\n    tag_383:\n        /* \"#utility.yul\":1439:1661   */\n      swap3\n      swap2\n      pop\n      pop\n      jump\t// out\n        /* \"#utility.yul\":1667:1784   */\n    tag_292:\n        /* \"#utility.yul\":1776:1777   */\n      0x00\n        /* \"#utility.yul\":1773:1774   */\n      dup1\n        /* \"#utility.yul\":1766:1778   */\n      revert\n        /* \"#utility.yul\":1790:1892   */\n    tag_293:\n        /* \"#utility.yul\":1831:1837   */\n      0x00\n        /* \"#utility.yul\":1882:1884   */\n      0x1f\n        /* \"#utility.yul\":1878:1885   */\n      not\n        /* \"#utility.yul\":1873:1875   */\n      0x1f\n        /* \"#utility.yul\":1866:1871   */\n      dup4\n        /* \"#utility.yul\":1862:1876   */\n      add\n        /* \"#utility.yul\":1858:1886   */\n      and\n        /* \"#utility.yul\":1848:1886   */\n      swap1\n      pop\n        /* \"#utility.yul\":1790:1892   */\n      swap2\n      swap1\n      pop\n      jump\t// out\n        /* \"#utility.yul\":1898:2078   */\n    tag_294:\n        /* \"#utility.yul\":1946:2023   */\n      0x4e487b7100000000000000000000000000000000000000000000000000000000\n        /* \"#utility.yul\":1943:1944   */\n      0x00\n        /* \"#utility.yul\":1936:2024   */\n      mstore\n        /* \"#utility.yul\":2043:2047   */\n      0x41\n        /* \"#utility.yul\":2040:2041   */\n      0x04\n        /* \"#utility.yul\":2033:2048   */\n      mstore\n        /* \"#utility.yul\":2067:2071   */\n      0x24\n        /* \"#utility.yul\":2064:2065   */\n      0x00\n        /* \"#utility.yul\":2057:2072   */\n      revert\n        /* \"#utility.yul\":2084:2365   */\n    tag_295:\n        /* \"#utility.yul\":2167:2194   */\n      tag_388\n        /* \"#utility.yul\":2189:2193   */\n      dup3\n        /* \"#utility.yul\":2167:2194   */\n      tag_293\n      jump\t// in\n    tag_388:\n        /* \"#utility.yul\":2159:2165   */\n      dup2\n        /* \"#utility.yul\":2155:2195   */\n      add\n        /* \"#utility.yul\":2297:2303   */\n      dup2\n        /* \"#utility.yul\":2285:2295   */\n      dup2\n        /* \"#utility.yul\":2282:2304   */\n      lt\n        /* \"#utility.yul\":2261:2279   */\n      0xffffffffffffffff\n        /* \"#utility.yul\":2249:2259   */\n      dup3\n        /* \"#utility.yul\":2246:2280   */\n      gt\n        /* \"#utility.yul\":2243:2305   */\n      or\n        /* \"#utility.yul\":2240:2328   */\n      iszero\n      tag_389\n      jumpi\n        /* \"#utility.yul\":2308:2326   */\n      tag_390\n      tag_294\n      jump\t// in\n    tag_390:\n        /* \"#utility.yul\":2240:2328   */\n    tag_389:\n        /* \"#utility.yul\":2348:2358   */\n      dup1\n        /* \"#utility.yul\":2344:2346   */\n      0x40\n        /* \"#utility.yul\":2337:2359   */\n      mstore\n        /* \"#utility.yul\":2127:2365   */\n      pop\n        /* \"#utility.yul\":2084:2365   */\n      pop\n      pop\n      jump\t// out\n        /* \"#utility.yul\":2371:2500   */\n    tag_296:\n        /* \"#utility.yul\":2405:2411   */\n      0x00\n        /* \"#utility.yul\":2432:2452   */\n      tag_392\n      tag_285\n      jump\t// in\n    tag_392:\n        /* \"#utility.yul\":2422:2452   */\n      swap1\n      pop\n        /* \"#utility.yul\":2461:2494   */\n      tag_393\n        /* \"#utility.yul\":2489:2493   */\n      dup3\n        /* \"#utility.yul\":2481:2487   */\n      dup3\n        /* \"#utility.yul\":2461:2494   */\n      tag_295\n      jump\t// in\n    tag_393:\n        /* \"#utility.yul\":2371:2500   */\n      swap2\n      swap1\n      pop\n      jump\t// out\n        /* \"#utility.yul\":2506:2817   */\n    tag_297:\n        /* \"#utility.yul\":2583:2587   */\n      0x00\n        /* \"#utility.yul\":2673:2691   */\n      0xffffffffffffffff\n        /* \"#utility.yul\":2665:2671   */\n      dup3\n        /* \"#utility.yul\":2662:2692   */\n      gt\n        /* \"#utility.yul\":2659:2715   */\n      iszero\n      tag_395\n      jumpi\n        /* \"#utility.yul\":2695:2713   */\n      tag_396\n      tag_294\n      jump\t// in\n    tag_396:\n        /* \"#utility.yul\":2659:2715   */\n    tag_395:\n        /* \"#utility.yul\":2745:2749   */\n      0x20\n        /* \"#utility.yul\":2737:2743   */\n      dup3\n        /* \"#utility.yul\":2733:2750   */\n      mul\n        /* \"#utility.yul\":2725:2750   */\n      swap1\n      pop\n        /* \"#utility.yul\":2805:2809   */\n      0x20\n        /* \"#utility.yul\":2799:2803   */\n      dup2\n        /* \"#utility.yul\":2795:2810   */\n      add\n        /* \"#utility.yul\":2787:2810   */\n      swap1\n      pop\n        /* \"#utility.yul\":2506:2817   */\n      swap2\n      swap1\n      pop\n      jump\t// out\n        /* \"#utility.yul\":2823:2940   */\n    tag_298:\n        /* \"#utility.yul\":2932:2933   */\n      0x00\n        /* \"#utility.yul\":2929:2930   */\n      dup1\n        /* \"#utility.yul\":2922:2934   */\n      revert\n        /* \"#utility.yul\":2946:3072   */\n    tag_299:\n        /* \"#utility.yul\":2983:2990   */\n      0x00\n        /* \"#utility.yul\":3023:3065   */\n      0xffffffffffffffffffffffffffffffffffffffff\n        /* \"#utility.yul\":3016:3021   */\n      dup3\n        /* \"#utility.yul\":3012:3066   */\n      and\n        /* \"#utility.yul\":3001:3066   */\n      swap1\n      pop\n        /* \"#utility.yul\":2946:3072   */\n      swap2\n      swap1\n      pop\n      jump\t// out\n        /* \"#utility.yul\":3078:3174   */\n    tag_300:\n        /* \"#utility.yul\":3115:3122   */\n      0x00\n        /* \"#utility.yul\":3144:3168   */\n      tag_400\n        /* \"#utility.yul\":3162:3167   */\n      dup3\n        /* \"#utility.yul\":3144:3168   */\n      tag_299\n      jump\t// in\n    tag_400:\n        /* \"#utility.yul\":3133:3168   */\n      swap1\n      pop\n        /* \"#utility.yul\":3078:3174   */\n      swap2\n      swap1\n      pop\n      jump\t// out\n        /* \"#utility.yul\":3180:3302   */\n    tag_301:\n        /* \"#utility.yul\":3253:3277   */\n      tag_402\n        /* \"#utility.yul\":3271:3276   */\n      dup2\n        /* \"#utility.yul\":3253:3277   */\n      tag_300\n      jump\t// in\n    tag_402:\n        /* \"#utility.yul\":3246:3251   */\n      dup2\n        /* \"#utility.yul\":3243:3278   */\n      eq\n        /* \"#utility.yul\":3233:3296   */\n      tag_403\n      jumpi\n        /* \"#utility.yul\":3292:3293   */\n      0x00\n        /* \"#utility.yul\":3289:3290   */\n      dup1\n        /* \"#utility.yul\":3282:3294   */\n      revert\n        /* \"#utility.yul\":3233:3296   */\n    tag_403:\n        /* \"#utility.yul\":3180:3302   */\n      pop\n      jump\t// out\n        /* \"#utility.yul\":3308:3447   */\n    tag_302:\n        /* \"#utility.yul\":3354:3359   */\n      0x00\n        /* \"#utility.yul\":3392:3398   */\n      dup2\n        /* \"#utility.yul\":3379:3399   */\n      calldataload\n        /* \"#utility.yul\":3370:3399   */\n      swap1\n      pop\n        /* \"#utility.yul\":3408:3441   */\n      tag_405\n        /* \"#utility.yul\":3435:3440   */\n      dup2\n        /* \"#utility.yul\":3408:3441   */\n      tag_301\n      jump\t// in\n    tag_405:\n        /* \"#utility.yul\":3308:3447   */\n      swap3\n      swap2\n      pop\n      pop\n      jump\t// out\n        /* \"#utility.yul\":3470:4180   */\n    tag_303:\n        /* \"#utility.yul\":3566:3571   */\n      0x00\n        /* \"#utility.yul\":3591:3672   */\n      tag_407\n        /* \"#utility.yul\":3607:3671   */\n      tag_408\n        /* \"#utility.yul\":3664:3670   */\n      dup5\n        /* \"#utility.yul\":3607:3671   */\n      tag_297\n      jump\t// in\n    tag_408:\n        /* \"#utility.yul\":3591:3672   */\n      tag_296\n      jump\t// in\n    tag_407:\n        /* \"#utility.yul\":3582:3672   */\n      swap1\n      pop\n        /* \"#utility.yul\":3692:3697   */\n      dup1\n        /* \"#utility.yul\":3721:3727   */\n      dup4\n        /* \"#utility.yul\":3714:3719   */\n      dup3\n        /* \"#utility.yul\":3707:3728   */\n      mstore\n        /* \"#utility.yul\":3755:3759   */\n      0x20\n        /* \"#utility.yul\":3748:3753   */\n      dup3\n        /* \"#utility.yul\":3744:3760   */\n      add\n        /* \"#utility.yul\":3737:3760   */\n      swap1\n      pop\n        /* \"#utility.yul\":3808:3812   */\n      0x20\n        /* \"#utility.yul\":3800:3806   */\n      dup5\n        /* \"#utility.yul\":3796:3813   */\n      mul\n        /* \"#utility.yul\":3788:3794   */\n      dup4\n        /* \"#utility.yul\":3784:3814   */\n      add\n        /* \"#utility.yul\":3837:3840   */\n      dup6\n        /* \"#utility.yul\":3829:3835   */\n      dup2\n        /* \"#utility.yul\":3826:3841   */\n      gt\n        /* \"#utility.yul\":3823:3945   */\n      iszero\n      tag_409\n      jumpi\n        /* \"#utility.yul\":3856:3935   */\n      tag_410\n      tag_298\n      jump\t// in\n    tag_410:\n        /* \"#utility.yul\":3823:3945   */\n    tag_409:\n        /* \"#utility.yul\":3971:3977   */\n      dup4\n        /* \"#utility.yul\":3954:4174   */\n    tag_411:\n        /* \"#utility.yul\":3988:3994   */\n      dup2\n        /* \"#utility.yul\":3983:3986   */\n      dup2\n        /* \"#utility.yul\":3980:3995   */\n      lt\n        /* \"#utility.yul\":3954:4174   */\n      iszero\n      tag_413\n      jumpi\n        /* \"#utility.yul\":4063:4066   */\n      dup1\n        /* \"#utility.yul\":4092:4129   */\n      tag_414\n        /* \"#utility.yul\":4125:4128   */\n      dup9\n        /* \"#utility.yul\":4113:4123   */\n      dup3\n        /* \"#utility.yul\":4092:4129   */\n      tag_302\n      jump\t// in\n    tag_414:\n        /* \"#utility.yul\":4087:4090   */\n      dup5\n        /* \"#utility.yul\":4080:4130   */\n      mstore\n        /* \"#utility.yul\":4159:4163   */\n      0x20\n        /* \"#utility.yul\":4154:4157   */\n      dup5\n        /* \"#utility.yul\":4150:4164   */\n      add\n        /* \"#utility.yul\":4143:4164   */\n      swap4\n      pop\n        /* \"#utility.yul\":4030:4174   */\n      pop\n        /* \"#utility.yul\":4014:4018   */\n      0x20\n        /* \"#utility.yul\":4009:4012   */\n      dup2\n        /* \"#utility.yul\":4005:4019   */\n      add\n        /* \"#utility.yul\":3998:4019   */\n      swap1\n      pop\n        /* \"#utility.yul\":3954:4174   */\n      jump(tag_411)\n    tag_413:\n        /* \"#utility.yul\":3958:3979   */\n      pop\n        /* \"#utility.yul\":3572:4180   */\n      pop\n      pop\n        /* \"#utility.yul\":3470:4180   */\n      swap4\n      swap3\n      pop\n      pop\n      pop\n      jump\t// out\n        /* \"#utility.yul\":4203:4573   */\n    tag_304:\n        /* \"#utility.yul\":4274:4279   */\n      0x00\n        /* \"#utility.yul\":4323:4326   */\n      dup3\n        /* \"#utility.yul\":4316:4320   */\n      0x1f\n        /* \"#utility.yul\":4308:4314   */\n      dup4\n        /* \"#utility.yul\":4304:4321   */\n      add\n        /* \"#utility.yul\":4300:4327   */\n      slt\n        /* \"#utility.yul\":4290:4412   */\n      tag_416\n      jumpi\n        /* \"#utility.yul\":4331:4410   */\n      tag_417\n      tag_292\n      jump\t// in\n    tag_417:\n        /* \"#utility.yul\":4290:4412   */\n    tag_416:\n        /* \"#utility.yul\":4448:4454   */\n      dup2\n        /* \"#utility.yul\":4435:4455   */\n      calldataload\n        /* \"#utility.yul\":4473:4567   */\n      tag_418\n        /* \"#utility.yul\":4563:4566   */\n      dup5\n        /* \"#utility.yul\":4555:4561   */\n      dup3\n        /* \"#utility.yul\":4548:4552   */\n      0x20\n        /* \"#utility.yul\":4540:4546   */\n      dup7\n        /* \"#utility.yul\":4536:4553   */\n      add\n        /* \"#utility.yul\":4473:4567   */\n      tag_303\n      jump\t// in\n    tag_418:\n        /* \"#utility.yul\":4464:4567   */\n      swap2\n      pop\n        /* \"#utility.yul\":4280:4573   */\n      pop\n        /* \"#utility.yul\":4203:4573   */\n      swap3\n      swap2\n      pop\n      pop\n      jump\t// out\n        /* \"#utility.yul\":4579:5263   */\n    tag_26:\n        /* \"#utility.yul\":4672:4678   */\n      0x00\n        /* \"#utility.yul\":4680:4686   */\n      dup1\n        /* \"#utility.yul\":4729:4731   */\n      0x40\n        /* \"#utility.yul\":4717:4726   */\n      dup4\n        /* \"#utility.yul\":4708:4715   */\n      dup6\n        /* \"#utility.yul\":4704:4727   */\n      sub\n        /* \"#utility.yul\":4700:4732   */\n      slt\n        /* \"#utility.yul\":4697:4816   */\n      iszero\n      tag_420\n      jumpi\n        /* \"#utility.yul\":4735:4814   */\n      tag_421\n      tag_286\n      jump\t// in\n    tag_421:\n        /* \"#utility.yul\":4697:4816   */\n    tag_420:\n        /* \"#utility.yul\":4855:4856   */\n      0x00\n        /* \"#utility.yul\":4880:4933   */\n      tag_422\n        /* \"#utility.yul\":4925:4932   */\n      dup6\n        /* \"#utility.yul\":4916:4922   */\n      dup3\n        /* \"#utility.yul\":4905:4914   */\n      dup7\n        /* \"#utility.yul\":4901:4923   */\n      add\n        /* \"#utility.yul\":4880:4933   */\n      tag_290\n      jump\t// in\n    tag_422:\n        /* \"#utility.yul\":4870:4933   */\n      swap3\n      pop\n        /* \"#utility.yul\":4826:4943   */\n      pop\n        /* \"#utility.yul\":5010:5012   */\n      0x20\n        /* \"#utility.yul\":4999:5008   */\n      dup4\n        /* \"#utility.yul\":4995:5013   */\n      add\n        /* \"#utility.yul\":4982:5014   */\n      calldataload\n        /* \"#utility.yul\":5041:5059   */\n      0xffffffffffffffff\n        /* \"#utility.yul\":5033:5039   */\n      dup2\n        /* \"#utility.yul\":5030:5060   */\n      gt\n        /* \"#utility.yul\":5027:5144   */\n      iszero\n      tag_423\n      jumpi\n        /* \"#utility.yul\":5063:5142   */\n      tag_424\n      tag_287\n      jump\t// in\n    tag_424:\n        /* \"#utility.yul\":5027:5144   */\n    tag_423:\n        /* \"#utility.yul\":5168:5246   */\n      tag_425\n        /* \"#utility.yul\":5238:5245   */\n      dup6\n        /* \"#utility.yul\":5229:5235   */\n      dup3\n        /* \"#utility.yul\":5218:5227   */\n      dup7\n        /* \"#utility.yul\":5214:5236   */\n      add\n        /* \"#utility.yul\":5168:5246   */\n      tag_304\n      jump\t// in\n    tag_425:\n        /* \"#utility.yul\":5158:5246   */\n      swap2\n      pop\n        /* \"#utility.yul\":4953:5256   */\n      pop\n        /* \"#utility.yul\":4579:5263   */\n      swap3\n      pop\n      swap3\n      swap1\n      pop\n      jump\t// out\n        /* \"#utility.yul\":5269:5383   */\n    tag_305:\n        /* \"#utility.yul\":5336:5342   */\n      0x00\n        /* \"#utility.yul\":5370:5375   */\n      dup2\n        /* \"#utility.yul\":5364:5376   */\n      mload\n        /* \"#utility.yul\":5354:5376   */\n      swap1\n      pop\n        /* \"#utility.yul\":5269:5383   */\n      swap2\n      swap1\n      pop\n      jump\t// out\n        /* \"#utility.yul\":5389:5573   */\n    tag_306:\n        /* \"#utility.yul\":5488:5499   */\n      0x00\n        /* \"#utility.yul\":5522:5528   */\n      dup3\n        /* \"#utility.yul\":5517:5520   */\n      dup3\n        /* \"#utility.yul\":5510:5529   */\n      mstore\n        /* \"#utility.yul\":5562:5566   */\n      0x20\n        /* \"#utility.yul\":5557:5560   */\n      dup3\n        /* \"#utility.yul\":5553:5567   */\n      add\n        /* \"#utility.yul\":5538:5567   */\n      swap1\n      pop\n        /* \"#utility.yul\":5389:5573   */\n      swap3\n      swap2\n      pop\n      pop\n      jump\t// out\n        /* \"#utility.yul\":5579:5711   */\n    tag_307:\n        /* \"#utility.yul\":5646:5650   */\n      0x00\n        /* \"#utility.yul\":5669:5672   */\n      dup2\n        /* \"#utility.yul\":5661:5672   */\n      swap1\n      pop\n        /* \"#utility.yul\":5699:5703   */\n      0x20\n        /* \"#utility.yul\":5694:5697   */\n      dup3\n        /* \"#utility.yul\":5690:5704   */\n      add\n        /* \"#utility.yul\":5682:5704   */\n      swap1\n      pop\n        /* \"#utility.yul\":5579:5711   */\n      swap2\n      swap1\n      pop\n      jump\t// out\n        /* \"#utility.yul\":5717:5825   */\n    tag_308:\n        /* \"#utility.yul\":5794:5818   */\n      tag_430\n        /* \"#utility.yul\":5812:5817   */\n      dup2\n        /* \"#utility.yul\":5794:5818   */\n      tag_288\n      jump\t// in\n    tag_430:\n        /* \"#utility.yul\":5789:5792   */\n      dup3\n        /* \"#utility.yul\":5782:5819   */\n      mstore\n        /* \"#utility.yul\":5717:5825   */\n      pop\n      pop\n      jump\t// out\n        /* \"#utility.yul\":5831:6010   */\n    tag_309:\n        /* \"#utility.yul\":5900:5910   */\n      0x00\n        /* \"#utility.yul\":5921:5967   */\n      tag_432\n        /* \"#utility.yul\":5963:5966   */\n      dup4\n        /* \"#utility.yul\":5955:5961   */\n      dup4\n        /* \"#utility.yul\":5921:5967   */\n      tag_308\n      jump\t// in\n    tag_432:\n        /* \"#utility.yul\":5999:6003   */\n      0x20\n        /* \"#utility.yul\":5994:5997   */\n      dup4\n        /* \"#utility.yul\":5990:6004   */\n      add\n        /* \"#utility.yul\":5976:6004   */\n      swap1\n      pop\n        /* \"#utility.yul\":5831:6010   */\n      swap3\n      swap2\n      pop\n      pop\n      jump\t// out\n        /* \"#utility.yul\":6016:6129   */\n    tag_310:\n        /* \"#utility.yul\":6086:6090   */\n      0x00\n        /* \"#utility.yul\":6118:6122   */\n      0x20\n        /* \"#utility.yul\":6113:6116   */\n      dup3\n        /* \"#utility.yul\":6109:6123   */\n      add\n        /* \"#utility.yul\":6101:6123   */\n      swap1\n      pop\n        /* \"#utility.yul\":6016:6129   */\n      swap2\n      swap1\n      pop\n      jump\t// out\n        /* \"#utility.yul\":6165:6897   */\n    tag_311:\n        /* \"#utility.yul\":6284:6287   */\n      0x00\n        /* \"#utility.yul\":6313:6367   */\n      tag_435\n        /* \"#utility.yul\":6361:6366   */\n      dup3\n        /* \"#utility.yul\":6313:6367   */\n      tag_305\n      jump\t// in\n    tag_435:\n        /* \"#utility.yul\":6383:6469   */\n      tag_436\n        /* \"#utility.yul\":6462:6468   */\n      dup2\n        /* \"#utility.yul\":6457:6460   */\n      dup6\n        /* \"#utility.yul\":6383:6469   */\n      tag_306\n      jump\t// in\n    tag_436:\n        /* \"#utility.yul\":6376:6469   */\n      swap4\n      pop\n        /* \"#utility.yul\":6493:6549   */\n      tag_437\n        /* \"#utility.yul\":6543:6548   */\n      dup4\n        /* \"#utility.yul\":6493:6549   */\n      tag_307\n      jump\t// in\n    tag_437:\n        /* \"#utility.yul\":6572:6579   */\n      dup1\n        /* \"#utility.yul\":6603:6604   */\n      0x00\n        /* \"#utility.yul\":6588:6872   */\n    tag_438:\n        /* \"#utility.yul\":6613:6619   */\n      dup4\n        /* \"#utility.yul\":6610:6611   */\n      dup2\n        /* \"#utility.yul\":6607:6620   */\n      lt\n        /* \"#utility.yul\":6588:6872   */\n      iszero\n      tag_440\n      jumpi\n        /* \"#utility.yul\":6689:6695   */\n      dup2\n        /* \"#utility.yul\":6683:6696   */\n      mload\n        /* \"#utility.yul\":6716:6779   */\n      tag_441\n        /* \"#utility.yul\":6775:6778   */\n      dup9\n        /* \"#utility.yul\":6760:6773   */\n      dup3\n        /* \"#utility.yul\":6716:6779   */\n      tag_309\n      jump\t// in\n    tag_441:\n        /* \"#utility.yul\":6709:6779   */\n      swap8\n      pop\n        /* \"#utility.yul\":6802:6862   */\n      tag_442\n        /* \"#utility.yul\":6855:6861   */\n      dup4\n        /* \"#utility.yul\":6802:6862   */\n      tag_310\n      jump\t// in\n    tag_442:\n        /* \"#utility.yul\":6792:6862   */\n      swap3\n      pop\n        /* \"#utility.yul\":6648:6872   */\n      pop\n        /* \"#utility.yul\":6635:6636   */\n      0x01\n        /* \"#utility.yul\":6632:6633   */\n      dup2\n        /* \"#utility.yul\":6628:6637   */\n      add\n        /* \"#utility.yul\":6623:6637   */\n      swap1\n      pop\n        /* \"#utility.yul\":6588:6872   */\n      jump(tag_438)\n    tag_440:\n        /* \"#utility.yul\":6592:6606   */\n      pop\n        /* \"#utility.yul\":6888:6891   */\n      dup6\n        /* \"#utility.yul\":6881:6891   */\n      swap4\n      pop\n        /* \"#utility.yul\":6289:6897   */\n      pop\n      pop\n      pop\n        /* \"#utility.yul\":6165:6897   */\n      swap3\n      swap2\n      pop\n      pop\n      jump\t// out\n        /* \"#utility.yul\":6903:7276   */\n    tag_29:\n        /* \"#utility.yul\":7046:7050   */\n      0x00\n        /* \"#utility.yul\":7084:7086   */\n      0x20\n        /* \"#utility.yul\":7073:7082   */\n      dup3\n        /* \"#utility.yul\":7069:7087   */\n      add\n        /* \"#utility.yul\":7061:7087   */\n      swap1\n      pop\n        /* \"#utility.yul\":7133:7142   */\n      dup2\n        /* \"#utility.yul\":7127:7131   */\n      dup2\n        /* \"#utility.yul\":7123:7143   */\n      sub\n        /* \"#utility.yul\":7119:7120   */\n      0x00\n        /* \"#utility.yul\":7108:7117   */\n      dup4\n        /* \"#utility.yul\":7104:7121   */\n      add\n        /* \"#utility.yul\":7097:7144   */\n      mstore\n        /* \"#utility.yul\":7161:7269   */\n      tag_444\n        /* \"#utility.yul\":7264:7268   */\n      dup2\n        /* \"#utility.yul\":7255:7261   */\n      dup5\n        /* \"#utility.yul\":7161:7269   */\n      tag_311\n      jump\t// in\n    tag_444:\n        /* \"#utility.yul\":7153:7269   */\n      swap1\n      pop\n        /* \"#utility.yul\":6903:7276   */\n      swap3\n      swap2\n      pop\n      pop\n      jump\t// out\n        /* \"#utility.yul\":7282:7400   */\n    tag_312:\n        /* \"#utility.yul\":7369:7393   */\n      tag_446\n        /* \"#utility.yul\":7387:7392   */\n      dup2\n        /* \"#utility.yul\":7369:7393   */\n      tag_300\n      jump\t// in\n    tag_446:\n        /* \"#utility.yul\":7364:7367   */\n      dup3\n        /* \"#utility.yul\":7357:7394   */\n      mstore\n        /* \"#utility.yul\":7282:7400   */\n      pop\n      pop\n      jump\t// out\n        /* \"#utility.yul\":7406:7848   */\n    tag_33:\n        /* \"#utility.yul\":7555:7559   */\n      0x00\n        /* \"#utility.yul\":7593:7595   */\n      0x60\n        /* \"#utility.yul\":7582:7591   */\n      dup3\n        /* \"#utility.yul\":7578:7596   */\n      add\n        /* \"#utility.yul\":7570:7596   */\n      swap1\n      pop\n        /* \"#utility.yul\":7606:7677   */\n      tag_448\n        /* \"#utility.yul\":7674:7675   */\n      0x00\n        /* \"#utility.yul\":7663:7672   */\n      dup4\n        /* \"#utility.yul\":7659:7676   */\n      add\n        /* \"#utility.yul\":7650:7656   */\n      dup7\n        /* \"#utility.yul\":7606:7677   */\n      tag_312\n      jump\t// in\n    tag_448:\n        /* \"#utility.yul\":7687:7759   */\n      tag_449\n        /* \"#utility.yul\":7755:7757   */\n      0x20\n        /* \"#utility.yul\":7744:7753   */\n      dup4\n        /* \"#utility.yul\":7740:7758   */\n      add\n        /* \"#utility.yul\":7731:7737   */\n      dup6\n        /* \"#utility.yul\":7687:7759   */\n      tag_312\n      jump\t// in\n    tag_449:\n        /* \"#utility.yul\":7769:7841   */\n      tag_450\n        /* \"#utility.yul\":7837:7839   */\n      0x40\n        /* \"#utility.yul\":7826:7835   */\n      dup4\n        /* \"#utility.yul\":7822:7840   */\n      add\n        /* \"#utility.yul\":7813:7819   */\n      dup5\n        /* \"#utility.yul\":7769:7841   */\n      tag_312\n      jump\t// in\n    tag_450:\n        /* \"#utility.yul\":7406:7848   */\n      swap5\n      swap4\n      pop\n      pop\n      pop\n      pop\n      jump\t// out\n        /* \"#utility.yul\":7854:8076   */\n    tag_37:\n        /* \"#utility.yul\":7947:7951   */\n      0x00\n        /* \"#utility.yul\":7985:7987   */\n      0x20\n        /* \"#utility.yul\":7974:7983   */\n      dup3\n        /* \"#utility.yul\":7970:7988   */\n      add\n        /* \"#utility.yul\":7962:7988   */\n      swap1\n      pop\n        /* \"#utility.yul\":7998:8069   */\n      tag_452\n        /* \"#utility.yul\":8066:8067   */\n      0x00\n        /* \"#utility.yul\":8055:8064   */\n      dup4\n        /* \"#utility.yul\":8051:8068   */\n      add\n        /* \"#utility.yul\":8042:8048   */\n      dup5\n        /* \"#utility.yul\":7998:8069   */\n      tag_312\n      jump\t// in\n    tag_452:\n        /* \"#utility.yul\":7854:8076   */\n      swap3\n      swap2\n      pop\n      pop\n      jump\t// out\n        /* \"#utility.yul\":8082:8199   */\n    tag_313:\n        /* \"#utility.yul\":8191:8192   */\n      0x00\n        /* \"#utility.yul\":8188:8189   */\n      dup1\n        /* \"#utility.yul\":8181:8193   */\n      revert\n        /* \"#utility.yul\":8222:8790   */\n    tag_314:\n        /* \"#utility.yul\":8295:8303   */\n      0x00\n        /* \"#utility.yul\":8305:8311   */\n      dup1\n        /* \"#utility.yul\":8355:8358   */\n      dup4\n        /* \"#utility.yul\":8348:8352   */\n      0x1f\n        /* \"#utility.yul\":8340:8346   */\n      dup5\n        /* \"#utility.yul\":8336:8353   */\n      add\n        /* \"#utility.yul\":8332:8359   */\n      slt\n        /* \"#utility.yul\":8322:8444   */\n      tag_455\n      jumpi\n        /* \"#utility.yul\":8363:8442   */\n      tag_456\n      tag_292\n      jump\t// in\n    tag_456:\n        /* \"#utility.yul\":8322:8444   */\n    tag_455:\n        /* \"#utility.yul\":8476:8482   */\n      dup3\n        /* \"#utility.yul\":8463:8483   */\n      calldataload\n        /* \"#utility.yul\":8453:8483   */\n      swap1\n      pop\n        /* \"#utility.yul\":8506:8524   */\n      0xffffffffffffffff\n        /* \"#utility.yul\":8498:8504   */\n      dup2\n        /* \"#utility.yul\":8495:8525   */\n      gt\n        /* \"#utility.yul\":8492:8609   */\n      iszero\n      tag_457\n      jumpi\n        /* \"#utility.yul\":8528:8607   */\n      tag_458\n      tag_313\n      jump\t// in\n    tag_458:\n        /* \"#utility.yul\":8492:8609   */\n    tag_457:\n        /* \"#utility.yul\":8642:8646   */\n      0x20\n        /* \"#utility.yul\":8634:8640   */\n      dup4\n        /* \"#utility.yul\":8630:8647   */\n      add\n        /* \"#utility.yul\":8618:8647   */\n      swap2\n      pop\n        /* \"#utility.yul\":8696:8699   */\n      dup4\n        /* \"#utility.yul\":8688:8692   */\n      0x20\n        /* \"#utility.yul\":8680:8686   */\n      dup3\n        /* \"#utility.yul\":8676:8693   */\n      mul\n        /* \"#utility.yul\":8666:8674   */\n      dup4\n        /* \"#utility.yul\":8662:8694   */\n      add\n        /* \"#utility.yul\":8659:8700   */\n      gt\n        /* \"#utility.yul\":8656:8784   */\n      iszero\n      tag_459\n      jumpi\n        /* \"#utility.yul\":8703:8782   */\n      tag_460\n      tag_298\n      jump\t// in\n    tag_460:\n        /* \"#utility.yul\":8656:8784   */\n    tag_459:\n        /* \"#utility.yul\":8222:8790   */\n      swap3\n      pop\n      swap3\n      swap1\n      pop\n      jump\t// out\n        /* \"#utility.yul\":8796:9791   */\n    tag_40:\n        /* \"#utility.yul\":8909:8915   */\n      0x00\n        /* \"#utility.yul\":8917:8923   */\n      dup1\n        /* \"#utility.yul\":8925:8931   */\n      0x00\n        /* \"#utility.yul\":8933:8939   */\n      dup1\n        /* \"#utility.yul\":8941:8947   */\n      0x00\n        /* \"#utility.yul\":8990:8993   */\n      0x80\n        /* \"#utility.yul\":8978:8987   */\n      dup7\n        /* \"#utility.yul\":8969:8976   */\n      dup9\n        /* \"#utility.yul\":8965:8988   */\n      sub\n        /* \"#utility.yul\":8961:8994   */\n      slt\n        /* \"#utility.yul\":8958:9078   */\n      iszero\n      tag_462\n      jumpi\n        /* \"#utility.yul\":8997:9076   */\n      tag_463\n      tag_286\n      jump\t// in\n    tag_463:\n        /* \"#utility.yul\":8958:9078   */\n    tag_462:\n        /* \"#utility.yul\":9117:9118   */\n      0x00\n        /* \"#utility.yul\":9142:9195   */\n      tag_464\n        /* \"#utility.yul\":9187:9194   */\n      dup9\n        /* \"#utility.yul\":9178:9184   */\n      dup3\n        /* \"#utility.yul\":9167:9176   */\n      dup10\n        /* \"#utility.yul\":9163:9185   */\n      add\n        /* \"#utility.yul\":9142:9195   */\n      tag_290\n      jump\t// in\n    tag_464:\n        /* \"#utility.yul\":9132:9195   */\n      swap6\n      pop\n        /* \"#utility.yul\":9088:9205   */\n      pop\n        /* \"#utility.yul\":9244:9246   */\n      0x20\n        /* \"#utility.yul\":9270:9323   */\n      tag_465\n        /* \"#utility.yul\":9315:9322   */\n      dup9\n        /* \"#utility.yul\":9306:9312   */\n      dup3\n        /* \"#utility.yul\":9295:9304   */\n      dup10\n        /* \"#utility.yul\":9291:9313   */\n      add\n        /* \"#utility.yul\":9270:9323   */\n      tag_290\n      jump\t// in\n    tag_465:\n        /* \"#utility.yul\":9260:9323   */\n      swap5\n      pop\n        /* \"#utility.yul\":9215:9333   */\n      pop\n        /* \"#utility.yul\":9400:9402   */\n      0x40\n        /* \"#utility.yul\":9389:9398   */\n      dup7\n        /* \"#utility.yul\":9385:9403   */\n      add\n        /* \"#utility.yul\":9372:9404   */\n      calldataload\n        /* \"#utility.yul\":9431:9449   */\n      0xffffffffffffffff\n        /* \"#utility.yul\":9423:9429   */\n      dup2\n        /* \"#utility.yul\":9420:9450   */\n      gt\n        /* \"#utility.yul\":9417:9534   */\n      iszero\n      tag_466\n      jumpi\n        /* \"#utility.yul\":9453:9532   */\n      tag_467\n      tag_287\n      jump\t// in\n    tag_467:\n        /* \"#utility.yul\":9417:9534   */\n    tag_466:\n        /* \"#utility.yul\":9566:9646   */\n      tag_468\n        /* \"#utility.yul\":9638:9645   */\n      dup9\n        /* \"#utility.yul\":9629:9635   */\n      dup3\n        /* \"#utility.yul\":9618:9627   */\n      dup10\n        /* \"#utility.yul\":9614:9636   */\n      add\n        /* \"#utility.yul\":9566:9646   */\n      tag_314\n      jump\t// in\n    tag_468:\n        /* \"#utility.yul\":9548:9646   */\n      swap4\n      pop\n      swap4\n      pop\n        /* \"#utility.yul\":9343:9656   */\n      pop\n        /* \"#utility.yul\":9695:9697   */\n      0x60\n        /* \"#utility.yul\":9721:9774   */\n      tag_469\n        /* \"#utility.yul\":9766:9773   */\n      dup9\n        /* \"#utility.yul\":9757:9763   */\n      dup3\n        /* \"#utility.yul\":9746:9755   */\n      dup10\n        /* \"#utility.yul\":9742:9764   */\n      add\n        /* \"#utility.yul\":9721:9774   */\n      tag_302\n      jump\t// in\n    tag_469:\n        /* \"#utility.yul\":9711:9774   */\n      swap2\n      pop\n        /* \"#utility.yul\":9666:9784   */\n      pop\n        /* \"#utility.yul\":8796:9791   */\n      swap3\n      swap6\n      pop\n      swap3\n      swap6\n      swap1\n      swap4\n      pop\n      jump\t// out\n        /* \"#utility.yul\":9797:10854   */\n    tag_60:\n        /* \"#utility.yul\":9901:9907   */\n      0x00\n        /* \"#utility.yul\":9909:9915   */\n      dup1\n        /* \"#utility.yul\":9917:9923   */\n      0x00\n        /* \"#utility.yul\":9925:9931   */\n      dup1\n        /* \"#utility.yul\":9933:9939   */\n      0x00\n        /* \"#utility.yul\":9941:9947   */\n      dup1\n        /* \"#utility.yul\":9990:9993   */\n      0xc0\n        /* \"#utility.yul\":9978:9987   */\n      dup8\n        /* \"#utility.yul\":9969:9976   */\n      dup10\n        /* \"#utility.yul\":9965:9988   */\n      sub\n        /* \"#utility.yul\":9961:9994   */\n      slt\n        /* \"#utility.yul\":9958:10078   */\n      iszero\n      tag_471\n      jumpi\n        /* \"#utility.yul\":9997:10076   */\n      tag_472\n      tag_286\n      jump\t// in\n    tag_472:\n        /* \"#utility.yul\":9958:10078   */\n    tag_471:\n        /* \"#utility.yul\":10117:10118   */\n      0x00\n        /* \"#utility.yul\":10142:10195   */\n      tag_473\n        /* \"#utility.yul\":10187:10194   */\n      dup10\n        /* \"#utility.yul\":10178:10184   */\n      dup3\n        /* \"#utility.yul\":10167:10176   */\n      dup11\n        /* \"#utility.yul\":10163:10185   */\n      add\n        /* \"#utility.yul\":10142:10195   */\n      tag_302\n      jump\t// in\n    tag_473:\n        /* \"#utility.yul\":10132:10195   */\n      swap7\n      pop\n        /* \"#utility.yul\":10088:10205   */\n      pop\n        /* \"#utility.yul\":10244:10246   */\n      0x20\n        /* \"#utility.yul\":10270:10323   */\n      tag_474\n        /* \"#utility.yul\":10315:10322   */\n      dup10\n        /* \"#utility.yul\":10306:10312   */\n      dup3\n        /* \"#utility.yul\":10295:10304   */\n      dup11\n        /* \"#utility.yul\":10291:10313   */\n      add\n        /* \"#utility.yul\":10270:10323   */\n      tag_302\n      jump\t// in\n    tag_474:\n        /* \"#utility.yul\":10260:10323   */\n      swap6\n      pop\n        /* \"#utility.yul\":10215:10333   */\n      pop\n        /* \"#utility.yul\":10372:10374   */\n      0x40\n        /* \"#utility.yul\":10398:10451   */\n      tag_475\n        /* \"#utility.yul\":10443:10450   */\n      dup10\n        /* \"#utility.yul\":10434:10440   */\n      dup3\n        /* \"#utility.yul\":10423:10432   */\n      dup11\n        /* \"#utility.yul\":10419:10441   */\n      add\n        /* \"#utility.yul\":10398:10451   */\n      tag_290\n      jump\t// in\n    tag_475:\n        /* \"#utility.yul\":10388:10451   */\n      swap5\n      pop\n        /* \"#utility.yul\":10343:10461   */\n      pop\n        /* \"#utility.yul\":10500:10502   */\n      0x60\n        /* \"#utility.yul\":10526:10579   */\n      tag_476\n        /* \"#utility.yul\":10571:10578   */\n      dup10\n        /* \"#utility.yul\":10562:10568   */\n      dup3\n        /* \"#utility.yul\":10551:10560   */\n      dup11\n        /* \"#utility.yul\":10547:10569   */\n      add\n        /* \"#utility.yul\":10526:10579   */\n      tag_290\n      jump\t// in\n    tag_476:\n        /* \"#utility.yul\":10516:10579   */\n      swap4\n      pop\n        /* \"#utility.yul\":10471:10589   */\n      pop\n        /* \"#utility.yul\":10628:10631   */\n      0x80\n        /* \"#utility.yul\":10655:10708   */\n      tag_477\n        /* \"#utility.yul\":10700:10707   */\n      dup10\n        /* \"#utility.yul\":10691:10697   */\n      dup3\n        /* \"#utility.yul\":10680:10689   */\n      dup11\n        /* \"#utility.yul\":10676:10698   */\n      add\n        /* \"#utility.yul\":10655:10708   */\n      tag_290\n      jump\t// in\n    tag_477:\n        /* \"#utility.yul\":10645:10708   */\n      swap3\n      pop\n        /* \"#utility.yul\":10599:10718   */\n      pop\n        /* \"#utility.yul\":10757:10760   */\n      0xa0\n        /* \"#utility.yul\":10784:10837   */\n      tag_478\n        /* \"#utility.yul\":10829:10836   */\n      dup10\n        /* \"#utility.yul\":10820:10826   */\n      dup3\n        /* \"#utility.yul\":10809:10818   */\n      dup11\n        /* \"#utility.yul\":10805:10827   */\n      add\n        /* \"#utility.yul\":10784:10837   */\n      tag_302\n      jump\t// in\n    tag_478:\n        /* \"#utility.yul\":10774:10837   */\n      swap2\n      pop\n        /* \"#utility.yul\":10728:10847   */\n      pop\n        /* \"#utility.yul\":9797:10854   */\n      swap3\n      swap6\n      pop\n      swap3\n      swap6\n      pop\n      swap3\n      swap6\n      jump\t// out\n        /* \"#utility.yul\":10860:11192   */\n    tag_63:\n        /* \"#utility.yul\":10981:10985   */\n      0x00\n        /* \"#utility.yul\":11019:11021   */\n      0x40\n        /* \"#utility.yul\":11008:11017   */\n      dup3\n        /* \"#utility.yul\":11004:11022   */\n      add\n        /* \"#utility.yul\":10996:11022   */\n      swap1\n      pop\n        /* \"#utility.yul\":11032:11103   */\n      tag_480\n        /* \"#utility.yul\":11100:11101   */\n      0x00\n        /* \"#utility.yul\":11089:11098   */\n      dup4\n        /* \"#utility.yul\":11085:11102   */\n      add\n        /* \"#utility.yul\":11076:11082   */\n      dup6\n        /* \"#utility.yul\":11032:11103   */\n      tag_291\n      jump\t// in\n    tag_480:\n        /* \"#utility.yul\":11113:11185   */\n      tag_481\n        /* \"#utility.yul\":11181:11183   */\n      0x20\n        /* \"#utility.yul\":11170:11179   */\n      dup4\n        /* \"#utility.yul\":11166:11184   */\n      add\n        /* \"#utility.yul\":11157:11163   */\n      dup5\n        /* \"#utility.yul\":11113:11185   */\n      tag_291\n      jump\t// in\n    tag_481:\n        /* \"#utility.yul\":10860:11192   */\n      swap4\n      swap3\n      pop\n      pop\n      pop\n      jump\t// out\n        /* \"#utility.yul\":11198:12401   */\n    tag_66:\n        /* \"#utility.yul\":11311:11317   */\n      0x00\n        /* \"#utility.yul\":11319:11325   */\n      dup1\n        /* \"#utility.yul\":11327:11333   */\n      0x00\n        /* \"#utility.yul\":11335:11341   */\n      dup1\n        /* \"#utility.yul\":11343:11349   */\n      0x00\n        /* \"#utility.yul\":11351:11357   */\n      dup1\n        /* \"#utility.yul\":11359:11365   */\n      0x00\n        /* \"#utility.yul\":11408:11411   */\n      0xe0\n        /* \"#utility.yul\":11396:11405   */\n      dup9\n        /* \"#utility.yul\":11387:11394   */\n      dup11\n        /* \"#utility.yul\":11383:11406   */\n      sub\n        /* \"#utility.yul\":11379:11412   */\n      slt\n        /* \"#utility.yul\":11376:11496   */\n      iszero\n      tag_483\n      jumpi\n        /* \"#utility.yul\":11415:11494   */\n      tag_484\n      tag_286\n      jump\t// in\n    tag_484:\n        /* \"#utility.yul\":11376:11496   */\n    tag_483:\n        /* \"#utility.yul\":11535:11536   */\n      0x00\n        /* \"#utility.yul\":11560:11613   */\n      tag_485\n        /* \"#utility.yul\":11605:11612   */\n      dup11\n        /* \"#utility.yul\":11596:11602   */\n      dup3\n        /* \"#utility.yul\":11585:11594   */\n      dup12\n        /* \"#utility.yul\":11581:11603   */\n      add\n        /* \"#utility.yul\":11560:11613   */\n      tag_302\n      jump\t// in\n    tag_485:\n        /* \"#utility.yul\":11550:11613   */\n      swap8\n      pop\n        /* \"#utility.yul\":11506:11623   */\n      pop\n        /* \"#utility.yul\":11662:11664   */\n      0x20\n        /* \"#utility.yul\":11688:11741   */\n      tag_486\n        /* \"#utility.yul\":11733:11740   */\n      dup11\n        /* \"#utility.yul\":11724:11730   */\n      dup3\n        /* \"#utility.yul\":11713:11722   */\n      dup12\n        /* \"#utility.yul\":11709:11731   */\n      add\n        /* \"#utility.yul\":11688:11741   */\n      tag_302\n      jump\t// in\n    tag_486:\n        /* \"#utility.yul\":11678:11741   */\n      swap7\n      pop\n        /* \"#utility.yul\":11633:11751   */\n      pop\n        /* \"#utility.yul\":11790:11792   */\n      0x40\n        /* \"#utility.yul\":11816:11869   */\n      tag_487\n        /* \"#utility.yul\":11861:11868   */\n      dup11\n        /* \"#utility.yul\":11852:11858   */\n      dup3\n        /* \"#utility.yul\":11841:11850   */\n      dup12\n        /* \"#utility.yul\":11837:11859   */\n      add\n        /* \"#utility.yul\":11816:11869   */\n      tag_290\n      jump\t// in\n    tag_487:\n        /* \"#utility.yul\":11806:11869   */\n      swap6\n      pop\n        /* \"#utility.yul\":11761:11879   */\n      pop\n        /* \"#utility.yul\":11918:11920   */\n      0x60\n        /* \"#utility.yul\":11944:11997   */\n      tag_488\n        /* \"#utility.yul\":11989:11996   */\n      dup11\n        /* \"#utility.yul\":11980:11986   */\n      dup3\n        /* \"#utility.yul\":11969:11978   */\n      dup12\n        /* \"#utility.yul\":11965:11987   */\n      add\n        /* \"#utility.yul\":11944:11997   */\n      tag_290\n      jump\t// in\n    tag_488:\n        /* \"#utility.yul\":11934:11997   */\n      swap5\n      pop\n        /* \"#utility.yul\":11889:12007   */\n      pop\n        /* \"#utility.yul\":12046:12049   */\n      0x80\n        /* \"#utility.yul\":12073:12126   */\n      tag_489\n        /* \"#utility.yul\":12118:12125   */\n      dup11\n        /* \"#utility.yul\":12109:12115   */\n      dup3\n        /* \"#utility.yul\":12098:12107   */\n      dup12\n        /* \"#utility.yul\":12094:12116   */\n      add\n        /* \"#utility.yul\":12073:12126   */\n      tag_290\n      jump\t// in\n    tag_489:\n        /* \"#utility.yul\":12063:12126   */\n      swap4\n      pop\n        /* \"#utility.yul\":12017:12136   */\n      pop\n        /* \"#utility.yul\":12175:12178   */\n      0xa0\n        /* \"#utility.yul\":12202:12255   */\n      tag_490\n        /* \"#utility.yul\":12247:12254   */\n      dup11\n        /* \"#utility.yul\":12238:12244   */\n      dup3\n        /* \"#utility.yul\":12227:12236   */\n      dup12\n        /* \"#utility.yul\":12223:12245   */\n      add\n        /* \"#utility.yul\":12202:12255   */\n      tag_290\n      jump\t// in\n    tag_490:\n        /* \"#utility.yul\":12192:12255   */\n      swap3\n      pop\n        /* \"#utility.yul\":12146:12265   */\n      pop\n        /* \"#utility.yul\":12304:12307   */\n      0xc0\n        /* \"#utility.yul\":12331:12384   */\n      tag_491\n        /* \"#utility.yul\":12376:12383   */\n      dup11\n        /* \"#utility.yul\":12367:12373   */\n      dup3\n        /* \"#utility.yul\":12356:12365   */\n      dup12\n        /* \"#utility.yul\":12352:12374   */\n      add\n        /* \"#utility.yul\":12331:12384   */\n      tag_302\n      jump\t// in\n    tag_491:\n        /* \"#utility.yul\":12321:12384   */\n      swap2\n      pop\n        /* \"#utility.yul\":12275:12394   */\n      pop\n        /* \"#utility.yul\":11198:12401   */\n      swap3\n      swap6\n      swap9\n      swap2\n      swap5\n      swap8\n      pop\n      swap3\n      swap6\n      pop\n      jump\t// out\n        /* \"#utility.yul\":12407:12849   */\n    tag_69:\n        /* \"#utility.yul\":12556:12560   */\n      0x00\n        /* \"#utility.yul\":12594:12596   */\n      0x60\n        /* \"#utility.yul\":12583:12592   */\n      dup3\n        /* \"#utility.yul\":12579:12597   */\n      add\n        /* \"#utility.yul\":12571:12597   */\n      swap1\n      pop\n        /* \"#utility.yul\":12607:12678   */\n      tag_493\n        /* \"#utility.yul\":12675:12676   */\n      0x00\n        /* \"#utility.yul\":12664:12673   */\n      dup4\n        /* \"#utility.yul\":12660:12677   */\n      add\n        /* \"#utility.yul\":12651:12657   */\n      dup7\n        /* \"#utility.yul\":12607:12678   */\n      tag_291\n      jump\t// in\n    tag_493:\n        /* \"#utility.yul\":12688:12760   */\n      tag_494\n        /* \"#utility.yul\":12756:12758   */\n      0x20\n        /* \"#utility.yul\":12745:12754   */\n      dup4\n        /* \"#utility.yul\":12741:12759   */\n      add\n        /* \"#utility.yul\":12732:12738   */\n      dup6\n        /* \"#utility.yul\":12688:12760   */\n      tag_291\n      jump\t// in\n    tag_494:\n        /* \"#utility.yul\":12770:12842   */\n      tag_495\n        /* \"#utility.yul\":12838:12840   */\n      0x40\n        /* \"#utility.yul\":12827:12836   */\n      dup4\n        /* \"#utility.yul\":12823:12841   */\n      add\n        /* \"#utility.yul\":12814:12820   */\n      dup5\n        /* \"#utility.yul\":12770:12842   */\n      tag_291\n      jump\t// in\n    tag_495:\n        /* \"#utility.yul\":12407:12849   */\n      swap5\n      swap4\n      pop\n      pop\n      pop\n      pop\n      jump\t// out\n        /* \"#utility.yul\":12855:12981   */\n    tag_315:\n        /* \"#utility.yul\":12950:12974   */\n      tag_497\n        /* \"#utility.yul\":12968:12973   */\n      dup2\n        /* \"#utility.yul\":12950:12974   */\n      tag_288\n      jump\t// in\n    tag_497:\n        /* \"#utility.yul\":12945:12948   */\n      dup3\n        /* \"#utility.yul\":12938:12975   */\n      mstore\n        /* \"#utility.yul\":12855:12981   */\n      pop\n      pop\n      jump\t// out\n        /* \"#utility.yul\":12987:13461   */\n    tag_79:\n        /* \"#utility.yul\":13144:13148   */\n      0x00\n        /* \"#utility.yul\":13182:13184   */\n      0x60\n        /* \"#utility.yul\":13171:13180   */\n      dup3\n        /* \"#utility.yul\":13167:13185   */\n      add\n        /* \"#utility.yul\":13159:13185   */\n      swap1\n      pop\n        /* \"#utility.yul\":13195:13274   */\n      tag_499\n        /* \"#utility.yul\":13271:13272   */\n      0x00\n        /* \"#utility.yul\":13260:13269   */\n      dup4\n        /* \"#utility.yul\":13256:13273   */\n      add\n        /* \"#utility.yul\":13247:13253   */\n      dup7\n        /* \"#utility.yul\":13195:13274   */\n      tag_315\n      jump\t// in\n    tag_499:\n        /* \"#utility.yul\":13284:13364   */\n      tag_500\n        /* \"#utility.yul\":13360:13362   */\n      0x20\n        /* \"#utility.yul\":13349:13358   */\n      dup4\n        /* \"#utility.yul\":13345:13363   */\n      add\n        /* \"#utility.yul\":13336:13342   */\n      dup6\n        /* \"#utility.yul\":13284:13364   */\n      tag_315\n      jump\t// in\n    tag_500:\n        /* \"#utility.yul\":13374:13454   */\n      tag_501\n        /* \"#utility.yul\":13450:13452   */\n      0x40\n        /* \"#utility.yul\":13439:13448   */\n      dup4\n        /* \"#utility.yul\":13435:13453   */\n      add\n        /* \"#utility.yul\":13426:13432   */\n      dup5\n        /* \"#utility.yul\":13374:13454   */\n      tag_315\n      jump\t// in\n    tag_501:\n        /* \"#utility.yul\":12987:13461   */\n      swap5\n      swap4\n      pop\n      pop\n      pop\n      pop\n      jump\t// out\n        /* \"#utility.yul\":13467:13610   */\n    tag_316:\n        /* \"#utility.yul\":13524:13529   */\n      0x00\n        /* \"#utility.yul\":13555:13561   */\n      dup2\n        /* \"#utility.yul\":13549:13562   */\n      mload\n        /* \"#utility.yul\":13540:13562   */\n      swap1\n      pop\n        /* \"#utility.yul\":13571:13604   */\n      tag_503\n        /* \"#utility.yul\":13598:13603   */\n      dup2\n        /* \"#utility.yul\":13571:13604   */\n      tag_289\n      jump\t// in\n    tag_503:\n        /* \"#utility.yul\":13467:13610   */\n      swap3\n      swap2\n      pop\n      pop\n      jump\t// out\n        /* \"#utility.yul\":13616:13967   */\n    tag_83:\n        /* \"#utility.yul\":13686:13692   */\n      0x00\n        /* \"#utility.yul\":13735:13737   */\n      0x20\n        /* \"#utility.yul\":13723:13732   */\n      dup3\n        /* \"#utility.yul\":13714:13721   */\n      dup5\n        /* \"#utility.yul\":13710:13733   */\n      sub\n        /* \"#utility.yul\":13706:13738   */\n      slt\n        /* \"#utility.yul\":13703:13822   */\n      iszero\n      tag_505\n      jumpi\n        /* \"#utility.yul\":13741:13820   */\n      tag_506\n      tag_286\n      jump\t// in\n    tag_506:\n        /* \"#utility.yul\":13703:13822   */\n    tag_505:\n        /* \"#utility.yul\":13861:13862   */\n      0x00\n        /* \"#utility.yul\":13886:13950   */\n      tag_507\n        /* \"#utility.yul\":13942:13949   */\n      dup5\n        /* \"#utility.yul\":13933:13939   */\n      dup3\n        /* \"#utility.yul\":13922:13931   */\n      dup6\n        /* \"#utility.yul\":13918:13940   */\n      add\n        /* \"#utility.yul\":13886:13950   */\n      tag_316\n      jump\t// in\n    tag_507:\n        /* \"#utility.yul\":13876:13950   */\n      swap2\n      pop\n        /* \"#utility.yul\":13832:13960   */\n      pop\n        /* \"#utility.yul\":13616:13967   */\n      swap3\n      swap2\n      pop\n      pop\n      jump\t// out\n        /* \"#utility.yul\":13973:14099   */\n    tag_317:\n        /* \"#utility.yul\":14068:14092   */\n      tag_509\n        /* \"#utility.yul\":14086:14091   */\n      dup2\n        /* \"#utility.yul\":14068:14092   */\n      tag_300\n      jump\t// in\n    tag_509:\n        /* \"#utility.yul\":14063:14066   */\n      dup3\n        /* \"#utility.yul\":14056:14093   */\n      mstore\n        /* \"#utility.yul\":13973:14099   */\n      pop\n      pop\n      jump\t// out\n        /* \"#utility.yul\":14105:14219   */\n    tag_318:\n        /* \"#utility.yul\":14172:14178   */\n      0x00\n        /* \"#utility.yul\":14206:14211   */\n      dup2\n        /* \"#utility.yul\":14200:14212   */\n      mload\n        /* \"#utility.yul\":14190:14212   */\n      swap1\n      pop\n        /* \"#utility.yul\":14105:14219   */\n      swap2\n      swap1\n      pop\n      jump\t// out\n        /* \"#utility.yul\":14225:14417   */\n    tag_319:\n        /* \"#utility.yul\":14332:14343   */\n      0x00\n        /* \"#utility.yul\":14366:14372   */\n      dup3\n        /* \"#utility.yul\":14361:14364   */\n      dup3\n        /* \"#utility.yul\":14354:14373   */\n      mstore\n        /* \"#utility.yul\":14406:14410   */\n      0x20\n        /* \"#utility.yul\":14401:14404   */\n      dup3\n        /* \"#utility.yul\":14397:14411   */\n      add\n        /* \"#utility.yul\":14382:14411   */\n      swap1\n      pop\n        /* \"#utility.yul\":14225:14417   */\n      swap3\n      swap2\n      pop\n      pop\n      jump\t// out\n        /* \"#utility.yul\":14423:14555   */\n    tag_320:\n        /* \"#utility.yul\":14490:14494   */\n      0x00\n        /* \"#utility.yul\":14513:14516   */\n      dup2\n        /* \"#utility.yul\":14505:14516   */\n      swap1\n      pop\n        /* \"#utility.yul\":14543:14547   */\n      0x20\n        /* \"#utility.yul\":14538:14541   */\n      dup3\n        /* \"#utility.yul\":14534:14548   */\n      add\n        /* \"#utility.yul\":14526:14548   */\n      swap1\n      pop\n        /* \"#utility.yul\":14423:14555   */\n      swap2\n      swap1\n      pop\n      jump\t// out\n        /* \"#utility.yul\":14561:14677   */\n    tag_321:\n        /* \"#utility.yul\":14646:14670   */\n      tag_514\n        /* \"#utility.yul\":14664:14669   */\n      dup2\n        /* \"#utility.yul\":14646:14670   */\n      tag_300\n      jump\t// in\n    tag_514:\n        /* \"#utility.yul\":14641:14644   */\n      dup3\n        /* \"#utility.yul\":14634:14671   */\n      mstore\n        /* \"#utility.yul\":14561:14677   */\n      pop\n      pop\n      jump\t// out\n        /* \"#utility.yul\":14683:14878   */\n    tag_322:\n        /* \"#utility.yul\":14760:14770   */\n      0x00\n        /* \"#utility.yul\":14781:14835   */\n      tag_516\n        /* \"#utility.yul\":14831:14834   */\n      dup4\n        /* \"#utility.yul\":14823:14829   */\n      dup4\n        /* \"#utility.yul\":14781:14835   */\n      tag_321\n      jump\t// in\n    tag_516:\n        /* \"#utility.yul\":14867:14871   */\n      0x20\n        /* \"#utility.yul\":14862:14865   */\n      dup4\n        /* \"#utility.yul\":14858:14872   */\n      add\n        /* \"#utility.yul\":14844:14872   */\n      swap1\n      pop\n        /* \"#utility.yul\":14683:14878   */\n      swap3\n      swap2\n      pop\n      pop\n      jump\t// out\n        /* \"#utility.yul\":14884:14997   */\n    tag_323:\n        /* \"#utility.yul\":14954:14958   */\n      0x00\n        /* \"#utility.yul\":14986:14990   */\n      0x20\n        /* \"#utility.yul\":14981:14984   */\n      dup3\n        /* \"#utility.yul\":14977:14991   */\n      add\n        /* \"#utility.yul\":14969:14991   */\n      swap1\n      pop\n        /* \"#utility.yul\":14884:14997   */\n      swap2\n      swap1\n      pop\n      jump\t// out\n        /* \"#utility.yul\":15033:15789   */\n    tag_324:\n        /* \"#utility.yul\":15160:15163   */\n      0x00\n        /* \"#utility.yul\":15189:15243   */\n      tag_519\n        /* \"#utility.yul\":15237:15242   */\n      dup3\n        /* \"#utility.yul\":15189:15243   */\n      tag_318\n      jump\t// in\n    tag_519:\n        /* \"#utility.yul\":15259:15353   */\n      tag_520\n        /* \"#utility.yul\":15346:15352   */\n      dup2\n        /* \"#utility.yul\":15341:15344   */\n      dup6\n        /* \"#utility.yul\":15259:15353   */\n      tag_319\n      jump\t// in\n    tag_520:\n        /* \"#utility.yul\":15252:15353   */\n      swap4\n      pop\n        /* \"#utility.yul\":15377:15433   */\n      tag_521\n        /* \"#utility.yul\":15427:15432   */\n      dup4\n        /* \"#utility.yul\":15377:15433   */\n      tag_320\n      jump\t// in\n    tag_521:\n        /* \"#utility.yul\":15456:15463   */\n      dup1\n        /* \"#utility.yul\":15487:15488   */\n      0x00\n        /* \"#utility.yul\":15472:15764   */\n    tag_522:\n        /* \"#utility.yul\":15497:15503   */\n      dup4\n        /* \"#utility.yul\":15494:15495   */\n      dup2\n        /* \"#utility.yul\":15491:15504   */\n      lt\n        /* \"#utility.yul\":15472:15764   */\n      iszero\n      tag_524\n      jumpi\n        /* \"#utility.yul\":15573:15579   */\n      dup2\n        /* \"#utility.yul\":15567:15580   */\n      mload\n        /* \"#utility.yul\":15600:15671   */\n      tag_525\n        /* \"#utility.yul\":15667:15670   */\n      dup9\n        /* \"#utility.yul\":15652:15665   */\n      dup3\n        /* \"#utility.yul\":15600:15671   */\n      tag_322\n      jump\t// in\n    tag_525:\n        /* \"#utility.yul\":15593:15671   */\n      swap8\n      pop\n        /* \"#utility.yul\":15694:15754   */\n      tag_526\n        /* \"#utility.yul\":15747:15753   */\n      dup4\n        /* \"#utility.yul\":15694:15754   */\n      tag_323\n      jump\t// in\n    tag_526:\n        /* \"#utility.yul\":15684:15754   */\n      swap3\n      pop\n        /* \"#utility.yul\":15532:15764   */\n      pop\n        /* \"#utility.yul\":15519:15520   */\n      0x01\n        /* \"#utility.yul\":15516:15517   */\n      dup2\n        /* \"#utility.yul\":15512:15521   */\n      add\n        /* \"#utility.yul\":15507:15521   */\n      swap1\n      pop\n        /* \"#utility.yul\":15472:15764   */\n      jump(tag_522)\n    tag_524:\n        /* \"#utility.yul\":15476:15490   */\n      pop\n        /* \"#utility.yul\":15780:15783   */\n      dup6\n        /* \"#utility.yul\":15773:15783   */\n      swap4\n      pop\n        /* \"#utility.yul\":15165:15789   */\n      pop\n      pop\n      pop\n        /* \"#utility.yul\":15033:15789   */\n      swap3\n      swap2\n      pop\n      pop\n      jump\t// out\n        /* \"#utility.yul\":15795:16420   */\n    tag_86:\n        /* \"#utility.yul\":16002:16006   */\n      0x00\n        /* \"#utility.yul\":16040:16042   */\n      0x60\n        /* \"#utility.yul\":16029:16038   */\n      dup3\n        /* \"#utility.yul\":16025:16043   */\n      add\n        /* \"#utility.yul\":16017:16043   */\n      swap1\n      pop\n        /* \"#utility.yul\":16053:16132   */\n      tag_528\n        /* \"#utility.yul\":16129:16130   */\n      0x00\n        /* \"#utility.yul\":16118:16127   */\n      dup4\n        /* \"#utility.yul\":16114:16131   */\n      add\n        /* \"#utility.yul\":16105:16111   */\n      dup7\n        /* \"#utility.yul\":16053:16132   */\n      tag_317\n      jump\t// in\n    tag_528:\n        /* \"#utility.yul\":16142:16222   */\n      tag_529\n        /* \"#utility.yul\":16218:16220   */\n      0x20\n        /* \"#utility.yul\":16207:16216   */\n      dup4\n        /* \"#utility.yul\":16203:16221   */\n      add\n        /* \"#utility.yul\":16194:16200   */\n      dup6\n        /* \"#utility.yul\":16142:16222   */\n      tag_315\n      jump\t// in\n    tag_529:\n        /* \"#utility.yul\":16269:16278   */\n      dup2\n        /* \"#utility.yul\":16263:16267   */\n      dup2\n        /* \"#utility.yul\":16259:16279   */\n      sub\n        /* \"#utility.yul\":16254:16256   */\n      0x40\n        /* \"#utility.yul\":16243:16252   */\n      dup4\n        /* \"#utility.yul\":16239:16257   */\n      add\n        /* \"#utility.yul\":16232:16280   */\n      mstore\n        /* \"#utility.yul\":16297:16413   */\n      tag_530\n        /* \"#utility.yul\":16408:16412   */\n      dup2\n        /* \"#utility.yul\":16399:16405   */\n      dup5\n        /* \"#utility.yul\":16297:16413   */\n      tag_324\n      jump\t// in\n    tag_530:\n        /* \"#utility.yul\":16289:16413   */\n      swap1\n      pop\n        /* \"#utility.yul\":15795:16420   */\n      swap5\n      swap4\n      pop\n      pop\n      pop\n      pop\n      jump\t// out\n        /* \"#utility.yul\":16426:16737   */\n    tag_325:\n        /* \"#utility.yul\":16503:16507   */\n      0x00\n        /* \"#utility.yul\":16593:16611   */\n      0xffffffffffffffff\n        /* \"#utility.yul\":16585:16591   */\n      dup3\n        /* \"#utility.yul\":16582:16612   */\n      gt\n        /* \"#utility.yul\":16579:16635   */\n      iszero\n      tag_532\n      jumpi\n        /* \"#utility.yul\":16615:16633   */\n      tag_533\n      tag_294\n      jump\t// in\n    tag_533:\n        /* \"#utility.yul\":16579:16635   */\n    tag_532:\n        /* \"#utility.yul\":16665:16669   */\n      0x20\n        /* \"#utility.yul\":16657:16663   */\n      dup3\n        /* \"#utility.yul\":16653:16670   */\n      mul\n        /* \"#utility.yul\":16645:16670   */\n      swap1\n      pop\n        /* \"#utility.yul\":16725:16729   */\n      0x20\n        /* \"#utility.yul\":16719:16723   */\n      dup2\n        /* \"#utility.yul\":16715:16730   */\n      add\n        /* \"#utility.yul\":16707:16730   */\n      swap1\n      pop\n        /* \"#utility.yul\":16426:16737   */\n      swap2\n      swap1\n      pop\n      jump\t// out\n        /* \"#utility.yul\":16760:17492   */\n    tag_326:\n        /* \"#utility.yul\":16867:16872   */\n      0x00\n        /* \"#utility.yul\":16892:16973   */\n      tag_535\n        /* \"#utility.yul\":16908:16972   */\n      tag_536\n        /* \"#utility.yul\":16965:16971   */\n      dup5\n        /* \"#utility.yul\":16908:16972   */\n      tag_325\n      jump\t// in\n    tag_536:\n        /* \"#utility.yul\":16892:16973   */\n      tag_296\n      jump\t// in\n    tag_535:\n        /* \"#utility.yul\":16883:16973   */\n      swap1\n      pop\n        /* \"#utility.yul\":16993:16998   */\n      dup1\n        /* \"#utility.yul\":17022:17028   */\n      dup4\n        /* \"#utility.yul\":17015:17020   */\n      dup3\n        /* \"#utility.yul\":17008:17029   */\n      mstore\n        /* \"#utility.yul\":17056:17060   */\n      0x20\n        /* \"#utility.yul\":17049:17054   */\n      dup3\n        /* \"#utility.yul\":17045:17061   */\n      add\n        /* \"#utility.yul\":17038:17061   */\n      swap1\n      pop\n        /* \"#utility.yul\":17109:17113   */\n      0x20\n        /* \"#utility.yul\":17101:17107   */\n      dup5\n        /* \"#utility.yul\":17097:17114   */\n      mul\n        /* \"#utility.yul\":17089:17095   */\n      dup4\n        /* \"#utility.yul\":17085:17115   */\n      add\n        /* \"#utility.yul\":17138:17141   */\n      dup6\n        /* \"#utility.yul\":17130:17136   */\n      dup2\n        /* \"#utility.yul\":17127:17142   */\n      gt\n        /* \"#utility.yul\":17124:17246   */\n      iszero\n      tag_537\n      jumpi\n        /* \"#utility.yul\":17157:17236   */\n      tag_538\n      tag_298\n      jump\t// in\n    tag_538:\n        /* \"#utility.yul\":17124:17246   */\n    tag_537:\n        /* \"#utility.yul\":17272:17278   */\n      dup4\n        /* \"#utility.yul\":17255:17486   */\n    tag_539:\n        /* \"#utility.yul\":17289:17295   */\n      dup2\n        /* \"#utility.yul\":17284:17287   */\n      dup2\n        /* \"#utility.yul\":17281:17296   */\n      lt\n        /* \"#utility.yul\":17255:17486   */\n      iszero\n      tag_541\n      jumpi\n        /* \"#utility.yul\":17364:17367   */\n      dup1\n        /* \"#utility.yul\":17393:17441   */\n      tag_542\n        /* \"#utility.yul\":17437:17440   */\n      dup9\n        /* \"#utility.yul\":17425:17435   */\n      dup3\n        /* \"#utility.yul\":17393:17441   */\n      tag_316\n      jump\t// in\n    tag_542:\n        /* \"#utility.yul\":17388:17391   */\n      dup5\n        /* \"#utility.yul\":17381:17442   */\n      mstore\n        /* \"#utility.yul\":17471:17475   */\n      0x20\n        /* \"#utility.yul\":17466:17469   */\n      dup5\n        /* \"#utility.yul\":17462:17476   */\n      add\n        /* \"#utility.yul\":17455:17476   */\n      swap4\n      pop\n        /* \"#utility.yul\":17331:17486   */\n      pop\n        /* \"#utility.yul\":17315:17319   */\n      0x20\n        /* \"#utility.yul\":17310:17313   */\n      dup2\n        /* \"#utility.yul\":17306:17320   */\n      add\n        /* \"#utility.yul\":17299:17320   */\n      swap1\n      pop\n        /* \"#utility.yul\":17255:17486   */\n      jump(tag_539)\n    tag_541:\n        /* \"#utility.yul\":17259:17280   */\n      pop\n        /* \"#utility.yul\":16873:17492   */\n      pop\n      pop\n        /* \"#utility.yul\":16760:17492   */\n      swap4\n      swap3\n      pop\n      pop\n      pop\n      jump\t// out\n        /* \"#utility.yul\":17515:17900   */\n    tag_327:\n        /* \"#utility.yul\":17597:17602   */\n      0x00\n        /* \"#utility.yul\":17646:17649   */\n      dup3\n        /* \"#utility.yul\":17639:17643   */\n      0x1f\n        /* \"#utility.yul\":17631:17637   */\n      dup4\n        /* \"#utility.yul\":17627:17644   */\n      add\n        /* \"#utility.yul\":17623:17650   */\n      slt\n        /* \"#utility.yul\":17613:17735   */\n      tag_544\n      jumpi\n        /* \"#utility.yul\":17654:17733   */\n      tag_545\n      tag_292\n      jump\t// in\n    tag_545:\n        /* \"#utility.yul\":17613:17735   */\n    tag_544:\n        /* \"#utility.yul\":17764:17770   */\n      dup2\n        /* \"#utility.yul\":17758:17771   */\n      mload\n        /* \"#utility.yul\":17789:17894   */\n      tag_546\n        /* \"#utility.yul\":17890:17893   */\n      dup5\n        /* \"#utility.yul\":17882:17888   */\n      dup3\n        /* \"#utility.yul\":17875:17879   */\n      0x20\n        /* \"#utility.yul\":17867:17873   */\n      dup7\n        /* \"#utility.yul\":17863:17880   */\n      add\n        /* \"#utility.yul\":17789:17894   */\n      tag_326\n      jump\t// in\n    tag_546:\n        /* \"#utility.yul\":17780:17894   */\n      swap2\n      pop\n        /* \"#utility.yul\":17603:17900   */\n      pop\n        /* \"#utility.yul\":17515:17900   */\n      swap3\n      swap2\n      pop\n      pop\n      jump\t// out\n        /* \"#utility.yul\":17906:18460   */\n    tag_90:\n        /* \"#utility.yul\":18001:18007   */\n      0x00\n        /* \"#utility.yul\":18050:18052   */\n      0x20\n        /* \"#utility.yul\":18038:18047   */\n      dup3\n        /* \"#utility.yul\":18029:18036   */\n      dup5\n        /* \"#utility.yul\":18025:18048   */\n      sub\n        /* \"#utility.yul\":18021:18053   */\n      slt\n        /* \"#utility.yul\":18018:18137   */\n      iszero\n      tag_548\n      jumpi\n        /* \"#utility.yul\":18056:18135   */\n      tag_549\n      tag_286\n      jump\t// in\n    tag_549:\n        /* \"#utility.yul\":18018:18137   */\n    tag_548:\n        /* \"#utility.yul\":18197:18198   */\n      0x00\n        /* \"#utility.yul\":18186:18195   */\n      dup3\n        /* \"#utility.yul\":18182:18199   */\n      add\n        /* \"#utility.yul\":18176:18200   */\n      mload\n        /* \"#utility.yul\":18227:18245   */\n      0xffffffffffffffff\n        /* \"#utility.yul\":18219:18225   */\n      dup2\n        /* \"#utility.yul\":18216:18246   */\n      gt\n        /* \"#utility.yul\":18213:18330   */\n      iszero\n      tag_550\n      jumpi\n        /* \"#utility.yul\":18249:18328   */\n      tag_551\n      tag_287\n      jump\t// in\n    tag_551:\n        /* \"#utility.yul\":18213:18330   */\n    tag_550:\n        /* \"#utility.yul\":18354:18443   */\n      tag_552\n        /* \"#utility.yul\":18435:18442   */\n      dup5\n        /* \"#utility.yul\":18426:18432   */\n      dup3\n        /* \"#utility.yul\":18415:18424   */\n      dup6\n        /* \"#utility.yul\":18411:18433   */\n      add\n        /* \"#utility.yul\":18354:18443   */\n      tag_327\n      jump\t// in\n    tag_552:\n        /* \"#utility.yul\":18344:18443   */\n      swap2\n      pop\n        /* \"#utility.yul\":18147:18453   */\n      pop\n        /* \"#utility.yul\":17906:18460   */\n      swap3\n      swap2\n      pop\n      pop\n      jump\t// out\n        /* \"#utility.yul\":18466:18568   */\n    tag_328:\n        /* \"#utility.yul\":18535:18539   */\n      0x00\n        /* \"#utility.yul\":18558:18561   */\n      dup2\n        /* \"#utility.yul\":18550:18561   */\n      swap1\n      pop\n        /* \"#utility.yul\":18466:18568   */\n      swap2\n      swap1\n      pop\n      jump\t// out\n        /* \"#utility.yul\":18574:18696   */\n    tag_329:\n        /* \"#utility.yul\":18626:18631   */\n      0x00\n        /* \"#utility.yul\":18651:18690   */\n      tag_555\n        /* \"#utility.yul\":18686:18688   */\n      0x20\n        /* \"#utility.yul\":18681:18684   */\n      dup5\n        /* \"#utility.yul\":18677:18689   */\n      add\n        /* \"#utility.yul\":18672:18675   */\n      dup5\n        /* \"#utility.yul\":18651:18690   */\n      tag_302\n      jump\t// in\n    tag_555:\n        /* \"#utility.yul\":18642:18690   */\n      swap1\n      pop\n        /* \"#utility.yul\":18574:18696   */\n      swap3\n      swap2\n      pop\n      pop\n      jump\t// out\n        /* \"#utility.yul\":18702:18817   */\n    tag_330:\n        /* \"#utility.yul\":18774:18778   */\n      0x00\n        /* \"#utility.yul\":18806:18810   */\n      0x20\n        /* \"#utility.yul\":18801:18804   */\n      dup3\n        /* \"#utility.yul\":18797:18811   */\n      add\n        /* \"#utility.yul\":18789:18811   */\n      swap1\n      pop\n        /* \"#utility.yul\":18702:18817   */\n      swap2\n      swap1\n      pop\n      jump\t// out\n        /* \"#utility.yul\":18853:19576   */\n    tag_331:\n        /* \"#utility.yul\":18990:18993   */\n      0x00\n        /* \"#utility.yul\":19013:19107   */\n      tag_558\n        /* \"#utility.yul\":19100:19106   */\n      dup4\n        /* \"#utility.yul\":19095:19098   */\n      dup6\n        /* \"#utility.yul\":19013:19107   */\n      tag_319\n      jump\t// in\n    tag_558:\n        /* \"#utility.yul\":19006:19107   */\n      swap4\n      pop\n        /* \"#utility.yul\":19131:19189   */\n      tag_559\n        /* \"#utility.yul\":19183:19188   */\n      dup3\n        /* \"#utility.yul\":19131:19189   */\n      tag_328\n      jump\t// in\n    tag_559:\n        /* \"#utility.yul\":19212:19219   */\n      dup1\n        /* \"#utility.yul\":19243:19244   */\n      0x00\n        /* \"#utility.yul\":19228:19551   */\n    tag_560:\n        /* \"#utility.yul\":19253:19259   */\n      dup6\n        /* \"#utility.yul\":19250:19251   */\n      dup2\n        /* \"#utility.yul\":19247:19260   */\n      lt\n        /* \"#utility.yul\":19228:19551   */\n      iszero\n      tag_562\n      jumpi\n        /* \"#utility.yul\":19323:19365   */\n      tag_563\n        /* \"#utility.yul\":19358:19364   */\n      dup3\n        /* \"#utility.yul\":19349:19356   */\n      dup5\n        /* \"#utility.yul\":19323:19365   */\n      tag_329\n      jump\t// in\n    tag_563:\n        /* \"#utility.yul\":19385:19456   */\n      tag_564\n        /* \"#utility.yul\":19452:19455   */\n      dup9\n        /* \"#utility.yul\":19437:19450   */\n      dup3\n        /* \"#utility.yul\":19385:19456   */\n      tag_322\n      jump\t// in\n    tag_564:\n        /* \"#utility.yul\":19378:19456   */\n      swap8\n      pop\n        /* \"#utility.yul\":19479:19541   */\n      tag_565\n        /* \"#utility.yul\":19534:19540   */\n      dup4\n        /* \"#utility.yul\":19479:19541   */\n      tag_330\n      jump\t// in\n    tag_565:\n        /* \"#utility.yul\":19469:19541   */\n      swap3\n      pop\n        /* \"#utility.yul\":19288:19551   */\n      pop\n        /* \"#utility.yul\":19275:19276   */\n      0x01\n        /* \"#utility.yul\":19272:19273   */\n      dup2\n        /* \"#utility.yul\":19268:19277   */\n      add\n        /* \"#utility.yul\":19263:19277   */\n      swap1\n      pop\n        /* \"#utility.yul\":19228:19551   */\n      jump(tag_560)\n    tag_562:\n        /* \"#utility.yul\":19232:19246   */\n      pop\n        /* \"#utility.yul\":19567:19570   */\n      dup6\n        /* \"#utility.yul\":19560:19570   */\n      swap3\n      pop\n        /* \"#utility.yul\":18995:19576   */\n      pop\n      pop\n        /* \"#utility.yul\":18853:19576   */\n      swap4\n      swap3\n      pop\n      pop\n      pop\n      jump\t// out\n        /* \"#utility.yul\":19582:20227   */\n    tag_94:\n        /* \"#utility.yul\":19799:19803   */\n      0x00\n        /* \"#utility.yul\":19837:19839   */\n      0x60\n        /* \"#utility.yul\":19826:19835   */\n      dup3\n        /* \"#utility.yul\":19822:19840   */\n      add\n        /* \"#utility.yul\":19814:19840   */\n      swap1\n      pop\n        /* \"#utility.yul\":19850:19929   */\n      tag_567\n        /* \"#utility.yul\":19926:19927   */\n      0x00\n        /* \"#utility.yul\":19915:19924   */\n      dup4\n        /* \"#utility.yul\":19911:19928   */\n      add\n        /* \"#utility.yul\":19902:19908   */\n      dup8\n        /* \"#utility.yul\":19850:19929   */\n      tag_317\n      jump\t// in\n    tag_567:\n        /* \"#utility.yul\":19939:20019   */\n      tag_568\n        /* \"#utility.yul\":20015:20017   */\n      0x20\n        /* \"#utility.yul\":20004:20013   */\n      dup4\n        /* \"#utility.yul\":20000:20018   */\n      add\n        /* \"#utility.yul\":19991:19997   */\n      dup7\n        /* \"#utility.yul\":19939:20019   */\n      tag_315\n      jump\t// in\n    tag_568:\n        /* \"#utility.yul\":20066:20075   */\n      dup2\n        /* \"#utility.yul\":20060:20064   */\n      dup2\n        /* \"#utility.yul\":20056:20076   */\n      sub\n        /* \"#utility.yul\":20051:20053   */\n      0x40\n        /* \"#utility.yul\":20040:20049   */\n      dup4\n        /* \"#utility.yul\":20036:20054   */\n      add\n        /* \"#utility.yul\":20029:20077   */\n      mstore\n        /* \"#utility.yul\":20094:20220   */\n      tag_569\n        /* \"#utility.yul\":20215:20219   */\n      dup2\n        /* \"#utility.yul\":20206:20212   */\n      dup5\n        /* \"#utility.yul\":20198:20204   */\n      dup7\n        /* \"#utility.yul\":20094:20220   */\n      tag_331\n      jump\t// in\n    tag_569:\n        /* \"#utility.yul\":20086:20220   */\n      swap1\n      pop\n        /* \"#utility.yul\":19582:20227   */\n      swap6\n      swap5\n      pop\n      pop\n      pop\n      pop\n      pop\n      jump\t// out\n        /* \"#utility.yul\":20233:20413   */\n    tag_100:\n        /* \"#utility.yul\":20281:20358   */\n      0x4e487b7100000000000000000000000000000000000000000000000000000000\n        /* \"#utility.yul\":20278:20279   */\n      0x00\n        /* \"#utility.yul\":20271:20359   */\n      mstore\n        /* \"#utility.yul\":20378:20382   */\n      0x32\n        /* \"#utility.yul\":20375:20376   */\n      0x04\n        /* \"#utility.yul\":20368:20383   */\n      mstore\n        /* \"#utility.yul\":20402:20406   */\n      0x24\n        /* \"#utility.yul\":20399:20400   */\n      0x00\n        /* \"#utility.yul\":20392:20407   */\n      revert\n        /* \"#utility.yul\":20419:20588   */\n    tag_332:\n        /* \"#utility.yul\":20503:20514   */\n      0x00\n        /* \"#utility.yul\":20537:20543   */\n      dup3\n        /* \"#utility.yul\":20532:20535   */\n      dup3\n        /* \"#utility.yul\":20525:20544   */\n      mstore\n        /* \"#utility.yul\":20577:20581   */\n      0x20\n        /* \"#utility.yul\":20572:20575   */\n      dup3\n        /* \"#utility.yul\":20568:20582   */\n      add\n        /* \"#utility.yul\":20553:20582   */\n      swap1\n      pop\n        /* \"#utility.yul\":20419:20588   */\n      swap3\n      swap2\n      pop\n      pop\n      jump\t// out\n        /* \"#utility.yul\":20594:20819   */\n    tag_333:\n        /* \"#utility.yul\":20734:20768   */\n      0x4b616a7573776170526f757465723a204558434553534956455f494e5055545f\n        /* \"#utility.yul\":20730:20731   */\n      0x00\n        /* \"#utility.yul\":20722:20728   */\n      dup3\n        /* \"#utility.yul\":20718:20732   */\n      add\n        /* \"#utility.yul\":20711:20769   */\n      mstore\n        /* \"#utility.yul\":20803:20811   */\n      0x414d4f554e540000000000000000000000000000000000000000000000000000\n        /* \"#utility.yul\":20798:20800   */\n      0x20\n        /* \"#utility.yul\":20790:20796   */\n      dup3\n        /* \"#utility.yul\":20786:20801   */\n      add\n        /* \"#utility.yul\":20779:20812   */\n      mstore\n        /* \"#utility.yul\":20594:20819   */\n      pop\n      jump\t// out\n        /* \"#utility.yul\":20825:21191   */\n    tag_334:\n        /* \"#utility.yul\":20967:20970   */\n      0x00\n        /* \"#utility.yul\":20988:21055   */\n      tag_574\n        /* \"#utility.yul\":21052:21054   */\n      0x26\n        /* \"#utility.yul\":21047:21050   */\n      dup4\n        /* \"#utility.yul\":20988:21055   */\n      tag_332\n      jump\t// in\n    tag_574:\n        /* \"#utility.yul\":20981:21055   */\n      swap2\n      pop\n        /* \"#utility.yul\":21064:21157   */\n      tag_575\n        /* \"#utility.yul\":21153:21156   */\n      dup3\n        /* \"#utility.yul\":21064:21157   */\n      tag_333\n      jump\t// in\n    tag_575:\n        /* \"#utility.yul\":21182:21184   */\n      0x40\n        /* \"#utility.yul\":21177:21180   */\n      dup3\n        /* \"#utility.yul\":21173:21185   */\n      add\n        /* \"#utility.yul\":21166:21185   */\n      swap1\n      pop\n        /* \"#utility.yul\":20825:21191   */\n      swap2\n      swap1\n      pop\n      jump\t// out\n        /* \"#utility.yul\":21197:21616   */\n    tag_103:\n        /* \"#utility.yul\":21363:21367   */\n      0x00\n        /* \"#utility.yul\":21401:21403   */\n      0x20\n        /* \"#utility.yul\":21390:21399   */\n      dup3\n        /* \"#utility.yul\":21386:21404   */\n      add\n        /* \"#utility.yul\":21378:21404   */\n      swap1\n      pop\n        /* \"#utility.yul\":21450:21459   */\n      dup2\n        /* \"#utility.yul\":21444:21448   */\n      dup2\n        /* \"#utility.yul\":21440:21460   */\n      sub\n        /* \"#utility.yul\":21436:21437   */\n      0x00\n        /* \"#utility.yul\":21425:21434   */\n      dup4\n        /* \"#utility.yul\":21421:21438   */\n      add\n        /* \"#utility.yul\":21414:21461   */\n      mstore\n        /* \"#utility.yul\":21478:21609   */\n      tag_577\n        /* \"#utility.yul\":21604:21608   */\n      dup2\n        /* \"#utility.yul\":21478:21609   */\n      tag_334\n      jump\t// in\n    tag_577:\n        /* \"#utility.yul\":21470:21609   */\n      swap1\n      pop\n        /* \"#utility.yul\":21197:21616   */\n      swap2\n      swap1\n      pop\n      jump\t// out\n        /* \"#utility.yul\":21622:21951   */\n    tag_108:\n        /* \"#utility.yul\":21681:21687   */\n      0x00\n        /* \"#utility.yul\":21730:21732   */\n      0x20\n        /* \"#utility.yul\":21718:21727   */\n      dup3\n        /* \"#utility.yul\":21709:21716   */\n      dup5\n        /* \"#utility.yul\":21705:21728   */\n      sub\n        /* \"#utility.yul\":21701:21733   */\n      slt\n        /* \"#utility.yul\":21698:21817   */\n      iszero\n      tag_579\n      jumpi\n        /* \"#utility.yul\":21736:21815   */\n      tag_580\n      tag_286\n      jump\t// in\n    tag_580:\n        /* \"#utility.yul\":21698:21817   */\n    tag_579:\n        /* \"#utility.yul\":21856:21857   */\n      0x00\n        /* \"#utility.yul\":21881:21934   */\n      tag_581\n        /* \"#utility.yul\":21926:21933   */\n      dup5\n        /* \"#utility.yul\":21917:21923   */\n      dup3\n        /* \"#utility.yul\":21906:21915   */\n      dup6\n        /* \"#utility.yul\":21902:21924   */\n      add\n        /* \"#utility.yul\":21881:21934   */\n      tag_302\n      jump\t// in\n    tag_581:\n        /* \"#utility.yul\":21871:21934   */\n      swap2\n      pop\n        /* \"#utility.yul\":21827:21944   */\n      pop\n        /* \"#utility.yul\":21622:21951   */\n      swap3\n      swap2\n      pop\n      pop\n      jump\t// out\n        /* \"#utility.yul\":21957:22137   */\n    tag_335:\n        /* \"#utility.yul\":22005:22082   */\n      0x4e487b7100000000000000000000000000000000000000000000000000000000\n        /* \"#utility.yul\":22002:22003   */\n      0x00\n        /* \"#utility.yul\":21995:22083   */\n      mstore\n        /* \"#utility.yul\":22102:22106   */\n      0x11\n        /* \"#utility.yul\":22099:22100   */\n      0x04\n        /* \"#utility.yul\":22092:22107   */\n      mstore\n        /* \"#utility.yul\":22126:22130   */\n      0x24\n        /* \"#utility.yul\":22123:22124   */\n      0x00\n        /* \"#utility.yul\":22116:22131   */\n      revert\n        /* \"#utility.yul\":22143:22334   */\n    tag_128:\n        /* \"#utility.yul\":22183:22187   */\n      0x00\n        /* \"#utility.yul\":22203:22223   */\n      tag_584\n        /* \"#utility.yul\":22221:22222   */\n      dup3\n        /* \"#utility.yul\":22203:22223   */\n      tag_288\n      jump\t// in\n    tag_584:\n        /* \"#utility.yul\":22198:22223   */\n      swap2\n      pop\n        /* \"#utility.yul\":22237:22257   */\n      tag_585\n        /* \"#utility.yul\":22255:22256   */\n      dup4\n        /* \"#utility.yul\":22237:22257   */\n      tag_288\n      jump\t// in\n    tag_585:\n        /* \"#utility.yul\":22232:22257   */\n      swap3\n      pop\n        /* \"#utility.yul\":22276:22277   */\n      dup3\n        /* \"#utility.yul\":22273:22274   */\n      dup3\n        /* \"#utility.yul\":22270:22278   */\n      lt\n        /* \"#utility.yul\":22267:22301   */\n      iszero\n      tag_586\n      jumpi\n        /* \"#utility.yul\":22281:22299   */\n      tag_587\n      tag_335\n      jump\t// in\n    tag_587:\n        /* \"#utility.yul\":22267:22301   */\n    tag_586:\n        /* \"#utility.yul\":22326:22327   */\n      dup3\n        /* \"#utility.yul\":22323:22324   */\n      dup3\n        /* \"#utility.yul\":22319:22328   */\n      sub\n        /* \"#utility.yul\":22311:22328   */\n      swap1\n      pop\n        /* \"#utility.yul\":22143:22334   */\n      swap3\n      swap2\n      pop\n      pop\n      jump\t// out\n        /* \"#utility.yul\":22340:22569   */\n    tag_336:\n        /* \"#utility.yul\":22480:22514   */\n      0x4b616a7573776170526f757465723a20494e53554646494349454e545f4f5554\n        /* \"#utility.yul\":22476:22477   */\n      0x00\n        /* \"#utility.yul\":22468:22474   */\n      dup3\n        /* \"#utility.yul\":22464:22478   */\n      add\n        /* \"#utility.yul\":22457:22515   */\n      mstore\n        /* \"#utility.yul\":22549:22561   */\n      0x5055545f414d4f554e5400000000000000000000000000000000000000000000\n        /* \"#utility.yul\":22544:22546   */\n      0x20\n        /* \"#utility.yul\":22536:22542   */\n      dup3\n        /* \"#utility.yul\":22532:22547   */\n      add\n        /* \"#utility.yul\":22525:22562   */\n      mstore\n        /* \"#utility.yul\":22340:22569   */\n      pop\n      jump\t// out\n        /* \"#utility.yul\":22575:22941   */\n    tag_337:\n        /* \"#utility.yul\":22717:22720   */\n      0x00\n        /* \"#utility.yul\":22738:22805   */\n      tag_590\n        /* \"#utility.yul\":22802:22804   */\n      0x2a\n        /* \"#utility.yul\":22797:22800   */\n      dup4\n        /* \"#utility.yul\":22738:22805   */\n      tag_332\n      jump\t// in\n    tag_590:\n        /* \"#utility.yul\":22731:22805   */\n      swap2\n      pop\n        /* \"#utility.yul\":22814:22907   */\n      tag_591\n        /* \"#utility.yul\":22903:22906   */\n      dup3\n        /* \"#utility.yul\":22814:22907   */\n      tag_336\n      jump\t// in\n    tag_591:\n        /* \"#utility.yul\":22932:22934   */\n      0x40\n        /* \"#utility.yul\":22927:22930   */\n      dup3\n        /* \"#utility.yul\":22923:22935   */\n      add\n        /* \"#utility.yul\":22916:22935   */\n      swap1\n      pop\n        /* \"#utility.yul\":22575:22941   */\n      swap2\n      swap1\n      pop\n      jump\t// out\n        /* \"#utility.yul\":22947:23366   */\n    tag_133:\n        /* \"#utility.yul\":23113:23117   */\n      0x00\n        /* \"#utility.yul\":23151:23153   */\n      0x20\n        /* \"#utility.yul\":23140:23149   */\n      dup3\n        /* \"#utility.yul\":23136:23154   */\n      add\n        /* \"#utility.yul\":23128:23154   */\n      swap1\n      pop\n        /* \"#utility.yul\":23200:23209   */\n      dup2\n        /* \"#utility.yul\":23194:23198   */\n      dup2\n        /* \"#utility.yul\":23190:23210   */\n      sub\n        /* \"#utility.yul\":23186:23187   */\n      0x00\n        /* \"#utility.yul\":23175:23184   */\n      dup4\n        /* \"#utility.yul\":23171:23188   */\n      add\n        /* \"#utility.yul\":23164:23211   */\n      mstore\n        /* \"#utility.yul\":23228:23359   */\n      tag_593\n        /* \"#utility.yul\":23354:23358   */\n      dup2\n        /* \"#utility.yul\":23228:23359   */\n      tag_337\n      jump\t// in\n    tag_593:\n        /* \"#utility.yul\":23220:23359   */\n      swap1\n      pop\n        /* \"#utility.yul\":22947:23366   */\n      swap2\n      swap1\n      pop\n      jump\t// out\n        /* \"#utility.yul\":23372:23814   */\n    tag_161:\n        /* \"#utility.yul\":23521:23525   */\n      0x00\n        /* \"#utility.yul\":23559:23561   */\n      0x60\n        /* \"#utility.yul\":23548:23557   */\n      dup3\n        /* \"#utility.yul\":23544:23562   */\n      add\n        /* \"#utility.yul\":23536:23562   */\n      swap1\n      pop\n        /* \"#utility.yul\":23572:23643   */\n      tag_595\n        /* \"#utility.yul\":23640:23641   */\n      0x00\n        /* \"#utility.yul\":23629:23638   */\n      dup4\n        /* \"#utility.yul\":23625:23642   */\n      add\n        /* \"#utility.yul\":23616:23622   */\n      dup7\n        /* \"#utility.yul\":23572:23643   */\n      tag_312\n      jump\t// in\n    tag_595:\n        /* \"#utility.yul\":23653:23725   */\n      tag_596\n        /* \"#utility.yul\":23721:23723   */\n      0x20\n        /* \"#utility.yul\":23710:23719   */\n      dup4\n        /* \"#utility.yul\":23706:23724   */\n      add\n        /* \"#utility.yul\":23697:23703   */\n      dup6\n        /* \"#utility.yul\":23653:23725   */\n      tag_312\n      jump\t// in\n    tag_596:\n        /* \"#utility.yul\":23735:23807   */\n      tag_597\n        /* \"#utility.yul\":23803:23805   */\n      0x40\n        /* \"#utility.yul\":23792:23801   */\n      dup4\n        /* \"#utility.yul\":23788:23806   */\n      add\n        /* \"#utility.yul\":23779:23785   */\n      dup5\n        /* \"#utility.yul\":23735:23807   */\n      tag_291\n      jump\t// in\n    tag_597:\n        /* \"#utility.yul\":23372:23814   */\n      swap5\n      swap4\n      pop\n      pop\n      pop\n      pop\n      jump\t// out\n        /* \"#utility.yul\":23820:23910   */\n    tag_338:\n        /* \"#utility.yul\":23854:23861   */\n      0x00\n        /* \"#utility.yul\":23897:23902   */\n      dup2\n        /* \"#utility.yul\":23890:23903   */\n      iszero\n        /* \"#utility.yul\":23883:23904   */\n      iszero\n        /* \"#utility.yul\":23872:23904   */\n      swap1\n      pop\n        /* \"#utility.yul\":23820:23910   */\n      swap2\n      swap1\n      pop\n      jump\t// out\n        /* \"#utility.yul\":23916:24032   */\n    tag_339:\n        /* \"#utility.yul\":23986:24007   */\n      tag_600\n        /* \"#utility.yul\":24001:24006   */\n      dup2\n        /* \"#utility.yul\":23986:24007   */\n      tag_338\n      jump\t// in\n    tag_600:\n        /* \"#utility.yul\":23979:23984   */\n      dup2\n        /* \"#utility.yul\":23976:24008   */\n      eq\n        /* \"#utility.yul\":23966:24026   */\n      tag_601\n      jumpi\n        /* \"#utility.yul\":24022:24023   */\n      0x00\n        /* \"#utility.yul\":24019:24020   */\n      dup1\n        /* \"#utility.yul\":24012:24024   */\n      revert\n        /* \"#utility.yul\":23966:24026   */\n    tag_601:\n        /* \"#utility.yul\":23916:24032   */\n      pop\n      jump\t// out\n        /* \"#utility.yul\":24038:24175   */\n    tag_340:\n        /* \"#utility.yul\":24092:24097   */\n      0x00\n        /* \"#utility.yul\":24123:24129   */\n      dup2\n        /* \"#utility.yul\":24117:24130   */\n      mload\n        /* \"#utility.yul\":24108:24130   */\n      swap1\n      pop\n        /* \"#utility.yul\":24139:24169   */\n      tag_603\n        /* \"#utility.yul\":24163:24168   */\n      dup2\n        /* \"#utility.yul\":24139:24169   */\n      tag_339\n      jump\t// in\n    tag_603:\n        /* \"#utility.yul\":24038:24175   */\n      swap3\n      swap2\n      pop\n      pop\n      jump\t// out\n        /* \"#utility.yul\":24181:24526   */\n    tag_165:\n        /* \"#utility.yul\":24248:24254   */\n      0x00\n        /* \"#utility.yul\":24297:24299   */\n      0x20\n        /* \"#utility.yul\":24285:24294   */\n      dup3\n        /* \"#utility.yul\":24276:24283   */\n      dup5\n        /* \"#utility.yul\":24272:24295   */\n      sub\n        /* \"#utility.yul\":24268:24300   */\n      slt\n        /* \"#utility.yul\":24265:24384   */\n      iszero\n      tag_605\n      jumpi\n        /* \"#utility.yul\":24303:24382   */\n      tag_606\n      tag_286\n      jump\t// in\n    tag_606:\n        /* \"#utility.yul\":24265:24384   */\n    tag_605:\n        /* \"#utility.yul\":24423:24424   */\n      0x00\n        /* \"#utility.yul\":24448:24509   */\n      tag_607\n        /* \"#utility.yul\":24501:24508   */\n      dup5\n        /* \"#utility.yul\":24492:24498   */\n      dup3\n        /* \"#utility.yul\":24481:24490   */\n      dup6\n        /* \"#utility.yul\":24477:24499   */\n      add\n        /* \"#utility.yul\":24448:24509   */\n      tag_340\n      jump\t// in\n    tag_607:\n        /* \"#utility.yul\":24438:24509   */\n      swap2\n      pop\n        /* \"#utility.yul\":24394:24519   */\n      pop\n        /* \"#utility.yul\":24181:24526   */\n      swap3\n      swap2\n      pop\n      pop\n      jump\t// out\n        /* \"#utility.yul\":24532:25039   */\n    tag_170:\n        /* \"#utility.yul\":24611:24617   */\n      0x00\n        /* \"#utility.yul\":24619:24625   */\n      dup1\n        /* \"#utility.yul\":24668:24670   */\n      0x40\n        /* \"#utility.yul\":24656:24665   */\n      dup4\n        /* \"#utility.yul\":24647:24654   */\n      dup6\n        /* \"#utility.yul\":24643:24666   */\n      sub\n        /* \"#utility.yul\":24639:24671   */\n      slt\n        /* \"#utility.yul\":24636:24755   */\n      iszero\n      tag_609\n      jumpi\n        /* \"#utility.yul\":24674:24753   */\n      tag_610\n      tag_286\n      jump\t// in\n    tag_610:\n        /* \"#utility.yul\":24636:24755   */\n    tag_609:\n        /* \"#utility.yul\":24794:24795   */\n      0x00\n        /* \"#utility.yul\":24819:24883   */\n      tag_611\n        /* \"#utility.yul\":24875:24882   */\n      dup6\n        /* \"#utility.yul\":24866:24872   */\n      dup3\n        /* \"#utility.yul\":24855:24864   */\n      dup7\n        /* \"#utility.yul\":24851:24873   */\n      add\n        /* \"#utility.yul\":24819:24883   */\n      tag_316\n      jump\t// in\n    tag_611:\n        /* \"#utility.yul\":24809:24883   */\n      swap3\n      pop\n        /* \"#utility.yul\":24765:24893   */\n      pop\n        /* \"#utility.yul\":24932:24934   */\n      0x20\n        /* \"#utility.yul\":24958:25022   */\n      tag_612\n        /* \"#utility.yul\":25014:25021   */\n      dup6\n        /* \"#utility.yul\":25005:25011   */\n      dup3\n        /* \"#utility.yul\":24994:25003   */\n      dup7\n        /* \"#utility.yul\":24990:25012   */\n      add\n        /* \"#utility.yul\":24958:25022   */\n      tag_316\n      jump\t// in\n    tag_612:\n        /* \"#utility.yul\":24948:25022   */\n      swap2\n      pop\n        /* \"#utility.yul\":24903:25032   */\n      pop\n        /* \"#utility.yul\":24532:25039   */\n      swap3\n      pop\n      swap3\n      swap1\n      pop\n      jump\t// out\n        /* \"#utility.yul\":25045:25269   */\n    tag_341:\n        /* \"#utility.yul\":25185:25219   */\n      0x4b616a7573776170526f757465723a20494e53554646494349454e545f415f41\n        /* \"#utility.yul\":25181:25182   */\n      0x00\n        /* \"#utility.yul\":25173:25179   */\n      dup3\n        /* \"#utility.yul\":25169:25183   */\n      add\n        /* \"#utility.yul\":25162:25220   */\n      mstore\n        /* \"#utility.yul\":25254:25261   */\n      0x4d4f554e54000000000000000000000000000000000000000000000000000000\n        /* \"#utility.yul\":25249:25251   */\n      0x20\n        /* \"#utility.yul\":25241:25247   */\n      dup3\n        /* \"#utility.yul\":25237:25252   */\n      add\n        /* \"#utility.yul\":25230:25262   */\n      mstore\n        /* \"#utility.yul\":25045:25269   */\n      pop\n      jump\t// out\n        /* \"#utility.yul\":25275:25641   */\n    tag_342:\n        /* \"#utility.yul\":25417:25420   */\n      0x00\n        /* \"#utility.yul\":25438:25505   */\n      tag_615\n        /* \"#utility.yul\":25502:25504   */\n      0x25\n        /* \"#utility.yul\":25497:25500   */\n      dup4\n        /* \"#utility.yul\":25438:25505   */\n      tag_332\n      jump\t// in\n    tag_615:\n        /* \"#utility.yul\":25431:25505   */\n      swap2\n      pop\n        /* \"#utility.yul\":25514:25607   */\n      tag_616\n        /* \"#utility.yul\":25603:25606   */\n      dup3\n        /* \"#utility.yul\":25514:25607   */\n      tag_341\n      jump\t// in\n    tag_616:\n        /* \"#utility.yul\":25632:25634   */\n      0x40\n        /* \"#utility.yul\":25627:25630   */\n      dup3\n        /* \"#utility.yul\":25623:25635   */\n      add\n        /* \"#utility.yul\":25616:25635   */\n      swap1\n      pop\n        /* \"#utility.yul\":25275:25641   */\n      swap2\n      swap1\n      pop\n      jump\t// out\n        /* \"#utility.yul\":25647:26066   */\n    tag_173:\n        /* \"#utility.yul\":25813:25817   */\n      0x00\n        /* \"#utility.yul\":25851:25853   */\n      0x20\n        /* \"#utility.yul\":25840:25849   */\n      dup3\n        /* \"#utility.yul\":25836:25854   */\n      add\n        /* \"#utility.yul\":25828:25854   */\n      swap1\n      pop\n        /* \"#utility.yul\":25900:25909   */\n      dup2\n        /* \"#utility.yul\":25894:25898   */\n      dup2\n        /* \"#utility.yul\":25890:25910   */\n      sub\n        /* \"#utility.yul\":25886:25887   */\n      0x00\n        /* \"#utility.yul\":25875:25884   */\n      dup4\n        /* \"#utility.yul\":25871:25888   */\n      add\n        /* \"#utility.yul\":25864:25911   */\n      mstore\n        /* \"#utility.yul\":25928:26059   */\n      tag_618\n        /* \"#utility.yul\":26054:26058   */\n      dup2\n        /* \"#utility.yul\":25928:26059   */\n      tag_342\n      jump\t// in\n    tag_618:\n        /* \"#utility.yul\":25920:26059   */\n      swap1\n      pop\n        /* \"#utility.yul\":25647:26066   */\n      swap2\n      swap1\n      pop\n      jump\t// out\n        /* \"#utility.yul\":26072:26296   */\n    tag_343:\n        /* \"#utility.yul\":26212:26246   */\n      0x4b616a7573776170526f757465723a20494e53554646494349454e545f425f41\n        /* \"#utility.yul\":26208:26209   */\n      0x00\n        /* \"#utility.yul\":26200:26206   */\n      dup3\n        /* \"#utility.yul\":26196:26210   */\n      add\n        /* \"#utility.yul\":26189:26247   */\n      mstore\n        /* \"#utility.yul\":26281:26288   */\n      0x4d4f554e54000000000000000000000000000000000000000000000000000000\n        /* \"#utility.yul\":26276:26278   */\n      0x20\n        /* \"#utility.yul\":26268:26274   */\n      dup3\n        /* \"#utility.yul\":26264:26279   */\n      add\n        /* \"#utility.yul\":26257:26289   */\n      mstore\n        /* \"#utility.yul\":26072:26296   */\n      pop\n      jump\t// out\n        /* \"#utility.yul\":26302:26668   */\n    tag_344:\n        /* \"#utility.yul\":26444:26447   */\n      0x00\n        /* \"#utility.yul\":26465:26532   */\n      tag_621\n        /* \"#utility.yul\":26529:26531   */\n      0x25\n        /* \"#utility.yul\":26524:26527   */\n      dup4\n        /* \"#utility.yul\":26465:26532   */\n      tag_332\n      jump\t// in\n    tag_621:\n        /* \"#utility.yul\":26458:26532   */\n      swap2\n      pop\n        /* \"#utility.yul\":26541:26634   */\n      tag_622\n        /* \"#utility.yul\":26630:26633   */\n      dup3\n        /* \"#utility.yul\":26541:26634   */\n      tag_343\n      jump\t// in\n    tag_622:\n        /* \"#utility.yul\":26659:26661   */\n      0x40\n        /* \"#utility.yul\":26654:26657   */\n      dup3\n        /* \"#utility.yul\":26650:26662   */\n      add\n        /* \"#utility.yul\":26643:26662   */\n      swap1\n      pop\n        /* \"#utility.yul\":26302:26668   */\n      swap2\n      swap1\n      pop\n      jump\t// out\n        /* \"#utility.yul\":26674:27093   */\n    tag_176:\n        /* \"#utility.yul\":26840:26844   */\n      0x00\n        /* \"#utility.yul\":26878:26880   */\n      0x20\n        /* \"#utility.yul\":26867:26876   */\n      dup3\n        /* \"#utility.yul\":26863:26881   */\n      add\n        /* \"#utility.yul\":26855:26881   */\n      swap1\n      pop\n        /* \"#utility.yul\":26927:26936   */\n      dup2\n        /* \"#utility.yul\":26921:26925   */\n      dup2\n        /* \"#utility.yul\":26917:26937   */\n      sub\n        /* \"#utility.yul\":26913:26914   */\n      0x00\n        /* \"#utility.yul\":26902:26911   */\n      dup4\n        /* \"#utility.yul\":26898:26915   */\n      add\n        /* \"#utility.yul\":26891:26938   */\n      mstore\n        /* \"#utility.yul\":26955:27086   */\n      tag_624\n        /* \"#utility.yul\":27081:27085   */\n      dup2\n        /* \"#utility.yul\":26955:27086   */\n      tag_344\n      jump\t// in\n    tag_624:\n        /* \"#utility.yul\":26947:27086   */\n      swap1\n      pop\n        /* \"#utility.yul\":26674:27093   */\n      swap2\n      swap1\n      pop\n      jump\t// out\n        /* \"#utility.yul\":27099:27431   */\n    tag_179:\n        /* \"#utility.yul\":27220:27224   */\n      0x00\n        /* \"#utility.yul\":27258:27260   */\n      0x40\n        /* \"#utility.yul\":27247:27256   */\n      dup3\n        /* \"#utility.yul\":27243:27261   */\n      add\n        /* \"#utility.yul\":27235:27261   */\n      swap1\n      pop\n        /* \"#utility.yul\":27271:27342   */\n      tag_626\n        /* \"#utility.yul\":27339:27340   */\n      0x00\n        /* \"#utility.yul\":27328:27337   */\n      dup4\n        /* \"#utility.yul\":27324:27341   */\n      add\n        /* \"#utility.yul\":27315:27321   */\n      dup6\n        /* \"#utility.yul\":27271:27342   */\n      tag_312\n      jump\t// in\n    tag_626:\n        /* \"#utility.yul\":27352:27424   */\n      tag_627\n        /* \"#utility.yul\":27420:27422   */\n      0x20\n        /* \"#utility.yul\":27409:27418   */\n      dup4\n        /* \"#utility.yul\":27405:27423   */\n      add\n        /* \"#utility.yul\":27396:27402   */\n      dup5\n        /* \"#utility.yul\":27352:27424   */\n      tag_312\n      jump\t// in\n    tag_627:\n        /* \"#utility.yul\":27099:27431   */\n      swap4\n      swap3\n      pop\n      pop\n      pop\n      jump\t// out\n        /* \"#utility.yul\":27437:27580   */\n    tag_345:\n        /* \"#utility.yul\":27494:27499   */\n      0x00\n        /* \"#utility.yul\":27525:27531   */\n      dup2\n        /* \"#utility.yul\":27519:27532   */\n      mload\n        /* \"#utility.yul\":27510:27532   */\n      swap1\n      pop\n        /* \"#utility.yul\":27541:27574   */\n      tag_629\n        /* \"#utility.yul\":27568:27573   */\n      dup2\n        /* \"#utility.yul\":27541:27574   */\n      tag_301\n      jump\t// in\n    tag_629:\n        /* \"#utility.yul\":27437:27580   */\n      swap3\n      swap2\n      pop\n      pop\n      jump\t// out\n        /* \"#utility.yul\":27586:27937   */\n    tag_183:\n        /* \"#utility.yul\":27656:27662   */\n      0x00\n        /* \"#utility.yul\":27705:27707   */\n      0x20\n        /* \"#utility.yul\":27693:27702   */\n      dup3\n        /* \"#utility.yul\":27684:27691   */\n      dup5\n        /* \"#utility.yul\":27680:27703   */\n      sub\n        /* \"#utility.yul\":27676:27708   */\n      slt\n        /* \"#utility.yul\":27673:27792   */\n      iszero\n      tag_631\n      jumpi\n        /* \"#utility.yul\":27711:27790   */\n      tag_632\n      tag_286\n      jump\t// in\n    tag_632:\n        /* \"#utility.yul\":27673:27792   */\n    tag_631:\n        /* \"#utility.yul\":27831:27832   */\n      0x00\n        /* \"#utility.yul\":27856:27920   */\n      tag_633\n        /* \"#utility.yul\":27912:27919   */\n      dup5\n        /* \"#utility.yul\":27903:27909   */\n      dup3\n        /* \"#utility.yul\":27892:27901   */\n      dup6\n        /* \"#utility.yul\":27888:27910   */\n      add\n        /* \"#utility.yul\":27856:27920   */\n      tag_345\n      jump\t// in\n    tag_633:\n        /* \"#utility.yul\":27846:27920   */\n      swap2\n      pop\n        /* \"#utility.yul\":27802:27930   */\n      pop\n        /* \"#utility.yul\":27586:27937   */\n      swap3\n      swap2\n      pop\n      pop\n      jump\t// out\n        /* \"#utility.yul\":27943:28037   */\n    tag_346:\n        /* \"#utility.yul\":27976:27984   */\n      0x00\n        /* \"#utility.yul\":28024:28029   */\n      dup2\n        /* \"#utility.yul\":28020:28022   */\n      0x60\n        /* \"#utility.yul\":28016:28030   */\n      shl\n        /* \"#utility.yul\":27995:28030   */\n      swap1\n      pop\n        /* \"#utility.yul\":27943:28037   */\n      swap2\n      swap1\n      pop\n      jump\t// out\n        /* \"#utility.yul\":28043:28137   */\n    tag_347:\n        /* \"#utility.yul\":28082:28089   */\n      0x00\n        /* \"#utility.yul\":28111:28131   */\n      tag_636\n        /* \"#utility.yul\":28125:28130   */\n      dup3\n        /* \"#utility.yul\":28111:28131   */\n      tag_346\n      jump\t// in\n    tag_636:\n        /* \"#utility.yul\":28100:28131   */\n      swap1\n      pop\n        /* \"#utility.yul\":28043:28137   */\n      swap2\n      swap1\n      pop\n      jump\t// out\n        /* \"#utility.yul\":28143:28243   */\n    tag_348:\n        /* \"#utility.yul\":28182:28189   */\n      0x00\n        /* \"#utility.yul\":28211:28237   */\n      tag_638\n        /* \"#utility.yul\":28231:28236   */\n      dup3\n        /* \"#utility.yul\":28211:28237   */\n      tag_347\n      jump\t// in\n    tag_638:\n        /* \"#utility.yul\":28200:28237   */\n      swap1\n      pop\n        /* \"#utility.yul\":28143:28243   */\n      swap2\n      swap1\n      pop\n      jump\t// out\n        /* \"#utility.yul\":28249:28406   */\n    tag_349:\n        /* \"#utility.yul\":28354:28399   */\n      tag_640\n        /* \"#utility.yul\":28374:28398   */\n      tag_641\n        /* \"#utility.yul\":28392:28397   */\n      dup3\n        /* \"#utility.yul\":28374:28398   */\n      tag_300\n      jump\t// in\n    tag_641:\n        /* \"#utility.yul\":28354:28399   */\n      tag_348\n      jump\t// in\n    tag_640:\n        /* \"#utility.yul\":28349:28352   */\n      dup3\n        /* \"#utility.yul\":28342:28400   */\n      mstore\n        /* \"#utility.yul\":28249:28406   */\n      pop\n      pop\n      jump\t// out\n        /* \"#utility.yul\":28412:28809   */\n    tag_207:\n        /* \"#utility.yul\":28552:28555   */\n      0x00\n        /* \"#utility.yul\":28567:28642   */\n      tag_643\n        /* \"#utility.yul\":28638:28641   */\n      dup3\n        /* \"#utility.yul\":28629:28635   */\n      dup6\n        /* \"#utility.yul\":28567:28642   */\n      tag_349\n      jump\t// in\n    tag_643:\n        /* \"#utility.yul\":28667:28669   */\n      0x14\n        /* \"#utility.yul\":28662:28665   */\n      dup3\n        /* \"#utility.yul\":28658:28670   */\n      add\n        /* \"#utility.yul\":28651:28670   */\n      swap2\n      pop\n        /* \"#utility.yul\":28680:28755   */\n      tag_644\n        /* \"#utility.yul\":28751:28754   */\n      dup3\n        /* \"#utility.yul\":28742:28748   */\n      dup5\n        /* \"#utility.yul\":28680:28755   */\n      tag_349\n      jump\t// in\n    tag_644:\n        /* \"#utility.yul\":28780:28782   */\n      0x14\n        /* \"#utility.yul\":28775:28778   */\n      dup3\n        /* \"#utility.yul\":28771:28783   */\n      add\n        /* \"#utility.yul\":28764:28783   */\n      swap2\n      pop\n        /* \"#utility.yul\":28800:28803   */\n      dup2\n        /* \"#utility.yul\":28793:28803   */\n      swap1\n      pop\n        /* \"#utility.yul\":28412:28809   */\n      swap4\n      swap3\n      pop\n      pop\n      pop\n      jump\t// out\n        /* \"#utility.yul\":28815:28963   */\n    tag_350:\n        /* \"#utility.yul\":28917:28928   */\n      0x00\n        /* \"#utility.yul\":28954:28957   */\n      dup2\n        /* \"#utility.yul\":28939:28957   */\n      swap1\n      pop\n        /* \"#utility.yul\":28815:28963   */\n      swap3\n      swap2\n      pop\n      pop\n      jump\t// out\n        /* \"#utility.yul\":28969:29183   */\n    tag_351:\n        /* \"#utility.yul\":29109:29175   */\n      0xff00000000000000000000000000000000000000000000000000000000000000\n        /* \"#utility.yul\":29105:29106   */\n      0x00\n        /* \"#utility.yul\":29097:29103   */\n      dup3\n        /* \"#utility.yul\":29093:29107   */\n      add\n        /* \"#utility.yul\":29086:29176   */\n      mstore\n        /* \"#utility.yul\":28969:29183   */\n      pop\n      jump\t// out\n        /* \"#utility.yul\":29189:29589   */\n    tag_352:\n        /* \"#utility.yul\":29349:29352   */\n      0x00\n        /* \"#utility.yul\":29370:29454   */\n      tag_648\n        /* \"#utility.yul\":29452:29453   */\n      0x01\n        /* \"#utility.yul\":29447:29450   */\n      dup4\n        /* \"#utility.yul\":29370:29454   */\n      tag_350\n      jump\t// in\n    tag_648:\n        /* \"#utility.yul\":29363:29454   */\n      swap2\n      pop\n        /* \"#utility.yul\":29463:29556   */\n      tag_649\n        /* \"#utility.yul\":29552:29555   */\n      dup3\n        /* \"#utility.yul\":29463:29556   */\n      tag_351\n      jump\t// in\n    tag_649:\n        /* \"#utility.yul\":29581:29582   */\n      0x01\n        /* \"#utility.yul\":29576:29579   */\n      dup3\n        /* \"#utility.yul\":29572:29583   */\n      add\n        /* \"#utility.yul\":29565:29583   */\n      swap1\n      pop\n        /* \"#utility.yul\":29189:29589   */\n      swap2\n      swap1\n      pop\n      jump\t// out\n        /* \"#utility.yul\":29595:29672   */\n    tag_353:\n        /* \"#utility.yul\":29632:29639   */\n      0x00\n        /* \"#utility.yul\":29661:29666   */\n      dup2\n        /* \"#utility.yul\":29650:29666   */\n      swap1\n      pop\n        /* \"#utility.yul\":29595:29672   */\n      swap2\n      swap1\n      pop\n      jump\t// out\n        /* \"#utility.yul\":29678:29757   */\n    tag_354:\n        /* \"#utility.yul\":29717:29724   */\n      0x00\n        /* \"#utility.yul\":29746:29751   */\n      dup2\n        /* \"#utility.yul\":29735:29751   */\n      swap1\n      pop\n        /* \"#utility.yul\":29678:29757   */\n      swap2\n      swap1\n      pop\n      jump\t// out\n        /* \"#utility.yul\":29763:29920   */\n    tag_355:\n        /* \"#utility.yul\":29868:29913   */\n      tag_653\n        /* \"#utility.yul\":29888:29912   */\n      tag_654\n        /* \"#utility.yul\":29906:29911   */\n      dup3\n        /* \"#utility.yul\":29888:29912   */\n      tag_353\n      jump\t// in\n    tag_654:\n        /* \"#utility.yul\":29868:29913   */\n      tag_354\n      jump\t// in\n    tag_653:\n        /* \"#utility.yul\":29863:29866   */\n      dup3\n        /* \"#utility.yul\":29856:29914   */\n      mstore\n        /* \"#utility.yul\":29763:29920   */\n      pop\n      pop\n      jump\t// out\n        /* \"#utility.yul\":29926:30140   */\n    tag_356:\n        /* \"#utility.yul\":30066:30132   */\n      0xb68fbba50ceb1571c8d495ec425ba3b90ece4d1440852fd428fdd1439ca5a1d8\n        /* \"#utility.yul\":30062:30063   */\n      0x00\n        /* \"#utility.yul\":30054:30060   */\n      dup3\n        /* \"#utility.yul\":30050:30064   */\n      add\n        /* \"#utility.yul\":30043:30133   */\n      mstore\n        /* \"#utility.yul\":29926:30140   */\n      pop\n      jump\t// out\n        /* \"#utility.yul\":30146:30548   */\n    tag_357:\n        /* \"#utility.yul\":30306:30309   */\n      0x00\n        /* \"#utility.yul\":30327:30412   */\n      tag_657\n        /* \"#utility.yul\":30409:30411   */\n      0x20\n        /* \"#utility.yul\":30404:30407   */\n      dup4\n        /* \"#utility.yul\":30327:30412   */\n      tag_350\n      jump\t// in\n    tag_657:\n        /* \"#utility.yul\":30320:30412   */\n      swap2\n      pop\n        /* \"#utility.yul\":30421:30514   */\n      tag_658\n        /* \"#utility.yul\":30510:30513   */\n      dup3\n        /* \"#utility.yul\":30421:30514   */\n      tag_356\n      jump\t// in\n    tag_658:\n        /* \"#utility.yul\":30539:30541   */\n      0x20\n        /* \"#utility.yul\":30534:30537   */\n      dup3\n        /* \"#utility.yul\":30530:30542   */\n      add\n        /* \"#utility.yul\":30523:30542   */\n      swap1\n      pop\n        /* \"#utility.yul\":30146:30548   */\n      swap2\n      swap1\n      pop\n      jump\t// out\n        /* \"#utility.yul\":30554:31483   */\n    tag_209:\n        /* \"#utility.yul\":30896:30899   */\n      0x00\n        /* \"#utility.yul\":30918:31066   */\n      tag_660\n        /* \"#utility.yul\":31062:31065   */\n      dup3\n        /* \"#utility.yul\":30918:31066   */\n      tag_352\n      jump\t// in\n    tag_660:\n        /* \"#utility.yul\":30911:31066   */\n      swap2\n      pop\n        /* \"#utility.yul\":31076:31151   */\n      tag_661\n        /* \"#utility.yul\":31147:31150   */\n      dup3\n        /* \"#utility.yul\":31138:31144   */\n      dup6\n        /* \"#utility.yul\":31076:31151   */\n      tag_349\n      jump\t// in\n    tag_661:\n        /* \"#utility.yul\":31176:31178   */\n      0x14\n        /* \"#utility.yul\":31171:31174   */\n      dup3\n        /* \"#utility.yul\":31167:31179   */\n      add\n        /* \"#utility.yul\":31160:31179   */\n      swap2\n      pop\n        /* \"#utility.yul\":31189:31264   */\n      tag_662\n        /* \"#utility.yul\":31260:31263   */\n      dup3\n        /* \"#utility.yul\":31251:31257   */\n      dup5\n        /* \"#utility.yul\":31189:31264   */\n      tag_355\n      jump\t// in\n    tag_662:\n        /* \"#utility.yul\":31289:31291   */\n      0x20\n        /* \"#utility.yul\":31284:31287   */\n      dup3\n        /* \"#utility.yul\":31280:31292   */\n      add\n        /* \"#utility.yul\":31273:31292   */\n      swap2\n      pop\n        /* \"#utility.yul\":31309:31457   */\n      tag_663\n        /* \"#utility.yul\":31453:31456   */\n      dup3\n        /* \"#utility.yul\":31309:31457   */\n      tag_357\n      jump\t// in\n    tag_663:\n        /* \"#utility.yul\":31302:31457   */\n      swap2\n      pop\n        /* \"#utility.yul\":31474:31477   */\n      dup2\n        /* \"#utility.yul\":31467:31477   */\n      swap1\n      pop\n        /* \"#utility.yul\":30554:31483   */\n      swap4\n      swap3\n      pop\n      pop\n      pop\n      jump\t// out\n        /* \"#utility.yul\":31489:31821   */\n    tag_212:\n        /* \"#utility.yul\":31610:31614   */\n      0x00\n        /* \"#utility.yul\":31648:31650   */\n      0x40\n        /* \"#utility.yul\":31637:31646   */\n      dup3\n        /* \"#utility.yul\":31633:31651   */\n      add\n        /* \"#utility.yul\":31625:31651   */\n      swap1\n      pop\n        /* \"#utility.yul\":31661:31732   */\n      tag_665\n        /* \"#utility.yul\":31729:31730   */\n      0x00\n        /* \"#utility.yul\":31718:31727   */\n      dup4\n        /* \"#utility.yul\":31714:31731   */\n      add\n        /* \"#utility.yul\":31705:31711   */\n      dup6\n        /* \"#utility.yul\":31661:31732   */\n      tag_312\n      jump\t// in\n    tag_665:\n        /* \"#utility.yul\":31742:31814   */\n      tag_666\n        /* \"#utility.yul\":31810:31812   */\n      0x20\n        /* \"#utility.yul\":31799:31808   */\n      dup4\n        /* \"#utility.yul\":31795:31813   */\n      add\n        /* \"#utility.yul\":31786:31792   */\n      dup5\n        /* \"#utility.yul\":31742:31814   */\n      tag_291\n      jump\t// in\n    tag_666:\n        /* \"#utility.yul\":31489:31821   */\n      swap4\n      swap3\n      pop\n      pop\n      pop\n      jump\t// out\n        /* \"#utility.yul\":31827:31925   */\n    tag_358:\n        /* \"#utility.yul\":31878:31884   */\n      0x00\n        /* \"#utility.yul\":31912:31917   */\n      dup2\n        /* \"#utility.yul\":31906:31918   */\n      mload\n        /* \"#utility.yul\":31896:31918   */\n      swap1\n      pop\n        /* \"#utility.yul\":31827:31925   */\n      swap2\n      swap1\n      pop\n      jump\t// out\n        /* \"#utility.yul\":31931:32078   */\n    tag_359:\n        /* \"#utility.yul\":32032:32043   */\n      0x00\n        /* \"#utility.yul\":32069:32072   */\n      dup2\n        /* \"#utility.yul\":32054:32072   */\n      swap1\n      pop\n        /* \"#utility.yul\":31931:32078   */\n      swap3\n      swap2\n      pop\n      pop\n      jump\t// out\n        /* \"#utility.yul\":32084:32391   */\n    tag_360:\n        /* \"#utility.yul\":32152:32153   */\n      0x00\n        /* \"#utility.yul\":32162:32275   */\n    tag_670:\n        /* \"#utility.yul\":32176:32182   */\n      dup4\n        /* \"#utility.yul\":32173:32174   */\n      dup2\n        /* \"#utility.yul\":32170:32183   */\n      lt\n        /* \"#utility.yul\":32162:32275   */\n      iszero\n      tag_672\n      jumpi\n        /* \"#utility.yul\":32261:32262   */\n      dup1\n        /* \"#utility.yul\":32256:32259   */\n      dup3\n        /* \"#utility.yul\":32252:32263   */\n      add\n        /* \"#utility.yul\":32246:32264   */\n      mload\n        /* \"#utility.yul\":32242:32243   */\n      dup2\n        /* \"#utility.yul\":32237:32240   */\n      dup5\n        /* \"#utility.yul\":32233:32244   */\n      add\n        /* \"#utility.yul\":32226:32265   */\n      mstore\n        /* \"#utility.yul\":32198:32200   */\n      0x20\n        /* \"#utility.yul\":32195:32196   */\n      dup2\n        /* \"#utility.yul\":32191:32201   */\n      add\n        /* \"#utility.yul\":32186:32201   */\n      swap1\n      pop\n        /* \"#utility.yul\":32162:32275   */\n      jump(tag_670)\n    tag_672:\n        /* \"#utility.yul\":32293:32299   */\n      dup4\n        /* \"#utility.yul\":32290:32291   */\n      dup2\n        /* \"#utility.yul\":32287:32300   */\n      gt\n        /* \"#utility.yul\":32284:32385   */\n      iszero\n      tag_673\n      jumpi\n        /* \"#utility.yul\":32373:32374   */\n      0x00\n        /* \"#utility.yul\":32364:32370   */\n      dup5\n        /* \"#utility.yul\":32359:32362   */\n      dup5\n        /* \"#utility.yul\":32355:32371   */\n      add\n        /* \"#utility.yul\":32348:32375   */\n      mstore\n        /* \"#utility.yul\":32284:32385   */\n    tag_673:\n        /* \"#utility.yul\":32133:32391   */\n      pop\n        /* \"#utility.yul\":32084:32391   */\n      pop\n      pop\n      pop\n      jump\t// out\n        /* \"#utility.yul\":32397:32770   */\n    tag_361:\n        /* \"#utility.yul\":32501:32504   */\n      0x00\n        /* \"#utility.yul\":32529:32567   */\n      tag_675\n        /* \"#utility.yul\":32561:32566   */\n      dup3\n        /* \"#utility.yul\":32529:32567   */\n      tag_358\n      jump\t// in\n    tag_675:\n        /* \"#utility.yul\":32583:32671   */\n      tag_676\n        /* \"#utility.yul\":32664:32670   */\n      dup2\n        /* \"#utility.yul\":32659:32662   */\n      dup6\n        /* \"#utility.yul\":32583:32671   */\n      tag_359\n      jump\t// in\n    tag_676:\n        /* \"#utility.yul\":32576:32671   */\n      swap4\n      pop\n        /* \"#utility.yul\":32680:32732   */\n      tag_677\n        /* \"#utility.yul\":32725:32731   */\n      dup2\n        /* \"#utility.yul\":32720:32723   */\n      dup6\n        /* \"#utility.yul\":32713:32717   */\n      0x20\n        /* \"#utility.yul\":32706:32711   */\n      dup7\n        /* \"#utility.yul\":32702:32718   */\n      add\n        /* \"#utility.yul\":32680:32732   */\n      tag_360\n      jump\t// in\n    tag_677:\n        /* \"#utility.yul\":32757:32763   */\n      dup1\n        /* \"#utility.yul\":32752:32755   */\n      dup5\n        /* \"#utility.yul\":32748:32764   */\n      add\n        /* \"#utility.yul\":32741:32764   */\n      swap2\n      pop\n        /* \"#utility.yul\":32505:32770   */\n      pop\n        /* \"#utility.yul\":32397:32770   */\n      swap3\n      swap2\n      pop\n      pop\n      jump\t// out\n        /* \"#utility.yul\":32776:33047   */\n    tag_214:\n        /* \"#utility.yul\":32906:32909   */\n      0x00\n        /* \"#utility.yul\":32928:33021   */\n      tag_679\n        /* \"#utility.yul\":33017:33020   */\n      dup3\n        /* \"#utility.yul\":33008:33014   */\n      dup5\n        /* \"#utility.yul\":32928:33021   */\n      tag_361\n      jump\t// in\n    tag_679:\n        /* \"#utility.yul\":32921:33021   */\n      swap2\n      pop\n        /* \"#utility.yul\":33038:33041   */\n      dup2\n        /* \"#utility.yul\":33031:33041   */\n      swap1\n      pop\n        /* \"#utility.yul\":32776:33047   */\n      swap3\n      swap2\n      pop\n      pop\n      jump\t// out\n        /* \"#utility.yul\":33053:33221   */\n    tag_362:\n        /* \"#utility.yul\":33193:33213   */\n      0x536166655472616e736665724661696c65640000000000000000000000000000\n        /* \"#utility.yul\":33189:33190   */\n      0x00\n        /* \"#utility.yul\":33181:33187   */\n      dup3\n        /* \"#utility.yul\":33177:33191   */\n      add\n        /* \"#utility.yul\":33170:33214   */\n      mstore\n        /* \"#utility.yul\":33053:33221   */\n      pop\n      jump\t// out\n        /* \"#utility.yul\":33227:33593   */\n    tag_363:\n        /* \"#utility.yul\":33369:33372   */\n      0x00\n        /* \"#utility.yul\":33390:33457   */\n      tag_682\n        /* \"#utility.yul\":33454:33456   */\n      0x12\n        /* \"#utility.yul\":33449:33452   */\n      dup4\n        /* \"#utility.yul\":33390:33457   */\n      tag_332\n      jump\t// in\n    tag_682:\n        /* \"#utility.yul\":33383:33457   */\n      swap2\n      pop\n        /* \"#utility.yul\":33466:33559   */\n      tag_683\n        /* \"#utility.yul\":33555:33558   */\n      dup3\n        /* \"#utility.yul\":33466:33559   */\n      tag_362\n      jump\t// in\n    tag_683:\n        /* \"#utility.yul\":33584:33586   */\n      0x20\n        /* \"#utility.yul\":33579:33582   */\n      dup3\n        /* \"#utility.yul\":33575:33587   */\n      add\n        /* \"#utility.yul\":33568:33587   */\n      swap1\n      pop\n        /* \"#utility.yul\":33227:33593   */\n      swap2\n      swap1\n      pop\n      jump\t// out\n        /* \"#utility.yul\":33599:34238   */\n    tag_223:\n        /* \"#utility.yul\":33821:33825   */\n      0x00\n        /* \"#utility.yul\":33859:33861   */\n      0x60\n        /* \"#utility.yul\":33848:33857   */\n      dup3\n        /* \"#utility.yul\":33844:33862   */\n      add\n        /* \"#utility.yul\":33836:33862   */\n      swap1\n      pop\n        /* \"#utility.yul\":33908:33917   */\n      dup2\n        /* \"#utility.yul\":33902:33906   */\n      dup2\n        /* \"#utility.yul\":33898:33918   */\n      sub\n        /* \"#utility.yul\":33894:33895   */\n      0x00\n        /* \"#utility.yul\":33883:33892   */\n      dup4\n        /* \"#utility.yul\":33879:33896   */\n      add\n        /* \"#utility.yul\":33872:33919   */\n      mstore\n        /* \"#utility.yul\":33936:34067   */\n      tag_685\n        /* \"#utility.yul\":34062:34066   */\n      dup2\n        /* \"#utility.yul\":33936:34067   */\n      tag_363\n      jump\t// in\n    tag_685:\n        /* \"#utility.yul\":33928:34067   */\n      swap1\n      pop\n        /* \"#utility.yul\":34077:34149   */\n      tag_686\n        /* \"#utility.yul\":34145:34147   */\n      0x20\n        /* \"#utility.yul\":34134:34143   */\n      dup4\n        /* \"#utility.yul\":34130:34148   */\n      add\n        /* \"#utility.yul\":34121:34127   */\n      dup6\n        /* \"#utility.yul\":34077:34149   */\n      tag_312\n      jump\t// in\n    tag_686:\n        /* \"#utility.yul\":34159:34231   */\n      tag_687\n        /* \"#utility.yul\":34227:34229   */\n      0x40\n        /* \"#utility.yul\":34216:34225   */\n      dup4\n        /* \"#utility.yul\":34212:34230   */\n      add\n        /* \"#utility.yul\":34203:34209   */\n      dup5\n        /* \"#utility.yul\":34159:34231   */\n      tag_312\n      jump\t// in\n    tag_687:\n        /* \"#utility.yul\":33599:34238   */\n      swap4\n      swap3\n      pop\n      pop\n      pop\n      jump\t// out\n        /* \"#utility.yul\":34244:34549   */\n    tag_232:\n        /* \"#utility.yul\":34284:34287   */\n      0x00\n        /* \"#utility.yul\":34303:34323   */\n      tag_689\n        /* \"#utility.yul\":34321:34322   */\n      dup3\n        /* \"#utility.yul\":34303:34323   */\n      tag_288\n      jump\t// in\n    tag_689:\n        /* \"#utility.yul\":34298:34323   */\n      swap2\n      pop\n        /* \"#utility.yul\":34337:34357   */\n      tag_690\n        /* \"#utility.yul\":34355:34356   */\n      dup4\n        /* \"#utility.yul\":34337:34357   */\n      tag_288\n      jump\t// in\n    tag_690:\n        /* \"#utility.yul\":34332:34357   */\n      swap3\n      pop\n        /* \"#utility.yul\":34491:34492   */\n      dup3\n        /* \"#utility.yul\":34423:34489   */\n      0xffffffffffffffffffffffffffffffffffffffffffffffffffffffffffffffff\n        /* \"#utility.yul\":34419:34493   */\n      sub\n        /* \"#utility.yul\":34416:34417   */\n      dup3\n        /* \"#utility.yul\":34413:34494   */\n      gt\n        /* \"#utility.yul\":34410:34517   */\n      iszero\n      tag_691\n      jumpi\n        /* \"#utility.yul\":34497:34515   */\n      tag_692\n      tag_335\n      jump\t// in\n    tag_692:\n        /* \"#utility.yul\":34410:34517   */\n    tag_691:\n        /* \"#utility.yul\":34541:34542   */\n      dup3\n        /* \"#utility.yul\":34538:34539   */\n      dup3\n        /* \"#utility.yul\":34534:34543   */\n      add\n        /* \"#utility.yul\":34527:34543   */\n      swap1\n      pop\n        /* \"#utility.yul\":34244:34549   */\n      swap3\n      swap2\n      pop\n      pop\n      jump\t// out\n        /* \"#utility.yul\":34555:34997   */\n    tag_250:\n        /* \"#utility.yul\":34704:34708   */\n      0x00\n        /* \"#utility.yul\":34742:34744   */\n      0x60\n        /* \"#utility.yul\":34731:34740   */\n      dup3\n        /* \"#utility.yul\":34727:34745   */\n      add\n        /* \"#utility.yul\":34719:34745   */\n      swap1\n      pop\n        /* \"#utility.yul\":34755:34826   */\n      tag_694\n        /* \"#utility.yul\":34823:34824   */\n      0x00\n        /* \"#utility.yul\":34812:34821   */\n      dup4\n        /* \"#utility.yul\":34808:34825   */\n      add\n        /* \"#utility.yul\":34799:34805   */\n      dup7\n        /* \"#utility.yul\":34755:34826   */\n      tag_291\n      jump\t// in\n    tag_694:\n        /* \"#utility.yul\":34836:34908   */\n      tag_695\n        /* \"#utility.yul\":34904:34906   */\n      0x20\n        /* \"#utility.yul\":34893:34902   */\n      dup4\n        /* \"#utility.yul\":34889:34907   */\n      add\n        /* \"#utility.yul\":34880:34886   */\n      dup6\n        /* \"#utility.yul\":34836:34908   */\n      tag_291\n      jump\t// in\n    tag_695:\n        /* \"#utility.yul\":34918:34990   */\n      tag_696\n        /* \"#utility.yul\":34986:34988   */\n      0x40\n        /* \"#utility.yul\":34975:34984   */\n      dup4\n        /* \"#utility.yul\":34971:34989   */\n      add\n        /* \"#utility.yul\":34962:34968   */\n      dup5\n        /* \"#utility.yul\":34918:34990   */\n      tag_312\n      jump\t// in\n    tag_696:\n        /* \"#utility.yul\":34555:34997   */\n      swap5\n      swap4\n      pop\n      pop\n      pop\n      pop\n      jump\t// out\n        /* \"#utility.yul\":35003:35236   */\n    tag_255:\n        /* \"#utility.yul\":35042:35045   */\n      0x00\n        /* \"#utility.yul\":35065:35089   */\n      tag_698\n        /* \"#utility.yul\":35083:35088   */\n      dup3\n        /* \"#utility.yul\":35065:35089   */\n      tag_288\n      jump\t// in\n    tag_698:\n        /* \"#utility.yul\":35056:35089   */\n      swap2\n      pop\n        /* \"#utility.yul\":35111:35177   */\n      0xffffffffffffffffffffffffffffffffffffffffffffffffffffffffffffffff\n        /* \"#utility.yul\":35104:35109   */\n      dup3\n        /* \"#utility.yul\":35101:35178   */\n      sub\n        /* \"#utility.yul\":35098:35201   */\n      tag_699\n      jumpi\n        /* \"#utility.yul\":35181:35199   */\n      tag_700\n      tag_335\n      jump\t// in\n    tag_700:\n        /* \"#utility.yul\":35098:35201   */\n    tag_699:\n        /* \"#utility.yul\":35228:35229   */\n      0x01\n        /* \"#utility.yul\":35221:35226   */\n      dup3\n        /* \"#utility.yul\":35217:35230   */\n      add\n        /* \"#utility.yul\":35210:35230   */\n      swap1\n      pop\n        /* \"#utility.yul\":35003:35236   */\n      swap2\n      swap1\n      pop\n      jump\t// out\n        /* \"#utility.yul\":35242:35716   */\n    tag_258:\n        /* \"#utility.yul\":35399:35403   */\n      0x00\n        /* \"#utility.yul\":35437:35439   */\n      0x60\n        /* \"#utility.yul\":35426:35435   */\n      dup3\n        /* \"#utility.yul\":35422:35440   */\n      add\n        /* \"#utility.yul\":35414:35440   */\n      swap1\n      pop\n        /* \"#utility.yul\":35450:35529   */\n      tag_702\n        /* \"#utility.yul\":35526:35527   */\n      0x00\n        /* \"#utility.yul\":35515:35524   */\n      dup4\n        /* \"#utility.yul\":35511:35528   */\n      add\n        /* \"#utility.yul\":35502:35508   */\n      dup7\n        /* \"#utility.yul\":35450:35529   */\n      tag_317\n      jump\t// in\n    tag_702:\n        /* \"#utility.yul\":35539:35619   */\n      tag_703\n        /* \"#utility.yul\":35615:35617   */\n      0x20\n        /* \"#utility.yul\":35604:35613   */\n      dup4\n        /* \"#utility.yul\":35600:35618   */\n      add\n        /* \"#utility.yul\":35591:35597   */\n      dup6\n        /* \"#utility.yul\":35539:35619   */\n      tag_317\n      jump\t// in\n    tag_703:\n        /* \"#utility.yul\":35629:35709   */\n      tag_704\n        /* \"#utility.yul\":35705:35707   */\n      0x40\n        /* \"#utility.yul\":35694:35703   */\n      dup4\n        /* \"#utility.yul\":35690:35708   */\n      add\n        /* \"#utility.yul\":35681:35687   */\n      dup5\n        /* \"#utility.yul\":35629:35709   */\n      tag_317\n      jump\t// in\n    tag_704:\n        /* \"#utility.yul\":35242:35716   */\n      swap5\n      swap4\n      pop\n      pop\n      pop\n      pop\n      jump\t// out\n        /* \"#utility.yul\":35722:35902   */\n    tag_279:\n        /* \"#utility.yul\":35770:35847   */\n      0x4e487b7100000000000000000000000000000000000000000000000000000000\n        /* \"#utility.yul\":35767:35768   */\n      0x00\n        /* \"#utility.yul\":35760:35848   */\n      mstore\n        /* \"#utility.yul\":35867:35871   */\n      0x01\n        /* \"#utility.yul\":35864:35865   */\n      0x04\n        /* \"#utility.yul\":35857:35872   */\n      mstore\n        /* \"#utility.yul\":35891:35895   */\n      0x24\n        /* \"#utility.yul\":35888:35889   */\n      0x00\n        /* \"#utility.yul\":35881:35896   */\n      revert\n\n    auxdata: 0xa264697066735822122020b96d736112d7a838b9ec78bc198a7f87eeca229ce111b8b015401ce60ddc3a64736f6c634300080f0033\n}\n",
				"bytecode": {
					"linkReferences": {
						"contracts/KajuswapLibrary.sol": {
							"KajuswapLibrary": [
								{
									"length": 20,
									"start": 1071
								},
								{
									"length": 20,
									"start": 1206
								},
								{
									"length": 20,
									"start": 1536
								},
								{
									"length": 20,
									"start": 2082
								},
								{
									"length": 20,
									"start": 2678
								},
								{
									"length": 20,
									"start": 2813
								},
								{
									"length": 20,
									"start": 4201
								},
								{
									"length": 20,
									"start": 5452
								},
								{
									"length": 20,
									"start": 5649
								},
								{
									"length": 20,
									"start": 5866
								}
							]
						}
					},
					"object": "60806040523480156200001157600080fd5b5060405162002aad38038062002aad8339818101604052810190620000379190620000e8565b806000806101000a81548173ffffffffffffffffffffffffffffffffffffffff021916908373ffffffffffffffffffffffffffffffffffffffff160217905550506200011a565b600080fd5b600073ffffffffffffffffffffffffffffffffffffffff82169050919050565b6000620000b08262000083565b9050919050565b620000c281620000a3565b8114620000ce57600080fd5b50565b600081519050620000e281620000b7565b92915050565b6000602082840312156200010157620001006200007e565b5b60006200011184828501620000d1565b91505092915050565b612983806200012a6000396000f3fe608060405234801561001057600080fd5b50600436106100cf5760003560e01c80638434d01a1161008c578063c0e3ee6b11610066578063c0e3ee6b14610250578063ca3d653914610281578063d06ca61f146102b3578063f446c1d0146102e3576100cf565b80638434d01a146101d257806385f8c259146101f0578063ad615dec14610220576100cf565b8063054d50d4146100d45780631f00ca741461010457806326c2b1fb1461013457806332e7c5bf1461015457806342712a6714610172578063472b43f3146101a2575b600080fd5b6100ee60048036038101906100e99190611740565b610301565b6040516100fb91906117a2565b60405180910390f35b61011e60048036038101906101199190611974565b610388565b60405161012b9190611a8e565b60405180910390f35b61013c610433565b60405161014b93929190611abf565b60405180910390f35b61015c6104ac565b6040516101699190611af6565b60405180910390f35b61018c60048036038101906101879190611b6c565b6104d2565b6040516101999190611a8e565b60405180910390f35b6101bc60048036038101906101b79190611b6c565b6106f4565b6040516101c99190611a8e565b60405180910390f35b6101da610922565b6040516101e79190611af6565b60405180910390f35b61020a60048036038101906102059190611740565b610948565b60405161021791906117a2565b60405180910390f35b61023a60048036038101906102359190611740565b6109cf565b60405161024791906117a2565b60405180910390f35b61026a60048036038101906102659190611bf4565b610a56565b604051610278929190611c81565b60405180910390f35b61029b60048036038101906102969190611caa565b610c1e565b6040516102aa93929190611d4c565b60405180910390f35b6102cd60048036038101906102c89190611974565b610f3b565b6040516102da9190611a8e565b60405180910390f35b6102eb610fe6565b6040516102f89190611af6565b60405180910390f35b600073__$18693c2782ae7b010cc3bd0449f436a789$__63054d50d48585856040518463ffffffff1660e01b815260040161033e93929190611d92565b602060405180830381865af415801561035b573d6000803e3d6000fd5b505050506040513d601f19601f8201168201806040525081019061037f9190611dde565b90509392505050565b606073__$18693c2782ae7b010cc3bd0449f436a789$__63192128b260008054906101000a900473ffffffffffffffffffffffffffffffffffffffff1685856040518463ffffffff1660e01b81526004016103e593929190611ed8565b600060405180830381865af4158015610402573d6000803e3d6000fd5b505050506040513d6000823e3d601f19601f8201168201806040525081019061042b9190611fd9565b905092915050565b6000806000600160009054906101000a900473ffffffffffffffffffffffffffffffffffffffff16600260009054906101000a900473ffffffffffffffffffffffffffffffffffffffff16600360009054906101000a900473ffffffffffffffffffffffffffffffffffffffff16925092509250909192565b600360009054906101000a900473ffffffffffffffffffffffffffffffffffffffff1681565b606073__$18693c2782ae7b010cc3bd0449f436a789$__63192128b260008054906101000a900473ffffffffffffffffffffffffffffffffffffffff168887876040518563ffffffff1660e01b815260040161053194939291906120ad565b600060405180830381865af415801561054e573d6000803e3d6000fd5b505050506040513d6000823e3d601f19601f820116820180604052508101906105779190611fd9565b9050848160008151811061058e5761058d6120ed565b5b602002602001015111156105d7576040517f08c379a00000000000000000000000000000000000000000000000000000000081526004016105ce9061219f565b60405180910390fd5b61069f848460008181106105ee576105ed6120ed565b5b905060200201602081019061060391906121bf565b61067e60008054906101000a900473ffffffffffffffffffffffffffffffffffffffff168787600081811061063b5761063a6120ed565b5b905060200201602081019061065091906121bf565b88886001818110610664576106636120ed565b5b905060200201602081019061067991906121bf565b61100c565b83600081518110610692576106916120ed565b5b602002602001015161107e565b6106eb81858580806020026020016040519081016040528093929190818152602001838360200280828437600081840152601f19601f8201169050808301925050505050505084611210565b95945050505050565b606073__$18693c2782ae7b010cc3bd0449f436a789$__63bb7b9c7660008054906101000a900473ffffffffffffffffffffffffffffffffffffffff168887876040518563ffffffff1660e01b815260040161075394939291906120ad565b600060405180830381865af4158015610770573d6000803e3d6000fd5b505050506040513d6000823e3d601f19601f820116820180604052508101906107999190611fd9565b90508481600183516107ab919061221b565b815181106107bc576107bb6120ed565b5b60200260200101511015610805576040517f08c379a00000000000000000000000000000000000000000000000000000000081526004016107fc906122c1565b60405180910390fd5b6108cd8484600081811061081c5761081b6120ed565b5b905060200201602081019061083191906121bf565b6108ac60008054906101000a900473ffffffffffffffffffffffffffffffffffffffff1687876000818110610869576108686120ed565b5b905060200201602081019061087e91906121bf565b88886001818110610892576108916120ed565b5b90506020020160208101906108a791906121bf565b61100c565b836000815181106108c0576108bf6120ed565b5b602002602001015161107e565b61091981858580806020026020016040519081016040528093929190818152602001838360200280828437600081840152601f19601f8201169050808301925050505050505084611210565b95945050505050565b600160009054906101000a900473ffffffffffffffffffffffffffffffffffffffff1681565b600073__$18693c2782ae7b010cc3bd0449f436a789$__6385f8c2598585856040518463ffffffff1660e01b815260040161098593929190611d92565b602060405180830381865af41580156109a2573d6000803e3d6000fd5b505050506040513d601f19601f820116820180604052508101906109c69190611dde565b90509392505050565b600073__$18693c2782ae7b010cc3bd0449f436a789$__63ad615dec8585856040518463ffffffff1660e01b8152600401610a0c93929190611d92565b602060405180830381865af4158015610a29573d6000803e3d6000fd5b505050506040513d601f19601f82011682018060405250810190610a4d9190611dde565b90509392505050565b6000806000610a8660008054906101000a900473ffffffffffffffffffffffffffffffffffffffff168a8a61100c565b90508073ffffffffffffffffffffffffffffffffffffffff166323b872dd33838a6040518463ffffffff1660e01b8152600401610ac5939291906122e1565b6020604051808303816000875af1158015610ae4573d6000803e3d6000fd5b505050506040513d601f19601f82011682018060405250810190610b089190612350565b508073ffffffffffffffffffffffffffffffffffffffff166389afcb44856040518263ffffffff1660e01b8152600401610b429190611af6565b60408051808303816000875af1158015610b60573d6000803e3d6000fd5b505050506040513d601f19601f82011682018060405250810190610b84919061237d565b809350819450505085831015610bcf576040517f08c379a0000000000000000000000000000000000000000000000000000000008152600401610bc69061242f565b60405180910390fd5b84821015610c12576040517f08c379a0000000000000000000000000000000000000000000000000000000008152600401610c09906124c1565b60405180910390fd5b50965096945050505050565b60008060008073ffffffffffffffffffffffffffffffffffffffff1660008054906101000a900473ffffffffffffffffffffffffffffffffffffffff1673ffffffffffffffffffffffffffffffffffffffff166369454b868c8c6040518363ffffffff1660e01b8152600401610c959291906124e1565b602060405180830381865afa158015610cb2573d6000803e3d6000fd5b505050506040513d601f19601f82011682018060405250810190610cd6919061251f565b73ffffffffffffffffffffffffffffffffffffffff1603610d915760008054906101000a900473ffffffffffffffffffffffffffffffffffffffff1673ffffffffffffffffffffffffffffffffffffffff1663c9c653968b8b6040518363ffffffff1660e01b8152600401610d4c9291906124e1565b6020604051808303816000875af1158015610d6b573d6000803e3d6000fd5b505050506040513d601f19601f82011682018060405250810190610d8f919061251f565b505b610d9f8a8a8a8a8a8a61141a565b80935081945050506000610dd460008054906101000a900473ffffffffffffffffffffffffffffffffffffffff168c8c61100c565b905080600160006101000a81548173ffffffffffffffffffffffffffffffffffffffff021916908373ffffffffffffffffffffffffffffffffffffffff1602179055508a600260006101000a81548173ffffffffffffffffffffffffffffffffffffffff021916908373ffffffffffffffffffffffffffffffffffffffff16021790555089600360006101000a81548173ffffffffffffffffffffffffffffffffffffffff021916908373ffffffffffffffffffffffffffffffffffffffff160217905550610ea48b828661107e565b610eaf8a828561107e565b8073ffffffffffffffffffffffffffffffffffffffff16636a627842866040518263ffffffff1660e01b8152600401610ee89190611af6565b6020604051808303816000875af1158015610f07573d6000803e3d6000fd5b505050506040513d601f19601f82011682018060405250810190610f2b9190611dde565b9150509750975097945050505050565b606073__$18693c2782ae7b010cc3bd0449f436a789$__63bb7b9c7660008054906101000a900473ffffffffffffffffffffffffffffffffffffffff1685856040518463ffffffff1660e01b8152600401610f9893929190611ed8565b600060405180830381865af4158015610fb5573d6000803e3d6000fd5b505050506040513d6000823e3d601f19601f82011682018060405250810190610fde9190611fd9565b905092915050565b600260009054906101000a900473ffffffffffffffffffffffffffffffffffffffff1681565b600080600061101b85856116ab565b91509150858282604051602001611033929190612594565b6040516020818303038152906040528051906020012060405160200161105a92919061268e565b6040516020818303038152906040528051906020012060001c925050509392505050565b6000808473ffffffffffffffffffffffffffffffffffffffff166040518060400160405280601981526020017f7472616e7366657228616464726573732c75696e7432353629000000000000008152508051906020012085856040516024016110e89291906126d0565b604051602081830303815290604052907bffffffffffffffffffffffffffffffffffffffffffffffffffffffff19166020820180517bffffffffffffffffffffffffffffffffffffffffffffffffffffffff83818316178352505050506040516111529190612773565b6000604051808303816000865af19150503d806000811461118f576040519150601f19603f3d011682016040523d82523d6000602084013e611194565b606091505b50915091508115806111c5575060008151141580156111c45750808060200190518101906111c29190612350565b155b5b156112095783856040517fc218e9bc0000000000000000000000000000000000000000000000000000000081526004016112009291906127d6565b60405180910390fd5b5050505050565b60005b60018351611221919061221b565b8110156114145760008084838151811061123e5761123d6120ed565b5b6020026020010151856001856112549190612812565b81518110611265576112646120ed565b5b602002602001015191509150600061127d83836116ab565b5090506000876001866112909190612812565b815181106112a1576112a06120ed565b5b602002602001015190506000808373ffffffffffffffffffffffffffffffffffffffff168673ffffffffffffffffffffffffffffffffffffffff16146112e9578260006112ed565b6000835b91509150600060028a51611301919061221b565b881061130d578861135f565b61135e60008054906101000a900473ffffffffffffffffffffffffffffffffffffffff16878c60028c6113409190612812565b81518110611351576113506120ed565b5b602002602001015161100c565b5b905061138c60008054906101000a900473ffffffffffffffffffffffffffffffffffffffff16888861100c565b73ffffffffffffffffffffffffffffffffffffffff16636d9a640a8484846040518463ffffffff1660e01b81526004016113c893929190612868565b600060405180830381600087803b1580156113e257600080fd5b505af11580156113f6573d6000803e3d6000fd5b5050505050505050505050808061140c9061289f565b915050611213565b50505050565b60008060008073__$18693c2782ae7b010cc3bd0449f436a789$__633274946160008054906101000a900473ffffffffffffffffffffffffffffffffffffffff168c8c6040518463ffffffff1660e01b815260040161147b939291906128e7565b6040805180830381865af4158015611497573d6000803e3d6000fd5b505050506040513d601f19601f820116820180604052508101906114bb919061237d565b915091506000821480156114cf5750600081145b156114e3578787809450819550505061169e565b600073__$18693c2782ae7b010cc3bd0449f436a789$__63ad615dec8a85856040518463ffffffff1660e01b815260040161152093929190611d92565b602060405180830381865af415801561153d573d6000803e3d6000fd5b505050506040513d601f19601f820116820180604052508101906115619190611dde565b90508781116115bc57858110156115ad576040517f08c379a00000000000000000000000000000000000000000000000000000000081526004016115a4906124c1565b60405180910390fd5b8881809550819650505061169c565b600073__$18693c2782ae7b010cc3bd0449f436a789$__63ad615dec8a85876040518463ffffffff1660e01b81526004016115f993929190611d92565b602060405180830381865af4158015611616573d6000803e3d6000fd5b505050506040513d601f19601f8201168201806040525081019061163a9190611dde565b90508981111561164d5761164c61291e565b5b87811015611690576040517f08c379a00000000000000000000000000000000000000000000000000000000081526004016116879061242f565b60405180910390fd5b80898096508197505050505b505b5050965096945050505050565b6000808273ffffffffffffffffffffffffffffffffffffffff168473ffffffffffffffffffffffffffffffffffffffff16106116e85782846116eb565b83835b915091509250929050565b6000604051905090565b600080fd5b600080fd5b6000819050919050565b61171d8161170a565b811461172857600080fd5b50565b60008135905061173a81611714565b92915050565b60008060006060848603121561175957611758611700565b5b60006117678682870161172b565b93505060206117788682870161172b565b92505060406117898682870161172b565b9150509250925092565b61179c8161170a565b82525050565b60006020820190506117b76000830184611793565b92915050565b600080fd5b6000601f19601f8301169050919050565b7f4e487b7100000000000000000000000000000000000000000000000000000000600052604160045260246000fd5b61180b826117c2565b810181811067ffffffffffffffff8211171561182a576118296117d3565b5b80604052505050565b600061183d6116f6565b90506118498282611802565b919050565b600067ffffffffffffffff821115611869576118686117d3565b5b602082029050602081019050919050565b600080fd5b600073ffffffffffffffffffffffffffffffffffffffff82169050919050565b60006118aa8261187f565b9050919050565b6118ba8161189f565b81146118c557600080fd5b50565b6000813590506118d7816118b1565b92915050565b60006118f06118eb8461184e565b611833565b905080838252602082019050602084028301858111156119135761191261187a565b5b835b8181101561193c578061192888826118c8565b845260208401935050602081019050611915565b5050509392505050565b600082601f83011261195b5761195a6117bd565b5b813561196b8482602086016118dd565b91505092915050565b6000806040838503121561198b5761198a611700565b5b60006119998582860161172b565b925050602083013567ffffffffffffffff8111156119ba576119b9611705565b5b6119c685828601611946565b9150509250929050565b600081519050919050565b600082825260208201905092915050565b6000819050602082019050919050565b611a058161170a565b82525050565b6000611a1783836119fc565b60208301905092915050565b6000602082019050919050565b6000611a3b826119d0565b611a4581856119db565b9350611a50836119ec565b8060005b83811015611a81578151611a688882611a0b565b9750611a7383611a23565b925050600181019050611a54565b5085935050505092915050565b60006020820190508181036000830152611aa88184611a30565b905092915050565b611ab98161189f565b82525050565b6000606082019050611ad46000830186611ab0565b611ae16020830185611ab0565b611aee6040830184611ab0565b949350505050565b6000602082019050611b0b6000830184611ab0565b92915050565b600080fd5b60008083601f840112611b2c57611b2b6117bd565b5b8235905067ffffffffffffffff811115611b4957611b48611b11565b5b602083019150836020820283011115611b6557611b6461187a565b5b9250929050565b600080600080600060808688031215611b8857611b87611700565b5b6000611b968882890161172b565b9550506020611ba78882890161172b565b945050604086013567ffffffffffffffff811115611bc857611bc7611705565b5b611bd488828901611b16565b93509350506060611be7888289016118c8565b9150509295509295909350565b60008060008060008060c08789031215611c1157611c10611700565b5b6000611c1f89828a016118c8565b9650506020611c3089828a016118c8565b9550506040611c4189828a0161172b565b9450506060611c5289828a0161172b565b9350506080611c6389828a0161172b565b92505060a0611c7489828a016118c8565b9150509295509295509295565b6000604082019050611c966000830185611793565b611ca36020830184611793565b9392505050565b600080600080600080600060e0888a031215611cc957611cc8611700565b5b6000611cd78a828b016118c8565b9750506020611ce88a828b016118c8565b9650506040611cf98a828b0161172b565b9550506060611d0a8a828b0161172b565b9450506080611d1b8a828b0161172b565b93505060a0611d2c8a828b0161172b565b92505060c0611d3d8a828b016118c8565b91505092959891949750929550565b6000606082019050611d616000830186611793565b611d6e6020830185611793565b611d7b6040830184611793565b949350505050565b611d8c8161170a565b82525050565b6000606082019050611da76000830186611d83565b611db46020830185611d83565b611dc16040830184611d83565b949350505050565b600081519050611dd881611714565b92915050565b600060208284031215611df457611df3611700565b5b6000611e0284828501611dc9565b91505092915050565b611e148161189f565b82525050565b600081519050919050565b600082825260208201905092915050565b6000819050602082019050919050565b611e4f8161189f565b82525050565b6000611e618383611e46565b60208301905092915050565b6000602082019050919050565b6000611e8582611e1a565b611e8f8185611e25565b9350611e9a83611e36565b8060005b83811015611ecb578151611eb28882611e55565b9750611ebd83611e6d565b925050600181019050611e9e565b5085935050505092915050565b6000606082019050611eed6000830186611e0b565b611efa6020830185611d83565b8181036040830152611f0c8184611e7a565b9050949350505050565b600067ffffffffffffffff821115611f3157611f306117d3565b5b602082029050602081019050919050565b6000611f55611f5084611f16565b611833565b90508083825260208201905060208402830185811115611f7857611f7761187a565b5b835b81811015611fa15780611f8d8882611dc9565b845260208401935050602081019050611f7a565b5050509392505050565b600082601f830112611fc057611fbf6117bd565b5b8151611fd0848260208601611f42565b91505092915050565b600060208284031215611fef57611fee611700565b5b600082015167ffffffffffffffff81111561200d5761200c611705565b5b61201984828501611fab565b91505092915050565b6000819050919050565b600061203b60208401846118c8565b905092915050565b6000602082019050919050565b600061205c8385611e25565b935061206782612022565b8060005b858110156120a05761207d828461202c565b6120878882611e55565b975061209283612043565b92505060018101905061206b565b5085925050509392505050565b60006060820190506120c26000830187611e0b565b6120cf6020830186611d83565b81810360408301526120e2818486612050565b905095945050505050565b7f4e487b7100000000000000000000000000000000000000000000000000000000600052603260045260246000fd5b600082825260208201905092915050565b7f4b616a7573776170526f757465723a204558434553534956455f494e5055545f60008201527f414d4f554e540000000000000000000000000000000000000000000000000000602082015250565b600061218960268361211c565b91506121948261212d565b604082019050919050565b600060208201905081810360008301526121b88161217c565b9050919050565b6000602082840312156121d5576121d4611700565b5b60006121e3848285016118c8565b91505092915050565b7f4e487b7100000000000000000000000000000000000000000000000000000000600052601160045260246000fd5b60006122268261170a565b91506122318361170a565b925082821015612244576122436121ec565b5b828203905092915050565b7f4b616a7573776170526f757465723a20494e53554646494349454e545f4f555460008201527f5055545f414d4f554e5400000000000000000000000000000000000000000000602082015250565b60006122ab602a8361211c565b91506122b68261224f565b604082019050919050565b600060208201905081810360008301526122da8161229e565b9050919050565b60006060820190506122f66000830186611ab0565b6123036020830185611ab0565b6123106040830184611793565b949350505050565b60008115159050919050565b61232d81612318565b811461233857600080fd5b50565b60008151905061234a81612324565b92915050565b60006020828403121561236657612365611700565b5b60006123748482850161233b565b91505092915050565b6000806040838503121561239457612393611700565b5b60006123a285828601611dc9565b92505060206123b385828601611dc9565b9150509250929050565b7f4b616a7573776170526f757465723a20494e53554646494349454e545f415f4160008201527f4d4f554e54000000000000000000000000000000000000000000000000000000602082015250565b600061241960258361211c565b9150612424826123bd565b604082019050919050565b600060208201905081810360008301526124488161240c565b9050919050565b7f4b616a7573776170526f757465723a20494e53554646494349454e545f425f4160008201527f4d4f554e54000000000000000000000000000000000000000000000000000000602082015250565b60006124ab60258361211c565b91506124b68261244f565b604082019050919050565b600060208201905081810360008301526124da8161249e565b9050919050565b60006040820190506124f66000830185611ab0565b6125036020830184611ab0565b9392505050565b600081519050612519816118b1565b92915050565b60006020828403121561253557612534611700565b5b60006125438482850161250a565b91505092915050565b60008160601b9050919050565b60006125648261254c565b9050919050565b600061257682612559565b9050919050565b61258e6125898261189f565b61256b565b82525050565b60006125a0828561257d565b6014820191506125b0828461257d565b6014820191508190509392505050565b600081905092915050565b7fff00000000000000000000000000000000000000000000000000000000000000600082015250565b60006126016001836125c0565b915061260c826125cb565b600182019050919050565b6000819050919050565b6000819050919050565b61263c61263782612617565b612621565b82525050565b7fb68fbba50ceb1571c8d495ec425ba3b90ece4d1440852fd428fdd1439ca5a1d8600082015250565b60006126786020836125c0565b915061268382612642565b602082019050919050565b6000612699826125f4565b91506126a5828561257d565b6014820191506126b5828461262b565b6020820191506126c48261266b565b91508190509392505050565b60006040820190506126e56000830185611ab0565b6126f26020830184611793565b9392505050565b600081519050919050565b600081905092915050565b60005b8381101561272d578082015181840152602081019050612712565b8381111561273c576000848401525b50505050565b600061274d826126f9565b6127578185612704565b935061276781856020860161270f565b80840191505092915050565b600061277f8284612742565b915081905092915050565b7f536166655472616e736665724661696c65640000000000000000000000000000600082015250565b60006127c060128361211c565b91506127cb8261278a565b602082019050919050565b600060608201905081810360008301526127ef816127b3565b90506127fe6020830185611ab0565b61280b6040830184611ab0565b9392505050565b600061281d8261170a565b91506128288361170a565b9250827fffffffffffffffffffffffffffffffffffffffffffffffffffffffffffffffff0382111561285d5761285c6121ec565b5b828201905092915050565b600060608201905061287d6000830186611793565b61288a6020830185611793565b6128976040830184611ab0565b949350505050565b60006128aa8261170a565b91507fffffffffffffffffffffffffffffffffffffffffffffffffffffffffffffffff82036128dc576128db6121ec565b5b600182019050919050565b60006060820190506128fc6000830186611e0b565b6129096020830185611e0b565b6129166040830184611e0b565b949350505050565b7f4e487b7100000000000000000000000000000000000000000000000000000000600052600160045260246000fdfea264697066735822122020b96d736112d7a838b9ec78bc198a7f87eeca229ce111b8b015401ce60ddc3a64736f6c634300080f0033",
					"opcodes": "PUSH1 0x80 PUSH1 0x40 MSTORE CALLVALUE DUP1 ISZERO PUSH3 0x11 JUMPI PUSH1 0x0 DUP1 REVERT JUMPDEST POP PUSH1 0x40 MLOAD PUSH3 0x2AAD CODESIZE SUB DUP1 PUSH3 0x2AAD DUP4 CODECOPY DUP2 DUP2 ADD PUSH1 0x40 MSTORE DUP2 ADD SWAP1 PUSH3 0x37 SWAP2 SWAP1 PUSH3 0xE8 JUMP JUMPDEST DUP1 PUSH1 0x0 DUP1 PUSH2 0x100 EXP DUP2 SLOAD DUP2 PUSH20 0xFFFFFFFFFFFFFFFFFFFFFFFFFFFFFFFFFFFFFFFF MUL NOT AND SWAP1 DUP4 PUSH20 0xFFFFFFFFFFFFFFFFFFFFFFFFFFFFFFFFFFFFFFFF AND MUL OR SWAP1 SSTORE POP POP PUSH3 0x11A JUMP JUMPDEST PUSH1 0x0 DUP1 REVERT JUMPDEST PUSH1 0x0 PUSH20 0xFFFFFFFFFFFFFFFFFFFFFFFFFFFFFFFFFFFFFFFF DUP3 AND SWAP1 POP SWAP2 SWAP1 POP JUMP JUMPDEST PUSH1 0x0 PUSH3 0xB0 DUP3 PUSH3 0x83 JUMP JUMPDEST SWAP1 POP SWAP2 SWAP1 POP JUMP JUMPDEST PUSH3 0xC2 DUP2 PUSH3 0xA3 JUMP JUMPDEST DUP2 EQ PUSH3 0xCE JUMPI PUSH1 0x0 DUP1 REVERT JUMPDEST POP JUMP JUMPDEST PUSH1 0x0 DUP2 MLOAD SWAP1 POP PUSH3 0xE2 DUP2 PUSH3 0xB7 JUMP JUMPDEST SWAP3 SWAP2 POP POP JUMP JUMPDEST PUSH1 0x0 PUSH1 0x20 DUP3 DUP5 SUB SLT ISZERO PUSH3 0x101 JUMPI PUSH3 0x100 PUSH3 0x7E JUMP JUMPDEST JUMPDEST PUSH1 0x0 PUSH3 0x111 DUP5 DUP3 DUP6 ADD PUSH3 0xD1 JUMP JUMPDEST SWAP2 POP POP SWAP3 SWAP2 POP POP JUMP JUMPDEST PUSH2 0x2983 DUP1 PUSH3 0x12A PUSH1 0x0 CODECOPY PUSH1 0x0 RETURN INVALID PUSH1 0x80 PUSH1 0x40 MSTORE CALLVALUE DUP1 ISZERO PUSH2 0x10 JUMPI PUSH1 0x0 DUP1 REVERT JUMPDEST POP PUSH1 0x4 CALLDATASIZE LT PUSH2 0xCF JUMPI PUSH1 0x0 CALLDATALOAD PUSH1 0xE0 SHR DUP1 PUSH4 0x8434D01A GT PUSH2 0x8C JUMPI DUP1 PUSH4 0xC0E3EE6B GT PUSH2 0x66 JUMPI DUP1 PUSH4 0xC0E3EE6B EQ PUSH2 0x250 JUMPI DUP1 PUSH4 0xCA3D6539 EQ PUSH2 0x281 JUMPI DUP1 PUSH4 0xD06CA61F EQ PUSH2 0x2B3 JUMPI DUP1 PUSH4 0xF446C1D0 EQ PUSH2 0x2E3 JUMPI PUSH2 0xCF JUMP JUMPDEST DUP1 PUSH4 0x8434D01A EQ PUSH2 0x1D2 JUMPI DUP1 PUSH4 0x85F8C259 EQ PUSH2 0x1F0 JUMPI DUP1 PUSH4 0xAD615DEC EQ PUSH2 0x220 JUMPI PUSH2 0xCF JUMP JUMPDEST DUP1 PUSH4 0x54D50D4 EQ PUSH2 0xD4 JUMPI DUP1 PUSH4 0x1F00CA74 EQ PUSH2 0x104 JUMPI DUP1 PUSH4 0x26C2B1FB EQ PUSH2 0x134 JUMPI DUP1 PUSH4 0x32E7C5BF EQ PUSH2 0x154 JUMPI DUP1 PUSH4 0x42712A67 EQ PUSH2 0x172 JUMPI DUP1 PUSH4 0x472B43F3 EQ PUSH2 0x1A2 JUMPI JUMPDEST PUSH1 0x0 DUP1 REVERT JUMPDEST PUSH2 0xEE PUSH1 0x4 DUP1 CALLDATASIZE SUB DUP2 ADD SWAP1 PUSH2 0xE9 SWAP2 SWAP1 PUSH2 0x1740 JUMP JUMPDEST PUSH2 0x301 JUMP JUMPDEST PUSH1 0x40 MLOAD PUSH2 0xFB SWAP2 SWAP1 PUSH2 0x17A2 JUMP JUMPDEST PUSH1 0x40 MLOAD DUP1 SWAP2 SUB SWAP1 RETURN JUMPDEST PUSH2 0x11E PUSH1 0x4 DUP1 CALLDATASIZE SUB DUP2 ADD SWAP1 PUSH2 0x119 SWAP2 SWAP1 PUSH2 0x1974 JUMP JUMPDEST PUSH2 0x388 JUMP JUMPDEST PUSH1 0x40 MLOAD PUSH2 0x12B SWAP2 SWAP1 PUSH2 0x1A8E JUMP JUMPDEST PUSH1 0x40 MLOAD DUP1 SWAP2 SUB SWAP1 RETURN JUMPDEST PUSH2 0x13C PUSH2 0x433 JUMP JUMPDEST PUSH1 0x40 MLOAD PUSH2 0x14B SWAP4 SWAP3 SWAP2 SWAP1 PUSH2 0x1ABF JUMP JUMPDEST PUSH1 0x40 MLOAD DUP1 SWAP2 SUB SWAP1 RETURN JUMPDEST PUSH2 0x15C PUSH2 0x4AC JUMP JUMPDEST PUSH1 0x40 MLOAD PUSH2 0x169 SWAP2 SWAP1 PUSH2 0x1AF6 JUMP JUMPDEST PUSH1 0x40 MLOAD DUP1 SWAP2 SUB SWAP1 RETURN JUMPDEST PUSH2 0x18C PUSH1 0x4 DUP1 CALLDATASIZE SUB DUP2 ADD SWAP1 PUSH2 0x187 SWAP2 SWAP1 PUSH2 0x1B6C JUMP JUMPDEST PUSH2 0x4D2 JUMP JUMPDEST PUSH1 0x40 MLOAD PUSH2 0x199 SWAP2 SWAP1 PUSH2 0x1A8E JUMP JUMPDEST PUSH1 0x40 MLOAD DUP1 SWAP2 SUB SWAP1 RETURN JUMPDEST PUSH2 0x1BC PUSH1 0x4 DUP1 CALLDATASIZE SUB DUP2 ADD SWAP1 PUSH2 0x1B7 SWAP2 SWAP1 PUSH2 0x1B6C JUMP JUMPDEST PUSH2 0x6F4 JUMP JUMPDEST PUSH1 0x40 MLOAD PUSH2 0x1C9 SWAP2 SWAP1 PUSH2 0x1A8E JUMP JUMPDEST PUSH1 0x40 MLOAD DUP1 SWAP2 SUB SWAP1 RETURN JUMPDEST PUSH2 0x1DA PUSH2 0x922 JUMP JUMPDEST PUSH1 0x40 MLOAD PUSH2 0x1E7 SWAP2 SWAP1 PUSH2 0x1AF6 JUMP JUMPDEST PUSH1 0x40 MLOAD DUP1 SWAP2 SUB SWAP1 RETURN JUMPDEST PUSH2 0x20A PUSH1 0x4 DUP1 CALLDATASIZE SUB DUP2 ADD SWAP1 PUSH2 0x205 SWAP2 SWAP1 PUSH2 0x1740 JUMP JUMPDEST PUSH2 0x948 JUMP JUMPDEST PUSH1 0x40 MLOAD PUSH2 0x217 SWAP2 SWAP1 PUSH2 0x17A2 JUMP JUMPDEST PUSH1 0x40 MLOAD DUP1 SWAP2 SUB SWAP1 RETURN JUMPDEST PUSH2 0x23A PUSH1 0x4 DUP1 CALLDATASIZE SUB DUP2 ADD SWAP1 PUSH2 0x235 SWAP2 SWAP1 PUSH2 0x1740 JUMP JUMPDEST PUSH2 0x9CF JUMP JUMPDEST PUSH1 0x40 MLOAD PUSH2 0x247 SWAP2 SWAP1 PUSH2 0x17A2 JUMP JUMPDEST PUSH1 0x40 MLOAD DUP1 SWAP2 SUB SWAP1 RETURN JUMPDEST PUSH2 0x26A PUSH1 0x4 DUP1 CALLDATASIZE SUB DUP2 ADD SWAP1 PUSH2 0x265 SWAP2 SWAP1 PUSH2 0x1BF4 JUMP JUMPDEST PUSH2 0xA56 JUMP JUMPDEST PUSH1 0x40 MLOAD PUSH2 0x278 SWAP3 SWAP2 SWAP1 PUSH2 0x1C81 JUMP JUMPDEST PUSH1 0x40 MLOAD DUP1 SWAP2 SUB SWAP1 RETURN JUMPDEST PUSH2 0x29B PUSH1 0x4 DUP1 CALLDATASIZE SUB DUP2 ADD SWAP1 PUSH2 0x296 SWAP2 SWAP1 PUSH2 0x1CAA JUMP JUMPDEST PUSH2 0xC1E JUMP JUMPDEST PUSH1 0x40 MLOAD PUSH2 0x2AA SWAP4 SWAP3 SWAP2 SWAP1 PUSH2 0x1D4C JUMP JUMPDEST PUSH1 0x40 MLOAD DUP1 SWAP2 SUB SWAP1 RETURN JUMPDEST PUSH2 0x2CD PUSH1 0x4 DUP1 CALLDATASIZE SUB DUP2 ADD SWAP1 PUSH2 0x2C8 SWAP2 SWAP1 PUSH2 0x1974 JUMP JUMPDEST PUSH2 0xF3B JUMP JUMPDEST PUSH1 0x40 MLOAD PUSH2 0x2DA SWAP2 SWAP1 PUSH2 0x1A8E JUMP JUMPDEST PUSH1 0x40 MLOAD DUP1 SWAP2 SUB SWAP1 RETURN JUMPDEST PUSH2 0x2EB PUSH2 0xFE6 JUMP JUMPDEST PUSH1 0x40 MLOAD PUSH2 0x2F8 SWAP2 SWAP1 PUSH2 0x1AF6 JUMP JUMPDEST PUSH1 0x40 MLOAD DUP1 SWAP2 SUB SWAP1 RETURN JUMPDEST PUSH1 0x0 PUSH20 0x0 PUSH4 0x54D50D4 DUP6 DUP6 DUP6 PUSH1 0x40 MLOAD DUP5 PUSH4 0xFFFFFFFF AND PUSH1 0xE0 SHL DUP2 MSTORE PUSH1 0x4 ADD PUSH2 0x33E SWAP4 SWAP3 SWAP2 SWAP1 PUSH2 0x1D92 JUMP JUMPDEST PUSH1 0x20 PUSH1 0x40 MLOAD DUP1 DUP4 SUB DUP2 DUP7 GAS DELEGATECALL ISZERO DUP1 ISZERO PUSH2 0x35B JUMPI RETURNDATASIZE PUSH1 0x0 DUP1 RETURNDATACOPY RETURNDATASIZE PUSH1 0x0 REVERT JUMPDEST POP POP POP POP PUSH1 0x40 MLOAD RETURNDATASIZE PUSH1 0x1F NOT PUSH1 0x1F DUP3 ADD AND DUP3 ADD DUP1 PUSH1 0x40 MSTORE POP DUP2 ADD SWAP1 PUSH2 0x37F SWAP2 SWAP1 PUSH2 0x1DDE JUMP JUMPDEST SWAP1 POP SWAP4 SWAP3 POP POP POP JUMP JUMPDEST PUSH1 0x60 PUSH20 0x0 PUSH4 0x192128B2 PUSH1 0x0 DUP1 SLOAD SWAP1 PUSH2 0x100 EXP SWAP1 DIV PUSH20 0xFFFFFFFFFFFFFFFFFFFFFFFFFFFFFFFFFFFFFFFF AND DUP6 DUP6 PUSH1 0x40 MLOAD DUP5 PUSH4 0xFFFFFFFF AND PUSH1 0xE0 SHL DUP2 MSTORE PUSH1 0x4 ADD PUSH2 0x3E5 SWAP4 SWAP3 SWAP2 SWAP1 PUSH2 0x1ED8 JUMP JUMPDEST PUSH1 0x0 PUSH1 0x40 MLOAD DUP1 DUP4 SUB DUP2 DUP7 GAS DELEGATECALL ISZERO DUP1 ISZERO PUSH2 0x402 JUMPI RETURNDATASIZE PUSH1 0x0 DUP1 RETURNDATACOPY RETURNDATASIZE PUSH1 0x0 REVERT JUMPDEST POP POP POP POP PUSH1 0x40 MLOAD RETURNDATASIZE PUSH1 0x0 DUP3 RETURNDATACOPY RETURNDATASIZE PUSH1 0x1F NOT PUSH1 0x1F DUP3 ADD AND DUP3 ADD DUP1 PUSH1 0x40 MSTORE POP DUP2 ADD SWAP1 PUSH2 0x42B SWAP2 SWAP1 PUSH2 0x1FD9 JUMP JUMPDEST SWAP1 POP SWAP3 SWAP2 POP POP JUMP JUMPDEST PUSH1 0x0 DUP1 PUSH1 0x0 PUSH1 0x1 PUSH1 0x0 SWAP1 SLOAD SWAP1 PUSH2 0x100 EXP SWAP1 DIV PUSH20 0xFFFFFFFFFFFFFFFFFFFFFFFFFFFFFFFFFFFFFFFF AND PUSH1 0x2 PUSH1 0x0 SWAP1 SLOAD SWAP1 PUSH2 0x100 EXP SWAP1 DIV PUSH20 0xFFFFFFFFFFFFFFFFFFFFFFFFFFFFFFFFFFFFFFFF AND PUSH1 0x3 PUSH1 0x0 SWAP1 SLOAD SWAP1 PUSH2 0x100 EXP SWAP1 DIV PUSH20 0xFFFFFFFFFFFFFFFFFFFFFFFFFFFFFFFFFFFFFFFF AND SWAP3 POP SWAP3 POP SWAP3 POP SWAP1 SWAP2 SWAP3 JUMP JUMPDEST PUSH1 0x3 PUSH1 0x0 SWAP1 SLOAD SWAP1 PUSH2 0x100 EXP SWAP1 DIV PUSH20 0xFFFFFFFFFFFFFFFFFFFFFFFFFFFFFFFFFFFFFFFF AND DUP2 JUMP JUMPDEST PUSH1 0x60 PUSH20 0x0 PUSH4 0x192128B2 PUSH1 0x0 DUP1 SLOAD SWAP1 PUSH2 0x100 EXP SWAP1 DIV PUSH20 0xFFFFFFFFFFFFFFFFFFFFFFFFFFFFFFFFFFFFFFFF AND DUP9 DUP8 DUP8 PUSH1 0x40 MLOAD DUP6 PUSH4 0xFFFFFFFF AND PUSH1 0xE0 SHL DUP2 MSTORE PUSH1 0x4 ADD PUSH2 0x531 SWAP5 SWAP4 SWAP3 SWAP2 SWAP1 PUSH2 0x20AD JUMP JUMPDEST PUSH1 0x0 PUSH1 0x40 MLOAD DUP1 DUP4 SUB DUP2 DUP7 GAS DELEGATECALL ISZERO DUP1 ISZERO PUSH2 0x54E JUMPI RETURNDATASIZE PUSH1 0x0 DUP1 RETURNDATACOPY RETURNDATASIZE PUSH1 0x0 REVERT JUMPDEST POP POP POP POP PUSH1 0x40 MLOAD RETURNDATASIZE PUSH1 0x0 DUP3 RETURNDATACOPY RETURNDATASIZE PUSH1 0x1F NOT PUSH1 0x1F DUP3 ADD AND DUP3 ADD DUP1 PUSH1 0x40 MSTORE POP DUP2 ADD SWAP1 PUSH2 0x577 SWAP2 SWAP1 PUSH2 0x1FD9 JUMP JUMPDEST SWAP1 POP DUP5 DUP2 PUSH1 0x0 DUP2 MLOAD DUP2 LT PUSH2 0x58E JUMPI PUSH2 0x58D PUSH2 0x20ED JUMP JUMPDEST JUMPDEST PUSH1 0x20 MUL PUSH1 0x20 ADD ADD MLOAD GT ISZERO PUSH2 0x5D7 JUMPI PUSH1 0x40 MLOAD PUSH32 0x8C379A000000000000000000000000000000000000000000000000000000000 DUP2 MSTORE PUSH1 0x4 ADD PUSH2 0x5CE SWAP1 PUSH2 0x219F JUMP JUMPDEST PUSH1 0x40 MLOAD DUP1 SWAP2 SUB SWAP1 REVERT JUMPDEST PUSH2 0x69F DUP5 DUP5 PUSH1 0x0 DUP2 DUP2 LT PUSH2 0x5EE JUMPI PUSH2 0x5ED PUSH2 0x20ED JUMP JUMPDEST JUMPDEST SWAP1 POP PUSH1 0x20 MUL ADD PUSH1 0x20 DUP2 ADD SWAP1 PUSH2 0x603 SWAP2 SWAP1 PUSH2 0x21BF JUMP JUMPDEST PUSH2 0x67E PUSH1 0x0 DUP1 SLOAD SWAP1 PUSH2 0x100 EXP SWAP1 DIV PUSH20 0xFFFFFFFFFFFFFFFFFFFFFFFFFFFFFFFFFFFFFFFF AND DUP8 DUP8 PUSH1 0x0 DUP2 DUP2 LT PUSH2 0x63B JUMPI PUSH2 0x63A PUSH2 0x20ED JUMP JUMPDEST JUMPDEST SWAP1 POP PUSH1 0x20 MUL ADD PUSH1 0x20 DUP2 ADD SWAP1 PUSH2 0x650 SWAP2 SWAP1 PUSH2 0x21BF JUMP JUMPDEST DUP9 DUP9 PUSH1 0x1 DUP2 DUP2 LT PUSH2 0x664 JUMPI PUSH2 0x663 PUSH2 0x20ED JUMP JUMPDEST JUMPDEST SWAP1 POP PUSH1 0x20 MUL ADD PUSH1 0x20 DUP2 ADD SWAP1 PUSH2 0x679 SWAP2 SWAP1 PUSH2 0x21BF JUMP JUMPDEST PUSH2 0x100C JUMP JUMPDEST DUP4 PUSH1 0x0 DUP2 MLOAD DUP2 LT PUSH2 0x692 JUMPI PUSH2 0x691 PUSH2 0x20ED JUMP JUMPDEST JUMPDEST PUSH1 0x20 MUL PUSH1 0x20 ADD ADD MLOAD PUSH2 0x107E JUMP JUMPDEST PUSH2 0x6EB DUP2 DUP6 DUP6 DUP1 DUP1 PUSH1 0x20 MUL PUSH1 0x20 ADD PUSH1 0x40 MLOAD SWAP1 DUP2 ADD PUSH1 0x40 MSTORE DUP1 SWAP4 SWAP3 SWAP2 SWAP1 DUP2 DUP2 MSTORE PUSH1 0x20 ADD DUP4 DUP4 PUSH1 0x20 MUL DUP1 DUP3 DUP5 CALLDATACOPY PUSH1 0x0 DUP2 DUP5 ADD MSTORE PUSH1 0x1F NOT PUSH1 0x1F DUP3 ADD AND SWAP1 POP DUP1 DUP4 ADD SWAP3 POP POP POP POP POP POP POP DUP5 PUSH2 0x1210 JUMP JUMPDEST SWAP6 SWAP5 POP POP POP POP POP JUMP JUMPDEST PUSH1 0x60 PUSH20 0x0 PUSH4 0xBB7B9C76 PUSH1 0x0 DUP1 SLOAD SWAP1 PUSH2 0x100 EXP SWAP1 DIV PUSH20 0xFFFFFFFFFFFFFFFFFFFFFFFFFFFFFFFFFFFFFFFF AND DUP9 DUP8 DUP8 PUSH1 0x40 MLOAD DUP6 PUSH4 0xFFFFFFFF AND PUSH1 0xE0 SHL DUP2 MSTORE PUSH1 0x4 ADD PUSH2 0x753 SWAP5 SWAP4 SWAP3 SWAP2 SWAP1 PUSH2 0x20AD JUMP JUMPDEST PUSH1 0x0 PUSH1 0x40 MLOAD DUP1 DUP4 SUB DUP2 DUP7 GAS DELEGATECALL ISZERO DUP1 ISZERO PUSH2 0x770 JUMPI RETURNDATASIZE PUSH1 0x0 DUP1 RETURNDATACOPY RETURNDATASIZE PUSH1 0x0 REVERT JUMPDEST POP POP POP POP PUSH1 0x40 MLOAD RETURNDATASIZE PUSH1 0x0 DUP3 RETURNDATACOPY RETURNDATASIZE PUSH1 0x1F NOT PUSH1 0x1F DUP3 ADD AND DUP3 ADD DUP1 PUSH1 0x40 MSTORE POP DUP2 ADD SWAP1 PUSH2 0x799 SWAP2 SWAP1 PUSH2 0x1FD9 JUMP JUMPDEST SWAP1 POP DUP5 DUP2 PUSH1 0x1 DUP4 MLOAD PUSH2 0x7AB SWAP2 SWAP1 PUSH2 0x221B JUMP JUMPDEST DUP2 MLOAD DUP2 LT PUSH2 0x7BC JUMPI PUSH2 0x7BB PUSH2 0x20ED JUMP JUMPDEST JUMPDEST PUSH1 0x20 MUL PUSH1 0x20 ADD ADD MLOAD LT ISZERO PUSH2 0x805 JUMPI PUSH1 0x40 MLOAD PUSH32 0x8C379A000000000000000000000000000000000000000000000000000000000 DUP2 MSTORE PUSH1 0x4 ADD PUSH2 0x7FC SWAP1 PUSH2 0x22C1 JUMP JUMPDEST PUSH1 0x40 MLOAD DUP1 SWAP2 SUB SWAP1 REVERT JUMPDEST PUSH2 0x8CD DUP5 DUP5 PUSH1 0x0 DUP2 DUP2 LT PUSH2 0x81C JUMPI PUSH2 0x81B PUSH2 0x20ED JUMP JUMPDEST JUMPDEST SWAP1 POP PUSH1 0x20 MUL ADD PUSH1 0x20 DUP2 ADD SWAP1 PUSH2 0x831 SWAP2 SWAP1 PUSH2 0x21BF JUMP JUMPDEST PUSH2 0x8AC PUSH1 0x0 DUP1 SLOAD SWAP1 PUSH2 0x100 EXP SWAP1 DIV PUSH20 0xFFFFFFFFFFFFFFFFFFFFFFFFFFFFFFFFFFFFFFFF AND DUP8 DUP8 PUSH1 0x0 DUP2 DUP2 LT PUSH2 0x869 JUMPI PUSH2 0x868 PUSH2 0x20ED JUMP JUMPDEST JUMPDEST SWAP1 POP PUSH1 0x20 MUL ADD PUSH1 0x20 DUP2 ADD SWAP1 PUSH2 0x87E SWAP2 SWAP1 PUSH2 0x21BF JUMP JUMPDEST DUP9 DUP9 PUSH1 0x1 DUP2 DUP2 LT PUSH2 0x892 JUMPI PUSH2 0x891 PUSH2 0x20ED JUMP JUMPDEST JUMPDEST SWAP1 POP PUSH1 0x20 MUL ADD PUSH1 0x20 DUP2 ADD SWAP1 PUSH2 0x8A7 SWAP2 SWAP1 PUSH2 0x21BF JUMP JUMPDEST PUSH2 0x100C JUMP JUMPDEST DUP4 PUSH1 0x0 DUP2 MLOAD DUP2 LT PUSH2 0x8C0 JUMPI PUSH2 0x8BF PUSH2 0x20ED JUMP JUMPDEST JUMPDEST PUSH1 0x20 MUL PUSH1 0x20 ADD ADD MLOAD PUSH2 0x107E JUMP JUMPDEST PUSH2 0x919 DUP2 DUP6 DUP6 DUP1 DUP1 PUSH1 0x20 MUL PUSH1 0x20 ADD PUSH1 0x40 MLOAD SWAP1 DUP2 ADD PUSH1 0x40 MSTORE DUP1 SWAP4 SWAP3 SWAP2 SWAP1 DUP2 DUP2 MSTORE PUSH1 0x20 ADD DUP4 DUP4 PUSH1 0x20 MUL DUP1 DUP3 DUP5 CALLDATACOPY PUSH1 0x0 DUP2 DUP5 ADD MSTORE PUSH1 0x1F NOT PUSH1 0x1F DUP3 ADD AND SWAP1 POP DUP1 DUP4 ADD SWAP3 POP POP POP POP POP POP POP DUP5 PUSH2 0x1210 JUMP JUMPDEST SWAP6 SWAP5 POP POP POP POP POP JUMP JUMPDEST PUSH1 0x1 PUSH1 0x0 SWAP1 SLOAD SWAP1 PUSH2 0x100 EXP SWAP1 DIV PUSH20 0xFFFFFFFFFFFFFFFFFFFFFFFFFFFFFFFFFFFFFFFF AND DUP2 JUMP JUMPDEST PUSH1 0x0 PUSH20 0x0 PUSH4 0x85F8C259 DUP6 DUP6 DUP6 PUSH1 0x40 MLOAD DUP5 PUSH4 0xFFFFFFFF AND PUSH1 0xE0 SHL DUP2 MSTORE PUSH1 0x4 ADD PUSH2 0x985 SWAP4 SWAP3 SWAP2 SWAP1 PUSH2 0x1D92 JUMP JUMPDEST PUSH1 0x20 PUSH1 0x40 MLOAD DUP1 DUP4 SUB DUP2 DUP7 GAS DELEGATECALL ISZERO DUP1 ISZERO PUSH2 0x9A2 JUMPI RETURNDATASIZE PUSH1 0x0 DUP1 RETURNDATACOPY RETURNDATASIZE PUSH1 0x0 REVERT JUMPDEST POP POP POP POP PUSH1 0x40 MLOAD RETURNDATASIZE PUSH1 0x1F NOT PUSH1 0x1F DUP3 ADD AND DUP3 ADD DUP1 PUSH1 0x40 MSTORE POP DUP2 ADD SWAP1 PUSH2 0x9C6 SWAP2 SWAP1 PUSH2 0x1DDE JUMP JUMPDEST SWAP1 POP SWAP4 SWAP3 POP POP POP JUMP JUMPDEST PUSH1 0x0 PUSH20 0x0 PUSH4 0xAD615DEC DUP6 DUP6 DUP6 PUSH1 0x40 MLOAD DUP5 PUSH4 0xFFFFFFFF AND PUSH1 0xE0 SHL DUP2 MSTORE PUSH1 0x4 ADD PUSH2 0xA0C SWAP4 SWAP3 SWAP2 SWAP1 PUSH2 0x1D92 JUMP JUMPDEST PUSH1 0x20 PUSH1 0x40 MLOAD DUP1 DUP4 SUB DUP2 DUP7 GAS DELEGATECALL ISZERO DUP1 ISZERO PUSH2 0xA29 JUMPI RETURNDATASIZE PUSH1 0x0 DUP1 RETURNDATACOPY RETURNDATASIZE PUSH1 0x0 REVERT JUMPDEST POP POP POP POP PUSH1 0x40 MLOAD RETURNDATASIZE PUSH1 0x1F NOT PUSH1 0x1F DUP3 ADD AND DUP3 ADD DUP1 PUSH1 0x40 MSTORE POP DUP2 ADD SWAP1 PUSH2 0xA4D SWAP2 SWAP1 PUSH2 0x1DDE JUMP JUMPDEST SWAP1 POP SWAP4 SWAP3 POP POP POP JUMP JUMPDEST PUSH1 0x0 DUP1 PUSH1 0x0 PUSH2 0xA86 PUSH1 0x0 DUP1 SLOAD SWAP1 PUSH2 0x100 EXP SWAP1 DIV PUSH20 0xFFFFFFFFFFFFFFFFFFFFFFFFFFFFFFFFFFFFFFFF AND DUP11 DUP11 PUSH2 0x100C JUMP JUMPDEST SWAP1 POP DUP1 PUSH20 0xFFFFFFFFFFFFFFFFFFFFFFFFFFFFFFFFFFFFFFFF AND PUSH4 0x23B872DD CALLER DUP4 DUP11 PUSH1 0x40 MLOAD DUP5 PUSH4 0xFFFFFFFF AND PUSH1 0xE0 SHL DUP2 MSTORE PUSH1 0x4 ADD PUSH2 0xAC5 SWAP4 SWAP3 SWAP2 SWAP1 PUSH2 0x22E1 JUMP JUMPDEST PUSH1 0x20 PUSH1 0x40 MLOAD DUP1 DUP4 SUB DUP2 PUSH1 0x0 DUP8 GAS CALL ISZERO DUP1 ISZERO PUSH2 0xAE4 JUMPI RETURNDATASIZE PUSH1 0x0 DUP1 RETURNDATACOPY RETURNDATASIZE PUSH1 0x0 REVERT JUMPDEST POP POP POP POP PUSH1 0x40 MLOAD RETURNDATASIZE PUSH1 0x1F NOT PUSH1 0x1F DUP3 ADD AND DUP3 ADD DUP1 PUSH1 0x40 MSTORE POP DUP2 ADD SWAP1 PUSH2 0xB08 SWAP2 SWAP1 PUSH2 0x2350 JUMP JUMPDEST POP DUP1 PUSH20 0xFFFFFFFFFFFFFFFFFFFFFFFFFFFFFFFFFFFFFFFF AND PUSH4 0x89AFCB44 DUP6 PUSH1 0x40 MLOAD DUP3 PUSH4 0xFFFFFFFF AND PUSH1 0xE0 SHL DUP2 MSTORE PUSH1 0x4 ADD PUSH2 0xB42 SWAP2 SWAP1 PUSH2 0x1AF6 JUMP JUMPDEST PUSH1 0x40 DUP1 MLOAD DUP1 DUP4 SUB DUP2 PUSH1 0x0 DUP8 GAS CALL ISZERO DUP1 ISZERO PUSH2 0xB60 JUMPI RETURNDATASIZE PUSH1 0x0 DUP1 RETURNDATACOPY RETURNDATASIZE PUSH1 0x0 REVERT JUMPDEST POP POP POP POP PUSH1 0x40 MLOAD RETURNDATASIZE PUSH1 0x1F NOT PUSH1 0x1F DUP3 ADD AND DUP3 ADD DUP1 PUSH1 0x40 MSTORE POP DUP2 ADD SWAP1 PUSH2 0xB84 SWAP2 SWAP1 PUSH2 0x237D JUMP JUMPDEST DUP1 SWAP4 POP DUP2 SWAP5 POP POP POP DUP6 DUP4 LT ISZERO PUSH2 0xBCF JUMPI PUSH1 0x40 MLOAD PUSH32 0x8C379A000000000000000000000000000000000000000000000000000000000 DUP2 MSTORE PUSH1 0x4 ADD PUSH2 0xBC6 SWAP1 PUSH2 0x242F JUMP JUMPDEST PUSH1 0x40 MLOAD DUP1 SWAP2 SUB SWAP1 REVERT JUMPDEST DUP5 DUP3 LT ISZERO PUSH2 0xC12 JUMPI PUSH1 0x40 MLOAD PUSH32 0x8C379A000000000000000000000000000000000000000000000000000000000 DUP2 MSTORE PUSH1 0x4 ADD PUSH2 0xC09 SWAP1 PUSH2 0x24C1 JUMP JUMPDEST PUSH1 0x40 MLOAD DUP1 SWAP2 SUB SWAP1 REVERT JUMPDEST POP SWAP7 POP SWAP7 SWAP5 POP POP POP POP POP JUMP JUMPDEST PUSH1 0x0 DUP1 PUSH1 0x0 DUP1 PUSH20 0xFFFFFFFFFFFFFFFFFFFFFFFFFFFFFFFFFFFFFFFF AND PUSH1 0x0 DUP1 SLOAD SWAP1 PUSH2 0x100 EXP SWAP1 DIV PUSH20 0xFFFFFFFFFFFFFFFFFFFFFFFFFFFFFFFFFFFFFFFF AND PUSH20 0xFFFFFFFFFFFFFFFFFFFFFFFFFFFFFFFFFFFFFFFF AND PUSH4 0x69454B86 DUP13 DUP13 PUSH1 0x40 MLOAD DUP4 PUSH4 0xFFFFFFFF AND PUSH1 0xE0 SHL DUP2 MSTORE PUSH1 0x4 ADD PUSH2 0xC95 SWAP3 SWAP2 SWAP1 PUSH2 0x24E1 JUMP JUMPDEST PUSH1 0x20 PUSH1 0x40 MLOAD DUP1 DUP4 SUB DUP2 DUP7 GAS STATICCALL ISZERO DUP1 ISZERO PUSH2 0xCB2 JUMPI RETURNDATASIZE PUSH1 0x0 DUP1 RETURNDATACOPY RETURNDATASIZE PUSH1 0x0 REVERT JUMPDEST POP POP POP POP PUSH1 0x40 MLOAD RETURNDATASIZE PUSH1 0x1F NOT PUSH1 0x1F DUP3 ADD AND DUP3 ADD DUP1 PUSH1 0x40 MSTORE POP DUP2 ADD SWAP1 PUSH2 0xCD6 SWAP2 SWAP1 PUSH2 0x251F JUMP JUMPDEST PUSH20 0xFFFFFFFFFFFFFFFFFFFFFFFFFFFFFFFFFFFFFFFF AND SUB PUSH2 0xD91 JUMPI PUSH1 0x0 DUP1 SLOAD SWAP1 PUSH2 0x100 EXP SWAP1 DIV PUSH20 0xFFFFFFFFFFFFFFFFFFFFFFFFFFFFFFFFFFFFFFFF AND PUSH20 0xFFFFFFFFFFFFFFFFFFFFFFFFFFFFFFFFFFFFFFFF AND PUSH4 0xC9C65396 DUP12 DUP12 PUSH1 0x40 MLOAD DUP4 PUSH4 0xFFFFFFFF AND PUSH1 0xE0 SHL DUP2 MSTORE PUSH1 0x4 ADD PUSH2 0xD4C SWAP3 SWAP2 SWAP1 PUSH2 0x24E1 JUMP JUMPDEST PUSH1 0x20 PUSH1 0x40 MLOAD DUP1 DUP4 SUB DUP2 PUSH1 0x0 DUP8 GAS CALL ISZERO DUP1 ISZERO PUSH2 0xD6B JUMPI RETURNDATASIZE PUSH1 0x0 DUP1 RETURNDATACOPY RETURNDATASIZE PUSH1 0x0 REVERT JUMPDEST POP POP POP POP PUSH1 0x40 MLOAD RETURNDATASIZE PUSH1 0x1F NOT PUSH1 0x1F DUP3 ADD AND DUP3 ADD DUP1 PUSH1 0x40 MSTORE POP DUP2 ADD SWAP1 PUSH2 0xD8F SWAP2 SWAP1 PUSH2 0x251F JUMP JUMPDEST POP JUMPDEST PUSH2 0xD9F DUP11 DUP11 DUP11 DUP11 DUP11 DUP11 PUSH2 0x141A JUMP JUMPDEST DUP1 SWAP4 POP DUP2 SWAP5 POP POP POP PUSH1 0x0 PUSH2 0xDD4 PUSH1 0x0 DUP1 SLOAD SWAP1 PUSH2 0x100 EXP SWAP1 DIV PUSH20 0xFFFFFFFFFFFFFFFFFFFFFFFFFFFFFFFFFFFFFFFF AND DUP13 DUP13 PUSH2 0x100C JUMP JUMPDEST SWAP1 POP DUP1 PUSH1 0x1 PUSH1 0x0 PUSH2 0x100 EXP DUP2 SLOAD DUP2 PUSH20 0xFFFFFFFFFFFFFFFFFFFFFFFFFFFFFFFFFFFFFFFF MUL NOT AND SWAP1 DUP4 PUSH20 0xFFFFFFFFFFFFFFFFFFFFFFFFFFFFFFFFFFFFFFFF AND MUL OR SWAP1 SSTORE POP DUP11 PUSH1 0x2 PUSH1 0x0 PUSH2 0x100 EXP DUP2 SLOAD DUP2 PUSH20 0xFFFFFFFFFFFFFFFFFFFFFFFFFFFFFFFFFFFFFFFF MUL NOT AND SWAP1 DUP4 PUSH20 0xFFFFFFFFFFFFFFFFFFFFFFFFFFFFFFFFFFFFFFFF AND MUL OR SWAP1 SSTORE POP DUP10 PUSH1 0x3 PUSH1 0x0 PUSH2 0x100 EXP DUP2 SLOAD DUP2 PUSH20 0xFFFFFFFFFFFFFFFFFFFFFFFFFFFFFFFFFFFFFFFF MUL NOT AND SWAP1 DUP4 PUSH20 0xFFFFFFFFFFFFFFFFFFFFFFFFFFFFFFFFFFFFFFFF AND MUL OR SWAP1 SSTORE POP PUSH2 0xEA4 DUP12 DUP3 DUP7 PUSH2 0x107E JUMP JUMPDEST PUSH2 0xEAF DUP11 DUP3 DUP6 PUSH2 0x107E JUMP JUMPDEST DUP1 PUSH20 0xFFFFFFFFFFFFFFFFFFFFFFFFFFFFFFFFFFFFFFFF AND PUSH4 0x6A627842 DUP7 PUSH1 0x40 MLOAD DUP3 PUSH4 0xFFFFFFFF AND PUSH1 0xE0 SHL DUP2 MSTORE PUSH1 0x4 ADD PUSH2 0xEE8 SWAP2 SWAP1 PUSH2 0x1AF6 JUMP JUMPDEST PUSH1 0x20 PUSH1 0x40 MLOAD DUP1 DUP4 SUB DUP2 PUSH1 0x0 DUP8 GAS CALL ISZERO DUP1 ISZERO PUSH2 0xF07 JUMPI RETURNDATASIZE PUSH1 0x0 DUP1 RETURNDATACOPY RETURNDATASIZE PUSH1 0x0 REVERT JUMPDEST POP POP POP POP PUSH1 0x40 MLOAD RETURNDATASIZE PUSH1 0x1F NOT PUSH1 0x1F DUP3 ADD AND DUP3 ADD DUP1 PUSH1 0x40 MSTORE POP DUP2 ADD SWAP1 PUSH2 0xF2B SWAP2 SWAP1 PUSH2 0x1DDE JUMP JUMPDEST SWAP2 POP POP SWAP8 POP SWAP8 POP SWAP8 SWAP5 POP POP POP POP POP JUMP JUMPDEST PUSH1 0x60 PUSH20 0x0 PUSH4 0xBB7B9C76 PUSH1 0x0 DUP1 SLOAD SWAP1 PUSH2 0x100 EXP SWAP1 DIV PUSH20 0xFFFFFFFFFFFFFFFFFFFFFFFFFFFFFFFFFFFFFFFF AND DUP6 DUP6 PUSH1 0x40 MLOAD DUP5 PUSH4 0xFFFFFFFF AND PUSH1 0xE0 SHL DUP2 MSTORE PUSH1 0x4 ADD PUSH2 0xF98 SWAP4 SWAP3 SWAP2 SWAP1 PUSH2 0x1ED8 JUMP JUMPDEST PUSH1 0x0 PUSH1 0x40 MLOAD DUP1 DUP4 SUB DUP2 DUP7 GAS DELEGATECALL ISZERO DUP1 ISZERO PUSH2 0xFB5 JUMPI RETURNDATASIZE PUSH1 0x0 DUP1 RETURNDATACOPY RETURNDATASIZE PUSH1 0x0 REVERT JUMPDEST POP POP POP POP PUSH1 0x40 MLOAD RETURNDATASIZE PUSH1 0x0 DUP3 RETURNDATACOPY RETURNDATASIZE PUSH1 0x1F NOT PUSH1 0x1F DUP3 ADD AND DUP3 ADD DUP1 PUSH1 0x40 MSTORE POP DUP2 ADD SWAP1 PUSH2 0xFDE SWAP2 SWAP1 PUSH2 0x1FD9 JUMP JUMPDEST SWAP1 POP SWAP3 SWAP2 POP POP JUMP JUMPDEST PUSH1 0x2 PUSH1 0x0 SWAP1 SLOAD SWAP1 PUSH2 0x100 EXP SWAP1 DIV PUSH20 0xFFFFFFFFFFFFFFFFFFFFFFFFFFFFFFFFFFFFFFFF AND DUP2 JUMP JUMPDEST PUSH1 0x0 DUP1 PUSH1 0x0 PUSH2 0x101B DUP6 DUP6 PUSH2 0x16AB JUMP JUMPDEST SWAP2 POP SWAP2 POP DUP6 DUP3 DUP3 PUSH1 0x40 MLOAD PUSH1 0x20 ADD PUSH2 0x1033 SWAP3 SWAP2 SWAP1 PUSH2 0x2594 JUMP JUMPDEST PUSH1 0x40 MLOAD PUSH1 0x20 DUP2 DUP4 SUB SUB DUP2 MSTORE SWAP1 PUSH1 0x40 MSTORE DUP1 MLOAD SWAP1 PUSH1 0x20 ADD KECCAK256 PUSH1 0x40 MLOAD PUSH1 0x20 ADD PUSH2 0x105A SWAP3 SWAP2 SWAP1 PUSH2 0x268E JUMP JUMPDEST PUSH1 0x40 MLOAD PUSH1 0x20 DUP2 DUP4 SUB SUB DUP2 MSTORE SWAP1 PUSH1 0x40 MSTORE DUP1 MLOAD SWAP1 PUSH1 0x20 ADD KECCAK256 PUSH1 0x0 SHR SWAP3 POP POP POP SWAP4 SWAP3 POP POP POP JUMP JUMPDEST PUSH1 0x0 DUP1 DUP5 PUSH20 0xFFFFFFFFFFFFFFFFFFFFFFFFFFFFFFFFFFFFFFFF AND PUSH1 0x40 MLOAD DUP1 PUSH1 0x40 ADD PUSH1 0x40 MSTORE DUP1 PUSH1 0x19 DUP2 MSTORE PUSH1 0x20 ADD PUSH32 0x7472616E7366657228616464726573732C75696E743235362900000000000000 DUP2 MSTORE POP DUP1 MLOAD SWAP1 PUSH1 0x20 ADD KECCAK256 DUP6 DUP6 PUSH1 0x40 MLOAD PUSH1 0x24 ADD PUSH2 0x10E8 SWAP3 SWAP2 SWAP1 PUSH2 0x26D0 JUMP JUMPDEST PUSH1 0x40 MLOAD PUSH1 0x20 DUP2 DUP4 SUB SUB DUP2 MSTORE SWAP1 PUSH1 0x40 MSTORE SWAP1 PUSH28 0xFFFFFFFFFFFFFFFFFFFFFFFFFFFFFFFFFFFFFFFFFFFFFFFFFFFFFFFF NOT AND PUSH1 0x20 DUP3 ADD DUP1 MLOAD PUSH28 0xFFFFFFFFFFFFFFFFFFFFFFFFFFFFFFFFFFFFFFFFFFFFFFFFFFFFFFFF DUP4 DUP2 DUP4 AND OR DUP4 MSTORE POP POP POP POP PUSH1 0x40 MLOAD PUSH2 0x1152 SWAP2 SWAP1 PUSH2 0x2773 JUMP JUMPDEST PUSH1 0x0 PUSH1 0x40 MLOAD DUP1 DUP4 SUB DUP2 PUSH1 0x0 DUP7 GAS CALL SWAP2 POP POP RETURNDATASIZE DUP1 PUSH1 0x0 DUP2 EQ PUSH2 0x118F JUMPI PUSH1 0x40 MLOAD SWAP2 POP PUSH1 0x1F NOT PUSH1 0x3F RETURNDATASIZE ADD AND DUP3 ADD PUSH1 0x40 MSTORE RETURNDATASIZE DUP3 MSTORE RETURNDATASIZE PUSH1 0x0 PUSH1 0x20 DUP5 ADD RETURNDATACOPY PUSH2 0x1194 JUMP JUMPDEST PUSH1 0x60 SWAP2 POP JUMPDEST POP SWAP2 POP SWAP2 POP DUP2 ISZERO DUP1 PUSH2 0x11C5 JUMPI POP PUSH1 0x0 DUP2 MLOAD EQ ISZERO DUP1 ISZERO PUSH2 0x11C4 JUMPI POP DUP1 DUP1 PUSH1 0x20 ADD SWAP1 MLOAD DUP2 ADD SWAP1 PUSH2 0x11C2 SWAP2 SWAP1 PUSH2 0x2350 JUMP JUMPDEST ISZERO JUMPDEST JUMPDEST ISZERO PUSH2 0x1209 JUMPI DUP4 DUP6 PUSH1 0x40 MLOAD PUSH32 0xC218E9BC00000000000000000000000000000000000000000000000000000000 DUP2 MSTORE PUSH1 0x4 ADD PUSH2 0x1200 SWAP3 SWAP2 SWAP1 PUSH2 0x27D6 JUMP JUMPDEST PUSH1 0x40 MLOAD DUP1 SWAP2 SUB SWAP1 REVERT JUMPDEST POP POP POP POP POP JUMP JUMPDEST PUSH1 0x0 JUMPDEST PUSH1 0x1 DUP4 MLOAD PUSH2 0x1221 SWAP2 SWAP1 PUSH2 0x221B JUMP JUMPDEST DUP2 LT ISZERO PUSH2 0x1414 JUMPI PUSH1 0x0 DUP1 DUP5 DUP4 DUP2 MLOAD DUP2 LT PUSH2 0x123E JUMPI PUSH2 0x123D PUSH2 0x20ED JUMP JUMPDEST JUMPDEST PUSH1 0x20 MUL PUSH1 0x20 ADD ADD MLOAD DUP6 PUSH1 0x1 DUP6 PUSH2 0x1254 SWAP2 SWAP1 PUSH2 0x2812 JUMP JUMPDEST DUP2 MLOAD DUP2 LT PUSH2 0x1265 JUMPI PUSH2 0x1264 PUSH2 0x20ED JUMP JUMPDEST JUMPDEST PUSH1 0x20 MUL PUSH1 0x20 ADD ADD MLOAD SWAP2 POP SWAP2 POP PUSH1 0x0 PUSH2 0x127D DUP4 DUP4 PUSH2 0x16AB JUMP JUMPDEST POP SWAP1 POP PUSH1 0x0 DUP8 PUSH1 0x1 DUP7 PUSH2 0x1290 SWAP2 SWAP1 PUSH2 0x2812 JUMP JUMPDEST DUP2 MLOAD DUP2 LT PUSH2 0x12A1 JUMPI PUSH2 0x12A0 PUSH2 0x20ED JUMP JUMPDEST JUMPDEST PUSH1 0x20 MUL PUSH1 0x20 ADD ADD MLOAD SWAP1 POP PUSH1 0x0 DUP1 DUP4 PUSH20 0xFFFFFFFFFFFFFFFFFFFFFFFFFFFFFFFFFFFFFFFF AND DUP7 PUSH20 0xFFFFFFFFFFFFFFFFFFFFFFFFFFFFFFFFFFFFFFFF AND EQ PUSH2 0x12E9 JUMPI DUP3 PUSH1 0x0 PUSH2 0x12ED JUMP JUMPDEST PUSH1 0x0 DUP4 JUMPDEST SWAP2 POP SWAP2 POP PUSH1 0x0 PUSH1 0x2 DUP11 MLOAD PUSH2 0x1301 SWAP2 SWAP1 PUSH2 0x221B JUMP JUMPDEST DUP9 LT PUSH2 0x130D JUMPI DUP9 PUSH2 0x135F JUMP JUMPDEST PUSH2 0x135E PUSH1 0x0 DUP1 SLOAD SWAP1 PUSH2 0x100 EXP SWAP1 DIV PUSH20 0xFFFFFFFFFFFFFFFFFFFFFFFFFFFFFFFFFFFFFFFF AND DUP8 DUP13 PUSH1 0x2 DUP13 PUSH2 0x1340 SWAP2 SWAP1 PUSH2 0x2812 JUMP JUMPDEST DUP2 MLOAD DUP2 LT PUSH2 0x1351 JUMPI PUSH2 0x1350 PUSH2 0x20ED JUMP JUMPDEST JUMPDEST PUSH1 0x20 MUL PUSH1 0x20 ADD ADD MLOAD PUSH2 0x100C JUMP JUMPDEST JUMPDEST SWAP1 POP PUSH2 0x138C PUSH1 0x0 DUP1 SLOAD SWAP1 PUSH2 0x100 EXP SWAP1 DIV PUSH20 0xFFFFFFFFFFFFFFFFFFFFFFFFFFFFFFFFFFFFFFFF AND DUP9 DUP9 PUSH2 0x100C JUMP JUMPDEST PUSH20 0xFFFFFFFFFFFFFFFFFFFFFFFFFFFFFFFFFFFFFFFF AND PUSH4 0x6D9A640A DUP5 DUP5 DUP5 PUSH1 0x40 MLOAD DUP5 PUSH4 0xFFFFFFFF AND PUSH1 0xE0 SHL DUP2 MSTORE PUSH1 0x4 ADD PUSH2 0x13C8 SWAP4 SWAP3 SWAP2 SWAP1 PUSH2 0x2868 JUMP JUMPDEST PUSH1 0x0 PUSH1 0x40 MLOAD DUP1 DUP4 SUB DUP2 PUSH1 0x0 DUP8 DUP1 EXTCODESIZE ISZERO DUP1 ISZERO PUSH2 0x13E2 JUMPI PUSH1 0x0 DUP1 REVERT JUMPDEST POP GAS CALL ISZERO DUP1 ISZERO PUSH2 0x13F6 JUMPI RETURNDATASIZE PUSH1 0x0 DUP1 RETURNDATACOPY RETURNDATASIZE PUSH1 0x0 REVERT JUMPDEST POP POP POP POP POP POP POP POP POP POP POP DUP1 DUP1 PUSH2 0x140C SWAP1 PUSH2 0x289F JUMP JUMPDEST SWAP2 POP POP PUSH2 0x1213 JUMP JUMPDEST POP POP POP POP JUMP JUMPDEST PUSH1 0x0 DUP1 PUSH1 0x0 DUP1 PUSH20 0x0 PUSH4 0x32749461 PUSH1 0x0 DUP1 SLOAD SWAP1 PUSH2 0x100 EXP SWAP1 DIV PUSH20 0xFFFFFFFFFFFFFFFFFFFFFFFFFFFFFFFFFFFFFFFF AND DUP13 DUP13 PUSH1 0x40 MLOAD DUP5 PUSH4 0xFFFFFFFF AND PUSH1 0xE0 SHL DUP2 MSTORE PUSH1 0x4 ADD PUSH2 0x147B SWAP4 SWAP3 SWAP2 SWAP1 PUSH2 0x28E7 JUMP JUMPDEST PUSH1 0x40 DUP1 MLOAD DUP1 DUP4 SUB DUP2 DUP7 GAS DELEGATECALL ISZERO DUP1 ISZERO PUSH2 0x1497 JUMPI RETURNDATASIZE PUSH1 0x0 DUP1 RETURNDATACOPY RETURNDATASIZE PUSH1 0x0 REVERT JUMPDEST POP POP POP POP PUSH1 0x40 MLOAD RETURNDATASIZE PUSH1 0x1F NOT PUSH1 0x1F DUP3 ADD AND DUP3 ADD DUP1 PUSH1 0x40 MSTORE POP DUP2 ADD SWAP1 PUSH2 0x14BB SWAP2 SWAP1 PUSH2 0x237D JUMP JUMPDEST SWAP2 POP SWAP2 POP PUSH1 0x0 DUP3 EQ DUP1 ISZERO PUSH2 0x14CF JUMPI POP PUSH1 0x0 DUP2 EQ JUMPDEST ISZERO PUSH2 0x14E3 JUMPI DUP8 DUP8 DUP1 SWAP5 POP DUP2 SWAP6 POP POP POP PUSH2 0x169E JUMP JUMPDEST PUSH1 0x0 PUSH20 0x0 PUSH4 0xAD615DEC DUP11 DUP6 DUP6 PUSH1 0x40 MLOAD DUP5 PUSH4 0xFFFFFFFF AND PUSH1 0xE0 SHL DUP2 MSTORE PUSH1 0x4 ADD PUSH2 0x1520 SWAP4 SWAP3 SWAP2 SWAP1 PUSH2 0x1D92 JUMP JUMPDEST PUSH1 0x20 PUSH1 0x40 MLOAD DUP1 DUP4 SUB DUP2 DUP7 GAS DELEGATECALL ISZERO DUP1 ISZERO PUSH2 0x153D JUMPI RETURNDATASIZE PUSH1 0x0 DUP1 RETURNDATACOPY RETURNDATASIZE PUSH1 0x0 REVERT JUMPDEST POP POP POP POP PUSH1 0x40 MLOAD RETURNDATASIZE PUSH1 0x1F NOT PUSH1 0x1F DUP3 ADD AND DUP3 ADD DUP1 PUSH1 0x40 MSTORE POP DUP2 ADD SWAP1 PUSH2 0x1561 SWAP2 SWAP1 PUSH2 0x1DDE JUMP JUMPDEST SWAP1 POP DUP8 DUP2 GT PUSH2 0x15BC JUMPI DUP6 DUP2 LT ISZERO PUSH2 0x15AD JUMPI PUSH1 0x40 MLOAD PUSH32 0x8C379A000000000000000000000000000000000000000000000000000000000 DUP2 MSTORE PUSH1 0x4 ADD PUSH2 0x15A4 SWAP1 PUSH2 0x24C1 JUMP JUMPDEST PUSH1 0x40 MLOAD DUP1 SWAP2 SUB SWAP1 REVERT JUMPDEST DUP9 DUP2 DUP1 SWAP6 POP DUP2 SWAP7 POP POP POP PUSH2 0x169C JUMP JUMPDEST PUSH1 0x0 PUSH20 0x0 PUSH4 0xAD615DEC DUP11 DUP6 DUP8 PUSH1 0x40 MLOAD DUP5 PUSH4 0xFFFFFFFF AND PUSH1 0xE0 SHL DUP2 MSTORE PUSH1 0x4 ADD PUSH2 0x15F9 SWAP4 SWAP3 SWAP2 SWAP1 PUSH2 0x1D92 JUMP JUMPDEST PUSH1 0x20 PUSH1 0x40 MLOAD DUP1 DUP4 SUB DUP2 DUP7 GAS DELEGATECALL ISZERO DUP1 ISZERO PUSH2 0x1616 JUMPI RETURNDATASIZE PUSH1 0x0 DUP1 RETURNDATACOPY RETURNDATASIZE PUSH1 0x0 REVERT JUMPDEST POP POP POP POP PUSH1 0x40 MLOAD RETURNDATASIZE PUSH1 0x1F NOT PUSH1 0x1F DUP3 ADD AND DUP3 ADD DUP1 PUSH1 0x40 MSTORE POP DUP2 ADD SWAP1 PUSH2 0x163A SWAP2 SWAP1 PUSH2 0x1DDE JUMP JUMPDEST SWAP1 POP DUP10 DUP2 GT ISZERO PUSH2 0x164D JUMPI PUSH2 0x164C PUSH2 0x291E JUMP JUMPDEST JUMPDEST DUP8 DUP2 LT ISZERO PUSH2 0x1690 JUMPI PUSH1 0x40 MLOAD PUSH32 0x8C379A000000000000000000000000000000000000000000000000000000000 DUP2 MSTORE PUSH1 0x4 ADD PUSH2 0x1687 SWAP1 PUSH2 0x242F JUMP JUMPDEST PUSH1 0x40 MLOAD DUP1 SWAP2 SUB SWAP1 REVERT JUMPDEST DUP1 DUP10 DUP1 SWAP7 POP DUP2 SWAP8 POP POP POP POP JUMPDEST POP JUMPDEST POP POP SWAP7 POP SWAP7 SWAP5 POP POP POP POP POP JUMP JUMPDEST PUSH1 0x0 DUP1 DUP3 PUSH20 0xFFFFFFFFFFFFFFFFFFFFFFFFFFFFFFFFFFFFFFFF AND DUP5 PUSH20 0xFFFFFFFFFFFFFFFFFFFFFFFFFFFFFFFFFFFFFFFF AND LT PUSH2 0x16E8 JUMPI DUP3 DUP5 PUSH2 0x16EB JUMP JUMPDEST DUP4 DUP4 JUMPDEST SWAP2 POP SWAP2 POP SWAP3 POP SWAP3 SWAP1 POP JUMP JUMPDEST PUSH1 0x0 PUSH1 0x40 MLOAD SWAP1 POP SWAP1 JUMP JUMPDEST PUSH1 0x0 DUP1 REVERT JUMPDEST PUSH1 0x0 DUP1 REVERT JUMPDEST PUSH1 0x0 DUP2 SWAP1 POP SWAP2 SWAP1 POP JUMP JUMPDEST PUSH2 0x171D DUP2 PUSH2 0x170A JUMP JUMPDEST DUP2 EQ PUSH2 0x1728 JUMPI PUSH1 0x0 DUP1 REVERT JUMPDEST POP JUMP JUMPDEST PUSH1 0x0 DUP2 CALLDATALOAD SWAP1 POP PUSH2 0x173A DUP2 PUSH2 0x1714 JUMP JUMPDEST SWAP3 SWAP2 POP POP JUMP JUMPDEST PUSH1 0x0 DUP1 PUSH1 0x0 PUSH1 0x60 DUP5 DUP7 SUB SLT ISZERO PUSH2 0x1759 JUMPI PUSH2 0x1758 PUSH2 0x1700 JUMP JUMPDEST JUMPDEST PUSH1 0x0 PUSH2 0x1767 DUP7 DUP3 DUP8 ADD PUSH2 0x172B JUMP JUMPDEST SWAP4 POP POP PUSH1 0x20 PUSH2 0x1778 DUP7 DUP3 DUP8 ADD PUSH2 0x172B JUMP JUMPDEST SWAP3 POP POP PUSH1 0x40 PUSH2 0x1789 DUP7 DUP3 DUP8 ADD PUSH2 0x172B JUMP JUMPDEST SWAP2 POP POP SWAP3 POP SWAP3 POP SWAP3 JUMP JUMPDEST PUSH2 0x179C DUP2 PUSH2 0x170A JUMP JUMPDEST DUP3 MSTORE POP POP JUMP JUMPDEST PUSH1 0x0 PUSH1 0x20 DUP3 ADD SWAP1 POP PUSH2 0x17B7 PUSH1 0x0 DUP4 ADD DUP5 PUSH2 0x1793 JUMP JUMPDEST SWAP3 SWAP2 POP POP JUMP JUMPDEST PUSH1 0x0 DUP1 REVERT JUMPDEST PUSH1 0x0 PUSH1 0x1F NOT PUSH1 0x1F DUP4 ADD AND SWAP1 POP SWAP2 SWAP1 POP JUMP JUMPDEST PUSH32 0x4E487B7100000000000000000000000000000000000000000000000000000000 PUSH1 0x0 MSTORE PUSH1 0x41 PUSH1 0x4 MSTORE PUSH1 0x24 PUSH1 0x0 REVERT JUMPDEST PUSH2 0x180B DUP3 PUSH2 0x17C2 JUMP JUMPDEST DUP2 ADD DUP2 DUP2 LT PUSH8 0xFFFFFFFFFFFFFFFF DUP3 GT OR ISZERO PUSH2 0x182A JUMPI PUSH2 0x1829 PUSH2 0x17D3 JUMP JUMPDEST JUMPDEST DUP1 PUSH1 0x40 MSTORE POP POP POP JUMP JUMPDEST PUSH1 0x0 PUSH2 0x183D PUSH2 0x16F6 JUMP JUMPDEST SWAP1 POP PUSH2 0x1849 DUP3 DUP3 PUSH2 0x1802 JUMP JUMPDEST SWAP2 SWAP1 POP JUMP JUMPDEST PUSH1 0x0 PUSH8 0xFFFFFFFFFFFFFFFF DUP3 GT ISZERO PUSH2 0x1869 JUMPI PUSH2 0x1868 PUSH2 0x17D3 JUMP JUMPDEST JUMPDEST PUSH1 0x20 DUP3 MUL SWAP1 POP PUSH1 0x20 DUP2 ADD SWAP1 POP SWAP2 SWAP1 POP JUMP JUMPDEST PUSH1 0x0 DUP1 REVERT JUMPDEST PUSH1 0x0 PUSH20 0xFFFFFFFFFFFFFFFFFFFFFFFFFFFFFFFFFFFFFFFF DUP3 AND SWAP1 POP SWAP2 SWAP1 POP JUMP JUMPDEST PUSH1 0x0 PUSH2 0x18AA DUP3 PUSH2 0x187F JUMP JUMPDEST SWAP1 POP SWAP2 SWAP1 POP JUMP JUMPDEST PUSH2 0x18BA DUP2 PUSH2 0x189F JUMP JUMPDEST DUP2 EQ PUSH2 0x18C5 JUMPI PUSH1 0x0 DUP1 REVERT JUMPDEST POP JUMP JUMPDEST PUSH1 0x0 DUP2 CALLDATALOAD SWAP1 POP PUSH2 0x18D7 DUP2 PUSH2 0x18B1 JUMP JUMPDEST SWAP3 SWAP2 POP POP JUMP JUMPDEST PUSH1 0x0 PUSH2 0x18F0 PUSH2 0x18EB DUP5 PUSH2 0x184E JUMP JUMPDEST PUSH2 0x1833 JUMP JUMPDEST SWAP1 POP DUP1 DUP4 DUP3 MSTORE PUSH1 0x20 DUP3 ADD SWAP1 POP PUSH1 0x20 DUP5 MUL DUP4 ADD DUP6 DUP2 GT ISZERO PUSH2 0x1913 JUMPI PUSH2 0x1912 PUSH2 0x187A JUMP JUMPDEST JUMPDEST DUP4 JUMPDEST DUP2 DUP2 LT ISZERO PUSH2 0x193C JUMPI DUP1 PUSH2 0x1928 DUP9 DUP3 PUSH2 0x18C8 JUMP JUMPDEST DUP5 MSTORE PUSH1 0x20 DUP5 ADD SWAP4 POP POP PUSH1 0x20 DUP2 ADD SWAP1 POP PUSH2 0x1915 JUMP JUMPDEST POP POP POP SWAP4 SWAP3 POP POP POP JUMP JUMPDEST PUSH1 0x0 DUP3 PUSH1 0x1F DUP4 ADD SLT PUSH2 0x195B JUMPI PUSH2 0x195A PUSH2 0x17BD JUMP JUMPDEST JUMPDEST DUP2 CALLDATALOAD PUSH2 0x196B DUP5 DUP3 PUSH1 0x20 DUP7 ADD PUSH2 0x18DD JUMP JUMPDEST SWAP2 POP POP SWAP3 SWAP2 POP POP JUMP JUMPDEST PUSH1 0x0 DUP1 PUSH1 0x40 DUP4 DUP6 SUB SLT ISZERO PUSH2 0x198B JUMPI PUSH2 0x198A PUSH2 0x1700 JUMP JUMPDEST JUMPDEST PUSH1 0x0 PUSH2 0x1999 DUP6 DUP3 DUP7 ADD PUSH2 0x172B JUMP JUMPDEST SWAP3 POP POP PUSH1 0x20 DUP4 ADD CALLDATALOAD PUSH8 0xFFFFFFFFFFFFFFFF DUP2 GT ISZERO PUSH2 0x19BA JUMPI PUSH2 0x19B9 PUSH2 0x1705 JUMP JUMPDEST JUMPDEST PUSH2 0x19C6 DUP6 DUP3 DUP7 ADD PUSH2 0x1946 JUMP JUMPDEST SWAP2 POP POP SWAP3 POP SWAP3 SWAP1 POP JUMP JUMPDEST PUSH1 0x0 DUP2 MLOAD SWAP1 POP SWAP2 SWAP1 POP JUMP JUMPDEST PUSH1 0x0 DUP3 DUP3 MSTORE PUSH1 0x20 DUP3 ADD SWAP1 POP SWAP3 SWAP2 POP POP JUMP JUMPDEST PUSH1 0x0 DUP2 SWAP1 POP PUSH1 0x20 DUP3 ADD SWAP1 POP SWAP2 SWAP1 POP JUMP JUMPDEST PUSH2 0x1A05 DUP2 PUSH2 0x170A JUMP JUMPDEST DUP3 MSTORE POP POP JUMP JUMPDEST PUSH1 0x0 PUSH2 0x1A17 DUP4 DUP4 PUSH2 0x19FC JUMP JUMPDEST PUSH1 0x20 DUP4 ADD SWAP1 POP SWAP3 SWAP2 POP POP JUMP JUMPDEST PUSH1 0x0 PUSH1 0x20 DUP3 ADD SWAP1 POP SWAP2 SWAP1 POP JUMP JUMPDEST PUSH1 0x0 PUSH2 0x1A3B DUP3 PUSH2 0x19D0 JUMP JUMPDEST PUSH2 0x1A45 DUP2 DUP6 PUSH2 0x19DB JUMP JUMPDEST SWAP4 POP PUSH2 0x1A50 DUP4 PUSH2 0x19EC JUMP JUMPDEST DUP1 PUSH1 0x0 JUMPDEST DUP4 DUP2 LT ISZERO PUSH2 0x1A81 JUMPI DUP2 MLOAD PUSH2 0x1A68 DUP9 DUP3 PUSH2 0x1A0B JUMP JUMPDEST SWAP8 POP PUSH2 0x1A73 DUP4 PUSH2 0x1A23 JUMP JUMPDEST SWAP3 POP POP PUSH1 0x1 DUP2 ADD SWAP1 POP PUSH2 0x1A54 JUMP JUMPDEST POP DUP6 SWAP4 POP POP POP POP SWAP3 SWAP2 POP POP JUMP JUMPDEST PUSH1 0x0 PUSH1 0x20 DUP3 ADD SWAP1 POP DUP2 DUP2 SUB PUSH1 0x0 DUP4 ADD MSTORE PUSH2 0x1AA8 DUP2 DUP5 PUSH2 0x1A30 JUMP JUMPDEST SWAP1 POP SWAP3 SWAP2 POP POP JUMP JUMPDEST PUSH2 0x1AB9 DUP2 PUSH2 0x189F JUMP JUMPDEST DUP3 MSTORE POP POP JUMP JUMPDEST PUSH1 0x0 PUSH1 0x60 DUP3 ADD SWAP1 POP PUSH2 0x1AD4 PUSH1 0x0 DUP4 ADD DUP7 PUSH2 0x1AB0 JUMP JUMPDEST PUSH2 0x1AE1 PUSH1 0x20 DUP4 ADD DUP6 PUSH2 0x1AB0 JUMP JUMPDEST PUSH2 0x1AEE PUSH1 0x40 DUP4 ADD DUP5 PUSH2 0x1AB0 JUMP JUMPDEST SWAP5 SWAP4 POP POP POP POP JUMP JUMPDEST PUSH1 0x0 PUSH1 0x20 DUP3 ADD SWAP1 POP PUSH2 0x1B0B PUSH1 0x0 DUP4 ADD DUP5 PUSH2 0x1AB0 JUMP JUMPDEST SWAP3 SWAP2 POP POP JUMP JUMPDEST PUSH1 0x0 DUP1 REVERT JUMPDEST PUSH1 0x0 DUP1 DUP4 PUSH1 0x1F DUP5 ADD SLT PUSH2 0x1B2C JUMPI PUSH2 0x1B2B PUSH2 0x17BD JUMP JUMPDEST JUMPDEST DUP3 CALLDATALOAD SWAP1 POP PUSH8 0xFFFFFFFFFFFFFFFF DUP2 GT ISZERO PUSH2 0x1B49 JUMPI PUSH2 0x1B48 PUSH2 0x1B11 JUMP JUMPDEST JUMPDEST PUSH1 0x20 DUP4 ADD SWAP2 POP DUP4 PUSH1 0x20 DUP3 MUL DUP4 ADD GT ISZERO PUSH2 0x1B65 JUMPI PUSH2 0x1B64 PUSH2 0x187A JUMP JUMPDEST JUMPDEST SWAP3 POP SWAP3 SWAP1 POP JUMP JUMPDEST PUSH1 0x0 DUP1 PUSH1 0x0 DUP1 PUSH1 0x0 PUSH1 0x80 DUP7 DUP9 SUB SLT ISZERO PUSH2 0x1B88 JUMPI PUSH2 0x1B87 PUSH2 0x1700 JUMP JUMPDEST JUMPDEST PUSH1 0x0 PUSH2 0x1B96 DUP9 DUP3 DUP10 ADD PUSH2 0x172B JUMP JUMPDEST SWAP6 POP POP PUSH1 0x20 PUSH2 0x1BA7 DUP9 DUP3 DUP10 ADD PUSH2 0x172B JUMP JUMPDEST SWAP5 POP POP PUSH1 0x40 DUP7 ADD CALLDATALOAD PUSH8 0xFFFFFFFFFFFFFFFF DUP2 GT ISZERO PUSH2 0x1BC8 JUMPI PUSH2 0x1BC7 PUSH2 0x1705 JUMP JUMPDEST JUMPDEST PUSH2 0x1BD4 DUP9 DUP3 DUP10 ADD PUSH2 0x1B16 JUMP JUMPDEST SWAP4 POP SWAP4 POP POP PUSH1 0x60 PUSH2 0x1BE7 DUP9 DUP3 DUP10 ADD PUSH2 0x18C8 JUMP JUMPDEST SWAP2 POP POP SWAP3 SWAP6 POP SWAP3 SWAP6 SWAP1 SWAP4 POP JUMP JUMPDEST PUSH1 0x0 DUP1 PUSH1 0x0 DUP1 PUSH1 0x0 DUP1 PUSH1 0xC0 DUP8 DUP10 SUB SLT ISZERO PUSH2 0x1C11 JUMPI PUSH2 0x1C10 PUSH2 0x1700 JUMP JUMPDEST JUMPDEST PUSH1 0x0 PUSH2 0x1C1F DUP10 DUP3 DUP11 ADD PUSH2 0x18C8 JUMP JUMPDEST SWAP7 POP POP PUSH1 0x20 PUSH2 0x1C30 DUP10 DUP3 DUP11 ADD PUSH2 0x18C8 JUMP JUMPDEST SWAP6 POP POP PUSH1 0x40 PUSH2 0x1C41 DUP10 DUP3 DUP11 ADD PUSH2 0x172B JUMP JUMPDEST SWAP5 POP POP PUSH1 0x60 PUSH2 0x1C52 DUP10 DUP3 DUP11 ADD PUSH2 0x172B JUMP JUMPDEST SWAP4 POP POP PUSH1 0x80 PUSH2 0x1C63 DUP10 DUP3 DUP11 ADD PUSH2 0x172B JUMP JUMPDEST SWAP3 POP POP PUSH1 0xA0 PUSH2 0x1C74 DUP10 DUP3 DUP11 ADD PUSH2 0x18C8 JUMP JUMPDEST SWAP2 POP POP SWAP3 SWAP6 POP SWAP3 SWAP6 POP SWAP3 SWAP6 JUMP JUMPDEST PUSH1 0x0 PUSH1 0x40 DUP3 ADD SWAP1 POP PUSH2 0x1C96 PUSH1 0x0 DUP4 ADD DUP6 PUSH2 0x1793 JUMP JUMPDEST PUSH2 0x1CA3 PUSH1 0x20 DUP4 ADD DUP5 PUSH2 0x1793 JUMP JUMPDEST SWAP4 SWAP3 POP POP POP JUMP JUMPDEST PUSH1 0x0 DUP1 PUSH1 0x0 DUP1 PUSH1 0x0 DUP1 PUSH1 0x0 PUSH1 0xE0 DUP9 DUP11 SUB SLT ISZERO PUSH2 0x1CC9 JUMPI PUSH2 0x1CC8 PUSH2 0x1700 JUMP JUMPDEST JUMPDEST PUSH1 0x0 PUSH2 0x1CD7 DUP11 DUP3 DUP12 ADD PUSH2 0x18C8 JUMP JUMPDEST SWAP8 POP POP PUSH1 0x20 PUSH2 0x1CE8 DUP11 DUP3 DUP12 ADD PUSH2 0x18C8 JUMP JUMPDEST SWAP7 POP POP PUSH1 0x40 PUSH2 0x1CF9 DUP11 DUP3 DUP12 ADD PUSH2 0x172B JUMP JUMPDEST SWAP6 POP POP PUSH1 0x60 PUSH2 0x1D0A DUP11 DUP3 DUP12 ADD PUSH2 0x172B JUMP JUMPDEST SWAP5 POP POP PUSH1 0x80 PUSH2 0x1D1B DUP11 DUP3 DUP12 ADD PUSH2 0x172B JUMP JUMPDEST SWAP4 POP POP PUSH1 0xA0 PUSH2 0x1D2C DUP11 DUP3 DUP12 ADD PUSH2 0x172B JUMP JUMPDEST SWAP3 POP POP PUSH1 0xC0 PUSH2 0x1D3D DUP11 DUP3 DUP12 ADD PUSH2 0x18C8 JUMP JUMPDEST SWAP2 POP POP SWAP3 SWAP6 SWAP9 SWAP2 SWAP5 SWAP8 POP SWAP3 SWAP6 POP JUMP JUMPDEST PUSH1 0x0 PUSH1 0x60 DUP3 ADD SWAP1 POP PUSH2 0x1D61 PUSH1 0x0 DUP4 ADD DUP7 PUSH2 0x1793 JUMP JUMPDEST PUSH2 0x1D6E PUSH1 0x20 DUP4 ADD DUP6 PUSH2 0x1793 JUMP JUMPDEST PUSH2 0x1D7B PUSH1 0x40 DUP4 ADD DUP5 PUSH2 0x1793 JUMP JUMPDEST SWAP5 SWAP4 POP POP POP POP JUMP JUMPDEST PUSH2 0x1D8C DUP2 PUSH2 0x170A JUMP JUMPDEST DUP3 MSTORE POP POP JUMP JUMPDEST PUSH1 0x0 PUSH1 0x60 DUP3 ADD SWAP1 POP PUSH2 0x1DA7 PUSH1 0x0 DUP4 ADD DUP7 PUSH2 0x1D83 JUMP JUMPDEST PUSH2 0x1DB4 PUSH1 0x20 DUP4 ADD DUP6 PUSH2 0x1D83 JUMP JUMPDEST PUSH2 0x1DC1 PUSH1 0x40 DUP4 ADD DUP5 PUSH2 0x1D83 JUMP JUMPDEST SWAP5 SWAP4 POP POP POP POP JUMP JUMPDEST PUSH1 0x0 DUP2 MLOAD SWAP1 POP PUSH2 0x1DD8 DUP2 PUSH2 0x1714 JUMP JUMPDEST SWAP3 SWAP2 POP POP JUMP JUMPDEST PUSH1 0x0 PUSH1 0x20 DUP3 DUP5 SUB SLT ISZERO PUSH2 0x1DF4 JUMPI PUSH2 0x1DF3 PUSH2 0x1700 JUMP JUMPDEST JUMPDEST PUSH1 0x0 PUSH2 0x1E02 DUP5 DUP3 DUP6 ADD PUSH2 0x1DC9 JUMP JUMPDEST SWAP2 POP POP SWAP3 SWAP2 POP POP JUMP JUMPDEST PUSH2 0x1E14 DUP2 PUSH2 0x189F JUMP JUMPDEST DUP3 MSTORE POP POP JUMP JUMPDEST PUSH1 0x0 DUP2 MLOAD SWAP1 POP SWAP2 SWAP1 POP JUMP JUMPDEST PUSH1 0x0 DUP3 DUP3 MSTORE PUSH1 0x20 DUP3 ADD SWAP1 POP SWAP3 SWAP2 POP POP JUMP JUMPDEST PUSH1 0x0 DUP2 SWAP1 POP PUSH1 0x20 DUP3 ADD SWAP1 POP SWAP2 SWAP1 POP JUMP JUMPDEST PUSH2 0x1E4F DUP2 PUSH2 0x189F JUMP JUMPDEST DUP3 MSTORE POP POP JUMP JUMPDEST PUSH1 0x0 PUSH2 0x1E61 DUP4 DUP4 PUSH2 0x1E46 JUMP JUMPDEST PUSH1 0x20 DUP4 ADD SWAP1 POP SWAP3 SWAP2 POP POP JUMP JUMPDEST PUSH1 0x0 PUSH1 0x20 DUP3 ADD SWAP1 POP SWAP2 SWAP1 POP JUMP JUMPDEST PUSH1 0x0 PUSH2 0x1E85 DUP3 PUSH2 0x1E1A JUMP JUMPDEST PUSH2 0x1E8F DUP2 DUP6 PUSH2 0x1E25 JUMP JUMPDEST SWAP4 POP PUSH2 0x1E9A DUP4 PUSH2 0x1E36 JUMP JUMPDEST DUP1 PUSH1 0x0 JUMPDEST DUP4 DUP2 LT ISZERO PUSH2 0x1ECB JUMPI DUP2 MLOAD PUSH2 0x1EB2 DUP9 DUP3 PUSH2 0x1E55 JUMP JUMPDEST SWAP8 POP PUSH2 0x1EBD DUP4 PUSH2 0x1E6D JUMP JUMPDEST SWAP3 POP POP PUSH1 0x1 DUP2 ADD SWAP1 POP PUSH2 0x1E9E JUMP JUMPDEST POP DUP6 SWAP4 POP POP POP POP SWAP3 SWAP2 POP POP JUMP JUMPDEST PUSH1 0x0 PUSH1 0x60 DUP3 ADD SWAP1 POP PUSH2 0x1EED PUSH1 0x0 DUP4 ADD DUP7 PUSH2 0x1E0B JUMP JUMPDEST PUSH2 0x1EFA PUSH1 0x20 DUP4 ADD DUP6 PUSH2 0x1D83 JUMP JUMPDEST DUP2 DUP2 SUB PUSH1 0x40 DUP4 ADD MSTORE PUSH2 0x1F0C DUP2 DUP5 PUSH2 0x1E7A JUMP JUMPDEST SWAP1 POP SWAP5 SWAP4 POP POP POP POP JUMP JUMPDEST PUSH1 0x0 PUSH8 0xFFFFFFFFFFFFFFFF DUP3 GT ISZERO PUSH2 0x1F31 JUMPI PUSH2 0x1F30 PUSH2 0x17D3 JUMP JUMPDEST JUMPDEST PUSH1 0x20 DUP3 MUL SWAP1 POP PUSH1 0x20 DUP2 ADD SWAP1 POP SWAP2 SWAP1 POP JUMP JUMPDEST PUSH1 0x0 PUSH2 0x1F55 PUSH2 0x1F50 DUP5 PUSH2 0x1F16 JUMP JUMPDEST PUSH2 0x1833 JUMP JUMPDEST SWAP1 POP DUP1 DUP4 DUP3 MSTORE PUSH1 0x20 DUP3 ADD SWAP1 POP PUSH1 0x20 DUP5 MUL DUP4 ADD DUP6 DUP2 GT ISZERO PUSH2 0x1F78 JUMPI PUSH2 0x1F77 PUSH2 0x187A JUMP JUMPDEST JUMPDEST DUP4 JUMPDEST DUP2 DUP2 LT ISZERO PUSH2 0x1FA1 JUMPI DUP1 PUSH2 0x1F8D DUP9 DUP3 PUSH2 0x1DC9 JUMP JUMPDEST DUP5 MSTORE PUSH1 0x20 DUP5 ADD SWAP4 POP POP PUSH1 0x20 DUP2 ADD SWAP1 POP PUSH2 0x1F7A JUMP JUMPDEST POP POP POP SWAP4 SWAP3 POP POP POP JUMP JUMPDEST PUSH1 0x0 DUP3 PUSH1 0x1F DUP4 ADD SLT PUSH2 0x1FC0 JUMPI PUSH2 0x1FBF PUSH2 0x17BD JUMP JUMPDEST JUMPDEST DUP2 MLOAD PUSH2 0x1FD0 DUP5 DUP3 PUSH1 0x20 DUP7 ADD PUSH2 0x1F42 JUMP JUMPDEST SWAP2 POP POP SWAP3 SWAP2 POP POP JUMP JUMPDEST PUSH1 0x0 PUSH1 0x20 DUP3 DUP5 SUB SLT ISZERO PUSH2 0x1FEF JUMPI PUSH2 0x1FEE PUSH2 0x1700 JUMP JUMPDEST JUMPDEST PUSH1 0x0 DUP3 ADD MLOAD PUSH8 0xFFFFFFFFFFFFFFFF DUP2 GT ISZERO PUSH2 0x200D JUMPI PUSH2 0x200C PUSH2 0x1705 JUMP JUMPDEST JUMPDEST PUSH2 0x2019 DUP5 DUP3 DUP6 ADD PUSH2 0x1FAB JUMP JUMPDEST SWAP2 POP POP SWAP3 SWAP2 POP POP JUMP JUMPDEST PUSH1 0x0 DUP2 SWAP1 POP SWAP2 SWAP1 POP JUMP JUMPDEST PUSH1 0x0 PUSH2 0x203B PUSH1 0x20 DUP5 ADD DUP5 PUSH2 0x18C8 JUMP JUMPDEST SWAP1 POP SWAP3 SWAP2 POP POP JUMP JUMPDEST PUSH1 0x0 PUSH1 0x20 DUP3 ADD SWAP1 POP SWAP2 SWAP1 POP JUMP JUMPDEST PUSH1 0x0 PUSH2 0x205C DUP4 DUP6 PUSH2 0x1E25 JUMP JUMPDEST SWAP4 POP PUSH2 0x2067 DUP3 PUSH2 0x2022 JUMP JUMPDEST DUP1 PUSH1 0x0 JUMPDEST DUP6 DUP2 LT ISZERO PUSH2 0x20A0 JUMPI PUSH2 0x207D DUP3 DUP5 PUSH2 0x202C JUMP JUMPDEST PUSH2 0x2087 DUP9 DUP3 PUSH2 0x1E55 JUMP JUMPDEST SWAP8 POP PUSH2 0x2092 DUP4 PUSH2 0x2043 JUMP JUMPDEST SWAP3 POP POP PUSH1 0x1 DUP2 ADD SWAP1 POP PUSH2 0x206B JUMP JUMPDEST POP DUP6 SWAP3 POP POP POP SWAP4 SWAP3 POP POP POP JUMP JUMPDEST PUSH1 0x0 PUSH1 0x60 DUP3 ADD SWAP1 POP PUSH2 0x20C2 PUSH1 0x0 DUP4 ADD DUP8 PUSH2 0x1E0B JUMP JUMPDEST PUSH2 0x20CF PUSH1 0x20 DUP4 ADD DUP7 PUSH2 0x1D83 JUMP JUMPDEST DUP2 DUP2 SUB PUSH1 0x40 DUP4 ADD MSTORE PUSH2 0x20E2 DUP2 DUP5 DUP7 PUSH2 0x2050 JUMP JUMPDEST SWAP1 POP SWAP6 SWAP5 POP POP POP POP POP JUMP JUMPDEST PUSH32 0x4E487B7100000000000000000000000000000000000000000000000000000000 PUSH1 0x0 MSTORE PUSH1 0x32 PUSH1 0x4 MSTORE PUSH1 0x24 PUSH1 0x0 REVERT JUMPDEST PUSH1 0x0 DUP3 DUP3 MSTORE PUSH1 0x20 DUP3 ADD SWAP1 POP SWAP3 SWAP2 POP POP JUMP JUMPDEST PUSH32 0x4B616A7573776170526F757465723A204558434553534956455F494E5055545F PUSH1 0x0 DUP3 ADD MSTORE PUSH32 0x414D4F554E540000000000000000000000000000000000000000000000000000 PUSH1 0x20 DUP3 ADD MSTORE POP JUMP JUMPDEST PUSH1 0x0 PUSH2 0x2189 PUSH1 0x26 DUP4 PUSH2 0x211C JUMP JUMPDEST SWAP2 POP PUSH2 0x2194 DUP3 PUSH2 0x212D JUMP JUMPDEST PUSH1 0x40 DUP3 ADD SWAP1 POP SWAP2 SWAP1 POP JUMP JUMPDEST PUSH1 0x0 PUSH1 0x20 DUP3 ADD SWAP1 POP DUP2 DUP2 SUB PUSH1 0x0 DUP4 ADD MSTORE PUSH2 0x21B8 DUP2 PUSH2 0x217C JUMP JUMPDEST SWAP1 POP SWAP2 SWAP1 POP JUMP JUMPDEST PUSH1 0x0 PUSH1 0x20 DUP3 DUP5 SUB SLT ISZERO PUSH2 0x21D5 JUMPI PUSH2 0x21D4 PUSH2 0x1700 JUMP JUMPDEST JUMPDEST PUSH1 0x0 PUSH2 0x21E3 DUP5 DUP3 DUP6 ADD PUSH2 0x18C8 JUMP JUMPDEST SWAP2 POP POP SWAP3 SWAP2 POP POP JUMP JUMPDEST PUSH32 0x4E487B7100000000000000000000000000000000000000000000000000000000 PUSH1 0x0 MSTORE PUSH1 0x11 PUSH1 0x4 MSTORE PUSH1 0x24 PUSH1 0x0 REVERT JUMPDEST PUSH1 0x0 PUSH2 0x2226 DUP3 PUSH2 0x170A JUMP JUMPDEST SWAP2 POP PUSH2 0x2231 DUP4 PUSH2 0x170A JUMP JUMPDEST SWAP3 POP DUP3 DUP3 LT ISZERO PUSH2 0x2244 JUMPI PUSH2 0x2243 PUSH2 0x21EC JUMP JUMPDEST JUMPDEST DUP3 DUP3 SUB SWAP1 POP SWAP3 SWAP2 POP POP JUMP JUMPDEST PUSH32 0x4B616A7573776170526F757465723A20494E53554646494349454E545F4F5554 PUSH1 0x0 DUP3 ADD MSTORE PUSH32 0x5055545F414D4F554E5400000000000000000000000000000000000000000000 PUSH1 0x20 DUP3 ADD MSTORE POP JUMP JUMPDEST PUSH1 0x0 PUSH2 0x22AB PUSH1 0x2A DUP4 PUSH2 0x211C JUMP JUMPDEST SWAP2 POP PUSH2 0x22B6 DUP3 PUSH2 0x224F JUMP JUMPDEST PUSH1 0x40 DUP3 ADD SWAP1 POP SWAP2 SWAP1 POP JUMP JUMPDEST PUSH1 0x0 PUSH1 0x20 DUP3 ADD SWAP1 POP DUP2 DUP2 SUB PUSH1 0x0 DUP4 ADD MSTORE PUSH2 0x22DA DUP2 PUSH2 0x229E JUMP JUMPDEST SWAP1 POP SWAP2 SWAP1 POP JUMP JUMPDEST PUSH1 0x0 PUSH1 0x60 DUP3 ADD SWAP1 POP PUSH2 0x22F6 PUSH1 0x0 DUP4 ADD DUP7 PUSH2 0x1AB0 JUMP JUMPDEST PUSH2 0x2303 PUSH1 0x20 DUP4 ADD DUP6 PUSH2 0x1AB0 JUMP JUMPDEST PUSH2 0x2310 PUSH1 0x40 DUP4 ADD DUP5 PUSH2 0x1793 JUMP JUMPDEST SWAP5 SWAP4 POP POP POP POP JUMP JUMPDEST PUSH1 0x0 DUP2 ISZERO ISZERO SWAP1 POP SWAP2 SWAP1 POP JUMP JUMPDEST PUSH2 0x232D DUP2 PUSH2 0x2318 JUMP JUMPDEST DUP2 EQ PUSH2 0x2338 JUMPI PUSH1 0x0 DUP1 REVERT JUMPDEST POP JUMP JUMPDEST PUSH1 0x0 DUP2 MLOAD SWAP1 POP PUSH2 0x234A DUP2 PUSH2 0x2324 JUMP JUMPDEST SWAP3 SWAP2 POP POP JUMP JUMPDEST PUSH1 0x0 PUSH1 0x20 DUP3 DUP5 SUB SLT ISZERO PUSH2 0x2366 JUMPI PUSH2 0x2365 PUSH2 0x1700 JUMP JUMPDEST JUMPDEST PUSH1 0x0 PUSH2 0x2374 DUP5 DUP3 DUP6 ADD PUSH2 0x233B JUMP JUMPDEST SWAP2 POP POP SWAP3 SWAP2 POP POP JUMP JUMPDEST PUSH1 0x0 DUP1 PUSH1 0x40 DUP4 DUP6 SUB SLT ISZERO PUSH2 0x2394 JUMPI PUSH2 0x2393 PUSH2 0x1700 JUMP JUMPDEST JUMPDEST PUSH1 0x0 PUSH2 0x23A2 DUP6 DUP3 DUP7 ADD PUSH2 0x1DC9 JUMP JUMPDEST SWAP3 POP POP PUSH1 0x20 PUSH2 0x23B3 DUP6 DUP3 DUP7 ADD PUSH2 0x1DC9 JUMP JUMPDEST SWAP2 POP POP SWAP3 POP SWAP3 SWAP1 POP JUMP JUMPDEST PUSH32 0x4B616A7573776170526F757465723A20494E53554646494349454E545F415F41 PUSH1 0x0 DUP3 ADD MSTORE PUSH32 0x4D4F554E54000000000000000000000000000000000000000000000000000000 PUSH1 0x20 DUP3 ADD MSTORE POP JUMP JUMPDEST PUSH1 0x0 PUSH2 0x2419 PUSH1 0x25 DUP4 PUSH2 0x211C JUMP JUMPDEST SWAP2 POP PUSH2 0x2424 DUP3 PUSH2 0x23BD JUMP JUMPDEST PUSH1 0x40 DUP3 ADD SWAP1 POP SWAP2 SWAP1 POP JUMP JUMPDEST PUSH1 0x0 PUSH1 0x20 DUP3 ADD SWAP1 POP DUP2 DUP2 SUB PUSH1 0x0 DUP4 ADD MSTORE PUSH2 0x2448 DUP2 PUSH2 0x240C JUMP JUMPDEST SWAP1 POP SWAP2 SWAP1 POP JUMP JUMPDEST PUSH32 0x4B616A7573776170526F757465723A20494E53554646494349454E545F425F41 PUSH1 0x0 DUP3 ADD MSTORE PUSH32 0x4D4F554E54000000000000000000000000000000000000000000000000000000 PUSH1 0x20 DUP3 ADD MSTORE POP JUMP JUMPDEST PUSH1 0x0 PUSH2 0x24AB PUSH1 0x25 DUP4 PUSH2 0x211C JUMP JUMPDEST SWAP2 POP PUSH2 0x24B6 DUP3 PUSH2 0x244F JUMP JUMPDEST PUSH1 0x40 DUP3 ADD SWAP1 POP SWAP2 SWAP1 POP JUMP JUMPDEST PUSH1 0x0 PUSH1 0x20 DUP3 ADD SWAP1 POP DUP2 DUP2 SUB PUSH1 0x0 DUP4 ADD MSTORE PUSH2 0x24DA DUP2 PUSH2 0x249E JUMP JUMPDEST SWAP1 POP SWAP2 SWAP1 POP JUMP JUMPDEST PUSH1 0x0 PUSH1 0x40 DUP3 ADD SWAP1 POP PUSH2 0x24F6 PUSH1 0x0 DUP4 ADD DUP6 PUSH2 0x1AB0 JUMP JUMPDEST PUSH2 0x2503 PUSH1 0x20 DUP4 ADD DUP5 PUSH2 0x1AB0 JUMP JUMPDEST SWAP4 SWAP3 POP POP POP JUMP JUMPDEST PUSH1 0x0 DUP2 MLOAD SWAP1 POP PUSH2 0x2519 DUP2 PUSH2 0x18B1 JUMP JUMPDEST SWAP3 SWAP2 POP POP JUMP JUMPDEST PUSH1 0x0 PUSH1 0x20 DUP3 DUP5 SUB SLT ISZERO PUSH2 0x2535 JUMPI PUSH2 0x2534 PUSH2 0x1700 JUMP JUMPDEST JUMPDEST PUSH1 0x0 PUSH2 0x2543 DUP5 DUP3 DUP6 ADD PUSH2 0x250A JUMP JUMPDEST SWAP2 POP POP SWAP3 SWAP2 POP POP JUMP JUMPDEST PUSH1 0x0 DUP2 PUSH1 0x60 SHL SWAP1 POP SWAP2 SWAP1 POP JUMP JUMPDEST PUSH1 0x0 PUSH2 0x2564 DUP3 PUSH2 0x254C JUMP JUMPDEST SWAP1 POP SWAP2 SWAP1 POP JUMP JUMPDEST PUSH1 0x0 PUSH2 0x2576 DUP3 PUSH2 0x2559 JUMP JUMPDEST SWAP1 POP SWAP2 SWAP1 POP JUMP JUMPDEST PUSH2 0x258E PUSH2 0x2589 DUP3 PUSH2 0x189F JUMP JUMPDEST PUSH2 0x256B JUMP JUMPDEST DUP3 MSTORE POP POP JUMP JUMPDEST PUSH1 0x0 PUSH2 0x25A0 DUP3 DUP6 PUSH2 0x257D JUMP JUMPDEST PUSH1 0x14 DUP3 ADD SWAP2 POP PUSH2 0x25B0 DUP3 DUP5 PUSH2 0x257D JUMP JUMPDEST PUSH1 0x14 DUP3 ADD SWAP2 POP DUP2 SWAP1 POP SWAP4 SWAP3 POP POP POP JUMP JUMPDEST PUSH1 0x0 DUP2 SWAP1 POP SWAP3 SWAP2 POP POP JUMP JUMPDEST PUSH32 0xFF00000000000000000000000000000000000000000000000000000000000000 PUSH1 0x0 DUP3 ADD MSTORE POP JUMP JUMPDEST PUSH1 0x0 PUSH2 0x2601 PUSH1 0x1 DUP4 PUSH2 0x25C0 JUMP JUMPDEST SWAP2 POP PUSH2 0x260C DUP3 PUSH2 0x25CB JUMP JUMPDEST PUSH1 0x1 DUP3 ADD SWAP1 POP SWAP2 SWAP1 POP JUMP JUMPDEST PUSH1 0x0 DUP2 SWAP1 POP SWAP2 SWAP1 POP JUMP JUMPDEST PUSH1 0x0 DUP2 SWAP1 POP SWAP2 SWAP1 POP JUMP JUMPDEST PUSH2 0x263C PUSH2 0x2637 DUP3 PUSH2 0x2617 JUMP JUMPDEST PUSH2 0x2621 JUMP JUMPDEST DUP3 MSTORE POP POP JUMP JUMPDEST PUSH32 0xB68FBBA50CEB1571C8D495EC425BA3B90ECE4D1440852FD428FDD1439CA5A1D8 PUSH1 0x0 DUP3 ADD MSTORE POP JUMP JUMPDEST PUSH1 0x0 PUSH2 0x2678 PUSH1 0x20 DUP4 PUSH2 0x25C0 JUMP JUMPDEST SWAP2 POP PUSH2 0x2683 DUP3 PUSH2 0x2642 JUMP JUMPDEST PUSH1 0x20 DUP3 ADD SWAP1 POP SWAP2 SWAP1 POP JUMP JUMPDEST PUSH1 0x0 PUSH2 0x2699 DUP3 PUSH2 0x25F4 JUMP JUMPDEST SWAP2 POP PUSH2 0x26A5 DUP3 DUP6 PUSH2 0x257D JUMP JUMPDEST PUSH1 0x14 DUP3 ADD SWAP2 POP PUSH2 0x26B5 DUP3 DUP5 PUSH2 0x262B JUMP JUMPDEST PUSH1 0x20 DUP3 ADD SWAP2 POP PUSH2 0x26C4 DUP3 PUSH2 0x266B JUMP JUMPDEST SWAP2 POP DUP2 SWAP1 POP SWAP4 SWAP3 POP POP POP JUMP JUMPDEST PUSH1 0x0 PUSH1 0x40 DUP3 ADD SWAP1 POP PUSH2 0x26E5 PUSH1 0x0 DUP4 ADD DUP6 PUSH2 0x1AB0 JUMP JUMPDEST PUSH2 0x26F2 PUSH1 0x20 DUP4 ADD DUP5 PUSH2 0x1793 JUMP JUMPDEST SWAP4 SWAP3 POP POP POP JUMP JUMPDEST PUSH1 0x0 DUP2 MLOAD SWAP1 POP SWAP2 SWAP1 POP JUMP JUMPDEST PUSH1 0x0 DUP2 SWAP1 POP SWAP3 SWAP2 POP POP JUMP JUMPDEST PUSH1 0x0 JUMPDEST DUP4 DUP2 LT ISZERO PUSH2 0x272D JUMPI DUP1 DUP3 ADD MLOAD DUP2 DUP5 ADD MSTORE PUSH1 0x20 DUP2 ADD SWAP1 POP PUSH2 0x2712 JUMP JUMPDEST DUP4 DUP2 GT ISZERO PUSH2 0x273C JUMPI PUSH1 0x0 DUP5 DUP5 ADD MSTORE JUMPDEST POP POP POP POP JUMP JUMPDEST PUSH1 0x0 PUSH2 0x274D DUP3 PUSH2 0x26F9 JUMP JUMPDEST PUSH2 0x2757 DUP2 DUP6 PUSH2 0x2704 JUMP JUMPDEST SWAP4 POP PUSH2 0x2767 DUP2 DUP6 PUSH1 0x20 DUP7 ADD PUSH2 0x270F JUMP JUMPDEST DUP1 DUP5 ADD SWAP2 POP POP SWAP3 SWAP2 POP POP JUMP JUMPDEST PUSH1 0x0 PUSH2 0x277F DUP3 DUP5 PUSH2 0x2742 JUMP JUMPDEST SWAP2 POP DUP2 SWAP1 POP SWAP3 SWAP2 POP POP JUMP JUMPDEST PUSH32 0x536166655472616E736665724661696C65640000000000000000000000000000 PUSH1 0x0 DUP3 ADD MSTORE POP JUMP JUMPDEST PUSH1 0x0 PUSH2 0x27C0 PUSH1 0x12 DUP4 PUSH2 0x211C JUMP JUMPDEST SWAP2 POP PUSH2 0x27CB DUP3 PUSH2 0x278A JUMP JUMPDEST PUSH1 0x20 DUP3 ADD SWAP1 POP SWAP2 SWAP1 POP JUMP JUMPDEST PUSH1 0x0 PUSH1 0x60 DUP3 ADD SWAP1 POP DUP2 DUP2 SUB PUSH1 0x0 DUP4 ADD MSTORE PUSH2 0x27EF DUP2 PUSH2 0x27B3 JUMP JUMPDEST SWAP1 POP PUSH2 0x27FE PUSH1 0x20 DUP4 ADD DUP6 PUSH2 0x1AB0 JUMP JUMPDEST PUSH2 0x280B PUSH1 0x40 DUP4 ADD DUP5 PUSH2 0x1AB0 JUMP JUMPDEST SWAP4 SWAP3 POP POP POP JUMP JUMPDEST PUSH1 0x0 PUSH2 0x281D DUP3 PUSH2 0x170A JUMP JUMPDEST SWAP2 POP PUSH2 0x2828 DUP4 PUSH2 0x170A JUMP JUMPDEST SWAP3 POP DUP3 PUSH32 0xFFFFFFFFFFFFFFFFFFFFFFFFFFFFFFFFFFFFFFFFFFFFFFFFFFFFFFFFFFFFFFFF SUB DUP3 GT ISZERO PUSH2 0x285D JUMPI PUSH2 0x285C PUSH2 0x21EC JUMP JUMPDEST JUMPDEST DUP3 DUP3 ADD SWAP1 POP SWAP3 SWAP2 POP POP JUMP JUMPDEST PUSH1 0x0 PUSH1 0x60 DUP3 ADD SWAP1 POP PUSH2 0x287D PUSH1 0x0 DUP4 ADD DUP7 PUSH2 0x1793 JUMP JUMPDEST PUSH2 0x288A PUSH1 0x20 DUP4 ADD DUP6 PUSH2 0x1793 JUMP JUMPDEST PUSH2 0x2897 PUSH1 0x40 DUP4 ADD DUP5 PUSH2 0x1AB0 JUMP JUMPDEST SWAP5 SWAP4 POP POP POP POP JUMP JUMPDEST PUSH1 0x0 PUSH2 0x28AA DUP3 PUSH2 0x170A JUMP JUMPDEST SWAP2 POP PUSH32 0xFFFFFFFFFFFFFFFFFFFFFFFFFFFFFFFFFFFFFFFFFFFFFFFFFFFFFFFFFFFFFFFF DUP3 SUB PUSH2 0x28DC JUMPI PUSH2 0x28DB PUSH2 0x21EC JUMP JUMPDEST JUMPDEST PUSH1 0x1 DUP3 ADD SWAP1 POP SWAP2 SWAP1 POP JUMP JUMPDEST PUSH1 0x0 PUSH1 0x60 DUP3 ADD SWAP1 POP PUSH2 0x28FC PUSH1 0x0 DUP4 ADD DUP7 PUSH2 0x1E0B JUMP JUMPDEST PUSH2 0x2909 PUSH1 0x20 DUP4 ADD DUP6 PUSH2 0x1E0B JUMP JUMPDEST PUSH2 0x2916 PUSH1 0x40 DUP4 ADD DUP5 PUSH2 0x1E0B JUMP JUMPDEST SWAP5 SWAP4 POP POP POP POP JUMP JUMPDEST PUSH32 0x4E487B7100000000000000000000000000000000000000000000000000000000 PUSH1 0x0 MSTORE PUSH1 0x1 PUSH1 0x4 MSTORE PUSH1 0x24 PUSH1 0x0 REVERT INVALID LOG2 PUSH5 0x6970667358 0x22 SLT KECCAK256 KECCAK256 0xB9 PUSH14 0x736112D7A838B9EC78BC198A7F87 0xEE 0xCA 0x22 SWAP13 0xE1 GT 0xB8 0xB0 ISZERO BLOCKHASH SHR 0xE6 0xD 0xDC GASPRICE PUSH5 0x736F6C6343 STOP ADDMOD 0xF STOP CALLER "
				},
				"gasEstimates": {
					"creation": {
						"codeDepositCost": "2125400",
						"executionCost": "infinite",
						"totalCost": "infinite"
					},
					"external": {
						"A()": "2602",
						"B()": "2581",
						"PA()": "2537",
						"addLiquidity(address,address,uint256,uint256,uint256,uint256,address)": "infinite",
						"getAmountIn(uint256,uint256,uint256)": "infinite",
						"getAmountOut(uint256,uint256,uint256)": "infinite",
						"getAmountsIn(uint256,address[])": "infinite",
						"getAmountsOut(uint256,address[])": "infinite",
						"giveAddressses()": "infinite",
						"quote(uint256,uint256,uint256)": "infinite",
						"removeLiquidity(address,address,uint256,uint256,uint256,address)": "infinite",
						"swapExactTokensForTokens(uint256,uint256,address[],address)": "infinite",
						"swapTokensForExactTokens(uint256,uint256,address[],address)": "infinite"
					},
					"internal": {
						"_calculateLiquidity(address,address,uint256,uint256,uint256,uint256)": "infinite",
						"_safeTransferFrom(address,address,uint256)": "infinite",
						"_swap(uint256[] memory,address[] memory,address)": "infinite"
					}
				},
				"methodIdentifiers": {
					"A()": "f446c1d0",
					"B()": "32e7c5bf",
					"PA()": "8434d01a",
					"addLiquidity(address,address,uint256,uint256,uint256,uint256,address)": "ca3d6539",
					"getAmountIn(uint256,uint256,uint256)": "85f8c259",
					"getAmountOut(uint256,uint256,uint256)": "054d50d4",
					"getAmountsIn(uint256,address[])": "1f00ca74",
					"getAmountsOut(uint256,address[])": "d06ca61f",
					"giveAddressses()": "26c2b1fb",
					"quote(uint256,uint256,uint256)": "ad615dec",
					"removeLiquidity(address,address,uint256,uint256,uint256,address)": "c0e3ee6b",
					"swapExactTokensForTokens(uint256,uint256,address[],address)": "472b43f3",
					"swapTokensForExactTokens(uint256,uint256,address[],address)": "42712a67"
				}
			},
			"storageLayout": {
				"storage": [
					{
						"astId": 466,
						"contract": "contracts/KajuswapRouter.sol:KajuswapRouter",
						"label": "factory",
						"offset": 0,
						"slot": "0",
						"type": "t_contract(IKajuswapFactory)1210"
					},
					{
						"astId": 468,
						"contract": "contracts/KajuswapRouter.sol:KajuswapRouter",
						"label": "PA",
						"offset": 0,
						"slot": "1",
						"type": "t_address"
					},
					{
						"astId": 470,
						"contract": "contracts/KajuswapRouter.sol:KajuswapRouter",
						"label": "A",
						"offset": 0,
						"slot": "2",
						"type": "t_address"
					},
					{
						"astId": 472,
						"contract": "contracts/KajuswapRouter.sol:KajuswapRouter",
						"label": "B",
						"offset": 0,
						"slot": "3",
						"type": "t_address"
					}
				],
				"types": {
					"t_address": {
						"encoding": "inplace",
						"label": "address",
						"numberOfBytes": "20"
					},
					"t_contract(IKajuswapFactory)1210": {
						"encoding": "inplace",
						"label": "contract IKajuswapFactory",
						"numberOfBytes": "20"
					}
				}
			},
			"userdoc": {
				"kind": "user",
				"methods": {},
				"version": 1
			}
		}
	}
}