{
	"data": {
		"bytecode": {
			"linkReferences": {
				"contracts/KajuswapLibrary.sol": {
					"KajuswapLibrary": [
						{
							"length": 20,
							"start": 1462
						},
						{
							"length": 20,
							"start": 1781
						},
						{
							"length": 20,
							"start": 2618
						},
						{
							"length": 20,
							"start": 2987
						},
						{
							"length": 20,
							"start": 3775
						},
						{
							"length": 20,
							"start": 4322
						},
						{
							"length": 20,
							"start": 5743
						},
						{
							"length": 20,
							"start": 5878
						},
						{
							"length": 20,
							"start": 7159
						},
						{
							"length": 20,
							"start": 8988
						},
						{
							"length": 20,
							"start": 9185
						},
						{
							"length": 20,
							"start": 9402
						}
					]
				}
			},
			"object": "60806040523480156200001157600080fd5b5060405162003aa238038062003aa283398181016040528101906200003791906200012a565b816000806101000a81548173ffffffffffffffffffffffffffffffffffffffff021916908373ffffffffffffffffffffffffffffffffffffffff16021790555080600160006101000a81548173ffffffffffffffffffffffffffffffffffffffff021916908373ffffffffffffffffffffffffffffffffffffffff160217905550505062000171565b600080fd5b600073ffffffffffffffffffffffffffffffffffffffff82169050919050565b6000620000f282620000c5565b9050919050565b6200010481620000e5565b81146200011057600080fd5b50565b6000815190506200012481620000f9565b92915050565b60008060408385031215620001445762000143620000c0565b5b6000620001548582860162000113565b9250506020620001678582860162000113565b9150509250929050565b61392180620001816000396000f3fe6080604052600436106100c65760003560e01c80636587e4ce1161007f578063ad615dec11610059578063ad615dec1461033a578063c0e3ee6b14610377578063ca3d6539146103b5578063d06ca61f146103f457610127565b80636587e4ce1461028d57806377215790146102cb57806385f8c259146102fd57610127565b8063054d50d41461012c57806312c6442f146101695780631f00ca7414610199578063363db5c6146101d657806342712a6714610213578063472b43f31461025057610127565b3661012757600160009054906101000a900473ffffffffffffffffffffffffffffffffffffffff1673ffffffffffffffffffffffffffffffffffffffff163373ffffffffffffffffffffffffffffffffffffffff161461012557600080fd5b005b600080fd5b34801561013857600080fd5b50610153600480360381019061014e91906124b9565b610431565b604051610160919061251b565b60405180910390f35b610183600480360381019061017e91906125f9565b6104b8565b604051610190919061272b565b60405180910390f35b3480156101a557600080fd5b506101c060048036038101906101bb919061289c565b6108b5565b6040516101cd919061272b565b60405180910390f35b3480156101e257600080fd5b506101fd60048036038101906101f891906128f8565b610960565b60405161020a919061272b565b60405180910390f35b34801561021f57600080fd5b5061023a600480360381019061023591906128f8565b610d3a565b604051610247919061272b565b60405180910390f35b34801561025c57600080fd5b50610277600480360381019061027291906128f8565b610f5d565b604051610284919061272b565b60405180910390f35b34801561029957600080fd5b506102b460048036038101906102af9190612980565b61118c565b6040516102c29291906129fb565b60405180910390f35b6102e560048036038101906102e09190612980565b611273565b6040516102f493929190612a24565b60405180910390f35b34801561030957600080fd5b50610324600480360381019061031f91906124b9565b6114ea565b604051610331919061251b565b60405180910390f35b34801561034657600080fd5b50610361600480360381019061035c91906124b9565b611571565b60405161036e919061251b565b60405180910390f35b34801561038357600080fd5b5061039e60048036038101906103999190612a5b565b6115f8565b6040516103ac9291906129fb565b60405180910390f35b3480156103c157600080fd5b506103dc60048036038101906103d79190612ae8565b6117c0565b6040516103eb93929190612a24565b60405180910390f35b34801561040057600080fd5b5061041b6004803603810190610416919061289c565b611a72565b604051610428919061272b565b60405180910390f35b600073__$18693c2782ae7b010cc3bd0449f436a789$__63054d50d48585856040518463ffffffff1660e01b815260040161046e93929190612b99565b602060405180830381865af415801561048b573d6000803e3d6000fd5b505050506040513d601f19601f820116820180604052508101906104af9190612be5565b90509392505050565b6060600160009054906101000a900473ffffffffffffffffffffffffffffffffffffffff1673ffffffffffffffffffffffffffffffffffffffff168484600081811061050757610506612c12565b5b905060200201602081019061051c9190612c41565b73ffffffffffffffffffffffffffffffffffffffff1614610572576040517f08c379a000000000000000000000000000000000000000000000000000000000815260040161056990612ccb565b60405180910390fd5b73__$18693c2782ae7b010cc3bd0449f436a789$__63bb7b9c7660008054906101000a900473ffffffffffffffffffffffffffffffffffffffff163487876040518563ffffffff1660e01b81526004016105cf9493929190612dbd565b600060405180830381865af41580156105ec573d6000803e3d6000fd5b505050506040513d6000823e3d601f19601f820116820180604052508101906106159190612ec0565b90508481600183516106279190612f38565b8151811061063857610637612c12565b5b60200260200101511015610681576040517f08c379a000000000000000000000000000000000000000000000000000000000815260040161067890612fde565b60405180910390fd5b600160009054906101000a900473ffffffffffffffffffffffffffffffffffffffff1673ffffffffffffffffffffffffffffffffffffffff1663d0e30db0826000815181106106d3576106d2612c12565b5b60200260200101516040518263ffffffff1660e01b81526004016000604051808303818588803b15801561070657600080fd5b505af115801561071a573d6000803e3d6000fd5b5050505050600160009054906101000a900473ffffffffffffffffffffffffffffffffffffffff1673ffffffffffffffffffffffffffffffffffffffff1663a9059cbb6107d860008054906101000a900473ffffffffffffffffffffffffffffffffffffffff168787600081811061079557610794612c12565b5b90506020020160208101906107aa9190612c41565b888860018181106107be576107bd612c12565b5b90506020020160208101906107d39190612c41565b611b1d565b836000815181106107ec576107eb612c12565b5b60200260200101516040518363ffffffff1660e01b815260040161081192919061300d565b6020604051808303816000875af1158015610830573d6000803e3d6000fd5b505050506040513d601f19601f82011682018060405250810190610854919061306e565b6108615761086061309b565b5b6108ad81858580806020026020016040519081016040528093929190818152602001838360200280828437600081840152601f19601f8201169050808301925050505050505084611b8f565b949350505050565b606073__$18693c2782ae7b010cc3bd0449f436a789$__63192128b260008054906101000a900473ffffffffffffffffffffffffffffffffffffffff1685856040518463ffffffff1660e01b815260040161091293929190613150565b600060405180830381865af415801561092f573d6000803e3d6000fd5b505050506040513d6000823e3d601f19601f820116820180604052508101906109589190612ec0565b905092915050565b6060600160009054906101000a900473ffffffffffffffffffffffffffffffffffffffff1673ffffffffffffffffffffffffffffffffffffffff1684846001878790506109ad9190612f38565b8181106109bd576109bc612c12565b5b90506020020160208101906109d29190612c41565b73ffffffffffffffffffffffffffffffffffffffff1614610a28576040517f08c379a0000000000000000000000000000000000000000000000000000000008152600401610a1f90612ccb565b60405180910390fd5b73__$18693c2782ae7b010cc3bd0449f436a789$__63bb7b9c7660008054906101000a900473ffffffffffffffffffffffffffffffffffffffff168887876040518563ffffffff1660e01b8152600401610a859493929190612dbd565b600060405180830381865af4158015610aa2573d6000803e3d6000fd5b505050506040513d6000823e3d601f19601f82011682018060405250810190610acb9190612ec0565b9050848160018351610add9190612f38565b81518110610aee57610aed612c12565b5b60200260200101511015610b37576040517f08c379a0000000000000000000000000000000000000000000000000000000008152600401610b2e90612fde565b60405180910390fd5b610c0084846000818110610b4e57610b4d612c12565b5b9050602002016020810190610b639190612c41565b33610bdf60008054906101000a900473ffffffffffffffffffffffffffffffffffffffff1688886000818110610b9c57610b9b612c12565b5b9050602002016020810190610bb19190612c41565b89896001818110610bc557610bc4612c12565b5b9050602002016020810190610bda9190612c41565b611b1d565b84600081518110610bf357610bf2612c12565b5b6020026020010151611d99565b610c4c81858580806020026020016040519081016040528093929190818152602001838360200280828437600081840152601f19601f8201169050808301925050505050505030611b8f565b600160009054906101000a900473ffffffffffffffffffffffffffffffffffffffff1673ffffffffffffffffffffffffffffffffffffffff16632e1a7d4d8260018451610c999190612f38565b81518110610caa57610ca9612c12565b5b60200260200101516040518263ffffffff1660e01b8152600401610cce919061251b565b600060405180830381600087803b158015610ce857600080fd5b505af1158015610cfc573d6000803e3d6000fd5b50505050610d31828260018451610d139190612f38565b81518110610d2457610d23612c12565b5b6020026020010151611f09565b95945050505050565b606073__$18693c2782ae7b010cc3bd0449f436a789$__63192128b260008054906101000a900473ffffffffffffffffffffffffffffffffffffffff168887876040518563ffffffff1660e01b8152600401610d999493929190612dbd565b600060405180830381865af4158015610db6573d6000803e3d6000fd5b505050506040513d6000823e3d601f19601f82011682018060405250810190610ddf9190612ec0565b90508481600081518110610df657610df5612c12565b5b60200260200101511115610e3f576040517f08c379a0000000000000000000000000000000000000000000000000000000008152600401610e3690613200565b60405180910390fd5b610f0884846000818110610e5657610e55612c12565b5b9050602002016020810190610e6b9190612c41565b33610ee760008054906101000a900473ffffffffffffffffffffffffffffffffffffffff1688886000818110610ea457610ea3612c12565b5b9050602002016020810190610eb99190612c41565b89896001818110610ecd57610ecc612c12565b5b9050602002016020810190610ee29190612c41565b611b1d565b84600081518110610efb57610efa612c12565b5b6020026020010151611d99565b610f5481858580806020026020016040519081016040528093929190818152602001838360200280828437600081840152601f19601f8201169050808301925050505050505084611b8f565b95945050505050565b606073__$18693c2782ae7b010cc3bd0449f436a789$__63bb7b9c7660008054906101000a900473ffffffffffffffffffffffffffffffffffffffff168887876040518563ffffffff1660e01b8152600401610fbc9493929190612dbd565b600060405180830381865af4158015610fd9573d6000803e3d6000fd5b505050506040513d6000823e3d601f19601f820116820180604052508101906110029190612ec0565b90508481600183516110149190612f38565b8151811061102557611024612c12565b5b6020026020010151101561106e576040517f08c379a000000000000000000000000000000000000000000000000000000000815260040161106590612fde565b60405180910390fd5b6111378484600081811061108557611084612c12565b5b905060200201602081019061109a9190612c41565b3361111660008054906101000a900473ffffffffffffffffffffffffffffffffffffffff16888860008181106110d3576110d2612c12565b5b90506020020160208101906110e89190612c41565b898960018181106110fc576110fb612c12565b5b90506020020160208101906111119190612c41565b611b1d565b8460008151811061112a57611129612c12565b5b6020026020010151611d99565b61118381858580806020026020016040519081016040528093929190818152602001838360200280828437600081840152601f19601f8201169050808301925050505050505084611b8f565b95945050505050565b6000806111bf87600160009054906101000a900473ffffffffffffffffffffffffffffffffffffffff16888888306115f8565b80925081935050506111d2878484612009565b600160009054906101000a900473ffffffffffffffffffffffffffffffffffffffff1673ffffffffffffffffffffffffffffffffffffffff16632e1a7d4d826040518263ffffffff1660e01b815260040161122d919061251b565b600060405180830381600087803b15801561124757600080fd5b505af115801561125b573d6000803e3d6000fd5b505050506112698382611f09565b9550959350505050565b60008060006112a988600160009054906101000a900473ffffffffffffffffffffffffffffffffffffffff1689348a8a8a6117c0565b809350819450829550505050600061130460008054906101000a900473ffffffffffffffffffffffffffffffffffffffff168a600160009054906101000a900473ffffffffffffffffffffffffffffffffffffffff16611b1d565b905061131289338387611d99565b600160009054906101000a900473ffffffffffffffffffffffffffffffffffffffff1673ffffffffffffffffffffffffffffffffffffffff1663d0e30db0846040518263ffffffff1660e01b81526004016000604051808303818588803b15801561137c57600080fd5b505af1158015611390573d6000803e3d6000fd5b5050505050600160009054906101000a900473ffffffffffffffffffffffffffffffffffffffff1673ffffffffffffffffffffffffffffffffffffffff1663a9059cbb82856040518363ffffffff1660e01b81526004016113f292919061300d565b6020604051808303816000875af1158015611411573d6000803e3d6000fd5b505050506040513d601f19601f82011682018060405250810190611435919061306e565b6114425761144161309b565b5b8073ffffffffffffffffffffffffffffffffffffffff16636a627842866040518263ffffffff1660e01b815260040161147b9190613220565b6020604051808303816000875af115801561149a573d6000803e3d6000fd5b505050506040513d601f19601f820116820180604052508101906114be9190612be5565b9150823411156114de576114dd3384346114d89190612f38565b611f09565b5b50955095509592505050565b600073__$18693c2782ae7b010cc3bd0449f436a789$__6385f8c2598585856040518463ffffffff1660e01b815260040161152793929190612b99565b602060405180830381865af4158015611544573d6000803e3d6000fd5b505050506040513d601f19601f820116820180604052508101906115689190612be5565b90509392505050565b600073__$18693c2782ae7b010cc3bd0449f436a789$__63ad615dec8585856040518463ffffffff1660e01b81526004016115ae93929190612b99565b602060405180830381865af41580156115cb573d6000803e3d6000fd5b505050506040513d601f19601f820116820180604052508101906115ef9190612be5565b90509392505050565b600080600061162860008054906101000a900473ffffffffffffffffffffffffffffffffffffffff168a8a611b1d565b90508073ffffffffffffffffffffffffffffffffffffffff166323b872dd33838a6040518463ffffffff1660e01b81526004016116679392919061323b565b6020604051808303816000875af1158015611686573d6000803e3d6000fd5b505050506040513d601f19601f820116820180604052508101906116aa919061306e565b508073ffffffffffffffffffffffffffffffffffffffff166389afcb44856040518263ffffffff1660e01b81526004016116e49190613220565b60408051808303816000875af1158015611702573d6000803e3d6000fd5b505050506040513d601f19601f820116820180604052508101906117269190613272565b809350819450505085831015611771576040517f08c379a000000000000000000000000000000000000000000000000000000000815260040161176890613324565b60405180910390fd5b848210156117b4576040517f08c379a00000000000000000000000000000000000000000000000000000000081526004016117ab906133b6565b60405180910390fd5b50965096945050505050565b60008060008073ffffffffffffffffffffffffffffffffffffffff1660008054906101000a900473ffffffffffffffffffffffffffffffffffffffff1673ffffffffffffffffffffffffffffffffffffffff166369454b868c8c6040518363ffffffff1660e01b81526004016118379291906133d6565b602060405180830381865afa158015611854573d6000803e3d6000fd5b505050506040513d601f19601f820116820180604052508101906118789190613414565b73ffffffffffffffffffffffffffffffffffffffff16036119335760008054906101000a900473ffffffffffffffffffffffffffffffffffffffff1673ffffffffffffffffffffffffffffffffffffffff1663c9c653968b8b6040518363ffffffff1660e01b81526004016118ee9291906133d6565b6020604051808303816000875af115801561190d573d6000803e3d6000fd5b505050506040513d601f19601f820116820180604052508101906119319190613414565b505b6119418a8a8a8a8a8a612193565b8093508194505050600160009054906101000a900473ffffffffffffffffffffffffffffffffffffffff1673ffffffffffffffffffffffffffffffffffffffff168973ffffffffffffffffffffffffffffffffffffffff1614611a655760006119cb60008054906101000a900473ffffffffffffffffffffffffffffffffffffffff168c8c611b1d565b90506119d98b338387611d99565b6119e58a338386611d99565b8073ffffffffffffffffffffffffffffffffffffffff16636a627842866040518263ffffffff1660e01b8152600401611a1e9190613220565b6020604051808303816000875af1158015611a3d573d6000803e3d6000fd5b505050506040513d601f19601f82011682018060405250810190611a619190612be5565b9150505b9750975097945050505050565b606073__$18693c2782ae7b010cc3bd0449f436a789$__63bb7b9c7660008054906101000a900473ffffffffffffffffffffffffffffffffffffffff1685856040518463ffffffff1660e01b8152600401611acf93929190613150565b600060405180830381865af4158015611aec573d6000803e3d6000fd5b505050506040513d6000823e3d601f19601f82011682018060405250810190611b159190612ec0565b905092915050565b6000806000611b2c8585612424565b91509150858282604051602001611b44929190613489565b60405160208183030381529060405280519060200120604051602001611b6b929190613582565b6040516020818303038152906040528051906020012060001c925050509392505050565b60005b60018351611ba09190612f38565b811015611d9357600080848381518110611bbd57611bbc612c12565b5b602002602001015185600185611bd391906135c4565b81518110611be457611be3612c12565b5b6020026020010151915091506000611bfc8383612424565b509050600087600186611c0f91906135c4565b81518110611c2057611c1f612c12565b5b602002602001015190506000808373ffffffffffffffffffffffffffffffffffffffff168673ffffffffffffffffffffffffffffffffffffffff1614611c6857826000611c6c565b6000835b91509150600060028a51611c809190612f38565b8810611c8c5788611cde565b611cdd60008054906101000a900473ffffffffffffffffffffffffffffffffffffffff16878c60028c611cbf91906135c4565b81518110611cd057611ccf612c12565b5b6020026020010151611b1d565b5b9050611d0b60008054906101000a900473ffffffffffffffffffffffffffffffffffffffff168888611b1d565b73ffffffffffffffffffffffffffffffffffffffff16636d9a640a8484846040518463ffffffff1660e01b8152600401611d47939291906135f8565b600060405180830381600087803b158015611d6157600080fd5b505af1158015611d75573d6000803e3d6000fd5b50505050505050505050508080611d8b9061362f565b915050611b92565b50505050565b6000808573ffffffffffffffffffffffffffffffffffffffff166040518060600160405280602581526020016138c76025913980519060200120868686604051602401611de89392919061323b565b604051602081830303815290604052907bffffffffffffffffffffffffffffffffffffffffffffffffffffffff19166020820180517bffffffffffffffffffffffffffffffffffffffffffffffffffffffff8381831617835250505050604051611e5291906136e8565b6000604051808303816000865af19150503d8060008114611e8f576040519150601f19603f3d011682016040523d82523d6000602084013e611e94565b606091505b5091509150818015611ec25750600081511480611ec1575080806020019051810190611ec0919061306e565b5b5b611f01576040517f08c379a0000000000000000000000000000000000000000000000000000000008152600401611ef89061374b565b60405180910390fd5b505050505050565b60008273ffffffffffffffffffffffffffffffffffffffff1682600067ffffffffffffffff811115611f3e57611f3d61275e565b5b6040519080825280601f01601f191660200182016040528015611f705781602001600182028036833780820191505090505b50604051611f7e91906136e8565b60006040518083038185875af1925050503d8060008114611fbb576040519150601f19603f3d011682016040523d82523d6000602084013e611fc0565b606091505b5050905080612004576040517f08c379a0000000000000000000000000000000000000000000000000000000008152600401611ffb906137dd565b60405180910390fd5b505050565b6000808473ffffffffffffffffffffffffffffffffffffffff166040518060400160405280601981526020017f7472616e7366657228616464726573732c75696e74323536290000000000000081525080519060200120858560405160240161207392919061300d565b604051602081830303815290604052907bffffffffffffffffffffffffffffffffffffffffffffffffffffffff19166020820180517bffffffffffffffffffffffffffffffffffffffffffffffffffffffff83818316178352505050506040516120dd91906136e8565b6000604051808303816000865af19150503d806000811461211a576040519150601f19603f3d011682016040523d82523d6000602084013e61211f565b606091505b509150915081801561214d575060008151148061214c57508080602001905181019061214b919061306e565b5b5b61218c576040517f08c379a00000000000000000000000000000000000000000000000000000000081526004016121839061386f565b60405180910390fd5b5050505050565b60008060008073__$18693c2782ae7b010cc3bd0449f436a789$__633274946160008054906101000a900473ffffffffffffffffffffffffffffffffffffffff168c8c6040518463ffffffff1660e01b81526004016121f49392919061388f565b6040805180830381865af4158015612210573d6000803e3d6000fd5b505050506040513d601f19601f820116820180604052508101906122349190613272565b915091506000821480156122485750600081145b1561225c5787878094508195505050612417565b600073__$18693c2782ae7b010cc3bd0449f436a789$__63ad615dec8a85856040518463ffffffff1660e01b815260040161229993929190612b99565b602060405180830381865af41580156122b6573d6000803e3d6000fd5b505050506040513d601f19601f820116820180604052508101906122da9190612be5565b90508781116123355785811015612326576040517f08c379a000000000000000000000000000000000000000000000000000000000815260040161231d906133b6565b60405180910390fd5b88818095508196505050612415565b600073__$18693c2782ae7b010cc3bd0449f436a789$__63ad615dec8a85876040518463ffffffff1660e01b815260040161237293929190612b99565b602060405180830381865af415801561238f573d6000803e3d6000fd5b505050506040513d601f19601f820116820180604052508101906123b39190612be5565b9050898111156123c6576123c561309b565b5b87811015612409576040517f08c379a000000000000000000000000000000000000000000000000000000000815260040161240090613324565b60405180910390fd5b80898096508197505050505b505b5050965096945050505050565b6000808273ffffffffffffffffffffffffffffffffffffffff168473ffffffffffffffffffffffffffffffffffffffff1610612461578284612464565b83835b915091509250929050565b6000604051905090565b600080fd5b600080fd5b6000819050919050565b61249681612483565b81146124a157600080fd5b50565b6000813590506124b38161248d565b92915050565b6000806000606084860312156124d2576124d1612479565b5b60006124e0868287016124a4565b93505060206124f1868287016124a4565b9250506040612502868287016124a4565b9150509250925092565b61251581612483565b82525050565b6000602082019050612530600083018461250c565b92915050565b600080fd5b600080fd5b600080fd5b60008083601f84011261255b5761255a612536565b5b8235905067ffffffffffffffff8111156125785761257761253b565b5b60208301915083602082028301111561259457612593612540565b5b9250929050565b600073ffffffffffffffffffffffffffffffffffffffff82169050919050565b60006125c68261259b565b9050919050565b6125d6816125bb565b81146125e157600080fd5b50565b6000813590506125f3816125cd565b92915050565b6000806000806060858703121561261357612612612479565b5b6000612621878288016124a4565b945050602085013567ffffffffffffffff8111156126425761264161247e565b5b61264e87828801612545565b93509350506040612661878288016125e4565b91505092959194509250565b600081519050919050565b600082825260208201905092915050565b6000819050602082019050919050565b6126a281612483565b82525050565b60006126b48383612699565b60208301905092915050565b6000602082019050919050565b60006126d88261266d565b6126e28185612678565b93506126ed83612689565b8060005b8381101561271e57815161270588826126a8565b9750612710836126c0565b9250506001810190506126f1565b5085935050505092915050565b6000602082019050818103600083015261274581846126cd565b905092915050565b6000601f19601f8301169050919050565b7f4e487b7100000000000000000000000000000000000000000000000000000000600052604160045260246000fd5b6127968261274d565b810181811067ffffffffffffffff821117156127b5576127b461275e565b5b80604052505050565b60006127c861246f565b90506127d4828261278d565b919050565b600067ffffffffffffffff8211156127f4576127f361275e565b5b602082029050602081019050919050565b6000612818612813846127d9565b6127be565b9050808382526020820190506020840283018581111561283b5761283a612540565b5b835b81811015612864578061285088826125e4565b84526020840193505060208101905061283d565b5050509392505050565b600082601f83011261288357612882612536565b5b8135612893848260208601612805565b91505092915050565b600080604083850312156128b3576128b2612479565b5b60006128c1858286016124a4565b925050602083013567ffffffffffffffff8111156128e2576128e161247e565b5b6128ee8582860161286e565b9150509250929050565b60008060008060006080868803121561291457612913612479565b5b6000612922888289016124a4565b9550506020612933888289016124a4565b945050604086013567ffffffffffffffff8111156129545761295361247e565b5b61296088828901612545565b93509350506060612973888289016125e4565b9150509295509295909350565b600080600080600060a0868803121561299c5761299b612479565b5b60006129aa888289016125e4565b95505060206129bb888289016124a4565b94505060406129cc888289016124a4565b93505060606129dd888289016124a4565b92505060806129ee888289016125e4565b9150509295509295909350565b6000604082019050612a10600083018561250c565b612a1d602083018461250c565b9392505050565b6000606082019050612a39600083018661250c565b612a46602083018561250c565b612a53604083018461250c565b949350505050565b60008060008060008060c08789031215612a7857612a77612479565b5b6000612a8689828a016125e4565b9650506020612a9789828a016125e4565b9550506040612aa889828a016124a4565b9450506060612ab989828a016124a4565b9350506080612aca89828a016124a4565b92505060a0612adb89828a016125e4565b9150509295509295509295565b600080600080600080600060e0888a031215612b0757612b06612479565b5b6000612b158a828b016125e4565b9750506020612b268a828b016125e4565b9650506040612b378a828b016124a4565b9550506060612b488a828b016124a4565b9450506080612b598a828b016124a4565b93505060a0612b6a8a828b016124a4565b92505060c0612b7b8a828b016125e4565b91505092959891949750929550565b612b9381612483565b82525050565b6000606082019050612bae6000830186612b8a565b612bbb6020830185612b8a565b612bc86040830184612b8a565b949350505050565b600081519050612bdf8161248d565b92915050565b600060208284031215612bfb57612bfa612479565b5b6000612c0984828501612bd0565b91505092915050565b7f4e487b7100000000000000000000000000000000000000000000000000000000600052603260045260246000fd5b600060208284031215612c5757612c56612479565b5b6000612c65848285016125e4565b91505092915050565b600082825260208201905092915050565b7f4b616a7573776170526f757465723a20494e56414c49445f5041544800000000600082015250565b6000612cb5601c83612c6e565b9150612cc082612c7f565b602082019050919050565b60006020820190508181036000830152612ce481612ca8565b9050919050565b612cf4816125bb565b82525050565b600082825260208201905092915050565b6000819050919050565b612d1e816125bb565b82525050565b6000612d308383612d15565b60208301905092915050565b6000612d4b60208401846125e4565b905092915050565b6000602082019050919050565b6000612d6c8385612cfa565b9350612d7782612d0b565b8060005b85811015612db057612d8d8284612d3c565b612d978882612d24565b9750612da283612d53565b925050600181019050612d7b565b5085925050509392505050565b6000606082019050612dd26000830187612ceb565b612ddf6020830186612b8a565b8181036040830152612df2818486612d60565b905095945050505050565b600067ffffffffffffffff821115612e1857612e1761275e565b5b602082029050602081019050919050565b6000612e3c612e3784612dfd565b6127be565b90508083825260208201905060208402830185811115612e5f57612e5e612540565b5b835b81811015612e885780612e748882612bd0565b845260208401935050602081019050612e61565b5050509392505050565b600082601f830112612ea757612ea6612536565b5b8151612eb7848260208601612e29565b91505092915050565b600060208284031215612ed657612ed5612479565b5b600082015167ffffffffffffffff811115612ef457612ef361247e565b5b612f0084828501612e92565b91505092915050565b7f4e487b7100000000000000000000000000000000000000000000000000000000600052601160045260246000fd5b6000612f4382612483565b9150612f4e83612483565b9250828203905081811115612f6657612f65612f09565b5b92915050565b7f4b616a7573776170526f757465723a20494e53554646494349454e545f4f555460008201527f5055545f414d4f554e5400000000000000000000000000000000000000000000602082015250565b6000612fc8602a83612c6e565b9150612fd382612f6c565b604082019050919050565b60006020820190508181036000830152612ff781612fbb565b9050919050565b613007816125bb565b82525050565b60006040820190506130226000830185612ffe565b61302f602083018461250c565b9392505050565b60008115159050919050565b61304b81613036565b811461305657600080fd5b50565b60008151905061306881613042565b92915050565b60006020828403121561308457613083612479565b5b600061309284828501613059565b91505092915050565b7f4e487b7100000000000000000000000000000000000000000000000000000000600052600160045260246000fd5b600081519050919050565b6000819050602082019050919050565b6000602082019050919050565b60006130fd826130ca565b6131078185612cfa565b9350613112836130d5565b8060005b8381101561314357815161312a8882612d24565b9750613135836130e5565b925050600181019050613116565b5085935050505092915050565b60006060820190506131656000830186612ceb565b6131726020830185612b8a565b818103604083015261318481846130f2565b9050949350505050565b7f4b616a7573776170526f757465723a204558434553534956455f494e5055545f60008201527f414d4f554e540000000000000000000000000000000000000000000000000000602082015250565b60006131ea602683612c6e565b91506131f58261318e565b604082019050919050565b60006020820190508181036000830152613219816131dd565b9050919050565b60006020820190506132356000830184612ffe565b92915050565b60006060820190506132506000830186612ffe565b61325d6020830185612ffe565b61326a604083018461250c565b949350505050565b6000806040838503121561328957613288612479565b5b600061329785828601612bd0565b92505060206132a885828601612bd0565b9150509250929050565b7f4b616a7573776170526f757465723a20494e53554646494349454e545f415f4160008201527f4d4f554e54000000000000000000000000000000000000000000000000000000602082015250565b600061330e602583612c6e565b9150613319826132b2565b604082019050919050565b6000602082019050818103600083015261333d81613301565b9050919050565b7f4b616a7573776170526f757465723a20494e53554646494349454e545f425f4160008201527f4d4f554e54000000000000000000000000000000000000000000000000000000602082015250565b60006133a0602583612c6e565b91506133ab82613344565b604082019050919050565b600060208201905081810360008301526133cf81613393565b9050919050565b60006040820190506133eb6000830185612ffe565b6133f86020830184612ffe565b9392505050565b60008151905061340e816125cd565b92915050565b60006020828403121561342a57613429612479565b5b6000613438848285016133ff565b91505092915050565b60008160601b9050919050565b600061345982613441565b9050919050565b600061346b8261344e565b9050919050565b61348361347e826125bb565b613460565b82525050565b60006134958285613472565b6014820191506134a58284613472565b6014820191508190509392505050565b600081905092915050565b7fff00000000000000000000000000000000000000000000000000000000000000600082015250565b60006134f66001836134b5565b9150613501826134c0565b600182019050919050565b6000819050919050565b6000819050919050565b61353161352c8261350c565b613516565b82525050565b7eb94bc5bff565db42203d34114a58e1896436dae13b989f9ff92fe211b10630600082015250565b600061356c6020836134b5565b915061357782613537565b602082019050919050565b600061358d826134e9565b91506135998285613472565b6014820191506135a98284613520565b6020820191506135b88261355f565b91508190509392505050565b60006135cf82612483565b91506135da83612483565b92508282019050808211156135f2576135f1612f09565b5b92915050565b600060608201905061360d600083018661250c565b61361a602083018561250c565b6136276040830184612ffe565b949350505050565b600061363a82612483565b91507fffffffffffffffffffffffffffffffffffffffffffffffffffffffffffffffff820361366c5761366b612f09565b5b600182019050919050565b600081519050919050565b600081905092915050565b60005b838110156136ab578082015181840152602081019050613690565b60008484015250505050565b60006136c282613677565b6136cc8185613682565b93506136dc81856020860161368d565b80840191505092915050565b60006136f482846136b7565b915081905092915050565b7f4b616a75737761703a205452414e534645525f4641494c454400000000000000600082015250565b6000613735601983612c6e565b9150613740826136ff565b602082019050919050565b6000602082019050818103600083015261376481613728565b9050919050565b7f4b616a75737761703a3a736166655472616e736665724554483a20455448205460008201527f52414e534645525f4641494c4544000000000000000000000000000000000000602082015250565b60006137c7602e83612c6e565b91506137d28261376b565b604082019050919050565b600060208201905081810360008301526137f6816137ba565b9050919050565b7f4b616a75737761703a3a736166655472616e736665723a205452414e5346455260008201527f5f4641494c454400000000000000000000000000000000000000000000000000602082015250565b6000613859602783612c6e565b9150613864826137fd565b604082019050919050565b600060208201905081810360008301526138888161384c565b9050919050565b60006060820190506138a46000830186612ceb565b6138b16020830185612ceb565b6138be6040830184612ceb565b94935050505056fe7472616e7366657246726f6d28616464726573732c616464726573732c75696e7432353629a2646970667358221220ee335253ae01de02e6722c43708e551c35683c4b443a2cfd8b220d9e208e78f064736f6c63430008110033",
			"opcodes": "PUSH1 0x80 PUSH1 0x40 MSTORE CALLVALUE DUP1 ISZERO PUSH3 0x11 JUMPI PUSH1 0x0 DUP1 REVERT JUMPDEST POP PUSH1 0x40 MLOAD PUSH3 0x3AA2 CODESIZE SUB DUP1 PUSH3 0x3AA2 DUP4 CODECOPY DUP2 DUP2 ADD PUSH1 0x40 MSTORE DUP2 ADD SWAP1 PUSH3 0x37 SWAP2 SWAP1 PUSH3 0x12A JUMP JUMPDEST DUP2 PUSH1 0x0 DUP1 PUSH2 0x100 EXP DUP2 SLOAD DUP2 PUSH20 0xFFFFFFFFFFFFFFFFFFFFFFFFFFFFFFFFFFFFFFFF MUL NOT AND SWAP1 DUP4 PUSH20 0xFFFFFFFFFFFFFFFFFFFFFFFFFFFFFFFFFFFFFFFF AND MUL OR SWAP1 SSTORE POP DUP1 PUSH1 0x1 PUSH1 0x0 PUSH2 0x100 EXP DUP2 SLOAD DUP2 PUSH20 0xFFFFFFFFFFFFFFFFFFFFFFFFFFFFFFFFFFFFFFFF MUL NOT AND SWAP1 DUP4 PUSH20 0xFFFFFFFFFFFFFFFFFFFFFFFFFFFFFFFFFFFFFFFF AND MUL OR SWAP1 SSTORE POP POP POP PUSH3 0x171 JUMP JUMPDEST PUSH1 0x0 DUP1 REVERT JUMPDEST PUSH1 0x0 PUSH20 0xFFFFFFFFFFFFFFFFFFFFFFFFFFFFFFFFFFFFFFFF DUP3 AND SWAP1 POP SWAP2 SWAP1 POP JUMP JUMPDEST PUSH1 0x0 PUSH3 0xF2 DUP3 PUSH3 0xC5 JUMP JUMPDEST SWAP1 POP SWAP2 SWAP1 POP JUMP JUMPDEST PUSH3 0x104 DUP2 PUSH3 0xE5 JUMP JUMPDEST DUP2 EQ PUSH3 0x110 JUMPI PUSH1 0x0 DUP1 REVERT JUMPDEST POP JUMP JUMPDEST PUSH1 0x0 DUP2 MLOAD SWAP1 POP PUSH3 0x124 DUP2 PUSH3 0xF9 JUMP JUMPDEST SWAP3 SWAP2 POP POP JUMP JUMPDEST PUSH1 0x0 DUP1 PUSH1 0x40 DUP4 DUP6 SUB SLT ISZERO PUSH3 0x144 JUMPI PUSH3 0x143 PUSH3 0xC0 JUMP JUMPDEST JUMPDEST PUSH1 0x0 PUSH3 0x154 DUP6 DUP3 DUP7 ADD PUSH3 0x113 JUMP JUMPDEST SWAP3 POP POP PUSH1 0x20 PUSH3 0x167 DUP6 DUP3 DUP7 ADD PUSH3 0x113 JUMP JUMPDEST SWAP2 POP POP SWAP3 POP SWAP3 SWAP1 POP JUMP JUMPDEST PUSH2 0x3921 DUP1 PUSH3 0x181 PUSH1 0x0 CODECOPY PUSH1 0x0 RETURN INVALID PUSH1 0x80 PUSH1 0x40 MSTORE PUSH1 0x4 CALLDATASIZE LT PUSH2 0xC6 JUMPI PUSH1 0x0 CALLDATALOAD PUSH1 0xE0 SHR DUP1 PUSH4 0x6587E4CE GT PUSH2 0x7F JUMPI DUP1 PUSH4 0xAD615DEC GT PUSH2 0x59 JUMPI DUP1 PUSH4 0xAD615DEC EQ PUSH2 0x33A JUMPI DUP1 PUSH4 0xC0E3EE6B EQ PUSH2 0x377 JUMPI DUP1 PUSH4 0xCA3D6539 EQ PUSH2 0x3B5 JUMPI DUP1 PUSH4 0xD06CA61F EQ PUSH2 0x3F4 JUMPI PUSH2 0x127 JUMP JUMPDEST DUP1 PUSH4 0x6587E4CE EQ PUSH2 0x28D JUMPI DUP1 PUSH4 0x77215790 EQ PUSH2 0x2CB JUMPI DUP1 PUSH4 0x85F8C259 EQ PUSH2 0x2FD JUMPI PUSH2 0x127 JUMP JUMPDEST DUP1 PUSH4 0x54D50D4 EQ PUSH2 0x12C JUMPI DUP1 PUSH4 0x12C6442F EQ PUSH2 0x169 JUMPI DUP1 PUSH4 0x1F00CA74 EQ PUSH2 0x199 JUMPI DUP1 PUSH4 0x363DB5C6 EQ PUSH2 0x1D6 JUMPI DUP1 PUSH4 0x42712A67 EQ PUSH2 0x213 JUMPI DUP1 PUSH4 0x472B43F3 EQ PUSH2 0x250 JUMPI PUSH2 0x127 JUMP JUMPDEST CALLDATASIZE PUSH2 0x127 JUMPI PUSH1 0x1 PUSH1 0x0 SWAP1 SLOAD SWAP1 PUSH2 0x100 EXP SWAP1 DIV PUSH20 0xFFFFFFFFFFFFFFFFFFFFFFFFFFFFFFFFFFFFFFFF AND PUSH20 0xFFFFFFFFFFFFFFFFFFFFFFFFFFFFFFFFFFFFFFFF AND CALLER PUSH20 0xFFFFFFFFFFFFFFFFFFFFFFFFFFFFFFFFFFFFFFFF AND EQ PUSH2 0x125 JUMPI PUSH1 0x0 DUP1 REVERT JUMPDEST STOP JUMPDEST PUSH1 0x0 DUP1 REVERT JUMPDEST CALLVALUE DUP1 ISZERO PUSH2 0x138 JUMPI PUSH1 0x0 DUP1 REVERT JUMPDEST POP PUSH2 0x153 PUSH1 0x4 DUP1 CALLDATASIZE SUB DUP2 ADD SWAP1 PUSH2 0x14E SWAP2 SWAP1 PUSH2 0x24B9 JUMP JUMPDEST PUSH2 0x431 JUMP JUMPDEST PUSH1 0x40 MLOAD PUSH2 0x160 SWAP2 SWAP1 PUSH2 0x251B JUMP JUMPDEST PUSH1 0x40 MLOAD DUP1 SWAP2 SUB SWAP1 RETURN JUMPDEST PUSH2 0x183 PUSH1 0x4 DUP1 CALLDATASIZE SUB DUP2 ADD SWAP1 PUSH2 0x17E SWAP2 SWAP1 PUSH2 0x25F9 JUMP JUMPDEST PUSH2 0x4B8 JUMP JUMPDEST PUSH1 0x40 MLOAD PUSH2 0x190 SWAP2 SWAP1 PUSH2 0x272B JUMP JUMPDEST PUSH1 0x40 MLOAD DUP1 SWAP2 SUB SWAP1 RETURN JUMPDEST CALLVALUE DUP1 ISZERO PUSH2 0x1A5 JUMPI PUSH1 0x0 DUP1 REVERT JUMPDEST POP PUSH2 0x1C0 PUSH1 0x4 DUP1 CALLDATASIZE SUB DUP2 ADD SWAP1 PUSH2 0x1BB SWAP2 SWAP1 PUSH2 0x289C JUMP JUMPDEST PUSH2 0x8B5 JUMP JUMPDEST PUSH1 0x40 MLOAD PUSH2 0x1CD SWAP2 SWAP1 PUSH2 0x272B JUMP JUMPDEST PUSH1 0x40 MLOAD DUP1 SWAP2 SUB SWAP1 RETURN JUMPDEST CALLVALUE DUP1 ISZERO PUSH2 0x1E2 JUMPI PUSH1 0x0 DUP1 REVERT JUMPDEST POP PUSH2 0x1FD PUSH1 0x4 DUP1 CALLDATASIZE SUB DUP2 ADD SWAP1 PUSH2 0x1F8 SWAP2 SWAP1 PUSH2 0x28F8 JUMP JUMPDEST PUSH2 0x960 JUMP JUMPDEST PUSH1 0x40 MLOAD PUSH2 0x20A SWAP2 SWAP1 PUSH2 0x272B JUMP JUMPDEST PUSH1 0x40 MLOAD DUP1 SWAP2 SUB SWAP1 RETURN JUMPDEST CALLVALUE DUP1 ISZERO PUSH2 0x21F JUMPI PUSH1 0x0 DUP1 REVERT JUMPDEST POP PUSH2 0x23A PUSH1 0x4 DUP1 CALLDATASIZE SUB DUP2 ADD SWAP1 PUSH2 0x235 SWAP2 SWAP1 PUSH2 0x28F8 JUMP JUMPDEST PUSH2 0xD3A JUMP JUMPDEST PUSH1 0x40 MLOAD PUSH2 0x247 SWAP2 SWAP1 PUSH2 0x272B JUMP JUMPDEST PUSH1 0x40 MLOAD DUP1 SWAP2 SUB SWAP1 RETURN JUMPDEST CALLVALUE DUP1 ISZERO PUSH2 0x25C JUMPI PUSH1 0x0 DUP1 REVERT JUMPDEST POP PUSH2 0x277 PUSH1 0x4 DUP1 CALLDATASIZE SUB DUP2 ADD SWAP1 PUSH2 0x272 SWAP2 SWAP1 PUSH2 0x28F8 JUMP JUMPDEST PUSH2 0xF5D JUMP JUMPDEST PUSH1 0x40 MLOAD PUSH2 0x284 SWAP2 SWAP1 PUSH2 0x272B JUMP JUMPDEST PUSH1 0x40 MLOAD DUP1 SWAP2 SUB SWAP1 RETURN JUMPDEST CALLVALUE DUP1 ISZERO PUSH2 0x299 JUMPI PUSH1 0x0 DUP1 REVERT JUMPDEST POP PUSH2 0x2B4 PUSH1 0x4 DUP1 CALLDATASIZE SUB DUP2 ADD SWAP1 PUSH2 0x2AF SWAP2 SWAP1 PUSH2 0x2980 JUMP JUMPDEST PUSH2 0x118C JUMP JUMPDEST PUSH1 0x40 MLOAD PUSH2 0x2C2 SWAP3 SWAP2 SWAP1 PUSH2 0x29FB JUMP JUMPDEST PUSH1 0x40 MLOAD DUP1 SWAP2 SUB SWAP1 RETURN JUMPDEST PUSH2 0x2E5 PUSH1 0x4 DUP1 CALLDATASIZE SUB DUP2 ADD SWAP1 PUSH2 0x2E0 SWAP2 SWAP1 PUSH2 0x2980 JUMP JUMPDEST PUSH2 0x1273 JUMP JUMPDEST PUSH1 0x40 MLOAD PUSH2 0x2F4 SWAP4 SWAP3 SWAP2 SWAP1 PUSH2 0x2A24 JUMP JUMPDEST PUSH1 0x40 MLOAD DUP1 SWAP2 SUB SWAP1 RETURN JUMPDEST CALLVALUE DUP1 ISZERO PUSH2 0x309 JUMPI PUSH1 0x0 DUP1 REVERT JUMPDEST POP PUSH2 0x324 PUSH1 0x4 DUP1 CALLDATASIZE SUB DUP2 ADD SWAP1 PUSH2 0x31F SWAP2 SWAP1 PUSH2 0x24B9 JUMP JUMPDEST PUSH2 0x14EA JUMP JUMPDEST PUSH1 0x40 MLOAD PUSH2 0x331 SWAP2 SWAP1 PUSH2 0x251B JUMP JUMPDEST PUSH1 0x40 MLOAD DUP1 SWAP2 SUB SWAP1 RETURN JUMPDEST CALLVALUE DUP1 ISZERO PUSH2 0x346 JUMPI PUSH1 0x0 DUP1 REVERT JUMPDEST POP PUSH2 0x361 PUSH1 0x4 DUP1 CALLDATASIZE SUB DUP2 ADD SWAP1 PUSH2 0x35C SWAP2 SWAP1 PUSH2 0x24B9 JUMP JUMPDEST PUSH2 0x1571 JUMP JUMPDEST PUSH1 0x40 MLOAD PUSH2 0x36E SWAP2 SWAP1 PUSH2 0x251B JUMP JUMPDEST PUSH1 0x40 MLOAD DUP1 SWAP2 SUB SWAP1 RETURN JUMPDEST CALLVALUE DUP1 ISZERO PUSH2 0x383 JUMPI PUSH1 0x0 DUP1 REVERT JUMPDEST POP PUSH2 0x39E PUSH1 0x4 DUP1 CALLDATASIZE SUB DUP2 ADD SWAP1 PUSH2 0x399 SWAP2 SWAP1 PUSH2 0x2A5B JUMP JUMPDEST PUSH2 0x15F8 JUMP JUMPDEST PUSH1 0x40 MLOAD PUSH2 0x3AC SWAP3 SWAP2 SWAP1 PUSH2 0x29FB JUMP JUMPDEST PUSH1 0x40 MLOAD DUP1 SWAP2 SUB SWAP1 RETURN JUMPDEST CALLVALUE DUP1 ISZERO PUSH2 0x3C1 JUMPI PUSH1 0x0 DUP1 REVERT JUMPDEST POP PUSH2 0x3DC PUSH1 0x4 DUP1 CALLDATASIZE SUB DUP2 ADD SWAP1 PUSH2 0x3D7 SWAP2 SWAP1 PUSH2 0x2AE8 JUMP JUMPDEST PUSH2 0x17C0 JUMP JUMPDEST PUSH1 0x40 MLOAD PUSH2 0x3EB SWAP4 SWAP3 SWAP2 SWAP1 PUSH2 0x2A24 JUMP JUMPDEST PUSH1 0x40 MLOAD DUP1 SWAP2 SUB SWAP1 RETURN JUMPDEST CALLVALUE DUP1 ISZERO PUSH2 0x400 JUMPI PUSH1 0x0 DUP1 REVERT JUMPDEST POP PUSH2 0x41B PUSH1 0x4 DUP1 CALLDATASIZE SUB DUP2 ADD SWAP1 PUSH2 0x416 SWAP2 SWAP1 PUSH2 0x289C JUMP JUMPDEST PUSH2 0x1A72 JUMP JUMPDEST PUSH1 0x40 MLOAD PUSH2 0x428 SWAP2 SWAP1 PUSH2 0x272B JUMP JUMPDEST PUSH1 0x40 MLOAD DUP1 SWAP2 SUB SWAP1 RETURN JUMPDEST PUSH1 0x0 PUSH20 0x0 PUSH4 0x54D50D4 DUP6 DUP6 DUP6 PUSH1 0x40 MLOAD DUP5 PUSH4 0xFFFFFFFF AND PUSH1 0xE0 SHL DUP2 MSTORE PUSH1 0x4 ADD PUSH2 0x46E SWAP4 SWAP3 SWAP2 SWAP1 PUSH2 0x2B99 JUMP JUMPDEST PUSH1 0x20 PUSH1 0x40 MLOAD DUP1 DUP4 SUB DUP2 DUP7 GAS DELEGATECALL ISZERO DUP1 ISZERO PUSH2 0x48B JUMPI RETURNDATASIZE PUSH1 0x0 DUP1 RETURNDATACOPY RETURNDATASIZE PUSH1 0x0 REVERT JUMPDEST POP POP POP POP PUSH1 0x40 MLOAD RETURNDATASIZE PUSH1 0x1F NOT PUSH1 0x1F DUP3 ADD AND DUP3 ADD DUP1 PUSH1 0x40 MSTORE POP DUP2 ADD SWAP1 PUSH2 0x4AF SWAP2 SWAP1 PUSH2 0x2BE5 JUMP JUMPDEST SWAP1 POP SWAP4 SWAP3 POP POP POP JUMP JUMPDEST PUSH1 0x60 PUSH1 0x1 PUSH1 0x0 SWAP1 SLOAD SWAP1 PUSH2 0x100 EXP SWAP1 DIV PUSH20 0xFFFFFFFFFFFFFFFFFFFFFFFFFFFFFFFFFFFFFFFF AND PUSH20 0xFFFFFFFFFFFFFFFFFFFFFFFFFFFFFFFFFFFFFFFF AND DUP5 DUP5 PUSH1 0x0 DUP2 DUP2 LT PUSH2 0x507 JUMPI PUSH2 0x506 PUSH2 0x2C12 JUMP JUMPDEST JUMPDEST SWAP1 POP PUSH1 0x20 MUL ADD PUSH1 0x20 DUP2 ADD SWAP1 PUSH2 0x51C SWAP2 SWAP1 PUSH2 0x2C41 JUMP JUMPDEST PUSH20 0xFFFFFFFFFFFFFFFFFFFFFFFFFFFFFFFFFFFFFFFF AND EQ PUSH2 0x572 JUMPI PUSH1 0x40 MLOAD PUSH32 0x8C379A000000000000000000000000000000000000000000000000000000000 DUP2 MSTORE PUSH1 0x4 ADD PUSH2 0x569 SWAP1 PUSH2 0x2CCB JUMP JUMPDEST PUSH1 0x40 MLOAD DUP1 SWAP2 SUB SWAP1 REVERT JUMPDEST PUSH20 0x0 PUSH4 0xBB7B9C76 PUSH1 0x0 DUP1 SLOAD SWAP1 PUSH2 0x100 EXP SWAP1 DIV PUSH20 0xFFFFFFFFFFFFFFFFFFFFFFFFFFFFFFFFFFFFFFFF AND CALLVALUE DUP8 DUP8 PUSH1 0x40 MLOAD DUP6 PUSH4 0xFFFFFFFF AND PUSH1 0xE0 SHL DUP2 MSTORE PUSH1 0x4 ADD PUSH2 0x5CF SWAP5 SWAP4 SWAP3 SWAP2 SWAP1 PUSH2 0x2DBD JUMP JUMPDEST PUSH1 0x0 PUSH1 0x40 MLOAD DUP1 DUP4 SUB DUP2 DUP7 GAS DELEGATECALL ISZERO DUP1 ISZERO PUSH2 0x5EC JUMPI RETURNDATASIZE PUSH1 0x0 DUP1 RETURNDATACOPY RETURNDATASIZE PUSH1 0x0 REVERT JUMPDEST POP POP POP POP PUSH1 0x40 MLOAD RETURNDATASIZE PUSH1 0x0 DUP3 RETURNDATACOPY RETURNDATASIZE PUSH1 0x1F NOT PUSH1 0x1F DUP3 ADD AND DUP3 ADD DUP1 PUSH1 0x40 MSTORE POP DUP2 ADD SWAP1 PUSH2 0x615 SWAP2 SWAP1 PUSH2 0x2EC0 JUMP JUMPDEST SWAP1 POP DUP5 DUP2 PUSH1 0x1 DUP4 MLOAD PUSH2 0x627 SWAP2 SWAP1 PUSH2 0x2F38 JUMP JUMPDEST DUP2 MLOAD DUP2 LT PUSH2 0x638 JUMPI PUSH2 0x637 PUSH2 0x2C12 JUMP JUMPDEST JUMPDEST PUSH1 0x20 MUL PUSH1 0x20 ADD ADD MLOAD LT ISZERO PUSH2 0x681 JUMPI PUSH1 0x40 MLOAD PUSH32 0x8C379A000000000000000000000000000000000000000000000000000000000 DUP2 MSTORE PUSH1 0x4 ADD PUSH2 0x678 SWAP1 PUSH2 0x2FDE JUMP JUMPDEST PUSH1 0x40 MLOAD DUP1 SWAP2 SUB SWAP1 REVERT JUMPDEST PUSH1 0x1 PUSH1 0x0 SWAP1 SLOAD SWAP1 PUSH2 0x100 EXP SWAP1 DIV PUSH20 0xFFFFFFFFFFFFFFFFFFFFFFFFFFFFFFFFFFFFFFFF AND PUSH20 0xFFFFFFFFFFFFFFFFFFFFFFFFFFFFFFFFFFFFFFFF AND PUSH4 0xD0E30DB0 DUP3 PUSH1 0x0 DUP2 MLOAD DUP2 LT PUSH2 0x6D3 JUMPI PUSH2 0x6D2 PUSH2 0x2C12 JUMP JUMPDEST JUMPDEST PUSH1 0x20 MUL PUSH1 0x20 ADD ADD MLOAD PUSH1 0x40 MLOAD DUP3 PUSH4 0xFFFFFFFF AND PUSH1 0xE0 SHL DUP2 MSTORE PUSH1 0x4 ADD PUSH1 0x0 PUSH1 0x40 MLOAD DUP1 DUP4 SUB DUP2 DUP6 DUP9 DUP1 EXTCODESIZE ISZERO DUP1 ISZERO PUSH2 0x706 JUMPI PUSH1 0x0 DUP1 REVERT JUMPDEST POP GAS CALL ISZERO DUP1 ISZERO PUSH2 0x71A JUMPI RETURNDATASIZE PUSH1 0x0 DUP1 RETURNDATACOPY RETURNDATASIZE PUSH1 0x0 REVERT JUMPDEST POP POP POP POP POP PUSH1 0x1 PUSH1 0x0 SWAP1 SLOAD SWAP1 PUSH2 0x100 EXP SWAP1 DIV PUSH20 0xFFFFFFFFFFFFFFFFFFFFFFFFFFFFFFFFFFFFFFFF AND PUSH20 0xFFFFFFFFFFFFFFFFFFFFFFFFFFFFFFFFFFFFFFFF AND PUSH4 0xA9059CBB PUSH2 0x7D8 PUSH1 0x0 DUP1 SLOAD SWAP1 PUSH2 0x100 EXP SWAP1 DIV PUSH20 0xFFFFFFFFFFFFFFFFFFFFFFFFFFFFFFFFFFFFFFFF AND DUP8 DUP8 PUSH1 0x0 DUP2 DUP2 LT PUSH2 0x795 JUMPI PUSH2 0x794 PUSH2 0x2C12 JUMP JUMPDEST JUMPDEST SWAP1 POP PUSH1 0x20 MUL ADD PUSH1 0x20 DUP2 ADD SWAP1 PUSH2 0x7AA SWAP2 SWAP1 PUSH2 0x2C41 JUMP JUMPDEST DUP9 DUP9 PUSH1 0x1 DUP2 DUP2 LT PUSH2 0x7BE JUMPI PUSH2 0x7BD PUSH2 0x2C12 JUMP JUMPDEST JUMPDEST SWAP1 POP PUSH1 0x20 MUL ADD PUSH1 0x20 DUP2 ADD SWAP1 PUSH2 0x7D3 SWAP2 SWAP1 PUSH2 0x2C41 JUMP JUMPDEST PUSH2 0x1B1D JUMP JUMPDEST DUP4 PUSH1 0x0 DUP2 MLOAD DUP2 LT PUSH2 0x7EC JUMPI PUSH2 0x7EB PUSH2 0x2C12 JUMP JUMPDEST JUMPDEST PUSH1 0x20 MUL PUSH1 0x20 ADD ADD MLOAD PUSH1 0x40 MLOAD DUP4 PUSH4 0xFFFFFFFF AND PUSH1 0xE0 SHL DUP2 MSTORE PUSH1 0x4 ADD PUSH2 0x811 SWAP3 SWAP2 SWAP1 PUSH2 0x300D JUMP JUMPDEST PUSH1 0x20 PUSH1 0x40 MLOAD DUP1 DUP4 SUB DUP2 PUSH1 0x0 DUP8 GAS CALL ISZERO DUP1 ISZERO PUSH2 0x830 JUMPI RETURNDATASIZE PUSH1 0x0 DUP1 RETURNDATACOPY RETURNDATASIZE PUSH1 0x0 REVERT JUMPDEST POP POP POP POP PUSH1 0x40 MLOAD RETURNDATASIZE PUSH1 0x1F NOT PUSH1 0x1F DUP3 ADD AND DUP3 ADD DUP1 PUSH1 0x40 MSTORE POP DUP2 ADD SWAP1 PUSH2 0x854 SWAP2 SWAP1 PUSH2 0x306E JUMP JUMPDEST PUSH2 0x861 JUMPI PUSH2 0x860 PUSH2 0x309B JUMP JUMPDEST JUMPDEST PUSH2 0x8AD DUP2 DUP6 DUP6 DUP1 DUP1 PUSH1 0x20 MUL PUSH1 0x20 ADD PUSH1 0x40 MLOAD SWAP1 DUP2 ADD PUSH1 0x40 MSTORE DUP1 SWAP4 SWAP3 SWAP2 SWAP1 DUP2 DUP2 MSTORE PUSH1 0x20 ADD DUP4 DUP4 PUSH1 0x20 MUL DUP1 DUP3 DUP5 CALLDATACOPY PUSH1 0x0 DUP2 DUP5 ADD MSTORE PUSH1 0x1F NOT PUSH1 0x1F DUP3 ADD AND SWAP1 POP DUP1 DUP4 ADD SWAP3 POP POP POP POP POP POP POP DUP5 PUSH2 0x1B8F JUMP JUMPDEST SWAP5 SWAP4 POP POP POP POP JUMP JUMPDEST PUSH1 0x60 PUSH20 0x0 PUSH4 0x192128B2 PUSH1 0x0 DUP1 SLOAD SWAP1 PUSH2 0x100 EXP SWAP1 DIV PUSH20 0xFFFFFFFFFFFFFFFFFFFFFFFFFFFFFFFFFFFFFFFF AND DUP6 DUP6 PUSH1 0x40 MLOAD DUP5 PUSH4 0xFFFFFFFF AND PUSH1 0xE0 SHL DUP2 MSTORE PUSH1 0x4 ADD PUSH2 0x912 SWAP4 SWAP3 SWAP2 SWAP1 PUSH2 0x3150 JUMP JUMPDEST PUSH1 0x0 PUSH1 0x40 MLOAD DUP1 DUP4 SUB DUP2 DUP7 GAS DELEGATECALL ISZERO DUP1 ISZERO PUSH2 0x92F JUMPI RETURNDATASIZE PUSH1 0x0 DUP1 RETURNDATACOPY RETURNDATASIZE PUSH1 0x0 REVERT JUMPDEST POP POP POP POP PUSH1 0x40 MLOAD RETURNDATASIZE PUSH1 0x0 DUP3 RETURNDATACOPY RETURNDATASIZE PUSH1 0x1F NOT PUSH1 0x1F DUP3 ADD AND DUP3 ADD DUP1 PUSH1 0x40 MSTORE POP DUP2 ADD SWAP1 PUSH2 0x958 SWAP2 SWAP1 PUSH2 0x2EC0 JUMP JUMPDEST SWAP1 POP SWAP3 SWAP2 POP POP JUMP JUMPDEST PUSH1 0x60 PUSH1 0x1 PUSH1 0x0 SWAP1 SLOAD SWAP1 PUSH2 0x100 EXP SWAP1 DIV PUSH20 0xFFFFFFFFFFFFFFFFFFFFFFFFFFFFFFFFFFFFFFFF AND PUSH20 0xFFFFFFFFFFFFFFFFFFFFFFFFFFFFFFFFFFFFFFFF AND DUP5 DUP5 PUSH1 0x1 DUP8 DUP8 SWAP1 POP PUSH2 0x9AD SWAP2 SWAP1 PUSH2 0x2F38 JUMP JUMPDEST DUP2 DUP2 LT PUSH2 0x9BD JUMPI PUSH2 0x9BC PUSH2 0x2C12 JUMP JUMPDEST JUMPDEST SWAP1 POP PUSH1 0x20 MUL ADD PUSH1 0x20 DUP2 ADD SWAP1 PUSH2 0x9D2 SWAP2 SWAP1 PUSH2 0x2C41 JUMP JUMPDEST PUSH20 0xFFFFFFFFFFFFFFFFFFFFFFFFFFFFFFFFFFFFFFFF AND EQ PUSH2 0xA28 JUMPI PUSH1 0x40 MLOAD PUSH32 0x8C379A000000000000000000000000000000000000000000000000000000000 DUP2 MSTORE PUSH1 0x4 ADD PUSH2 0xA1F SWAP1 PUSH2 0x2CCB JUMP JUMPDEST PUSH1 0x40 MLOAD DUP1 SWAP2 SUB SWAP1 REVERT JUMPDEST PUSH20 0x0 PUSH4 0xBB7B9C76 PUSH1 0x0 DUP1 SLOAD SWAP1 PUSH2 0x100 EXP SWAP1 DIV PUSH20 0xFFFFFFFFFFFFFFFFFFFFFFFFFFFFFFFFFFFFFFFF AND DUP9 DUP8 DUP8 PUSH1 0x40 MLOAD DUP6 PUSH4 0xFFFFFFFF AND PUSH1 0xE0 SHL DUP2 MSTORE PUSH1 0x4 ADD PUSH2 0xA85 SWAP5 SWAP4 SWAP3 SWAP2 SWAP1 PUSH2 0x2DBD JUMP JUMPDEST PUSH1 0x0 PUSH1 0x40 MLOAD DUP1 DUP4 SUB DUP2 DUP7 GAS DELEGATECALL ISZERO DUP1 ISZERO PUSH2 0xAA2 JUMPI RETURNDATASIZE PUSH1 0x0 DUP1 RETURNDATACOPY RETURNDATASIZE PUSH1 0x0 REVERT JUMPDEST POP POP POP POP PUSH1 0x40 MLOAD RETURNDATASIZE PUSH1 0x0 DUP3 RETURNDATACOPY RETURNDATASIZE PUSH1 0x1F NOT PUSH1 0x1F DUP3 ADD AND DUP3 ADD DUP1 PUSH1 0x40 MSTORE POP DUP2 ADD SWAP1 PUSH2 0xACB SWAP2 SWAP1 PUSH2 0x2EC0 JUMP JUMPDEST SWAP1 POP DUP5 DUP2 PUSH1 0x1 DUP4 MLOAD PUSH2 0xADD SWAP2 SWAP1 PUSH2 0x2F38 JUMP JUMPDEST DUP2 MLOAD DUP2 LT PUSH2 0xAEE JUMPI PUSH2 0xAED PUSH2 0x2C12 JUMP JUMPDEST JUMPDEST PUSH1 0x20 MUL PUSH1 0x20 ADD ADD MLOAD LT ISZERO PUSH2 0xB37 JUMPI PUSH1 0x40 MLOAD PUSH32 0x8C379A000000000000000000000000000000000000000000000000000000000 DUP2 MSTORE PUSH1 0x4 ADD PUSH2 0xB2E SWAP1 PUSH2 0x2FDE JUMP JUMPDEST PUSH1 0x40 MLOAD DUP1 SWAP2 SUB SWAP1 REVERT JUMPDEST PUSH2 0xC00 DUP5 DUP5 PUSH1 0x0 DUP2 DUP2 LT PUSH2 0xB4E JUMPI PUSH2 0xB4D PUSH2 0x2C12 JUMP JUMPDEST JUMPDEST SWAP1 POP PUSH1 0x20 MUL ADD PUSH1 0x20 DUP2 ADD SWAP1 PUSH2 0xB63 SWAP2 SWAP1 PUSH2 0x2C41 JUMP JUMPDEST CALLER PUSH2 0xBDF PUSH1 0x0 DUP1 SLOAD SWAP1 PUSH2 0x100 EXP SWAP1 DIV PUSH20 0xFFFFFFFFFFFFFFFFFFFFFFFFFFFFFFFFFFFFFFFF AND DUP9 DUP9 PUSH1 0x0 DUP2 DUP2 LT PUSH2 0xB9C JUMPI PUSH2 0xB9B PUSH2 0x2C12 JUMP JUMPDEST JUMPDEST SWAP1 POP PUSH1 0x20 MUL ADD PUSH1 0x20 DUP2 ADD SWAP1 PUSH2 0xBB1 SWAP2 SWAP1 PUSH2 0x2C41 JUMP JUMPDEST DUP10 DUP10 PUSH1 0x1 DUP2 DUP2 LT PUSH2 0xBC5 JUMPI PUSH2 0xBC4 PUSH2 0x2C12 JUMP JUMPDEST JUMPDEST SWAP1 POP PUSH1 0x20 MUL ADD PUSH1 0x20 DUP2 ADD SWAP1 PUSH2 0xBDA SWAP2 SWAP1 PUSH2 0x2C41 JUMP JUMPDEST PUSH2 0x1B1D JUMP JUMPDEST DUP5 PUSH1 0x0 DUP2 MLOAD DUP2 LT PUSH2 0xBF3 JUMPI PUSH2 0xBF2 PUSH2 0x2C12 JUMP JUMPDEST JUMPDEST PUSH1 0x20 MUL PUSH1 0x20 ADD ADD MLOAD PUSH2 0x1D99 JUMP JUMPDEST PUSH2 0xC4C DUP2 DUP6 DUP6 DUP1 DUP1 PUSH1 0x20 MUL PUSH1 0x20 ADD PUSH1 0x40 MLOAD SWAP1 DUP2 ADD PUSH1 0x40 MSTORE DUP1 SWAP4 SWAP3 SWAP2 SWAP1 DUP2 DUP2 MSTORE PUSH1 0x20 ADD DUP4 DUP4 PUSH1 0x20 MUL DUP1 DUP3 DUP5 CALLDATACOPY PUSH1 0x0 DUP2 DUP5 ADD MSTORE PUSH1 0x1F NOT PUSH1 0x1F DUP3 ADD AND SWAP1 POP DUP1 DUP4 ADD SWAP3 POP POP POP POP POP POP POP ADDRESS PUSH2 0x1B8F JUMP JUMPDEST PUSH1 0x1 PUSH1 0x0 SWAP1 SLOAD SWAP1 PUSH2 0x100 EXP SWAP1 DIV PUSH20 0xFFFFFFFFFFFFFFFFFFFFFFFFFFFFFFFFFFFFFFFF AND PUSH20 0xFFFFFFFFFFFFFFFFFFFFFFFFFFFFFFFFFFFFFFFF AND PUSH4 0x2E1A7D4D DUP3 PUSH1 0x1 DUP5 MLOAD PUSH2 0xC99 SWAP2 SWAP1 PUSH2 0x2F38 JUMP JUMPDEST DUP2 MLOAD DUP2 LT PUSH2 0xCAA JUMPI PUSH2 0xCA9 PUSH2 0x2C12 JUMP JUMPDEST JUMPDEST PUSH1 0x20 MUL PUSH1 0x20 ADD ADD MLOAD PUSH1 0x40 MLOAD DUP3 PUSH4 0xFFFFFFFF AND PUSH1 0xE0 SHL DUP2 MSTORE PUSH1 0x4 ADD PUSH2 0xCCE SWAP2 SWAP1 PUSH2 0x251B JUMP JUMPDEST PUSH1 0x0 PUSH1 0x40 MLOAD DUP1 DUP4 SUB DUP2 PUSH1 0x0 DUP8 DUP1 EXTCODESIZE ISZERO DUP1 ISZERO PUSH2 0xCE8 JUMPI PUSH1 0x0 DUP1 REVERT JUMPDEST POP GAS CALL ISZERO DUP1 ISZERO PUSH2 0xCFC JUMPI RETURNDATASIZE PUSH1 0x0 DUP1 RETURNDATACOPY RETURNDATASIZE PUSH1 0x0 REVERT JUMPDEST POP POP POP POP PUSH2 0xD31 DUP3 DUP3 PUSH1 0x1 DUP5 MLOAD PUSH2 0xD13 SWAP2 SWAP1 PUSH2 0x2F38 JUMP JUMPDEST DUP2 MLOAD DUP2 LT PUSH2 0xD24 JUMPI PUSH2 0xD23 PUSH2 0x2C12 JUMP JUMPDEST JUMPDEST PUSH1 0x20 MUL PUSH1 0x20 ADD ADD MLOAD PUSH2 0x1F09 JUMP JUMPDEST SWAP6 SWAP5 POP POP POP POP POP JUMP JUMPDEST PUSH1 0x60 PUSH20 0x0 PUSH4 0x192128B2 PUSH1 0x0 DUP1 SLOAD SWAP1 PUSH2 0x100 EXP SWAP1 DIV PUSH20 0xFFFFFFFFFFFFFFFFFFFFFFFFFFFFFFFFFFFFFFFF AND DUP9 DUP8 DUP8 PUSH1 0x40 MLOAD DUP6 PUSH4 0xFFFFFFFF AND PUSH1 0xE0 SHL DUP2 MSTORE PUSH1 0x4 ADD PUSH2 0xD99 SWAP5 SWAP4 SWAP3 SWAP2 SWAP1 PUSH2 0x2DBD JUMP JUMPDEST PUSH1 0x0 PUSH1 0x40 MLOAD DUP1 DUP4 SUB DUP2 DUP7 GAS DELEGATECALL ISZERO DUP1 ISZERO PUSH2 0xDB6 JUMPI RETURNDATASIZE PUSH1 0x0 DUP1 RETURNDATACOPY RETURNDATASIZE PUSH1 0x0 REVERT JUMPDEST POP POP POP POP PUSH1 0x40 MLOAD RETURNDATASIZE PUSH1 0x0 DUP3 RETURNDATACOPY RETURNDATASIZE PUSH1 0x1F NOT PUSH1 0x1F DUP3 ADD AND DUP3 ADD DUP1 PUSH1 0x40 MSTORE POP DUP2 ADD SWAP1 PUSH2 0xDDF SWAP2 SWAP1 PUSH2 0x2EC0 JUMP JUMPDEST SWAP1 POP DUP5 DUP2 PUSH1 0x0 DUP2 MLOAD DUP2 LT PUSH2 0xDF6 JUMPI PUSH2 0xDF5 PUSH2 0x2C12 JUMP JUMPDEST JUMPDEST PUSH1 0x20 MUL PUSH1 0x20 ADD ADD MLOAD GT ISZERO PUSH2 0xE3F JUMPI PUSH1 0x40 MLOAD PUSH32 0x8C379A000000000000000000000000000000000000000000000000000000000 DUP2 MSTORE PUSH1 0x4 ADD PUSH2 0xE36 SWAP1 PUSH2 0x3200 JUMP JUMPDEST PUSH1 0x40 MLOAD DUP1 SWAP2 SUB SWAP1 REVERT JUMPDEST PUSH2 0xF08 DUP5 DUP5 PUSH1 0x0 DUP2 DUP2 LT PUSH2 0xE56 JUMPI PUSH2 0xE55 PUSH2 0x2C12 JUMP JUMPDEST JUMPDEST SWAP1 POP PUSH1 0x20 MUL ADD PUSH1 0x20 DUP2 ADD SWAP1 PUSH2 0xE6B SWAP2 SWAP1 PUSH2 0x2C41 JUMP JUMPDEST CALLER PUSH2 0xEE7 PUSH1 0x0 DUP1 SLOAD SWAP1 PUSH2 0x100 EXP SWAP1 DIV PUSH20 0xFFFFFFFFFFFFFFFFFFFFFFFFFFFFFFFFFFFFFFFF AND DUP9 DUP9 PUSH1 0x0 DUP2 DUP2 LT PUSH2 0xEA4 JUMPI PUSH2 0xEA3 PUSH2 0x2C12 JUMP JUMPDEST JUMPDEST SWAP1 POP PUSH1 0x20 MUL ADD PUSH1 0x20 DUP2 ADD SWAP1 PUSH2 0xEB9 SWAP2 SWAP1 PUSH2 0x2C41 JUMP JUMPDEST DUP10 DUP10 PUSH1 0x1 DUP2 DUP2 LT PUSH2 0xECD JUMPI PUSH2 0xECC PUSH2 0x2C12 JUMP JUMPDEST JUMPDEST SWAP1 POP PUSH1 0x20 MUL ADD PUSH1 0x20 DUP2 ADD SWAP1 PUSH2 0xEE2 SWAP2 SWAP1 PUSH2 0x2C41 JUMP JUMPDEST PUSH2 0x1B1D JUMP JUMPDEST DUP5 PUSH1 0x0 DUP2 MLOAD DUP2 LT PUSH2 0xEFB JUMPI PUSH2 0xEFA PUSH2 0x2C12 JUMP JUMPDEST JUMPDEST PUSH1 0x20 MUL PUSH1 0x20 ADD ADD MLOAD PUSH2 0x1D99 JUMP JUMPDEST PUSH2 0xF54 DUP2 DUP6 DUP6 DUP1 DUP1 PUSH1 0x20 MUL PUSH1 0x20 ADD PUSH1 0x40 MLOAD SWAP1 DUP2 ADD PUSH1 0x40 MSTORE DUP1 SWAP4 SWAP3 SWAP2 SWAP1 DUP2 DUP2 MSTORE PUSH1 0x20 ADD DUP4 DUP4 PUSH1 0x20 MUL DUP1 DUP3 DUP5 CALLDATACOPY PUSH1 0x0 DUP2 DUP5 ADD MSTORE PUSH1 0x1F NOT PUSH1 0x1F DUP3 ADD AND SWAP1 POP DUP1 DUP4 ADD SWAP3 POP POP POP POP POP POP POP DUP5 PUSH2 0x1B8F JUMP JUMPDEST SWAP6 SWAP5 POP POP POP POP POP JUMP JUMPDEST PUSH1 0x60 PUSH20 0x0 PUSH4 0xBB7B9C76 PUSH1 0x0 DUP1 SLOAD SWAP1 PUSH2 0x100 EXP SWAP1 DIV PUSH20 0xFFFFFFFFFFFFFFFFFFFFFFFFFFFFFFFFFFFFFFFF AND DUP9 DUP8 DUP8 PUSH1 0x40 MLOAD DUP6 PUSH4 0xFFFFFFFF AND PUSH1 0xE0 SHL DUP2 MSTORE PUSH1 0x4 ADD PUSH2 0xFBC SWAP5 SWAP4 SWAP3 SWAP2 SWAP1 PUSH2 0x2DBD JUMP JUMPDEST PUSH1 0x0 PUSH1 0x40 MLOAD DUP1 DUP4 SUB DUP2 DUP7 GAS DELEGATECALL ISZERO DUP1 ISZERO PUSH2 0xFD9 JUMPI RETURNDATASIZE PUSH1 0x0 DUP1 RETURNDATACOPY RETURNDATASIZE PUSH1 0x0 REVERT JUMPDEST POP POP POP POP PUSH1 0x40 MLOAD RETURNDATASIZE PUSH1 0x0 DUP3 RETURNDATACOPY RETURNDATASIZE PUSH1 0x1F NOT PUSH1 0x1F DUP3 ADD AND DUP3 ADD DUP1 PUSH1 0x40 MSTORE POP DUP2 ADD SWAP1 PUSH2 0x1002 SWAP2 SWAP1 PUSH2 0x2EC0 JUMP JUMPDEST SWAP1 POP DUP5 DUP2 PUSH1 0x1 DUP4 MLOAD PUSH2 0x1014 SWAP2 SWAP1 PUSH2 0x2F38 JUMP JUMPDEST DUP2 MLOAD DUP2 LT PUSH2 0x1025 JUMPI PUSH2 0x1024 PUSH2 0x2C12 JUMP JUMPDEST JUMPDEST PUSH1 0x20 MUL PUSH1 0x20 ADD ADD MLOAD LT ISZERO PUSH2 0x106E JUMPI PUSH1 0x40 MLOAD PUSH32 0x8C379A000000000000000000000000000000000000000000000000000000000 DUP2 MSTORE PUSH1 0x4 ADD PUSH2 0x1065 SWAP1 PUSH2 0x2FDE JUMP JUMPDEST PUSH1 0x40 MLOAD DUP1 SWAP2 SUB SWAP1 REVERT JUMPDEST PUSH2 0x1137 DUP5 DUP5 PUSH1 0x0 DUP2 DUP2 LT PUSH2 0x1085 JUMPI PUSH2 0x1084 PUSH2 0x2C12 JUMP JUMPDEST JUMPDEST SWAP1 POP PUSH1 0x20 MUL ADD PUSH1 0x20 DUP2 ADD SWAP1 PUSH2 0x109A SWAP2 SWAP1 PUSH2 0x2C41 JUMP JUMPDEST CALLER PUSH2 0x1116 PUSH1 0x0 DUP1 SLOAD SWAP1 PUSH2 0x100 EXP SWAP1 DIV PUSH20 0xFFFFFFFFFFFFFFFFFFFFFFFFFFFFFFFFFFFFFFFF AND DUP9 DUP9 PUSH1 0x0 DUP2 DUP2 LT PUSH2 0x10D3 JUMPI PUSH2 0x10D2 PUSH2 0x2C12 JUMP JUMPDEST JUMPDEST SWAP1 POP PUSH1 0x20 MUL ADD PUSH1 0x20 DUP2 ADD SWAP1 PUSH2 0x10E8 SWAP2 SWAP1 PUSH2 0x2C41 JUMP JUMPDEST DUP10 DUP10 PUSH1 0x1 DUP2 DUP2 LT PUSH2 0x10FC JUMPI PUSH2 0x10FB PUSH2 0x2C12 JUMP JUMPDEST JUMPDEST SWAP1 POP PUSH1 0x20 MUL ADD PUSH1 0x20 DUP2 ADD SWAP1 PUSH2 0x1111 SWAP2 SWAP1 PUSH2 0x2C41 JUMP JUMPDEST PUSH2 0x1B1D JUMP JUMPDEST DUP5 PUSH1 0x0 DUP2 MLOAD DUP2 LT PUSH2 0x112A JUMPI PUSH2 0x1129 PUSH2 0x2C12 JUMP JUMPDEST JUMPDEST PUSH1 0x20 MUL PUSH1 0x20 ADD ADD MLOAD PUSH2 0x1D99 JUMP JUMPDEST PUSH2 0x1183 DUP2 DUP6 DUP6 DUP1 DUP1 PUSH1 0x20 MUL PUSH1 0x20 ADD PUSH1 0x40 MLOAD SWAP1 DUP2 ADD PUSH1 0x40 MSTORE DUP1 SWAP4 SWAP3 SWAP2 SWAP1 DUP2 DUP2 MSTORE PUSH1 0x20 ADD DUP4 DUP4 PUSH1 0x20 MUL DUP1 DUP3 DUP5 CALLDATACOPY PUSH1 0x0 DUP2 DUP5 ADD MSTORE PUSH1 0x1F NOT PUSH1 0x1F DUP3 ADD AND SWAP1 POP DUP1 DUP4 ADD SWAP3 POP POP POP POP POP POP POP DUP5 PUSH2 0x1B8F JUMP JUMPDEST SWAP6 SWAP5 POP POP POP POP POP JUMP JUMPDEST PUSH1 0x0 DUP1 PUSH2 0x11BF DUP8 PUSH1 0x1 PUSH1 0x0 SWAP1 SLOAD SWAP1 PUSH2 0x100 EXP SWAP1 DIV PUSH20 0xFFFFFFFFFFFFFFFFFFFFFFFFFFFFFFFFFFFFFFFF AND DUP9 DUP9 DUP9 ADDRESS PUSH2 0x15F8 JUMP JUMPDEST DUP1 SWAP3 POP DUP2 SWAP4 POP POP POP PUSH2 0x11D2 DUP8 DUP5 DUP5 PUSH2 0x2009 JUMP JUMPDEST PUSH1 0x1 PUSH1 0x0 SWAP1 SLOAD SWAP1 PUSH2 0x100 EXP SWAP1 DIV PUSH20 0xFFFFFFFFFFFFFFFFFFFFFFFFFFFFFFFFFFFFFFFF AND PUSH20 0xFFFFFFFFFFFFFFFFFFFFFFFFFFFFFFFFFFFFFFFF AND PUSH4 0x2E1A7D4D DUP3 PUSH1 0x40 MLOAD DUP3 PUSH4 0xFFFFFFFF AND PUSH1 0xE0 SHL DUP2 MSTORE PUSH1 0x4 ADD PUSH2 0x122D SWAP2 SWAP1 PUSH2 0x251B JUMP JUMPDEST PUSH1 0x0 PUSH1 0x40 MLOAD DUP1 DUP4 SUB DUP2 PUSH1 0x0 DUP8 DUP1 EXTCODESIZE ISZERO DUP1 ISZERO PUSH2 0x1247 JUMPI PUSH1 0x0 DUP1 REVERT JUMPDEST POP GAS CALL ISZERO DUP1 ISZERO PUSH2 0x125B JUMPI RETURNDATASIZE PUSH1 0x0 DUP1 RETURNDATACOPY RETURNDATASIZE PUSH1 0x0 REVERT JUMPDEST POP POP POP POP PUSH2 0x1269 DUP4 DUP3 PUSH2 0x1F09 JUMP JUMPDEST SWAP6 POP SWAP6 SWAP4 POP POP POP POP JUMP JUMPDEST PUSH1 0x0 DUP1 PUSH1 0x0 PUSH2 0x12A9 DUP9 PUSH1 0x1 PUSH1 0x0 SWAP1 SLOAD SWAP1 PUSH2 0x100 EXP SWAP1 DIV PUSH20 0xFFFFFFFFFFFFFFFFFFFFFFFFFFFFFFFFFFFFFFFF AND DUP10 CALLVALUE DUP11 DUP11 DUP11 PUSH2 0x17C0 JUMP JUMPDEST DUP1 SWAP4 POP DUP2 SWAP5 POP DUP3 SWAP6 POP POP POP POP PUSH1 0x0 PUSH2 0x1304 PUSH1 0x0 DUP1 SLOAD SWAP1 PUSH2 0x100 EXP SWAP1 DIV PUSH20 0xFFFFFFFFFFFFFFFFFFFFFFFFFFFFFFFFFFFFFFFF AND DUP11 PUSH1 0x1 PUSH1 0x0 SWAP1 SLOAD SWAP1 PUSH2 0x100 EXP SWAP1 DIV PUSH20 0xFFFFFFFFFFFFFFFFFFFFFFFFFFFFFFFFFFFFFFFF AND PUSH2 0x1B1D JUMP JUMPDEST SWAP1 POP PUSH2 0x1312 DUP10 CALLER DUP4 DUP8 PUSH2 0x1D99 JUMP JUMPDEST PUSH1 0x1 PUSH1 0x0 SWAP1 SLOAD SWAP1 PUSH2 0x100 EXP SWAP1 DIV PUSH20 0xFFFFFFFFFFFFFFFFFFFFFFFFFFFFFFFFFFFFFFFF AND PUSH20 0xFFFFFFFFFFFFFFFFFFFFFFFFFFFFFFFFFFFFFFFF AND PUSH4 0xD0E30DB0 DUP5 PUSH1 0x40 MLOAD DUP3 PUSH4 0xFFFFFFFF AND PUSH1 0xE0 SHL DUP2 MSTORE PUSH1 0x4 ADD PUSH1 0x0 PUSH1 0x40 MLOAD DUP1 DUP4 SUB DUP2 DUP6 DUP9 DUP1 EXTCODESIZE ISZERO DUP1 ISZERO PUSH2 0x137C JUMPI PUSH1 0x0 DUP1 REVERT JUMPDEST POP GAS CALL ISZERO DUP1 ISZERO PUSH2 0x1390 JUMPI RETURNDATASIZE PUSH1 0x0 DUP1 RETURNDATACOPY RETURNDATASIZE PUSH1 0x0 REVERT JUMPDEST POP POP POP POP POP PUSH1 0x1 PUSH1 0x0 SWAP1 SLOAD SWAP1 PUSH2 0x100 EXP SWAP1 DIV PUSH20 0xFFFFFFFFFFFFFFFFFFFFFFFFFFFFFFFFFFFFFFFF AND PUSH20 0xFFFFFFFFFFFFFFFFFFFFFFFFFFFFFFFFFFFFFFFF AND PUSH4 0xA9059CBB DUP3 DUP6 PUSH1 0x40 MLOAD DUP4 PUSH4 0xFFFFFFFF AND PUSH1 0xE0 SHL DUP2 MSTORE PUSH1 0x4 ADD PUSH2 0x13F2 SWAP3 SWAP2 SWAP1 PUSH2 0x300D JUMP JUMPDEST PUSH1 0x20 PUSH1 0x40 MLOAD DUP1 DUP4 SUB DUP2 PUSH1 0x0 DUP8 GAS CALL ISZERO DUP1 ISZERO PUSH2 0x1411 JUMPI RETURNDATASIZE PUSH1 0x0 DUP1 RETURNDATACOPY RETURNDATASIZE PUSH1 0x0 REVERT JUMPDEST POP POP POP POP PUSH1 0x40 MLOAD RETURNDATASIZE PUSH1 0x1F NOT PUSH1 0x1F DUP3 ADD AND DUP3 ADD DUP1 PUSH1 0x40 MSTORE POP DUP2 ADD SWAP1 PUSH2 0x1435 SWAP2 SWAP1 PUSH2 0x306E JUMP JUMPDEST PUSH2 0x1442 JUMPI PUSH2 0x1441 PUSH2 0x309B JUMP JUMPDEST JUMPDEST DUP1 PUSH20 0xFFFFFFFFFFFFFFFFFFFFFFFFFFFFFFFFFFFFFFFF AND PUSH4 0x6A627842 DUP7 PUSH1 0x40 MLOAD DUP3 PUSH4 0xFFFFFFFF AND PUSH1 0xE0 SHL DUP2 MSTORE PUSH1 0x4 ADD PUSH2 0x147B SWAP2 SWAP1 PUSH2 0x3220 JUMP JUMPDEST PUSH1 0x20 PUSH1 0x40 MLOAD DUP1 DUP4 SUB DUP2 PUSH1 0x0 DUP8 GAS CALL ISZERO DUP1 ISZERO PUSH2 0x149A JUMPI RETURNDATASIZE PUSH1 0x0 DUP1 RETURNDATACOPY RETURNDATASIZE PUSH1 0x0 REVERT JUMPDEST POP POP POP POP PUSH1 0x40 MLOAD RETURNDATASIZE PUSH1 0x1F NOT PUSH1 0x1F DUP3 ADD AND DUP3 ADD DUP1 PUSH1 0x40 MSTORE POP DUP2 ADD SWAP1 PUSH2 0x14BE SWAP2 SWAP1 PUSH2 0x2BE5 JUMP JUMPDEST SWAP2 POP DUP3 CALLVALUE GT ISZERO PUSH2 0x14DE JUMPI PUSH2 0x14DD CALLER DUP5 CALLVALUE PUSH2 0x14D8 SWAP2 SWAP1 PUSH2 0x2F38 JUMP JUMPDEST PUSH2 0x1F09 JUMP JUMPDEST JUMPDEST POP SWAP6 POP SWAP6 POP SWAP6 SWAP3 POP POP POP JUMP JUMPDEST PUSH1 0x0 PUSH20 0x0 PUSH4 0x85F8C259 DUP6 DUP6 DUP6 PUSH1 0x40 MLOAD DUP5 PUSH4 0xFFFFFFFF AND PUSH1 0xE0 SHL DUP2 MSTORE PUSH1 0x4 ADD PUSH2 0x1527 SWAP4 SWAP3 SWAP2 SWAP1 PUSH2 0x2B99 JUMP JUMPDEST PUSH1 0x20 PUSH1 0x40 MLOAD DUP1 DUP4 SUB DUP2 DUP7 GAS DELEGATECALL ISZERO DUP1 ISZERO PUSH2 0x1544 JUMPI RETURNDATASIZE PUSH1 0x0 DUP1 RETURNDATACOPY RETURNDATASIZE PUSH1 0x0 REVERT JUMPDEST POP POP POP POP PUSH1 0x40 MLOAD RETURNDATASIZE PUSH1 0x1F NOT PUSH1 0x1F DUP3 ADD AND DUP3 ADD DUP1 PUSH1 0x40 MSTORE POP DUP2 ADD SWAP1 PUSH2 0x1568 SWAP2 SWAP1 PUSH2 0x2BE5 JUMP JUMPDEST SWAP1 POP SWAP4 SWAP3 POP POP POP JUMP JUMPDEST PUSH1 0x0 PUSH20 0x0 PUSH4 0xAD615DEC DUP6 DUP6 DUP6 PUSH1 0x40 MLOAD DUP5 PUSH4 0xFFFFFFFF AND PUSH1 0xE0 SHL DUP2 MSTORE PUSH1 0x4 ADD PUSH2 0x15AE SWAP4 SWAP3 SWAP2 SWAP1 PUSH2 0x2B99 JUMP JUMPDEST PUSH1 0x20 PUSH1 0x40 MLOAD DUP1 DUP4 SUB DUP2 DUP7 GAS DELEGATECALL ISZERO DUP1 ISZERO PUSH2 0x15CB JUMPI RETURNDATASIZE PUSH1 0x0 DUP1 RETURNDATACOPY RETURNDATASIZE PUSH1 0x0 REVERT JUMPDEST POP POP POP POP PUSH1 0x40 MLOAD RETURNDATASIZE PUSH1 0x1F NOT PUSH1 0x1F DUP3 ADD AND DUP3 ADD DUP1 PUSH1 0x40 MSTORE POP DUP2 ADD SWAP1 PUSH2 0x15EF SWAP2 SWAP1 PUSH2 0x2BE5 JUMP JUMPDEST SWAP1 POP SWAP4 SWAP3 POP POP POP JUMP JUMPDEST PUSH1 0x0 DUP1 PUSH1 0x0 PUSH2 0x1628 PUSH1 0x0 DUP1 SLOAD SWAP1 PUSH2 0x100 EXP SWAP1 DIV PUSH20 0xFFFFFFFFFFFFFFFFFFFFFFFFFFFFFFFFFFFFFFFF AND DUP11 DUP11 PUSH2 0x1B1D JUMP JUMPDEST SWAP1 POP DUP1 PUSH20 0xFFFFFFFFFFFFFFFFFFFFFFFFFFFFFFFFFFFFFFFF AND PUSH4 0x23B872DD CALLER DUP4 DUP11 PUSH1 0x40 MLOAD DUP5 PUSH4 0xFFFFFFFF AND PUSH1 0xE0 SHL DUP2 MSTORE PUSH1 0x4 ADD PUSH2 0x1667 SWAP4 SWAP3 SWAP2 SWAP1 PUSH2 0x323B JUMP JUMPDEST PUSH1 0x20 PUSH1 0x40 MLOAD DUP1 DUP4 SUB DUP2 PUSH1 0x0 DUP8 GAS CALL ISZERO DUP1 ISZERO PUSH2 0x1686 JUMPI RETURNDATASIZE PUSH1 0x0 DUP1 RETURNDATACOPY RETURNDATASIZE PUSH1 0x0 REVERT JUMPDEST POP POP POP POP PUSH1 0x40 MLOAD RETURNDATASIZE PUSH1 0x1F NOT PUSH1 0x1F DUP3 ADD AND DUP3 ADD DUP1 PUSH1 0x40 MSTORE POP DUP2 ADD SWAP1 PUSH2 0x16AA SWAP2 SWAP1 PUSH2 0x306E JUMP JUMPDEST POP DUP1 PUSH20 0xFFFFFFFFFFFFFFFFFFFFFFFFFFFFFFFFFFFFFFFF AND PUSH4 0x89AFCB44 DUP6 PUSH1 0x40 MLOAD DUP3 PUSH4 0xFFFFFFFF AND PUSH1 0xE0 SHL DUP2 MSTORE PUSH1 0x4 ADD PUSH2 0x16E4 SWAP2 SWAP1 PUSH2 0x3220 JUMP JUMPDEST PUSH1 0x40 DUP1 MLOAD DUP1 DUP4 SUB DUP2 PUSH1 0x0 DUP8 GAS CALL ISZERO DUP1 ISZERO PUSH2 0x1702 JUMPI RETURNDATASIZE PUSH1 0x0 DUP1 RETURNDATACOPY RETURNDATASIZE PUSH1 0x0 REVERT JUMPDEST POP POP POP POP PUSH1 0x40 MLOAD RETURNDATASIZE PUSH1 0x1F NOT PUSH1 0x1F DUP3 ADD AND DUP3 ADD DUP1 PUSH1 0x40 MSTORE POP DUP2 ADD SWAP1 PUSH2 0x1726 SWAP2 SWAP1 PUSH2 0x3272 JUMP JUMPDEST DUP1 SWAP4 POP DUP2 SWAP5 POP POP POP DUP6 DUP4 LT ISZERO PUSH2 0x1771 JUMPI PUSH1 0x40 MLOAD PUSH32 0x8C379A000000000000000000000000000000000000000000000000000000000 DUP2 MSTORE PUSH1 0x4 ADD PUSH2 0x1768 SWAP1 PUSH2 0x3324 JUMP JUMPDEST PUSH1 0x40 MLOAD DUP1 SWAP2 SUB SWAP1 REVERT JUMPDEST DUP5 DUP3 LT ISZERO PUSH2 0x17B4 JUMPI PUSH1 0x40 MLOAD PUSH32 0x8C379A000000000000000000000000000000000000000000000000000000000 DUP2 MSTORE PUSH1 0x4 ADD PUSH2 0x17AB SWAP1 PUSH2 0x33B6 JUMP JUMPDEST PUSH1 0x40 MLOAD DUP1 SWAP2 SUB SWAP1 REVERT JUMPDEST POP SWAP7 POP SWAP7 SWAP5 POP POP POP POP POP JUMP JUMPDEST PUSH1 0x0 DUP1 PUSH1 0x0 DUP1 PUSH20 0xFFFFFFFFFFFFFFFFFFFFFFFFFFFFFFFFFFFFFFFF AND PUSH1 0x0 DUP1 SLOAD SWAP1 PUSH2 0x100 EXP SWAP1 DIV PUSH20 0xFFFFFFFFFFFFFFFFFFFFFFFFFFFFFFFFFFFFFFFF AND PUSH20 0xFFFFFFFFFFFFFFFFFFFFFFFFFFFFFFFFFFFFFFFF AND PUSH4 0x69454B86 DUP13 DUP13 PUSH1 0x40 MLOAD DUP4 PUSH4 0xFFFFFFFF AND PUSH1 0xE0 SHL DUP2 MSTORE PUSH1 0x4 ADD PUSH2 0x1837 SWAP3 SWAP2 SWAP1 PUSH2 0x33D6 JUMP JUMPDEST PUSH1 0x20 PUSH1 0x40 MLOAD DUP1 DUP4 SUB DUP2 DUP7 GAS STATICCALL ISZERO DUP1 ISZERO PUSH2 0x1854 JUMPI RETURNDATASIZE PUSH1 0x0 DUP1 RETURNDATACOPY RETURNDATASIZE PUSH1 0x0 REVERT JUMPDEST POP POP POP POP PUSH1 0x40 MLOAD RETURNDATASIZE PUSH1 0x1F NOT PUSH1 0x1F DUP3 ADD AND DUP3 ADD DUP1 PUSH1 0x40 MSTORE POP DUP2 ADD SWAP1 PUSH2 0x1878 SWAP2 SWAP1 PUSH2 0x3414 JUMP JUMPDEST PUSH20 0xFFFFFFFFFFFFFFFFFFFFFFFFFFFFFFFFFFFFFFFF AND SUB PUSH2 0x1933 JUMPI PUSH1 0x0 DUP1 SLOAD SWAP1 PUSH2 0x100 EXP SWAP1 DIV PUSH20 0xFFFFFFFFFFFFFFFFFFFFFFFFFFFFFFFFFFFFFFFF AND PUSH20 0xFFFFFFFFFFFFFFFFFFFFFFFFFFFFFFFFFFFFFFFF AND PUSH4 0xC9C65396 DUP12 DUP12 PUSH1 0x40 MLOAD DUP4 PUSH4 0xFFFFFFFF AND PUSH1 0xE0 SHL DUP2 MSTORE PUSH1 0x4 ADD PUSH2 0x18EE SWAP3 SWAP2 SWAP1 PUSH2 0x33D6 JUMP JUMPDEST PUSH1 0x20 PUSH1 0x40 MLOAD DUP1 DUP4 SUB DUP2 PUSH1 0x0 DUP8 GAS CALL ISZERO DUP1 ISZERO PUSH2 0x190D JUMPI RETURNDATASIZE PUSH1 0x0 DUP1 RETURNDATACOPY RETURNDATASIZE PUSH1 0x0 REVERT JUMPDEST POP POP POP POP PUSH1 0x40 MLOAD RETURNDATASIZE PUSH1 0x1F NOT PUSH1 0x1F DUP3 ADD AND DUP3 ADD DUP1 PUSH1 0x40 MSTORE POP DUP2 ADD SWAP1 PUSH2 0x1931 SWAP2 SWAP1 PUSH2 0x3414 JUMP JUMPDEST POP JUMPDEST PUSH2 0x1941 DUP11 DUP11 DUP11 DUP11 DUP11 DUP11 PUSH2 0x2193 JUMP JUMPDEST DUP1 SWAP4 POP DUP2 SWAP5 POP POP POP PUSH1 0x1 PUSH1 0x0 SWAP1 SLOAD SWAP1 PUSH2 0x100 EXP SWAP1 DIV PUSH20 0xFFFFFFFFFFFFFFFFFFFFFFFFFFFFFFFFFFFFFFFF AND PUSH20 0xFFFFFFFFFFFFFFFFFFFFFFFFFFFFFFFFFFFFFFFF AND DUP10 PUSH20 0xFFFFFFFFFFFFFFFFFFFFFFFFFFFFFFFFFFFFFFFF AND EQ PUSH2 0x1A65 JUMPI PUSH1 0x0 PUSH2 0x19CB PUSH1 0x0 DUP1 SLOAD SWAP1 PUSH2 0x100 EXP SWAP1 DIV PUSH20 0xFFFFFFFFFFFFFFFFFFFFFFFFFFFFFFFFFFFFFFFF AND DUP13 DUP13 PUSH2 0x1B1D JUMP JUMPDEST SWAP1 POP PUSH2 0x19D9 DUP12 CALLER DUP4 DUP8 PUSH2 0x1D99 JUMP JUMPDEST PUSH2 0x19E5 DUP11 CALLER DUP4 DUP7 PUSH2 0x1D99 JUMP JUMPDEST DUP1 PUSH20 0xFFFFFFFFFFFFFFFFFFFFFFFFFFFFFFFFFFFFFFFF AND PUSH4 0x6A627842 DUP7 PUSH1 0x40 MLOAD DUP3 PUSH4 0xFFFFFFFF AND PUSH1 0xE0 SHL DUP2 MSTORE PUSH1 0x4 ADD PUSH2 0x1A1E SWAP2 SWAP1 PUSH2 0x3220 JUMP JUMPDEST PUSH1 0x20 PUSH1 0x40 MLOAD DUP1 DUP4 SUB DUP2 PUSH1 0x0 DUP8 GAS CALL ISZERO DUP1 ISZERO PUSH2 0x1A3D JUMPI RETURNDATASIZE PUSH1 0x0 DUP1 RETURNDATACOPY RETURNDATASIZE PUSH1 0x0 REVERT JUMPDEST POP POP POP POP PUSH1 0x40 MLOAD RETURNDATASIZE PUSH1 0x1F NOT PUSH1 0x1F DUP3 ADD AND DUP3 ADD DUP1 PUSH1 0x40 MSTORE POP DUP2 ADD SWAP1 PUSH2 0x1A61 SWAP2 SWAP1 PUSH2 0x2BE5 JUMP JUMPDEST SWAP2 POP POP JUMPDEST SWAP8 POP SWAP8 POP SWAP8 SWAP5 POP POP POP POP POP JUMP JUMPDEST PUSH1 0x60 PUSH20 0x0 PUSH4 0xBB7B9C76 PUSH1 0x0 DUP1 SLOAD SWAP1 PUSH2 0x100 EXP SWAP1 DIV PUSH20 0xFFFFFFFFFFFFFFFFFFFFFFFFFFFFFFFFFFFFFFFF AND DUP6 DUP6 PUSH1 0x40 MLOAD DUP5 PUSH4 0xFFFFFFFF AND PUSH1 0xE0 SHL DUP2 MSTORE PUSH1 0x4 ADD PUSH2 0x1ACF SWAP4 SWAP3 SWAP2 SWAP1 PUSH2 0x3150 JUMP JUMPDEST PUSH1 0x0 PUSH1 0x40 MLOAD DUP1 DUP4 SUB DUP2 DUP7 GAS DELEGATECALL ISZERO DUP1 ISZERO PUSH2 0x1AEC JUMPI RETURNDATASIZE PUSH1 0x0 DUP1 RETURNDATACOPY RETURNDATASIZE PUSH1 0x0 REVERT JUMPDEST POP POP POP POP PUSH1 0x40 MLOAD RETURNDATASIZE PUSH1 0x0 DUP3 RETURNDATACOPY RETURNDATASIZE PUSH1 0x1F NOT PUSH1 0x1F DUP3 ADD AND DUP3 ADD DUP1 PUSH1 0x40 MSTORE POP DUP2 ADD SWAP1 PUSH2 0x1B15 SWAP2 SWAP1 PUSH2 0x2EC0 JUMP JUMPDEST SWAP1 POP SWAP3 SWAP2 POP POP JUMP JUMPDEST PUSH1 0x0 DUP1 PUSH1 0x0 PUSH2 0x1B2C DUP6 DUP6 PUSH2 0x2424 JUMP JUMPDEST SWAP2 POP SWAP2 POP DUP6 DUP3 DUP3 PUSH1 0x40 MLOAD PUSH1 0x20 ADD PUSH2 0x1B44 SWAP3 SWAP2 SWAP1 PUSH2 0x3489 JUMP JUMPDEST PUSH1 0x40 MLOAD PUSH1 0x20 DUP2 DUP4 SUB SUB DUP2 MSTORE SWAP1 PUSH1 0x40 MSTORE DUP1 MLOAD SWAP1 PUSH1 0x20 ADD KECCAK256 PUSH1 0x40 MLOAD PUSH1 0x20 ADD PUSH2 0x1B6B SWAP3 SWAP2 SWAP1 PUSH2 0x3582 JUMP JUMPDEST PUSH1 0x40 MLOAD PUSH1 0x20 DUP2 DUP4 SUB SUB DUP2 MSTORE SWAP1 PUSH1 0x40 MSTORE DUP1 MLOAD SWAP1 PUSH1 0x20 ADD KECCAK256 PUSH1 0x0 SHR SWAP3 POP POP POP SWAP4 SWAP3 POP POP POP JUMP JUMPDEST PUSH1 0x0 JUMPDEST PUSH1 0x1 DUP4 MLOAD PUSH2 0x1BA0 SWAP2 SWAP1 PUSH2 0x2F38 JUMP JUMPDEST DUP2 LT ISZERO PUSH2 0x1D93 JUMPI PUSH1 0x0 DUP1 DUP5 DUP4 DUP2 MLOAD DUP2 LT PUSH2 0x1BBD JUMPI PUSH2 0x1BBC PUSH2 0x2C12 JUMP JUMPDEST JUMPDEST PUSH1 0x20 MUL PUSH1 0x20 ADD ADD MLOAD DUP6 PUSH1 0x1 DUP6 PUSH2 0x1BD3 SWAP2 SWAP1 PUSH2 0x35C4 JUMP JUMPDEST DUP2 MLOAD DUP2 LT PUSH2 0x1BE4 JUMPI PUSH2 0x1BE3 PUSH2 0x2C12 JUMP JUMPDEST JUMPDEST PUSH1 0x20 MUL PUSH1 0x20 ADD ADD MLOAD SWAP2 POP SWAP2 POP PUSH1 0x0 PUSH2 0x1BFC DUP4 DUP4 PUSH2 0x2424 JUMP JUMPDEST POP SWAP1 POP PUSH1 0x0 DUP8 PUSH1 0x1 DUP7 PUSH2 0x1C0F SWAP2 SWAP1 PUSH2 0x35C4 JUMP JUMPDEST DUP2 MLOAD DUP2 LT PUSH2 0x1C20 JUMPI PUSH2 0x1C1F PUSH2 0x2C12 JUMP JUMPDEST JUMPDEST PUSH1 0x20 MUL PUSH1 0x20 ADD ADD MLOAD SWAP1 POP PUSH1 0x0 DUP1 DUP4 PUSH20 0xFFFFFFFFFFFFFFFFFFFFFFFFFFFFFFFFFFFFFFFF AND DUP7 PUSH20 0xFFFFFFFFFFFFFFFFFFFFFFFFFFFFFFFFFFFFFFFF AND EQ PUSH2 0x1C68 JUMPI DUP3 PUSH1 0x0 PUSH2 0x1C6C JUMP JUMPDEST PUSH1 0x0 DUP4 JUMPDEST SWAP2 POP SWAP2 POP PUSH1 0x0 PUSH1 0x2 DUP11 MLOAD PUSH2 0x1C80 SWAP2 SWAP1 PUSH2 0x2F38 JUMP JUMPDEST DUP9 LT PUSH2 0x1C8C JUMPI DUP9 PUSH2 0x1CDE JUMP JUMPDEST PUSH2 0x1CDD PUSH1 0x0 DUP1 SLOAD SWAP1 PUSH2 0x100 EXP SWAP1 DIV PUSH20 0xFFFFFFFFFFFFFFFFFFFFFFFFFFFFFFFFFFFFFFFF AND DUP8 DUP13 PUSH1 0x2 DUP13 PUSH2 0x1CBF SWAP2 SWAP1 PUSH2 0x35C4 JUMP JUMPDEST DUP2 MLOAD DUP2 LT PUSH2 0x1CD0 JUMPI PUSH2 0x1CCF PUSH2 0x2C12 JUMP JUMPDEST JUMPDEST PUSH1 0x20 MUL PUSH1 0x20 ADD ADD MLOAD PUSH2 0x1B1D JUMP JUMPDEST JUMPDEST SWAP1 POP PUSH2 0x1D0B PUSH1 0x0 DUP1 SLOAD SWAP1 PUSH2 0x100 EXP SWAP1 DIV PUSH20 0xFFFFFFFFFFFFFFFFFFFFFFFFFFFFFFFFFFFFFFFF AND DUP9 DUP9 PUSH2 0x1B1D JUMP JUMPDEST PUSH20 0xFFFFFFFFFFFFFFFFFFFFFFFFFFFFFFFFFFFFFFFF AND PUSH4 0x6D9A640A DUP5 DUP5 DUP5 PUSH1 0x40 MLOAD DUP5 PUSH4 0xFFFFFFFF AND PUSH1 0xE0 SHL DUP2 MSTORE PUSH1 0x4 ADD PUSH2 0x1D47 SWAP4 SWAP3 SWAP2 SWAP1 PUSH2 0x35F8 JUMP JUMPDEST PUSH1 0x0 PUSH1 0x40 MLOAD DUP1 DUP4 SUB DUP2 PUSH1 0x0 DUP8 DUP1 EXTCODESIZE ISZERO DUP1 ISZERO PUSH2 0x1D61 JUMPI PUSH1 0x0 DUP1 REVERT JUMPDEST POP GAS CALL ISZERO DUP1 ISZERO PUSH2 0x1D75 JUMPI RETURNDATASIZE PUSH1 0x0 DUP1 RETURNDATACOPY RETURNDATASIZE PUSH1 0x0 REVERT JUMPDEST POP POP POP POP POP POP POP POP POP POP POP DUP1 DUP1 PUSH2 0x1D8B SWAP1 PUSH2 0x362F JUMP JUMPDEST SWAP2 POP POP PUSH2 0x1B92 JUMP JUMPDEST POP POP POP POP JUMP JUMPDEST PUSH1 0x0 DUP1 DUP6 PUSH20 0xFFFFFFFFFFFFFFFFFFFFFFFFFFFFFFFFFFFFFFFF AND PUSH1 0x40 MLOAD DUP1 PUSH1 0x60 ADD PUSH1 0x40 MSTORE DUP1 PUSH1 0x25 DUP2 MSTORE PUSH1 0x20 ADD PUSH2 0x38C7 PUSH1 0x25 SWAP2 CODECOPY DUP1 MLOAD SWAP1 PUSH1 0x20 ADD KECCAK256 DUP7 DUP7 DUP7 PUSH1 0x40 MLOAD PUSH1 0x24 ADD PUSH2 0x1DE8 SWAP4 SWAP3 SWAP2 SWAP1 PUSH2 0x323B JUMP JUMPDEST PUSH1 0x40 MLOAD PUSH1 0x20 DUP2 DUP4 SUB SUB DUP2 MSTORE SWAP1 PUSH1 0x40 MSTORE SWAP1 PUSH28 0xFFFFFFFFFFFFFFFFFFFFFFFFFFFFFFFFFFFFFFFFFFFFFFFFFFFFFFFF NOT AND PUSH1 0x20 DUP3 ADD DUP1 MLOAD PUSH28 0xFFFFFFFFFFFFFFFFFFFFFFFFFFFFFFFFFFFFFFFFFFFFFFFFFFFFFFFF DUP4 DUP2 DUP4 AND OR DUP4 MSTORE POP POP POP POP PUSH1 0x40 MLOAD PUSH2 0x1E52 SWAP2 SWAP1 PUSH2 0x36E8 JUMP JUMPDEST PUSH1 0x0 PUSH1 0x40 MLOAD DUP1 DUP4 SUB DUP2 PUSH1 0x0 DUP7 GAS CALL SWAP2 POP POP RETURNDATASIZE DUP1 PUSH1 0x0 DUP2 EQ PUSH2 0x1E8F JUMPI PUSH1 0x40 MLOAD SWAP2 POP PUSH1 0x1F NOT PUSH1 0x3F RETURNDATASIZE ADD AND DUP3 ADD PUSH1 0x40 MSTORE RETURNDATASIZE DUP3 MSTORE RETURNDATASIZE PUSH1 0x0 PUSH1 0x20 DUP5 ADD RETURNDATACOPY PUSH2 0x1E94 JUMP JUMPDEST PUSH1 0x60 SWAP2 POP JUMPDEST POP SWAP2 POP SWAP2 POP DUP2 DUP1 ISZERO PUSH2 0x1EC2 JUMPI POP PUSH1 0x0 DUP2 MLOAD EQ DUP1 PUSH2 0x1EC1 JUMPI POP DUP1 DUP1 PUSH1 0x20 ADD SWAP1 MLOAD DUP2 ADD SWAP1 PUSH2 0x1EC0 SWAP2 SWAP1 PUSH2 0x306E JUMP JUMPDEST JUMPDEST JUMPDEST PUSH2 0x1F01 JUMPI PUSH1 0x40 MLOAD PUSH32 0x8C379A000000000000000000000000000000000000000000000000000000000 DUP2 MSTORE PUSH1 0x4 ADD PUSH2 0x1EF8 SWAP1 PUSH2 0x374B JUMP JUMPDEST PUSH1 0x40 MLOAD DUP1 SWAP2 SUB SWAP1 REVERT JUMPDEST POP POP POP POP POP POP JUMP JUMPDEST PUSH1 0x0 DUP3 PUSH20 0xFFFFFFFFFFFFFFFFFFFFFFFFFFFFFFFFFFFFFFFF AND DUP3 PUSH1 0x0 PUSH8 0xFFFFFFFFFFFFFFFF DUP2 GT ISZERO PUSH2 0x1F3E JUMPI PUSH2 0x1F3D PUSH2 0x275E JUMP JUMPDEST JUMPDEST PUSH1 0x40 MLOAD SWAP1 DUP1 DUP3 MSTORE DUP1 PUSH1 0x1F ADD PUSH1 0x1F NOT AND PUSH1 0x20 ADD DUP3 ADD PUSH1 0x40 MSTORE DUP1 ISZERO PUSH2 0x1F70 JUMPI DUP2 PUSH1 0x20 ADD PUSH1 0x1 DUP3 MUL DUP1 CALLDATASIZE DUP4 CALLDATACOPY DUP1 DUP3 ADD SWAP2 POP POP SWAP1 POP JUMPDEST POP PUSH1 0x40 MLOAD PUSH2 0x1F7E SWAP2 SWAP1 PUSH2 0x36E8 JUMP JUMPDEST PUSH1 0x0 PUSH1 0x40 MLOAD DUP1 DUP4 SUB DUP2 DUP6 DUP8 GAS CALL SWAP3 POP POP POP RETURNDATASIZE DUP1 PUSH1 0x0 DUP2 EQ PUSH2 0x1FBB JUMPI PUSH1 0x40 MLOAD SWAP2 POP PUSH1 0x1F NOT PUSH1 0x3F RETURNDATASIZE ADD AND DUP3 ADD PUSH1 0x40 MSTORE RETURNDATASIZE DUP3 MSTORE RETURNDATASIZE PUSH1 0x0 PUSH1 0x20 DUP5 ADD RETURNDATACOPY PUSH2 0x1FC0 JUMP JUMPDEST PUSH1 0x60 SWAP2 POP JUMPDEST POP POP SWAP1 POP DUP1 PUSH2 0x2004 JUMPI PUSH1 0x40 MLOAD PUSH32 0x8C379A000000000000000000000000000000000000000000000000000000000 DUP2 MSTORE PUSH1 0x4 ADD PUSH2 0x1FFB SWAP1 PUSH2 0x37DD JUMP JUMPDEST PUSH1 0x40 MLOAD DUP1 SWAP2 SUB SWAP1 REVERT JUMPDEST POP POP POP JUMP JUMPDEST PUSH1 0x0 DUP1 DUP5 PUSH20 0xFFFFFFFFFFFFFFFFFFFFFFFFFFFFFFFFFFFFFFFF AND PUSH1 0x40 MLOAD DUP1 PUSH1 0x40 ADD PUSH1 0x40 MSTORE DUP1 PUSH1 0x19 DUP2 MSTORE PUSH1 0x20 ADD PUSH32 0x7472616E7366657228616464726573732C75696E743235362900000000000000 DUP2 MSTORE POP DUP1 MLOAD SWAP1 PUSH1 0x20 ADD KECCAK256 DUP6 DUP6 PUSH1 0x40 MLOAD PUSH1 0x24 ADD PUSH2 0x2073 SWAP3 SWAP2 SWAP1 PUSH2 0x300D JUMP JUMPDEST PUSH1 0x40 MLOAD PUSH1 0x20 DUP2 DUP4 SUB SUB DUP2 MSTORE SWAP1 PUSH1 0x40 MSTORE SWAP1 PUSH28 0xFFFFFFFFFFFFFFFFFFFFFFFFFFFFFFFFFFFFFFFFFFFFFFFFFFFFFFFF NOT AND PUSH1 0x20 DUP3 ADD DUP1 MLOAD PUSH28 0xFFFFFFFFFFFFFFFFFFFFFFFFFFFFFFFFFFFFFFFFFFFFFFFFFFFFFFFF DUP4 DUP2 DUP4 AND OR DUP4 MSTORE POP POP POP POP PUSH1 0x40 MLOAD PUSH2 0x20DD SWAP2 SWAP1 PUSH2 0x36E8 JUMP JUMPDEST PUSH1 0x0 PUSH1 0x40 MLOAD DUP1 DUP4 SUB DUP2 PUSH1 0x0 DUP7 GAS CALL SWAP2 POP POP RETURNDATASIZE DUP1 PUSH1 0x0 DUP2 EQ PUSH2 0x211A JUMPI PUSH1 0x40 MLOAD SWAP2 POP PUSH1 0x1F NOT PUSH1 0x3F RETURNDATASIZE ADD AND DUP3 ADD PUSH1 0x40 MSTORE RETURNDATASIZE DUP3 MSTORE RETURNDATASIZE PUSH1 0x0 PUSH1 0x20 DUP5 ADD RETURNDATACOPY PUSH2 0x211F JUMP JUMPDEST PUSH1 0x60 SWAP2 POP JUMPDEST POP SWAP2 POP SWAP2 POP DUP2 DUP1 ISZERO PUSH2 0x214D JUMPI POP PUSH1 0x0 DUP2 MLOAD EQ DUP1 PUSH2 0x214C JUMPI POP DUP1 DUP1 PUSH1 0x20 ADD SWAP1 MLOAD DUP2 ADD SWAP1 PUSH2 0x214B SWAP2 SWAP1 PUSH2 0x306E JUMP JUMPDEST JUMPDEST JUMPDEST PUSH2 0x218C JUMPI PUSH1 0x40 MLOAD PUSH32 0x8C379A000000000000000000000000000000000000000000000000000000000 DUP2 MSTORE PUSH1 0x4 ADD PUSH2 0x2183 SWAP1 PUSH2 0x386F JUMP JUMPDEST PUSH1 0x40 MLOAD DUP1 SWAP2 SUB SWAP1 REVERT JUMPDEST POP POP POP POP POP JUMP JUMPDEST PUSH1 0x0 DUP1 PUSH1 0x0 DUP1 PUSH20 0x0 PUSH4 0x32749461 PUSH1 0x0 DUP1 SLOAD SWAP1 PUSH2 0x100 EXP SWAP1 DIV PUSH20 0xFFFFFFFFFFFFFFFFFFFFFFFFFFFFFFFFFFFFFFFF AND DUP13 DUP13 PUSH1 0x40 MLOAD DUP5 PUSH4 0xFFFFFFFF AND PUSH1 0xE0 SHL DUP2 MSTORE PUSH1 0x4 ADD PUSH2 0x21F4 SWAP4 SWAP3 SWAP2 SWAP1 PUSH2 0x388F JUMP JUMPDEST PUSH1 0x40 DUP1 MLOAD DUP1 DUP4 SUB DUP2 DUP7 GAS DELEGATECALL ISZERO DUP1 ISZERO PUSH2 0x2210 JUMPI RETURNDATASIZE PUSH1 0x0 DUP1 RETURNDATACOPY RETURNDATASIZE PUSH1 0x0 REVERT JUMPDEST POP POP POP POP PUSH1 0x40 MLOAD RETURNDATASIZE PUSH1 0x1F NOT PUSH1 0x1F DUP3 ADD AND DUP3 ADD DUP1 PUSH1 0x40 MSTORE POP DUP2 ADD SWAP1 PUSH2 0x2234 SWAP2 SWAP1 PUSH2 0x3272 JUMP JUMPDEST SWAP2 POP SWAP2 POP PUSH1 0x0 DUP3 EQ DUP1 ISZERO PUSH2 0x2248 JUMPI POP PUSH1 0x0 DUP2 EQ JUMPDEST ISZERO PUSH2 0x225C JUMPI DUP8 DUP8 DUP1 SWAP5 POP DUP2 SWAP6 POP POP POP PUSH2 0x2417 JUMP JUMPDEST PUSH1 0x0 PUSH20 0x0 PUSH4 0xAD615DEC DUP11 DUP6 DUP6 PUSH1 0x40 MLOAD DUP5 PUSH4 0xFFFFFFFF AND PUSH1 0xE0 SHL DUP2 MSTORE PUSH1 0x4 ADD PUSH2 0x2299 SWAP4 SWAP3 SWAP2 SWAP1 PUSH2 0x2B99 JUMP JUMPDEST PUSH1 0x20 PUSH1 0x40 MLOAD DUP1 DUP4 SUB DUP2 DUP7 GAS DELEGATECALL ISZERO DUP1 ISZERO PUSH2 0x22B6 JUMPI RETURNDATASIZE PUSH1 0x0 DUP1 RETURNDATACOPY RETURNDATASIZE PUSH1 0x0 REVERT JUMPDEST POP POP POP POP PUSH1 0x40 MLOAD RETURNDATASIZE PUSH1 0x1F NOT PUSH1 0x1F DUP3 ADD AND DUP3 ADD DUP1 PUSH1 0x40 MSTORE POP DUP2 ADD SWAP1 PUSH2 0x22DA SWAP2 SWAP1 PUSH2 0x2BE5 JUMP JUMPDEST SWAP1 POP DUP8 DUP2 GT PUSH2 0x2335 JUMPI DUP6 DUP2 LT ISZERO PUSH2 0x2326 JUMPI PUSH1 0x40 MLOAD PUSH32 0x8C379A000000000000000000000000000000000000000000000000000000000 DUP2 MSTORE PUSH1 0x4 ADD PUSH2 0x231D SWAP1 PUSH2 0x33B6 JUMP JUMPDEST PUSH1 0x40 MLOAD DUP1 SWAP2 SUB SWAP1 REVERT JUMPDEST DUP9 DUP2 DUP1 SWAP6 POP DUP2 SWAP7 POP POP POP PUSH2 0x2415 JUMP JUMPDEST PUSH1 0x0 PUSH20 0x0 PUSH4 0xAD615DEC DUP11 DUP6 DUP8 PUSH1 0x40 MLOAD DUP5 PUSH4 0xFFFFFFFF AND PUSH1 0xE0 SHL DUP2 MSTORE PUSH1 0x4 ADD PUSH2 0x2372 SWAP4 SWAP3 SWAP2 SWAP1 PUSH2 0x2B99 JUMP JUMPDEST PUSH1 0x20 PUSH1 0x40 MLOAD DUP1 DUP4 SUB DUP2 DUP7 GAS DELEGATECALL ISZERO DUP1 ISZERO PUSH2 0x238F JUMPI RETURNDATASIZE PUSH1 0x0 DUP1 RETURNDATACOPY RETURNDATASIZE PUSH1 0x0 REVERT JUMPDEST POP POP POP POP PUSH1 0x40 MLOAD RETURNDATASIZE PUSH1 0x1F NOT PUSH1 0x1F DUP3 ADD AND DUP3 ADD DUP1 PUSH1 0x40 MSTORE POP DUP2 ADD SWAP1 PUSH2 0x23B3 SWAP2 SWAP1 PUSH2 0x2BE5 JUMP JUMPDEST SWAP1 POP DUP10 DUP2 GT ISZERO PUSH2 0x23C6 JUMPI PUSH2 0x23C5 PUSH2 0x309B JUMP JUMPDEST JUMPDEST DUP8 DUP2 LT ISZERO PUSH2 0x2409 JUMPI PUSH1 0x40 MLOAD PUSH32 0x8C379A000000000000000000000000000000000000000000000000000000000 DUP2 MSTORE PUSH1 0x4 ADD PUSH2 0x2400 SWAP1 PUSH2 0x3324 JUMP JUMPDEST PUSH1 0x40 MLOAD DUP1 SWAP2 SUB SWAP1 REVERT JUMPDEST DUP1 DUP10 DUP1 SWAP7 POP DUP2 SWAP8 POP POP POP POP JUMPDEST POP JUMPDEST POP POP SWAP7 POP SWAP7 SWAP5 POP POP POP POP POP JUMP JUMPDEST PUSH1 0x0 DUP1 DUP3 PUSH20 0xFFFFFFFFFFFFFFFFFFFFFFFFFFFFFFFFFFFFFFFF AND DUP5 PUSH20 0xFFFFFFFFFFFFFFFFFFFFFFFFFFFFFFFFFFFFFFFF AND LT PUSH2 0x2461 JUMPI DUP3 DUP5 PUSH2 0x2464 JUMP JUMPDEST DUP4 DUP4 JUMPDEST SWAP2 POP SWAP2 POP SWAP3 POP SWAP3 SWAP1 POP JUMP JUMPDEST PUSH1 0x0 PUSH1 0x40 MLOAD SWAP1 POP SWAP1 JUMP JUMPDEST PUSH1 0x0 DUP1 REVERT JUMPDEST PUSH1 0x0 DUP1 REVERT JUMPDEST PUSH1 0x0 DUP2 SWAP1 POP SWAP2 SWAP1 POP JUMP JUMPDEST PUSH2 0x2496 DUP2 PUSH2 0x2483 JUMP JUMPDEST DUP2 EQ PUSH2 0x24A1 JUMPI PUSH1 0x0 DUP1 REVERT JUMPDEST POP JUMP JUMPDEST PUSH1 0x0 DUP2 CALLDATALOAD SWAP1 POP PUSH2 0x24B3 DUP2 PUSH2 0x248D JUMP JUMPDEST SWAP3 SWAP2 POP POP JUMP JUMPDEST PUSH1 0x0 DUP1 PUSH1 0x0 PUSH1 0x60 DUP5 DUP7 SUB SLT ISZERO PUSH2 0x24D2 JUMPI PUSH2 0x24D1 PUSH2 0x2479 JUMP JUMPDEST JUMPDEST PUSH1 0x0 PUSH2 0x24E0 DUP7 DUP3 DUP8 ADD PUSH2 0x24A4 JUMP JUMPDEST SWAP4 POP POP PUSH1 0x20 PUSH2 0x24F1 DUP7 DUP3 DUP8 ADD PUSH2 0x24A4 JUMP JUMPDEST SWAP3 POP POP PUSH1 0x40 PUSH2 0x2502 DUP7 DUP3 DUP8 ADD PUSH2 0x24A4 JUMP JUMPDEST SWAP2 POP POP SWAP3 POP SWAP3 POP SWAP3 JUMP JUMPDEST PUSH2 0x2515 DUP2 PUSH2 0x2483 JUMP JUMPDEST DUP3 MSTORE POP POP JUMP JUMPDEST PUSH1 0x0 PUSH1 0x20 DUP3 ADD SWAP1 POP PUSH2 0x2530 PUSH1 0x0 DUP4 ADD DUP5 PUSH2 0x250C JUMP JUMPDEST SWAP3 SWAP2 POP POP JUMP JUMPDEST PUSH1 0x0 DUP1 REVERT JUMPDEST PUSH1 0x0 DUP1 REVERT JUMPDEST PUSH1 0x0 DUP1 REVERT JUMPDEST PUSH1 0x0 DUP1 DUP4 PUSH1 0x1F DUP5 ADD SLT PUSH2 0x255B JUMPI PUSH2 0x255A PUSH2 0x2536 JUMP JUMPDEST JUMPDEST DUP3 CALLDATALOAD SWAP1 POP PUSH8 0xFFFFFFFFFFFFFFFF DUP2 GT ISZERO PUSH2 0x2578 JUMPI PUSH2 0x2577 PUSH2 0x253B JUMP JUMPDEST JUMPDEST PUSH1 0x20 DUP4 ADD SWAP2 POP DUP4 PUSH1 0x20 DUP3 MUL DUP4 ADD GT ISZERO PUSH2 0x2594 JUMPI PUSH2 0x2593 PUSH2 0x2540 JUMP JUMPDEST JUMPDEST SWAP3 POP SWAP3 SWAP1 POP JUMP JUMPDEST PUSH1 0x0 PUSH20 0xFFFFFFFFFFFFFFFFFFFFFFFFFFFFFFFFFFFFFFFF DUP3 AND SWAP1 POP SWAP2 SWAP1 POP JUMP JUMPDEST PUSH1 0x0 PUSH2 0x25C6 DUP3 PUSH2 0x259B JUMP JUMPDEST SWAP1 POP SWAP2 SWAP1 POP JUMP JUMPDEST PUSH2 0x25D6 DUP2 PUSH2 0x25BB JUMP JUMPDEST DUP2 EQ PUSH2 0x25E1 JUMPI PUSH1 0x0 DUP1 REVERT JUMPDEST POP JUMP JUMPDEST PUSH1 0x0 DUP2 CALLDATALOAD SWAP1 POP PUSH2 0x25F3 DUP2 PUSH2 0x25CD JUMP JUMPDEST SWAP3 SWAP2 POP POP JUMP JUMPDEST PUSH1 0x0 DUP1 PUSH1 0x0 DUP1 PUSH1 0x60 DUP6 DUP8 SUB SLT ISZERO PUSH2 0x2613 JUMPI PUSH2 0x2612 PUSH2 0x2479 JUMP JUMPDEST JUMPDEST PUSH1 0x0 PUSH2 0x2621 DUP8 DUP3 DUP9 ADD PUSH2 0x24A4 JUMP JUMPDEST SWAP5 POP POP PUSH1 0x20 DUP6 ADD CALLDATALOAD PUSH8 0xFFFFFFFFFFFFFFFF DUP2 GT ISZERO PUSH2 0x2642 JUMPI PUSH2 0x2641 PUSH2 0x247E JUMP JUMPDEST JUMPDEST PUSH2 0x264E DUP8 DUP3 DUP9 ADD PUSH2 0x2545 JUMP JUMPDEST SWAP4 POP SWAP4 POP POP PUSH1 0x40 PUSH2 0x2661 DUP8 DUP3 DUP9 ADD PUSH2 0x25E4 JUMP JUMPDEST SWAP2 POP POP SWAP3 SWAP6 SWAP2 SWAP5 POP SWAP3 POP JUMP JUMPDEST PUSH1 0x0 DUP2 MLOAD SWAP1 POP SWAP2 SWAP1 POP JUMP JUMPDEST PUSH1 0x0 DUP3 DUP3 MSTORE PUSH1 0x20 DUP3 ADD SWAP1 POP SWAP3 SWAP2 POP POP JUMP JUMPDEST PUSH1 0x0 DUP2 SWAP1 POP PUSH1 0x20 DUP3 ADD SWAP1 POP SWAP2 SWAP1 POP JUMP JUMPDEST PUSH2 0x26A2 DUP2 PUSH2 0x2483 JUMP JUMPDEST DUP3 MSTORE POP POP JUMP JUMPDEST PUSH1 0x0 PUSH2 0x26B4 DUP4 DUP4 PUSH2 0x2699 JUMP JUMPDEST PUSH1 0x20 DUP4 ADD SWAP1 POP SWAP3 SWAP2 POP POP JUMP JUMPDEST PUSH1 0x0 PUSH1 0x20 DUP3 ADD SWAP1 POP SWAP2 SWAP1 POP JUMP JUMPDEST PUSH1 0x0 PUSH2 0x26D8 DUP3 PUSH2 0x266D JUMP JUMPDEST PUSH2 0x26E2 DUP2 DUP6 PUSH2 0x2678 JUMP JUMPDEST SWAP4 POP PUSH2 0x26ED DUP4 PUSH2 0x2689 JUMP JUMPDEST DUP1 PUSH1 0x0 JUMPDEST DUP4 DUP2 LT ISZERO PUSH2 0x271E JUMPI DUP2 MLOAD PUSH2 0x2705 DUP9 DUP3 PUSH2 0x26A8 JUMP JUMPDEST SWAP8 POP PUSH2 0x2710 DUP4 PUSH2 0x26C0 JUMP JUMPDEST SWAP3 POP POP PUSH1 0x1 DUP2 ADD SWAP1 POP PUSH2 0x26F1 JUMP JUMPDEST POP DUP6 SWAP4 POP POP POP POP SWAP3 SWAP2 POP POP JUMP JUMPDEST PUSH1 0x0 PUSH1 0x20 DUP3 ADD SWAP1 POP DUP2 DUP2 SUB PUSH1 0x0 DUP4 ADD MSTORE PUSH2 0x2745 DUP2 DUP5 PUSH2 0x26CD JUMP JUMPDEST SWAP1 POP SWAP3 SWAP2 POP POP JUMP JUMPDEST PUSH1 0x0 PUSH1 0x1F NOT PUSH1 0x1F DUP4 ADD AND SWAP1 POP SWAP2 SWAP1 POP JUMP JUMPDEST PUSH32 0x4E487B7100000000000000000000000000000000000000000000000000000000 PUSH1 0x0 MSTORE PUSH1 0x41 PUSH1 0x4 MSTORE PUSH1 0x24 PUSH1 0x0 REVERT JUMPDEST PUSH2 0x2796 DUP3 PUSH2 0x274D JUMP JUMPDEST DUP2 ADD DUP2 DUP2 LT PUSH8 0xFFFFFFFFFFFFFFFF DUP3 GT OR ISZERO PUSH2 0x27B5 JUMPI PUSH2 0x27B4 PUSH2 0x275E JUMP JUMPDEST JUMPDEST DUP1 PUSH1 0x40 MSTORE POP POP POP JUMP JUMPDEST PUSH1 0x0 PUSH2 0x27C8 PUSH2 0x246F JUMP JUMPDEST SWAP1 POP PUSH2 0x27D4 DUP3 DUP3 PUSH2 0x278D JUMP JUMPDEST SWAP2 SWAP1 POP JUMP JUMPDEST PUSH1 0x0 PUSH8 0xFFFFFFFFFFFFFFFF DUP3 GT ISZERO PUSH2 0x27F4 JUMPI PUSH2 0x27F3 PUSH2 0x275E JUMP JUMPDEST JUMPDEST PUSH1 0x20 DUP3 MUL SWAP1 POP PUSH1 0x20 DUP2 ADD SWAP1 POP SWAP2 SWAP1 POP JUMP JUMPDEST PUSH1 0x0 PUSH2 0x2818 PUSH2 0x2813 DUP5 PUSH2 0x27D9 JUMP JUMPDEST PUSH2 0x27BE JUMP JUMPDEST SWAP1 POP DUP1 DUP4 DUP3 MSTORE PUSH1 0x20 DUP3 ADD SWAP1 POP PUSH1 0x20 DUP5 MUL DUP4 ADD DUP6 DUP2 GT ISZERO PUSH2 0x283B JUMPI PUSH2 0x283A PUSH2 0x2540 JUMP JUMPDEST JUMPDEST DUP4 JUMPDEST DUP2 DUP2 LT ISZERO PUSH2 0x2864 JUMPI DUP1 PUSH2 0x2850 DUP9 DUP3 PUSH2 0x25E4 JUMP JUMPDEST DUP5 MSTORE PUSH1 0x20 DUP5 ADD SWAP4 POP POP PUSH1 0x20 DUP2 ADD SWAP1 POP PUSH2 0x283D JUMP JUMPDEST POP POP POP SWAP4 SWAP3 POP POP POP JUMP JUMPDEST PUSH1 0x0 DUP3 PUSH1 0x1F DUP4 ADD SLT PUSH2 0x2883 JUMPI PUSH2 0x2882 PUSH2 0x2536 JUMP JUMPDEST JUMPDEST DUP2 CALLDATALOAD PUSH2 0x2893 DUP5 DUP3 PUSH1 0x20 DUP7 ADD PUSH2 0x2805 JUMP JUMPDEST SWAP2 POP POP SWAP3 SWAP2 POP POP JUMP JUMPDEST PUSH1 0x0 DUP1 PUSH1 0x40 DUP4 DUP6 SUB SLT ISZERO PUSH2 0x28B3 JUMPI PUSH2 0x28B2 PUSH2 0x2479 JUMP JUMPDEST JUMPDEST PUSH1 0x0 PUSH2 0x28C1 DUP6 DUP3 DUP7 ADD PUSH2 0x24A4 JUMP JUMPDEST SWAP3 POP POP PUSH1 0x20 DUP4 ADD CALLDATALOAD PUSH8 0xFFFFFFFFFFFFFFFF DUP2 GT ISZERO PUSH2 0x28E2 JUMPI PUSH2 0x28E1 PUSH2 0x247E JUMP JUMPDEST JUMPDEST PUSH2 0x28EE DUP6 DUP3 DUP7 ADD PUSH2 0x286E JUMP JUMPDEST SWAP2 POP POP SWAP3 POP SWAP3 SWAP1 POP JUMP JUMPDEST PUSH1 0x0 DUP1 PUSH1 0x0 DUP1 PUSH1 0x0 PUSH1 0x80 DUP7 DUP9 SUB SLT ISZERO PUSH2 0x2914 JUMPI PUSH2 0x2913 PUSH2 0x2479 JUMP JUMPDEST JUMPDEST PUSH1 0x0 PUSH2 0x2922 DUP9 DUP3 DUP10 ADD PUSH2 0x24A4 JUMP JUMPDEST SWAP6 POP POP PUSH1 0x20 PUSH2 0x2933 DUP9 DUP3 DUP10 ADD PUSH2 0x24A4 JUMP JUMPDEST SWAP5 POP POP PUSH1 0x40 DUP7 ADD CALLDATALOAD PUSH8 0xFFFFFFFFFFFFFFFF DUP2 GT ISZERO PUSH2 0x2954 JUMPI PUSH2 0x2953 PUSH2 0x247E JUMP JUMPDEST JUMPDEST PUSH2 0x2960 DUP9 DUP3 DUP10 ADD PUSH2 0x2545 JUMP JUMPDEST SWAP4 POP SWAP4 POP POP PUSH1 0x60 PUSH2 0x2973 DUP9 DUP3 DUP10 ADD PUSH2 0x25E4 JUMP JUMPDEST SWAP2 POP POP SWAP3 SWAP6 POP SWAP3 SWAP6 SWAP1 SWAP4 POP JUMP JUMPDEST PUSH1 0x0 DUP1 PUSH1 0x0 DUP1 PUSH1 0x0 PUSH1 0xA0 DUP7 DUP9 SUB SLT ISZERO PUSH2 0x299C JUMPI PUSH2 0x299B PUSH2 0x2479 JUMP JUMPDEST JUMPDEST PUSH1 0x0 PUSH2 0x29AA DUP9 DUP3 DUP10 ADD PUSH2 0x25E4 JUMP JUMPDEST SWAP6 POP POP PUSH1 0x20 PUSH2 0x29BB DUP9 DUP3 DUP10 ADD PUSH2 0x24A4 JUMP JUMPDEST SWAP5 POP POP PUSH1 0x40 PUSH2 0x29CC DUP9 DUP3 DUP10 ADD PUSH2 0x24A4 JUMP JUMPDEST SWAP4 POP POP PUSH1 0x60 PUSH2 0x29DD DUP9 DUP3 DUP10 ADD PUSH2 0x24A4 JUMP JUMPDEST SWAP3 POP POP PUSH1 0x80 PUSH2 0x29EE DUP9 DUP3 DUP10 ADD PUSH2 0x25E4 JUMP JUMPDEST SWAP2 POP POP SWAP3 SWAP6 POP SWAP3 SWAP6 SWAP1 SWAP4 POP JUMP JUMPDEST PUSH1 0x0 PUSH1 0x40 DUP3 ADD SWAP1 POP PUSH2 0x2A10 PUSH1 0x0 DUP4 ADD DUP6 PUSH2 0x250C JUMP JUMPDEST PUSH2 0x2A1D PUSH1 0x20 DUP4 ADD DUP5 PUSH2 0x250C JUMP JUMPDEST SWAP4 SWAP3 POP POP POP JUMP JUMPDEST PUSH1 0x0 PUSH1 0x60 DUP3 ADD SWAP1 POP PUSH2 0x2A39 PUSH1 0x0 DUP4 ADD DUP7 PUSH2 0x250C JUMP JUMPDEST PUSH2 0x2A46 PUSH1 0x20 DUP4 ADD DUP6 PUSH2 0x250C JUMP JUMPDEST PUSH2 0x2A53 PUSH1 0x40 DUP4 ADD DUP5 PUSH2 0x250C JUMP JUMPDEST SWAP5 SWAP4 POP POP POP POP JUMP JUMPDEST PUSH1 0x0 DUP1 PUSH1 0x0 DUP1 PUSH1 0x0 DUP1 PUSH1 0xC0 DUP8 DUP10 SUB SLT ISZERO PUSH2 0x2A78 JUMPI PUSH2 0x2A77 PUSH2 0x2479 JUMP JUMPDEST JUMPDEST PUSH1 0x0 PUSH2 0x2A86 DUP10 DUP3 DUP11 ADD PUSH2 0x25E4 JUMP JUMPDEST SWAP7 POP POP PUSH1 0x20 PUSH2 0x2A97 DUP10 DUP3 DUP11 ADD PUSH2 0x25E4 JUMP JUMPDEST SWAP6 POP POP PUSH1 0x40 PUSH2 0x2AA8 DUP10 DUP3 DUP11 ADD PUSH2 0x24A4 JUMP JUMPDEST SWAP5 POP POP PUSH1 0x60 PUSH2 0x2AB9 DUP10 DUP3 DUP11 ADD PUSH2 0x24A4 JUMP JUMPDEST SWAP4 POP POP PUSH1 0x80 PUSH2 0x2ACA DUP10 DUP3 DUP11 ADD PUSH2 0x24A4 JUMP JUMPDEST SWAP3 POP POP PUSH1 0xA0 PUSH2 0x2ADB DUP10 DUP3 DUP11 ADD PUSH2 0x25E4 JUMP JUMPDEST SWAP2 POP POP SWAP3 SWAP6 POP SWAP3 SWAP6 POP SWAP3 SWAP6 JUMP JUMPDEST PUSH1 0x0 DUP1 PUSH1 0x0 DUP1 PUSH1 0x0 DUP1 PUSH1 0x0 PUSH1 0xE0 DUP9 DUP11 SUB SLT ISZERO PUSH2 0x2B07 JUMPI PUSH2 0x2B06 PUSH2 0x2479 JUMP JUMPDEST JUMPDEST PUSH1 0x0 PUSH2 0x2B15 DUP11 DUP3 DUP12 ADD PUSH2 0x25E4 JUMP JUMPDEST SWAP8 POP POP PUSH1 0x20 PUSH2 0x2B26 DUP11 DUP3 DUP12 ADD PUSH2 0x25E4 JUMP JUMPDEST SWAP7 POP POP PUSH1 0x40 PUSH2 0x2B37 DUP11 DUP3 DUP12 ADD PUSH2 0x24A4 JUMP JUMPDEST SWAP6 POP POP PUSH1 0x60 PUSH2 0x2B48 DUP11 DUP3 DUP12 ADD PUSH2 0x24A4 JUMP JUMPDEST SWAP5 POP POP PUSH1 0x80 PUSH2 0x2B59 DUP11 DUP3 DUP12 ADD PUSH2 0x24A4 JUMP JUMPDEST SWAP4 POP POP PUSH1 0xA0 PUSH2 0x2B6A DUP11 DUP3 DUP12 ADD PUSH2 0x24A4 JUMP JUMPDEST SWAP3 POP POP PUSH1 0xC0 PUSH2 0x2B7B DUP11 DUP3 DUP12 ADD PUSH2 0x25E4 JUMP JUMPDEST SWAP2 POP POP SWAP3 SWAP6 SWAP9 SWAP2 SWAP5 SWAP8 POP SWAP3 SWAP6 POP JUMP JUMPDEST PUSH2 0x2B93 DUP2 PUSH2 0x2483 JUMP JUMPDEST DUP3 MSTORE POP POP JUMP JUMPDEST PUSH1 0x0 PUSH1 0x60 DUP3 ADD SWAP1 POP PUSH2 0x2BAE PUSH1 0x0 DUP4 ADD DUP7 PUSH2 0x2B8A JUMP JUMPDEST PUSH2 0x2BBB PUSH1 0x20 DUP4 ADD DUP6 PUSH2 0x2B8A JUMP JUMPDEST PUSH2 0x2BC8 PUSH1 0x40 DUP4 ADD DUP5 PUSH2 0x2B8A JUMP JUMPDEST SWAP5 SWAP4 POP POP POP POP JUMP JUMPDEST PUSH1 0x0 DUP2 MLOAD SWAP1 POP PUSH2 0x2BDF DUP2 PUSH2 0x248D JUMP JUMPDEST SWAP3 SWAP2 POP POP JUMP JUMPDEST PUSH1 0x0 PUSH1 0x20 DUP3 DUP5 SUB SLT ISZERO PUSH2 0x2BFB JUMPI PUSH2 0x2BFA PUSH2 0x2479 JUMP JUMPDEST JUMPDEST PUSH1 0x0 PUSH2 0x2C09 DUP5 DUP3 DUP6 ADD PUSH2 0x2BD0 JUMP JUMPDEST SWAP2 POP POP SWAP3 SWAP2 POP POP JUMP JUMPDEST PUSH32 0x4E487B7100000000000000000000000000000000000000000000000000000000 PUSH1 0x0 MSTORE PUSH1 0x32 PUSH1 0x4 MSTORE PUSH1 0x24 PUSH1 0x0 REVERT JUMPDEST PUSH1 0x0 PUSH1 0x20 DUP3 DUP5 SUB SLT ISZERO PUSH2 0x2C57 JUMPI PUSH2 0x2C56 PUSH2 0x2479 JUMP JUMPDEST JUMPDEST PUSH1 0x0 PUSH2 0x2C65 DUP5 DUP3 DUP6 ADD PUSH2 0x25E4 JUMP JUMPDEST SWAP2 POP POP SWAP3 SWAP2 POP POP JUMP JUMPDEST PUSH1 0x0 DUP3 DUP3 MSTORE PUSH1 0x20 DUP3 ADD SWAP1 POP SWAP3 SWAP2 POP POP JUMP JUMPDEST PUSH32 0x4B616A7573776170526F757465723A20494E56414C49445F5041544800000000 PUSH1 0x0 DUP3 ADD MSTORE POP JUMP JUMPDEST PUSH1 0x0 PUSH2 0x2CB5 PUSH1 0x1C DUP4 PUSH2 0x2C6E JUMP JUMPDEST SWAP2 POP PUSH2 0x2CC0 DUP3 PUSH2 0x2C7F JUMP JUMPDEST PUSH1 0x20 DUP3 ADD SWAP1 POP SWAP2 SWAP1 POP JUMP JUMPDEST PUSH1 0x0 PUSH1 0x20 DUP3 ADD SWAP1 POP DUP2 DUP2 SUB PUSH1 0x0 DUP4 ADD MSTORE PUSH2 0x2CE4 DUP2 PUSH2 0x2CA8 JUMP JUMPDEST SWAP1 POP SWAP2 SWAP1 POP JUMP JUMPDEST PUSH2 0x2CF4 DUP2 PUSH2 0x25BB JUMP JUMPDEST DUP3 MSTORE POP POP JUMP JUMPDEST PUSH1 0x0 DUP3 DUP3 MSTORE PUSH1 0x20 DUP3 ADD SWAP1 POP SWAP3 SWAP2 POP POP JUMP JUMPDEST PUSH1 0x0 DUP2 SWAP1 POP SWAP2 SWAP1 POP JUMP JUMPDEST PUSH2 0x2D1E DUP2 PUSH2 0x25BB JUMP JUMPDEST DUP3 MSTORE POP POP JUMP JUMPDEST PUSH1 0x0 PUSH2 0x2D30 DUP4 DUP4 PUSH2 0x2D15 JUMP JUMPDEST PUSH1 0x20 DUP4 ADD SWAP1 POP SWAP3 SWAP2 POP POP JUMP JUMPDEST PUSH1 0x0 PUSH2 0x2D4B PUSH1 0x20 DUP5 ADD DUP5 PUSH2 0x25E4 JUMP JUMPDEST SWAP1 POP SWAP3 SWAP2 POP POP JUMP JUMPDEST PUSH1 0x0 PUSH1 0x20 DUP3 ADD SWAP1 POP SWAP2 SWAP1 POP JUMP JUMPDEST PUSH1 0x0 PUSH2 0x2D6C DUP4 DUP6 PUSH2 0x2CFA JUMP JUMPDEST SWAP4 POP PUSH2 0x2D77 DUP3 PUSH2 0x2D0B JUMP JUMPDEST DUP1 PUSH1 0x0 JUMPDEST DUP6 DUP2 LT ISZERO PUSH2 0x2DB0 JUMPI PUSH2 0x2D8D DUP3 DUP5 PUSH2 0x2D3C JUMP JUMPDEST PUSH2 0x2D97 DUP9 DUP3 PUSH2 0x2D24 JUMP JUMPDEST SWAP8 POP PUSH2 0x2DA2 DUP4 PUSH2 0x2D53 JUMP JUMPDEST SWAP3 POP POP PUSH1 0x1 DUP2 ADD SWAP1 POP PUSH2 0x2D7B JUMP JUMPDEST POP DUP6 SWAP3 POP POP POP SWAP4 SWAP3 POP POP POP JUMP JUMPDEST PUSH1 0x0 PUSH1 0x60 DUP3 ADD SWAP1 POP PUSH2 0x2DD2 PUSH1 0x0 DUP4 ADD DUP8 PUSH2 0x2CEB JUMP JUMPDEST PUSH2 0x2DDF PUSH1 0x20 DUP4 ADD DUP7 PUSH2 0x2B8A JUMP JUMPDEST DUP2 DUP2 SUB PUSH1 0x40 DUP4 ADD MSTORE PUSH2 0x2DF2 DUP2 DUP5 DUP7 PUSH2 0x2D60 JUMP JUMPDEST SWAP1 POP SWAP6 SWAP5 POP POP POP POP POP JUMP JUMPDEST PUSH1 0x0 PUSH8 0xFFFFFFFFFFFFFFFF DUP3 GT ISZERO PUSH2 0x2E18 JUMPI PUSH2 0x2E17 PUSH2 0x275E JUMP JUMPDEST JUMPDEST PUSH1 0x20 DUP3 MUL SWAP1 POP PUSH1 0x20 DUP2 ADD SWAP1 POP SWAP2 SWAP1 POP JUMP JUMPDEST PUSH1 0x0 PUSH2 0x2E3C PUSH2 0x2E37 DUP5 PUSH2 0x2DFD JUMP JUMPDEST PUSH2 0x27BE JUMP JUMPDEST SWAP1 POP DUP1 DUP4 DUP3 MSTORE PUSH1 0x20 DUP3 ADD SWAP1 POP PUSH1 0x20 DUP5 MUL DUP4 ADD DUP6 DUP2 GT ISZERO PUSH2 0x2E5F JUMPI PUSH2 0x2E5E PUSH2 0x2540 JUMP JUMPDEST JUMPDEST DUP4 JUMPDEST DUP2 DUP2 LT ISZERO PUSH2 0x2E88 JUMPI DUP1 PUSH2 0x2E74 DUP9 DUP3 PUSH2 0x2BD0 JUMP JUMPDEST DUP5 MSTORE PUSH1 0x20 DUP5 ADD SWAP4 POP POP PUSH1 0x20 DUP2 ADD SWAP1 POP PUSH2 0x2E61 JUMP JUMPDEST POP POP POP SWAP4 SWAP3 POP POP POP JUMP JUMPDEST PUSH1 0x0 DUP3 PUSH1 0x1F DUP4 ADD SLT PUSH2 0x2EA7 JUMPI PUSH2 0x2EA6 PUSH2 0x2536 JUMP JUMPDEST JUMPDEST DUP2 MLOAD PUSH2 0x2EB7 DUP5 DUP3 PUSH1 0x20 DUP7 ADD PUSH2 0x2E29 JUMP JUMPDEST SWAP2 POP POP SWAP3 SWAP2 POP POP JUMP JUMPDEST PUSH1 0x0 PUSH1 0x20 DUP3 DUP5 SUB SLT ISZERO PUSH2 0x2ED6 JUMPI PUSH2 0x2ED5 PUSH2 0x2479 JUMP JUMPDEST JUMPDEST PUSH1 0x0 DUP3 ADD MLOAD PUSH8 0xFFFFFFFFFFFFFFFF DUP2 GT ISZERO PUSH2 0x2EF4 JUMPI PUSH2 0x2EF3 PUSH2 0x247E JUMP JUMPDEST JUMPDEST PUSH2 0x2F00 DUP5 DUP3 DUP6 ADD PUSH2 0x2E92 JUMP JUMPDEST SWAP2 POP POP SWAP3 SWAP2 POP POP JUMP JUMPDEST PUSH32 0x4E487B7100000000000000000000000000000000000000000000000000000000 PUSH1 0x0 MSTORE PUSH1 0x11 PUSH1 0x4 MSTORE PUSH1 0x24 PUSH1 0x0 REVERT JUMPDEST PUSH1 0x0 PUSH2 0x2F43 DUP3 PUSH2 0x2483 JUMP JUMPDEST SWAP2 POP PUSH2 0x2F4E DUP4 PUSH2 0x2483 JUMP JUMPDEST SWAP3 POP DUP3 DUP3 SUB SWAP1 POP DUP2 DUP2 GT ISZERO PUSH2 0x2F66 JUMPI PUSH2 0x2F65 PUSH2 0x2F09 JUMP JUMPDEST JUMPDEST SWAP3 SWAP2 POP POP JUMP JUMPDEST PUSH32 0x4B616A7573776170526F757465723A20494E53554646494349454E545F4F5554 PUSH1 0x0 DUP3 ADD MSTORE PUSH32 0x5055545F414D4F554E5400000000000000000000000000000000000000000000 PUSH1 0x20 DUP3 ADD MSTORE POP JUMP JUMPDEST PUSH1 0x0 PUSH2 0x2FC8 PUSH1 0x2A DUP4 PUSH2 0x2C6E JUMP JUMPDEST SWAP2 POP PUSH2 0x2FD3 DUP3 PUSH2 0x2F6C JUMP JUMPDEST PUSH1 0x40 DUP3 ADD SWAP1 POP SWAP2 SWAP1 POP JUMP JUMPDEST PUSH1 0x0 PUSH1 0x20 DUP3 ADD SWAP1 POP DUP2 DUP2 SUB PUSH1 0x0 DUP4 ADD MSTORE PUSH2 0x2FF7 DUP2 PUSH2 0x2FBB JUMP JUMPDEST SWAP1 POP SWAP2 SWAP1 POP JUMP JUMPDEST PUSH2 0x3007 DUP2 PUSH2 0x25BB JUMP JUMPDEST DUP3 MSTORE POP POP JUMP JUMPDEST PUSH1 0x0 PUSH1 0x40 DUP3 ADD SWAP1 POP PUSH2 0x3022 PUSH1 0x0 DUP4 ADD DUP6 PUSH2 0x2FFE JUMP JUMPDEST PUSH2 0x302F PUSH1 0x20 DUP4 ADD DUP5 PUSH2 0x250C JUMP JUMPDEST SWAP4 SWAP3 POP POP POP JUMP JUMPDEST PUSH1 0x0 DUP2 ISZERO ISZERO SWAP1 POP SWAP2 SWAP1 POP JUMP JUMPDEST PUSH2 0x304B DUP2 PUSH2 0x3036 JUMP JUMPDEST DUP2 EQ PUSH2 0x3056 JUMPI PUSH1 0x0 DUP1 REVERT JUMPDEST POP JUMP JUMPDEST PUSH1 0x0 DUP2 MLOAD SWAP1 POP PUSH2 0x3068 DUP2 PUSH2 0x3042 JUMP JUMPDEST SWAP3 SWAP2 POP POP JUMP JUMPDEST PUSH1 0x0 PUSH1 0x20 DUP3 DUP5 SUB SLT ISZERO PUSH2 0x3084 JUMPI PUSH2 0x3083 PUSH2 0x2479 JUMP JUMPDEST JUMPDEST PUSH1 0x0 PUSH2 0x3092 DUP5 DUP3 DUP6 ADD PUSH2 0x3059 JUMP JUMPDEST SWAP2 POP POP SWAP3 SWAP2 POP POP JUMP JUMPDEST PUSH32 0x4E487B7100000000000000000000000000000000000000000000000000000000 PUSH1 0x0 MSTORE PUSH1 0x1 PUSH1 0x4 MSTORE PUSH1 0x24 PUSH1 0x0 REVERT JUMPDEST PUSH1 0x0 DUP2 MLOAD SWAP1 POP SWAP2 SWAP1 POP JUMP JUMPDEST PUSH1 0x0 DUP2 SWAP1 POP PUSH1 0x20 DUP3 ADD SWAP1 POP SWAP2 SWAP1 POP JUMP JUMPDEST PUSH1 0x0 PUSH1 0x20 DUP3 ADD SWAP1 POP SWAP2 SWAP1 POP JUMP JUMPDEST PUSH1 0x0 PUSH2 0x30FD DUP3 PUSH2 0x30CA JUMP JUMPDEST PUSH2 0x3107 DUP2 DUP6 PUSH2 0x2CFA JUMP JUMPDEST SWAP4 POP PUSH2 0x3112 DUP4 PUSH2 0x30D5 JUMP JUMPDEST DUP1 PUSH1 0x0 JUMPDEST DUP4 DUP2 LT ISZERO PUSH2 0x3143 JUMPI DUP2 MLOAD PUSH2 0x312A DUP9 DUP3 PUSH2 0x2D24 JUMP JUMPDEST SWAP8 POP PUSH2 0x3135 DUP4 PUSH2 0x30E5 JUMP JUMPDEST SWAP3 POP POP PUSH1 0x1 DUP2 ADD SWAP1 POP PUSH2 0x3116 JUMP JUMPDEST POP DUP6 SWAP4 POP POP POP POP SWAP3 SWAP2 POP POP JUMP JUMPDEST PUSH1 0x0 PUSH1 0x60 DUP3 ADD SWAP1 POP PUSH2 0x3165 PUSH1 0x0 DUP4 ADD DUP7 PUSH2 0x2CEB JUMP JUMPDEST PUSH2 0x3172 PUSH1 0x20 DUP4 ADD DUP6 PUSH2 0x2B8A JUMP JUMPDEST DUP2 DUP2 SUB PUSH1 0x40 DUP4 ADD MSTORE PUSH2 0x3184 DUP2 DUP5 PUSH2 0x30F2 JUMP JUMPDEST SWAP1 POP SWAP5 SWAP4 POP POP POP POP JUMP JUMPDEST PUSH32 0x4B616A7573776170526F757465723A204558434553534956455F494E5055545F PUSH1 0x0 DUP3 ADD MSTORE PUSH32 0x414D4F554E540000000000000000000000000000000000000000000000000000 PUSH1 0x20 DUP3 ADD MSTORE POP JUMP JUMPDEST PUSH1 0x0 PUSH2 0x31EA PUSH1 0x26 DUP4 PUSH2 0x2C6E JUMP JUMPDEST SWAP2 POP PUSH2 0x31F5 DUP3 PUSH2 0x318E JUMP JUMPDEST PUSH1 0x40 DUP3 ADD SWAP1 POP SWAP2 SWAP1 POP JUMP JUMPDEST PUSH1 0x0 PUSH1 0x20 DUP3 ADD SWAP1 POP DUP2 DUP2 SUB PUSH1 0x0 DUP4 ADD MSTORE PUSH2 0x3219 DUP2 PUSH2 0x31DD JUMP JUMPDEST SWAP1 POP SWAP2 SWAP1 POP JUMP JUMPDEST PUSH1 0x0 PUSH1 0x20 DUP3 ADD SWAP1 POP PUSH2 0x3235 PUSH1 0x0 DUP4 ADD DUP5 PUSH2 0x2FFE JUMP JUMPDEST SWAP3 SWAP2 POP POP JUMP JUMPDEST PUSH1 0x0 PUSH1 0x60 DUP3 ADD SWAP1 POP PUSH2 0x3250 PUSH1 0x0 DUP4 ADD DUP7 PUSH2 0x2FFE JUMP JUMPDEST PUSH2 0x325D PUSH1 0x20 DUP4 ADD DUP6 PUSH2 0x2FFE JUMP JUMPDEST PUSH2 0x326A PUSH1 0x40 DUP4 ADD DUP5 PUSH2 0x250C JUMP JUMPDEST SWAP5 SWAP4 POP POP POP POP JUMP JUMPDEST PUSH1 0x0 DUP1 PUSH1 0x40 DUP4 DUP6 SUB SLT ISZERO PUSH2 0x3289 JUMPI PUSH2 0x3288 PUSH2 0x2479 JUMP JUMPDEST JUMPDEST PUSH1 0x0 PUSH2 0x3297 DUP6 DUP3 DUP7 ADD PUSH2 0x2BD0 JUMP JUMPDEST SWAP3 POP POP PUSH1 0x20 PUSH2 0x32A8 DUP6 DUP3 DUP7 ADD PUSH2 0x2BD0 JUMP JUMPDEST SWAP2 POP POP SWAP3 POP SWAP3 SWAP1 POP JUMP JUMPDEST PUSH32 0x4B616A7573776170526F757465723A20494E53554646494349454E545F415F41 PUSH1 0x0 DUP3 ADD MSTORE PUSH32 0x4D4F554E54000000000000000000000000000000000000000000000000000000 PUSH1 0x20 DUP3 ADD MSTORE POP JUMP JUMPDEST PUSH1 0x0 PUSH2 0x330E PUSH1 0x25 DUP4 PUSH2 0x2C6E JUMP JUMPDEST SWAP2 POP PUSH2 0x3319 DUP3 PUSH2 0x32B2 JUMP JUMPDEST PUSH1 0x40 DUP3 ADD SWAP1 POP SWAP2 SWAP1 POP JUMP JUMPDEST PUSH1 0x0 PUSH1 0x20 DUP3 ADD SWAP1 POP DUP2 DUP2 SUB PUSH1 0x0 DUP4 ADD MSTORE PUSH2 0x333D DUP2 PUSH2 0x3301 JUMP JUMPDEST SWAP1 POP SWAP2 SWAP1 POP JUMP JUMPDEST PUSH32 0x4B616A7573776170526F757465723A20494E53554646494349454E545F425F41 PUSH1 0x0 DUP3 ADD MSTORE PUSH32 0x4D4F554E54000000000000000000000000000000000000000000000000000000 PUSH1 0x20 DUP3 ADD MSTORE POP JUMP JUMPDEST PUSH1 0x0 PUSH2 0x33A0 PUSH1 0x25 DUP4 PUSH2 0x2C6E JUMP JUMPDEST SWAP2 POP PUSH2 0x33AB DUP3 PUSH2 0x3344 JUMP JUMPDEST PUSH1 0x40 DUP3 ADD SWAP1 POP SWAP2 SWAP1 POP JUMP JUMPDEST PUSH1 0x0 PUSH1 0x20 DUP3 ADD SWAP1 POP DUP2 DUP2 SUB PUSH1 0x0 DUP4 ADD MSTORE PUSH2 0x33CF DUP2 PUSH2 0x3393 JUMP JUMPDEST SWAP1 POP SWAP2 SWAP1 POP JUMP JUMPDEST PUSH1 0x0 PUSH1 0x40 DUP3 ADD SWAP1 POP PUSH2 0x33EB PUSH1 0x0 DUP4 ADD DUP6 PUSH2 0x2FFE JUMP JUMPDEST PUSH2 0x33F8 PUSH1 0x20 DUP4 ADD DUP5 PUSH2 0x2FFE JUMP JUMPDEST SWAP4 SWAP3 POP POP POP JUMP JUMPDEST PUSH1 0x0 DUP2 MLOAD SWAP1 POP PUSH2 0x340E DUP2 PUSH2 0x25CD JUMP JUMPDEST SWAP3 SWAP2 POP POP JUMP JUMPDEST PUSH1 0x0 PUSH1 0x20 DUP3 DUP5 SUB SLT ISZERO PUSH2 0x342A JUMPI PUSH2 0x3429 PUSH2 0x2479 JUMP JUMPDEST JUMPDEST PUSH1 0x0 PUSH2 0x3438 DUP5 DUP3 DUP6 ADD PUSH2 0x33FF JUMP JUMPDEST SWAP2 POP POP SWAP3 SWAP2 POP POP JUMP JUMPDEST PUSH1 0x0 DUP2 PUSH1 0x60 SHL SWAP1 POP SWAP2 SWAP1 POP JUMP JUMPDEST PUSH1 0x0 PUSH2 0x3459 DUP3 PUSH2 0x3441 JUMP JUMPDEST SWAP1 POP SWAP2 SWAP1 POP JUMP JUMPDEST PUSH1 0x0 PUSH2 0x346B DUP3 PUSH2 0x344E JUMP JUMPDEST SWAP1 POP SWAP2 SWAP1 POP JUMP JUMPDEST PUSH2 0x3483 PUSH2 0x347E DUP3 PUSH2 0x25BB JUMP JUMPDEST PUSH2 0x3460 JUMP JUMPDEST DUP3 MSTORE POP POP JUMP JUMPDEST PUSH1 0x0 PUSH2 0x3495 DUP3 DUP6 PUSH2 0x3472 JUMP JUMPDEST PUSH1 0x14 DUP3 ADD SWAP2 POP PUSH2 0x34A5 DUP3 DUP5 PUSH2 0x3472 JUMP JUMPDEST PUSH1 0x14 DUP3 ADD SWAP2 POP DUP2 SWAP1 POP SWAP4 SWAP3 POP POP POP JUMP JUMPDEST PUSH1 0x0 DUP2 SWAP1 POP SWAP3 SWAP2 POP POP JUMP JUMPDEST PUSH32 0xFF00000000000000000000000000000000000000000000000000000000000000 PUSH1 0x0 DUP3 ADD MSTORE POP JUMP JUMPDEST PUSH1 0x0 PUSH2 0x34F6 PUSH1 0x1 DUP4 PUSH2 0x34B5 JUMP JUMPDEST SWAP2 POP PUSH2 0x3501 DUP3 PUSH2 0x34C0 JUMP JUMPDEST PUSH1 0x1 DUP3 ADD SWAP1 POP SWAP2 SWAP1 POP JUMP JUMPDEST PUSH1 0x0 DUP2 SWAP1 POP SWAP2 SWAP1 POP JUMP JUMPDEST PUSH1 0x0 DUP2 SWAP1 POP SWAP2 SWAP1 POP JUMP JUMPDEST PUSH2 0x3531 PUSH2 0x352C DUP3 PUSH2 0x350C JUMP JUMPDEST PUSH2 0x3516 JUMP JUMPDEST DUP3 MSTORE POP POP JUMP JUMPDEST PUSH31 0xB94BC5BFF565DB42203D34114A58E1896436DAE13B989F9FF92FE211B10630 PUSH1 0x0 DUP3 ADD MSTORE POP JUMP JUMPDEST PUSH1 0x0 PUSH2 0x356C PUSH1 0x20 DUP4 PUSH2 0x34B5 JUMP JUMPDEST SWAP2 POP PUSH2 0x3577 DUP3 PUSH2 0x3537 JUMP JUMPDEST PUSH1 0x20 DUP3 ADD SWAP1 POP SWAP2 SWAP1 POP JUMP JUMPDEST PUSH1 0x0 PUSH2 0x358D DUP3 PUSH2 0x34E9 JUMP JUMPDEST SWAP2 POP PUSH2 0x3599 DUP3 DUP6 PUSH2 0x3472 JUMP JUMPDEST PUSH1 0x14 DUP3 ADD SWAP2 POP PUSH2 0x35A9 DUP3 DUP5 PUSH2 0x3520 JUMP JUMPDEST PUSH1 0x20 DUP3 ADD SWAP2 POP PUSH2 0x35B8 DUP3 PUSH2 0x355F JUMP JUMPDEST SWAP2 POP DUP2 SWAP1 POP SWAP4 SWAP3 POP POP POP JUMP JUMPDEST PUSH1 0x0 PUSH2 0x35CF DUP3 PUSH2 0x2483 JUMP JUMPDEST SWAP2 POP PUSH2 0x35DA DUP4 PUSH2 0x2483 JUMP JUMPDEST SWAP3 POP DUP3 DUP3 ADD SWAP1 POP DUP1 DUP3 GT ISZERO PUSH2 0x35F2 JUMPI PUSH2 0x35F1 PUSH2 0x2F09 JUMP JUMPDEST JUMPDEST SWAP3 SWAP2 POP POP JUMP JUMPDEST PUSH1 0x0 PUSH1 0x60 DUP3 ADD SWAP1 POP PUSH2 0x360D PUSH1 0x0 DUP4 ADD DUP7 PUSH2 0x250C JUMP JUMPDEST PUSH2 0x361A PUSH1 0x20 DUP4 ADD DUP6 PUSH2 0x250C JUMP JUMPDEST PUSH2 0x3627 PUSH1 0x40 DUP4 ADD DUP5 PUSH2 0x2FFE JUMP JUMPDEST SWAP5 SWAP4 POP POP POP POP JUMP JUMPDEST PUSH1 0x0 PUSH2 0x363A DUP3 PUSH2 0x2483 JUMP JUMPDEST SWAP2 POP PUSH32 0xFFFFFFFFFFFFFFFFFFFFFFFFFFFFFFFFFFFFFFFFFFFFFFFFFFFFFFFFFFFFFFFF DUP3 SUB PUSH2 0x366C JUMPI PUSH2 0x366B PUSH2 0x2F09 JUMP JUMPDEST JUMPDEST PUSH1 0x1 DUP3 ADD SWAP1 POP SWAP2 SWAP1 POP JUMP JUMPDEST PUSH1 0x0 DUP2 MLOAD SWAP1 POP SWAP2 SWAP1 POP JUMP JUMPDEST PUSH1 0x0 DUP2 SWAP1 POP SWAP3 SWAP2 POP POP JUMP JUMPDEST PUSH1 0x0 JUMPDEST DUP4 DUP2 LT ISZERO PUSH2 0x36AB JUMPI DUP1 DUP3 ADD MLOAD DUP2 DUP5 ADD MSTORE PUSH1 0x20 DUP2 ADD SWAP1 POP PUSH2 0x3690 JUMP JUMPDEST PUSH1 0x0 DUP5 DUP5 ADD MSTORE POP POP POP POP JUMP JUMPDEST PUSH1 0x0 PUSH2 0x36C2 DUP3 PUSH2 0x3677 JUMP JUMPDEST PUSH2 0x36CC DUP2 DUP6 PUSH2 0x3682 JUMP JUMPDEST SWAP4 POP PUSH2 0x36DC DUP2 DUP6 PUSH1 0x20 DUP7 ADD PUSH2 0x368D JUMP JUMPDEST DUP1 DUP5 ADD SWAP2 POP POP SWAP3 SWAP2 POP POP JUMP JUMPDEST PUSH1 0x0 PUSH2 0x36F4 DUP3 DUP5 PUSH2 0x36B7 JUMP JUMPDEST SWAP2 POP DUP2 SWAP1 POP SWAP3 SWAP2 POP POP JUMP JUMPDEST PUSH32 0x4B616A75737761703A205452414E534645525F4641494C454400000000000000 PUSH1 0x0 DUP3 ADD MSTORE POP JUMP JUMPDEST PUSH1 0x0 PUSH2 0x3735 PUSH1 0x19 DUP4 PUSH2 0x2C6E JUMP JUMPDEST SWAP2 POP PUSH2 0x3740 DUP3 PUSH2 0x36FF JUMP JUMPDEST PUSH1 0x20 DUP3 ADD SWAP1 POP SWAP2 SWAP1 POP JUMP JUMPDEST PUSH1 0x0 PUSH1 0x20 DUP3 ADD SWAP1 POP DUP2 DUP2 SUB PUSH1 0x0 DUP4 ADD MSTORE PUSH2 0x3764 DUP2 PUSH2 0x3728 JUMP JUMPDEST SWAP1 POP SWAP2 SWAP1 POP JUMP JUMPDEST PUSH32 0x4B616A75737761703A3A736166655472616E736665724554483A204554482054 PUSH1 0x0 DUP3 ADD MSTORE PUSH32 0x52414E534645525F4641494C4544000000000000000000000000000000000000 PUSH1 0x20 DUP3 ADD MSTORE POP JUMP JUMPDEST PUSH1 0x0 PUSH2 0x37C7 PUSH1 0x2E DUP4 PUSH2 0x2C6E JUMP JUMPDEST SWAP2 POP PUSH2 0x37D2 DUP3 PUSH2 0x376B JUMP JUMPDEST PUSH1 0x40 DUP3 ADD SWAP1 POP SWAP2 SWAP1 POP JUMP JUMPDEST PUSH1 0x0 PUSH1 0x20 DUP3 ADD SWAP1 POP DUP2 DUP2 SUB PUSH1 0x0 DUP4 ADD MSTORE PUSH2 0x37F6 DUP2 PUSH2 0x37BA JUMP JUMPDEST SWAP1 POP SWAP2 SWAP1 POP JUMP JUMPDEST PUSH32 0x4B616A75737761703A3A736166655472616E736665723A205452414E53464552 PUSH1 0x0 DUP3 ADD MSTORE PUSH32 0x5F4641494C454400000000000000000000000000000000000000000000000000 PUSH1 0x20 DUP3 ADD MSTORE POP JUMP JUMPDEST PUSH1 0x0 PUSH2 0x3859 PUSH1 0x27 DUP4 PUSH2 0x2C6E JUMP JUMPDEST SWAP2 POP PUSH2 0x3864 DUP3 PUSH2 0x37FD JUMP JUMPDEST PUSH1 0x40 DUP3 ADD SWAP1 POP SWAP2 SWAP1 POP JUMP JUMPDEST PUSH1 0x0 PUSH1 0x20 DUP3 ADD SWAP1 POP DUP2 DUP2 SUB PUSH1 0x0 DUP4 ADD MSTORE PUSH2 0x3888 DUP2 PUSH2 0x384C JUMP JUMPDEST SWAP1 POP SWAP2 SWAP1 POP JUMP JUMPDEST PUSH1 0x0 PUSH1 0x60 DUP3 ADD SWAP1 POP PUSH2 0x38A4 PUSH1 0x0 DUP4 ADD DUP7 PUSH2 0x2CEB JUMP JUMPDEST PUSH2 0x38B1 PUSH1 0x20 DUP4 ADD DUP6 PUSH2 0x2CEB JUMP JUMPDEST PUSH2 0x38BE PUSH1 0x40 DUP4 ADD DUP5 PUSH2 0x2CEB JUMP JUMPDEST SWAP5 SWAP4 POP POP POP POP JUMP INVALID PUSH21 0x72616E7366657246726F6D28616464726573732C61 PUSH5 0x6472657373 0x2C PUSH22 0x696E7432353629A2646970667358221220EE335253AE ADD 0xDE MUL 0xE6 PUSH19 0x2C43708E551C35683C4B443A2CFD8B220D9E20 DUP15 PUSH25 0xF064736F6C6343000811003300000000000000000000000000 "
		},
		"gasEstimates": {
			"creation": {
				"codeDepositCost": "2925000",
				"executionCost": "infinite",
				"totalCost": "infinite"
			},
			"external": {
				"addLiquidity(address,address,uint256,uint256,uint256,uint256,address)": "infinite",
				"addLiquidityETH(address,uint256,uint256,uint256,address)": "infinite",
				"getAmountIn(uint256,uint256,uint256)": "infinite",
				"getAmountOut(uint256,uint256,uint256)": "infinite",
				"getAmountsIn(uint256,address[])": "infinite",
				"getAmountsOut(uint256,address[])": "infinite",
				"quote(uint256,uint256,uint256)": "infinite",
				"removeLiquidity(address,address,uint256,uint256,uint256,address)": "infinite",
				"removeLiquidityETH(address,uint256,uint256,uint256,address)": "infinite",
				"swapExactETHForTokens(uint256,address[],address)": "infinite",
				"swapExactTokensForETH(uint256,uint256,address[],address)": "infinite",
				"swapExactTokensForTokens(uint256,uint256,address[],address)": "infinite",
				"swapTokensForExactTokens(uint256,uint256,address[],address)": "infinite"
			},
			"internal": {
				"_calculateLiquidity(address,address,uint256,uint256,uint256,uint256)": "infinite",
				"_safeTransfer(address,address,uint256)": "infinite",
				"_safeTransferETH(address,uint256)": "infinite",
				"_safeTransferFrom(address,address,address,uint256)": "infinite",
				"_swap(uint256[] memory,address[] memory,address)": "infinite"
			}
		},
		"methodIdentifiers": {
			"addLiquidity(address,address,uint256,uint256,uint256,uint256,address)": "ca3d6539",
			"addLiquidityETH(address,uint256,uint256,uint256,address)": "77215790",
			"getAmountIn(uint256,uint256,uint256)": "85f8c259",
			"getAmountOut(uint256,uint256,uint256)": "054d50d4",
			"getAmountsIn(uint256,address[])": "1f00ca74",
			"getAmountsOut(uint256,address[])": "d06ca61f",
			"quote(uint256,uint256,uint256)": "ad615dec",
			"removeLiquidity(address,address,uint256,uint256,uint256,address)": "c0e3ee6b",
			"removeLiquidityETH(address,uint256,uint256,uint256,address)": "6587e4ce",
			"swapExactETHForTokens(uint256,address[],address)": "12c6442f",
			"swapExactTokensForETH(uint256,uint256,address[],address)": "363db5c6",
			"swapExactTokensForTokens(uint256,uint256,address[],address)": "472b43f3",
			"swapTokensForExactTokens(uint256,uint256,address[],address)": "42712a67"
		}
	},
	"abi": [
		{
			"inputs": [
				{
					"internalType": "address",
					"name": "factoryAddress",
					"type": "address"
				},
				{
					"internalType": "address",
					"name": "WETHAddress",
					"type": "address"
				}
			],
			"stateMutability": "nonpayable",
			"type": "constructor"
		},
		{
			"inputs": [
				{
					"internalType": "address",
					"name": "tokenA",
					"type": "address"
				},
				{
					"internalType": "address",
					"name": "tokenB",
					"type": "address"
				},
				{
					"internalType": "uint256",
					"name": "amountADesired",
					"type": "uint256"
				},
				{
					"internalType": "uint256",
					"name": "amountBDesired",
					"type": "uint256"
				},
				{
					"internalType": "uint256",
					"name": "amountAMin",
					"type": "uint256"
				},
				{
					"internalType": "uint256",
					"name": "amountBMin",
					"type": "uint256"
				},
				{
					"internalType": "address",
					"name": "to",
					"type": "address"
				}
			],
			"name": "addLiquidity",
			"outputs": [
				{
					"internalType": "uint256",
					"name": "amountA",
					"type": "uint256"
				},
				{
					"internalType": "uint256",
					"name": "amountB",
					"type": "uint256"
				},
				{
					"internalType": "uint256",
					"name": "liquidity",
					"type": "uint256"
				}
			],
			"stateMutability": "nonpayable",
			"type": "function"
		},
		{
			"inputs": [
				{
					"internalType": "address",
					"name": "token",
					"type": "address"
				},
				{
					"internalType": "uint256",
					"name": "amountTokenDesired",
					"type": "uint256"
				},
				{
					"internalType": "uint256",
					"name": "amountTokenMin",
					"type": "uint256"
				},
				{
					"internalType": "uint256",
					"name": "amountETHMin",
					"type": "uint256"
				},
				{
					"internalType": "address",
					"name": "to",
					"type": "address"
				}
			],
			"name": "addLiquidityETH",
			"outputs": [
				{
					"internalType": "uint256",
					"name": "amountToken",
					"type": "uint256"
				},
				{
					"internalType": "uint256",
					"name": "amountETH",
					"type": "uint256"
				},
				{
					"internalType": "uint256",
					"name": "liquidity",
					"type": "uint256"
				}
			],
			"stateMutability": "payable",
			"type": "function"
		},
		{
			"inputs": [
				{
					"internalType": "uint256",
					"name": "amountOut",
					"type": "uint256"
				},
				{
					"internalType": "uint256",
					"name": "reserveIn",
					"type": "uint256"
				},
				{
					"internalType": "uint256",
					"name": "reserveOut",
					"type": "uint256"
				}
			],
			"name": "getAmountIn",
			"outputs": [
				{
					"internalType": "uint256",
					"name": "amountIn",
					"type": "uint256"
				}
			],
			"stateMutability": "pure",
			"type": "function"
		},
		{
			"inputs": [
				{
					"internalType": "uint256",
					"name": "amountIn",
					"type": "uint256"
				},
				{
					"internalType": "uint256",
					"name": "reserveIn",
					"type": "uint256"
				},
				{
					"internalType": "uint256",
					"name": "reserveOut",
					"type": "uint256"
				}
			],
			"name": "getAmountOut",
			"outputs": [
				{
					"internalType": "uint256",
					"name": "amountOut",
					"type": "uint256"
				}
			],
			"stateMutability": "pure",
			"type": "function"
		},
		{
			"inputs": [
				{
					"internalType": "uint256",
					"name": "amountOut",
					"type": "uint256"
				},
				{
					"internalType": "address[]",
					"name": "path",
					"type": "address[]"
				}
			],
			"name": "getAmountsIn",
			"outputs": [
				{
					"internalType": "uint256[]",
					"name": "amounts",
					"type": "uint256[]"
				}
			],
			"stateMutability": "nonpayable",
			"type": "function"
		},
		{
			"inputs": [
				{
					"internalType": "uint256",
					"name": "amountIn",
					"type": "uint256"
				},
				{
					"internalType": "address[]",
					"name": "path",
					"type": "address[]"
				}
			],
			"name": "getAmountsOut",
			"outputs": [
				{
					"internalType": "uint256[]",
					"name": "amounts",
					"type": "uint256[]"
				}
			],
			"stateMutability": "nonpayable",
			"type": "function"
		},
		{
			"inputs": [
				{
					"internalType": "uint256",
					"name": "amountIn",
					"type": "uint256"
				},
				{
					"internalType": "uint256",
					"name": "reserveIn",
					"type": "uint256"
				},
				{
					"internalType": "uint256",
					"name": "reserveOut",
					"type": "uint256"
				}
			],
			"name": "quote",
			"outputs": [
				{
					"internalType": "uint256",
					"name": "amountOut",
					"type": "uint256"
				}
			],
			"stateMutability": "pure",
			"type": "function"
		},
		{
			"inputs": [
				{
					"internalType": "address",
					"name": "tokenA",
					"type": "address"
				},
				{
					"internalType": "address",
					"name": "tokenB",
					"type": "address"
				},
				{
					"internalType": "uint256",
					"name": "liquidity",
					"type": "uint256"
				},
				{
					"internalType": "uint256",
					"name": "amountAMin",
					"type": "uint256"
				},
				{
					"internalType": "uint256",
					"name": "amountBMin",
					"type": "uint256"
				},
				{
					"internalType": "address",
					"name": "to",
					"type": "address"
				}
			],
			"name": "removeLiquidity",
			"outputs": [
				{
					"internalType": "uint256",
					"name": "amountA",
					"type": "uint256"
				},
				{
					"internalType": "uint256",
					"name": "amountB",
					"type": "uint256"
				}
			],
			"stateMutability": "nonpayable",
			"type": "function"
		},
		{
			"inputs": [
				{
					"internalType": "address",
					"name": "token",
					"type": "address"
				},
				{
					"internalType": "uint256",
					"name": "liquidity",
					"type": "uint256"
				},
				{
					"internalType": "uint256",
					"name": "amountTokenMin",
					"type": "uint256"
				},
				{
					"internalType": "uint256",
					"name": "amountETHMin",
					"type": "uint256"
				},
				{
					"internalType": "address",
					"name": "to",
					"type": "address"
				}
			],
			"name": "removeLiquidityETH",
			"outputs": [
				{
					"internalType": "uint256",
					"name": "amountToken",
					"type": "uint256"
				},
				{
					"internalType": "uint256",
					"name": "amountETH",
					"type": "uint256"
				}
			],
			"stateMutability": "nonpayable",
			"type": "function"
		},
		{
			"inputs": [
				{
					"internalType": "uint256",
					"name": "amountOutMin",
					"type": "uint256"
				},
				{
					"internalType": "address[]",
					"name": "path",
					"type": "address[]"
				},
				{
					"internalType": "address",
					"name": "to",
					"type": "address"
				}
			],
			"name": "swapExactETHForTokens",
			"outputs": [
				{
					"internalType": "uint256[]",
					"name": "amounts",
					"type": "uint256[]"
				}
			],
			"stateMutability": "payable",
			"type": "function"
		},
		{
			"inputs": [
				{
					"internalType": "uint256",
					"name": "amountIn",
					"type": "uint256"
				},
				{
					"internalType": "uint256",
					"name": "amountOutMin",
					"type": "uint256"
				},
				{
					"internalType": "address[]",
					"name": "path",
					"type": "address[]"
				},
				{
					"internalType": "address",
					"name": "to",
					"type": "address"
				}
			],
			"name": "swapExactTokensForETH",
			"outputs": [
				{
					"internalType": "uint256[]",
					"name": "amounts",
					"type": "uint256[]"
				}
			],
			"stateMutability": "nonpayable",
			"type": "function"
		},
		{
			"inputs": [
				{
					"internalType": "uint256",
					"name": "amountIn",
					"type": "uint256"
				},
				{
					"internalType": "uint256",
					"name": "amountOutMin",
					"type": "uint256"
				},
				{
					"internalType": "address[]",
					"name": "path",
					"type": "address[]"
				},
				{
					"internalType": "address",
					"name": "to",
					"type": "address"
				}
			],
			"name": "swapExactTokensForTokens",
			"outputs": [
				{
					"internalType": "uint256[]",
					"name": "amounts",
					"type": "uint256[]"
				}
			],
			"stateMutability": "nonpayable",
			"type": "function"
		},
		{
			"inputs": [
				{
					"internalType": "uint256",
					"name": "amountOut",
					"type": "uint256"
				},
				{
					"internalType": "uint256",
					"name": "amountInMax",
					"type": "uint256"
				},
				{
					"internalType": "address[]",
					"name": "path",
					"type": "address[]"
				},
				{
					"internalType": "address",
					"name": "to",
					"type": "address"
				}
			],
			"name": "swapTokensForExactTokens",
			"outputs": [
				{
					"internalType": "uint256[]",
					"name": "amounts",
					"type": "uint256[]"
				}
			],
			"stateMutability": "nonpayable",
			"type": "function"
		},
		{
			"stateMutability": "payable",
			"type": "receive"
		}
	]
}